interactions:
- request:
    body: '{"id": 0, "jsonrpc": "2.0", "method": "eth_getTransactionByHash", "params":
      ["0xb3f70f0eb6208572e30542304ba5513482b7ff095abd2beb2d22101a705770f2"]}'
    headers:
      Accept:
      - '*/*'
      Accept-Encoding:
      - gzip, deflate
      Connection:
      - keep-alive
      Content-Length:
      - '147'
      Content-Type:
      - application/json
      User-Agent:
      - rotki/1.41.4.dev605+g82b3ceb2bd
    method: POST
    uri: https://explorer.optimism.io/api/eth-rpc
  response:
    body:
      string: '{"jsonrpc":"2.0","result": {"accessList":[],"blockHash":"0x664826ba985797cf7a26953b4c9132f0dc73c319fc63b769a6cd3eeadb515a9b","blockNumber":"0x6e97673","chainId":"0xa","from":"0x2b888954421b424c5d3d9ce9bb67c9bd47537d12","gas":"0x5cc99","gasPrice":"0x171d4c","hash":"0xb3f70f0eb6208572e30542304ba5513482b7ff095abd2beb2d22101a705770f2","input":"0x12aa3caf000000000000000000000000b63aae6c353636d66df13b89ba4425cfe13d10ba0000000000000000000000000b2c639c533813f4aa9d7837caf62653d097ff850000000000000000000000007f5c764cbc14f9669b88837ca1490cca17c31607000000000000000000000000b63aae6c353636d66df13b89ba4425cfe13d10ba0000000000000000000000002b888954421b424c5d3d9ce9bb67c9bd47537d120000000000000000000000000000000000000000000000000000000017e156900000000000000000000000000000000000000000000000000000000017c27cf30000000000000000000000000000000000000000000000000000000000000004000000000000000000000000000000000000000000000000000000000000014000000000000000000000000000000000000000000000000000000000000001600000000000000000000000000000000000000000000000000000000000000000000000000000000000000000000000000000000000000000000000000000010e0000000000000000000000000000000000000000000000000000000000f0512050a39b94b1dc8472faa08c36a3ef5b0a01c5bd100b2c639c533813f4aa9d7837caf62653d097ff8500449908fc8b0000000000000000000000000b2c639c533813f4aa9d7837caf62653d097ff850000000000000000000000007f5c764cbc14f9669b88837ca1490cca17c31607000000000000000000000000000000000000000000000000000000000000000000000000000000000000000000000000000000000000000000000000000000010000000000000000000000001111111254eeb25477b68fb85ed929f73a9605820000000000000000000000000000000000000000000000000000000065cd5e08000000000000000000000000000000000000f012a792","maxFeePerGas":"0x3668bf","maxPriorityFeePerGas":"0x7b5bf","nonce":"0x33","r":"0xed2ca87389003ca394d38e79e9ff48787257d37852d1747ac8ecd7ccae1db76c","s":"0x618a045bc7bba692c30e97fb5b117e4e61c5271f8f24f5ac67b39bbbf6955b8","to":"0x1111111254eeb25477b68fb85ed929f73a960582","transactionIndex":"0x4","type":"0x2","v":"0x0","value":"0x0","yParity":"0x0"},"id":
        0}

        '
    headers:
      CF-RAY:
      - 9cc6c6900c50a55c-AMS
      Cache-Control:
      - max-age=0, private, must-revalidate
      Connection:
      - keep-alive
      Content-Type:
      - application/json; charset=utf-8
      Date:
      - Wed, 11 Feb 2026 21:00:24 GMT
      Nel:
      - '{"report_to":"cf-nel","success_fraction":0.0,"max_age":604800}'
      Report-To:
      - '{"group":"cf-nel","max_age":604800,"endpoints":[{"url":"https://a.nel.cloudflare.com/report/v4?s=qG920GFsvWDywaimqIVA3eRWv3Xhn5mp1rPd8Y3Gwn1UWMN0kY8c0iZoE7R8H7qXS7J9xnMqOlZ5YQrlYpSyrB1nMETB6yswd0rrZ4Cg%2BYKDPJDpGSKDcym7sXFvHxJj"}]}'
      Server:
      - cloudflare
      Transfer-Encoding:
      - chunked
      access-control-allow-credentials:
      - 'true'
      access-control-allow-origin:
      - '*'
      access-control-expose-headers:
      - bypass-429-option,x-ratelimit-reset,x-ratelimit-limit,x-ratelimit-remaining,api-v2-temp-token
      alt-svc:
      - h3=":443"; ma=86400
      bypass-429-option:
      - no_bypass
      cf-cache-status:
      - DYNAMIC
      content-length:
      - '2063'
      strict-transport-security:
      - max-age=31536000; includeSubDomains
      x-ratelimit-limit:
      - '600'
      x-ratelimit-remaining:
      - '599'
      x-ratelimit-reset:
      - '35020'
      x-request-id:
      - 37fd89b8db3207ecb9208d9244eae4cf
    status:
      code: 200
      message: OK
- request:
    body: '{"id": 0, "jsonrpc": "2.0", "method": "eth_getBlockByNumber", "params":
      ["0x6e97673", true]}'
    headers:
      Accept:
      - '*/*'
      Accept-Encoding:
      - gzip, deflate
      Connection:
      - keep-alive
      Content-Length:
      - '92'
      Content-Type:
      - application/json
      User-Agent:
      - rotki/1.41.4.dev605+g82b3ceb2bd
    method: POST
    uri: https://explorer.optimism.io/api/eth-rpc
  response:
    body:
      string: '{"jsonrpc":"2.0","result": {"baseFeePerGas":"0xf678d","difficulty":"0x0","extraData":"0x","gasLimit":"0x1c9c380","gasUsed":"0x203a6c","hash":"0x664826ba985797cf7a26953b4c9132f0dc73c319fc63b769a6cd3eeadb515a9b","logsBloom":"0x0040202000000080840000a1000200000008004800008010001000000020000000000000404000088000001000020900018010400801000000000012006239300a0008000000080002082808002004082000080020090000c180000001020000800005000240010000000208008008000000020020000200000001140000042400000020000003000021048010000000000000000004024000000000a2000000220001002000080000000040041004000a01008020000001000000002010000020001002004100000000100020004000800000000000200000080000020020080210480002011000010600400200800000000400010000000000000000050410","miner":"0x4200000000000000000000000000000000000011","mixHash":"0x2d9828ef1b7ec80f40ac8c8599f7eb18411c61f41658c1fb124861cfb3eda857","nonce":"0x0000000000000000","number":"0x6e97673","parentHash":"0xdb33540b7631886e9c45cd8755a21f1482a3ccf2c7eb15d271daf7d5a1129080","receiptsRoot":"0x75c83e4a7f2a90a785f7b1a8fee150c23cae3a3dbd5cb07daa2e14f9d85d3b52","sha3Uncles":"0x1dcc4de8dec75d7aab85b567b6ccd41ad312451b948a7413f0a142fd40d49347","size":"0xf9d","stateRoot":"0x2a4465ef4e30a6066407fb1fd65ec4c0339ee4c69da36aced21f5a96f872b3d0","timestamp":"0x65c6c69f","transactions":[{"blockHash":"0x664826ba985797cf7a26953b4c9132f0dc73c319fc63b769a6cd3eeadb515a9b","blockNumber":"0x6e97673","depositReceiptVersion":"0x1","from":"0xdeaddeaddeaddeaddeaddeaddeaddeaddead0001","gas":"0xf4240","gasPrice":"0x0","hash":"0x4338b4a85400b124b5f7bdd0c56acc1f4b4d3b48cff3d36b8a0289899a7d01f7","input":"0x015d8eb9000000000000000000000000000000000000000000000000000000000124e15d0000000000000000000000000000000000000000000000000000000065c6c64b0000000000000000000000000000000000000000000000000000000988c8748e9730e19d3d6c987fbcc830c0fcb9f4092152bc4ad9da5db7f093a7e15aaa69a800000000000000000000000000000000000000000000000000000000000000030000000000000000000000006887246668a3b87f54deb3b94ba47a6f63f3298500000000000000000000000000000000000000000000000000000000000000bc00000000000000000000000000000000000000000000000000000000000a6fe0","mint":"0x0","nonce":"0xa3b3fb","r":"0x0","s":"0x0","sourceHash":"0x41509837d4eb5d5b6f1c4933b2b7b9779fb402cec439537dfcd6899474c7dbb5","to":"0x4200000000000000000000000000000000000015","transactionIndex":"0x0","type":"0x7e","v":"0x0","value":"0x0","yParity":"0x0"},{"accessList":[],"blockHash":"0x664826ba985797cf7a26953b4c9132f0dc73c319fc63b769a6cd3eeadb515a9b","blockNumber":"0x6e97673","chainId":"0xa","from":"0xa9a7e4d152c30b85af807e8fd5052e6474b65367","gas":"0x192d50","gasPrice":"0x59395c","hash":"0x26279a193c91142d147b6e0a80dc4d6affb609132cffee784871071ded1d099b","input":"0x01050189241151ed9d833ba15e7e5d685042de81723c99504e41550100000003b801000000030d0243a6c61859200312b9c9d813a882e02fb5b072cf63c0d516c35893bbe97803e63589c6a1c811d80c778800739ecdb20ccf363be8186b32f2e27e5c7ba62d061901033fc8cd188ae5022ecc7ffa243a6cda42424b3f08028ea3d0892356bef5ede4430c045505f7996acf441c7760efd86ab3cd22f40d87d72821d7c2e430cee4694601045e10f408ff5e76c164522a967c17bf4887164789f8c201f628023476052a862e29b45e3005491ee3518c6c18b69e4b45d8fd3d676369bf9e3abf81379384cbb000072f5f30e68db32b1738f91fad5b2730597ef9fac27b118b3e556aeed8bc70af1256a4b1e0c64b9ef83c8bc1f769f3860344a9945768b37388d7f70900c273bfc20008321279b76c9a67486897907f687d04477080687aab9e365929c42b7155d8358b1b1adb01f41615f363af50ef540b98d986a0a9e2adf88d45721363cecc71af91000a91d808bca00d71c5900a49a96f19eb3547bf3e6df5dc4ded4a4f028a059891e4756a8f3af850f86091b39daa3d709bbd5a92c4e7864405857eff2dd0781482b9010b3b0004937ae3068e9b0b8efe193b341eaa57d6563fbc38db2468694ba6a4eb522241c89eeb3268d5b9043e6957cf5ac1f3ff7989a464f2921ec324c0638997e9000cc23c9893f1ff9ea62d304bdd258cdd5cc97f2340e6495d105338e18614dd7c0433ee0aa9d3197c311fac3f6c8fca596778d8a35e33d515332c9e9901d85e1e9e010dbedc171641bcaea6ef820444c8452e08a353fefa24077c842b205f6a0e872a2c345c9b280e5b41b80aa7ce475eb3d9b509fe3a9112c7fefba4a9629ec61b303b010e7c23efa86397c1b84a0f3a4cf8ab87d8bb4e7738fa26456123dffb39ef4cafe224b0d10ca8c6bc784231999c91ef07ba81be5ee0446b3e917e017f8f61da1905000fdbfc126ff957a22d22c14e281fbd2be917a3d40f8ff4891a4105982129eecfce3fa3fe8e10c830e2418ef7f2f0636c5cb2b964c704ce25fac1008e68df95fff1001088097c1ccf071d011fe7fbb73e1c50c60445b7b29d231277c80ac52ddfac36667716fc5504c877c5c89e93abf1fa23317a5eaca2c246efaa7e756472d0e86356011286e3b8391118df0342afcee859a59e7c9cdcad5627123faf2a76e8ba283422677ce62509259a8cdcfdce73742682234e2e4df39f2e03eb0547781b9a4d718e100065c6c69a00000000001ae101faedac5851e32b9b23b5f9411a8c2bac4aae3ed4dd7b811dd1a72ea4aa710000000002640c7c01415557560000000000076c02e000002710aee39e96d5cbc6c2b701b98cab0c391fce8cb3e601005500ef0d8b6fda2ceba41da15d4095d1da392a0d2f8ed0c6c7bc0f4cfac8c280b56d000000028005b019000000000074dd38fffffff80000000065c6c69a0000000065c6c699000000028007233000000000007638fc0a45986cdaef5022e0697f2d0847c5ea18aed3608730e560825fc40dd2e103adfe0f2c0540a9597b3d8a827192dddedcac674afbb889dd9a816dc63406c870c8b83df5b0503e9265dce65a098c94647857c2ad594654df106b6b6e9f9415568d405aa2e93f148555c729aa62b31f7b31bff7f71414cb9e6313e02a4dd3150edb26ac0444f2c66322f7b01ce7e18dd6bbd39ad757dffe8b80a18bb443e02af2b92260fff69fc949c229dd1fa60a1f7241fa4aa1820a3eef7e1a0800cf5a8f78ee40092425e42d840de4","maxFeePerGas":"0x108d7e0","maxPriorityFeePerGas":"0x49d1cf","nonce":"0x30d46","r":"0x994cfdb3c1b4b1b0068636021384d6e012564f8fbb13cc690255c9cd9448250b","s":"0x45878b474f6d9d7b50e1e0606221814319b225b59b040a6d2b86c8e065aec8c4","to":"0x30609910c6fbff5bb7afa0732ccfefa6419654f1","transactionIndex":"0x1","type":"0x2","v":"0x0","value":"0x1","yParity":"0x0"},{"blockHash":"0x664826ba985797cf7a26953b4c9132f0dc73c319fc63b769a6cd3eeadb515a9b","blockNumber":"0x6e97673","chainId":"0xa","from":"0x5d47e5d242a8f66a6286b0a2353868875f5d6068","gas":"0xabac2","gasPrice":"0x1e94e8","hash":"0xfdd0199605226a3c6d4addfa9a7628fadc8cdbf82ba37801044a974cc395e1b6","input":"0x9304c934000000000000000000000000000000000000000000000000000000000000006000000000000000000000000000000000000000000000000000000000000000e0000000000000000000000000000000000000000000000000000000000000000000000000000000000000000000000000000000000000000000000000000000010000000000000000000000000000000000000000000000000000000000000020000000000000000000000000000000000000000000000000000000000000001c53796e7468657469782d416476616e6365642d4f72646572732d763100000000000000000000000000000000000000000000000000000000000000000000000100000000000000000000000000000000000000000000000000000000000000200000000000000000000000000000000000000000000000000000000000000104b6c0ace60000000000000000000000002b3bb4c683bfc5239b029131eef3b1d214478d93ffffffffffffffffffffffffffffffffffff800000000000000f273879bb000000000000000000000000000000000000000000000000000000b1a2bc2ec500000000000000000000000000000000000000000000000000000000000065ee53880000000000000000000000000000000000000000000000877d0b31a1811e00000000000000000000000000000000000000007ffffffffffffff0d8c7864500000000000000000000000000000000000000000000000000000000000000000001000000000000000000000000000000000000000000000086f2b7e023f2e3800000000000000000000000000000000000000000000000000000000000","nonce":"0xb1c","r":"0x7db18d446a55c314a245428c6294d093b1af250685c648d2d7581dd71f3780ed","s":"0x6f5e30cbf7cdb28bdfdae3cc75be368c15f281fc7e861ccc5a9e1a5bccf3e5e","to":"0xf23886fefb6a487760b747eb5f04cd750c0b8849","transactionIndex":"0x2","type":"0x0","v":"0x38","value":"0x0"},{"accessList":[],"blockHash":"0x664826ba985797cf7a26953b4c9132f0dc73c319fc63b769a6cd3eeadb515a9b","blockNumber":"0x6e97673","chainId":"0xa","from":"0xd88f8cd2a39e0fb92434a96736ea2ee03ab882a6","gas":"0x38e92","gasPrice":"0x175cc9","hash":"0x3c179f4945b8341c65c822fd33129518ab9cee6d05eddc0df7a258658ed109eb","input":"0xf3931d5d000000000000000000000000000000000000000000000000000000000000a4ec0000000000000000000000000000000000000000000000000de0b6b3a7640000","maxFeePerGas":"0x35e135","maxPriorityFeePerGas":"0x7f53c","nonce":"0x1d","r":"0x6a44a8d5d32d694eb7bf41700e8c540db19d5229bebe21195aed595fec43bf3","s":"0x15e627bb7cf401d656bb43843173b86453d3f734d9d7b316c90486d70fa28a3a","to":"0x32f05f390217990404392a4ddaf39d31db4aff77","transactionIndex":"0x3","type":"0x2","v":"0x1","value":"0xf2638d6a878","yParity":"0x1"},{"accessList":[],"blockHash":"0x664826ba985797cf7a26953b4c9132f0dc73c319fc63b769a6cd3eeadb515a9b","blockNumber":"0x6e97673","chainId":"0xa","from":"0x2b888954421b424c5d3d9ce9bb67c9bd47537d12","gas":"0x5cc99","gasPrice":"0x171d4c","hash":"0xb3f70f0eb6208572e30542304ba5513482b7ff095abd2beb2d22101a705770f2","input":"0x12aa3caf000000000000000000000000b63aae6c353636d66df13b89ba4425cfe13d10ba0000000000000000000000000b2c639c533813f4aa9d7837caf62653d097ff850000000000000000000000007f5c764cbc14f9669b88837ca1490cca17c31607000000000000000000000000b63aae6c353636d66df13b89ba4425cfe13d10ba0000000000000000000000002b888954421b424c5d3d9ce9bb67c9bd47537d120000000000000000000000000000000000000000000000000000000017e156900000000000000000000000000000000000000000000000000000000017c27cf30000000000000000000000000000000000000000000000000000000000000004000000000000000000000000000000000000000000000000000000000000014000000000000000000000000000000000000000000000000000000000000001600000000000000000000000000000000000000000000000000000000000000000000000000000000000000000000000000000000000000000000000000000010e0000000000000000000000000000000000000000000000000000000000f0512050a39b94b1dc8472faa08c36a3ef5b0a01c5bd100b2c639c533813f4aa9d7837caf62653d097ff8500449908fc8b0000000000000000000000000b2c639c533813f4aa9d7837caf62653d097ff850000000000000000000000007f5c764cbc14f9669b88837ca1490cca17c31607000000000000000000000000000000000000000000000000000000000000000000000000000000000000000000000000000000000000000000000000000000010000000000000000000000001111111254eeb25477b68fb85ed929f73a9605820000000000000000000000000000000000000000000000000000000065cd5e08000000000000000000000000000000000000f012a792","maxFeePerGas":"0x3668bf","maxPriorityFeePerGas":"0x7b5bf","nonce":"0x33","r":"0xed2ca87389003ca394d38e79e9ff48787257d37852d1747ac8ecd7ccae1db76c","s":"0x618a045bc7bba692c30e97fb5b117e4e61c5271f8f24f5ac67b39bbbf6955b8","to":"0x1111111254eeb25477b68fb85ed929f73a960582","transactionIndex":"0x4","type":"0x2","v":"0x0","value":"0x0","yParity":"0x0"}],"transactionsRoot":"0x16cc511826f957e62127f91c26c2a9dafb47660eba62b2b4075424b000add654","uncles":[],"withdrawals":[],"withdrawalsRoot":"0x56e81f171bcc55a6ff8345e692c0f86e5b48e01b996cadc001622fb5e363b421"},"id":
        0}

        '
    headers:
      CF-RAY:
      - 9cc6c690a8ec11ed-AMS
      Cache-Control:
      - max-age=0, private, must-revalidate
      Connection:
      - keep-alive
      Content-Type:
      - application/json; charset=utf-8
      Date:
      - Wed, 11 Feb 2026 21:00:25 GMT
      Nel:
      - '{"report_to":"cf-nel","success_fraction":0.0,"max_age":604800}'
      Report-To:
      - '{"group":"cf-nel","max_age":604800,"endpoints":[{"url":"https://a.nel.cloudflare.com/report/v4?s=qvWZwnhUezs7gq6w57gJTql6lxVsjabFHRKI6e%2BORskwkpgOzXX6oQmStGtg%2BQIOpI9VaVUVGLG4Kt%2BR%2B%2BXs0zlBfMykqe2XbwvmKpZJSDF1LvEElasm%2BOs6Nalwl6md"}]}'
      Server:
      - cloudflare
      Transfer-Encoding:
      - chunked
      access-control-allow-credentials:
      - 'true'
      access-control-allow-origin:
      - '*'
      access-control-expose-headers:
      - bypass-429-option,x-ratelimit-reset,x-ratelimit-limit,x-ratelimit-remaining,api-v2-temp-token
      alt-svc:
      - h3=":443"; ma=86400
      bypass-429-option:
      - no_bypass
      cf-cache-status:
      - DYNAMIC
      content-length:
      - '10481'
      strict-transport-security:
      - max-age=31536000; includeSubDomains
      x-ratelimit-limit:
      - '600'
      x-ratelimit-remaining:
      - '598'
      x-ratelimit-reset:
      - '34921'
      x-request-id:
      - 7dcc54497ae631db87ab62904d225692
    status:
      code: 200
      message: OK
- request:
    body: '{"id": 0, "jsonrpc": "2.0", "method": "eth_getTransactionReceipt", "params":
      ["0xb3f70f0eb6208572e30542304ba5513482b7ff095abd2beb2d22101a705770f2"]}'
    headers:
      Accept:
      - '*/*'
      Accept-Encoding:
      - gzip, deflate
      Connection:
      - keep-alive
      Content-Length:
      - '148'
      Content-Type:
      - application/json
      User-Agent:
      - rotki/1.41.4.dev605+g82b3ceb2bd
    method: POST
    uri: https://explorer.optimism.io/api/eth-rpc
  response:
    body:
      string: '{"jsonrpc":"2.0","result": {"blockHash":"0x664826ba985797cf7a26953b4c9132f0dc73c319fc63b769a6cd3eeadb515a9b","blockNumber":"0x6e97673","contractAddress":null,"cumulativeGasUsed":"0x203a6c","effectiveGasPrice":"0x171d4c","from":"0x2b888954421b424c5d3d9ce9bb67c9bd47537d12","gasUsed":"0x33b37","logs":[{"address":"0x0b2c639c533813f4aa9d7837caf62653d097ff85","blockHash":"0x664826ba985797cf7a26953b4c9132f0dc73c319fc63b769a6cd3eeadb515a9b","blockNumber":"0x6e97673","data":"0x0000000000000000000000000000000000000000000000000000000017e15690","logIndex":"0x12","removed":false,"topics":["0xddf252ad1be2c89b69c2b068fc378daa952ba7f163c4a11628f55a4df523b3ef","0x0000000000000000000000002b888954421b424c5d3d9ce9bb67c9bd47537d12","0x000000000000000000000000b63aae6c353636d66df13b89ba4425cfe13d10ba"],"transactionHash":"0xb3f70f0eb6208572e30542304ba5513482b7ff095abd2beb2d22101a705770f2","transactionIndex":"0x4"},{"address":"0x0b2c639c533813f4aa9d7837caf62653d097ff85","blockHash":"0x664826ba985797cf7a26953b4c9132f0dc73c319fc63b769a6cd3eeadb515a9b","blockNumber":"0x6e97673","data":"0x0000000000000000000000000000000000000000000000000000000017e15690","logIndex":"0x13","removed":false,"topics":["0x8c5be1e5ebec7d5bd14f71427d1e84f3dd0314c0f7b2291e5b200ac8c7c3b925","0x000000000000000000000000b63aae6c353636d66df13b89ba4425cfe13d10ba","0x00000000000000000000000050a39b94b1dc8472faa08c36a3ef5b0a01c5bd10"],"transactionHash":"0xb3f70f0eb6208572e30542304ba5513482b7ff095abd2beb2d22101a705770f2","transactionIndex":"0x4"},{"address":"0x0b2c639c533813f4aa9d7837caf62653d097ff85","blockHash":"0x664826ba985797cf7a26953b4c9132f0dc73c319fc63b769a6cd3eeadb515a9b","blockNumber":"0x6e97673","data":"0x0000000000000000000000000000000000000000000000000000000017e15690","logIndex":"0x14","removed":false,"topics":["0xddf252ad1be2c89b69c2b068fc378daa952ba7f163c4a11628f55a4df523b3ef","0x000000000000000000000000b63aae6c353636d66df13b89ba4425cfe13d10ba","0x00000000000000000000000020d7ee728900848752fa280fad51af40c47302f1"],"transactionHash":"0xb3f70f0eb6208572e30542304ba5513482b7ff095abd2beb2d22101a705770f2","transactionIndex":"0x4"},{"address":"0x7f5c764cbc14f9669b88837ca1490cca17c31607","blockHash":"0x664826ba985797cf7a26953b4c9132f0dc73c319fc63b769a6cd3eeadb515a9b","blockNumber":"0x6e97673","data":"0x0000000000000000000000000000000000000000000000000000000017e0bd70","logIndex":"0x15","removed":false,"topics":["0xddf252ad1be2c89b69c2b068fc378daa952ba7f163c4a11628f55a4df523b3ef","0x0000000000000000000000002943f5d7428a8b9fc849e9c33fa46d32c272936e","0x0000000000000000000000001111111254eeb25477b68fb85ed929f73a960582"],"transactionHash":"0xb3f70f0eb6208572e30542304ba5513482b7ff095abd2beb2d22101a705770f2","transactionIndex":"0x4"},{"address":"0x50a39b94b1dc8472faa08c36a3ef5b0a01c5bd10","blockHash":"0x664826ba985797cf7a26953b4c9132f0dc73c319fc63b769a6cd3eeadb515a9b","blockNumber":"0x6e97673","data":"0x0000000000000000000000000b2c639c533813f4aa9d7837caf62653d097ff850000000000000000000000007f5c764cbc14f9669b88837ca1490cca17c316070000000000000000000000000000000000000000000000000000000017e156900000000000000000000000000000000000000000000000000000000017e0bd700000000000000000000000000000000000000000000000000000000000001f4c","logIndex":"0x16","removed":false,"topics":["0x7fa01e8d24e5a6ec56e00b4ff8ee7ed97e7650a7846ec494bbaa5d65f1be9ea4","0x000000000000000000000000b63aae6c353636d66df13b89ba4425cfe13d10ba","0x0000000000000000000000001111111254eeb25477b68fb85ed929f73a960582"],"transactionHash":"0xb3f70f0eb6208572e30542304ba5513482b7ff095abd2beb2d22101a705770f2","transactionIndex":"0x4"},{"address":"0x7f5c764cbc14f9669b88837ca1490cca17c31607","blockHash":"0x664826ba985797cf7a26953b4c9132f0dc73c319fc63b769a6cd3eeadb515a9b","blockNumber":"0x6e97673","data":"0x0000000000000000000000000000000000000000000000000000000017e0bd70","logIndex":"0x17","removed":false,"topics":["0xddf252ad1be2c89b69c2b068fc378daa952ba7f163c4a11628f55a4df523b3ef","0x0000000000000000000000001111111254eeb25477b68fb85ed929f73a960582","0x0000000000000000000000002b888954421b424c5d3d9ce9bb67c9bd47537d12"],"transactionHash":"0xb3f70f0eb6208572e30542304ba5513482b7ff095abd2beb2d22101a705770f2","transactionIndex":"0x4"}],"logsBloom":"0x00002000000000000000008100000000000000080000000000000000000000000000000000000000000000000002000001000040080000000000000200201030020008000000080000002008000000000000000000000000000000000000000000000400000000000000000000000000000000000000000000000010000000200000000000000200000004000000000000000000000400000000000002000000020001000000000000000000040004000000008000000000000000000010000000000002000000000000000000004000000000000000000000000000000000000010000000000000000400000000000000000000000000000000000000010000","status":"0x1","to":"0x1111111254eeb25477b68fb85ed929f73a960582","transactionHash":"0xb3f70f0eb6208572e30542304ba5513482b7ff095abd2beb2d22101a705770f2","transactionIndex":"0x4","type":"0x2"},"id":
        0}

        '
    headers:
      CF-RAY:
      - 9cc6c6941cdac96e-AMS
      Cache-Control:
      - max-age=0, private, must-revalidate
      Connection:
      - keep-alive
      Content-Type:
      - application/json; charset=utf-8
      Date:
      - Wed, 11 Feb 2026 21:00:25 GMT
      Nel:
      - '{"report_to":"cf-nel","success_fraction":0.0,"max_age":604800}'
      Report-To:
      - '{"group":"cf-nel","max_age":604800,"endpoints":[{"url":"https://a.nel.cloudflare.com/report/v4?s=23o0Eqex2D1jNoFiMjhBBpf4p4rf3adqdwil6F%2B%2FSDGhjG2oaC3x66gXlBSW1kGED8cF%2FSYkOumomD1ZA%2FAPjoHFXaU%2B8VyTGhfxXDkHMAYjlVl%2FJaqdNPgTdtQy5cw3"}]}'
      Server:
      - cloudflare
      Transfer-Encoding:
      - chunked
      access-control-allow-credentials:
      - 'true'
      access-control-allow-origin:
      - '*'
      access-control-expose-headers:
      - bypass-429-option,x-ratelimit-reset,x-ratelimit-limit,x-ratelimit-remaining,api-v2-temp-token
      alt-svc:
      - h3=":443"; ma=86400
      bypass-429-option:
      - no_bypass
      cf-cache-status:
      - DYNAMIC
      content-length:
      - '4910'
      strict-transport-security:
      - max-age=31536000; includeSubDomains
      x-ratelimit-limit:
      - '600'
      x-ratelimit-remaining:
      - '597'
      x-ratelimit-reset:
      - '34376'
      x-request-id:
      - bc377ba3f2f7993f236a2127220a7dc5
    status:
      code: 200
      message: OK
- request:
    body: null
    headers:
      Accept:
      - '*/*'
      Accept-Encoding:
      - gzip, deflate
      Connection:
      - keep-alive
      User-Agent:
      - rotki/1.41.4.dev605+g82b3ceb2bd
    method: GET
    uri: https://explorer.optimism.io/api/v2/transactions/0xb3f70f0eb6208572e30542304ba5513482b7ff095abd2beb2d22101a705770f2
  response:
    body:
      string: '{"l1_gas_used":"7504","priority_fee":"107001417993","raw_input":"0x12aa3caf000000000000000000000000b63aae6c353636d66df13b89ba4425cfe13d10ba0000000000000000000000000b2c639c533813f4aa9d7837caf62653d097ff850000000000000000000000007f5c764cbc14f9669b88837ca1490cca17c31607000000000000000000000000b63aae6c353636d66df13b89ba4425cfe13d10ba0000000000000000000000002b888954421b424c5d3d9ce9bb67c9bd47537d120000000000000000000000000000000000000000000000000000000017e156900000000000000000000000000000000000000000000000000000000017c27cf30000000000000000000000000000000000000000000000000000000000000004000000000000000000000000000000000000000000000000000000000000014000000000000000000000000000000000000000000000000000000000000001600000000000000000000000000000000000000000000000000000000000000000000000000000000000000000000000000000000000000000000000000000010e0000000000000000000000000000000000000000000000000000000000f0512050a39b94b1dc8472faa08c36a3ef5b0a01c5bd100b2c639c533813f4aa9d7837caf62653d097ff8500449908fc8b0000000000000000000000000b2c639c533813f4aa9d7837caf62653d097ff850000000000000000000000007f5c764cbc14f9669b88837ca1490cca17c31607000000000000000000000000000000000000000000000000000000000000000000000000000000000000000000000000000000000000000000000000000000010000000000000000000000001111111254eeb25477b68fb85ed929f73a9605820000000000000000000000000000000000000000000000000000000065cd5e08000000000000000000000000000000000000f012a792","is_pending_update":false,"op_withdrawals":[],"result":"success","hash":"0xb3f70f0eb6208572e30542304ba5513482b7ff095abd2beb2d22101a705770f2","max_fee_per_gas":"3565759","revert_reason":null,"confirmation_duration":[0,2.0e3],"transaction_burnt_fee":"213789163083","type":2,"token_transfers_overflow":false,"confirmations":31658918,"position":4,"max_priority_fee_per_gas":"505279","transaction_tag":null,"created_contract":null,"value":"0","l1_fee_scalar":"0.684","from":{"ens_domain_name":"lefteris.eth","hash":"0x2B888954421b424C5D3D9Ce9bB67c9bD47537d12","implementations":[],"is_contract":false,"is_scam":false,"is_verified":false,"metadata":{"tags":[{"meta":{"bgColor":"#8465CB","tagIcon":"data:image/svg+xml;utf8,%3Csvg%20xmlns%3D%22http%3A%2F%2Fwww.w3.org%2F2000%2Fsvg%22%20xmlns%3Axlink%3D%22http%3A%2F%2Fwww.w3.org%2F1999%2Fxlink%22%20viewBox%3D%220%200%2032%2029%22%3E%3Cpath%20d%3D%22M%205.507%200.072%20L%2026.097%200.072%20L%2026.097%204.167%20L%2031.952%204.167%20L%2030.725%208.263%20L%2029.686%208.263%20L%2029.686%2024.833%20C%2030.207%2024.833%2030.63%2025.249%2030.63%2025.763%20L%2030.63%2026.88%20L%2030.819%2026.88%20C%2031.341%2026.88%2031.764%2027.297%2031.764%2027.811%20L%2031.764%2028.928%20L%2021.185%2028.928%20L%2021.185%2027.811%20C%2021.185%2027.297%2021.608%2026.88%2022.13%2026.88%20L%2022.319%2026.88%20L%2022.319%2025.763%20C%2022.319%2025.316%2022.639%2024.943%2023.065%2024.853%20L%2023.045%2015.71%20C%2022.711%2012.057%2019.596%209.194%2015.802%209.194%20C%2012.008%209.194%208.893%2012.057%208.559%2015.71%20L%208.539%2024.845%20C%209.043%2024.919%209.663%2025.302%209.663%2025.763%20L%209.663%2026.88%20L%209.852%2026.88%20C%2010.373%2026.88%2010.796%2027.297%2010.796%2027.811%20L%2010.796%2028.928%20L%200.218%2028.928%20L%200.218%2027.811%20C%200.218%2027.297%200.641%2026.88%201.162%2026.88%20L%201.351%2026.88%20L%201.351%2025.763%20C%201.351%2025.249%201.774%2024.833%202.296%2024.833%20L%202.296%208.263%20L%201.257%208.263%20L%200.029%204.167%20L%205.507%204.167%20L%205.507%200.072%20Z%22%20fill%3D%22rgb(255%2C%20255%2C%20255)%22%3E%3C%2Fpath%3E%3Cpath%20d%3D%22M%2026.097%200.072%20L%2026.166%200.072%20L%2026.166%200.004%20L%2026.097%200.004%20Z%20M%205.507%200.072%20L%205.507%200.004%20L%205.438%200.004%20L%205.438%200.072%20Z%20M%2026.097%204.167%20L%2026.028%204.167%20L%2026.028%204.235%20L%2026.097%204.235%20Z%20M%2031.952%204.167%20L%2032.019%204.187%20L%2032.045%204.099%20L%2031.952%204.099%20L%2031.952%204.167%20Z%20M%2030.725%208.263%20L%2030.725%208.331%20L%2030.776%208.331%20L%2030.791%208.282%20Z%20M%2029.686%208.263%20L%2029.686%208.195%20L%2029.617%208.195%20L%2029.617%208.263%20Z%20M%2029.686%2024.833%20L%2029.617%2024.833%20L%2029.617%2024.901%20L%2029.686%2024.901%20Z%20M%2030.63%2026.88%20L%2030.561%2026.88%20L%2030.561%2026.948%20L%2030.63%2026.948%20Z%20M%2031.764%2028.928%20L%2031.764%2028.996%20L%2031.832%2028.996%20L%2031.832%2028.928%20Z%20M%2021.185%2028.928%20L%2021.116%2028.928%20L%2021.116%2028.996%20L%2021.185%2028.996%20Z%20M%2022.319%2026.88%20L%2022.319%2026.948%20L%2022.388%2026.948%20L%2022.388%2026.88%20Z%20M%2023.065%2024.853%20L%2023.08%2024.919%20L%2023.134%2024.908%20L%2023.134%2024.853%20Z%20M%2023.045%2015.71%20L%2023.114%2015.71%20L%2023.114%2015.707%20L%2023.113%2015.704%20Z%20M%208.559%2015.71%20L%208.49%2015.704%20L%208.49%2015.707%20L%208.49%2015.71%20Z%20M%208.539%2024.845%20L%208.47%2024.845%20L%208.469%2024.904%20L%208.528%2024.913%20Z%20M%209.663%2026.88%20L%209.594%2026.88%20L%209.594%2026.948%20L%209.663%2026.948%20Z%20M%2010.796%2028.928%20L%2010.796%2028.996%20L%2010.865%2028.996%20L%2010.865%2028.928%20Z%20M%200.218%2028.928%20L%200.149%2028.928%20L%200.149%2028.996%20L%200.218%2028.996%20Z%20M%201.351%2026.88%20L%201.351%2026.948%20L%201.42%2026.948%20L%201.42%2026.88%20Z%20M%202.296%2024.833%20L%202.296%2024.901%20L%202.365%2024.901%20L%202.365%2024.833%20Z%20M%202.296%208.263%20L%202.365%208.263%20L%202.365%208.195%20L%202.296%208.195%20Z%20M%201.257%208.263%20L%201.191%208.282%20L%201.205%208.331%20L%201.257%208.331%20Z%20M%200.029%204.167%20L%200.029%204.1%20L%20-0.063%204.1%20L%20-0.037%204.187%20L%200.029%204.167%20Z%20M%205.507%204.167%20L%205.507%204.235%20L%205.576%204.235%20L%205.576%204.167%20Z%20M%2026.097%200.004%20L%205.507%200.004%20L%205.507%200.139%20L%2026.097%200.139%20Z%20M%2026.166%204.167%20L%2026.166%200.072%20L%2026.028%200.072%20L%2026.028%204.167%20L%2026.166%204.167%20Z%20M%2031.952%204.099%20L%2026.097%204.099%20L%2026.097%204.235%20L%2031.952%204.235%20Z%20M%2030.791%208.282%20L%2032.019%204.187%20L%2031.886%204.148%20L%2030.658%208.244%20Z%20M%2029.686%208.331%20L%2030.725%208.331%20L%2030.725%208.195%20L%2029.686%208.195%20Z%20M%2029.755%2024.833%20L%2029.755%208.263%20L%2029.617%208.263%20L%2029.617%2024.833%20Z%20M%2030.699%2025.763%20C%2030.699%2025.212%2030.245%2024.765%2029.686%2024.765%20L%2029.686%2024.9%20C%2030.169%2024.9%2030.561%2025.287%2030.561%2025.763%20Z%20M%2030.699%2026.88%20L%2030.699%2025.763%20L%2030.561%2025.763%20L%2030.561%2026.88%20Z%20M%2030.819%2026.813%20L%2030.63%2026.813%20L%2030.63%2026.948%20L%2030.819%2026.948%20Z%20M%2031.832%2027.811%20C%2031.832%2027.26%2031.379%2026.813%2030.819%2026.813%20L%2030.819%2026.948%20C%2031.303%2026.948%2031.695%2027.335%2031.695%2027.811%20Z%20M%2031.832%2028.928%20L%2031.832%2027.811%20L%2031.695%2027.811%20L%2031.695%2028.928%20Z%20M%2026.097%2028.996%20L%2031.764%2028.996%20L%2031.764%2028.86%20L%2026.097%2028.86%20Z%20M%2023.074%2028.996%20L%2026.097%2028.996%20L%2026.097%2028.86%20L%2023.074%2028.86%20Z%20M%2021.185%2028.996%20L%2023.074%2028.996%20L%2023.074%2028.86%20L%2021.185%2028.86%20Z%20M%2021.116%2027.811%20L%2021.116%2028.928%20L%2021.254%2028.928%20L%2021.254%2027.811%20Z%20M%2022.13%2026.813%20C%2021.57%2026.813%2021.116%2027.26%2021.116%2027.811%20L%2021.254%2027.811%20C%2021.254%2027.335%2021.646%2026.948%2022.13%2026.948%20Z%20M%2022.319%2026.813%20L%2022.13%2026.813%20L%2022.13%2026.948%20L%2022.319%2026.948%20Z%20M%2022.25%2025.763%20L%2022.25%2026.88%20L%2022.388%2026.88%20L%2022.388%2025.763%20Z%20M%2023.051%2024.787%20C%2022.593%2024.883%2022.25%2025.284%2022.25%2025.763%20L%2022.388%2025.763%20C%2022.388%2025.349%2022.684%2025.003%2023.08%2024.919%20Z%20M%2022.976%2015.71%20L%2022.996%2024.853%20L%2023.134%2024.853%20L%2023.114%2015.71%20Z%20M%2015.802%209.262%20C%2019.559%209.262%2022.645%2012.098%2022.976%2015.716%20L%2023.113%2015.704%20C%2022.776%2012.016%2019.632%209.126%2015.802%209.126%20Z%20M%208.628%2015.716%20C%208.959%2012.098%2012.044%209.262%2015.802%209.262%20L%2015.802%209.126%20C%2011.972%209.126%208.828%2012.016%208.49%2015.704%20Z%20M%208.608%2024.845%20L%208.628%2015.71%20L%208.49%2015.71%20L%208.47%2024.845%20Z%20M%209.732%2025.763%20C%209.732%2025.502%209.557%2025.273%209.331%2025.105%20C%209.104%2024.935%208.812%2024.817%208.549%2024.778%20L%208.528%2024.912%20C%208.769%2024.948%209.039%2025.057%209.248%2025.213%20C%209.459%2025.37%209.594%2025.563%209.594%2025.763%20Z%20M%209.732%2026.88%20L%209.732%2025.763%20L%209.594%2025.763%20L%209.594%2026.88%20Z%20M%209.852%2026.813%20L%209.663%2026.813%20L%209.663%2026.948%20L%209.852%2026.948%20Z%20M%2010.865%2027.811%20C%2010.865%2027.26%2010.411%2026.813%209.852%2026.813%20L%209.852%2026.948%20C%2010.335%2026.948%2010.727%2027.335%2010.727%2027.811%20Z%20M%2010.865%2028.928%20L%2010.865%2027.811%20L%2010.727%2027.811%20L%2010.727%2028.928%20Z%20M%208.529%2028.996%20L%2010.796%2028.996%20L%2010.796%2028.86%20L%208.529%2028.86%20Z%20M%208.372%2028.996%20L%208.529%2028.996%20L%208.529%2028.86%20L%208.372%2028.86%20Z%20M%205.507%2028.996%20L%208.372%2028.996%20L%208.372%2028.86%20L%205.507%2028.86%20Z%20M%200.218%2028.996%20L%205.507%2028.996%20L%205.507%2028.86%20L%200.218%2028.86%20Z%20M%200.149%2027.811%20L%200.149%2028.928%20L%200.287%2028.928%20L%200.287%2027.811%20Z%20M%201.162%2026.813%20C%200.603%2026.813%200.149%2027.26%200.149%2027.811%20L%200.287%2027.811%20C%200.287%2027.335%200.679%2026.948%201.162%2026.948%20Z%20M%201.351%2026.813%20L%201.162%2026.813%20L%201.162%2026.948%20L%201.351%2026.948%20Z%20M%201.282%2025.763%20L%201.282%2026.88%20L%201.42%2026.88%20L%201.42%2025.763%20Z%20M%202.296%2024.765%20C%201.736%2024.765%201.282%2025.212%201.282%2025.763%20L%201.42%2025.763%20C%201.42%2025.287%201.812%2024.9%202.296%2024.9%20Z%20M%202.227%208.263%20L%202.227%2024.833%20L%202.365%2024.833%20L%202.365%208.263%20Z%20M%201.257%208.331%20L%202.296%208.331%20L%202.296%208.195%20L%201.257%208.195%20Z%20M%20-0.037%204.187%20L%201.191%208.282%20L%201.323%208.244%20L%200.095%204.148%20Z%20M%205.507%204.099%20L%200.029%204.099%20L%200.029%204.235%20L%205.507%204.235%20L%205.507%204.099%20Z%20M%205.438%200.072%20L%205.438%204.167%20L%205.576%204.167%20L%205.576%200.072%20Z%22%20fill%3D%22rgb(255%2C255%2C255)%22%3E%3C%2Fpath%3E%3C%2Fsvg%3E","textColor":"#FFFFFF","tooltipDescription":"This
        address is linked to a Farcaster account","warpcastHandle":"lefteris.eth"},"name":"Farcaster","ordinal":0,"slug":"warpcast-account","tagType":"classifier"}]},"name":null,"private_tags":[],"proxy_type":null,"public_tags":[],"reputation":"ok","watchlist_names":[]},"gas_used":"211767","status":"ok","to":{"ens_domain_name":null,"hash":"0x1111111254EEB25477B68fb85Ed929f73A960582","implementations":[],"is_contract":true,"is_scam":false,"is_verified":true,"metadata":{"tags":[{"meta":{"projectName":"1inch","tagIcon
        ":"https://blockscout-icons.s3.us-east-1.amazonaws.com/OLI_tag_logo.svg","tagUrl":"https://app.klerosscout.eth.limo/#/?registry=Single_Tags&itemdetails=0xa50f1ed4ba6d99e155528044996dd91a0c2feeeeeaeaa0ecdadb89dd88a0fb4c@0x66260c69d03837016d88c9877e61e08ef74c59f2","textColor":"#C163D4","tooltipAttribution":"https://www.openlabelsinitiative.org?utm_source=blockscout","tooltipAttributionIcon":"https://blockscout-icons.s3.us-east-1.amazonaws.com/OLI_tag_logo.svg","tooltipDescription":"The
        DeFi ecosystem building financial freedom for everyone. 1inch products make
        it easier for users and builders to trade, hold and track digital assets -
        and 1inch protocols and APIs provide core infrastructure for the DeFi industry
        and beyond.","tooltipUrl":"https://1inch.com/","verifiedDomains":["swap.defillama.com"]},"name":"Aggregation
        Router V5","ordinal":10,"slug":"aggregation-router-v5-10","tagType":"name"},{"meta":{"alertStatus":"info","data":"This
        nametag was submitted by Kleros Curate."},"name":"note_0","ordinal":0,"slug":"note0","tagType":"note"},{"meta":{"appActionButtonText":"1inch","appID":"1inch"},"name":"1inch","ordinal":0,"slug":"1inch","tagType":"protocol"}]},"name":"AggregationRouterV5","private_tags":[],"proxy_type":null,"public_tags":[],"reputation":"ok","watchlist_names":[]},"authorization_list":[],"l1_fee":"210183199072737","method":"swap","fee":{"type":"actual","value":"210503989653813"},"actions":[],"gas_limit":"380057","gas_price":"1514828","decoded_input":{"method_call":"swap(address
        executor, (address,address,address,address,uint256,uint256,uint256) desc,
        bytes permit, bytes data)","method_id":"12aa3caf","parameters":[{"name":"executor","type":"address","value":"0xB63AaE6C353636d66Df13b89Ba4425cfE13d10bA"},{"name":"desc","type":"(address,address,address,address,uint256,uint256,uint256)","value":["0x0b2C639c533813f4Aa9D7837CAf62653d097Ff85","0x7F5c764cBc14f9669B88837ca1490cCa17c31607","0xB63AaE6C353636d66Df13b89Ba4425cfE13d10bA","0x2B888954421b424C5D3D9Ce9bB67c9bD47537d12","400643728","398621939","4"]},{"name":"permit","type":"bytes","value":"0x"},{"name":"data","type":"bytes","value":"0x0000000000000000000000000000000000000000000000000000000000f0512050a39b94b1dc8472faa08c36a3ef5b0a01c5bd100b2c639c533813f4aa9d7837caf62653d097ff8500449908fc8b0000000000000000000000000b2c639c533813f4aa9d7837caf62653d097ff850000000000000000000000007f5c764cbc14f9669b88837ca1490cca17c31607000000000000000000000000000000000000000000000000000000000000000000000000000000000000000000000000000000000000000000000000000000010000000000000000000000001111111254eeb25477b68fb85ed929f73a9605820000000000000000000000000000000000000000000000000000000065cd5e08"}]},"l1_gas_price":"40949544078","token_transfers":[{"block_hash":"0x664826ba985797cf7a26953b4c9132f0dc73c319fc63b769a6cd3eeadb515a9b","block_number":115963507,"from":{"ens_domain_name":"lefteris.eth","hash":"0x2B888954421b424C5D3D9Ce9bB67c9bD47537d12","implementations":[],"is_contract":false,"is_scam":false,"is_verified":false,"metadata":{"tags":[{"meta":{"bgColor":"#8465CB","tagIcon":"data:image/svg+xml;utf8,%3Csvg%20xmlns%3D%22http%3A%2F%2Fwww.w3.org%2F2000%2Fsvg%22%20xmlns%3Axlink%3D%22http%3A%2F%2Fwww.w3.org%2F1999%2Fxlink%22%20viewBox%3D%220%200%2032%2029%22%3E%3Cpath%20d%3D%22M%205.507%200.072%20L%2026.097%200.072%20L%2026.097%204.167%20L%2031.952%204.167%20L%2030.725%208.263%20L%2029.686%208.263%20L%2029.686%2024.833%20C%2030.207%2024.833%2030.63%2025.249%2030.63%2025.763%20L%2030.63%2026.88%20L%2030.819%2026.88%20C%2031.341%2026.88%2031.764%2027.297%2031.764%2027.811%20L%2031.764%2028.928%20L%2021.185%2028.928%20L%2021.185%2027.811%20C%2021.185%2027.297%2021.608%2026.88%2022.13%2026.88%20L%2022.319%2026.88%20L%2022.319%2025.763%20C%2022.319%2025.316%2022.639%2024.943%2023.065%2024.853%20L%2023.045%2015.71%20C%2022.711%2012.057%2019.596%209.194%2015.802%209.194%20C%2012.008%209.194%208.893%2012.057%208.559%2015.71%20L%208.539%2024.845%20C%209.043%2024.919%209.663%2025.302%209.663%2025.763%20L%209.663%2026.88%20L%209.852%2026.88%20C%2010.373%2026.88%2010.796%2027.297%2010.796%2027.811%20L%2010.796%2028.928%20L%200.218%2028.928%20L%200.218%2027.811%20C%200.218%2027.297%200.641%2026.88%201.162%2026.88%20L%201.351%2026.88%20L%201.351%2025.763%20C%201.351%2025.249%201.774%2024.833%202.296%2024.833%20L%202.296%208.263%20L%201.257%208.263%20L%200.029%204.167%20L%205.507%204.167%20L%205.507%200.072%20Z%22%20fill%3D%22rgb(255%2C%20255%2C%20255)%22%3E%3C%2Fpath%3E%3Cpath%20d%3D%22M%2026.097%200.072%20L%2026.166%200.072%20L%2026.166%200.004%20L%2026.097%200.004%20Z%20M%205.507%200.072%20L%205.507%200.004%20L%205.438%200.004%20L%205.438%200.072%20Z%20M%2026.097%204.167%20L%2026.028%204.167%20L%2026.028%204.235%20L%2026.097%204.235%20Z%20M%2031.952%204.167%20L%2032.019%204.187%20L%2032.045%204.099%20L%2031.952%204.099%20L%2031.952%204.167%20Z%20M%2030.725%208.263%20L%2030.725%208.331%20L%2030.776%208.331%20L%2030.791%208.282%20Z%20M%2029.686%208.263%20L%2029.686%208.195%20L%2029.617%208.195%20L%2029.617%208.263%20Z%20M%2029.686%2024.833%20L%2029.617%2024.833%20L%2029.617%2024.901%20L%2029.686%2024.901%20Z%20M%2030.63%2026.88%20L%2030.561%2026.88%20L%2030.561%2026.948%20L%2030.63%2026.948%20Z%20M%2031.764%2028.928%20L%2031.764%2028.996%20L%2031.832%2028.996%20L%2031.832%2028.928%20Z%20M%2021.185%2028.928%20L%2021.116%2028.928%20L%2021.116%2028.996%20L%2021.185%2028.996%20Z%20M%2022.319%2026.88%20L%2022.319%2026.948%20L%2022.388%2026.948%20L%2022.388%2026.88%20Z%20M%2023.065%2024.853%20L%2023.08%2024.919%20L%2023.134%2024.908%20L%2023.134%2024.853%20Z%20M%2023.045%2015.71%20L%2023.114%2015.71%20L%2023.114%2015.707%20L%2023.113%2015.704%20Z%20M%208.559%2015.71%20L%208.49%2015.704%20L%208.49%2015.707%20L%208.49%2015.71%20Z%20M%208.539%2024.845%20L%208.47%2024.845%20L%208.469%2024.904%20L%208.528%2024.913%20Z%20M%209.663%2026.88%20L%209.594%2026.88%20L%209.594%2026.948%20L%209.663%2026.948%20Z%20M%2010.796%2028.928%20L%2010.796%2028.996%20L%2010.865%2028.996%20L%2010.865%2028.928%20Z%20M%200.218%2028.928%20L%200.149%2028.928%20L%200.149%2028.996%20L%200.218%2028.996%20Z%20M%201.351%2026.88%20L%201.351%2026.948%20L%201.42%2026.948%20L%201.42%2026.88%20Z%20M%202.296%2024.833%20L%202.296%2024.901%20L%202.365%2024.901%20L%202.365%2024.833%20Z%20M%202.296%208.263%20L%202.365%208.263%20L%202.365%208.195%20L%202.296%208.195%20Z%20M%201.257%208.263%20L%201.191%208.282%20L%201.205%208.331%20L%201.257%208.331%20Z%20M%200.029%204.167%20L%200.029%204.1%20L%20-0.063%204.1%20L%20-0.037%204.187%20L%200.029%204.167%20Z%20M%205.507%204.167%20L%205.507%204.235%20L%205.576%204.235%20L%205.576%204.167%20Z%20M%2026.097%200.004%20L%205.507%200.004%20L%205.507%200.139%20L%2026.097%200.139%20Z%20M%2026.166%204.167%20L%2026.166%200.072%20L%2026.028%200.072%20L%2026.028%204.167%20L%2026.166%204.167%20Z%20M%2031.952%204.099%20L%2026.097%204.099%20L%2026.097%204.235%20L%2031.952%204.235%20Z%20M%2030.791%208.282%20L%2032.019%204.187%20L%2031.886%204.148%20L%2030.658%208.244%20Z%20M%2029.686%208.331%20L%2030.725%208.331%20L%2030.725%208.195%20L%2029.686%208.195%20Z%20M%2029.755%2024.833%20L%2029.755%208.263%20L%2029.617%208.263%20L%2029.617%2024.833%20Z%20M%2030.699%2025.763%20C%2030.699%2025.212%2030.245%2024.765%2029.686%2024.765%20L%2029.686%2024.9%20C%2030.169%2024.9%2030.561%2025.287%2030.561%2025.763%20Z%20M%2030.699%2026.88%20L%2030.699%2025.763%20L%2030.561%2025.763%20L%2030.561%2026.88%20Z%20M%2030.819%2026.813%20L%2030.63%2026.813%20L%2030.63%2026.948%20L%2030.819%2026.948%20Z%20M%2031.832%2027.811%20C%2031.832%2027.26%2031.379%2026.813%2030.819%2026.813%20L%2030.819%2026.948%20C%2031.303%2026.948%2031.695%2027.335%2031.695%2027.811%20Z%20M%2031.832%2028.928%20L%2031.832%2027.811%20L%2031.695%2027.811%20L%2031.695%2028.928%20Z%20M%2026.097%2028.996%20L%2031.764%2028.996%20L%2031.764%2028.86%20L%2026.097%2028.86%20Z%20M%2023.074%2028.996%20L%2026.097%2028.996%20L%2026.097%2028.86%20L%2023.074%2028.86%20Z%20M%2021.185%2028.996%20L%2023.074%2028.996%20L%2023.074%2028.86%20L%2021.185%2028.86%20Z%20M%2021.116%2027.811%20L%2021.116%2028.928%20L%2021.254%2028.928%20L%2021.254%2027.811%20Z%20M%2022.13%2026.813%20C%2021.57%2026.813%2021.116%2027.26%2021.116%2027.811%20L%2021.254%2027.811%20C%2021.254%2027.335%2021.646%2026.948%2022.13%2026.948%20Z%20M%2022.319%2026.813%20L%2022.13%2026.813%20L%2022.13%2026.948%20L%2022.319%2026.948%20Z%20M%2022.25%2025.763%20L%2022.25%2026.88%20L%2022.388%2026.88%20L%2022.388%2025.763%20Z%20M%2023.051%2024.787%20C%2022.593%2024.883%2022.25%2025.284%2022.25%2025.763%20L%2022.388%2025.763%20C%2022.388%2025.349%2022.684%2025.003%2023.08%2024.919%20Z%20M%2022.976%2015.71%20L%2022.996%2024.853%20L%2023.134%2024.853%20L%2023.114%2015.71%20Z%20M%2015.802%209.262%20C%2019.559%209.262%2022.645%2012.098%2022.976%2015.716%20L%2023.113%2015.704%20C%2022.776%2012.016%2019.632%209.126%2015.802%209.126%20Z%20M%208.628%2015.716%20C%208.959%2012.098%2012.044%209.262%2015.802%209.262%20L%2015.802%209.126%20C%2011.972%209.126%208.828%2012.016%208.49%2015.704%20Z%20M%208.608%2024.845%20L%208.628%2015.71%20L%208.49%2015.71%20L%208.47%2024.845%20Z%20M%209.732%2025.763%20C%209.732%2025.502%209.557%2025.273%209.331%2025.105%20C%209.104%2024.935%208.812%2024.817%208.549%2024.778%20L%208.528%2024.912%20C%208.769%2024.948%209.039%2025.057%209.248%2025.213%20C%209.459%2025.37%209.594%2025.563%209.594%2025.763%20Z%20M%209.732%2026.88%20L%209.732%2025.763%20L%209.594%2025.763%20L%209.594%2026.88%20Z%20M%209.852%2026.813%20L%209.663%2026.813%20L%209.663%2026.948%20L%209.852%2026.948%20Z%20M%2010.865%2027.811%20C%2010.865%2027.26%2010.411%2026.813%209.852%2026.813%20L%209.852%2026.948%20C%2010.335%2026.948%2010.727%2027.335%2010.727%2027.811%20Z%20M%2010.865%2028.928%20L%2010.865%2027.811%20L%2010.727%2027.811%20L%2010.727%2028.928%20Z%20M%208.529%2028.996%20L%2010.796%2028.996%20L%2010.796%2028.86%20L%208.529%2028.86%20Z%20M%208.372%2028.996%20L%208.529%2028.996%20L%208.529%2028.86%20L%208.372%2028.86%20Z%20M%205.507%2028.996%20L%208.372%2028.996%20L%208.372%2028.86%20L%205.507%2028.86%20Z%20M%200.218%2028.996%20L%205.507%2028.996%20L%205.507%2028.86%20L%200.218%2028.86%20Z%20M%200.149%2027.811%20L%200.149%2028.928%20L%200.287%2028.928%20L%200.287%2027.811%20Z%20M%201.162%2026.813%20C%200.603%2026.813%200.149%2027.26%200.149%2027.811%20L%200.287%2027.811%20C%200.287%2027.335%200.679%2026.948%201.162%2026.948%20Z%20M%201.351%2026.813%20L%201.162%2026.813%20L%201.162%2026.948%20L%201.351%2026.948%20Z%20M%201.282%2025.763%20L%201.282%2026.88%20L%201.42%2026.88%20L%201.42%2025.763%20Z%20M%202.296%2024.765%20C%201.736%2024.765%201.282%2025.212%201.282%2025.763%20L%201.42%2025.763%20C%201.42%2025.287%201.812%2024.9%202.296%2024.9%20Z%20M%202.227%208.263%20L%202.227%2024.833%20L%202.365%2024.833%20L%202.365%208.263%20Z%20M%201.257%208.331%20L%202.296%208.331%20L%202.296%208.195%20L%201.257%208.195%20Z%20M%20-0.037%204.187%20L%201.191%208.282%20L%201.323%208.244%20L%200.095%204.148%20Z%20M%205.507%204.099%20L%200.029%204.099%20L%200.029%204.235%20L%205.507%204.235%20L%205.507%204.099%20Z%20M%205.438%200.072%20L%205.438%204.167%20L%205.576%204.167%20L%205.576%200.072%20Z%22%20fill%3D%22rgb(255%2C255%2C255)%22%3E%3C%2Fpath%3E%3C%2Fsvg%3E","textColor":"#FFFFFF","tooltipDescription":"This
        address is linked to a Farcaster account","warpcastHandle":"lefteris.eth"},"name":"Farcaster","ordinal":0,"slug":"warpcast-account","tagType":"classifier"}]},"name":null,"private_tags":[],"proxy_type":null,"public_tags":[],"reputation":"ok","watchlist_names":[]},"log_index":18,"method":null,"timestamp":null,"to":{"ens_domain_name":null,"hash":"0xB63AaE6C353636d66Df13b89Ba4425cfE13d10bA","implementations":[],"is_contract":true,"is_scam":false,"is_verified":false,"metadata":null,"name":null,"private_tags":[],"proxy_type":null,"public_tags":[],"reputation":"ok","watchlist_names":[]},"token":{"address_hash":"0x0b2C639c533813f4Aa9D7837CAf62653d097Ff85","circulating_market_cap":"73346338445.07011","decimals":"6","exchange_rate":"0.999887","holders_count":"598722","icon_url":"https://assets.coingecko.com/coins/images/6319/small/usdc.png?1696506694","name":"USD
        Coin","reputation":"ok","symbol":"USDC","total_supply":"196695266690981","type":"ERC-20","volume_24h":"5785820367.821489"},"token_type":"ERC-20","total":{"decimals":"6","value":"400643728"},"transaction_hash":"0xb3f70f0eb6208572e30542304ba5513482b7ff095abd2beb2d22101a705770f2","type":"token_transfer"},{"block_hash":"0x664826ba985797cf7a26953b4c9132f0dc73c319fc63b769a6cd3eeadb515a9b","block_number":115963507,"from":{"ens_domain_name":null,"hash":"0xB63AaE6C353636d66Df13b89Ba4425cfE13d10bA","implementations":[],"is_contract":true,"is_scam":false,"is_verified":false,"metadata":null,"name":null,"private_tags":[],"proxy_type":null,"public_tags":[],"reputation":"ok","watchlist_names":[]},"log_index":20,"method":null,"timestamp":null,"to":{"ens_domain_name":null,"hash":"0x20D7ee728900848752FA280fAD51aF40c47302f1","implementations":[],"is_contract":true,"is_scam":false,"is_verified":true,"metadata":{"tags":[{"meta":{"tagIcon
        ":"https://blockscout-icons.s3.us-east-1.amazonaws.com/OLI_tag_logo.svg","textColor":"#C163D4","tooltipAttribution":"https://www.openlabelsinitiative.org?utm_source=blockscout","tooltipAttributionIcon":"https://blockscout-icons.s3.us-east-1.amazonaws.com/OLI_tag_logo.svg","tooltipDescription":"Provided
        by OLI"},"name":"Asset","ordinal":0,"slug":"asset","tagType":"name"}]},"name":"Asset","private_tags":[],"proxy_type":null,"public_tags":[],"reputation":"ok","watchlist_names":[]},"token":{"address_hash":"0x0b2C639c533813f4Aa9D7837CAf62653d097Ff85","circulating_market_cap":"73346338445.07011","decimals":"6","exchange_rate":"0.999887","holders_count":"598722","icon_url":"https://assets.coingecko.com/coins/images/6319/small/usdc.png?1696506694","name":"USD
        Coin","reputation":"ok","symbol":"USDC","total_supply":"196695266690981","type":"ERC-20","volume_24h":"5785820367.821489"},"token_type":"ERC-20","total":{"decimals":"6","value":"400643728"},"transaction_hash":"0xb3f70f0eb6208572e30542304ba5513482b7ff095abd2beb2d22101a705770f2","type":"token_transfer"},{"block_hash":"0x664826ba985797cf7a26953b4c9132f0dc73c319fc63b769a6cd3eeadb515a9b","block_number":115963507,"from":{"ens_domain_name":null,"hash":"0x2943f5d7428A8B9fC849E9C33Fa46d32c272936E","implementations":[],"is_contract":true,"is_scam":false,"is_verified":true,"metadata":{"tags":[{"meta":{"tagIcon
        ":"https://blockscout-icons.s3.us-east-1.amazonaws.com/OLI_tag_logo.svg","textColor":"#C163D4","tooltipAttribution":"https://www.openlabelsinitiative.org?utm_source=blockscout","tooltipAttributionIcon":"https://blockscout-icons.s3.us-east-1.amazonaws.com/OLI_tag_logo.svg","tooltipDescription":"Provided
        by OLI"},"name":"Asset","ordinal":0,"slug":"asset","tagType":"name"}]},"name":"Asset","private_tags":[],"proxy_type":null,"public_tags":[],"reputation":"ok","watchlist_names":[]},"log_index":21,"method":null,"timestamp":null,"to":{"ens_domain_name":null,"hash":"0x1111111254EEB25477B68fb85Ed929f73A960582","implementations":[],"is_contract":true,"is_scam":false,"is_verified":true,"metadata":{"tags":[{"meta":{"projectName":"1inch","tagIcon
        ":"https://blockscout-icons.s3.us-east-1.amazonaws.com/OLI_tag_logo.svg","tagUrl":"https://app.klerosscout.eth.limo/#/?registry=Single_Tags&itemdetails=0xa50f1ed4ba6d99e155528044996dd91a0c2feeeeeaeaa0ecdadb89dd88a0fb4c@0x66260c69d03837016d88c9877e61e08ef74c59f2","textColor":"#C163D4","tooltipAttribution":"https://www.openlabelsinitiative.org?utm_source=blockscout","tooltipAttributionIcon":"https://blockscout-icons.s3.us-east-1.amazonaws.com/OLI_tag_logo.svg","tooltipDescription":"The
        DeFi ecosystem building financial freedom for everyone. 1inch products make
        it easier for users and builders to trade, hold and track digital assets -
        and 1inch protocols and APIs provide core infrastructure for the DeFi industry
        and beyond.","tooltipUrl":"https://1inch.com/","verifiedDomains":["swap.defillama.com"]},"name":"Aggregation
        Router V5","ordinal":10,"slug":"aggregation-router-v5-10","tagType":"name"},{"meta":{"alertStatus":"info","data":"This
        nametag was submitted by Kleros Curate."},"name":"note_0","ordinal":0,"slug":"note0","tagType":"note"},{"meta":{"appActionButtonText":"1inch","appID":"1inch"},"name":"1inch","ordinal":0,"slug":"1inch","tagType":"protocol"}]},"name":"AggregationRouterV5","private_tags":[],"proxy_type":null,"public_tags":[],"reputation":"ok","watchlist_names":[]},"token":{"address_hash":"0x7F5c764cBc14f9669B88837ca1490cCa17c31607","circulating_market_cap":"27288658.239564855","decimals":"6","exchange_rate":"0.998313","holders_count":"944608","icon_url":"https://assets.coingecko.com/coins/images/31580/small/USDC-icon.png?1696530397","name":"USD
        Coin","reputation":"ok","symbol":"USDC","total_supply":"27312128283248","type":"ERC-20","volume_24h":"875092.8552239385"},"token_type":"ERC-20","total":{"decimals":"6","value":"400604528"},"transaction_hash":"0xb3f70f0eb6208572e30542304ba5513482b7ff095abd2beb2d22101a705770f2","type":"token_transfer"},{"block_hash":"0x664826ba985797cf7a26953b4c9132f0dc73c319fc63b769a6cd3eeadb515a9b","block_number":115963507,"from":{"ens_domain_name":null,"hash":"0x1111111254EEB25477B68fb85Ed929f73A960582","implementations":[],"is_contract":true,"is_scam":false,"is_verified":true,"metadata":{"tags":[{"meta":{"projectName":"1inch","tagIcon
        ":"https://blockscout-icons.s3.us-east-1.amazonaws.com/OLI_tag_logo.svg","tagUrl":"https://app.klerosscout.eth.limo/#/?registry=Single_Tags&itemdetails=0xa50f1ed4ba6d99e155528044996dd91a0c2feeeeeaeaa0ecdadb89dd88a0fb4c@0x66260c69d03837016d88c9877e61e08ef74c59f2","textColor":"#C163D4","tooltipAttribution":"https://www.openlabelsinitiative.org?utm_source=blockscout","tooltipAttributionIcon":"https://blockscout-icons.s3.us-east-1.amazonaws.com/OLI_tag_logo.svg","tooltipDescription":"The
        DeFi ecosystem building financial freedom for everyone. 1inch products make
        it easier for users and builders to trade, hold and track digital assets -
        and 1inch protocols and APIs provide core infrastructure for the DeFi industry
        and beyond.","tooltipUrl":"https://1inch.com/","verifiedDomains":["swap.defillama.com"]},"name":"Aggregation
        Router V5","ordinal":10,"slug":"aggregation-router-v5-10","tagType":"name"},{"meta":{"alertStatus":"info","data":"This
        nametag was submitted by Kleros Curate."},"name":"note_0","ordinal":0,"slug":"note0","tagType":"note"},{"meta":{"appActionButtonText":"1inch","appID":"1inch"},"name":"1inch","ordinal":0,"slug":"1inch","tagType":"protocol"}]},"name":"AggregationRouterV5","private_tags":[],"proxy_type":null,"public_tags":[],"reputation":"ok","watchlist_names":[]},"log_index":23,"method":null,"timestamp":null,"to":{"ens_domain_name":"lefteris.eth","hash":"0x2B888954421b424C5D3D9Ce9bB67c9bD47537d12","implementations":[],"is_contract":false,"is_scam":false,"is_verified":false,"metadata":{"tags":[{"meta":{"bgColor":"#8465CB","tagIcon":"data:image/svg+xml;utf8,%3Csvg%20xmlns%3D%22http%3A%2F%2Fwww.w3.org%2F2000%2Fsvg%22%20xmlns%3Axlink%3D%22http%3A%2F%2Fwww.w3.org%2F1999%2Fxlink%22%20viewBox%3D%220%200%2032%2029%22%3E%3Cpath%20d%3D%22M%205.507%200.072%20L%2026.097%200.072%20L%2026.097%204.167%20L%2031.952%204.167%20L%2030.725%208.263%20L%2029.686%208.263%20L%2029.686%2024.833%20C%2030.207%2024.833%2030.63%2025.249%2030.63%2025.763%20L%2030.63%2026.88%20L%2030.819%2026.88%20C%2031.341%2026.88%2031.764%2027.297%2031.764%2027.811%20L%2031.764%2028.928%20L%2021.185%2028.928%20L%2021.185%2027.811%20C%2021.185%2027.297%2021.608%2026.88%2022.13%2026.88%20L%2022.319%2026.88%20L%2022.319%2025.763%20C%2022.319%2025.316%2022.639%2024.943%2023.065%2024.853%20L%2023.045%2015.71%20C%2022.711%2012.057%2019.596%209.194%2015.802%209.194%20C%2012.008%209.194%208.893%2012.057%208.559%2015.71%20L%208.539%2024.845%20C%209.043%2024.919%209.663%2025.302%209.663%2025.763%20L%209.663%2026.88%20L%209.852%2026.88%20C%2010.373%2026.88%2010.796%2027.297%2010.796%2027.811%20L%2010.796%2028.928%20L%200.218%2028.928%20L%200.218%2027.811%20C%200.218%2027.297%200.641%2026.88%201.162%2026.88%20L%201.351%2026.88%20L%201.351%2025.763%20C%201.351%2025.249%201.774%2024.833%202.296%2024.833%20L%202.296%208.263%20L%201.257%208.263%20L%200.029%204.167%20L%205.507%204.167%20L%205.507%200.072%20Z%22%20fill%3D%22rgb(255%2C%20255%2C%20255)%22%3E%3C%2Fpath%3E%3Cpath%20d%3D%22M%2026.097%200.072%20L%2026.166%200.072%20L%2026.166%200.004%20L%2026.097%200.004%20Z%20M%205.507%200.072%20L%205.507%200.004%20L%205.438%200.004%20L%205.438%200.072%20Z%20M%2026.097%204.167%20L%2026.028%204.167%20L%2026.028%204.235%20L%2026.097%204.235%20Z%20M%2031.952%204.167%20L%2032.019%204.187%20L%2032.045%204.099%20L%2031.952%204.099%20L%2031.952%204.167%20Z%20M%2030.725%208.263%20L%2030.725%208.331%20L%2030.776%208.331%20L%2030.791%208.282%20Z%20M%2029.686%208.263%20L%2029.686%208.195%20L%2029.617%208.195%20L%2029.617%208.263%20Z%20M%2029.686%2024.833%20L%2029.617%2024.833%20L%2029.617%2024.901%20L%2029.686%2024.901%20Z%20M%2030.63%2026.88%20L%2030.561%2026.88%20L%2030.561%2026.948%20L%2030.63%2026.948%20Z%20M%2031.764%2028.928%20L%2031.764%2028.996%20L%2031.832%2028.996%20L%2031.832%2028.928%20Z%20M%2021.185%2028.928%20L%2021.116%2028.928%20L%2021.116%2028.996%20L%2021.185%2028.996%20Z%20M%2022.319%2026.88%20L%2022.319%2026.948%20L%2022.388%2026.948%20L%2022.388%2026.88%20Z%20M%2023.065%2024.853%20L%2023.08%2024.919%20L%2023.134%2024.908%20L%2023.134%2024.853%20Z%20M%2023.045%2015.71%20L%2023.114%2015.71%20L%2023.114%2015.707%20L%2023.113%2015.704%20Z%20M%208.559%2015.71%20L%208.49%2015.704%20L%208.49%2015.707%20L%208.49%2015.71%20Z%20M%208.539%2024.845%20L%208.47%2024.845%20L%208.469%2024.904%20L%208.528%2024.913%20Z%20M%209.663%2026.88%20L%209.594%2026.88%20L%209.594%2026.948%20L%209.663%2026.948%20Z%20M%2010.796%2028.928%20L%2010.796%2028.996%20L%2010.865%2028.996%20L%2010.865%2028.928%20Z%20M%200.218%2028.928%20L%200.149%2028.928%20L%200.149%2028.996%20L%200.218%2028.996%20Z%20M%201.351%2026.88%20L%201.351%2026.948%20L%201.42%2026.948%20L%201.42%2026.88%20Z%20M%202.296%2024.833%20L%202.296%2024.901%20L%202.365%2024.901%20L%202.365%2024.833%20Z%20M%202.296%208.263%20L%202.365%208.263%20L%202.365%208.195%20L%202.296%208.195%20Z%20M%201.257%208.263%20L%201.191%208.282%20L%201.205%208.331%20L%201.257%208.331%20Z%20M%200.029%204.167%20L%200.029%204.1%20L%20-0.063%204.1%20L%20-0.037%204.187%20L%200.029%204.167%20Z%20M%205.507%204.167%20L%205.507%204.235%20L%205.576%204.235%20L%205.576%204.167%20Z%20M%2026.097%200.004%20L%205.507%200.004%20L%205.507%200.139%20L%2026.097%200.139%20Z%20M%2026.166%204.167%20L%2026.166%200.072%20L%2026.028%200.072%20L%2026.028%204.167%20L%2026.166%204.167%20Z%20M%2031.952%204.099%20L%2026.097%204.099%20L%2026.097%204.235%20L%2031.952%204.235%20Z%20M%2030.791%208.282%20L%2032.019%204.187%20L%2031.886%204.148%20L%2030.658%208.244%20Z%20M%2029.686%208.331%20L%2030.725%208.331%20L%2030.725%208.195%20L%2029.686%208.195%20Z%20M%2029.755%2024.833%20L%2029.755%208.263%20L%2029.617%208.263%20L%2029.617%2024.833%20Z%20M%2030.699%2025.763%20C%2030.699%2025.212%2030.245%2024.765%2029.686%2024.765%20L%2029.686%2024.9%20C%2030.169%2024.9%2030.561%2025.287%2030.561%2025.763%20Z%20M%2030.699%2026.88%20L%2030.699%2025.763%20L%2030.561%2025.763%20L%2030.561%2026.88%20Z%20M%2030.819%2026.813%20L%2030.63%2026.813%20L%2030.63%2026.948%20L%2030.819%2026.948%20Z%20M%2031.832%2027.811%20C%2031.832%2027.26%2031.379%2026.813%2030.819%2026.813%20L%2030.819%2026.948%20C%2031.303%2026.948%2031.695%2027.335%2031.695%2027.811%20Z%20M%2031.832%2028.928%20L%2031.832%2027.811%20L%2031.695%2027.811%20L%2031.695%2028.928%20Z%20M%2026.097%2028.996%20L%2031.764%2028.996%20L%2031.764%2028.86%20L%2026.097%2028.86%20Z%20M%2023.074%2028.996%20L%2026.097%2028.996%20L%2026.097%2028.86%20L%2023.074%2028.86%20Z%20M%2021.185%2028.996%20L%2023.074%2028.996%20L%2023.074%2028.86%20L%2021.185%2028.86%20Z%20M%2021.116%2027.811%20L%2021.116%2028.928%20L%2021.254%2028.928%20L%2021.254%2027.811%20Z%20M%2022.13%2026.813%20C%2021.57%2026.813%2021.116%2027.26%2021.116%2027.811%20L%2021.254%2027.811%20C%2021.254%2027.335%2021.646%2026.948%2022.13%2026.948%20Z%20M%2022.319%2026.813%20L%2022.13%2026.813%20L%2022.13%2026.948%20L%2022.319%2026.948%20Z%20M%2022.25%2025.763%20L%2022.25%2026.88%20L%2022.388%2026.88%20L%2022.388%2025.763%20Z%20M%2023.051%2024.787%20C%2022.593%2024.883%2022.25%2025.284%2022.25%2025.763%20L%2022.388%2025.763%20C%2022.388%2025.349%2022.684%2025.003%2023.08%2024.919%20Z%20M%2022.976%2015.71%20L%2022.996%2024.853%20L%2023.134%2024.853%20L%2023.114%2015.71%20Z%20M%2015.802%209.262%20C%2019.559%209.262%2022.645%2012.098%2022.976%2015.716%20L%2023.113%2015.704%20C%2022.776%2012.016%2019.632%209.126%2015.802%209.126%20Z%20M%208.628%2015.716%20C%208.959%2012.098%2012.044%209.262%2015.802%209.262%20L%2015.802%209.126%20C%2011.972%209.126%208.828%2012.016%208.49%2015.704%20Z%20M%208.608%2024.845%20L%208.628%2015.71%20L%208.49%2015.71%20L%208.47%2024.845%20Z%20M%209.732%2025.763%20C%209.732%2025.502%209.557%2025.273%209.331%2025.105%20C%209.104%2024.935%208.812%2024.817%208.549%2024.778%20L%208.528%2024.912%20C%208.769%2024.948%209.039%2025.057%209.248%2025.213%20C%209.459%2025.37%209.594%2025.563%209.594%2025.763%20Z%20M%209.732%2026.88%20L%209.732%2025.763%20L%209.594%2025.763%20L%209.594%2026.88%20Z%20M%209.852%2026.813%20L%209.663%2026.813%20L%209.663%2026.948%20L%209.852%2026.948%20Z%20M%2010.865%2027.811%20C%2010.865%2027.26%2010.411%2026.813%209.852%2026.813%20L%209.852%2026.948%20C%2010.335%2026.948%2010.727%2027.335%2010.727%2027.811%20Z%20M%2010.865%2028.928%20L%2010.865%2027.811%20L%2010.727%2027.811%20L%2010.727%2028.928%20Z%20M%208.529%2028.996%20L%2010.796%2028.996%20L%2010.796%2028.86%20L%208.529%2028.86%20Z%20M%208.372%2028.996%20L%208.529%2028.996%20L%208.529%2028.86%20L%208.372%2028.86%20Z%20M%205.507%2028.996%20L%208.372%2028.996%20L%208.372%2028.86%20L%205.507%2028.86%20Z%20M%200.218%2028.996%20L%205.507%2028.996%20L%205.507%2028.86%20L%200.218%2028.86%20Z%20M%200.149%2027.811%20L%200.149%2028.928%20L%200.287%2028.928%20L%200.287%2027.811%20Z%20M%201.162%2026.813%20C%200.603%2026.813%200.149%2027.26%200.149%2027.811%20L%200.287%2027.811%20C%200.287%2027.335%200.679%2026.948%201.162%2026.948%20Z%20M%201.351%2026.813%20L%201.162%2026.813%20L%201.162%2026.948%20L%201.351%2026.948%20Z%20M%201.282%2025.763%20L%201.282%2026.88%20L%201.42%2026.88%20L%201.42%2025.763%20Z%20M%202.296%2024.765%20C%201.736%2024.765%201.282%2025.212%201.282%2025.763%20L%201.42%2025.763%20C%201.42%2025.287%201.812%2024.9%202.296%2024.9%20Z%20M%202.227%208.263%20L%202.227%2024.833%20L%202.365%2024.833%20L%202.365%208.263%20Z%20M%201.257%208.331%20L%202.296%208.331%20L%202.296%208.195%20L%201.257%208.195%20Z%20M%20-0.037%204.187%20L%201.191%208.282%20L%201.323%208.244%20L%200.095%204.148%20Z%20M%205.507%204.099%20L%200.029%204.099%20L%200.029%204.235%20L%205.507%204.235%20L%205.507%204.099%20Z%20M%205.438%200.072%20L%205.438%204.167%20L%205.576%204.167%20L%205.576%200.072%20Z%22%20fill%3D%22rgb(255%2C255%2C255)%22%3E%3C%2Fpath%3E%3C%2Fsvg%3E","textColor":"#FFFFFF","tooltipDescription":"This
        address is linked to a Farcaster account","warpcastHandle":"lefteris.eth"},"name":"Farcaster","ordinal":0,"slug":"warpcast-account","tagType":"classifier"}]},"name":null,"private_tags":[],"proxy_type":null,"public_tags":[],"reputation":"ok","watchlist_names":[]},"token":{"address_hash":"0x7F5c764cBc14f9669B88837ca1490cCa17c31607","circulating_market_cap":"27288658.239564855","decimals":"6","exchange_rate":"0.998313","holders_count":"944608","icon_url":"https://assets.coingecko.com/coins/images/31580/small/USDC-icon.png?1696530397","name":"USD
        Coin","reputation":"ok","symbol":"USDC","total_supply":"27312128283248","type":"ERC-20","volume_24h":"875092.8552239385"},"token_type":"ERC-20","total":{"decimals":"6","value":"400604528"},"transaction_hash":"0xb3f70f0eb6208572e30542304ba5513482b7ff095abd2beb2d22101a705770f2","type":"token_transfer"}],"base_fee_per_gas":"1009549","timestamp":"2024-02-10T00:43:11.000000Z","nonce":51,"historic_exchange_rate":"2500.87","transaction_types":["contract_call","token_transfer"],"exchange_rate":"1953.11","block_number":115963507,"has_error_in_internal_transactions":false}'
    headers:
      CF-RAY:
      - 9cc6c6964cc90bbd-AMS
      Cache-Control:
      - max-age=0, private, must-revalidate
      Connection:
      - keep-alive
      Content-Type:
      - application/json; charset=utf-8
      Date:
      - Wed, 11 Feb 2026 21:00:26 GMT
      Nel:
      - '{"report_to":"cf-nel","success_fraction":0.0,"max_age":604800}'
      Report-To:
      - '{"group":"cf-nel","max_age":604800,"endpoints":[{"url":"https://a.nel.cloudflare.com/report/v4?s=Bs2BQ1MapDDYWnn4D2iBZ7NKGVDB3JrzaCczwLrPoQnHkjW1Ye1kzRlHg2axyZQm%2B7bIOUEcEF4W%2F9Cyi%2F8TJmo3sk6gzWKka01EcaILS2YSbk2%2FMEUnn28ZkHhXczu8"}]}'
      Server:
      - cloudflare
      Transfer-Encoding:
      - chunked
      access-control-allow-credentials:
      - 'true'
      access-control-allow-origin:
      - '*'
      access-control-expose-headers:
      - bypass-429-option,x-ratelimit-reset,x-ratelimit-limit,x-ratelimit-remaining,api-v2-temp-token
      alt-svc:
      - h3=":443"; ma=86400
      bypass-429-option:
      - temporary_token
      cf-cache-status:
      - DYNAMIC
      content-length:
      - '39146'
      strict-transport-security:
      - max-age=31536000; includeSubDomains
      x-ratelimit-limit:
      - '600'
      x-ratelimit-remaining:
      - '596'
      x-ratelimit-reset:
      - '34021'
      x-request-id:
      - 0b224d30ee6a8dc448077063c1343746
    status:
      code: 200
      message: OK
- request:
    body: null
    headers:
      Accept:
      - '*/*'
      Accept-Encoding:
      - gzip, deflate
      Connection:
      - keep-alive
      User-Agent:
      - rotki/1.41.4.dev605+g82b3ceb2bd
    method: GET
    uri: https://explorer.optimism.io/api?action=txlistinternal&module=account&sort=asc&txhash=0xb3f70f0eb6208572e30542304ba5513482b7ff095abd2beb2d22101a705770f2
  response:
    body:
      string: '{"message":"No internal transactions found","result":[],"status":"0"}'
    headers:
      CF-RAY:
      - 9cc6c69a3ad8e6fe-AMS
      Cache-Control:
      - max-age=0, private, must-revalidate
      Connection:
      - keep-alive
      Content-Type:
      - application/json; charset=utf-8
      Date:
      - Wed, 11 Feb 2026 21:00:26 GMT
      Nel:
      - '{"report_to":"cf-nel","success_fraction":0.0,"max_age":604800}'
      Report-To:
      - '{"group":"cf-nel","max_age":604800,"endpoints":[{"url":"https://a.nel.cloudflare.com/report/v4?s=GOjWYgjkEYFDGjV5CPQIFGiOL7Tt7QfhNN2dZaHMUwr5qyr2Wf%2FVU6DeyJItud901ODpy9Q4IT5uayNlSFw7%2B50ZMtt6uyEUlb8et%2B5%2Bp6ZB7x%2Fo%2Bs9erIEvdQk4yN7r"}]}'
      Server:
      - cloudflare
      Transfer-Encoding:
      - chunked
      access-control-allow-credentials:
      - 'true'
      access-control-allow-origin:
      - '*'
      access-control-expose-headers:
      - bypass-429-option,x-ratelimit-reset,x-ratelimit-limit,x-ratelimit-remaining,api-v2-temp-token
      alt-svc:
      - h3=":443"; ma=86400
      bypass-429-option:
      - no_bypass
      cf-cache-status:
      - DYNAMIC
      content-length:
      - '69'
      strict-transport-security:
      - max-age=31536000; includeSubDomains
      x-ratelimit-limit:
      - '600'
      x-ratelimit-remaining:
      - '595'
      x-ratelimit-reset:
      - '33395'
      x-request-id:
      - c98456cbdbf75e572ad473f374145909
    status:
      code: 200
      message: OK
version: 1
