interactions:
- request:
    body: '{"id": 0, "jsonrpc": "2.0", "method": "eth_getTransactionByHash", "params":
      ["0x6f22fe65f25aa9e68e4fc8b43d742da52318259531c02c7369342e19a67a0227"]}'
    headers:
      Accept:
      - '*/*'
      Accept-Encoding:
      - gzip, deflate
      Connection:
      - keep-alive
      Content-Length:
      - '147'
      Content-Type:
      - application/json
      User-Agent:
      - rotki/1.42.2.dev317+g7a75c36007
    method: POST
    uri: https://api.blockscout.com/8453/json-rpc
  response:
    body:
      string: '{"jsonrpc":"2.0","result": {"accessList":[],"blockHash":"0x42611e5551d7ac97ee7d8558e3c78fce73dae8916ab03507de3fd4817dbbb01c","blockNumber":"0xf38b40","chainId":"0x2105","from":"0xddc68f9de415ba2fe2fd84bc62be2d2cff1098da","gas":"0x113144","gasPrice":"0x525fbb","hash":"0x6f22fe65f25aa9e68e4fc8b43d742da52318259531c02c7369342e19a67a0227","input":"0x1cff79cd000000000000000000000000b65cbf9689979e1749b38ba5d5155c70500292d800000000000000000000000000000000000000000000000000000000000000400000000000000000000000000000000000000000000000000000000000001044f1298ed7000000000000000000000000000000000000000000000000000000000000004000000000000000000000000000000000000000000000000000000000000010000000000000000000000000000000000000000000000000000000000000000009000000000000000000000000000000000000000000000000000000000000012000000000000000000000000000000000000000000000000000000000000002a000000000000000000000000000000000000000000000000000000000000004c00000000000000000000000000000000000000000000000000000000000000620000000000000000000000000000000000000000000000000000000000000086000000000000000000000000000000000000000000000000000000000000009c00000000000000000000000000000000000000000000000000000000000000b000000000000000000000000000000000000000000000000000000000000000d000000000000000000000000000000000000000000000000000000000000000e6098203051894747605630ba7bcee424c0ec4e2f7d74e8e9d5a195b7eeba3cbd100000000000000000000000000000000000000000000000000000000000000060000000000000000000000000000000000000000000000000000000000000000100000000000000000000000000000000000000000000000000000000000000e485e92d98000000000000000000000000000000000000000000000000000000000000004000000000000000000000000000000000000000000000000000000000000000c00000000000000000000000000000000000000000000000000000000000000060000000000000000000000000833589fcd6edb6e08f4c7c32d4f71b54bda02913000000000000000000000000ddc68f9de415ba2fe2fd84bc62be2d2cff1098da000000000000000000000000000000000000000000000000000000000000000000000000000000000000000000000000000000000000000000000000000000000000000000000000000000000000000000000000000000000000000036303c18db5a95d0dd17b9bac9bc1dbd0130264cd8a04fb5e9b427a3a03ad49e00000000000000000000000000000000000000000000000000000000000000600000000000000000000000000000000000000000000000000000000000000001000000000000000000000000000000000000000000000000000000000000018485e92d98000000000000000000000000000000000000000000000000000000000000004000000000000000000000000000000000000000000000000000000000000000e00000000000000000000000000000000000000000000000000000000000000080000000000000000000000000833589fcd6edb6e08f4c7c32d4f71b54bda02913000000000000000000000000bbbbbbbbbb9cc5e90e3b3af64bdaf62c37eeffcb000000000000000000000000000000000000000000000000000000000000000000000000000000000000000000000000000000000000000000000000000000000000000000000000000000000000000000000000000000000000000000000004000000000000000000000000000000000000000000000000000000000000000000000000000000000000000000000000000000000000000000000000000000000000000000000000000000000000000000000000000000000000000000000000000000000000000000000000000000000000000000000000000000000000000000000000000000000000000000000000000000000000000000000000ae6d6b87bd69704c742ef3ff051d31d411798b8403cab6cb2d94a7ba91661f7d0000000000000000000000000000000000000000000000000000000000000060000000000000000000000000000000000000000000000000000000000000000100000000000000000000000000000000000000000000000000000000000000c485e92d9800000000000000000000000000000000000000000000000000000000000000400000000000000000000000000000000000000000000000000000000000000080000000000000000000000000000000000000000000000000000000000000002000000000000000000000000000000000000000000000000000000000000000000000000000000000000000000000000000000000000000000000000000000001000000000000000000000000000000000000000000000000000000000000000000000000000000000000000000000000000000000000000000000000ca8b1df9badec7f65f2e427ee80179f2807ed58d10408e980112dd70b583f8060000000000000000000000000000000000000000000000000000000000000060000000000000000000000000000000000000000000000000000000000000000100000000000000000000000000000000000000000000000000000000000001a485e92d98000000000000000000000000000000000000000000000000000000000000004000000000000000000000000000000000000000000000000000000000000001600000000000000000000000000000000000000000000000000000000000000100000000000000000000000000833589fcd6edb6e08f4c7c32d4f71b54bda029130000000000000000000000002ae3f1ec7f1f5012cfeab0185bfc7aa3cf0dec220000000000000000000000004756c26e01e61c7c2f86b10f4316e179db8f942500000000000000000000000046415998764c29ab2a25cbea6254146d50d226870000000000000000000000000000000000000000000000000bef55718ad600000000000000000000000000000000000000000000000000000000000000000000000000000000000000000000000000000000000000000000000000000000000000000000000000000000000000000000000000000000000000000000000000010000000000000000000000000000000000000000000000000000000000000001000000000000000000000000000000000000000000000000000000000000000000000000000000000000000000000000000000000000000000000000b8020e49c93f2144cdce5b93dc159b086f98dcfba95a09eec862664fbfa6a8a40000000000000000000000000000000000000000000000000000000000000060000000000000000000000000000000000000000000000000000000000000000100000000000000000000000000000000000000000000000000000000000000c485e92d98000000000000000000000000000000000000000000000000000000000000004000000000000000000000000000000000000000000000000000000000000000800000000000000000000000000000000000000000000000000000000000000020ffffffffffffffffffffffffffffffffffffffffffffffffffffffffffffffff0000000000000000000000000000000000000000000000000000000000000001000000000000000000000000000000000000000000000000000000000000000000000000000000000000000000000000000000000000000000000000166438e3cb190ad4e896f7b4bd36c98f5b7dc3f5eb885f019521b3b819bc0de80000000000000000000000000000000000000000000000000000000000000060000000000000000000000000000000000000000000000000000000000000000100000000000000000000000000000000000000000000000000000000000000a485e92d98000000000000000000000000000000000000000000000000000000000000004000000000000000000000000000000000000000000000000000000000000000800000000000000000000000000000000000000000000000000000000000000020000000000000000000000000833589fcd6edb6e08f4c7c32d4f71b54bda029130000000000000000000000000000000000000000000000000000000000000000000000000000000000000000000000000000000000000000000000005e8a8984847bce562c1ded2e66d858deb4fc1e1078bd8052d7ac568bb85704ea00000000000000000000000000000000000000000000000000000000000000600000000000000000000000000000000000000000000000000000000000000000000000000000000000000000000000000000000000000000000000000000016485e92d980000000000000000000000000000000000000000000000000000000000000040000000000000000000000000000000000000000000000000000000000000014000000000000000000000000000000000000000000000000000000000000000e0000000000000000000000000833589fcd6edb6e08f4c7c32d4f71b54bda029130000000000000000000000002ae3f1ec7f1f5012cfeab0185bfc7aa3cf0dec220000000000000000000000004756c26e01e61c7c2f86b10f4316e179db8f942500000000000000000000000046415998764c29ab2a25cbea6254146d50d226870000000000000000000000000000000000000000000000000bef55718ad6000000000000000000000000000000000000000000000000000000038d7ea4c6800000000000000000000000000020e74013d82fea853afca3b4cb1fd9c2b105f55a000000000000000000000000000000000000000000000000000000000000000000000000000000000000000000000000000000000000000000000000b8020e49c93f2144cdce5b93dc159b086f98dcfba95a09eec862664fbfa6a8a40000000000000000000000000000000000000000000000000000000000000060000000000000000000000000000000000000000000000000000000000000000100000000000000000000000000000000000000000000000000000000000000c485e92d98000000000000000000000000000000000000000000000000000000000000004000000000000000000000000000000000000000000000000000000000000000800000000000000000000000000000000000000000000000000000000000000020ffffffffffffffffffffffffffffffffffffffffffffffffffffffffffffffff0000000000000000000000000000000000000000000000000000000000000001000000000000000000000000000000000000000000000000000000000000000000000000000000000000000000000000000000000000000000000000166438e3cb190ad4e896f7b4bd36c98f5b7dc3f5eb885f019521b3b819bc0de80000000000000000000000000000000000000000000000000000000000000060000000000000000000000000000000000000000000000000000000000000000000000000000000000000000000000000000000000000000000000000000000a485e92d980000000000000000000000000000000000000000000000000000000000000040000000000000000000000000000000000000000000000000000000000000008000000000000000000000000000000000000000000000000000000000000000200000000000000000000000002ae3f1ec7f1f5012cfeab0185bfc7aa3cf0dec22000000000000000000000000000000000000000000000000000000000000000000000000000000000000000000000000000000000000000000000000000000000000000000000000000000000000000000000000000000000000001b4d6f7270686f426c75655061796261636b57697468647261775f32000000000000000000000000000000000000000000000000000000000000000000","maxFeePerGas":"0xf41d88","maxPriorityFeePerGas":"0x186a0","nonce":"0x10","r":"0x423a3114c500bb6d3031c4e48bff59674be242010bf2b205228c7a80cabe3b14","s":"0x27ba24f0a18b37c52c504a2e50bab8cef71ed3fb291c8da0ba9ed437200bdcbf","to":"0x20e74013d82fea853afca3b4cb1fd9c2b105f55a","transactionIndex":"0x39","type":"0x2","v":"0x0","value":"0x0","yParity":"0x0"},"id":
        0}

        '
    headers:
      CF-RAY:
      - 9f2c5812ae07191e-MAD
      Cache-Control:
      - max-age=0, private, must-revalidate
      Connection:
      - keep-alive
      Content-Type:
      - application/json; charset=utf-8
      Date:
      - Mon, 27 Apr 2026 08:09:16 GMT
      Nel:
      - '{"report_to":"cf-nel","success_fraction":0.0,"max_age":604800}'
      Report-To:
      - '{"group":"cf-nel","max_age":604800,"endpoints":[{"url":"https://a.nel.cloudflare.com/report/v4?s=1cvrc%2BUhx7IHadJbl794ptcs2TK%2B%2FvMZ8quou8B2LhGXxuCMNH%2B5FxVflPoByc2kyfupdK4bjQZzJRLXI4NLOpqfn6iPofl8olfD6O9svDIb%2BnkapLKYeajmyz3RiOySW2ZZKQ%3D%3D"}]}'
      Server:
      - cloudflare
      alt-svc:
      - h3=":443"; ma=86400
      cf-cache-status:
      - DYNAMIC
      content-length:
      - '9292'
      strict-transport-security:
      - max-age=31536000; includeSubDomains
      vary:
      - accept-encoding
      x-credits-remaining:
      - '99980'
      x-ratelimit-limit:
      - '5'
      x-ratelimit-remaining:
      - '4'
      x-ratelimit-reset:
      - '939'
      x-request-id:
      - f5d85439cf3faaf4292e2947a417626a
    status:
      code: 200
      message: OK
- request:
    body: '{"id": 0, "jsonrpc": "2.0", "method": "eth_getBlockByNumber", "params":
      ["0xf38b40", true]}'
    headers:
      Accept:
      - '*/*'
      Accept-Encoding:
      - gzip, deflate
      Connection:
      - keep-alive
      Content-Length:
      - '91'
      Content-Type:
      - application/json
      User-Agent:
      - rotki/1.42.2.dev317+g7a75c36007
    method: POST
    uri: https://api.blockscout.com/8453/json-rpc
  response:
    body:
      string: '{"jsonrpc":"2.0","result": {"baseFeePerGas":"0x50d91b","blobGasUsed":"0x0","difficulty":"0x0","excessBlobGas":"0x0","extraData":"0x","gasLimit":"0x55d4a80","gasUsed":"0xbd4e14","hash":"0x42611e5551d7ac97ee7d8558e3c78fce73dae8916ab03507de3fd4817dbbb01c","logsBloom":"0x5431804a6594001dc481c2b0e8398e825128734534414950383c10a2849001830549520807084b80200244100c07f0c449b98484944072021327088267bc74808482421a685a0c6846805689a04482614a800d61407b8b008220081ca0a5c901639930281666628588640e780409c828950a1c18023854a4920008d4400c000c8103214354c411495900038c02e4040404131a4d02b40008802f0246f2881100e280d00c8654c801149085382cf0258495c991a2a1c0e8008d6d400b90234362f3808a2b80610d812c218e370246a0420d81080c100f9e52240100d2045868141012043983a0100d589e42a00d8115a5851157235194487066001960d5e81408","miner":"0x4200000000000000000000000000000000000011","mixHash":"0xb58b454c167b26e25d5d6fd74866aeeff12c2d471517fe617fc18b883faaaf48","nonce":"0x0000000000000000","number":"0xf38b40","parentBeaconBlockRoot":"0xb8b2dbeeca5c0e3b93858a3792db12c7b389fe4c3fa190b6485bde1d593d34fe","parentHash":"0x35cf25cc63e173767aa7714ea5dce5d299f48038817b7d4e0bac72c7b3a5beb6","receiptsRoot":"0x2105e4c76335e9e5a4ebf36834303f5eed78fe288dcfe3a6d7948d498c49a6ff","sha3Uncles":"0x1dcc4de8dec75d7aab85b567b6ccd41ad312451b948a7413f0a142fd40d49347","size":"0xb9ef","stateRoot":"0x478c5bc73329d3fe89159ec60719a3360eb82918f7723c5793d1547e4b8549c3","timestamp":"0x66717363","transactions":[{"blockHash":"0x42611e5551d7ac97ee7d8558e3c78fce73dae8916ab03507de3fd4817dbbb01c","blockNumber":"0xf38b40","depositReceiptVersion":"0x1","from":"0xdeaddeaddeaddeaddeaddeaddeaddeaddead0001","gas":"0xf4240","gasPrice":"0x0","hash":"0x5c7914b86861785d9c99769e520f4de5ed76e500d4ae502d379ef199e83283c9","input":"0x440a5e200000044d000a118b000000000000000300000000667172ab000000000132fb8e00000000000000000000000000000000000000000000000000000001d416406f0000000000000000000000000000000000000000000000000000000000000001cb4cee5514a1d4747d7447ed48e858c87459dd2bcc3b9fb4b44e4e717564ffba0000000000000000000000005050f69a9786f081509234f1a7f4684b5e5b76c9","mint":"0x0","nonce":"0xf38b40","r":"0x0","s":"0x0","sourceHash":"0xfb84461e5cd569632fb7f828269fd8d285b2477ac8fa53f0e8661ab72c97c1cb","to":"0x4200000000000000000000000000000000000015","transactionIndex":"0x0","type":"0x7e","v":"0x0","value":"0x0","yParity":"0x0"},{"accessList":[],"blockHash":"0x42611e5551d7ac97ee7d8558e3c78fce73dae8916ab03507de3fd4817dbbb01c","blockNumber":"0xf38b40","chainId":"0x2105","from":"0xb389827d7c1d4e4e24cb7101ead17e5e5f5bdbe1","gas":"0x22965","gasPrice":"0x1545b902","hash":"0x879e89822c17671910352be74d331e31408da83f9fd61a79ab52d86128bc1557","input":"0x010c1806d133f697e517401503d329370ee098e0000000","maxFeePerGas":"0x1545b902","maxPriorityFeePerGas":"0x14f52503","nonce":"0xa5","r":"0xf02bd213e35d707eccf94451b2c6c49bdfc705f9dc836a254efd34cc6dad6c14","s":"0x2c56c1025ca815688bd9ad9ce77e7d4a35c2e76d872e200ffac2e77f5d21eada","to":"0xec2e0f57fdc6bcdb5a2ea714fa6e1f8a17d6baf4","transactionIndex":"0x1","type":"0x2","v":"0x0","value":"0x0","yParity":"0x0"},{"accessList":[],"blockHash":"0x42611e5551d7ac97ee7d8558e3c78fce73dae8916ab03507de3fd4817dbbb01c","blockNumber":"0xf38b40","chainId":"0x2105","from":"0x23e26f1d94231da856bb680ed01b2e2216d38ce0","gas":"0x493e0","gasPrice":"0xc3c9b1b","hash":"0xfc5ed4a8191802321017cfe18ffb87710abb377a76f19ffdfcf6358817ad4bfb","input":"0xac9650d8000000000000000000000000000000000000000000000000000000000000002000000000000000000000000000000000000000000000000000000000000000020000000000000000000000000000000000000000000000000000000000000040000000000000000000000000000000000000000000000000000000000000016000000000000000000000000000000000000000000000000000000000000000e404e45aaf00000000000000000000000096419929d7949d6a801a6909c145c8eef6a40431000000000000000000000000420000000000000000000000000000000000000600000000000000000000000000000000000000000000000000000000000027100000000000000000000000000000000000000000000000000000000000000002000000000000000000000000000000000000000000000002b5e3af16b18800000000000000000000000000000000000000000000000000000000000000000000000000000000000000000000000000000000000000000000000000000000000000000000000000000000000000000000000000000000000000000000000000000000000000000000000000000000000000000000000000000000004449404b7c000000000000000000000000000000000000000000000000015793d4e4ee0ec200000000000000000000000023e26f1d94231da856bb680ed01b2e2216d38ce000000000000000000000000000000000000000000000000000000000","maxFeePerGas":"0xc8ce9fe","maxPriorityFeePerGas":"0xbebc200","nonce":"0x3db1","r":"0xa98fdf87b12d87e3a9292097502471feea32be3a3fe78b09be74d8f726a8d647","s":"0x4a90f632926ca8b14e2447e7e9ccbb5e8a331a6e9f7045351b8269504aa91488","to":"0x2626664c2603336e57b271c5c0b26f421741e481","transactionIndex":"0x2","type":"0x2","v":"0x1","value":"0x0","yParity":"0x1"},{"blockHash":"0x42611e5551d7ac97ee7d8558e3c78fce73dae8916ab03507de3fd4817dbbb01c","blockNumber":"0xf38b40","chainId":"0x2105","from":"0x560983378c99394ab71ced1f7a55ca01de3d0086","gas":"0xc3500","gasPrice":"0x9005464","hash":"0x2aa53a8e8d9c60c6dc83311e5c2485c52f933fa0db0f0e157f848fe5fbb5d8a4","input":"0x000000010000000000000000000000000000000000000000000000000c3663566a58000000000000000000000000000000000000000000000000000000000000b28f9e6c4200000000000000000000000000000000000006833589fcd6edb6e08f4c7c32d4f71b54bda0291300006400000000000000000003d3018000000000000000","nonce":"0x1679","r":"0xd308f5485e1d8d7fbd435fbf99066f8116535c4353fc4f728b8fa3b5a8f57d05","s":"0x1b4bd5f31d4816e0d60b34792e65e1e1f074242545e852a1def161719d41c0f5","to":"0x1195c8b1c3d2a99be9947c2032d767e2d59352e3","transactionIndex":"0x3","type":"0x0","v":"0x422d","value":"0x0"},{"accessList":[],"blockHash":"0x42611e5551d7ac97ee7d8558e3c78fce73dae8916ab03507de3fd4817dbbb01c","blockNumber":"0xf38b40","chainId":"0x2105","from":"0xecf4c7629d81c61f2a8babaca60a42d63dbfc0c0","gas":"0x927d4","gasPrice":"0x3335f9d","hash":"0x4f921ab97631e3bc38b9a7b303e97b70a75b9b8250deae73af0c23048244b147","input":"0xa00597a0000000000000000000000000000000000000000000000000119b3a1425fea95000000000000000000000000000000000000000000003d30e906448e5d907675400000000000000000000000042000000000000000000000000000000000000060000000000000000000000000000000000000000000000000000000000000001000000000000000000000000b4cb800910b228ed3d0834cf79d697127bbb00e50000000000000000000000000000000000000000000000000000000066717415","maxFeePerGas":"0x34ba09c","maxPriorityFeePerGas":"0x2e28682","nonce":"0x15c84","r":"0xd5738c957208ec0a04e9eda3a87a6f0f9fbfb798c51ebbcbe1efe755e9ef11f3","s":"0x1868a3e3df02ee369eed8c2bcfa995509fca35e59e4d1665cb2bac8188ca815b","to":"0x802b65b5d9016621e66003aed0b16615093f328b","transactionIndex":"0x4","type":"0x2","v":"0x1","value":"0x0","yParity":"0x1"},{"blockHash":"0x42611e5551d7ac97ee7d8558e3c78fce73dae8916ab03507de3fd4817dbbb01c","blockNumber":"0xf38b40","chainId":"0x2105","from":"0x3ab5dabb00b8829fb529d288bc53214b96db231f","gas":"0xc3500","gasPrice":"0x2ffaaf5","hash":"0x45ec39d5ac2341dcc0106c93305321fb9242e4a099155930b6a98c20112c2fa6","input":"0x000000030000000000000000000000000000000000000000000000000342e34142378000000000000000000000000000000000000000000000000000000000002faf147e4200000000000000000000000000000000000006d9aaec86b65d86f6a7b5b1b0c42ffa531710b6ca00006400000000000000000003d306a000000000000000","nonce":"0x1670","r":"0x1adf76d4c5b98f1e4f0f810c6dff9b0ef07e141f981e11072881557830bfed4a","s":"0x131f2edef8973a2523b9042c222ce80138c91f4beefb2c6e08755cbbf0624e26","to":"0x1195c8b1c3d2a99be9947c2032d767e2d59352e3","transactionIndex":"0x5","type":"0x0","v":"0x422d","value":"0x0"},{"blockHash":"0x42611e5551d7ac97ee7d8558e3c78fce73dae8916ab03507de3fd4817dbbb01c","blockNumber":"0xf38b40","chainId":"0x2105","from":"0xf76d1cacd26fd5e99de45b8f3207d3ac509dc0b6","gas":"0xc3500","gasPrice":"0x2ffa5c1","hash":"0x31a3b148e26829761b291be3de19b0312fde6d36fb588466c11ef74a9778e87e","input":"0x00000001000000000000000000000000000000000000000000000000064b0e276e6cbc3c000000000000000000000000000000000000000000000000000000005c0c721a4200000000000000000000000000000000000006833589fcd6edb6e08f4c7c32d4f71b54bda0291300006400000000000000000003d339e000000000000000","nonce":"0xd037","r":"0x4abae42dd6ba16c5cca55e6363977d8607c1ae438141355e846dfde8bee49c8f","s":"0x444a3501cd03105d3af435bb4139ab9dd0d5aaf065648fc06c5bcce59a03313a","to":"0x1195c8b1c3d2a99be9947c2032d767e2d59352e3","transactionIndex":"0x6","type":"0x0","v":"0x422e","value":"0x0"},{"accessList":[],"blockHash":"0x42611e5551d7ac97ee7d8558e3c78fce73dae8916ab03507de3fd4817dbbb01c","blockNumber":"0xf38b40","chainId":"0x2105","from":"0xd0adade7cf2b6dd8b2f673c1b699dd21062a15ea","gas":"0xf4240","gasPrice":"0x1ce515b","hash":"0xc866b542254623af6e3a0e2306b4fe864e62c7bc742bd9d66d4a75d6e70fcc69","input":"0xa00597a000000000000000000000000000000000000000000000000000540e0a5e11caf400000000000000000000000000000000000000000003d3247fd6c37d42fe662e0000000000000000000000004200000000000000000000000000000000000006000000000000000000000000000000000000000000000000000000000000000100000000000000000000000072ab388e2e2f6facef59e3c3fa2c4e29011c2d380000000000000000000000000000000000000000000000000000000066717414","maxFeePerGas":"0x1e6925a","maxPriorityFeePerGas":"0x17d7840","nonce":"0x13fcf","r":"0x65edda42592bf8935440bed8a6d76bbcbf0e64d595d034e6ccd507a1bc2d2f3b","s":"0x712ba3a5bf37490d616c0ba15fd36e42cca9fbfb0367be85d3b078dcb91ac0c4","to":"0x802b65b5d9016621e66003aed0b16615093f328b","transactionIndex":"0x7","type":"0x2","v":"0x0","value":"0x0","yParity":"0x0"},{"accessList":[],"blockHash":"0x42611e5551d7ac97ee7d8558e3c78fce73dae8916ab03507de3fd4817dbbb01c","blockNumber":"0xf38b40","chainId":"0x2105","from":"0x0000516f0597edf60fe6fa3bcf8ccf9691ebe7bc","gas":"0x21000","gasPrice":"0x190d91b","hash":"0xe85f1c1332b6977d1e227d86b8420dc878eb26ecb5a1f77c322d6d3c97089cc8","input":"0x6671738e0224cf400a42000000000000000000000000000000000000060a08bd7bce833589fcd6edb6e08f4c7c32d4f71b54bda0291333010008bd7bceb4cb800910b228ed3d0834cf79d697127bbb00e5","maxFeePerGas":"0x7300000","maxPriorityFeePerGas":"0x1400000","nonce":"0x3feb","r":"0x630e73641f4573bfbbe740eee38bce1101470596ee8644ab8dd3aa0edf212d6a","s":"0x6246c364449e7b09b4bd0ace6a854f132ae349161f9f267a9cf39add17962af2","to":"0x000000338300a9a80000c868a40085b15dd000d0","transactionIndex":"0x8","type":"0x2","v":"0x0","value":"0x0","yParity":"0x0"},{"accessList":[],"blockHash":"0x42611e5551d7ac97ee7d8558e3c78fce73dae8916ab03507de3fd4817dbbb01c","blockNumber":"0xf38b40","chainId":"0x2105","from":"0xd39d00cb8436d472b1adbdae66a9703b7df438d1","gas":"0x44aa20","gasPrice":"0x11eeedc","hash":"0x0cf2184456f3369cb209172b9602f6572809c25472138115327bbf8701047746","input":"0x07be833589fcd6edb6e08f4c7c32d4f71b54bda02913271001257ab4cb800910b228ed3d0834cf79d697127bbb00e5270fd0b53d9277642d899df5c87a3966a349a798f224270b07bed9aaec86b65d86f6a7b5b1b0c42ffa531710b6ca271001257af6c0a374a483101e04ef5f7ac9bd15d9142bac95270f4c36388be6f416a29c8d8eee81c771ce6be14b18270b098b0c41f1fc9022feb69af6dc666abfe73c9ffda7ce271000250339a72b1292aaed73b9b5633e14f88fe9a89f400b26f2780229080256c9c5af1630a3c165d5725131e61026acffff","maxFeePerGas":"0x16fc7f7","maxPriorityFeePerGas":"0xce15c1","nonce":"0x3342fa","r":"0x97c9ca6df0fc3ef6115ad43485f8aa3f500583a5b4fd3a592d363b36aeb33bac","s":"0x6341962a4f38c952c9f4c6c290289ebaa346182c2b961694fc240b4b1ce5b6f2","to":"0x36db5034032fd240a1b3cde369772049c8dcfb91","transactionIndex":"0x9","type":"0x2","v":"0x0","value":"0x0","yParity":"0x0"},{"accessList":[],"blockHash":"0x42611e5551d7ac97ee7d8558e3c78fce73dae8916ab03507de3fd4817dbbb01c","blockNumber":"0xf38b40","chainId":"0x2105","from":"0x32d143c79cab48683bbe6bbdf140e67624c40bfd","gas":"0x2dc6c0","gasPrice":"0xef7890","hash":"0x27845a36dd590f7fe86b6e625ad3dd42812dea5fd8bdd4b1fe57c473e2eee63d","input":"0x0000000b0000000000000000000000000000000000000000000000000000000000000020000000000000000000000000000000000000000000000000000000000000003f0c41f1fc9022feb69af6dc666abfe73c9ffda7ce0039a72b1292aaed73b9b5633e14f88fe9a89f400b01780229080256c9c5af1630a3c165d5725131e6100300","maxFeePerGas":"0x46a82e8","maxPriorityFeePerGas":"0x9e9f75","nonce":"0x11ff17","r":"0xbc7b0d13327cc77cab4ed4156037a32644b148d77df1e6f9638db93df5daeb60","s":"0x3bc72cafac6c5d926e5ce72eb60e4ac4713d1ab02990bdf9115f64258300e1e2","to":"0xce4cf0d5da97b7f4de1ba76609f2a1330411e7c0","transactionIndex":"0xa","type":"0x2","v":"0x0","value":"0x0","yParity":"0x0"},{"accessList":[],"blockHash":"0x42611e5551d7ac97ee7d8558e3c78fce73dae8916ab03507de3fd4817dbbb01c","blockNumber":"0xf38b40","chainId":"0x2105","from":"0x6884181b2ea31e53d70e8638e61a6ef337d083f5","gas":"0xc85e","gasPrice":"0xe96f9b","hash":"0xead55ed1f4f2a7f1d7bb0139234a371919149077290f39041d64aaa607063b9d","input":"0x095ea7b30000000000000000000000009a1f80ae69da88c1d806b4bc5024d93d50f502bc00000000000000000000000000000000000000000000006bf22a9c1aad580000","maxFeePerGas":"0x1c9c380","maxPriorityFeePerGas":"0x989680","nonce":"0x2f","r":"0x55d208948dc39dcc168721d0bfe2ccde434fc0f33c66f6639d7753d7098c4b3b","s":"0x2915d73f1f731f39fee03c8034cd8f04b07d88e09ac4eb148cc32092e5e600a5","to":"0x5bb95c0ed6eb12f6aad0bcf84aaeff0da7804e80","transactionIndex":"0xb","type":"0x2","v":"0x1","value":"0x0","yParity":"0x1"},{"blockHash":"0x42611e5551d7ac97ee7d8558e3c78fce73dae8916ab03507de3fd4817dbbb01c","blockNumber":"0xf38b40","chainId":"0x2105","from":"0x780bbee2865aaa58ea0c54a2aa41cde3733bb80b","gas":"0x49600","gasPrice":"0xc06538","hash":"0x3de29ef5791c4fa35cbb0ddc25eaecd94ed6292388f093549eccd43d2b063e51","input":"0x5742f5670000000000000000000000000000000000000000000000000000000000000020000000000000000000000000606ea89c2dcae6287f7a51e757800db9ca2dd0c100000000000000000000000000000000000000000000047320dfe2fa65ad6231000000000000000000000000000000000000000000000000000000000000006000000000000000000000000000000000000000000000000000000000000004646a2b69f0000000000000000000000000000000000000000000000000000000000000002000000000000000000000000000000000000000000000000000000000000000600000000000000000000000000000000000000000000000000000000000000220000000000000000000000000000000000000000000000000000000000000038000000000000000000000000000000000000000000000000000000000000001000000000000000000000000000000000000000000000000000000000000000002000000000000000000000000606ea89c2dcae6287f7a51e757800db9ca2dd0c1000000000000000000000000eeeeeeeeeeeeeeeeeeeeeeeeeeeeeeeeeeeeeeee00000000000000000000000000000000000000000000047320dfe2fa65ad623100000000000000000000000000000000000000000000047320dfe2fa65ad6231000000000000000000000000780bbee2865aaa58ea0c54a2aa41cde3733bb80b00000000000000000000000000000000000000000000000001ecdd7b57edd059689574ba1004f60ded8f1e6826e3b8f84868f85e3ce42befb0f92ef718eb55b6000000000000000000000000000000000000000000000000000000000000004000000000000000000000000000000000000000000000000000000000000000411c30cc952a896534577be4d057d09ff483e59ae6badd7362cb0e66a8a1e8894516c87624f2694a1c6497a867878d8c71eb081e0f585c390a2a95de36c823c3bf1c000000000000000000000000000000000000000000000000000000000000000000000000000000000000001111111254eeb25477b68fb85ed929f73a9605820000000000000000000000001111111254eeb25477b68fb85ed929f73a960582000000000000000000000000000000000000000000000000000000000000006000000000000000000000000000000000000000000000000000000000000000c80502b1c5000000000000000000000000606ea89c2dcae6287f7a51e757800db9ca2dd0c100000000000000000000000000000000000000000000047320dfe2fa65ad6231000000000000000000000000000000000000000000000000023131f7a872a3fd00000000000000000000000000000000000000000000000000000000000000800000000000000000000000000000000000000000000000000000000000000001c0000000000000003b6d03401f9ae3ad178528f5da4efdb831d6215f1a4bc3e7f804e369000000000000000000000000000000000000000000000000000000000000000000000000000000000000000000000000000000000000008000000000000000000000000000000000000000000000000000000000000021050000000000000000000000000000000000000000000000000000000000000000000000000000000000000000780bbee2865aaa58ea0c54a2aa41cde3733bb80b00000000000000000000000000000000000000000000000000000000000000206e4a045d23c3dfd10f8a55619596aebbc2d0e9ac82f5a7ddc78ec4da86c2101800000000000000000000000000000000000000000000000000000000","nonce":"0x5b","r":"0xa918a6280982ca34acc2557ca8544c60532366bbdd22a435191b783538848e23","s":"0x4b1bdac02acf50eea9bddbbc413be01023365c30b0a5052dd56f372d4ad9f0d2","to":"0xd1ca1f4dbb645710f5d5a9917aa984a47524f49a","transactionIndex":"0xc","type":"0x0","v":"0x422e","value":"0x0"},{"accessList":[],"blockHash":"0x42611e5551d7ac97ee7d8558e3c78fce73dae8916ab03507de3fd4817dbbb01c","blockNumber":"0xf38b40","chainId":"0x2105","from":"0xd39d00cb8436d472b1adbdae66a9703b7df438d1","gas":"0x44aa20","gasPrice":"0x8c90bd","hash":"0x2dad839b9ccc5477b66f7d2d9be9bb7bd73c245c2dccf059f313d5b2dad9e60b","input":"0x07be833589fcd6edb6e08f4c7c32d4f71b54bda02913271001257ab4cb800910b228ed3d0834cf79d697127bbb00e5270fd0b53d9277642d899df5c87a3966a349a798f224270b07bed9aaec86b65d86f6a7b5b1b0c42ffa531710b6ca271001257af6c0a374a483101e04ef5f7ac9bd15d9142bac95270f4c36388be6f416a29c8d8eee81c771ce6be14b18270b098b0c41f1fc9022feb69af6dc666abfe73c9ffda7ce271000250339a72b1292aaed73b9b5633e14f88fe9a89f400b26f2780229080256c9c5af1630a3c165d5725131e61026acffff","maxFeePerGas":"0xdd69d8","maxPriorityFeePerGas":"0x3bb7a2","nonce":"0x3342fb","r":"0x83c7fa144941e95407dc1a29739482774bf467bd3c0a10d64cee8b8f94e0316c","s":"0x20a109bd9d234dba25b86027e77e8a8a9223170b9ecb12f4cd4ae6f8c33f3237","to":"0x36db5034032fd240a1b3cde369772049c8dcfb91","transactionIndex":"0xd","type":"0x2","v":"0x1","value":"0x0","yParity":"0x1"},{"accessList":[],"blockHash":"0x42611e5551d7ac97ee7d8558e3c78fce73dae8916ab03507de3fd4817dbbb01c","blockNumber":"0xf38b40","chainId":"0x2105","from":"0x9c71226863d3db3a7de3402e3743fea8026dc9e0","gas":"0x2dc6c0","gasPrice":"0x84ff5b","hash":"0xbbbe9f0521591f3abcc77f50b062e7ab8dcc6df7915008cac87e7b1e458591ea","input":"0x0000000b00000000000000000000000000000000000000000000000000000000000000200000000000000000000000000000000000000000000000000000000000000372833589fcd6edb6e08f4c7c32d4f71b54bda029130088a43bbdf9d098eec7bceda4e2494615dfd9bb9c01d0b53d9277642d899df5c87a3966a349a798f22403ac1bd2486aaf3b5c0fc3fd868558b082a531b2b400f641ff99d18babd6ffa38fa5cbc09dd7dab385c40174e4c08bb50619b70550733d32b7e60424e9628e0b340c070260520ae477b88caa085a33531897145b005063d14add4f65320db953d76f9b058707c7d51a017ff70016a1de228a6b038405c0414d796167729f031791b55e734df69b4906a4178a83dbe63c4f842100dcea286d38f5ff4953f30522cf90605fa831156701321b27aaa004ca9ecb6a7c06d79e5e0eaf1a15280396419929d7949d6a801a6909c145c8eef6a4043100fd7abc461df4e496a25898cab0c6ea88cdd94cf90bee6f3c5f418d1097c50c4698d535edb33bd7293103532f27101965dd16442e59d40670faf5ebb142e4004e829f8a5213c42535ab84aa40bd4adcce9cba020b76bf0abd20f1e0155ce40a62615a90a709a6c3d80347b464edb8dc9bc67b5cd4c9310bb87b773845bd0098433581b5420bc67fc5fd2b5f9dd3e7ca43140b016d6c60303d09886c30e789bed4bd36e86ee342b603698dc45e4f10966f6d1d98e3bfd7071d8144c2330076fc8dbf2022ee75612cb74ec80caf6b3ccffb2301075e82a2557d30fba2f8226f2f110145000ccbea03768be13e1680b5ebe0024c42c896e3db59ec0149006d6391b9bd02eefa00fa711fb1cb828a6471d283010ea13439f0818bd0598c002d9337374a78d5fe47039a26f5433671751c3276a065f57e5a02d281797300377feeed4820b3b28d1ab429509e7a0789824fca01b211a9ddff3a10806c8fdb92dbc4c34596a23f840b4ed4e862860bed51a9570b96d89af5e1b0efefed00c9034c3e7f58003e6ae0c8438e7c8f4598d5acaa037c327d692b72f60b28aecedbcc1ba784712fe7b2012e1d332893dc16124194e598a29866d2d5e8786b00d33805985642fa9338e1fa150ca811406f96f0de01710bb26a5ff62a1920daa52a97ee3641bb66ba5903fea9dcdc9e23a9068bf557ad5b186675c61d33ea00f4348227607b166917b9f50cf51979e376995b73036ee3a6660ef15db2842f03fa6f50b65d3d49ccce035b8f638330d7d6bd9d43811fe702f6894e97ef0300bde5099dc934631aea697b4c13d7da26ac675986012e5a4235e3f8dd0230e25038147ad9cf800c1af7030000000000000000000000000000","maxFeePerGas":"0xd2d293","maxPriorityFeePerGas":"0x342640","nonce":"0x23f959","r":"0xc6f41c3a150d46cf74f58e4084e8b9b6bdc4ac4c6fbc2f7e9f88b0de9c57d08f","s":"0x4de120cb1a0e4b0b48eed8bb2592846ef176d671bd7e7bc1322758eb92732c7","to":"0xce4cf0d5da97b7f4de1ba76609f2a1330411e7c0","transactionIndex":"0xe","type":"0x2","v":"0x0","value":"0x0","yParity":"0x0"},{"blockHash":"0x42611e5551d7ac97ee7d8558e3c78fce73dae8916ab03507de3fd4817dbbb01c","blockNumber":"0xf38b40","chainId":"0x2105","from":"0x033ded8d301fc674698abf21ccc8b33cec105684","gas":"0x1cf07","gasPrice":"0x84a1a0","hash":"0xb65bfb69d580bde4133ea9613e260454f74d18845760c9b95cf5af65176d59cb","input":"0x83800a8e000000000000000000000000048f254df18968e7a7fe7a30015cda891c3c61dd0000000000000000000000000000000000000000000574bf6f151efce95eb1de0000000000000000000000000000000000000000000000000070255fc0adc0d208800000000000003b6d0340749b7978408c8b57c35a7a55c6e1d1344bfc4c7469c57239","nonce":"0x37","r":"0xc7215a436bca2f94750ae4965ba48cc2b484628516da8c7369d7e39cd3a4d971","s":"0x1287cedf8ced122e38422c82c5de2d497708f7c11db333e1db82d3f3971a9fca","to":"0x111111125421ca6dc452d289314280a0f8842a65","transactionIndex":"0xf","type":"0x0","v":"0x422d","value":"0x0"},{"accessList":[],"blockHash":"0x42611e5551d7ac97ee7d8558e3c78fce73dae8916ab03507de3fd4817dbbb01c","blockNumber":"0xf38b40","chainId":"0x2105","from":"0xe20975fa9d711bb7fa74ac5c2f3bc9014ee7d17e","gas":"0x410a28","gasPrice":"0x7dc17c","hash":"0xf14051c2e678d70b7e91d3a53f64144862587e4a364ec5c88f5de7d0a8383cc2","input":"0xfdb5a03e","maxFeePerGas":"0xf28c8d","maxPriorityFeePerGas":"0x2ce861","nonce":"0x6ac22","r":"0xb5e511fc7c525a29191b2488975d197bd618a9d1a7ee5768c3c6c05c3f191b82","s":"0x3b9d4167bea1def3bccd84215af9619f60ea6ad4f526ac009cf40e92473f7f7e","to":"0x042c37762d1d126bc61eac2f5ceb7a96318f5db9","transactionIndex":"0x10","type":"0x2","v":"0x1","value":"0x0","yParity":"0x1"},{"blockHash":"0x42611e5551d7ac97ee7d8558e3c78fce73dae8916ab03507de3fd4817dbbb01c","blockNumber":"0xf38b40","chainId":"0x2105","from":"0xf3e00bb2d1801aacb144f0085c3d8f1c39f26a20","gas":"0x4714e","gasPrice":"0x732c8b","hash":"0x5f9b442434888c4c5941b08f33df73708e993c87a47e6ebcf068a29f14aa4199","input":"0xb858183f00000000000000000000000000000000000000000000000000000000000000200000000000000000000000000000000000000000000000000000000000000080000000000000000000000000f3e00bb2d1801aacb144f0085c3d8f1c39f26a20000000000000000000000000000000000000000000000001ee7c90f0f9e720000000000000000000000000000000000000000000000000000000000000000000000000000000000000000000000000000000000000000000000000000000002b8853f0c059c27527d33d02378e5e4f6d5afb574a0027104200000000000000000000000000000000000006000000000000000000000000000000000000000000","nonce":"0xd7c","r":"0x79b4e1ef298256e057e39cc40c0d35cf5b4c5944f86bc3d256795571b2acd91d","s":"0x50cc10c69a4f3bd56a189edd0a02fb4348ed4d31927533e882e1b5e3f2f387ce","to":"0x2626664c2603336e57b271c5c0b26f421741e481","transactionIndex":"0x11","type":"0x0","v":"0x422e","value":"0x0"},{"accessList":[],"blockHash":"0x42611e5551d7ac97ee7d8558e3c78fce73dae8916ab03507de3fd4817dbbb01c","blockNumber":"0xf38b40","chainId":"0x2105","from":"0xf63e7b6dc3245dfb325fcceae6457438e0f9a170","gas":"0x493e0","gasPrice":"0x730118","hash":"0x2b666455eb3154cb76f4bb70f55e02f251b99602572e59f60c59869626e77923","input":"0x24856bc30000000000000000000000000000000000000000000000000000000000000040000000000000000000000000000000000000000000000000000000000000008000000000000000000000000000000000000000000000000000000000000000020b080000000000000000000000000000000000000000000000000000000000000000000000000000000000000000000000000000000000000000000000000002000000000000000000000000000000000000000000000000000000000000004000000000000000000000000000000000000000000000000000000000000000a000000000000000000000000000000000000000000000000000000000000000400000000000000000000000000000000000000000000000000000000000000002000000000000000000000000000000000000000000000000006983fe1dd440000000000000000000000000000000000000000000000000000000000000000100000000000000000000000000f63e7b6dc3245dfb325fcceae6457438e0f9a170000000000000000000000000000000000000000000000000006983fe1dd440000000000000000000000000000000000000000000027efd91cb244ce016ac7ecc00000000000000000000000000000000000000000000000000000000000000a000000000000000000000000000000000000000000000000000000000000000000000000000000000000000000000000000000000000000000000000000000002000000000000000000000000420000000000000000000000000000000000000600000000000000000000000014bf050088253a4636ed9a8b63e2419187acbc75","maxFeePerGas":"0x730118","maxPriorityFeePerGas":"0x730118","nonce":"0xc43","r":"0x207c332adbcacd34c08fcd38f8caced3675419ed047b42e98e4971b6f5f00da0","s":"0x7fcf2e00a5381a41225263312215da380ef3c7b958b97aaf8a96f3e312f0f7a","to":"0x3fc91a3afd70395cd496c647d5a6cc9d4b2b7fad","transactionIndex":"0x12","type":"0x2","v":"0x0","value":"0x6983fe1dd44000","yParity":"0x0"},{"accessList":[],"blockHash":"0x42611e5551d7ac97ee7d8558e3c78fce73dae8916ab03507de3fd4817dbbb01c","blockNumber":"0xf38b40","chainId":"0x2105","from":"0xebd0419c02841fbf8abd6122075c8ee6f7ec140d","gas":"0x493e0","gasPrice":"0x730118","hash":"0x437ba93f336689a1f46db78be82ee7f153900223110f46dda5ee7efecb23fff3","input":"0x24856bc30000000000000000000000000000000000000000000000000000000000000040000000000000000000000000000000000000000000000000000000000000008000000000000000000000000000000000000000000000000000000000000000030a080c00000000000000000000000000000000000000000000000000000000000000000000000000000000000000000000000000000000000000000000000003000000000000000000000000000000000000000000000000000000000000006000000000000000000000000000000000000000000000000000000000000001e0000000000000000000000000000000000000000000000000000000000000030000000000000000000000000000000000000000000000000000000000000001600000000000000000000000007ab7ddd8889644f1d2e8d23d01ceab73124cef36000000000000000000000000ffffffffffffffffffffffffffffffffffffffff000000000000000000000000000000000000000000000000000000007940196000000000000000000000000000000000000000000000000000000000000000000000000000000000000000003fc91a3afd70395cd496c647d5a6cc9d4b2b7fad000000000000000000000000000000000000000000000000000000007940196000000000000000000000000000000000000000000000000000000000000000e000000000000000000000000000000000000000000000000000000000000000414abaa5b935adc14653418d8be44ad6791248434a86e49960fb67a28ef0f8e6f50f1bb445d2535d8c673424cf94891ed15b08b9160c800dfe75565fd39f56b4791c000000000000000000000000000000000000000000000000000000000000000000000000000000000000000000000000000000000000000000000000000100000000000000000000000000000000000000000000000000000000000000000200000000000000000000000000000000000000001278ab89e4b03fc9aaad0c2e000000000000000000000000000000000000000000000000002984ae88b59dd000000000000000000000000000000000000000000000000000000000000000a0000000000000000000000000000000000000000000000000000000000000000100000000000000000000000000000000000000000000000000000000000000020000000000000000000000007ab7ddd8889644f1d2e8d23d01ceab73124cef3600000000000000000000000042000000000000000000000000000000000000060000000000000000000000000000000000000000000000000000000000000040000000000000000000000000ebd0419c02841fbf8abd6122075c8ee6f7ec140d000000000000000000000000000000000000000000000000002984ae88b59dd0","maxFeePerGas":"0x730118","maxPriorityFeePerGas":"0x730118","nonce":"0xfec","r":"0xde36f619a36ab23103eca5bd122cf60c72167d4f3dbe370075ccc1875a5a9c7e","s":"0x5ca7ed71cafd0caf206eeaf50a4431c5e52b94b52b041cd1ef89d68b16e2b9b9","to":"0x3fc91a3afd70395cd496c647d5a6cc9d4b2b7fad","transactionIndex":"0x13","type":"0x2","v":"0x0","value":"0x0","yParity":"0x0"},{"accessList":[],"blockHash":"0x42611e5551d7ac97ee7d8558e3c78fce73dae8916ab03507de3fd4817dbbb01c","blockNumber":"0xf38b40","chainId":"0x2105","from":"0xe36eba98014404d4f16a242eda99bec7a94e1828","gas":"0xf4240","gasPrice":"0x730118","hash":"0x644a3d701b664c15e11991916a472e3ced39e59c25025728359eaef87ce1d974","input":"0x24856bc30000000000000000000000000000000000000000000000000000000000000040000000000000000000000000000000000000000000000000000000000000008000000000000000000000000000000000000000000000000000000000000000020b080000000000000000000000000000000000000000000000000000000000000000000000000000000000000000000000000000000000000000000000000002000000000000000000000000000000000000000000000000000000000000004000000000000000000000000000000000000000000000000000000000000000a000000000000000000000000000000000000000000000000000000000000000400000000000000000000000003fc91a3afd70395cd496c647d5a6cc9d4b2b7fad000000000000000000000000000000000000000000000000000000e8d4a5100000000000000000000000000000000000000000000000000000000000000001000000000000000000000000003263625bdcaf87c8e09289fdbfd4fa66c378d662000000000000000000000000000000000000000000000000000000e8d4a51000000000000000000000000000000000000000000000000000000000000000000000000000000000000000000000000000000000000000000000000000000000a0000000000000000000000000000000000000000000000000000000000000000000000000000000000000000000000000000000000000000000000000000000020000000000000000000000004200000000000000000000000000000000000006000000000000000000000000be5614875952b1683cb0a2c20e6509be46d353a4","maxFeePerGas":"0x730118","maxPriorityFeePerGas":"0x730118","nonce":"0x0","r":"0x1fccc0a88d81a6bcb2cac5e6c536dd53616b96a01c54a7ae3a040e7b59a1c8e8","s":"0x6b99454d3e894f89933e41a026cf770146b0663cc5f90bfc0e388aff4581be96","to":"0x3fc91a3afd70395cd496c647d5a6cc9d4b2b7fad","transactionIndex":"0x14","type":"0x2","v":"0x0","value":"0xe8d4a51000","yParity":"0x0"},{"blockHash":"0x42611e5551d7ac97ee7d8558e3c78fce73dae8916ab03507de3fd4817dbbb01c","blockNumber":"0xf38b40","chainId":"0x2105","from":"0xe93685f3bba03016f02bd1828badd6195988d950","gas":"0x14c75a","gasPrice":"0x730118","hash":"0x28ed10d1794583a5dec382473e2531a343588b616f157329b39c15866cee3ecd","input":"0x252f7b01000000000000000000000000000000000000000000000000000000000000006e0000000000000000000000008a3e646d9fdaa5ce032743fce4d81b5fa8723be200000000000000000000000000000000000000000000000000000000000a9ec0384bfb7411d45ea5f1944c099b12fabcfae5a237e2b84bda8f44c6dd57eedb40384bfb7411d45ea5f1944c099b12fabcfae5a237e2b84bda8f44c6dd57eedb4000000000000000000000000000000000000000000000000000000000000000c000000000000000000000000000000000000000000000000000000000000003f40000000000000000000000004d73adb72bc3dd368966edd0f0b2148401a178e20000000000005997006e8a3e646d9fdaa5ce032743fce4d81b5fa8723be200b88a3e646d9fdaa5ce032743fce4d81b5fa8723be20000000000000000000000000000000000000000000000000000000000000020000000000000a4b19fd634393707ad07739d63c81011ba067681a19a0100000000000000000000000000000000000000000000000000000000000000000000400000000000000000000000000000000000000000000000000000000000000320000000000000000000000000000000000000000000000000000000000000004000000000000000000000000000000000000000000000000000000000000000a00000000000000000000000000000000000000000000000000000000000000002000000000000000000000000000000000000000000000000000000000000000100000000000000000000000000000000000000000000000000000000000000020000000000000000000000000000000000000000000000000000000000000260000000000000000000000000000000000000000000000000000000000000002000000000000000000000000000000000000000000000000000000000000096f9000000000000210500000001aba15e98e1e0c7fc1223890c13502d6334ef36ee0000000000000000000000000000000000000000000000000000000039a96a45000000000000000000000000000000000000000000000000000000002fb1647600000000000000000000000000000000000000000000000000000000000000c60000000000000000000000000000000000000000000000000000000000000140000000000000000000000000000000000000000000000000000000000000000000000000000000000000000000000000000000000000000000000000000000000000000000000000000000009fd634393707ad07739d63c81011ba067681a19a000000000000000000000000000000000000000000000000000000000000022000000000000000000000000000000000000000000000000000000000000000c00000000000000000000000000000000000000000000000000000000000000000000000000000000000000000000000000000000000000000000000000000000000000000000000000000000000000000000000000000000000000000000000000000000000000000000000000000000000000000000000000000000000000000000000000000000000000000000000000000000000000000000000000000000000000000000000000000000000000000000000000000000000000000000000000000000000000000000000000000000000000000000000000000000000000000000000000000000000000000","nonce":"0x552e89","r":"0xb080c196000eb38384ae54956b8c703fd3179f924affb0a1328e03cead0b529c","s":"0x752d1e6919572de897b10ca760951ba1efc247891776afb14723ffa4d6d8a6d0","to":"0xcb566e3b6934fa77258d68ea18e931fa75e1aaaa","transactionIndex":"0x15","type":"0x0","v":"0x422d","value":"0x0"},{"blockHash":"0x42611e5551d7ac97ee7d8558e3c78fce73dae8916ab03507de3fd4817dbbb01c","blockNumber":"0xf38b40","chainId":"0x2105","from":"0xe37f7c80ced04c4f243c0fd04a5510d663cb88b5","gas":"0x7d99c","gasPrice":"0x730118","hash":"0x8e84d6553e6212a559c0db3e2f69826fd99d9175ec9aebbcadd698bead2823cb","input":"0x64e4ac2700000000000000000000000000000000000000000000000000000000000075950000000000000000000000000000000000000000000000000000000000000040000000000000000000000000000000000000000000000000000000000000002b000d00000000000000000000000083acd09228d0dfd32748eb36446f041e4ad4708e00000000000007cc00000000000000000000000000000000000000000000","nonce":"0x5577","r":"0x79382333627b03f9d95d0a806a468e466b515f442c652561a70f920cc30f3d2f","s":"0x4c36405933612bebf9f80400e019648bfd4907f4f23f49c4e22083543f9b24ae","to":"0x5634c4a5fed09819e3c46d86a965dd9447d86e47","transactionIndex":"0x16","type":"0x0","v":"0x422d","value":"0x641228ef8eaee"},{"accessList":[],"blockHash":"0x42611e5551d7ac97ee7d8558e3c78fce73dae8916ab03507de3fd4817dbbb01c","blockNumber":"0xf38b40","chainId":"0x2105","from":"0xe676f9cf2d86126bdab9be10e631ff9f84ea2fe5","gas":"0xf4240","gasPrice":"0x730118","hash":"0xf2635a8c1468817878521dcf6cbb44583ec32080988d332c0d57ffa51c89b8af","input":"0x24856bc30000000000000000000000000000000000000000000000000000000000000040000000000000000000000000000000000000000000000000000000000000008000000000000000000000000000000000000000000000000000000000000000020b080000000000000000000000000000000000000000000000000000000000000000000000000000000000000000000000000000000000000000000000000002000000000000000000000000000000000000000000000000000000000000004000000000000000000000000000000000000000000000000000000000000000a000000000000000000000000000000000000000000000000000000000000000400000000000000000000000003fc91a3afd70395cd496c647d5a6cc9d4b2b7fad000000000000000000000000000000000000000000000000000000e8d4a5100000000000000000000000000000000000000000000000000000000000000001000000000000000000000000003263625bdcaf87c8e09289fdbfd4fa66c378d662000000000000000000000000000000000000000000000000000000e8d4a51000000000000000000000000000000000000000000000000000000000000000000000000000000000000000000000000000000000000000000000000000000000a0000000000000000000000000000000000000000000000000000000000000000000000000000000000000000000000000000000000000000000000000000000020000000000000000000000004200000000000000000000000000000000000006000000000000000000000000be5614875952b1683cb0a2c20e6509be46d353a4","maxFeePerGas":"0x730118","maxPriorityFeePerGas":"0x730118","nonce":"0x0","r":"0xaf7899652b5bfcac8f0b3f980219dfe0cc2f446a180bf423225f1b95f44bd2f3","s":"0x41bd2c7b9b323cab0aa95bf281f86ddbe28240935487b65773e581dc978b0a8b","to":"0x3fc91a3afd70395cd496c647d5a6cc9d4b2b7fad","transactionIndex":"0x17","type":"0x2","v":"0x0","value":"0xe8d4a51000","yParity":"0x0"},{"blockHash":"0x42611e5551d7ac97ee7d8558e3c78fce73dae8916ab03507de3fd4817dbbb01c","blockNumber":"0xf38b40","chainId":"0x2105","from":"0x24060ca2b6c2b3965e6f14dc5f667b9ef6620aa8","gas":"0x897e3","gasPrice":"0x6c5660","hash":"0x4313265c22d716e3fca5886350ec78e49aea286589be7b27f0bcb63a483270d8","input":"0xa415bcad000000000000000000000000833589fcd6edb6e08f4c7c32d4f71b54bda029130000000000000000000000000000000000000000000000000000000000003d3f0000000000000000000000000000000000000000000000000000000000000002000000000000000000000000000000000000000000000000000000000000000000000000000000000000000024060ca2b6c2b3965e6f14dc5f667b9ef6620aa8","nonce":"0x30","r":"0x258679aeccd7d760a5e440cab077ccb07565b5e0fc1114be0c738a50e1a920e0","s":"0x6183f642d7b13913600b130a4112db8802504514ff16d2cc1507d4ad6d36949f","to":"0x8f44fd754285aa6a2b8b9b97739b79746e0475a7","transactionIndex":"0x18","type":"0x0","v":"0x422e","value":"0x0"},{"blockHash":"0x42611e5551d7ac97ee7d8558e3c78fce73dae8916ab03507de3fd4817dbbb01c","blockNumber":"0xf38b40","chainId":"0x2105","from":"0xaa4f9c76cdee0951ccef28b8c132b3ac36270267","gas":"0x3b054","gasPrice":"0x6c5660","hash":"0xb5608c65b981dfde72a158a86dd9f0f71ea6caac794ce751e0c46a4091d804f2","input":"0x359f130200000000000000000000000004e2516a2c207e84a1839755675dfd8ef6302f0a0000000000000000000000000000000000000000000000000000000000000009000000000000000000000000000000000000000000000000000000000000000200000000000000000000000000000000000000000000000000000000000000a000000000000000000000000000000000000000000000000000000000000000e000000000000000000000000000000000000000000000000000000000000000010000000000000000000000000ae0095d3cd9a85ff32cd6ea313796c7878c1d770000000000000000000000000000000000000000000000000000000000000080000000000000000000000000aa4f9c76cdee0951ccef28b8c132b3ac3627026700000000000000000000000000000000000000000000000000000000000000400000000000000000000000000000000000000000000000000000000000000004646f6e6500000000000000000000000000000000000000000000000000000000","nonce":"0x75","r":"0x206bb3159946441a2ca289c590bb53cd39071d0038baf1d9d6da8478099aac65","s":"0x79bbeceb14f438be93841e0e1b1873de41d8e547b1361eaea0c0226d71dc837e","to":"0x98f6b7db312dd276b9a7bd08e3937e68e662202c","transactionIndex":"0x19","type":"0x0","v":"0x422e","value":"0x5855ad1fb2000"},{"blockHash":"0x42611e5551d7ac97ee7d8558e3c78fce73dae8916ab03507de3fd4817dbbb01c","blockNumber":"0xf38b40","chainId":"0x2105","from":"0x3962408f356e3bcf08724ba80d1211e751faed39","gas":"0x12e7e","gasPrice":"0x6c5660","hash":"0x1315415dd14ccf4acf94f8c07830350c29e97b7c8e4b9965a105a2df4b8ad105","input":"0x095ea7b3000000000000000000000000000000000022d473030f116ddee9f6b43ac78ba3ffffffffffffffffffffffffffffffffffffffffffffffffffffffffffffffff","nonce":"0xe3","r":"0x5cbe352db7f0695eb3d27cdf3e26911e9c090f84e7d41a48272975a5f073ce4b","s":"0x526a6c2f9f5c32c9bec3a0ed45711eefc21e9edbeb36184301503b1bf6e8ac1f","to":"0xb0ffa8000886e57f86dd5264b9582b2ad87b2b91","transactionIndex":"0x1a","type":"0x0","v":"0x422e","value":"0x0"},{"blockHash":"0x42611e5551d7ac97ee7d8558e3c78fce73dae8916ab03507de3fd4817dbbb01c","blockNumber":"0xf38b40","chainId":"0x2105","from":"0x15652636f3898f550b257b89926d5566821c32e1","gas":"0x7a120","gasPrice":"0x699fdd","hash":"0xcbb4e05ba9877559888c3e87b36c5bfa48681cbdb156ec99f9888ddaa472145c","input":"0x2e378115000000000000000000000000000000000000000000000000000000000000004000000000000000000000000000000000000000000000000000000000000021050000000000000000000000001231deb6f5749ef6ce6943a275a1d3e7486f4eae0000000000000000000000009c17d8b0f8ab1f57e2ec8f27f3abfad93bf7667e000000000000000000000000000000000000000000000000000000000000000000000000000000000000000042000000000000000000000000000000000000060000000000000000000000004200000000000000000000000000000000000006000000000000000000000000000000000000000000000000000a95627cc93001000000000000000000000000000000000000000000000000000a934fd665252b000000000000000000000000000000000000000000000000000000000000000a00000000000000000000000000000000000000000000000000000000001a772800000000000000000000000000000000000000000000000000000000ffffffff000000000000000000000000000000000000000000000000000000000000000000000000000000000000000000000000000000000000000000000000000001800000000000000000000000000000000000000000000000000000000000000000","nonce":"0x2ed6f","r":"0x1fc52b35146e1994e57278ccda28dd6b4d86d86af91a64267ee31650b854983c","s":"0x2a42b510378a078396d78c0b16c394da04c81cbb12d410755b025549f8cb040","to":"0x09aea4b2242abc8bb4bb78d537a67a245a7bec64","transactionIndex":"0x1b","type":"0x0","v":"0x422d","value":"0x0"},{"accessList":[],"blockHash":"0x42611e5551d7ac97ee7d8558e3c78fce73dae8916ab03507de3fd4817dbbb01c","blockNumber":"0xf38b40","chainId":"0x2105","from":"0x575f8c96496bfd430c20a0f80739a70bd76e291a","gas":"0x493e0","gasPrice":"0x69937f","hash":"0xb4c57a8fd6b2b8febe53a0dbbf79c63cc0e7f4986287c4a22004d1d47897a6bf","input":"0x4a0ecd94000000000000000000000000198ef79f1f515f02dfe9e3115ed9fc07183f02fc000000000000000000000000000000000000000000000000000000000000006000000000000000000000000000000000000000000000000000000000000000a0000000000000000000000000000000000000000000000000000000000000000100000000000000000000000000000000000000000000000000000000000000000000000000000000000000000000000000000000000000000000000000000001000000000000000000000000000000000000000000000000000000000000002000000000000000000000000000000000000000000000000000000000000001e424856bc300000000000000000000000000000000000000000000000000000000000000400000000000000000000000000000000000000000000000000000000000000080000000000000000000000000000000000000000000000000000000000000000101000000000000000000000000000000000000000000000000000000000000000000000000000000000000000000000000000000000000000000000000000001000000000000000000000000000000000000000000000000000000000000002000000000000000000000000000000000000000000000000000000000000001000000000000000000000000000dd20a60fd2629e85e396ce8ed13924443d4d51e00000000000000000000000000000000000000000000000001f5772d5a0be000000000000000000000000000ffffffffffffffffffffffffffffffffffffffff00000000000000000000000000000000000000000000000000000000000000a00000000000000000000000000000000000000000000000000000000000000001000000000000000000000000000000000000000000000000000000000000002b42000000000000000000000000000000000000060001f40df36ff8eab526635069a2968935af848d0345d500000000000000000000000000000000000000000000000000000000000000000000000000000000000000000000000000","maxFeePerGas":"0x69937f","maxPriorityFeePerGas":"0x69937f","nonce":"0x80","r":"0x3b216fbe4f8e2f3bac2f5ed357b5af81088f5887740c2271eff06aa278b626d0","s":"0x6786c1be01a50b388cd7a8d443fd5a43e49e8d6691e35d9f5292da545ee2747c","to":"0x0dd20a60fd2629e85e396ce8ed13924443d4d51e","transactionIndex":"0x1c","type":"0x2","v":"0x0","value":"0x0","yParity":"0x0"},{"accessList":[],"blockHash":"0x42611e5551d7ac97ee7d8558e3c78fce73dae8916ab03507de3fd4817dbbb01c","blockNumber":"0xf38b40","chainId":"0x2105","from":"0xc94ada41317c39dfc3802efada374e2271f31020","gas":"0x17117","gasPrice":"0x67bc7b","hash":"0x3931dff745b62d4091c533e0d5d6ecdc7ae102cf7a607c07adcada08ef979067","input":"0xa03074c10000000000000000000000000000000000000000000000000000000000000001000000000000000000000000000000000000000000000000000000000000006000000000000000000000000000000000000000000000000000000000000000a00000000000000000000000000000000000000000000000000000000000000001000000000000000000000000000000000000000000000000000000000001c4300000000000000000000000000000000000000000000000000000000000000001000000000000000000000000000000000000000000000000000000000000002000000000000000000000000000000000000000000000000000000000000004e3504e41550100000003b801000000040d0019cfb947a9cfc248e0725123aef2bab185c09294f8167fefc627cb55e44007891acb8297262788f3c4eb805ca996834851d521e219bab0109cc1133c51c721fc0102437135b4c94f2a5ee3d619453ddf180bd1fd4b2ae7ec93efc8747c51ab55b11564ba08abcfe19fd0c37b755c605d1a8a3e7999d8e0fb0a5a5275d97a25f0ce820103a944ba0fe3d4d209b694341074fb6448a7614083dc2ba25fb0cb28e29948c16c17bc0256b2264e3dff27a9040d6f00976b53c98ccf6e6322b048ddf5c9429a4101048f970591f44361eadac27a550d711c32e777b7d1dead9d37d44ca0b1b56f11591a57d143fdefc3c1b733c3e0e91ae04b6734e32f6c8254adb24e241d068119f201064c8565605856f587d6da4e43386fac80c38b721e5c791ae4cdb6d53f84ecb05d5719091d71989fb88016b228344314a0c80e9827614ab7960128c7a21133cc09010aa70eb451817fdab1312d477657cd7ef10ba30b0e15b369ab1a708139547e86365f499fc049c8c24506eb57856a8dc74f4ff4779632cc1293534b0848637698f0010b9fca3e65407cd6a3d7aa81eb2cf967e59b5d6c7e75398e5d007711b294e85dee0d93f322b3e1f16ce39bbff7bef18dd3e43f8514808d0885cd030fe2ff9b5fc9010c5e02338cdc8daacb426c761e859ce5ef582ab227649b1d31f92740dc4033e387299fb42c16f24ec04b029d4ab2d346f68a20792f9e918cffd3c8ab3ed94bb625010da3dce6f2572b504aeddcb4ad0d3284cb8105dd6192f18869440578efddaad7c603f538735e93c93796bafb8549961f8fea8751f0af10ae434db3330447e7c240010eade258b902f503bb8747aed33ab8e00922fe120efd9513aa7b04cb4df280bd770ce43ab0bc807c4e4cc2da6fa8bf41a0a5da55693bf6ecd29224317a4f47d249000faed2c6ed944fc9ba65936c0681b3ea934c2fb4cf71381d7f200178df058e4dbb1b8d38fb749db2e9947f1364b02e0d03e42097f1af53a61269fc2d43d0d9a0a90110c6a8552f020ddc5268a20ad98259f258591448d3b70b28f35083fdd51f7d24dd27764c45a28881d21cbb08b7da7b2eb973b39ad3c07d1e055e7fc6044566f9a70012ec567c1beb3918a623f41530f4d8c8055294c2a66a65a4d628fd67b039b2123e6cc91b32f3a39fa683efba0b00b616e5c90ee1b75e33a6061073f4a422aa642a006671735f00000000001ae101faedac5851e32b9b23b5f9411a8c2bac4aae3ed4dd7b811dd1a72ea4aa710000000003cd04180141555756000000000008d7282400002710d02b6e40b47c7a771ef484aebbcb78ee9ba1680601005500e62df6c8b4a85fe1a67db44dc12de5db330f7ac66b72dc658afedf0f4a415b43000005ef1324cef000000000cf290302fffffff8000000006671735e000000006671735d000005f27affa9c000000000fa3919940a01fba2cf15ed9b8e4bb7d6cea1b67f49b53a2b26a33862e36f1d6f970ac8f8e2c082765a88cff9d4b2cb02c785548f90f439d80c7bd21d54b02e603bc810ba4c67dc11785e8bfb9d47258c2080fb90066c33344ee2c813455c023331fd68e3724ea5b308e22da4747065d2c33e25644b5ac7ab6c95679372dc74d7ec330eef3741f624580ef0a7410161935f67876be2a6c1f22f1593b20105c629674d09f935c41b304de706f2f995430efc62dd4203ae424c3a0247001603ce44b083559ca211b6576b40dada310000000000000000000000000000000000000000000000000000000000","maxFeePerGas":"0x5a0956fe","maxPriorityFeePerGas":"0x16e360","nonce":"0x4180c","r":"0x615b75a08492864a093f5070c4b025c76aeab44f71974ce32ed704a4de6f9bad","s":"0x7777e1093eeb66b5561fccccd3f928182b39a96a057384b1ccc2890855fbe90d","to":"0x5ff292d70ba9cd9e7ccb313782811b3d7120535f","transactionIndex":"0x1d","type":"0x2","v":"0x1","value":"0x1","yParity":"0x1"},{"blockHash":"0x42611e5551d7ac97ee7d8558e3c78fce73dae8916ab03507de3fd4817dbbb01c","blockNumber":"0xf38b40","chainId":"0x2105","from":"0x1ed2148f8d2c6893274edd42313684b00fd2ceed","gas":"0x8aa2","gasPrice":"0x64c866","hash":"0xc4b3ea14e6146149f5e5dfe7f032efbe8f2af12391d021a0c5561e426844e392","input":"0xa9059cbb0000000000000000000000000303e4fe3d5a3d4f225e7690f038786648657b2b0000000000000000000000000000000000000000000017db87ea7f39fa36267f","nonce":"0x925d","r":"0xaf4a40379b71b4545b4510ef4ef2e15fda30e43b3023ec5bd794073f05d85c76","s":"0x5db893c6eff3403e94ad88181577537b9bdda9f6248d495f63e4b4827800fff7","to":"0x15ac90165f8b45a80534228bdcb124a011f62fee","transactionIndex":"0x1e","type":"0x0","v":"0x422d","value":"0x0"},{"blockHash":"0x42611e5551d7ac97ee7d8558e3c78fce73dae8916ab03507de3fd4817dbbb01c","blockNumber":"0xf38b40","chainId":"0x2105","from":"0x1ed2148f8d2c6893274edd42313684b00fd2ceed","gas":"0x8aae","gasPrice":"0x64c866","hash":"0x348fe9bf5258052716f4439ade7432e5d41a2417cdf95ef21c3dc82d2c504305","input":"0xa9059cbb0000000000000000000000000303e4fe3d5a3d4f225e7690f038786648657b2b0000000000000000000000000000000000000000000105ae535ffde34d9faaff","nonce":"0x925e","r":"0x2d52820c44beb0f67e5c2d4059ff2ce3e15061f30cf80b1b0b4a5d359f2dd64c","s":"0x5671a884961ca11ca0f23b76322db17ca23b8fbcdea42693da229ffb8de81d80","to":"0x15ac90165f8b45a80534228bdcb124a011f62fee","transactionIndex":"0x1f","type":"0x0","v":"0x422d","value":"0x0"},{"accessList":[],"blockHash":"0x42611e5551d7ac97ee7d8558e3c78fce73dae8916ab03507de3fd4817dbbb01c","blockNumber":"0xf38b40","chainId":"0x2105","from":"0xbd54313120586ba6b42eeedda5e43fcb357917fd","gas":"0x8e88","gasPrice":"0x64c6f9","hash":"0xe3c15c77208a04ee18b38c800d55b4b1fb436d5a61496ab96b05767d8e4ddbbb","input":"0x729ad39e000000000000000000000000000000000000000000000000000000000000002000000000000000000000000000000000000000000000000000000000000000050000000000000000000000006efe9c36c93677e7ef28fee64adab29f103f001800000000000000000000000081a7a8fbecd5e233b0db71038f4d18e7498ef5fb00000000000000000000000055a5ff4391ed78f665e542891a5e9b235f785a2c000000000000000000000000f0e83f21eb72464c0c5facbe07b3c13f17b55714000000000000000000000000baff3bc0ee6fc6cebc80434100a7790e57e1c600","maxFeePerGas":"0x64c6f9","maxPriorityFeePerGas":"0x64c6f9","nonce":"0x2db7f","r":"0xfd37e7ee7d6ef79fa505ea0bf9eba4754ca0ff6cfbe167b694bc1af1a7936364","s":"0x53289ec0138dc2b3408cc7ca8defced5159ecc9f0634d128b6107feea70e62bd","to":"0x2401b434128cb42a518c65229288cc46da3e1bdc","transactionIndex":"0x20","type":"0x2","v":"0x1","value":"0x0","yParity":"0x1"},{"blockHash":"0x42611e5551d7ac97ee7d8558e3c78fce73dae8916ab03507de3fd4817dbbb01c","blockNumber":"0xf38b40","chainId":"0x2105","from":"0x05b9e576453a6166232ff5cb27a169e160d7695c","gas":"0xf4240","gasPrice":"0x640b43","hash":"0xbc96fc27ac573d4885600cc0611d58269cd683e6dfdbcfb8c89b76a424483e22","input":"0x0300000bb8002710000bb802030307080807ee6f3c5f418d1097c50c4698d535edb33bd72931b3dccc8a1c567284c5b7b0a8dc8c25bb008a9a4e3d5d143381916280ff91407febeb52f2b60f33cf01ab1e99529b2b03519be43e4834c11bf7a1494f8ecd0101ac9c3c8860db","nonce":"0xe29f","r":"0x588832b6ba677557bb9fff38898c2a3ceca485ea18f9c9402ca77bfe14471a7f","s":"0x415bdc8643fe6abbee4a35517a962e7d8672c4f0dfcc593ff3d392b6d8ef77d4","to":"0x3a6ae1e6ad00518bdcd485a6b4d428fb9c9a3120","transactionIndex":"0x21","type":"0x0","v":"0x422e","value":"0x0"},{"accessList":[],"blockHash":"0x42611e5551d7ac97ee7d8558e3c78fce73dae8916ab03507de3fd4817dbbb01c","blockNumber":"0xf38b40","chainId":"0x2105","from":"0x70e9ae978c130a0723b6ef30d6239b1542dc6f21","gas":"0x7a120","gasPrice":"0x640b32","hash":"0xbda57aa615a7d1108e730c675cf317dac8eb8dc35e0362de49b68b0265aba801","input":"0x3593564c000000000000000000000000000000000000000000000000000000000000006000000000000000000000000000000000000000000000000000000000000000a000000000000000000000000000000000000000000000000000000000667175b500000000000000000000000000000000000000000000000000000000000000020b080000000000000000000000000000000000000000000000000000000000000000000000000000000000000000000000000000000000000000000000000002000000000000000000000000000000000000000000000000000000000000004000000000000000000000000000000000000000000000000000000000000000a0000000000000000000000000000000000000000000000000000000000000004000000000000000000000000000000000000000000000000000000000000000020000000000000000000000000000000000000000000000000128e678e3e12000000000000000000000000000000000000000000000000000000000000000010000000000000000000000000000000000000000000000000000000000000000010000000000000000000000000000000000000000000000000128e678e3e120000000000000000000000000000000000000000000000003c8d00ab1c54311aa1a00000000000000000000000000000000000000000000000000000000000000a000000000000000000000000000000000000000000000000000000000000000000000000000000000000000000000000000000000000000000000000000000002000000000000000000000000420000000000000000000000000000000000000600000000000000000000000022c49c9801ca4e9e896e891fe391cecaf219e756","maxFeePerGas":"0x732c8b","maxPriorityFeePerGas":"0x133217","nonce":"0x18b","r":"0x8b6b649d5473d5aa341116a8c899215b041565deeff0e4d7c4ee1e22f1435b7b","s":"0x70cdb2a22cdacc622f1064c69f69a70773a4022dcf9dd8967caf3ae35e3d476c","to":"0x3fc91a3afd70395cd496c647d5a6cc9d4b2b7fad","transactionIndex":"0x22","type":"0x2","v":"0x0","value":"0x128e678e3e12000","yParity":"0x0"},{"blockHash":"0x42611e5551d7ac97ee7d8558e3c78fce73dae8916ab03507de3fd4817dbbb01c","blockNumber":"0xf38b40","chainId":"0x2105","from":"0x935de455e95b4db39d68a6e857901ae938d3b1f3","gas":"0xb740","gasPrice":"0x60329c","hash":"0x077a2eb3d14247dfa9dc3f977b3c90e6367f052bd600885fa0b9a7efcf2df27f","input":"0x095ea7b3000000000000000000000000000000000022d473030f116ddee9f6b43ac78ba3ffffffffffffffffffffffffffffffffffffffffffffffffffffffffffffffff","nonce":"0x5","r":"0xae633a2ca7884c89625fe43c37e5b24654c9586448e0d022eaa892e64e9dd364","s":"0x4ded0a1783dddd298efcd5ac2db09eed7415d43994ce4fd199e2c55d5ead12a6","to":"0xdb173587d459ddb1b9b0f2d6d88febef039304a2","transactionIndex":"0x23","type":"0x0","v":"0x422d","value":"0x0"},{"accessList":[],"blockHash":"0x42611e5551d7ac97ee7d8558e3c78fce73dae8916ab03507de3fd4817dbbb01c","blockNumber":"0xf38b40","chainId":"0x2105","from":"0x6d27538136bb5468409401223db22b5b275cd303","gas":"0xf4240","gasPrice":"0x60329c","hash":"0xb32d33868bb42d2d16c0933aeff036903e5863d8dd6d2c347ffdc9110633b3da","input":"0x3593564c000000000000000000000000000000000000000000000000000000000000006000000000000000000000000000000000000000000000000000000000000000a00000000000000000000000000000000000000000000000000000000066717a6000000000000000000000000000000000000000000000000000000000000000020a000000000000000000000000000000000000000000000000000000000000000000000000000000000000000000000000000000000000000000000000000002000000000000000000000000000000000000000000000000000000000000004000000000000000000000000000000000000000000000000000000000000001c00000000000000000000000000000000000000000000000000000000000000160000000000000000000000000420000000000000000000000000000000000000600000000000000000000000000000000000158c52648b527d49b1e703c0000000000000000000000000000000000000000000000000000000000000066717a5e0000000000000000000000000000000000000000000000000000000000000305000000000000000000000000198ef79f1f515f02dfe9e3115ed9fc07183f02fc0000000000000000000000000000000000000000000000000000000066717a5e00000000000000000000000000000000000000000000000000000000000000e0000000000000000000000000000000000000000000000000000000000000004162c1b261b4b351f8d64bd5a3be16ce11908835a17e4998e9bb21f92f4e68ec3c1f78c813dfa29bdfbce14c72a17d1d4fffad4a2d247def9e5ed96e52cbaed26b1b0000000000000000000000000000000000000000000000000000000000000000000000000000000000000000000000000000000000000000000000000001000000000000000000000000006d27538136bb5468409401223db22b5b275cd3030000000000000000000000000000000000000000000000000018d7e2d65c2700000000000000000000000000000000000000000000000982a87d932e4968f08900000000000000000000000000000000000000000000000000000000000000a00000000000000000000000000000000000000000000000000000000000000001000000000000000000000000000000000000000000000000000000000000002b4200000000000000000000000000000000000006000bb81fe265db428ec5dbcd69e4aecfc47791a4e5f0bd000000000000000000000000000000000000000000","maxFeePerGas":"0x60329c","maxPriorityFeePerGas":"0x60329c","nonce":"0x70f","r":"0x2577279bd6327913779fcb22a1cbf1ce3fdf9b0e0d322738910fb7a6061f82c2","s":"0x3b6da69da1a6eeb833b0fee118a4bf0aac34f3e0ae81fca2bc415e7f6bffdea1","to":"0x198ef79f1f515f02dfe9e3115ed9fc07183f02fc","transactionIndex":"0x24","type":"0x2","v":"0x0","value":"0x0","yParity":"0x0"},{"accessList":[],"blockHash":"0x42611e5551d7ac97ee7d8558e3c78fce73dae8916ab03507de3fd4817dbbb01c","blockNumber":"0xf38b40","chainId":"0x2105","from":"0x61c1f43ac3b1d06f54038d528132a5b3ab2cbce5","gas":"0xe724","gasPrice":"0x601b5b","hash":"0x4ecbd465fb716b9723f758bd21b3563be433b504244ffab3a488ea0c6d2bdec5","input":"0x","maxFeePerGas":"0x732c8b","maxPriorityFeePerGas":"0xf4240","nonce":"0x5","r":"0x48f47ececb860403035c7377dc6c8af0f427dd2e8f2877a584d44ec6dd2656a2","s":"0x120eb3af26d9a0f08e4ac180f987215d6d3a245358755dcf50fac48cecd56df6","to":"0xec03f883ea0db53f18599240a76c367b57008ed9","transactionIndex":"0x25","type":"0x2","v":"0x0","value":"0xf8c1a95fbef","yParity":"0x0"},{"accessList":[],"blockHash":"0x42611e5551d7ac97ee7d8558e3c78fce73dae8916ab03507de3fd4817dbbb01c","blockNumber":"0xf38b40","chainId":"0x2105","from":"0x5b291fa8fd64b7bf3196d88c8f3800b77b5c50ef","gas":"0xe724","gasPrice":"0x601b5b","hash":"0x7f18d97e421245e30a51005bab77646ec56fdb056fc00e097e5c4696e02cbbdd","input":"0x","maxFeePerGas":"0x732c8b","maxPriorityFeePerGas":"0xf4240","nonce":"0xb","r":"0xd175047d20934fa52da1b3f91d40dba5e29e1fa35dcdd6de08db097a3b4a5d33","s":"0x71ebd6e2877fa1ed14abf1bcd66ed6dff4dd4c79cfb0f409d469ab2f52f87f17","to":"0xec03f883ea0db53f18599240a76c367b57008ed9","transactionIndex":"0x26","type":"0x2","v":"0x0","value":"0x405bf39114ad","yParity":"0x0"},{"accessList":[],"blockHash":"0x42611e5551d7ac97ee7d8558e3c78fce73dae8916ab03507de3fd4817dbbb01c","blockNumber":"0xf38b40","chainId":"0x2105","from":"0xda70761a63d5d0dde3bde3b179126127cccb44b3","gas":"0x2aec0","gasPrice":"0x601b5b","hash":"0x8e5f0b978d52130c920f614297fa5d559080d3426cfb2b30917b2719bc73162f","input":"0x5df78fa50000000000000000000000001d2550d198197df1a10af515cf2ea0d790889b930000000000000000000000000000000000000000000000000000000000000080000000000000000000000000da70761a63d5d0dde3bde3b179126127cccb44b300000000000000000000000000000000000000000000000000000000000000000000000000000000000000000000000000000000000000000000000000000001000000000000000000000000000000000000000000000000000000000000008a0000000000000000000000000000000000000000000000000000000000000001","maxFeePerGas":"0xb122f8","maxPriorityFeePerGas":"0xf4240","nonce":"0xb8","r":"0x12e7aef658e0f04cbe6e03d6d9d4a06d4f6ffe43b47d9250a639cc5fb069190b","s":"0x4ba71d0efdb4b53a2f5c04cc1bfabdb5bedecf5fa1d2047cac0a29417d995585","to":"0xfee588791cda1d01ccfc80b51efa00c0be5b129e","transactionIndex":"0x27","type":"0x2","v":"0x0","value":"0x2d79883d20000","yParity":"0x0"},{"accessList":[],"blockHash":"0x42611e5551d7ac97ee7d8558e3c78fce73dae8916ab03507de3fd4817dbbb01c","blockNumber":"0xf38b40","chainId":"0x2105","from":"0x58dedf0532234aaba70eacdd9363980bd43abfd2","gas":"0x55ed7","gasPrice":"0x601b5b","hash":"0x8619ebb6a695504b4e21fb908d8c9977414590a2a61ca39351dd6faf63d430c4","input":"0x415565b0000000000000000000000000eeeeeeeeeeeeeeeeeeeeeeeeeeeeeeeeeeeeeeee00000000000000000000000033ad778e6c76237d843c52d7cafc972bb7cf87290000000000000000000000000000000000000000000000000001402c9541176000000000000000000000000000000000000000000000001a15a8693fcf60ab6a00000000000000000000000000000000000000000000000000000000000000a0000000000000000000000000000000000000000000000000000000000000000500000000000000000000000000000000000000000000000000000000000000a0000000000000000000000000000000000000000000000000000000000000014000000000000000000000000000000000000000000000000000000000000004e000000000000000000000000000000000000000000000000000000000000005e000000000000000000000000000000000000000000000000000000000000006e0000000000000000000000000000000000000000000000000000000000000000500000000000000000000000000000000000000000000000000000000000000400000000000000000000000000000000000000000000000000000000000000040000000000000000000000000eeeeeeeeeeeeeeeeeeeeeeeeeeeeeeeeeeeeeeee0000000000000000000000000000000000000000000000000001402c9541176000000000000000000000000000000000000000000000000000000000000000080000000000000000000000000000000000000000000000000000000000000040000000000000000000000000000000000000000000000000000000000000034000000000000000000000000000000000000000000000000000000000000000200000000000000000000000000000000000000000000000000000000000000000000000000000000000000000420000000000000000000000000000000000000600000000000000000000000033ad778e6c76237d843c52d7cafc972bb7cf872900000000000000000000000000000000000000000000000000000000000001400000000000000000000000000000000000000000000000000000000000000300000000000000000000000000000000000000000000000000000000000000030000000000000000000000000000000000000000000000000000000000000002c00000000000000000000000000000000000000000000000000001402c95411760000000000000000000000000000000000000000000000000000000000000000000000000000000000000000000000000000000000000000000000000000003000000000000000000000000000000000000000000000000000000000000000001000000000000000000000000000000000000000000000000000000000000002000000000000000000000000000000002556e69737761705632000000000000000000000000000000000000000000000000000000000000000001402c9541176000000000000000000000000000000000000000000000001a5fedd7e98c0de0d3000000000000000000000000000000000000000000000000000000000000008000000000000000000000000000000000000000000000000000000000000000a00000000000000000000000004752ba5dbc23f44d87826276bf6fd6b1c372ad2400000000000000000000000000000000000000000000000000000000000000400000000000000000000000000000000000000000000000000000000000000002000000000000000000000000420000000000000000000000000000000000000600000000000000000000000033ad778e6c76237d843c52d7cafc972bb7cf87290000000000000000000000000000000000000000000000000000000000000001000000000000000000000000000000000000000000000000000000000000000000000000000000000000000000000000000000000000000000000000000000000000000000000000000000000000000000000000000000000000000000000003000000000000000000000000000000000000000000000000000000000000004000000000000000000000000000000000000000000000000000000000000000a00000000000000000000000000000000000000000000000000000000000000020000000000000000000000000000000000000000000000000000000000000000100000000000000000000000033ad778e6c76237d843c52d7cafc972bb7cf87290000000000000000000000000000000000000000000000004384f03d37291949000000000000000000000000382ffce2287252f930e1c8dc9328dac5bf282ba10000000000000000000000000000000000000000000000000000000000000003000000000000000000000000000000000000000000000000000000000000004000000000000000000000000000000000000000000000000000000000000000a00000000000000000000000000000000000000000000000000000000000000020000000000000000000000000000000000000000000000000000000000000000100000000000000000000000033ad778e6c76237d843c52d7cafc972bb7cf872900000000000000000000000000000000000000000000000006c07e6c85841c20000000000000000000000000ad01c20d5886137e056775af56915de824c8fce50000000000000000000000000000000000000000000000000000000000000002000000000000000000000000000000000000000000000000000000000000004000000000000000000000000000000000000000000000000000000000000000e00000000000000000000000000000000000000000000000000000000000000020000000000000000000000000000000000000000000000000000000000000004000000000000000000000000000000000000000000000000000000000000000a000000000000000000000000000000000000000000000000000000000000000020000000000000000000000004200000000000000000000000000000000000006000000000000000000000000eeeeeeeeeeeeeeeeeeeeeeeeeeeeeeeeeeeeeeee0000000000000000000000000000000000000000000000000000000000000000869584cd000000000000000000000000382ffce2287252f930e1c8dc9328dac5bf282ba10000000000000000000000000000000000000000316b803d876f476fb35addf3","maxFeePerGas":"0x619b6e","maxPriorityFeePerGas":"0xf4240","nonce":"0x5bad","r":"0x23929e2bbfce5938bfb59032d8427e08b7e3c1e88ad1de137d0dec83a4b8a189","s":"0x691ad3490f662d8c5418a3b5b4093b0be90c1a47d5a571ca48243779fe4aa200","to":"0xdef1c0ded9bec7f1a1670819833240f027b25eff","transactionIndex":"0x28","type":"0x2","v":"0x0","value":"0x1402c95411760","yParity":"0x0"},{"accessList":[],"blockHash":"0x42611e5551d7ac97ee7d8558e3c78fce73dae8916ab03507de3fd4817dbbb01c","blockNumber":"0xf38b40","chainId":"0x2105","from":"0x0019a84d39536a867b34e9a50fc1fa89f7ec149d","gas":"0xcee3","gasPrice":"0x601b5b","hash":"0x6f3158b9438c3f2f6dae1ab0a4790f0d67708e80082a03acc763c27fc96f8828","input":"0x3fb5c1cb00000000000000000000000000000000000000000000000000000000000002b3","maxFeePerGas":"0xb06a3e","maxPriorityFeePerGas":"0xf4240","nonce":"0x16","r":"0x99a9c9df1a9e3c5bcc08b727d6ea292b1fc4f90f931761998f306ef5eb115921","s":"0x189b9824575edc4de9c50f1e851f688cedafd765e358e4539785adebe050505b","to":"0x14d713af61cb4e8fc061c1ef59aafeff78c883e0","transactionIndex":"0x29","type":"0x2","v":"0x0","value":"0x0","yParity":"0x0"},{"accessList":[],"blockHash":"0x42611e5551d7ac97ee7d8558e3c78fce73dae8916ab03507de3fd4817dbbb01c","blockNumber":"0xf38b40","chainId":"0x2105","from":"0x6556ac74a759ed0e6da785e45527f1dd553e467e","gas":"0xc1f6","gasPrice":"0x601b5b","hash":"0x5fde97bb2d0c3e2fe6354dda46dd5d17fbea84be8b885aff57f7102d03fecc24","input":"0x095ea7b3000000000000000000000000111111125421ca6dc452d289314280a0f8842a65ffffffffffffffffffffffffffffffffffffffffffffffffffffffffffffffff","maxFeePerGas":"0x6ff3d8","maxPriorityFeePerGas":"0xf4240","nonce":"0x5","r":"0xad560006ab41d3b72f7a53ec67c66b3294d77e3e47f48e270c8c68762276f614","s":"0x942743a785762f8b7b4afb209269d824d41e2436dac900efcfdb17e3c0fa966","to":"0x048f254df18968e7a7fe7a30015cda891c3c61dd","transactionIndex":"0x2a","type":"0x2","v":"0x1","value":"0x0","yParity":"0x1"},{"accessList":[],"blockHash":"0x42611e5551d7ac97ee7d8558e3c78fce73dae8916ab03507de3fd4817dbbb01c","blockNumber":"0xf38b40","chainId":"0x2105","from":"0x34b628299e7b2aa675b126810f553e44451ad36d","gas":"0x1eb87","gasPrice":"0x601b5b","hash":"0xd3b75996c6948fe16a0998062664f1bb43d019f6205c734f6aa200afd9bced7c","input":"0xa4333d910000000000000000000000000000000000000000000000000000000000008ce6070f9524b76f461f6d108bd220cea16b94b951349092511ffd86b25d7aef6604","maxFeePerGas":"0x74c986","maxPriorityFeePerGas":"0xf4240","nonce":"0x1ee5","r":"0x43b26d25e3ae23ae293177a2ecf8e6eb5c7cc1df15e704f398d998db8da4841e","s":"0x422921caa2fcd32fa0a11cf169b5d9ac3ad6f83fa83e78ab6336242891e0d123","to":"0x0e22b5f3e11944578b37ed04f5312dfc246f443c","transactionIndex":"0x2b","type":"0x2","v":"0x1","value":"0x0","yParity":"0x1"},{"accessList":[],"blockHash":"0x42611e5551d7ac97ee7d8558e3c78fce73dae8916ab03507de3fd4817dbbb01c","blockNumber":"0xf38b40","chainId":"0x2105","from":"0xb2f5db3ba9a7b8a133b7ba9a4bb0ab3ded6db1a9","gas":"0xb6d1","gasPrice":"0x601b5b","hash":"0x66a8c6200fbaf926f13702903f30ae9941470c6209727e3f646c348de488a2ee","input":"0x095ea7b30000000000000000000000004752ba5dbc23f44d87826276bf6fd6b1c372ad24000000000000000000000000000000000000007e37be2022c090000000000000","maxFeePerGas":"0xb06a3e","maxPriorityFeePerGas":"0xf4240","nonce":"0x396a","r":"0x310b320ca96b8f9c833a5fdfd481ad7ffeea2e1d063e03c1f22180c7fe11a7d2","s":"0x5a6b89a2b9d14ec3e8f7e06a474e774dd702777b0d969545dbaedfb211cb4d6c","to":"0xbed107d51c09a21fe41fe3bc208d7c34325b5aaf","transactionIndex":"0x2c","type":"0x2","v":"0x1","value":"0x0","yParity":"0x1"},{"accessList":[],"blockHash":"0x42611e5551d7ac97ee7d8558e3c78fce73dae8916ab03507de3fd4817dbbb01c","blockNumber":"0xf38b40","chainId":"0x2105","from":"0x1c51965c449624dd5635882744571788cbad7513","gas":"0x1f34f","gasPrice":"0x601b5b","hash":"0x2012848b162ed7d8e5d219897068881c7f98efef306283da20fe1c0515658bc4","input":"0x7ff36ab500000000000000000000000000000000000000000863e444d7017c92457a867c00000000000000000000000000000000000000000000000000000000000000800000000000000000000000001c51965c449624dd5635882744571788cbad7513000000000000000000000000000000000000000000000000000000006671748c00000000000000000000000000000000000000000000000000000000000000020000000000000000000000004200000000000000000000000000000000000006000000000000000000000000cdf8897d939da2f2b8ae01f24f039ce68fe47e62","maxFeePerGas":"0xb0f442","maxPriorityFeePerGas":"0xf4240","nonce":"0x98a","r":"0xb4f9bda5e130d3fe6a90b9ac40a7a17c31f6c407245d8d2582f085159234158b","s":"0x636bf8dc0b74881e4bb311ef11c49364417b625992805e2795d73c0d74c8b39","to":"0x4752ba5dbc23f44d87826276bf6fd6b1c372ad24","transactionIndex":"0x2d","type":"0x2","v":"0x0","value":"0x13fbe85edc90000","yParity":"0x0"},{"blockHash":"0x42611e5551d7ac97ee7d8558e3c78fce73dae8916ab03507de3fd4817dbbb01c","blockNumber":"0xf38b40","chainId":"0x2105","from":"0x80f31bf2299fbd8a67810aa327682ed1ce495a18","gas":"0x3c474","gasPrice":"0x60050c","hash":"0x7bf9e56e499e4ff98f45fa75af6c2c79f2ea8fa21aa2ca2b4e0f2ba64165bd9f","input":"0xef6c59960000000000000000000000000000000000000000000000000000000000043b6d000000000000000000000000a17c574ab5c2eb04556d9fd7d2b3da22452fabcb000000000000000000000000000000000000000000000000000000002aff6d680000000000000000000000000000000000000000000000000000000000043b6d00000000000000000000000048b6f47b4fb9c69b2597056c90bd8fc71987dee700000000000000000000000000000000000000000000000000000000000000c0000000000000000000000000000000000000000000000000000000000000004138bfee9ee98421dddb9e7e28efbdb01fa113a5d8f495451c0b960f09e5f1bbd933ff5be70790bc177bfd6940adcc2d0825d30478493512fa31fe5a5a69f661db1b00000000000000000000000000000000000000000000000000000000000000","nonce":"0x1cef","r":"0xc148165e8e03b2813359e6aedd98e5861d2cf9e393af096eebc0a461a40bd46a","s":"0x6b41366862dd1e0d20ca1d47b07f768374ec18c16ff3d3ddda953a6b9d00d949","to":"0x7a0bea791a3fde0911f910f3fa5875f5b4a294e1","transactionIndex":"0x2e","type":"0x0","v":"0x422d","value":"0x0"},{"accessList":[],"blockHash":"0x42611e5551d7ac97ee7d8558e3c78fce73dae8916ab03507de3fd4817dbbb01c","blockNumber":"0xf38b40","chainId":"0x2105","from":"0x62edcc7398097957457596dd685030f8212c713b","gas":"0x1312d00","gasPrice":"0x5ffa74","hash":"0x73d72716614045af4c87dbc69019326a740a19019d8094093be8f3deb4146d85","input":"0x3680e9d300000000000000000000000000000000000000000000000000000000000000600000000000000000000000004200000000000000000000000000000000000006000000000000000000000000e8b29c90c69f8646fefcfddae86ac57a4804c8860000000000000000000000000000000000000000000000000000000000000620000000000000000000000000000000000000000000000000000000000000004000000000000000000000000000000000000000000000000000000000000001000000000000000000000000000000000000000000000000000000000000000005000000000000000000000000fef20225f18aa8212c495c201572c276bf7fdb79000000000000000000000000fef20225f18aa8212c495c201572c276bf7fdb79000000000000000000000000fef20225f18aa8212c495c201572c276bf7fdb79000000000000000000000000fef20225f18aa8212c495c201572c276bf7fdb79000000000000000000000000fef20225f18aa8212c495c201572c276bf7fdb79000000000000000000000000000000000000000000000000000000000000000500000000000000000000000000000000000000000000000000000000000000a0000000000000000000000000000000000000000000000000000000000000018000000000000000000000000000000000000000000000000000000000000002600000000000000000000000000000000000000000000000000000000000000340000000000000000000000000000000000000000000000000000000000000042000000000000000000000000000000000000000000000000000000000000000c0000000000000000000000000fef20225f18aa8212c495c201572c276bf7fdb7900000000000000000000000000000000000000000000000000020f8714ab2b5e00000000000000000000000000000000000000000000000000001bb249151df00000000000000000000000000d486753b99b1e0548d3505d8b797c673b58cad30000000000000000000000000000000000000000000000000000000000000001000000000000000000000000000000000000000000000000000000000000000000000000000000000000000000000000000000000000000000000000000000c0000000000000000000000000fef20225f18aa8212c495c201572c276bf7fdb7900000000000000000000000000000000000000000000000000000000003216ba00000000000000000000000000000000000000000000000000036c6cd2c66eda000000000000000000000000551a0e3d267bea87048f08cc94cc6035ad99221b0000000000000000000000000000000000000000000000000000000000000001000000000000000000000000000000000000000000000000000000000000000000000000000000000000000000000000000000000000000000000000000000c0000000000000000000000000fef20225f18aa8212c495c201572c276bf7fdb7900000000000000000000000000000000000000000000000000001bb24ae5c93100000000000000000000000000000000000000000000000000000000001e3352000000000000000000000000be03ed0c57ee301505c26fa9dbfa8cc5ce255fcf0000000000000000000000000000000000000000000000000000000000000000000000000000000000000000000000000000000000000000000000000000000100000000000000000000000000000000000000000000000000000000000000c0000000000000000000000000fef20225f18aa8212c495c201572c276bf7fdb7900000000000000000000000000000000000000000000000000015b593d0aa51e000000000000000000000000000000000000000000000000000000000013e42600000000000000000000000009b852108b6ed78adb2e776d901b8d54ba7080800000000000000000000000000000000000000000000000000000000000000000000000000000000000000000000000000000000000000000000000000000000100000000000000000000000000000000000000000000000000000000000000c0000000000000000000000000fef20225f18aa8212c495c201572c276bf7fdb79000000000000000000000000000000000000000000000000000000000013e428000000000000000000000000000000000000000000000000000000000013e364000000000000000000000000d3f749ada01af29a713545fb6b8e782b49a75a2000000000000000000000000000000000000000000000000000000000000000010000000000000000000000000000000000000000000000000000000000000000","maxFeePerGas":"0x5ffa74","maxPriorityFeePerGas":"0x5ffa74","nonce":"0x9b93","r":"0xe566caa3b3cd41cd954b11e495435d66fc03adeada46b96089c10fb8bd838192","s":"0x6e922e097b238a197299a0c3e0e4085eb19cfd2258f7e899e6fa59b6058ee94","to":"0xf100da4b9234aef616f4a28c04bf7102c9552fc9","transactionIndex":"0x2f","type":"0x2","v":"0x0","value":"0x0","yParity":"0x0"},{"accessList":[],"blockHash":"0x42611e5551d7ac97ee7d8558e3c78fce73dae8916ab03507de3fd4817dbbb01c","blockNumber":"0xf38b40","chainId":"0x2105","from":"0xe5732484064dd7550bf07f003db84546aa35470b","gas":"0x2492e","gasPrice":"0x5ffa74","hash":"0xa53cd85309a4cc5c32e200439b38aab6e4729974af63a9760b8c7f163a93afca","input":"0x84bb1e42000000000000000000000000e5732484064dd7550bf07f003db84546aa35470b0000000000000000000000000000000000000000000000000000000000000001000000000000000000000000eeeeeeeeeeeeeeeeeeeeeeeeeeeeeeeeeeeeeeee000000000000000000000000000000000000000000000000000000000000000000000000000000000000000000000000000000000000000000000000000000c00000000000000000000000000000000000000000000000000000000000000160000000000000000000000000000000000000000000000000000000000000008000000000000000000000000000000000000000000000000000000000000000010000000000000000000000000000000000000000000000000000000000000000000000000000000000000000eeeeeeeeeeeeeeeeeeeeeeeeeeeeeeeeeeeeeeee00000000000000000000000000000000000000000000000000000000000000000000000000000000000000000000000000000000000000000000000000000000","maxFeePerGas":"0x5ffa74","maxPriorityFeePerGas":"0xf4240","nonce":"0x26","r":"0xd26d55f3cbd2d1d10d778a7795df6f5dc54b27cf9694b7f63c5562be7ca9f6d2","s":"0x7125b41f22dd5860bf3e2aadb35f169737cf02edb2be2687ad9668d1159dbab6","to":"0x9b175f7dd4b0051c0d2c1229f7105d1cf712880f","transactionIndex":"0x30","type":"0x2","v":"0x0","value":"0x0","yParity":"0x0"},{"blockHash":"0x42611e5551d7ac97ee7d8558e3c78fce73dae8916ab03507de3fd4817dbbb01c","blockNumber":"0xf38b40","chainId":"0x2105","from":"0xf162cf5e986b95db60a7dec60209848e93121ee2","gas":"0x5b8d80","gasPrice":"0x5ffa74","hash":"0x8f3271bd414daed784cf62ccb0e91984d1cafca21b9da57cf8ab6585cea13715","input":"0xa9059cbb0000000000000000000000008f4acb8c705464fcfa72afcc147e05b7faa2f6010000000000000000000000000000000000000000000000000110e40498eb868c","nonce":"0x1","r":"0x6280195023154f4f28bd675f44938142bfeadc8d1e646ed13065a98359d3e696","s":"0x1049d8cbdbd5f2ed2ee545172ee48c95c00cb41d3c91ed3ebdbf63146867ff32","to":"0x3b9728bd65ca2c11a817ce39a6e91808cceef6fd","transactionIndex":"0x31","type":"0x0","v":"0x422e","value":"0x0"},{"blockHash":"0x42611e5551d7ac97ee7d8558e3c78fce73dae8916ab03507de3fd4817dbbb01c","blockNumber":"0xf38b40","chainId":"0x2105","from":"0xac07d7af2e2955f13434d767e93252316708e202","gas":"0x3934f","gasPrice":"0x5fd63f","hash":"0xfb1f911a4a28060b825f674dd7dc50866e4544a969f591a7df9ac1b5fc890535","input":"0x3593564c000000000000000000000000000000000000000000000000000000000000006000000000000000000000000000000000000000000000000000000000000000a0000000000000000000000000000000000000000000000000000000006671748700000000000000000000000000000000000000000000000000000000000000040b080604000000000000000000000000000000000000000000000000000000000000000000000000000000000000000000000000000000000000000000000004000000000000000000000000000000000000000000000000000000000000008000000000000000000000000000000000000000000000000000000000000000e0000000000000000000000000000000000000000000000000000000000000020000000000000000000000000000000000000000000000000000000000000002800000000000000000000000000000000000000000000000000000000000000040000000000000000000000000000000000000000000000000000000000000000200000000000000000000000000000000000000000000000000a36cc19bab00000000000000000000000000000000000000000000000000000000000000000100000000000000000000000000000000000000000000000000000000000000000200000000000000000000000000000000000000000000000000a36cc19bab000000000000000000000000000000000000000000000001483df7242575e9f6227c00000000000000000000000000000000000000000000000000000000000000a0000000000000000000000000000000000000000000000000000000000000000000000000000000000000000000000000000000000000000000000000000000020000000000000000000000004200000000000000000000000000000000000006000000000000000000000000c7c1198794d1d973de0736180cca6d9e989293a10000000000000000000000000000000000000000000000000000000000000060000000000000000000000000c7c1198794d1d973de0736180cca6d9e989293a10000000000000000000000005d64d14d2cf4fe5fe4e65b1c7e3d11e18d49309100000000000000000000000000000000000000000000000000000000000000190000000000000000000000000000000000000000000000000000000000000060000000000000000000000000c7c1198794d1d973de0736180cca6d9e989293a1000000000000000000000000000000000000000000000000000000000000000100000000000000000000000000000000000000000001476be3f69dafdbefc266","nonce":"0x306","r":"0x565f1e6fabbbf772233aef0191f84c3c034bf274bfe12cc812a17db8636b88ae","s":"0x48295a14b84cc993a7e48a1a752831243672404956c9a69c3fc753c25d9c2f51","to":"0x3fc91a3afd70395cd496c647d5a6cc9d4b2b7fad","transactionIndex":"0x32","type":"0x0","v":"0x422d","value":"0xa36cc19bab0000"},{"blockHash":"0x42611e5551d7ac97ee7d8558e3c78fce73dae8916ab03507de3fd4817dbbb01c","blockNumber":"0xf38b40","chainId":"0x2105","from":"0xf734263d5c6153fd6d0467f226a6e4d3affc9ac4","gas":"0xc8e1","gasPrice":"0x5f9ac5","hash":"0x7419a7bda5ebde3d9a28076f51c158c236f80edcf62f6ae5a75eee1df21c9e3b","input":"0x095ea7b30000000000000000000000002213aedcd9adb929aa2b72d6516084c0faf86fe80000000000000000000000000000000000000000000000000000000000012492","nonce":"0x19f49","r":"0x3a5a0a9736063bd0fdd0426286dbfacf8d6367c86150fd89290eaf2ade43e8c","s":"0x6598e3fbe2964cbfd8a7fa197024178ba7858c8808fbd5b254d232a2f2bff35b","to":"0x19ecbc13e899e4952d8e1a24108330d43cc0406d","transactionIndex":"0x33","type":"0x0","v":"0x422d","value":"0x0"},{"accessList":[],"blockHash":"0x42611e5551d7ac97ee7d8558e3c78fce73dae8916ab03507de3fd4817dbbb01c","blockNumber":"0xf38b40","chainId":"0x2105","from":"0x19b43787fbc106d427be3ca3307d4fb0a73d83dc","gas":"0xaae60","gasPrice":"0x5e43e6","hash":"0xfe233ac22cac692dd9ab52edbc878b755862df8e76a7449e67e27eb8e46c9c78","input":"0xfdb5a03e","maxFeePerGas":"0xd2d757","maxPriorityFeePerGas":"0xd6acb","nonce":"0x84b96","r":"0x55e050bac29d1c3e644b896c711842eedb09453bd97e210cf9a38c5c7f92f4b1","s":"0x6b078ea49401e218028ffb6718c9265f581a5a5ff7c993917669e511e955085b","to":"0x042c37762d1d126bc61eac2f5ceb7a96318f5db9","transactionIndex":"0x34","type":"0x2","v":"0x0","value":"0x0","yParity":"0x0"},{"accessList":[],"blockHash":"0x42611e5551d7ac97ee7d8558e3c78fce73dae8916ab03507de3fd4817dbbb01c","blockNumber":"0xf38b40","chainId":"0x2105","from":"0x8cabd1833c116a33b953daa4e2a6fab6211b6044","gas":"0xf4240","gasPrice":"0x5d0e1b","hash":"0x0b3da24474f4505c93811f16dbf2dfe2e7726725675ea7fda6745a9dfbf7bc51","input":"0x763da083326ef1e27e908adca08fb204ab357dd082117a3c2dfa4cfbf5814cd613e95cf90000000000000000000000000000000000000000000000000000000000000040000000000000000000000000000000000000000000000000000000000000000a0000000000000000001a7cd450d66fcb7166ee77b08d0f51673f2501eac1c3c00000000000000000003514ebac90a1e70d0ce3a53447f053770fba642881e2750000000000000000018deb463b40a8ae81b45369545b28b5f633d9c04256e7460000000000000000000588802350365dc43de93f34136780f5b11e8075af522a00000000000000000122646d1e6e887b7b781f0a14ee000ada71af39a39503c0000000000000000000063ad6337dcc16f6bdbc561af67a108a00abfe8f78a60e00000000000000000000bade1922c57392752668da0946730ba73476a51dc68e00000000000000000001adecf25efe39847b48d8181ca6961ca27c32e0daacc6000000000000000000086880b4520e8e20937e2cc38f724b9e50851f94fa92220000000000000000000256531e2239cbf3b42cce708250d7df521176983460d8","maxFeePerGas":"0xbebc200","maxPriorityFeePerGas":"0xc3500","nonce":"0x24a07","r":"0xaa6a3a365875cac379119eb73e41b7ac4c8e507e4863c1c0b2b6bb95bc09238e","s":"0x58e79fc94ee21cf198e89afb73094493335881c04942cbb4f7ec0327ecbbadad","to":"0x0ed09c8334b022d9148152f3b349bce86488a790","transactionIndex":"0x35","type":"0x2","v":"0x0","value":"0x0","yParity":"0x0"},{"accessList":[],"blockHash":"0x42611e5551d7ac97ee7d8558e3c78fce73dae8916ab03507de3fd4817dbbb01c","blockNumber":"0xf38b40","chainId":"0x2105","from":"0x5770e58e849db3c33d572778f4bcd8cd2f4ff486","gas":"0x2833e","gasPrice":"0x58d229","hash":"0xf0fb8fa20ae99e816f815fcad2386f02f9fafcc972aa33adf2366d3ea7d3434d","input":"0x5b1d3b200000000000000000000000008055e6de251e414e8393b20adab096afb3cf839900000000000000000000000096419929d7949d6a801a6909c145c8eef6a4043100000000000000000000000042000000000000000000000000000000000000060000000000000000000000000000000000000000000000000000000000002710000000000000000000000000000000000000000000000028137f83b69c60a2b800000000000000000000000000000000000000000000000014010d04a3e4ee8000000000000000000000000000000000000000168bbd11804c87daac829a9650","maxFeePerGas":"0x33232f4","maxPriorityFeePerGas":"0x7f90e","nonce":"0x671","r":"0x78dcc2b9ace50857ebeb49770e65ba8b47e043b8fc312e44f37de0ab30c05ef2","s":"0x8d569002ce8cccf918e036a36a255a4256d29ffc0ce566065496fdfd7e9612e","to":"0xaa5ba66098fa40bdbf6ba010e02530ed91239348","transactionIndex":"0x36","type":"0x2","v":"0x0","value":"0x0","yParity":"0x0"},{"accessList":[],"blockHash":"0x42611e5551d7ac97ee7d8558e3c78fce73dae8916ab03507de3fd4817dbbb01c","blockNumber":"0xf38b40","chainId":"0x2105","from":"0x0688048d26e2e1ac50c1c53063f354bf345739f0","gas":"0xae8c","gasPrice":"0x552018","hash":"0xe8f519fcd82156d0e48d6e227b656b898d753471fae8fd0b6335621da3f77d2d","input":"0x1de29b8f000000000000000000000000ebbda1c220363e0e15414bb5b6670f3888e547ef","maxFeePerGas":"0x552018","maxPriorityFeePerGas":"0x552018","nonce":"0x117e","r":"0x6b00db5971d8c5e4ecc8d198bf689f26a40cf47813749fc99fdad55cf8440ab","s":"0x69a8e83b0a0ec1d47993e1d2e368efb5635b184537efce74399dd3ddbb01cd93","to":"0x3b9728bd65ca2c11a817ce39a6e91808cceef6fd","transactionIndex":"0x37","type":"0x2","v":"0x1","value":"0x0","yParity":"0x1"},{"accessList":[],"blockHash":"0x42611e5551d7ac97ee7d8558e3c78fce73dae8916ab03507de3fd4817dbbb01c","blockNumber":"0xf38b40","chainId":"0x2105","from":"0xd39d00cb8436d472b1adbdae66a9703b7df438d1","gas":"0x44aa20","gasPrice":"0x53ea78","hash":"0xc626e24125586f73a16391b9f2bae972fd9fd0ffbc7f27a2a9ec625a3dd10306","input":"0x07be833589fcd6edb6e08f4c7c32d4f71b54bda02913271001257ab4cb800910b228ed3d0834cf79d697127bbb00e5270fd0b53d9277642d899df5c87a3966a349a798f224270b07bed9aaec86b65d86f6a7b5b1b0c42ffa531710b6ca271001257af6c0a374a483101e04ef5f7ac9bd15d9142bac95270f4c36388be6f416a29c8d8eee81c771ce6be14b18270b098b0c41f1fc9022feb69af6dc666abfe73c9ffda7ce271000250339a72b1292aaed73b9b5633e14f88fe9a89f400b26f2780229080256c9c5af1630a3c165d5725131e61026ac098b1791b55e734df69b4906a4178a83dbe63c4f84212710002503dcea286d38f5ff4953f30522cf90605fa831156726f2321b27aaa004ca9ecb6a7c06d79e5e0eaf1a152826ac07beac1bd2486aaf3b5c0fc3fd868558b082a531b2b427100125035aa4ad647580bfe86258d300bc9852f4434e2c6126f24b0aaf3ebb163dd45f663b38b6d93f6093ebc2d326ac098b5b8f638330d7d6bd9d43811fe702f6894e97ef032710012503bde5099dc934631aea697b4c13d7da26ac67598626f22e5a4235e3f8dd0230e25038147ad9cf800c1af726ac098b340c070260520ae477b88caa085a33531897145b27100025035063d14add4f65320db953d76f9b058707c7d51a26f27ff70016a1de228a6b038405c0414d796167729f26ac07befea9dcdc9e23a9068bf557ad5b186675c61d33ea271001251ff4348227607b166917b9f50cf51979e376995b73270f0e01e1797dea0df3ec98cad138599fa2fd821c6126ac05995d615c0fe1750f6da4870516fa7b66ba74e6f2d7271001254b71f7261fd072935e08818e3fa185e06cb80d4ff426f2a8697fbc69c787794793a39c04ecd677630b0ce426f7098b50c5725949a6f0c72e6c4a641f24049a917db0cb2710012554ae45f7eb428eb6403f2567c3a3ec47e9230bc82326e89bfa331679b307cf358438f45f6413a205fd3ebf270b098b940181a94a35a4569e4529a3cdfb74e38fd986312710012546081ec5d6b68a28c9e3a73ec97e351161dbb5e8ef26f23d5d143381916280ff91407febeb52f2b60f33cf26f207be236aa50979d5f3de3bd1eeb40e81137f22ab794b27100025730d486753b99b1e0548d3505d8b797c673b58cad3270bb100ec4b9d92c3916e99eaf152e14824da6facd12708098b2e1d332893dc16124194e598a29866d2d5e8786b2710002503d33805985642fa9338e1fa150ca811406f96f0de26f2710bb26a5ff62a1920daa52a97ee3641bb66ba5926ac098b833589fcd6edb6e08f4c7c32d4f71b54bda0291327100126ed88a43bbdf9d098eec7bceda4e2494615dfd9bb9c26f2d0b53d9277642d899df5c87a3966a349a798f224270b098b4ed4e862860bed51a9570b96d89af5e1b0efefed27100126d42c4909355b0c036840819484c3a882a95659abf326f2c9034c3e7f58003e6ae0c8438e7c8f4598d5acaa26f2098b47b464edb8dc9bc67b5cd4c9310bb87b773845bd271001250398433581b5420bc67fc5fd2b5f9dd3e7ca43140b26f26d6c60303d09886c30e789bed4bd36e86ee342b626acffff","maxFeePerGas":"0xa4c393","maxPriorityFeePerGas":"0x3115d","nonce":"0x3342fc","r":"0x7f4edb61fa15b31f6807892be46d3210facb2279ca517cf82484d2b2076adfa5","s":"0x5bca9725b226d3543af662a2ccba22037842a0074fdd1fdfc2f56369707a8986","to":"0x36db5034032fd240a1b3cde369772049c8dcfb91","transactionIndex":"0x38","type":"0x2","v":"0x0","value":"0x0","yParity":"0x0"},{"accessList":[],"blockHash":"0x42611e5551d7ac97ee7d8558e3c78fce73dae8916ab03507de3fd4817dbbb01c","blockNumber":"0xf38b40","chainId":"0x2105","from":"0xddc68f9de415ba2fe2fd84bc62be2d2cff1098da","gas":"0x113144","gasPrice":"0x525fbb","hash":"0x6f22fe65f25aa9e68e4fc8b43d742da52318259531c02c7369342e19a67a0227","input":"0x1cff79cd000000000000000000000000b65cbf9689979e1749b38ba5d5155c70500292d800000000000000000000000000000000000000000000000000000000000000400000000000000000000000000000000000000000000000000000000000001044f1298ed7000000000000000000000000000000000000000000000000000000000000004000000000000000000000000000000000000000000000000000000000000010000000000000000000000000000000000000000000000000000000000000000009000000000000000000000000000000000000000000000000000000000000012000000000000000000000000000000000000000000000000000000000000002a000000000000000000000000000000000000000000000000000000000000004c00000000000000000000000000000000000000000000000000000000000000620000000000000000000000000000000000000000000000000000000000000086000000000000000000000000000000000000000000000000000000000000009c00000000000000000000000000000000000000000000000000000000000000b000000000000000000000000000000000000000000000000000000000000000d000000000000000000000000000000000000000000000000000000000000000e6098203051894747605630ba7bcee424c0ec4e2f7d74e8e9d5a195b7eeba3cbd100000000000000000000000000000000000000000000000000000000000000060000000000000000000000000000000000000000000000000000000000000000100000000000000000000000000000000000000000000000000000000000000e485e92d98000000000000000000000000000000000000000000000000000000000000004000000000000000000000000000000000000000000000000000000000000000c00000000000000000000000000000000000000000000000000000000000000060000000000000000000000000833589fcd6edb6e08f4c7c32d4f71b54bda02913000000000000000000000000ddc68f9de415ba2fe2fd84bc62be2d2cff1098da000000000000000000000000000000000000000000000000000000000000000000000000000000000000000000000000000000000000000000000000000000000000000000000000000000000000000000000000000000000000000036303c18db5a95d0dd17b9bac9bc1dbd0130264cd8a04fb5e9b427a3a03ad49e00000000000000000000000000000000000000000000000000000000000000600000000000000000000000000000000000000000000000000000000000000001000000000000000000000000000000000000000000000000000000000000018485e92d98000000000000000000000000000000000000000000000000000000000000004000000000000000000000000000000000000000000000000000000000000000e00000000000000000000000000000000000000000000000000000000000000080000000000000000000000000833589fcd6edb6e08f4c7c32d4f71b54bda02913000000000000000000000000bbbbbbbbbb9cc5e90e3b3af64bdaf62c37eeffcb000000000000000000000000000000000000000000000000000000000000000000000000000000000000000000000000000000000000000000000000000000000000000000000000000000000000000000000000000000000000000000000004000000000000000000000000000000000000000000000000000000000000000000000000000000000000000000000000000000000000000000000000000000000000000000000000000000000000000000000000000000000000000000000000000000000000000000000000000000000000000000000000000000000000000000000000000000000000000000000000000000000000000000000000ae6d6b87bd69704c742ef3ff051d31d411798b8403cab6cb2d94a7ba91661f7d0000000000000000000000000000000000000000000000000000000000000060000000000000000000000000000000000000000000000000000000000000000100000000000000000000000000000000000000000000000000000000000000c485e92d9800000000000000000000000000000000000000000000000000000000000000400000000000000000000000000000000000000000000000000000000000000080000000000000000000000000000000000000000000000000000000000000002000000000000000000000000000000000000000000000000000000000000000000000000000000000000000000000000000000000000000000000000000000001000000000000000000000000000000000000000000000000000000000000000000000000000000000000000000000000000000000000000000000000ca8b1df9badec7f65f2e427ee80179f2807ed58d10408e980112dd70b583f8060000000000000000000000000000000000000000000000000000000000000060000000000000000000000000000000000000000000000000000000000000000100000000000000000000000000000000000000000000000000000000000001a485e92d98000000000000000000000000000000000000000000000000000000000000004000000000000000000000000000000000000000000000000000000000000001600000000000000000000000000000000000000000000000000000000000000100000000000000000000000000833589fcd6edb6e08f4c7c32d4f71b54bda029130000000000000000000000002ae3f1ec7f1f5012cfeab0185bfc7aa3cf0dec220000000000000000000000004756c26e01e61c7c2f86b10f4316e179db8f942500000000000000000000000046415998764c29ab2a25cbea6254146d50d226870000000000000000000000000000000000000000000000000bef55718ad600000000000000000000000000000000000000000000000000000000000000000000000000000000000000000000000000000000000000000000000000000000000000000000000000000000000000000000000000000000000000000000000000010000000000000000000000000000000000000000000000000000000000000001000000000000000000000000000000000000000000000000000000000000000000000000000000000000000000000000000000000000000000000000b8020e49c93f2144cdce5b93dc159b086f98dcfba95a09eec862664fbfa6a8a40000000000000000000000000000000000000000000000000000000000000060000000000000000000000000000000000000000000000000000000000000000100000000000000000000000000000000000000000000000000000000000000c485e92d98000000000000000000000000000000000000000000000000000000000000004000000000000000000000000000000000000000000000000000000000000000800000000000000000000000000000000000000000000000000000000000000020ffffffffffffffffffffffffffffffffffffffffffffffffffffffffffffffff0000000000000000000000000000000000000000000000000000000000000001000000000000000000000000000000000000000000000000000000000000000000000000000000000000000000000000000000000000000000000000166438e3cb190ad4e896f7b4bd36c98f5b7dc3f5eb885f019521b3b819bc0de80000000000000000000000000000000000000000000000000000000000000060000000000000000000000000000000000000000000000000000000000000000100000000000000000000000000000000000000000000000000000000000000a485e92d98000000000000000000000000000000000000000000000000000000000000004000000000000000000000000000000000000000000000000000000000000000800000000000000000000000000000000000000000000000000000000000000020000000000000000000000000833589fcd6edb6e08f4c7c32d4f71b54bda029130000000000000000000000000000000000000000000000000000000000000000000000000000000000000000000000000000000000000000000000005e8a8984847bce562c1ded2e66d858deb4fc1e1078bd8052d7ac568bb85704ea00000000000000000000000000000000000000000000000000000000000000600000000000000000000000000000000000000000000000000000000000000000000000000000000000000000000000000000000000000000000000000000016485e92d980000000000000000000000000000000000000000000000000000000000000040000000000000000000000000000000000000000000000000000000000000014000000000000000000000000000000000000000000000000000000000000000e0000000000000000000000000833589fcd6edb6e08f4c7c32d4f71b54bda029130000000000000000000000002ae3f1ec7f1f5012cfeab0185bfc7aa3cf0dec220000000000000000000000004756c26e01e61c7c2f86b10f4316e179db8f942500000000000000000000000046415998764c29ab2a25cbea6254146d50d226870000000000000000000000000000000000000000000000000bef55718ad6000000000000000000000000000000000000000000000000000000038d7ea4c6800000000000000000000000000020e74013d82fea853afca3b4cb1fd9c2b105f55a000000000000000000000000000000000000000000000000000000000000000000000000000000000000000000000000000000000000000000000000b8020e49c93f2144cdce5b93dc159b086f98dcfba95a09eec862664fbfa6a8a40000000000000000000000000000000000000000000000000000000000000060000000000000000000000000000000000000000000000000000000000000000100000000000000000000000000000000000000000000000000000000000000c485e92d98000000000000000000000000000000000000000000000000000000000000004000000000000000000000000000000000000000000000000000000000000000800000000000000000000000000000000000000000000000000000000000000020ffffffffffffffffffffffffffffffffffffffffffffffffffffffffffffffff0000000000000000000000000000000000000000000000000000000000000001000000000000000000000000000000000000000000000000000000000000000000000000000000000000000000000000000000000000000000000000166438e3cb190ad4e896f7b4bd36c98f5b7dc3f5eb885f019521b3b819bc0de80000000000000000000000000000000000000000000000000000000000000060000000000000000000000000000000000000000000000000000000000000000000000000000000000000000000000000000000000000000000000000000000a485e92d980000000000000000000000000000000000000000000000000000000000000040000000000000000000000000000000000000000000000000000000000000008000000000000000000000000000000000000000000000000000000000000000200000000000000000000000002ae3f1ec7f1f5012cfeab0185bfc7aa3cf0dec22000000000000000000000000000000000000000000000000000000000000000000000000000000000000000000000000000000000000000000000000000000000000000000000000000000000000000000000000000000000000001b4d6f7270686f426c75655061796261636b57697468647261775f32000000000000000000000000000000000000000000000000000000000000000000","maxFeePerGas":"0xf41d88","maxPriorityFeePerGas":"0x186a0","nonce":"0x10","r":"0x423a3114c500bb6d3031c4e48bff59674be242010bf2b205228c7a80cabe3b14","s":"0x27ba24f0a18b37c52c504a2e50bab8cef71ed3fb291c8da0ba9ed437200bdcbf","to":"0x20e74013d82fea853afca3b4cb1fd9c2b105f55a","transactionIndex":"0x39","type":"0x2","v":"0x0","value":"0x0","yParity":"0x0"},{"accessList":[],"blockHash":"0x42611e5551d7ac97ee7d8558e3c78fce73dae8916ab03507de3fd4817dbbb01c","blockNumber":"0xf38b40","chainId":"0x2105","from":"0xbaa392cd62f9fdfb20623af2a566f2d15eaee356","gas":"0x5208","gasPrice":"0x525fbb","hash":"0x798187553f18341c52399a214ab0a941ad970aabb0cf8d4c443af29067a09ab0","input":"0x","maxFeePerGas":"0xf29608","maxPriorityFeePerGas":"0x186a0","nonce":"0xba","r":"0x194fa3581b69e19f39f1df392743836926c574cbbbb74dc822e1d390bd60158c","s":"0x5368d17349b55d183ffbfc1cdc9e4efd5a9cbbb32ff715c399adb705d3c2cdac","to":"0xa9c81cd1d3885ba995e46f2e2589ea3c25b0d884","transactionIndex":"0x3a","type":"0x2","v":"0x0","value":"0x38d7ea4c68000","yParity":"0x0"},{"accessList":[],"blockHash":"0x42611e5551d7ac97ee7d8558e3c78fce73dae8916ab03507de3fd4817dbbb01c","blockNumber":"0xf38b40","chainId":"0x2105","from":"0x0f156356a3989c4c1b339e08fdf7baece53d9de2","gas":"0xe7c1","gasPrice":"0x525fbb","hash":"0x00041daaa2acfbc94dd2065607f4c34976b246d945a24d0b753caf8581554b35","input":"0x095ea7b3000000000000000000000000bb505c54d71e9e599cb8435b4f0ceec05fc71cbd000000000000000000000000000000000000000000000000000000000009d170","maxFeePerGas":"0xf41d88","maxPriorityFeePerGas":"0x186a0","nonce":"0xf0","r":"0x6f899120be932a572e67afae53ab3740dcfb5a9e60e2493234093bc56858517f","s":"0x6fd9719e76e6024d458f4ca8a5597eae5e16dfa22db686e840952888d4b3cb14","to":"0xb79dd08ea68a908a97220c76d19a6aa9cbde4376","transactionIndex":"0x3b","type":"0x2","v":"0x0","value":"0x0","yParity":"0x0"},{"accessList":[],"blockHash":"0x42611e5551d7ac97ee7d8558e3c78fce73dae8916ab03507de3fd4817dbbb01c","blockNumber":"0xf38b40","chainId":"0x2105","from":"0xf7f123a599f5224bb521b1636ad7abe95d23ff00","gas":"0x927c0","gasPrice":"0x525fbb","hash":"0xc1661f1adfdcaeac93b4d985272f18818adc688f250ee2e3ab8c73b211aef4c3","input":"0xa00597a00000000000000000000000000000000000000000000000000121e42c92391ff000000000000000000000000000000000000000a537cd681bb910b45d5e691c0b0000000000000000000000004200000000000000000000000000000000000006000000000000000000000000000000000000000000000000000000000000000100000000000000000000000076bf0abd20f1e0155ce40a62615a90a709a6c3d80000000000000000000000000000000000000000000000000000000066717415","maxFeePerGas":"0x6aa0ba","maxPriorityFeePerGas":"0x186a0","nonce":"0x4acc","r":"0xd1dff72b8a03d346e82fb646d7c5142033dd5c264bd90a5f3490e07170cb6c61","s":"0x4ccb88fdb1fbf86228f8897228d25915220708c40b441b28c9dd2ce80d25b48a","to":"0x802b65b5d9016621e66003aed0b16615093f328b","transactionIndex":"0x3c","type":"0x2","v":"0x0","value":"0x0","yParity":"0x0"},{"accessList":[],"blockHash":"0x42611e5551d7ac97ee7d8558e3c78fce73dae8916ab03507de3fd4817dbbb01c","blockNumber":"0xf38b40","chainId":"0x2105","from":"0x236f2a46e5cda27b817c633ac780dd76532b21aa","gas":"0x5208","gasPrice":"0x525fbb","hash":"0xbfa85ccc25d11785ca8bbe4135ea275a31239e129bc47e09de4a540aa42d019a","input":"0x","maxFeePerGas":"0xf29608","maxPriorityFeePerGas":"0x186a0","nonce":"0x3","r":"0xa1710ed4b65cacd398391e61dd8118e1543bc6e6b03f46534b041b8318c092aa","s":"0x45ed837c862848c711a4d4c890dfb73f7b0c5cf7b22e8e6763400ee86a9c336","to":"0x5e809a85aa182a9921edd10a4163745bb3e36284","transactionIndex":"0x3d","type":"0x2","v":"0x0","value":"0x837a9475d900d","yParity":"0x0"},{"accessList":[],"blockHash":"0x42611e5551d7ac97ee7d8558e3c78fce73dae8916ab03507de3fd4817dbbb01c","blockNumber":"0xf38b40","chainId":"0x2105","from":"0x5d2b8d4f1908c04bf7a3ffce6505c0ac4a4d1b08","gas":"0x7c63","gasPrice":"0x525fbb","hash":"0xdedd52073de7f236c664c727e53689a3845a6e558d46592fe76b686f9d29b6d1","input":"0x016d3b6a","maxFeePerGas":"0xf41d88","maxPriorityFeePerGas":"0x186a0","nonce":"0x0","r":"0x6b532e73ab94a21f5e02b2281e73a7f64af496a4337f52263e9c32b4d8adb9a6","s":"0x54f88ff0355758c59a9905b6cd9b3e43f5a3e0d36e6304a80b9878480c60c6a1","to":"0xf70da97812cb96acdf810712aa562db8dfa3dbef","transactionIndex":"0x3e","type":"0x2","v":"0x1","value":"0x1c359f5dc6ac7b","yParity":"0x1"},{"accessList":[],"blockHash":"0x42611e5551d7ac97ee7d8558e3c78fce73dae8916ab03507de3fd4817dbbb01c","blockNumber":"0xf38b40","chainId":"0x2105","from":"0xe7a9f850b32d279ecca2c97411754afaf440156a","gas":"0x302bc","gasPrice":"0x525fbb","hash":"0x08826c331471f0e64f9c001cfaee79cb8cf850cc1282e7e7a6e410b49b63be94","input":"0xd123b4d800000000000000000000000000000000000000000000000000000000000000400000000000000000000000000000000000000000000000000000000000000340000000000000000000000000000000005f4b278553ed476a92f1b00d7410d52a59f64d8f8e404182e5ecf32e40f20a50afafa5f00f64f61a571d152e80d89b3b000000000000000000000000000000000000000000000000000044364c5bb000000000000000000000000000e7a9f850b32d279ecca2c97411754afaf440156a0000000000000000000000000000000000000000000000000000000000000200000000000000000000000000000000000000000000000000000000000000024000000000000000000000000000000000000000000000000000000000000002a000000000000000000000000000000000000000000000000000000000000002c000000000000000000000000000000000000000000000000000000000000002e0000000000000000000000000000000000000000000000000000000000000000000000000000000000000000000000000000000000000000000000000000000000000000000000000000000000000000000000000000000000000000000000000000000000000000000000000000000000000000000000000000000000000000000000000000000000000000000000000000000000000000000000000000000030000000000000000000000000000000000000000000000000000000000000000000000000000000000000000000000000000000000000000000000000000000000000000000000000000000000000000000000000000000000000000000000084d6574614d61736b0000000000000000000000000000000000000000000000000000000000000000000000000000000000000000000000000000000000000035697066733a2f2f516d527a7574476558683553476f39393746786d636957634e65654e5a6b636763584d654e4c48735038445857710000000000000000000000000000000000000000000000000000000000000000000000000000000000000000000000000000000000000000000000000000000000000000000000000000000000000000000000000000000000000000000000000000000000000000000000000000000000000000000000000000000000000000000000000000000000004155e82061c5e7bb827c0765fe828c28e721b6d3b87744f35234ad1a9cc8d58c8d72555d3a2ccea9484617fcd3bbc6a59b327516de509a4edbbb1f5f6b3bc48c601c00000000000000000000000000000000000000000000000000000000000000","maxFeePerGas":"0xf41d88","maxPriorityFeePerGas":"0x186a0","nonce":"0x2c1","r":"0x9584122b2d3e32e05970ab21c8b67a2d41b37450cc3f626dd06c215ef73e2450","s":"0x665af33e33deeac207fba6c2b636df36282e0e067ca3ae0f066c9ca5ac9192f7","to":"0x1195cf65f83b3a5768f3c496d3a05ad6412c64b7","transactionIndex":"0x3f","type":"0x2","v":"0x0","value":"0x44364c5bb000","yParity":"0x0"},{"accessList":[],"blockHash":"0x42611e5551d7ac97ee7d8558e3c78fce73dae8916ab03507de3fd4817dbbb01c","blockNumber":"0xf38b40","chainId":"0x2105","from":"0xbb8c449f92cb4aecf27804ba3c047a028a4bda4e","gas":"0x7196","gasPrice":"0x525fbb","hash":"0x0564d22ce3f3a8ad09de00def5cd44b95177d5571a3b6e101d21bb6bbe728d26","input":"0xe56461ad0000000000000000000000000000000000000000000000000000000000000144000000000000000000000000bb8c449f92cb4aecf27804ba3c047a028a4bda4e","maxFeePerGas":"0xf29608","maxPriorityFeePerGas":"0x186a0","nonce":"0x18","r":"0x787f0791ae2b0152841db89162fc45d1d4c80a52748af40a6ecb221e277fea51","s":"0x5523e0f399754aad7a415f6831988e74b63e59a0322df2f8c407fe875ff204c2","to":"0xe8c5b8488feafb5df316be73ede3bdc26571a773","transactionIndex":"0x40","type":"0x2","v":"0x0","value":"0x394c549ef000","yParity":"0x0"},{"accessList":[],"blockHash":"0x42611e5551d7ac97ee7d8558e3c78fce73dae8916ab03507de3fd4817dbbb01c","blockNumber":"0xf38b40","chainId":"0x2105","from":"0xc9700a91b2a8f6a27aa9850803a85e4732754ad7","gas":"0x2dfd7","gasPrice":"0x525fbb","hash":"0x58fd51eba6b58a531a1b40b5f6161ace48d6fdff52688016bf9e8282ca547121","input":"0xb930370100000000000000000000000000000000000000000000000000000000000000c0000000000000000000000000000000000000000000000000000001902b2a528000000000000000000000000000000000000000000000000000000000000003400000000000000000000000000000000000000000000000000000000000004ae90000000000000000000000000000000000000000000000000000000000000360000000000000000000000000000000000000000000000000000000000000038000000000000000000000000000000000000000000000000000000000000000000000000000000000000000000000000000000000000000000238e77bceca2e5b00000000000000000000000000000000000000000000000000000000000001600000000000000000000000000000000000000000000000000237fac29f690000000000000000000000000000000000000000000000000000000000000000e70800000000000000000000000000000000000000000000000000000000000001a0000000000000000000000000c9700a91b2a8f6a27aa9850803a85e4732754ad700000000000000000000000000000000000000000000000000000000000001e0000000000000000000000000000000000000000000000000000000000000022000000000000000000000000000000000000000000000000000000000000002400000000000000000000000000000000000000000000000000000000000000260000000000000000000000000000000000000000000000000000000000000001400000000000000000000000000000000000000000000000000000000000000000000000000000000000000000000000000000000000000000000000000000014c9700a91b2a8f6a27aa9850803a85e4732754ad70000000000000000000000000000000000000000000000000000000000000000000000000000000000000014c9700a91b2a8f6a27aa9850803a85e4732754ad70000000000000000000000000000000000000000000000000000000000000000000000000000000000000000000000000000000000000000000000000000000000000000000000000000000000000000000000000000000000000000000000000000000000000000000000000000000000000000000000000000000000000000000000000000000000000000000000000000000000000000000000000000000000000000000000000000000000000000000000000000000000000000000000000000000000000000000000420101010000eb47292f3c7800000000000000000000000000000000699fc2fa3702000000000000000000000000000000000000000000000000000000000000000000000000000000000000000000000000000000000000000000000000000000","maxFeePerGas":"0xf41d88","maxPriorityFeePerGas":"0x186a0","nonce":"0x83","r":"0xe42df8fcf3f2adb177cdc83dbd666fb141b4a455b3ef911d2ac23e57306232bc","s":"0x75255b92dae4470816017212cd5729d84deca54b486c1bac57d91ba65bb71560","to":"0xef4fb24ad0916217251f553c0596f8edc630eb66","transactionIndex":"0x41","type":"0x2","v":"0x0","value":"0x23c74fa7390ae5b","yParity":"0x0"},{"accessList":[],"blockHash":"0x42611e5551d7ac97ee7d8558e3c78fce73dae8916ab03507de3fd4817dbbb01c","blockNumber":"0xf38b40","chainId":"0x2105","from":"0xd9d3607cb0b1e7ed140f2c3793e070fb288bdc69","gas":"0x7879","gasPrice":"0x525fbb","hash":"0x1d76b644568fe6bbb405d7eec397f426785c8b9de80a662e63915798dbb496ef","input":"0xc7b8981c","maxFeePerGas":"0xf41d88","maxPriorityFeePerGas":"0x186a0","nonce":"0x16f","r":"0xe4f6e2839d6ecba00c898171a030e19673a6723979157e1d220a7b9a55f172f2","s":"0x51c70cc48760bd497353742b55babaa191fc3c32558c56c6909d80644fd42730","to":"0x46484c5b06627b79e21b335c7808995d2d4488d8","transactionIndex":"0x42","type":"0x2","v":"0x0","value":"0x0","yParity":"0x0"},{"accessList":[],"blockHash":"0x42611e5551d7ac97ee7d8558e3c78fce73dae8916ab03507de3fd4817dbbb01c","blockNumber":"0xf38b40","chainId":"0x2105","from":"0xe873c70540001737a978a6ebc9a593df5129a6a8","gas":"0x2dc6c0","gasPrice":"0x525fbb","hash":"0x8474ee9207734893c60d0393bd4f74be3ee455edca15e9a9ee40766d5e569a28","input":"0x0000000b000000000000000000000000000000000000000000000000000000000000002000000000000000000000000000000000000000000000000000000000000003b1833589fcd6edb6e08f4c7c32d4f71b54bda029130088a43bbdf9d098eec7bceda4e2494615dfd9bb9c01d0b53d9277642d899df5c87a3966a349a798f224030c41f1fc9022feb69af6dc666abfe73c9ffda7ce0039a72b1292aaed73b9b5633e14f88fe9a89f400b01780229080256c9c5af1630a3c165d5725131e61003ac1bd2486aaf3b5c0fc3fd868558b082a531b2b400f641ff99d18babd6ffa38fa5cbc09dd7dab385c40174e4c08bb50619b70550733d32b7e60424e9628e0b340c070260520ae477b88caa085a33531897145b005063d14add4f65320db953d76f9b058707c7d51a017ff70016a1de228a6b038405c0414d796167729f031791b55e734df69b4906a4178a83dbe63c4f842100dcea286d38f5ff4953f30522cf90605fa831156701321b27aaa004ca9ecb6a7c06d79e5e0eaf1a15280396419929d7949d6a801a6909c145c8eef6a4043100fd7abc461df4e496a25898cab0c6ea88cdd94cf90bee6f3c5f418d1097c50c4698d535edb33bd7293103532f27101965dd16442e59d40670faf5ebb142e4004e829f8a5213c42535ab84aa40bd4adcce9cba020b76bf0abd20f1e0155ce40a62615a90a709a6c3d80347b464edb8dc9bc67b5cd4c9310bb87b773845bd0098433581b5420bc67fc5fd2b5f9dd3e7ca43140b016d6c60303d09886c30e789bed4bd36e86ee342b603698dc45e4f10966f6d1d98e3bfd7071d8144c2330076fc8dbf2022ee75612cb74ec80caf6b3ccffb2301075e82a2557d30fba2f8226f2f110145000ccbea03768be13e1680b5ebe0024c42c896e3db59ec0149006d6391b9bd02eefa00fa711fb1cb828a6471d283010ea13439f0818bd0598c002d9337374a78d5fe47039a26f5433671751c3276a065f57e5a02d281797300377feeed4820b3b28d1ab429509e7a0789824fca01b211a9ddff3a10806c8fdb92dbc4c34596a23f840b4ed4e862860bed51a9570b96d89af5e1b0efefed00c9034c3e7f58003e6ae0c8438e7c8f4598d5acaa037c327d692b72f60b28aecedbcc1ba784712fe7b2012e1d332893dc16124194e598a29866d2d5e8786b00d33805985642fa9338e1fa150ca811406f96f0de01710bb26a5ff62a1920daa52a97ee3641bb66ba5903fea9dcdc9e23a9068bf557ad5b186675c61d33ea00f4348227607b166917b9f50cf51979e376995b73036ee3a6660ef15db2842f03fa6f50b65d3d49ccce035b8f638330d7d6bd9d43811fe702f6894e97ef0300bde5099dc934631aea697b4c13d7da26ac675986012e5a4235e3f8dd0230e25038147ad9cf800c1af703000000000000000000000000000000","maxFeePerGas":"0xa34090","maxPriorityFeePerGas":"0x186a0","nonce":"0x182cf6","r":"0xa48d6a555ce85d0f4ca0d8f5536a6349510c3bfe3fff534b44d45b030c23c2b0","s":"0x319846ca232292c4aeba87bf984849ff74964c67d9e1517cb086655df02fd35f","to":"0xce4cf0d5da97b7f4de1ba76609f2a1330411e7c0","transactionIndex":"0x43","type":"0x2","v":"0x0","value":"0x0","yParity":"0x0"},{"accessList":[],"blockHash":"0x42611e5551d7ac97ee7d8558e3c78fce73dae8916ab03507de3fd4817dbbb01c","blockNumber":"0xf38b40","chainId":"0x2105","from":"0x5ff3ed27674826ace64d3fa8354605943827f4a0","gas":"0x565ae","gasPrice":"0x525fbb","hash":"0x6922f07fd118deb121e451a40ef8ec67190b76d4f1cc187cdd7d9e45baeb17fd","input":"0x3593564c000000000000000000000000000000000000000000000000000000000000006000000000000000000000000000000000000000000000000000000000000000a0000000000000000000000000000000000000000000000000000000006671747d000000000000000000000000000000000000000000000000000000000000000300060400000000000000000000000000000000000000000000000000000000000000000000000000000000000000000000000000000000000000000000000003000000000000000000000000000000000000000000000000000000000000006000000000000000000000000000000000000000000000000000000000000001a000000000000000000000000000000000000000000000000000000000000002200000000000000000000000000000000000000000000000000000000000000120000000000000000000000000000000000000000000000000000000000000000200000000000000000000000000000000000000000000000000000000ee6b280000000000000000000000000000000000000000000000001ffc50d993b47c480100000000000000000000000000000000000000000000000000000000000000a000000000000000000000000000000000000000000000000000000000000000010000000000000000000000000000000000000000000000000000000000000042833589fcd6edb6e08f4c7c32d4f71b54bda029130000644200000000000000000000000000000000000006000bb896419929d7949d6a801a6909c145c8eef6a40431000000000000000000000000000000000000000000000000000000000000000000000000000000000000000000000000000000000000000000000000006000000000000000000000000096419929d7949d6a801a6909c145c8eef6a404310000000000000000000000005d64d14d2cf4fe5fe4e65b1c7e3d11e18d4930910000000000000000000000000000000000000000000000000000000000000019000000000000000000000000000000000000000000000000000000000000006000000000000000000000000096419929d7949d6a801a6909c145c8eef6a40431000000000000000000000000000000000000000000000000000000000000000100000000000000000000000000000000000000000000001ffc50d993b47c4801","maxFeePerGas":"0xf41d88","maxPriorityFeePerGas":"0x186a0","nonce":"0x2a","r":"0xd9e28478849f18a6d5a9d855e19d62309f07228ae745c73224e2b13f153c386a","s":"0x49a4a17a0cb87adfd588df0a037e735f9aaf0a273dc1b636aab68196a25978f3","to":"0x3fc91a3afd70395cd496c647d5a6cc9d4b2b7fad","transactionIndex":"0x44","type":"0x2","v":"0x1","value":"0x0","yParity":"0x1"},{"accessList":[],"blockHash":"0x42611e5551d7ac97ee7d8558e3c78fce73dae8916ab03507de3fd4817dbbb01c","blockNumber":"0xf38b40","chainId":"0x2105","from":"0xc5bb98283ad588d34049f605e0aea57b4090d333","gas":"0x6fe9","gasPrice":"0x525fbb","hash":"0x522e28538fe877717da46f5e9fcc90702de96bdc309953a2cd265b7bbae8fd06","input":"0x5b7d7482000000000000000000000000000000000000000000000000000000000000004000000000000000000000000000000000000000000000000000000000000000a0000000000000000000000000000000000000000000000000000000000000004038323932383266613438383939366432653030343936666266363732396130393762393735643833653139373730326230633438656436663062643037393832000000000000000000000000000000000000000000000000000000000000004039646562326434666137353131336534373765633262626435623631633661633536303234353464343032656530366133356462343830363763626231626461","maxFeePerGas":"0xf29608","maxPriorityFeePerGas":"0x186a0","nonce":"0x32","r":"0xfa2051b483ed7cb36c7b1cfd894da10f34cd857b9663f7a747dd493ef493465c","s":"0x2cec53f2af4b4ccc6edce3d9b5501e2e7368ff08d12ebce64b93201f5ae21b0a","to":"0x47fbe95e981c0df9737b6971b451fb15fdc989d9","transactionIndex":"0x45","type":"0x2","v":"0x1","value":"0x0","yParity":"0x1"},{"blockHash":"0x42611e5551d7ac97ee7d8558e3c78fce73dae8916ab03507de3fd4817dbbb01c","blockNumber":"0xf38b40","chainId":"0x2105","from":"0x84032c3a46e6d14eb7249f6ec90e28a5a3948c4b","gas":"0x3567e0","gasPrice":"0x52308e","hash":"0x01ad9bce4bcdce7e76d38a27fe78bd416c29e443e3d2710fdb2f1514b7e4c320","input":"0x0100007c327d692b72f60b28aecedbcc1ba784712fe7b202020000000000000000000000000000000000000000000024d5889f13dec49b54b10100000000000000000000000000000000000000000000000005ccbf797173c70b000004263ea0a3cf3845fc52a30c6e81dbd985b7290fbf030200000000000000000000000000000000000000000002ac1671cc4b00c1d82fa501000000000000000000000000000000000000000000029684f4caa66dc555ec820000093f413fccaea59b8053d605aea7ae847c02ed5d9502020000000000000000000000000000000000000000000e19456200bd180839d0b401000000000000000000000000000000000000000000000004d4791c521c08d1810000027f670f78b17dec44d5ef68a48740b6f8849cc2e6150200000000000000000000000000000000000000000000003a83472e06dbd1ceb10000000000000000000000000000000000000000000003cd7ab5549431b1b8b51801000598433581b5420bc67fc5fd2b5f9dd3e7ca43140b0202000000000000000000000000000000000000000000000000006ebac5c85a293201000000000000000000000000000000000000000000000004fd9c0566ef76f5d7000010f65bb528ced09008603509c3fda43e1ccfddf9350202000000000000000000000000000000000000000000000004dcadaf81825389b901000000000000000000000000000000000000000008540f1c55b81f1c6f2e7c86000011b34380ba6a17b022782c7fc91e319c10c168fb980202000000000000000000000000000000000000000000000f68acb8d9b37d5efcdd01000000000000000000000000000000000000000000000000250338a18e18077d000014e902ef54e437967c8b37d30e80ff887955c90db6020200000000000000000000000000000000000000000000000010230398ba4710240000000000000000000000000000000000000000000000000000000000ec17cc2901001758342c302dd4df0531f60dd3c0eabb0c95ac08cb030200000000000000000000000000000000000043cfdf0c7102e3b316fbe54be69801000000000000000000000000000000000000437085ae47ecb6057943920392950000193f66eb6fb8a60bc51d531a0e3adb7e1f620fa4490302000000000000000000000000000000000000000005dc106a055cf619a42c853c00000000000000000000000000000000000000000005e51aec3636d9fecfad5c8101001b3bc5180d5439b500f381f9a46f15dd6608101671030200000000000000000000000000000000000000139acc99da2bdbe84f687a00c101000000000000000000000000000000000000001359b494e07e5f55be9e70628600000f20000fbfedfd172821821c9c59284129b04ffb2e15020000000000000000000000000000000000000000000000059b50564f05ac7ef001000000000000000000000000000000000000000009a6923fb156657c081a87db00001d17cf4abb54a9d18c90fa0e36b8669ab0f4936f2e1502000000000000000000000000000000000000000014701e2494bd1d5ed21ce5c901000000000000000000000000000000000000000000000001cf949d69d6e2eb9f0000206d33206adb1462992c642ba5dd4f4e16beb4d04703020000000000000000000000000000000000000902ccc3488d7f2faf16cba6454b000000000000000000000000000000000000000910b4041a0141368b35a6eedfdd010021bc7f4ccdb99abea6f2bd188f2eab0eabdc1be36102020000000000000000000000000000000000000000005cf0ba1cfa5461d73815270100000000000000000000000000000000000000000000000043000d72e1db8d8b00002388a43bbdf9d098eec7bceda4e2494615dfd9bb9c02020000000000000000000000000000000000000000000000000000018ab46f307e0100000000000000000000000000000000000000000000001afbfd62167ee910fa000027fe83058f06869da5d70a1355dca64c873480ab1d02020000000000000000000000000000000000000051ff59680009fe883f26ae1115010000000000000000000000000000000000000000000000020809b877bc0fcb2e00002acc4fab1466f0acf4c837216096a55924057252e40302000000000000000000000000000000000000000000b49266a414246a1a6de27e01000000000000000000000000000000000000000000b23ad83286262f4a6b69ea00002cbeaab7dbfa682636fb855ac19ea583eb0647885203020000000000000000000000000000000000000407af8e0c53269ca2f5f490213200000000000000000000000000000000000000041a82cb7290e4c05c38d72d05b801002d0197b7c77f8ecb9857f110e59bdfb401471ddd95030200000000000000000000000000000000000000000040936ffac2179550610b8b0000000000000000000000000000000000000000000040b60a2c7609fd0424cf4a010030cc28456d4ff980cee3457ca809a257e52cd9cdb00302000000000000000000000000000000000000000000842556e207384ff48c2afc0000000000000000000000000000000000000000000085e1df1a9bdcea74c70173010032e745a591970e0fa981204cf525e170a2b9e4fb9303020000000000000000000000000000000000000000000c1db35525cdc2b12642fa000000000000000000000000000000000000000000000c52d884937d6a9500b51301000eb14e941d34d61ae251ccc08ac15b8455ae9f60a503020000000000000000000000000000000000000000008e1275678dcf2a7f9f3b960000000000000000000000000000000000000000000091649687aafdc46a7e995d01000cb2cc224c1c9fee385f8ad6a55b4d94e92359dc59210200000000000000000000000000000000000000000003d38e3fe1d6b7a55cdca60100000000000000000000000000000000000000000003d2ac9ebe8d0810281be90000337919a2dd8ee4b77ecb11ecf2222aa843fab8621315020000000000000000000000000000000000000000000000001b7ce86c49919862000000000000000000000000000000000000000004558d02e708af2b907ad544d9010034bb261929f33b69c201c8855bafdc341e1f0dda2302020000000000000000000000000000000000000000003148dfebc258fb324edda6000000000000000000000000000000000000000000000000019cec0aa76f7de072010036139e9f235588a9720e7eab045da29dc781c4b65815020000000000000000000000000000000000000000069a06b582b00a8a8da123af0100000000000000000000000000000000000000000000000646b4f5f688842df30000388eb9437532fac8d6a7870f3f887b7978d20355fc030200000000000000000000000000000000000095367678ee8a70c4e98eb79a7b3f010000000000000000000000000000000000009347075a39b374084071261521c900003b873d3c477bbaed55859c46e43fdac6e73120f80c030200000000000000000000000000000000000000344ffbf8ebc4c65ce42d4b1585000000000000000000000000000000000000000034a0b2ff4a98022bdbb50b2cb201003ccb4aaa0b65c143b67021549de5dee6f0c842196603020000000000000000000000000000000000000000125b3a1318d158f96025429501000000000000000000000000000000000000000012070447050a3782c8cc30ad0000400bf0755c5b1429bf36ac793a593eaa1b3f4fdb9c030200000000000000000000000000000000000000083402f3fd95acfcbd675835d200000000000000000000000000000000000000000850e241d2546b3ff88509c93901004139a72b1292aaed73b9b5633e14f88fe9a89f400b020200000000000000000000000000000000000000000000973fc208404ac98ff80d00000000000000000000000000000000000000000000000005426a7c5980b1a6d00100468cfaf29a874eb387fb8d01bc96b7b0b5c2bbb35f0202000000000000000000000000000000000000000000000001255d6c1e3e8f4db9000000000000000000000000000000000000000000002f8cbba9be5bfcb168a114010013404e927b203375779a6abd52a2049ce0adf6609b0202000000000000000000000000000000000000000000109c714ce6175a54583ced01000000000000000000000000000000000000000000000027e3196aa8c908ed8b00000b5e14319d52c9c18a04bfbbe12dd3a0fe3c1a816a150200000000000000000000000000000000000000000004b150ef32abb05e3d4162010000000000000000000000000000000000000000000000019894c3a40c49e3e70000470b8a73dcc8355d0d778f3d33d7d859b1d6a6ccd402020000000000000000000000000000000000000000006022632a079092da9ecf8200000000000000000000000000000000000000000000000001de98d6d2bdc8e7000100491d3d7e2d236b546247c5717d18f581c28f34792d030200000000000000000000000000000000000000000000021048268d101ea04a570000000000000000000000000000000000000000000000021b0fdf99b278e047b401004c4a311ac4563abc30e71d0631c88a6232c1309ac515020000000000000000000000000000000000000000000000099f3631e64a25b5c101000000000000000000000000000000000000000aa2d96e131e1560a6521d453d00004d152f55611636a3e6273d1367f6e0360abad7d319150200000000000000000000000000000000000000000000193fa7b033ed99afff0d0100000000000000000000000000000000000000000000000351e1cb994472d8aa000050300f27416574d6a5fc071c5894eb91876ff6be9c0202000000000000000000000000000000000000000000004b56603064b849b0b9800100000000000000000000000000000000000000000000000005c20fc194fa592a000052ef24722d5dae32dc155d961561cffbc5f347eee70202000000000000000000000000000000000000000000000000000000494faa57790100000000000000000000000000000000000000000000000502948aea3a87d09f00004bc5c5f65927a4011864fcb261d7499267e101118f030200000000000000000000000000000000000000000000f0f7da5472408b7c6d870000000000000000000000000000000000000000000000f5dc5dbb2a85b6ef39440100538f5f1d63599362115e7f9fe71bfd5ab883d82c8215020000000000000000000000000000000000000000015e506fff67484e12be576401000000000000000000000000000000000000000000000006ede57f4467b7609c000055958682ec6282bc7e939fa8ba9397805c214c3a0915020000000000000000000000000000000000000000000000000002b6d5131cdad401000000000000000000000000000000000000000000000000000001f6cf59abb300000a96e727835c5ec965aae8cbbad34901e3be33befb030200000000000000000000000000000000000001b11d1277423f10b431096904cf0000000000000000000000000000000000000001b9e85368ad1d872f455b1cf101010057f89042057d079debe2a65a1a899e48e0e825105f1502000000000000000000000000000000000000000000ee1aead782117609317adf01000000000000000000000000000000000000000000000003da2e34ac1e99121e00005a2c4909355b0c036840819484c3a882a95659abf3150200000000000000000000000000000000000000000030456ad4f3c35ab175e2d90100000000000000000000000000000000000000000000000799c3a912e25abec300005b68187f6d1b5fb20b03b994978e9664b57099ba3c02020000000000000000000000000000000000000000002843f9f36d35353403f7650100000000000000000000000000000000000000000000000130e1b6ee1bcc9d6400005d42e8dc1b1891c103291ec01d903451e729daaacc1502000000000000000000000000000000000000000000000321c84174dd963c2708000000000000000000000000000000000000000000000000000000000e41e7266c010061f3c7b93db3f28580b0fd10365e619eedceb40e760302000000000000000000000000000000000000010da2dda39a56021c545bb847ba0000000000000000000000000000000000000001112de8982979e5531aed6c4a0d01006269979d7a2c9697ea27a565a8835ade3b566edf6e1f0200000000000000000000000000000000000000a3fae72ad4c7052b4f643c3e3a0000000000000000000000000000000000000000a645f70aca7fa86a87877aed07010063dc9bf303e72a5780c45d53fc12799164e5ba82710302000000000000000000000000000000000000000000d634156cdec95409b5988500000000000000000000000000000000000000000000d8b6bfe1005c876e440339010065d09fbc1a96a54b6fe53cc26f7658a5d164abc7f3020200000000000000000000000000000000000000000052097e422343ee4172caaf0100000000000000000000000000000000000000000000000031e62f0df45420b60000678e0a7d4018fb2674346d5742055174f899fe18260302000000000000000000000000000000000000000000cfce0c5d83d92703fd768800000000000000000000000000000000000000000000d4062f258ef64552b867430100696fd34677ecdfae4cae732a5b22f1a3082917eb15030200000000000000000000000000000000000000876a103d4a9bcc7894ec8a15c0010000000000000000000000000000000000000082ff898f729b07eb6994c4af1d00006cda679706ff21114ac9fac5198bff24543f357a16030200000000000000000000000000000000000000174cbd079e49f66fccf923cdd60000000000000000000000000000000000000000180351e8101d3467c68ce83db001006e14d92a7e0b39594a24e1433af564b47d7f1354f00202000000000000000000000000000000000000000000000001edf422665de82faa0000000000000000000000000000000000000000000183a235189ba5e34b22f912010070a5c7015c81d2280032b031406048c75696ba77d502020000000000000000000000000000000000000000000000024ea69d48262795d800000000000000000000000000000000000000000000026f7ac3ab0c3487a7994801007216905890a1d02b6f824387419319bf4188b961b0020200000000000000000000000000000000000000000000000984a8b0ba0e31e093000000000000000000000000000000000000000000000cad39a6c5f45302e9fa1201007543ae5406ebe54c2383ba34021c65ef94b9ad5f22030200000000000000000000000000000000005e311ab13a8b1675b9e72de350a9810000000000000000000000000000000000005f7a2e94485a72ce7e63d00f1f74a40100772f8818d1b0f3e3e295440c1c0cddf40aaa21fa8702020000000000000000000000000000000000000000000000000000000109240bda0100000000000000000000000000000000000000000000000012201e97ddeb1989000079b16d2257643fdbb32d12b9d73fab784eb4f1bee40202000000000000000000000000000000000000000000000000035e955e648ac03e0000000000000000000000000000000000000000000000000000000000314c2faa01007b54cd16e80d9c2b553701463f1b70626202b0ad9f02020000000000000000000000000000000000000000000000f97e0187f95a988a8f000000000000000000000000000000000000000000000000004d9e612f5bb0a9c701007dfffed65c9fdaf0818867e8b6d841fdb0631bc2230202000000000000000000000000000000000000000000000001f4041788af07101100000000000000000000000000000000000000000000184bafbcad0fe913e940cd01007ea555149210075702a734968f338d5e1cbd509354030200000000000000000000000000000000000000321939153878907019b157724b01000000000000000000000000000000000000003172e13d10288aa567d1f7fee5000037ade9bcd4b968ee26bed102dd43a55f6a8c2416df0302000000000000000000000000000000000000108ac05e5d1de31bcf85132946ea01000000000000000000000000000000000000103edd5c973febfb72011ff5ce6f000081d22586e6f068718fb92b7eecfc0a2c918e7b9a70020200000000000000000000000000000000000000000000000000002f1c7b5413a20100000000000000000000000000000000000000000000000192d0a977d8c84e4500","nonce":"0x17a75","r":"0xb36730ae8e709839a648cbeb1adbed796437412fe415313fdd444966909fbe5a","s":"0x148310e11cb66b334cf9532d03b828acc3383fb20e74f27e6a7f32a512d0dd0b","to":"0xd32aea507fac657b60773723c5933dc39225a46c","transactionIndex":"0x46","type":"0x0","v":"0x422e","value":"0x0"},{"blockHash":"0x42611e5551d7ac97ee7d8558e3c78fce73dae8916ab03507de3fd4817dbbb01c","blockNumber":"0xf38b40","chainId":"0x2105","from":"0x00cb31d1d0f89b8bde57382d76b152e55295a54c","gas":"0x16e360","gasPrice":"0x521a9f","hash":"0xe5bf9c40abc1423cc53e0b9b2e06b8521f5364cd95f512d2444589a98e609ba5","input":"0xc7d9a6fb0000000000000000000000000000000000000000000000000000000000000032","nonce":"0x126cea","r":"0x71d46bf51a81d4213decf898cbbb3768ec2fe4ba14a862f67bdac2b71fb73089","s":"0x7f86af0a9c2b2c9a4c73009affb9b2d449f90c3ccf80f098cc2ff5f14f70b5e5","to":"0xac21e6333ba4fc1dcd650f215bc38bf585ab13c9","transactionIndex":"0x47","type":"0x0","v":"0x422e","value":"0x0"},{"accessList":[],"blockHash":"0x42611e5551d7ac97ee7d8558e3c78fce73dae8916ab03507de3fd4817dbbb01c","blockNumber":"0xf38b40","chainId":"0x2105","from":"0xa8fd98c5f4b9e99559342fb89454ee86aca7f941","gas":"0x1b0ab","gasPrice":"0x50dd03","hash":"0x3ba62e24b098bb0874e921234b7fb35e80959af7270f5f9bd0f0bc36d0b86474","input":"0xa9059cbb00000000000000000000000000000000000000000000000000000000000000a0000000000000000000000000000000000000000000000000000000000000012000000000000000000000000000000000000000000000000000000000000001a0000000000000000000000000000000000000000000000000000000000000022000000000000000000000000000000000000000000000000000000000000002a00000000000000000000000000000000000000000000000000000000000000003000000000000000000000000f70da97812cb96acdf810712aa562db8dfa3dbef0000000000000000000000003304e22ddaa22bcdc5fca2269b418046ae7b566a000000000000000000000000f70da97812cb96acdf810712aa562db8dfa3dbef00000000000000000000000000000000000000000000000000000000000000030000000000000000000000005a0336becc11c26660e1607c44efbf748931bfb3000000000000000000000000630af60f08874d0c12da6f9aa9f25c0f854b4a1c000000000000000000000000871004d5020fb2d879478111dfe46ec1d6ac6214000000000000000000000000000000000000000000000000000000000000000300000000000000000000000013c2d208dd5af367a3895f625ad9bce1577de2e000000000000000000000000013c2d208dd5af367a3895f625ad9bce1577de2e000000000000000000000000013c2d208dd5af367a3895f625ad9bce1577de2e0000000000000000000000000000000000000000000000000000000000000000300000000000000000000000000000000000000000000000000000000000d279400000000000000000000000000000000000000000000000000000000012f3d000000000000000000000000000000000000000000000000000000000007439abf0000000000000000000000000000000000000000000000000000000000000000","maxFeePerGas":"0x8d9cff","maxPriorityFeePerGas":"0x3e8","nonce":"0xf995","r":"0xed84c2b21bd3fb7b384140942bfe97ee517759db1adb9a68fe53ffe4a185d973","s":"0x7416fd2cd766db8c043439fc0a85423394e9a2e9a93a8672171b2be939c1ba31","to":"0xa9c79c1725354b6bd8b58d9754918679931dba80","transactionIndex":"0x48","type":"0x2","v":"0x0","value":"0x0","yParity":"0x0"}],"transactionsRoot":"0x31686a930828a1d7722903493065114cad7b6065b39c615e0e8b21d328d8a57f","uncles":[],"withdrawals":[],"withdrawalsRoot":"0x56e81f171bcc55a6ff8345e692c0f86e5b48e01b996cadc001622fb5e363b421"},"id":
        0}

        '
    headers:
      CF-RAY:
      - 9f2c58145eae4579-MAD
      Cache-Control:
      - max-age=0, private, must-revalidate
      Connection:
      - keep-alive
      Content-Type:
      - application/json; charset=utf-8
      Date:
      - Mon, 27 Apr 2026 08:09:16 GMT
      Nel:
      - '{"report_to":"cf-nel","success_fraction":0.0,"max_age":604800}'
      Report-To:
      - '{"group":"cf-nel","max_age":604800,"endpoints":[{"url":"https://a.nel.cloudflare.com/report/v4?s=myzmqKZ0w5CVEGW00qH99paE9Is6p880nw53yO8CuctPvswNYzxlBHq%2F4WJ9K5qQYVbfAgkGexRnYh7MGGrecfBZbsFVBghhmzUhtFv1AfGdOD1oTkG7P2ak9%2BmYipv8exD1Sg%3D%3D"}]}'
      Server:
      - cloudflare
      alt-svc:
      - h3=":443"; ma=86400
      cf-cache-status:
      - DYNAMIC
      content-length:
      - '126250'
      strict-transport-security:
      - max-age=31536000; includeSubDomains
      vary:
      - accept-encoding
      x-credits-remaining:
      - '99960'
      x-ratelimit-limit:
      - '5'
      x-ratelimit-remaining:
      - '3'
      x-ratelimit-reset:
      - '655'
      x-request-id:
      - c0918443a344fb83cffe3146f19250e3
    status:
      code: 200
      message: OK
- request:
    body: '{"id": 0, "jsonrpc": "2.0", "method": "eth_getTransactionReceipt", "params":
      ["0x6f22fe65f25aa9e68e4fc8b43d742da52318259531c02c7369342e19a67a0227"]}'
    headers:
      Accept:
      - '*/*'
      Accept-Encoding:
      - gzip, deflate
      Connection:
      - keep-alive
      Content-Length:
      - '148'
      Content-Type:
      - application/json
      User-Agent:
      - rotki/1.42.2.dev317+g7a75c36007
    method: POST
    uri: https://api.blockscout.com/8453/json-rpc
  response:
    body:
      string: '{"jsonrpc":"2.0","result": {"blockHash":"0x42611e5551d7ac97ee7d8558e3c78fce73dae8916ab03507de3fd4817dbbb01c","blockNumber":"0xf38b40","contractAddress":null,"cumulativeGasUsed":"0x912836","effectiveGasPrice":"0x525fbb","from":"0xddc68f9de415ba2fe2fd84bc62be2d2cff1098da","gasUsed":"0x8dbee","logs":[{"address":"0x46415998764c29ab2a25cbea6254146d50d22687","blockHash":"0x42611e5551d7ac97ee7d8558e3c78fce73dae8916ab03507de3fd4817dbbb01c","blockNumber":"0xf38b40","data":"0x00000000000000000000000000000000000000000000000000000000340e5e30000000000000000000000000000000000000000000000000000000000d5107eb","logIndex":"0xa2","removed":false,"topics":["0x7120161a7b3d31251e01294ab351ef15a41b91659a36032e4641bb89b121e321","0xdba352d93a64b17c71104cbddc6aef85cd432322a1446b5b65163cbbc615cd0c"],"transactionHash":"0x6f22fe65f25aa9e68e4fc8b43d742da52318259531c02c7369342e19a67a0227","transactionIndex":"0x39"},{"address":"0xbbbbbbbbbb9cc5e90e3b3af64bdaf62c37eeffcb","blockHash":"0x42611e5551d7ac97ee7d8558e3c78fce73dae8916ab03507de3fd4817dbbb01c","blockNumber":"0xf38b40","data":"0x00000000000000000000000000000000000000000000000000000000340e5e3000000000000000000000000000000000000000000000000000000000000009ba0000000000000000000000000000000000000000000000000000000000000000","logIndex":"0xa3","removed":false,"topics":["0x9d9bd501d0657d7dfe415f779a620a62b78bc508ddc0891fbbd8b7ac0f8fce87","0xdba352d93a64b17c71104cbddc6aef85cd432322a1446b5b65163cbbc615cd0c"],"transactionHash":"0x6f22fe65f25aa9e68e4fc8b43d742da52318259531c02c7369342e19a67a0227","transactionIndex":"0x39"},{"address":"0xbbbbbbbbbb9cc5e90e3b3af64bdaf62c37eeffcb","blockHash":"0x42611e5551d7ac97ee7d8558e3c78fce73dae8916ab03507de3fd4817dbbb01c","blockNumber":"0xf38b40","data":"0x00000000000000000000000020e74013d82fea853afca3b4cb1fd9c2b105f55a00000000000000000000000000000000000000000000000000038d7ea4c68000","logIndex":"0xa4","removed":false,"topics":["0xe80ebd7cc9223d7382aab2e0d1d6155c65651f83d53c8b9b06901d167e321142","0xdba352d93a64b17c71104cbddc6aef85cd432322a1446b5b65163cbbc615cd0c","0x00000000000000000000000020e74013d82fea853afca3b4cb1fd9c2b105f55a","0x00000000000000000000000020e74013d82fea853afca3b4cb1fd9c2b105f55a"],"transactionHash":"0x6f22fe65f25aa9e68e4fc8b43d742da52318259531c02c7369342e19a67a0227","transactionIndex":"0x39"},{"address":"0x2ae3f1ec7f1f5012cfeab0185bfc7aa3cf0dec22","blockHash":"0x42611e5551d7ac97ee7d8558e3c78fce73dae8916ab03507de3fd4817dbbb01c","blockNumber":"0xf38b40","data":"0x00000000000000000000000000000000000000000000000000038d7ea4c68000","logIndex":"0xa5","removed":false,"topics":["0xddf252ad1be2c89b69c2b068fc378daa952ba7f163c4a11628f55a4df523b3ef","0x000000000000000000000000bbbbbbbbbb9cc5e90e3b3af64bdaf62c37eeffcb","0x00000000000000000000000020e74013d82fea853afca3b4cb1fd9c2b105f55a"],"transactionHash":"0x6f22fe65f25aa9e68e4fc8b43d742da52318259531c02c7369342e19a67a0227","transactionIndex":"0x39"},{"address":"0x2ae3f1ec7f1f5012cfeab0185bfc7aa3cf0dec22","blockHash":"0x42611e5551d7ac97ee7d8558e3c78fce73dae8916ab03507de3fd4817dbbb01c","blockNumber":"0xf38b40","data":"0x00000000000000000000000000000000000000000000000000038d7ea4c68000","logIndex":"0xa6","removed":false,"topics":["0xddf252ad1be2c89b69c2b068fc378daa952ba7f163c4a11628f55a4df523b3ef","0x00000000000000000000000020e74013d82fea853afca3b4cb1fd9c2b105f55a","0x000000000000000000000000ddc68f9de415ba2fe2fd84bc62be2d2cff1098da"],"transactionHash":"0x6f22fe65f25aa9e68e4fc8b43d742da52318259531c02c7369342e19a67a0227","transactionIndex":"0x39"},{"address":"0x20e74013d82fea853afca3b4cb1fd9c2b105f55a","blockHash":"0x42611e5551d7ac97ee7d8558e3c78fce73dae8916ab03507de3fd4817dbbb01c","blockNumber":"0xf38b40","data":"0x00000000000000000000000000000000000000000000000000000000000000200000000000000000000000000000000000000000000000000000000000000009000000000000000000000000000000000000000000000000000000000000012000000000000000000000000000000000000000000000000000000000000002a000000000000000000000000000000000000000000000000000000000000004c00000000000000000000000000000000000000000000000000000000000000620000000000000000000000000000000000000000000000000000000000000086000000000000000000000000000000000000000000000000000000000000009c00000000000000000000000000000000000000000000000000000000000000b000000000000000000000000000000000000000000000000000000000000000d000000000000000000000000000000000000000000000000000000000000000e6098203051894747605630ba7bcee424c0ec4e2f7d74e8e9d5a195b7eeba3cbd100000000000000000000000000000000000000000000000000000000000000060000000000000000000000000000000000000000000000000000000000000000100000000000000000000000000000000000000000000000000000000000000e485e92d98000000000000000000000000000000000000000000000000000000000000004000000000000000000000000000000000000000000000000000000000000000c00000000000000000000000000000000000000000000000000000000000000060000000000000000000000000833589fcd6edb6e08f4c7c32d4f71b54bda02913000000000000000000000000ddc68f9de415ba2fe2fd84bc62be2d2cff1098da000000000000000000000000000000000000000000000000000000000000000000000000000000000000000000000000000000000000000000000000000000000000000000000000000000000000000000000000000000000000000036303c18db5a95d0dd17b9bac9bc1dbd0130264cd8a04fb5e9b427a3a03ad49e00000000000000000000000000000000000000000000000000000000000000600000000000000000000000000000000000000000000000000000000000000001000000000000000000000000000000000000000000000000000000000000018485e92d98000000000000000000000000000000000000000000000000000000000000004000000000000000000000000000000000000000000000000000000000000000e00000000000000000000000000000000000000000000000000000000000000080000000000000000000000000833589fcd6edb6e08f4c7c32d4f71b54bda02913000000000000000000000000bbbbbbbbbb9cc5e90e3b3af64bdaf62c37eeffcb000000000000000000000000000000000000000000000000000000000000000000000000000000000000000000000000000000000000000000000000000000000000000000000000000000000000000000000000000000000000000000000004000000000000000000000000000000000000000000000000000000000000000000000000000000000000000000000000000000000000000000000000000000000000000000000000000000000000000000000000000000000000000000000000000000000000000000000000000000000000000000000000000000000000000000000000000000000000000000000000000000000000000000000000ae6d6b87bd69704c742ef3ff051d31d411798b8403cab6cb2d94a7ba91661f7d0000000000000000000000000000000000000000000000000000000000000060000000000000000000000000000000000000000000000000000000000000000100000000000000000000000000000000000000000000000000000000000000c485e92d9800000000000000000000000000000000000000000000000000000000000000400000000000000000000000000000000000000000000000000000000000000080000000000000000000000000000000000000000000000000000000000000002000000000000000000000000000000000000000000000000000000000000000000000000000000000000000000000000000000000000000000000000000000001000000000000000000000000000000000000000000000000000000000000000000000000000000000000000000000000000000000000000000000000ca8b1df9badec7f65f2e427ee80179f2807ed58d10408e980112dd70b583f8060000000000000000000000000000000000000000000000000000000000000060000000000000000000000000000000000000000000000000000000000000000100000000000000000000000000000000000000000000000000000000000001a485e92d98000000000000000000000000000000000000000000000000000000000000004000000000000000000000000000000000000000000000000000000000000001600000000000000000000000000000000000000000000000000000000000000100000000000000000000000000833589fcd6edb6e08f4c7c32d4f71b54bda029130000000000000000000000002ae3f1ec7f1f5012cfeab0185bfc7aa3cf0dec220000000000000000000000004756c26e01e61c7c2f86b10f4316e179db8f942500000000000000000000000046415998764c29ab2a25cbea6254146d50d226870000000000000000000000000000000000000000000000000bef55718ad600000000000000000000000000000000000000000000000000000000000000000000000000000000000000000000000000000000000000000000000000000000000000000000000000000000000000000000000000000000000000000000000000010000000000000000000000000000000000000000000000000000000000000001000000000000000000000000000000000000000000000000000000000000000000000000000000000000000000000000000000000000000000000000b8020e49c93f2144cdce5b93dc159b086f98dcfba95a09eec862664fbfa6a8a40000000000000000000000000000000000000000000000000000000000000060000000000000000000000000000000000000000000000000000000000000000100000000000000000000000000000000000000000000000000000000000000c485e92d98000000000000000000000000000000000000000000000000000000000000004000000000000000000000000000000000000000000000000000000000000000800000000000000000000000000000000000000000000000000000000000000020ffffffffffffffffffffffffffffffffffffffffffffffffffffffffffffffff0000000000000000000000000000000000000000000000000000000000000001000000000000000000000000000000000000000000000000000000000000000000000000000000000000000000000000000000000000000000000000166438e3cb190ad4e896f7b4bd36c98f5b7dc3f5eb885f019521b3b819bc0de80000000000000000000000000000000000000000000000000000000000000060000000000000000000000000000000000000000000000000000000000000000100000000000000000000000000000000000000000000000000000000000000a485e92d98000000000000000000000000000000000000000000000000000000000000004000000000000000000000000000000000000000000000000000000000000000800000000000000000000000000000000000000000000000000000000000000020000000000000000000000000833589fcd6edb6e08f4c7c32d4f71b54bda029130000000000000000000000000000000000000000000000000000000000000000000000000000000000000000000000000000000000000000000000005e8a8984847bce562c1ded2e66d858deb4fc1e1078bd8052d7ac568bb85704ea00000000000000000000000000000000000000000000000000000000000000600000000000000000000000000000000000000000000000000000000000000000000000000000000000000000000000000000000000000000000000000000016485e92d980000000000000000000000000000000000000000000000000000000000000040000000000000000000000000000000000000000000000000000000000000014000000000000000000000000000000000000000000000000000000000000000e0000000000000000000000000833589fcd6edb6e08f4c7c32d4f71b54bda029130000000000000000000000002ae3f1ec7f1f5012cfeab0185bfc7aa3cf0dec220000000000000000000000004756c26e01e61c7c2f86b10f4316e179db8f942500000000000000000000000046415998764c29ab2a25cbea6254146d50d226870000000000000000000000000000000000000000000000000bef55718ad6000000000000000000000000000000000000000000000000000000038d7ea4c6800000000000000000000000000020e74013d82fea853afca3b4cb1fd9c2b105f55a000000000000000000000000000000000000000000000000000000000000000000000000000000000000000000000000000000000000000000000000b8020e49c93f2144cdce5b93dc159b086f98dcfba95a09eec862664fbfa6a8a40000000000000000000000000000000000000000000000000000000000000060000000000000000000000000000000000000000000000000000000000000000100000000000000000000000000000000000000000000000000000000000000c485e92d98000000000000000000000000000000000000000000000000000000000000004000000000000000000000000000000000000000000000000000000000000000800000000000000000000000000000000000000000000000000000000000000020ffffffffffffffffffffffffffffffffffffffffffffffffffffffffffffffff0000000000000000000000000000000000000000000000000000000000000001000000000000000000000000000000000000000000000000000000000000000000000000000000000000000000000000000000000000000000000000166438e3cb190ad4e896f7b4bd36c98f5b7dc3f5eb885f019521b3b819bc0de80000000000000000000000000000000000000000000000000000000000000060000000000000000000000000000000000000000000000000000000000000000000000000000000000000000000000000000000000000000000000000000000a485e92d980000000000000000000000000000000000000000000000000000000000000040000000000000000000000000000000000000000000000000000000000000008000000000000000000000000000000000000000000000000000000000000000200000000000000000000000002ae3f1ec7f1f5012cfeab0185bfc7aa3cf0dec22000000000000000000000000000000000000000000000000000000000000000000000000000000000000000000000000000000000000000000000000","logIndex":"0xa7","removed":false,"topics":["0x71715266c730dfceca3e44620faebf315f8e7d7404b2de5f3121d0d87c17832c","0x4d6f7270686f426c75655061796261636b57697468647261775f320000000000"],"transactionHash":"0x6f22fe65f25aa9e68e4fc8b43d742da52318259531c02c7369342e19a67a0227","transactionIndex":"0x39"}],"logsBloom":"0x00100000400000000000000000000080000000001000000000000000000000000000400000000100000000000000000040000000000000000000000020805400000000000010000000000008000000000000000040000000002000080004000000000000000000000000000000000000000000000000000000000010000400000000000000000008000000000040000000000000020000000008000000080000000000000000000000000000040000000001002000000000002000010000000020000002000000000000000000000000000100000000100000000000000000000000000003000000100000200001000004000000000400000000000000000008","status":"0x1","to":"0x20e74013d82fea853afca3b4cb1fd9c2b105f55a","transactionHash":"0x6f22fe65f25aa9e68e4fc8b43d742da52318259531c02c7369342e19a67a0227","transactionIndex":"0x39","type":"0x2"},"id":
        0}

        '
    headers:
      CF-RAY:
      - 9f2c5817ca32cbcb-MAD
      Cache-Control:
      - max-age=0, private, must-revalidate
      Connection:
      - keep-alive
      Content-Type:
      - application/json; charset=utf-8
      Date:
      - Mon, 27 Apr 2026 08:09:16 GMT
      Nel:
      - '{"report_to":"cf-nel","success_fraction":0.0,"max_age":604800}'
      Report-To:
      - '{"group":"cf-nel","max_age":604800,"endpoints":[{"url":"https://a.nel.cloudflare.com/report/v4?s=goBcD9r4IcIr8Vx11zJj8b6YXlfYxxdRrLepDr3VQ9yMCLpgNUXUnUXTIbEcjdUuiLxEw%2F7plVzPpHf4B9WTNYiSUOnu6wt%2BemnIRydywA1Y2F7Hn9ztlnN1niDuLhrPbm6PLw%3D%3D"}]}'
      Server:
      - cloudflare
      alt-svc:
      - h3=":443"; ma=86400
      cf-cache-status:
      - DYNAMIC
      content-length:
      - '12836'
      strict-transport-security:
      - max-age=31536000; includeSubDomains
      vary:
      - accept-encoding
      x-credits-remaining:
      - '99940'
      x-ratelimit-limit:
      - '5'
      x-ratelimit-remaining:
      - '2'
      x-ratelimit-reset:
      - '119'
      x-request-id:
      - a6237ac3ac4c2f3ff2ac2ae597700c44
    status:
      code: 200
      message: OK
- request:
    body: null
    headers:
      Accept:
      - '*/*'
      Accept-Encoding:
      - gzip, deflate
      Connection:
      - keep-alive
      User-Agent:
      - rotki/1.42.2.dev317+g7a75c36007
    method: GET
    uri: https://api.blockscout.com/8453/api/v2/transactions/0x6f22fe65f25aa9e68e4fc8b43d742da52318259531c02c7369342e19a67a0227
  response:
    body:
      string: '{"l1_gas_used":"29128","priority_fee":"58059000000","raw_input":"0x1cff79cd000000000000000000000000b65cbf9689979e1749b38ba5d5155c70500292d800000000000000000000000000000000000000000000000000000000000000400000000000000000000000000000000000000000000000000000000000001044f1298ed7000000000000000000000000000000000000000000000000000000000000004000000000000000000000000000000000000000000000000000000000000010000000000000000000000000000000000000000000000000000000000000000009000000000000000000000000000000000000000000000000000000000000012000000000000000000000000000000000000000000000000000000000000002a000000000000000000000000000000000000000000000000000000000000004c00000000000000000000000000000000000000000000000000000000000000620000000000000000000000000000000000000000000000000000000000000086000000000000000000000000000000000000000000000000000000000000009c00000000000000000000000000000000000000000000000000000000000000b000000000000000000000000000000000000000000000000000000000000000d000000000000000000000000000000000000000000000000000000000000000e6098203051894747605630ba7bcee424c0ec4e2f7d74e8e9d5a195b7eeba3cbd100000000000000000000000000000000000000000000000000000000000000060000000000000000000000000000000000000000000000000000000000000000100000000000000000000000000000000000000000000000000000000000000e485e92d98000000000000000000000000000000000000000000000000000000000000004000000000000000000000000000000000000000000000000000000000000000c00000000000000000000000000000000000000000000000000000000000000060000000000000000000000000833589fcd6edb6e08f4c7c32d4f71b54bda02913000000000000000000000000ddc68f9de415ba2fe2fd84bc62be2d2cff1098da000000000000000000000000000000000000000000000000000000000000000000000000000000000000000000000000000000000000000000000000000000000000000000000000000000000000000000000000000000000000000036303c18db5a95d0dd17b9bac9bc1dbd0130264cd8a04fb5e9b427a3a03ad49e00000000000000000000000000000000000000000000000000000000000000600000000000000000000000000000000000000000000000000000000000000001000000000000000000000000000000000000000000000000000000000000018485e92d98000000000000000000000000000000000000000000000000000000000000004000000000000000000000000000000000000000000000000000000000000000e00000000000000000000000000000000000000000000000000000000000000080000000000000000000000000833589fcd6edb6e08f4c7c32d4f71b54bda02913000000000000000000000000bbbbbbbbbb9cc5e90e3b3af64bdaf62c37eeffcb000000000000000000000000000000000000000000000000000000000000000000000000000000000000000000000000000000000000000000000000000000000000000000000000000000000000000000000000000000000000000000000004000000000000000000000000000000000000000000000000000000000000000000000000000000000000000000000000000000000000000000000000000000000000000000000000000000000000000000000000000000000000000000000000000000000000000000000000000000000000000000000000000000000000000000000000000000000000000000000000000000000000000000000000ae6d6b87bd69704c742ef3ff051d31d411798b8403cab6cb2d94a7ba91661f7d0000000000000000000000000000000000000000000000000000000000000060000000000000000000000000000000000000000000000000000000000000000100000000000000000000000000000000000000000000000000000000000000c485e92d9800000000000000000000000000000000000000000000000000000000000000400000000000000000000000000000000000000000000000000000000000000080000000000000000000000000000000000000000000000000000000000000002000000000000000000000000000000000000000000000000000000000000000000000000000000000000000000000000000000000000000000000000000000001000000000000000000000000000000000000000000000000000000000000000000000000000000000000000000000000000000000000000000000000ca8b1df9badec7f65f2e427ee80179f2807ed58d10408e980112dd70b583f8060000000000000000000000000000000000000000000000000000000000000060000000000000000000000000000000000000000000000000000000000000000100000000000000000000000000000000000000000000000000000000000001a485e92d98000000000000000000000000000000000000000000000000000000000000004000000000000000000000000000000000000000000000000000000000000001600000000000000000000000000000000000000000000000000000000000000100000000000000000000000000833589fcd6edb6e08f4c7c32d4f71b54bda029130000000000000000000000002ae3f1ec7f1f5012cfeab0185bfc7aa3cf0dec220000000000000000000000004756c26e01e61c7c2f86b10f4316e179db8f942500000000000000000000000046415998764c29ab2a25cbea6254146d50d226870000000000000000000000000000000000000000000000000bef55718ad600000000000000000000000000000000000000000000000000000000000000000000000000000000000000000000000000000000000000000000000000000000000000000000000000000000000000000000000000000000000000000000000000010000000000000000000000000000000000000000000000000000000000000001000000000000000000000000000000000000000000000000000000000000000000000000000000000000000000000000000000000000000000000000b8020e49c93f2144cdce5b93dc159b086f98dcfba95a09eec862664fbfa6a8a40000000000000000000000000000000000000000000000000000000000000060000000000000000000000000000000000000000000000000000000000000000100000000000000000000000000000000000000000000000000000000000000c485e92d98000000000000000000000000000000000000000000000000000000000000004000000000000000000000000000000000000000000000000000000000000000800000000000000000000000000000000000000000000000000000000000000020ffffffffffffffffffffffffffffffffffffffffffffffffffffffffffffffff0000000000000000000000000000000000000000000000000000000000000001000000000000000000000000000000000000000000000000000000000000000000000000000000000000000000000000000000000000000000000000166438e3cb190ad4e896f7b4bd36c98f5b7dc3f5eb885f019521b3b819bc0de80000000000000000000000000000000000000000000000000000000000000060000000000000000000000000000000000000000000000000000000000000000100000000000000000000000000000000000000000000000000000000000000a485e92d98000000000000000000000000000000000000000000000000000000000000004000000000000000000000000000000000000000000000000000000000000000800000000000000000000000000000000000000000000000000000000000000020000000000000000000000000833589fcd6edb6e08f4c7c32d4f71b54bda029130000000000000000000000000000000000000000000000000000000000000000000000000000000000000000000000000000000000000000000000005e8a8984847bce562c1ded2e66d858deb4fc1e1078bd8052d7ac568bb85704ea00000000000000000000000000000000000000000000000000000000000000600000000000000000000000000000000000000000000000000000000000000000000000000000000000000000000000000000000000000000000000000000016485e92d980000000000000000000000000000000000000000000000000000000000000040000000000000000000000000000000000000000000000000000000000000014000000000000000000000000000000000000000000000000000000000000000e0000000000000000000000000833589fcd6edb6e08f4c7c32d4f71b54bda029130000000000000000000000002ae3f1ec7f1f5012cfeab0185bfc7aa3cf0dec220000000000000000000000004756c26e01e61c7c2f86b10f4316e179db8f942500000000000000000000000046415998764c29ab2a25cbea6254146d50d226870000000000000000000000000000000000000000000000000bef55718ad6000000000000000000000000000000000000000000000000000000038d7ea4c6800000000000000000000000000020e74013d82fea853afca3b4cb1fd9c2b105f55a000000000000000000000000000000000000000000000000000000000000000000000000000000000000000000000000000000000000000000000000b8020e49c93f2144cdce5b93dc159b086f98dcfba95a09eec862664fbfa6a8a40000000000000000000000000000000000000000000000000000000000000060000000000000000000000000000000000000000000000000000000000000000100000000000000000000000000000000000000000000000000000000000000c485e92d98000000000000000000000000000000000000000000000000000000000000004000000000000000000000000000000000000000000000000000000000000000800000000000000000000000000000000000000000000000000000000000000020ffffffffffffffffffffffffffffffffffffffffffffffffffffffffffffffff0000000000000000000000000000000000000000000000000000000000000001000000000000000000000000000000000000000000000000000000000000000000000000000000000000000000000000000000000000000000000000166438e3cb190ad4e896f7b4bd36c98f5b7dc3f5eb885f019521b3b819bc0de80000000000000000000000000000000000000000000000000000000000000060000000000000000000000000000000000000000000000000000000000000000000000000000000000000000000000000000000000000000000000000000000a485e92d980000000000000000000000000000000000000000000000000000000000000040000000000000000000000000000000000000000000000000000000000000008000000000000000000000000000000000000000000000000000000000000000200000000000000000000000002ae3f1ec7f1f5012cfeab0185bfc7aa3cf0dec22000000000000000000000000000000000000000000000000000000000000000000000000000000000000000000000000000000000000000000000000000000000000000000000000000000000000000000000000000000000000001b4d6f7270686f426c75655061796261636b57697468647261775f32000000000000000000000000000000000000000000000000000000000000000000","is_pending_update":false,"op_withdrawals":[],"result":"success","hash":"0x6f22fe65f25aa9e68e4fc8b43d742da52318259531c02c7369342e19a67a0227","max_fee_per_gas":"15998344","revert_reason":null,"confirmation_duration":[0,2.0e3],"transaction_burnt_fee":"3076232310810","type":2,"token_transfers_overflow":false,"confirmations":29283108,"position":57,"max_priority_fee_per_gas":"100000","transaction_tag":null,"created_contract":null,"value":"0","l1_fee_scalar":"0","from":{"ens_domain_name":null,"hash":"0xDDc68f9dE415ba2fE2FD84bc62Be2d2CFF1098dA","implementations":[{"address_hash":"0x63c0c19a282a1B52b07dD5a65b58948A07DAE32B","name":"EIP7702StatelessDeleGator"}],"is_contract":true,"is_scam":false,"is_verified":true,"metadata":null,"name":null,"private_tags":[],"proxy_type":"eip7702","public_tags":[],"reputation":"ok","watchlist_names":[]},"gas_used":"580590","status":"ok","to":{"ens_domain_name":null,"hash":"0x20e74013d82fea853AfCa3b4CB1Fd9C2B105F55a","implementations":[{"address_hash":"0xbFb0b82DDA093c84B00b3C3c053C5e5b2e42550f","name":"AccountImplementation"}],"is_contract":true,"is_scam":false,"is_verified":true,"metadata":null,"name":null,"private_tags":[],"proxy_type":"eip1167","public_tags":[],"reputation":"ok","watchlist_names":[]},"authorization_list":[],"l1_fee":"251851411447","method":"execute","fee":{"type":"actual","value":"3386142722257"},"actions":[],"gas_limit":"1126724","gas_price":"5398459","decoded_input":{"method_call":"execute(address
        arg0, bytes arg1)","method_id":"1cff79cd","parameters":[{"name":"arg0","type":"address","value":"0xb65Cbf9689979e1749B38Ba5D5155c70500292D8"},{"name":"arg1","type":"bytes","value":"0xf1298ed7000000000000000000000000000000000000000000000000000000000000004000000000000000000000000000000000000000000000000000000000000010000000000000000000000000000000000000000000000000000000000000000009000000000000000000000000000000000000000000000000000000000000012000000000000000000000000000000000000000000000000000000000000002a000000000000000000000000000000000000000000000000000000000000004c00000000000000000000000000000000000000000000000000000000000000620000000000000000000000000000000000000000000000000000000000000086000000000000000000000000000000000000000000000000000000000000009c00000000000000000000000000000000000000000000000000000000000000b000000000000000000000000000000000000000000000000000000000000000d000000000000000000000000000000000000000000000000000000000000000e6098203051894747605630ba7bcee424c0ec4e2f7d74e8e9d5a195b7eeba3cbd100000000000000000000000000000000000000000000000000000000000000060000000000000000000000000000000000000000000000000000000000000000100000000000000000000000000000000000000000000000000000000000000e485e92d98000000000000000000000000000000000000000000000000000000000000004000000000000000000000000000000000000000000000000000000000000000c00000000000000000000000000000000000000000000000000000000000000060000000000000000000000000833589fcd6edb6e08f4c7c32d4f71b54bda02913000000000000000000000000ddc68f9de415ba2fe2fd84bc62be2d2cff1098da000000000000000000000000000000000000000000000000000000000000000000000000000000000000000000000000000000000000000000000000000000000000000000000000000000000000000000000000000000000000000036303c18db5a95d0dd17b9bac9bc1dbd0130264cd8a04fb5e9b427a3a03ad49e00000000000000000000000000000000000000000000000000000000000000600000000000000000000000000000000000000000000000000000000000000001000000000000000000000000000000000000000000000000000000000000018485e92d98000000000000000000000000000000000000000000000000000000000000004000000000000000000000000000000000000000000000000000000000000000e00000000000000000000000000000000000000000000000000000000000000080000000000000000000000000833589fcd6edb6e08f4c7c32d4f71b54bda02913000000000000000000000000bbbbbbbbbb9cc5e90e3b3af64bdaf62c37eeffcb000000000000000000000000000000000000000000000000000000000000000000000000000000000000000000000000000000000000000000000000000000000000000000000000000000000000000000000000000000000000000000000004000000000000000000000000000000000000000000000000000000000000000000000000000000000000000000000000000000000000000000000000000000000000000000000000000000000000000000000000000000000000000000000000000000000000000000000000000000000000000000000000000000000000000000000000000000000000000000000000000000000000000000000000ae6d6b87bd69704c742ef3ff051d31d411798b8403cab6cb2d94a7ba91661f7d0000000000000000000000000000000000000000000000000000000000000060000000000000000000000000000000000000000000000000000000000000000100000000000000000000000000000000000000000000000000000000000000c485e92d9800000000000000000000000000000000000000000000000000000000000000400000000000000000000000000000000000000000000000000000000000000080000000000000000000000000000000000000000000000000000000000000002000000000000000000000000000000000000000000000000000000000000000000000000000000000000000000000000000000000000000000000000000000001000000000000000000000000000000000000000000000000000000000000000000000000000000000000000000000000000000000000000000000000ca8b1df9badec7f65f2e427ee80179f2807ed58d10408e980112dd70b583f8060000000000000000000000000000000000000000000000000000000000000060000000000000000000000000000000000000000000000000000000000000000100000000000000000000000000000000000000000000000000000000000001a485e92d98000000000000000000000000000000000000000000000000000000000000004000000000000000000000000000000000000000000000000000000000000001600000000000000000000000000000000000000000000000000000000000000100000000000000000000000000833589fcd6edb6e08f4c7c32d4f71b54bda029130000000000000000000000002ae3f1ec7f1f5012cfeab0185bfc7aa3cf0dec220000000000000000000000004756c26e01e61c7c2f86b10f4316e179db8f942500000000000000000000000046415998764c29ab2a25cbea6254146d50d226870000000000000000000000000000000000000000000000000bef55718ad600000000000000000000000000000000000000000000000000000000000000000000000000000000000000000000000000000000000000000000000000000000000000000000000000000000000000000000000000000000000000000000000000010000000000000000000000000000000000000000000000000000000000000001000000000000000000000000000000000000000000000000000000000000000000000000000000000000000000000000000000000000000000000000b8020e49c93f2144cdce5b93dc159b086f98dcfba95a09eec862664fbfa6a8a40000000000000000000000000000000000000000000000000000000000000060000000000000000000000000000000000000000000000000000000000000000100000000000000000000000000000000000000000000000000000000000000c485e92d98000000000000000000000000000000000000000000000000000000000000004000000000000000000000000000000000000000000000000000000000000000800000000000000000000000000000000000000000000000000000000000000020ffffffffffffffffffffffffffffffffffffffffffffffffffffffffffffffff0000000000000000000000000000000000000000000000000000000000000001000000000000000000000000000000000000000000000000000000000000000000000000000000000000000000000000000000000000000000000000166438e3cb190ad4e896f7b4bd36c98f5b7dc3f5eb885f019521b3b819bc0de80000000000000000000000000000000000000000000000000000000000000060000000000000000000000000000000000000000000000000000000000000000100000000000000000000000000000000000000000000000000000000000000a485e92d98000000000000000000000000000000000000000000000000000000000000004000000000000000000000000000000000000000000000000000000000000000800000000000000000000000000000000000000000000000000000000000000020000000000000000000000000833589fcd6edb6e08f4c7c32d4f71b54bda029130000000000000000000000000000000000000000000000000000000000000000000000000000000000000000000000000000000000000000000000005e8a8984847bce562c1ded2e66d858deb4fc1e1078bd8052d7ac568bb85704ea00000000000000000000000000000000000000000000000000000000000000600000000000000000000000000000000000000000000000000000000000000000000000000000000000000000000000000000000000000000000000000000016485e92d980000000000000000000000000000000000000000000000000000000000000040000000000000000000000000000000000000000000000000000000000000014000000000000000000000000000000000000000000000000000000000000000e0000000000000000000000000833589fcd6edb6e08f4c7c32d4f71b54bda029130000000000000000000000002ae3f1ec7f1f5012cfeab0185bfc7aa3cf0dec220000000000000000000000004756c26e01e61c7c2f86b10f4316e179db8f942500000000000000000000000046415998764c29ab2a25cbea6254146d50d226870000000000000000000000000000000000000000000000000bef55718ad6000000000000000000000000000000000000000000000000000000038d7ea4c6800000000000000000000000000020e74013d82fea853afca3b4cb1fd9c2b105f55a000000000000000000000000000000000000000000000000000000000000000000000000000000000000000000000000000000000000000000000000b8020e49c93f2144cdce5b93dc159b086f98dcfba95a09eec862664fbfa6a8a40000000000000000000000000000000000000000000000000000000000000060000000000000000000000000000000000000000000000000000000000000000100000000000000000000000000000000000000000000000000000000000000c485e92d98000000000000000000000000000000000000000000000000000000000000004000000000000000000000000000000000000000000000000000000000000000800000000000000000000000000000000000000000000000000000000000000020ffffffffffffffffffffffffffffffffffffffffffffffffffffffffffffffff0000000000000000000000000000000000000000000000000000000000000001000000000000000000000000000000000000000000000000000000000000000000000000000000000000000000000000000000000000000000000000166438e3cb190ad4e896f7b4bd36c98f5b7dc3f5eb885f019521b3b819bc0de80000000000000000000000000000000000000000000000000000000000000060000000000000000000000000000000000000000000000000000000000000000000000000000000000000000000000000000000000000000000000000000000a485e92d980000000000000000000000000000000000000000000000000000000000000040000000000000000000000000000000000000000000000000000000000000008000000000000000000000000000000000000000000000000000000000000000200000000000000000000000002ae3f1ec7f1f5012cfeab0185bfc7aa3cf0dec22000000000000000000000000000000000000000000000000000000000000000000000000000000000000000000000000000000000000000000000000000000000000000000000000000000000000000000000000000000000000001b4d6f7270686f426c75655061796261636b57697468647261775f320000000000"}]},"l1_gas_price":"7853195375","token_transfers":[{"block_hash":"0x42611e5551d7ac97ee7d8558e3c78fce73dae8916ab03507de3fd4817dbbb01c","block_number":15960896,"from":{"ens_domain_name":null,"hash":"0xBBBBBbbBBb9cC5e90e3b3Af64bdAF62C37EEFFCb","implementations":[],"is_contract":true,"is_scam":false,"is_verified":true,"metadata":{"tags":[{"meta":{"projectName":"Moonwell","tagUrl":"https://app.klerosscout.eth.limo/#/?registry=Single_Tags&itemdetails=0xe1de03fd86947b15c8d389957315331832348c3341c04d715687ce010e3203e7@0x66260c69d03837016d88c9877e61e08ef74c59f2","tooltipDescription":"Official
        Moonwell router for Morpho markets on Base; listed on the Moonwell Base contract
        addresses page.","tooltipUrl":"https://moonwell.fi"},"name":"Morpho Markets
        Router","ordinal":10,"slug":"morpho-markets-router-8453","tagType":"name"},{"meta":{"appID":"morpho","tagIcon
        ":"https://blockscout-icons.s3.us-east-1.amazonaws.com/OLI_tag_logo.svg","textColor":"#C163D4","tooltipAttribution":"https://www.openlabelsinitiative.org?utm_source=blockscout","tooltipAttributionIcon":"https://blockscout-icons.s3.us-east-1.amazonaws.com/OLI_tag_logo.svg","tooltipDescription":"An
        efficient, secure & flexible lending protocol on Base.","tooltipUrl":"https://morpho.org/"},"name":"Morpho:
        Morpho Blue","ordinal":10,"slug":"morpho-morpho-blue","tagType":"name"},{"meta":{"appActionButtonText":"Morpho
        Aave App","appID":"morpho-aave-app"},"name":"Morpho","ordinal":0,"slug":"morpho","tagType":"protocol"}]},"name":"Morpho","private_tags":[],"proxy_type":null,"public_tags":[],"reputation":"ok","watchlist_names":[]},"log_index":165,"method":null,"timestamp":null,"to":{"ens_domain_name":null,"hash":"0x20e74013d82fea853AfCa3b4CB1Fd9C2B105F55a","implementations":[{"address_hash":"0xbFb0b82DDA093c84B00b3C3c053C5e5b2e42550f","name":"AccountImplementation"}],"is_contract":true,"is_scam":false,"is_verified":true,"metadata":null,"name":null,"private_tags":[],"proxy_type":"eip1167","public_tags":[],"reputation":"ok","watchlist_names":[]},"token":{"address_hash":"0x2Ae3F1Ec7F1F5012CFEab0185bfc7aa3cf0DEc22","circulating_market_cap":"304925685.46008456","decimals":"18","exchange_rate":"2614.56","holders_count":"201163","icon_url":"https://assets.coingecko.com/coins/images/27008/small/cbeth.png?1709186989","name":"Coinbase
        Wrapped Staked ETH","reputation":"ok","symbol":"CBETH","total_supply":"19786219748277422585559","type":"ERC-20","volume_24h":"4156189.398389544"},"token_type":"ERC-20","total":{"decimals":"18","value":"1000000000000000"},"transaction_hash":"0x6f22fe65f25aa9e68e4fc8b43d742da52318259531c02c7369342e19a67a0227","type":"token_transfer"},{"block_hash":"0x42611e5551d7ac97ee7d8558e3c78fce73dae8916ab03507de3fd4817dbbb01c","block_number":15960896,"from":{"ens_domain_name":null,"hash":"0x20e74013d82fea853AfCa3b4CB1Fd9C2B105F55a","implementations":[{"address_hash":"0xbFb0b82DDA093c84B00b3C3c053C5e5b2e42550f","name":"AccountImplementation"}],"is_contract":true,"is_scam":false,"is_verified":true,"metadata":null,"name":null,"private_tags":[],"proxy_type":"eip1167","public_tags":[],"reputation":"ok","watchlist_names":[]},"log_index":166,"method":null,"timestamp":null,"to":{"ens_domain_name":null,"hash":"0xDDc68f9dE415ba2fE2FD84bc62Be2d2CFF1098dA","implementations":[{"address_hash":"0x63c0c19a282a1B52b07dD5a65b58948A07DAE32B","name":"EIP7702StatelessDeleGator"}],"is_contract":true,"is_scam":false,"is_verified":true,"metadata":null,"name":null,"private_tags":[],"proxy_type":"eip7702","public_tags":[],"reputation":"ok","watchlist_names":[]},"token":{"address_hash":"0x2Ae3F1Ec7F1F5012CFEab0185bfc7aa3cf0DEc22","circulating_market_cap":"304925685.46008456","decimals":"18","exchange_rate":"2614.56","holders_count":"201163","icon_url":"https://assets.coingecko.com/coins/images/27008/small/cbeth.png?1709186989","name":"Coinbase
        Wrapped Staked ETH","reputation":"ok","symbol":"CBETH","total_supply":"19786219748277422585559","type":"ERC-20","volume_24h":"4156189.398389544"},"token_type":"ERC-20","total":{"decimals":"18","value":"1000000000000000"},"transaction_hash":"0x6f22fe65f25aa9e68e4fc8b43d742da52318259531c02c7369342e19a67a0227","type":"token_transfer"}],"base_fee_per_gas":"5298459","timestamp":"2024-06-18T11:45:39.000000Z","nonce":16,"historic_exchange_rate":"3459.12","transaction_types":["contract_call","token_transfer"],"exchange_rate":"2319.12","block_number":15960896,"has_error_in_internal_transactions":false}'
    headers:
      CF-RAY:
      - 9f2c58199e76707d-MAD
      Cache-Control:
      - max-age=0, private, must-revalidate
      Connection:
      - keep-alive
      Content-Type:
      - application/json; charset=utf-8
      Date:
      - Mon, 27 Apr 2026 08:09:19 GMT
      Nel:
      - '{"report_to":"cf-nel","success_fraction":0.0,"max_age":604800}'
      Report-To:
      - '{"group":"cf-nel","max_age":604800,"endpoints":[{"url":"https://a.nel.cloudflare.com/report/v4?s=KFGvi%2B8cOC%2B0q9QQNn%2FA8DskFKAQDuJX9TRFxtuHnI%2BV2Zw8D8uWSDDTEkxvlvatcJkfth6l4jrE58AiKL7Eejn%2F7WqhTbNcNTKvOKmLE1sY3CuLhtZnTBnukDKrEYpb9aVhmw%3D%3D"}]}'
      Server:
      - cloudflare
      alt-svc:
      - h3=":443"; ma=86400
      cf-cache-status:
      - DYNAMIC
      content-length:
      - '23060'
      strict-transport-security:
      - max-age=31536000; includeSubDomains
      vary:
      - accept-encoding
      x-credits-remaining:
      - '99920'
      x-ratelimit-limit:
      - '5'
      x-ratelimit-remaining:
      - '4'
      x-ratelimit-reset:
      - '924'
      x-request-id:
      - 84771d7840f1d5a997ece43617848484
    status:
      code: 200
      message: OK
- request:
    body: null
    headers:
      Accept:
      - '*/*'
      Accept-Encoding:
      - gzip, deflate
      Connection:
      - keep-alive
      User-Agent:
      - rotki/1.42.2.dev317+g7a75c36007
    method: GET
    uri: https://api.blockscout.com/8453/api?action=txlistinternal&module=account&sort=asc&txhash=0x6f22fe65f25aa9e68e4fc8b43d742da52318259531c02c7369342e19a67a0227
  response:
    body:
      string: '{"message":"No internal transactions found","result":[],"status":"0"}'
    headers:
      CF-RAY:
      - 9f2c5827395f8d3c-MAD
      Cache-Control:
      - max-age=0, private, must-revalidate
      Connection:
      - keep-alive
      Content-Type:
      - application/json; charset=utf-8
      Date:
      - Mon, 27 Apr 2026 08:09:19 GMT
      Nel:
      - '{"report_to":"cf-nel","success_fraction":0.0,"max_age":604800}'
      Report-To:
      - '{"group":"cf-nel","max_age":604800,"endpoints":[{"url":"https://a.nel.cloudflare.com/report/v4?s=AgAFoxnMOX0bsNRD3tNuYdMacwDI%2Bx7DQxT%2BjR7HBC22mjXRE38myh4ii9OLuPJ8nAKkrvrytTot9pdRl1bYZ8tAkM5raijGpkEY3Q8vR3iiEONCr%2B9udR8SUd0WOm%2BTYiNXIQ%3D%3D"}]}'
      Server:
      - cloudflare
      alt-svc:
      - h3=":443"; ma=86400
      cf-cache-status:
      - DYNAMIC
      content-length:
      - '69'
      strict-transport-security:
      - max-age=31536000; includeSubDomains
      vary:
      - accept-encoding
      x-credits-remaining:
      - '99900'
      x-ratelimit-limit:
      - '5'
      x-ratelimit-remaining:
      - '4'
      x-ratelimit-reset:
      - '727'
      x-request-id:
      - 2a3f7958a414b588e4e4e73253b374d5
    status:
      code: 200
      message: OK
version: 1
