interactions:
- request:
    body: '{"id": 0, "jsonrpc": "2.0", "method": "eth_getTransactionByHash", "params":
      ["0xcfffd4c6c60dfa3a94466959e365ff57124ccdc1e31f97b75238b757658d3121"]}'
    headers:
      Accept:
      - '*/*'
      Accept-Encoding:
      - gzip, deflate
      Connection:
      - keep-alive
      Content-Length:
      - '147'
      Content-Type:
      - application/json
      User-Agent:
      - rotki/1.42.2.dev317+g7a75c36007
    method: POST
    uri: https://api.blockscout.com/8453/json-rpc
  response:
    body:
      string: '{"jsonrpc":"2.0","result": {"accessList":[],"blockHash":"0x1b2aa7b9e01e296bf5864e42963c6150bd6e56ae38b1cc1ab0313489c0db65fa","blockNumber":"0xe141b5","chainId":"0x2105","from":"0xe17c7f14fb0b2f41fbfdce69346ba5c192705c91","gas":"0x3b133","gasPrice":"0x51d5138","hash":"0xcfffd4c6c60dfa3a94466959e365ff57124ccdc1e31f97b75238b757658d3121","input":"0x50d8cd4b000000000000000000000000833589fcd6edb6e08f4c7c32d4f71b54bda029130000000000000000000000002ae3f1ec7f1f5012cfeab0185bfc7aa3cf0dec220000000000000000000000004756c26e01e61c7c2f86b10f4316e179db8f942500000000000000000000000046415998764c29ab2a25cbea6254146d50d226870000000000000000000000000000000000000000000000000bef55718ad6000000000000000000000000000000000000000000000000000000000000006acfc00000000000000000000000000000000000000000000000000000000000000000000000000000000000000000e17c7f14fb0b2f41fbfdce69346ba5c192705c91000000000000000000000000e17c7f14fb0b2f41fbfdce69346ba5c192705c91","maxFeePerGas":"0x53bc6dd","maxPriorityFeePerGas":"0xf4240","nonce":"0xb","r":"0xc8cfe91e2692da53cbc55fe336d1e7a3b5d8d0a2d7e36daa4867f464c6304787","s":"0x5cb0862ee7bbc6ac29c70d03e6085648dddd73e40d188c09100965f22ac701bf","to":"0xbbbbbbbbbb9cc5e90e3b3af64bdaf62c37eeffcb","transactionIndex":"0x12","type":"0x2","v":"0x1","value":"0x0","yParity":"0x1"},"id":
        0}

        '
    headers:
      CF-RAY:
      - 9f15e8517f4d0142-MAD
      Cache-Control:
      - max-age=0, private, must-revalidate
      Connection:
      - keep-alive
      Content-Type:
      - application/json; charset=utf-8
      Date:
      - Fri, 24 Apr 2026 14:48:12 GMT
      Nel:
      - '{"report_to":"cf-nel","success_fraction":0.0,"max_age":604800}'
      Report-To:
      - '{"group":"cf-nel","max_age":604800,"endpoints":[{"url":"https://a.nel.cloudflare.com/report/v4?s=n8L6%2FRz1nPtzNkvXU7PxGScR5kaogdBnh9MNl%2B2c16YTZ1WXCukQ%2F9ONR35CUyTd0pcmGKcT1VSKBiPhgeGaiSNOdyXeeTkUZX62N1QqhzpXybYa%2BSrkwzQpVaSaKqsQyO%2FGkw%3D%3D"}]}'
      Server:
      - cloudflare
      alt-svc:
      - h3=":443"; ma=86400
      cf-cache-status:
      - DYNAMIC
      content-length:
      - '1292'
      strict-transport-security:
      - max-age=31536000; includeSubDomains
      vary:
      - accept-encoding
      x-credits-remaining:
      - '98080'
      x-ratelimit-limit:
      - '5'
      x-ratelimit-remaining:
      - '3'
      x-ratelimit-reset:
      - '222'
      x-request-id:
      - 72f7f6065efe6a387f1f3d732f68a9ec
    status:
      code: 200
      message: OK
- request:
    body: '{"id": 0, "jsonrpc": "2.0", "method": "eth_getBlockByNumber", "params":
      ["0xe141b5", true]}'
    headers:
      Accept:
      - '*/*'
      Accept-Encoding:
      - gzip, deflate
      Connection:
      - keep-alive
      Content-Length:
      - '91'
      Content-Type:
      - application/json
      User-Agent:
      - rotki/1.42.2.dev317+g7a75c36007
    method: POST
    uri: https://api.blockscout.com/8453/json-rpc
  response:
    body:
      string: '{"jsonrpc":"2.0","result": {"baseFeePerGas":"0x50e0ef8","blobGasUsed":"0x0","difficulty":"0x0","excessBlobGas":"0x0","extraData":"0x","gasLimit":"0x3938700","gasUsed":"0xadba46","hash":"0x1b2aa7b9e01e296bf5864e42963c6150bd6e56ae38b1cc1ab0313489c0db65fa","logsBloom":"0x0221505021008808011a100080005080143c50040550050104050000a43408000519438288000548028320b58046108a4411c090002230424462826a2cb144834c844410015309783600900c840100200885110c004b80e81310208888a9010c14d2212a9a230042900c000290000809000018426800040022040310210a02014020c8b20986140881048880104200108c0021510831020d402c007c20a0994c03240106010c8840085006404c810c80220250316081c40b80d08204a04008a22880906230013e020505882045311408324128062602021a86122212880820840210764001001008220c80a004110940a1048600014002404240020000400800","miner":"0x4200000000000000000000000000000000000011","mixHash":"0x656a3c67311eb472fd3cc8241723305ed14a6bcdd8501aa30a577a1754858e32","nonce":"0x0000000000000000","number":"0xe141b5","parentBeaconBlockRoot":"0xc442ae347d370689d59678f9c4fb84897c7daa2841910bd00028fb66abec5462","parentHash":"0xeab416bf606947983a68887476f242dc58e8151ae6f8f8d8fa2f5cd2882afa41","receiptsRoot":"0xd7208a0090ba3d145b3ee3100a6efe962f5f93ddf366649fc5da51afeffb9f3c","sha3Uncles":"0x1dcc4de8dec75d7aab85b567b6ccd41ad312451b948a7413f0a142fd40d49347","size":"0x5b29","stateRoot":"0xdaede1d3d10d7789ebec1a553b758f85d4f749c035a761273414e7d2a081341d","timestamp":"0x664ce04d","transactions":[{"blockHash":"0x1b2aa7b9e01e296bf5864e42963c6150bd6e56ae38b1cc1ab0313489c0db65fa","blockNumber":"0xe141b5","depositReceiptVersion":"0x1","from":"0xdeaddeaddeaddeaddeaddeaddeaddeaddead0001","gas":"0xf4240","gasPrice":"0x0","hash":"0x741a22ff94d1cc85c6e101e58f0fb67793cb894df0cd4eceec0cbe4b5fe2c5d7","input":"0x440a5e200000044d000a118b000000000000000500000000664cdf9300000000012ff41700000000000000000000000000000000000000000000000000000004f8e50c6000000000000000000000000000000000000000000000000000000000000000013560b9e92a0df14820a9b66818a8542351d4f712c76070625e4cb1717ec1c1420000000000000000000000005050f69a9786f081509234f1a7f4684b5e5b76c9","mint":"0x0","nonce":"0xe141b5","r":"0x0","s":"0x0","sourceHash":"0x054742f43547fcab35f3bfb4c46e32e1566c9a7917c7e548fb4e3770a939600f","to":"0x4200000000000000000000000000000000000015","transactionIndex":"0x0","type":"0x7e","v":"0x0","value":"0x0","yParity":"0x0"},{"accessList":[],"blockHash":"0x1b2aa7b9e01e296bf5864e42963c6150bd6e56ae38b1cc1ab0313489c0db65fa","blockNumber":"0xe141b5","chainId":"0x2105","from":"0x249d812aa119c975cada369f918e90780ecab795","gas":"0x5ca27","gasPrice":"0x40a8d8f8","hash":"0xeaa196b2355565603a47df473a35060fa03b86de17b2dc8a3627ba6e923e71cf","input":"0x608060405234801561001057600080fd5b5061005a6040518060400160405280601b81526020017f4f776e657220636f6e7472616374206465706c6f7965642062793a00000000008152503361011a60201b6101e91760201c565b336000806101000a81548173ffffffffffffffffffffffffffffffffffffffff021916908373ffffffffffffffffffffffffffffffffffffffff16021790555060008054906101000a900473ffffffffffffffffffffffffffffffffffffffff1673ffffffffffffffffffffffffffffffffffffffff16600073ffffffffffffffffffffffffffffffffffffffff167f342827c97908e5e2f71151c08502a66d44b6f758e3ac2f1de95f02eb95f0a73560405160405180910390a361034d565b6101b882826040516024016101309291906102ee565b6040516020818303038152906040527f319af333000000000000000000000000000000000000000000000000000000007bffffffffffffffffffffffffffffffffffffffffffffffffffffffff19166020820180517bffffffffffffffffffffffffffffffffffffffffffffffffffffffff83818316178352505050506101bc60201b60201c565b5050565b6101dd816101d86101e060201b6102851761020160201b60201c565b60201c565b50565b60006a636f6e736f6c652e6c6f679050600080835160208501845afa505050565b61021360201b6102cb17819050919050565b61021b61031e565b565b600081519050919050565b600082825260208201905092915050565b60005b8381101561025757808201518184015260208101905061023c565b60008484015250505050565b6000601f19601f8301169050919050565b600061027f8261021d565b6102898185610228565b9350610299818560208601610239565b6102a281610263565b840191505092915050565b600073ffffffffffffffffffffffffffffffffffffffff82169050919050565b60006102d8826102ad565b9050919050565b6102e8816102cd565b82525050565b600060408201905081810360008301526103088185610274565b905061031760208301846102df565b9392505050565b7f4e487b7100000000000000000000000000000000000000000000000000000000600052605160045260246000fd5b6105208061035c6000396000f3fe608060405234801561001057600080fd5b50600436106100365760003560e01c8063893d20e81461003b578063a6f9dae114610059575b600080fd5b610043610075565b6040516100509190610316565b60405180910390f35b610073600480360381019061006e9190610362565b61009e565b005b60008060009054906101000a900473ffffffffffffffffffffffffffffffffffffffff16905090565b60008054906101000a900473ffffffffffffffffffffffffffffffffffffffff1673ffffffffffffffffffffffffffffffffffffffff163373ffffffffffffffffffffffffffffffffffffffff161461012c576040517f08c379a0000000000000000000000000000000000000000000000000000000008152600401610123906103ec565b60405180910390fd5b8073ffffffffffffffffffffffffffffffffffffffff1660008054906101000a900473ffffffffffffffffffffffffffffffffffffffff1673ffffffffffffffffffffffffffffffffffffffff167f342827c97908e5e2f71151c08502a66d44b6f758e3ac2f1de95f02eb95f0a73560405160405180910390a3806000806101000a81548173ffffffffffffffffffffffffffffffffffffffff021916908373ffffffffffffffffffffffffffffffffffffffff16021790555050565b61028182826040516024016101ff92919061048b565b6040516020818303038152906040527f319af333000000000000000000000000000000000000000000000000000000007bffffffffffffffffffffffffffffffffffffffffffffffffffffffff19166020820180517bffffffffffffffffffffffffffffffffffffffffffffffffffffffff83818316178352505050506102a6565b5050565b60006a636f6e736f6c652e6c6f679050600080835160208501845afa505050565b6102bd816102b56102856102c0565b63ffffffff16565b50565b6102cb819050919050565b6102d36104bb565b565b600073ffffffffffffffffffffffffffffffffffffffff82169050919050565b6000610300826102d5565b9050919050565b610310816102f5565b82525050565b600060208201905061032b6000830184610307565b92915050565b600080fd5b61033f816102f5565b811461034a57600080fd5b50565b60008135905061035c81610336565b92915050565b60006020828403121561037857610377610331565b5b60006103868482850161034d565b91505092915050565b600082825260208201905092915050565b7f43616c6c6572206973206e6f74206f776e657200000000000000000000000000600082015250565b60006103d660138361038f565b91506103e1826103a0565b602082019050919050565b60006020820190508181036000830152610405816103c9565b9050919050565b600081519050919050565b60005b8381101561043557808201518184015260208101905061041a565b60008484015250505050565b6000601f19601f8301169050919050565b600061045d8261040c565b610467818561038f565b9350610477818560208601610417565b61048081610441565b840191505092915050565b600060408201905081810360008301526104a58185610452565b90506104b46020830184610307565b9392505050565b7f4e487b7100000000000000000000000000000000000000000000000000000000600052605160045260246000fdfea26469706673582212208ff1a9926d39cc99a583c9f1928e90a84a7bbd617c41b5353955f985fe1db9ad64736f6c63430008120033","maxFeePerGas":"0x45bf960c","maxPriorityFeePerGas":"0x3b9aca00","nonce":"0x34","r":"0x3af1256ae861524d32be6362108e5de115e4ff954977ca1293dc239595b26435","s":"0x245be7ed208beb120c8a3facbbf78ee8dbc2b886ddfd1abc983e0c3736df15c9","to":null,"transactionIndex":"0x1","type":"0x2","v":"0x0","value":"0x0","yParity":"0x0"},{"accessList":[],"blockHash":"0x1b2aa7b9e01e296bf5864e42963c6150bd6e56ae38b1cc1ab0313489c0db65fa","blockNumber":"0xe141b5","chainId":"0x2105","from":"0xbaed383ede0e5d9d72430661f3285daa77e9439f","gas":"0x15f90","gasPrice":"0x10f9d0f8","hash":"0x59a1f5940220fafd108f39278cd3286555e5668e61624db573fab5432401297c","input":"0xa9059cbb00000000000000000000000010fa4bf4d2f352153b8ffc6743b858c8fa81e88e00000000000000000000000000000000000000000000305e73f27e7baa7a0000","maxFeePerGas":"0x12a05f200","maxPriorityFeePerGas":"0xbebc200","nonce":"0x4579c","r":"0x5595ef27536a5ea58bb98edfb14314b85c9735b57da26e8e04644913ac68fad4","s":"0x5140fa2fdfb224bdb9d92ab6a8dd22b6efa43ed7e59495ff3cca5953ef7b9dae","to":"0x4ed4e862860bed51a9570b96d89af5e1b0efefed","transactionIndex":"0x2","type":"0x2","v":"0x1","value":"0x0","yParity":"0x1"},{"blockHash":"0x1b2aa7b9e01e296bf5864e42963c6150bd6e56ae38b1cc1ab0313489c0db65fa","blockNumber":"0xe141b5","chainId":"0x2105","from":"0xc3f6b6c4309ba9a9887216dbebf39fac78406696","gas":"0x249f0","gasPrice":"0xba13c50","hash":"0x8cdac86283bca3e1a0fcf0fc13638951622f2b8ec3fc7de351d34b7afd93b8b5","input":"0xa9059cbb000000000000000000000000b80d90fcf2ed0e4febe02d2a209109bf1f62df95000000000000000000000000000000000000000000000000000009179b653900","nonce":"0x510b","r":"0x9c60e8b1ecec7d5ede420d5688fa000fbc6f7915807b41f5296356aa3be1e0ee","s":"0x5c21e2ddfdb21c738901a33f3474b8a2bcf08fc55841bc09bba48ed455fd5a51","to":"0x7f12d13b34f5f4f0a9449c16bcd42f0da47af200","transactionIndex":"0x3","type":"0x0","v":"0x422e","value":"0x0"},{"accessList":[],"blockHash":"0x1b2aa7b9e01e296bf5864e42963c6150bd6e56ae38b1cc1ab0313489c0db65fa","blockNumber":"0xe141b5","chainId":"0x2105","from":"0x495135617551a5ccc72ff2a24c165e977b75719f","gas":"0x455a8","gasPrice":"0xb03eff8","hash":"0x4af50b2e22e1d792253c27c94ee73baae0371acb852c992888c1f1844bd068ac","input":"0x09c182c3000000000000000000000000000000000000000000000000000000000000008000000000000000000000000000000000000000000000000000000000000001800000000000000000000000002626664c2603336e57b271c5c0b26f421741e4810000000000000000000000001bfc74841fe9ec54ee4013458c98f6907f17e31d00000000000000000000000000000000000000000000000000000000000000070000000000000000000000000000000000000000000000000000000000000000000000000000000000000000000000000000000000000000006a94d74f430000000000000000000000000000000000000000000000000000000000000000000000000000000000000000000000000000000000000000000000000000000000000000000000000000000000000000000000000000000000000000000000000000000000000000000000000000000000000000000000000000000000000000271000000000000000000000000000000000000000000000000000000000000000000000000000000000000000000000000000000000000000000000000000000002000000000000000000000000420000000000000000000000000000000000000600000000000000000000000037de263c9454944dd6772437bbfeb707a43c5512","maxFeePerGas":"0x823c0c89","maxPriorityFeePerGas":"0x5f5e100","nonce":"0x2b2","r":"0x4085bee2d524022740e1133e33e9fce7b592b1b14c1a84c41e04606a33a25f4f","s":"0x455494d1553f1e5077fb45ef1083ab571d5932bf3a190cef697e50a27d69081","to":"0xecb03b9a0e7f7b5e261d3ef752865af6621a54fe","transactionIndex":"0x4","type":"0x2","v":"0x0","value":"0x6a94d74f430000","yParity":"0x0"},{"blockHash":"0x1b2aa7b9e01e296bf5864e42963c6150bd6e56ae38b1cc1ab0313489c0db65fa","blockNumber":"0xe141b5","chainId":"0x2105","from":"0x0a72a747f5493e3af68216acb140117f636e9411","gas":"0x6b27b","gasPrice":"0xa4b816a","hash":"0x5e120354acbedf6661e8d6a0a103f4edbd70807320ae0c05c812b41651e19b41","input":"0xcba9bc66000000000000000000000000ff78530f3b3724be29822eb056e7b453f2e0233f0000000000000000000000001b81d678ffb9c0263b24a97847620c99d213eb1400000000000000000000000000000000000000000000000000000000000000e0000000000000000000000000000000000000000000000000000000000000016000000000000000000000000000000000000000000000000000bfd8b6c1df0000000000000000000000000000000000000000000000000000000000000bfa72580000000000000000000000000a72a747f5493e3af68216acb140117f636e941100000000000000000000000000000000000000000000000000000000000000030000000000000000000000000000000000000000000000000000000000000000000000000000000000000000d9aaec86b65d86f6a7b5b1b0c42ffa531710b6ca000000000000000000000000833589fcd6edb6e08f4c7c32d4f71b54bda02913000000000000000000000000000000000000000000000000000000000000000200000000000000000000000000000000000000000000000000000000000000640000000000000000000000000000000000000000000000000000000000000064","nonce":"0x44","r":"0x829cf233018ac32b68f1f0bb3bdba230cfd7734522c6458c2e83c53c887c39a7","s":"0x7739cd6a1829a9add7868f09f43efd9a0748bd05df2c1768b166a220d749297a","to":"0x1a8f43e01b78979eb4ef7febec60f32c9a72f58e","transactionIndex":"0x5","type":"0x0","v":"0x422e","value":"0xbfd8b6c1df0000"},{"accessList":[],"blockHash":"0x1b2aa7b9e01e296bf5864e42963c6150bd6e56ae38b1cc1ab0313489c0db65fa","blockNumber":"0xe141b5","chainId":"0x2105","from":"0x00000000000a59c8d4c548a43660a8950a542a71","gas":"0x33139","gasPrice":"0x9920315","hash":"0xd641c680367f470d92edb3746c439ca61b4377416b73d211fb272ddc0f0de5e1","input":"0x2e37811500000000000000000000000000000000000000000000000000000000000000400000000000000000000000000000000000000000000000000000000000002105000000000000000000000000de1e598b81620773454588b85d6b5d4eec32573e00000000000000000000000047a3fd0541ce1fc03562052c2139027ad7b8f31f0000000000000000000000000000000000000000000000000000000000000000000000000000000000000000e5d7c2a44ffddf6b295a15c148167daaaf5cf34f0000000000000000000000004200000000000000000000000000000000000006000000000000000000000000000000000000000000000000001057acf5f78000000000000000000000000000000000000000000000000000001040cca1f0236c000000000000000000000000000000000000000000000000000000000000e708000000000000000000000000000000000000000000000000000000000010c4fc00000000000000000000000000000000000000000000000000000000ffffffff000000000000000000000000000000000000000000000000000000000000000000000000000000000000000000000000000000000000000000000000000001800000000000000000000000000000000000000000000000000000000000000000","maxFeePerGas":"0xaa47fa6","maxPriorityFeePerGas":"0x483f41d","nonce":"0x2b25","r":"0x539b64d6c492aaf7914c9147d2ec46e61f852c0667675984763a99bdb5bbf4ff","s":"0x33fe94f58ab61a22f062a5c98f19a9f53b5c42b398998be11d484751161cfc38","to":"0x09aea4b2242abc8bb4bb78d537a67a245a7bec64","transactionIndex":"0x6","type":"0x2","v":"0x0","value":"0x0","yParity":"0x0"},{"accessList":[],"blockHash":"0x1b2aa7b9e01e296bf5864e42963c6150bd6e56ae38b1cc1ab0313489c0db65fa","blockNumber":"0xe141b5","chainId":"0x2105","from":"0x32d143c79cab48683bbe6bbdf140e67624c40bfd","gas":"0x1e8480","gasPrice":"0x83c0088","hash":"0x6bbf57a63f3dd7f20a585b20e8cabe02acb72fcfa3703f8d2b9bab2578bd0b24","input":"0x0000000b0000000000000000000000000000000000000000000000000000000000000020000000000000000000000000000000000000000000000000000000000000003f833589fcd6edb6e08f4c7c32d4f71b54bda0291300d0b53d9277642d899df5c87a3966a349a798f2240388a43bbdf9d098eec7bceda4e2494615dfd9bb9c0100","maxFeePerGas":"0x866eb9de","maxPriorityFeePerGas":"0x32df190","nonce":"0x858d8","r":"0xed487dc4f06089c5681314c62b68f260adbe1a7e17ba079022dbe672a8fa3633","s":"0x6c82109f1b2d92488101e5f113b72c03fcae797ff9a926d7ecb93c214405e52","to":"0xe8e1268c5a724231905d0735f041fcde1b0649e9","transactionIndex":"0x7","type":"0x2","v":"0x1","value":"0x0","yParity":"0x1"},{"blockHash":"0x1b2aa7b9e01e296bf5864e42963c6150bd6e56ae38b1cc1ab0313489c0db65fa","blockNumber":"0xe141b5","chainId":"0x2105","from":"0xe7c291de15e044058c4047f44d8d625f88b3519e","gas":"0x7ee2e","gasPrice":"0x6daef57","hash":"0x94f80228a9dd6e225fcf8423be8990914eeb9db12eb941bb562eef65164445d0","input":"0x9871efa400000000000000000000000000000000000000000000000000000000000000000000000000000000000000000000000000000000000000000001c6bf5263400000000000000000000000000000000000000000000000000bdd153bd2c41995f40000000000000000000000000000000000000000000000000000000000000080000000000000000000000000000000000000000000000000000000000000000100000000000000003b6d0340e91271cd9c4a9e75f9f3413e83ce405017bea8a9","nonce":"0x2de","r":"0x92afc4375f58f413e3586ebe98a865810933c678f2efc6aeb3206537a347cac7","s":"0x372ee07da67ba35bf8f47f53d61f599ae845c33fd691225fd071d81ef14f0669","to":"0x6b2c0c7be2048daa9b5527982c29f48062b34d58","transactionIndex":"0x8","type":"0x0","v":"0x422e","value":"0x1c6bf52634000"},{"blockHash":"0x1b2aa7b9e01e296bf5864e42963c6150bd6e56ae38b1cc1ab0313489c0db65fa","blockNumber":"0xe141b5","chainId":"0x2105","from":"0x11b3c89ef48955522f016f7aea1e1d613949b457","gas":"0xf4240","gasPrice":"0x6558c51","hash":"0x3af1707a3977f943da3a138d2a7c8ecce96f34b336d75e7977cbbb5b1ed4167f","input":"0x0300000bb8000bb8000640030201070804070f9679f0601fbee6e8416065a6937c5ea346e8837af66828a7d1041db8b183f1356797788979eaf8b16d2257643fdbb32d12b9d73fab784eb4f1bee4114dee03aea234017f465af0324781010eabd2116617bac25fc4","nonce":"0x69cc","r":"0xdd3b66d6484cd02899f369b9749601b3bcebed90dd6ea167ee6cbbeb89b9b92e","s":"0x1a25a25757ffaf72f4d64306b35228672c3029eeb2488b26b6387e4ed4ad7f3b","to":"0x3a6ae1e6ad00518bdcd485a6b4d428fb9c9a3120","transactionIndex":"0x9","type":"0x0","v":"0x422e","value":"0x0"},{"accessList":[],"blockHash":"0x1b2aa7b9e01e296bf5864e42963c6150bd6e56ae38b1cc1ab0313489c0db65fa","blockNumber":"0xe141b5","chainId":"0x2105","from":"0x58398e75703a79ce0e89e0d5f25b01703cf29388","gas":"0xb54d","gasPrice":"0x5cd9880","hash":"0x83281528b1641d7fb05f710928a46d9522e1ff652dbfac1b87a412722ed9469f","input":"0x095ea7b300000000000000000000000019ceead7105607cd444f5ad10dd51356436095a1000000000000000000000000000000000000000000000000004e122564f07000","maxFeePerGas":"0x5cd9880","maxPriorityFeePerGas":"0x5cd9880","nonce":"0x84","r":"0xcfbaf229c90547076d7f998b844ff8606d5d4a644b283d4fcb22814f86627107","s":"0x355147f1cd5d7596cc42b65631c9c40b5c6c544a8627d0f30dcb982e63bf48d5","to":"0x4200000000000000000000000000000000000006","transactionIndex":"0xa","type":"0x2","v":"0x0","value":"0x0","yParity":"0x0"},{"blockHash":"0x1b2aa7b9e01e296bf5864e42963c6150bd6e56ae38b1cc1ab0313489c0db65fa","blockNumber":"0xe141b5","chainId":"0x2105","from":"0x807b8cc0165e821201dc4cd88109f3bdcd3dae9b","gas":"0x4a613","gasPrice":"0x5b136e0","hash":"0x02a1d63c56df25e9b219ec060f0ae41d370a5b018e5a4cccf5e682c3e7c94867","input":"0x3593564c000000000000000000000000000000000000000000000000000000000000006000000000000000000000000000000000000000000000000000000000000000a000000000000000000000000000000000000000000000000000000000664ce16300000000000000000000000000000000000000000000000000000000000000020b000000000000000000000000000000000000000000000000000000000000000000000000000000000000000000000000000000000000000000000000000002000000000000000000000000000000000000000000000000000000000000004000000000000000000000000000000000000000000000000000000000000000a00000000000000000000000000000000000000000000000000000000000000040000000000000000000000000000000000000000000000000000000000000000200000000000000000000000000000000000000000000000000001b48eb57e0000000000000000000000000000000000000000000000000000000000000000100000000000000000000000000807b8cc0165e821201dc4cd88109f3bdcd3dae9b00000000000000000000000000000000000000000000000000001b48eb57e000000000000000000000000000000000000000000000000000000000000001b45c00000000000000000000000000000000000000000000000000000000000000a00000000000000000000000000000000000000000000000000000000000000000000000000000000000000000000000000000000000000000000000000000002b4200000000000000000000000000000000000006000064833589fcd6edb6e08f4c7c32d4f71b54bda02913000000000000000000000000000000000000000000","nonce":"0x16","r":"0x2811460eb5709a1ab47c206c570dfb7874171f379e88c9f0c1e49638f395e8cf","s":"0x54de02f75c12862db2df49ded50dcb2779ca3a1a729b3352122e4598eb4c3612","to":"0xfe6508f0015c778bdcc1fb5465ba5ebe224c9912","transactionIndex":"0xb","type":"0x0","v":"0x422e","value":"0x1b48eb57e000"},{"blockHash":"0x1b2aa7b9e01e296bf5864e42963c6150bd6e56ae38b1cc1ab0313489c0db65fa","blockNumber":"0xe141b5","chainId":"0x2105","from":"0x41ee28ee05341e7fdddc8d433ba66054cd302ca1","gas":"0x53d24","gasPrice":"0x5a505e7","hash":"0xa57e7bdd0f805de81351082efc5a0f623d850258fa749e7a0e4ed8879ff55269","input":"0x2e3781150000000000000000000000000000000000000000000000000000000000000040000000000000000000000000000000000000000000000000000000000000e708000000000000000000000000de1e598b81620773454588b85d6b5d4eec32573e00000000000000000000000047a3fd0541ce1fc03562052c2139027ad7b8f31f0000000000000000000000000000000000000000000000000000000000000000000000000000000000000000e5d7c2a44ffddf6b295a15c148167daaaf5cf34f0000000000000000000000004200000000000000000000000000000000000006000000000000000000000000000000000000000000000000001057acf5f78000000000000000000000000000000000000000000000000000001040cca1f0236c000000000000000000000000000000000000000000000000000000000000e708000000000000000000000000000000000000000000000000000000000010c4fc00000000000000000000000000000000000000000000000000000000ffffffff000000000000000000000000000000000000000000000000000000000000000000000000000000000000000000000000000000000000000000000000000001800000000000000000000000000000000000000000000000000000000000000000","nonce":"0x22946","r":"0xf347095da7b40de575c48d7f6abd1a3466641d75f6298aa8664f8cd70ce3511","s":"0x37433b6b633aea05bebee219d26612a485ba9631d46be616b458f18b9b10027f","to":"0x09aea4b2242abc8bb4bb78d537a67a245a7bec64","transactionIndex":"0xc","type":"0x0","v":"0x422e","value":"0x0"},{"accessList":[],"blockHash":"0x1b2aa7b9e01e296bf5864e42963c6150bd6e56ae38b1cc1ab0313489c0db65fa","blockNumber":"0xe141b5","chainId":"0x2105","from":"0xe873c70540001737a978a6ebc9a593df5129a6a8","gas":"0x1e8480","gasPrice":"0x55855d4","hash":"0xd02356070f7ea205fbb7471878cda67e380035af5431a2fecbb7ff5ec8ff185d","input":"0x0000000b0000000000000000000000000000000000000000000000000000000000000020000000000000000000000000000000000000000000000000000000000000003f698dc45e4f10966f6d1d98e3bfd7071d8144c2330076fc8dbf2022ee75612cb74ec80caf6b3ccffb2301075e82a2557d30fba2f8226f2f110145000ccbea0300","maxFeePerGas":"0xa3b0317","maxPriorityFeePerGas":"0x4a46dc","nonce":"0x16778a","r":"0xf789f0d21bbe274f4a82dcc13e920af02895ded8bb159c587440180c5c78a159","s":"0x12a10f6d0fc89a28eb9f334b42f05e468935b3dcd0896391d43ee6253383e94c","to":"0xe8e1268c5a724231905d0735f041fcde1b0649e9","transactionIndex":"0xd","type":"0x2","v":"0x0","value":"0x0","yParity":"0x0"},{"accessList":[],"blockHash":"0x1b2aa7b9e01e296bf5864e42963c6150bd6e56ae38b1cc1ab0313489c0db65fa","blockNumber":"0xe141b5","chainId":"0x2105","from":"0xbd398a75bf3d0f0a5afce00de62078038f21536c","gas":"0xb54d","gasPrice":"0x5298638","hash":"0xf9913f432ba8b42c6b857099cac3734809932b67af86852f8669636aa2abb293","input":"0x095ea7b30000000000000000000000001111111254eeb25477b68fb85ed929f73a960582000000000000000000000000000000000000000000000000001ff973cafa8000","maxFeePerGas":"0x6c32b01","maxPriorityFeePerGas":"0x1b7740","nonce":"0x14","r":"0x29645f0b41690803228562403237c22cb1605c0e11bfbf9ec4f944c7c6c5804d","s":"0x510926eceb6044860c24d0eefbc9dae801c665b96e58f9f3433b84ced3945568","to":"0x4200000000000000000000000000000000000006","transactionIndex":"0xe","type":"0x2","v":"0x1","value":"0x0","yParity":"0x1"},{"blockHash":"0x1b2aa7b9e01e296bf5864e42963c6150bd6e56ae38b1cc1ab0313489c0db65fa","blockNumber":"0xe141b5","chainId":"0x2105","from":"0x1878505e8fb24ba0aa77ddd6198389a83b691090","gas":"0x249f0","gasPrice":"0x521a846","hash":"0x5e506f08d017b2ca86509c3061100248bce74e0933dc9c70d26a627231384697","input":"0x42842e0e0000000000000000000000001878505e8fb24ba0aa77ddd6198389a83b691090000000000000000000000000174b73202ec0c1a464d56a7a6f936653713e16ed0000000000000000000000000000a26b00c1f0df003000390027140000faa719","nonce":"0xa","r":"0xa5a44c7727d8e2267e0f221ace69695b7f9ec5a6ebe4cac87dd20fc73c5c24a8","s":"0x19a17d27efac2f78d46cf0be7ecb9edd476d10dd18a8e57de92212690eab0d2a","to":"0x8d69ea707ad8a385c5757e04628d84a3d77a7309","transactionIndex":"0xf","type":"0x0","v":"0x422d","value":"0x0"},{"accessList":[],"blockHash":"0x1b2aa7b9e01e296bf5864e42963c6150bd6e56ae38b1cc1ab0313489c0db65fa","blockNumber":"0xe141b5","chainId":"0x2105","from":"0xd39d00cb8436d472b1adbdae66a9703b7df438d1","gas":"0x2dc6c0","gasPrice":"0x51f4181","hash":"0x799b198bb1ec9aa267b76b228fc1df5b7e843251e863a78ea78abcfb5d1ba385","input":"0xa23d800c2d080000000000000000000000000000000000001a0cd627f35bb6db823d31f0cb53dc6d52f680a44ed32e002442c8a3b4f420d33de75a5c49eeec039742d4f649dd90b62677d721e8e59a8d269e63c8900a000270f0280009c2e7109c426d85080000000000000000000000000000000000001b66abb21ad9761bda9ed6c6c310bfe94c5c42db2930d8e22f9bd05a8a72363bba071dc739af852c62de36a9b5d3f8388f9725511b3eb6eb718c8173f00a000270b0280009c2e7109c426d4415e3629136e62c8efc25a8e0b805b8a697383ff9080000000000000000000000000000000000001a1f2b778651a0a0ebe358411d3b2f467b4a17da6330a115b53fe6033b8d15f2a026895f94b36736c0009bca6f20280009ab27109c4265c1080000000000000000000000000000000000001a7785b20168c89ee6e4b8e6911be755b3d67f99002300e9ad7546a2456eb82283c60b6adbecb0166c6e010d920f5c7ddc17ba9cedaab03747d3ae463c009bca6f20280009ab27109c4265c4107f7cfd1cb4b229fb31163f0edfd50f9b15fbdd080000000000000000000000000000000000001a06cef03be5d305b5c6e1852b6e308b3301176805634dc25f72d7edc961ec1c602c0949459d5c16340a00026f20280009ab27109c4265c108000000000000000000000000000000000000193925b0095bee75331ee8bf7e4c6f272eddcc598013aad6374b31816031ae19a60f21e95841e75e42fd7d8d65d14a63b99714a8caf97fa7ebec6d0d34009bde6f70026f29bca71099226a7c8daa9425e757cf78ef47bad03a044dfc8aade52d080000000000000000000000000000000000001ac403b12e764b0e45ba67abc54b85209369beb3449c8b23e6d78ab1cb47c897e3a326439126e801e00a000270803e6f29bca7109c426b81080000000000000000000000000000000000001bfaa77372788ea41a2fd55eb56c6199d71874cfabd0d2089d81ec59a45ee7d433d465e78dda656dcc380785e5f7a837cfb2632b44e1667e8bf60871840a000270f0280009ab27109c426795080000000000000000000000000000000000001a0cd627f35bb6db823d31f0cb53dc6d52f680a44e2290eef7e74263bb1ef3b693892518577f66ee7342d4f649dd90b62677d721e8e59a8d269e63c890009bca6f20280009c2e7109c426ed508000000000000000000000000000000000000193b53a18a182fb546a55c2e5b626bd786c3bfbfb7240d30f9fd6000f9ab83210e39f23d166356b2a8b12424d56c300da1020652130ea20aa55966afcc0a00026f203e6f29bca7109c426d450800000000000000000000000000000000000019fc4b44ecd3d7d3c2a512705af350bc3691ebc8019eac3a131fe78e6699c0dfe528239719937071989181782ee4cfdbb25b9aeef3a82fa332203db9bc0a00026ac0026f29bca7109c4268e4","maxFeePerGas":"0xa2d5079","maxPriorityFeePerGas":"0x113289","nonce":"0x1423c5","r":"0x6fc5efb0b1cafcd79e402f8c825969bbb129d4a5a257f514b188c35fe9a83d2e","s":"0x5f5f630113e87977b9b6119475b2a30641bfdf90e9b303cda346cbb0ef105750","to":"0x4eb3621d59a1c4ee08140006062d023389344e53","transactionIndex":"0x10","type":"0x2","v":"0x0","value":"0x0","yParity":"0x0"},{"accessList":[],"blockHash":"0x1b2aa7b9e01e296bf5864e42963c6150bd6e56ae38b1cc1ab0313489c0db65fa","blockNumber":"0xe141b5","chainId":"0x2105","from":"0x9c71226863d3db3a7de3402e3743fea8026dc9e0","gas":"0x1e8480","gasPrice":"0x51ef5c6","hash":"0xbc82d0ad3ff9fee537f4915e4763de0578ae19d3536eee0c43a0bea1121c188e","input":"0x0000000b0000000000000000000000000000000000000000000000000000000000000020000000000000000000000000000000000000000000000000000000000000013b768be13e1680b5ebe0024c42c896e3db59ec0149006d6391b9bd02eefa00fa711fb1cb828a6471d283010ea13439f0818bd0598c002d9337374a78d5fe47039a26f5433671751c3276a065f57e5a02d281797300377feeed4820b3b28d1ab429509e7a0789824fca01d82403772cb858219cfb58bfab46ba7a31073474030578d8a44db98b23bf096a382e016e29a5ce0ffe0087cadde19468283af8d610474ecbd19ed285f69801cc28456d4ff980cee3457ca809a257e52cd9cdb0037f12d13b34f5f4f0a9449c16bcd42f0da47af2000024605e0bb933f6ec96e6bbbcea0be8cc880f6e6f0167ab0e84c7f9e399a67037f94a08e5c664dc1c6603041fdf3f472d2c8a7ecc458fc3b7f543e6c57ef70081b3bc0ef974c16d71b8614adb8c22ccc045da010332b460d445cae263fb7fafbefe95d91e0d43f712030000000000","maxFeePerGas":"0xa3b0317","maxPriorityFeePerGas":"0x10e6ce","nonce":"0xf05e4","r":"0xc281ce11a273c2aafedbe22f6d845b94f4f0ae13f3a406fef814ecaee3767011","s":"0x4c1aa38664f6c6572410dac7b73ff2be9dafaa487baafd49d41b812f08a11abd","to":"0xe8e1268c5a724231905d0735f041fcde1b0649e9","transactionIndex":"0x11","type":"0x2","v":"0x1","value":"0x0","yParity":"0x1"},{"accessList":[],"blockHash":"0x1b2aa7b9e01e296bf5864e42963c6150bd6e56ae38b1cc1ab0313489c0db65fa","blockNumber":"0xe141b5","chainId":"0x2105","from":"0xe17c7f14fb0b2f41fbfdce69346ba5c192705c91","gas":"0x3b133","gasPrice":"0x51d5138","hash":"0xcfffd4c6c60dfa3a94466959e365ff57124ccdc1e31f97b75238b757658d3121","input":"0x50d8cd4b000000000000000000000000833589fcd6edb6e08f4c7c32d4f71b54bda029130000000000000000000000002ae3f1ec7f1f5012cfeab0185bfc7aa3cf0dec220000000000000000000000004756c26e01e61c7c2f86b10f4316e179db8f942500000000000000000000000046415998764c29ab2a25cbea6254146d50d226870000000000000000000000000000000000000000000000000bef55718ad6000000000000000000000000000000000000000000000000000000000000006acfc00000000000000000000000000000000000000000000000000000000000000000000000000000000000000000e17c7f14fb0b2f41fbfdce69346ba5c192705c91000000000000000000000000e17c7f14fb0b2f41fbfdce69346ba5c192705c91","maxFeePerGas":"0x53bc6dd","maxPriorityFeePerGas":"0xf4240","nonce":"0xb","r":"0xc8cfe91e2692da53cbc55fe336d1e7a3b5d8d0a2d7e36daa4867f464c6304787","s":"0x5cb0862ee7bbc6ac29c70d03e6085648dddd73e40d188c09100965f22ac701bf","to":"0xbbbbbbbbbb9cc5e90e3b3af64bdaf62c37eeffcb","transactionIndex":"0x12","type":"0x2","v":"0x1","value":"0x0","yParity":"0x1"},{"accessList":[],"blockHash":"0x1b2aa7b9e01e296bf5864e42963c6150bd6e56ae38b1cc1ab0313489c0db65fa","blockNumber":"0xe141b5","chainId":"0x2105","from":"0xaa8b47f54c58a9bcbf97525c013575a23d408d7b","gas":"0x28c79a","gasPrice":"0x51d5138","hash":"0x131c6cd388d9cf92fe9a6544b72e46fb8d69ce2572a778b55d7a98f8b4e481c0","input":"0x1fad948c0000000000000000000000000000000000000000000000000000000000000040000000000000000000000000aa8b47f54c58a9bcbf97525c013575a23d408d7b000000000000000000000000000000000000000000000000000000000000000100000000000000000000000000000000000000000000000000000000000000200000000000000000000000002810db5a67fa194d74f22ecbf52168d4b446b03100000000000000000000000000000000000000000000000000000000000001be0000000000000000000000000000000000000000000000000000000000000160000000000000000000000000000000000000000000000000000000000000018000000000000000000000000000000000000000000000000000000000001d7f2a000000000000000000000000000000000000000000000000000000000001411200000000000000000000000000000000000000000000000000000000000611a9000000000000000000000000000000000000000000000000000000000524765100000000000000000000000000000000000000000000000000000000000f424000000000000000000000000000000000000000000000000000000000000004a000000000000000000000000000000000000000000000000000000000000005e0000000000000000000000000000000000000000000000000000000000000000000000000000000000000000000000000000000000000000000000000000002e400004680000000000000000000000000000000000000000000000000000000000000006000000000000000000000000000000000000000000000000000000000000000c000000000000000000000000000000000000000000000000000000000000001200000000000000000000000000000000000000000000000000000000000000002000000000000000000000000cfa132e353cb4e398080b9700609bb008eceb1250000000000000000000000001eff3dd78f4a14abfa9fa66579bd3ce9e1b3052900000000000000000000000000000000000000000000000000000000000000020000000000000000000000000000000000000000000000000000000000000000000000000000000000000000000000000000000000000000000000000000000000000000000000000000000000000000000000000000000000000000000000020000000000000000000000000000000000000000000000000000000000000040000000000000000000000000000000000000000000000000000000000000012000000000000000000000000000000000000000000000000000000000000000a4b4b333c60000000000000000000000001eff3dd78f4a14abfa9fa66579bd3ce9e1b305290000000000000000000000002810db5a67fa194d74f22ecbf52168d4b446b0310000000000000000000000004eecf2d45d2fa0365fccd3b5de3fcc4bbbcf315300000000000000000000000000000000000000000000000000000000000000800000000000000000000000000000000000000000000000000000000000000000000000000000000000000000000000000000000000000000000000000000000000000000000000000000000000000000000000000000000000000044a9059cbb000000000000000000000000f3aaefee7ec04fe3757733290b318f1748bb08520000000000000000000000000000000000000000000000020f5b1eaad8d800000000000000000000000000000000000000000000000000000000000000000000000000000000000000000000000000000000000000000000000000000000000000000000000000000000000000000000000000000000011400000f79b7faf42eebadba19acc07cd08af44789000000000000000000000000cdfa83e0004c6d7d71c807f783361ec7d1e6444300000000000000000000000000000000000000000000000000000000664ce73400000000000000000000000000000000000000000000000000000000664ce02c00000000000000000000000000000000000000000000000000000000000000800000000000000000000000000000000000000000000000000000000000000041dfef9434e389f670c646d285eaba8b8bd15a4512ecdc905306d456de98e98c4c38f339c1efc07d433fffe1be83826e4c636ea1835dfb62b75d3adf88809cb5671b0000000000000000000000000000000000000000000000000000000000000000000000000000000000000000000000000000000000000000000000000000000000000000000000000000c000000000000000000000000000000000000000000000000000000000000000400000000000000000000000000000001c5b32f37f5bea87bdd5374eb2ac54ea8e0000000000000000000000000000000000000000000000000000000000000041053ca164455859aac408d558cb8c3d5f2bd51a99ba86e60c33046b2777d60dfa6a6cda0d2f6c16cf916efa96c13621944806e612477505545d34beb7bf1a20081c00000000000000000000000000000000000000000000000000000000000000","maxFeePerGas":"0x5247651","maxPriorityFeePerGas":"0xf4240","nonce":"0x605","r":"0x8f88d4b69eb8ccc453f0f7ac48cc3bebf60d303656632fee326c9644af34d841","s":"0x57fbef6841ffed1c08a0b645dcdef29813f6a6bd179de3b0edb575f16b2ef19e","to":"0x5ff137d4b0fdcd49dca30c7cf57e578a026d2789","transactionIndex":"0x13","type":"0x2","v":"0x1","value":"0x0","yParity":"0x1"},{"accessList":[],"blockHash":"0x1b2aa7b9e01e296bf5864e42963c6150bd6e56ae38b1cc1ab0313489c0db65fa","blockNumber":"0xe141b5","chainId":"0x2105","from":"0xad28a3befb3efae7408032edcfed418f59103bcb","gas":"0x493e0","gasPrice":"0x51d5138","hash":"0x644c408f601acb56b8370c04bfd5886fcd554e2260578ba46b63973a68194641","input":"0x095ea7b30000000000000000000000004752ba5dbc23f44d87826276bf6fd6b1c372ad24ffffffffffffffffffffffffffffffffffffffffffffffffffffffffffffffff","maxFeePerGas":"0x8360119","maxPriorityFeePerGas":"0xf4240","nonce":"0x73b","r":"0xb387a26439f99bb423912265a89aa14e6330e765c3bf1a6739a93b897a143c04","s":"0xfa3fff4d7a7ed324ff07eb6a2e1e74ec780e240d25c0bd5ad74b351cea21a48","to":"0x1cbccdf6e02964ce0e080900ef9a03d5fedba435","transactionIndex":"0x14","type":"0x2","v":"0x0","value":"0x0","yParity":"0x0"},{"accessList":[],"blockHash":"0x1b2aa7b9e01e296bf5864e42963c6150bd6e56ae38b1cc1ab0313489c0db65fa","blockNumber":"0xe141b5","chainId":"0x2105","from":"0x4bb4a906d92740793e8e441f67ebf759a7f22e4a","gas":"0x5208","gasPrice":"0x51d5138","hash":"0x6f944e10f5123160cb7234a1fe32fe5d3f52d917a4ca19b1a1b766f2ff7538ea","input":"0x","maxFeePerGas":"0x53a2e72","maxPriorityFeePerGas":"0xf4240","nonce":"0x59","r":"0x5a041888026d48d24721f70031d914d34874d7ed4c6e9dd5ec6739715e53c525","s":"0xb37c29fc76e9cc111f966afa0b68cbee7d18b7037db633d31c13060036a6801","to":"0x3e216118a1ad550588bb36a29969155b45bda55d","transactionIndex":"0x15","type":"0x2","v":"0x1","value":"0x5c3eb0afcdd20","yParity":"0x1"},{"accessList":[],"blockHash":"0x1b2aa7b9e01e296bf5864e42963c6150bd6e56ae38b1cc1ab0313489c0db65fa","blockNumber":"0xe141b5","chainId":"0x2105","from":"0x38e9a1813510344a91d4429a537b6e0817aec700","gas":"0xa8e0","gasPrice":"0x51d5138","hash":"0xe9cb632d61337f73c363121ec047788d0e729360d639fed16a6d4b8969a09e2d","input":"0x095ea7b30000000000000000000000001111111254eeb25477b68fb85ed929f73a960582000000000000000000000000000000000000000000000000000000003bfb47b8","maxFeePerGas":"0x54e5683","maxPriorityFeePerGas":"0xf4240","nonce":"0x1ef","r":"0x4c39b205f1579cf8877742f3ae62c69a750ebf8bf02d5a5e6114ced3234874c0","s":"0x2e9a0578b964357f428d5e09ca4075ddf30ea7baa09ca10295d026b12f4cbdf0","to":"0x833589fcd6edb6e08f4c7c32d4f71b54bda02913","transactionIndex":"0x16","type":"0x2","v":"0x0","value":"0x0","yParity":"0x0"},{"accessList":[],"blockHash":"0x1b2aa7b9e01e296bf5864e42963c6150bd6e56ae38b1cc1ab0313489c0db65fa","blockNumber":"0xe141b5","chainId":"0x2105","from":"0x211bbdff6e558f6d0e69d92198cc67034daeaa31","gas":"0x30059","gasPrice":"0x51d5138","hash":"0x65b8cd81c96089dfec485ab631d47df0d777a69094e27138152aa1d6e82e5f25","input":"0x3935a7880000000000000000000000000000000000000000000000000000000000009234000000000000000000000000000000000000000000000000000000000000896ff701a13d186d3bfc2e506cf0405482e2fc9ee08309ad9e5759d3c9547825eea3e7b938e4fde273933d21565b5ab38f9d64e549c00c9fdb34c400fae4c881df0f00000000000000000000000000000000000000000000000000000000000000a00000000000000000000000000000000000000000000000000000000000000041fc71ca8a275abc35142ddfb95bf950e99598dc162aca667bc26b2994b219173060e9ac2b34867e5efbd52b3b9329f4e4239f55d8a02d2ac8c1859322f73cf5ab1c00000000000000000000000000000000000000000000000000000000000000","maxFeePerGas":"0x53bc6dd","maxPriorityFeePerGas":"0xf4240","nonce":"0x383","r":"0x41507a67109527bf7dd09fa3847dc4ebaaded8bf7caf59fbf236bcd24ac7820c","s":"0x23e7b3aa6c0ec3db3f9b2842b1955de94a80b9d89eb1af32aaed5f0424ab300f","to":"0x0e22b5f3e11944578b37ed04f5312dfc246f443c","transactionIndex":"0x17","type":"0x2","v":"0x0","value":"0x0","yParity":"0x0"},{"accessList":[],"blockHash":"0x1b2aa7b9e01e296bf5864e42963c6150bd6e56ae38b1cc1ab0313489c0db65fa","blockNumber":"0xe141b5","chainId":"0x2105","from":"0xca11889798a8a454d2969770215d459ff6c124a6","gas":"0xbd3c4","gasPrice":"0x51c6a5c","hash":"0x0ac63f3097fe27fa477a1142064b21acd8cc63e5e3444528bf8540a4dd48a12d","input":"0x603986f40000000000000000000000000000000000000000000000000000000000000020000000000000000000000000000000000000000000000000000000000000000000000000000000000000000003a520b32c04bf3beef7beb72e919cf822ed34f1000000000000000000000000000000000000000000000000000000000007b0fa000000000000000000000000000000000000000000000d6e60045d5e2a0a30000000000000000000000000000000000000000000000000000000000000000000000000000000000000000000ca11889798a8a454d2969770215d459ff6c124a600000000000000000000000000000000000000000000000000000000664ce2910000000000000000000000003c281a39944a2319aa653d81cfd93ca10983d2340000000000000000000000000000000000000000000000000000000000000000000000000000000000000000000000000000000000000000000000000000000000000000000000000000000000000000000000000000000000000000000002000000000000000000000000000000000000000000000006edf3f5116d876dfedd0000000000000000000000000000000000000000000000000000ccedd081fca20000000000000000000000000000000000000000000000000000000000000220000000000000000000000000000000000000000000000678199978ebcb6cfe4d0000000000000000000000000000000000000000000000000000cbe78163004b000000000000000000000000000000000000000000000000000000000000000000000000000000000000000000000000000000000000000000000000000006442db897d0000000000000000000000000000000000000000000000000000000000000002000000000000000000000000000bfddfdb386a71e2fb1d1763e3d1f0f1fe8af640000000000000000000000000000000000000000000006edf3f5116d876dfedd0000000000000000000000000000000000000000000000000000ccedd081fca200000000000000000000000000000000000000000000000000000000000001000000000000000000000000000000000000000000000000000000000000000001000000000000000000000000000000000000000000000000000000000000000a000000000000000000000000168e4c3ac8d89b00958b6be6400b066f0347ddc9000000000000000000000000000000000000000000000000000000000000016000000000000000000000000000000000000000000000000000000000000000020000000000000000000000003c281a39944a2319aa653d81cfd93ca10983d23400000000000000000000000042000000000000000000000000000000000000060000000000000000000000000000000000000000000000000000000000000484b80c2f090000000000000000000000000000000000000000000000000000000000018d190000000000000000000000003c281a39944a2319aa653d81cfd93ca10983d23400000000000000000000000042000000000000000000000000000000000000060000000000000000000000000000000000000000000006edf3f5116d876dfedd0000000000000000000000000000000000000000000000000000a4f14b74686600000000000000000000000000000000000000000000000000000000664cee4800000000000000000000000000000000000000000000000000000000000001200000000000000000000000000000000000000000000000000000000000000160000000000000000000000000000000000000000000000000000000000000046000000000000000000000000000000000000000000000000000000000000000010000000000000000000000000000000000000000000006edf3f5116d876dfedd000000000000000000000000000000000000000000000000000000000000000100000000000000000000000000000000000000000000000000000000000000200000000000000000000000000000000000000000000000000000000000000001000000000000000000000000000000000000000000000000000000000000002000000000000000000000000000000000000000000000000000000000000000a000000000000000000000000000000000000000000000000000000000000000e0000000000000000000000000000000000000000000000000000000000000012000000000000000000000000000000000000000000000000000000000000001600000000000000000000000003c281a39944a2319aa653d81cfd93ca10983d234000000000000000000000000000000000000000000000000000000000000000100000000000000000000000056e6983d59bf472ced0e63966a14d94a3a291589000000000000000000000000000000000000000000000000000000000000000100000000000000000000000056e6983d59bf472ced0e63966a14d94a3a29158900000000000000000000000000000000000000000000000000000000000000010000000000000000000027103138dec44bdba8dd318dc53fdad767ac939778170000000000000000000000000000000000000000000000000000000000000001000000000000000000000000000000000000000000000000000000000000002000000000000000000000000000000000000000000000000000000000000000c00000000000000000000000000000000000000000000000000000000000000000000000000000000000000000000000000000000000000000000000000000004000000000000000000000000000000000000000000000000000000000000000600000000000000000000000003c281a39944a2319aa653d81cfd93ca10983d23400000000000000000000000042000000000000000000000000000000000000060000000000000000000000000000000000000000000000000000000000000bb800000000000000000000000000000000000000000000000000000000000000000000000000000000000000000000000000000000000000000000000000000000000000000000000000000000000000000000000000000000","maxFeePerGas":"0xf69fa36","maxPriorityFeePerGas":"0xe5b64","nonce":"0x58","r":"0x84eaf0b0a2bc8f3df592e4f1c2c01b3fd64d5bcb289950bee8e940b8f42ff161","s":"0x1e85e25426f330df4052c86834657e102ef71cb4e55820d72c63ff85412c96c7","to":"0xb80abcc52788ed028802898092b7f8bf2acbf5c5","transactionIndex":"0x18","type":"0x2","v":"0x1","value":"0x0","yParity":"0x1"},{"accessList":[],"blockHash":"0x1b2aa7b9e01e296bf5864e42963c6150bd6e56ae38b1cc1ab0313489c0db65fa","blockNumber":"0xe141b5","chainId":"0x2105","from":"0x4a4bd61a45a132116b96a980e6b62d2100938acb","gas":"0x23b49","gasPrice":"0x51bfc19","hash":"0x9ab339e1e81bd8d0b78a53e1973a88d0df4727da298da6dd3ecfe57d4518cc98","input":"0x7ff36ab50000000000000000000000000000000000000000000000021051111dc13f495c00000000000000000000000000000000000000000000000000000000000000800000000000000000000000004a4bd61a45a132116b96a980e6b62d2100938acb00000000000000000000000000000000000000000000000000000000664cee4f0000000000000000000000000000000000000000000000000000000000000002000000000000000000000000420000000000000000000000000000000000000600000000000000000000000015de59489de5e7f240d72f787dc4a292b8199339","maxFeePerGas":"0xf52bfcd","maxPriorityFeePerGas":"0xded21","nonce":"0x1e7","r":"0xb999d581366b13b6309895de9eb3d3431054d6d8527427b371ed6463efc47881","s":"0x3026109c6c7ed8534d8a38e1ea7c96f993a76fcdd5f6b5306200135a76cf82ae","to":"0x4ee501685e4874e8c4635bd9263668db0ac71c93","transactionIndex":"0x19","type":"0x2","v":"0x1","value":"0x1cfd7a0d5e000","yParity":"0x1"},{"accessList":[],"blockHash":"0x1b2aa7b9e01e296bf5864e42963c6150bd6e56ae38b1cc1ab0313489c0db65fa","blockNumber":"0xe141b5","chainId":"0x2105","from":"0x2e26fe636106febde20c05bd399e56b0235233c0","gas":"0xa7f0d","gasPrice":"0x51bfc19","hash":"0xb31143ccd3cdb464ca3ed295b313e2ee74642a55962fd47a3fbfa73ebc14418c","input":"0x3ce33bff000000000000000000000000000000000000000000000000000000000000008000000000000000000000000000000000000000000000000000000000000000000000000000000000000000000000000000000000000000000f15781b3645d9a500000000000000000000000000000000000000000000000000000000000000c0000000000000000000000000000000000000000000000000000000000000000d6c696669416461707465725632000000000000000000000000000000000000000000000000000000000000000000000000000000000000000000000000000b200000000000000000000000001231deb6f5749ef6ce6943a275a1d3e7486f4eae0000000000000000000000001231deb6f5749ef6ce6943a275a1d3e7486f4eae0000000000000000000000000000000000000000000000000000000000000038000000000000000000000000000000000000000000000000000000000000000000000000000000000000000000000000000000000000000000000000000000000000000000000000000000000000000000000000000000000ef07cc5d118980000000000000000000000000000000000000000000000000000000000000001400000000000000000000000000000000000000000000000000021c27930fa6800000000000000000000000000675d5cebae87ecb8acc7f057e95156f7be9697d100000000000000000000000000000000000000000000000000000000000009c483f31917000000000000000000000000000000000000000000000000000000000000006000000000000000000000000000000000000000000000000000000000000002200000000000000000000000000000000000000000000000000000000000000380e3a2b336ea117373287d681bcdf110c14ca3edfb900c5697eaa42960a223619000000000000000000000000000000000000000000000000000000000000001400000000000000000000000000000000000000000000000000000000000000180000000000000000000000000000000000000000000000000000000000000000000000000000000000000000042000000000000000000000000000000000000060000000000000000000000002e26fe636106febde20c05bd399e56b0235233c00000000000000000000000000000000000000000000000000ef07cc5d11898000000000000000000000000000000000000000000000000000000000000000038000000000000000000000000000000000000000000000000000000000000000100000000000000000000000000000000000000000000000000000000000000010000000000000000000000000000000000000000000000000000000000000006616d61726f6b0000000000000000000000000000000000000000000000000000000000000000000000000000000000000000000000000000000000000000000f6d6574616d61736b2d6272696467650000000000000000000000000000000000000000000000000000000000000000000000000000000000000000000000000100000000000000000000000000000000000000000000000000000000000000200000000000000000000000005215e9fd223bc909083fbdb2860213873046e45d0000000000000000000000005215e9fd223bc909083fbdb2860213873046e45d000000000000000000000000000000000000000000000000000000000000000000000000000000000000000042000000000000000000000000000000000000060000000000000000000000000000000000000000000000000ef07cc5d118980000000000000000000000000000000000000000000000000000000000000000e000000000000000000000000000000000000000000000000000000000000000010000000000000000000000000000000000000000000000000000000000000004d0e30db00000000000000000000000000000000000000000000000000000000000000000000000000000000000000000000000000000000000000000000000e0000000000000000000000000050e198e36a73a1e32f15c3afc58c4506d82f657000000000000000000000000000000000000000000000000000338dc3432d9a500000000000000000000000000000000000000000000000000000000000000320000000000000000000000002e26fe636106febde20c05bd399e56b0235233c00000000000000000000000000000000000000000000000000000000000626e620000000000000000000000000000000000000000000000000000000000000000000000000000000000000000000000000000000000000000000000000000054000000000000000000000000000000000000000000000000000000000000000400000000000000000000000002e26fe636106febde20c05bd399e56b0235233c0000000000000000000000000000000000000000000000000000000000000000100000000000000000000000000000000000000000000000000000000000000200000000000000000000000001111111254eeb25477b68fb85ed929f73a9605820000000000000000000000001111111254eeb25477b68fb85ed929f73a9605820000000000000000000000002170ed0880ac9a755fd29b2688956bd959f933f800000000000000000000000000000000000000000000000000000000000000000000000000000000000000000000000000000000000000000ed7fd39528ac35500000000000000000000000000000000000000000000000000000000000000e0000000000000000000000000000000000000000000000000000000000000000100000000000000000000000000000000000000000000000000000000000003a812aa3caf000000000000000000000000e37e799d5077682fa0a244d46e5649f71457bd090000000000000000000000002170ed0880ac9a755fd29b2688956bd959f933f8000000000000000000000000eeeeeeeeeeeeeeeeeeeeeeeeeeeeeeeeeeeeeeee000000000000000000000000e37e799d5077682fa0a244d46e5649f71457bd090000000000000000000000002dfadab8266483bed9fd9a292ce56596a2d1378d0000000000000000000000000000000000000000000000000ed7fd39528ac35500000000000000000000000000000000000000000000000059c7d792057922740000000000000000000000000000000000000000000000000000000000000004000000000000000000000000000000000000000000000000000000000000014000000000000000000000000000000000000000000000000000000000000001600000000000000000000000000000000000000000000000000000000000000000000000000000000000000000000000000000000000000000000000000000020a0000000000000000000000000000000000000000000001ec0001d600018c00a0c9e75c480000000000000000221000000000000000000000000000000000000000000000000000015e0000af00a007e5c0d200000000000000000000000000000000000000000000000000008b00004f02a00000000000000000000000000000000000000000000000001c9775f1f99ff2e9ee63c1e50162fcb3c1794fb95bd8b1a97f6ad5d8a7e4943a1e2170ed0880ac9a755fd29b2688956bd959f933f84101bb4cdb9cbd36b01bd1cbaebf2de08d9173bc095c00042e1a7d4d000000000000000000000000000000000000000000000000000000000000000000a007e5c0d200000000000000000000000000000000000000000000000000008b00004f02a00000000000000000000000000000000000000000000000003cbce278b833e9e6ee63c1e501d0e226f674bbf064f54ab47f42473ff80db98cba2170ed0880ac9a755fd29b2688956bd959f933f84101bb4cdb9cbd36b01bd1cbaebf2de08d9173bc095c00042e1a7d4d000000000000000000000000000000000000000000000000000000000000000000a0f2fa6b66eeeeeeeeeeeeeeeeeeeeeeeeeeeeeeeeeeeeeeee0000000000000000000000000000000000000000000000005a3b56b9591e68180000000000000000001ce7180b9dbb3ec0611111111254eeb25477b68fb85ed929f73a960582000000000000000000000000000000000000000000002a94d11400000000000000000000000000000000000000000000000000000000000000000000000000000000000000000000000000000000","maxFeePerGas":"0xf59a8fe","maxPriorityFeePerGas":"0xded21","nonce":"0xaf","r":"0xdf7454032e3dea47b509e877bee94ef6256ecdf061387581859ca8a8983d26ee","s":"0x2630259c6cbe7b75819eb536291be7b724db6dfe85143528f2258c226895db05","to":"0xa20ecbc821fb54064aa7b5c6ac81173b8b34df71","transactionIndex":"0x1a","type":"0x2","v":"0x0","value":"0xf15781b3645d9a5","yParity":"0x0"},{"accessList":[],"blockHash":"0x1b2aa7b9e01e296bf5864e42963c6150bd6e56ae38b1cc1ab0313489c0db65fa","blockNumber":"0xe141b5","chainId":"0x2105","from":"0x435c6ffb2a567495b440682e6515cbcbe246c345","gas":"0x23fa1","gasPrice":"0x51bfc19","hash":"0xe4b903aeb7a8ef966f4779ccac081418b166ca3dc17f4dc8ff79836e7f72061f","input":"0x2646478b000000000000000000000000eeeeeeeeeeeeeeeeeeeeeeeeeeeeeeeeeeeeeeee00000000000000000000000000000000000000000000000002c68af0bb140000000000000000000000000000532f27101965dd16442e59d40670faf5ebb142e4000000000000000000000000000000000000000000000300614eed165bca8f5c000000000000000000000000435c6ffb2a567495b440682e6515cbcbe246c34500000000000000000000000000000000000000000000000000000000000000c000000000000000000000000000000000000000000000000000000000000000700301ffff0201404e927b203375779a6abd52a2049ce0adf6609b420000000000000000000000000000000000000604420000000000000000000000000000000000000600404e927b203375779a6abd52a2049ce0adf6609b01435c6ffb2a567495b440682e6515cbcbe246c345000bb800000000000000000000000000000000","maxFeePerGas":"0xf52bfcd","maxPriorityFeePerGas":"0xded21","nonce":"0x6f","r":"0xaada3afbb61d58053d7fbbb0c8a9cef2d998930c717dd2c66d0e07a80dd42d66","s":"0x1d2f9ef6e9f92f2fb205da0c8ce88b0ee65b8226c0bf2117a368e148153ad9eb","to":"0x0389879e0156033202c44bf784ac18fc02edee4f","transactionIndex":"0x1b","type":"0x2","v":"0x0","value":"0x2c68af0bb140000","yParity":"0x0"},{"accessList":[],"blockHash":"0x1b2aa7b9e01e296bf5864e42963c6150bd6e56ae38b1cc1ab0313489c0db65fa","blockNumber":"0xe141b5","chainId":"0x2105","from":"0x0cb677922feeffd234c246a37e64f40f0c9d835e","gas":"0x5208","gasPrice":"0x51bfc19","hash":"0x5df815cf9c142cf22a7a46e99a2321acd7eb2ca2ae106fa3155eedaa63e24b72","input":"0x","maxFeePerGas":"0xf59a8fe","maxPriorityFeePerGas":"0xded21","nonce":"0x21","r":"0xa7ce7b806c8b6b497ec2ba0ed7620bb85bc9a2a3a5720144cb5d623e0dfcdb7f","s":"0x258cd1d84380401d5eedb9cf70d41a6aa6862eaad15065cc98a12d30f6de0013","to":"0xd44fd449d7145821e0210c8c6d209832955528e2","transactionIndex":"0x1c","type":"0x2","v":"0x1","value":"0xa012317b000","yParity":"0x1"},{"accessList":[],"blockHash":"0x1b2aa7b9e01e296bf5864e42963c6150bd6e56ae38b1cc1ab0313489c0db65fa","blockNumber":"0xe141b5","chainId":"0x2105","from":"0x389dde2ba5f93ecdf0b7304409389f74ee4a5653","gas":"0x5ebb72","gasPrice":"0x51b9b8d","hash":"0x11a3417d6c45cef00d68704da524cda1480cdf0e30428e293ab6cc8899066b81","input":"0xac9650d80000000000000000000000000000000000000000000000000000000000000020000000000000000000000000000000000000000000000000000000000000000200000000000000000000000000000000000000000000000000000000000000400000000000000000000000000000000000000000000000000000000000000100000000000000000000000000000000000000000000000000000000000000008413ead5620000000000000000000000004200000000000000000000000000000000000006000000000000000000000000e98ee851f5e7f65ac5d06520d1c32c94fbd0f1d80000000000000000000000000000000000000000000000000000000000002710000000000000000000000000000000000000006476039699105db7e018ef5a67000000000000000000000000000000000000000000000000000000000000000000000000000000000000000000000000000000000000000000000164883164560000000000000000000000004200000000000000000000000000000000000006000000000000000000000000e98ee851f5e7f65ac5d06520d1c32c94fbd0f1d80000000000000000000000000000000000000000000000000000000000002710fffffffffffffffffffffffffffffffffffffffffffffffffffffffffff276600000000000000000000000000000000000000000000000000000000000016828000000000000000000000000000000000000000000000000000000000000000000000000000000000000000000000000000000000000d3c21bcecceda0ffffda000000000000000000000000000000000000000000000000000000000000000000000000000000000000000000000000000000000000d3c21bcecceda0ffffda000000000000000000000000389dde2ba5f93ecdf0b7304409389f74ee4a565300000000000000000000000000000000000000000000000000000000664ce16b00000000000000000000000000000000000000000000000000000000","maxFeePerGas":"0xf5107f5","maxPriorityFeePerGas":"0xd8c95","nonce":"0x99","r":"0x60a1c9cdc9c0132ed4d14a17a0e494ea0e84c25d22831280b69902d2b42c75c2","s":"0x7397e6dd76fce0de8bf32fbe7df262a30444b352f20b48651072ce2184525a4e","to":"0x03a520b32c04bf3beef7beb72e919cf822ed34f1","transactionIndex":"0x1d","type":"0x2","v":"0x0","value":"0x0","yParity":"0x0"},{"accessList":[],"blockHash":"0x1b2aa7b9e01e296bf5864e42963c6150bd6e56ae38b1cc1ab0313489c0db65fa","blockNumber":"0xe141b5","chainId":"0x2105","from":"0xf3652b8f020bbf328f60d43314f6721491b86e15","gas":"0x52921","gasPrice":"0x51b8dd6","hash":"0x62ee7b0c272077f17a863988f7ca213a498869b68f0a101a19ecdb6108f05270","input":"0x8af033fb00000000000000000000000011ddd59c33c73c44733b4123a86ea5ce57f6e854000000000000000000000000000000000000000000000000000000000000008000000000000000000000000000000000000000000000000000000000000002c000000000000000000000000000000000000000000000000000000000000005200000000000000000000000007f12d13b34f5f4f0a9449c16bcd42f0da47af200000000000000000000000000eeeeeeeeeeeeeeeeeeeeeeeeeeeeeeeeeeeeeeee0000000000000000000000000000000000000000000000000000000000000160000000000000000000000000000000000000000000000000000000000000018000000000000000000000000000000000000000000000000000000000000001a000000000000000000000000000000000000000000000000000000000000001e0000000000000000000000000f3652b8f020bbf328f60d43314f6721491b86e1500000000000000000000000000000000000000000000000000000574fbde6000000000000000000000000000000000000000000000000000011492ef9bf6b9f000000000000000000000000000000000000000000000000000000000000000e000000000000000000000000000000000000000000000000000000000000002200000000000000000000000000000000000000000000000000000000000000000000000000000000000000000000000000000000000000000000000000000000000000000000000000000000000000000000000000000000000000000000000010000000000000000000000000da2a82ed2c387d1751ccbaf999a80b65bdb269e0000000000000000000000000000000000000000000000000000000000000001000000000000000000000000000000000000000000000000000000000000001e00000000000000000000000000000000000000000000000000000000000000000000000000000000000000000000000000000000000000000000000000000240000000000000000000000000000000000000000000000000000000000000002000000000000000000000000000000000000000000000000000000000000000a000000000000000000000000000000000000000000000000000000000000000e0000000000000000000000000000000000000000000000000000000000000012000000000000000000000000000000000000000000000000000000000664ce4e200000000000000000000000000000000000000000000000000000000000001e0000000000000000000000000000000000000000000000000000000000000000100000000000000000000000024605e0bb933f6ec96e6bbbcea0be8cc880f6e6f000000000000000000000000000000000000000000000000000000000000000100000000000000000000000000000000000000000000000000000574fbde600000000000000000000000000000000000000000000000000000000000000000010000000000000000000000000000000000000000000000000000000000000020000000000000000000000000000000000000000000000000000000000000004e010000003400000024605e0bb933f6ec96e6bbbcea0be8cc880f6e6f020000000000000000000000000000000000000003000003e800000032007f12d13b34f5f4f0a9449c16bcd42f0da47af2000000000000000000000000000000000000000000000000000000000000000000000000000000000000000000000000000020000000000000000000000012457db0b200000000000000000116ccd9216b204400000000000000000000000000000000000000000000000000000000000001f17b22536f75726365223a2264657873637265656e6572222c22416d6f756e74496e555344223a223239312e37313937222c22416d6f756e744f7574555344223a223239312e36353334383238383436353637222c22526566657272616c223a22222c22466c616773223a312c22496e74656772697479496e666f223a7b224b65794944223a2231222c225369676e6174757265223a22527a7a5950727547623971784d6a50787a7a596f54346d724e477675416f42526761566f7a50655252443478394549346a554e725266316f562f45784f5754724b6b795247375a4d3579736f356e667972415372676d57615763337165664733375066452f752f33717338706f6c4158427063464971526d77537a757a66382b41706735316266567757596d686b74305235544b5142523745366843643831646578446f64556951466d357648627853422b45416463493769637571453968796c495a527a6a7a7638354454386f7632773159552b55487461726d7a44667974666b59386977446c5a4534727456334f3858444f6761306e6534512b4d77594d5449397268757174533855534950477841527457564b783673656941737275554c50526b4d4346484a75715643754634483058375837634e45574c7650386652674430514a454239326a6c48684351524a786f6979773d3d227d7d000000000000000000000000000000","maxFeePerGas":"0xf593abb","maxPriorityFeePerGas":"0xd7ede","nonce":"0xe","r":"0xf364925c95f8abd990c4ab7064aaa1a357ca51e7cc717c3104acdf9c79fd1c93","s":"0x3a29267cacc3e8477a21784bf094034d7bca30f8fb735cd20223a6f7e5975a22","to":"0x6131b5fae19ea4f9d964eac0408e4408b66337b5","transactionIndex":"0x1e","type":"0x2","v":"0x1","value":"0x0","yParity":"0x1"},{"accessList":[],"blockHash":"0x1b2aa7b9e01e296bf5864e42963c6150bd6e56ae38b1cc1ab0313489c0db65fa","blockNumber":"0xe141b5","chainId":"0x2105","from":"0xa8fd98c5f4b9e99559342fb89454ee86aca7f941","gas":"0x1b0b8","gasPrice":"0x50e12e0","hash":"0xc567d811a8f96ef0dbbb46be81f43438a3e7f825be5859bdd7f63c5767b1e5f2","input":"0xa9059cbb00000000000000000000000000000000000000000000000000000000000000a0000000000000000000000000000000000000000000000000000000000000012000000000000000000000000000000000000000000000000000000000000001a0000000000000000000000000000000000000000000000000000000000000022000000000000000000000000000000000000000000000000000000000000002a0000000000000000000000000000000000000000000000000000000000000000300000000000000000000000070bc7a3dab26cf1df204c2fd4e83a549c3de71c00000000000000000000000006deae77357dbbb045f8131bf8231eed7f3b97ace000000000000000000000000fa47d79d4d95fea278c5c35d12f104582379267900000000000000000000000000000000000000000000000000000000000000030000000000000000000000006dcbbfdc2123e37b1feaf6d15f9454e69d8b44670000000000000000000000006dcbbfdc2123e37b1feaf6d15f9454e69d8b44670000000000000000000000006dcbbfdc2123e37b1feaf6d15f9454e69d8b4467000000000000000000000000000000000000000000000000000000000000000300000000000000000000000013c2d208dd5af367a3895f625ad9bce1577de2e000000000000000000000000013c2d208dd5af367a3895f625ad9bce1577de2e000000000000000000000000013c2d208dd5af367a3895f625ad9bce1577de2e000000000000000000000000000000000000000000000000000000000000000030000000000000000000000000000000000000000000000000000000072cd11860000000000000000000000000000000000000000000000000000000092ecea40000000000000000000000000000000000000000000000000000000001dcd65000000000000000000000000000000000000000000000000000000000000000000","maxFeePerGas":"0x54f6f06","maxPriorityFeePerGas":"0x3e8","nonce":"0xa0c1","r":"0x749ed5a029c22b3a1c490b7556818de6e9bb8b08017af085c69e772887c5d183","s":"0x56f2fec292c884bfd62cd3cb736f71a83fab22e487a587447fff798e8ebbef77","to":"0xa9c79c1725354b6bd8b58d9754918679931dba80","transactionIndex":"0x1f","type":"0x2","v":"0x1","value":"0x0","yParity":"0x1"}],"transactionsRoot":"0x00bf5ad152b86f3863b656beae02ea2a5cd6b7ef949f3a8362352042037666ea","uncles":[],"withdrawals":[],"withdrawalsRoot":"0x56e81f171bcc55a6ff8345e692c0f86e5b48e01b996cadc001622fb5e363b421"},"id":
        0}

        '
    headers:
      CF-RAY:
      - 9f15e853bc29f771-MAD
      Cache-Control:
      - max-age=0, private, must-revalidate
      Connection:
      - keep-alive
      Content-Type:
      - application/json; charset=utf-8
      Date:
      - Fri, 24 Apr 2026 14:48:12 GMT
      Nel:
      - '{"report_to":"cf-nel","success_fraction":0.0,"max_age":604800}'
      Report-To:
      - '{"group":"cf-nel","max_age":604800,"endpoints":[{"url":"https://a.nel.cloudflare.com/report/v4?s=WaEbXPg%2F61V8riu3lhHqYM6eAESTbVZdK4Zo91nmZuUHXYgXwaooZLWKQkzaOeVBn1DPSQxXmutKe0a5S4N2YWKq%2F9P97ixKNy38woYE5QUQ3pn72jw%2FRc8EYqR65MyNHnfpcg%3D%3D"}]}'
      Server:
      - cloudflare
      alt-svc:
      - h3=":443"; ma=86400
      cf-cache-status:
      - DYNAMIC
      content-length:
      - '60679'
      strict-transport-security:
      - max-age=31536000; includeSubDomains
      vary:
      - accept-encoding
      x-credits-remaining:
      - '98060'
      x-ratelimit-limit:
      - '5'
      x-ratelimit-remaining:
      - '4'
      x-ratelimit-reset:
      - '860'
      x-request-id:
      - 21aa4a0de359670156f4a07db1ac9d4f
    status:
      code: 200
      message: OK
- request:
    body: '{"id": 0, "jsonrpc": "2.0", "method": "eth_getTransactionReceipt", "params":
      ["0xcfffd4c6c60dfa3a94466959e365ff57124ccdc1e31f97b75238b757658d3121"]}'
    headers:
      Accept:
      - '*/*'
      Accept-Encoding:
      - gzip, deflate
      Connection:
      - keep-alive
      Content-Length:
      - '148'
      Content-Type:
      - application/json
      User-Agent:
      - rotki/1.42.2.dev317+g7a75c36007
    method: POST
    uri: https://api.blockscout.com/8453/json-rpc
  response:
    body:
      string: '{"jsonrpc":"2.0","result": {"blockHash":"0x1b2aa7b9e01e296bf5864e42963c6150bd6e56ae38b1cc1ab0313489c0db65fa","blockNumber":"0xe141b5","contractAddress":null,"cumulativeGasUsed":"0x25f4f4","effectiveGasPrice":"0x51d5138","from":"0xe17c7f14fb0b2f41fbfdce69346ba5c192705c91","gasUsed":"0x2d663","logs":[{"address":"0x46415998764c29ab2a25cbea6254146d50d22687","blockHash":"0x1b2aa7b9e01e296bf5864e42963c6150bd6e56ae38b1cc1ab0313489c0db65fa","blockNumber":"0xe141b5","data":"0x00000000000000000000000000000000000000000000000000000000084082900000000000000000000000000000000000000000000000000000000021018110","logIndex":"0x25","removed":false,"topics":["0x7120161a7b3d31251e01294ab351ef15a41b91659a36032e4641bb89b121e321","0xdba352d93a64b17c71104cbddc6aef85cd432322a1446b5b65163cbbc615cd0c"],"transactionHash":"0xcfffd4c6c60dfa3a94466959e365ff57124ccdc1e31f97b75238b757658d3121","transactionIndex":"0x12"},{"address":"0xbbbbbbbbbb9cc5e90e3b3af64bdaf62c37eeffcb","blockHash":"0x1b2aa7b9e01e296bf5864e42963c6150bd6e56ae38b1cc1ab0313489c0db65fa","blockNumber":"0xe141b5","data":"0x000000000000000000000000000000000000000000000000000000000840829000000000000000000000000000000000000000000000000000000000000000000000000000000000000000000000000000000000000000000000000000000000","logIndex":"0x26","removed":false,"topics":["0x9d9bd501d0657d7dfe415f779a620a62b78bc508ddc0891fbbd8b7ac0f8fce87","0xdba352d93a64b17c71104cbddc6aef85cd432322a1446b5b65163cbbc615cd0c"],"transactionHash":"0xcfffd4c6c60dfa3a94466959e365ff57124ccdc1e31f97b75238b757658d3121","transactionIndex":"0x12"},{"address":"0xbbbbbbbbbb9cc5e90e3b3af64bdaf62c37eeffcb","blockHash":"0x1b2aa7b9e01e296bf5864e42963c6150bd6e56ae38b1cc1ab0313489c0db65fa","blockNumber":"0xe141b5","data":"0x000000000000000000000000e17c7f14fb0b2f41fbfdce69346ba5c192705c9100000000000000000000000000000000000000000000000000000000006acfc00000000000000000000000000000000000000000000000000000065dd0837000","logIndex":"0x27","removed":false,"topics":["0x570954540bed6b1304a87dfe815a5eda4a648f7097a16240dcd85c9b5fd42a43","0xdba352d93a64b17c71104cbddc6aef85cd432322a1446b5b65163cbbc615cd0c","0x000000000000000000000000e17c7f14fb0b2f41fbfdce69346ba5c192705c91","0x000000000000000000000000e17c7f14fb0b2f41fbfdce69346ba5c192705c91"],"transactionHash":"0xcfffd4c6c60dfa3a94466959e365ff57124ccdc1e31f97b75238b757658d3121","transactionIndex":"0x12"},{"address":"0x833589fcd6edb6e08f4c7c32d4f71b54bda02913","blockHash":"0x1b2aa7b9e01e296bf5864e42963c6150bd6e56ae38b1cc1ab0313489c0db65fa","blockNumber":"0xe141b5","data":"0x00000000000000000000000000000000000000000000000000000000006acfc0","logIndex":"0x28","removed":false,"topics":["0xddf252ad1be2c89b69c2b068fc378daa952ba7f163c4a11628f55a4df523b3ef","0x000000000000000000000000bbbbbbbbbb9cc5e90e3b3af64bdaf62c37eeffcb","0x000000000000000000000000e17c7f14fb0b2f41fbfdce69346ba5c192705c91"],"transactionHash":"0xcfffd4c6c60dfa3a94466959e365ff57124ccdc1e31f97b75238b757658d3121","transactionIndex":"0x12"}],"logsBloom":"0x00000000000000000002000000000080000000000000000000000000000000000000400000000100000000000000100000000000000000000000000020804400000000000010000000000008000000000000000000080000000000080000000000800000100000000000000000000000000000000000000000000010000000000000000000000008000000000000000000000000000000000008000000000000000000000000000000000000040000000000002000000000000000000000000020000002000000000000000000000000000100000000000000000000000000000000004001000008000000200001000000000000000000004040000000000000","status":"0x1","to":"0xbbbbbbbbbb9cc5e90e3b3af64bdaf62c37eeffcb","transactionHash":"0xcfffd4c6c60dfa3a94466959e365ff57124ccdc1e31f97b75238b757658d3121","transactionIndex":"0x12","type":"0x2"},"id":
        0}

        '
    headers:
      CF-RAY:
      - 9f15e8568a42a0ad-MAD
      Cache-Control:
      - max-age=0, private, must-revalidate
      Connection:
      - keep-alive
      Content-Type:
      - application/json; charset=utf-8
      Date:
      - Fri, 24 Apr 2026 14:48:12 GMT
      Nel:
      - '{"report_to":"cf-nel","success_fraction":0.0,"max_age":604800}'
      Report-To:
      - '{"group":"cf-nel","max_age":604800,"endpoints":[{"url":"https://a.nel.cloudflare.com/report/v4?s=6HXjOBvWTzpePowlZY2lzorGviRQsTwuurSgpaxDzJylgQkJmrz60kFbiqXgqPpUqkPxMi15x%2Fb73G0g8XId%2BFhcqo0UU1A4fkFtWBwCyu2qrNRIZGbF0GFkXQx5%2FfyQPlSFfg%3D%3D"}]}'
      Server:
      - cloudflare
      alt-svc:
      - h3=":443"; ma=86400
      cf-cache-status:
      - DYNAMIC
      content-length:
      - '3698'
      strict-transport-security:
      - max-age=31536000; includeSubDomains
      vary:
      - accept-encoding
      x-credits-remaining:
      - '98040'
      x-ratelimit-limit:
      - '5'
      x-ratelimit-remaining:
      - '3'
      x-ratelimit-reset:
      - '408'
      x-request-id:
      - ac37e7279931e3102743d7affbc6bd20
    status:
      code: 200
      message: OK
- request:
    body: null
    headers:
      Accept:
      - '*/*'
      Accept-Encoding:
      - gzip, deflate
      Connection:
      - keep-alive
      User-Agent:
      - rotki/1.42.2.dev317+g7a75c36007
    method: GET
    uri: https://api.blockscout.com/8453/api/v2/transactions/0xcfffd4c6c60dfa3a94466959e365ff57124ccdc1e31f97b75238b757658d3121
  response:
    body:
      string: '{"l1_gas_used":"4588","priority_fee":"185955000000","raw_input":"0x50d8cd4b000000000000000000000000833589fcd6edb6e08f4c7c32d4f71b54bda029130000000000000000000000002ae3f1ec7f1f5012cfeab0185bfc7aa3cf0dec220000000000000000000000004756c26e01e61c7c2f86b10f4316e179db8f942500000000000000000000000046415998764c29ab2a25cbea6254146d50d226870000000000000000000000000000000000000000000000000bef55718ad6000000000000000000000000000000000000000000000000000000000000006acfc00000000000000000000000000000000000000000000000000000000000000000000000000000000000000000e17c7f14fb0b2f41fbfdce69346ba5c192705c91000000000000000000000000e17c7f14fb0b2f41fbfdce69346ba5c192705c91","is_pending_update":false,"op_withdrawals":[],"result":"success","hash":"0xcfffd4c6c60dfa3a94466959e365ff57124ccdc1e31f97b75238b757658d3121","max_fee_per_gas":"87803613","revert_reason":null,"confirmation_duration":[0,2.0e3],"transaction_burnt_fee":"15770363042280","type":2,"token_transfers_overflow":false,"confirmations":30363950,"position":18,"max_priority_fee_per_gas":"1000000","transaction_tag":null,"created_contract":null,"value":"0","l1_fee_scalar":"0","from":{"ens_domain_name":null,"hash":"0xe17C7f14FB0b2F41fbfdCe69346Ba5C192705c91","implementations":[{"address_hash":"0x7702cb554e6bFb442cb743A7dF23154544a7176C","name":"EIP7702Proxy"}],"is_contract":true,"is_scam":false,"is_verified":true,"metadata":null,"name":null,"private_tags":[],"proxy_type":"eip7702","public_tags":[],"reputation":"ok","watchlist_names":[]},"gas_used":"185955","status":"ok","to":{"ens_domain_name":null,"hash":"0xBBBBBbbBBb9cC5e90e3b3Af64bdAF62C37EEFFCb","implementations":[],"is_contract":true,"is_scam":false,"is_verified":true,"metadata":{"tags":[{"meta":{"projectName":"Moonwell","tagUrl":"https://app.klerosscout.eth.limo/#/?registry=Single_Tags&itemdetails=0xe1de03fd86947b15c8d389957315331832348c3341c04d715687ce010e3203e7@0x66260c69d03837016d88c9877e61e08ef74c59f2","tooltipDescription":"Official
        Moonwell router for Morpho markets on Base; listed on the Moonwell Base contract
        addresses page.","tooltipUrl":"https://moonwell.fi"},"name":"Morpho Markets
        Router","ordinal":10,"slug":"morpho-markets-router-8453","tagType":"name"},{"meta":{"appID":"morpho","tagIcon
        ":"https://blockscout-icons.s3.us-east-1.amazonaws.com/OLI_tag_logo.svg","textColor":"#C163D4","tooltipAttribution":"https://www.openlabelsinitiative.org?utm_source=blockscout","tooltipAttributionIcon":"https://blockscout-icons.s3.us-east-1.amazonaws.com/OLI_tag_logo.svg","tooltipDescription":"An
        efficient, secure & flexible lending protocol on Base.","tooltipUrl":"https://morpho.org/"},"name":"Morpho:
        Morpho Blue","ordinal":10,"slug":"morpho-morpho-blue","tagType":"name"},{"meta":{"appActionButtonText":"Morpho
        Aave App","appID":"morpho-aave-app"},"name":"Morpho","ordinal":0,"slug":"morpho","tagType":"protocol"}]},"name":"Morpho","private_tags":[],"proxy_type":null,"public_tags":[],"reputation":"ok","watchlist_names":[]},"authorization_list":[],"l1_fee":"107875571606","method":"borrow","fee":{"type":"actual","value":"16064193613886"},"actions":[],"gas_limit":"241971","gas_price":"85807416","decoded_input":{"method_call":"borrow((address,address,address,address,uint256)
        marketParams, uint256 assets, uint256 shares, address onBehalf, address receiver)","method_id":"50d8cd4b","parameters":[{"name":"marketParams","type":"(address,address,address,address,uint256)","value":["0x833589fCD6eDb6E08f4c7C32D4f71b54bdA02913","0x2Ae3F1Ec7F1F5012CFEab0185bfc7aa3cf0DEc22","0x4756c26E01E61c7c2F86b10f4316e179db8F9425","0x46415998764C29aB2a25CbeA6254146D50D22687","860000000000000000"]},{"name":"assets","type":"uint256","value":"7000000"},{"name":"shares","type":"uint256","value":"0"},{"name":"onBehalf","type":"address","value":"0xe17C7f14FB0b2F41fbfdCe69346Ba5C192705c91"},{"name":"receiver","type":"address","value":"0xe17C7f14FB0b2F41fbfdCe69346Ba5C192705c91"}]},"l1_gas_price":"21355629664","token_transfers":[{"block_hash":"0x1b2aa7b9e01e296bf5864e42963c6150bd6e56ae38b1cc1ab0313489c0db65fa","block_number":14762421,"from":{"ens_domain_name":null,"hash":"0xBBBBBbbBBb9cC5e90e3b3Af64bdAF62C37EEFFCb","implementations":[],"is_contract":true,"is_scam":false,"is_verified":true,"metadata":{"tags":[{"meta":{"projectName":"Moonwell","tagUrl":"https://app.klerosscout.eth.limo/#/?registry=Single_Tags&itemdetails=0xe1de03fd86947b15c8d389957315331832348c3341c04d715687ce010e3203e7@0x66260c69d03837016d88c9877e61e08ef74c59f2","tooltipDescription":"Official
        Moonwell router for Morpho markets on Base; listed on the Moonwell Base contract
        addresses page.","tooltipUrl":"https://moonwell.fi"},"name":"Morpho Markets
        Router","ordinal":10,"slug":"morpho-markets-router-8453","tagType":"name"},{"meta":{"appID":"morpho","tagIcon
        ":"https://blockscout-icons.s3.us-east-1.amazonaws.com/OLI_tag_logo.svg","textColor":"#C163D4","tooltipAttribution":"https://www.openlabelsinitiative.org?utm_source=blockscout","tooltipAttributionIcon":"https://blockscout-icons.s3.us-east-1.amazonaws.com/OLI_tag_logo.svg","tooltipDescription":"An
        efficient, secure & flexible lending protocol on Base.","tooltipUrl":"https://morpho.org/"},"name":"Morpho:
        Morpho Blue","ordinal":10,"slug":"morpho-morpho-blue","tagType":"name"},{"meta":{"appActionButtonText":"Morpho
        Aave App","appID":"morpho-aave-app"},"name":"Morpho","ordinal":0,"slug":"morpho","tagType":"protocol"}]},"name":"Morpho","private_tags":[],"proxy_type":null,"public_tags":[],"reputation":"ok","watchlist_names":[]},"log_index":40,"method":null,"timestamp":null,"to":{"ens_domain_name":null,"hash":"0xe17C7f14FB0b2F41fbfdCe69346Ba5C192705c91","implementations":[{"address_hash":"0x7702cb554e6bFb442cb743A7dF23154544a7176C","name":"EIP7702Proxy"}],"is_contract":true,"is_scam":false,"is_verified":true,"metadata":null,"name":null,"private_tags":[],"proxy_type":"eip7702","public_tags":[],"reputation":"ok","watchlist_names":[]},"token":{"address_hash":"0x833589fCD6eDb6E08f4c7C32D4f71b54bdA02913","circulating_market_cap":"77808895226.34079","decimals":"6","exchange_rate":"0.999779","holders_count":"11762341","icon_url":"https://assets.coingecko.com/coins/images/6319/small/USDC.png?1769615602","name":"USDC","reputation":"ok","symbol":"USDC","total_supply":"4481151635310981","type":"ERC-20","volume_24h":"14465952523.98213"},"token_type":"ERC-20","total":{"decimals":"6","value":"7000000"},"transaction_hash":"0xcfffd4c6c60dfa3a94466959e365ff57124ccdc1e31f97b75238b757658d3121","type":"token_transfer"}],"base_fee_per_gas":"84807416","timestamp":"2024-05-21T17:56:29.000000Z","nonce":11,"historic_exchange_rate":"3668.42","transaction_types":["contract_call","token_transfer"],"exchange_rate":"2315.15","block_number":14762421,"has_error_in_internal_transactions":false}'
    headers:
      CF-RAY:
      - 9f15e857fedddf37-MAD
      Cache-Control:
      - max-age=0, private, must-revalidate
      Connection:
      - keep-alive
      Content-Type:
      - application/json; charset=utf-8
      Date:
      - Fri, 24 Apr 2026 14:48:13 GMT
      Nel:
      - '{"report_to":"cf-nel","success_fraction":0.0,"max_age":604800}'
      Report-To:
      - '{"group":"cf-nel","max_age":604800,"endpoints":[{"url":"https://a.nel.cloudflare.com/report/v4?s=3FGxfsZ%2FuakjMn7ssbucI%2F7pmFHMESUkYpghYC68lByybJe9uW3PIyPmX8HgVfb21h8JQ1dJqP9vNA4nVoHHey4GQOD%2BhHcIES3qR38VWTbfX4QVqZaV33rFI2R7TPr4I75KkQ%3D%3D"}]}'
      Server:
      - cloudflare
      alt-svc:
      - h3=":443"; ma=86400
      cf-cache-status:
      - DYNAMIC
      content-length:
      - '6730'
      strict-transport-security:
      - max-age=31536000; includeSubDomains
      vary:
      - accept-encoding
      x-credits-remaining:
      - '98020'
      x-ratelimit-limit:
      - '5'
      x-ratelimit-remaining:
      - '2'
      x-ratelimit-reset:
      - '169'
      x-request-id:
      - fb1030814b6beea86b826ea394ff3b3b
    status:
      code: 200
      message: OK
- request:
    body: null
    headers:
      Accept:
      - '*/*'
      Accept-Encoding:
      - gzip, deflate
      Connection:
      - keep-alive
      User-Agent:
      - rotki/1.42.2.dev317+g7a75c36007
    method: GET
    uri: https://api.blockscout.com/8453/api?action=txlistinternal&module=account&sort=asc&txhash=0xcfffd4c6c60dfa3a94466959e365ff57124ccdc1e31f97b75238b757658d3121
  response:
    body:
      string: '{"message":"No internal transactions found","result":[],"status":"0"}'
    headers:
      CF-RAY:
      - 9f15e85cd8740331-MAD
      Cache-Control:
      - max-age=0, private, must-revalidate
      Connection:
      - keep-alive
      Content-Type:
      - application/json; charset=utf-8
      Date:
      - Fri, 24 Apr 2026 14:48:13 GMT
      Nel:
      - '{"report_to":"cf-nel","success_fraction":0.0,"max_age":604800}'
      Report-To:
      - '{"group":"cf-nel","max_age":604800,"endpoints":[{"url":"https://a.nel.cloudflare.com/report/v4?s=0Z5FLisVrkv9nHZ1d%2BDKQmg9dB5%2Fq3uPAmelwja%2Fzw2mwUcQ4J2%2BYF2CjEVqZdiYRs3ffdP7CASgnM76XEuZ3ETVBm4Uw1Ces%2BDqjV8bVNND%2Boq0KiCv12YseH51S2K239IjcQ%3D%3D"}]}'
      Server:
      - cloudflare
      alt-svc:
      - h3=":443"; ma=86400
      cf-cache-status:
      - DYNAMIC
      content-length:
      - '69'
      strict-transport-security:
      - max-age=31536000; includeSubDomains
      vary:
      - accept-encoding
      x-credits-remaining:
      - '98000'
      x-ratelimit-limit:
      - '5'
      x-ratelimit-remaining:
      - '4'
      x-ratelimit-reset:
      - '397'
      x-request-id:
      - 85ba217e88010fcb8b39c60f4ac34730
    status:
      code: 200
      message: OK
version: 1
