interactions:
- request:
    body: '{"id": 0, "jsonrpc": "2.0", "method": "eth_getTransactionByHash", "params":
      ["0xcd776ba46aff70b3cc1284b954d6e0a10a4d69dc43891787d77c964c467329c8"]}'
    headers:
      Accept:
      - '*/*'
      Accept-Encoding:
      - gzip, deflate
      Connection:
      - keep-alive
      Content-Length:
      - '147'
      Content-Type:
      - application/json
      User-Agent:
      - rotki/1.41.2.dev1023+g19b876d8c3.d20260314
    method: POST
    uri: https://api.blockscout.com/8453/json-rpc
  response:
    body:
      string: '{"jsonrpc":"2.0","result": {"accessList":[],"blockHash":"0x488ce1adcbd182e1b9c64c24a7eb248b2184e73aecc51bb269cf969d5b93f4c4","blockNumber":"0x938e94","chainId":"0x2105","from":"0xa01f6d0985389a8e106d3158a9441ac21eac8d8c","gas":"0x2dd12","gasPrice":"0x187b9","hash":"0xcd776ba46aff70b3cc1284b954d6e0a10a4d69dc43891787d77c964c467329c8","input":"0x2646478b000000000000000000000000eeeeeeeeeeeeeeeeeeeeeeeeeeeeeeeeeeeeeeee0000000000000000000000000000000000000000000000000022eef67530cb910000000000000000000000000d97f261b1e88845184f678e2d1e7a98d9fd38de00000000000000000000000000000000000000000002508dedc7c3d7dc28f5c2000000000000000000000000a01f6d0985389a8e106d3158a9441ac21eac8d8c00000000000000000000000000000000000000000000000000000000000000c0000000000000000000000000000000000000000000000000000000000000006d0301ffff0201f65bb528ced09008603509c3fda43e1ccfddf935420000000000000000000000000000000000000604420000000000000000000000000000000000000600f65bb528ced09008603509c3fda43e1ccfddf93500a01f6d0985389a8e106d3158a9441ac21eac8d8c00000000000000000000000000000000000000","maxFeePerGas":"0x187ed","maxPriorityFeePerGas":"0x186a0","nonce":"0x2e","r":"0x7173e2c59f84de99a9912d1ae691eabaeb44a410f07ff3145231d736b9dd35e0","s":"0x3024b9230d9f755638aa81ff7e8e782ecda808193b018e86fdb8028ba7dc7070","to":"0x83ec81ae54dd8dca17c3dd4703141599090751d1","transactionIndex":"0x10","type":"0x2","v":"0x0","value":"0x22eef67530cb91","yParity":"0x0"},"id":
        0}

        '
    headers:
      CF-RAY:
      - 9dd704ad8c3aadc4-AMS
      Cache-Control:
      - max-age=0, private, must-revalidate
      Connection:
      - keep-alive
      Content-Type:
      - application/json; charset=utf-8
      Date:
      - Mon, 16 Mar 2026 21:58:15 GMT
      Nel:
      - '{"report_to":"cf-nel","success_fraction":0.0,"max_age":604800}'
      Report-To:
      - '{"group":"cf-nel","max_age":604800,"endpoints":[{"url":"https://a.nel.cloudflare.com/report/v4?s=FUqJG3VLmNbDVe81k3aEVYFKkPKTQgbbq4ksOflUjKL3wCDv6gLxnH9KQ9RqjYomQcoYrVUHjq%2FcMMqIkQJ4P%2FRmJD3pAhWCtWMsCKk8omf1QMVOVGK6fx8Lnul6lA%3D%3D"}]}'
      Server:
      - cloudflare
      Transfer-Encoding:
      - chunked
      access-control-allow-credentials:
      - 'true'
      access-control-allow-origin:
      - '*'
      access-control-expose-headers:
      - bypass-429-option,x-ratelimit-reset,x-ratelimit-limit,x-ratelimit-remaining,api-v2-temp-token
      alt-svc:
      - h3=":443"; ma=86400
      bypass-429-option:
      - no_bypass
      cf-cache-status:
      - DYNAMIC
      content-length:
      - '1430'
      strict-transport-security:
      - max-age=31536000; includeSubDomains
      x-ratelimit-limit:
      - '600'
      x-ratelimit-remaining:
      - '599'
      x-ratelimit-reset:
      - '44063'
      x-request-id:
      - 691c91b0219a7214d6f6d7c3081338f1
    status:
      code: 200
      message: OK
- request:
    body: '{"id": 0, "jsonrpc": "2.0", "method": "eth_getBlockByNumber", "params":
      ["0x938e94", true]}'
    headers:
      Accept:
      - '*/*'
      Accept-Encoding:
      - gzip, deflate
      Connection:
      - keep-alive
      Content-Length:
      - '91'
      Content-Type:
      - application/json
      User-Agent:
      - rotki/1.41.2.dev1023+g19b876d8c3.d20260314
    method: POST
    uri: https://api.blockscout.com/8453/json-rpc
  response:
    body:
      string: '{"jsonrpc":"2.0","result": {"baseFeePerGas":"0x119","difficulty":"0x0","extraData":"0x","gasLimit":"0x1c9c380","gasUsed":"0x170ab4","hash":"0x488ce1adcbd182e1b9c64c24a7eb248b2184e73aecc51bb269cf969d5b93f4c4","logsBloom":"0x002000000200082004810000800000400080000000080150008424410000804010000008020002000000001208061000000800000600200200300000002100000402023020460248020001080110006044000010004800010000001480000800208080010600000000000400100428000010110000002440000000108808000004000120886040010150908000000000040110030020000808000044100000000210000001000004000039080000000000030000004000a04560002020000100020000024008048000000020e2100020400009800021001000020402000020800210000000800000000040000000840140021000100000400000400820020000","miner":"0x4200000000000000000000000000000000000011","mixHash":"0x406c2d42627102472d6e901ddc1c900d2cafb59602057b76d03e866adce88cbd","nonce":"0x0000000000000000","number":"0x938e94","parentHash":"0x8b98fc1e05a8c2e16c11f8e55e716267eef621c207c10fac2321a3da923aaa21","receiptsRoot":"0x6744a89e36d2b0fd41715de11df564768ac28d8e39c397a4b8e6c11ada4e8f04","sha3Uncles":"0x1dcc4de8dec75d7aab85b567b6ccd41ad312451b948a7413f0a142fd40d49347","size":"0x12b8","stateRoot":"0x7cf7b45ddbcd010c341221e88fe79417d93c7a0f3f82ab20b7dd6b40809748c9","timestamp":"0x65b17a0b","transactions":[{"blockHash":"0x488ce1adcbd182e1b9c64c24a7eb248b2184e73aecc51bb269cf969d5b93f4c4","blockNumber":"0x938e94","depositReceiptVersion":"0x1","from":"0xdeaddeaddeaddeaddeaddeaddeaddeaddead0001","gas":"0xf4240","gasPrice":"0x0","hash":"0x5c84c39dc29b926f6d1a750331464ea8130fb72d191b7b0c152c8e3c9c575501","input":"0x015d8eb90000000000000000000000000000000000000000000000000000000001231f660000000000000000000000000000000000000000000000000000000065b17953000000000000000000000000000000000000000000000000000000029f40822b070c361acd2c6898a23718062e83b2a07fb4b5aba0a4932fd177ac2a8e4bdb2400000000000000000000000000000000000000000000000000000000000000030000000000000000000000005050f69a9786f081509234f1a7f4684b5e5b76c900000000000000000000000000000000000000000000000000000000000000bc00000000000000000000000000000000000000000000000000000000000a6fe0","mint":"0x0","nonce":"0x938e93","r":"0x0","s":"0x0","sourceHash":"0x2a13268289b7badc5add89038eb5f69515dd7680e8cf5ff5e75b68c86c85ab2b","to":"0x4200000000000000000000000000000000000015","transactionIndex":"0x0","type":"0x7e","v":"0x0","value":"0x0","yParity":"0x0"},{"accessList":[],"blockHash":"0x488ce1adcbd182e1b9c64c24a7eb248b2184e73aecc51bb269cf969d5b93f4c4","blockNumber":"0x938e94","chainId":"0x2105","from":"0x4bb6b2efe7036020ba6f02a05602546c9f25bf28","gas":"0x493e0","gasPrice":"0x1dc6bd1d","hash":"0xf10a0660ebbd7ca3344f17f0087758b908fe82c26b18c907a94255b20a4f2bb8","input":"0xa6f2ae3a","maxFeePerGas":"0x3603dc804","maxPriorityFeePerGas":"0x1dc6bc04","nonce":"0x1b6a1","r":"0xfcfc8d6e0e2509a35280e8d5e568a12134025762500921e5f43def5c02a6ae9f","s":"0x7e252b29cf559a7644644ed63b70f7d36968df8a23f59901ce83a9776cdcd92","to":"0x0865b9d551df073940504a21d5b9d04449ad1fb2","transactionIndex":"0x1","type":"0x2","v":"0x0","value":"0x0","yParity":"0x0"},{"accessList":[],"blockHash":"0x488ce1adcbd182e1b9c64c24a7eb248b2184e73aecc51bb269cf969d5b93f4c4","blockNumber":"0x938e94","chainId":"0x2105","from":"0x90c5bd83e3ea7204854abbea75abaf1c5c4135b6","gas":"0x61a80","gasPrice":"0x11845f37","hash":"0x12f0826b3dfc53123d68ec5c6520926502bc46239e82692312e4459ea43ff784","input":"0x01267f1628302110","maxFeePerGas":"0x11845f37","maxPriorityFeePerGas":"0x11845f37","nonce":"0xe09d","r":"0x7e306c42cc77f98a268053bf810460cefab35dba01213b8ab634c56208074c19","s":"0x5c577dbfcdbb0b49e004f9769c780d1a7f5d49c237e2980d68cf192f2256eb42","to":"0x0205ab288d10587e3695d96e5a26972542c77242","transactionIndex":"0x2","type":"0x2","v":"0x0","value":"0x0","yParity":"0x0"},{"blockHash":"0x488ce1adcbd182e1b9c64c24a7eb248b2184e73aecc51bb269cf969d5b93f4c4","blockNumber":"0x938e94","chainId":"0x2105","from":"0x7c4f11fcf8c0a7d4b119602aceff9dcae3ea2537","gas":"0x61a80","gasPrice":"0x5f5e100","hash":"0xdb1442b650cad4c3567b074c69021fb0ec5ce29560c89ba95114d74a30203694","input":"0x000000030000000000000000000000000000000000000000000000000000000049d3a46800000000000000000000000000000000000000000000000007ce00739b9eb800d9aaec86b65d86f6a7b5b1b0c42ffa531710b6ca42000000000000000000000000000000000000060001f40000000000000000000313047000000000000000","nonce":"0x6384","r":"0x7093b21a8a709dfc2ec3610b7ed919ffb6115347f7b922862942e682dd38528d","s":"0x1c78d59c58619cc82a54cebd958840cc76ee85b5ba3343a799902711eee879f7","to":"0x9482c783d558968fd899a3482ec26c5114bd8770","transactionIndex":"0x3","type":"0x0","v":"0x422d","value":"0x0"},{"blockHash":"0x488ce1adcbd182e1b9c64c24a7eb248b2184e73aecc51bb269cf969d5b93f4c4","blockNumber":"0x938e94","chainId":"0x2105","from":"0x28e19f494b3612b6251eb85cddfbbd8ee810e16d","gas":"0xd293","gasPrice":"0x1e8480","hash":"0xa5757b84fb552a0ef56c0db75b87a76b868dc18babfbbbe8887a04a392bfb9a8","input":"0x2e1a7d4d0000000000000000000000000000000000000000000000000001353a6b394000","nonce":"0x5","r":"0x58684bb02104f70f2da39d0695db5930d692c2b7205947dcfa780546ec6e565c","s":"0x7acd85af02755877378f44d7129f743afda34b0b53ba89bfdb9f8a5f94f90657","to":"0x4200000000000000000000000000000000000006","transactionIndex":"0x4","type":"0x0","v":"0x422e","value":"0x0"},{"accessList":[],"blockHash":"0x488ce1adcbd182e1b9c64c24a7eb248b2184e73aecc51bb269cf969d5b93f4c4","blockNumber":"0x938e94","chainId":"0x2105","from":"0xd96091c2667a0f9de1bc74a646d2b22fe4a8cfd4","gas":"0x3fc5b","gasPrice":"0x1006b7","hash":"0x544147a0b3622471fecda86efb15db358c6983f24b542da902815e59d48e5800","input":"0x474cf53d000000000000000000000000a238dd80c259a72e81d7e4664a9801593f98d1c5000000000000000000000000d96091c2667a0f9de1bc74a646d2b22fe4a8cfd40000000000000000000000000000000000000000000000000000000000000000","maxFeePerGas":"0x1006b7","maxPriorityFeePerGas":"0x1006b7","nonce":"0x6","r":"0xa59dc5de75cab18de1f96691c4edfc86020fbe4f01800c6dde3ce6c24395259b","s":"0x1dcdd4a40669e28284f6cbcc4d108c96c0f58d107e68b046b053d3afd45313de","to":"0x18cd499e3d7ed42feba981ac9236a278e4cdc2ee","transactionIndex":"0x5","type":"0x2","v":"0x1","value":"0x3abd1030a48f59f","yParity":"0x1"},{"accessList":[],"blockHash":"0x488ce1adcbd182e1b9c64c24a7eb248b2184e73aecc51bb269cf969d5b93f4c4","blockNumber":"0x938e94","chainId":"0x2105","from":"0xe36adaaf3907c3e97fbe89bffb86f2a19439365a","gas":"0x5e7f","gasPrice":"0xf435b","hash":"0x51ad4b1125a043e4a7e110756015760eeed2721c32d5cdd814f869dc5a7e343d","input":"0x646174613a2c7b2270223a226c61796572322d3230222c226f70223a22636c61696d222c227469636b223a22244c32222c22616d74223a2231303030227d","maxFeePerGas":"0xf435b","maxPriorityFeePerGas":"0xf435b","nonce":"0x7a","r":"0xb9178f4b953431ef0533c6a0fe2672e7829f8f7f53dd5941610a61268b498d4c","s":"0x3475b0490dc97e2186a321c49ea6254d263f33ebe7bb9b205039dc2a17c07250","to":"0x0a88bc5c32b684d467b43c06d9e0899efeaf59df","transactionIndex":"0x6","type":"0x2","v":"0x1","value":"0xd12f0c4c8336","yParity":"0x1"},{"accessList":[],"blockHash":"0x488ce1adcbd182e1b9c64c24a7eb248b2184e73aecc51bb269cf969d5b93f4c4","blockNumber":"0x938e94","chainId":"0x2105","from":"0xe831ec5475c5fdd5e538e8444c488300aa5020dc","gas":"0x6177","gasPrice":"0xf4359","hash":"0xf5435f2a61cddad4b096958a4e2bd6854db8935cb530b9db2ffb7b94e6753f1f","input":"0x646174613a2c7b2270223a226c61796572322d3230222c226f70223a22636c61696d222c227469636b223a22244c32222c22616d74223a2231303030227d","maxFeePerGas":"0x12a05f200","maxPriorityFeePerGas":"0xf4240","nonce":"0x18","r":"0xa20b85c369413e42234867e340f7742b651886530da4aade8d06c7f945411bc0","s":"0x2e76b349b0b890a85c36bcf748b1fda7553b59c9d470b8222c831a48ce70b5ef","to":"0x0a88bc5c32b684d467b43c06d9e0899efeaf59df","transactionIndex":"0x7","type":"0x2","v":"0x1","value":"0xd12f0c4c832a","yParity":"0x1"},{"accessList":[],"blockHash":"0x488ce1adcbd182e1b9c64c24a7eb248b2184e73aecc51bb269cf969d5b93f4c4","blockNumber":"0x938e94","chainId":"0x2105","from":"0x00d674eec7a907d25e6f8cc33925d015bc2a271a","gas":"0x6caa","gasPrice":"0xf4359","hash":"0x655297039ad53d28b8740252bff5db6f81087ad5358288448ba47430c3273f7b","input":"0x646174613a2c7b2270223a226c61796572322d3230222c226f70223a22636c61696d222c227469636b223a22244c32222c22616d74223a2231303030227d","maxFeePerGas":"0x12a05f200","maxPriorityFeePerGas":"0xf4240","nonce":"0xd5","r":"0x73b4a7cc86165651cec210db5a1d3683444bc80e0afe10524e59a42fb86db2a3","s":"0x3b1678a3705762e57cbb196a9930bbfb0ee9fa08fd4a3fc0871f114347ea9d5d","to":"0x0a88bc5c32b684d467b43c06d9e0899efeaf59df","transactionIndex":"0x8","type":"0x2","v":"0x0","value":"0xd12f0c4c8336","yParity":"0x0"},{"accessList":[],"blockHash":"0x488ce1adcbd182e1b9c64c24a7eb248b2184e73aecc51bb269cf969d5b93f4c4","blockNumber":"0x938e94","chainId":"0x2105","from":"0x9c47ad253678e5608d5f270472682996ada7b119","gas":"0x5f04","gasPrice":"0xf4359","hash":"0x0bb94d1cde115241c55892875129349a6ba8a51a70743dfe4e1bc67c5ff0b6a7","input":"0x646174613a2c7b2270223a226c61796572322d3230222c226f70223a22636c61696d222c227469636b223a22244c32222c22616d74223a2231303030227d","maxFeePerGas":"0x12a05f200","maxPriorityFeePerGas":"0xf4240","nonce":"0x1bf","r":"0xebd37e2afcd445d439ac97b2729f44357c09ab66fdee80cc2b59197ed139d7db","s":"0x6a1fef9af7e706fdf51f34d5e10506828b6e7ee4e3cc8829812ae201f170bdac","to":"0x0a88bc5c32b684d467b43c06d9e0899efeaf59df","transactionIndex":"0x9","type":"0x2","v":"0x1","value":"0xd12f0c4c8336","yParity":"0x1"},{"accessList":[],"blockHash":"0x488ce1adcbd182e1b9c64c24a7eb248b2184e73aecc51bb269cf969d5b93f4c4","blockNumber":"0x938e94","chainId":"0x2105","from":"0x5733362f0e8a13fab38d133a436b9ae1d5555f50","gas":"0x6b92","gasPrice":"0xf4359","hash":"0x560465888808c35869fca160d64ac9d1bfbe04304fe021e992679e7c7ae87320","input":"0x646174613a2c7b2270223a226c61796572322d3230222c226f70223a22636c61696d222c227469636b223a22244c32222c22616d74223a2231303030227d","maxFeePerGas":"0x12a05f200","maxPriorityFeePerGas":"0xf4240","nonce":"0x232","r":"0x3579b9bb35dc672206a35159390ced4df50b1aa652cfd365265d15d29e0e66fe","s":"0x77b60b43e7eb621007426f49ea76295f794d4881622af19478356da93a4976a2","to":"0x0a88bc5c32b684d467b43c06d9e0899efeaf59df","transactionIndex":"0xa","type":"0x2","v":"0x0","value":"0xd12f0c4c8336","yParity":"0x0"},{"blockHash":"0x488ce1adcbd182e1b9c64c24a7eb248b2184e73aecc51bb269cf969d5b93f4c4","blockNumber":"0x938e94","chainId":"0x2105","from":"0x741b5647d826d65759c7dde40ef0c7371041e807","gas":"0x36b3c","gasPrice":"0xf4240","hash":"0xeb4637b7d06167a88330b0610939da5fb99376598b743630983297e37c3cfe45","input":"0x84bb1e42000000000000000000000000741b5647d826d65759c7dde40ef0c7371041e8070000000000000000000000000000000000000000000000000000000000000001000000000000000000000000eeeeeeeeeeeeeeeeeeeeeeeeeeeeeeeeeeeeeeee000000000000000000000000000000000000000000000000000000000000000000000000000000000000000000000000000000000000000000000000000000c00000000000000000000000000000000000000000000000000000000000000160000000000000000000000000000000000000000000000000000000000000008000000000000000000000000000000000000000000000000000000000000000010000000000000000000000000000000000000000000000000000000000000000000000000000000000000000eeeeeeeeeeeeeeeeeeeeeeeeeeeeeeeeeeeeeeee00000000000000000000000000000000000000000000000000000000000000000000000000000000000000000000000000000000000000000000000000000000","nonce":"0x9","r":"0xd43a37379fc6dd4a9cf66f0532b801c48ed2b95edc90359ebead142376ac2a23","s":"0x2924051f87f223e71202ac17646ef84a0ccddd5f5f9a669774d969e6cc9861e5","to":"0xb7313be2a363a8c2c571025e7f30217dfd8aefa3","transactionIndex":"0xb","type":"0x0","v":"0x422e","value":"0x0"},{"blockHash":"0x488ce1adcbd182e1b9c64c24a7eb248b2184e73aecc51bb269cf969d5b93f4c4","blockNumber":"0x938e94","chainId":"0x2105","from":"0xced3fc4610761f79242d7d8a72fe86f3a1c626b4","gas":"0xa985","gasPrice":"0xf4240","hash":"0x3b49d10783caf89e7f943e10b87b20f1adf84518e893b10d413d750199ec4fab","input":"0x095ea7b3000000000000000000000000762eb51d2e779eeec9b239ffb0b2ec8262848f3e00000000000000000000000000000000000000000000000000000197f5a402f2","nonce":"0x13d3","r":"0x8b4d1c84484b153b1c997d630f4bd71a8b2ee29b529dd8f873cfbab58413359c","s":"0x4ba3525ef7eacaf81b1ada014fd6ecbd1dfe82560b9e7f1ed1e94809e4df12fb","to":"0x4200000000000000000000000000000000000006","transactionIndex":"0xc","type":"0x0","v":"0x422e","value":"0x0"},{"accessList":[],"blockHash":"0x488ce1adcbd182e1b9c64c24a7eb248b2184e73aecc51bb269cf969d5b93f4c4","blockNumber":"0x938e94","chainId":"0x2105","from":"0x0b34ac82ff440fefac057d77351b562bc085bbcd","gas":"0x6e8e","gasPrice":"0x2f60d","hash":"0x04dd072dccbcb90f25eb2b810e5ff06bccc1fff3c00d353fa690b881543fff98","input":"0x5b7d7482000000000000000000000000000000000000000000000000000000000000004000000000000000000000000000000000000000000000000000000000000000a0000000000000000000000000000000000000000000000000000000000000004039356664646237326139646135313963396564356538316439633864353262333839326266613766393237663238303132613935326462383164626533316438000000000000000000000000000000000000000000000000000000000000004036393431356139633239353030336162663135323864646135373035663864626539626162626433666439303664666661613931663134633136386134366233","maxFeePerGas":"0x2f672","maxPriorityFeePerGas":"0x2f4f4","nonce":"0x1","r":"0xf42afbddfa31a2b11b3c04458b678ef84cf6e0fec80fb41ecef18f73598cd02d","s":"0x4e2861041866b2544f7ef06b6f2745770f9243f3379f6387a33257bcc4685090","to":"0x47fbe95e981c0df9737b6971b451fb15fdc989d9","transactionIndex":"0xd","type":"0x2","v":"0x1","value":"0x0","yParity":"0x1"},{"accessList":[],"blockHash":"0x488ce1adcbd182e1b9c64c24a7eb248b2184e73aecc51bb269cf969d5b93f4c4","blockNumber":"0x938e94","chainId":"0x2105","from":"0x3304e22ddaa22bcdc5fca2269b418046ae7b566a","gas":"0x5208","gasPrice":"0x187d6","hash":"0x395e64f59c43adcc0fafa263836b30a2b036d4b03a6ed4cccc3440c111002adc","input":"0x","maxFeePerGas":"0x5f64ec4","maxPriorityFeePerGas":"0x186bd","nonce":"0x43e1d","r":"0x3475858a42bd609d23f0ac693024e7f353c422ce590eede971e4914d50dc7511","s":"0x692010fa3f757d21f51bb86ee5b80ec9e147c64af7e975a4ab093d613fb8f607","to":"0xae789e4737f0cbc2052c7d3096a7d5e0f10f8e6e","transactionIndex":"0xe","type":"0x2","v":"0x1","value":"0x4701611f98800","yParity":"0x1"},{"accessList":[],"blockHash":"0x488ce1adcbd182e1b9c64c24a7eb248b2184e73aecc51bb269cf969d5b93f4c4","blockNumber":"0x938e94","chainId":"0x2105","from":"0x3304e22ddaa22bcdc5fca2269b418046ae7b566a","gas":"0x5208","gasPrice":"0x187d6","hash":"0xf01e957f48f982e129ad63ca45a741b31b7312da32691914ccbf76689909fda3","input":"0x","maxFeePerGas":"0x5f64ec4","maxPriorityFeePerGas":"0x186bd","nonce":"0x43e1e","r":"0xe57dd97d8d0e89c3871b6ed9eb0e262ce24f36d3f1faab3d5682c98c9f05ae64","s":"0x5552111dc94a75550557622aec00c6f09c294252c71789515985618867334fd9","to":"0x3c64957b03caa2eb18ec8099e18dfcd6e55cb06b","transactionIndex":"0xf","type":"0x2","v":"0x0","value":"0x1c4afd09d47c000","yParity":"0x0"},{"accessList":[],"blockHash":"0x488ce1adcbd182e1b9c64c24a7eb248b2184e73aecc51bb269cf969d5b93f4c4","blockNumber":"0x938e94","chainId":"0x2105","from":"0xa01f6d0985389a8e106d3158a9441ac21eac8d8c","gas":"0x2dd12","gasPrice":"0x187b9","hash":"0xcd776ba46aff70b3cc1284b954d6e0a10a4d69dc43891787d77c964c467329c8","input":"0x2646478b000000000000000000000000eeeeeeeeeeeeeeeeeeeeeeeeeeeeeeeeeeeeeeee0000000000000000000000000000000000000000000000000022eef67530cb910000000000000000000000000d97f261b1e88845184f678e2d1e7a98d9fd38de00000000000000000000000000000000000000000002508dedc7c3d7dc28f5c2000000000000000000000000a01f6d0985389a8e106d3158a9441ac21eac8d8c00000000000000000000000000000000000000000000000000000000000000c0000000000000000000000000000000000000000000000000000000000000006d0301ffff0201f65bb528ced09008603509c3fda43e1ccfddf935420000000000000000000000000000000000000604420000000000000000000000000000000000000600f65bb528ced09008603509c3fda43e1ccfddf93500a01f6d0985389a8e106d3158a9441ac21eac8d8c00000000000000000000000000000000000000","maxFeePerGas":"0x187ed","maxPriorityFeePerGas":"0x186a0","nonce":"0x2e","r":"0x7173e2c59f84de99a9912d1ae691eabaeb44a410f07ff3145231d736b9dd35e0","s":"0x3024b9230d9f755638aa81ff7e8e782ecda808193b018e86fdb8028ba7dc7070","to":"0x83ec81ae54dd8dca17c3dd4703141599090751d1","transactionIndex":"0x10","type":"0x2","v":"0x0","value":"0x22eef67530cb91","yParity":"0x0"},{"accessList":[],"blockHash":"0x488ce1adcbd182e1b9c64c24a7eb248b2184e73aecc51bb269cf969d5b93f4c4","blockNumber":"0x938e94","chainId":"0x2105","from":"0x1985ea6e9c68e1c272d8209f3b478ac2fdb25c87","gas":"0xf4c3","gasPrice":"0x187b9","hash":"0xb7200f00138d1f3b41c64139654d367cac027ebc9dd5c5d93c122d0d2ef9b4b3","input":"0xa9059cbb0000000000000000000000003fede6dff89be1e4bc6d97fc40114e5ed4d6a5c7000000000000000000000000000000000000000000000000000000000b532b80","maxFeePerGas":"0x7ac1a","maxPriorityFeePerGas":"0x186a0","nonce":"0x1a91d","r":"0x4c46dbc844ec8b7794100cd9098656f3b8bc87216ca05072cf5c72df2fd7c39a","s":"0x50ca3eef25e648875b8f60c80563f2c7428e376f5ad6a1de03a9cb5a297ab5fc","to":"0x833589fcd6edb6e08f4c7c32d4f71b54bda02913","transactionIndex":"0x11","type":"0x2","v":"0x0","value":"0x0","yParity":"0x0"},{"blockHash":"0x488ce1adcbd182e1b9c64c24a7eb248b2184e73aecc51bb269cf969d5b93f4c4","blockNumber":"0x938e94","chainId":"0x2105","from":"0xd140df1cfcc1eca1611181af0da430aefc5e2ed3","gas":"0x493e0","gasPrice":"0x1b58","hash":"0x650b027975ed122d3cee82854b8474e44196f7bbb1d5549c9fbaca42931d8be8","input":"0x2d19a41700000000000000000000000000000000000000000000000000000000000000010000000000000000000000000000000000000000000000000000000000000056","nonce":"0x1861b","r":"0xe98ccfb46816c695bc5f82fadaa684e9715d715ea83ad84902ba80ddac939b89","s":"0x55cc5ea4ed7f6f797deda92395f0b64153e38e00d1aabdd29b88373bf4055d8e","to":"0x46ebaa6df85900200b6b6cf15248f3f1adca13b2","transactionIndex":"0x12","type":"0x0","v":"0x422d","value":"0x2386f26fc10000"}],"transactionsRoot":"0x6f17080c6af422ab907da842605924cfad885240aa3477e05468787fc30f3a04","uncles":[],"withdrawals":[],"withdrawalsRoot":"0x56e81f171bcc55a6ff8345e692c0f86e5b48e01b996cadc001622fb5e363b421"},"id":
        0}

        '
    headers:
      CF-RAY:
      - 9dd704ae3c80c200-AMS
      Cache-Control:
      - max-age=0, private, must-revalidate
      Connection:
      - keep-alive
      Content-Type:
      - application/json; charset=utf-8
      Date:
      - Mon, 16 Mar 2026 21:58:16 GMT
      Nel:
      - '{"report_to":"cf-nel","success_fraction":0.0,"max_age":604800}'
      Report-To:
      - '{"group":"cf-nel","max_age":604800,"endpoints":[{"url":"https://a.nel.cloudflare.com/report/v4?s=1RSbgbQHWoMhE%2BNxvQ8nkANqdDSK8rfhSZ1NxvyUhfoQypV611gSc1mESiLrFSuBv6ObAu65kDGCTwsL5H847loKd9h%2F7GO%2FcR%2FowM8kw3MCACkUHi2KUodAZp2Q9Q%3D%3D"}]}'
      Server:
      - cloudflare
      Transfer-Encoding:
      - chunked
      access-control-allow-credentials:
      - 'true'
      access-control-allow-origin:
      - '*'
      access-control-expose-headers:
      - bypass-429-option,x-ratelimit-reset,x-ratelimit-limit,x-ratelimit-remaining,api-v2-temp-token
      alt-svc:
      - h3=":443"; ma=86400
      bypass-429-option:
      - no_bypass
      cf-cache-status:
      - DYNAMIC
      content-length:
      - '17972'
      strict-transport-security:
      - max-age=31536000; includeSubDomains
      x-ratelimit-limit:
      - '600'
      x-ratelimit-remaining:
      - '598'
      x-ratelimit-reset:
      - '43958'
      x-request-id:
      - 071314a88a46940bb358f2c0f1e290ad
    status:
      code: 200
      message: OK
- request:
    body: '{"id": 0, "jsonrpc": "2.0", "method": "eth_getTransactionReceipt", "params":
      ["0xcd776ba46aff70b3cc1284b954d6e0a10a4d69dc43891787d77c964c467329c8"]}'
    headers:
      Accept:
      - '*/*'
      Accept-Encoding:
      - gzip, deflate
      Connection:
      - keep-alive
      Content-Length:
      - '148'
      Content-Type:
      - application/json
      User-Agent:
      - rotki/1.41.2.dev1023+g19b876d8c3.d20260314
    method: POST
    uri: https://api.blockscout.com/8453/json-rpc
  response:
    body:
      string: '{"jsonrpc":"2.0","result": {"blockHash":"0x488ce1adcbd182e1b9c64c24a7eb248b2184e73aecc51bb269cf969d5b93f4c4","blockNumber":"0x938e94","contractAddress":null,"cumulativeGasUsed":"0x12e24e","effectiveGasPrice":"0x187b9","from":"0xa01f6d0985389a8e106d3158a9441ac21eac8d8c","gasUsed":"0x27147","logs":[{"address":"0x4200000000000000000000000000000000000006","blockHash":"0x488ce1adcbd182e1b9c64c24a7eb248b2184e73aecc51bb269cf969d5b93f4c4","blockNumber":"0x938e94","data":"0x0000000000000000000000000000000000000000000000000022eef67530cb91","logIndex":"0x15","removed":false,"topics":["0xe1fffcc4923d04b559f4d29a8bfc6cda04eb5b0d3c460751c2402c5c5cc9109c","0x00000000000000000000000083ec81ae54dd8dca17c3dd4703141599090751d1"],"transactionHash":"0xcd776ba46aff70b3cc1284b954d6e0a10a4d69dc43891787d77c964c467329c8","transactionIndex":"0x10"},{"address":"0x4200000000000000000000000000000000000006","blockHash":"0x488ce1adcbd182e1b9c64c24a7eb248b2184e73aecc51bb269cf969d5b93f4c4","blockNumber":"0x938e94","data":"0x0000000000000000000000000000000000000000000000000022eef67530cb91","logIndex":"0x16","removed":false,"topics":["0xddf252ad1be2c89b69c2b068fc378daa952ba7f163c4a11628f55a4df523b3ef","0x00000000000000000000000083ec81ae54dd8dca17c3dd4703141599090751d1","0x000000000000000000000000f65bb528ced09008603509c3fda43e1ccfddf935"],"transactionHash":"0xcd776ba46aff70b3cc1284b954d6e0a10a4d69dc43891787d77c964c467329c8","transactionIndex":"0x10"},{"address":"0x0d97f261b1e88845184f678e2d1e7a98d9fd38de","blockHash":"0x488ce1adcbd182e1b9c64c24a7eb248b2184e73aecc51bb269cf969d5b93f4c4","blockNumber":"0x938e94","data":"0x00000000000000000000000000000000000000000002538835ba9e3c03af3e7e","logIndex":"0x17","removed":false,"topics":["0xddf252ad1be2c89b69c2b068fc378daa952ba7f163c4a11628f55a4df523b3ef","0x000000000000000000000000f65bb528ced09008603509c3fda43e1ccfddf935","0x000000000000000000000000a01f6d0985389a8e106d3158a9441ac21eac8d8c"],"transactionHash":"0xcd776ba46aff70b3cc1284b954d6e0a10a4d69dc43891787d77c964c467329c8","transactionIndex":"0x10"},{"address":"0xf65bb528ced09008603509c3fda43e1ccfddf935","blockHash":"0x488ce1adcbd182e1b9c64c24a7eb248b2184e73aecc51bb269cf969d5b93f4c4","blockNumber":"0x938e94","data":"0x000000000000000000000000000000000000000014744b05e1e6a823ca9bf73b000000000000000000000000000000000000000000000001325f32b2f97481c9","logIndex":"0x18","removed":false,"topics":["0x1c411e9a96e071241c2f21f7726b17ae89e3cab4c78be50e062b03a9fffbbad1"],"transactionHash":"0xcd776ba46aff70b3cc1284b954d6e0a10a4d69dc43891787d77c964c467329c8","transactionIndex":"0x10"},{"address":"0xf65bb528ced09008603509c3fda43e1ccfddf935","blockHash":"0x488ce1adcbd182e1b9c64c24a7eb248b2184e73aecc51bb269cf969d5b93f4c4","blockNumber":"0x938e94","data":"0x00000000000000000000000000000000000000000000000000000000000000000000000000000000000000000000000000000000000000000022eef67530cb9100000000000000000000000000000000000000000002538835ba9e3c03af3e7e0000000000000000000000000000000000000000000000000000000000000000","logIndex":"0x19","removed":false,"topics":["0xd78ad95fa46c994b6551d0da85fc275fe613ce37657fb8d5e3d130840159d822","0x00000000000000000000000083ec81ae54dd8dca17c3dd4703141599090751d1","0x000000000000000000000000a01f6d0985389a8e106d3158a9441ac21eac8d8c"],"transactionHash":"0xcd776ba46aff70b3cc1284b954d6e0a10a4d69dc43891787d77c964c467329c8","transactionIndex":"0x10"},{"address":"0x83ec81ae54dd8dca17c3dd4703141599090751d1","blockHash":"0x488ce1adcbd182e1b9c64c24a7eb248b2184e73aecc51bb269cf969d5b93f4c4","blockNumber":"0x938e94","data":"0x000000000000000000000000a01f6d0985389a8e106d3158a9441ac21eac8d8c0000000000000000000000000000000000000000000000000022eef67530cb9100000000000000000000000000000000000000000002508dedc7c3d7dc28f5c200000000000000000000000000000000000000000002538835ba9e3c03af3e7e","logIndex":"0x1a","removed":false,"topics":["0x2db5ddd0b42bdbca0d69ea16f234a870a485854ae0d91f16643d6f317d8b8994","0x000000000000000000000000a01f6d0985389a8e106d3158a9441ac21eac8d8c","0x000000000000000000000000eeeeeeeeeeeeeeeeeeeeeeeeeeeeeeeeeeeeeeee","0x0000000000000000000000000d97f261b1e88845184f678e2d1e7a98d9fd38de"],"transactionHash":"0xcd776ba46aff70b3cc1284b954d6e0a10a4d69dc43891787d77c964c467329c8","transactionIndex":"0x10"}],"logsBloom":"0x00200000020000000000000080000000008000000000004000040001000000001000000000000000000000100000000000000000020000000010000000000000000200000000000000000008000000200000000000000001000000008000000000000000000000000000000000000000000001000000000000000010000000000000002008200000000010000000000000010001002000080000004000000000000000000000000400000000000000000000000000000000000000200000000000000002000000800000000020100000000008000000001000000000000000800000000000800000000040000000000000000000000000400000400820000000","status":"0x1","to":"0x83ec81ae54dd8dca17c3dd4703141599090751d1","transactionHash":"0xcd776ba46aff70b3cc1284b954d6e0a10a4d69dc43891787d77c964c467329c8","transactionIndex":"0x10","type":"0x2"},"id":
        0}

        '
    headers:
      CF-RAY:
      - 9dd704b29e3116bf-AMS
      Cache-Control:
      - max-age=0, private, must-revalidate
      Connection:
      - keep-alive
      Content-Type:
      - application/json; charset=utf-8
      Date:
      - Mon, 16 Mar 2026 21:58:16 GMT
      Nel:
      - '{"report_to":"cf-nel","success_fraction":0.0,"max_age":604800}'
      Report-To:
      - '{"group":"cf-nel","max_age":604800,"endpoints":[{"url":"https://a.nel.cloudflare.com/report/v4?s=wo4KeflwkGnTpnyLjRQMb5iT6KBlE71mCM85f4y%2FFv1pKhufiNWXCIaSUKEEzjSDc0mUvl2xTtrXi8nhoOhRw5Ojr6FoZ99RaY17%2Fqaa5VmXzQYoa5EAIPAJs5w6Ug%3D%3D"}]}'
      Server:
      - cloudflare
      Transfer-Encoding:
      - chunked
      access-control-allow-credentials:
      - 'true'
      access-control-allow-origin:
      - '*'
      access-control-expose-headers:
      - bypass-429-option,x-ratelimit-reset,x-ratelimit-limit,x-ratelimit-remaining,api-v2-temp-token
      alt-svc:
      - h3=":443"; ma=86400
      bypass-429-option:
      - no_bypass
      cf-cache-status:
      - DYNAMIC
      content-length:
      - '4963'
      strict-transport-security:
      - max-age=31536000; includeSubDomains
      x-ratelimit-limit:
      - '600'
      x-ratelimit-remaining:
      - '597'
      x-ratelimit-reset:
      - '43253'
      x-request-id:
      - 9590c08fb85edb35bab53d71fcb0c7a3
    status:
      code: 200
      message: OK
- request:
    body: null
    headers:
      Accept:
      - '*/*'
      Accept-Encoding:
      - gzip, deflate
      Connection:
      - keep-alive
      User-Agent:
      - rotki/1.41.2.dev1023+g19b876d8c3.d20260314
    method: GET
    uri: https://api.blockscout.com/8453/api/v2/transactions/0xcd776ba46aff70b3cc1284b954d6e0a10a4d69dc43891787d77c964c467329c8
  response:
    body:
      string: '{"l1_gas_used":"5392","priority_fee":"16007100000","raw_input":"0x2646478b000000000000000000000000eeeeeeeeeeeeeeeeeeeeeeeeeeeeeeeeeeeeeeee0000000000000000000000000000000000000000000000000022eef67530cb910000000000000000000000000d97f261b1e88845184f678e2d1e7a98d9fd38de00000000000000000000000000000000000000000002508dedc7c3d7dc28f5c2000000000000000000000000a01f6d0985389a8e106d3158a9441ac21eac8d8c00000000000000000000000000000000000000000000000000000000000000c0000000000000000000000000000000000000000000000000000000000000006d0301ffff0201f65bb528ced09008603509c3fda43e1ccfddf935420000000000000000000000000000000000000604420000000000000000000000000000000000000600f65bb528ced09008603509c3fda43e1ccfddf93500a01f6d0985389a8e106d3158a9441ac21eac8d8c00000000000000000000000000000000000000","is_pending_update":false,"op_withdrawals":[],"result":"success","hash":"0xcd776ba46aff70b3cc1284b954d6e0a10a4d69dc43891787d77c964c467329c8","max_fee_per_gas":"100333","revert_reason":null,"confirmation_duration":[0,2.0e3],"transaction_burnt_fee":"44979951","type":2,"token_transfers_overflow":false,"confirmations":33784182,"position":16,"max_priority_fee_per_gas":"100000","transaction_tag":null,"created_contract":null,"value":"9832891503659921","l1_fee_scalar":"0.684","from":{"ens_domain_name":"dfern.eth","hash":"0xA01f6D0985389a8E106D3158A9441aC21EAC8D8c","implementations":[],"is_contract":false,"is_scam":false,"is_verified":false,"metadata":{"tags":[{"meta":{"bgColor":"#8465CB","tagIcon":"data:image/svg+xml;utf8,%3Csvg%20xmlns%3D%22http%3A%2F%2Fwww.w3.org%2F2000%2Fsvg%22%20xmlns%3Axlink%3D%22http%3A%2F%2Fwww.w3.org%2F1999%2Fxlink%22%20viewBox%3D%220%200%2032%2029%22%3E%3Cpath%20d%3D%22M%205.507%200.072%20L%2026.097%200.072%20L%2026.097%204.167%20L%2031.952%204.167%20L%2030.725%208.263%20L%2029.686%208.263%20L%2029.686%2024.833%20C%2030.207%2024.833%2030.63%2025.249%2030.63%2025.763%20L%2030.63%2026.88%20L%2030.819%2026.88%20C%2031.341%2026.88%2031.764%2027.297%2031.764%2027.811%20L%2031.764%2028.928%20L%2021.185%2028.928%20L%2021.185%2027.811%20C%2021.185%2027.297%2021.608%2026.88%2022.13%2026.88%20L%2022.319%2026.88%20L%2022.319%2025.763%20C%2022.319%2025.316%2022.639%2024.943%2023.065%2024.853%20L%2023.045%2015.71%20C%2022.711%2012.057%2019.596%209.194%2015.802%209.194%20C%2012.008%209.194%208.893%2012.057%208.559%2015.71%20L%208.539%2024.845%20C%209.043%2024.919%209.663%2025.302%209.663%2025.763%20L%209.663%2026.88%20L%209.852%2026.88%20C%2010.373%2026.88%2010.796%2027.297%2010.796%2027.811%20L%2010.796%2028.928%20L%200.218%2028.928%20L%200.218%2027.811%20C%200.218%2027.297%200.641%2026.88%201.162%2026.88%20L%201.351%2026.88%20L%201.351%2025.763%20C%201.351%2025.249%201.774%2024.833%202.296%2024.833%20L%202.296%208.263%20L%201.257%208.263%20L%200.029%204.167%20L%205.507%204.167%20L%205.507%200.072%20Z%22%20fill%3D%22rgb(255%2C%20255%2C%20255)%22%3E%3C%2Fpath%3E%3Cpath%20d%3D%22M%2026.097%200.072%20L%2026.166%200.072%20L%2026.166%200.004%20L%2026.097%200.004%20Z%20M%205.507%200.072%20L%205.507%200.004%20L%205.438%200.004%20L%205.438%200.072%20Z%20M%2026.097%204.167%20L%2026.028%204.167%20L%2026.028%204.235%20L%2026.097%204.235%20Z%20M%2031.952%204.167%20L%2032.019%204.187%20L%2032.045%204.099%20L%2031.952%204.099%20L%2031.952%204.167%20Z%20M%2030.725%208.263%20L%2030.725%208.331%20L%2030.776%208.331%20L%2030.791%208.282%20Z%20M%2029.686%208.263%20L%2029.686%208.195%20L%2029.617%208.195%20L%2029.617%208.263%20Z%20M%2029.686%2024.833%20L%2029.617%2024.833%20L%2029.617%2024.901%20L%2029.686%2024.901%20Z%20M%2030.63%2026.88%20L%2030.561%2026.88%20L%2030.561%2026.948%20L%2030.63%2026.948%20Z%20M%2031.764%2028.928%20L%2031.764%2028.996%20L%2031.832%2028.996%20L%2031.832%2028.928%20Z%20M%2021.185%2028.928%20L%2021.116%2028.928%20L%2021.116%2028.996%20L%2021.185%2028.996%20Z%20M%2022.319%2026.88%20L%2022.319%2026.948%20L%2022.388%2026.948%20L%2022.388%2026.88%20Z%20M%2023.065%2024.853%20L%2023.08%2024.919%20L%2023.134%2024.908%20L%2023.134%2024.853%20Z%20M%2023.045%2015.71%20L%2023.114%2015.71%20L%2023.114%2015.707%20L%2023.113%2015.704%20Z%20M%208.559%2015.71%20L%208.49%2015.704%20L%208.49%2015.707%20L%208.49%2015.71%20Z%20M%208.539%2024.845%20L%208.47%2024.845%20L%208.469%2024.904%20L%208.528%2024.913%20Z%20M%209.663%2026.88%20L%209.594%2026.88%20L%209.594%2026.948%20L%209.663%2026.948%20Z%20M%2010.796%2028.928%20L%2010.796%2028.996%20L%2010.865%2028.996%20L%2010.865%2028.928%20Z%20M%200.218%2028.928%20L%200.149%2028.928%20L%200.149%2028.996%20L%200.218%2028.996%20Z%20M%201.351%2026.88%20L%201.351%2026.948%20L%201.42%2026.948%20L%201.42%2026.88%20Z%20M%202.296%2024.833%20L%202.296%2024.901%20L%202.365%2024.901%20L%202.365%2024.833%20Z%20M%202.296%208.263%20L%202.365%208.263%20L%202.365%208.195%20L%202.296%208.195%20Z%20M%201.257%208.263%20L%201.191%208.282%20L%201.205%208.331%20L%201.257%208.331%20Z%20M%200.029%204.167%20L%200.029%204.1%20L%20-0.063%204.1%20L%20-0.037%204.187%20L%200.029%204.167%20Z%20M%205.507%204.167%20L%205.507%204.235%20L%205.576%204.235%20L%205.576%204.167%20Z%20M%2026.097%200.004%20L%205.507%200.004%20L%205.507%200.139%20L%2026.097%200.139%20Z%20M%2026.166%204.167%20L%2026.166%200.072%20L%2026.028%200.072%20L%2026.028%204.167%20L%2026.166%204.167%20Z%20M%2031.952%204.099%20L%2026.097%204.099%20L%2026.097%204.235%20L%2031.952%204.235%20Z%20M%2030.791%208.282%20L%2032.019%204.187%20L%2031.886%204.148%20L%2030.658%208.244%20Z%20M%2029.686%208.331%20L%2030.725%208.331%20L%2030.725%208.195%20L%2029.686%208.195%20Z%20M%2029.755%2024.833%20L%2029.755%208.263%20L%2029.617%208.263%20L%2029.617%2024.833%20Z%20M%2030.699%2025.763%20C%2030.699%2025.212%2030.245%2024.765%2029.686%2024.765%20L%2029.686%2024.9%20C%2030.169%2024.9%2030.561%2025.287%2030.561%2025.763%20Z%20M%2030.699%2026.88%20L%2030.699%2025.763%20L%2030.561%2025.763%20L%2030.561%2026.88%20Z%20M%2030.819%2026.813%20L%2030.63%2026.813%20L%2030.63%2026.948%20L%2030.819%2026.948%20Z%20M%2031.832%2027.811%20C%2031.832%2027.26%2031.379%2026.813%2030.819%2026.813%20L%2030.819%2026.948%20C%2031.303%2026.948%2031.695%2027.335%2031.695%2027.811%20Z%20M%2031.832%2028.928%20L%2031.832%2027.811%20L%2031.695%2027.811%20L%2031.695%2028.928%20Z%20M%2026.097%2028.996%20L%2031.764%2028.996%20L%2031.764%2028.86%20L%2026.097%2028.86%20Z%20M%2023.074%2028.996%20L%2026.097%2028.996%20L%2026.097%2028.86%20L%2023.074%2028.86%20Z%20M%2021.185%2028.996%20L%2023.074%2028.996%20L%2023.074%2028.86%20L%2021.185%2028.86%20Z%20M%2021.116%2027.811%20L%2021.116%2028.928%20L%2021.254%2028.928%20L%2021.254%2027.811%20Z%20M%2022.13%2026.813%20C%2021.57%2026.813%2021.116%2027.26%2021.116%2027.811%20L%2021.254%2027.811%20C%2021.254%2027.335%2021.646%2026.948%2022.13%2026.948%20Z%20M%2022.319%2026.813%20L%2022.13%2026.813%20L%2022.13%2026.948%20L%2022.319%2026.948%20Z%20M%2022.25%2025.763%20L%2022.25%2026.88%20L%2022.388%2026.88%20L%2022.388%2025.763%20Z%20M%2023.051%2024.787%20C%2022.593%2024.883%2022.25%2025.284%2022.25%2025.763%20L%2022.388%2025.763%20C%2022.388%2025.349%2022.684%2025.003%2023.08%2024.919%20Z%20M%2022.976%2015.71%20L%2022.996%2024.853%20L%2023.134%2024.853%20L%2023.114%2015.71%20Z%20M%2015.802%209.262%20C%2019.559%209.262%2022.645%2012.098%2022.976%2015.716%20L%2023.113%2015.704%20C%2022.776%2012.016%2019.632%209.126%2015.802%209.126%20Z%20M%208.628%2015.716%20C%208.959%2012.098%2012.044%209.262%2015.802%209.262%20L%2015.802%209.126%20C%2011.972%209.126%208.828%2012.016%208.49%2015.704%20Z%20M%208.608%2024.845%20L%208.628%2015.71%20L%208.49%2015.71%20L%208.47%2024.845%20Z%20M%209.732%2025.763%20C%209.732%2025.502%209.557%2025.273%209.331%2025.105%20C%209.104%2024.935%208.812%2024.817%208.549%2024.778%20L%208.528%2024.912%20C%208.769%2024.948%209.039%2025.057%209.248%2025.213%20C%209.459%2025.37%209.594%2025.563%209.594%2025.763%20Z%20M%209.732%2026.88%20L%209.732%2025.763%20L%209.594%2025.763%20L%209.594%2026.88%20Z%20M%209.852%2026.813%20L%209.663%2026.813%20L%209.663%2026.948%20L%209.852%2026.948%20Z%20M%2010.865%2027.811%20C%2010.865%2027.26%2010.411%2026.813%209.852%2026.813%20L%209.852%2026.948%20C%2010.335%2026.948%2010.727%2027.335%2010.727%2027.811%20Z%20M%2010.865%2028.928%20L%2010.865%2027.811%20L%2010.727%2027.811%20L%2010.727%2028.928%20Z%20M%208.529%2028.996%20L%2010.796%2028.996%20L%2010.796%2028.86%20L%208.529%2028.86%20Z%20M%208.372%2028.996%20L%208.529%2028.996%20L%208.529%2028.86%20L%208.372%2028.86%20Z%20M%205.507%2028.996%20L%208.372%2028.996%20L%208.372%2028.86%20L%205.507%2028.86%20Z%20M%200.218%2028.996%20L%205.507%2028.996%20L%205.507%2028.86%20L%200.218%2028.86%20Z%20M%200.149%2027.811%20L%200.149%2028.928%20L%200.287%2028.928%20L%200.287%2027.811%20Z%20M%201.162%2026.813%20C%200.603%2026.813%200.149%2027.26%200.149%2027.811%20L%200.287%2027.811%20C%200.287%2027.335%200.679%2026.948%201.162%2026.948%20Z%20M%201.351%2026.813%20L%201.162%2026.813%20L%201.162%2026.948%20L%201.351%2026.948%20Z%20M%201.282%2025.763%20L%201.282%2026.88%20L%201.42%2026.88%20L%201.42%2025.763%20Z%20M%202.296%2024.765%20C%201.736%2024.765%201.282%2025.212%201.282%2025.763%20L%201.42%2025.763%20C%201.42%2025.287%201.812%2024.9%202.296%2024.9%20Z%20M%202.227%208.263%20L%202.227%2024.833%20L%202.365%2024.833%20L%202.365%208.263%20Z%20M%201.257%208.331%20L%202.296%208.331%20L%202.296%208.195%20L%201.257%208.195%20Z%20M%20-0.037%204.187%20L%201.191%208.282%20L%201.323%208.244%20L%200.095%204.148%20Z%20M%205.507%204.099%20L%200.029%204.099%20L%200.029%204.235%20L%205.507%204.235%20L%205.507%204.099%20Z%20M%205.438%200.072%20L%205.438%204.167%20L%205.576%204.167%20L%205.576%200.072%20Z%22%20fill%3D%22rgb(255%2C255%2C255)%22%3E%3C%2Fpath%3E%3C%2Fsvg%3E","textColor":"#FFFFFF","tooltipDescription":"This
        address is linked to a Farcaster account","warpcastHandle":"dfern.eth"},"name":"Farcaster","ordinal":0,"slug":"warpcast-account","tagType":"classifier"}]},"name":null,"private_tags":[],"proxy_type":null,"public_tags":[],"reputation":"ok","watchlist_names":[]},"gas_used":"160071","status":"ok","to":{"ens_domain_name":null,"hash":"0x83eC81Ae54dD8dca17C3Dd4703141599090751D1","implementations":[],"is_contract":true,"is_scam":false,"is_verified":true,"metadata":{"tags":[{"meta":{"projectName":"Sushi","tagIcon
        ":"https://blockscout-icons.s3.us-east-1.amazonaws.com/OLI_tag_logo.svg","tagUrl":"https://app.klerosscout.eth.limo/#/?registry=Single_Tags&itemdetails=0x127f980b2c43494f3988bd2c1bf9d8bd556364ec6c80f171bdbc4981f403b2db@0x66260c69d03837016d88c9877e61e08ef74c59f2","textColor":"#C163D4","tooltipAttribution":"https://www.openlabelsinitiative.org?utm_source=blockscout","tooltipAttributionIcon":"https://blockscout-icons.s3.us-east-1.amazonaws.com/OLI_tag_logo.svg","tooltipDescription":"Sushi''s
        Route Processor 3.2.1 contract on Base","tooltipUrl":"https://www.sushi.com/","verifiedDomains":["www.sushi.com"]},"name":"Sushi:
        Route Processor 3.2.1","ordinal":10,"slug":"sushi-route-processor-321","tagType":"name"},{"meta":{"alertStatus":"info","data":"This
        nametag was submitted by Kleros Curate."},"name":"note_0","ordinal":0,"slug":"note0","tagType":"note"},{"meta":{"appID":"sushiswap"},"name":"Sushi","ordinal":0,"slug":"sushi","tagType":"protocol"}]},"name":"RouteProcessor3_2","private_tags":[],"proxy_type":null,"public_tags":[],"reputation":"ok","watchlist_names":[]},"authorization_list":[],"l1_fee":"41534737011008","method":"processRoute","fee":{"type":"actual","value":"41550789090959"},"actions":[],"gas_limit":"187666","gas_price":"100281","decoded_input":{"method_call":"processRoute(address
        tokenIn, uint256 amountIn, address tokenOut, uint256 amountOutMin, address
        to, bytes route)","method_id":"2646478b","parameters":[{"name":"tokenIn","type":"address","value":"0xEeeeeEeeeEeEeeEeEeEeeEEEeeeeEeeeeeeeEEeE"},{"name":"amountIn","type":"uint256","value":"9832891503659921"},{"name":"tokenOut","type":"address","value":"0x0d97F261b1e88845184f678e2d1e7a98D9FD38dE"},{"name":"amountOutMin","type":"uint256","value":"2798259082651862246684098"},{"name":"to","type":"address","value":"0xA01f6D0985389a8E106D3158A9441aC21EAC8D8c"},{"name":"route","type":"bytes","value":"0x0301ffff0201f65bb528ced09008603509c3fda43e1ccfddf935420000000000000000000000000000000000000604420000000000000000000000000000000000000600f65bb528ced09008603509c3fda43e1ccfddf93500a01f6d0985389a8e106d3158a9441ac21eac8d8c"}]},"l1_gas_price":"11261739563","token_transfers":[{"block_hash":"0x488ce1adcbd182e1b9c64c24a7eb248b2184e73aecc51bb269cf969d5b93f4c4","block_number":9670292,"from":{"ens_domain_name":null,"hash":"0x0000000000000000000000000000000000000000","implementations":[],"is_contract":false,"is_scam":false,"is_verified":false,"metadata":{"tags":[{"meta":{},"name":"Null:
        0x000...000","ordinal":10,"slug":"null-0x000000","tagType":"name"},{"meta":{},"name":"Metamask
        User","ordinal":0,"slug":"metamask-user","tagType":"generic"},{"meta":{},"name":"Imtoken
        User","ordinal":0,"slug":"imtoken-user","tagType":"generic"},{"meta":{},"name":"Miner","ordinal":0,"slug":"miner","tagType":"generic"},{"meta":{},"name":"Burn","ordinal":0,"slug":"burn","tagType":"generic"},{"meta":{"tagIcon
        ":"https://blockscout-icons.s3.us-east-1.amazonaws.com/OLI_tag_logo.svg","textColor":"#C163D4","tooltipAttribution":"https://www.openlabelsinitiative.org?utm_source=blockscout","tooltipAttributionIcon":"https://blockscout-icons.s3.us-east-1.amazonaws.com/OLI_tag_logo.svg","tooltipDescription":"Provided
        by OLI"},"name":"Burn","ordinal":0,"slug":"burn","tagType":"name"},{"meta":{"alertStatus":"info","data":"This
        address is commonly used by projects to burn tokens (reducing total supply)
        or mint tokens (increasing total supply)."},"name":"note_0","ordinal":0,"slug":"note0","tagType":"note"},{"meta":{},"name":"Null","ordinal":0,"slug":"null","tagType":"protocol"}]},"name":null,"private_tags":[],"proxy_type":null,"public_tags":[],"reputation":"ok","watchlist_names":[]},"log_index":21,"method":null,"timestamp":null,"to":{"ens_domain_name":null,"hash":"0x83eC81Ae54dD8dca17C3Dd4703141599090751D1","implementations":[],"is_contract":true,"is_scam":false,"is_verified":true,"metadata":{"tags":[{"meta":{"projectName":"Sushi","tagIcon
        ":"https://blockscout-icons.s3.us-east-1.amazonaws.com/OLI_tag_logo.svg","tagUrl":"https://app.klerosscout.eth.limo/#/?registry=Single_Tags&itemdetails=0x127f980b2c43494f3988bd2c1bf9d8bd556364ec6c80f171bdbc4981f403b2db@0x66260c69d03837016d88c9877e61e08ef74c59f2","textColor":"#C163D4","tooltipAttribution":"https://www.openlabelsinitiative.org?utm_source=blockscout","tooltipAttributionIcon":"https://blockscout-icons.s3.us-east-1.amazonaws.com/OLI_tag_logo.svg","tooltipDescription":"Sushi''s
        Route Processor 3.2.1 contract on Base","tooltipUrl":"https://www.sushi.com/","verifiedDomains":["www.sushi.com"]},"name":"Sushi:
        Route Processor 3.2.1","ordinal":10,"slug":"sushi-route-processor-321","tagType":"name"},{"meta":{"alertStatus":"info","data":"This
        nametag was submitted by Kleros Curate."},"name":"note_0","ordinal":0,"slug":"note0","tagType":"note"},{"meta":{"appID":"sushiswap"},"name":"Sushi","ordinal":0,"slug":"sushi","tagType":"protocol"}]},"name":"RouteProcessor3_2","private_tags":[],"proxy_type":null,"public_tags":[],"reputation":"ok","watchlist_names":[]},"token":{"address_hash":"0x4200000000000000000000000000000000000006","circulating_market_cap":"532505563.3296102","decimals":"18","exchange_rate":"2346.53","holders_count":"5084444","icon_url":"https://assets.coingecko.com/coins/images/39810/small/weth.png?1724139790","name":"L2
        Standard Bridged WETH (Base)","reputation":"ok","symbol":"WETH","total_supply":"224130697430528541314157","type":"ERC-20","volume_24h":"352323575.34049946"},"token_type":"ERC-20","total":{"decimals":"18","value":"9832891503659921"},"transaction_hash":"0xcd776ba46aff70b3cc1284b954d6e0a10a4d69dc43891787d77c964c467329c8","type":"token_minting"},{"block_hash":"0x488ce1adcbd182e1b9c64c24a7eb248b2184e73aecc51bb269cf969d5b93f4c4","block_number":9670292,"from":{"ens_domain_name":null,"hash":"0x83eC81Ae54dD8dca17C3Dd4703141599090751D1","implementations":[],"is_contract":true,"is_scam":false,"is_verified":true,"metadata":{"tags":[{"meta":{"projectName":"Sushi","tagIcon
        ":"https://blockscout-icons.s3.us-east-1.amazonaws.com/OLI_tag_logo.svg","tagUrl":"https://app.klerosscout.eth.limo/#/?registry=Single_Tags&itemdetails=0x127f980b2c43494f3988bd2c1bf9d8bd556364ec6c80f171bdbc4981f403b2db@0x66260c69d03837016d88c9877e61e08ef74c59f2","textColor":"#C163D4","tooltipAttribution":"https://www.openlabelsinitiative.org?utm_source=blockscout","tooltipAttributionIcon":"https://blockscout-icons.s3.us-east-1.amazonaws.com/OLI_tag_logo.svg","tooltipDescription":"Sushi''s
        Route Processor 3.2.1 contract on Base","tooltipUrl":"https://www.sushi.com/","verifiedDomains":["www.sushi.com"]},"name":"Sushi:
        Route Processor 3.2.1","ordinal":10,"slug":"sushi-route-processor-321","tagType":"name"},{"meta":{"alertStatus":"info","data":"This
        nametag was submitted by Kleros Curate."},"name":"note_0","ordinal":0,"slug":"note0","tagType":"note"},{"meta":{"appID":"sushiswap"},"name":"Sushi","ordinal":0,"slug":"sushi","tagType":"protocol"}]},"name":"RouteProcessor3_2","private_tags":[],"proxy_type":null,"public_tags":[],"reputation":"ok","watchlist_names":[]},"log_index":22,"method":null,"timestamp":null,"to":{"ens_domain_name":null,"hash":"0xF65BB528cED09008603509c3fDa43e1cCfdDF935","implementations":[],"is_contract":true,"is_scam":false,"is_verified":true,"metadata":null,"name":"UniswapV2Pair","private_tags":[],"proxy_type":null,"public_tags":[],"reputation":"ok","watchlist_names":[]},"token":{"address_hash":"0x4200000000000000000000000000000000000006","circulating_market_cap":"532505563.3296102","decimals":"18","exchange_rate":"2346.53","holders_count":"5084444","icon_url":"https://assets.coingecko.com/coins/images/39810/small/weth.png?1724139790","name":"L2
        Standard Bridged WETH (Base)","reputation":"ok","symbol":"WETH","total_supply":"224130697430528541314157","type":"ERC-20","volume_24h":"352323575.34049946"},"token_type":"ERC-20","total":{"decimals":"18","value":"9832891503659921"},"transaction_hash":"0xcd776ba46aff70b3cc1284b954d6e0a10a4d69dc43891787d77c964c467329c8","type":"token_transfer"},{"block_hash":"0x488ce1adcbd182e1b9c64c24a7eb248b2184e73aecc51bb269cf969d5b93f4c4","block_number":9670292,"from":{"ens_domain_name":null,"hash":"0xF65BB528cED09008603509c3fDa43e1cCfdDF935","implementations":[],"is_contract":true,"is_scam":false,"is_verified":true,"metadata":null,"name":"UniswapV2Pair","private_tags":[],"proxy_type":null,"public_tags":[],"reputation":"ok","watchlist_names":[]},"log_index":23,"method":null,"timestamp":null,"to":{"ens_domain_name":"dfern.eth","hash":"0xA01f6D0985389a8E106D3158A9441aC21EAC8D8c","implementations":[],"is_contract":false,"is_scam":false,"is_verified":false,"metadata":{"tags":[{"meta":{"bgColor":"#8465CB","tagIcon":"data:image/svg+xml;utf8,%3Csvg%20xmlns%3D%22http%3A%2F%2Fwww.w3.org%2F2000%2Fsvg%22%20xmlns%3Axlink%3D%22http%3A%2F%2Fwww.w3.org%2F1999%2Fxlink%22%20viewBox%3D%220%200%2032%2029%22%3E%3Cpath%20d%3D%22M%205.507%200.072%20L%2026.097%200.072%20L%2026.097%204.167%20L%2031.952%204.167%20L%2030.725%208.263%20L%2029.686%208.263%20L%2029.686%2024.833%20C%2030.207%2024.833%2030.63%2025.249%2030.63%2025.763%20L%2030.63%2026.88%20L%2030.819%2026.88%20C%2031.341%2026.88%2031.764%2027.297%2031.764%2027.811%20L%2031.764%2028.928%20L%2021.185%2028.928%20L%2021.185%2027.811%20C%2021.185%2027.297%2021.608%2026.88%2022.13%2026.88%20L%2022.319%2026.88%20L%2022.319%2025.763%20C%2022.319%2025.316%2022.639%2024.943%2023.065%2024.853%20L%2023.045%2015.71%20C%2022.711%2012.057%2019.596%209.194%2015.802%209.194%20C%2012.008%209.194%208.893%2012.057%208.559%2015.71%20L%208.539%2024.845%20C%209.043%2024.919%209.663%2025.302%209.663%2025.763%20L%209.663%2026.88%20L%209.852%2026.88%20C%2010.373%2026.88%2010.796%2027.297%2010.796%2027.811%20L%2010.796%2028.928%20L%200.218%2028.928%20L%200.218%2027.811%20C%200.218%2027.297%200.641%2026.88%201.162%2026.88%20L%201.351%2026.88%20L%201.351%2025.763%20C%201.351%2025.249%201.774%2024.833%202.296%2024.833%20L%202.296%208.263%20L%201.257%208.263%20L%200.029%204.167%20L%205.507%204.167%20L%205.507%200.072%20Z%22%20fill%3D%22rgb(255%2C%20255%2C%20255)%22%3E%3C%2Fpath%3E%3Cpath%20d%3D%22M%2026.097%200.072%20L%2026.166%200.072%20L%2026.166%200.004%20L%2026.097%200.004%20Z%20M%205.507%200.072%20L%205.507%200.004%20L%205.438%200.004%20L%205.438%200.072%20Z%20M%2026.097%204.167%20L%2026.028%204.167%20L%2026.028%204.235%20L%2026.097%204.235%20Z%20M%2031.952%204.167%20L%2032.019%204.187%20L%2032.045%204.099%20L%2031.952%204.099%20L%2031.952%204.167%20Z%20M%2030.725%208.263%20L%2030.725%208.331%20L%2030.776%208.331%20L%2030.791%208.282%20Z%20M%2029.686%208.263%20L%2029.686%208.195%20L%2029.617%208.195%20L%2029.617%208.263%20Z%20M%2029.686%2024.833%20L%2029.617%2024.833%20L%2029.617%2024.901%20L%2029.686%2024.901%20Z%20M%2030.63%2026.88%20L%2030.561%2026.88%20L%2030.561%2026.948%20L%2030.63%2026.948%20Z%20M%2031.764%2028.928%20L%2031.764%2028.996%20L%2031.832%2028.996%20L%2031.832%2028.928%20Z%20M%2021.185%2028.928%20L%2021.116%2028.928%20L%2021.116%2028.996%20L%2021.185%2028.996%20Z%20M%2022.319%2026.88%20L%2022.319%2026.948%20L%2022.388%2026.948%20L%2022.388%2026.88%20Z%20M%2023.065%2024.853%20L%2023.08%2024.919%20L%2023.134%2024.908%20L%2023.134%2024.853%20Z%20M%2023.045%2015.71%20L%2023.114%2015.71%20L%2023.114%2015.707%20L%2023.113%2015.704%20Z%20M%208.559%2015.71%20L%208.49%2015.704%20L%208.49%2015.707%20L%208.49%2015.71%20Z%20M%208.539%2024.845%20L%208.47%2024.845%20L%208.469%2024.904%20L%208.528%2024.913%20Z%20M%209.663%2026.88%20L%209.594%2026.88%20L%209.594%2026.948%20L%209.663%2026.948%20Z%20M%2010.796%2028.928%20L%2010.796%2028.996%20L%2010.865%2028.996%20L%2010.865%2028.928%20Z%20M%200.218%2028.928%20L%200.149%2028.928%20L%200.149%2028.996%20L%200.218%2028.996%20Z%20M%201.351%2026.88%20L%201.351%2026.948%20L%201.42%2026.948%20L%201.42%2026.88%20Z%20M%202.296%2024.833%20L%202.296%2024.901%20L%202.365%2024.901%20L%202.365%2024.833%20Z%20M%202.296%208.263%20L%202.365%208.263%20L%202.365%208.195%20L%202.296%208.195%20Z%20M%201.257%208.263%20L%201.191%208.282%20L%201.205%208.331%20L%201.257%208.331%20Z%20M%200.029%204.167%20L%200.029%204.1%20L%20-0.063%204.1%20L%20-0.037%204.187%20L%200.029%204.167%20Z%20M%205.507%204.167%20L%205.507%204.235%20L%205.576%204.235%20L%205.576%204.167%20Z%20M%2026.097%200.004%20L%205.507%200.004%20L%205.507%200.139%20L%2026.097%200.139%20Z%20M%2026.166%204.167%20L%2026.166%200.072%20L%2026.028%200.072%20L%2026.028%204.167%20L%2026.166%204.167%20Z%20M%2031.952%204.099%20L%2026.097%204.099%20L%2026.097%204.235%20L%2031.952%204.235%20Z%20M%2030.791%208.282%20L%2032.019%204.187%20L%2031.886%204.148%20L%2030.658%208.244%20Z%20M%2029.686%208.331%20L%2030.725%208.331%20L%2030.725%208.195%20L%2029.686%208.195%20Z%20M%2029.755%2024.833%20L%2029.755%208.263%20L%2029.617%208.263%20L%2029.617%2024.833%20Z%20M%2030.699%2025.763%20C%2030.699%2025.212%2030.245%2024.765%2029.686%2024.765%20L%2029.686%2024.9%20C%2030.169%2024.9%2030.561%2025.287%2030.561%2025.763%20Z%20M%2030.699%2026.88%20L%2030.699%2025.763%20L%2030.561%2025.763%20L%2030.561%2026.88%20Z%20M%2030.819%2026.813%20L%2030.63%2026.813%20L%2030.63%2026.948%20L%2030.819%2026.948%20Z%20M%2031.832%2027.811%20C%2031.832%2027.26%2031.379%2026.813%2030.819%2026.813%20L%2030.819%2026.948%20C%2031.303%2026.948%2031.695%2027.335%2031.695%2027.811%20Z%20M%2031.832%2028.928%20L%2031.832%2027.811%20L%2031.695%2027.811%20L%2031.695%2028.928%20Z%20M%2026.097%2028.996%20L%2031.764%2028.996%20L%2031.764%2028.86%20L%2026.097%2028.86%20Z%20M%2023.074%2028.996%20L%2026.097%2028.996%20L%2026.097%2028.86%20L%2023.074%2028.86%20Z%20M%2021.185%2028.996%20L%2023.074%2028.996%20L%2023.074%2028.86%20L%2021.185%2028.86%20Z%20M%2021.116%2027.811%20L%2021.116%2028.928%20L%2021.254%2028.928%20L%2021.254%2027.811%20Z%20M%2022.13%2026.813%20C%2021.57%2026.813%2021.116%2027.26%2021.116%2027.811%20L%2021.254%2027.811%20C%2021.254%2027.335%2021.646%2026.948%2022.13%2026.948%20Z%20M%2022.319%2026.813%20L%2022.13%2026.813%20L%2022.13%2026.948%20L%2022.319%2026.948%20Z%20M%2022.25%2025.763%20L%2022.25%2026.88%20L%2022.388%2026.88%20L%2022.388%2025.763%20Z%20M%2023.051%2024.787%20C%2022.593%2024.883%2022.25%2025.284%2022.25%2025.763%20L%2022.388%2025.763%20C%2022.388%2025.349%2022.684%2025.003%2023.08%2024.919%20Z%20M%2022.976%2015.71%20L%2022.996%2024.853%20L%2023.134%2024.853%20L%2023.114%2015.71%20Z%20M%2015.802%209.262%20C%2019.559%209.262%2022.645%2012.098%2022.976%2015.716%20L%2023.113%2015.704%20C%2022.776%2012.016%2019.632%209.126%2015.802%209.126%20Z%20M%208.628%2015.716%20C%208.959%2012.098%2012.044%209.262%2015.802%209.262%20L%2015.802%209.126%20C%2011.972%209.126%208.828%2012.016%208.49%2015.704%20Z%20M%208.608%2024.845%20L%208.628%2015.71%20L%208.49%2015.71%20L%208.47%2024.845%20Z%20M%209.732%2025.763%20C%209.732%2025.502%209.557%2025.273%209.331%2025.105%20C%209.104%2024.935%208.812%2024.817%208.549%2024.778%20L%208.528%2024.912%20C%208.769%2024.948%209.039%2025.057%209.248%2025.213%20C%209.459%2025.37%209.594%2025.563%209.594%2025.763%20Z%20M%209.732%2026.88%20L%209.732%2025.763%20L%209.594%2025.763%20L%209.594%2026.88%20Z%20M%209.852%2026.813%20L%209.663%2026.813%20L%209.663%2026.948%20L%209.852%2026.948%20Z%20M%2010.865%2027.811%20C%2010.865%2027.26%2010.411%2026.813%209.852%2026.813%20L%209.852%2026.948%20C%2010.335%2026.948%2010.727%2027.335%2010.727%2027.811%20Z%20M%2010.865%2028.928%20L%2010.865%2027.811%20L%2010.727%2027.811%20L%2010.727%2028.928%20Z%20M%208.529%2028.996%20L%2010.796%2028.996%20L%2010.796%2028.86%20L%208.529%2028.86%20Z%20M%208.372%2028.996%20L%208.529%2028.996%20L%208.529%2028.86%20L%208.372%2028.86%20Z%20M%205.507%2028.996%20L%208.372%2028.996%20L%208.372%2028.86%20L%205.507%2028.86%20Z%20M%200.218%2028.996%20L%205.507%2028.996%20L%205.507%2028.86%20L%200.218%2028.86%20Z%20M%200.149%2027.811%20L%200.149%2028.928%20L%200.287%2028.928%20L%200.287%2027.811%20Z%20M%201.162%2026.813%20C%200.603%2026.813%200.149%2027.26%200.149%2027.811%20L%200.287%2027.811%20C%200.287%2027.335%200.679%2026.948%201.162%2026.948%20Z%20M%201.351%2026.813%20L%201.162%2026.813%20L%201.162%2026.948%20L%201.351%2026.948%20Z%20M%201.282%2025.763%20L%201.282%2026.88%20L%201.42%2026.88%20L%201.42%2025.763%20Z%20M%202.296%2024.765%20C%201.736%2024.765%201.282%2025.212%201.282%2025.763%20L%201.42%2025.763%20C%201.42%2025.287%201.812%2024.9%202.296%2024.9%20Z%20M%202.227%208.263%20L%202.227%2024.833%20L%202.365%2024.833%20L%202.365%208.263%20Z%20M%201.257%208.331%20L%202.296%208.331%20L%202.296%208.195%20L%201.257%208.195%20Z%20M%20-0.037%204.187%20L%201.191%208.282%20L%201.323%208.244%20L%200.095%204.148%20Z%20M%205.507%204.099%20L%200.029%204.099%20L%200.029%204.235%20L%205.507%204.235%20L%205.507%204.099%20Z%20M%205.438%200.072%20L%205.438%204.167%20L%205.576%204.167%20L%205.576%200.072%20Z%22%20fill%3D%22rgb(255%2C255%2C255)%22%3E%3C%2Fpath%3E%3C%2Fsvg%3E","textColor":"#FFFFFF","tooltipDescription":"This
        address is linked to a Farcaster account","warpcastHandle":"dfern.eth"},"name":"Farcaster","ordinal":0,"slug":"warpcast-account","tagType":"classifier"}]},"name":null,"private_tags":[],"proxy_type":null,"public_tags":[],"reputation":"ok","watchlist_names":[]},"token":{"address_hash":"0x0d97F261b1e88845184f678e2d1e7a98D9FD38dE","circulating_market_cap":"1833317.4537554206","decimals":"18","exchange_rate":"0.00001491","holders_count":"111862","icon_url":"https://assets.coingecko.com/coins/images/34563/small/tybg.png?1705400778","name":"Base
        God","reputation":"ok","symbol":"TYBG","total_supply":"125000000000000000000000000000","type":"ERC-20","volume_24h":"13448.325023976306"},"token_type":"ERC-20","total":{"decimals":"18","value":"2812320686082273676574334"},"transaction_hash":"0xcd776ba46aff70b3cc1284b954d6e0a10a4d69dc43891787d77c964c467329c8","type":"token_transfer"}],"base_fee_per_gas":"281","timestamp":"2024-01-24T20:58:51.000000Z","nonce":46,"historic_exchange_rate":"2228.84","transaction_types":["coin_transfer","contract_call","token_transfer"],"exchange_rate":"2361.18","block_number":9670292,"has_error_in_internal_transactions":false}'
    headers:
      CF-RAY:
      - 9dd704b35f8d665b-AMS
      Cache-Control:
      - max-age=0, private, must-revalidate
      Connection:
      - keep-alive
      Content-Type:
      - application/json; charset=utf-8
      Date:
      - Mon, 16 Mar 2026 21:58:17 GMT
      Nel:
      - '{"report_to":"cf-nel","success_fraction":0.0,"max_age":604800}'
      Report-To:
      - '{"group":"cf-nel","max_age":604800,"endpoints":[{"url":"https://a.nel.cloudflare.com/report/v4?s=0m84rUKu3IAIAKOjh5YEbPu3PTAelTGZP5gTiqA9IOsAkVZar5cSkrQSTAe6aeb1WYO%2BfFxoc%2BvwNxV2rrRr7dT%2Ff6CvxpgXRByGtQnwqHQyhZm3jPH3XONmmzBDBg%3D%3D"}]}'
      Server:
      - cloudflare
      Transfer-Encoding:
      - chunked
      access-control-allow-credentials:
      - 'true'
      access-control-allow-origin:
      - '*'
      access-control-expose-headers:
      - bypass-429-option,x-ratelimit-reset,x-ratelimit-limit,x-ratelimit-remaining,api-v2-temp-token
      alt-svc:
      - h3=":443"; ma=86400
      bypass-429-option:
      - temporary_token
      cf-cache-status:
      - DYNAMIC
      content-length:
      - '28210'
      strict-transport-security:
      - max-age=31536000; includeSubDomains
      x-ratelimit-limit:
      - '600'
      x-ratelimit-remaining:
      - '596'
      x-ratelimit-reset:
      - '43132'
      x-request-id:
      - c48aaf53f8b067ed520cc879498354cb
    status:
      code: 200
      message: OK
- request:
    body: null
    headers:
      Accept:
      - '*/*'
      Accept-Encoding:
      - gzip, deflate
      Connection:
      - keep-alive
      User-Agent:
      - rotki/1.41.2.dev1023+g19b876d8c3.d20260314
    method: GET
    uri: https://api.blockscout.com/8453/api?action=txlistinternal&module=account&sort=asc&txhash=0xcd776ba46aff70b3cc1284b954d6e0a10a4d69dc43891787d77c964c467329c8
  response:
    body:
      string: '{"message":"OK","result":[{"blockNumber":"9670292","callType":"call","contractAddress":"","errCode":"","from":"0x83ec81ae54dd8dca17c3dd4703141599090751d1","gas":"138961","gasUsed":"6702","index":"2","input":"0xd0e30db0","isError":"0","timeStamp":"1706129931","to":"0x4200000000000000000000000000000000000006","transactionHash":"0xcd776ba46aff70b3cc1284b954d6e0a10a4d69dc43891787d77c964c467329c8","type":"call","value":"9832891503659921"}],"status":"1"}'
    headers:
      CF-RAY:
      - 9dd704bb4b5bb927-AMS
      Cache-Control:
      - max-age=0, private, must-revalidate
      Connection:
      - keep-alive
      Content-Type:
      - application/json; charset=utf-8
      Date:
      - Mon, 16 Mar 2026 21:58:18 GMT
      Nel:
      - '{"report_to":"cf-nel","success_fraction":0.0,"max_age":604800}'
      Report-To:
      - '{"group":"cf-nel","max_age":604800,"endpoints":[{"url":"https://a.nel.cloudflare.com/report/v4?s=zTxvSAaLeudB6qF3v81EFm%2BuyUWgPNbvusjFulOinOR6voO0x4O%2F%2FZlQY1oUjQ2jk8hIfchD2s%2FPRpr%2FaCEmI5Vwxk%2F1vqMrkjajUCUUk0NW17YxyY12iar1jvr7yw%3D%3D"}]}'
      Server:
      - cloudflare
      Transfer-Encoding:
      - chunked
      access-control-allow-credentials:
      - 'true'
      access-control-allow-origin:
      - '*'
      access-control-expose-headers:
      - bypass-429-option,x-ratelimit-reset,x-ratelimit-limit,x-ratelimit-remaining,api-v2-temp-token
      alt-svc:
      - h3=":443"; ma=86400
      bypass-429-option:
      - no_bypass
      cf-cache-status:
      - DYNAMIC
      content-length:
      - '452'
      strict-transport-security:
      - max-age=31536000; includeSubDomains
      x-ratelimit-limit:
      - '600'
      x-ratelimit-remaining:
      - '595'
      x-ratelimit-reset:
      - '41865'
      x-request-id:
      - 337dd31ccccd584bb44e92c201c39da3
    status:
      code: 200
      message: OK
version: 1
