interactions:
- request:
    body: '{"id": 0, "jsonrpc": "2.0", "method": "eth_getTransactionByHash", "params":
      ["0x1dadb9930dfd8732fe2281435fabf3b32d0a1317b02c4484153e3c9c8e5aa5ce"]}'
    headers:
      Accept:
      - '*/*'
      Accept-Encoding:
      - gzip, deflate
      Connection:
      - keep-alive
      Content-Length:
      - '147'
      Content-Type:
      - application/json
      User-Agent:
      - rotki/1.41.2.dev1023+g19b876d8c3.d20260314
    method: POST
    uri: https://api.blockscout.com/8453/json-rpc
  response:
    body:
      string: '{"jsonrpc":"2.0","result": {"accessList":[],"blockHash":"0x482129bba8b734c012f0d0ab00726f491209f2957090e2c44e0fc7559fbc4d7b","blockNumber":"0xb1542d","chainId":"0x2105","from":"0xa01f6d0985389a8e106d3158a9441ac21eac8d8c","gas":"0xb1525","gasPrice":null,"hash":"0x1dadb9930dfd8732fe2281435fabf3b32d0a1317b02c4484153e3c9c8e5aa5ce","input":"0x999b64640000000000000000000000000d97f261b1e88845184f678e2d1e7a98d9fd38de000000000000000000000000def1c0ded9bec7f1a1670819833240f027b25eff00000000000000000000000000000000000000000000000000000000000000a000000000000000000000000000000000000000000001b0ba1f5cbc0cfade6e7e000000000000000000000000000000000000000000000000001e32b4789740000000000000000000000000000000000000000000000000000000000000000b08415565b00000000000000000000000000d97f261b1e88845184f678e2d1e7a98d9fd38de000000000000000000000000eeeeeeeeeeeeeeeeeeeeeeeeeeeeeeeeeeeeeeee00000000000000000000000000000000000000000001b0ba1f5cbc0cfade6e7e000000000000000000000000000000000000000000000000025101f58586e50200000000000000000000000000000000000000000000000000000000000000a0000000000000000000000000000000000000000000000000000000000000000400000000000000000000000000000000000000000000000000000000000000800000000000000000000000000000000000000000000000000000000000000780000000000000000000000000000000000000000000000000000000000000082000000000000000000000000000000000000000000000000000000000000008e00000000000000000000000000000000000000000000000000000000000000008000000000000000000000000000000000000000000000000000000000000004000000000000000000000000000000000000000000000000000000000000006a0000000000000000000000000000000000000000000000000000000000000002000000000000000000000000000000000000000000000000000000000000000000000000000000000000000000d97f261b1e88845184f678e2d1e7a98d9fd38de000000000000000000000000420000000000000000000000000000000000000600000000000000000000000000000000000000000000000000000000000001400000000000000000000000000000000000000000000000000000000000000660000000000000000000000000000000000000000000000000000000000000066000000000000000000000000000000000000000000000000000000000000005e000000000000000000000000000000000000000000001b0ba1f5cbc0cfade6e7e000000000000000000000000000000000000000000000000000000000000000000000000000000000000000000000000000000000000000000000000000006600000000000000000000000000000000000000000000000000000000000000003000000000000000000000000000000000000000000000000000000000000006000000000000000000000000000000000000000000000000000000000000001a00000000000000000000000000000000000000000000000000000000000000320000000000000000000000000000000025375736869537761700000000000000000000000000000000000000000000000000000000001448b97858d09b8b9717f00000000000000000000000000000000000000000000000001bcdaf79412e73b000000000000000000000000000000000000000000000000000000000000008000000000000000000000000000000000000000000000000000000000000000a00000000000000000000000006bded42c6da8fbf0d2ba55b2fa120c5e0c8d7891000000000000000000000000000000000000000000000000000000000000004000000000000000000000000000000000000000000000000000000000000000020000000000000000000000000d97f261b1e88845184f678e2d1e7a98d9fd38de0000000000000000000000004200000000000000000000000000000000000006000000000000000000000000000000244165726f64726f6d6500000000000000000000000000000000000000000000000000000000004bba2be36db57aaf148d0000000000000000000000000000000000000000000000000067b4e8def2cb35000000000000000000000000000000000000000000000000000000000000008000000000000000000000000000000000000000000000000000000000000000e0000000000000000000000000cf77a3ba9a5ca399b7c97c74d54e5b1beb874e43000000000000000000000000000000000000000000000000000000000000004000000000000000000000000000000000000000000000000000000000000000010000000000000000000000000d97f261b1e88845184f678e2d1e7a98d9fd38de00000000000000000000000042000000000000000000000000000000000000060000000000000000000000000000000000000000000000000000000000000000000000000000000000000000420dd381b31aef6683db6b902084cb0ffece40da00000000000000000000000000000012556e69737761705633000000000000000000000000000000000000000000000000000000000020745bf3c14dc775e874000000000000000000000000000000000000000000000000002c721512813292000000000000000000000000000000000000000000000000000000000000008000000000000000000000000000000000000000000000000000000000000000c00000000000000000000000002626664c2603336e57b271c5c0b26f421741e48100000000000000000000000000000000000000000000000000000000000000600000000000000000000000000000000000000000000000000000000000000002000000000000000000000000000000000000000000000000000000000000002b0d97f261b1e88845184f678e2d1e7a98d9fd38de0027104200000000000000000000000000000000000006000000000000000000000000000000000000000000000000000000000000000000000000000000000000000000000000000000000300000000000000000000000000000000000000000000000000000000000000000000000000000000000000000000000000000000000000000000000000000000000000000000000000000000000000000000000000000000000000000000000000000000000000000000000000000000000000000000000000000000000000000000000000000000000000000000000000000000000000000000000000000005000000000000000000000000000000000000000000000000000000000000004000000000000000000000000000000000000000000000000000000000000000400000000000000000000000004200000000000000000000000000000000000006ffffffffffffffffffffffffffffffffffffffffffffffffffffffffffffffff000000000000000000000000000000000000000000000000000000000000000400000000000000000000000000000000000000000000000000000000000000400000000000000000000000000000000000000000000000000000000000000060000000000000000000000000eeeeeeeeeeeeeeeeeeeeeeeeeeeeeeeeeeeeeeee000000000000000000000000000000000000000000000000025d1c26288ef4c30000000000000000000000001bbe055ad3204fa4468b4e6d3a3c59b9d9ac8c190000000000000000000000000000000000000000000000000000000000000002000000000000000000000000000000000000000000000000000000000000004000000000000000000000000000000000000000000000000000000000000000c000000000000000000000000000000000000000000000000000000000000000200000000000000000000000000000000000000000000000000000000000000040000000000000000000000000000000000000000000000000000000000000008000000000000000000000000000000000000000000000000000000000000000010000000000000000000000000d97f261b1e88845184f678e2d1e7a98d9fd38de0000000000000000000000000000000000000000000000000000000000000000869584cd000000000000000000000000100000000000000000000000000000000000001100000000000000000000000000000000d8ab0d1f5ba133163cbc2ab108fb5c41000000000000000000000000000000000000000000000000d7e44d53","maxFeePerGas":"0x187e5","maxPriorityFeePerGas":"0x186a0","nonce":"0x42","r":"0x7dcbd82aef9e0c14278b5b96e461a577b86dff7691aee7354fe00c9a4fd72f50","s":"0x588600fbec0ad9e04e81f1fe72107aef7d6561099b6bced1426a3a75df9809b6","to":"0x00000000009726632680fb29d3f7a9734e3010e2","transactionIndex":"0x6","type":"0x2","v":"0x0","value":"0x0","yParity":"0x0"},"id":
        0}

        '
    headers:
      CF-RAY:
      - 9dd7453be8caf5e2-AMS
      Cache-Control:
      - max-age=0, private, must-revalidate
      Connection:
      - keep-alive
      Content-Type:
      - application/json; charset=utf-8
      Date:
      - Mon, 16 Mar 2026 22:42:20 GMT
      Nel:
      - '{"report_to":"cf-nel","success_fraction":0.0,"max_age":604800}'
      Report-To:
      - '{"group":"cf-nel","max_age":604800,"endpoints":[{"url":"https://a.nel.cloudflare.com/report/v4?s=2G2oTNPhkTu7BW1xcWv1xh1t3M20GzCtRZPN3XqYxAPXjIN9JylZL5utaVJplH0yAfUDGxLkhSK89foqPSLz51bXrX%2FJOtQVN1VmYWig%2BOOy5%2FQcpscOBJ6wx0U%3D"}]}'
      Server:
      - cloudflare
      Transfer-Encoding:
      - chunked
      access-control-allow-credentials:
      - 'true'
      access-control-allow-origin:
      - '*'
      access-control-expose-headers:
      - bypass-429-option,x-ratelimit-reset,x-ratelimit-limit,x-ratelimit-remaining,api-v2-temp-token
      alt-svc:
      - h3=":443"; ma=86400
      bypass-429-option:
      - no_bypass
      cf-cache-status:
      - DYNAMIC
      content-length:
      - '6795'
      strict-transport-security:
      - max-age=31536000; includeSubDomains
      x-ratelimit-limit:
      - '600'
      x-ratelimit-remaining:
      - '599'
      x-ratelimit-reset:
      - '39843'
      x-request-id:
      - ebb41a5d7526bb04e6bb5009ab3272fe
    status:
      code: 200
      message: OK
- request:
    body: '{"id": 0, "jsonrpc": "2.0", "method": "eth_getBlockByNumber", "params":
      ["0xb1542d", true]}'
    headers:
      Accept:
      - '*/*'
      Accept-Encoding:
      - gzip, deflate
      Connection:
      - keep-alive
      Content-Length:
      - '91'
      Content-Type:
      - application/json
      User-Agent:
      - rotki/1.41.2.dev1023+g19b876d8c3.d20260314
    method: POST
    uri: https://api.blockscout.com/8453/json-rpc
  response:
    body:
      string: '{"jsonrpc":"2.0","result": {"baseFeePerGas":"0x112","difficulty":"0x0","extraData":"0x","gasLimit":"0x1c9c380","gasUsed":"0x165510","hash":"0x482129bba8b734c012f0d0ab00726f491209f2957090e2c44e0fc7559fbc4d7b","logsBloom":"0x04628c0002000000088000508000800000000008100300000c04060700280000140500000000000000000050000400042084000082002a0001510020002020080802203a00000068010040888000006000802000004008010000002180208000000000001204000000010010060008400000000100000480000800100208000000010060006000020004230000040400040114010020100800020042008019800ac00004810040040004411020000180005004800500060400a00020800108c00b00800a0041000080800a14001040100080a80000080a1000000012400822801098080180800000000240000000050c00101001408000400000080020041200","miner":"0x4200000000000000000000000000000000000011","mixHash":"0x5fbd6dc11888c97ca775301843d6ae6b92170a2e1e2d2d1d891f10e12f9ce8c3","nonce":"0x0000000000000000","number":"0xb1542d","parentHash":"0x0fe2136dd6b5d82de6ac69e580a6aefc0dbdbac486320468a5a39faa605e4c55","receiptsRoot":"0xe0d694e932c3433355070ae0cb29fc24bf60e390869444d837a4c7e1e992b38f","sha3Uncles":"0x1dcc4de8dec75d7aab85b567b6ccd41ad312451b948a7413f0a142fd40d49347","size":"0x1af7","stateRoot":"0xdee0a1c6260850d5c2ff22825b7f73b245a10836b7c635eb726f055265d7ee99","timestamp":"0x65ed053d","transactions":[{"blockHash":"0x482129bba8b734c012f0d0ab00726f491209f2957090e2c44e0fc7559fbc4d7b","blockNumber":"0xb1542d","depositReceiptVersion":"0x1","from":"0xdeaddeaddeaddeaddeaddeaddeaddeaddead0001","gas":"0xf4240","gasPrice":"0x0","hash":"0xc9ff84c6c6cb5fae763a3e2671d6a25bfd4ca3a22a1bbb4df0de3eead4faacc0","input":"0x015d8eb90000000000000000000000000000000000000000000000000000000001280a1f0000000000000000000000000000000000000000000000000000000065ed04830000000000000000000000000000000000000000000000000000000c60c48a650cd2aa7cb1a86ff15e6e8572fd5c96e793724076525dee3515918e74fd88c02a00000000000000000000000000000000000000000000000000000000000000050000000000000000000000005050f69a9786f081509234f1a7f4684b5e5b76c900000000000000000000000000000000000000000000000000000000000000bc00000000000000000000000000000000000000000000000000000000000a6fe0","mint":"0x0","nonce":"0xb1542c","r":"0x0","s":"0x0","sourceHash":"0xd3ea263163fcac39aed4968bc90dfe54053f8865f7de122c3b2a4d35082aa851","to":"0x4200000000000000000000000000000000000015","transactionIndex":"0x0","type":"0x7e","v":"0x0","value":"0x0","yParity":"0x0"},{"accessList":[],"blockHash":"0x482129bba8b734c012f0d0ab00726f491209f2957090e2c44e0fc7559fbc4d7b","blockNumber":"0xb1542d","chainId":"0x2105","from":"0xbabe777e1a43053c273bd8a4e45d0cb6c20f8fc6","gas":"0x249f0","gasPrice":"0x127a3a92","hash":"0xa544bdeec799d5153abcb2303f5584c3cf18f4e5ae47ffbea47c4be0a761209b","input":"0xa9059cbb00000000000000000000000019f3aaed8687dbb873edb1d70b6afd934f925c9200000000000000000000000000000000000000000000036af37ec69d74b00000","maxFeePerGas":"0x2540be400","maxPriorityFeePerGas":"0x127a3980","nonce":"0x897c","r":"0x73e193fbddb9844d2d6df4eb144d1a9f40284554fc89912d76f5a876d0eb4ba2","s":"0x6d1f0d47305933c23b525da31b7fca8e03ca92074c61c5fbf72682ea9d6ce58f","to":"0x940181a94a35a4569e4529a3cdfb74e38fd98631","transactionIndex":"0x1","type":"0x2","v":"0x0","value":"0x0","yParity":"0x0"},{"accessList":[],"blockHash":"0x482129bba8b734c012f0d0ab00726f491209f2957090e2c44e0fc7559fbc4d7b","blockNumber":"0xb1542d","chainId":"0x2105","from":"0xe58b12caedb69b894e48ee304e555f53ca039d73","gas":"0x2c0a0","gasPrice":"0x5f5e212","hash":"0x500cc9ae2a58a1ca1a4673591a54161c2c4a06af9a29ed52b02f96e0b04edd48","input":"0xb6f9de95000000000000000000000000000000000000000000000008480b8506d56996910000000000000000000000000000000000000000000000000000000000000080000000000000000000000000e58b12caedb69b894e48ee304e555f53ca039d730000000000000000000000000000000000000000000000000000000065ed059b000000000000000000000000000000000000000000000000000000000000000200000000000000000000000042000000000000000000000000000000000000060000000000000000000000001158be5520f90f52121d666882baa35f9d8fe2ac","maxFeePerGas":"0x6052453","maxPriorityFeePerGas":"0x5f5e100","nonce":"0x48","r":"0x539d411dd36920c195698cfafdf1907046ba0d34ac7793b100d3839be67baf4","s":"0x376ef3cb29bd723d232dfcc29040552692284ba997586ab591d4f70480bcb295","to":"0x6bded42c6da8fbf0d2ba55b2fa120c5e0c8d7891","transactionIndex":"0x2","type":"0x2","v":"0x0","value":"0x1df9dc8e4ad8000","yParity":"0x0"},{"accessList":[],"blockHash":"0x482129bba8b734c012f0d0ab00726f491209f2957090e2c44e0fc7559fbc4d7b","blockNumber":"0xb1542d","chainId":"0x2105","from":"0x935e3a7a6843838cfc80305f321b16e51e2c29ea","gas":"0x22e98","gasPrice":"0x13d785","hash":"0xf63a539ce2d14ab364b5f4bf0d7615cffdecae032e4035047bb63188aff391b2","input":"0x","maxFeePerGas":"0x13d785","maxPriorityFeePerGas":"0x13d785","nonce":"0x6","r":"0x4d0ed024494207730c119a503d30b43388df015d825e9a23cac9ce5fbb71ddc9","s":"0x67f22cc5ffb72d7dd97311897c451c19b43d298152db2bed8539f586e25f07c1","to":"0x9b06c9727b2c31c743c7926395cabaa6925ff3a4","transactionIndex":"0x3","type":"0x2","v":"0x0","value":"0x19c624aa23c31147","yParity":"0x0"},{"accessList":[],"blockHash":"0x482129bba8b734c012f0d0ab00726f491209f2957090e2c44e0fc7559fbc4d7b","blockNumber":"0xb1542d","chainId":"0x2105","from":"0x57f599fb25394dab78561121a87c165381302a82","gas":"0x363ab","gasPrice":"0xf4352","hash":"0x21a136a401bbac54b92b5d05beb167e28b4ed895e32350bf1541f4fc5266b2ee","input":"0x2646478b000000000000000000000000eeeeeeeeeeeeeeeeeeeeeeeeeeeeeeeeeeeeeeee000000000000000000000000000000000000000000000000001395c1eed47306000000000000000000000000ac1bd2486aaf3b5c0fc3fd868558b082a531b2b400000000000000000000000000000000000000000000148242f5fb56024ac08300000000000000000000000057f599fb25394dab78561121a87c165381302a8200000000000000000000000000000000000000000000000000000000000000c000000000000000000000000000000000000000000000000000000000000000700301ffff0201bfc74e1de81e81b0a807469502f6662cc238795e420000000000000000000000000000000000000604420000000000000000000000000000000000000600bfc74e1de81e81b0a807469502f6662cc238795e0157f599fb25394dab78561121a87c165381302a82000bb800000000000000000000000000000000","maxFeePerGas":"0xf435a","maxPriorityFeePerGas":"0xf4240","nonce":"0x31","r":"0x1ad5fbf6ee09459283897fcd458fa699cbc4baaa76377f08fb8ab56c57951244","s":"0x65d4896e120975224829d77a3232e7377b4c08fab6270db91b9db4800484c4de","to":"0x0389879e0156033202c44bf784ac18fc02edee4f","transactionIndex":"0x4","type":"0x2","v":"0x0","value":"0x1395c1eed47306","yParity":"0x0"},{"accessList":[],"blockHash":"0x482129bba8b734c012f0d0ab00726f491209f2957090e2c44e0fc7559fbc4d7b","blockNumber":"0xb1542d","chainId":"0x2105","from":"0xf70da97812cb96acdf810712aa562db8dfa3dbef","gas":"0x2ed55","gasPrice":"0x19b3a","hash":"0x56f9419f92e55ecd5dad18af862271b5baf3775f908f7b0f4c84a78194a95bb1","input":"0x66e0daa0001e80001ec0001d0220001e01001e01000b040c749a966e9dc6e91e2ae11886ae954e3f301f001e01001e20001ee49dbb844d000b04e2516a2c207e84a1839755675dfd8ef6302f0a001e02001e01001ea0003e20000bced8d5e8c9164bac9114277ad7efade0b96a4ffe003a01001802c2ad68fd90000016a789","maxFeePerGas":"0x19b56","maxPriorityFeePerGas":"0x19a28","nonce":"0x2251f","r":"0x4bd3c9b5f5f84b1e983a677e21c6abdf7659eca249fa96ee9f588f06cf9687c","s":"0x3d1266ff936984dff65325e6c1a95a8d386dd6edab5c64c98642139694bb7848","to":"0x0000000000002bdbf1bf3279983603ec279cc6df","transactionIndex":"0x5","type":"0x2","v":"0x1","value":"0x2c2ad68fd9000","yParity":"0x1"},{"accessList":[],"blockHash":"0x482129bba8b734c012f0d0ab00726f491209f2957090e2c44e0fc7559fbc4d7b","blockNumber":"0xb1542d","chainId":"0x2105","from":"0xa01f6d0985389a8e106d3158a9441ac21eac8d8c","gas":"0xb1525","gasPrice":"0x187b2","hash":"0x1dadb9930dfd8732fe2281435fabf3b32d0a1317b02c4484153e3c9c8e5aa5ce","input":"0x999b64640000000000000000000000000d97f261b1e88845184f678e2d1e7a98d9fd38de000000000000000000000000def1c0ded9bec7f1a1670819833240f027b25eff00000000000000000000000000000000000000000000000000000000000000a000000000000000000000000000000000000000000001b0ba1f5cbc0cfade6e7e000000000000000000000000000000000000000000000000001e32b4789740000000000000000000000000000000000000000000000000000000000000000b08415565b00000000000000000000000000d97f261b1e88845184f678e2d1e7a98d9fd38de000000000000000000000000eeeeeeeeeeeeeeeeeeeeeeeeeeeeeeeeeeeeeeee00000000000000000000000000000000000000000001b0ba1f5cbc0cfade6e7e000000000000000000000000000000000000000000000000025101f58586e50200000000000000000000000000000000000000000000000000000000000000a0000000000000000000000000000000000000000000000000000000000000000400000000000000000000000000000000000000000000000000000000000000800000000000000000000000000000000000000000000000000000000000000780000000000000000000000000000000000000000000000000000000000000082000000000000000000000000000000000000000000000000000000000000008e00000000000000000000000000000000000000000000000000000000000000008000000000000000000000000000000000000000000000000000000000000004000000000000000000000000000000000000000000000000000000000000006a0000000000000000000000000000000000000000000000000000000000000002000000000000000000000000000000000000000000000000000000000000000000000000000000000000000000d97f261b1e88845184f678e2d1e7a98d9fd38de000000000000000000000000420000000000000000000000000000000000000600000000000000000000000000000000000000000000000000000000000001400000000000000000000000000000000000000000000000000000000000000660000000000000000000000000000000000000000000000000000000000000066000000000000000000000000000000000000000000000000000000000000005e000000000000000000000000000000000000000000001b0ba1f5cbc0cfade6e7e000000000000000000000000000000000000000000000000000000000000000000000000000000000000000000000000000000000000000000000000000006600000000000000000000000000000000000000000000000000000000000000003000000000000000000000000000000000000000000000000000000000000006000000000000000000000000000000000000000000000000000000000000001a00000000000000000000000000000000000000000000000000000000000000320000000000000000000000000000000025375736869537761700000000000000000000000000000000000000000000000000000000001448b97858d09b8b9717f00000000000000000000000000000000000000000000000001bcdaf79412e73b000000000000000000000000000000000000000000000000000000000000008000000000000000000000000000000000000000000000000000000000000000a00000000000000000000000006bded42c6da8fbf0d2ba55b2fa120c5e0c8d7891000000000000000000000000000000000000000000000000000000000000004000000000000000000000000000000000000000000000000000000000000000020000000000000000000000000d97f261b1e88845184f678e2d1e7a98d9fd38de0000000000000000000000004200000000000000000000000000000000000006000000000000000000000000000000244165726f64726f6d6500000000000000000000000000000000000000000000000000000000004bba2be36db57aaf148d0000000000000000000000000000000000000000000000000067b4e8def2cb35000000000000000000000000000000000000000000000000000000000000008000000000000000000000000000000000000000000000000000000000000000e0000000000000000000000000cf77a3ba9a5ca399b7c97c74d54e5b1beb874e43000000000000000000000000000000000000000000000000000000000000004000000000000000000000000000000000000000000000000000000000000000010000000000000000000000000d97f261b1e88845184f678e2d1e7a98d9fd38de00000000000000000000000042000000000000000000000000000000000000060000000000000000000000000000000000000000000000000000000000000000000000000000000000000000420dd381b31aef6683db6b902084cb0ffece40da00000000000000000000000000000012556e69737761705633000000000000000000000000000000000000000000000000000000000020745bf3c14dc775e874000000000000000000000000000000000000000000000000002c721512813292000000000000000000000000000000000000000000000000000000000000008000000000000000000000000000000000000000000000000000000000000000c00000000000000000000000002626664c2603336e57b271c5c0b26f421741e48100000000000000000000000000000000000000000000000000000000000000600000000000000000000000000000000000000000000000000000000000000002000000000000000000000000000000000000000000000000000000000000002b0d97f261b1e88845184f678e2d1e7a98d9fd38de0027104200000000000000000000000000000000000006000000000000000000000000000000000000000000000000000000000000000000000000000000000000000000000000000000000300000000000000000000000000000000000000000000000000000000000000000000000000000000000000000000000000000000000000000000000000000000000000000000000000000000000000000000000000000000000000000000000000000000000000000000000000000000000000000000000000000000000000000000000000000000000000000000000000000000000000000000000000000005000000000000000000000000000000000000000000000000000000000000004000000000000000000000000000000000000000000000000000000000000000400000000000000000000000004200000000000000000000000000000000000006ffffffffffffffffffffffffffffffffffffffffffffffffffffffffffffffff000000000000000000000000000000000000000000000000000000000000000400000000000000000000000000000000000000000000000000000000000000400000000000000000000000000000000000000000000000000000000000000060000000000000000000000000eeeeeeeeeeeeeeeeeeeeeeeeeeeeeeeeeeeeeeee000000000000000000000000000000000000000000000000025d1c26288ef4c30000000000000000000000001bbe055ad3204fa4468b4e6d3a3c59b9d9ac8c190000000000000000000000000000000000000000000000000000000000000002000000000000000000000000000000000000000000000000000000000000004000000000000000000000000000000000000000000000000000000000000000c000000000000000000000000000000000000000000000000000000000000000200000000000000000000000000000000000000000000000000000000000000040000000000000000000000000000000000000000000000000000000000000008000000000000000000000000000000000000000000000000000000000000000010000000000000000000000000d97f261b1e88845184f678e2d1e7a98d9fd38de0000000000000000000000000000000000000000000000000000000000000000869584cd000000000000000000000000100000000000000000000000000000000000001100000000000000000000000000000000d8ab0d1f5ba133163cbc2ab108fb5c41000000000000000000000000000000000000000000000000d7e44d53","maxFeePerGas":"0x187e5","maxPriorityFeePerGas":"0x186a0","nonce":"0x42","r":"0x7dcbd82aef9e0c14278b5b96e461a577b86dff7691aee7354fe00c9a4fd72f50","s":"0x588600fbec0ad9e04e81f1fe72107aef7d6561099b6bced1426a3a75df9809b6","to":"0x00000000009726632680fb29d3f7a9734e3010e2","transactionIndex":"0x6","type":"0x2","v":"0x0","value":"0x0","yParity":"0x0"},{"accessList":[],"blockHash":"0x482129bba8b734c012f0d0ab00726f491209f2957090e2c44e0fc7559fbc4d7b","blockNumber":"0xb1542d","chainId":"0x2105","from":"0xb4807865a786e9e9e26e6a9610f2078e7fc507fb","gas":"0x5208","gasPrice":"0x187b2","hash":"0x3679e84983937f2417824a19ad6e4725e181587a4c1b501da6d71d4dc40237d2","input":"0x","maxFeePerGas":"0x7abde","maxPriorityFeePerGas":"0x186a0","nonce":"0x17201","r":"0x870a236fec0f75cacbe4f719581f22917681d30ce14972e0d20bfc53e02a0e1b","s":"0x39167514b5bc33f0917b8b9b6245e50aab2cfea22bfc632bf59bab207bd2ef22","to":"0x16e9fae2b72d53ff7c5e00c1e5ab3aae0f58037f","transactionIndex":"0x7","type":"0x2","v":"0x1","value":"0x16a6a801a5e400","yParity":"0x1"},{"accessList":[],"blockHash":"0x482129bba8b734c012f0d0ab00726f491209f2957090e2c44e0fc7559fbc4d7b","blockNumber":"0xb1542d","chainId":"0x2105","from":"0x2a2cd340ee823c3c805aea00116315f65c11f75b","gas":"0x76f6","gasPrice":"0xf74","hash":"0x2eb5de82a4ad1577679fd917c545933be49453f1b4b9779671c33de201dbb11e","input":"0x095ea7b3000000000000000000000000000000000022d473030f116ddee9f6b43ac78ba3000000000000000000000000000000000000000000000015dc482b42b0af2000","maxFeePerGas":"0x119f","maxPriorityFeePerGas":"0xe62","nonce":"0x21","r":"0xf8b13d8258cd487028a80c0892b50a3fc880ef0ef8030e6a9556dbe74f25c507","s":"0x1ea92a0ba7adf46229c813e91be1c7dd48d61ca975380a70eb7b8cbeb0f7ba5b","to":"0x6fd31533621452aac187c9cbdfdfb6ef50d28149","transactionIndex":"0x8","type":"0x2","v":"0x1","value":"0x0","yParity":"0x1"},{"accessList":[],"blockHash":"0x482129bba8b734c012f0d0ab00726f491209f2957090e2c44e0fc7559fbc4d7b","blockNumber":"0xb1542d","chainId":"0x2105","from":"0x550fc8bd6268baf60ca97d13b45c3507b4f758d9","gas":"0xc96e","gasPrice":"0xf74","hash":"0x366035f113dfafbee7f370bad0e65f086e75377b2ea5791f4ba94972f397fd66","input":"0x095ea7b3000000000000000000000000cf77a3ba9a5ca399b7c97c74d54e5b1beb874e43000000000000000000000000000000000000000000000000000000000041501b","maxFeePerGas":"0x119f","maxPriorityFeePerGas":"0xe62","nonce":"0x26","r":"0x8790dabe65a43e7f19451945153b5fcccbc8778fc9259004f6fba8b99c795f1a","s":"0x4603b1ea8cdcf8039f08cfac97519ad3be17230ad3e1eb891c57fd8faaeb7509","to":"0xd9aaec86b65d86f6a7b5b1b0c42ffa531710b6ca","transactionIndex":"0x9","type":"0x2","v":"0x0","value":"0x0","yParity":"0x0"},{"accessList":[],"blockHash":"0x482129bba8b734c012f0d0ab00726f491209f2957090e2c44e0fc7559fbc4d7b","blockNumber":"0xb1542d","chainId":"0x2105","from":"0x842eb78e16846bb8077f39aa4d42aa747352072b","gas":"0x2f9f5","gasPrice":"0xf74","hash":"0xa8cec695c48de775a2434c7feebf3c6eda83d5613bfd61d8fd75c600b7ed545a","input":"0x3593564c000000000000000000000000000000000000000000000000000000000000006000000000000000000000000000000000000000000000000000000000000000a00000000000000000000000000000000000000000000000000000000065ed06530000000000000000000000000000000000000000000000000000000000000002000c00000000000000000000000000000000000000000000000000000000000000000000000000000000000000000000000000000000000000000000000000020000000000000000000000000000000000000000000000000000000000000040000000000000000000000000000000000000000000000000000000000000016000000000000000000000000000000000000000000000000000000000000001000000000000000000000000000000000000000000000000000000000000000002000000000000000000000000000000000000000000007630755a4334a9b828000000000000000000000000000000000000000000000000000177bbaa22484eba00000000000000000000000000000000000000000000000000000000000000a00000000000000000000000000000000000000000000000000000000000000001000000000000000000000000000000000000000000000000000000000000002b6921b130d297cc43754afba22e5eac0fbf8db75b0027104200000000000000000000000000000000000006000000000000000000000000000000000000000000000000000000000000000000000000000000000000000000000000000000004000000000000000000000000000000000000000000000000000000000000000010000000000000000000000000000000000000000000000000177bbaa22484eba","maxFeePerGas":"0x119f","maxPriorityFeePerGas":"0xe62","nonce":"0xeb","r":"0x150f21e1a04a24b22abc1e567dd96f6e9bff3bd674a805f5d2d21548f4876a36","s":"0x6af8a51570a4bb3ef0933cbd3279971d09c48be77fc306799c62fc2daea9a6da","to":"0x3fc91a3afd70395cd496c647d5a6cc9d4b2b7fad","transactionIndex":"0xa","type":"0x2","v":"0x1","value":"0x0","yParity":"0x1"},{"accessList":[],"blockHash":"0x482129bba8b734c012f0d0ab00726f491209f2957090e2c44e0fc7559fbc4d7b","blockNumber":"0xb1542d","chainId":"0x2105","from":"0xd0675147fa21e54bc01bdfac8b315b37b6046476","gas":"0x1e841","gasPrice":"0x16d","hash":"0xd7e742b5b533fdb4b6633d91858fa0fef0cc90a75e8fd5e1f3c1e17278369456","input":"0xc4de93a50000000000000000000000000000000000000000000000000000000000000001000000000000000000000000000000000000000000000000000000000045478d000000000000000000000000d0675147fa21e54bc01bdfac8b315b37b6046476","maxFeePerGas":"0x1b2","maxPriorityFeePerGas":"0x5b","nonce":"0x21","r":"0xc6d8273e6c2b5a2307b66ac40627b73a961332ff95ee0886449e2a81d5f28746","s":"0x2333d568ed81be9f6310f2cd4ad9fd2a6d2588b9e94f75d49c5a6b2c8608726c","to":"0x45f1a95a4d3f3836523f5c83673c797f4d4d263b","transactionIndex":"0xb","type":"0x2","v":"0x0","value":"0x0","yParity":"0x0"}],"transactionsRoot":"0xf17fa952f46b82954312e5f82280a2a0469d5d309b4dd08ed9634f585694fc4f","uncles":[],"withdrawals":[],"withdrawalsRoot":"0x56e81f171bcc55a6ff8345e692c0f86e5b48e01b996cadc001622fb5e363b421"},"id":
        0}

        '
    headers:
      CF-RAY:
      - 9dd7453c88fa5c3a-AMS
      Cache-Control:
      - max-age=0, private, must-revalidate
      Connection:
      - keep-alive
      Content-Type:
      - application/json; charset=utf-8
      Date:
      - Mon, 16 Mar 2026 22:42:20 GMT
      Nel:
      - '{"report_to":"cf-nel","success_fraction":0.0,"max_age":604800}'
      Report-To:
      - '{"group":"cf-nel","max_age":604800,"endpoints":[{"url":"https://a.nel.cloudflare.com/report/v4?s=az0mjl2gdDBVpqgPHnX0TvUJdWJZ8S3B2vMsawxJFpz9JVz4gU%2F2xu1664B1YwFDxM29vNCwcqkN9H26Pfe3LvpbsxV7OxFpPzr08dyJeDrBzYHYd%2BHP6MHLI2hntw%3D%3D"}]}'
      Server:
      - cloudflare
      Transfer-Encoding:
      - chunked
      access-control-allow-credentials:
      - 'true'
      access-control-allow-origin:
      - '*'
      access-control-expose-headers:
      - bypass-429-option,x-ratelimit-reset,x-ratelimit-limit,x-ratelimit-remaining,api-v2-temp-token
      alt-svc:
      - h3=":443"; ma=86400
      bypass-429-option:
      - no_bypass
      cf-cache-status:
      - DYNAMIC
      content-length:
      - '19442'
      strict-transport-security:
      - max-age=31536000; includeSubDomains
      x-ratelimit-limit:
      - '600'
      x-ratelimit-remaining:
      - '598'
      x-ratelimit-reset:
      - '39712'
      x-request-id:
      - ae5e78aa7d722d12ff614eb92db31d96
    status:
      code: 200
      message: OK
- request:
    body: '{"id": 0, "jsonrpc": "2.0", "method": "eth_getTransactionReceipt", "params":
      ["0x1dadb9930dfd8732fe2281435fabf3b32d0a1317b02c4484153e3c9c8e5aa5ce"]}'
    headers:
      Accept:
      - '*/*'
      Accept-Encoding:
      - gzip, deflate
      Connection:
      - keep-alive
      Content-Length:
      - '148'
      Content-Type:
      - application/json
      User-Agent:
      - rotki/1.41.2.dev1023+g19b876d8c3.d20260314
    method: POST
    uri: https://api.blockscout.com/8453/json-rpc
  response:
    body:
      string: '{"jsonrpc":"2.0","result": {"blockHash":"0x482129bba8b734c012f0d0ab00726f491209f2957090e2c44e0fc7559fbc4d7b","blockNumber":"0xb1542d","contractAddress":null,"cumulativeGasUsed":"0x11465f","effectiveGasPrice":"0x187b2","from":"0xa01f6d0985389a8e106d3158a9441ac21eac8d8c","gasUsed":"0x8ba7d","logs":[{"address":"0x0d97f261b1e88845184f678e2d1e7a98d9fd38de","blockHash":"0x482129bba8b734c012f0d0ab00726f491209f2957090e2c44e0fc7559fbc4d7b","blockNumber":"0xb1542d","data":"0x00000000000000000000000000000000000000000001b0ba1f5cbc0cfade6e7e","logIndex":"0x10","removed":false,"topics":["0xddf252ad1be2c89b69c2b068fc378daa952ba7f163c4a11628f55a4df523b3ef","0x000000000000000000000000a01f6d0985389a8e106d3158a9441ac21eac8d8c","0x00000000000000000000000000000000009726632680fb29d3f7a9734e3010e2"],"transactionHash":"0x1dadb9930dfd8732fe2281435fabf3b32d0a1317b02c4484153e3c9c8e5aa5ce","transactionIndex":"0x6"},{"address":"0x0d97f261b1e88845184f678e2d1e7a98d9fd38de","blockHash":"0x482129bba8b734c012f0d0ab00726f491209f2957090e2c44e0fc7559fbc4d7b","blockNumber":"0xb1542d","data":"0x00000000000000000000000000000000000000000001b0ba1f5cbc0cfade6e7e","logIndex":"0x11","removed":false,"topics":["0x8c5be1e5ebec7d5bd14f71427d1e84f3dd0314c0f7b2291e5b200ac8c7c3b925","0x00000000000000000000000000000000009726632680fb29d3f7a9734e3010e2","0x000000000000000000000000def1c0ded9bec7f1a1670819833240f027b25eff"],"transactionHash":"0x1dadb9930dfd8732fe2281435fabf3b32d0a1317b02c4484153e3c9c8e5aa5ce","transactionIndex":"0x6"},{"address":"0x0d97f261b1e88845184f678e2d1e7a98d9fd38de","blockHash":"0x482129bba8b734c012f0d0ab00726f491209f2957090e2c44e0fc7559fbc4d7b","blockNumber":"0xb1542d","data":"0x0000000000000000000000000000000000000000000000000000000000000000","logIndex":"0x12","removed":false,"topics":["0x8c5be1e5ebec7d5bd14f71427d1e84f3dd0314c0f7b2291e5b200ac8c7c3b925","0x00000000000000000000000000000000009726632680fb29d3f7a9734e3010e2","0x000000000000000000000000def1c0ded9bec7f1a1670819833240f027b25eff"],"transactionHash":"0x1dadb9930dfd8732fe2281435fabf3b32d0a1317b02c4484153e3c9c8e5aa5ce","transactionIndex":"0x6"},{"address":"0x0d97f261b1e88845184f678e2d1e7a98d9fd38de","blockHash":"0x482129bba8b734c012f0d0ab00726f491209f2957090e2c44e0fc7559fbc4d7b","blockNumber":"0xb1542d","data":"0x00000000000000000000000000000000000000000001b0ba1f5cbc0cfade6e7e","logIndex":"0x13","removed":false,"topics":["0xddf252ad1be2c89b69c2b068fc378daa952ba7f163c4a11628f55a4df523b3ef","0x00000000000000000000000000000000009726632680fb29d3f7a9734e3010e2","0x000000000000000000000000db6f1920a889355780af7570773609bd8cb1f498"],"transactionHash":"0x1dadb9930dfd8732fe2281435fabf3b32d0a1317b02c4484153e3c9c8e5aa5ce","transactionIndex":"0x6"},{"address":"0x0d97f261b1e88845184f678e2d1e7a98d9fd38de","blockHash":"0x482129bba8b734c012f0d0ab00726f491209f2957090e2c44e0fc7559fbc4d7b","blockNumber":"0xb1542d","data":"0x00000000000000000000000000000000000000000001448b97858d09b8b9717f","logIndex":"0x14","removed":false,"topics":["0xddf252ad1be2c89b69c2b068fc378daa952ba7f163c4a11628f55a4df523b3ef","0x000000000000000000000000db6f1920a889355780af7570773609bd8cb1f498","0x000000000000000000000000f65bb528ced09008603509c3fda43e1ccfddf935"],"transactionHash":"0x1dadb9930dfd8732fe2281435fabf3b32d0a1317b02c4484153e3c9c8e5aa5ce","transactionIndex":"0x6"},{"address":"0x4200000000000000000000000000000000000006","blockHash":"0x482129bba8b734c012f0d0ab00726f491209f2957090e2c44e0fc7559fbc4d7b","blockNumber":"0xb1542d","data":"0x00000000000000000000000000000000000000000000000001c5ef1bfa5c6e88","logIndex":"0x15","removed":false,"topics":["0xddf252ad1be2c89b69c2b068fc378daa952ba7f163c4a11628f55a4df523b3ef","0x000000000000000000000000f65bb528ced09008603509c3fda43e1ccfddf935","0x000000000000000000000000db6f1920a889355780af7570773609bd8cb1f498"],"transactionHash":"0x1dadb9930dfd8732fe2281435fabf3b32d0a1317b02c4484153e3c9c8e5aa5ce","transactionIndex":"0x6"},{"address":"0xf65bb528ced09008603509c3fda43e1ccfddf935","blockHash":"0x482129bba8b734c012f0d0ab00726f491209f2957090e2c44e0fc7559fbc4d7b","blockNumber":"0xb1542d","data":"0x000000000000000000000000000000000000000004f0230972366611e08c0a34000000000000000000000000000000000000000000000006eba934cba1893203","logIndex":"0x16","removed":false,"topics":["0x1c411e9a96e071241c2f21f7726b17ae89e3cab4c78be50e062b03a9fffbbad1"],"transactionHash":"0x1dadb9930dfd8732fe2281435fabf3b32d0a1317b02c4484153e3c9c8e5aa5ce","transactionIndex":"0x6"},{"address":"0xf65bb528ced09008603509c3fda43e1ccfddf935","blockHash":"0x482129bba8b734c012f0d0ab00726f491209f2957090e2c44e0fc7559fbc4d7b","blockNumber":"0xb1542d","data":"0x00000000000000000000000000000000000000000001448b97858d09b8b9717f0000000000000000000000000000000000000000000000000000000000000000000000000000000000000000000000000000000000000000000000000000000000000000000000000000000000000000000000000000000001c5ef1bfa5c6e88","logIndex":"0x17","removed":false,"topics":["0xd78ad95fa46c994b6551d0da85fc275fe613ce37657fb8d5e3d130840159d822","0x0000000000000000000000006bded42c6da8fbf0d2ba55b2fa120c5e0c8d7891","0x000000000000000000000000db6f1920a889355780af7570773609bd8cb1f498"],"transactionHash":"0x1dadb9930dfd8732fe2281435fabf3b32d0a1317b02c4484153e3c9c8e5aa5ce","transactionIndex":"0x6"},{"address":"0xdb6f1920a889355780af7570773609bd8cb1f498","blockHash":"0x482129bba8b734c012f0d0ab00726f491209f2957090e2c44e0fc7559fbc4d7b","blockNumber":"0xb1542d","data":"0x00000000000000000000000000000002537573686953776170000000000000000000000000000000000000000d97f261b1e88845184f678e2d1e7a98d9fd38de000000000000000000000000420000000000000000000000000000000000000600000000000000000000000000000000000000000001448b97858d09b8b9717f00000000000000000000000000000000000000000000000001c5ef1bfa5c6e88","logIndex":"0x18","removed":false,"topics":["0xe59e71a14fe90157eedc866c4f8c767d3943d6b6b2e8cd64dddcc92ab4c55af8"],"transactionHash":"0x1dadb9930dfd8732fe2281435fabf3b32d0a1317b02c4484153e3c9c8e5aa5ce","transactionIndex":"0x6"},{"address":"0x0d97f261b1e88845184f678e2d1e7a98d9fd38de","blockHash":"0x482129bba8b734c012f0d0ab00726f491209f2957090e2c44e0fc7559fbc4d7b","blockNumber":"0xb1542d","data":"0x000000000000000000000000000000000000000000004bba2be36db57aaf148d","logIndex":"0x19","removed":false,"topics":["0xddf252ad1be2c89b69c2b068fc378daa952ba7f163c4a11628f55a4df523b3ef","0x000000000000000000000000db6f1920a889355780af7570773609bd8cb1f498","0x00000000000000000000000020000fbfedfd172821821c9c59284129b04ffb2e"],"transactionHash":"0x1dadb9930dfd8732fe2281435fabf3b32d0a1317b02c4484153e3c9c8e5aa5ce","transactionIndex":"0x6"},{"address":"0x4200000000000000000000000000000000000006","blockHash":"0x482129bba8b734c012f0d0ab00726f491209f2957090e2c44e0fc7559fbc4d7b","blockNumber":"0xb1542d","data":"0x0000000000000000000000000000000000000000000000000069d2b960e2d9d4","logIndex":"0x1a","removed":false,"topics":["0xddf252ad1be2c89b69c2b068fc378daa952ba7f163c4a11628f55a4df523b3ef","0x00000000000000000000000020000fbfedfd172821821c9c59284129b04ffb2e","0x000000000000000000000000db6f1920a889355780af7570773609bd8cb1f498"],"transactionHash":"0x1dadb9930dfd8732fe2281435fabf3b32d0a1317b02c4484153e3c9c8e5aa5ce","transactionIndex":"0x6"},{"address":"0x0d97f261b1e88845184f678e2d1e7a98d9fd38de","blockHash":"0x482129bba8b734c012f0d0ab00726f491209f2957090e2c44e0fc7559fbc4d7b","blockNumber":"0xb1542d","data":"0x0000000000000000000000000000000000000000000000745128c9dfcf12755f","logIndex":"0x1b","removed":false,"topics":["0xddf252ad1be2c89b69c2b068fc378daa952ba7f163c4a11628f55a4df523b3ef","0x00000000000000000000000020000fbfedfd172821821c9c59284129b04ffb2e","0x000000000000000000000000eb44dc0e56c5af15f514189896cc82cc41e3d190"],"transactionHash":"0x1dadb9930dfd8732fe2281435fabf3b32d0a1317b02c4484153e3c9c8e5aa5ce","transactionIndex":"0x6"},{"address":"0x20000fbfedfd172821821c9c59284129b04ffb2e","blockHash":"0x482129bba8b734c012f0d0ab00726f491209f2957090e2c44e0fc7559fbc4d7b","blockNumber":"0xb1542d","data":"0x0000000000000000000000000000000000000000000000745128c9dfcf12755f0000000000000000000000000000000000000000000000000000000000000000","logIndex":"0x1c","removed":false,"topics":["0x112c256902bf554b6ed882d2936687aaeb4225e8cd5b51303c90ca6cf43a8602","0x000000000000000000000000cf77a3ba9a5ca399b7c97c74d54e5b1beb874e43"],"transactionHash":"0x1dadb9930dfd8732fe2281435fabf3b32d0a1317b02c4484153e3c9c8e5aa5ce","transactionIndex":"0x6"},{"address":"0x20000fbfedfd172821821c9c59284129b04ffb2e","blockHash":"0x482129bba8b734c012f0d0ab00726f491209f2957090e2c44e0fc7559fbc4d7b","blockNumber":"0xb1542d","data":"0x000000000000000000000000000000000000000008567e1a61cf56cc84a83aa700000000000000000000000000000000000000000000000bb86296cd35398ffe","logIndex":"0x1d","removed":false,"topics":["0xcf2aa50876cdfbb541206f89af0ee78d44a2abf8d328e37fa4917f982149848a"],"transactionHash":"0x1dadb9930dfd8732fe2281435fabf3b32d0a1317b02c4484153e3c9c8e5aa5ce","transactionIndex":"0x6"},{"address":"0x20000fbfedfd172821821c9c59284129b04ffb2e","blockHash":"0x482129bba8b734c012f0d0ab00726f491209f2957090e2c44e0fc7559fbc4d7b","blockNumber":"0xb1542d","data":"0x000000000000000000000000000000000000000000004bba2be36db57aaf148d000000000000000000000000000000000000000000000000000000000000000000000000000000000000000000000000000000000000000000000000000000000000000000000000000000000000000000000000000000000069d2b960e2d9d4","logIndex":"0x1e","removed":false,"topics":["0xb3e2773606abfd36b5bd91394b3a54d1398336c65005baf7bf7a05efeffaf75b","0x000000000000000000000000cf77a3ba9a5ca399b7c97c74d54e5b1beb874e43","0x000000000000000000000000db6f1920a889355780af7570773609bd8cb1f498"],"transactionHash":"0x1dadb9930dfd8732fe2281435fabf3b32d0a1317b02c4484153e3c9c8e5aa5ce","transactionIndex":"0x6"},{"address":"0xdb6f1920a889355780af7570773609bd8cb1f498","blockHash":"0x482129bba8b734c012f0d0ab00726f491209f2957090e2c44e0fc7559fbc4d7b","blockNumber":"0xb1542d","data":"0x000000000000000000000000000000244165726f64726f6d65000000000000000000000000000000000000000d97f261b1e88845184f678e2d1e7a98d9fd38de0000000000000000000000004200000000000000000000000000000000000006000000000000000000000000000000000000000000004bba2be36db57aaf148d0000000000000000000000000000000000000000000000000069d2b960e2d9d4","logIndex":"0x1f","removed":false,"topics":["0xe59e71a14fe90157eedc866c4f8c767d3943d6b6b2e8cd64dddcc92ab4c55af8"],"transactionHash":"0x1dadb9930dfd8732fe2281435fabf3b32d0a1317b02c4484153e3c9c8e5aa5ce","transactionIndex":"0x6"},{"address":"0x4200000000000000000000000000000000000006","blockHash":"0x482129bba8b734c012f0d0ab00726f491209f2957090e2c44e0fc7559fbc4d7b","blockNumber":"0xb1542d","data":"0x000000000000000000000000000000000000000000000000002d5a49bf4a5d64","logIndex":"0x20","removed":false,"topics":["0xddf252ad1be2c89b69c2b068fc378daa952ba7f163c4a11628f55a4df523b3ef","0x000000000000000000000000e745a591970e0fa981204cf525e170a2b9e4fb93","0x000000000000000000000000db6f1920a889355780af7570773609bd8cb1f498"],"transactionHash":"0x1dadb9930dfd8732fe2281435fabf3b32d0a1317b02c4484153e3c9c8e5aa5ce","transactionIndex":"0x6"},{"address":"0x0d97f261b1e88845184f678e2d1e7a98d9fd38de","blockHash":"0x482129bba8b734c012f0d0ab00726f491209f2957090e2c44e0fc7559fbc4d7b","blockNumber":"0xb1542d","data":"0x0000000000000000000000000000000000000000000020745bf3c14dc775e872","logIndex":"0x21","removed":false,"topics":["0xddf252ad1be2c89b69c2b068fc378daa952ba7f163c4a11628f55a4df523b3ef","0x000000000000000000000000db6f1920a889355780af7570773609bd8cb1f498","0x000000000000000000000000e745a591970e0fa981204cf525e170a2b9e4fb93"],"transactionHash":"0x1dadb9930dfd8732fe2281435fabf3b32d0a1317b02c4484153e3c9c8e5aa5ce","transactionIndex":"0x6"},{"address":"0xe745a591970e0fa981204cf525e170a2b9e4fb93","blockHash":"0x482129bba8b734c012f0d0ab00726f491209f2957090e2c44e0fc7559fbc4d7b","blockNumber":"0xb1542d","data":"0x0000000000000000000000000000000000000000000020745bf3c14dc775e872ffffffffffffffffffffffffffffffffffffffffffffffffffd2a5b640b5a29c0000000000000000000000000000000000000000001301f32a70a819d3df426900000000000000000000000000000000000000000000347247d60a4fafc178f3fffffffffffffffffffffffffffffffffffffffffffffffffffffffffffd8399","logIndex":"0x22","removed":false,"topics":["0xc42079f94a6350d7e6235f29174924f928cc2ac818eb64fed8004e115fbcca67","0x0000000000000000000000002626664c2603336e57b271c5c0b26f421741e481","0x000000000000000000000000db6f1920a889355780af7570773609bd8cb1f498"],"transactionHash":"0x1dadb9930dfd8732fe2281435fabf3b32d0a1317b02c4484153e3c9c8e5aa5ce","transactionIndex":"0x6"},{"address":"0xdb6f1920a889355780af7570773609bd8cb1f498","blockHash":"0x482129bba8b734c012f0d0ab00726f491209f2957090e2c44e0fc7559fbc4d7b","blockNumber":"0xb1542d","data":"0x00000000000000000000000000000012556e69737761705633000000000000000000000000000000000000000d97f261b1e88845184f678e2d1e7a98d9fd38de00000000000000000000000042000000000000000000000000000000000000060000000000000000000000000000000000000000000020745bf3c14dc775e872000000000000000000000000000000000000000000000000002d5a49bf4a5d64","logIndex":"0x23","removed":false,"topics":["0xe59e71a14fe90157eedc866c4f8c767d3943d6b6b2e8cd64dddcc92ab4c55af8"],"transactionHash":"0x1dadb9930dfd8732fe2281435fabf3b32d0a1317b02c4484153e3c9c8e5aa5ce","transactionIndex":"0x6"},{"address":"0x4200000000000000000000000000000000000006","blockHash":"0x482129bba8b734c012f0d0ab00726f491209f2957090e2c44e0fc7559fbc4d7b","blockNumber":"0xb1542d","data":"0x000000000000000000000000000000000000000000000000025d1c1f1a89a5c0","logIndex":"0x24","removed":false,"topics":["0x7fcf532c15f0a6db0bd6d0e038bea71d30d808c7d98cb3bf7268a95bf5081b65","0x000000000000000000000000db6f1920a889355780af7570773609bd8cb1f498"],"transactionHash":"0x1dadb9930dfd8732fe2281435fabf3b32d0a1317b02c4484153e3c9c8e5aa5ce","transactionIndex":"0x6"},{"address":"0xdef1c0ded9bec7f1a1670819833240f027b25eff","blockHash":"0x482129bba8b734c012f0d0ab00726f491209f2957090e2c44e0fc7559fbc4d7b","blockNumber":"0xb1542d","data":"0x0000000000000000000000000d97f261b1e88845184f678e2d1e7a98d9fd38de000000000000000000000000eeeeeeeeeeeeeeeeeeeeeeeeeeeeeeeeeeeeeeee00000000000000000000000000000000000000000001b0ba1f5cbc0cfade6e7e000000000000000000000000000000000000000000000000025d1c1f1a89a5c0","logIndex":"0x25","removed":false,"topics":["0x0f6672f78a59ba8e5e5b5d38df3ebc67f3c792e2c9259b8d97d7f00dd78ba1b3","0x00000000000000000000000000000000009726632680fb29d3f7a9734e3010e2"],"transactionHash":"0x1dadb9930dfd8732fe2281435fabf3b32d0a1317b02c4484153e3c9c8e5aa5ce","transactionIndex":"0x6"}],"logsBloom":"0x0060800002000000000000108000000000000000000100000804040100000000140500000000000000000010000000040000000000002a000000000000200000080200000000002800000008800000600080000000400001000000200000000000000000000400000000001000000040000000000000040000000010000800000000002000200000000022000004000000011000002010080002004200000000028000000100400000004000200001000000000004000004000000000000004009008002004000000000080400000000000008000000021000000002000800001018080100800000000040000000050400000000000000000000000020001200","status":"0x1","to":"0x00000000009726632680fb29d3f7a9734e3010e2","transactionHash":"0x1dadb9930dfd8732fe2281435fabf3b32d0a1317b02c4484153e3c9c8e5aa5ce","transactionIndex":"0x6","type":"0x2"},"id":
        0}

        '
    headers:
      CF-RAY:
      - 9dd7453ee87b7869-AMS
      Cache-Control:
      - max-age=0, private, must-revalidate
      Connection:
      - keep-alive
      Content-Type:
      - application/json; charset=utf-8
      Date:
      - Mon, 16 Mar 2026 22:42:20 GMT
      Nel:
      - '{"report_to":"cf-nel","success_fraction":0.0,"max_age":604800}'
      Report-To:
      - '{"group":"cf-nel","max_age":604800,"endpoints":[{"url":"https://a.nel.cloudflare.com/report/v4?s=7dfa0mZA1HWhJZsYH4wEahsUHZdYTp5VdMlLB79oKxWFVntJuPJzIe%2FMMkgFRyukqLGm1tKn6YlavKbOWzjBoxq3CJTmoKShAuimKto1qKUcISkcBrVZPk0V76OW4A%3D%3D"}]}'
      Server:
      - cloudflare
      Transfer-Encoding:
      - chunked
      access-control-allow-credentials:
      - 'true'
      access-control-allow-origin:
      - '*'
      access-control-expose-headers:
      - bypass-429-option,x-ratelimit-reset,x-ratelimit-limit,x-ratelimit-remaining,api-v2-temp-token
      alt-svc:
      - h3=":443"; ma=86400
      bypass-429-option:
      - no_bypass
      cf-cache-status:
      - DYNAMIC
      content-length:
      - '15189'
      strict-transport-security:
      - max-age=31536000; includeSubDomains
      x-ratelimit-limit:
      - '600'
      x-ratelimit-remaining:
      - '597'
      x-ratelimit-reset:
      - '39366'
      x-request-id:
      - 1c9efb352c117ed62c6f202a275c68df
    status:
      code: 200
      message: OK
- request:
    body: null
    headers:
      Accept:
      - '*/*'
      Accept-Encoding:
      - gzip, deflate
      Connection:
      - keep-alive
      User-Agent:
      - rotki/1.41.2.dev1023+g19b876d8c3.d20260314
    method: GET
    uri: https://api.blockscout.com/8453/api/v2/transactions/0x1dadb9930dfd8732fe2281435fabf3b32d0a1317b02c4484153e3c9c8e5aa5ce
  response:
    body:
      string: '{"l1_gas_used":"21028","priority_fee":"57202900000","raw_input":"0x999b64640000000000000000000000000d97f261b1e88845184f678e2d1e7a98d9fd38de000000000000000000000000def1c0ded9bec7f1a1670819833240f027b25eff00000000000000000000000000000000000000000000000000000000000000a000000000000000000000000000000000000000000001b0ba1f5cbc0cfade6e7e000000000000000000000000000000000000000000000000001e32b4789740000000000000000000000000000000000000000000000000000000000000000b08415565b00000000000000000000000000d97f261b1e88845184f678e2d1e7a98d9fd38de000000000000000000000000eeeeeeeeeeeeeeeeeeeeeeeeeeeeeeeeeeeeeeee00000000000000000000000000000000000000000001b0ba1f5cbc0cfade6e7e000000000000000000000000000000000000000000000000025101f58586e50200000000000000000000000000000000000000000000000000000000000000a0000000000000000000000000000000000000000000000000000000000000000400000000000000000000000000000000000000000000000000000000000000800000000000000000000000000000000000000000000000000000000000000780000000000000000000000000000000000000000000000000000000000000082000000000000000000000000000000000000000000000000000000000000008e00000000000000000000000000000000000000000000000000000000000000008000000000000000000000000000000000000000000000000000000000000004000000000000000000000000000000000000000000000000000000000000006a0000000000000000000000000000000000000000000000000000000000000002000000000000000000000000000000000000000000000000000000000000000000000000000000000000000000d97f261b1e88845184f678e2d1e7a98d9fd38de000000000000000000000000420000000000000000000000000000000000000600000000000000000000000000000000000000000000000000000000000001400000000000000000000000000000000000000000000000000000000000000660000000000000000000000000000000000000000000000000000000000000066000000000000000000000000000000000000000000000000000000000000005e000000000000000000000000000000000000000000001b0ba1f5cbc0cfade6e7e000000000000000000000000000000000000000000000000000000000000000000000000000000000000000000000000000000000000000000000000000006600000000000000000000000000000000000000000000000000000000000000003000000000000000000000000000000000000000000000000000000000000006000000000000000000000000000000000000000000000000000000000000001a00000000000000000000000000000000000000000000000000000000000000320000000000000000000000000000000025375736869537761700000000000000000000000000000000000000000000000000000000001448b97858d09b8b9717f00000000000000000000000000000000000000000000000001bcdaf79412e73b000000000000000000000000000000000000000000000000000000000000008000000000000000000000000000000000000000000000000000000000000000a00000000000000000000000006bded42c6da8fbf0d2ba55b2fa120c5e0c8d7891000000000000000000000000000000000000000000000000000000000000004000000000000000000000000000000000000000000000000000000000000000020000000000000000000000000d97f261b1e88845184f678e2d1e7a98d9fd38de0000000000000000000000004200000000000000000000000000000000000006000000000000000000000000000000244165726f64726f6d6500000000000000000000000000000000000000000000000000000000004bba2be36db57aaf148d0000000000000000000000000000000000000000000000000067b4e8def2cb35000000000000000000000000000000000000000000000000000000000000008000000000000000000000000000000000000000000000000000000000000000e0000000000000000000000000cf77a3ba9a5ca399b7c97c74d54e5b1beb874e43000000000000000000000000000000000000000000000000000000000000004000000000000000000000000000000000000000000000000000000000000000010000000000000000000000000d97f261b1e88845184f678e2d1e7a98d9fd38de00000000000000000000000042000000000000000000000000000000000000060000000000000000000000000000000000000000000000000000000000000000000000000000000000000000420dd381b31aef6683db6b902084cb0ffece40da00000000000000000000000000000012556e69737761705633000000000000000000000000000000000000000000000000000000000020745bf3c14dc775e874000000000000000000000000000000000000000000000000002c721512813292000000000000000000000000000000000000000000000000000000000000008000000000000000000000000000000000000000000000000000000000000000c00000000000000000000000002626664c2603336e57b271c5c0b26f421741e48100000000000000000000000000000000000000000000000000000000000000600000000000000000000000000000000000000000000000000000000000000002000000000000000000000000000000000000000000000000000000000000002b0d97f261b1e88845184f678e2d1e7a98d9fd38de0027104200000000000000000000000000000000000006000000000000000000000000000000000000000000000000000000000000000000000000000000000000000000000000000000000300000000000000000000000000000000000000000000000000000000000000000000000000000000000000000000000000000000000000000000000000000000000000000000000000000000000000000000000000000000000000000000000000000000000000000000000000000000000000000000000000000000000000000000000000000000000000000000000000000000000000000000000000000005000000000000000000000000000000000000000000000000000000000000004000000000000000000000000000000000000000000000000000000000000000400000000000000000000000004200000000000000000000000000000000000006ffffffffffffffffffffffffffffffffffffffffffffffffffffffffffffffff000000000000000000000000000000000000000000000000000000000000000400000000000000000000000000000000000000000000000000000000000000400000000000000000000000000000000000000000000000000000000000000060000000000000000000000000eeeeeeeeeeeeeeeeeeeeeeeeeeeeeeeeeeeeeeee000000000000000000000000000000000000000000000000025d1c26288ef4c30000000000000000000000001bbe055ad3204fa4468b4e6d3a3c59b9d9ac8c190000000000000000000000000000000000000000000000000000000000000002000000000000000000000000000000000000000000000000000000000000004000000000000000000000000000000000000000000000000000000000000000c000000000000000000000000000000000000000000000000000000000000000200000000000000000000000000000000000000000000000000000000000000040000000000000000000000000000000000000000000000000000000000000008000000000000000000000000000000000000000000000000000000000000000010000000000000000000000000d97f261b1e88845184f678e2d1e7a98d9fd38de0000000000000000000000000000000000000000000000000000000000000000869584cd000000000000000000000000100000000000000000000000000000000000001100000000000000000000000000000000d8ab0d1f5ba133163cbc2ab108fb5c41000000000000000000000000000000000000000000000000d7e44d53","is_pending_update":false,"op_withdrawals":[],"result":"success","hash":"0x1dadb9930dfd8732fe2281435fabf3b32d0a1317b02c4484153e3c9c8e5aa5ce","max_fee_per_gas":"100325","revert_reason":null,"confirmation_duration":[0,2.0e3],"transaction_burnt_fee":"156735946","type":2,"token_transfers_overflow":false,"confirmations":31834358,"position":6,"max_priority_fee_per_gas":"100000","transaction_tag":null,"created_contract":null,"value":"0","l1_fee_scalar":"0.684","from":{"ens_domain_name":"dfern.eth","hash":"0xA01f6D0985389a8E106D3158A9441aC21EAC8D8c","implementations":[],"is_contract":false,"is_scam":false,"is_verified":false,"metadata":{"tags":[{"meta":{"bgColor":"#8465CB","tagIcon":"data:image/svg+xml;utf8,%3Csvg%20xmlns%3D%22http%3A%2F%2Fwww.w3.org%2F2000%2Fsvg%22%20xmlns%3Axlink%3D%22http%3A%2F%2Fwww.w3.org%2F1999%2Fxlink%22%20viewBox%3D%220%200%2032%2029%22%3E%3Cpath%20d%3D%22M%205.507%200.072%20L%2026.097%200.072%20L%2026.097%204.167%20L%2031.952%204.167%20L%2030.725%208.263%20L%2029.686%208.263%20L%2029.686%2024.833%20C%2030.207%2024.833%2030.63%2025.249%2030.63%2025.763%20L%2030.63%2026.88%20L%2030.819%2026.88%20C%2031.341%2026.88%2031.764%2027.297%2031.764%2027.811%20L%2031.764%2028.928%20L%2021.185%2028.928%20L%2021.185%2027.811%20C%2021.185%2027.297%2021.608%2026.88%2022.13%2026.88%20L%2022.319%2026.88%20L%2022.319%2025.763%20C%2022.319%2025.316%2022.639%2024.943%2023.065%2024.853%20L%2023.045%2015.71%20C%2022.711%2012.057%2019.596%209.194%2015.802%209.194%20C%2012.008%209.194%208.893%2012.057%208.559%2015.71%20L%208.539%2024.845%20C%209.043%2024.919%209.663%2025.302%209.663%2025.763%20L%209.663%2026.88%20L%209.852%2026.88%20C%2010.373%2026.88%2010.796%2027.297%2010.796%2027.811%20L%2010.796%2028.928%20L%200.218%2028.928%20L%200.218%2027.811%20C%200.218%2027.297%200.641%2026.88%201.162%2026.88%20L%201.351%2026.88%20L%201.351%2025.763%20C%201.351%2025.249%201.774%2024.833%202.296%2024.833%20L%202.296%208.263%20L%201.257%208.263%20L%200.029%204.167%20L%205.507%204.167%20L%205.507%200.072%20Z%22%20fill%3D%22rgb(255%2C%20255%2C%20255)%22%3E%3C%2Fpath%3E%3Cpath%20d%3D%22M%2026.097%200.072%20L%2026.166%200.072%20L%2026.166%200.004%20L%2026.097%200.004%20Z%20M%205.507%200.072%20L%205.507%200.004%20L%205.438%200.004%20L%205.438%200.072%20Z%20M%2026.097%204.167%20L%2026.028%204.167%20L%2026.028%204.235%20L%2026.097%204.235%20Z%20M%2031.952%204.167%20L%2032.019%204.187%20L%2032.045%204.099%20L%2031.952%204.099%20L%2031.952%204.167%20Z%20M%2030.725%208.263%20L%2030.725%208.331%20L%2030.776%208.331%20L%2030.791%208.282%20Z%20M%2029.686%208.263%20L%2029.686%208.195%20L%2029.617%208.195%20L%2029.617%208.263%20Z%20M%2029.686%2024.833%20L%2029.617%2024.833%20L%2029.617%2024.901%20L%2029.686%2024.901%20Z%20M%2030.63%2026.88%20L%2030.561%2026.88%20L%2030.561%2026.948%20L%2030.63%2026.948%20Z%20M%2031.764%2028.928%20L%2031.764%2028.996%20L%2031.832%2028.996%20L%2031.832%2028.928%20Z%20M%2021.185%2028.928%20L%2021.116%2028.928%20L%2021.116%2028.996%20L%2021.185%2028.996%20Z%20M%2022.319%2026.88%20L%2022.319%2026.948%20L%2022.388%2026.948%20L%2022.388%2026.88%20Z%20M%2023.065%2024.853%20L%2023.08%2024.919%20L%2023.134%2024.908%20L%2023.134%2024.853%20Z%20M%2023.045%2015.71%20L%2023.114%2015.71%20L%2023.114%2015.707%20L%2023.113%2015.704%20Z%20M%208.559%2015.71%20L%208.49%2015.704%20L%208.49%2015.707%20L%208.49%2015.71%20Z%20M%208.539%2024.845%20L%208.47%2024.845%20L%208.469%2024.904%20L%208.528%2024.913%20Z%20M%209.663%2026.88%20L%209.594%2026.88%20L%209.594%2026.948%20L%209.663%2026.948%20Z%20M%2010.796%2028.928%20L%2010.796%2028.996%20L%2010.865%2028.996%20L%2010.865%2028.928%20Z%20M%200.218%2028.928%20L%200.149%2028.928%20L%200.149%2028.996%20L%200.218%2028.996%20Z%20M%201.351%2026.88%20L%201.351%2026.948%20L%201.42%2026.948%20L%201.42%2026.88%20Z%20M%202.296%2024.833%20L%202.296%2024.901%20L%202.365%2024.901%20L%202.365%2024.833%20Z%20M%202.296%208.263%20L%202.365%208.263%20L%202.365%208.195%20L%202.296%208.195%20Z%20M%201.257%208.263%20L%201.191%208.282%20L%201.205%208.331%20L%201.257%208.331%20Z%20M%200.029%204.167%20L%200.029%204.1%20L%20-0.063%204.1%20L%20-0.037%204.187%20L%200.029%204.167%20Z%20M%205.507%204.167%20L%205.507%204.235%20L%205.576%204.235%20L%205.576%204.167%20Z%20M%2026.097%200.004%20L%205.507%200.004%20L%205.507%200.139%20L%2026.097%200.139%20Z%20M%2026.166%204.167%20L%2026.166%200.072%20L%2026.028%200.072%20L%2026.028%204.167%20L%2026.166%204.167%20Z%20M%2031.952%204.099%20L%2026.097%204.099%20L%2026.097%204.235%20L%2031.952%204.235%20Z%20M%2030.791%208.282%20L%2032.019%204.187%20L%2031.886%204.148%20L%2030.658%208.244%20Z%20M%2029.686%208.331%20L%2030.725%208.331%20L%2030.725%208.195%20L%2029.686%208.195%20Z%20M%2029.755%2024.833%20L%2029.755%208.263%20L%2029.617%208.263%20L%2029.617%2024.833%20Z%20M%2030.699%2025.763%20C%2030.699%2025.212%2030.245%2024.765%2029.686%2024.765%20L%2029.686%2024.9%20C%2030.169%2024.9%2030.561%2025.287%2030.561%2025.763%20Z%20M%2030.699%2026.88%20L%2030.699%2025.763%20L%2030.561%2025.763%20L%2030.561%2026.88%20Z%20M%2030.819%2026.813%20L%2030.63%2026.813%20L%2030.63%2026.948%20L%2030.819%2026.948%20Z%20M%2031.832%2027.811%20C%2031.832%2027.26%2031.379%2026.813%2030.819%2026.813%20L%2030.819%2026.948%20C%2031.303%2026.948%2031.695%2027.335%2031.695%2027.811%20Z%20M%2031.832%2028.928%20L%2031.832%2027.811%20L%2031.695%2027.811%20L%2031.695%2028.928%20Z%20M%2026.097%2028.996%20L%2031.764%2028.996%20L%2031.764%2028.86%20L%2026.097%2028.86%20Z%20M%2023.074%2028.996%20L%2026.097%2028.996%20L%2026.097%2028.86%20L%2023.074%2028.86%20Z%20M%2021.185%2028.996%20L%2023.074%2028.996%20L%2023.074%2028.86%20L%2021.185%2028.86%20Z%20M%2021.116%2027.811%20L%2021.116%2028.928%20L%2021.254%2028.928%20L%2021.254%2027.811%20Z%20M%2022.13%2026.813%20C%2021.57%2026.813%2021.116%2027.26%2021.116%2027.811%20L%2021.254%2027.811%20C%2021.254%2027.335%2021.646%2026.948%2022.13%2026.948%20Z%20M%2022.319%2026.813%20L%2022.13%2026.813%20L%2022.13%2026.948%20L%2022.319%2026.948%20Z%20M%2022.25%2025.763%20L%2022.25%2026.88%20L%2022.388%2026.88%20L%2022.388%2025.763%20Z%20M%2023.051%2024.787%20C%2022.593%2024.883%2022.25%2025.284%2022.25%2025.763%20L%2022.388%2025.763%20C%2022.388%2025.349%2022.684%2025.003%2023.08%2024.919%20Z%20M%2022.976%2015.71%20L%2022.996%2024.853%20L%2023.134%2024.853%20L%2023.114%2015.71%20Z%20M%2015.802%209.262%20C%2019.559%209.262%2022.645%2012.098%2022.976%2015.716%20L%2023.113%2015.704%20C%2022.776%2012.016%2019.632%209.126%2015.802%209.126%20Z%20M%208.628%2015.716%20C%208.959%2012.098%2012.044%209.262%2015.802%209.262%20L%2015.802%209.126%20C%2011.972%209.126%208.828%2012.016%208.49%2015.704%20Z%20M%208.608%2024.845%20L%208.628%2015.71%20L%208.49%2015.71%20L%208.47%2024.845%20Z%20M%209.732%2025.763%20C%209.732%2025.502%209.557%2025.273%209.331%2025.105%20C%209.104%2024.935%208.812%2024.817%208.549%2024.778%20L%208.528%2024.912%20C%208.769%2024.948%209.039%2025.057%209.248%2025.213%20C%209.459%2025.37%209.594%2025.563%209.594%2025.763%20Z%20M%209.732%2026.88%20L%209.732%2025.763%20L%209.594%2025.763%20L%209.594%2026.88%20Z%20M%209.852%2026.813%20L%209.663%2026.813%20L%209.663%2026.948%20L%209.852%2026.948%20Z%20M%2010.865%2027.811%20C%2010.865%2027.26%2010.411%2026.813%209.852%2026.813%20L%209.852%2026.948%20C%2010.335%2026.948%2010.727%2027.335%2010.727%2027.811%20Z%20M%2010.865%2028.928%20L%2010.865%2027.811%20L%2010.727%2027.811%20L%2010.727%2028.928%20Z%20M%208.529%2028.996%20L%2010.796%2028.996%20L%2010.796%2028.86%20L%208.529%2028.86%20Z%20M%208.372%2028.996%20L%208.529%2028.996%20L%208.529%2028.86%20L%208.372%2028.86%20Z%20M%205.507%2028.996%20L%208.372%2028.996%20L%208.372%2028.86%20L%205.507%2028.86%20Z%20M%200.218%2028.996%20L%205.507%2028.996%20L%205.507%2028.86%20L%200.218%2028.86%20Z%20M%200.149%2027.811%20L%200.149%2028.928%20L%200.287%2028.928%20L%200.287%2027.811%20Z%20M%201.162%2026.813%20C%200.603%2026.813%200.149%2027.26%200.149%2027.811%20L%200.287%2027.811%20C%200.287%2027.335%200.679%2026.948%201.162%2026.948%20Z%20M%201.351%2026.813%20L%201.162%2026.813%20L%201.162%2026.948%20L%201.351%2026.948%20Z%20M%201.282%2025.763%20L%201.282%2026.88%20L%201.42%2026.88%20L%201.42%2025.763%20Z%20M%202.296%2024.765%20C%201.736%2024.765%201.282%2025.212%201.282%2025.763%20L%201.42%2025.763%20C%201.42%2025.287%201.812%2024.9%202.296%2024.9%20Z%20M%202.227%208.263%20L%202.227%2024.833%20L%202.365%2024.833%20L%202.365%208.263%20Z%20M%201.257%208.331%20L%202.296%208.331%20L%202.296%208.195%20L%201.257%208.195%20Z%20M%20-0.037%204.187%20L%201.191%208.282%20L%201.323%208.244%20L%200.095%204.148%20Z%20M%205.507%204.099%20L%200.029%204.099%20L%200.029%204.235%20L%205.507%204.235%20L%205.507%204.099%20Z%20M%205.438%200.072%20L%205.438%204.167%20L%205.576%204.167%20L%205.576%200.072%20Z%22%20fill%3D%22rgb(255%2C255%2C255)%22%3E%3C%2Fpath%3E%3C%2Fsvg%3E","textColor":"#FFFFFF","tooltipDescription":"This
        address is linked to a Farcaster account","warpcastHandle":"dfern.eth"},"name":"Farcaster","ordinal":0,"slug":"warpcast-account","tagType":"classifier"}]},"name":null,"private_tags":[],"proxy_type":null,"public_tags":[],"reputation":"ok","watchlist_names":[]},"gas_used":"572029","status":"ok","to":{"ens_domain_name":null,"hash":"0x00000000009726632680FB29d3F7A9734E3010E2","implementations":[],"is_contract":true,"is_scam":false,"is_verified":true,"metadata":{"tags":[{"meta":{"projectName":"Rainbow","tagIcon
        ":"https://blockscout-icons.s3.us-east-1.amazonaws.com/OLI_tag_logo.svg","tagUrl":"https://app.klerosscout.eth.limo/#/?registry=Single_Tags&itemdetails=0x6be6a53e0f45c553b501f5f33fc0bb5f0a3dd83a0d2299cfc454c9224da8782e@0x66260c69d03837016d88c9877e61e08ef74c59f2","textColor":"#C163D4","tooltipAttribution":"https://www.openlabelsinitiative.org?utm_source=blockscout","tooltipAttributionIcon":"https://blockscout-icons.s3.us-east-1.amazonaws.com/OLI_tag_logo.svg","tooltipDescription":"Rainbow''s
        official Rainbow Router contract on Base","tooltipUrl":"https://rainbow.me/"},"name":"Rainbow:
        Router","ordinal":10,"slug":"rainbow-router","tagType":"name"},{"meta":{},"name":"Wallet
        App","ordinal":0,"slug":"wallet-app","tagType":"generic"},{"meta":{},"name":"Router","ordinal":0,"slug":"router","tagType":"generic"},{"meta":{"alertStatus":"info","data":"This
        nametag was submitted by Kleros Scout."},"name":"note_0","ordinal":0,"slug":"note0","tagType":"note"},{"meta":{"appActionButtonText":"Rainbow","appID":"rainbow"},"name":"Rainbow","ordinal":0,"slug":"rainbow","tagType":"protocol"}]},"name":"RainbowRouter","private_tags":[],"proxy_type":null,"public_tags":[],"reputation":"ok","watchlist_names":[]},"authorization_list":[],"l1_fee":"764652959209376","method":"fillQuoteTokenToEth","fee":{"type":"actual","value":null},"actions":[{"data":{"address0":"0x0d97F261b1e88845184f678e2d1e7a98D9FD38dE","address1":"0x4200000000000000000000000000000000000006","amount0":"153262.175616395549993074","amount1":"0.012765646740413796","symbol0":"TYBG","symbol1":"WETH"},"protocol":"uniswap_v3","type":"swap"}],"gas_limit":"726309","gas_price":"100274","decoded_input":{"method_call":"fillQuoteTokenToEth(address
        sellTokenAddress, address target, bytes swapCallData, uint256 sellAmount,
        uint256 feePercentageBasisPoints)","method_id":"999b6464","parameters":[{"name":"sellTokenAddress","type":"address","value":"0x0d97F261b1e88845184f678e2d1e7a98D9FD38dE"},{"name":"target","type":"address","value":"0xDef1C0ded9bec7F1a1670819833240f027b25EfF"},{"name":"swapCallData","type":"bytes","value":"0x415565b00000000000000000000000000d97f261b1e88845184f678e2d1e7a98d9fd38de000000000000000000000000eeeeeeeeeeeeeeeeeeeeeeeeeeeeeeeeeeeeeeee00000000000000000000000000000000000000000001b0ba1f5cbc0cfade6e7e000000000000000000000000000000000000000000000000025101f58586e50200000000000000000000000000000000000000000000000000000000000000a0000000000000000000000000000000000000000000000000000000000000000400000000000000000000000000000000000000000000000000000000000000800000000000000000000000000000000000000000000000000000000000000780000000000000000000000000000000000000000000000000000000000000082000000000000000000000000000000000000000000000000000000000000008e00000000000000000000000000000000000000000000000000000000000000008000000000000000000000000000000000000000000000000000000000000004000000000000000000000000000000000000000000000000000000000000006a0000000000000000000000000000000000000000000000000000000000000002000000000000000000000000000000000000000000000000000000000000000000000000000000000000000000d97f261b1e88845184f678e2d1e7a98d9fd38de000000000000000000000000420000000000000000000000000000000000000600000000000000000000000000000000000000000000000000000000000001400000000000000000000000000000000000000000000000000000000000000660000000000000000000000000000000000000000000000000000000000000066000000000000000000000000000000000000000000000000000000000000005e000000000000000000000000000000000000000000001b0ba1f5cbc0cfade6e7e000000000000000000000000000000000000000000000000000000000000000000000000000000000000000000000000000000000000000000000000000006600000000000000000000000000000000000000000000000000000000000000003000000000000000000000000000000000000000000000000000000000000006000000000000000000000000000000000000000000000000000000000000001a00000000000000000000000000000000000000000000000000000000000000320000000000000000000000000000000025375736869537761700000000000000000000000000000000000000000000000000000000001448b97858d09b8b9717f00000000000000000000000000000000000000000000000001bcdaf79412e73b000000000000000000000000000000000000000000000000000000000000008000000000000000000000000000000000000000000000000000000000000000a00000000000000000000000006bded42c6da8fbf0d2ba55b2fa120c5e0c8d7891000000000000000000000000000000000000000000000000000000000000004000000000000000000000000000000000000000000000000000000000000000020000000000000000000000000d97f261b1e88845184f678e2d1e7a98d9fd38de0000000000000000000000004200000000000000000000000000000000000006000000000000000000000000000000244165726f64726f6d6500000000000000000000000000000000000000000000000000000000004bba2be36db57aaf148d0000000000000000000000000000000000000000000000000067b4e8def2cb35000000000000000000000000000000000000000000000000000000000000008000000000000000000000000000000000000000000000000000000000000000e0000000000000000000000000cf77a3ba9a5ca399b7c97c74d54e5b1beb874e43000000000000000000000000000000000000000000000000000000000000004000000000000000000000000000000000000000000000000000000000000000010000000000000000000000000d97f261b1e88845184f678e2d1e7a98d9fd38de00000000000000000000000042000000000000000000000000000000000000060000000000000000000000000000000000000000000000000000000000000000000000000000000000000000420dd381b31aef6683db6b902084cb0ffece40da00000000000000000000000000000012556e69737761705633000000000000000000000000000000000000000000000000000000000020745bf3c14dc775e874000000000000000000000000000000000000000000000000002c721512813292000000000000000000000000000000000000000000000000000000000000008000000000000000000000000000000000000000000000000000000000000000c00000000000000000000000002626664c2603336e57b271c5c0b26f421741e48100000000000000000000000000000000000000000000000000000000000000600000000000000000000000000000000000000000000000000000000000000002000000000000000000000000000000000000000000000000000000000000002b0d97f261b1e88845184f678e2d1e7a98d9fd38de0027104200000000000000000000000000000000000006000000000000000000000000000000000000000000000000000000000000000000000000000000000000000000000000000000000300000000000000000000000000000000000000000000000000000000000000000000000000000000000000000000000000000000000000000000000000000000000000000000000000000000000000000000000000000000000000000000000000000000000000000000000000000000000000000000000000000000000000000000000000000000000000000000000000000000000000000000000000000005000000000000000000000000000000000000000000000000000000000000004000000000000000000000000000000000000000000000000000000000000000400000000000000000000000004200000000000000000000000000000000000006ffffffffffffffffffffffffffffffffffffffffffffffffffffffffffffffff000000000000000000000000000000000000000000000000000000000000000400000000000000000000000000000000000000000000000000000000000000400000000000000000000000000000000000000000000000000000000000000060000000000000000000000000eeeeeeeeeeeeeeeeeeeeeeeeeeeeeeeeeeeeeeee000000000000000000000000000000000000000000000000025d1c26288ef4c30000000000000000000000001bbe055ad3204fa4468b4e6d3a3c59b9d9ac8c190000000000000000000000000000000000000000000000000000000000000002000000000000000000000000000000000000000000000000000000000000004000000000000000000000000000000000000000000000000000000000000000c000000000000000000000000000000000000000000000000000000000000000200000000000000000000000000000000000000000000000000000000000000040000000000000000000000000000000000000000000000000000000000000008000000000000000000000000000000000000000000000000000000000000000010000000000000000000000000d97f261b1e88845184f678e2d1e7a98d9fd38de0000000000000000000000000000000000000000000000000000000000000000869584cd000000000000000000000000100000000000000000000000000000000000001100000000000000000000000000000000d8ab0d1f5ba133163cbc2ab108fb5c41"},{"name":"sellAmount","type":"uint256","value":"2043495674885273676574334"},{"name":"feePercentageBasisPoints","type":"uint256","value":"8500000000000000"}]},"l1_gas_price":"53163100773","token_transfers":[{"block_hash":"0x482129bba8b734c012f0d0ab00726f491209f2957090e2c44e0fc7559fbc4d7b","block_number":11621421,"from":{"ens_domain_name":"dfern.eth","hash":"0xA01f6D0985389a8E106D3158A9441aC21EAC8D8c","implementations":[],"is_contract":false,"is_scam":false,"is_verified":false,"metadata":{"tags":[{"meta":{"bgColor":"#8465CB","tagIcon":"data:image/svg+xml;utf8,%3Csvg%20xmlns%3D%22http%3A%2F%2Fwww.w3.org%2F2000%2Fsvg%22%20xmlns%3Axlink%3D%22http%3A%2F%2Fwww.w3.org%2F1999%2Fxlink%22%20viewBox%3D%220%200%2032%2029%22%3E%3Cpath%20d%3D%22M%205.507%200.072%20L%2026.097%200.072%20L%2026.097%204.167%20L%2031.952%204.167%20L%2030.725%208.263%20L%2029.686%208.263%20L%2029.686%2024.833%20C%2030.207%2024.833%2030.63%2025.249%2030.63%2025.763%20L%2030.63%2026.88%20L%2030.819%2026.88%20C%2031.341%2026.88%2031.764%2027.297%2031.764%2027.811%20L%2031.764%2028.928%20L%2021.185%2028.928%20L%2021.185%2027.811%20C%2021.185%2027.297%2021.608%2026.88%2022.13%2026.88%20L%2022.319%2026.88%20L%2022.319%2025.763%20C%2022.319%2025.316%2022.639%2024.943%2023.065%2024.853%20L%2023.045%2015.71%20C%2022.711%2012.057%2019.596%209.194%2015.802%209.194%20C%2012.008%209.194%208.893%2012.057%208.559%2015.71%20L%208.539%2024.845%20C%209.043%2024.919%209.663%2025.302%209.663%2025.763%20L%209.663%2026.88%20L%209.852%2026.88%20C%2010.373%2026.88%2010.796%2027.297%2010.796%2027.811%20L%2010.796%2028.928%20L%200.218%2028.928%20L%200.218%2027.811%20C%200.218%2027.297%200.641%2026.88%201.162%2026.88%20L%201.351%2026.88%20L%201.351%2025.763%20C%201.351%2025.249%201.774%2024.833%202.296%2024.833%20L%202.296%208.263%20L%201.257%208.263%20L%200.029%204.167%20L%205.507%204.167%20L%205.507%200.072%20Z%22%20fill%3D%22rgb(255%2C%20255%2C%20255)%22%3E%3C%2Fpath%3E%3Cpath%20d%3D%22M%2026.097%200.072%20L%2026.166%200.072%20L%2026.166%200.004%20L%2026.097%200.004%20Z%20M%205.507%200.072%20L%205.507%200.004%20L%205.438%200.004%20L%205.438%200.072%20Z%20M%2026.097%204.167%20L%2026.028%204.167%20L%2026.028%204.235%20L%2026.097%204.235%20Z%20M%2031.952%204.167%20L%2032.019%204.187%20L%2032.045%204.099%20L%2031.952%204.099%20L%2031.952%204.167%20Z%20M%2030.725%208.263%20L%2030.725%208.331%20L%2030.776%208.331%20L%2030.791%208.282%20Z%20M%2029.686%208.263%20L%2029.686%208.195%20L%2029.617%208.195%20L%2029.617%208.263%20Z%20M%2029.686%2024.833%20L%2029.617%2024.833%20L%2029.617%2024.901%20L%2029.686%2024.901%20Z%20M%2030.63%2026.88%20L%2030.561%2026.88%20L%2030.561%2026.948%20L%2030.63%2026.948%20Z%20M%2031.764%2028.928%20L%2031.764%2028.996%20L%2031.832%2028.996%20L%2031.832%2028.928%20Z%20M%2021.185%2028.928%20L%2021.116%2028.928%20L%2021.116%2028.996%20L%2021.185%2028.996%20Z%20M%2022.319%2026.88%20L%2022.319%2026.948%20L%2022.388%2026.948%20L%2022.388%2026.88%20Z%20M%2023.065%2024.853%20L%2023.08%2024.919%20L%2023.134%2024.908%20L%2023.134%2024.853%20Z%20M%2023.045%2015.71%20L%2023.114%2015.71%20L%2023.114%2015.707%20L%2023.113%2015.704%20Z%20M%208.559%2015.71%20L%208.49%2015.704%20L%208.49%2015.707%20L%208.49%2015.71%20Z%20M%208.539%2024.845%20L%208.47%2024.845%20L%208.469%2024.904%20L%208.528%2024.913%20Z%20M%209.663%2026.88%20L%209.594%2026.88%20L%209.594%2026.948%20L%209.663%2026.948%20Z%20M%2010.796%2028.928%20L%2010.796%2028.996%20L%2010.865%2028.996%20L%2010.865%2028.928%20Z%20M%200.218%2028.928%20L%200.149%2028.928%20L%200.149%2028.996%20L%200.218%2028.996%20Z%20M%201.351%2026.88%20L%201.351%2026.948%20L%201.42%2026.948%20L%201.42%2026.88%20Z%20M%202.296%2024.833%20L%202.296%2024.901%20L%202.365%2024.901%20L%202.365%2024.833%20Z%20M%202.296%208.263%20L%202.365%208.263%20L%202.365%208.195%20L%202.296%208.195%20Z%20M%201.257%208.263%20L%201.191%208.282%20L%201.205%208.331%20L%201.257%208.331%20Z%20M%200.029%204.167%20L%200.029%204.1%20L%20-0.063%204.1%20L%20-0.037%204.187%20L%200.029%204.167%20Z%20M%205.507%204.167%20L%205.507%204.235%20L%205.576%204.235%20L%205.576%204.167%20Z%20M%2026.097%200.004%20L%205.507%200.004%20L%205.507%200.139%20L%2026.097%200.139%20Z%20M%2026.166%204.167%20L%2026.166%200.072%20L%2026.028%200.072%20L%2026.028%204.167%20L%2026.166%204.167%20Z%20M%2031.952%204.099%20L%2026.097%204.099%20L%2026.097%204.235%20L%2031.952%204.235%20Z%20M%2030.791%208.282%20L%2032.019%204.187%20L%2031.886%204.148%20L%2030.658%208.244%20Z%20M%2029.686%208.331%20L%2030.725%208.331%20L%2030.725%208.195%20L%2029.686%208.195%20Z%20M%2029.755%2024.833%20L%2029.755%208.263%20L%2029.617%208.263%20L%2029.617%2024.833%20Z%20M%2030.699%2025.763%20C%2030.699%2025.212%2030.245%2024.765%2029.686%2024.765%20L%2029.686%2024.9%20C%2030.169%2024.9%2030.561%2025.287%2030.561%2025.763%20Z%20M%2030.699%2026.88%20L%2030.699%2025.763%20L%2030.561%2025.763%20L%2030.561%2026.88%20Z%20M%2030.819%2026.813%20L%2030.63%2026.813%20L%2030.63%2026.948%20L%2030.819%2026.948%20Z%20M%2031.832%2027.811%20C%2031.832%2027.26%2031.379%2026.813%2030.819%2026.813%20L%2030.819%2026.948%20C%2031.303%2026.948%2031.695%2027.335%2031.695%2027.811%20Z%20M%2031.832%2028.928%20L%2031.832%2027.811%20L%2031.695%2027.811%20L%2031.695%2028.928%20Z%20M%2026.097%2028.996%20L%2031.764%2028.996%20L%2031.764%2028.86%20L%2026.097%2028.86%20Z%20M%2023.074%2028.996%20L%2026.097%2028.996%20L%2026.097%2028.86%20L%2023.074%2028.86%20Z%20M%2021.185%2028.996%20L%2023.074%2028.996%20L%2023.074%2028.86%20L%2021.185%2028.86%20Z%20M%2021.116%2027.811%20L%2021.116%2028.928%20L%2021.254%2028.928%20L%2021.254%2027.811%20Z%20M%2022.13%2026.813%20C%2021.57%2026.813%2021.116%2027.26%2021.116%2027.811%20L%2021.254%2027.811%20C%2021.254%2027.335%2021.646%2026.948%2022.13%2026.948%20Z%20M%2022.319%2026.813%20L%2022.13%2026.813%20L%2022.13%2026.948%20L%2022.319%2026.948%20Z%20M%2022.25%2025.763%20L%2022.25%2026.88%20L%2022.388%2026.88%20L%2022.388%2025.763%20Z%20M%2023.051%2024.787%20C%2022.593%2024.883%2022.25%2025.284%2022.25%2025.763%20L%2022.388%2025.763%20C%2022.388%2025.349%2022.684%2025.003%2023.08%2024.919%20Z%20M%2022.976%2015.71%20L%2022.996%2024.853%20L%2023.134%2024.853%20L%2023.114%2015.71%20Z%20M%2015.802%209.262%20C%2019.559%209.262%2022.645%2012.098%2022.976%2015.716%20L%2023.113%2015.704%20C%2022.776%2012.016%2019.632%209.126%2015.802%209.126%20Z%20M%208.628%2015.716%20C%208.959%2012.098%2012.044%209.262%2015.802%209.262%20L%2015.802%209.126%20C%2011.972%209.126%208.828%2012.016%208.49%2015.704%20Z%20M%208.608%2024.845%20L%208.628%2015.71%20L%208.49%2015.71%20L%208.47%2024.845%20Z%20M%209.732%2025.763%20C%209.732%2025.502%209.557%2025.273%209.331%2025.105%20C%209.104%2024.935%208.812%2024.817%208.549%2024.778%20L%208.528%2024.912%20C%208.769%2024.948%209.039%2025.057%209.248%2025.213%20C%209.459%2025.37%209.594%2025.563%209.594%2025.763%20Z%20M%209.732%2026.88%20L%209.732%2025.763%20L%209.594%2025.763%20L%209.594%2026.88%20Z%20M%209.852%2026.813%20L%209.663%2026.813%20L%209.663%2026.948%20L%209.852%2026.948%20Z%20M%2010.865%2027.811%20C%2010.865%2027.26%2010.411%2026.813%209.852%2026.813%20L%209.852%2026.948%20C%2010.335%2026.948%2010.727%2027.335%2010.727%2027.811%20Z%20M%2010.865%2028.928%20L%2010.865%2027.811%20L%2010.727%2027.811%20L%2010.727%2028.928%20Z%20M%208.529%2028.996%20L%2010.796%2028.996%20L%2010.796%2028.86%20L%208.529%2028.86%20Z%20M%208.372%2028.996%20L%208.529%2028.996%20L%208.529%2028.86%20L%208.372%2028.86%20Z%20M%205.507%2028.996%20L%208.372%2028.996%20L%208.372%2028.86%20L%205.507%2028.86%20Z%20M%200.218%2028.996%20L%205.507%2028.996%20L%205.507%2028.86%20L%200.218%2028.86%20Z%20M%200.149%2027.811%20L%200.149%2028.928%20L%200.287%2028.928%20L%200.287%2027.811%20Z%20M%201.162%2026.813%20C%200.603%2026.813%200.149%2027.26%200.149%2027.811%20L%200.287%2027.811%20C%200.287%2027.335%200.679%2026.948%201.162%2026.948%20Z%20M%201.351%2026.813%20L%201.162%2026.813%20L%201.162%2026.948%20L%201.351%2026.948%20Z%20M%201.282%2025.763%20L%201.282%2026.88%20L%201.42%2026.88%20L%201.42%2025.763%20Z%20M%202.296%2024.765%20C%201.736%2024.765%201.282%2025.212%201.282%2025.763%20L%201.42%2025.763%20C%201.42%2025.287%201.812%2024.9%202.296%2024.9%20Z%20M%202.227%208.263%20L%202.227%2024.833%20L%202.365%2024.833%20L%202.365%208.263%20Z%20M%201.257%208.331%20L%202.296%208.331%20L%202.296%208.195%20L%201.257%208.195%20Z%20M%20-0.037%204.187%20L%201.191%208.282%20L%201.323%208.244%20L%200.095%204.148%20Z%20M%205.507%204.099%20L%200.029%204.099%20L%200.029%204.235%20L%205.507%204.235%20L%205.507%204.099%20Z%20M%205.438%200.072%20L%205.438%204.167%20L%205.576%204.167%20L%205.576%200.072%20Z%22%20fill%3D%22rgb(255%2C255%2C255)%22%3E%3C%2Fpath%3E%3C%2Fsvg%3E","textColor":"#FFFFFF","tooltipDescription":"This
        address is linked to a Farcaster account","warpcastHandle":"dfern.eth"},"name":"Farcaster","ordinal":0,"slug":"warpcast-account","tagType":"classifier"}]},"name":null,"private_tags":[],"proxy_type":null,"public_tags":[],"reputation":"ok","watchlist_names":[]},"log_index":16,"method":null,"timestamp":null,"to":{"ens_domain_name":null,"hash":"0x00000000009726632680FB29d3F7A9734E3010E2","implementations":[],"is_contract":true,"is_scam":false,"is_verified":true,"metadata":{"tags":[{"meta":{"projectName":"Rainbow","tagIcon
        ":"https://blockscout-icons.s3.us-east-1.amazonaws.com/OLI_tag_logo.svg","tagUrl":"https://app.klerosscout.eth.limo/#/?registry=Single_Tags&itemdetails=0x6be6a53e0f45c553b501f5f33fc0bb5f0a3dd83a0d2299cfc454c9224da8782e@0x66260c69d03837016d88c9877e61e08ef74c59f2","textColor":"#C163D4","tooltipAttribution":"https://www.openlabelsinitiative.org?utm_source=blockscout","tooltipAttributionIcon":"https://blockscout-icons.s3.us-east-1.amazonaws.com/OLI_tag_logo.svg","tooltipDescription":"Rainbow''s
        official Rainbow Router contract on Base","tooltipUrl":"https://rainbow.me/"},"name":"Rainbow:
        Router","ordinal":10,"slug":"rainbow-router","tagType":"name"},{"meta":{},"name":"Wallet
        App","ordinal":0,"slug":"wallet-app","tagType":"generic"},{"meta":{},"name":"Router","ordinal":0,"slug":"router","tagType":"generic"},{"meta":{"alertStatus":"info","data":"This
        nametag was submitted by Kleros Scout."},"name":"note_0","ordinal":0,"slug":"note0","tagType":"note"},{"meta":{"appActionButtonText":"Rainbow","appID":"rainbow"},"name":"Rainbow","ordinal":0,"slug":"rainbow","tagType":"protocol"}]},"name":"RainbowRouter","private_tags":[],"proxy_type":null,"public_tags":[],"reputation":"ok","watchlist_names":[]},"token":{"address_hash":"0x0d97F261b1e88845184f678e2d1e7a98D9FD38dE","circulating_market_cap":"1838255.7025274306","decimals":"18","exchange_rate":"0.00001495","holders_count":"111862","icon_url":"https://assets.coingecko.com/coins/images/34563/small/tybg.png?1705400778","name":"Base
        God","reputation":"ok","symbol":"TYBG","total_supply":"125000000000000000000000000000","type":"ERC-20","volume_24h":"13764.120731976387"},"token_type":"ERC-20","total":{"decimals":"18","value":"2043495674885273676574334"},"transaction_hash":"0x1dadb9930dfd8732fe2281435fabf3b32d0a1317b02c4484153e3c9c8e5aa5ce","type":"token_transfer"},{"block_hash":"0x482129bba8b734c012f0d0ab00726f491209f2957090e2c44e0fc7559fbc4d7b","block_number":11621421,"from":{"ens_domain_name":null,"hash":"0x00000000009726632680FB29d3F7A9734E3010E2","implementations":[],"is_contract":true,"is_scam":false,"is_verified":true,"metadata":{"tags":[{"meta":{"projectName":"Rainbow","tagIcon
        ":"https://blockscout-icons.s3.us-east-1.amazonaws.com/OLI_tag_logo.svg","tagUrl":"https://app.klerosscout.eth.limo/#/?registry=Single_Tags&itemdetails=0x6be6a53e0f45c553b501f5f33fc0bb5f0a3dd83a0d2299cfc454c9224da8782e@0x66260c69d03837016d88c9877e61e08ef74c59f2","textColor":"#C163D4","tooltipAttribution":"https://www.openlabelsinitiative.org?utm_source=blockscout","tooltipAttributionIcon":"https://blockscout-icons.s3.us-east-1.amazonaws.com/OLI_tag_logo.svg","tooltipDescription":"Rainbow''s
        official Rainbow Router contract on Base","tooltipUrl":"https://rainbow.me/"},"name":"Rainbow:
        Router","ordinal":10,"slug":"rainbow-router","tagType":"name"},{"meta":{},"name":"Wallet
        App","ordinal":0,"slug":"wallet-app","tagType":"generic"},{"meta":{},"name":"Router","ordinal":0,"slug":"router","tagType":"generic"},{"meta":{"alertStatus":"info","data":"This
        nametag was submitted by Kleros Scout."},"name":"note_0","ordinal":0,"slug":"note0","tagType":"note"},{"meta":{"appActionButtonText":"Rainbow","appID":"rainbow"},"name":"Rainbow","ordinal":0,"slug":"rainbow","tagType":"protocol"}]},"name":"RainbowRouter","private_tags":[],"proxy_type":null,"public_tags":[],"reputation":"ok","watchlist_names":[]},"log_index":19,"method":null,"timestamp":null,"to":{"ens_domain_name":null,"hash":"0xdB6f1920A889355780aF7570773609Bd8Cb1f498","implementations":[],"is_contract":true,"is_scam":false,"is_verified":false,"metadata":null,"name":null,"private_tags":[],"proxy_type":null,"public_tags":[],"reputation":"ok","watchlist_names":[]},"token":{"address_hash":"0x0d97F261b1e88845184f678e2d1e7a98D9FD38dE","circulating_market_cap":"1838255.7025274306","decimals":"18","exchange_rate":"0.00001495","holders_count":"111862","icon_url":"https://assets.coingecko.com/coins/images/34563/small/tybg.png?1705400778","name":"Base
        God","reputation":"ok","symbol":"TYBG","total_supply":"125000000000000000000000000000","type":"ERC-20","volume_24h":"13764.120731976387"},"token_type":"ERC-20","total":{"decimals":"18","value":"2043495674885273676574334"},"transaction_hash":"0x1dadb9930dfd8732fe2281435fabf3b32d0a1317b02c4484153e3c9c8e5aa5ce","type":"token_transfer"},{"block_hash":"0x482129bba8b734c012f0d0ab00726f491209f2957090e2c44e0fc7559fbc4d7b","block_number":11621421,"from":{"ens_domain_name":null,"hash":"0xdB6f1920A889355780aF7570773609Bd8Cb1f498","implementations":[],"is_contract":true,"is_scam":false,"is_verified":false,"metadata":null,"name":null,"private_tags":[],"proxy_type":null,"public_tags":[],"reputation":"ok","watchlist_names":[]},"log_index":20,"method":null,"timestamp":null,"to":{"ens_domain_name":null,"hash":"0xF65BB528cED09008603509c3fDa43e1cCfdDF935","implementations":[],"is_contract":true,"is_scam":false,"is_verified":true,"metadata":null,"name":"UniswapV2Pair","private_tags":[],"proxy_type":null,"public_tags":[],"reputation":"ok","watchlist_names":[]},"token":{"address_hash":"0x0d97F261b1e88845184f678e2d1e7a98D9FD38dE","circulating_market_cap":"1838255.7025274306","decimals":"18","exchange_rate":"0.00001495","holders_count":"111862","icon_url":"https://assets.coingecko.com/coins/images/34563/small/tybg.png?1705400778","name":"Base
        God","reputation":"ok","symbol":"TYBG","total_supply":"125000000000000000000000000000","type":"ERC-20","volume_24h":"13764.120731976387"},"token_type":"ERC-20","total":{"decimals":"18","value":"1532621756163955199930751"},"transaction_hash":"0x1dadb9930dfd8732fe2281435fabf3b32d0a1317b02c4484153e3c9c8e5aa5ce","type":"token_transfer"},{"block_hash":"0x482129bba8b734c012f0d0ab00726f491209f2957090e2c44e0fc7559fbc4d7b","block_number":11621421,"from":{"ens_domain_name":null,"hash":"0xF65BB528cED09008603509c3fDa43e1cCfdDF935","implementations":[],"is_contract":true,"is_scam":false,"is_verified":true,"metadata":null,"name":"UniswapV2Pair","private_tags":[],"proxy_type":null,"public_tags":[],"reputation":"ok","watchlist_names":[]},"log_index":21,"method":null,"timestamp":null,"to":{"ens_domain_name":null,"hash":"0xdB6f1920A889355780aF7570773609Bd8Cb1f498","implementations":[],"is_contract":true,"is_scam":false,"is_verified":false,"metadata":null,"name":null,"private_tags":[],"proxy_type":null,"public_tags":[],"reputation":"ok","watchlist_names":[]},"token":{"address_hash":"0x4200000000000000000000000000000000000006","circulating_market_cap":"535787881.3376326","decimals":"18","exchange_rate":"2359.62","holders_count":"5084444","icon_url":"https://assets.coingecko.com/coins/images/39810/small/weth.png?1724139790","name":"L2
        Standard Bridged WETH (Base)","reputation":"ok","symbol":"WETH","total_supply":"224625329812953420419918","type":"ERC-20","volume_24h":"593532100.3009657"},"token_type":"ERC-20","total":{"decimals":"18","value":"127771067893444232"},"transaction_hash":"0x1dadb9930dfd8732fe2281435fabf3b32d0a1317b02c4484153e3c9c8e5aa5ce","type":"token_transfer"},{"block_hash":"0x482129bba8b734c012f0d0ab00726f491209f2957090e2c44e0fc7559fbc4d7b","block_number":11621421,"from":{"ens_domain_name":null,"hash":"0xdB6f1920A889355780aF7570773609Bd8Cb1f498","implementations":[],"is_contract":true,"is_scam":false,"is_verified":false,"metadata":null,"name":null,"private_tags":[],"proxy_type":null,"public_tags":[],"reputation":"ok","watchlist_names":[]},"log_index":25,"method":null,"timestamp":null,"to":{"ens_domain_name":null,"hash":"0x20000FbfeDFD172821821C9c59284129B04ffB2e","implementations":[{"address_hash":"0xA4e46b4f701c62e14DF11B48dCe76A7d793CD6d7","name":"Pool"}],"is_contract":true,"is_scam":false,"is_verified":true,"metadata":null,"name":"Volatile
        AMM - TYBG/WETH","private_tags":[],"proxy_type":"eip1167","public_tags":[],"reputation":"ok","watchlist_names":[]},"token":{"address_hash":"0x0d97F261b1e88845184f678e2d1e7a98D9FD38dE","circulating_market_cap":"1838255.7025274306","decimals":"18","exchange_rate":"0.00001495","holders_count":"111862","icon_url":"https://assets.coingecko.com/coins/images/34563/small/tybg.png?1705400778","name":"Base
        God","reputation":"ok","symbol":"TYBG","total_supply":"125000000000000000000000000000","type":"ERC-20","volume_24h":"13764.120731976387"},"token_type":"ERC-20","total":{"decimals":"18","value":"357611743104922926650509"},"transaction_hash":"0x1dadb9930dfd8732fe2281435fabf3b32d0a1317b02c4484153e3c9c8e5aa5ce","type":"token_transfer"},{"block_hash":"0x482129bba8b734c012f0d0ab00726f491209f2957090e2c44e0fc7559fbc4d7b","block_number":11621421,"from":{"ens_domain_name":null,"hash":"0x20000FbfeDFD172821821C9c59284129B04ffB2e","implementations":[{"address_hash":"0xA4e46b4f701c62e14DF11B48dCe76A7d793CD6d7","name":"Pool"}],"is_contract":true,"is_scam":false,"is_verified":true,"metadata":null,"name":"Volatile
        AMM - TYBG/WETH","private_tags":[],"proxy_type":"eip1167","public_tags":[],"reputation":"ok","watchlist_names":[]},"log_index":26,"method":null,"timestamp":null,"to":{"ens_domain_name":null,"hash":"0xdB6f1920A889355780aF7570773609Bd8Cb1f498","implementations":[],"is_contract":true,"is_scam":false,"is_verified":false,"metadata":null,"name":null,"private_tags":[],"proxy_type":null,"public_tags":[],"reputation":"ok","watchlist_names":[]},"token":{"address_hash":"0x4200000000000000000000000000000000000006","circulating_market_cap":"535787881.3376326","decimals":"18","exchange_rate":"2359.62","holders_count":"5084444","icon_url":"https://assets.coingecko.com/coins/images/39810/small/weth.png?1724139790","name":"L2
        Standard Bridged WETH (Base)","reputation":"ok","symbol":"WETH","total_supply":"224625329812953420419918","type":"ERC-20","volume_24h":"593532100.3009657"},"token_type":"ERC-20","total":{"decimals":"18","value":"29786566190881236"},"transaction_hash":"0x1dadb9930dfd8732fe2281435fabf3b32d0a1317b02c4484153e3c9c8e5aa5ce","type":"token_transfer"},{"block_hash":"0x482129bba8b734c012f0d0ab00726f491209f2957090e2c44e0fc7559fbc4d7b","block_number":11621421,"from":{"ens_domain_name":null,"hash":"0x20000FbfeDFD172821821C9c59284129B04ffB2e","implementations":[{"address_hash":"0xA4e46b4f701c62e14DF11B48dCe76A7d793CD6d7","name":"Pool"}],"is_contract":true,"is_scam":false,"is_verified":true,"metadata":null,"name":"Volatile
        AMM - TYBG/WETH","private_tags":[],"proxy_type":"eip1167","public_tags":[],"reputation":"ok","watchlist_names":[]},"log_index":27,"method":null,"timestamp":null,"to":{"ens_domain_name":null,"hash":"0xeB44Dc0E56C5AF15f514189896cC82cC41e3D190","implementations":[],"is_contract":true,"is_scam":false,"is_verified":false,"metadata":null,"name":null,"private_tags":[],"proxy_type":null,"public_tags":[],"reputation":"ok","watchlist_names":[]},"token":{"address_hash":"0x0d97F261b1e88845184f678e2d1e7a98D9FD38dE","circulating_market_cap":"1838255.7025274306","decimals":"18","exchange_rate":"0.00001495","holders_count":"111862","icon_url":"https://assets.coingecko.com/coins/images/34563/small/tybg.png?1705400778","name":"Base
        God","reputation":"ok","symbol":"TYBG","total_supply":"125000000000000000000000000000","type":"ERC-20","volume_24h":"13764.120731976387"},"token_type":"ERC-20","total":{"decimals":"18","value":"2145670458629537559903"},"transaction_hash":"0x1dadb9930dfd8732fe2281435fabf3b32d0a1317b02c4484153e3c9c8e5aa5ce","type":"token_transfer"},{"block_hash":"0x482129bba8b734c012f0d0ab00726f491209f2957090e2c44e0fc7559fbc4d7b","block_number":11621421,"from":{"ens_domain_name":null,"hash":"0xE745a591970e0Fa981204cf525E170a2B9e4fb93","implementations":[],"is_contract":true,"is_scam":false,"is_verified":true,"metadata":null,"name":"UniswapV3Pool","private_tags":[],"proxy_type":null,"public_tags":[],"reputation":"ok","watchlist_names":[]},"log_index":32,"method":null,"timestamp":null,"to":{"ens_domain_name":null,"hash":"0xdB6f1920A889355780aF7570773609Bd8Cb1f498","implementations":[],"is_contract":true,"is_scam":false,"is_verified":false,"metadata":null,"name":null,"private_tags":[],"proxy_type":null,"public_tags":[],"reputation":"ok","watchlist_names":[]},"token":{"address_hash":"0x4200000000000000000000000000000000000006","circulating_market_cap":"535787881.3376326","decimals":"18","exchange_rate":"2359.62","holders_count":"5084444","icon_url":"https://assets.coingecko.com/coins/images/39810/small/weth.png?1724139790","name":"L2
        Standard Bridged WETH (Base)","reputation":"ok","symbol":"WETH","total_supply":"224625329812953420419918","type":"ERC-20","volume_24h":"593532100.3009657"},"token_type":"ERC-20","total":{"decimals":"18","value":"12765646740413796"},"transaction_hash":"0x1dadb9930dfd8732fe2281435fabf3b32d0a1317b02c4484153e3c9c8e5aa5ce","type":"token_transfer"},{"block_hash":"0x482129bba8b734c012f0d0ab00726f491209f2957090e2c44e0fc7559fbc4d7b","block_number":11621421,"from":{"ens_domain_name":null,"hash":"0xdB6f1920A889355780aF7570773609Bd8Cb1f498","implementations":[],"is_contract":true,"is_scam":false,"is_verified":false,"metadata":null,"name":null,"private_tags":[],"proxy_type":null,"public_tags":[],"reputation":"ok","watchlist_names":[]},"log_index":33,"method":null,"timestamp":null,"to":{"ens_domain_name":null,"hash":"0xE745a591970e0Fa981204cf525E170a2B9e4fb93","implementations":[],"is_contract":true,"is_scam":false,"is_verified":true,"metadata":null,"name":"UniswapV3Pool","private_tags":[],"proxy_type":null,"public_tags":[],"reputation":"ok","watchlist_names":[]},"token":{"address_hash":"0x0d97F261b1e88845184f678e2d1e7a98D9FD38dE","circulating_market_cap":"1838255.7025274306","decimals":"18","exchange_rate":"0.00001495","holders_count":"111862","icon_url":"https://assets.coingecko.com/coins/images/34563/small/tybg.png?1705400778","name":"Base
        God","reputation":"ok","symbol":"TYBG","total_supply":"125000000000000000000000000000","type":"ERC-20","volume_24h":"13764.120731976387"},"token_type":"ERC-20","total":{"decimals":"18","value":"153262175616395549993074"},"transaction_hash":"0x1dadb9930dfd8732fe2281435fabf3b32d0a1317b02c4484153e3c9c8e5aa5ce","type":"token_transfer"},{"block_hash":"0x482129bba8b734c012f0d0ab00726f491209f2957090e2c44e0fc7559fbc4d7b","block_number":11621421,"from":{"ens_domain_name":null,"hash":"0xdB6f1920A889355780aF7570773609Bd8Cb1f498","implementations":[],"is_contract":true,"is_scam":false,"is_verified":false,"metadata":null,"name":null,"private_tags":[],"proxy_type":null,"public_tags":[],"reputation":"ok","watchlist_names":[]},"log_index":36,"method":null,"timestamp":null,"to":{"ens_domain_name":null,"hash":"0x0000000000000000000000000000000000000000","implementations":[],"is_contract":false,"is_scam":false,"is_verified":false,"metadata":{"tags":[{"meta":{},"name":"Null:
        0x000...000","ordinal":10,"slug":"null-0x000000","tagType":"name"},{"meta":{},"name":"Metamask
        User","ordinal":0,"slug":"metamask-user","tagType":"generic"},{"meta":{},"name":"Imtoken
        User","ordinal":0,"slug":"imtoken-user","tagType":"generic"},{"meta":{},"name":"Miner","ordinal":0,"slug":"miner","tagType":"generic"},{"meta":{},"name":"Burn","ordinal":0,"slug":"burn","tagType":"generic"},{"meta":{"tagIcon
        ":"https://blockscout-icons.s3.us-east-1.amazonaws.com/OLI_tag_logo.svg","textColor":"#C163D4","tooltipAttribution":"https://www.openlabelsinitiative.org?utm_source=blockscout","tooltipAttributionIcon":"https://blockscout-icons.s3.us-east-1.amazonaws.com/OLI_tag_logo.svg","tooltipDescription":"Provided
        by OLI"},"name":"Burn","ordinal":0,"slug":"burn","tagType":"name"},{"meta":{"alertStatus":"info","data":"This
        address is commonly used by projects to burn tokens (reducing total supply)
        or mint tokens (increasing total supply)."},"name":"note_0","ordinal":0,"slug":"note0","tagType":"note"},{"meta":{},"name":"Null","ordinal":0,"slug":"null","tagType":"protocol"}]},"name":null,"private_tags":[],"proxy_type":null,"public_tags":[],"reputation":"ok","watchlist_names":[]},"token":{"address_hash":"0x4200000000000000000000000000000000000006","circulating_market_cap":"535787881.3376326","decimals":"18","exchange_rate":"2359.62","holders_count":"5084444","icon_url":"https://assets.coingecko.com/coins/images/39810/small/weth.png?1724139790","name":"L2
        Standard Bridged WETH (Base)","reputation":"ok","symbol":"WETH","total_supply":"224625329812953420419918","type":"ERC-20","volume_24h":"593532100.3009657"},"token_type":"ERC-20","total":{"decimals":"18","value":"170323280824739264"},"transaction_hash":"0x1dadb9930dfd8732fe2281435fabf3b32d0a1317b02c4484153e3c9c8e5aa5ce","type":"token_burning"}],"base_fee_per_gas":"274","timestamp":"2024-03-10T00:56:29.000000Z","nonce":66,"historic_exchange_rate":"3949.58","transaction_types":["contract_call","token_transfer"],"exchange_rate":"2362.94","block_number":11621421,"has_error_in_internal_transactions":false}'
    headers:
      CF-RAY:
      - 9dd7453fae068e2b-AMS
      Cache-Control:
      - max-age=0, private, must-revalidate
      Connection:
      - keep-alive
      Content-Type:
      - application/json; charset=utf-8
      Date:
      - Mon, 16 Mar 2026 22:42:21 GMT
      Nel:
      - '{"report_to":"cf-nel","success_fraction":0.0,"max_age":604800}'
      Report-To:
      - '{"group":"cf-nel","max_age":604800,"endpoints":[{"url":"https://a.nel.cloudflare.com/report/v4?s=qizRNiEJWrzuhKCQq%2BQjXt7Kk%2B2iUt4JgOKBmsTiVjTm0veM7r8vN%2BqCK8rlTq1Q1pPBsf7jEQ2doa9BbC7tbDdNLqWTaXPwmeRR2rnGHqLntlI23QiLwromxePPnA%3D%3D"}]}'
      Server:
      - cloudflare
      Transfer-Encoding:
      - chunked
      access-control-allow-credentials:
      - 'true'
      access-control-allow-origin:
      - '*'
      access-control-expose-headers:
      - bypass-429-option,x-ratelimit-reset,x-ratelimit-limit,x-ratelimit-remaining,api-v2-temp-token
      alt-svc:
      - h3=":443"; ma=86400
      bypass-429-option:
      - temporary_token
      cf-cache-status:
      - DYNAMIC
      content-length:
      - '49269'
      strict-transport-security:
      - max-age=31536000; includeSubDomains
      x-ratelimit-limit:
      - '600'
      x-ratelimit-remaining:
      - '596'
      x-ratelimit-reset:
      - '39221'
      x-request-id:
      - b4d9657db2128d6d19d42fd645a5eab4
    status:
      code: 200
      message: OK
- request:
    body: null
    headers:
      Accept:
      - '*/*'
      Accept-Encoding:
      - gzip, deflate
      Connection:
      - keep-alive
      User-Agent:
      - rotki/1.41.2.dev1023+g19b876d8c3.d20260314
    method: GET
    uri: https://api.blockscout.com/8453/api?action=txlistinternal&module=account&sort=asc&txhash=0x1dadb9930dfd8732fe2281435fabf3b32d0a1317b02c4484153e3c9c8e5aa5ce
  response:
    body:
      string: '{"message":"OK","result":[{"blockNumber":"11621421","callType":"call","contractAddress":"","errCode":"","from":"0x4200000000000000000000000000000000000006","gas":"2300","gasUsed":"55","index":"55","input":"0x","isError":"0","timeStamp":"1710032189","to":"0xdb6f1920a889355780af7570773609bd8cb1f498","transactionHash":"0x1dadb9930dfd8732fe2281435fabf3b32d0a1317b02c4484153e3c9c8e5aa5ce","type":"call","value":"170323280824739264"},{"blockNumber":"11621421","callType":"call","contractAddress":"","errCode":"","from":"0xdb6f1920a889355780af7570773609bd8cb1f498","gas":"70705","gasUsed":"195","index":"62","input":"0x","isError":"0","timeStamp":"1710032189","to":"0x00000000009726632680fb29d3f7a9734e3010e2","transactionHash":"0x1dadb9930dfd8732fe2281435fabf3b32d0a1317b02c4484153e3c9c8e5aa5ce","type":"call","value":"170323280824739264"},{"blockNumber":"11621421","callType":"call","contractAddress":"","errCode":"","from":"0x00000000009726632680fb29d3f7a9734e3010e2","gas":"77600","gasUsed":"0","index":"64","input":"0x","isError":"0","timeStamp":"1710032189","to":"0xa01f6d0985389a8e106d3158a9441ac21eac8d8c","transactionHash":"0x1dadb9930dfd8732fe2281435fabf3b32d0a1317b02c4484153e3c9c8e5aa5ce","type":"call","value":"168875532937728981"}],"status":"1"}'
    headers:
      CF-RAY:
      - 9dd745463acc24f9-AMS
      Cache-Control:
      - max-age=0, private, must-revalidate
      Connection:
      - keep-alive
      Content-Type:
      - application/json; charset=utf-8
      Date:
      - Mon, 16 Mar 2026 22:42:22 GMT
      Nel:
      - '{"report_to":"cf-nel","success_fraction":0.0,"max_age":604800}'
      Report-To:
      - '{"group":"cf-nel","max_age":604800,"endpoints":[{"url":"https://a.nel.cloudflare.com/report/v4?s=xD3UdkxgzzMKX9DmqoxbdRtVoZ4vYKzWoNqAf7mT00J0cX7%2F%2BthdRwADr14O8Ast%2BXFVOcZHOwwbSmqlxrUlsEkaNLG8F4KG2To1%2FiKG%2FYTMMl8KJdzRhTfwDhbl0g%3D%3D"}]}'
      Server:
      - cloudflare
      Transfer-Encoding:
      - chunked
      access-control-allow-credentials:
      - 'true'
      access-control-allow-origin:
      - '*'
      access-control-expose-headers:
      - bypass-429-option,x-ratelimit-reset,x-ratelimit-limit,x-ratelimit-remaining,api-v2-temp-token
      alt-svc:
      - h3=":443"; ma=86400
      bypass-429-option:
      - no_bypass
      cf-cache-status:
      - DYNAMIC
      content-length:
      - '1254'
      strict-transport-security:
      - max-age=31536000; includeSubDomains
      x-ratelimit-limit:
      - '600'
      x-ratelimit-remaining:
      - '595'
      x-ratelimit-reset:
      - '38199'
      x-request-id:
      - b318c24f991a941a50749c06c427bd31
    status:
      code: 200
      message: OK
- request:
    body: null
    headers:
      Accept:
      - '*/*'
      Accept-Encoding:
      - gzip, deflate
      Connection:
      - keep-alive
      User-Agent:
      - rotki/1.41.2.dev1023+g19b876d8c3.d20260314
    method: GET
    uri: https://api.blockscout.com/8453/api?action=txlistinternal&module=account&sort=asc&txhash=0x1dadb9930dfd8732fe2281435fabf3b32d0a1317b02c4484153e3c9c8e5aa5ce
  response:
    body:
      string: '{"message":"OK","result":[{"blockNumber":"11621421","callType":"call","contractAddress":"","errCode":"","from":"0x4200000000000000000000000000000000000006","gas":"2300","gasUsed":"55","index":"55","input":"0x","isError":"0","timeStamp":"1710032189","to":"0xdb6f1920a889355780af7570773609bd8cb1f498","transactionHash":"0x1dadb9930dfd8732fe2281435fabf3b32d0a1317b02c4484153e3c9c8e5aa5ce","type":"call","value":"170323280824739264"},{"blockNumber":"11621421","callType":"call","contractAddress":"","errCode":"","from":"0xdb6f1920a889355780af7570773609bd8cb1f498","gas":"70705","gasUsed":"195","index":"62","input":"0x","isError":"0","timeStamp":"1710032189","to":"0x00000000009726632680fb29d3f7a9734e3010e2","transactionHash":"0x1dadb9930dfd8732fe2281435fabf3b32d0a1317b02c4484153e3c9c8e5aa5ce","type":"call","value":"170323280824739264"},{"blockNumber":"11621421","callType":"call","contractAddress":"","errCode":"","from":"0x00000000009726632680fb29d3f7a9734e3010e2","gas":"77600","gasUsed":"0","index":"64","input":"0x","isError":"0","timeStamp":"1710032189","to":"0xa01f6d0985389a8e106d3158a9441ac21eac8d8c","transactionHash":"0x1dadb9930dfd8732fe2281435fabf3b32d0a1317b02c4484153e3c9c8e5aa5ce","type":"call","value":"168875532937728981"}],"status":"1"}'
    headers:
      CF-RAY:
      - 9dd7454a1dbbfe9a-AMS
      Cache-Control:
      - max-age=0, private, must-revalidate
      Connection:
      - keep-alive
      Content-Type:
      - application/json; charset=utf-8
      Date:
      - Mon, 16 Mar 2026 22:42:22 GMT
      Nel:
      - '{"report_to":"cf-nel","success_fraction":0.0,"max_age":604800}'
      Report-To:
      - '{"group":"cf-nel","max_age":604800,"endpoints":[{"url":"https://a.nel.cloudflare.com/report/v4?s=i1iZ4JIMV1JbOvZz%2Fv6sK0rrgRgVa7CBy%2Fv9W7FpQ2eTkRILdr0M3Q7aiZwSMxMAtVEY1k9Bio9WcIL0C%2FXQxM1WoaVv2dsYV5d%2F2Mu8LPhMkR5%2BWnXt%2Bm%2FPcBIVFw%3D%3D"}]}'
      Server:
      - cloudflare
      Transfer-Encoding:
      - chunked
      access-control-allow-credentials:
      - 'true'
      access-control-allow-origin:
      - '*'
      access-control-expose-headers:
      - bypass-429-option,x-ratelimit-reset,x-ratelimit-limit,x-ratelimit-remaining,api-v2-temp-token
      alt-svc:
      - h3=":443"; ma=86400
      bypass-429-option:
      - no_bypass
      cf-cache-status:
      - DYNAMIC
      content-length:
      - '1254'
      strict-transport-security:
      - max-age=31536000; includeSubDomains
      x-ratelimit-limit:
      - '600'
      x-ratelimit-remaining:
      - '594'
      x-ratelimit-reset:
      - '37576'
      x-request-id:
      - ebb4ae351461609945a0c9bd3df0add4
    status:
      code: 200
      message: OK
version: 1
