interactions:
- request:
    body: null
    headers:
      Accept:
      - '*/*'
      Accept-Encoding:
      - gzip, deflate
      Connection:
      - keep-alive
      User-Agent:
      - rotki/1.41.4.dev420+gd91fa9ae0a.d20260126
    method: GET
    uri: https://explorer.optimism.io/api?action=txlist&address=0xd6Ade875eEC93a7aAb7EfB7DBF13d1457443f95B&endblock=106757395&module=account&sort=asc&startblock=106757395
  response:
    body:
      string: '{"message":"OK","result":[{"blockHash":"0x6e989431f650c6e32effd2647ca852673a7d91f54bec0a3529ac8c050d1f9687","blockNumber":"106757395","confirmations":"40166816","contractAddress":"","cumulativeGasUsed":"1700361","from":"0xd6ade875eec93a7aab7efb7dbf13d1457443f95b","gas":"66152","gasPrice":"66","gasUsed":"47252","hash":"0x07797f73aa274fb79e990701184b495341dd482840673564d3c0743669d421e1","input":"0x095ea7b3000000000000000000000000def1abe32c034e558cdd535791643c58a13acc10ffffffffffffffffffffffffffffffffffffffffffffffffffffffffffffffff","isError":"0","methodId":"0x","nonce":"10","timeStamp":"1689113567","to":"0x4200000000000000000000000000000000000042","transactionIndex":"6","txreceipt_status":"1","value":"0"},{"blockHash":"0x6e989431f650c6e32effd2647ca852673a7d91f54bec0a3529ac8c050d1f9687","blockNumber":"106757395","confirmations":"40166816","contractAddress":"","cumulativeGasUsed":"2023164","from":"0xd6ade875eec93a7aab7efb7dbf13d1457443f95b","gas":"523212","gasPrice":"66","gasUsed":"322803","hash":"0x6eb136db4d36cf695f4026da16f602ed4a2583b2420dbbcbd4f436943190b665","input":"0x415565b000000000000000000000000042000000000000000000000000000000000000420000000000000000000000007f5c764cbc14f9669b88837ca1490cca17c31607000000000000000000000000000000000000000000000000e410c6e7b20a9d48000000000000000000000000000000000000000000000000000000000128186800000000000000000000000000000000000000000000000000000000000000a0000000000000000000000000000000000000000000000000000000000000000200000000000000000000000000000000000000000000000000000000000000400000000000000000000000000000000000000000000000000000000000000360000000000000000000000000000000000000000000000000000000000000000f000000000000000000000000000000000000000000000000000000000000004000000000000000000000000000000000000000000000000000000000000002c00000000000000000000000000000000000000000000000000000000000000020000000000000000000000000000000000000000000000000000000000000000000000000000000000000000042000000000000000000000000000000000000420000000000000000000000007f5c764cbc14f9669b88837ca1490cca17c316070000000000000000000000000000000000000000000000000000000000000140000000000000000000000000000000000000000000000000000000000000028000000000000000000000000000000000000000000000000000000000000002800000000000000000000000000000000000000000000000000000000000000240000000000000000000000000000000000000000000000000e410c6e7b20a9d4800000000000000000000000000000000000000000000000000000000000000000000000000000000000000000000000000000000000000000000000000000280000000000000000000000000000000000000000000000000000000000000000100000000000000000000000000000000000000000000000000000000000000200000000000000000000000000000001f574f4f46690000000000000000000000000000000000000000000000000000000000000000000000e410c6e7b20a9d48000000000000000000000000000000000000000000000000000000000128186800000000000000000000000000000000000000000000000000000000000000800000000000000000000000000000000000000000000000000000000000000020000000000000000000000000eaf1ac8e89ea0ae13e0f03634a4ff23502527024000000000000000000000000000000000000000000000000000000000000000100000000000000000000000000000000000000000000000000000000000000000000000000000000000000000000000000000000000000000000000000000000000000000000000000000000000000000000000000000000000000000000000b000000000000000000000000000000000000000000000000000000000000004000000000000000000000000000000000000000000000000000000000000000e00000000000000000000000000000000000000000000000000000000000000020000000000000000000000000000000000000000000000000000000000000004000000000000000000000000000000000000000000000000000000000000000a000000000000000000000000000000000000000000000000000000000000000020000000000000000000000004200000000000000000000000000000000000042000000000000000000000000eeeeeeeeeeeeeeeeeeeeeeeeeeeeeeeeeeeeeeee0000000000000000000000000000000000000000000000000000000000000000869584cd000000000000000000000000382ffce2287252f930e1c8dc9328dac5bf282ba10000000000000000000000000000000000000000000000e5867b475164add3cb","isError":"0","methodId":"0x","nonce":"11","timeStamp":"1689113567","to":"0xdef1abe32c034e558cdd535791643c58a13acc10","transactionIndex":"7","txreceipt_status":"1","value":"0"}],"status":"1"}'
    headers:
      CF-RAY:
      - 9c419a280c10e3ca-LHR
      Cache-Control:
      - max-age=0, private, must-revalidate
      Connection:
      - keep-alive
      Content-Type:
      - application/json; charset=utf-8
      Date:
      - Mon, 26 Jan 2026 17:06:40 GMT
      Nel:
      - '{"report_to":"cf-nel","success_fraction":0.0,"max_age":604800}'
      Report-To:
      - '{"group":"cf-nel","max_age":604800,"endpoints":[{"url":"https://a.nel.cloudflare.com/report/v4?s=2L8UmT6EzypnokP4fu6qu8J0jwx%2FttWzERM%2BuD5Mvr0VYtsUe%2F6B66R3m0sPIpQmJBgXaCChqE29V31UUf0YZtTMF2BLw0zLWpUthB6KXSVu%2BmOg"}]}'
      Server:
      - cloudflare
      Transfer-Encoding:
      - chunked
      access-control-allow-credentials:
      - 'true'
      access-control-allow-origin:
      - '*'
      access-control-expose-headers:
      - bypass-429-option,x-ratelimit-reset,x-ratelimit-limit,x-ratelimit-remaining,api-v2-temp-token
      alt-svc:
      - h3=":443"; ma=86400
      bypass-429-option:
      - no_bypass
      cf-cache-status:
      - DYNAMIC
      content-length:
      - '4178'
      strict-transport-security:
      - max-age=31536000; includeSubDomains
      x-ratelimit-limit:
      - '600'
      x-ratelimit-remaining:
      - '599'
      x-ratelimit-reset:
      - '19989'
      x-request-id:
      - 06d0a6b2728d58fccdc3cb1c78cffce7
    status:
      code: 200
      message: OK
- request:
    body: null
    headers:
      Accept:
      - '*/*'
      Accept-Encoding:
      - gzip, deflate
      Connection:
      - keep-alive
      User-Agent:
      - rotki/1.41.4.dev420+gd91fa9ae0a.d20260126
    method: GET
    uri: https://explorer.optimism.io/api/v2/transactions/0x07797f73aa274fb79e990701184b495341dd482840673564d3c0743669d421e1
  response:
    body:
      string: '{"l1_gas_used":"2564","priority_fee":"283512","raw_input":"0x095ea7b3000000000000000000000000def1abe32c034e558cdd535791643c58a13acc10ffffffffffffffffffffffffffffffffffffffffffffffffffffffffffffffff","is_pending_update":false,"op_withdrawals":[],"result":"success","hash":"0x07797f73aa274fb79e990701184b495341dd482840673564d3c0743669d421e1","max_fee_per_gas":"66","revert_reason":null,"confirmation_duration":[0,2.0e3],"transaction_burnt_fee":"2835120","type":2,"token_transfers_overflow":false,"confirmations":40166817,"position":6,"max_priority_fee_per_gas":"12","transaction_tag":null,"created_contract":null,"value":"0","l1_fee_scalar":"0.684","from":{"ens_domain_name":null,"hash":"0xd6Ade875eEC93a7aAb7EfB7DBF13d1457443f95B","implementations":[],"is_contract":false,"is_scam":false,"is_verified":false,"metadata":null,"name":null,"private_tags":[],"proxy_type":null,"public_tags":[],"reputation":"ok","watchlist_names":[]},"gas_used":"47252","status":"ok","to":{"ens_domain_name":null,"hash":"0x4200000000000000000000000000000000000042","implementations":[],"is_contract":true,"is_scam":false,"is_verified":true,"metadata":{"tags":[{"meta":{},"name":"Predeploys:
        GovernanceToken","ordinal":1000,"slug":"predeploys-governancetoken","tagType":"name"},{"meta":{"projectName":"Optimism","tagUrl":"https://app.klerosscout.eth.limo/#/?registry=Single_Tags&itemdetails=0xc0dfea1e971d267b1cd7778b5d724d3a7bda959ba41b6f37ee182140a1c57396@0x66260c69d03837016d88c9877e61e08ef74c59f2","tokenAttributes":"{\"logo_url\":\"https://cdn.kleros.link/ipfs/QmXTBGyjmPAD9PqKwumL1qSEkY96ZdJPDj1fo8kERzYVm3/optimism.png\",\"token_symbol\":\"OP\",\"token_name\":\"Optimism\",\"decimals\":18}","tooltipDescription":"Optimism''s
        official OP Token contract on Optimism","tooltipUrl":"https://www.optimism.io/"},"name":"Optimism:
        OP Token","ordinal":10,"slug":"optimism-op-token","tagType":"name"},{"meta":{},"name":"Token
        Contract","ordinal":0,"slug":"token-contract","tagType":"generic"},{"meta":{},"name":"Optimism","ordinal":0,"slug":"optimism","tagType":"protocol"},{"meta":{"data":"Ok"},"name":"Credible
        token","ordinal":0,"slug":"credible-token","tagType":"token_reputation"}]},"name":"GovernanceToken","private_tags":[],"proxy_type":null,"public_tags":[],"reputation":"ok","watchlist_names":[]},"authorization_list":[],"l1_fee":"29750378541748","method":"approve","fee":{"type":"actual","value":"29750381660380"},"actions":[],"gas_limit":"66152","gas_price":"66","decoded_input":{"method_call":"approve(address
        spender, uint256 amount)","method_id":"095ea7b3","parameters":[{"name":"spender","type":"address","value":"0xDEF1ABE32c034e558Cdd535791643C58a13aCC10"},{"name":"amount","type":"uint256","value":"115792089237316195423570985008687907853269984665640564039457584007913129639935"}]},"l1_gas_price":"16963613678","token_transfers":[],"base_fee_per_gas":"60","timestamp":"2023-07-11T22:12:47.000000Z","nonce":10,"historic_exchange_rate":"1873.33","transaction_types":["contract_call"],"exchange_rate":"2906.24","block_number":106757395,"has_error_in_internal_transactions":false}'
    headers:
      CF-RAY:
      - 9c419a2b3c69653b-LHR
      Cache-Control:
      - max-age=0, private, must-revalidate
      Connection:
      - keep-alive
      Content-Type:
      - application/json; charset=utf-8
      Date:
      - Mon, 26 Jan 2026 17:06:41 GMT
      Nel:
      - '{"report_to":"cf-nel","success_fraction":0.0,"max_age":604800}'
      Report-To:
      - '{"group":"cf-nel","max_age":604800,"endpoints":[{"url":"https://a.nel.cloudflare.com/report/v4?s=OlfnZi9UysxA%2Fs%2BKeyHBMzbb7DHEKlRgdlpRWRhkcpRyIAoBeuPOaW8CDq4n97IhMx30dON3qhM7oR7ZX9Rq8GJcIIzs1%2BIYNpMTiaDA2h%2BVnQ2m"}]}'
      Server:
      - cloudflare
      Transfer-Encoding:
      - chunked
      access-control-allow-credentials:
      - 'true'
      access-control-allow-origin:
      - '*'
      access-control-expose-headers:
      - bypass-429-option,x-ratelimit-reset,x-ratelimit-limit,x-ratelimit-remaining,api-v2-temp-token
      alt-svc:
      - h3=":443"; ma=86400
      bypass-429-option:
      - temporary_token
      cf-cache-status:
      - DYNAMIC
      content-length:
      - '3067'
      strict-transport-security:
      - max-age=31536000; includeSubDomains
      x-ratelimit-limit:
      - '600'
      x-ratelimit-remaining:
      - '598'
      x-ratelimit-reset:
      - '19452'
      x-request-id:
      - 0dca9fd154f1d7c405f23529f6b1063c
    status:
      code: 200
      message: OK
- request:
    body: null
    headers:
      Accept:
      - '*/*'
      Accept-Encoding:
      - gzip, deflate
      Connection:
      - keep-alive
      User-Agent:
      - rotki/1.41.4.dev420+gd91fa9ae0a.d20260126
    method: GET
    uri: https://explorer.optimism.io/api/v2/transactions/0x6eb136db4d36cf695f4026da16f602ed4a2583b2420dbbcbd4f436943190b665
  response:
    body:
      string: '{"l1_gas_used":"9976","priority_fee":"1936818","raw_input":"0x415565b000000000000000000000000042000000000000000000000000000000000000420000000000000000000000007f5c764cbc14f9669b88837ca1490cca17c31607000000000000000000000000000000000000000000000000e410c6e7b20a9d48000000000000000000000000000000000000000000000000000000000128186800000000000000000000000000000000000000000000000000000000000000a0000000000000000000000000000000000000000000000000000000000000000200000000000000000000000000000000000000000000000000000000000000400000000000000000000000000000000000000000000000000000000000000360000000000000000000000000000000000000000000000000000000000000000f000000000000000000000000000000000000000000000000000000000000004000000000000000000000000000000000000000000000000000000000000002c00000000000000000000000000000000000000000000000000000000000000020000000000000000000000000000000000000000000000000000000000000000000000000000000000000000042000000000000000000000000000000000000420000000000000000000000007f5c764cbc14f9669b88837ca1490cca17c316070000000000000000000000000000000000000000000000000000000000000140000000000000000000000000000000000000000000000000000000000000028000000000000000000000000000000000000000000000000000000000000002800000000000000000000000000000000000000000000000000000000000000240000000000000000000000000000000000000000000000000e410c6e7b20a9d4800000000000000000000000000000000000000000000000000000000000000000000000000000000000000000000000000000000000000000000000000000280000000000000000000000000000000000000000000000000000000000000000100000000000000000000000000000000000000000000000000000000000000200000000000000000000000000000001f574f4f46690000000000000000000000000000000000000000000000000000000000000000000000e410c6e7b20a9d48000000000000000000000000000000000000000000000000000000000128186800000000000000000000000000000000000000000000000000000000000000800000000000000000000000000000000000000000000000000000000000000020000000000000000000000000eaf1ac8e89ea0ae13e0f03634a4ff23502527024000000000000000000000000000000000000000000000000000000000000000100000000000000000000000000000000000000000000000000000000000000000000000000000000000000000000000000000000000000000000000000000000000000000000000000000000000000000000000000000000000000000000000b000000000000000000000000000000000000000000000000000000000000004000000000000000000000000000000000000000000000000000000000000000e00000000000000000000000000000000000000000000000000000000000000020000000000000000000000000000000000000000000000000000000000000004000000000000000000000000000000000000000000000000000000000000000a000000000000000000000000000000000000000000000000000000000000000020000000000000000000000004200000000000000000000000000000000000042000000000000000000000000eeeeeeeeeeeeeeeeeeeeeeeeeeeeeeeeeeeeeeee0000000000000000000000000000000000000000000000000000000000000000869584cd000000000000000000000000382ffce2287252f930e1c8dc9328dac5bf282ba10000000000000000000000000000000000000000000000e5867b475164add3cb","is_pending_update":false,"op_withdrawals":[],"result":"success","hash":"0x6eb136db4d36cf695f4026da16f602ed4a2583b2420dbbcbd4f436943190b665","max_fee_per_gas":"66","revert_reason":null,"confirmation_duration":[0,2.0e3],"transaction_burnt_fee":"19368180","type":2,"token_transfers_overflow":false,"confirmations":40166818,"position":7,"max_priority_fee_per_gas":"12","transaction_tag":null,"created_contract":null,"value":"0","l1_fee_scalar":"0.684","from":{"ens_domain_name":null,"hash":"0xd6Ade875eEC93a7aAb7EfB7DBF13d1457443f95B","implementations":[],"is_contract":false,"is_scam":false,"is_verified":false,"metadata":null,"name":null,"private_tags":[],"proxy_type":null,"public_tags":[],"reputation":"ok","watchlist_names":[]},"gas_used":"322803","status":"ok","to":{"ens_domain_name":null,"hash":"0xDEF1ABE32c034e558Cdd535791643C58a13aCC10","implementations":[],"is_contract":true,"is_scam":false,"is_verified":true,"metadata":{"tags":[{"meta":{"main_entity":"0x","projectName":"0x","tagUrl":"https://app.klerosscout.eth.limo/#/?registry=Single_Tags&itemdetails=0xc24a01143415d849ee31889d9ed31b4c2e03a9ee85c1b6bfe8e1286577f17157@0x66260c69d03837016d88c9877e61e08ef74c59f2","tooltipDescription":"0x''s
        official Exchange Proxy contract on Optimism","tooltipUrl":"https://0x.org/","verifiedDomains":["swapr.eth.limo","app.unidex.exchange","de.fi","swap.defillama.com","zapper.xyz","matcha.xyz"]},"name":"Exchange
        Proxy","ordinal":10,"slug":"exchange-proxy","tagType":"name"},{"meta":{"bgColor":"linear-gradient(to
        right,rgba(96, 165, 250, 0.2),rgba(168, 85, 247, 0.2),rgba(236, 72, 153, 0.2));","tooltipDescription":"Provided
        by OLI"},"name":"ZeroEx","ordinal":0,"slug":"zeroex","tagType":"name"},{"meta":{"appActionButtonText":"0x","appID":"0x"},"name":"0x","ordinal":0,"slug":"0x","tagType":"protocol"}]},"name":"ZeroEx","private_tags":[],"proxy_type":null,"public_tags":[],"reputation":"ok","watchlist_names":[]},"authorization_list":[],"l1_fee":"115752642875381","method":"transformERC20","fee":{"type":"actual","value":"115752664180379"},"actions":[],"gas_limit":"523212","gas_price":"66","decoded_input":{"method_call":"transformERC20(address
        inputToken, address outputToken, uint256 inputTokenAmount, uint256 minOutputTokenAmount,
        (uint32,bytes)[] transformations)","method_id":"415565b0","parameters":[{"name":"inputToken","type":"address","value":"0x4200000000000000000000000000000000000042"},{"name":"outputToken","type":"address","value":"0x7F5c764cBc14f9669B88837ca1490cCa17c31607"},{"name":"inputTokenAmount","type":"uint256","value":"16433853738701725000"},{"name":"minOutputTokenAmount","type":"uint256","value":"19404904"},{"name":"transformations","type":"(uint32,bytes)[]","value":[["15","0x0000000000000000000000000000000000000000000000000000000000000020000000000000000000000000000000000000000000000000000000000000000000000000000000000000000042000000000000000000000000000000000000420000000000000000000000007f5c764cbc14f9669b88837ca1490cca17c316070000000000000000000000000000000000000000000000000000000000000140000000000000000000000000000000000000000000000000000000000000028000000000000000000000000000000000000000000000000000000000000002800000000000000000000000000000000000000000000000000000000000000240000000000000000000000000000000000000000000000000e410c6e7b20a9d4800000000000000000000000000000000000000000000000000000000000000000000000000000000000000000000000000000000000000000000000000000280000000000000000000000000000000000000000000000000000000000000000100000000000000000000000000000000000000000000000000000000000000200000000000000000000000000000001f574f4f46690000000000000000000000000000000000000000000000000000000000000000000000e410c6e7b20a9d48000000000000000000000000000000000000000000000000000000000128186800000000000000000000000000000000000000000000000000000000000000800000000000000000000000000000000000000000000000000000000000000020000000000000000000000000eaf1ac8e89ea0ae13e0f03634a4ff23502527024000000000000000000000000000000000000000000000000000000000000000100000000000000000000000000000000000000000000000000000000000000000000000000000000000000000000000000000000000000000000000000000000"],["11","0x0000000000000000000000000000000000000000000000000000000000000020000000000000000000000000000000000000000000000000000000000000004000000000000000000000000000000000000000000000000000000000000000a000000000000000000000000000000000000000000000000000000000000000020000000000000000000000004200000000000000000000000000000000000042000000000000000000000000eeeeeeeeeeeeeeeeeeeeeeeeeeeeeeeeeeeeeeee0000000000000000000000000000000000000000000000000000000000000000"]]}]},"l1_gas_price":"16963613678","token_transfers":[{"block_hash":"0x6e989431f650c6e32effd2647ca852673a7d91f54bec0a3529ac8c050d1f9687","block_number":106757395,"from":{"ens_domain_name":null,"hash":"0xd6Ade875eEC93a7aAb7EfB7DBF13d1457443f95B","implementations":[],"is_contract":false,"is_scam":false,"is_verified":false,"metadata":null,"name":null,"private_tags":[],"proxy_type":null,"public_tags":[],"reputation":"ok","watchlist_names":[]},"log_index":38,"method":null,"timestamp":null,"to":{"ens_domain_name":null,"hash":"0xA3128d9b7Cca7d5Af29780a56abEec12B05a6740","implementations":[],"is_contract":true,"is_scam":false,"is_verified":false,"metadata":null,"name":null,"private_tags":[],"proxy_type":null,"public_tags":[],"reputation":"ok","watchlist_names":[]},"token":{"address_hash":"0x4200000000000000000000000000000000000042","circulating_market_cap":"577326319.8725446","decimals":"18","exchange_rate":"0.296768","holders_count":"1382245","icon_url":"https://assets.coingecko.com/coins/images/25244/small/Optimism.png?1696524385","name":"Optimism","reputation":"ok","symbol":"OP","total_supply":"4294963292498750113616177748","type":"ERC-20","volume_24h":"73379665.11914091"},"token_type":"ERC-20","total":{"decimals":"18","value":"16433853738701725000"},"transaction_hash":"0x6eb136db4d36cf695f4026da16f602ed4a2583b2420dbbcbd4f436943190b665","type":"token_transfer"},{"block_hash":"0x6e989431f650c6e32effd2647ca852673a7d91f54bec0a3529ac8c050d1f9687","block_number":106757395,"from":{"ens_domain_name":null,"hash":"0xA3128d9b7Cca7d5Af29780a56abEec12B05a6740","implementations":[],"is_contract":true,"is_scam":false,"is_verified":false,"metadata":null,"name":null,"private_tags":[],"proxy_type":null,"public_tags":[],"reputation":"ok","watchlist_names":[]},"log_index":40,"method":null,"timestamp":null,"to":{"ens_domain_name":null,"hash":"0xd1778F9DF3eee5473A9640f13682e3846f61fEbC","implementations":[],"is_contract":true,"is_scam":false,"is_verified":true,"metadata":{"tags":[{"meta":{"bgColor":"linear-gradient(to
        right,rgba(96, 165, 250, 0.2),rgba(168, 85, 247, 0.2),rgba(236, 72, 153, 0.2));","tooltipDescription":"Provided
        by OLI"},"name":"WooPPV2","ordinal":0,"slug":"wooppv2","tagType":"name"}]},"name":null,"private_tags":[],"proxy_type":null,"public_tags":[],"reputation":"ok","watchlist_names":[]},"token":{"address_hash":"0x4200000000000000000000000000000000000042","circulating_market_cap":"577326319.8725446","decimals":"18","exchange_rate":"0.296768","holders_count":"1382245","icon_url":"https://assets.coingecko.com/coins/images/25244/small/Optimism.png?1696524385","name":"Optimism","reputation":"ok","symbol":"OP","total_supply":"4294963292498750113616177748","type":"ERC-20","volume_24h":"73379665.11914091"},"token_type":"ERC-20","total":{"decimals":"18","value":"16433853738701725000"},"transaction_hash":"0x6eb136db4d36cf695f4026da16f602ed4a2583b2420dbbcbd4f436943190b665","type":"token_transfer"},{"block_hash":"0x6e989431f650c6e32effd2647ca852673a7d91f54bec0a3529ac8c050d1f9687","block_number":106757395,"from":{"ens_domain_name":null,"hash":"0xd1778F9DF3eee5473A9640f13682e3846f61fEbC","implementations":[],"is_contract":true,"is_scam":false,"is_verified":true,"metadata":{"tags":[{"meta":{"bgColor":"linear-gradient(to
        right,rgba(96, 165, 250, 0.2),rgba(168, 85, 247, 0.2),rgba(236, 72, 153, 0.2));","tooltipDescription":"Provided
        by OLI"},"name":"WooPPV2","ordinal":0,"slug":"wooppv2","tagType":"name"}]},"name":null,"private_tags":[],"proxy_type":null,"public_tags":[],"reputation":"ok","watchlist_names":[]},"log_index":41,"method":null,"timestamp":null,"to":{"ens_domain_name":null,"hash":"0xA3128d9b7Cca7d5Af29780a56abEec12B05a6740","implementations":[],"is_contract":true,"is_scam":false,"is_verified":false,"metadata":null,"name":null,"private_tags":[],"proxy_type":null,"public_tags":[],"reputation":"ok","watchlist_names":[]},"token":{"address_hash":"0x7F5c764cBc14f9669B88837ca1490cCa17c31607","circulating_market_cap":"28945831.550196517","decimals":"6","exchange_rate":"0.998933","holders_count":"946381","icon_url":"https://assets.coingecko.com/coins/images/31580/small/USDC-icon.png?1696530397","name":"USD
        Coin","reputation":"ok","symbol":"USDC","total_supply":"28963002700439","type":"ERC-20","volume_24h":"761514.7245190738"},"token_type":"ERC-20","total":{"decimals":"6","value":"20005056"},"transaction_hash":"0x6eb136db4d36cf695f4026da16f602ed4a2583b2420dbbcbd4f436943190b665","type":"token_transfer"},{"block_hash":"0x6e989431f650c6e32effd2647ca852673a7d91f54bec0a3529ac8c050d1f9687","block_number":106757395,"from":{"ens_domain_name":null,"hash":"0xA3128d9b7Cca7d5Af29780a56abEec12B05a6740","implementations":[],"is_contract":true,"is_scam":false,"is_verified":false,"metadata":null,"name":null,"private_tags":[],"proxy_type":null,"public_tags":[],"reputation":"ok","watchlist_names":[]},"log_index":45,"method":null,"timestamp":null,"to":{"ens_domain_name":null,"hash":"0xd6Ade875eEC93a7aAb7EfB7DBF13d1457443f95B","implementations":[],"is_contract":false,"is_scam":false,"is_verified":false,"metadata":null,"name":null,"private_tags":[],"proxy_type":null,"public_tags":[],"reputation":"ok","watchlist_names":[]},"token":{"address_hash":"0x7F5c764cBc14f9669B88837ca1490cCa17c31607","circulating_market_cap":"28945831.550196517","decimals":"6","exchange_rate":"0.998933","holders_count":"946381","icon_url":"https://assets.coingecko.com/coins/images/31580/small/USDC-icon.png?1696530397","name":"USD
        Coin","reputation":"ok","symbol":"USDC","total_supply":"28963002700439","type":"ERC-20","volume_24h":"761514.7245190738"},"token_type":"ERC-20","total":{"decimals":"6","value":"20005056"},"transaction_hash":"0x6eb136db4d36cf695f4026da16f602ed4a2583b2420dbbcbd4f436943190b665","type":"token_transfer"}],"base_fee_per_gas":"60","timestamp":"2023-07-11T22:12:47.000000Z","nonce":11,"historic_exchange_rate":"1873.33","transaction_types":["contract_call","token_transfer"],"exchange_rate":"2906.24","block_number":106757395,"has_error_in_internal_transactions":false}'
    headers:
      CF-RAY:
      - 9c419a356c8b77a0-LHR
      Cache-Control:
      - max-age=0, private, must-revalidate
      Connection:
      - keep-alive
      Content-Type:
      - application/json; charset=utf-8
      Date:
      - Mon, 26 Jan 2026 17:06:47 GMT
      Nel:
      - '{"report_to":"cf-nel","success_fraction":0.0,"max_age":604800}'
      Report-To:
      - '{"group":"cf-nel","max_age":604800,"endpoints":[{"url":"https://a.nel.cloudflare.com/report/v4?s=8cYE3PQN%2FCpoj0sAimYZzuPT%2BopeTRXVwIFDA3doED6xmADaoTvLj9kNYch4jkrxojwkRYI%2Bmb3e9OY8EJWPxs1MwR00lrY2Q3R9iJsXn8DoCVPZ"}]}'
      Server:
      - cloudflare
      Transfer-Encoding:
      - chunked
      access-control-allow-credentials:
      - 'true'
      access-control-allow-origin:
      - '*'
      access-control-expose-headers:
      - bypass-429-option,x-ratelimit-reset,x-ratelimit-limit,x-ratelimit-remaining,api-v2-temp-token
      alt-svc:
      - h3=":443"; ma=86400
      bypass-429-option:
      - temporary_token
      cf-cache-status:
      - DYNAMIC
      content-length:
      - '13560'
      strict-transport-security:
      - max-age=31536000; includeSubDomains
      x-ratelimit-limit:
      - '600'
      x-ratelimit-remaining:
      - '597'
      x-ratelimit-reset:
      - '17827'
      x-request-id:
      - 506dd11b9a702d09c44db1bb4d48b128
    status:
      code: 200
      message: OK
version: 1
