interactions:
- request:
    body: '{"jsonrpc": "2.0", "method": "web3_clientVersion", "params": [], "id":
      0}'
    headers:
      Accept:
      - '*/*'
      Accept-Encoding:
      - gzip, deflate
      Connection:
      - keep-alive
      Content-Length:
      - '73'
      Content-Type:
      - application/json
      User-Agent:
      - web3.py/7.14.0/web3.providers.rpc.rpc.HTTPProvider
    method: POST
    uri: https://optimism.drpc.org/
  response:
    body:
      string: '{"id":0,"jsonrpc":"2.0","result":"Geth/v10.0.0/drpc"}'
    headers:
      CF-RAY:
      - 9d7f0e823bee334a-MAD
      Connection:
      - keep-alive
      Content-Type:
      - application/json
      Date:
      - Fri, 06 Mar 2026 05:45:51 GMT
      Server:
      - cloudflare
      access-control-allow-origin:
      - '*'
      alt-svc:
      - h3=":443"; ma=86400
      cf-cache-status:
      - DYNAMIC
      content-length:
      - '53'
      strict-transport-security:
      - max-age=31536000; includeSubDomains
      vary:
      - Accept-Encoding
      x-drpc-owner-id:
      - cb501251-31a8-4028-8b0a-54679f15c385
      x-drpc-owner-tier:
      - free
      x-drpc-trace-id:
      - a2e70024b16bd223cdd878ff8acf7042
    status:
      code: 200
      message: OK
- request:
    body: '{"jsonrpc": "2.0", "method": "net_version", "params": [], "id": 1}'
    headers:
      Accept:
      - '*/*'
      Accept-Encoding:
      - gzip, deflate
      Connection:
      - keep-alive
      Content-Length:
      - '66'
      Content-Type:
      - application/json
      User-Agent:
      - web3.py/7.14.0/web3.providers.rpc.rpc.HTTPProvider
    method: POST
    uri: https://optimism.drpc.org/
  response:
    body:
      string: '{"id":1,"jsonrpc":"2.0","result":"10"}'
    headers:
      CF-RAY:
      - 9d7f0e82fea2981f-BCN
      Connection:
      - keep-alive
      Content-Type:
      - application/json
      Date:
      - Fri, 06 Mar 2026 05:45:51 GMT
      Server:
      - cloudflare
      access-control-allow-origin:
      - '*'
      alt-svc:
      - h3=":443"; ma=86400
      cf-cache-status:
      - DYNAMIC
      content-length:
      - '38'
      strict-transport-security:
      - max-age=31536000; includeSubDomains
      vary:
      - Accept-Encoding
      x-drpc-owner-id:
      - cb501251-31a8-4028-8b0a-54679f15c385
      x-drpc-owner-tier:
      - free
      x-drpc-trace-id:
      - 4f5576725cf4a5f5e4c742f3ca85bbf3
    status:
      code: 200
      message: OK
- request:
    body: '{"jsonrpc": "2.0", "method": "eth_blockNumber", "params": [], "id": 2}'
    headers:
      Accept:
      - '*/*'
      Accept-Encoding:
      - gzip, deflate
      Connection:
      - keep-alive
      Content-Length:
      - '70'
      Content-Type:
      - application/json
      User-Agent:
      - web3.py/7.14.0/web3.providers.rpc.rpc.HTTPProvider
    method: POST
    uri: https://optimism.drpc.org/
  response:
    body:
      string: '{"id":2,"jsonrpc":"2.0","result":"0x8db482b"}'
    headers:
      CF-RAY:
      - 9d7f0e83b91778b2-BCN
      Connection:
      - keep-alive
      Content-Type:
      - application/json
      Date:
      - Fri, 06 Mar 2026 05:45:52 GMT
      Server:
      - cloudflare
      access-control-allow-origin:
      - '*'
      alt-svc:
      - h3=":443"; ma=86400
      cf-cache-status:
      - DYNAMIC
      content-length:
      - '45'
      strict-transport-security:
      - max-age=31536000; includeSubDomains
      vary:
      - Accept-Encoding
      x-drpc-owner-id:
      - cb501251-31a8-4028-8b0a-54679f15c385
      x-drpc-owner-tier:
      - free
      x-drpc-trace-id:
      - 066e2ec06478aff6d131c35ca67a5f96
    status:
      code: 200
      message: OK
- request:
    body: '{"jsonrpc": "2.0", "method": "eth_getBalance", "params": ["0x76a05Df20bFEF5EcE3eB16afF9cb10134199A921",
      "0x12110"], "id": 3}'
    headers:
      Accept:
      - '*/*'
      Accept-Encoding:
      - gzip, deflate
      Connection:
      - keep-alive
      Content-Length:
      - '124'
      Content-Type:
      - application/json
      User-Agent:
      - web3.py/7.14.0/web3.providers.rpc.rpc.HTTPProvider
    method: POST
    uri: https://optimism.drpc.org/
  response:
    body:
      string: '{"id":3,"jsonrpc":"2.0","result":"0xb1a2bc2ec50000"}'
    headers:
      CF-RAY:
      - 9d7f0e84680f204f-BCN
      Connection:
      - keep-alive
      Content-Type:
      - application/json
      Date:
      - Fri, 06 Mar 2026 05:45:52 GMT
      Server:
      - cloudflare
      access-control-allow-origin:
      - '*'
      alt-svc:
      - h3=":443"; ma=86400
      cf-cache-status:
      - DYNAMIC
      content-length:
      - '52'
      strict-transport-security:
      - max-age=31536000; includeSubDomains
      vary:
      - Accept-Encoding
      x-drpc-owner-id:
      - cb501251-31a8-4028-8b0a-54679f15c385
      x-drpc-owner-tier:
      - free
      x-drpc-provider-id:
      - drpc-public-multiregion
      x-drpc-trace-id:
      - 9c9a8bff6ccec8392e871a92de5a6f50
    status:
      code: 200
      message: OK
- request:
    body: '{"jsonrpc": "2.0", "method": "eth_getTransactionByHash", "params": ["0x5e77a04531c7c107af1882d76cbff9486d0a9aa53701c30888509d4f5f2b003a"],
      "id": 4}'
    headers:
      Accept:
      - '*/*'
      Accept-Encoding:
      - gzip, deflate
      Connection:
      - keep-alive
      Content-Length:
      - '147'
      Content-Type:
      - application/json
      User-Agent:
      - web3.py/7.14.0/web3.providers.rpc.rpc.HTTPProvider
    method: POST
    uri: https://optimism.drpc.org/
  response:
    body:
      string: '{"id":4,"jsonrpc":"2.0","result":{"blockHash":"0xbee7192e575af30420cae0c7776304ac196077ee72b048970549e4f08e875453","blockNumber":"0x1","transactionIndex":"0x0","hash":"0x5e77a04531c7c107af1882d76cbff9486d0a9aa53701c30888509d4f5f2b003a","from":"0x70b17c0fe982ab4a7ac17a4c25485643151a1f2d","to":"0x8ce8c13d816fe6daf12d6fd9e4952e1fc88850af","input":"0x202ee0ed000000000000000000000000000000000000000000000000000000000001421800000000000000000000000000000000000000000000000000000000d0e3ebf0","nonce":"0x28972","value":"0x0","gas":"0x7a120","gasPrice":"0x1","type":"0x0","v":"0x38","r":"0xc878d22e771004beb73e7a4268fd4f447735812b94b217f6807412efcec90d61","s":"0x3588018735fb361c49e5de54b266b8b157c1ba3d6ee08e3bcbdee7cd725c16e8","queueOrigin":"sequencer","l1Timestamp":"0x618d8837","l1BlockNumber":"0xcf7a45","index":"0x0","rawTransaction":"0xf8a883028972018307a120948ce8c13d816fe6daf12d6fd9e4952e1fc88850af80b844202ee0ed000000000000000000000000000000000000000000000000000000000001421800000000000000000000000000000000000000000000000000000000d0e3ebf038a0c878d22e771004beb73e7a4268fd4f447735812b94b217f6807412efcec90d61a03588018735fb361c49e5de54b266b8b157c1ba3d6ee08e3bcbdee7cd725c16e8"}}'
    headers:
      CF-RAY:
      - 9d7f0e864c36aa4b-BCN
      Connection:
      - keep-alive
      Content-Type:
      - application/json
      Date:
      - Fri, 06 Mar 2026 05:45:52 GMT
      Server:
      - cloudflare
      access-control-allow-origin:
      - '*'
      alt-svc:
      - h3=":443"; ma=86400
      cf-cache-status:
      - DYNAMIC
      content-length:
      - '1179'
      strict-transport-security:
      - max-age=31536000; includeSubDomains
      vary:
      - Accept-Encoding
      x-drpc-owner-id:
      - cb501251-31a8-4028-8b0a-54679f15c385
      x-drpc-owner-tier:
      - free
      x-drpc-provider-id:
      - drpc-public-multiregion
      x-drpc-trace-id:
      - 2504a928844551d564bec257214c9def
    status:
      code: 200
      message: OK
- request:
    body: '{"jsonrpc": "2.0", "method": "eth_getTransactionByHash", "params": ["0x92ae5e1c4b4a2d5e2af9c4abc415a9dc0b826ba1fa158c57219fc1b6e852a061"],
      "id": 5}'
    headers:
      Accept:
      - '*/*'
      Accept-Encoding:
      - gzip, deflate
      Connection:
      - keep-alive
      Content-Length:
      - '147'
      Content-Type:
      - application/json
      User-Agent:
      - web3.py/7.14.0/web3.providers.rpc.rpc.HTTPProvider
    method: POST
    uri: https://optimism.drpc.org/
  response:
    body:
      string: '{"id":5,"jsonrpc":"2.0","result":{"blockHash":"0x5e6f2a7cfd7f57bf7b8f8a9059ee6f2ae0617e24cfe9d919fa59c587d7a2122e","blockNumber":"0x67a933","from":"0xc37b40abdb939635068d3c5f13e7faf686f03b65","gas":"0xd09b","gasPrice":"0xf4240","hash":"0x92ae5e1c4b4a2d5e2af9c4abc415a9dc0b826ba1fa158c57219fc1b6e852a061","input":"0x095ea7b30000000000000000000000001111111254760f7ab3f16433eea9304126dcd199ffffffffffffffffffffffffffffffffffffffffffffffffffffffffffffffff","nonce":"0x0","to":"0x7f5c764cbc14f9669b88837ca1490cca17c31607","transactionIndex":"0x0","value":"0x0","type":"0x0","chainId":"0xa","v":"0x38","r":"0x85baca989b85b211ba48dcef60a5b8b4e72509e125069dc990206d69a60ea8b2","s":"0x584ba24b5538ed08fb633490333f97b54aa0e5644907d19358d1eb8e296cf2d8"}}'
    headers:
      CF-RAY:
      - 9d7f0e874d54f134-BCN
      Connection:
      - keep-alive
      Content-Type:
      - application/json
      Date:
      - Fri, 06 Mar 2026 05:45:52 GMT
      Server:
      - cloudflare
      access-control-allow-origin:
      - '*'
      alt-svc:
      - h3=":443"; ma=86400
      cf-cache-status:
      - DYNAMIC
      content-length:
      - '743'
      strict-transport-security:
      - max-age=31536000; includeSubDomains
      vary:
      - Accept-Encoding
      x-drpc-owner-id:
      - cb501251-31a8-4028-8b0a-54679f15c385
      x-drpc-owner-tier:
      - free
      x-drpc-provider-id:
      - drpc-public-multiregion
      x-drpc-trace-id:
      - 52d604328151f1604dcca022a85ccc2d
    status:
      code: 200
      message: OK
- request:
    body: '{"jsonrpc": "2.0", "method": "eth_getBlockByNumber", "params": ["0x67a933",
      false], "id": 6}'
    headers:
      Accept:
      - '*/*'
      Accept-Encoding:
      - gzip, deflate
      Connection:
      - keep-alive
      Content-Length:
      - '92'
      Content-Type:
      - application/json
      User-Agent:
      - web3.py/7.14.0/web3.providers.rpc.rpc.HTTPProvider
    method: POST
    uri: https://optimism.drpc.org/
  response:
    body:
      string: '{"id":6,"jsonrpc":"2.0","result":{"difficulty":"0x2","extraData":"0xd98301090a846765746889676f312e31352e3133856c696e7578000000000000c8878f3686a1b119b5403a6285434d136f20bfcff70a0fe77daa1673c48865f13ecb3bebc8c23319ea8b5c13c40fd17a92a9fdb6870ed547a92bbcd27769108f00","gasLimit":"0xe4e1c0","gasUsed":"0xd09b","hash":"0x5e6f2a7cfd7f57bf7b8f8a9059ee6f2ae0617e24cfe9d919fa59c587d7a2122e","logsBloom":"0x00000000000000000100008000000000000000000000000010000000000000000000000000000000000000000000000000000040000000000000400000200000000000000000000000000000000000000000000000000000000000000000000000000000000000000000000000000000000000000000000000000000000000000000000000000000000000000000000000000000000000000000000000000000020000000000000200000000000000000000000000000002000000000000000000000000000000000000000000000000000000000000000000000000000000000010000000000000000000000000000000000000080000000000000000010000","miner":"0x0000000000000000000000000000000000000000","mixHash":"0x0000000000000000000000000000000000000000000000000000000000000000","nonce":"0x0000000000000000","number":"0x67a933","parentHash":"0x4b86ea971f9fa904d6e4027db368090092137781c065f41b1a706001e8343527","receiptsRoot":"0xad4769d00b81e70f9b64ab902d675f08bcffe62e90f2a7bc571230590e797bb6","sha3Uncles":"0x1dcc4de8dec75d7aab85b567b6ccd41ad312451b948a7413f0a142fd40d49347","size":"0x30d","stateRoot":"0x9b164bbaea417520508d4121b8f5bfba4db91a699d660f17f9b469c85af2981e","timestamp":"0x626d0f21","transactions":["0x92ae5e1c4b4a2d5e2af9c4abc415a9dc0b826ba1fa158c57219fc1b6e852a061"],"transactionsRoot":"0x7cc9a371ce451591bad8fd6d7b8d477399a84f40c94d4d9187bb8afb4177f9dd","uncles":[]}}'
    headers:
      CF-RAY:
      - 9d7f0e88cb55ecab-MAD
      Connection:
      - keep-alive
      Content-Type:
      - application/json
      Date:
      - Fri, 06 Mar 2026 05:45:52 GMT
      Server:
      - cloudflare
      access-control-allow-origin:
      - '*'
      alt-svc:
      - h3=":443"; ma=86400
      cf-cache-status:
      - DYNAMIC
      content-length:
      - '1647'
      strict-transport-security:
      - max-age=31536000; includeSubDomains
      vary:
      - Accept-Encoding
      x-drpc-owner-id:
      - cb501251-31a8-4028-8b0a-54679f15c385
      x-drpc-owner-tier:
      - free
      x-drpc-provider-id:
      - drpc-core-free
      x-drpc-trace-id:
      - e0b36ada8c367e699cc0812a2a7043a4
    status:
      code: 200
      message: OK
- request:
    body: '{"jsonrpc": "2.0", "method": "web3_clientVersion", "params": [], "id":
      0}'
    headers:
      Accept:
      - '*/*'
      Accept-Encoding:
      - gzip, deflate
      Connection:
      - keep-alive
      Content-Length:
      - '73'
      Content-Type:
      - application/json
      User-Agent:
      - web3.py/7.14.0/web3.providers.rpc.rpc.HTTPProvider
    method: POST
    uri: https://mainnet.optimism.io/
  response:
    body:
      string: '{"jsonrpc":"2.0","result":"reth/v1.11.0-564ffa5/x86_64-unknown-linux-gnu","id":0}

        '
    headers:
      Alt-Svc:
      - h3=":443"; ma=2592000,h3-29=":443"; ma=2592000
      Content-Length:
      - '82'
      Content-Type:
      - application/json
      Date:
      - Fri, 06 Mar 2026 05:45:52 GMT
      Set-Cookie:
      - lb1=3d5a7df2f7437523; Path=/
      Vary:
      - Origin
      Via:
      - 1.1 google
      X-Proxyd-Cache-Status:
      - MISS
    status:
      code: 200
      message: OK
- request:
    body: '{"jsonrpc": "2.0", "method": "net_version", "params": [], "id": 1}'
    headers:
      Accept:
      - '*/*'
      Accept-Encoding:
      - gzip, deflate
      Connection:
      - keep-alive
      Content-Length:
      - '66'
      Content-Type:
      - application/json
      Cookie:
      - lb1=3d5a7df2f7437523
      User-Agent:
      - web3.py/7.14.0/web3.providers.rpc.rpc.HTTPProvider
    method: POST
    uri: https://mainnet.optimism.io/
  response:
    body:
      string: '{"jsonrpc":"2.0","result":"10","id":1}

        '
    headers:
      Alt-Svc:
      - h3=":443"; ma=2592000,h3-29=":443"; ma=2592000
      Content-Length:
      - '39'
      Content-Type:
      - application/json
      Date:
      - Fri, 06 Mar 2026 05:45:53 GMT
      Vary:
      - Origin
      Via:
      - 1.1 google
      X-Proxyd-Cache-Status:
      - HIT
    status:
      code: 200
      message: OK
- request:
    body: '{"jsonrpc": "2.0", "method": "eth_blockNumber", "params": [], "id": 2}'
    headers:
      Accept:
      - '*/*'
      Accept-Encoding:
      - gzip, deflate
      Connection:
      - keep-alive
      Content-Length:
      - '70'
      Content-Type:
      - application/json
      Cookie:
      - lb1=3d5a7df2f7437523
      User-Agent:
      - web3.py/7.14.0/web3.providers.rpc.rpc.HTTPProvider
    method: POST
    uri: https://mainnet.optimism.io/
  response:
    body:
      string: '{"jsonrpc":"2.0","result":"0x8db482c","id":2}

        '
    headers:
      Alt-Svc:
      - h3=":443"; ma=2592000,h3-29=":443"; ma=2592000
      Content-Length:
      - '46'
      Content-Type:
      - application/json
      Date:
      - Fri, 06 Mar 2026 05:45:53 GMT
      Vary:
      - Origin
      Via:
      - 1.1 google
      X-Proxyd-Cache-Status:
      - MISS
    status:
      code: 200
      message: OK
- request:
    body: '{"jsonrpc": "2.0", "method": "eth_getBalance", "params": ["0x76a05Df20bFEF5EcE3eB16afF9cb10134199A921",
      "0x12110"], "id": 3}'
    headers:
      Accept:
      - '*/*'
      Accept-Encoding:
      - gzip, deflate
      Connection:
      - keep-alive
      Content-Length:
      - '124'
      Content-Type:
      - application/json
      Cookie:
      - lb1=3d5a7df2f7437523
      User-Agent:
      - web3.py/7.14.0/web3.providers.rpc.rpc.HTTPProvider
    method: POST
    uri: https://mainnet.optimism.io/
  response:
    body:
      string: '{"jsonrpc":"2.0","result":"0xb1a2bc2ec50000","id":3}

        '
    headers:
      Alt-Svc:
      - h3=":443"; ma=2592000,h3-29=":443"; ma=2592000
      Content-Length:
      - '53'
      Content-Type:
      - application/json
      Date:
      - Fri, 06 Mar 2026 05:45:53 GMT
      Vary:
      - Origin
      Via:
      - 1.1 google
      X-Proxyd-Cache-Status:
      - MISS
    status:
      code: 200
      message: OK
- request:
    body: '{"jsonrpc": "2.0", "method": "eth_getTransactionByHash", "params": ["0x5e77a04531c7c107af1882d76cbff9486d0a9aa53701c30888509d4f5f2b003a"],
      "id": 4}'
    headers:
      Accept:
      - '*/*'
      Accept-Encoding:
      - gzip, deflate
      Connection:
      - keep-alive
      Content-Length:
      - '147'
      Content-Type:
      - application/json
      Cookie:
      - lb1=3d5a7df2f7437523
      User-Agent:
      - web3.py/7.14.0/web3.providers.rpc.rpc.HTTPProvider
    method: POST
    uri: https://mainnet.optimism.io/
  response:
    body:
      string: '{"jsonrpc":"2.0","result":{"blockHash":"0xbee7192e575af30420cae0c7776304ac196077ee72b048970549e4f08e875453","blockNumber":"0x1","from":"0x70b17c0fe982ab4a7ac17a4c25485643151a1f2d","gas":"0x7a120","gasPrice":"0x1","hash":"0x5e77a04531c7c107af1882d76cbff9486d0a9aa53701c30888509d4f5f2b003a","index":"0x0","input":"0x202ee0ed000000000000000000000000000000000000000000000000000000000001421800000000000000000000000000000000000000000000000000000000d0e3ebf0","l1BlockNumber":"0xcf7a45","l1Timestamp":"0x618d8837","l1TxOrigin":null,"nonce":"0x28972","queueIndex":null,"queueOrigin":"sequencer","r":"0xc878d22e771004beb73e7a4268fd4f447735812b94b217f6807412efcec90d61","rawTransaction":"0xf8a883028972018307a120948ce8c13d816fe6daf12d6fd9e4952e1fc88850af80b844202ee0ed000000000000000000000000000000000000000000000000000000000001421800000000000000000000000000000000000000000000000000000000d0e3ebf038a0c878d22e771004beb73e7a4268fd4f447735812b94b217f6807412efcec90d61a03588018735fb361c49e5de54b266b8b157c1ba3d6ee08e3bcbdee7cd725c16e8","s":"0x3588018735fb361c49e5de54b266b8b157c1ba3d6ee08e3bcbdee7cd725c16e8","to":"0x8ce8c13d816fe6daf12d6fd9e4952e1fc88850af","transactionIndex":"0x0","v":"0x38","value":"0x0"},"id":4}

        '
    headers:
      Alt-Svc:
      - h3=":443"; ma=2592000,h3-29=":443"; ma=2592000
      Content-Length:
      - '1203'
      Content-Type:
      - application/json
      Date:
      - Fri, 06 Mar 2026 05:45:53 GMT
      Vary:
      - Origin
      Via:
      - 1.1 google
      X-Proxyd-Cache-Status:
      - MISS
    status:
      code: 200
      message: OK
- request:
    body: '{"jsonrpc": "2.0", "method": "eth_getTransactionReceipt", "params": ["0x92ae5e1c4b4a2d5e2af9c4abc415a9dc0b826ba1fa158c57219fc1b6e852a061"],
      "id": 5}'
    headers:
      Accept:
      - '*/*'
      Accept-Encoding:
      - gzip, deflate
      Connection:
      - keep-alive
      Content-Length:
      - '148'
      Content-Type:
      - application/json
      Cookie:
      - lb1=3d5a7df2f7437523
      User-Agent:
      - web3.py/7.14.0/web3.providers.rpc.rpc.HTTPProvider
    method: POST
    uri: https://mainnet.optimism.io/
  response:
    body:
      string: '{"jsonrpc":"2.0","result":{"blockHash":"0x5e6f2a7cfd7f57bf7b8f8a9059ee6f2ae0617e24cfe9d919fa59c587d7a2122e","blockNumber":"0x67a933","contractAddress":null,"cumulativeGasUsed":"0xd09b","from":"0xc37b40abdb939635068d3c5f13e7faf686f03b65","gasUsed":"0xd09b","l1Fee":"0x59184cde02a4","l1FeeScalar":"1","l1GasPrice":"0x4e0b36699","l1GasUsed":"0x1244","logs":[{"address":"0x7f5c764cbc14f9669b88837ca1490cca17c31607","blockHash":"0x5e6f2a7cfd7f57bf7b8f8a9059ee6f2ae0617e24cfe9d919fa59c587d7a2122e","blockNumber":"0x67a933","data":"0xffffffffffffffffffffffffffffffffffffffffffffffffffffffffffffffff","logIndex":"0x0","removed":false,"topics":["0x8c5be1e5ebec7d5bd14f71427d1e84f3dd0314c0f7b2291e5b200ac8c7c3b925","0x000000000000000000000000c37b40abdb939635068d3c5f13e7faf686f03b65","0x0000000000000000000000001111111254760f7ab3f16433eea9304126dcd199"],"transactionHash":"0x92ae5e1c4b4a2d5e2af9c4abc415a9dc0b826ba1fa158c57219fc1b6e852a061","transactionIndex":"0x0"}],"logsBloom":"0x00000000000000000100008000000000000000000000000010000000000000000000000000000000000000000000000000000040000000000000400000200000000000000000000000000000000000000000000000000000000000000000000000000000000000000000000000000000000000000000000000000000000000000000000000000000000000000000000000000000000000000000000000000000020000000000000200000000000000000000000000000002000000000000000000000000000000000000000000000000000000000000000000000000000000000010000000000000000000000000000000000000080000000000000000010000","status":"0x1","to":"0x7f5c764cbc14f9669b88837ca1490cca17c31607","transactionHash":"0x92ae5e1c4b4a2d5e2af9c4abc415a9dc0b826ba1fa158c57219fc1b6e852a061","transactionIndex":"0x0"},"id":5}

        '
    headers:
      Alt-Svc:
      - h3=":443"; ma=2592000,h3-29=":443"; ma=2592000
      Content-Length:
      - '1673'
      Content-Type:
      - application/json
      Date:
      - Fri, 06 Mar 2026 05:45:53 GMT
      Vary:
      - Origin
      Via:
      - 1.1 google
      X-Proxyd-Cache-Status:
      - MISS
    status:
      code: 200
      message: OK
- request:
    body: '{"jsonrpc": "2.0", "method": "eth_getTransactionByHash", "params": ["0x92ae5e1c4b4a2d5e2af9c4abc415a9dc0b826ba1fa158c57219fc1b6e852a061"],
      "id": 7}'
    headers:
      Accept:
      - '*/*'
      Accept-Encoding:
      - gzip, deflate
      Connection:
      - keep-alive
      Content-Length:
      - '147'
      Content-Type:
      - application/json
      User-Agent:
      - web3.py/7.14.0/web3.providers.rpc.rpc.HTTPProvider
    method: POST
    uri: https://optimism.drpc.org/
  response:
    body:
      string: '{"id":7,"jsonrpc":"2.0","result":{"blockHash":"0x5e6f2a7cfd7f57bf7b8f8a9059ee6f2ae0617e24cfe9d919fa59c587d7a2122e","blockNumber":"0x67a933","from":"0xc37b40abdb939635068d3c5f13e7faf686f03b65","gas":"0xd09b","gasPrice":"0xf4240","hash":"0x92ae5e1c4b4a2d5e2af9c4abc415a9dc0b826ba1fa158c57219fc1b6e852a061","input":"0x095ea7b30000000000000000000000001111111254760f7ab3f16433eea9304126dcd199ffffffffffffffffffffffffffffffffffffffffffffffffffffffffffffffff","nonce":"0x0","to":"0x7f5c764cbc14f9669b88837ca1490cca17c31607","transactionIndex":"0x0","value":"0x0","type":"0x0","chainId":"0xa","v":"0x38","r":"0x85baca989b85b211ba48dcef60a5b8b4e72509e125069dc990206d69a60ea8b2","s":"0x584ba24b5538ed08fb633490333f97b54aa0e5644907d19358d1eb8e296cf2d8"}}'
    headers:
      CF-RAY:
      - 9d7f0e8e9eeacc70-MAD
      Connection:
      - keep-alive
      Content-Type:
      - application/json
      Date:
      - Fri, 06 Mar 2026 05:45:53 GMT
      Server:
      - cloudflare
      access-control-allow-origin:
      - '*'
      alt-svc:
      - h3=":443"; ma=86400
      cf-cache-status:
      - DYNAMIC
      content-length:
      - '743'
      strict-transport-security:
      - max-age=31536000; includeSubDomains
      vary:
      - Accept-Encoding
      x-drpc-owner-id:
      - cb501251-31a8-4028-8b0a-54679f15c385
      x-drpc-owner-tier:
      - free
      x-drpc-provider-id:
      - drpc-public-multiregion
      x-drpc-trace-id:
      - ce839234c9a7c622b20e858a9524aa2e
    status:
      code: 200
      message: OK
- request:
    body: '{"jsonrpc": "2.0", "method": "eth_getTransactionReceipt", "params": ["0x92ae5e1c4b4a2d5e2af9c4abc415a9dc0b826ba1fa158c57219fc1b6e852a061"],
      "id": 6}'
    headers:
      Accept:
      - '*/*'
      Accept-Encoding:
      - gzip, deflate
      Connection:
      - keep-alive
      Content-Length:
      - '148'
      Content-Type:
      - application/json
      Cookie:
      - lb1=3d5a7df2f7437523
      User-Agent:
      - web3.py/7.14.0/web3.providers.rpc.rpc.HTTPProvider
    method: POST
    uri: https://mainnet.optimism.io/
  response:
    body:
      string: '{"jsonrpc":"2.0","result":{"blockHash":"0x5e6f2a7cfd7f57bf7b8f8a9059ee6f2ae0617e24cfe9d919fa59c587d7a2122e","blockNumber":"0x67a933","contractAddress":null,"cumulativeGasUsed":"0xd09b","from":"0xc37b40abdb939635068d3c5f13e7faf686f03b65","gasUsed":"0xd09b","l1Fee":"0x59184cde02a4","l1FeeScalar":"1","l1GasPrice":"0x4e0b36699","l1GasUsed":"0x1244","logs":[{"address":"0x7f5c764cbc14f9669b88837ca1490cca17c31607","blockHash":"0x5e6f2a7cfd7f57bf7b8f8a9059ee6f2ae0617e24cfe9d919fa59c587d7a2122e","blockNumber":"0x67a933","data":"0xffffffffffffffffffffffffffffffffffffffffffffffffffffffffffffffff","logIndex":"0x0","removed":false,"topics":["0x8c5be1e5ebec7d5bd14f71427d1e84f3dd0314c0f7b2291e5b200ac8c7c3b925","0x000000000000000000000000c37b40abdb939635068d3c5f13e7faf686f03b65","0x0000000000000000000000001111111254760f7ab3f16433eea9304126dcd199"],"transactionHash":"0x92ae5e1c4b4a2d5e2af9c4abc415a9dc0b826ba1fa158c57219fc1b6e852a061","transactionIndex":"0x0"}],"logsBloom":"0x00000000000000000100008000000000000000000000000010000000000000000000000000000000000000000000000000000040000000000000400000200000000000000000000000000000000000000000000000000000000000000000000000000000000000000000000000000000000000000000000000000000000000000000000000000000000000000000000000000000000000000000000000000000020000000000000200000000000000000000000000000002000000000000000000000000000000000000000000000000000000000000000000000000000000000010000000000000000000000000000000000000080000000000000000010000","status":"0x1","to":"0x7f5c764cbc14f9669b88837ca1490cca17c31607","transactionHash":"0x92ae5e1c4b4a2d5e2af9c4abc415a9dc0b826ba1fa158c57219fc1b6e852a061","transactionIndex":"0x0"},"id":6}

        '
    headers:
      Alt-Svc:
      - h3=":443"; ma=2592000,h3-29=":443"; ma=2592000
      Content-Length:
      - '1673'
      Content-Type:
      - application/json
      Date:
      - Fri, 06 Mar 2026 05:45:54 GMT
      Vary:
      - Origin
      Via:
      - 1.1 google
      X-Proxyd-Cache-Status:
      - MISS
    status:
      code: 200
      message: OK
- request:
    body: null
    headers:
      Accept:
      - '*/*'
      Accept-Encoding:
      - gzip, deflate
      Connection:
      - keep-alive
      User-Agent:
      - rotki/1.42.1.dev85+g21cbca5056.d20260305
    method: GET
    uri: https://explorer.optimism.io/api/v2/transactions/0x92ae5e1c4b4a2d5e2af9c4abc415a9dc0b826ba1fa158c57219fc1b6e852a061
  response:
    body:
      string: '{"l1_gas_used":"4676","priority_fee":null,"raw_input":"0x095ea7b30000000000000000000000001111111254760f7ab3f16433eea9304126dcd199ffffffffffffffffffffffffffffffffffffffffffffffffffffffffffffffff","is_pending_update":false,"op_withdrawals":[],"result":"success","hash":"0x92ae5e1c4b4a2d5e2af9c4abc415a9dc0b826ba1fa158c57219fc1b6e852a061","max_fee_per_gas":null,"revert_reason":null,"confirmation_duration":[0,2.0e3],"transaction_burnt_fee":null,"type":null,"token_transfers_overflow":false,"confirmations":141795066,"position":0,"max_priority_fee_per_gas":null,"transaction_tag":null,"created_contract":null,"value":"0","l1_fee_scalar":"1.0","from":{"ens_domain_name":"yabir.eth","hash":"0xc37b40ABdB939635068d3c5f13E7faF686F03B65","implementations":[],"is_contract":false,"is_scam":false,"is_verified":false,"metadata":null,"name":null,"private_tags":[],"proxy_type":null,"public_tags":[],"reputation":"ok","watchlist_names":[]},"gas_used":"53403","status":"ok","to":{"ens_domain_name":null,"hash":"0x7F5c764cBc14f9669B88837ca1490cCa17c31607","implementations":[],"is_contract":true,"is_scam":false,"is_verified":true,"metadata":{"tags":[{"meta":{},"name":"USD
        Coin (Bridged from Ethereum) (USDC.e)","ordinal":10,"slug":"usd-coin-bridged-from-ethereum-usdce","tagType":"name"},{"meta":{"projectName":"Optimism","tagIcon
        ":"https://blockscout-icons.s3.us-east-1.amazonaws.com/OLI_tag_logo.svg","tagUrl":"https://app.klerosscout.eth.limo/#/?registry=Single_Tags&itemdetails=0xac2bf0207eda8eb6d9d26350e1939b532b8d497f33184c4ed0e5eb1160313ae1@0x66260c69d03837016d88c9877e61e08ef74c59f2","textColor":"#C163D4","tooltipAttribution":"https://www.openlabelsinitiative.org?utm_source=blockscout","tooltipAttributionIcon":"https://blockscout-icons.s3.us-east-1.amazonaws.com/OLI_tag_logo.svg","tooltipDescription":"USDC
        bridged from Ethereum by Optimism","tooltipUrl":"https://optimism.io/"},"name":"USDC.e
        Token","ordinal":10,"slug":"usdce-token-10","tagType":"name"},{"meta":{"alertStatus":"info","data":"This
        nametag was submitted by Kleros Curate."},"name":"note_0","ordinal":0,"slug":"note0","tagType":"note"},{"meta":{},"name":"Optimism","ordinal":0,"slug":"optimism","tagType":"protocol"}]},"name":"OVMFiatToken","private_tags":[],"proxy_type":null,"public_tags":[],"reputation":"ok","watchlist_names":[]},"authorization_list":[],"l1_fee":"97960903705252","method":"approve","fee":{"type":"actual","value":"98014306705252"},"actions":[],"gas_limit":"53403","gas_price":"1000000","decoded_input":{"method_call":"approve(address
        spender, uint256 amount)","method_id":"095ea7b3","parameters":[{"name":"spender","type":"address","value":"0x1111111254760F7ab3F16433eea9304126DCd199"},{"name":"amount","type":"uint256","value":"115792089237316195423570985008687907853269984665640564039457584007913129639935"}]},"l1_gas_price":"20949722777","token_transfers":[],"base_fee_per_gas":null,"timestamp":"2022-04-30T10:27:45.000000Z","nonce":0,"historic_exchange_rate":"2726.98","transaction_types":["contract_call"],"exchange_rate":"2061.81","block_number":6793523,"has_error_in_internal_transactions":null}'
    headers:
      CF-RAY:
      - 9d7f0e915c3503bd-MAD
      Cache-Control:
      - max-age=0, private, must-revalidate
      Connection:
      - keep-alive
      Content-Type:
      - application/json; charset=utf-8
      Date:
      - Fri, 06 Mar 2026 05:45:54 GMT
      Nel:
      - '{"report_to":"cf-nel","success_fraction":0.0,"max_age":604800}'
      Report-To:
      - '{"group":"cf-nel","max_age":604800,"endpoints":[{"url":"https://a.nel.cloudflare.com/report/v4?s=nEq3sVfMB6d4JGRSTYdDFrgTe0rWbdYizyxWxibmIZIZXYdo%2B4jmfIT%2BLnG5gnTk06gyX5Y2KKaGlnx4nQ106QFerJ3yrMA4Hqyt0TtHcumUz2Wj"}]}'
      Server:
      - cloudflare
      Transfer-Encoding:
      - chunked
      access-control-allow-credentials:
      - 'true'
      access-control-allow-origin:
      - '*'
      access-control-expose-headers:
      - bypass-429-option,x-ratelimit-reset,x-ratelimit-limit,x-ratelimit-remaining,api-v2-temp-token
      alt-svc:
      - h3=":443"; ma=86400
      bypass-429-option:
      - temporary_token
      cf-cache-status:
      - DYNAMIC
      content-length:
      - '3091'
      strict-transport-security:
      - max-age=31536000; includeSubDomains
      x-ratelimit-limit:
      - '600'
      x-ratelimit-remaining:
      - '599'
      x-ratelimit-reset:
      - '5771'
      x-request-id:
      - faf4ab7cf8637f5342f9422299cebe03
    status:
      code: 200
      message: OK
- request:
    body: '{"jsonrpc": "2.0", "method": "eth_getTransactionByHash", "params": ["0x92ae5e1c4b4a2d5e2af9c4abc415a9dc0b826ba1fa158c57219fc1b6e852a061"],
      "id": 8}'
    headers:
      Accept:
      - '*/*'
      Accept-Encoding:
      - gzip, deflate
      Connection:
      - keep-alive
      Content-Length:
      - '147'
      Content-Type:
      - application/json
      User-Agent:
      - web3.py/7.14.0/web3.providers.rpc.rpc.HTTPProvider
    method: POST
    uri: https://optimism.drpc.org/
  response:
    body:
      string: '{"id":8,"jsonrpc":"2.0","result":{"blockHash":"0x5e6f2a7cfd7f57bf7b8f8a9059ee6f2ae0617e24cfe9d919fa59c587d7a2122e","blockNumber":"0x67a933","from":"0xc37b40abdb939635068d3c5f13e7faf686f03b65","gas":"0xd09b","gasPrice":"0xf4240","hash":"0x92ae5e1c4b4a2d5e2af9c4abc415a9dc0b826ba1fa158c57219fc1b6e852a061","input":"0x095ea7b30000000000000000000000001111111254760f7ab3f16433eea9304126dcd199ffffffffffffffffffffffffffffffffffffffffffffffffffffffffffffffff","nonce":"0x0","to":"0x7f5c764cbc14f9669b88837ca1490cca17c31607","transactionIndex":"0x0","value":"0x0","type":"0x0","chainId":"0xa","v":"0x38","r":"0x85baca989b85b211ba48dcef60a5b8b4e72509e125069dc990206d69a60ea8b2","s":"0x584ba24b5538ed08fb633490333f97b54aa0e5644907d19358d1eb8e296cf2d8"}}'
    headers:
      CF-RAY:
      - 9d7f0e9599650d44-MAD
      Connection:
      - keep-alive
      Content-Type:
      - application/json
      Date:
      - Fri, 06 Mar 2026 05:45:55 GMT
      Server:
      - cloudflare
      access-control-allow-origin:
      - '*'
      alt-svc:
      - h3=":443"; ma=86400
      cf-cache-status:
      - DYNAMIC
      content-length:
      - '743'
      strict-transport-security:
      - max-age=31536000; includeSubDomains
      vary:
      - Accept-Encoding
      x-drpc-owner-id:
      - cb501251-31a8-4028-8b0a-54679f15c385
      x-drpc-owner-tier:
      - free
      x-drpc-provider-id:
      - drpc-public-multiregion
      x-drpc-trace-id:
      - acc2f5fcd2b44880ba25459311323fab
    status:
      code: 200
      message: OK
- request:
    body: '{"jsonrpc": "2.0", "method": "eth_getTransactionReceipt", "params": ["0x92ae5e1c4b4a2d5e2af9c4abc415a9dc0b826ba1fa158c57219fc1b6e852a061"],
      "id": 7}'
    headers:
      Accept:
      - '*/*'
      Accept-Encoding:
      - gzip, deflate
      Connection:
      - keep-alive
      Content-Length:
      - '148'
      Content-Type:
      - application/json
      Cookie:
      - lb1=3d5a7df2f7437523
      User-Agent:
      - web3.py/7.14.0/web3.providers.rpc.rpc.HTTPProvider
    method: POST
    uri: https://mainnet.optimism.io/
  response:
    body:
      string: '{"jsonrpc":"2.0","result":{"blockHash":"0x5e6f2a7cfd7f57bf7b8f8a9059ee6f2ae0617e24cfe9d919fa59c587d7a2122e","blockNumber":"0x67a933","contractAddress":null,"cumulativeGasUsed":"0xd09b","from":"0xc37b40abdb939635068d3c5f13e7faf686f03b65","gasUsed":"0xd09b","l1Fee":"0x59184cde02a4","l1FeeScalar":"1","l1GasPrice":"0x4e0b36699","l1GasUsed":"0x1244","logs":[{"address":"0x7f5c764cbc14f9669b88837ca1490cca17c31607","blockHash":"0x5e6f2a7cfd7f57bf7b8f8a9059ee6f2ae0617e24cfe9d919fa59c587d7a2122e","blockNumber":"0x67a933","data":"0xffffffffffffffffffffffffffffffffffffffffffffffffffffffffffffffff","logIndex":"0x0","removed":false,"topics":["0x8c5be1e5ebec7d5bd14f71427d1e84f3dd0314c0f7b2291e5b200ac8c7c3b925","0x000000000000000000000000c37b40abdb939635068d3c5f13e7faf686f03b65","0x0000000000000000000000001111111254760f7ab3f16433eea9304126dcd199"],"transactionHash":"0x92ae5e1c4b4a2d5e2af9c4abc415a9dc0b826ba1fa158c57219fc1b6e852a061","transactionIndex":"0x0"}],"logsBloom":"0x00000000000000000100008000000000000000000000000010000000000000000000000000000000000000000000000000000040000000000000400000200000000000000000000000000000000000000000000000000000000000000000000000000000000000000000000000000000000000000000000000000000000000000000000000000000000000000000000000000000000000000000000000000000020000000000000200000000000000000000000000000002000000000000000000000000000000000000000000000000000000000000000000000000000000000010000000000000000000000000000000000000080000000000000000010000","status":"0x1","to":"0x7f5c764cbc14f9669b88837ca1490cca17c31607","transactionHash":"0x92ae5e1c4b4a2d5e2af9c4abc415a9dc0b826ba1fa158c57219fc1b6e852a061","transactionIndex":"0x0"},"id":7}

        '
    headers:
      Alt-Svc:
      - h3=":443"; ma=2592000,h3-29=":443"; ma=2592000
      Content-Length:
      - '1673'
      Content-Type:
      - application/json
      Date:
      - Fri, 06 Mar 2026 05:45:55 GMT
      Vary:
      - Origin
      Via:
      - 1.1 google
      X-Proxyd-Cache-Status:
      - MISS
    status:
      code: 200
      message: OK
- request:
    body: null
    headers:
      Accept:
      - '*/*'
      Accept-Encoding:
      - gzip, deflate
      Connection:
      - keep-alive
      User-Agent:
      - rotki/1.42.1.dev85+g21cbca5056.d20260305
    method: GET
    uri: https://explorer.optimism.io/api/v2/transactions/0x92ae5e1c4b4a2d5e2af9c4abc415a9dc0b826ba1fa158c57219fc1b6e852a061
  response:
    body:
      string: '{"l1_gas_used":"4676","priority_fee":null,"raw_input":"0x095ea7b30000000000000000000000001111111254760f7ab3f16433eea9304126dcd199ffffffffffffffffffffffffffffffffffffffffffffffffffffffffffffffff","is_pending_update":false,"op_withdrawals":[],"result":"success","hash":"0x92ae5e1c4b4a2d5e2af9c4abc415a9dc0b826ba1fa158c57219fc1b6e852a061","max_fee_per_gas":null,"revert_reason":null,"confirmation_duration":[0,2.0e3],"transaction_burnt_fee":null,"type":null,"token_transfers_overflow":false,"confirmations":141795067,"position":0,"max_priority_fee_per_gas":null,"transaction_tag":null,"created_contract":null,"value":"0","l1_fee_scalar":"1.0","from":{"ens_domain_name":"yabir.eth","hash":"0xc37b40ABdB939635068d3c5f13E7faF686F03B65","implementations":[],"is_contract":false,"is_scam":false,"is_verified":false,"metadata":null,"name":null,"private_tags":[],"proxy_type":null,"public_tags":[],"reputation":"ok","watchlist_names":[]},"gas_used":"53403","status":"ok","to":{"ens_domain_name":null,"hash":"0x7F5c764cBc14f9669B88837ca1490cCa17c31607","implementations":[],"is_contract":true,"is_scam":false,"is_verified":true,"metadata":{"tags":[{"meta":{},"name":"USD
        Coin (Bridged from Ethereum) (USDC.e)","ordinal":10,"slug":"usd-coin-bridged-from-ethereum-usdce","tagType":"name"},{"meta":{"projectName":"Optimism","tagIcon
        ":"https://blockscout-icons.s3.us-east-1.amazonaws.com/OLI_tag_logo.svg","tagUrl":"https://app.klerosscout.eth.limo/#/?registry=Single_Tags&itemdetails=0xac2bf0207eda8eb6d9d26350e1939b532b8d497f33184c4ed0e5eb1160313ae1@0x66260c69d03837016d88c9877e61e08ef74c59f2","textColor":"#C163D4","tooltipAttribution":"https://www.openlabelsinitiative.org?utm_source=blockscout","tooltipAttributionIcon":"https://blockscout-icons.s3.us-east-1.amazonaws.com/OLI_tag_logo.svg","tooltipDescription":"USDC
        bridged from Ethereum by Optimism","tooltipUrl":"https://optimism.io/"},"name":"USDC.e
        Token","ordinal":10,"slug":"usdce-token-10","tagType":"name"},{"meta":{"alertStatus":"info","data":"This
        nametag was submitted by Kleros Curate."},"name":"note_0","ordinal":0,"slug":"note0","tagType":"note"},{"meta":{},"name":"Optimism","ordinal":0,"slug":"optimism","tagType":"protocol"}]},"name":"OVMFiatToken","private_tags":[],"proxy_type":null,"public_tags":[],"reputation":"ok","watchlist_names":[]},"authorization_list":[],"l1_fee":"97960903705252","method":"approve","fee":{"type":"actual","value":"98014306705252"},"actions":[],"gas_limit":"53403","gas_price":"1000000","decoded_input":{"method_call":"approve(address
        spender, uint256 amount)","method_id":"095ea7b3","parameters":[{"name":"spender","type":"address","value":"0x1111111254760F7ab3F16433eea9304126DCd199"},{"name":"amount","type":"uint256","value":"115792089237316195423570985008687907853269984665640564039457584007913129639935"}]},"l1_gas_price":"20949722777","token_transfers":[],"base_fee_per_gas":null,"timestamp":"2022-04-30T10:27:45.000000Z","nonce":0,"historic_exchange_rate":"2726.98","transaction_types":["contract_call"],"exchange_rate":"2061.81","block_number":6793523,"has_error_in_internal_transactions":null}'
    headers:
      CF-RAY:
      - 9d7f0e987d6bd929-MAD
      Cache-Control:
      - max-age=0, private, must-revalidate
      Connection:
      - keep-alive
      Content-Type:
      - application/json; charset=utf-8
      Date:
      - Fri, 06 Mar 2026 05:45:55 GMT
      Nel:
      - '{"report_to":"cf-nel","success_fraction":0.0,"max_age":604800}'
      Report-To:
      - '{"group":"cf-nel","max_age":604800,"endpoints":[{"url":"https://a.nel.cloudflare.com/report/v4?s=46y9B9yy66RjbkAgpc8BOHLH7BMCy37ekZzpADOblF%2BqtEsGon9mP2iPKbxJEQxjlOCWILW7MV4wI2%2BuZXeij1ZgWSlzrCOGMVh4lgtuNgizaA%3D%3D"}]}'
      Server:
      - cloudflare
      Transfer-Encoding:
      - chunked
      access-control-allow-credentials:
      - 'true'
      access-control-allow-origin:
      - '*'
      access-control-expose-headers:
      - bypass-429-option,x-ratelimit-reset,x-ratelimit-limit,x-ratelimit-remaining,api-v2-temp-token
      alt-svc:
      - h3=":443"; ma=86400
      bypass-429-option:
      - temporary_token
      cf-cache-status:
      - DYNAMIC
      content-length:
      - '3091'
      strict-transport-security:
      - max-age=31536000; includeSubDomains
      x-ratelimit-limit:
      - '600'
      x-ratelimit-remaining:
      - '598'
      x-ratelimit-reset:
      - '4709'
      x-request-id:
      - e067c67c65cbbc68af108ee21a2a2d6b
    status:
      code: 200
      message: OK
- request:
    body: '{"jsonrpc": "2.0", "method": "eth_getTransactionByHash", "params": ["0x92ae5e1c4b4a2d5e2af9c4abc415a9dc0b826ba1fa158c57219fc1b6e852a061"],
      "id": 9}'
    headers:
      Accept:
      - '*/*'
      Accept-Encoding:
      - gzip, deflate
      Connection:
      - keep-alive
      Content-Length:
      - '147'
      Content-Type:
      - application/json
      User-Agent:
      - web3.py/7.14.0/web3.providers.rpc.rpc.HTTPProvider
    method: POST
    uri: https://optimism.drpc.org/
  response:
    body:
      string: '{"id":9,"jsonrpc":"2.0","result":{"blockHash":"0x5e6f2a7cfd7f57bf7b8f8a9059ee6f2ae0617e24cfe9d919fa59c587d7a2122e","blockNumber":"0x67a933","from":"0xc37b40abdb939635068d3c5f13e7faf686f03b65","gas":"0xd09b","gasPrice":"0xf4240","hash":"0x92ae5e1c4b4a2d5e2af9c4abc415a9dc0b826ba1fa158c57219fc1b6e852a061","input":"0x095ea7b30000000000000000000000001111111254760f7ab3f16433eea9304126dcd199ffffffffffffffffffffffffffffffffffffffffffffffffffffffffffffffff","nonce":"0x0","to":"0x7f5c764cbc14f9669b88837ca1490cca17c31607","transactionIndex":"0x0","value":"0x0","type":"0x0","chainId":"0xa","v":"0x38","r":"0x85baca989b85b211ba48dcef60a5b8b4e72509e125069dc990206d69a60ea8b2","s":"0x584ba24b5538ed08fb633490333f97b54aa0e5644907d19358d1eb8e296cf2d8"}}'
    headers:
      CF-RAY:
      - 9d7f0e9c1ebd78b2-BCN
      Connection:
      - keep-alive
      Content-Type:
      - application/json
      Date:
      - Fri, 06 Mar 2026 05:45:55 GMT
      Server:
      - cloudflare
      access-control-allow-origin:
      - '*'
      alt-svc:
      - h3=":443"; ma=86400
      cf-cache-status:
      - DYNAMIC
      content-length:
      - '743'
      strict-transport-security:
      - max-age=31536000; includeSubDomains
      vary:
      - Accept-Encoding
      x-drpc-owner-id:
      - cb501251-31a8-4028-8b0a-54679f15c385
      x-drpc-owner-tier:
      - free
      x-drpc-provider-id:
      - drpc-public-multiregion
      x-drpc-trace-id:
      - 795ecbb9847378ea9a7202034e2d23fd
    status:
      code: 200
      message: OK
- request:
    body: '{"jsonrpc": "2.0", "method": "eth_getTransactionReceipt", "params": ["0x92ae5e1c4b4a2d5e2af9c4abc415a9dc0b826ba1fa158c57219fc1b6e852a061"],
      "id": 8}'
    headers:
      Accept:
      - '*/*'
      Accept-Encoding:
      - gzip, deflate
      Connection:
      - keep-alive
      Content-Length:
      - '148'
      Content-Type:
      - application/json
      Cookie:
      - lb1=3d5a7df2f7437523
      User-Agent:
      - web3.py/7.14.0/web3.providers.rpc.rpc.HTTPProvider
    method: POST
    uri: https://mainnet.optimism.io/
  response:
    body:
      string: '{"jsonrpc":"2.0","result":{"blockHash":"0x5e6f2a7cfd7f57bf7b8f8a9059ee6f2ae0617e24cfe9d919fa59c587d7a2122e","blockNumber":"0x67a933","contractAddress":null,"cumulativeGasUsed":"0xd09b","from":"0xc37b40abdb939635068d3c5f13e7faf686f03b65","gasUsed":"0xd09b","l1Fee":"0x59184cde02a4","l1FeeScalar":"1","l1GasPrice":"0x4e0b36699","l1GasUsed":"0x1244","logs":[{"address":"0x7f5c764cbc14f9669b88837ca1490cca17c31607","blockHash":"0x5e6f2a7cfd7f57bf7b8f8a9059ee6f2ae0617e24cfe9d919fa59c587d7a2122e","blockNumber":"0x67a933","data":"0xffffffffffffffffffffffffffffffffffffffffffffffffffffffffffffffff","logIndex":"0x0","removed":false,"topics":["0x8c5be1e5ebec7d5bd14f71427d1e84f3dd0314c0f7b2291e5b200ac8c7c3b925","0x000000000000000000000000c37b40abdb939635068d3c5f13e7faf686f03b65","0x0000000000000000000000001111111254760f7ab3f16433eea9304126dcd199"],"transactionHash":"0x92ae5e1c4b4a2d5e2af9c4abc415a9dc0b826ba1fa158c57219fc1b6e852a061","transactionIndex":"0x0"}],"logsBloom":"0x00000000000000000100008000000000000000000000000010000000000000000000000000000000000000000000000000000040000000000000400000200000000000000000000000000000000000000000000000000000000000000000000000000000000000000000000000000000000000000000000000000000000000000000000000000000000000000000000000000000000000000000000000000000020000000000000200000000000000000000000000000002000000000000000000000000000000000000000000000000000000000000000000000000000000000010000000000000000000000000000000000000080000000000000000010000","status":"0x1","to":"0x7f5c764cbc14f9669b88837ca1490cca17c31607","transactionHash":"0x92ae5e1c4b4a2d5e2af9c4abc415a9dc0b826ba1fa158c57219fc1b6e852a061","transactionIndex":"0x0"},"id":8}

        '
    headers:
      Alt-Svc:
      - h3=":443"; ma=2592000,h3-29=":443"; ma=2592000
      Content-Length:
      - '1673'
      Content-Type:
      - application/json
      Date:
      - Fri, 06 Mar 2026 05:45:56 GMT
      Vary:
      - Origin
      Via:
      - 1.1 google
      X-Proxyd-Cache-Status:
      - MISS
    status:
      code: 200
      message: OK
- request:
    body: null
    headers:
      Accept:
      - '*/*'
      Accept-Encoding:
      - gzip, deflate
      Connection:
      - keep-alive
      User-Agent:
      - rotki/1.42.1.dev85+g21cbca5056.d20260305
    method: GET
    uri: https://api.routescan.io/v2/network/mainnet/evm/10/etherscan/api?action=eth_getTransactionReceipt&module=proxy&txhash=0x92ae5e1c4b4a2d5e2af9c4abc415a9dc0b826ba1fa158c57219fc1b6e852a061
  response:
    body:
      string: '{"jsonrpc":"2.0","id":1,"result":{"blockHash":"0x5e6f2a7cfd7f57bf7b8f8a9059ee6f2ae0617e24cfe9d919fa59c587d7a2122e","blockNumber":"0x67a933","contractAddress":null,"cumulativeGasUsed":"0xd09b","from":"0xc37b40abdb939635068d3c5f13e7faf686f03b65","gasUsed":"0xd09b","l1Fee":"0x59184cde02a4","l1FeeScalar":"1","l1GasPrice":"0x4e0b36699","l1GasUsed":"0x1244","logs":[{"address":"0x7f5c764cbc14f9669b88837ca1490cca17c31607","topics":["0x8c5be1e5ebec7d5bd14f71427d1e84f3dd0314c0f7b2291e5b200ac8c7c3b925","0x000000000000000000000000c37b40abdb939635068d3c5f13e7faf686f03b65","0x0000000000000000000000001111111254760f7ab3f16433eea9304126dcd199"],"data":"0xffffffffffffffffffffffffffffffffffffffffffffffffffffffffffffffff","blockNumber":"0x67a933","transactionHash":"0x92ae5e1c4b4a2d5e2af9c4abc415a9dc0b826ba1fa158c57219fc1b6e852a061","transactionIndex":"0x0","blockHash":"0x5e6f2a7cfd7f57bf7b8f8a9059ee6f2ae0617e24cfe9d919fa59c587d7a2122e","logIndex":"0x0","removed":false}],"logsBloom":"0x00000000000000000100008000000000000000000000000010000000000000000000000000000000000000000000000000000040000000000000400000200000000000000000000000000000000000000000000000000000000000000000000000000000000000000000000000000000000000000000000000000000000000000000000000000000000000000000000000000000000000000000000000000000020000000000000200000000000000000000000000000002000000000000000000000000000000000000000000000000000000000000000000000000000000000010000000000000000000000000000000000000080000000000000000010000","status":"0x1","to":"0x7f5c764cbc14f9669b88837ca1490cca17c31607","transactionHash":"0x92ae5e1c4b4a2d5e2af9c4abc415a9dc0b826ba1fa158c57219fc1b6e852a061","transactionIndex":"0x0"}}'
    headers:
      Alt-Svc:
      - h3=":443"; ma=86400
      Connection:
      - keep-alive
      Content-Type:
      - application/json; charset=utf-8
      Date:
      - Fri, 06 Mar 2026 05:45:56 GMT
      Transfer-Encoding:
      - chunked
      Vary:
      - accept-encoding
      Via:
      - 1.1 d9ab01b23f2d3ed4e3c8299955a19070.cloudfront.net (CloudFront)
      X-Amz-Cf-Id:
      - eQQ5CGTsSi9QgCaZrfHzD3nJM6zrnxq_6vzx0uWAZBRTlPVR9r3atw==
      X-Amz-Cf-Pop:
      - MAD53-P6
      X-Cache:
      - Miss from cloudfront
      access-control-allow-origin:
      - '*'
      content-length:
      - '1672'
      x-ratelimit-rpd-limit:
      - '100000'
      x-ratelimit-rpd-remaining:
      - '99997'
      x-ratelimit-rpd-reset:
      - '44947'
      x-ratelimit-rpm-limit:
      - '300'
      x-ratelimit-rpm-remaining:
      - '299'
      x-ratelimit-rpm-reset:
      - '60'
    status:
      code: 200
      message: OK
version: 1
