interactions:
- request:
    body: '{"jsonrpc": "2.0", "method": "web3_clientVersion", "params": [], "id":
      0}'
    headers:
      Accept:
      - '*/*'
      Accept-Encoding:
      - gzip, deflate
      Connection:
      - keep-alive
      Content-Length:
      - '73'
      Content-Type:
      - application/json
      User-Agent:
      - web3.py/7.13.0/web3.providers.rpc.rpc.HTTPProvider
    method: POST
    uri: https://optimism.drpc.org/
  response:
    body:
      string: '{"id":0,"jsonrpc":"2.0","result":"Geth/v10.0.0/drpc"}'
    headers:
      CF-RAY:
      - 9a8f0013de20f14d-ORD
      Connection:
      - keep-alive
      Content-Type:
      - application/json
      Date:
      - Thu, 04 Dec 2025 23:14:29 GMT
      Server:
      - cloudflare
      access-control-allow-origin:
      - '*'
      alt-svc:
      - h3=":443"; ma=86400
      cf-cache-status:
      - DYNAMIC
      content-length:
      - '53'
      strict-transport-security:
      - max-age=31536000; includeSubDomains
      vary:
      - Accept-Encoding
      x-drpc-owner-id:
      - cb501251-31a8-4028-8b0a-54679f15c385
      x-drpc-owner-tier:
      - free
      x-drpc-trace-id:
      - 98510a909a1340f7eab4482139975b08
    status:
      code: 200
      message: OK
- request:
    body: '{"jsonrpc": "2.0", "method": "net_version", "params": [], "id": 1}'
    headers:
      Accept:
      - '*/*'
      Accept-Encoding:
      - gzip, deflate
      Connection:
      - keep-alive
      Content-Length:
      - '66'
      Content-Type:
      - application/json
      User-Agent:
      - web3.py/7.13.0/web3.providers.rpc.rpc.HTTPProvider
    method: POST
    uri: https://optimism.drpc.org/
  response:
    body:
      string: '{"id":1,"jsonrpc":"2.0","result":"10"}'
    headers:
      CF-RAY:
      - 9a8f0014ac420009-ORD
      Connection:
      - keep-alive
      Content-Type:
      - application/json
      Date:
      - Thu, 04 Dec 2025 23:14:29 GMT
      Server:
      - cloudflare
      access-control-allow-origin:
      - '*'
      alt-svc:
      - h3=":443"; ma=86400
      cf-cache-status:
      - DYNAMIC
      content-length:
      - '38'
      strict-transport-security:
      - max-age=31536000; includeSubDomains
      vary:
      - Accept-Encoding
      x-drpc-owner-id:
      - cb501251-31a8-4028-8b0a-54679f15c385
      x-drpc-owner-tier:
      - free
      x-drpc-trace-id:
      - 779b43a443cbacc3cc598d9c7e438480
    status:
      code: 200
      message: OK
- request:
    body: '{"jsonrpc": "2.0", "method": "eth_blockNumber", "params": [], "id": 2}'
    headers:
      Accept:
      - '*/*'
      Accept-Encoding:
      - gzip, deflate
      Connection:
      - keep-alive
      Content-Length:
      - '70'
      Content-Type:
      - application/json
      User-Agent:
      - web3.py/7.13.0/web3.providers.rpc.rpc.HTTPProvider
    method: POST
    uri: https://optimism.drpc.org/
  response:
    body:
      string: '{"id":2,"jsonrpc":"2.0","result":"0x89f1e0e"}'
    headers:
      CF-RAY:
      - 9a8f00158c4eb0fc-ORD
      Connection:
      - keep-alive
      Content-Type:
      - application/json
      Date:
      - Thu, 04 Dec 2025 23:14:29 GMT
      Server:
      - cloudflare
      access-control-allow-origin:
      - '*'
      alt-svc:
      - h3=":443"; ma=86400
      cf-cache-status:
      - DYNAMIC
      content-length:
      - '45'
      strict-transport-security:
      - max-age=31536000; includeSubDomains
      vary:
      - Accept-Encoding
      x-drpc-owner-id:
      - cb501251-31a8-4028-8b0a-54679f15c385
      x-drpc-owner-tier:
      - free
      x-drpc-trace-id:
      - 257374db2251580d0d5c0d5c907bae14
    status:
      code: 200
      message: OK
- request:
    body: '{"jsonrpc": "2.0", "method": "eth_getBalance", "params": ["0x76a05Df20bFEF5EcE3eB16afF9cb10134199A921",
      "0x12110"], "id": 3}'
    headers:
      Accept:
      - '*/*'
      Accept-Encoding:
      - gzip, deflate
      Connection:
      - keep-alive
      Content-Length:
      - '124'
      Content-Type:
      - application/json
      User-Agent:
      - web3.py/7.13.0/web3.providers.rpc.rpc.HTTPProvider
    method: POST
    uri: https://optimism.drpc.org/
  response:
    body:
      string: '{"id":3,"jsonrpc":"2.0","result":"0xb1a2bc2ec50000"}'
    headers:
      CF-RAY:
      - 9a8f00167f21e114-ORD
      Connection:
      - keep-alive
      Content-Type:
      - application/json
      Date:
      - Thu, 04 Dec 2025 23:14:29 GMT
      Server:
      - cloudflare
      access-control-allow-origin:
      - '*'
      alt-svc:
      - h3=":443"; ma=86400
      cf-cache-status:
      - DYNAMIC
      content-length:
      - '52'
      strict-transport-security:
      - max-age=31536000; includeSubDomains
      vary:
      - Accept-Encoding
      x-drpc-owner-id:
      - cb501251-31a8-4028-8b0a-54679f15c385
      x-drpc-owner-tier:
      - free
      x-drpc-provider-id:
      - drpc-public-multiregion
      x-drpc-trace-id:
      - 220c3a7d47c258fb75ff9464043c9c02
    status:
      code: 200
      message: OK
- request:
    body: '{"jsonrpc": "2.0", "method": "eth_getTransactionByHash", "params": ["0x5e77a04531c7c107af1882d76cbff9486d0a9aa53701c30888509d4f5f2b003a"],
      "id": 4}'
    headers:
      Accept:
      - '*/*'
      Accept-Encoding:
      - gzip, deflate
      Connection:
      - keep-alive
      Content-Length:
      - '147'
      Content-Type:
      - application/json
      User-Agent:
      - web3.py/7.13.0/web3.providers.rpc.rpc.HTTPProvider
    method: POST
    uri: https://optimism.drpc.org/
  response:
    body:
      string: '{"id":4,"jsonrpc":"2.0","result":{"blockHash":"0xbee7192e575af30420cae0c7776304ac196077ee72b048970549e4f08e875453","blockNumber":"0x1","transactionIndex":"0x0","hash":"0x5e77a04531c7c107af1882d76cbff9486d0a9aa53701c30888509d4f5f2b003a","from":"0x70b17c0fe982ab4a7ac17a4c25485643151a1f2d","to":"0x8ce8c13d816fe6daf12d6fd9e4952e1fc88850af","input":"0x202ee0ed000000000000000000000000000000000000000000000000000000000001421800000000000000000000000000000000000000000000000000000000d0e3ebf0","nonce":"0x28972","value":"0x0","gas":"0x7a120","gasPrice":"0x1","type":"0x0","v":"0x38","r":"0xc878d22e771004beb73e7a4268fd4f447735812b94b217f6807412efcec90d61","s":"0x3588018735fb361c49e5de54b266b8b157c1ba3d6ee08e3bcbdee7cd725c16e8","queueOrigin":"sequencer","l1Timestamp":"0x618d8837","l1BlockNumber":"0xcf7a45","index":"0x0","rawTransaction":"0xf8a883028972018307a120948ce8c13d816fe6daf12d6fd9e4952e1fc88850af80b844202ee0ed000000000000000000000000000000000000000000000000000000000001421800000000000000000000000000000000000000000000000000000000d0e3ebf038a0c878d22e771004beb73e7a4268fd4f447735812b94b217f6807412efcec90d61a03588018735fb361c49e5de54b266b8b157c1ba3d6ee08e3bcbdee7cd725c16e8"}}'
    headers:
      CF-RAY:
      - 9a8f00181cc5873b-ORD
      Connection:
      - keep-alive
      Content-Type:
      - application/json
      Date:
      - Thu, 04 Dec 2025 23:14:29 GMT
      Server:
      - cloudflare
      access-control-allow-origin:
      - '*'
      alt-svc:
      - h3=":443"; ma=86400
      cf-cache-status:
      - DYNAMIC
      content-length:
      - '1179'
      strict-transport-security:
      - max-age=31536000; includeSubDomains
      vary:
      - Accept-Encoding
      x-drpc-owner-id:
      - cb501251-31a8-4028-8b0a-54679f15c385
      x-drpc-owner-tier:
      - free
      x-drpc-provider-id:
      - drpc-public-multiregion
      x-drpc-trace-id:
      - ae3f9acd36be06e5951b5b291e2245d2
    status:
      code: 200
      message: OK
- request:
    body: '{"jsonrpc": "2.0", "method": "eth_getTransactionByHash", "params": ["0x92ae5e1c4b4a2d5e2af9c4abc415a9dc0b826ba1fa158c57219fc1b6e852a061"],
      "id": 5}'
    headers:
      Accept:
      - '*/*'
      Accept-Encoding:
      - gzip, deflate
      Connection:
      - keep-alive
      Content-Length:
      - '147'
      Content-Type:
      - application/json
      User-Agent:
      - web3.py/7.13.0/web3.providers.rpc.rpc.HTTPProvider
    method: POST
    uri: https://optimism.drpc.org/
  response:
    body:
      string: '{"id":5,"jsonrpc":"2.0","result":{"blockHash":"0x5e6f2a7cfd7f57bf7b8f8a9059ee6f2ae0617e24cfe9d919fa59c587d7a2122e","blockNumber":"0x67a933","from":"0xc37b40abdb939635068d3c5f13e7faf686f03b65","gas":"0xd09b","gasPrice":"0xf4240","hash":"0x92ae5e1c4b4a2d5e2af9c4abc415a9dc0b826ba1fa158c57219fc1b6e852a061","input":"0x095ea7b30000000000000000000000001111111254760f7ab3f16433eea9304126dcd199ffffffffffffffffffffffffffffffffffffffffffffffffffffffffffffffff","nonce":"0x0","to":"0x7f5c764cbc14f9669b88837ca1490cca17c31607","transactionIndex":"0x0","value":"0x0","type":"0x0","chainId":"0xa","v":"0x38","r":"0x85baca989b85b211ba48dcef60a5b8b4e72509e125069dc990206d69a60ea8b2","s":"0x584ba24b5538ed08fb633490333f97b54aa0e5644907d19358d1eb8e296cf2d8"}}'
    headers:
      CF-RAY:
      - 9a8f00195de086ea-ORD
      Connection:
      - keep-alive
      Content-Type:
      - application/json
      Date:
      - Thu, 04 Dec 2025 23:14:30 GMT
      Server:
      - cloudflare
      access-control-allow-origin:
      - '*'
      alt-svc:
      - h3=":443"; ma=86400
      cf-cache-status:
      - DYNAMIC
      content-length:
      - '743'
      strict-transport-security:
      - max-age=31536000; includeSubDomains
      vary:
      - Accept-Encoding
      x-drpc-owner-id:
      - cb501251-31a8-4028-8b0a-54679f15c385
      x-drpc-owner-tier:
      - free
      x-drpc-provider-id:
      - drpc-public-multiregion
      x-drpc-trace-id:
      - 5eee7c6d85c91bff7c7c2610ec916350
    status:
      code: 200
      message: OK
- request:
    body: '{"jsonrpc": "2.0", "method": "eth_getBlockByNumber", "params": ["0x67a933",
      false], "id": 6}'
    headers:
      Accept:
      - '*/*'
      Accept-Encoding:
      - gzip, deflate
      Connection:
      - keep-alive
      Content-Length:
      - '92'
      Content-Type:
      - application/json
      User-Agent:
      - web3.py/7.13.0/web3.providers.rpc.rpc.HTTPProvider
    method: POST
    uri: https://optimism.drpc.org/
  response:
    body:
      string: '{"id":6,"jsonrpc":"2.0","result":{"difficulty":"0x2","extraData":"0xd98301090a846765746889676f312e31352e3133856c696e7578000000000000c8878f3686a1b119b5403a6285434d136f20bfcff70a0fe77daa1673c48865f13ecb3bebc8c23319ea8b5c13c40fd17a92a9fdb6870ed547a92bbcd27769108f00","gasLimit":"0xe4e1c0","gasUsed":"0xd09b","hash":"0x5e6f2a7cfd7f57bf7b8f8a9059ee6f2ae0617e24cfe9d919fa59c587d7a2122e","logsBloom":"0x00000000000000000100008000000000000000000000000010000000000000000000000000000000000000000000000000000040000000000000400000200000000000000000000000000000000000000000000000000000000000000000000000000000000000000000000000000000000000000000000000000000000000000000000000000000000000000000000000000000000000000000000000000000020000000000000200000000000000000000000000000002000000000000000000000000000000000000000000000000000000000000000000000000000000000010000000000000000000000000000000000000080000000000000000010000","miner":"0x0000000000000000000000000000000000000000","mixHash":"0x0000000000000000000000000000000000000000000000000000000000000000","nonce":"0x0000000000000000","number":"0x67a933","parentHash":"0x4b86ea971f9fa904d6e4027db368090092137781c065f41b1a706001e8343527","receiptsRoot":"0xad4769d00b81e70f9b64ab902d675f08bcffe62e90f2a7bc571230590e797bb6","sha3Uncles":"0x1dcc4de8dec75d7aab85b567b6ccd41ad312451b948a7413f0a142fd40d49347","size":"0x30d","stateRoot":"0x9b164bbaea417520508d4121b8f5bfba4db91a699d660f17f9b469c85af2981e","timestamp":"0x626d0f21","transactions":["0x92ae5e1c4b4a2d5e2af9c4abc415a9dc0b826ba1fa158c57219fc1b6e852a061"],"transactionsRoot":"0x7cc9a371ce451591bad8fd6d7b8d477399a84f40c94d4d9187bb8afb4177f9dd","uncles":[]}}'
    headers:
      CF-RAY:
      - 9a8f001a1a57b78e-ORD
      Connection:
      - keep-alive
      Content-Type:
      - application/json
      Date:
      - Thu, 04 Dec 2025 23:14:30 GMT
      Server:
      - cloudflare
      access-control-allow-origin:
      - '*'
      alt-svc:
      - h3=":443"; ma=86400
      cf-cache-status:
      - DYNAMIC
      content-length:
      - '1647'
      strict-transport-security:
      - max-age=31536000; includeSubDomains
      vary:
      - Accept-Encoding
      x-drpc-owner-id:
      - cb501251-31a8-4028-8b0a-54679f15c385
      x-drpc-owner-tier:
      - free
      x-drpc-provider-id:
      - drpc-core-free
      x-drpc-trace-id:
      - c569b434fc4cb42796b24d317e898b43
    status:
      code: 200
      message: OK
- request:
    body: '{"jsonrpc": "2.0", "method": "web3_clientVersion", "params": [], "id":
      0}'
    headers:
      Accept:
      - '*/*'
      Accept-Encoding:
      - gzip, deflate
      Connection:
      - keep-alive
      Content-Length:
      - '73'
      Content-Type:
      - application/json
      User-Agent:
      - web3.py/7.13.0/web3.providers.rpc.rpc.HTTPProvider
    method: POST
    uri: https://mainnet.optimism.io/
  response:
    body:
      string: '{"jsonrpc":"2.0","result":"Geth/v1.101603.5-stable-904a088c/linux-amd64/go1.24.10","id":0}

        '
    headers:
      Alt-Svc:
      - h3=":443"; ma=2592000,h3-29=":443"; ma=2592000
      Content-Length:
      - '91'
      Content-Type:
      - application/json
      Date:
      - Thu, 04 Dec 2025 23:14:30 GMT
      Set-Cookie:
      - lb1=bd40a79ebf64e93e; Path=/
      Vary:
      - Origin
      Via:
      - 1.1 google
      X-Proxyd-Cache-Status:
      - MISS
    status:
      code: 200
      message: OK
- request:
    body: '{"jsonrpc": "2.0", "method": "net_version", "params": [], "id": 1}'
    headers:
      Accept:
      - '*/*'
      Accept-Encoding:
      - gzip, deflate
      Connection:
      - keep-alive
      Content-Length:
      - '66'
      Content-Type:
      - application/json
      Cookie:
      - lb1=bd40a79ebf64e93e
      User-Agent:
      - web3.py/7.13.0/web3.providers.rpc.rpc.HTTPProvider
    method: POST
    uri: https://mainnet.optimism.io/
  response:
    body:
      string: '{"jsonrpc":"2.0","result":"10","id":1}

        '
    headers:
      Alt-Svc:
      - h3=":443"; ma=2592000,h3-29=":443"; ma=2592000
      Content-Length:
      - '39'
      Content-Type:
      - application/json
      Date:
      - Thu, 04 Dec 2025 23:14:30 GMT
      Vary:
      - Origin
      Via:
      - 1.1 google
      X-Proxyd-Cache-Status:
      - HIT
    status:
      code: 200
      message: OK
- request:
    body: '{"jsonrpc": "2.0", "method": "eth_blockNumber", "params": [], "id": 2}'
    headers:
      Accept:
      - '*/*'
      Accept-Encoding:
      - gzip, deflate
      Connection:
      - keep-alive
      Content-Length:
      - '70'
      Content-Type:
      - application/json
      Cookie:
      - lb1=bd40a79ebf64e93e
      User-Agent:
      - web3.py/7.13.0/web3.providers.rpc.rpc.HTTPProvider
    method: POST
    uri: https://mainnet.optimism.io/
  response:
    body:
      string: '{"jsonrpc":"2.0","result":"0x89f1e0e","id":2}

        '
    headers:
      Alt-Svc:
      - h3=":443"; ma=2592000,h3-29=":443"; ma=2592000
      Content-Length:
      - '46'
      Content-Type:
      - application/json
      Date:
      - Thu, 04 Dec 2025 23:14:30 GMT
      Vary:
      - Origin
      Via:
      - 1.1 google
      X-Proxyd-Cache-Status:
      - MISS
    status:
      code: 200
      message: OK
- request:
    body: '{"jsonrpc": "2.0", "method": "eth_getBalance", "params": ["0x76a05Df20bFEF5EcE3eB16afF9cb10134199A921",
      "0x12110"], "id": 3}'
    headers:
      Accept:
      - '*/*'
      Accept-Encoding:
      - gzip, deflate
      Connection:
      - keep-alive
      Content-Length:
      - '124'
      Content-Type:
      - application/json
      Cookie:
      - lb1=bd40a79ebf64e93e
      User-Agent:
      - web3.py/7.13.0/web3.providers.rpc.rpc.HTTPProvider
    method: POST
    uri: https://mainnet.optimism.io/
  response:
    body:
      string: '{"jsonrpc":"2.0","result":"0xb1a2bc2ec50000","id":3}

        '
    headers:
      Alt-Svc:
      - h3=":443"; ma=2592000,h3-29=":443"; ma=2592000
      Content-Length:
      - '53'
      Content-Type:
      - application/json
      Date:
      - Thu, 04 Dec 2025 23:14:31 GMT
      Vary:
      - Origin
      Via:
      - 1.1 google
      X-Proxyd-Cache-Status:
      - MISS
    status:
      code: 200
      message: OK
- request:
    body: '{"jsonrpc": "2.0", "method": "eth_getTransactionByHash", "params": ["0x5e77a04531c7c107af1882d76cbff9486d0a9aa53701c30888509d4f5f2b003a"],
      "id": 4}'
    headers:
      Accept:
      - '*/*'
      Accept-Encoding:
      - gzip, deflate
      Connection:
      - keep-alive
      Content-Length:
      - '147'
      Content-Type:
      - application/json
      Cookie:
      - lb1=bd40a79ebf64e93e
      User-Agent:
      - web3.py/7.13.0/web3.providers.rpc.rpc.HTTPProvider
    method: POST
    uri: https://mainnet.optimism.io/
  response:
    body:
      string: '{"jsonrpc":"2.0","result":{"blockHash":"0xbee7192e575af30420cae0c7776304ac196077ee72b048970549e4f08e875453","blockNumber":"0x1","chainId":"0xa","from":"0x70b17c0fe982ab4a7ac17a4c25485643151a1f2d","gas":"0x7a120","gasPrice":"0x1","hash":"0x5e77a04531c7c107af1882d76cbff9486d0a9aa53701c30888509d4f5f2b003a","input":"0x202ee0ed000000000000000000000000000000000000000000000000000000000001421800000000000000000000000000000000000000000000000000000000d0e3ebf0","nonce":"0x28972","r":"0xc878d22e771004beb73e7a4268fd4f447735812b94b217f6807412efcec90d61","s":"0x3588018735fb361c49e5de54b266b8b157c1ba3d6ee08e3bcbdee7cd725c16e8","to":"0x8ce8c13d816fe6daf12d6fd9e4952e1fc88850af","transactionIndex":"0x0","type":"0x0","v":"0x38","value":"0x0"},"id":4}

        '
    headers:
      Alt-Svc:
      - h3=":443"; ma=2592000,h3-29=":443"; ma=2592000
      Content-Length:
      - '740'
      Content-Type:
      - application/json
      Date:
      - Thu, 04 Dec 2025 23:14:31 GMT
      Vary:
      - Origin
      Via:
      - 1.1 google
      X-Proxyd-Cache-Status:
      - MISS
    status:
      code: 200
      message: OK
- request:
    body: '{"jsonrpc": "2.0", "method": "eth_getTransactionReceipt", "params": ["0x92ae5e1c4b4a2d5e2af9c4abc415a9dc0b826ba1fa158c57219fc1b6e852a061"],
      "id": 5}'
    headers:
      Accept:
      - '*/*'
      Accept-Encoding:
      - gzip, deflate
      Connection:
      - keep-alive
      Content-Length:
      - '148'
      Content-Type:
      - application/json
      Cookie:
      - lb1=bd40a79ebf64e93e
      User-Agent:
      - web3.py/7.13.0/web3.providers.rpc.rpc.HTTPProvider
    method: POST
    uri: https://mainnet.optimism.io/
  response:
    body:
      string: '{"jsonrpc":"2.0","result":{"blockHash":"0x5e6f2a7cfd7f57bf7b8f8a9059ee6f2ae0617e24cfe9d919fa59c587d7a2122e","blockNumber":"0x67a933","contractAddress":null,"cumulativeGasUsed":"0xd09b","effectiveGasPrice":"0xf4240","from":"0xc37b40abdb939635068d3c5f13e7faf686f03b65","gasUsed":"0xd09b","l1Fee":null,"l1GasPrice":null,"l1GasUsed":null,"logs":[{"address":"0x7f5c764cbc14f9669b88837ca1490cca17c31607","blockHash":"0x5e6f2a7cfd7f57bf7b8f8a9059ee6f2ae0617e24cfe9d919fa59c587d7a2122e","blockNumber":"0x67a933","blockTimestamp":"0x626d0f21","data":"0xffffffffffffffffffffffffffffffffffffffffffffffffffffffffffffffff","logIndex":"0x0","removed":false,"topics":["0x8c5be1e5ebec7d5bd14f71427d1e84f3dd0314c0f7b2291e5b200ac8c7c3b925","0x000000000000000000000000c37b40abdb939635068d3c5f13e7faf686f03b65","0x0000000000000000000000001111111254760f7ab3f16433eea9304126dcd199"],"transactionHash":"0x92ae5e1c4b4a2d5e2af9c4abc415a9dc0b826ba1fa158c57219fc1b6e852a061","transactionIndex":"0x0"}],"logsBloom":"0x00000000000000000100008000000000000000000000000010000000000000000000000000000000000000000000000000000040000000000000400000200000000000000000000000000000000000000000000000000000000000000000000000000000000000000000000000000000000000000000000000000000000000000000000000000000000000000000000000000000000000000000000000000000020000000000000200000000000000000000000000000002000000000000000000000000000000000000000000000000000000000000000000000000000000000010000000000000000000000000000000000000080000000000000000010000","status":"0x1","to":"0x7f5c764cbc14f9669b88837ca1490cca17c31607","transactionHash":"0x92ae5e1c4b4a2d5e2af9c4abc415a9dc0b826ba1fa158c57219fc1b6e852a061","transactionIndex":"0x0","type":"0x0"},"id":5}

        '
    headers:
      Alt-Svc:
      - h3=":443"; ma=2592000,h3-29=":443"; ma=2592000
      Content-Length:
      - '1703'
      Content-Type:
      - application/json
      Date:
      - Thu, 04 Dec 2025 23:14:31 GMT
      Vary:
      - Origin
      Via:
      - 1.1 google
      X-Proxyd-Cache-Status:
      - MISS
    status:
      code: 200
      message: OK
- request:
    body: '{"jsonrpc": "2.0", "method": "eth_getTransactionByHash", "params": ["0x92ae5e1c4b4a2d5e2af9c4abc415a9dc0b826ba1fa158c57219fc1b6e852a061"],
      "id": 7}'
    headers:
      Accept:
      - '*/*'
      Accept-Encoding:
      - gzip, deflate
      Connection:
      - keep-alive
      Content-Length:
      - '147'
      Content-Type:
      - application/json
      User-Agent:
      - web3.py/7.13.0/web3.providers.rpc.rpc.HTTPProvider
    method: POST
    uri: https://optimism.drpc.org/
  response:
    body:
      string: '{"id":7,"jsonrpc":"2.0","result":{"blockHash":"0x5e6f2a7cfd7f57bf7b8f8a9059ee6f2ae0617e24cfe9d919fa59c587d7a2122e","blockNumber":"0x67a933","from":"0xc37b40abdb939635068d3c5f13e7faf686f03b65","gas":"0xd09b","gasPrice":"0xf4240","hash":"0x92ae5e1c4b4a2d5e2af9c4abc415a9dc0b826ba1fa158c57219fc1b6e852a061","input":"0x095ea7b30000000000000000000000001111111254760f7ab3f16433eea9304126dcd199ffffffffffffffffffffffffffffffffffffffffffffffffffffffffffffffff","nonce":"0x0","to":"0x7f5c764cbc14f9669b88837ca1490cca17c31607","transactionIndex":"0x0","value":"0x0","type":"0x0","chainId":"0xa","v":"0x38","r":"0x85baca989b85b211ba48dcef60a5b8b4e72509e125069dc990206d69a60ea8b2","s":"0x584ba24b5538ed08fb633490333f97b54aa0e5644907d19358d1eb8e296cf2d8"}}'
    headers:
      CF-RAY:
      - 9a8f00243eac232a-ORD
      Connection:
      - keep-alive
      Content-Type:
      - application/json
      Date:
      - Thu, 04 Dec 2025 23:14:31 GMT
      Server:
      - cloudflare
      access-control-allow-origin:
      - '*'
      alt-svc:
      - h3=":443"; ma=86400
      cf-cache-status:
      - DYNAMIC
      content-length:
      - '743'
      strict-transport-security:
      - max-age=31536000; includeSubDomains
      vary:
      - Accept-Encoding
      x-drpc-owner-id:
      - cb501251-31a8-4028-8b0a-54679f15c385
      x-drpc-owner-tier:
      - free
      x-drpc-provider-id:
      - drpc-public-multiregion
      x-drpc-trace-id:
      - 71802390fcac2a0fb0a180b715b3374f
    status:
      code: 200
      message: OK
- request:
    body: '{"jsonrpc": "2.0", "method": "eth_getBlockByNumber", "params": ["0x67a933",
      false], "id": 8}'
    headers:
      Accept:
      - '*/*'
      Accept-Encoding:
      - gzip, deflate
      Connection:
      - keep-alive
      Content-Length:
      - '92'
      Content-Type:
      - application/json
      User-Agent:
      - web3.py/7.13.0/web3.providers.rpc.rpc.HTTPProvider
    method: POST
    uri: https://optimism.drpc.org/
  response:
    body:
      string: '{"id":8,"jsonrpc":"2.0","result":{"difficulty":"0x2","extraData":"0xd98301090a846765746889676f312e31352e3133856c696e7578000000000000c8878f3686a1b119b5403a6285434d136f20bfcff70a0fe77daa1673c48865f13ecb3bebc8c23319ea8b5c13c40fd17a92a9fdb6870ed547a92bbcd27769108f00","gasLimit":"0xe4e1c0","gasUsed":"0xd09b","hash":"0x5e6f2a7cfd7f57bf7b8f8a9059ee6f2ae0617e24cfe9d919fa59c587d7a2122e","logsBloom":"0x00000000000000000100008000000000000000000000000010000000000000000000000000000000000000000000000000000040000000000000400000200000000000000000000000000000000000000000000000000000000000000000000000000000000000000000000000000000000000000000000000000000000000000000000000000000000000000000000000000000000000000000000000000000020000000000000200000000000000000000000000000002000000000000000000000000000000000000000000000000000000000000000000000000000000000010000000000000000000000000000000000000080000000000000000010000","miner":"0x0000000000000000000000000000000000000000","mixHash":"0x0000000000000000000000000000000000000000000000000000000000000000","nonce":"0x0000000000000000","number":"0x67a933","parentHash":"0x4b86ea971f9fa904d6e4027db368090092137781c065f41b1a706001e8343527","receiptsRoot":"0xad4769d00b81e70f9b64ab902d675f08bcffe62e90f2a7bc571230590e797bb6","sha3Uncles":"0x1dcc4de8dec75d7aab85b567b6ccd41ad312451b948a7413f0a142fd40d49347","size":"0x30d","stateRoot":"0x9b164bbaea417520508d4121b8f5bfba4db91a699d660f17f9b469c85af2981e","timestamp":"0x626d0f21","transactions":["0x92ae5e1c4b4a2d5e2af9c4abc415a9dc0b826ba1fa158c57219fc1b6e852a061"],"transactionsRoot":"0x7cc9a371ce451591bad8fd6d7b8d477399a84f40c94d4d9187bb8afb4177f9dd","uncles":[]}}'
    headers:
      CF-RAY:
      - 9a8f00251c5586ec-ORD
      Connection:
      - keep-alive
      Content-Type:
      - application/json
      Date:
      - Thu, 04 Dec 2025 23:14:31 GMT
      Server:
      - cloudflare
      access-control-allow-origin:
      - '*'
      alt-svc:
      - h3=":443"; ma=86400
      cf-cache-status:
      - DYNAMIC
      content-length:
      - '1647'
      strict-transport-security:
      - max-age=31536000; includeSubDomains
      vary:
      - Accept-Encoding
      x-drpc-owner-id:
      - cb501251-31a8-4028-8b0a-54679f15c385
      x-drpc-owner-tier:
      - free
      x-drpc-provider-id:
      - drpc-public-multiregion
      x-drpc-trace-id:
      - 17bd0ede0efca4f6ab9bc417e197a01c
    status:
      code: 200
      message: OK
- request:
    body: '{"jsonrpc": "2.0", "method": "eth_getTransactionReceipt", "params": ["0x92ae5e1c4b4a2d5e2af9c4abc415a9dc0b826ba1fa158c57219fc1b6e852a061"],
      "id": 6}'
    headers:
      Accept:
      - '*/*'
      Accept-Encoding:
      - gzip, deflate
      Connection:
      - keep-alive
      Content-Length:
      - '148'
      Content-Type:
      - application/json
      Cookie:
      - lb1=bd40a79ebf64e93e
      User-Agent:
      - web3.py/7.13.0/web3.providers.rpc.rpc.HTTPProvider
    method: POST
    uri: https://mainnet.optimism.io/
  response:
    body:
      string: '{"jsonrpc":"2.0","result":{"blockHash":"0x5e6f2a7cfd7f57bf7b8f8a9059ee6f2ae0617e24cfe9d919fa59c587d7a2122e","blockNumber":"0x67a933","contractAddress":null,"cumulativeGasUsed":"0xd09b","effectiveGasPrice":"0xf4240","from":"0xc37b40abdb939635068d3c5f13e7faf686f03b65","gasUsed":"0xd09b","l1Fee":null,"l1GasPrice":null,"l1GasUsed":null,"logs":[{"address":"0x7f5c764cbc14f9669b88837ca1490cca17c31607","blockHash":"0x5e6f2a7cfd7f57bf7b8f8a9059ee6f2ae0617e24cfe9d919fa59c587d7a2122e","blockNumber":"0x67a933","blockTimestamp":"0x626d0f21","data":"0xffffffffffffffffffffffffffffffffffffffffffffffffffffffffffffffff","logIndex":"0x0","removed":false,"topics":["0x8c5be1e5ebec7d5bd14f71427d1e84f3dd0314c0f7b2291e5b200ac8c7c3b925","0x000000000000000000000000c37b40abdb939635068d3c5f13e7faf686f03b65","0x0000000000000000000000001111111254760f7ab3f16433eea9304126dcd199"],"transactionHash":"0x92ae5e1c4b4a2d5e2af9c4abc415a9dc0b826ba1fa158c57219fc1b6e852a061","transactionIndex":"0x0"}],"logsBloom":"0x00000000000000000100008000000000000000000000000010000000000000000000000000000000000000000000000000000040000000000000400000200000000000000000000000000000000000000000000000000000000000000000000000000000000000000000000000000000000000000000000000000000000000000000000000000000000000000000000000000000000000000000000000000000020000000000000200000000000000000000000000000002000000000000000000000000000000000000000000000000000000000000000000000000000000000010000000000000000000000000000000000000080000000000000000010000","status":"0x1","to":"0x7f5c764cbc14f9669b88837ca1490cca17c31607","transactionHash":"0x92ae5e1c4b4a2d5e2af9c4abc415a9dc0b826ba1fa158c57219fc1b6e852a061","transactionIndex":"0x0","type":"0x0"},"id":6}

        '
    headers:
      Alt-Svc:
      - h3=":443"; ma=2592000,h3-29=":443"; ma=2592000
      Content-Length:
      - '1703'
      Content-Type:
      - application/json
      Date:
      - Thu, 04 Dec 2025 23:14:32 GMT
      Vary:
      - Origin
      Via:
      - 1.1 google
      X-Proxyd-Cache-Status:
      - MISS
    status:
      code: 200
      message: OK
- request:
    body: null
    headers:
      Accept:
      - '*/*'
      Accept-Encoding:
      - gzip, deflate
      Connection:
      - keep-alive
      User-Agent:
      - rotki/1.41.2.dev4+ga3b1a8a72.d20251125
    method: GET
    uri: https://explorer.optimism.io/api/v2/transactions/0x92ae5e1c4b4a2d5e2af9c4abc415a9dc0b826ba1fa158c57219fc1b6e852a061
  response:
    body:
      string: '{"l1_gas_used":"4676","priority_fee":null,"raw_input":"0x095ea7b30000000000000000000000001111111254760f7ab3f16433eea9304126dcd199ffffffffffffffffffffffffffffffffffffffffffffffffffffffffffffffff","is_pending_update":false,"op_withdrawals":[],"result":"success","hash":"0x92ae5e1c4b4a2d5e2af9c4abc415a9dc0b826ba1fa158c57219fc1b6e852a061","max_fee_per_gas":null,"revert_reason":null,"confirmation_duration":[0,2.0e3],"transaction_burnt_fee":null,"type":null,"token_transfers_overflow":false,"confirmations":137852111,"position":0,"max_priority_fee_per_gas":null,"transaction_tag":null,"created_contract":null,"value":"0","l1_fee_scalar":"1.0","from":{"ens_domain_name":"yabir.eth","hash":"0xc37b40ABdB939635068d3c5f13E7faF686F03B65","implementations":[],"is_contract":false,"is_scam":false,"is_verified":false,"metadata":null,"name":null,"private_tags":[],"proxy_type":null,"public_tags":[],"reputation":"ok","watchlist_names":[]},"gas_used":"53403","status":"ok","to":{"ens_domain_name":null,"hash":"0x7F5c764cBc14f9669B88837ca1490cCa17c31607","implementations":[],"is_contract":true,"is_scam":false,"is_verified":true,"metadata":{"tags":[{"meta":{},"name":"USD
        Coin (Bridged from Ethereum) (USDC.e)","ordinal":10,"slug":"usd-coin-bridged-from-ethereum-usdce","tagType":"name"},{"meta":{"projectName":"Optimism","tagUrl":"https://app.klerosscout.eth.limo/#/?registry=Single_Tags&itemdetails=0xac2bf0207eda8eb6d9d26350e1939b532b8d497f33184c4ed0e5eb1160313ae1@0x66260c69d03837016d88c9877e61e08ef74c59f2","tooltipDescription":"USDC
        bridged from Ethereum by Optimism","tooltipUrl":"https://optimism.io/"},"name":"USDC.e
        Token","ordinal":10,"slug":"usdce-token-10","tagType":"name"},{"meta":{"alertStatus":"info","data":"This
        nametag was submitted by Kleros Curate."},"name":"note_0","ordinal":0,"slug":"note0","tagType":"note"},{"meta":{},"name":"Optimism","ordinal":0,"slug":"optimism","tagType":"protocol"}]},"name":"OVMFiatToken","private_tags":[],"proxy_type":null,"public_tags":[],"reputation":"ok","watchlist_names":[]},"authorization_list":[],"l1_fee":"97960903705252","method":"approve","fee":{"type":"actual","value":"98014306705252"},"actions":[],"gas_limit":"53403","gas_price":"1000000","decoded_input":{"method_call":"approve(address
        spender, uint256 amount)","method_id":"095ea7b3","parameters":[{"name":"spender","type":"address","value":"0x1111111254760F7ab3F16433eea9304126DCd199"},{"name":"amount","type":"uint256","value":"115792089237316195423570985008687907853269984665640564039457584007913129639935"}]},"l1_gas_price":"20949722777","token_transfers":[],"base_fee_per_gas":null,"timestamp":"2022-04-30T10:27:45.000000Z","nonce":0,"historic_exchange_rate":"2726.98","transaction_types":["contract_call"],"exchange_rate":"3137.46","block_number":6793523,"has_error_in_internal_transactions":null}'
    headers:
      CF-RAY:
      - 9a8f00286ca57dda-ORD
      Cache-Control:
      - max-age=0, private, must-revalidate
      Connection:
      - keep-alive
      Content-Type:
      - application/json; charset=utf-8
      Date:
      - Thu, 04 Dec 2025 23:14:33 GMT
      Nel:
      - '{"report_to":"cf-nel","success_fraction":0.0,"max_age":604800}'
      Report-To:
      - '{"group":"cf-nel","max_age":604800,"endpoints":[{"url":"https://a.nel.cloudflare.com/report/v4?s=P9lfDU6gSLY27W6aYQZAnLfrC37iMET2qL4T3x0JvK%2BapITd1RK4br9HLNG%2B66iJTT7zS6UMVenmbdUQujVgdZ%2FXip%2FmtzY0yIjQ84i5Wlp6GUoX"}]}'
      Server:
      - cloudflare
      Transfer-Encoding:
      - chunked
      access-control-allow-credentials:
      - 'true'
      access-control-allow-origin:
      - '*'
      access-control-expose-headers:
      - bypass-429-option,x-ratelimit-reset,x-ratelimit-limit,x-ratelimit-remaining,api-v2-temp-token
      alt-svc:
      - h3=":443"; ma=86400
      bypass-429-option:
      - temporary_token
      cf-cache-status:
      - DYNAMIC
      content-length:
      - '2809'
      strict-transport-security:
      - max-age=31536000; includeSubDomains
      x-ratelimit-limit:
      - '600'
      x-ratelimit-remaining:
      - '599'
      x-ratelimit-reset:
      - '27297'
      x-request-id:
      - 58ec4589eb9c50442a2bd5243644ad1f
    status:
      code: 200
      message: OK
- request:
    body: '{"jsonrpc": "2.0", "method": "eth_getTransactionByHash", "params": ["0x92ae5e1c4b4a2d5e2af9c4abc415a9dc0b826ba1fa158c57219fc1b6e852a061"],
      "id": 9}'
    headers:
      Accept:
      - '*/*'
      Accept-Encoding:
      - gzip, deflate
      Connection:
      - keep-alive
      Content-Length:
      - '147'
      Content-Type:
      - application/json
      User-Agent:
      - web3.py/7.13.0/web3.providers.rpc.rpc.HTTPProvider
    method: POST
    uri: https://optimism.drpc.org/
  response:
    body:
      string: '{"id":9,"jsonrpc":"2.0","result":{"blockHash":"0x5e6f2a7cfd7f57bf7b8f8a9059ee6f2ae0617e24cfe9d919fa59c587d7a2122e","blockNumber":"0x67a933","from":"0xc37b40abdb939635068d3c5f13e7faf686f03b65","gas":"0xd09b","gasPrice":"0xf4240","hash":"0x92ae5e1c4b4a2d5e2af9c4abc415a9dc0b826ba1fa158c57219fc1b6e852a061","input":"0x095ea7b30000000000000000000000001111111254760f7ab3f16433eea9304126dcd199ffffffffffffffffffffffffffffffffffffffffffffffffffffffffffffffff","nonce":"0x0","to":"0x7f5c764cbc14f9669b88837ca1490cca17c31607","transactionIndex":"0x0","value":"0x0","type":"0x0","chainId":"0xa","v":"0x38","r":"0x85baca989b85b211ba48dcef60a5b8b4e72509e125069dc990206d69a60ea8b2","s":"0x584ba24b5538ed08fb633490333f97b54aa0e5644907d19358d1eb8e296cf2d8"}}'
    headers:
      CF-RAY:
      - 9a8f002dbf7a1ee4-ORD
      Connection:
      - keep-alive
      Content-Type:
      - application/json
      Date:
      - Thu, 04 Dec 2025 23:14:33 GMT
      Server:
      - cloudflare
      access-control-allow-origin:
      - '*'
      alt-svc:
      - h3=":443"; ma=86400
      cf-cache-status:
      - DYNAMIC
      content-length:
      - '743'
      strict-transport-security:
      - max-age=31536000; includeSubDomains
      vary:
      - Accept-Encoding
      x-drpc-owner-id:
      - cb501251-31a8-4028-8b0a-54679f15c385
      x-drpc-owner-tier:
      - free
      x-drpc-provider-id:
      - drpc-public-multiregion
      x-drpc-trace-id:
      - d5c7eb32898ddda81d25914c619879cf
    status:
      code: 200
      message: OK
- request:
    body: '{"jsonrpc": "2.0", "method": "eth_getBlockByNumber", "params": ["0x67a933",
      false], "id": 10}'
    headers:
      Accept:
      - '*/*'
      Accept-Encoding:
      - gzip, deflate
      Connection:
      - keep-alive
      Content-Length:
      - '93'
      Content-Type:
      - application/json
      User-Agent:
      - web3.py/7.13.0/web3.providers.rpc.rpc.HTTPProvider
    method: POST
    uri: https://optimism.drpc.org/
  response:
    body:
      string: '{"id":10,"jsonrpc":"2.0","result":{"difficulty":"0x2","extraData":"0xd98301090a846765746889676f312e31352e3133856c696e7578000000000000c8878f3686a1b119b5403a6285434d136f20bfcff70a0fe77daa1673c48865f13ecb3bebc8c23319ea8b5c13c40fd17a92a9fdb6870ed547a92bbcd27769108f00","gasLimit":"0xe4e1c0","gasUsed":"0xd09b","hash":"0x5e6f2a7cfd7f57bf7b8f8a9059ee6f2ae0617e24cfe9d919fa59c587d7a2122e","logsBloom":"0x00000000000000000100008000000000000000000000000010000000000000000000000000000000000000000000000000000040000000000000400000200000000000000000000000000000000000000000000000000000000000000000000000000000000000000000000000000000000000000000000000000000000000000000000000000000000000000000000000000000000000000000000000000000020000000000000200000000000000000000000000000002000000000000000000000000000000000000000000000000000000000000000000000000000000000010000000000000000000000000000000000000080000000000000000010000","miner":"0x0000000000000000000000000000000000000000","mixHash":"0x0000000000000000000000000000000000000000000000000000000000000000","nonce":"0x0000000000000000","number":"0x67a933","parentHash":"0x4b86ea971f9fa904d6e4027db368090092137781c065f41b1a706001e8343527","receiptsRoot":"0xad4769d00b81e70f9b64ab902d675f08bcffe62e90f2a7bc571230590e797bb6","sha3Uncles":"0x1dcc4de8dec75d7aab85b567b6ccd41ad312451b948a7413f0a142fd40d49347","size":"0x30d","stateRoot":"0x9b164bbaea417520508d4121b8f5bfba4db91a699d660f17f9b469c85af2981e","timestamp":"0x626d0f21","transactions":["0x92ae5e1c4b4a2d5e2af9c4abc415a9dc0b826ba1fa158c57219fc1b6e852a061"],"transactionsRoot":"0x7cc9a371ce451591bad8fd6d7b8d477399a84f40c94d4d9187bb8afb4177f9dd","uncles":[]}}'
    headers:
      CF-RAY:
      - 9a8f002e6a2d11ab-ORD
      Connection:
      - keep-alive
      Content-Type:
      - application/json
      Date:
      - Thu, 04 Dec 2025 23:14:33 GMT
      Server:
      - cloudflare
      access-control-allow-origin:
      - '*'
      alt-svc:
      - h3=":443"; ma=86400
      cf-cache-status:
      - DYNAMIC
      content-length:
      - '1648'
      strict-transport-security:
      - max-age=31536000; includeSubDomains
      vary:
      - Accept-Encoding
      x-drpc-owner-id:
      - cb501251-31a8-4028-8b0a-54679f15c385
      x-drpc-owner-tier:
      - free
      x-drpc-provider-id:
      - drpc-core-free
      x-drpc-trace-id:
      - a16f7915dfe329c5cf2134cce04000e2
    status:
      code: 200
      message: OK
- request:
    body: '{"jsonrpc": "2.0", "method": "eth_getTransactionReceipt", "params": ["0x92ae5e1c4b4a2d5e2af9c4abc415a9dc0b826ba1fa158c57219fc1b6e852a061"],
      "id": 7}'
    headers:
      Accept:
      - '*/*'
      Accept-Encoding:
      - gzip, deflate
      Connection:
      - keep-alive
      Content-Length:
      - '148'
      Content-Type:
      - application/json
      Cookie:
      - lb1=bd40a79ebf64e93e
      User-Agent:
      - web3.py/7.13.0/web3.providers.rpc.rpc.HTTPProvider
    method: POST
    uri: https://mainnet.optimism.io/
  response:
    body:
      string: '{"jsonrpc":"2.0","result":{"blockHash":"0x5e6f2a7cfd7f57bf7b8f8a9059ee6f2ae0617e24cfe9d919fa59c587d7a2122e","blockNumber":"0x67a933","contractAddress":null,"cumulativeGasUsed":"0xd09b","effectiveGasPrice":"0xf4240","from":"0xc37b40abdb939635068d3c5f13e7faf686f03b65","gasUsed":"0xd09b","l1Fee":null,"l1GasPrice":null,"l1GasUsed":null,"logs":[{"address":"0x7f5c764cbc14f9669b88837ca1490cca17c31607","blockHash":"0x5e6f2a7cfd7f57bf7b8f8a9059ee6f2ae0617e24cfe9d919fa59c587d7a2122e","blockNumber":"0x67a933","blockTimestamp":"0x626d0f21","data":"0xffffffffffffffffffffffffffffffffffffffffffffffffffffffffffffffff","logIndex":"0x0","removed":false,"topics":["0x8c5be1e5ebec7d5bd14f71427d1e84f3dd0314c0f7b2291e5b200ac8c7c3b925","0x000000000000000000000000c37b40abdb939635068d3c5f13e7faf686f03b65","0x0000000000000000000000001111111254760f7ab3f16433eea9304126dcd199"],"transactionHash":"0x92ae5e1c4b4a2d5e2af9c4abc415a9dc0b826ba1fa158c57219fc1b6e852a061","transactionIndex":"0x0"}],"logsBloom":"0x00000000000000000100008000000000000000000000000010000000000000000000000000000000000000000000000000000040000000000000400000200000000000000000000000000000000000000000000000000000000000000000000000000000000000000000000000000000000000000000000000000000000000000000000000000000000000000000000000000000000000000000000000000000020000000000000200000000000000000000000000000002000000000000000000000000000000000000000000000000000000000000000000000000000000000010000000000000000000000000000000000000080000000000000000010000","status":"0x1","to":"0x7f5c764cbc14f9669b88837ca1490cca17c31607","transactionHash":"0x92ae5e1c4b4a2d5e2af9c4abc415a9dc0b826ba1fa158c57219fc1b6e852a061","transactionIndex":"0x0","type":"0x0"},"id":7}

        '
    headers:
      Alt-Svc:
      - h3=":443"; ma=2592000,h3-29=":443"; ma=2592000
      Content-Length:
      - '1703'
      Content-Type:
      - application/json
      Date:
      - Thu, 04 Dec 2025 23:14:33 GMT
      Vary:
      - Origin
      Via:
      - 1.1 google
      X-Proxyd-Cache-Status:
      - MISS
    status:
      code: 200
      message: OK
- request:
    body: null
    headers:
      Accept:
      - '*/*'
      Accept-Encoding:
      - gzip, deflate
      Connection:
      - keep-alive
      User-Agent:
      - rotki/1.41.2.dev4+ga3b1a8a72.d20251125
    method: GET
    uri: https://explorer.optimism.io/api/v2/transactions/0x92ae5e1c4b4a2d5e2af9c4abc415a9dc0b826ba1fa158c57219fc1b6e852a061
  response:
    body:
      string: '{"l1_gas_used":"4676","priority_fee":null,"raw_input":"0x095ea7b30000000000000000000000001111111254760f7ab3f16433eea9304126dcd199ffffffffffffffffffffffffffffffffffffffffffffffffffffffffffffffff","is_pending_update":false,"op_withdrawals":[],"result":"success","hash":"0x92ae5e1c4b4a2d5e2af9c4abc415a9dc0b826ba1fa158c57219fc1b6e852a061","max_fee_per_gas":null,"revert_reason":null,"confirmation_duration":[0,2.0e3],"transaction_burnt_fee":null,"type":null,"token_transfers_overflow":false,"confirmations":137852111,"position":0,"max_priority_fee_per_gas":null,"transaction_tag":null,"created_contract":null,"value":"0","l1_fee_scalar":"1.0","from":{"ens_domain_name":"yabir.eth","hash":"0xc37b40ABdB939635068d3c5f13E7faF686F03B65","implementations":[],"is_contract":false,"is_scam":false,"is_verified":false,"metadata":null,"name":null,"private_tags":[],"proxy_type":null,"public_tags":[],"reputation":"ok","watchlist_names":[]},"gas_used":"53403","status":"ok","to":{"ens_domain_name":null,"hash":"0x7F5c764cBc14f9669B88837ca1490cCa17c31607","implementations":[],"is_contract":true,"is_scam":false,"is_verified":true,"metadata":{"tags":[{"meta":{},"name":"USD
        Coin (Bridged from Ethereum) (USDC.e)","ordinal":10,"slug":"usd-coin-bridged-from-ethereum-usdce","tagType":"name"},{"meta":{"projectName":"Optimism","tagUrl":"https://app.klerosscout.eth.limo/#/?registry=Single_Tags&itemdetails=0xac2bf0207eda8eb6d9d26350e1939b532b8d497f33184c4ed0e5eb1160313ae1@0x66260c69d03837016d88c9877e61e08ef74c59f2","tooltipDescription":"USDC
        bridged from Ethereum by Optimism","tooltipUrl":"https://optimism.io/"},"name":"USDC.e
        Token","ordinal":10,"slug":"usdce-token","tagType":"name"},{"meta":{"alertStatus":"info","data":"This
        nametag was submitted by Kleros Curate."},"name":"note_0","ordinal":0,"slug":"note0","tagType":"note"},{"meta":{},"name":"Optimism","ordinal":0,"slug":"optimism","tagType":"protocol"}]},"name":"OVMFiatToken","private_tags":[],"proxy_type":null,"public_tags":[],"reputation":"ok","watchlist_names":[]},"authorization_list":[],"l1_fee":"97960903705252","method":"approve","fee":{"type":"actual","value":"98014306705252"},"actions":[],"gas_limit":"53403","gas_price":"1000000","decoded_input":{"method_call":"approve(address
        spender, uint256 amount)","method_id":"095ea7b3","parameters":[{"name":"spender","type":"address","value":"0x1111111254760F7ab3F16433eea9304126DCd199"},{"name":"amount","type":"uint256","value":"115792089237316195423570985008687907853269984665640564039457584007913129639935"}]},"l1_gas_price":"20949722777","token_transfers":[],"base_fee_per_gas":null,"timestamp":"2022-04-30T10:27:45.000000Z","nonce":0,"historic_exchange_rate":"2726.98","transaction_types":["contract_call"],"exchange_rate":"3142.19","block_number":6793523,"has_error_in_internal_transactions":null}'
    headers:
      CF-RAY:
      - 9a8f00317f02c6f4-ORD
      Cache-Control:
      - max-age=0, private, must-revalidate
      Connection:
      - keep-alive
      Content-Type:
      - application/json; charset=utf-8
      Date:
      - Thu, 04 Dec 2025 23:14:34 GMT
      Nel:
      - '{"report_to":"cf-nel","success_fraction":0.0,"max_age":604800}'
      Report-To:
      - '{"group":"cf-nel","max_age":604800,"endpoints":[{"url":"https://a.nel.cloudflare.com/report/v4?s=q4AYBHnOR88tMfmimOTb%2FxBwNhgz8pTdZDUH9r8ndbRK7QsmDZ8bonlTDkjfR%2B2TOMvWpKydCRQ7r1zQYiJr1NGcBG9eW%2FnHrTfpoUkh4J0kmscF"}]}'
      Server:
      - cloudflare
      Transfer-Encoding:
      - chunked
      access-control-allow-credentials:
      - 'true'
      access-control-allow-origin:
      - '*'
      access-control-expose-headers:
      - bypass-429-option,x-ratelimit-reset,x-ratelimit-limit,x-ratelimit-remaining,api-v2-temp-token
      alt-svc:
      - h3=":443"; ma=86400
      bypass-429-option:
      - temporary_token
      cf-cache-status:
      - DYNAMIC
      content-length:
      - '2806'
      strict-transport-security:
      - max-age=31536000; includeSubDomains
      x-ratelimit-limit:
      - '600'
      x-ratelimit-remaining:
      - '598'
      x-ratelimit-reset:
      - '25852'
      x-request-id:
      - bb785e0746bf9c25f654dc3ff3920edc
    status:
      code: 200
      message: OK
- request:
    body: '{"jsonrpc": "2.0", "method": "eth_getTransactionByHash", "params": ["0x92ae5e1c4b4a2d5e2af9c4abc415a9dc0b826ba1fa158c57219fc1b6e852a061"],
      "id": 11}'
    headers:
      Accept:
      - '*/*'
      Accept-Encoding:
      - gzip, deflate
      Connection:
      - keep-alive
      Content-Length:
      - '148'
      Content-Type:
      - application/json
      User-Agent:
      - web3.py/7.13.0/web3.providers.rpc.rpc.HTTPProvider
    method: POST
    uri: https://optimism.drpc.org/
  response:
    body:
      string: '{"id":11,"jsonrpc":"2.0","result":{"blockHash":"0x5e6f2a7cfd7f57bf7b8f8a9059ee6f2ae0617e24cfe9d919fa59c587d7a2122e","blockNumber":"0x67a933","transactionIndex":"0x0","hash":"0x92ae5e1c4b4a2d5e2af9c4abc415a9dc0b826ba1fa158c57219fc1b6e852a061","from":"0xc37b40abdb939635068d3c5f13e7faf686f03b65","to":"0x7f5c764cbc14f9669b88837ca1490cca17c31607","input":"0x095ea7b30000000000000000000000001111111254760f7ab3f16433eea9304126dcd199ffffffffffffffffffffffffffffffffffffffffffffffffffffffffffffffff","nonce":"0x0","value":"0x0","gas":"0xd09b","gasPrice":"0xf4240","type":"0x0","v":"0x38","r":"0x85baca989b85b211ba48dcef60a5b8b4e72509e125069dc990206d69a60ea8b2","s":"0x584ba24b5538ed08fb633490333f97b54aa0e5644907d19358d1eb8e296cf2d8","queueOrigin":"sequencer","l1Timestamp":"0x626d0f21","l1BlockNumber":"0xe01358","index":"0x67a932","rawTransaction":"0xf8a780830f424082d09b947f5c764cbc14f9669b88837ca1490cca17c3160780b844095ea7b30000000000000000000000001111111254760f7ab3f16433eea9304126dcd199ffffffffffffffffffffffffffffffffffffffffffffffffffffffffffffffff38a085baca989b85b211ba48dcef60a5b8b4e72509e125069dc990206d69a60ea8b2a0584ba24b5538ed08fb633490333f97b54aa0e5644907d19358d1eb8e296cf2d8"}}'
    headers:
      CF-RAY:
      - 9a8f0036e8a6dad8-ORD
      Connection:
      - keep-alive
      Content-Type:
      - application/json
      Date:
      - Thu, 04 Dec 2025 23:14:34 GMT
      Server:
      - cloudflare
      access-control-allow-origin:
      - '*'
      alt-svc:
      - h3=":443"; ma=86400
      cf-cache-status:
      - DYNAMIC
      content-length:
      - '1187'
      strict-transport-security:
      - max-age=31536000; includeSubDomains
      vary:
      - Accept-Encoding
      x-drpc-owner-id:
      - cb501251-31a8-4028-8b0a-54679f15c385
      x-drpc-owner-tier:
      - free
      x-drpc-provider-id:
      - drpc-public-multiregion
      x-drpc-trace-id:
      - fe3bd24a1440d2362bfe7227f0169ae6
    status:
      code: 200
      message: OK
- request:
    body: '{"jsonrpc": "2.0", "method": "eth_getBlockByNumber", "params": ["0x67a933",
      false], "id": 12}'
    headers:
      Accept:
      - '*/*'
      Accept-Encoding:
      - gzip, deflate
      Connection:
      - keep-alive
      Content-Length:
      - '93'
      Content-Type:
      - application/json
      User-Agent:
      - web3.py/7.13.0/web3.providers.rpc.rpc.HTTPProvider
    method: POST
    uri: https://optimism.drpc.org/
  response:
    body:
      string: '{"id":12,"jsonrpc":"2.0","result":{"difficulty":"0x2","extraData":"0xd98301090a846765746889676f312e31352e3133856c696e7578000000000000c8878f3686a1b119b5403a6285434d136f20bfcff70a0fe77daa1673c48865f13ecb3bebc8c23319ea8b5c13c40fd17a92a9fdb6870ed547a92bbcd27769108f00","gasLimit":"0xe4e1c0","gasUsed":"0xd09b","hash":"0x5e6f2a7cfd7f57bf7b8f8a9059ee6f2ae0617e24cfe9d919fa59c587d7a2122e","logsBloom":"0x00000000000000000100008000000000000000000000000010000000000000000000000000000000000000000000000000000040000000000000400000200000000000000000000000000000000000000000000000000000000000000000000000000000000000000000000000000000000000000000000000000000000000000000000000000000000000000000000000000000000000000000000000000000020000000000000200000000000000000000000000000002000000000000000000000000000000000000000000000000000000000000000000000000000000000010000000000000000000000000000000000000080000000000000000010000","miner":"0x0000000000000000000000000000000000000000","mixHash":"0x0000000000000000000000000000000000000000000000000000000000000000","nonce":"0x0000000000000000","number":"0x67a933","parentHash":"0x4b86ea971f9fa904d6e4027db368090092137781c065f41b1a706001e8343527","receiptsRoot":"0xad4769d00b81e70f9b64ab902d675f08bcffe62e90f2a7bc571230590e797bb6","sha3Uncles":"0x1dcc4de8dec75d7aab85b567b6ccd41ad312451b948a7413f0a142fd40d49347","size":"0x30d","stateRoot":"0x9b164bbaea417520508d4121b8f5bfba4db91a699d660f17f9b469c85af2981e","timestamp":"0x626d0f21","transactions":["0x92ae5e1c4b4a2d5e2af9c4abc415a9dc0b826ba1fa158c57219fc1b6e852a061"],"transactionsRoot":"0x7cc9a371ce451591bad8fd6d7b8d477399a84f40c94d4d9187bb8afb4177f9dd","uncles":[]}}'
    headers:
      CF-RAY:
      - 9a8f00391c49af34-ORD
      Connection:
      - keep-alive
      Content-Type:
      - application/json
      Date:
      - Thu, 04 Dec 2025 23:14:35 GMT
      Server:
      - cloudflare
      access-control-allow-origin:
      - '*'
      alt-svc:
      - h3=":443"; ma=86400
      cf-cache-status:
      - DYNAMIC
      content-length:
      - '1648'
      strict-transport-security:
      - max-age=31536000; includeSubDomains
      vary:
      - Accept-Encoding
      x-drpc-owner-id:
      - cb501251-31a8-4028-8b0a-54679f15c385
      x-drpc-owner-tier:
      - free
      x-drpc-provider-id:
      - drpc-public-multiregion
      x-drpc-trace-id:
      - b6dad81311a322f77516eede849fc070
    status:
      code: 200
      message: OK
- request:
    body: '{"jsonrpc": "2.0", "method": "eth_getTransactionReceipt", "params": ["0x92ae5e1c4b4a2d5e2af9c4abc415a9dc0b826ba1fa158c57219fc1b6e852a061"],
      "id": 8}'
    headers:
      Accept:
      - '*/*'
      Accept-Encoding:
      - gzip, deflate
      Connection:
      - keep-alive
      Content-Length:
      - '148'
      Content-Type:
      - application/json
      Cookie:
      - lb1=bd40a79ebf64e93e
      User-Agent:
      - web3.py/7.13.0/web3.providers.rpc.rpc.HTTPProvider
    method: POST
    uri: https://mainnet.optimism.io/
  response:
    body:
      string: '{"jsonrpc":"2.0","result":{"blockHash":"0x5e6f2a7cfd7f57bf7b8f8a9059ee6f2ae0617e24cfe9d919fa59c587d7a2122e","blockNumber":"0x67a933","contractAddress":null,"cumulativeGasUsed":"0xd09b","effectiveGasPrice":"0xf4240","from":"0xc37b40abdb939635068d3c5f13e7faf686f03b65","gasUsed":"0xd09b","l1Fee":null,"l1GasPrice":null,"l1GasUsed":null,"logs":[{"address":"0x7f5c764cbc14f9669b88837ca1490cca17c31607","blockHash":"0x5e6f2a7cfd7f57bf7b8f8a9059ee6f2ae0617e24cfe9d919fa59c587d7a2122e","blockNumber":"0x67a933","blockTimestamp":"0x626d0f21","data":"0xffffffffffffffffffffffffffffffffffffffffffffffffffffffffffffffff","logIndex":"0x0","removed":false,"topics":["0x8c5be1e5ebec7d5bd14f71427d1e84f3dd0314c0f7b2291e5b200ac8c7c3b925","0x000000000000000000000000c37b40abdb939635068d3c5f13e7faf686f03b65","0x0000000000000000000000001111111254760f7ab3f16433eea9304126dcd199"],"transactionHash":"0x92ae5e1c4b4a2d5e2af9c4abc415a9dc0b826ba1fa158c57219fc1b6e852a061","transactionIndex":"0x0"}],"logsBloom":"0x00000000000000000100008000000000000000000000000010000000000000000000000000000000000000000000000000000040000000000000400000200000000000000000000000000000000000000000000000000000000000000000000000000000000000000000000000000000000000000000000000000000000000000000000000000000000000000000000000000000000000000000000000000000020000000000000200000000000000000000000000000002000000000000000000000000000000000000000000000000000000000000000000000000000000000010000000000000000000000000000000000000080000000000000000010000","status":"0x1","to":"0x7f5c764cbc14f9669b88837ca1490cca17c31607","transactionHash":"0x92ae5e1c4b4a2d5e2af9c4abc415a9dc0b826ba1fa158c57219fc1b6e852a061","transactionIndex":"0x0","type":"0x0"},"id":8}

        '
    headers:
      Alt-Svc:
      - h3=":443"; ma=2592000,h3-29=":443"; ma=2592000
      Content-Length:
      - '1703'
      Content-Type:
      - application/json
      Date:
      - Thu, 04 Dec 2025 23:14:35 GMT
      Vary:
      - Origin
      Via:
      - 1.1 google
      X-Proxyd-Cache-Status:
      - MISS
    status:
      code: 200
      message: OK
- request:
    body: null
    headers:
      Accept:
      - '*/*'
      Accept-Encoding:
      - gzip, deflate
      Connection:
      - keep-alive
      User-Agent:
      - rotki/1.41.2.dev4+ga3b1a8a72.d20251125
    method: GET
    uri: https://api.routescan.io/v2/network/mainnet/evm/10/etherscan/api?action=eth_getTransactionReceipt&module=proxy&txhash=0x92ae5e1c4b4a2d5e2af9c4abc415a9dc0b826ba1fa158c57219fc1b6e852a061
  response:
    body:
      string: '{"jsonrpc":"2.0","id":1,"result":{"blockHash":"0x5e6f2a7cfd7f57bf7b8f8a9059ee6f2ae0617e24cfe9d919fa59c587d7a2122e","blockNumber":"0x67a933","contractAddress":null,"cumulativeGasUsed":"0xd09b","from":"0xc37b40abdb939635068d3c5f13e7faf686f03b65","gasUsed":"0xd09b","l1Fee":"0x59184cde02a4","l1FeeScalar":"1","l1GasPrice":"0x4e0b36699","l1GasUsed":"0x1244","logs":[{"address":"0x7f5c764cbc14f9669b88837ca1490cca17c31607","topics":["0x8c5be1e5ebec7d5bd14f71427d1e84f3dd0314c0f7b2291e5b200ac8c7c3b925","0x000000000000000000000000c37b40abdb939635068d3c5f13e7faf686f03b65","0x0000000000000000000000001111111254760f7ab3f16433eea9304126dcd199"],"data":"0xffffffffffffffffffffffffffffffffffffffffffffffffffffffffffffffff","blockNumber":"0x67a933","transactionHash":"0x92ae5e1c4b4a2d5e2af9c4abc415a9dc0b826ba1fa158c57219fc1b6e852a061","transactionIndex":"0x0","blockHash":"0x5e6f2a7cfd7f57bf7b8f8a9059ee6f2ae0617e24cfe9d919fa59c587d7a2122e","logIndex":"0x0","removed":false}],"logsBloom":"0x00000000000000000100008000000000000000000000000010000000000000000000000000000000000000000000000000000040000000000000400000200000000000000000000000000000000000000000000000000000000000000000000000000000000000000000000000000000000000000000000000000000000000000000000000000000000000000000000000000000000000000000000000000000020000000000000200000000000000000000000000000002000000000000000000000000000000000000000000000000000000000000000000000000000000000010000000000000000000000000000000000000080000000000000000010000","status":"0x1","to":"0x7f5c764cbc14f9669b88837ca1490cca17c31607","transactionHash":"0x92ae5e1c4b4a2d5e2af9c4abc415a9dc0b826ba1fa158c57219fc1b6e852a061","transactionIndex":"0x0"}}'
    headers:
      Alt-Svc:
      - h3=":443"; ma=86400
      Connection:
      - keep-alive
      Content-Type:
      - application/json; charset=utf-8
      Date:
      - Thu, 04 Dec 2025 23:14:35 GMT
      Transfer-Encoding:
      - chunked
      Vary:
      - accept-encoding
      Via:
      - 1.1 6c631b4a31fdb4facbfa609dbecec584.cloudfront.net (CloudFront)
      X-Amz-Cf-Id:
      - JcMFkIlyBZzSTyWjZKvID99JRUSdKe2KtpD6ahfvZO3Ktfq8iKgSXA==
      X-Amz-Cf-Pop:
      - ORD58-P10
      X-Cache:
      - Miss from cloudfront
      access-control-allow-origin:
      - '*'
      content-length:
      - '1672'
      x-ratelimit-rpd-limit:
      - '100000'
      x-ratelimit-rpd-remaining:
      - '99945'
      x-ratelimit-rpd-reset:
      - '72370'
      x-ratelimit-rpm-limit:
      - '300'
      x-ratelimit-rpm-remaining:
      - '299'
      x-ratelimit-rpm-reset:
      - '60'
    status:
      code: 200
      message: OK
version: 1
