interactions:
- request:
    body: '{"jsonrpc": "2.0", "method": "web3_clientVersion", "params": [], "id":
      0}'
    headers:
      Accept:
      - '*/*'
      Accept-Encoding:
      - gzip, deflate
      Connection:
      - keep-alive
      Content-Length:
      - '73'
      Content-Type:
      - application/json
      User-Agent:
      - web3.py/7.12.0/web3.providers.rpc.rpc.HTTPProvider
    method: POST
    uri: https://optimism.drpc.org/
  response:
    body:
      string: '{"id":0,"jsonrpc":"2.0","result":"Geth/v10.0.0/drpc"}'
    headers:
      CF-RAY:
      - 96680d5ecf09bca8-ATL
      Connection:
      - keep-alive
      Content-Type:
      - application/json
      Date:
      - Mon, 28 Jul 2025 23:10:50 GMT
      Server:
      - cloudflare
      access-control-allow-credentials:
      - 'true'
      access-control-allow-headers:
      - DNT,Keep-Alive,User-Agent,X-Requested-With,If-Modified-Since,Cache-Control,Content-Type,Range,Authorization
      access-control-allow-methods:
      - GET, PUT, POST, DELETE, PATCH, OPTIONS
      access-control-allow-origin:
      - '*'
      access-control-max-age:
      - '1728000'
      cf-cache-status:
      - DYNAMIC
      content-length:
      - '53'
      strict-transport-security:
      - max-age=31536000; includeSubDomains
      vary:
      - Accept-Encoding
      x-drpc-owner-id:
      - cb501251-31a8-4028-8b0a-54679f15c385
      x-drpc-owner-tier:
      - free
      x-drpc-trace-id:
      - 9781da68da3c8f64280f2c8e757d84d1
    status:
      code: 200
      message: OK
- request:
    body: '{"jsonrpc": "2.0", "method": "net_version", "params": [], "id": 1}'
    headers:
      Accept:
      - '*/*'
      Accept-Encoding:
      - gzip, deflate
      Connection:
      - keep-alive
      Content-Length:
      - '66'
      Content-Type:
      - application/json
      User-Agent:
      - web3.py/7.12.0/web3.providers.rpc.rpc.HTTPProvider
    method: POST
    uri: https://optimism.drpc.org/
  response:
    body:
      string: '{"id":1,"jsonrpc":"2.0","result":"10"}'
    headers:
      CF-RAY:
      - 96680d5fbac7bd4d-ATL
      Connection:
      - keep-alive
      Content-Type:
      - application/json
      Date:
      - Mon, 28 Jul 2025 23:10:50 GMT
      Server:
      - cloudflare
      access-control-allow-credentials:
      - 'true'
      access-control-allow-headers:
      - DNT,Keep-Alive,User-Agent,X-Requested-With,If-Modified-Since,Cache-Control,Content-Type,Range,Authorization
      access-control-allow-methods:
      - GET, PUT, POST, DELETE, PATCH, OPTIONS
      access-control-allow-origin:
      - '*'
      access-control-max-age:
      - '1728000'
      cf-cache-status:
      - DYNAMIC
      content-length:
      - '38'
      strict-transport-security:
      - max-age=31536000; includeSubDomains
      vary:
      - Accept-Encoding
      x-drpc-owner-id:
      - cb501251-31a8-4028-8b0a-54679f15c385
      x-drpc-owner-tier:
      - free
      x-drpc-trace-id:
      - 56559312b224a858ee0f8ec322130756
    status:
      code: 200
      message: OK
- request:
    body: '{"jsonrpc": "2.0", "method": "eth_blockNumber", "params": [], "id": 2}'
    headers:
      Accept:
      - '*/*'
      Accept-Encoding:
      - gzip, deflate
      Connection:
      - keep-alive
      Content-Length:
      - '70'
      Content-Type:
      - application/json
      User-Agent:
      - web3.py/7.12.0/web3.providers.rpc.rpc.HTTPProvider
    method: POST
    uri: https://optimism.drpc.org/
  response:
    body:
      string: '{"id":2,"jsonrpc":"2.0","result":"0x84a14e0"}'
    headers:
      CF-RAY:
      - 96680d60e82db039-ATL
      Connection:
      - keep-alive
      Content-Type:
      - application/json
      Date:
      - Mon, 28 Jul 2025 23:10:51 GMT
      Server:
      - cloudflare
      access-control-allow-credentials:
      - 'true'
      access-control-allow-headers:
      - DNT,Keep-Alive,User-Agent,X-Requested-With,If-Modified-Since,Cache-Control,Content-Type,Range,Authorization
      access-control-allow-methods:
      - GET, PUT, POST, DELETE, PATCH, OPTIONS
      access-control-allow-origin:
      - '*'
      access-control-max-age:
      - '1728000'
      cf-cache-status:
      - DYNAMIC
      content-length:
      - '45'
      strict-transport-security:
      - max-age=31536000; includeSubDomains
      vary:
      - Accept-Encoding
      x-drpc-owner-id:
      - cb501251-31a8-4028-8b0a-54679f15c385
      x-drpc-owner-tier:
      - free
      x-drpc-provider-id:
      - cardinate-free
      x-drpc-trace-id:
      - 828d2db2d0b442b08815210ab9460587
    status:
      code: 200
      message: OK
- request:
    body: '{"jsonrpc": "2.0", "method": "eth_getBalance", "params": ["0x76a05Df20bFEF5EcE3eB16afF9cb10134199A921",
      "0x12110"], "id": 3}'
    headers:
      Accept:
      - '*/*'
      Accept-Encoding:
      - gzip, deflate
      Connection:
      - keep-alive
      Content-Length:
      - '124'
      Content-Type:
      - application/json
      User-Agent:
      - web3.py/7.12.0/web3.providers.rpc.rpc.HTTPProvider
    method: POST
    uri: https://optimism.drpc.org/
  response:
    body:
      string: '{"id":3,"jsonrpc":"2.0","result":"0xb1a2bc2ec50000"}'
    headers:
      CF-RAY:
      - 96680d61ec7286a6-IAD
      Connection:
      - keep-alive
      Content-Type:
      - application/json
      Date:
      - Mon, 28 Jul 2025 23:10:51 GMT
      Server:
      - cloudflare
      access-control-allow-credentials:
      - 'true'
      access-control-allow-headers:
      - DNT,Keep-Alive,User-Agent,X-Requested-With,If-Modified-Since,Cache-Control,Content-Type,Range,Authorization
      access-control-allow-methods:
      - GET, PUT, POST, DELETE, PATCH, OPTIONS
      access-control-allow-origin:
      - '*'
      access-control-max-age:
      - '1728000'
      cf-cache-status:
      - DYNAMIC
      content-length:
      - '52'
      strict-transport-security:
      - max-age=31536000; includeSubDomains
      vary:
      - Accept-Encoding
      x-drpc-owner-id:
      - cb501251-31a8-4028-8b0a-54679f15c385
      x-drpc-owner-tier:
      - free
      x-drpc-provider-id:
      - drpc-public-multiregion
      x-drpc-trace-id:
      - 8da3c4236c654b257b95e1b25a4341dc
    status:
      code: 200
      message: OK
- request:
    body: '{"jsonrpc": "2.0", "method": "eth_getTransactionByHash", "params": ["0x5e77a04531c7c107af1882d76cbff9486d0a9aa53701c30888509d4f5f2b003a"],
      "id": 4}'
    headers:
      Accept:
      - '*/*'
      Accept-Encoding:
      - gzip, deflate
      Connection:
      - keep-alive
      Content-Length:
      - '147'
      Content-Type:
      - application/json
      User-Agent:
      - web3.py/7.12.0/web3.providers.rpc.rpc.HTTPProvider
    method: POST
    uri: https://optimism.drpc.org/
  response:
    body:
      string: '{"id":4,"jsonrpc":"2.0","result":{"blockHash":"0xbee7192e575af30420cae0c7776304ac196077ee72b048970549e4f08e875453","blockNumber":"0x1","transactionIndex":"0x0","hash":"0x5e77a04531c7c107af1882d76cbff9486d0a9aa53701c30888509d4f5f2b003a","from":"0x70b17c0fe982ab4a7ac17a4c25485643151a1f2d","to":"0x8ce8c13d816fe6daf12d6fd9e4952e1fc88850af","input":"0x202ee0ed000000000000000000000000000000000000000000000000000000000001421800000000000000000000000000000000000000000000000000000000d0e3ebf0","nonce":"0x28972","value":"0x0","gas":"0x7a120","gasPrice":"0x1","type":"0x0","v":"0x38","r":"0xc878d22e771004beb73e7a4268fd4f447735812b94b217f6807412efcec90d61","s":"0x3588018735fb361c49e5de54b266b8b157c1ba3d6ee08e3bcbdee7cd725c16e8","queueOrigin":"sequencer","l1Timestamp":"0x618d8837","l1BlockNumber":"0xcf7a45","index":"0x0","rawTransaction":"0xf8a883028972018307a120948ce8c13d816fe6daf12d6fd9e4952e1fc88850af80b844202ee0ed000000000000000000000000000000000000000000000000000000000001421800000000000000000000000000000000000000000000000000000000d0e3ebf038a0c878d22e771004beb73e7a4268fd4f447735812b94b217f6807412efcec90d61a03588018735fb361c49e5de54b266b8b157c1ba3d6ee08e3bcbdee7cd725c16e8"}}'
    headers:
      CF-RAY:
      - 96680d63cc7c7fed-IAD
      Connection:
      - keep-alive
      Content-Type:
      - application/json
      Date:
      - Mon, 28 Jul 2025 23:10:51 GMT
      Server:
      - cloudflare
      access-control-allow-credentials:
      - 'true'
      access-control-allow-headers:
      - DNT,Keep-Alive,User-Agent,X-Requested-With,If-Modified-Since,Cache-Control,Content-Type,Range,Authorization
      access-control-allow-methods:
      - GET, PUT, POST, DELETE, PATCH, OPTIONS
      access-control-allow-origin:
      - '*'
      access-control-max-age:
      - '1728000'
      cf-cache-status:
      - DYNAMIC
      content-length:
      - '1179'
      strict-transport-security:
      - max-age=31536000; includeSubDomains
      vary:
      - Accept-Encoding
      x-drpc-owner-id:
      - cb501251-31a8-4028-8b0a-54679f15c385
      x-drpc-owner-tier:
      - free
      x-drpc-provider-id:
      - drpc-public-multiregion
      x-drpc-trace-id:
      - 3efaba636336477d46b9cb498bd02ab5
    status:
      code: 200
      message: OK
- request:
    body: '{"jsonrpc": "2.0", "method": "eth_getTransactionByHash", "params": ["0x92ae5e1c4b4a2d5e2af9c4abc415a9dc0b826ba1fa158c57219fc1b6e852a061"],
      "id": 5}'
    headers:
      Accept:
      - '*/*'
      Accept-Encoding:
      - gzip, deflate
      Connection:
      - keep-alive
      Content-Length:
      - '147'
      Content-Type:
      - application/json
      User-Agent:
      - web3.py/7.12.0/web3.providers.rpc.rpc.HTTPProvider
    method: POST
    uri: https://optimism.drpc.org/
  response:
    body:
      string: '{"id":5,"jsonrpc":"2.0","result":{"blockHash":"0x5e6f2a7cfd7f57bf7b8f8a9059ee6f2ae0617e24cfe9d919fa59c587d7a2122e","blockNumber":"0x67a933","transactionIndex":"0x0","hash":"0x92ae5e1c4b4a2d5e2af9c4abc415a9dc0b826ba1fa158c57219fc1b6e852a061","from":"0xc37b40abdb939635068d3c5f13e7faf686f03b65","to":"0x7f5c764cbc14f9669b88837ca1490cca17c31607","input":"0x095ea7b30000000000000000000000001111111254760f7ab3f16433eea9304126dcd199ffffffffffffffffffffffffffffffffffffffffffffffffffffffffffffffff","nonce":"0x0","value":"0x0","gas":"0xd09b","gasPrice":"0xf4240","type":"0x0","v":"0x38","r":"0x85baca989b85b211ba48dcef60a5b8b4e72509e125069dc990206d69a60ea8b2","s":"0x584ba24b5538ed08fb633490333f97b54aa0e5644907d19358d1eb8e296cf2d8","queueOrigin":"sequencer","l1Timestamp":"0x626d0f21","l1BlockNumber":"0xe01358","index":"0x67a932","rawTransaction":"0xf8a780830f424082d09b947f5c764cbc14f9669b88837ca1490cca17c3160780b844095ea7b30000000000000000000000001111111254760f7ab3f16433eea9304126dcd199ffffffffffffffffffffffffffffffffffffffffffffffffffffffffffffffff38a085baca989b85b211ba48dcef60a5b8b4e72509e125069dc990206d69a60ea8b2a0584ba24b5538ed08fb633490333f97b54aa0e5644907d19358d1eb8e296cf2d8"}}'
    headers:
      CF-RAY:
      - 96680d64dc34ed7c-ATL
      Connection:
      - keep-alive
      Content-Type:
      - application/json
      Date:
      - Mon, 28 Jul 2025 23:10:51 GMT
      Server:
      - cloudflare
      access-control-allow-credentials:
      - 'true'
      access-control-allow-headers:
      - DNT,Keep-Alive,User-Agent,X-Requested-With,If-Modified-Since,Cache-Control,Content-Type,Range,Authorization
      access-control-allow-methods:
      - GET, PUT, POST, DELETE, PATCH, OPTIONS
      access-control-allow-origin:
      - '*'
      access-control-max-age:
      - '1728000'
      cf-cache-status:
      - DYNAMIC
      content-length:
      - '1186'
      strict-transport-security:
      - max-age=31536000; includeSubDomains
      vary:
      - Accept-Encoding
      x-drpc-owner-id:
      - cb501251-31a8-4028-8b0a-54679f15c385
      x-drpc-owner-tier:
      - free
      x-drpc-provider-id:
      - drpc-public-multiregion
      x-drpc-trace-id:
      - f967467f50ad665e3de288564d51bbf6
    status:
      code: 200
      message: OK
- request:
    body: '{"jsonrpc": "2.0", "method": "eth_getBlockByNumber", "params": ["0x67a933",
      false], "id": 6}'
    headers:
      Accept:
      - '*/*'
      Accept-Encoding:
      - gzip, deflate
      Connection:
      - keep-alive
      Content-Length:
      - '92'
      Content-Type:
      - application/json
      User-Agent:
      - web3.py/7.12.0/web3.providers.rpc.rpc.HTTPProvider
    method: POST
    uri: https://optimism.drpc.org/
  response:
    body:
      string: '{"id":6,"jsonrpc":"2.0","result":{"number":"0x67a933","hash":"0x5e6f2a7cfd7f57bf7b8f8a9059ee6f2ae0617e24cfe9d919fa59c587d7a2122e","parentHash":"0x4b86ea971f9fa904d6e4027db368090092137781c065f41b1a706001e8343527","nonce":"0x0000000000000000","mixHash":"0x0000000000000000000000000000000000000000000000000000000000000000","sha3Uncles":"0x1dcc4de8dec75d7aab85b567b6ccd41ad312451b948a7413f0a142fd40d49347","logsBloom":"0x00000000000000000100008000000000000000000000000010000000000000000000000000000000000000000000000000000040000000000000400000200000000000000000000000000000000000000000000000000000000000000000000000000000000000000000000000000000000000000000000000000000000000000000000000000000000000000000000000000000000000000000000000000000020000000000000200000000000000000000000000000002000000000000000000000000000000000000000000000000000000000000000000000000000000000010000000000000000000000000000000000000080000000000000000010000","stateRoot":"0x9b164bbaea417520508d4121b8f5bfba4db91a699d660f17f9b469c85af2981e","miner":"0x0000000000000000000000000000000000000000","difficulty":"0x2","extraData":"0xd98301090a846765746889676f312e31352e3133856c696e7578000000000000c8878f3686a1b119b5403a6285434d136f20bfcff70a0fe77daa1673c48865f13ecb3bebc8c23319ea8b5c13c40fd17a92a9fdb6870ed547a92bbcd27769108f00","size":"0x30d","gasLimit":"0xe4e1c0","gasUsed":"0xd09b","timestamp":"0x626d0f21","transactionsRoot":"0x7cc9a371ce451591bad8fd6d7b8d477399a84f40c94d4d9187bb8afb4177f9dd","receiptsRoot":"0xad4769d00b81e70f9b64ab902d675f08bcffe62e90f2a7bc571230590e797bb6","totalDifficulty":"0xcf5267","uncles":[],"transactions":["0x92ae5e1c4b4a2d5e2af9c4abc415a9dc0b826ba1fa158c57219fc1b6e852a061"]}}'
    headers:
      CF-RAY:
      - 96680d681d15f664-LHR
      Connection:
      - keep-alive
      Content-Type:
      - application/json
      Date:
      - Mon, 28 Jul 2025 23:10:52 GMT
      Server:
      - cloudflare
      access-control-allow-credentials:
      - 'true'
      access-control-allow-headers:
      - DNT,Keep-Alive,User-Agent,X-Requested-With,If-Modified-Since,Cache-Control,Content-Type,Range,Authorization
      access-control-allow-methods:
      - GET, PUT, POST, DELETE, PATCH, OPTIONS
      access-control-allow-origin:
      - '*'
      access-control-max-age:
      - '1728000'
      cf-cache-status:
      - DYNAMIC
      content-length:
      - '1676'
      strict-transport-security:
      - max-age=31536000; includeSubDomains
      vary:
      - Accept-Encoding
      x-drpc-owner-id:
      - cb501251-31a8-4028-8b0a-54679f15c385
      x-drpc-owner-tier:
      - free
      x-drpc-provider-id:
      - drpc-public-multiregion
      x-drpc-trace-id:
      - 383804e2b4df29c3b2d0171f7486b511
    status:
      code: 200
      message: OK
- request:
    body: '{"jsonrpc": "2.0", "method": "web3_clientVersion", "params": [], "id":
      0}'
    headers:
      Accept:
      - '*/*'
      Accept-Encoding:
      - gzip, deflate
      Connection:
      - keep-alive
      Content-Length:
      - '73'
      Content-Type:
      - application/json
      User-Agent:
      - web3.py/7.12.0/web3.providers.rpc.rpc.HTTPProvider
    method: POST
    uri: https://mainnet.optimism.io/
  response:
    body:
      string: '{"jsonrpc":"2.0","result":"erigon/0.09.2/linux-amd64/go1.22.12","id":0}

        '
    headers:
      Alt-Svc:
      - h3=":443"; ma=2592000,h3-29=":443"; ma=2592000
      Content-Length:
      - '72'
      Content-Type:
      - application/json
      Date:
      - Mon, 28 Jul 2025 23:10:52 GMT
      Set-Cookie:
      - lb1=edge-proxyd-mainnet-proxyd-ankr-http; Path=/
      Vary:
      - Origin
      Via:
      - 1.1 google
      X-Proxyd-Cache-Status:
      - MISS
    status:
      code: 200
      message: OK
- request:
    body: '{"jsonrpc": "2.0", "method": "net_version", "params": [], "id": 1}'
    headers:
      Accept:
      - '*/*'
      Accept-Encoding:
      - gzip, deflate
      Connection:
      - keep-alive
      Content-Length:
      - '66'
      Content-Type:
      - application/json
      Cookie:
      - lb1=edge-proxyd-mainnet-proxyd-ankr-http
      User-Agent:
      - web3.py/7.12.0/web3.providers.rpc.rpc.HTTPProvider
    method: POST
    uri: https://mainnet.optimism.io/
  response:
    body:
      string: '{"jsonrpc":"2.0","result":"10","id":1}

        '
    headers:
      Alt-Svc:
      - h3=":443"; ma=2592000,h3-29=":443"; ma=2592000
      Content-Length:
      - '39'
      Content-Type:
      - application/json
      Date:
      - Mon, 28 Jul 2025 23:10:52 GMT
      Vary:
      - Origin
      Via:
      - 1.1 google
      X-Proxyd-Cache-Status:
      - HIT
    status:
      code: 200
      message: OK
- request:
    body: '{"jsonrpc": "2.0", "method": "eth_blockNumber", "params": [], "id": 2}'
    headers:
      Accept:
      - '*/*'
      Accept-Encoding:
      - gzip, deflate
      Connection:
      - keep-alive
      Content-Length:
      - '70'
      Content-Type:
      - application/json
      Cookie:
      - lb1=edge-proxyd-mainnet-proxyd-ankr-http
      User-Agent:
      - web3.py/7.12.0/web3.providers.rpc.rpc.HTTPProvider
    method: POST
    uri: https://mainnet.optimism.io/
  response:
    body:
      string: '{"jsonrpc":"2.0","result":"0x84a14e1","id":2}

        '
    headers:
      Alt-Svc:
      - h3=":443"; ma=2592000,h3-29=":443"; ma=2592000
      Content-Length:
      - '46'
      Content-Type:
      - application/json
      Date:
      - Mon, 28 Jul 2025 23:10:52 GMT
      Vary:
      - Origin
      Via:
      - 1.1 google
      X-Proxyd-Cache-Status:
      - MISS
    status:
      code: 200
      message: OK
- request:
    body: '{"jsonrpc": "2.0", "method": "eth_getBalance", "params": ["0x76a05Df20bFEF5EcE3eB16afF9cb10134199A921",
      "0x12110"], "id": 3}'
    headers:
      Accept:
      - '*/*'
      Accept-Encoding:
      - gzip, deflate
      Connection:
      - keep-alive
      Content-Length:
      - '124'
      Content-Type:
      - application/json
      Cookie:
      - lb1=edge-proxyd-mainnet-proxyd-ankr-http
      User-Agent:
      - web3.py/7.12.0/web3.providers.rpc.rpc.HTTPProvider
    method: POST
    uri: https://mainnet.optimism.io/
  response:
    body:
      string: '{"jsonrpc":"2.0","result":"0xb1a2bc2ec50000","id":3}

        '
    headers:
      Alt-Svc:
      - h3=":443"; ma=2592000,h3-29=":443"; ma=2592000
      Content-Length:
      - '53'
      Content-Type:
      - application/json
      Date:
      - Mon, 28 Jul 2025 23:10:53 GMT
      Vary:
      - Origin
      Via:
      - 1.1 google
      X-Proxyd-Cache-Status:
      - MISS
    status:
      code: 200
      message: OK
- request:
    body: '{"jsonrpc": "2.0", "method": "eth_getTransactionByHash", "params": ["0x5e77a04531c7c107af1882d76cbff9486d0a9aa53701c30888509d4f5f2b003a"],
      "id": 4}'
    headers:
      Accept:
      - '*/*'
      Accept-Encoding:
      - gzip, deflate
      Connection:
      - keep-alive
      Content-Length:
      - '147'
      Content-Type:
      - application/json
      Cookie:
      - lb1=edge-proxyd-mainnet-proxyd-ankr-http
      User-Agent:
      - web3.py/7.12.0/web3.providers.rpc.rpc.HTTPProvider
    method: POST
    uri: https://mainnet.optimism.io/
  response:
    body:
      string: '{"jsonrpc":"2.0","result":{"blockHash":"0xbee7192e575af30420cae0c7776304ac196077ee72b048970549e4f08e875453","blockNumber":"0x1","chainId":"0xa","from":"0x70b17c0fe982ab4a7ac17a4c25485643151a1f2d","gas":"0x7a120","gasPrice":"0x1","hash":"0x5e77a04531c7c107af1882d76cbff9486d0a9aa53701c30888509d4f5f2b003a","input":"0x202ee0ed000000000000000000000000000000000000000000000000000000000001421800000000000000000000000000000000000000000000000000000000d0e3ebf0","nonce":"0x28972","r":"0xc878d22e771004beb73e7a4268fd4f447735812b94b217f6807412efcec90d61","s":"0x3588018735fb361c49e5de54b266b8b157c1ba3d6ee08e3bcbdee7cd725c16e8","to":"0x8ce8c13d816fe6daf12d6fd9e4952e1fc88850af","transactionIndex":"0x0","type":"0x0","v":"0x38","value":"0x0"},"id":4}

        '
    headers:
      Alt-Svc:
      - h3=":443"; ma=2592000,h3-29=":443"; ma=2592000
      Content-Length:
      - '740'
      Content-Type:
      - application/json
      Date:
      - Mon, 28 Jul 2025 23:10:53 GMT
      Vary:
      - Origin
      Via:
      - 1.1 google
      X-Proxyd-Cache-Status:
      - MISS
    status:
      code: 200
      message: OK
- request:
    body: '{"jsonrpc": "2.0", "method": "eth_getTransactionReceipt", "params": ["0x92ae5e1c4b4a2d5e2af9c4abc415a9dc0b826ba1fa158c57219fc1b6e852a061"],
      "id": 5}'
    headers:
      Accept:
      - '*/*'
      Accept-Encoding:
      - gzip, deflate
      Connection:
      - keep-alive
      Content-Length:
      - '148'
      Content-Type:
      - application/json
      Cookie:
      - lb1=edge-proxyd-mainnet-proxyd-ankr-http
      User-Agent:
      - web3.py/7.12.0/web3.providers.rpc.rpc.HTTPProvider
    method: POST
    uri: https://mainnet.optimism.io/
  response:
    body:
      string: '{"jsonrpc":"2.0","result":{"blockHash":"0x5e6f2a7cfd7f57bf7b8f8a9059ee6f2ae0617e24cfe9d919fa59c587d7a2122e","blockNumber":"0x67a933","contractAddress":null,"cumulativeGasUsed":"0xd09b","effectiveGasPrice":"0xf4240","from":"0xc37b40abdb939635068d3c5f13e7faf686f03b65","gasUsed":"0xd09b","l1Fee":"0x59184cde02a4","l1FeeScalar":"1","l1GasPrice":"0x4e0b36699","l1GasUsed":"0x1244","logs":[{"address":"0x7f5c764cbc14f9669b88837ca1490cca17c31607","blockHash":"0x5e6f2a7cfd7f57bf7b8f8a9059ee6f2ae0617e24cfe9d919fa59c587d7a2122e","blockNumber":"0x67a933","data":"0xffffffffffffffffffffffffffffffffffffffffffffffffffffffffffffffff","logIndex":"0x0","removed":false,"topics":["0x8c5be1e5ebec7d5bd14f71427d1e84f3dd0314c0f7b2291e5b200ac8c7c3b925","0x000000000000000000000000c37b40abdb939635068d3c5f13e7faf686f03b65","0x0000000000000000000000001111111254760f7ab3f16433eea9304126dcd199"],"transactionHash":"0x92ae5e1c4b4a2d5e2af9c4abc415a9dc0b826ba1fa158c57219fc1b6e852a061","transactionIndex":"0x0"}],"logsBloom":"0x00000000000000000100008000000000000000000000000010000000000000000000000000000000000000000000000000000040000000000000400000200000000000000000000000000000000000000000000000000000000000000000000000000000000000000000000000000000000000000000000000000000000000000000000000000000000000000000000000000000000000000000000000000000020000000000000200000000000000000000000000000002000000000000000000000000000000000000000000000000000000000000000000000000000000000010000000000000000000000000000000000000080000000000000000010000","status":"0x1","to":"0x7f5c764cbc14f9669b88837ca1490cca17c31607","transactionHash":"0x92ae5e1c4b4a2d5e2af9c4abc415a9dc0b826ba1fa158c57219fc1b6e852a061","transactionIndex":"0x0","type":"0x0"},"id":5}

        '
    headers:
      Alt-Svc:
      - h3=":443"; ma=2592000,h3-29=":443"; ma=2592000
      Content-Length:
      - '1716'
      Content-Type:
      - application/json
      Date:
      - Mon, 28 Jul 2025 23:10:53 GMT
      Vary:
      - Origin
      Via:
      - 1.1 google
      X-Proxyd-Cache-Status:
      - MISS
    status:
      code: 200
      message: OK
- request:
    body: '{"jsonrpc": "2.0", "method": "eth_getTransactionByHash", "params": ["0x92ae5e1c4b4a2d5e2af9c4abc415a9dc0b826ba1fa158c57219fc1b6e852a061"],
      "id": 7}'
    headers:
      Accept:
      - '*/*'
      Accept-Encoding:
      - gzip, deflate
      Connection:
      - keep-alive
      Content-Length:
      - '147'
      Content-Type:
      - application/json
      User-Agent:
      - web3.py/7.12.0/web3.providers.rpc.rpc.HTTPProvider
    method: POST
    uri: https://optimism.drpc.org/
  response:
    body:
      string: '{"id":7,"jsonrpc":"2.0","result":{"blockHash":"0x5e6f2a7cfd7f57bf7b8f8a9059ee6f2ae0617e24cfe9d919fa59c587d7a2122e","blockNumber":"0x67a933","from":"0xc37b40abdb939635068d3c5f13e7faf686f03b65","gas":"0xd09b","gasPrice":"0xf4240","hash":"0x92ae5e1c4b4a2d5e2af9c4abc415a9dc0b826ba1fa158c57219fc1b6e852a061","input":"0x095ea7b30000000000000000000000001111111254760f7ab3f16433eea9304126dcd199ffffffffffffffffffffffffffffffffffffffffffffffffffffffffffffffff","nonce":"0x0","to":"0x7f5c764cbc14f9669b88837ca1490cca17c31607","transactionIndex":"0x0","value":"0x0","type":"0x0","chainId":"0xa","v":"0x38","r":"0x85baca989b85b211ba48dcef60a5b8b4e72509e125069dc990206d69a60ea8b2","s":"0x584ba24b5538ed08fb633490333f97b54aa0e5644907d19358d1eb8e296cf2d8"}}'
    headers:
      CF-RAY:
      - 96680d741eff084a-IAD
      Connection:
      - keep-alive
      Content-Type:
      - application/json
      Date:
      - Mon, 28 Jul 2025 23:10:54 GMT
      Server:
      - cloudflare
      access-control-allow-credentials:
      - 'true'
      access-control-allow-headers:
      - DNT,Keep-Alive,User-Agent,X-Requested-With,If-Modified-Since,Cache-Control,Content-Type,Range,Authorization
      access-control-allow-methods:
      - GET, PUT, POST, DELETE, PATCH, OPTIONS
      access-control-allow-origin:
      - '*'
      access-control-max-age:
      - '1728000'
      cf-cache-status:
      - DYNAMIC
      content-length:
      - '743'
      strict-transport-security:
      - max-age=31536000; includeSubDomains
      vary:
      - Accept-Encoding
      x-drpc-owner-id:
      - cb501251-31a8-4028-8b0a-54679f15c385
      x-drpc-owner-tier:
      - free
      x-drpc-provider-id:
      - drpc-core-free
      x-drpc-trace-id:
      - e571bc9f13b7fc1a2695561dd392298c
    status:
      code: 200
      message: OK
- request:
    body: '{"jsonrpc": "2.0", "method": "eth_getBlockByNumber", "params": ["0x67a933",
      false], "id": 8}'
    headers:
      Accept:
      - '*/*'
      Accept-Encoding:
      - gzip, deflate
      Connection:
      - keep-alive
      Content-Length:
      - '92'
      Content-Type:
      - application/json
      User-Agent:
      - web3.py/7.12.0/web3.providers.rpc.rpc.HTTPProvider
    method: POST
    uri: https://optimism.drpc.org/
  response:
    body:
      string: '{"id":8,"jsonrpc":"2.0","result":{"difficulty":"0x2","extraData":"0xd98301090a846765746889676f312e31352e3133856c696e7578000000000000c8878f3686a1b119b5403a6285434d136f20bfcff70a0fe77daa1673c48865f13ecb3bebc8c23319ea8b5c13c40fd17a92a9fdb6870ed547a92bbcd27769108f00","gasLimit":"0xe4e1c0","gasUsed":"0xd09b","hash":"0x5e6f2a7cfd7f57bf7b8f8a9059ee6f2ae0617e24cfe9d919fa59c587d7a2122e","logsBloom":"0x00000000000000000100008000000000000000000000000010000000000000000000000000000000000000000000000000000040000000000000400000200000000000000000000000000000000000000000000000000000000000000000000000000000000000000000000000000000000000000000000000000000000000000000000000000000000000000000000000000000000000000000000000000000020000000000000200000000000000000000000000000002000000000000000000000000000000000000000000000000000000000000000000000000000000000010000000000000000000000000000000000000080000000000000000010000","miner":"0x0000000000000000000000000000000000000000","mixHash":"0x0000000000000000000000000000000000000000000000000000000000000000","nonce":"0x0000000000000000","number":"0x67a933","parentHash":"0x4b86ea971f9fa904d6e4027db368090092137781c065f41b1a706001e8343527","receiptsRoot":"0xad4769d00b81e70f9b64ab902d675f08bcffe62e90f2a7bc571230590e797bb6","sha3Uncles":"0x1dcc4de8dec75d7aab85b567b6ccd41ad312451b948a7413f0a142fd40d49347","size":"0x30d","stateRoot":"0x9b164bbaea417520508d4121b8f5bfba4db91a699d660f17f9b469c85af2981e","timestamp":"0x626d0f21","transactions":["0x92ae5e1c4b4a2d5e2af9c4abc415a9dc0b826ba1fa158c57219fc1b6e852a061"],"transactionsRoot":"0x7cc9a371ce451591bad8fd6d7b8d477399a84f40c94d4d9187bb8afb4177f9dd","uncles":[]}}'
    headers:
      CF-RAY:
      - 96680d75cc82147d-MIA
      Connection:
      - keep-alive
      Content-Type:
      - application/json
      Date:
      - Mon, 28 Jul 2025 23:10:54 GMT
      Server:
      - cloudflare
      access-control-allow-credentials:
      - 'true'
      access-control-allow-headers:
      - DNT,Keep-Alive,User-Agent,X-Requested-With,If-Modified-Since,Cache-Control,Content-Type,Range,Authorization
      access-control-allow-methods:
      - GET, PUT, POST, DELETE, PATCH, OPTIONS
      access-control-allow-origin:
      - '*'
      access-control-max-age:
      - '1728000'
      cf-cache-status:
      - DYNAMIC
      content-length:
      - '1647'
      strict-transport-security:
      - max-age=31536000; includeSubDomains
      vary:
      - Accept-Encoding
      x-drpc-owner-id:
      - cb501251-31a8-4028-8b0a-54679f15c385
      x-drpc-owner-tier:
      - free
      x-drpc-provider-id:
      - drpc-public-multiregion
      x-drpc-trace-id:
      - ad4c4548fe8b58c64040c7dc9406d6d5
    status:
      code: 200
      message: OK
- request:
    body: '{"jsonrpc": "2.0", "method": "eth_getTransactionReceipt", "params": ["0x92ae5e1c4b4a2d5e2af9c4abc415a9dc0b826ba1fa158c57219fc1b6e852a061"],
      "id": 6}'
    headers:
      Accept:
      - '*/*'
      Accept-Encoding:
      - gzip, deflate
      Connection:
      - keep-alive
      Content-Length:
      - '148'
      Content-Type:
      - application/json
      Cookie:
      - lb1=edge-proxyd-mainnet-proxyd-ankr-http
      User-Agent:
      - web3.py/7.12.0/web3.providers.rpc.rpc.HTTPProvider
    method: POST
    uri: https://mainnet.optimism.io/
  response:
    body:
      string: '{"jsonrpc":"2.0","result":{"blockHash":"0x5e6f2a7cfd7f57bf7b8f8a9059ee6f2ae0617e24cfe9d919fa59c587d7a2122e","blockNumber":"0x67a933","contractAddress":null,"cumulativeGasUsed":"0xd09b","effectiveGasPrice":"0xf4240","from":"0xc37b40abdb939635068d3c5f13e7faf686f03b65","gasUsed":"0xd09b","l1Fee":"0x59184cde02a4","l1FeeScalar":"1","l1GasPrice":"0x4e0b36699","l1GasUsed":"0x1244","logs":[{"address":"0x7f5c764cbc14f9669b88837ca1490cca17c31607","blockHash":"0x5e6f2a7cfd7f57bf7b8f8a9059ee6f2ae0617e24cfe9d919fa59c587d7a2122e","blockNumber":"0x67a933","data":"0xffffffffffffffffffffffffffffffffffffffffffffffffffffffffffffffff","logIndex":"0x0","removed":false,"topics":["0x8c5be1e5ebec7d5bd14f71427d1e84f3dd0314c0f7b2291e5b200ac8c7c3b925","0x000000000000000000000000c37b40abdb939635068d3c5f13e7faf686f03b65","0x0000000000000000000000001111111254760f7ab3f16433eea9304126dcd199"],"transactionHash":"0x92ae5e1c4b4a2d5e2af9c4abc415a9dc0b826ba1fa158c57219fc1b6e852a061","transactionIndex":"0x0"}],"logsBloom":"0x00000000000000000100008000000000000000000000000010000000000000000000000000000000000000000000000000000040000000000000400000200000000000000000000000000000000000000000000000000000000000000000000000000000000000000000000000000000000000000000000000000000000000000000000000000000000000000000000000000000000000000000000000000000020000000000000200000000000000000000000000000002000000000000000000000000000000000000000000000000000000000000000000000000000000000010000000000000000000000000000000000000080000000000000000010000","status":"0x1","to":"0x7f5c764cbc14f9669b88837ca1490cca17c31607","transactionHash":"0x92ae5e1c4b4a2d5e2af9c4abc415a9dc0b826ba1fa158c57219fc1b6e852a061","transactionIndex":"0x0","type":"0x0"},"id":6}

        '
    headers:
      Alt-Svc:
      - h3=":443"; ma=2592000,h3-29=":443"; ma=2592000
      Content-Length:
      - '1716'
      Content-Type:
      - application/json
      Date:
      - Mon, 28 Jul 2025 23:10:54 GMT
      Vary:
      - Origin
      Via:
      - 1.1 google
      X-Proxyd-Cache-Status:
      - MISS
    status:
      code: 200
      message: OK
- request:
    body: null
    headers:
      Accept:
      - '*/*'
      Accept-Encoding:
      - gzip, deflate
      Connection:
      - keep-alive
      User-Agent:
      - rotki/1.38.3.dev737+g64b898a1f.d20250717
    method: GET
    uri: https://api.etherscan.io/v2/api?action=txlist&address=0xc37b40ABdB939635068d3c5f13E7faF686F03B65&chainid=10&endBlock=6793523&module=account&startBlock=6793523
  response:
    body:
      string: '{"status":"1","message":"OK","result":[{"blockNumber":"6793523","blockHash":"0x5e6f2a7cfd7f57bf7b8f8a9059ee6f2ae0617e24cfe9d919fa59c587d7a2122e","timeStamp":"1651314465","hash":"0x92ae5e1c4b4a2d5e2af9c4abc415a9dc0b826ba1fa158c57219fc1b6e852a061","nonce":"0","transactionIndex":"0","from":"0xc37b40abdb939635068d3c5f13e7faf686f03b65","to":"0x7f5c764cbc14f9669b88837ca1490cca17c31607","value":"0","gas":"53403","gasPrice":"1000000","L1Gas":"4676","L1GasPrice":"20949722777","L1FeeScalar":"1.000000000000","L1FeesPaid":"97960903705252","input":"0x095ea7b30000000000000000000000001111111254760f7ab3f16433eea9304126dcd199ffffffffffffffffffffffffffffffffffffffffffffffffffffffffffffffff","methodId":"0x095ea7b3","functionName":"approve(address
        _spender, uint256 _value)","contractAddress":"","cumulativeGasUsed":"53403","txreceipt_status":"1","gasUsed":"53403","confirmations":"132279216","isError":"0"}]}'
    headers:
      Access-Control-Allow-Headers:
      - Content-Type
      Access-Control-Allow-Methods:
      - GET, POST, OPTIONS
      Access-Control-Allow-Origin:
      - '*'
      Cache-Control:
      - private
      Connection:
      - keep-alive
      Content-Type:
      - application/json; charset=utf-8
      Date:
      - Mon, 28 Jul 2025 23:10:55 GMT
      Server:
      - nginx
      Vary:
      - Accept-Encoding
      X-Frame-Options:
      - SAMEORIGIN
      X-Nginx-Id:
      - '3'
      content-length:
      - '899'
      svid:
      - op1
    status:
      code: 200
      message: OK
version: 1
