interactions:
- request:
    body: null
    headers:
      Accept:
      - '*/*'
      Accept-Encoding:
      - gzip, deflate
      Connection:
      - keep-alive
      User-Agent:
      - rotki/1.42.1.dev85+g21cbca5056.d20260305
    method: GET
    uri: https://api.blockscout.com/10/api?action=getblocknobytime&closest=before&module=block&timestamp=1689113567
  response:
    body:
      string: '{"message":"OK","result":{"blockNumber":"106757395"},"status":"1"}'
    headers:
      CF-RAY:
      - 9d7f205458e40727-MAD
      Cache-Control:
      - max-age=0, private, must-revalidate
      Connection:
      - keep-alive
      Content-Type:
      - application/json; charset=utf-8
      Date:
      - Fri, 06 Mar 2026 05:58:01 GMT
      Nel:
      - '{"report_to":"cf-nel","success_fraction":0.0,"max_age":604800}'
      Report-To:
      - '{"group":"cf-nel","max_age":604800,"endpoints":[{"url":"https://a.nel.cloudflare.com/report/v4?s=wE%2BpnarZaAkc2bUyW4rEbbhiAVj6B%2BcaKX4RPO6fUJvZhLxg5yznzlhLJtkLN1umMGVnRosrBdZNpYxI75yQc7mNWle94jyDrvDXofCotZR3Kw%3D%3D"}]}'
      Server:
      - cloudflare
      Transfer-Encoding:
      - chunked
      access-control-allow-credentials:
      - 'true'
      access-control-allow-origin:
      - '*'
      access-control-expose-headers:
      - bypass-429-option,x-ratelimit-reset,x-ratelimit-limit,x-ratelimit-remaining,api-v2-temp-token
      alt-svc:
      - h3=":443"; ma=86400
      bypass-429-option:
      - no_bypass
      cf-cache-status:
      - DYNAMIC
      content-length:
      - '66'
      strict-transport-security:
      - max-age=31536000; includeSubDomains
      x-ratelimit-limit:
      - '600'
      x-ratelimit-remaining:
      - '599'
      x-ratelimit-reset:
      - '58331'
      x-request-id:
      - 61694ae453d61558f9a551ac6617483a
    status:
      code: 200
      message: OK
- request:
    body: null
    headers:
      Accept:
      - '*/*'
      Accept-Encoding:
      - gzip, deflate
      Connection:
      - keep-alive
      User-Agent:
      - rotki/1.42.1.dev85+g21cbca5056.d20260305
    method: GET
    uri: https://api.blockscout.com/10/api?action=txlist&address=0xd6Ade875eEC93a7aAb7EfB7DBF13d1457443f95B&endblock=106757395&module=account&sort=asc&startblock=106757395
  response:
    body:
      string: '{"message":"OK","result":[{"blockHash":"0x6e989431f650c6e32effd2647ca852673a7d91f54bec0a3529ac8c050d1f9687","blockNumber":"106757395","confirmations":"41831556","contractAddress":"","cumulativeGasUsed":"1700361","from":"0xd6ade875eec93a7aab7efb7dbf13d1457443f95b","gas":"66152","gasPrice":"66","gasUsed":"47252","hash":"0x07797f73aa274fb79e990701184b495341dd482840673564d3c0743669d421e1","input":"0x095ea7b3000000000000000000000000def1abe32c034e558cdd535791643c58a13acc10ffffffffffffffffffffffffffffffffffffffffffffffffffffffffffffffff","isError":"0","methodId":"0x","nonce":"10","timeStamp":"1689113567","to":"0x4200000000000000000000000000000000000042","transactionIndex":"6","txreceipt_status":"1","value":"0"},{"blockHash":"0x6e989431f650c6e32effd2647ca852673a7d91f54bec0a3529ac8c050d1f9687","blockNumber":"106757395","confirmations":"41831556","contractAddress":"","cumulativeGasUsed":"2023164","from":"0xd6ade875eec93a7aab7efb7dbf13d1457443f95b","gas":"523212","gasPrice":"66","gasUsed":"322803","hash":"0x6eb136db4d36cf695f4026da16f602ed4a2583b2420dbbcbd4f436943190b665","input":"0x415565b000000000000000000000000042000000000000000000000000000000000000420000000000000000000000007f5c764cbc14f9669b88837ca1490cca17c31607000000000000000000000000000000000000000000000000e410c6e7b20a9d48000000000000000000000000000000000000000000000000000000000128186800000000000000000000000000000000000000000000000000000000000000a0000000000000000000000000000000000000000000000000000000000000000200000000000000000000000000000000000000000000000000000000000000400000000000000000000000000000000000000000000000000000000000000360000000000000000000000000000000000000000000000000000000000000000f000000000000000000000000000000000000000000000000000000000000004000000000000000000000000000000000000000000000000000000000000002c00000000000000000000000000000000000000000000000000000000000000020000000000000000000000000000000000000000000000000000000000000000000000000000000000000000042000000000000000000000000000000000000420000000000000000000000007f5c764cbc14f9669b88837ca1490cca17c316070000000000000000000000000000000000000000000000000000000000000140000000000000000000000000000000000000000000000000000000000000028000000000000000000000000000000000000000000000000000000000000002800000000000000000000000000000000000000000000000000000000000000240000000000000000000000000000000000000000000000000e410c6e7b20a9d4800000000000000000000000000000000000000000000000000000000000000000000000000000000000000000000000000000000000000000000000000000280000000000000000000000000000000000000000000000000000000000000000100000000000000000000000000000000000000000000000000000000000000200000000000000000000000000000001f574f4f46690000000000000000000000000000000000000000000000000000000000000000000000e410c6e7b20a9d48000000000000000000000000000000000000000000000000000000000128186800000000000000000000000000000000000000000000000000000000000000800000000000000000000000000000000000000000000000000000000000000020000000000000000000000000eaf1ac8e89ea0ae13e0f03634a4ff23502527024000000000000000000000000000000000000000000000000000000000000000100000000000000000000000000000000000000000000000000000000000000000000000000000000000000000000000000000000000000000000000000000000000000000000000000000000000000000000000000000000000000000000000b000000000000000000000000000000000000000000000000000000000000004000000000000000000000000000000000000000000000000000000000000000e00000000000000000000000000000000000000000000000000000000000000020000000000000000000000000000000000000000000000000000000000000004000000000000000000000000000000000000000000000000000000000000000a000000000000000000000000000000000000000000000000000000000000000020000000000000000000000004200000000000000000000000000000000000042000000000000000000000000eeeeeeeeeeeeeeeeeeeeeeeeeeeeeeeeeeeeeeee0000000000000000000000000000000000000000000000000000000000000000869584cd000000000000000000000000382ffce2287252f930e1c8dc9328dac5bf282ba10000000000000000000000000000000000000000000000e5867b475164add3cb","isError":"0","methodId":"0x","nonce":"11","timeStamp":"1689113567","to":"0xdef1abe32c034e558cdd535791643c58a13acc10","transactionIndex":"7","txreceipt_status":"1","value":"0"}],"status":"1"}'
    headers:
      CF-RAY:
      - 9d7f20550f800326-MAD
      Cache-Control:
      - max-age=0, private, must-revalidate
      Connection:
      - keep-alive
      Content-Type:
      - application/json; charset=utf-8
      Date:
      - Fri, 06 Mar 2026 05:58:01 GMT
      Nel:
      - '{"report_to":"cf-nel","success_fraction":0.0,"max_age":604800}'
      Report-To:
      - '{"group":"cf-nel","max_age":604800,"endpoints":[{"url":"https://a.nel.cloudflare.com/report/v4?s=iTYaSEJd5pTUttt05BFfBSqcL0qKvb6X1mSSleabfrDCCusXdvMrX8LwRN3ID9Fu75gNjT1WnlHlHkq9kLHId5x6MJkTKFkfH%2B5B4uF7Qp%2FBRA%3D%3D"}]}'
      Server:
      - cloudflare
      Transfer-Encoding:
      - chunked
      access-control-allow-credentials:
      - 'true'
      access-control-allow-origin:
      - '*'
      access-control-expose-headers:
      - bypass-429-option,x-ratelimit-reset,x-ratelimit-limit,x-ratelimit-remaining,api-v2-temp-token
      alt-svc:
      - h3=":443"; ma=86400
      bypass-429-option:
      - no_bypass
      cf-cache-status:
      - DYNAMIC
      content-length:
      - '4178'
      strict-transport-security:
      - max-age=31536000; includeSubDomains
      x-ratelimit-limit:
      - '600'
      x-ratelimit-remaining:
      - '598'
      x-ratelimit-reset:
      - '58217'
      x-request-id:
      - c7fd2af34d6a8e952745b63f08e0275c
    status:
      code: 200
      message: OK
- request:
    body: null
    headers:
      Accept:
      - '*/*'
      Accept-Encoding:
      - gzip, deflate
      Connection:
      - keep-alive
      User-Agent:
      - rotki/1.42.1.dev85+g21cbca5056.d20260305
    method: GET
    uri: https://api.blockscout.com/10/api/v2/transactions/0x07797f73aa274fb79e990701184b495341dd482840673564d3c0743669d421e1
  response:
    body:
      string: '{"l1_gas_used":"2564","priority_fee":"283512","raw_input":"0x095ea7b3000000000000000000000000def1abe32c034e558cdd535791643c58a13acc10ffffffffffffffffffffffffffffffffffffffffffffffffffffffffffffffff","is_pending_update":false,"op_withdrawals":[],"result":"success","hash":"0x07797f73aa274fb79e990701184b495341dd482840673564d3c0743669d421e1","max_fee_per_gas":"66","revert_reason":null,"confirmation_duration":[0,2.0e3],"transaction_burnt_fee":"2835120","type":2,"token_transfers_overflow":false,"confirmations":41831558,"position":6,"max_priority_fee_per_gas":"12","transaction_tag":null,"created_contract":null,"value":"0","l1_fee_scalar":"0.684","from":{"ens_domain_name":null,"hash":"0xd6Ade875eEC93a7aAb7EfB7DBF13d1457443f95B","implementations":[],"is_contract":false,"is_scam":false,"is_verified":false,"metadata":null,"name":null,"private_tags":[],"proxy_type":null,"public_tags":[],"reputation":"ok","watchlist_names":[]},"gas_used":"47252","status":"ok","to":{"ens_domain_name":null,"hash":"0x4200000000000000000000000000000000000042","implementations":[],"is_contract":true,"is_scam":false,"is_verified":true,"metadata":{"tags":[{"meta":{},"name":"Predeploys:
        GovernanceToken","ordinal":1000,"slug":"predeploys-governancetoken","tagType":"name"},{"meta":{"projectName":"Optimism","tagUrl":"https://app.klerosscout.eth.limo/#/?registry=Single_Tags&itemdetails=0xc0dfea1e971d267b1cd7778b5d724d3a7bda959ba41b6f37ee182140a1c57396@0x66260c69d03837016d88c9877e61e08ef74c59f2","tokenAttributes":"{\"logo_url\":\"https://cdn.kleros.link/ipfs/QmXTBGyjmPAD9PqKwumL1qSEkY96ZdJPDj1fo8kERzYVm3/optimism.png\",\"token_symbol\":\"OP\",\"token_name\":\"Optimism\",\"decimals\":18}","tooltipDescription":"Optimism''s
        official OP Token contract on Optimism","tooltipUrl":"https://www.optimism.io/"},"name":"Optimism:
        OP Token","ordinal":10,"slug":"optimism-op-token","tagType":"name"},{"meta":{},"name":"Token
        Contract","ordinal":0,"slug":"token-contract","tagType":"generic"},{"meta":{},"name":"Optimism","ordinal":0,"slug":"optimism","tagType":"protocol"},{"meta":{"data":"ok"},"name":"Credible
        token","ordinal":0,"slug":"credible-token","tagType":"token_reputation"}]},"name":"GovernanceToken","private_tags":[],"proxy_type":null,"public_tags":[],"reputation":"ok","watchlist_names":[]},"authorization_list":[],"l1_fee":"29750378541748","method":"approve","fee":{"type":"actual","value":"29750381660380"},"actions":[],"gas_limit":"66152","gas_price":"66","decoded_input":{"method_call":"approve(address
        spender, uint256 amount)","method_id":"095ea7b3","parameters":[{"name":"spender","type":"address","value":"0xDEF1ABE32c034e558Cdd535791643C58a13aCC10"},{"name":"amount","type":"uint256","value":"115792089237316195423570985008687907853269984665640564039457584007913129639935"}]},"l1_gas_price":"16963613678","token_transfers":[],"base_fee_per_gas":"60","timestamp":"2023-07-11T22:12:47.000000Z","nonce":10,"historic_exchange_rate":"1873.33","transaction_types":["contract_call"],"exchange_rate":"2065.3","block_number":106757395,"has_error_in_internal_transactions":false}'
    headers:
      CF-RAY:
      - 9d7f2055ccecf9df-MAD
      Cache-Control:
      - max-age=0, private, must-revalidate
      Connection:
      - keep-alive
      Content-Type:
      - application/json; charset=utf-8
      Date:
      - Fri, 06 Mar 2026 05:58:02 GMT
      Nel:
      - '{"report_to":"cf-nel","success_fraction":0.0,"max_age":604800}'
      Report-To:
      - '{"group":"cf-nel","max_age":604800,"endpoints":[{"url":"https://a.nel.cloudflare.com/report/v4?s=ktNeC8iEwY5PIuH8gHPx3ragc9Atb56FEcaCk0znGB1H6uv%2BYjdqYoWWKRsaywQslvUn30cLgrkebeHQMa%2FXkQBaVYc5shsI4r4U6FQQNDUw9g%3D%3D"}]}'
      Server:
      - cloudflare
      Transfer-Encoding:
      - chunked
      access-control-allow-credentials:
      - 'true'
      access-control-allow-origin:
      - '*'
      access-control-expose-headers:
      - bypass-429-option,x-ratelimit-reset,x-ratelimit-limit,x-ratelimit-remaining,api-v2-temp-token
      alt-svc:
      - h3=":443"; ma=86400
      bypass-429-option:
      - temporary_token
      cf-cache-status:
      - DYNAMIC
      content-length:
      - '3066'
      strict-transport-security:
      - max-age=31536000; includeSubDomains
      x-ratelimit-limit:
      - '600'
      x-ratelimit-remaining:
      - '597'
      x-ratelimit-reset:
      - '58099'
      x-request-id:
      - 0f8df718057eca4ac83374f0620569ee
    status:
      code: 200
      message: OK
- request:
    body: null
    headers:
      Accept:
      - '*/*'
      Accept-Encoding:
      - gzip, deflate
      Connection:
      - keep-alive
      User-Agent:
      - rotki/1.42.1.dev85+g21cbca5056.d20260305
    method: GET
    uri: https://api.blockscout.com/10/api/v2/transactions/0x6eb136db4d36cf695f4026da16f602ed4a2583b2420dbbcbd4f436943190b665
  response:
    body:
      string: '{"l1_gas_used":"9976","priority_fee":"1936818","raw_input":"0x415565b000000000000000000000000042000000000000000000000000000000000000420000000000000000000000007f5c764cbc14f9669b88837ca1490cca17c31607000000000000000000000000000000000000000000000000e410c6e7b20a9d48000000000000000000000000000000000000000000000000000000000128186800000000000000000000000000000000000000000000000000000000000000a0000000000000000000000000000000000000000000000000000000000000000200000000000000000000000000000000000000000000000000000000000000400000000000000000000000000000000000000000000000000000000000000360000000000000000000000000000000000000000000000000000000000000000f000000000000000000000000000000000000000000000000000000000000004000000000000000000000000000000000000000000000000000000000000002c00000000000000000000000000000000000000000000000000000000000000020000000000000000000000000000000000000000000000000000000000000000000000000000000000000000042000000000000000000000000000000000000420000000000000000000000007f5c764cbc14f9669b88837ca1490cca17c316070000000000000000000000000000000000000000000000000000000000000140000000000000000000000000000000000000000000000000000000000000028000000000000000000000000000000000000000000000000000000000000002800000000000000000000000000000000000000000000000000000000000000240000000000000000000000000000000000000000000000000e410c6e7b20a9d4800000000000000000000000000000000000000000000000000000000000000000000000000000000000000000000000000000000000000000000000000000280000000000000000000000000000000000000000000000000000000000000000100000000000000000000000000000000000000000000000000000000000000200000000000000000000000000000001f574f4f46690000000000000000000000000000000000000000000000000000000000000000000000e410c6e7b20a9d48000000000000000000000000000000000000000000000000000000000128186800000000000000000000000000000000000000000000000000000000000000800000000000000000000000000000000000000000000000000000000000000020000000000000000000000000eaf1ac8e89ea0ae13e0f03634a4ff23502527024000000000000000000000000000000000000000000000000000000000000000100000000000000000000000000000000000000000000000000000000000000000000000000000000000000000000000000000000000000000000000000000000000000000000000000000000000000000000000000000000000000000000000b000000000000000000000000000000000000000000000000000000000000004000000000000000000000000000000000000000000000000000000000000000e00000000000000000000000000000000000000000000000000000000000000020000000000000000000000000000000000000000000000000000000000000004000000000000000000000000000000000000000000000000000000000000000a000000000000000000000000000000000000000000000000000000000000000020000000000000000000000004200000000000000000000000000000000000042000000000000000000000000eeeeeeeeeeeeeeeeeeeeeeeeeeeeeeeeeeeeeeee0000000000000000000000000000000000000000000000000000000000000000869584cd000000000000000000000000382ffce2287252f930e1c8dc9328dac5bf282ba10000000000000000000000000000000000000000000000e5867b475164add3cb","is_pending_update":false,"op_withdrawals":[],"result":"success","hash":"0x6eb136db4d36cf695f4026da16f602ed4a2583b2420dbbcbd4f436943190b665","max_fee_per_gas":"66","revert_reason":null,"confirmation_duration":[0,2.0e3],"transaction_burnt_fee":"19368180","type":2,"token_transfers_overflow":false,"confirmations":41831558,"position":7,"max_priority_fee_per_gas":"12","transaction_tag":null,"created_contract":null,"value":"0","l1_fee_scalar":"0.684","from":{"ens_domain_name":null,"hash":"0xd6Ade875eEC93a7aAb7EfB7DBF13d1457443f95B","implementations":[],"is_contract":false,"is_scam":false,"is_verified":false,"metadata":null,"name":null,"private_tags":[],"proxy_type":null,"public_tags":[],"reputation":"ok","watchlist_names":[]},"gas_used":"322803","status":"ok","to":{"ens_domain_name":null,"hash":"0xDEF1ABE32c034e558Cdd535791643C58a13aCC10","implementations":[],"is_contract":true,"is_scam":false,"is_verified":true,"metadata":{"tags":[{"meta":{"main_entity":"0x","projectName":"0x","tagIcon
        ":"https://blockscout-icons.s3.us-east-1.amazonaws.com/OLI_tag_logo.svg","tagUrl":"https://app.klerosscout.eth.limo/#/?registry=Single_Tags&itemdetails=0xc24a01143415d849ee31889d9ed31b4c2e03a9ee85c1b6bfe8e1286577f17157@0x66260c69d03837016d88c9877e61e08ef74c59f2","textColor":"#C163D4","tooltipAttribution":"https://www.openlabelsinitiative.org?utm_source=blockscout","tooltipAttributionIcon":"https://blockscout-icons.s3.us-east-1.amazonaws.com/OLI_tag_logo.svg","tooltipDescription":"0x
        is an open protocol that enables the peer-to-peer exchange of assets on the
        Ethereum blockchain.","tooltipUrl":"https://0x.org/","verifiedDomains":["swapr.eth.limo","app.unidex.exchange","de.fi","swap.defillama.com","zapper.xyz","matcha.xyz"]},"name":"Exchange
        Proxy","ordinal":10,"slug":"exchange-proxy","tagType":"name"},{"meta":{"tagIcon
        ":"https://blockscout-icons.s3.us-east-1.amazonaws.com/OLI_tag_logo.svg","textColor":"#C163D4","tooltipAttribution":"https://www.openlabelsinitiative.org?utm_source=blockscout","tooltipAttributionIcon":"https://blockscout-icons.s3.us-east-1.amazonaws.com/OLI_tag_logo.svg","tooltipDescription":"Provided
        by OLI"},"name":"ZeroEx","ordinal":0,"slug":"zeroex","tagType":"name"},{"meta":{"appActionButtonText":"0x","appID":"0x"},"name":"0x","ordinal":0,"slug":"0x","tagType":"protocol"}]},"name":"ZeroEx","private_tags":[],"proxy_type":null,"public_tags":[],"reputation":"ok","watchlist_names":[]},"authorization_list":[],"l1_fee":"115752642875381","method":"transformERC20","fee":{"type":"actual","value":"115752664180379"},"actions":[],"gas_limit":"523212","gas_price":"66","decoded_input":{"method_call":"transformERC20(address
        inputToken, address outputToken, uint256 inputTokenAmount, uint256 minOutputTokenAmount,
        (uint32,bytes)[] transformations)","method_id":"415565b0","parameters":[{"name":"inputToken","type":"address","value":"0x4200000000000000000000000000000000000042"},{"name":"outputToken","type":"address","value":"0x7F5c764cBc14f9669B88837ca1490cCa17c31607"},{"name":"inputTokenAmount","type":"uint256","value":"16433853738701725000"},{"name":"minOutputTokenAmount","type":"uint256","value":"19404904"},{"name":"transformations","type":"(uint32,bytes)[]","value":[["15","0x0000000000000000000000000000000000000000000000000000000000000020000000000000000000000000000000000000000000000000000000000000000000000000000000000000000042000000000000000000000000000000000000420000000000000000000000007f5c764cbc14f9669b88837ca1490cca17c316070000000000000000000000000000000000000000000000000000000000000140000000000000000000000000000000000000000000000000000000000000028000000000000000000000000000000000000000000000000000000000000002800000000000000000000000000000000000000000000000000000000000000240000000000000000000000000000000000000000000000000e410c6e7b20a9d4800000000000000000000000000000000000000000000000000000000000000000000000000000000000000000000000000000000000000000000000000000280000000000000000000000000000000000000000000000000000000000000000100000000000000000000000000000000000000000000000000000000000000200000000000000000000000000000001f574f4f46690000000000000000000000000000000000000000000000000000000000000000000000e410c6e7b20a9d48000000000000000000000000000000000000000000000000000000000128186800000000000000000000000000000000000000000000000000000000000000800000000000000000000000000000000000000000000000000000000000000020000000000000000000000000eaf1ac8e89ea0ae13e0f03634a4ff23502527024000000000000000000000000000000000000000000000000000000000000000100000000000000000000000000000000000000000000000000000000000000000000000000000000000000000000000000000000000000000000000000000000"],["11","0x0000000000000000000000000000000000000000000000000000000000000020000000000000000000000000000000000000000000000000000000000000004000000000000000000000000000000000000000000000000000000000000000a000000000000000000000000000000000000000000000000000000000000000020000000000000000000000004200000000000000000000000000000000000042000000000000000000000000eeeeeeeeeeeeeeeeeeeeeeeeeeeeeeeeeeeeeeee0000000000000000000000000000000000000000000000000000000000000000"]]}]},"l1_gas_price":"16963613678","token_transfers":[{"block_hash":"0x6e989431f650c6e32effd2647ca852673a7d91f54bec0a3529ac8c050d1f9687","block_number":106757395,"from":{"ens_domain_name":null,"hash":"0xd6Ade875eEC93a7aAb7EfB7DBF13d1457443f95B","implementations":[],"is_contract":false,"is_scam":false,"is_verified":false,"metadata":null,"name":null,"private_tags":[],"proxy_type":null,"public_tags":[],"reputation":"ok","watchlist_names":[]},"log_index":38,"method":null,"timestamp":null,"to":{"ens_domain_name":null,"hash":"0xA3128d9b7Cca7d5Af29780a56abEec12B05a6740","implementations":[],"is_contract":true,"is_scam":false,"is_verified":false,"metadata":null,"name":null,"private_tags":[],"proxy_type":null,"public_tags":[],"reputation":"ok","watchlist_names":[]},"token":{"address_hash":"0x4200000000000000000000000000000000000042","circulating_market_cap":"266773898.9211445","decimals":"18","exchange_rate":"0.125995","holders_count":"1378321","icon_url":"https://assets.coingecko.com/coins/images/25244/small/Optimism.png?1696524385","name":"Optimism","reputation":"ok","symbol":"OP","total_supply":"4294963292498750113616177748","type":"ERC-20","volume_24h":"60198375.280368656"},"token_type":"ERC-20","total":{"decimals":"18","value":"16433853738701725000"},"transaction_hash":"0x6eb136db4d36cf695f4026da16f602ed4a2583b2420dbbcbd4f436943190b665","type":"token_transfer"},{"block_hash":"0x6e989431f650c6e32effd2647ca852673a7d91f54bec0a3529ac8c050d1f9687","block_number":106757395,"from":{"ens_domain_name":null,"hash":"0xA3128d9b7Cca7d5Af29780a56abEec12B05a6740","implementations":[],"is_contract":true,"is_scam":false,"is_verified":false,"metadata":null,"name":null,"private_tags":[],"proxy_type":null,"public_tags":[],"reputation":"ok","watchlist_names":[]},"log_index":40,"method":null,"timestamp":null,"to":{"ens_domain_name":null,"hash":"0xd1778F9DF3eee5473A9640f13682e3846f61fEbC","implementations":[],"is_contract":true,"is_scam":false,"is_verified":true,"metadata":{"tags":[{"meta":{"tagIcon
        ":"https://blockscout-icons.s3.us-east-1.amazonaws.com/OLI_tag_logo.svg","textColor":"#C163D4","tooltipAttribution":"https://www.openlabelsinitiative.org?utm_source=blockscout","tooltipAttributionIcon":"https://blockscout-icons.s3.us-east-1.amazonaws.com/OLI_tag_logo.svg","tooltipDescription":"Provided
        by OLI"},"name":"WooPPV2","ordinal":0,"slug":"wooppv2","tagType":"name"}]},"name":null,"private_tags":[],"proxy_type":null,"public_tags":[],"reputation":"ok","watchlist_names":[]},"token":{"address_hash":"0x4200000000000000000000000000000000000042","circulating_market_cap":"266773898.9211445","decimals":"18","exchange_rate":"0.125995","holders_count":"1378321","icon_url":"https://assets.coingecko.com/coins/images/25244/small/Optimism.png?1696524385","name":"Optimism","reputation":"ok","symbol":"OP","total_supply":"4294963292498750113616177748","type":"ERC-20","volume_24h":"60198375.280368656"},"token_type":"ERC-20","total":{"decimals":"18","value":"16433853738701725000"},"transaction_hash":"0x6eb136db4d36cf695f4026da16f602ed4a2583b2420dbbcbd4f436943190b665","type":"token_transfer"},{"block_hash":"0x6e989431f650c6e32effd2647ca852673a7d91f54bec0a3529ac8c050d1f9687","block_number":106757395,"from":{"ens_domain_name":null,"hash":"0xd1778F9DF3eee5473A9640f13682e3846f61fEbC","implementations":[],"is_contract":true,"is_scam":false,"is_verified":true,"metadata":{"tags":[{"meta":{"tagIcon
        ":"https://blockscout-icons.s3.us-east-1.amazonaws.com/OLI_tag_logo.svg","textColor":"#C163D4","tooltipAttribution":"https://www.openlabelsinitiative.org?utm_source=blockscout","tooltipAttributionIcon":"https://blockscout-icons.s3.us-east-1.amazonaws.com/OLI_tag_logo.svg","tooltipDescription":"Provided
        by OLI"},"name":"WooPPV2","ordinal":0,"slug":"wooppv2","tagType":"name"}]},"name":null,"private_tags":[],"proxy_type":null,"public_tags":[],"reputation":"ok","watchlist_names":[]},"log_index":41,"method":null,"timestamp":null,"to":{"ens_domain_name":null,"hash":"0xA3128d9b7Cca7d5Af29780a56abEec12B05a6740","implementations":[],"is_contract":true,"is_scam":false,"is_verified":false,"metadata":null,"name":null,"private_tags":[],"proxy_type":null,"public_tags":[],"reputation":"ok","watchlist_names":[]},"token":{"address_hash":"0x7F5c764cBc14f9669B88837ca1490cCa17c31607","circulating_market_cap":"27443395.686763275","decimals":"6","exchange_rate":"0.998713","holders_count":"942012","icon_url":"https://assets.coingecko.com/coins/images/31580/small/USDC-icon.png?1696530397","name":"USD
        Coin","reputation":"ok","symbol":"USDC","total_supply":"27483896415589","type":"ERC-20","volume_24h":"892991.2575644"},"token_type":"ERC-20","total":{"decimals":"6","value":"20005056"},"transaction_hash":"0x6eb136db4d36cf695f4026da16f602ed4a2583b2420dbbcbd4f436943190b665","type":"token_transfer"},{"block_hash":"0x6e989431f650c6e32effd2647ca852673a7d91f54bec0a3529ac8c050d1f9687","block_number":106757395,"from":{"ens_domain_name":null,"hash":"0xA3128d9b7Cca7d5Af29780a56abEec12B05a6740","implementations":[],"is_contract":true,"is_scam":false,"is_verified":false,"metadata":null,"name":null,"private_tags":[],"proxy_type":null,"public_tags":[],"reputation":"ok","watchlist_names":[]},"log_index":45,"method":null,"timestamp":null,"to":{"ens_domain_name":null,"hash":"0xd6Ade875eEC93a7aAb7EfB7DBF13d1457443f95B","implementations":[],"is_contract":false,"is_scam":false,"is_verified":false,"metadata":null,"name":null,"private_tags":[],"proxy_type":null,"public_tags":[],"reputation":"ok","watchlist_names":[]},"token":{"address_hash":"0x7F5c764cBc14f9669B88837ca1490cCa17c31607","circulating_market_cap":"27443395.686763275","decimals":"6","exchange_rate":"0.998713","holders_count":"942012","icon_url":"https://assets.coingecko.com/coins/images/31580/small/USDC-icon.png?1696530397","name":"USD
        Coin","reputation":"ok","symbol":"USDC","total_supply":"27483896415589","type":"ERC-20","volume_24h":"892991.2575644"},"token_type":"ERC-20","total":{"decimals":"6","value":"20005056"},"transaction_hash":"0x6eb136db4d36cf695f4026da16f602ed4a2583b2420dbbcbd4f436943190b665","type":"token_transfer"}],"base_fee_per_gas":"60","timestamp":"2023-07-11T22:12:47.000000Z","nonce":11,"historic_exchange_rate":"1873.33","transaction_types":["contract_call","token_transfer"],"exchange_rate":"2065.3","block_number":106757395,"has_error_in_internal_transactions":false}'
    headers:
      CF-RAY:
      - 9d7f205cdcf80331-MAD
      Cache-Control:
      - max-age=0, private, must-revalidate
      Connection:
      - keep-alive
      Content-Type:
      - application/json; charset=utf-8
      Date:
      - Fri, 06 Mar 2026 05:58:05 GMT
      Nel:
      - '{"report_to":"cf-nel","success_fraction":0.0,"max_age":604800}'
      Report-To:
      - '{"group":"cf-nel","max_age":604800,"endpoints":[{"url":"https://a.nel.cloudflare.com/report/v4?s=U598oRVK8r%2F23fkoKXnR9g%2FrtkddPfb57sluHUgfnWwXgLt%2FXc6a7E0lzwbFoZaRLNhIU0Yaet7Yn4pDPjyMQGSxPLjlWeAJ%2Baw8wS%2FNqXoiXr7H"}]}'
      Server:
      - cloudflare
      Transfer-Encoding:
      - chunked
      access-control-allow-credentials:
      - 'true'
      access-control-allow-origin:
      - '*'
      access-control-expose-headers:
      - bypass-429-option,x-ratelimit-reset,x-ratelimit-limit,x-ratelimit-remaining,api-v2-temp-token
      alt-svc:
      - h3=":443"; ma=86400
      bypass-429-option:
      - temporary_token
      cf-cache-status:
      - DYNAMIC
      content-length:
      - '14400'
      strict-transport-security:
      - max-age=31536000; includeSubDomains
      x-ratelimit-limit:
      - '600'
      x-ratelimit-remaining:
      - '596'
      x-ratelimit-reset:
      - '56887'
      x-request-id:
      - 790cb6fd679a63a7e554efbda4b45dfe
    status:
      code: 200
      message: OK
- request:
    body: null
    headers:
      Accept:
      - '*/*'
      Accept-Encoding:
      - gzip, deflate
      Connection:
      - keep-alive
      User-Agent:
      - rotki/1.42.1.dev85+g21cbca5056.d20260305
    method: GET
    uri: https://api.blockscout.com/10/api?action=txlistinternal&address=0xd6Ade875eEC93a7aAb7EfB7DBF13d1457443f95B&endblock=106757395&module=account&sort=asc&startblock=106757395
  response:
    body:
      string: '{"message":"No internal transactions found","result":[],"status":"0"}'
    headers:
      CF-RAY:
      - 9d7f206dacc1013f-MAD
      Cache-Control:
      - max-age=0, private, must-revalidate
      Connection:
      - keep-alive
      Content-Type:
      - application/json; charset=utf-8
      Date:
      - Fri, 06 Mar 2026 05:58:05 GMT
      Nel:
      - '{"report_to":"cf-nel","success_fraction":0.0,"max_age":604800}'
      Report-To:
      - '{"group":"cf-nel","max_age":604800,"endpoints":[{"url":"https://a.nel.cloudflare.com/report/v4?s=Tico0iq7ydnYx3siVmumiAOEn6%2B44EF%2BDequeT07rd2i08Zy%2FcBC4BR2oSlnawCYGzA9SRoVrWrvGTm%2BSx%2BZZTTrSia51WbT289xi73gZr11fJGC"}]}'
      Server:
      - cloudflare
      Transfer-Encoding:
      - chunked
      access-control-allow-credentials:
      - 'true'
      access-control-allow-origin:
      - '*'
      access-control-expose-headers:
      - bypass-429-option,x-ratelimit-reset,x-ratelimit-limit,x-ratelimit-remaining,api-v2-temp-token
      alt-svc:
      - h3=":443"; ma=86400
      bypass-429-option:
      - no_bypass
      cf-cache-status:
      - DYNAMIC
      content-length:
      - '69'
      strict-transport-security:
      - max-age=31536000; includeSubDomains
      x-ratelimit-limit:
      - '600'
      x-ratelimit-remaining:
      - '595'
      x-ratelimit-reset:
      - '54274'
      x-request-id:
      - db18195d22c0285dfbfa86d1f0775faa
    status:
      code: 200
      message: OK
- request:
    body: null
    headers:
      Accept:
      - '*/*'
      Accept-Encoding:
      - gzip, deflate
      Connection:
      - keep-alive
      User-Agent:
      - rotki/1.42.1.dev85+g21cbca5056.d20260305
    method: GET
    uri: https://api.blockscout.com/10/api?action=tokentx&address=0xd6Ade875eEC93a7aAb7EfB7DBF13d1457443f95B&endblock=106757395&module=account&sort=asc&startblock=106757395
  response:
    body:
      string: '{"message":"OK","result":[{"value":"16433853738701725000","blockHash":"0x6e989431f650c6e32effd2647ca852673a7d91f54bec0a3529ac8c050d1f9687","blockNumber":"106757395","confirmations":"41831558","contractAddress":"0x4200000000000000000000000000000000000042","cumulativeGasUsed":"2023164","from":"0xd6ade875eec93a7aab7efb7dbf13d1457443f95b","functionName":"transformERC20(address
        inputToken, address outputToken, uint256 inputTokenAmount, uint256 minOutputTokenAmount,
        (uint32,bytes)[] transformations)","gas":"523212","gasPrice":"66","gasUsed":"322803","hash":"0x6eb136db4d36cf695f4026da16f602ed4a2583b2420dbbcbd4f436943190b665","input":"0x415565b000000000000000000000000042000000000000000000000000000000000000420000000000000000000000007f5c764cbc14f9669b88837ca1490cca17c31607000000000000000000000000000000000000000000000000e410c6e7b20a9d48000000000000000000000000000000000000000000000000000000000128186800000000000000000000000000000000000000000000000000000000000000a0000000000000000000000000000000000000000000000000000000000000000200000000000000000000000000000000000000000000000000000000000000400000000000000000000000000000000000000000000000000000000000000360000000000000000000000000000000000000000000000000000000000000000f000000000000000000000000000000000000000000000000000000000000004000000000000000000000000000000000000000000000000000000000000002c00000000000000000000000000000000000000000000000000000000000000020000000000000000000000000000000000000000000000000000000000000000000000000000000000000000042000000000000000000000000000000000000420000000000000000000000007f5c764cbc14f9669b88837ca1490cca17c316070000000000000000000000000000000000000000000000000000000000000140000000000000000000000000000000000000000000000000000000000000028000000000000000000000000000000000000000000000000000000000000002800000000000000000000000000000000000000000000000000000000000000240000000000000000000000000000000000000000000000000e410c6e7b20a9d4800000000000000000000000000000000000000000000000000000000000000000000000000000000000000000000000000000000000000000000000000000280000000000000000000000000000000000000000000000000000000000000000100000000000000000000000000000000000000000000000000000000000000200000000000000000000000000000001f574f4f46690000000000000000000000000000000000000000000000000000000000000000000000e410c6e7b20a9d48000000000000000000000000000000000000000000000000000000000128186800000000000000000000000000000000000000000000000000000000000000800000000000000000000000000000000000000000000000000000000000000020000000000000000000000000eaf1ac8e89ea0ae13e0f03634a4ff23502527024000000000000000000000000000000000000000000000000000000000000000100000000000000000000000000000000000000000000000000000000000000000000000000000000000000000000000000000000000000000000000000000000000000000000000000000000000000000000000000000000000000000000000b000000000000000000000000000000000000000000000000000000000000004000000000000000000000000000000000000000000000000000000000000000e00000000000000000000000000000000000000000000000000000000000000020000000000000000000000000000000000000000000000000000000000000004000000000000000000000000000000000000000000000000000000000000000a000000000000000000000000000000000000000000000000000000000000000020000000000000000000000004200000000000000000000000000000000000042000000000000000000000000eeeeeeeeeeeeeeeeeeeeeeeeeeeeeeeeeeeeeeee0000000000000000000000000000000000000000000000000000000000000000869584cd000000000000000000000000382ffce2287252f930e1c8dc9328dac5bf282ba10000000000000000000000000000000000000000000000e5867b475164add3cb","methodId":"415565b0","nonce":"11","timeStamp":"1689113567","to":"0xa3128d9b7cca7d5af29780a56abeec12b05a6740","tokenDecimal":"18","tokenName":"Optimism","tokenSymbol":"OP","transactionIndex":"7"},{"value":"20005056","blockHash":"0x6e989431f650c6e32effd2647ca852673a7d91f54bec0a3529ac8c050d1f9687","blockNumber":"106757395","confirmations":"41831558","contractAddress":"0x7f5c764cbc14f9669b88837ca1490cca17c31607","cumulativeGasUsed":"2023164","from":"0xa3128d9b7cca7d5af29780a56abeec12b05a6740","functionName":"transformERC20(address
        inputToken, address outputToken, uint256 inputTokenAmount, uint256 minOutputTokenAmount,
        (uint32,bytes)[] transformations)","gas":"523212","gasPrice":"66","gasUsed":"322803","hash":"0x6eb136db4d36cf695f4026da16f602ed4a2583b2420dbbcbd4f436943190b665","input":"0x415565b000000000000000000000000042000000000000000000000000000000000000420000000000000000000000007f5c764cbc14f9669b88837ca1490cca17c31607000000000000000000000000000000000000000000000000e410c6e7b20a9d48000000000000000000000000000000000000000000000000000000000128186800000000000000000000000000000000000000000000000000000000000000a0000000000000000000000000000000000000000000000000000000000000000200000000000000000000000000000000000000000000000000000000000000400000000000000000000000000000000000000000000000000000000000000360000000000000000000000000000000000000000000000000000000000000000f000000000000000000000000000000000000000000000000000000000000004000000000000000000000000000000000000000000000000000000000000002c00000000000000000000000000000000000000000000000000000000000000020000000000000000000000000000000000000000000000000000000000000000000000000000000000000000042000000000000000000000000000000000000420000000000000000000000007f5c764cbc14f9669b88837ca1490cca17c316070000000000000000000000000000000000000000000000000000000000000140000000000000000000000000000000000000000000000000000000000000028000000000000000000000000000000000000000000000000000000000000002800000000000000000000000000000000000000000000000000000000000000240000000000000000000000000000000000000000000000000e410c6e7b20a9d4800000000000000000000000000000000000000000000000000000000000000000000000000000000000000000000000000000000000000000000000000000280000000000000000000000000000000000000000000000000000000000000000100000000000000000000000000000000000000000000000000000000000000200000000000000000000000000000001f574f4f46690000000000000000000000000000000000000000000000000000000000000000000000e410c6e7b20a9d48000000000000000000000000000000000000000000000000000000000128186800000000000000000000000000000000000000000000000000000000000000800000000000000000000000000000000000000000000000000000000000000020000000000000000000000000eaf1ac8e89ea0ae13e0f03634a4ff23502527024000000000000000000000000000000000000000000000000000000000000000100000000000000000000000000000000000000000000000000000000000000000000000000000000000000000000000000000000000000000000000000000000000000000000000000000000000000000000000000000000000000000000000b000000000000000000000000000000000000000000000000000000000000004000000000000000000000000000000000000000000000000000000000000000e00000000000000000000000000000000000000000000000000000000000000020000000000000000000000000000000000000000000000000000000000000004000000000000000000000000000000000000000000000000000000000000000a000000000000000000000000000000000000000000000000000000000000000020000000000000000000000004200000000000000000000000000000000000042000000000000000000000000eeeeeeeeeeeeeeeeeeeeeeeeeeeeeeeeeeeeeeee0000000000000000000000000000000000000000000000000000000000000000869584cd000000000000000000000000382ffce2287252f930e1c8dc9328dac5bf282ba10000000000000000000000000000000000000000000000e5867b475164add3cb","methodId":"415565b0","nonce":"11","timeStamp":"1689113567","to":"0xd6ade875eec93a7aab7efb7dbf13d1457443f95b","tokenDecimal":"6","tokenName":"USD
        Coin","tokenSymbol":"USDC","transactionIndex":"7"}],"status":"1"}'
    headers:
      CF-RAY:
      - 9d7f206e4be0eca9-MAD
      Cache-Control:
      - max-age=0, private, must-revalidate
      Connection:
      - keep-alive
      Content-Type:
      - application/json; charset=utf-8
      Date:
      - Fri, 06 Mar 2026 05:58:05 GMT
      Nel:
      - '{"report_to":"cf-nel","success_fraction":0.0,"max_age":604800}'
      Report-To:
      - '{"group":"cf-nel","max_age":604800,"endpoints":[{"url":"https://a.nel.cloudflare.com/report/v4?s=JGAEJsGs4mSp%2BJZQf8girRtGLiWk1q%2BhjkPQkSmQBjPr0tqd3oEdYLJrG7%2F8JPLhOm%2BcnQSs5%2B5XZaV%2BRe0R3pqt16Js4EnEeL1BduPKzAlsCI5o"}]}'
      Server:
      - cloudflare
      Transfer-Encoding:
      - chunked
      access-control-allow-credentials:
      - 'true'
      access-control-allow-origin:
      - '*'
      access-control-expose-headers:
      - bypass-429-option,x-ratelimit-reset,x-ratelimit-limit,x-ratelimit-remaining,api-v2-temp-token
      alt-svc:
      - h3=":443"; ma=86400
      bypass-429-option:
      - no_bypass
      cf-cache-status:
      - DYNAMIC
      content-length:
      - '7439'
      strict-transport-security:
      - max-age=31536000; includeSubDomains
      x-ratelimit-limit:
      - '600'
      x-ratelimit-remaining:
      - '594'
      x-ratelimit-reset:
      - '54180'
      x-request-id:
      - dabbee85d4261970e9bc504360c2e778
    status:
      code: 200
      message: OK
- request:
    body: '{"jsonrpc": "2.0", "method": "web3_clientVersion", "params": [], "id":
      0}'
    headers:
      Accept:
      - '*/*'
      Accept-Encoding:
      - gzip, deflate
      Connection:
      - keep-alive
      Content-Length:
      - '73'
      Content-Type:
      - application/json
      User-Agent:
      - web3.py/7.14.0/web3.providers.rpc.rpc.HTTPProvider
    method: POST
    uri: https://mainnet.optimism.io/
  response:
    body:
      string: '{"jsonrpc":"2.0","result":"Geth/v1.101609.0-stable-0c840dff/linux-amd64/go1.24.13","id":0}

        '
    headers:
      Alt-Svc:
      - h3=":443"; ma=2592000,h3-29=":443"; ma=2592000
      Content-Length:
      - '91'
      Content-Type:
      - application/json
      Date:
      - Fri, 06 Mar 2026 05:58:05 GMT
      Set-Cookie:
      - lb1=bd40a79ebf64e93e; Path=/
      Vary:
      - Origin
      Via:
      - 1.1 google
      X-Proxyd-Cache-Status:
      - MISS
    status:
      code: 200
      message: OK
- request:
    body: '{"jsonrpc": "2.0", "method": "net_version", "params": [], "id": 1}'
    headers:
      Accept:
      - '*/*'
      Accept-Encoding:
      - gzip, deflate
      Connection:
      - keep-alive
      Content-Length:
      - '66'
      Content-Type:
      - application/json
      Cookie:
      - lb1=bd40a79ebf64e93e
      User-Agent:
      - web3.py/7.14.0/web3.providers.rpc.rpc.HTTPProvider
    method: POST
    uri: https://mainnet.optimism.io/
  response:
    body:
      string: '{"jsonrpc":"2.0","result":"10","id":1}

        '
    headers:
      Alt-Svc:
      - h3=":443"; ma=2592000,h3-29=":443"; ma=2592000
      Content-Length:
      - '39'
      Content-Type:
      - application/json
      Date:
      - Fri, 06 Mar 2026 05:58:06 GMT
      Vary:
      - Origin
      Via:
      - 1.1 google
      X-Proxyd-Cache-Status:
      - HIT
    status:
      code: 200
      message: OK
- request:
    body: '{"jsonrpc": "2.0", "method": "eth_blockNumber", "params": [], "id": 2}'
    headers:
      Accept:
      - '*/*'
      Accept-Encoding:
      - gzip, deflate
      Connection:
      - keep-alive
      Content-Length:
      - '70'
      Content-Type:
      - application/json
      Cookie:
      - lb1=bd40a79ebf64e93e
      User-Agent:
      - web3.py/7.14.0/web3.providers.rpc.rpc.HTTPProvider
    method: POST
    uri: https://mainnet.optimism.io/
  response:
    body:
      string: '{"jsonrpc":"2.0","result":"0x8db499a","id":2}

        '
    headers:
      Alt-Svc:
      - h3=":443"; ma=2592000,h3-29=":443"; ma=2592000
      Content-Length:
      - '46'
      Content-Type:
      - application/json
      Date:
      - Fri, 06 Mar 2026 05:58:06 GMT
      Vary:
      - Origin
      Via:
      - 1.1 google
      X-Proxyd-Cache-Status:
      - MISS
    status:
      code: 200
      message: OK
- request:
    body: '{"jsonrpc": "2.0", "method": "eth_getBalance", "params": ["0x76a05Df20bFEF5EcE3eB16afF9cb10134199A921",
      "0x12110"], "id": 3}'
    headers:
      Accept:
      - '*/*'
      Accept-Encoding:
      - gzip, deflate
      Connection:
      - keep-alive
      Content-Length:
      - '124'
      Content-Type:
      - application/json
      Cookie:
      - lb1=bd40a79ebf64e93e
      User-Agent:
      - web3.py/7.14.0/web3.providers.rpc.rpc.HTTPProvider
    method: POST
    uri: https://mainnet.optimism.io/
  response:
    body:
      string: '{"jsonrpc":"2.0","result":"0xb1a2bc2ec50000","id":3}

        '
    headers:
      Alt-Svc:
      - h3=":443"; ma=2592000,h3-29=":443"; ma=2592000
      Content-Length:
      - '53'
      Content-Type:
      - application/json
      Date:
      - Fri, 06 Mar 2026 05:58:06 GMT
      Vary:
      - Origin
      Via:
      - 1.1 google
      X-Proxyd-Cache-Status:
      - MISS
    status:
      code: 200
      message: OK
- request:
    body: '{"jsonrpc": "2.0", "method": "eth_getTransactionByHash", "params": ["0x5e77a04531c7c107af1882d76cbff9486d0a9aa53701c30888509d4f5f2b003a"],
      "id": 4}'
    headers:
      Accept:
      - '*/*'
      Accept-Encoding:
      - gzip, deflate
      Connection:
      - keep-alive
      Content-Length:
      - '147'
      Content-Type:
      - application/json
      Cookie:
      - lb1=bd40a79ebf64e93e
      User-Agent:
      - web3.py/7.14.0/web3.providers.rpc.rpc.HTTPProvider
    method: POST
    uri: https://mainnet.optimism.io/
  response:
    body:
      string: '{"jsonrpc":"2.0","result":{"blockHash":"0xbee7192e575af30420cae0c7776304ac196077ee72b048970549e4f08e875453","blockNumber":"0x1","chainId":"0xa","from":"0x70b17c0fe982ab4a7ac17a4c25485643151a1f2d","gas":"0x7a120","gasPrice":"0x1","hash":"0x5e77a04531c7c107af1882d76cbff9486d0a9aa53701c30888509d4f5f2b003a","input":"0x202ee0ed000000000000000000000000000000000000000000000000000000000001421800000000000000000000000000000000000000000000000000000000d0e3ebf0","nonce":"0x28972","r":"0xc878d22e771004beb73e7a4268fd4f447735812b94b217f6807412efcec90d61","s":"0x3588018735fb361c49e5de54b266b8b157c1ba3d6ee08e3bcbdee7cd725c16e8","to":"0x8ce8c13d816fe6daf12d6fd9e4952e1fc88850af","transactionIndex":"0x0","type":"0x0","v":"0x38","value":"0x0"},"id":4}

        '
    headers:
      Alt-Svc:
      - h3=":443"; ma=2592000,h3-29=":443"; ma=2592000
      Content-Length:
      - '740'
      Content-Type:
      - application/json
      Date:
      - Fri, 06 Mar 2026 05:58:06 GMT
      Vary:
      - Origin
      Via:
      - 1.1 google
      X-Proxyd-Cache-Status:
      - MISS
    status:
      code: 200
      message: OK
- request:
    body: '{"jsonrpc": "2.0", "method": "eth_getTransactionByHash", "params": ["0x6eb136db4d36cf695f4026da16f602ed4a2583b2420dbbcbd4f436943190b665"],
      "id": 5}'
    headers:
      Accept:
      - '*/*'
      Accept-Encoding:
      - gzip, deflate
      Connection:
      - keep-alive
      Content-Length:
      - '147'
      Content-Type:
      - application/json
      Cookie:
      - lb1=bd40a79ebf64e93e
      User-Agent:
      - web3.py/7.14.0/web3.providers.rpc.rpc.HTTPProvider
    method: POST
    uri: https://mainnet.optimism.io/
  response:
    body:
      string: '{"jsonrpc":"2.0","result":{"accessList":[],"blockHash":"0x6e989431f650c6e32effd2647ca852673a7d91f54bec0a3529ac8c050d1f9687","blockNumber":"0x65cfd13","chainId":"0xa","from":"0xd6ade875eec93a7aab7efb7dbf13d1457443f95b","gas":"0x7fbcc","gasPrice":"0x42","hash":"0x6eb136db4d36cf695f4026da16f602ed4a2583b2420dbbcbd4f436943190b665","input":"0x415565b000000000000000000000000042000000000000000000000000000000000000420000000000000000000000007f5c764cbc14f9669b88837ca1490cca17c31607000000000000000000000000000000000000000000000000e410c6e7b20a9d48000000000000000000000000000000000000000000000000000000000128186800000000000000000000000000000000000000000000000000000000000000a0000000000000000000000000000000000000000000000000000000000000000200000000000000000000000000000000000000000000000000000000000000400000000000000000000000000000000000000000000000000000000000000360000000000000000000000000000000000000000000000000000000000000000f000000000000000000000000000000000000000000000000000000000000004000000000000000000000000000000000000000000000000000000000000002c00000000000000000000000000000000000000000000000000000000000000020000000000000000000000000000000000000000000000000000000000000000000000000000000000000000042000000000000000000000000000000000000420000000000000000000000007f5c764cbc14f9669b88837ca1490cca17c316070000000000000000000000000000000000000000000000000000000000000140000000000000000000000000000000000000000000000000000000000000028000000000000000000000000000000000000000000000000000000000000002800000000000000000000000000000000000000000000000000000000000000240000000000000000000000000000000000000000000000000e410c6e7b20a9d4800000000000000000000000000000000000000000000000000000000000000000000000000000000000000000000000000000000000000000000000000000280000000000000000000000000000000000000000000000000000000000000000100000000000000000000000000000000000000000000000000000000000000200000000000000000000000000000001f574f4f46690000000000000000000000000000000000000000000000000000000000000000000000e410c6e7b20a9d48000000000000000000000000000000000000000000000000000000000128186800000000000000000000000000000000000000000000000000000000000000800000000000000000000000000000000000000000000000000000000000000020000000000000000000000000eaf1ac8e89ea0ae13e0f03634a4ff23502527024000000000000000000000000000000000000000000000000000000000000000100000000000000000000000000000000000000000000000000000000000000000000000000000000000000000000000000000000000000000000000000000000000000000000000000000000000000000000000000000000000000000000000b000000000000000000000000000000000000000000000000000000000000004000000000000000000000000000000000000000000000000000000000000000e00000000000000000000000000000000000000000000000000000000000000020000000000000000000000000000000000000000000000000000000000000004000000000000000000000000000000000000000000000000000000000000000a000000000000000000000000000000000000000000000000000000000000000020000000000000000000000004200000000000000000000000000000000000042000000000000000000000000eeeeeeeeeeeeeeeeeeeeeeeeeeeeeeeeeeeeeeee0000000000000000000000000000000000000000000000000000000000000000869584cd000000000000000000000000382ffce2287252f930e1c8dc9328dac5bf282ba10000000000000000000000000000000000000000000000e5867b475164add3cb","maxFeePerGas":"0x42","maxPriorityFeePerGas":"0xc","nonce":"0xb","r":"0x66f6b75271024833577512f5ca02ddbe0b134d8f434a4328ec0df7e32d38d131","s":"0x1bf15740a112ecf796c6af734c718383ee532b3d5d81c938c5094703fac84724","to":"0xdef1abe32c034e558cdd535791643c58a13acc10","transactionIndex":"0x7","type":"0x2","v":"0x1","value":"0x0","yParity":"0x1"},"id":5}

        '
    headers:
      Alt-Svc:
      - h3=":443"; ma=2592000,h3-29=":443"; ma=2592000
      Content-Type:
      - application/json
      Date:
      - Fri, 06 Mar 2026 05:58:06 GMT
      Transfer-Encoding:
      - chunked
      Vary:
      - Origin
      Via:
      - 1.1 google
      X-Proxyd-Cache-Status:
      - MISS
    status:
      code: 200
      message: OK
- request:
    body: '{"jsonrpc": "2.0", "method": "eth_getTransactionReceipt", "params": ["0x6eb136db4d36cf695f4026da16f602ed4a2583b2420dbbcbd4f436943190b665"],
      "id": 6}'
    headers:
      Accept:
      - '*/*'
      Accept-Encoding:
      - gzip, deflate
      Connection:
      - keep-alive
      Content-Length:
      - '148'
      Content-Type:
      - application/json
      Cookie:
      - lb1=bd40a79ebf64e93e
      User-Agent:
      - web3.py/7.14.0/web3.providers.rpc.rpc.HTTPProvider
    method: POST
    uri: https://mainnet.optimism.io/
  response:
    body:
      string: '{"jsonrpc":"2.0","result":{"blockHash":"0x6e989431f650c6e32effd2647ca852673a7d91f54bec0a3529ac8c050d1f9687","blockNumber":"0x65cfd13","contractAddress":null,"cumulativeGasUsed":"0x1edefc","effectiveGasPrice":"0x42","from":"0xd6ade875eec93a7aab7efb7dbf13d1457443f95b","gasUsed":"0x4ecf3","l1Fee":"0x6946c3290ff5","l1FeeScalar":"0.684","l1GasPrice":"0x3f31c33ee","l1GasUsed":"0x26f8","logs":[{"address":"0x4200000000000000000000000000000000000042","blockHash":"0x6e989431f650c6e32effd2647ca852673a7d91f54bec0a3529ac8c050d1f9687","blockNumber":"0x65cfd13","blockTimestamp":"0x64add3df","data":"0x000000000000000000000000000000000000000000000000e410c6e7b20a9d48","logIndex":"0x26","removed":false,"topics":["0xddf252ad1be2c89b69c2b068fc378daa952ba7f163c4a11628f55a4df523b3ef","0x000000000000000000000000d6ade875eec93a7aab7efb7dbf13d1457443f95b","0x000000000000000000000000a3128d9b7cca7d5af29780a56abeec12b05a6740"],"transactionHash":"0x6eb136db4d36cf695f4026da16f602ed4a2583b2420dbbcbd4f436943190b665","transactionIndex":"0x7"},{"address":"0x4200000000000000000000000000000000000042","blockHash":"0x6e989431f650c6e32effd2647ca852673a7d91f54bec0a3529ac8c050d1f9687","blockNumber":"0x65cfd13","blockTimestamp":"0x64add3df","data":"0x000000000000000000000000000000000000000000029b6899850eb772cffbab000000000000000000000000000000000000000000029b67b57447cfc0c55e63","logIndex":"0x27","removed":false,"topics":["0xdec2bacdd2f05b59de34da9b523dff8be42e5e38e818c82fdb0bae774387a724","0x0000000000000000000000005e349eca2dc61abcd9dd99ce94d04136151a09ee"],"transactionHash":"0x6eb136db4d36cf695f4026da16f602ed4a2583b2420dbbcbd4f436943190b665","transactionIndex":"0x7"},{"address":"0x4200000000000000000000000000000000000042","blockHash":"0x6e989431f650c6e32effd2647ca852673a7d91f54bec0a3529ac8c050d1f9687","blockNumber":"0x65cfd13","blockTimestamp":"0x64add3df","data":"0x000000000000000000000000000000000000000000000000e410c6e7b20a9d48","logIndex":"0x28","removed":false,"topics":["0xddf252ad1be2c89b69c2b068fc378daa952ba7f163c4a11628f55a4df523b3ef","0x000000000000000000000000a3128d9b7cca7d5af29780a56abeec12b05a6740","0x000000000000000000000000d1778f9df3eee5473a9640f13682e3846f61febc"],"transactionHash":"0x6eb136db4d36cf695f4026da16f602ed4a2583b2420dbbcbd4f436943190b665","transactionIndex":"0x7"},{"address":"0x7f5c764cbc14f9669b88837ca1490cca17c31607","blockHash":"0x6e989431f650c6e32effd2647ca852673a7d91f54bec0a3529ac8c050d1f9687","blockNumber":"0x65cfd13","blockTimestamp":"0x64add3df","data":"0x00000000000000000000000000000000000000000000000000000000013140c0","logIndex":"0x29","removed":false,"topics":["0xddf252ad1be2c89b69c2b068fc378daa952ba7f163c4a11628f55a4df523b3ef","0x000000000000000000000000d1778f9df3eee5473a9640f13682e3846f61febc","0x000000000000000000000000a3128d9b7cca7d5af29780a56abeec12b05a6740"],"transactionHash":"0x6eb136db4d36cf695f4026da16f602ed4a2583b2420dbbcbd4f436943190b665","transactionIndex":"0x7"},{"address":"0xd1778f9df3eee5473a9640f13682e3846f61febc","blockHash":"0x6e989431f650c6e32effd2647ca852673a7d91f54bec0a3529ac8c050d1f9687","blockNumber":"0x65cfd13","blockTimestamp":"0x64add3df","data":"0x000000000000000000000000000000000000000000000000e410c6e7b20a9d4800000000000000000000000000000000000000000000000000000000013140c0000000000000000000000000eaf1ac8e89ea0ae13e0f03634a4ff23502527024000000000000000000000000bfdcbb4c05843163f491c24f9c0019c510786304000000000000000000000000000000000000000000000000000000000131544a000000000000000000000000000000000000000000000000000000000000138a","logIndex":"0x2a","removed":false,"topics":["0x0e8e403c2d36126272b08c75823e988381d9dc47f2f0a9a080d95f891d95c469","0x0000000000000000000000004200000000000000000000000000000000000042","0x0000000000000000000000007f5c764cbc14f9669b88837ca1490cca17c31607","0x000000000000000000000000a3128d9b7cca7d5af29780a56abeec12b05a6740"],"transactionHash":"0x6eb136db4d36cf695f4026da16f602ed4a2583b2420dbbcbd4f436943190b665","transactionIndex":"0x7"},{"address":"0xeaf1ac8e89ea0ae13e0f03634a4ff23502527024","blockHash":"0x6e989431f650c6e32effd2647ca852673a7d91f54bec0a3529ac8c050d1f9687","blockNumber":"0x65cfd13","blockTimestamp":"0x64add3df","data":"0x0000000000000000000000000000000000000000000000000000000000000000000000000000000000000000000000000000000000000000e410c6e7b20a9d4800000000000000000000000000000000000000000000000000000000013140c0000000000000000000000000a3128d9b7cca7d5af29780a56abeec12b05a6740000000000000000000000000bfdcbb4c05843163f491c24f9c0019c510786304","logIndex":"0x2b","removed":false,"topics":["0x27c98e911efdd224f4002f6cd831c3ad0d2759ee176f9ee8466d95826af22a1c","0x0000000000000000000000004200000000000000000000000000000000000042","0x0000000000000000000000007f5c764cbc14f9669b88837ca1490cca17c31607","0x000000000000000000000000a3128d9b7cca7d5af29780a56abeec12b05a6740"],"transactionHash":"0x6eb136db4d36cf695f4026da16f602ed4a2583b2420dbbcbd4f436943190b665","transactionIndex":"0x7"},{"address":"0xa3128d9b7cca7d5af29780a56abeec12b05a6740","blockHash":"0x6e989431f650c6e32effd2647ca852673a7d91f54bec0a3529ac8c050d1f9687","blockNumber":"0x65cfd13","blockTimestamp":"0x64add3df","data":"0x0000000000000000000000000000001f574f4f4669000000000000000000000000000000000000000000000042000000000000000000000000000000000000420000000000000000000000007f5c764cbc14f9669b88837ca1490cca17c31607000000000000000000000000000000000000000000000000e410c6e7b20a9d4800000000000000000000000000000000000000000000000000000000013140c0","logIndex":"0x2c","removed":false,"topics":["0xe59e71a14fe90157eedc866c4f8c767d3943d6b6b2e8cd64dddcc92ab4c55af8"],"transactionHash":"0x6eb136db4d36cf695f4026da16f602ed4a2583b2420dbbcbd4f436943190b665","transactionIndex":"0x7"},{"address":"0x7f5c764cbc14f9669b88837ca1490cca17c31607","blockHash":"0x6e989431f650c6e32effd2647ca852673a7d91f54bec0a3529ac8c050d1f9687","blockNumber":"0x65cfd13","blockTimestamp":"0x64add3df","data":"0x00000000000000000000000000000000000000000000000000000000013140c0","logIndex":"0x2d","removed":false,"topics":["0xddf252ad1be2c89b69c2b068fc378daa952ba7f163c4a11628f55a4df523b3ef","0x000000000000000000000000a3128d9b7cca7d5af29780a56abeec12b05a6740","0x000000000000000000000000d6ade875eec93a7aab7efb7dbf13d1457443f95b"],"transactionHash":"0x6eb136db4d36cf695f4026da16f602ed4a2583b2420dbbcbd4f436943190b665","transactionIndex":"0x7"},{"address":"0xdef1abe32c034e558cdd535791643c58a13acc10","blockHash":"0x6e989431f650c6e32effd2647ca852673a7d91f54bec0a3529ac8c050d1f9687","blockNumber":"0x65cfd13","blockTimestamp":"0x64add3df","data":"0x00000000000000000000000042000000000000000000000000000000000000420000000000000000000000007f5c764cbc14f9669b88837ca1490cca17c31607000000000000000000000000000000000000000000000000e410c6e7b20a9d4800000000000000000000000000000000000000000000000000000000013140c0","logIndex":"0x2e","removed":false,"topics":["0x0f6672f78a59ba8e5e5b5d38df3ebc67f3c792e2c9259b8d97d7f00dd78ba1b3","0x000000000000000000000000d6ade875eec93a7aab7efb7dbf13d1457443f95b"],"transactionHash":"0x6eb136db4d36cf695f4026da16f602ed4a2583b2420dbbcbd4f436943190b665","transactionIndex":"0x7"}],"logsBloom":"0x000001000004000000000090000000000000000000000004040000000000000000018000000002000001000000000001000000400000000200004100000000c000000000000000002000000800000000000000000000000020000400000000000200008100000000004000100000000000000002000000000000001000000001040000000000000000000000000000000000040000a000000000001000000000040000000000000000000800000003000000000000000000000000000040000000020002000000000000000000000000108000000000000000000000000000001000000000000000051000000000000401000000000200000000000000031001","status":"0x1","to":"0xdef1abe32c034e558cdd535791643c58a13acc10","transactionHash":"0x6eb136db4d36cf695f4026da16f602ed4a2583b2420dbbcbd4f436943190b665","transactionIndex":"0x7","type":"0x2"},"id":6}

        '
    headers:
      Alt-Svc:
      - h3=":443"; ma=2592000,h3-29=":443"; ma=2592000
      Content-Type:
      - application/json
      Date:
      - Fri, 06 Mar 2026 05:58:06 GMT
      Transfer-Encoding:
      - chunked
      Vary:
      - Origin
      Via:
      - 1.1 google
      X-Proxyd-Cache-Status:
      - MISS
    status:
      code: 200
      message: OK
- request:
    body: '{"jsonrpc": "2.0", "method": "eth_getTransactionByHash", "params": ["0x6eb136db4d36cf695f4026da16f602ed4a2583b2420dbbcbd4f436943190b665"],
      "id": 7}'
    headers:
      Accept:
      - '*/*'
      Accept-Encoding:
      - gzip, deflate
      Connection:
      - keep-alive
      Content-Length:
      - '147'
      Content-Type:
      - application/json
      Cookie:
      - lb1=bd40a79ebf64e93e
      User-Agent:
      - web3.py/7.14.0/web3.providers.rpc.rpc.HTTPProvider
    method: POST
    uri: https://mainnet.optimism.io/
  response:
    body:
      string: '{"jsonrpc":"2.0","result":{"accessList":[],"blockHash":"0x6e989431f650c6e32effd2647ca852673a7d91f54bec0a3529ac8c050d1f9687","blockNumber":"0x65cfd13","chainId":"0xa","from":"0xd6ade875eec93a7aab7efb7dbf13d1457443f95b","gas":"0x7fbcc","gasPrice":"0x42","hash":"0x6eb136db4d36cf695f4026da16f602ed4a2583b2420dbbcbd4f436943190b665","input":"0x415565b000000000000000000000000042000000000000000000000000000000000000420000000000000000000000007f5c764cbc14f9669b88837ca1490cca17c31607000000000000000000000000000000000000000000000000e410c6e7b20a9d48000000000000000000000000000000000000000000000000000000000128186800000000000000000000000000000000000000000000000000000000000000a0000000000000000000000000000000000000000000000000000000000000000200000000000000000000000000000000000000000000000000000000000000400000000000000000000000000000000000000000000000000000000000000360000000000000000000000000000000000000000000000000000000000000000f000000000000000000000000000000000000000000000000000000000000004000000000000000000000000000000000000000000000000000000000000002c00000000000000000000000000000000000000000000000000000000000000020000000000000000000000000000000000000000000000000000000000000000000000000000000000000000042000000000000000000000000000000000000420000000000000000000000007f5c764cbc14f9669b88837ca1490cca17c316070000000000000000000000000000000000000000000000000000000000000140000000000000000000000000000000000000000000000000000000000000028000000000000000000000000000000000000000000000000000000000000002800000000000000000000000000000000000000000000000000000000000000240000000000000000000000000000000000000000000000000e410c6e7b20a9d4800000000000000000000000000000000000000000000000000000000000000000000000000000000000000000000000000000000000000000000000000000280000000000000000000000000000000000000000000000000000000000000000100000000000000000000000000000000000000000000000000000000000000200000000000000000000000000000001f574f4f46690000000000000000000000000000000000000000000000000000000000000000000000e410c6e7b20a9d48000000000000000000000000000000000000000000000000000000000128186800000000000000000000000000000000000000000000000000000000000000800000000000000000000000000000000000000000000000000000000000000020000000000000000000000000eaf1ac8e89ea0ae13e0f03634a4ff23502527024000000000000000000000000000000000000000000000000000000000000000100000000000000000000000000000000000000000000000000000000000000000000000000000000000000000000000000000000000000000000000000000000000000000000000000000000000000000000000000000000000000000000000b000000000000000000000000000000000000000000000000000000000000004000000000000000000000000000000000000000000000000000000000000000e00000000000000000000000000000000000000000000000000000000000000020000000000000000000000000000000000000000000000000000000000000004000000000000000000000000000000000000000000000000000000000000000a000000000000000000000000000000000000000000000000000000000000000020000000000000000000000004200000000000000000000000000000000000042000000000000000000000000eeeeeeeeeeeeeeeeeeeeeeeeeeeeeeeeeeeeeeee0000000000000000000000000000000000000000000000000000000000000000869584cd000000000000000000000000382ffce2287252f930e1c8dc9328dac5bf282ba10000000000000000000000000000000000000000000000e5867b475164add3cb","maxFeePerGas":"0x42","maxPriorityFeePerGas":"0xc","nonce":"0xb","r":"0x66f6b75271024833577512f5ca02ddbe0b134d8f434a4328ec0df7e32d38d131","s":"0x1bf15740a112ecf796c6af734c718383ee532b3d5d81c938c5094703fac84724","to":"0xdef1abe32c034e558cdd535791643c58a13acc10","transactionIndex":"0x7","type":"0x2","v":"0x1","value":"0x0","yParity":"0x1"},"id":7}

        '
    headers:
      Alt-Svc:
      - h3=":443"; ma=2592000,h3-29=":443"; ma=2592000
      Content-Type:
      - application/json
      Date:
      - Fri, 06 Mar 2026 05:58:06 GMT
      Transfer-Encoding:
      - chunked
      Vary:
      - Origin
      Via:
      - 1.1 google
      X-Proxyd-Cache-Status:
      - MISS
    status:
      code: 200
      message: OK
- request:
    body: '{"jsonrpc": "2.0", "method": "eth_getTransactionReceipt", "params": ["0x6eb136db4d36cf695f4026da16f602ed4a2583b2420dbbcbd4f436943190b665"],
      "id": 8}'
    headers:
      Accept:
      - '*/*'
      Accept-Encoding:
      - gzip, deflate
      Connection:
      - keep-alive
      Content-Length:
      - '148'
      Content-Type:
      - application/json
      Cookie:
      - lb1=bd40a79ebf64e93e
      User-Agent:
      - web3.py/7.14.0/web3.providers.rpc.rpc.HTTPProvider
    method: POST
    uri: https://mainnet.optimism.io/
  response:
    body:
      string: '{"jsonrpc":"2.0","result":{"blockHash":"0x6e989431f650c6e32effd2647ca852673a7d91f54bec0a3529ac8c050d1f9687","blockNumber":"0x65cfd13","contractAddress":null,"cumulativeGasUsed":"0x1edefc","effectiveGasPrice":"0x42","from":"0xd6ade875eec93a7aab7efb7dbf13d1457443f95b","gasUsed":"0x4ecf3","l1Fee":"0x6946c3290ff5","l1FeeScalar":"0.684","l1GasPrice":"0x3f31c33ee","l1GasUsed":"0x26f8","logs":[{"address":"0x4200000000000000000000000000000000000042","blockHash":"0x6e989431f650c6e32effd2647ca852673a7d91f54bec0a3529ac8c050d1f9687","blockNumber":"0x65cfd13","blockTimestamp":"0x64add3df","data":"0x000000000000000000000000000000000000000000000000e410c6e7b20a9d48","logIndex":"0x26","removed":false,"topics":["0xddf252ad1be2c89b69c2b068fc378daa952ba7f163c4a11628f55a4df523b3ef","0x000000000000000000000000d6ade875eec93a7aab7efb7dbf13d1457443f95b","0x000000000000000000000000a3128d9b7cca7d5af29780a56abeec12b05a6740"],"transactionHash":"0x6eb136db4d36cf695f4026da16f602ed4a2583b2420dbbcbd4f436943190b665","transactionIndex":"0x7"},{"address":"0x4200000000000000000000000000000000000042","blockHash":"0x6e989431f650c6e32effd2647ca852673a7d91f54bec0a3529ac8c050d1f9687","blockNumber":"0x65cfd13","blockTimestamp":"0x64add3df","data":"0x000000000000000000000000000000000000000000029b6899850eb772cffbab000000000000000000000000000000000000000000029b67b57447cfc0c55e63","logIndex":"0x27","removed":false,"topics":["0xdec2bacdd2f05b59de34da9b523dff8be42e5e38e818c82fdb0bae774387a724","0x0000000000000000000000005e349eca2dc61abcd9dd99ce94d04136151a09ee"],"transactionHash":"0x6eb136db4d36cf695f4026da16f602ed4a2583b2420dbbcbd4f436943190b665","transactionIndex":"0x7"},{"address":"0x4200000000000000000000000000000000000042","blockHash":"0x6e989431f650c6e32effd2647ca852673a7d91f54bec0a3529ac8c050d1f9687","blockNumber":"0x65cfd13","blockTimestamp":"0x64add3df","data":"0x000000000000000000000000000000000000000000000000e410c6e7b20a9d48","logIndex":"0x28","removed":false,"topics":["0xddf252ad1be2c89b69c2b068fc378daa952ba7f163c4a11628f55a4df523b3ef","0x000000000000000000000000a3128d9b7cca7d5af29780a56abeec12b05a6740","0x000000000000000000000000d1778f9df3eee5473a9640f13682e3846f61febc"],"transactionHash":"0x6eb136db4d36cf695f4026da16f602ed4a2583b2420dbbcbd4f436943190b665","transactionIndex":"0x7"},{"address":"0x7f5c764cbc14f9669b88837ca1490cca17c31607","blockHash":"0x6e989431f650c6e32effd2647ca852673a7d91f54bec0a3529ac8c050d1f9687","blockNumber":"0x65cfd13","blockTimestamp":"0x64add3df","data":"0x00000000000000000000000000000000000000000000000000000000013140c0","logIndex":"0x29","removed":false,"topics":["0xddf252ad1be2c89b69c2b068fc378daa952ba7f163c4a11628f55a4df523b3ef","0x000000000000000000000000d1778f9df3eee5473a9640f13682e3846f61febc","0x000000000000000000000000a3128d9b7cca7d5af29780a56abeec12b05a6740"],"transactionHash":"0x6eb136db4d36cf695f4026da16f602ed4a2583b2420dbbcbd4f436943190b665","transactionIndex":"0x7"},{"address":"0xd1778f9df3eee5473a9640f13682e3846f61febc","blockHash":"0x6e989431f650c6e32effd2647ca852673a7d91f54bec0a3529ac8c050d1f9687","blockNumber":"0x65cfd13","blockTimestamp":"0x64add3df","data":"0x000000000000000000000000000000000000000000000000e410c6e7b20a9d4800000000000000000000000000000000000000000000000000000000013140c0000000000000000000000000eaf1ac8e89ea0ae13e0f03634a4ff23502527024000000000000000000000000bfdcbb4c05843163f491c24f9c0019c510786304000000000000000000000000000000000000000000000000000000000131544a000000000000000000000000000000000000000000000000000000000000138a","logIndex":"0x2a","removed":false,"topics":["0x0e8e403c2d36126272b08c75823e988381d9dc47f2f0a9a080d95f891d95c469","0x0000000000000000000000004200000000000000000000000000000000000042","0x0000000000000000000000007f5c764cbc14f9669b88837ca1490cca17c31607","0x000000000000000000000000a3128d9b7cca7d5af29780a56abeec12b05a6740"],"transactionHash":"0x6eb136db4d36cf695f4026da16f602ed4a2583b2420dbbcbd4f436943190b665","transactionIndex":"0x7"},{"address":"0xeaf1ac8e89ea0ae13e0f03634a4ff23502527024","blockHash":"0x6e989431f650c6e32effd2647ca852673a7d91f54bec0a3529ac8c050d1f9687","blockNumber":"0x65cfd13","blockTimestamp":"0x64add3df","data":"0x0000000000000000000000000000000000000000000000000000000000000000000000000000000000000000000000000000000000000000e410c6e7b20a9d4800000000000000000000000000000000000000000000000000000000013140c0000000000000000000000000a3128d9b7cca7d5af29780a56abeec12b05a6740000000000000000000000000bfdcbb4c05843163f491c24f9c0019c510786304","logIndex":"0x2b","removed":false,"topics":["0x27c98e911efdd224f4002f6cd831c3ad0d2759ee176f9ee8466d95826af22a1c","0x0000000000000000000000004200000000000000000000000000000000000042","0x0000000000000000000000007f5c764cbc14f9669b88837ca1490cca17c31607","0x000000000000000000000000a3128d9b7cca7d5af29780a56abeec12b05a6740"],"transactionHash":"0x6eb136db4d36cf695f4026da16f602ed4a2583b2420dbbcbd4f436943190b665","transactionIndex":"0x7"},{"address":"0xa3128d9b7cca7d5af29780a56abeec12b05a6740","blockHash":"0x6e989431f650c6e32effd2647ca852673a7d91f54bec0a3529ac8c050d1f9687","blockNumber":"0x65cfd13","blockTimestamp":"0x64add3df","data":"0x0000000000000000000000000000001f574f4f4669000000000000000000000000000000000000000000000042000000000000000000000000000000000000420000000000000000000000007f5c764cbc14f9669b88837ca1490cca17c31607000000000000000000000000000000000000000000000000e410c6e7b20a9d4800000000000000000000000000000000000000000000000000000000013140c0","logIndex":"0x2c","removed":false,"topics":["0xe59e71a14fe90157eedc866c4f8c767d3943d6b6b2e8cd64dddcc92ab4c55af8"],"transactionHash":"0x6eb136db4d36cf695f4026da16f602ed4a2583b2420dbbcbd4f436943190b665","transactionIndex":"0x7"},{"address":"0x7f5c764cbc14f9669b88837ca1490cca17c31607","blockHash":"0x6e989431f650c6e32effd2647ca852673a7d91f54bec0a3529ac8c050d1f9687","blockNumber":"0x65cfd13","blockTimestamp":"0x64add3df","data":"0x00000000000000000000000000000000000000000000000000000000013140c0","logIndex":"0x2d","removed":false,"topics":["0xddf252ad1be2c89b69c2b068fc378daa952ba7f163c4a11628f55a4df523b3ef","0x000000000000000000000000a3128d9b7cca7d5af29780a56abeec12b05a6740","0x000000000000000000000000d6ade875eec93a7aab7efb7dbf13d1457443f95b"],"transactionHash":"0x6eb136db4d36cf695f4026da16f602ed4a2583b2420dbbcbd4f436943190b665","transactionIndex":"0x7"},{"address":"0xdef1abe32c034e558cdd535791643c58a13acc10","blockHash":"0x6e989431f650c6e32effd2647ca852673a7d91f54bec0a3529ac8c050d1f9687","blockNumber":"0x65cfd13","blockTimestamp":"0x64add3df","data":"0x00000000000000000000000042000000000000000000000000000000000000420000000000000000000000007f5c764cbc14f9669b88837ca1490cca17c31607000000000000000000000000000000000000000000000000e410c6e7b20a9d4800000000000000000000000000000000000000000000000000000000013140c0","logIndex":"0x2e","removed":false,"topics":["0x0f6672f78a59ba8e5e5b5d38df3ebc67f3c792e2c9259b8d97d7f00dd78ba1b3","0x000000000000000000000000d6ade875eec93a7aab7efb7dbf13d1457443f95b"],"transactionHash":"0x6eb136db4d36cf695f4026da16f602ed4a2583b2420dbbcbd4f436943190b665","transactionIndex":"0x7"}],"logsBloom":"0x000001000004000000000090000000000000000000000004040000000000000000018000000002000001000000000001000000400000000200004100000000c000000000000000002000000800000000000000000000000020000400000000000200008100000000004000100000000000000002000000000000001000000001040000000000000000000000000000000000040000a000000000001000000000040000000000000000000800000003000000000000000000000000000040000000020002000000000000000000000000108000000000000000000000000000001000000000000000051000000000000401000000000200000000000000031001","status":"0x1","to":"0xdef1abe32c034e558cdd535791643c58a13acc10","transactionHash":"0x6eb136db4d36cf695f4026da16f602ed4a2583b2420dbbcbd4f436943190b665","transactionIndex":"0x7","type":"0x2"},"id":8}

        '
    headers:
      Alt-Svc:
      - h3=":443"; ma=2592000,h3-29=":443"; ma=2592000
      Content-Type:
      - application/json
      Date:
      - Fri, 06 Mar 2026 05:58:06 GMT
      Transfer-Encoding:
      - chunked
      Vary:
      - Origin
      Via:
      - 1.1 google
      X-Proxyd-Cache-Status:
      - MISS
    status:
      code: 200
      message: OK
version: 1
