interactions:
- request:
    body: null
    headers:
      Accept:
      - '*/*'
      Accept-Encoding:
      - gzip, deflate
      Connection:
      - keep-alive
      User-Agent:
      - rotki/1.42.1.dev85+g21cbca5056.d20260305
    method: GET
    uri: https://explorer.optimism.io/api?action=getblocknobytime&closest=before&module=block&timestamp=1729116000
  response:
    body:
      string: '{"message":"OK","result":{"blockNumber":"126758611"},"status":"1"}'
    headers:
      CF-RAY:
      - 9d7f1a6caf27cc70-MAD
      Cache-Control:
      - max-age=0, private, must-revalidate
      Connection:
      - keep-alive
      Content-Type:
      - application/json; charset=utf-8
      Date:
      - Fri, 06 Mar 2026 05:53:59 GMT
      Nel:
      - '{"report_to":"cf-nel","success_fraction":0.0,"max_age":604800}'
      Report-To:
      - '{"group":"cf-nel","max_age":604800,"endpoints":[{"url":"https://a.nel.cloudflare.com/report/v4?s=ujpn2qINCvNFB9g6MsNf13dE3gYHl5vZ01dBk69CR0W1Vh0ROiGJ8J0o%2Fotwsa59yonee%2F2Brj177BaLWu%2FwCwAH4mt2g4kacjAAu3eSlLY2mIcF"}]}'
      Server:
      - cloudflare
      Transfer-Encoding:
      - chunked
      access-control-allow-credentials:
      - 'true'
      access-control-allow-origin:
      - '*'
      access-control-expose-headers:
      - bypass-429-option,x-ratelimit-reset,x-ratelimit-limit,x-ratelimit-remaining,api-v2-temp-token
      alt-svc:
      - h3=":443"; ma=86400
      bypass-429-option:
      - no_bypass
      cf-cache-status:
      - DYNAMIC
      content-length:
      - '66'
      strict-transport-security:
      - max-age=31536000; includeSubDomains
      x-ratelimit-limit:
      - '600'
      x-ratelimit-remaining:
      - '599'
      x-ratelimit-reset:
      - '113'
      x-request-id:
      - 492111b77e72a1859826d83e26913aa5
    status:
      code: 200
      message: OK
- request:
    body: null
    headers:
      Accept:
      - '*/*'
      Accept-Encoding:
      - gzip, deflate
      Connection:
      - keep-alive
      User-Agent:
      - rotki/1.42.1.dev85+g21cbca5056.d20260305
    method: GET
    uri: https://explorer.optimism.io/api?action=getblocknobytime&closest=before&module=block&timestamp=1729117000
  response:
    body:
      string: '{"message":"OK","result":{"blockNumber":"126759111"},"status":"1"}'
    headers:
      CF-RAY:
      - 9d7f1a6e1fb5ec87-MAD
      Cache-Control:
      - max-age=0, private, must-revalidate
      Connection:
      - keep-alive
      Content-Type:
      - application/json; charset=utf-8
      Date:
      - Fri, 06 Mar 2026 05:54:00 GMT
      Nel:
      - '{"report_to":"cf-nel","success_fraction":0.0,"max_age":604800}'
      Report-To:
      - '{"group":"cf-nel","max_age":604800,"endpoints":[{"url":"https://a.nel.cloudflare.com/report/v4?s=MGHRUzo%2FvUEkRmjFHMVieUPnjSPvXmHhxsIYH7joZXOUu7OMBpegzC2chNK8IDUJ3PXKMSAdYIMKvTAKpIucYqfAeTrA1%2FxFs2YJYFQoTWjhxw%3D%3D"}]}'
      Server:
      - cloudflare
      Transfer-Encoding:
      - chunked
      access-control-allow-credentials:
      - 'true'
      access-control-allow-origin:
      - '*'
      access-control-expose-headers:
      - bypass-429-option,x-ratelimit-reset,x-ratelimit-limit,x-ratelimit-remaining,api-v2-temp-token
      alt-svc:
      - h3=":443"; ma=86400
      bypass-429-option:
      - no_bypass
      cf-cache-status:
      - DYNAMIC
      content-length:
      - '66'
      strict-transport-security:
      - max-age=31536000; includeSubDomains
      x-ratelimit-limit:
      - '600'
      x-ratelimit-remaining:
      - '599'
      x-ratelimit-reset:
      - '59966'
      x-request-id:
      - 86a783505b53f82fd7c056aff87ee24c
    status:
      code: 200
      message: OK
- request:
    body: null
    headers:
      Accept:
      - '*/*'
      Accept-Encoding:
      - gzip, deflate
      Connection:
      - keep-alive
      User-Agent:
      - rotki/1.42.1.dev85+g21cbca5056.d20260305
    method: GET
    uri: https://explorer.optimism.io/api?action=txlist&address=0x706A70067BE19BdadBea3600Db0626859Ff25D74&endblock=126759111&module=account&sort=asc&startblock=126758611
  response:
    body:
      string: '{"message":"OK","result":[{"blockHash":"0xea783ab34371ca857614daf1ee413b538aa447421bccd1506f50a94c6513d5d3","blockNumber":"126758782","confirmations":"21830048","contractAddress":"","cumulativeGasUsed":"9795393","from":"0x706a70067be19bdadbea3600db0626859ff25d74","gas":"262540","gasPrice":"55851897","gasUsed":"207786","hash":"0x24cf6c88c9645cb5e92596488206319c39a0a1c4e2829a83c690df8f11cb80b6","input":"0xac9650d8000000000000000000000000000000000000000000000000000000000000002000000000000000000000000000000000000000000000000000000000000000030000000000000000000000000000000000000000000000000000000000000060000000000000000000000000000000000000000000000000000000000000012000000000000000000000000000000000000000000000000000000000000001a00000000000000000000000000000000000000000000000000000000000000084fc6f786500000000000000000000000000000000000000000000000000000000000b0d24000000000000000000000000000000000000000000000000000000000000000000000000000000000000000000000000ffffffffffffffffffffffffffffffff00000000000000000000000000000000ffffffffffffffffffffffffffffffff00000000000000000000000000000000000000000000000000000000000000000000000000000000000000000000000000000000000000000000004449404b7c0000000000000000000000000000000000000000000000000000000000000000000000000000000000000000706a70067be19bdadbea3600db0626859ff25d74000000000000000000000000000000000000000000000000000000000000000000000000000000000000000000000000000000000000000000000064df2ab5bb0000000000000000000000000b2c639c533813f4aa9d7837caf62653d097ff850000000000000000000000000000000000000000000000000000000000000000000000000000000000000000706a70067be19bdadbea3600db0626859ff25d7400000000000000000000000000000000000000000000000000000000","isError":"0","methodId":"0x","nonce":"21","timeStamp":"1729116341","to":"0xc36442b4a4522e871399cd717abdd847ab11fe88","transactionIndex":"50","txreceipt_status":"1","value":"0"},{"blockHash":"0x324b2e7715df8e62cd54bbb2f92ccda318ef835a434077f5349be532629bfac9","blockNumber":"126758816","confirmations":"21830014","contractAddress":"","cumulativeGasUsed":"5301649","from":"0x706a70067be19bdadbea3600db0626859ff25d74","gas":"491142","gasPrice":"58158283","gasUsed":"302708","hash":"0x6d11b151d37310d148ca9177b436bad7f5caea7bb41591acf7b2d11466088d80","input":"0xb88d4fde000000000000000000000000706a70067be19bdadbea3600db0626859ff25d74000000000000000000000000410b72ccfeacbb20a31785edaa358d25a07e143d00000000000000000000000000000000000000000000000000000000000b0d24000000000000000000000000000000000000000000000000000000000000008000000000000000000000000000000000000000000000000000000000000003000000000000000000000000000000000000000000000000000000000000000020000000000000000000000000000000000000000000000000000000000000000100000000000000000000000000000000000000000000000000000000000000000000000000000000000000004200000000000000000000000000000000000006000000000000000000000000000000000000000000000000000000000000000000000000000000000000000000000000000000000000000000000000000000000000000000000000000000000000000000000000000000000000000000000000000000000000000000000000000000000000000000000000000000000000000000000000000000000000000000000000000000000000000000000000000002a00000000000000000000000000000000000000000000000000000000000000000000000000000000000000000000000000000000000000000000000000000000000000000000000000000000000000000000000000000000000000000000002c000000000000000000000000000000000000000000000000000000000000000000000000000000000000000000000000000000000000000000000000000000000000000000000000000000000000000000000000000000000000000000000000100000000000000000000000000000000000000000000000000000d68b7598872000000000000000000000000000000000000000000000000000000000000000000000000000000000000000000000000000000000000000000000000000000000000000000000000000000000000000000000000000000000000000067103b43000000000000000000000000706a70067be19bdadbea3600db0626859ff25d740000000000000000000000000000000000000000000000000000000000000001000000000000000000000000000000000000000000000000004189374bc6a7f000000000000000000000000000000000000000000000000000000000000000000000000000000000000000000000000000000000000000000000000000000000","isError":"0","methodId":"0x","nonce":"22","timeStamp":"1729116409","to":"0xc36442b4a4522e871399cd717abdd847ab11fe88","transactionIndex":"31","txreceipt_status":"1","value":"0"}],"status":"1"}'
    headers:
      CF-RAY:
      - 9d7f1a6f99fbcc05-MAD
      Cache-Control:
      - max-age=0, private, must-revalidate
      Connection:
      - keep-alive
      Content-Type:
      - application/json; charset=utf-8
      Date:
      - Fri, 06 Mar 2026 05:54:00 GMT
      Nel:
      - '{"report_to":"cf-nel","success_fraction":0.0,"max_age":604800}'
      Report-To:
      - '{"group":"cf-nel","max_age":604800,"endpoints":[{"url":"https://a.nel.cloudflare.com/report/v4?s=PDCN9wKOpMHbYIJOboqvSNJbdmLkloD309lFsPfYUPHoEposEjej%2BBZOvfIZFldwJMFVNLnE2HhcYSpkfCub%2B4a%2FKqSnEXKWwNJZI36%2BGMScV9%2Bu"}]}'
      Server:
      - cloudflare
      Transfer-Encoding:
      - chunked
      access-control-allow-credentials:
      - 'true'
      access-control-allow-origin:
      - '*'
      access-control-expose-headers:
      - bypass-429-option,x-ratelimit-reset,x-ratelimit-limit,x-ratelimit-remaining,api-v2-temp-token
      alt-svc:
      - h3=":443"; ma=86400
      bypass-429-option:
      - no_bypass
      cf-cache-status:
      - DYNAMIC
      content-length:
      - '4314'
      strict-transport-security:
      - max-age=31536000; includeSubDomains
      x-ratelimit-limit:
      - '600'
      x-ratelimit-remaining:
      - '598'
      x-ratelimit-reset:
      - '59729'
      x-request-id:
      - 70f76a7a58649967814ad5829ff3b858
    status:
      code: 200
      message: OK
- request:
    body: null
    headers:
      Accept:
      - '*/*'
      Accept-Encoding:
      - gzip, deflate
      Connection:
      - keep-alive
      User-Agent:
      - rotki/1.42.1.dev85+g21cbca5056.d20260305
    method: GET
    uri: https://explorer.optimism.io/api/v2/transactions/0x24cf6c88c9645cb5e92596488206319c39a0a1c4e2829a83c690df8f11cb80b6
  response:
    body:
      string: '{"l1_gas_used":"2918","priority_fee":"140606084982","raw_input":"0xac9650d8000000000000000000000000000000000000000000000000000000000000002000000000000000000000000000000000000000000000000000000000000000030000000000000000000000000000000000000000000000000000000000000060000000000000000000000000000000000000000000000000000000000000012000000000000000000000000000000000000000000000000000000000000001a00000000000000000000000000000000000000000000000000000000000000084fc6f786500000000000000000000000000000000000000000000000000000000000b0d24000000000000000000000000000000000000000000000000000000000000000000000000000000000000000000000000ffffffffffffffffffffffffffffffff00000000000000000000000000000000ffffffffffffffffffffffffffffffff00000000000000000000000000000000000000000000000000000000000000000000000000000000000000000000000000000000000000000000004449404b7c0000000000000000000000000000000000000000000000000000000000000000000000000000000000000000706a70067be19bdadbea3600db0626859ff25d74000000000000000000000000000000000000000000000000000000000000000000000000000000000000000000000000000000000000000000000064df2ab5bb0000000000000000000000000b2c639c533813f4aa9d7837caf62653d097ff850000000000000000000000000000000000000000000000000000000000000000000000000000000000000000706a70067be19bdadbea3600db0626859ff25d7400000000000000000000000000000000000000000000000000000000","is_pending_update":false,"op_withdrawals":[],"result":"success","hash":"0x24cf6c88c9645cb5e92596488206319c39a0a1c4e2829a83c690df8f11cb80b6","max_fee_per_gas":"163895422","revert_reason":null,"confirmation_duration":[0,2.0e3],"transaction_burnt_fee":"11464636185060","type":2,"token_transfers_overflow":false,"confirmations":21830050,"position":50,"max_priority_fee_per_gas":"676687","transaction_tag":null,"created_contract":null,"value":"0","l1_fee_scalar":"0","from":{"ens_domain_name":"javxq.eth","hash":"0x706A70067BE19BdadBea3600Db0626859Ff25D74","implementations":[],"is_contract":false,"is_scam":false,"is_verified":false,"metadata":null,"name":null,"private_tags":[],"proxy_type":null,"public_tags":[],"reputation":"ok","watchlist_names":[]},"gas_used":"207786","status":"ok","to":{"ens_domain_name":null,"hash":"0xC36442b4a4522E871399CD717aBDD847Ab11FE88","implementations":[],"is_contract":true,"is_scam":false,"is_verified":true,"metadata":{"tags":[{"meta":{"bgColor":"#FFFFFF","projectName":"Uniswap
        V3","tagIcon ":"https://blockscout-icons.s3.us-east-1.amazonaws.com/OLI_tag_logo.svg","tagUrl":"https://app.klerosscout.eth.limo/#/?registry=Single_Tags&itemdetails=0xb5cbeef9f845f1a6e9745154742abde2682ea29214c51ec7cefd0eca64a2e5e9@0x66260c69d03837016d88c9877e61e08ef74c59f2","textColor":"#FF007A","tooltipAttribution":"https://www.openlabelsinitiative.org?utm_source=blockscout","tooltipAttributionIcon":"https://blockscout-icons.s3.us-east-1.amazonaws.com/OLI_tag_logo.svg","tooltipDescription":"Uniswap
        V3''s official Nonfungible Position Manager contract on Optimism","tooltipUrl":"https://uniswap.org/","verifiedDomains":["app.uniswap.org"]},"name":"Uniswap
        V3: Positions NFT","ordinal":10,"slug":"uniswap-v3-positions-nft","tagType":"name"},{"meta":{},"name":"Token
        Contract","ordinal":0,"slug":"token-contract","tagType":"generic"},{"meta":{},"name":"DEX","ordinal":0,"slug":"dex","tagType":"generic"},{"meta":{"appActionButtonText":"Uniswap","appID":"uniswap","bgColor":"#FF007A","tagIcon":"https://blockscout-content.s3.amazonaws.com/uniswap.png","tagUrl":"https://uniswap.org/?utm_source=Blockscout","textColor":"#FFFFFF","tooltipDescription":"Trade
        crypto and NFTs safely on the top DeFi platform. Swapping made simple. Buy
        and sell crypto on Ethereum, Base, Arbitrum, Polygon, and more.","tooltipTitle":"Uniswap","tooltipUrl":"https://uniswap.org/?utm_source=Blockscout"},"name":"Uniswap
        V3","ordinal":0,"slug":"uniswap-v3","tagType":"protocol"}]},"name":"NonfungiblePositionManager","private_tags":[],"proxy_type":null,"public_tags":[],"reputation":"ok","watchlist_names":[]},"authorization_list":[],"l1_fee":"167100877690","method":"multicall","fee":{"type":"actual","value":"11772343147732"},"actions":[],"gas_limit":"262540","gas_price":"55851897","decoded_input":{"method_call":"multicall(bytes[]
        data)","method_id":"ac9650d8","parameters":[{"name":"data","type":"bytes[]","value":["0xfc6f786500000000000000000000000000000000000000000000000000000000000b0d24000000000000000000000000000000000000000000000000000000000000000000000000000000000000000000000000ffffffffffffffffffffffffffffffff00000000000000000000000000000000ffffffffffffffffffffffffffffffff","0x49404b7c0000000000000000000000000000000000000000000000000000000000000000000000000000000000000000706a70067be19bdadbea3600db0626859ff25d74","0xdf2ab5bb0000000000000000000000000b2c639c533813f4aa9d7837caf62653d097ff850000000000000000000000000000000000000000000000000000000000000000000000000000000000000000706a70067be19bdadbea3600db0626859ff25d74"]}]},"l1_gas_price":"10952243376","token_transfers":[{"block_hash":"0xea783ab34371ca857614daf1ee413b538aa447421bccd1506f50a94c6513d5d3","block_number":126758782,"from":{"ens_domain_name":null,"hash":"0xc1738D90E2E26C35784A0d3E3d8A9f795074bcA4","implementations":[],"is_contract":true,"is_scam":false,"is_verified":true,"metadata":null,"name":"UniswapV3Pool","private_tags":[],"proxy_type":null,"public_tags":[],"reputation":"ok","watchlist_names":[]},"log_index":386,"method":null,"timestamp":null,"to":{"ens_domain_name":null,"hash":"0xC36442b4a4522E871399CD717aBDD847Ab11FE88","implementations":[],"is_contract":true,"is_scam":false,"is_verified":true,"metadata":{"tags":[{"meta":{"bgColor":"#FFFFFF","projectName":"Uniswap
        V3","tagIcon ":"https://blockscout-icons.s3.us-east-1.amazonaws.com/OLI_tag_logo.svg","tagUrl":"https://app.klerosscout.eth.limo/#/?registry=Single_Tags&itemdetails=0xb5cbeef9f845f1a6e9745154742abde2682ea29214c51ec7cefd0eca64a2e5e9@0x66260c69d03837016d88c9877e61e08ef74c59f2","textColor":"#FF007A","tooltipAttribution":"https://www.openlabelsinitiative.org?utm_source=blockscout","tooltipAttributionIcon":"https://blockscout-icons.s3.us-east-1.amazonaws.com/OLI_tag_logo.svg","tooltipDescription":"Uniswap
        V3''s official Nonfungible Position Manager contract on Optimism","tooltipUrl":"https://uniswap.org/","verifiedDomains":["app.uniswap.org"]},"name":"Uniswap
        V3: Positions NFT","ordinal":10,"slug":"uniswap-v3-positions-nft","tagType":"name"},{"meta":{},"name":"Token
        Contract","ordinal":0,"slug":"token-contract","tagType":"generic"},{"meta":{},"name":"DEX","ordinal":0,"slug":"dex","tagType":"generic"},{"meta":{"appActionButtonText":"Uniswap","appID":"uniswap","bgColor":"#FF007A","tagIcon":"https://blockscout-content.s3.amazonaws.com/uniswap.png","tagUrl":"https://uniswap.org/?utm_source=Blockscout","textColor":"#FFFFFF","tooltipDescription":"Trade
        crypto and NFTs safely on the top DeFi platform. Swapping made simple. Buy
        and sell crypto on Ethereum, Base, Arbitrum, Polygon, and more.","tooltipTitle":"Uniswap","tooltipUrl":"https://uniswap.org/?utm_source=Blockscout"},"name":"Uniswap
        V3","ordinal":0,"slug":"uniswap-v3","tagType":"protocol"}]},"name":"NonfungiblePositionManager","private_tags":[],"proxy_type":null,"public_tags":[],"reputation":"ok","watchlist_names":[]},"token":{"address_hash":"0x0b2C639c533813f4Aa9D7837CAf62653d097Ff85","circulating_market_cap":"77158137326.46799","decimals":"6","exchange_rate":"0.999903","holders_count":"565093","icon_url":"https://assets.coingecko.com/coins/images/6319/small/usdc.png?1696506694","name":"USD
        Coin","reputation":"ok","symbol":"USDC","total_supply":"190946399695760","type":"ERC-20","volume_24h":"8519554698.096346"},"token_type":"ERC-20","total":{"decimals":"6","value":"953948"},"transaction_hash":"0x24cf6c88c9645cb5e92596488206319c39a0a1c4e2829a83c690df8f11cb80b6","type":"token_transfer"},{"block_hash":"0xea783ab34371ca857614daf1ee413b538aa447421bccd1506f50a94c6513d5d3","block_number":126758782,"from":{"ens_domain_name":null,"hash":"0xc1738D90E2E26C35784A0d3E3d8A9f795074bcA4","implementations":[],"is_contract":true,"is_scam":false,"is_verified":true,"metadata":null,"name":"UniswapV3Pool","private_tags":[],"proxy_type":null,"public_tags":[],"reputation":"ok","watchlist_names":[]},"log_index":387,"method":null,"timestamp":null,"to":{"ens_domain_name":null,"hash":"0xC36442b4a4522E871399CD717aBDD847Ab11FE88","implementations":[],"is_contract":true,"is_scam":false,"is_verified":true,"metadata":{"tags":[{"meta":{"bgColor":"#FFFFFF","projectName":"Uniswap
        V3","tagIcon ":"https://blockscout-icons.s3.us-east-1.amazonaws.com/OLI_tag_logo.svg","tagUrl":"https://app.klerosscout.eth.limo/#/?registry=Single_Tags&itemdetails=0xb5cbeef9f845f1a6e9745154742abde2682ea29214c51ec7cefd0eca64a2e5e9@0x66260c69d03837016d88c9877e61e08ef74c59f2","textColor":"#FF007A","tooltipAttribution":"https://www.openlabelsinitiative.org?utm_source=blockscout","tooltipAttributionIcon":"https://blockscout-icons.s3.us-east-1.amazonaws.com/OLI_tag_logo.svg","tooltipDescription":"Uniswap
        V3''s official Nonfungible Position Manager contract on Optimism","tooltipUrl":"https://uniswap.org/","verifiedDomains":["app.uniswap.org"]},"name":"Uniswap
        V3: Positions NFT","ordinal":10,"slug":"uniswap-v3-positions-nft","tagType":"name"},{"meta":{},"name":"Token
        Contract","ordinal":0,"slug":"token-contract","tagType":"generic"},{"meta":{},"name":"DEX","ordinal":0,"slug":"dex","tagType":"generic"},{"meta":{"appActionButtonText":"Uniswap","appID":"uniswap","bgColor":"#FF007A","tagIcon":"https://blockscout-content.s3.amazonaws.com/uniswap.png","tagUrl":"https://uniswap.org/?utm_source=Blockscout","textColor":"#FFFFFF","tooltipDescription":"Trade
        crypto and NFTs safely on the top DeFi platform. Swapping made simple. Buy
        and sell crypto on Ethereum, Base, Arbitrum, Polygon, and more.","tooltipTitle":"Uniswap","tooltipUrl":"https://uniswap.org/?utm_source=Blockscout"},"name":"Uniswap
        V3","ordinal":0,"slug":"uniswap-v3","tagType":"protocol"}]},"name":"NonfungiblePositionManager","private_tags":[],"proxy_type":null,"public_tags":[],"reputation":"ok","watchlist_names":[]},"token":{"address_hash":"0x4200000000000000000000000000000000000006","circulating_market_cap":"41513889.123153545","decimals":"18","exchange_rate":"2070.75","holders_count":"300454","icon_url":"https://assets.coingecko.com/coins/images/39715/small/WETH.PNG?1723731805","name":"L2
        Standard Bridged WETH (Optimism)","reputation":"ok","symbol":"WETH","total_supply":"20105201188761574306410","type":"ERC-20","volume_24h":"28065001.154418793"},"token_type":"ERC-20","total":{"decimals":"18","value":"288112954210517"},"transaction_hash":"0x24cf6c88c9645cb5e92596488206319c39a0a1c4e2829a83c690df8f11cb80b6","type":"token_transfer"},{"block_hash":"0xea783ab34371ca857614daf1ee413b538aa447421bccd1506f50a94c6513d5d3","block_number":126758782,"from":{"ens_domain_name":null,"hash":"0xC36442b4a4522E871399CD717aBDD847Ab11FE88","implementations":[],"is_contract":true,"is_scam":false,"is_verified":true,"metadata":{"tags":[{"meta":{"bgColor":"#FFFFFF","projectName":"Uniswap
        V3","tagIcon ":"https://blockscout-icons.s3.us-east-1.amazonaws.com/OLI_tag_logo.svg","tagUrl":"https://app.klerosscout.eth.limo/#/?registry=Single_Tags&itemdetails=0xb5cbeef9f845f1a6e9745154742abde2682ea29214c51ec7cefd0eca64a2e5e9@0x66260c69d03837016d88c9877e61e08ef74c59f2","textColor":"#FF007A","tooltipAttribution":"https://www.openlabelsinitiative.org?utm_source=blockscout","tooltipAttributionIcon":"https://blockscout-icons.s3.us-east-1.amazonaws.com/OLI_tag_logo.svg","tooltipDescription":"Uniswap
        V3''s official Nonfungible Position Manager contract on Optimism","tooltipUrl":"https://uniswap.org/","verifiedDomains":["app.uniswap.org"]},"name":"Uniswap
        V3: Positions NFT","ordinal":10,"slug":"uniswap-v3-positions-nft","tagType":"name"},{"meta":{},"name":"Token
        Contract","ordinal":0,"slug":"token-contract","tagType":"generic"},{"meta":{},"name":"DEX","ordinal":0,"slug":"dex","tagType":"generic"},{"meta":{"appActionButtonText":"Uniswap","appID":"uniswap","bgColor":"#FF007A","tagIcon":"https://blockscout-content.s3.amazonaws.com/uniswap.png","tagUrl":"https://uniswap.org/?utm_source=Blockscout","textColor":"#FFFFFF","tooltipDescription":"Trade
        crypto and NFTs safely on the top DeFi platform. Swapping made simple. Buy
        and sell crypto on Ethereum, Base, Arbitrum, Polygon, and more.","tooltipTitle":"Uniswap","tooltipUrl":"https://uniswap.org/?utm_source=Blockscout"},"name":"Uniswap
        V3","ordinal":0,"slug":"uniswap-v3","tagType":"protocol"}]},"name":"NonfungiblePositionManager","private_tags":[],"proxy_type":null,"public_tags":[],"reputation":"ok","watchlist_names":[]},"log_index":390,"method":null,"timestamp":null,"to":{"ens_domain_name":null,"hash":"0x0000000000000000000000000000000000000000","implementations":[],"is_contract":false,"is_scam":false,"is_verified":false,"metadata":{"tags":[{"meta":{},"name":"Null:
        0x000...000","ordinal":10,"slug":"null-0x000000","tagType":"name"},{"meta":{},"name":"Metamask
        User","ordinal":0,"slug":"metamask-user","tagType":"generic"},{"meta":{},"name":"Imtoken
        User","ordinal":0,"slug":"imtoken-user","tagType":"generic"},{"meta":{},"name":"Miner","ordinal":0,"slug":"miner","tagType":"generic"},{"meta":{},"name":"Burn","ordinal":0,"slug":"burn","tagType":"generic"},{"meta":{"alertStatus":"info","data":"This
        address is commonly used by projects to burn tokens (reducing total supply)
        or mint tokens (increasing total supply)."},"name":"note_0","ordinal":0,"slug":"note0","tagType":"note"},{"meta":{},"name":"Null","ordinal":0,"slug":"null","tagType":"protocol"}]},"name":null,"private_tags":[],"proxy_type":null,"public_tags":[],"reputation":"ok","watchlist_names":[]},"token":{"address_hash":"0x4200000000000000000000000000000000000006","circulating_market_cap":"41513889.123153545","decimals":"18","exchange_rate":"2070.75","holders_count":"300454","icon_url":"https://assets.coingecko.com/coins/images/39715/small/WETH.PNG?1723731805","name":"L2
        Standard Bridged WETH (Optimism)","reputation":"ok","symbol":"WETH","total_supply":"20105201188761574306410","type":"ERC-20","volume_24h":"28065001.154418793"},"token_type":"ERC-20","total":{"decimals":"18","value":"288112954210517"},"transaction_hash":"0x24cf6c88c9645cb5e92596488206319c39a0a1c4e2829a83c690df8f11cb80b6","type":"token_burning"},{"block_hash":"0xea783ab34371ca857614daf1ee413b538aa447421bccd1506f50a94c6513d5d3","block_number":126758782,"from":{"ens_domain_name":null,"hash":"0xC36442b4a4522E871399CD717aBDD847Ab11FE88","implementations":[],"is_contract":true,"is_scam":false,"is_verified":true,"metadata":{"tags":[{"meta":{"bgColor":"#FFFFFF","projectName":"Uniswap
        V3","tagIcon ":"https://blockscout-icons.s3.us-east-1.amazonaws.com/OLI_tag_logo.svg","tagUrl":"https://app.klerosscout.eth.limo/#/?registry=Single_Tags&itemdetails=0xb5cbeef9f845f1a6e9745154742abde2682ea29214c51ec7cefd0eca64a2e5e9@0x66260c69d03837016d88c9877e61e08ef74c59f2","textColor":"#FF007A","tooltipAttribution":"https://www.openlabelsinitiative.org?utm_source=blockscout","tooltipAttributionIcon":"https://blockscout-icons.s3.us-east-1.amazonaws.com/OLI_tag_logo.svg","tooltipDescription":"Uniswap
        V3''s official Nonfungible Position Manager contract on Optimism","tooltipUrl":"https://uniswap.org/","verifiedDomains":["app.uniswap.org"]},"name":"Uniswap
        V3: Positions NFT","ordinal":10,"slug":"uniswap-v3-positions-nft","tagType":"name"},{"meta":{},"name":"Token
        Contract","ordinal":0,"slug":"token-contract","tagType":"generic"},{"meta":{},"name":"DEX","ordinal":0,"slug":"dex","tagType":"generic"},{"meta":{"appActionButtonText":"Uniswap","appID":"uniswap","bgColor":"#FF007A","tagIcon":"https://blockscout-content.s3.amazonaws.com/uniswap.png","tagUrl":"https://uniswap.org/?utm_source=Blockscout","textColor":"#FFFFFF","tooltipDescription":"Trade
        crypto and NFTs safely on the top DeFi platform. Swapping made simple. Buy
        and sell crypto on Ethereum, Base, Arbitrum, Polygon, and more.","tooltipTitle":"Uniswap","tooltipUrl":"https://uniswap.org/?utm_source=Blockscout"},"name":"Uniswap
        V3","ordinal":0,"slug":"uniswap-v3","tagType":"protocol"}]},"name":"NonfungiblePositionManager","private_tags":[],"proxy_type":null,"public_tags":[],"reputation":"ok","watchlist_names":[]},"log_index":391,"method":null,"timestamp":null,"to":{"ens_domain_name":"javxq.eth","hash":"0x706A70067BE19BdadBea3600Db0626859Ff25D74","implementations":[],"is_contract":false,"is_scam":false,"is_verified":false,"metadata":null,"name":null,"private_tags":[],"proxy_type":null,"public_tags":[],"reputation":"ok","watchlist_names":[]},"token":{"address_hash":"0x0b2C639c533813f4Aa9D7837CAf62653d097Ff85","circulating_market_cap":"77158137326.46799","decimals":"6","exchange_rate":"0.999903","holders_count":"565093","icon_url":"https://assets.coingecko.com/coins/images/6319/small/usdc.png?1696506694","name":"USD
        Coin","reputation":"ok","symbol":"USDC","total_supply":"190946399695760","type":"ERC-20","volume_24h":"8519554698.096346"},"token_type":"ERC-20","total":{"decimals":"6","value":"953948"},"transaction_hash":"0x24cf6c88c9645cb5e92596488206319c39a0a1c4e2829a83c690df8f11cb80b6","type":"token_transfer"}],"base_fee_per_gas":"55175210","timestamp":"2024-10-16T22:05:41.000000Z","nonce":21,"historic_exchange_rate":"2610.95","transaction_types":["contract_call","token_transfer"],"exchange_rate":"2061.63","block_number":126758782,"has_error_in_internal_transactions":false}'
    headers:
      CF-RAY:
      - 9d7f1a70befb334a-MAD
      Cache-Control:
      - max-age=0, private, must-revalidate
      Connection:
      - keep-alive
      Content-Type:
      - application/json; charset=utf-8
      Date:
      - Fri, 06 Mar 2026 05:54:00 GMT
      Nel:
      - '{"report_to":"cf-nel","success_fraction":0.0,"max_age":604800}'
      Report-To:
      - '{"group":"cf-nel","max_age":604800,"endpoints":[{"url":"https://a.nel.cloudflare.com/report/v4?s=AnFjInNNt3lHmvc44Pja46lzM9I6NVL6vEMLvL4YqKvxY%2BfhZzd%2FU23LL8CpVUInE3SJLY%2FK52WKDsPLvk2AgoHV5oMIRVrbDuerBu0u9XypAw%3D%3D"}]}'
      Server:
      - cloudflare
      Transfer-Encoding:
      - chunked
      access-control-allow-credentials:
      - 'true'
      access-control-allow-origin:
      - '*'
      access-control-expose-headers:
      - bypass-429-option,x-ratelimit-reset,x-ratelimit-limit,x-ratelimit-remaining,api-v2-temp-token
      alt-svc:
      - h3=":443"; ma=86400
      bypass-429-option:
      - temporary_token
      cf-cache-status:
      - DYNAMIC
      content-length:
      - '17366'
      strict-transport-security:
      - max-age=31536000; includeSubDomains
      x-ratelimit-limit:
      - '600'
      x-ratelimit-remaining:
      - '597'
      x-ratelimit-reset:
      - '59547'
      x-request-id:
      - 842be695fe47c0098feb17467d571bc2
    status:
      code: 200
      message: OK
- request:
    body: null
    headers:
      Accept:
      - '*/*'
      Accept-Encoding:
      - gzip, deflate
      Connection:
      - keep-alive
      User-Agent:
      - rotki/1.42.1.dev85+g21cbca5056.d20260305
    method: GET
    uri: https://explorer.optimism.io/api/v2/transactions/0x6d11b151d37310d148ca9177b436bad7f5caea7bb41591acf7b2d11466088d80
  response:
    body:
      string: "{\"l1_gas_used\":\"3133\",\"priority_fee\":\"206723833820\",\"raw_input\":\"0xb88d4fde000000000000000000000000706a70067be19bdadbea3600db0626859ff25d74000000000000000000000000410b72ccfeacbb20a31785edaa358d25a07e143d00000000000000000000000000000000000000000000000000000000000b0d24000000000000000000000000000000000000000000000000000000000000008000000000000000000000000000000000000000000000000000000000000003000000000000000000000000000000000000000000000000000000000000000020000000000000000000000000000000000000000000000000000000000000000100000000000000000000000000000000000000000000000000000000000000000000000000000000000000004200000000000000000000000000000000000006000000000000000000000000000000000000000000000000000000000000000000000000000000000000000000000000000000000000000000000000000000000000000000000000000000000000000000000000000000000000000000000000000000000000000000000000000000000000000000000000000000000000000000000000000000000000000000000000000000000000000000000000000002a00000000000000000000000000000000000000000000000000000000000000000000000000000000000000000000000000000000000000000000000000000000000000000000000000000000000000000000000000000000000000000000002c000000000000000000000000000000000000000000000000000000000000000000000000000000000000000000000000000000000000000000000000000000000000000000000000000000000000000000000000000000000000000000000000100000000000000000000000000000000000000000000000000000d68b7598872000000000000000000000000000000000000000000000000000000000000000000000000000000000000000000000000000000000000000000000000000000000000000000000000000000000000000000000000000000000000000067103b43000000000000000000000000706a70067be19bdadbea3600db0626859ff25d740000000000000000000000000000000000000000000000000000000000000001000000000000000000000000000000000000000000000000004189374bc6a7f000000000000000000000000000000000000000000000000000000000000000000000000000000000000000000000000000000000000000000000000000000000\",\"is_pending_update\":false,\"op_withdrawals\":[],\"result\":\"success\",\"hash\":\"0x6d11b151d37310d148ca9177b436bad7f5caea7bb41591acf7b2d11466088d80\",\"max_fee_per_gas\":\"172356304\",\"revert_reason\":null,\"confirmation_duration\":[0,2.0e3],\"transaction_burnt_fee\":\"17398253696544\",\"type\":2,\"token_transfers_overflow\":false,\"confirmations\":21830017,\"position\":31,\"max_priority_fee_per_gas\":\"682915\",\"transaction_tag\":null,\"created_contract\":null,\"value\":\"0\",\"l1_fee_scalar\":\"0\",\"from\":{\"ens_domain_name\":\"javxq.eth\",\"hash\":\"0x706A70067BE19BdadBea3600Db0626859Ff25D74\",\"implementations\":[],\"is_contract\":false,\"is_scam\":false,\"is_verified\":false,\"metadata\":null,\"name\":null,\"private_tags\":[],\"proxy_type\":null,\"public_tags\":[],\"reputation\":\"ok\",\"watchlist_names\":[]},\"gas_used\":\"302708\",\"status\":\"ok\",\"to\":{\"ens_domain_name\":null,\"hash\":\"0xC36442b4a4522E871399CD717aBDD847Ab11FE88\",\"implementations\":[],\"is_contract\":true,\"is_scam\":false,\"is_verified\":true,\"metadata\":{\"tags\":[{\"meta\":{\"bgColor\":\"#FFFFFF\",\"projectName\":\"Uniswap
        V3\",\"tagIcon \":\"https://blockscout-icons.s3.us-east-1.amazonaws.com/OLI_tag_logo.svg\",\"tagUrl\":\"https://app.klerosscout.eth.limo/#/?registry=Single_Tags&itemdetails=0xb5cbeef9f845f1a6e9745154742abde2682ea29214c51ec7cefd0eca64a2e5e9@0x66260c69d03837016d88c9877e61e08ef74c59f2\",\"textColor\":\"#FF007A\",\"tooltipAttribution\":\"https://www.openlabelsinitiative.org?utm_source=blockscout\",\"tooltipAttributionIcon\":\"https://blockscout-icons.s3.us-east-1.amazonaws.com/OLI_tag_logo.svg\",\"tooltipDescription\":\"Welcome
        to the home of Uniswap V3 Positions NFT-V1 - p9FtekMoFd on OpenSea. Discover
        the best items in this collection.\",\"tooltipUrl\":\"https://uniswap.org/\",\"verifiedDomains\":[\"app.uniswap.org\"]},\"name\":\"Uniswap
        V3: Positions NFT\",\"ordinal\":10,\"slug\":\"uniswap-v3-positions-nft\",\"tagType\":\"name\"},{\"meta\":{},\"name\":\"Token
        Contract\",\"ordinal\":0,\"slug\":\"token-contract\",\"tagType\":\"generic\"},{\"meta\":{},\"name\":\"DEX\",\"ordinal\":0,\"slug\":\"dex\",\"tagType\":\"generic\"},{\"meta\":{\"appActionButtonText\":\"Uniswap\",\"appID\":\"uniswap\",\"bgColor\":\"#FF007A\",\"tagIcon\":\"https://blockscout-content.s3.amazonaws.com/uniswap.png\",\"tagUrl\":\"https://uniswap.org/?utm_source=Blockscout\",\"textColor\":\"#FFFFFF\",\"tooltipDescription\":\"Trade
        crypto and NFTs safely on the top DeFi platform. Swapping made simple. Buy
        and sell crypto on Ethereum, Base, Arbitrum, Polygon, and more.\",\"tooltipTitle\":\"Uniswap\",\"tooltipUrl\":\"https://uniswap.org/?utm_source=Blockscout\"},\"name\":\"Uniswap
        V3\",\"ordinal\":0,\"slug\":\"uniswap-v3\",\"tagType\":\"protocol\"}]},\"name\":\"NonfungiblePositionManager\",\"private_tags\":[],\"proxy_type\":null,\"public_tags\":[],\"reputation\":\"ok\",\"watchlist_names\":[]},\"authorization_list\":[],\"l1_fee\":\"188521219238\",\"method\":\"safeTransferFrom\",\"fee\":{\"type\":\"actual\",\"value\":\"17793498749602\"},\"actions\":[],\"gas_limit\":\"491142\",\"gas_price\":\"58158283\",\"decoded_input\":{\"method_call\":\"safeTransferFrom(address
        from, address to, uint256 tokenId, bytes _data)\",\"method_id\":\"b88d4fde\",\"parameters\":[{\"name\":\"from\",\"type\":\"address\",\"value\":\"0x706A70067BE19BdadBea3600Db0626859Ff25D74\"},{\"name\":\"to\",\"type\":\"address\",\"value\":\"0x410b72CcfeAcBB20a31785eDAA358D25a07e143D\"},{\"name\":\"tokenId\",\"type\":\"uint256\",\"value\":\"724260\"},{\"name\":\"_data\",\"type\":\"bytes\",\"value\":\"0x0000000000000000000000000000000000000000000000000000000000000020000000000000000000000000000000000000000000000000000000000000000100000000000000000000000000000000000000000000000000000000000000000000000000000000000000004200000000000000000000000000000000000006000000000000000000000000000000000000000000000000000000000000000000000000000000000000000000000000000000000000000000000000000000000000000000000000000000000000000000000000000000000000000000000000000000000000000000000000000000000000000000000000000000000000000000000000000000000000000000000000000000000000000000000000000002a00000000000000000000000000000000000000000000000000000000000000000000000000000000000000000000000000000000000000000000000000000000000000000000000000000000000000000000000000000000000000000000002c000000000000000000000000000000000000000000000000000000000000000000000000000000000000000000000000000000000000000000000000000000000000000000000000000000000000000000000000000000000000000000000000100000000000000000000000000000000000000000000000000000d68b7598872000000000000000000000000000000000000000000000000000000000000000000000000000000000000000000000000000000000000000000000000000000000000000000000000000000000000000000000000000000000000000067103b43000000000000000000000000706a70067be19bdadbea3600db0626859ff25d740000000000000000000000000000000000000000000000000000000000000001000000000000000000000000000000000000000000000000004189374bc6a7f000000000000000000000000000000000000000000000000000000000000000000000000000000000000000000000000000000000000000000000000000000000\"}]},\"l1_gas_price\":\"11511650235\",\"token_transfers\":[{\"block_hash\":\"0x324b2e7715df8e62cd54bbb2f92ccda318ef835a434077f5349be532629bfac9\",\"block_number\":126758816,\"from\":{\"ens_domain_name\":\"javxq.eth\",\"hash\":\"0x706A70067BE19BdadBea3600Db0626859Ff25D74\",\"implementations\":[],\"is_contract\":false,\"is_scam\":false,\"is_verified\":false,\"metadata\":null,\"name\":null,\"private_tags\":[],\"proxy_type\":null,\"public_tags\":[],\"reputation\":\"ok\",\"watchlist_names\":[]},\"log_index\":279,\"method\":null,\"timestamp\":null,\"to\":{\"ens_domain_name\":null,\"hash\":\"0x410b72CcfeAcBB20a31785eDAA358D25a07e143D\",\"implementations\":[],\"is_contract\":true,\"is_scam\":false,\"is_verified\":true,\"metadata\":{\"tags\":[{\"meta\":{\"tooltipUrl\":\"https://krystal.app/\"},\"name\":\"Krystal:
        V3 Utils\",\"ordinal\":10,\"slug\":\"krystal-v3-utils\",\"tagType\":\"name\"},{\"meta\":{\"appActionButtonText\":\"Krystal\",\"appID\":\"krystal\"},\"name\":\"Krystal\",\"ordinal\":0,\"slug\":\"krystal\",\"tagType\":\"protocol\"}]},\"name\":\"V3Utils\",\"private_tags\":[],\"proxy_type\":null,\"public_tags\":[],\"reputation\":\"ok\",\"watchlist_names\":[]},\"token\":{\"address_hash\":\"0xC36442b4a4522E871399CD717aBDD847Ab11FE88\",\"circulating_market_cap\":null,\"decimals\":null,\"exchange_rate\":null,\"holders_count\":\"163289\",\"icon_url\":null,\"name\":\"Uniswap
        V3 Positions NFT-V1\",\"reputation\":\"ok\",\"symbol\":\"UNI-V3-POS\",\"total_supply\":\"959592\",\"type\":\"ERC-721\",\"volume_24h\":null},\"token_type\":\"ERC-721\",\"total\":{\"token_id\":\"724260\",\"token_instance\":{\"animation_url\":null,\"external_app_url\":null,\"id\":\"724260\",\"image_url\":\"data:image/svg+xml;base64,PHN2ZyB3aWR0aD0iMjkwIiBoZWlnaHQ9IjUwMCIgdmlld0JveD0iMCAwIDI5MCA1MDAiIHhtbG5zPSJodHRwOi8vd3d3LnczLm9yZy8yMDAwL3N2ZyIgeG1sbnM6eGxpbms9J2h0dHA6Ly93d3cudzMub3JnLzE5OTkveGxpbmsnPjxkZWZzPjxmaWx0ZXIgaWQ9ImYxIj48ZmVJbWFnZSByZXN1bHQ9InAwIiB4bGluazpocmVmPSJkYXRhOmltYWdlL3N2Zyt4bWw7YmFzZTY0LFBITjJaeUIzYVdSMGFEMG5Namt3SnlCb1pXbG5hSFE5SnpVd01DY2dkbWxsZDBKdmVEMG5NQ0F3SURJNU1DQTFNREFuSUhodGJHNXpQU2RvZEhSd09pOHZkM2QzTG5jekxtOXlaeTh5TURBd0wzTjJaeWMrUEhKbFkzUWdkMmxrZEdnOUp6STVNSEI0SnlCb1pXbG5hSFE5SnpVd01IQjRKeUJtYVd4c1BTY2pNR0l5WXpZekp5OCtQQzl6ZG1jKyIvPjxmZUltYWdlIHJlc3VsdD0icDEiIHhsaW5rOmhyZWY9ImRhdGE6aW1hZ2Uvc3ZnK3htbDtiYXNlNjQsUEhOMlp5QjNhV1IwYUQwbk1qa3dKeUJvWldsbmFIUTlKelV3TUNjZ2RtbGxkMEp2ZUQwbk1DQXdJREk1TUNBMU1EQW5JSGh0Ykc1elBTZG9kSFJ3T2k4dmQzZDNMbmN6TG05eVp5OHlNREF3TDNOMlp5YytQR05wY21Oc1pTQmplRDBuTVRVeUp5QmplVDBuTVRBd0p5QnlQU2N4TWpCd2VDY2dabWxzYkQwbkl6UXlNREF3TUNjdlBqd3ZjM1puUGc9PSIvPjxmZUltYWdlIHJlc3VsdD0icDIiIHhsaW5rOmhyZWY9ImRhdGE6aW1hZ2Uvc3ZnK3htbDtiYXNlNjQsUEhOMlp5QjNhV1IwYUQwbk1qa3dKeUJvWldsbmFIUTlKelV3TUNjZ2RtbGxkMEp2ZUQwbk1DQXdJREk1TUNBMU1EQW5JSGh0Ykc1elBTZG9kSFJ3T2k4dmQzZDNMbmN6TG05eVp5OHlNREF3TDNOMlp5YytQR05wY21Oc1pTQmplRDBuTVRVeUp5QmplVDBuTVRBd0p5QnlQU2N4TWpCd2VDY2dabWxzYkQwbkl6azNabVk0TlNjdlBqd3ZjM1puUGc9PSIgLz48ZmVJbWFnZSByZXN1bHQ9InAzIiB4bGluazpocmVmPSJkYXRhOmltYWdlL3N2Zyt4bWw7YmFzZTY0LFBITjJaeUIzYVdSMGFEMG5Namt3SnlCb1pXbG5hSFE5SnpVd01DY2dkbWxsZDBKdmVEMG5NQ0F3SURJNU1DQTFNREFuSUhodGJHNXpQU2RvZEhSd09pOHZkM2QzTG5jekxtOXlaeTh5TURBd0wzTjJaeWMrUEdOcGNtTnNaU0JqZUQwbk1qUXpKeUJqZVQwbk1UQXdKeUJ5UFNjeE1EQndlQ2NnWm1sc2JEMG5JekF3TURBd05pY3ZQand2YzNablBnPT0iIC8+PGZlQmxlbmQgbW9kZT0ib3ZlcmxheSIgaW49InAwIiBpbjI9InAxIiAvPjxmZUJsZW5kIG1vZGU9ImV4Y2x1c2lvbiIgaW4yPSJwMiIgLz48ZmVCbGVuZCBtb2RlPSJvdmVybGF5IiBpbjI9InAzIiByZXN1bHQ9ImJsZW5kT3V0IiAvPjxmZUdhdXNzaWFuQmx1ciBpbj0iYmxlbmRPdXQiIHN0ZERldmlhdGlvbj0iNDIiIC8+PC9maWx0ZXI+IDxjbGlwUGF0aCBpZD0iY29ybmVycyI+PHJlY3Qgd2lkdGg9IjI5MCIgaGVpZ2h0PSI1MDAiIHJ4PSI0MiIgcnk9IjQyIiAvPjwvY2xpcFBhdGg+PHBhdGggaWQ9InRleHQtcGF0aC1hIiBkPSJNNDAgMTIgSDI1MCBBMjggMjggMCAwIDEgMjc4IDQwIFY0NjAgQTI4IDI4IDAgMCAxIDI1MCA0ODggSDQwIEEyOCAyOCAwIDAgMSAxMiA0NjAgVjQwIEEyOCAyOCAwIDAgMSA0MCAxMiB6IiAvPjxwYXRoIGlkPSJtaW5pbWFwIiBkPSJNMjM0IDQ0NEMyMzQgNDU3Ljk0OSAyNDIuMjEgNDYzIDI1MyA0NjMiIC8+PGZpbHRlciBpZD0idG9wLXJlZ2lvbi1ibHVyIj48ZmVHYXVzc2lhbkJsdXIgaW49IlNvdXJjZUdyYXBoaWMiIHN0ZERldmlhdGlvbj0iMjQiIC8+PC9maWx0ZXI+PGxpbmVhckdyYWRpZW50IGlkPSJncmFkLXVwIiB4MT0iMSIgeDI9IjAiIHkxPSIxIiB5Mj0iMCI+PHN0b3Agb2Zmc2V0PSIwLjAiIHN0b3AtY29sb3I9IndoaXRlIiBzdG9wLW9wYWNpdHk9IjEiIC8+PHN0b3Agb2Zmc2V0PSIuOSIgc3RvcC1jb2xvcj0id2hpdGUiIHN0b3Atb3BhY2l0eT0iMCIgLz48L2xpbmVhckdyYWRpZW50PjxsaW5lYXJHcmFkaWVudCBpZD0iZ3JhZC1kb3duIiB4MT0iMCIgeDI9IjEiIHkxPSIwIiB5Mj0iMSI+PHN0b3Agb2Zmc2V0PSIwLjAiIHN0b3AtY29sb3I9IndoaXRlIiBzdG9wLW9wYWNpdHk9IjEiIC8+PHN0b3Agb2Zmc2V0PSIwLjkiIHN0b3AtY29sb3I9IndoaXRlIiBzdG9wLW9wYWNpdHk9IjAiIC8+PC9saW5lYXJHcmFkaWVudD48bWFzayBpZD0iZmFkZS11cCIgbWFza0NvbnRlbnRVbml0cz0ib2JqZWN0Qm91bmRpbmdCb3giPjxyZWN0IHdpZHRoPSIxIiBoZWlnaHQ9IjEiIGZpbGw9InVybCgjZ3JhZC11cCkiIC8+PC9tYXNrPjxtYXNrIGlkPSJmYWRlLWRvd24iIG1hc2tDb250ZW50VW5pdHM9Im9iamVjdEJvdW5kaW5nQm94Ij48cmVjdCB3aWR0aD0iMSIgaGVpZ2h0PSIxIiBmaWxsPSJ1cmwoI2dyYWQtZG93bikiIC8+PC9tYXNrPjxtYXNrIGlkPSJub25lIiBtYXNrQ29udGVudFVuaXRzPSJvYmplY3RCb3VuZGluZ0JveCI+PHJlY3Qgd2lkdGg9IjEiIGhlaWdodD0iMSIgZmlsbD0id2hpdGUiIC8+PC9tYXNrPjxsaW5lYXJHcmFkaWVudCBpZD0iZ3JhZC1zeW1ib2wiPjxzdG9wIG9mZnNldD0iMC43IiBzdG9wLWNvbG9yPSJ3aGl0ZSIgc3RvcC1vcGFjaXR5PSIxIiAvPjxzdG9wIG9mZnNldD0iLjk1IiBzdG9wLWNvbG9yPSJ3aGl0ZSIgc3RvcC1vcGFjaXR5PSIwIiAvPjwvbGluZWFyR3JhZGllbnQ+PG1hc2sgaWQ9ImZhZGUtc3ltYm9sIiBtYXNrQ29udGVudFVuaXRzPSJ1c2VyU3BhY2VPblVzZSI+PHJlY3Qgd2lkdGg9IjI5MHB4IiBoZWlnaHQ9IjIwMHB4IiBmaWxsPSJ1cmwoI2dyYWQtc3ltYm9sKSIgLz48L21hc2s+PC9kZWZzPjxnIGNsaXAtcGF0aD0idXJsKCNjb3JuZXJzKSI+PHJlY3QgZmlsbD0iMGIyYzYzIiB4PSIwcHgiIHk9IjBweCIgd2lkdGg9IjI5MHB4IiBoZWlnaHQ9IjUwMHB4IiAvPjxyZWN0IHN0eWxlPSJmaWx0ZXI6IHVybCgjZjEpIiB4PSIwcHgiIHk9IjBweCIgd2lkdGg9IjI5MHB4IiBoZWlnaHQ9IjUwMHB4IiAvPiA8ZyBzdHlsZT0iZmlsdGVyOnVybCgjdG9wLXJlZ2lvbi1ibHVyKTsgdHJhbnNmb3JtOnNjYWxlKDEuNSk7IHRyYW5zZm9ybS1vcmlnaW46Y2VudGVyIHRvcDsiPjxyZWN0IGZpbGw9Im5vbmUiIHg9IjBweCIgeT0iMHB4IiB3aWR0aD0iMjkwcHgiIGhlaWdodD0iNTAwcHgiIC8+PGVsbGlwc2UgY3g9IjUwJSIgY3k9IjBweCIgcng9IjE4MHB4IiByeT0iMTIwcHgiIGZpbGw9IiMwMDAiIG9wYWNpdHk9IjAuODUiIC8+PC9nPjxyZWN0IHg9IjAiIHk9IjAiIHdpZHRoPSIyOTAiIGhlaWdodD0iNTAwIiByeD0iNDIiIHJ5PSI0MiIgZmlsbD0icmdiYSgwLDAsMCwwKSIgc3Ryb2tlPSJyZ2JhKDI1NSwyNTUsMjU1LDAuMikiIC8+PC9nPjx0ZXh0IHRleHQtcmVuZGVyaW5nPSJvcHRpbWl6ZVNwZWVkIj48dGV4dFBhdGggc3RhcnRPZmZzZXQ9Ii0xMDAlIiBmaWxsPSJ3aGl0ZSIgZm9udC1mYW1pbHk9IidDb3VyaWVyIE5ldycsIG1vbm9zcGFjZSIgZm9udC1zaXplPSIxMHB4IiB4bGluazpocmVmPSIjdGV4dC1wYXRoLWEiPjB4NDIwMDAwMDAwMDAwMDAwMDAwMDAwMDAwMDAwMDAwMDAwMDAwMDAwNiDigKIgV0VUSCA8YW5pbWF0ZSBhZGRpdGl2ZT0ic3VtIiBhdHRyaWJ1dGVOYW1lPSJzdGFydE9mZnNldCIgZnJvbT0iMCUiIHRvPSIxMDAlIiBiZWdpbj0iMHMiIGR1cj0iMzBzIiByZXBlYXRDb3VudD0iaW5kZWZpbml0ZSIgLz48L3RleHRQYXRoPiA8dGV4dFBhdGggc3RhcnRPZmZzZXQ9IjAlIiBmaWxsPSJ3aGl0ZSIgZm9udC1mYW1pbHk9IidDb3VyaWVyIE5ldycsIG1vbm9zcGFjZSIgZm9udC1zaXplPSIxMHB4IiB4bGluazpocmVmPSIjdGV4dC1wYXRoLWEiPjB4NDIwMDAwMDAwMDAwMDAwMDAwMDAwMDAwMDAwMDAwMDAwMDAwMDAwNiDigKIgV0VUSCA8YW5pbWF0ZSBhZGRpdGl2ZT0ic3VtIiBhdHRyaWJ1dGVOYW1lPSJzdGFydE9mZnNldCIgZnJvbT0iMCUiIHRvPSIxMDAlIiBiZWdpbj0iMHMiIGR1cj0iMzBzIiByZXBlYXRDb3VudD0iaW5kZWZpbml0ZSIgLz4gPC90ZXh0UGF0aD48dGV4dFBhdGggc3RhcnRPZmZzZXQ9IjUwJSIgZmlsbD0id2hpdGUiIGZvbnQtZmFtaWx5PSInQ291cmllciBOZXcnLCBtb25vc3BhY2UiIGZvbnQtc2l6ZT0iMTBweCIgeGxpbms6aHJlZj0iI3RleHQtcGF0aC1hIj4weDBiMmM2MzljNTMzODEzZjRhYTlkNzgzN2NhZjYyNjUzZDA5N2ZmODUg4oCiIFVTREMgPGFuaW1hdGUgYWRkaXRpdmU9InN1bSIgYXR0cmlidXRlTmFtZT0ic3RhcnRPZmZzZXQiIGZyb209IjAlIiB0bz0iMTAwJSIgYmVnaW49IjBzIiBkdXI9IjMwcyIgcmVwZWF0Q291bnQ9ImluZGVmaW5pdGUiIC8+PC90ZXh0UGF0aD48dGV4dFBhdGggc3RhcnRPZmZzZXQ9Ii01MCUiIGZpbGw9IndoaXRlIiBmb250LWZhbWlseT0iJ0NvdXJpZXIgTmV3JywgbW9ub3NwYWNlIiBmb250LXNpemU9IjEwcHgiIHhsaW5rOmhyZWY9IiN0ZXh0LXBhdGgtYSI+MHgwYjJjNjM5YzUzMzgxM2Y0YWE5ZDc4MzdjYWY2MjY1M2QwOTdmZjg1IOKAoiBVU0RDIDxhbmltYXRlIGFkZGl0aXZlPSJzdW0iIGF0dHJpYnV0ZU5hbWU9InN0YXJ0T2Zmc2V0IiBmcm9tPSIwJSIgdG89IjEwMCUiIGJlZ2luPSIwcyIgZHVyPSIzMHMiIHJlcGVhdENvdW50PSJpbmRlZmluaXRlIiAvPjwvdGV4dFBhdGg+PC90ZXh0PjxnIG1hc2s9InVybCgjZmFkZS1zeW1ib2wpIj48cmVjdCBmaWxsPSJub25lIiB4PSIwcHgiIHk9IjBweCIgd2lkdGg9IjI5MHB4IiBoZWlnaHQ9IjIwMHB4IiAvPiA8dGV4dCB5PSI3MHB4IiB4PSIzMnB4IiBmaWxsPSJ3aGl0ZSIgZm9udC1mYW1pbHk9IidDb3VyaWVyIE5ldycsIG1vbm9zcGFjZSIgZm9udC13ZWlnaHQ9IjIwMCIgZm9udC1zaXplPSIzNnB4Ij5VU0RDL1dFVEg8L3RleHQ+PHRleHQgeT0iMTE1cHgiIHg9IjMycHgiIGZpbGw9IndoaXRlIiBmb250LWZhbWlseT0iJ0NvdXJpZXIgTmV3JywgbW9ub3NwYWNlIiBmb250LXdlaWdodD0iMjAwIiBmb250LXNpemU9IjM2cHgiPjAuMyU8L3RleHQ+PC9nPjxyZWN0IHg9IjE2IiB5PSIxNiIgd2lkdGg9IjI1OCIgaGVpZ2h0PSI0NjgiIHJ4PSIyNiIgcnk9IjI2IiBmaWxsPSJyZ2JhKDAsMCwwLDApIiBzdHJva2U9InJnYmEoMjU1LDI1NSwyNTUsMC4yKSIgLz48ZyBtYXNrPSJ1cmwoI2ZhZGUtdXApIiBzdHlsZT0idHJhbnNmb3JtOnRyYW5zbGF0ZSg3MnB4LDE4OXB4KSI+PHJlY3QgeD0iLTE2cHgiIHk9Ii0xNnB4IiB3aWR0aD0iMTgwcHgiIGhlaWdodD0iMTgwcHgiIGZpbGw9Im5vbmUiIC8+PHBhdGggZD0iTTEgMUMyNSA2NSA4MSAxMjEgMTQ1IDE0NSIgc3Ryb2tlPSJyZ2JhKDAsMCwwLDAuMykiIHN0cm9rZS13aWR0aD0iMzJweCIgZmlsbD0ibm9uZSIgc3Ryb2tlLWxpbmVjYXA9InJvdW5kIiAvPjwvZz48ZyBtYXNrPSJ1cmwoI2ZhZGUtdXApIiBzdHlsZT0idHJhbnNmb3JtOnRyYW5zbGF0ZSg3MnB4LDE4OXB4KSI+PHJlY3QgeD0iLTE2cHgiIHk9Ii0xNnB4IiB3aWR0aD0iMTgwcHgiIGhlaWdodD0iMTgwcHgiIGZpbGw9Im5vbmUiIC8+PHBhdGggZD0iTTEgMUMyNSA2NSA4MSAxMjEgMTQ1IDE0NSIgc3Ryb2tlPSJyZ2JhKDI1NSwyNTUsMjU1LDEpIiBmaWxsPSJub25lIiBzdHJva2UtbGluZWNhcD0icm91bmQiIC8+PC9nPjxjaXJjbGUgY3g9IjIxN3B4IiBjeT0iMzM0cHgiIHI9IjRweCIgZmlsbD0id2hpdGUiIC8+PGNpcmNsZSBjeD0iMjE3cHgiIGN5PSIzMzRweCIgcj0iMjRweCIgZmlsbD0ibm9uZSIgc3Ryb2tlPSJ3aGl0ZSIgLz4gPGcgc3R5bGU9InRyYW5zZm9ybTp0cmFuc2xhdGUoMjlweCwgMzg0cHgpIj48cmVjdCB3aWR0aD0iOThweCIgaGVpZ2h0PSIyNnB4IiByeD0iOHB4IiByeT0iOHB4IiBmaWxsPSJyZ2JhKDAsMCwwLDAuNikiIC8+PHRleHQgeD0iMTJweCIgeT0iMTdweCIgZm9udC1mYW1pbHk9IidDb3VyaWVyIE5ldycsIG1vbm9zcGFjZSIgZm9udC1zaXplPSIxMnB4IiBmaWxsPSJ3aGl0ZSI+PHRzcGFuIGZpbGw9InJnYmEoMjU1LDI1NSwyNTUsMC42KSI+SUQ6IDwvdHNwYW4+NzI0MjYwPC90ZXh0PjwvZz4gPGcgc3R5bGU9InRyYW5zZm9ybTp0cmFuc2xhdGUoMjlweCwgNDE0cHgpIj48cmVjdCB3aWR0aD0iMTQwcHgiIGhlaWdodD0iMjZweCIgcng9IjhweCIgcnk9IjhweCIgZmlsbD0icmdiYSgwLDAsMCwwLjYpIiAvPjx0ZXh0IHg9IjEycHgiIHk9IjE3cHgiIGZvbnQtZmFtaWx5PSInQ291cmllciBOZXcnLCBtb25vc3BhY2UiIGZvbnQtc2l6ZT0iMTJweCIgZmlsbD0id2hpdGUiPjx0c3BhbiBmaWxsPSJyZ2JhKDI1NSwyNTUsMjU1LDAuNikiPk1pbiBUaWNrOiA8L3RzcGFuPjE5Mzc0MDwvdGV4dD48L2c+IDxnIHN0eWxlPSJ0cmFuc2Zvcm06dHJhbnNsYXRlKDI5cHgsIDQ0NHB4KSI+PHJlY3Qgd2lkdGg9IjE0MHB4IiBoZWlnaHQ9IjI2cHgiIHJ4PSI4cHgiIHJ5PSI4cHgiIGZpbGw9InJnYmEoMCwwLDAsMC42KSIgLz48dGV4dCB4PSIxMnB4IiB5PSIxN3B4IiBmb250LWZhbWlseT0iJ0NvdXJpZXIgTmV3JywgbW9ub3NwYWNlIiBmb250LXNpemU9IjEycHgiIGZpbGw9IndoaXRlIj48dHNwYW4gZmlsbD0icmdiYSgyNTUsMjU1LDI1NSwwLjYpIj5NYXggVGljazogPC90c3Bhbj4xOTQ4MjA8L3RleHQ+PC9nPjxnIHN0eWxlPSJ0cmFuc2Zvcm06dHJhbnNsYXRlKDIyNnB4LCA0MzNweCkiPjxyZWN0IHdpZHRoPSIzNnB4IiBoZWlnaHQ9IjM2cHgiIHJ4PSI4cHgiIHJ5PSI4cHgiIGZpbGw9Im5vbmUiIHN0cm9rZT0icmdiYSgyNTUsMjU1LDI1NSwwLjIpIiAvPjxwYXRoIHN0cm9rZS1saW5lY2FwPSJyb3VuZCIgZD0iTTggOUM4LjAwMDA0IDIyLjk0OTQgMTYuMjA5OSAyOCAyNyAyOCIgZmlsbD0ibm9uZSIgc3Ryb2tlPSJ3aGl0ZSIgLz48Y2lyY2xlIHN0eWxlPSJ0cmFuc2Zvcm06dHJhbnNsYXRlM2QoMjRweCwgMjdweCwgMHB4KSIgY3g9IjBweCIgY3k9IjBweCIgcj0iNHB4IiBmaWxsPSJ3aGl0ZSIvPjwvZz48L3N2Zz4=\",\"is_unique\":null,\"media_type\":null,\"media_url\":\"data:image/svg+xml;base64,PHN2ZyB3aWR0aD0iMjkwIiBoZWlnaHQ9IjUwMCIgdmlld0JveD0iMCAwIDI5MCA1MDAiIHhtbG5zPSJodHRwOi8vd3d3LnczLm9yZy8yMDAwL3N2ZyIgeG1sbnM6eGxpbms9J2h0dHA6Ly93d3cudzMub3JnLzE5OTkveGxpbmsnPjxkZWZzPjxmaWx0ZXIgaWQ9ImYxIj48ZmVJbWFnZSByZXN1bHQ9InAwIiB4bGluazpocmVmPSJkYXRhOmltYWdlL3N2Zyt4bWw7YmFzZTY0LFBITjJaeUIzYVdSMGFEMG5Namt3SnlCb1pXbG5hSFE5SnpVd01DY2dkbWxsZDBKdmVEMG5NQ0F3SURJNU1DQTFNREFuSUhodGJHNXpQU2RvZEhSd09pOHZkM2QzTG5jekxtOXlaeTh5TURBd0wzTjJaeWMrUEhKbFkzUWdkMmxrZEdnOUp6STVNSEI0SnlCb1pXbG5hSFE5SnpVd01IQjRKeUJtYVd4c1BTY2pNR0l5WXpZekp5OCtQQzl6ZG1jKyIvPjxmZUltYWdlIHJlc3VsdD0icDEiIHhsaW5rOmhyZWY9ImRhdGE6aW1hZ2Uvc3ZnK3htbDtiYXNlNjQsUEhOMlp5QjNhV1IwYUQwbk1qa3dKeUJvWldsbmFIUTlKelV3TUNjZ2RtbGxkMEp2ZUQwbk1DQXdJREk1TUNBMU1EQW5JSGh0Ykc1elBTZG9kSFJ3T2k4dmQzZDNMbmN6TG05eVp5OHlNREF3TDNOMlp5YytQR05wY21Oc1pTQmplRDBuTVRVeUp5QmplVDBuTVRBd0p5QnlQU2N4TWpCd2VDY2dabWxzYkQwbkl6UXlNREF3TUNjdlBqd3ZjM1puUGc9PSIvPjxmZUltYWdlIHJlc3VsdD0icDIiIHhsaW5rOmhyZWY9ImRhdGE6aW1hZ2Uvc3ZnK3htbDtiYXNlNjQsUEhOMlp5QjNhV1IwYUQwbk1qa3dKeUJvWldsbmFIUTlKelV3TUNjZ2RtbGxkMEp2ZUQwbk1DQXdJREk1TUNBMU1EQW5JSGh0Ykc1elBTZG9kSFJ3T2k4dmQzZDNMbmN6TG05eVp5OHlNREF3TDNOMlp5YytQR05wY21Oc1pTQmplRDBuTVRVeUp5QmplVDBuTVRBd0p5QnlQU2N4TWpCd2VDY2dabWxzYkQwbkl6azNabVk0TlNjdlBqd3ZjM1puUGc9PSIgLz48ZmVJbWFnZSByZXN1bHQ9InAzIiB4bGluazpocmVmPSJkYXRhOmltYWdlL3N2Zyt4bWw7YmFzZTY0LFBITjJaeUIzYVdSMGFEMG5Namt3SnlCb1pXbG5hSFE5SnpVd01DY2dkbWxsZDBKdmVEMG5NQ0F3SURJNU1DQTFNREFuSUhodGJHNXpQU2RvZEhSd09pOHZkM2QzTG5jekxtOXlaeTh5TURBd0wzTjJaeWMrUEdOcGNtTnNaU0JqZUQwbk1qUXpKeUJqZVQwbk1UQXdKeUJ5UFNjeE1EQndlQ2NnWm1sc2JEMG5JekF3TURBd05pY3ZQand2YzNablBnPT0iIC8+PGZlQmxlbmQgbW9kZT0ib3ZlcmxheSIgaW49InAwIiBpbjI9InAxIiAvPjxmZUJsZW5kIG1vZGU9ImV4Y2x1c2lvbiIgaW4yPSJwMiIgLz48ZmVCbGVuZCBtb2RlPSJvdmVybGF5IiBpbjI9InAzIiByZXN1bHQ9ImJsZW5kT3V0IiAvPjxmZUdhdXNzaWFuQmx1ciBpbj0iYmxlbmRPdXQiIHN0ZERldmlhdGlvbj0iNDIiIC8+PC9maWx0ZXI+IDxjbGlwUGF0aCBpZD0iY29ybmVycyI+PHJlY3Qgd2lkdGg9IjI5MCIgaGVpZ2h0PSI1MDAiIHJ4PSI0MiIgcnk9IjQyIiAvPjwvY2xpcFBhdGg+PHBhdGggaWQ9InRleHQtcGF0aC1hIiBkPSJNNDAgMTIgSDI1MCBBMjggMjggMCAwIDEgMjc4IDQwIFY0NjAgQTI4IDI4IDAgMCAxIDI1MCA0ODggSDQwIEEyOCAyOCAwIDAgMSAxMiA0NjAgVjQwIEEyOCAyOCAwIDAgMSA0MCAxMiB6IiAvPjxwYXRoIGlkPSJtaW5pbWFwIiBkPSJNMjM0IDQ0NEMyMzQgNDU3Ljk0OSAyNDIuMjEgNDYzIDI1MyA0NjMiIC8+PGZpbHRlciBpZD0idG9wLXJlZ2lvbi1ibHVyIj48ZmVHYXVzc2lhbkJsdXIgaW49IlNvdXJjZUdyYXBoaWMiIHN0ZERldmlhdGlvbj0iMjQiIC8+PC9maWx0ZXI+PGxpbmVhckdyYWRpZW50IGlkPSJncmFkLXVwIiB4MT0iMSIgeDI9IjAiIHkxPSIxIiB5Mj0iMCI+PHN0b3Agb2Zmc2V0PSIwLjAiIHN0b3AtY29sb3I9IndoaXRlIiBzdG9wLW9wYWNpdHk9IjEiIC8+PHN0b3Agb2Zmc2V0PSIuOSIgc3RvcC1jb2xvcj0id2hpdGUiIHN0b3Atb3BhY2l0eT0iMCIgLz48L2xpbmVhckdyYWRpZW50PjxsaW5lYXJHcmFkaWVudCBpZD0iZ3JhZC1kb3duIiB4MT0iMCIgeDI9IjEiIHkxPSIwIiB5Mj0iMSI+PHN0b3Agb2Zmc2V0PSIwLjAiIHN0b3AtY29sb3I9IndoaXRlIiBzdG9wLW9wYWNpdHk9IjEiIC8+PHN0b3Agb2Zmc2V0PSIwLjkiIHN0b3AtY29sb3I9IndoaXRlIiBzdG9wLW9wYWNpdHk9IjAiIC8+PC9saW5lYXJHcmFkaWVudD48bWFzayBpZD0iZmFkZS11cCIgbWFza0NvbnRlbnRVbml0cz0ib2JqZWN0Qm91bmRpbmdCb3giPjxyZWN0IHdpZHRoPSIxIiBoZWlnaHQ9IjEiIGZpbGw9InVybCgjZ3JhZC11cCkiIC8+PC9tYXNrPjxtYXNrIGlkPSJmYWRlLWRvd24iIG1hc2tDb250ZW50VW5pdHM9Im9iamVjdEJvdW5kaW5nQm94Ij48cmVjdCB3aWR0aD0iMSIgaGVpZ2h0PSIxIiBmaWxsPSJ1cmwoI2dyYWQtZG93bikiIC8+PC9tYXNrPjxtYXNrIGlkPSJub25lIiBtYXNrQ29udGVudFVuaXRzPSJvYmplY3RCb3VuZGluZ0JveCI+PHJlY3Qgd2lkdGg9IjEiIGhlaWdodD0iMSIgZmlsbD0id2hpdGUiIC8+PC9tYXNrPjxsaW5lYXJHcmFkaWVudCBpZD0iZ3JhZC1zeW1ib2wiPjxzdG9wIG9mZnNldD0iMC43IiBzdG9wLWNvbG9yPSJ3aGl0ZSIgc3RvcC1vcGFjaXR5PSIxIiAvPjxzdG9wIG9mZnNldD0iLjk1IiBzdG9wLWNvbG9yPSJ3aGl0ZSIgc3RvcC1vcGFjaXR5PSIwIiAvPjwvbGluZWFyR3JhZGllbnQ+PG1hc2sgaWQ9ImZhZGUtc3ltYm9sIiBtYXNrQ29udGVudFVuaXRzPSJ1c2VyU3BhY2VPblVzZSI+PHJlY3Qgd2lkdGg9IjI5MHB4IiBoZWlnaHQ9IjIwMHB4IiBmaWxsPSJ1cmwoI2dyYWQtc3ltYm9sKSIgLz48L21hc2s+PC9kZWZzPjxnIGNsaXAtcGF0aD0idXJsKCNjb3JuZXJzKSI+PHJlY3QgZmlsbD0iMGIyYzYzIiB4PSIwcHgiIHk9IjBweCIgd2lkdGg9IjI5MHB4IiBoZWlnaHQ9IjUwMHB4IiAvPjxyZWN0IHN0eWxlPSJmaWx0ZXI6IHVybCgjZjEpIiB4PSIwcHgiIHk9IjBweCIgd2lkdGg9IjI5MHB4IiBoZWlnaHQ9IjUwMHB4IiAvPiA8ZyBzdHlsZT0iZmlsdGVyOnVybCgjdG9wLXJlZ2lvbi1ibHVyKTsgdHJhbnNmb3JtOnNjYWxlKDEuNSk7IHRyYW5zZm9ybS1vcmlnaW46Y2VudGVyIHRvcDsiPjxyZWN0IGZpbGw9Im5vbmUiIHg9IjBweCIgeT0iMHB4IiB3aWR0aD0iMjkwcHgiIGhlaWdodD0iNTAwcHgiIC8+PGVsbGlwc2UgY3g9IjUwJSIgY3k9IjBweCIgcng9IjE4MHB4IiByeT0iMTIwcHgiIGZpbGw9IiMwMDAiIG9wYWNpdHk9IjAuODUiIC8+PC9nPjxyZWN0IHg9IjAiIHk9IjAiIHdpZHRoPSIyOTAiIGhlaWdodD0iNTAwIiByeD0iNDIiIHJ5PSI0MiIgZmlsbD0icmdiYSgwLDAsMCwwKSIgc3Ryb2tlPSJyZ2JhKDI1NSwyNTUsMjU1LDAuMikiIC8+PC9nPjx0ZXh0IHRleHQtcmVuZGVyaW5nPSJvcHRpbWl6ZVNwZWVkIj48dGV4dFBhdGggc3RhcnRPZmZzZXQ9Ii0xMDAlIiBmaWxsPSJ3aGl0ZSIgZm9udC1mYW1pbHk9IidDb3VyaWVyIE5ldycsIG1vbm9zcGFjZSIgZm9udC1zaXplPSIxMHB4IiB4bGluazpocmVmPSIjdGV4dC1wYXRoLWEiPjB4NDIwMDAwMDAwMDAwMDAwMDAwMDAwMDAwMDAwMDAwMDAwMDAwMDAwNiDigKIgV0VUSCA8YW5pbWF0ZSBhZGRpdGl2ZT0ic3VtIiBhdHRyaWJ1dGVOYW1lPSJzdGFydE9mZnNldCIgZnJvbT0iMCUiIHRvPSIxMDAlIiBiZWdpbj0iMHMiIGR1cj0iMzBzIiByZXBlYXRDb3VudD0iaW5kZWZpbml0ZSIgLz48L3RleHRQYXRoPiA8dGV4dFBhdGggc3RhcnRPZmZzZXQ9IjAlIiBmaWxsPSJ3aGl0ZSIgZm9udC1mYW1pbHk9IidDb3VyaWVyIE5ldycsIG1vbm9zcGFjZSIgZm9udC1zaXplPSIxMHB4IiB4bGluazpocmVmPSIjdGV4dC1wYXRoLWEiPjB4NDIwMDAwMDAwMDAwMDAwMDAwMDAwMDAwMDAwMDAwMDAwMDAwMDAwNiDigKIgV0VUSCA8YW5pbWF0ZSBhZGRpdGl2ZT0ic3VtIiBhdHRyaWJ1dGVOYW1lPSJzdGFydE9mZnNldCIgZnJvbT0iMCUiIHRvPSIxMDAlIiBiZWdpbj0iMHMiIGR1cj0iMzBzIiByZXBlYXRDb3VudD0iaW5kZWZpbml0ZSIgLz4gPC90ZXh0UGF0aD48dGV4dFBhdGggc3RhcnRPZmZzZXQ9IjUwJSIgZmlsbD0id2hpdGUiIGZvbnQtZmFtaWx5PSInQ291cmllciBOZXcnLCBtb25vc3BhY2UiIGZvbnQtc2l6ZT0iMTBweCIgeGxpbms6aHJlZj0iI3RleHQtcGF0aC1hIj4weDBiMmM2MzljNTMzODEzZjRhYTlkNzgzN2NhZjYyNjUzZDA5N2ZmODUg4oCiIFVTREMgPGFuaW1hdGUgYWRkaXRpdmU9InN1bSIgYXR0cmlidXRlTmFtZT0ic3RhcnRPZmZzZXQiIGZyb209IjAlIiB0bz0iMTAwJSIgYmVnaW49IjBzIiBkdXI9IjMwcyIgcmVwZWF0Q291bnQ9ImluZGVmaW5pdGUiIC8+PC90ZXh0UGF0aD48dGV4dFBhdGggc3RhcnRPZmZzZXQ9Ii01MCUiIGZpbGw9IndoaXRlIiBmb250LWZhbWlseT0iJ0NvdXJpZXIgTmV3JywgbW9ub3NwYWNlIiBmb250LXNpemU9IjEwcHgiIHhsaW5rOmhyZWY9IiN0ZXh0LXBhdGgtYSI+MHgwYjJjNjM5YzUzMzgxM2Y0YWE5ZDc4MzdjYWY2MjY1M2QwOTdmZjg1IOKAoiBVU0RDIDxhbmltYXRlIGFkZGl0aXZlPSJzdW0iIGF0dHJpYnV0ZU5hbWU9InN0YXJ0T2Zmc2V0IiBmcm9tPSIwJSIgdG89IjEwMCUiIGJlZ2luPSIwcyIgZHVyPSIzMHMiIHJlcGVhdENvdW50PSJpbmRlZmluaXRlIiAvPjwvdGV4dFBhdGg+PC90ZXh0PjxnIG1hc2s9InVybCgjZmFkZS1zeW1ib2wpIj48cmVjdCBmaWxsPSJub25lIiB4PSIwcHgiIHk9IjBweCIgd2lkdGg9IjI5MHB4IiBoZWlnaHQ9IjIwMHB4IiAvPiA8dGV4dCB5PSI3MHB4IiB4PSIzMnB4IiBmaWxsPSJ3aGl0ZSIgZm9udC1mYW1pbHk9IidDb3VyaWVyIE5ldycsIG1vbm9zcGFjZSIgZm9udC13ZWlnaHQ9IjIwMCIgZm9udC1zaXplPSIzNnB4Ij5VU0RDL1dFVEg8L3RleHQ+PHRleHQgeT0iMTE1cHgiIHg9IjMycHgiIGZpbGw9IndoaXRlIiBmb250LWZhbWlseT0iJ0NvdXJpZXIgTmV3JywgbW9ub3NwYWNlIiBmb250LXdlaWdodD0iMjAwIiBmb250LXNpemU9IjM2cHgiPjAuMyU8L3RleHQ+PC9nPjxyZWN0IHg9IjE2IiB5PSIxNiIgd2lkdGg9IjI1OCIgaGVpZ2h0PSI0NjgiIHJ4PSIyNiIgcnk9IjI2IiBmaWxsPSJyZ2JhKDAsMCwwLDApIiBzdHJva2U9InJnYmEoMjU1LDI1NSwyNTUsMC4yKSIgLz48ZyBtYXNrPSJ1cmwoI2ZhZGUtdXApIiBzdHlsZT0idHJhbnNmb3JtOnRyYW5zbGF0ZSg3MnB4LDE4OXB4KSI+PHJlY3QgeD0iLTE2cHgiIHk9Ii0xNnB4IiB3aWR0aD0iMTgwcHgiIGhlaWdodD0iMTgwcHgiIGZpbGw9Im5vbmUiIC8+PHBhdGggZD0iTTEgMUMyNSA2NSA4MSAxMjEgMTQ1IDE0NSIgc3Ryb2tlPSJyZ2JhKDAsMCwwLDAuMykiIHN0cm9rZS13aWR0aD0iMzJweCIgZmlsbD0ibm9uZSIgc3Ryb2tlLWxpbmVjYXA9InJvdW5kIiAvPjwvZz48ZyBtYXNrPSJ1cmwoI2ZhZGUtdXApIiBzdHlsZT0idHJhbnNmb3JtOnRyYW5zbGF0ZSg3MnB4LDE4OXB4KSI+PHJlY3QgeD0iLTE2cHgiIHk9Ii0xNnB4IiB3aWR0aD0iMTgwcHgiIGhlaWdodD0iMTgwcHgiIGZpbGw9Im5vbmUiIC8+PHBhdGggZD0iTTEgMUMyNSA2NSA4MSAxMjEgMTQ1IDE0NSIgc3Ryb2tlPSJyZ2JhKDI1NSwyNTUsMjU1LDEpIiBmaWxsPSJub25lIiBzdHJva2UtbGluZWNhcD0icm91bmQiIC8+PC9nPjxjaXJjbGUgY3g9IjIxN3B4IiBjeT0iMzM0cHgiIHI9IjRweCIgZmlsbD0id2hpdGUiIC8+PGNpcmNsZSBjeD0iMjE3cHgiIGN5PSIzMzRweCIgcj0iMjRweCIgZmlsbD0ibm9uZSIgc3Ryb2tlPSJ3aGl0ZSIgLz4gPGcgc3R5bGU9InRyYW5zZm9ybTp0cmFuc2xhdGUoMjlweCwgMzg0cHgpIj48cmVjdCB3aWR0aD0iOThweCIgaGVpZ2h0PSIyNnB4IiByeD0iOHB4IiByeT0iOHB4IiBmaWxsPSJyZ2JhKDAsMCwwLDAuNikiIC8+PHRleHQgeD0iMTJweCIgeT0iMTdweCIgZm9udC1mYW1pbHk9IidDb3VyaWVyIE5ldycsIG1vbm9zcGFjZSIgZm9udC1zaXplPSIxMnB4IiBmaWxsPSJ3aGl0ZSI+PHRzcGFuIGZpbGw9InJnYmEoMjU1LDI1NSwyNTUsMC42KSI+SUQ6IDwvdHNwYW4+NzI0MjYwPC90ZXh0PjwvZz4gPGcgc3R5bGU9InRyYW5zZm9ybTp0cmFuc2xhdGUoMjlweCwgNDE0cHgpIj48cmVjdCB3aWR0aD0iMTQwcHgiIGhlaWdodD0iMjZweCIgcng9IjhweCIgcnk9IjhweCIgZmlsbD0icmdiYSgwLDAsMCwwLjYpIiAvPjx0ZXh0IHg9IjEycHgiIHk9IjE3cHgiIGZvbnQtZmFtaWx5PSInQ291cmllciBOZXcnLCBtb25vc3BhY2UiIGZvbnQtc2l6ZT0iMTJweCIgZmlsbD0id2hpdGUiPjx0c3BhbiBmaWxsPSJyZ2JhKDI1NSwyNTUsMjU1LDAuNikiPk1pbiBUaWNrOiA8L3RzcGFuPjE5Mzc0MDwvdGV4dD48L2c+IDxnIHN0eWxlPSJ0cmFuc2Zvcm06dHJhbnNsYXRlKDI5cHgsIDQ0NHB4KSI+PHJlY3Qgd2lkdGg9IjE0MHB4IiBoZWlnaHQ9IjI2cHgiIHJ4PSI4cHgiIHJ5PSI4cHgiIGZpbGw9InJnYmEoMCwwLDAsMC42KSIgLz48dGV4dCB4PSIxMnB4IiB5PSIxN3B4IiBmb250LWZhbWlseT0iJ0NvdXJpZXIgTmV3JywgbW9ub3NwYWNlIiBmb250LXNpemU9IjEycHgiIGZpbGw9IndoaXRlIj48dHNwYW4gZmlsbD0icmdiYSgyNTUsMjU1LDI1NSwwLjYpIj5NYXggVGljazogPC90c3Bhbj4xOTQ4MjA8L3RleHQ+PC9nPjxnIHN0eWxlPSJ0cmFuc2Zvcm06dHJhbnNsYXRlKDIyNnB4LCA0MzNweCkiPjxyZWN0IHdpZHRoPSIzNnB4IiBoZWlnaHQ9IjM2cHgiIHJ4PSI4cHgiIHJ5PSI4cHgiIGZpbGw9Im5vbmUiIHN0cm9rZT0icmdiYSgyNTUsMjU1LDI1NSwwLjIpIiAvPjxwYXRoIHN0cm9rZS1saW5lY2FwPSJyb3VuZCIgZD0iTTggOUM4LjAwMDA0IDIyLjk0OTQgMTYuMjA5OSAyOCAyNyAyOCIgZmlsbD0ibm9uZSIgc3Ryb2tlPSJ3aGl0ZSIgLz48Y2lyY2xlIHN0eWxlPSJ0cmFuc2Zvcm06dHJhbnNsYXRlM2QoMjRweCwgMjdweCwgMHB4KSIgY3g9IjBweCIgY3k9IjBweCIgcj0iNHB4IiBmaWxsPSJ3aGl0ZSIvPjwvZz48L3N2Zz4=\",\"metadata\":{\"description\":\"This
        NFT represents a liquidity position in a Uniswap V3 USDC-WETH pool. The owner
        of this NFT can modify or redeem the position.\\n\\nPool Address: 0xc1738d90e2e26c35784a0d3e3d8a9f795074bca4\\nUSDC
        Address: 0x0b2c639c533813f4aa9d7837caf62653d097ff85\\nWETH Address: 0x4200000000000000000000000000000000000006\\nFee
        Tier: 0.3%\\nToken ID: 724260\\n\\n\u26A0\uFE0F DISCLAIMER: Due diligence
        is imperative when assessing this NFT. Make sure token addresses match the
        expected tokens, as token symbols may be imitated.\",\"image\":\"data:image/svg+xml;base64,PHN2ZyB3aWR0aD0iMjkwIiBoZWlnaHQ9IjUwMCIgdmlld0JveD0iMCAwIDI5MCA1MDAiIHhtbG5zPSJodHRwOi8vd3d3LnczLm9yZy8yMDAwL3N2ZyIgeG1sbnM6eGxpbms9J2h0dHA6Ly93d3cudzMub3JnLzE5OTkveGxpbmsnPjxkZWZzPjxmaWx0ZXIgaWQ9ImYxIj48ZmVJbWFnZSByZXN1bHQ9InAwIiB4bGluazpocmVmPSJkYXRhOmltYWdlL3N2Zyt4bWw7YmFzZTY0LFBITjJaeUIzYVdSMGFEMG5Namt3SnlCb1pXbG5hSFE5SnpVd01DY2dkbWxsZDBKdmVEMG5NQ0F3SURJNU1DQTFNREFuSUhodGJHNXpQU2RvZEhSd09pOHZkM2QzTG5jekxtOXlaeTh5TURBd0wzTjJaeWMrUEhKbFkzUWdkMmxrZEdnOUp6STVNSEI0SnlCb1pXbG5hSFE5SnpVd01IQjRKeUJtYVd4c1BTY2pNR0l5WXpZekp5OCtQQzl6ZG1jKyIvPjxmZUltYWdlIHJlc3VsdD0icDEiIHhsaW5rOmhyZWY9ImRhdGE6aW1hZ2Uvc3ZnK3htbDtiYXNlNjQsUEhOMlp5QjNhV1IwYUQwbk1qa3dKeUJvWldsbmFIUTlKelV3TUNjZ2RtbGxkMEp2ZUQwbk1DQXdJREk1TUNBMU1EQW5JSGh0Ykc1elBTZG9kSFJ3T2k4dmQzZDNMbmN6TG05eVp5OHlNREF3TDNOMlp5YytQR05wY21Oc1pTQmplRDBuTVRVeUp5QmplVDBuTVRBd0p5QnlQU2N4TWpCd2VDY2dabWxzYkQwbkl6UXlNREF3TUNjdlBqd3ZjM1puUGc9PSIvPjxmZUltYWdlIHJlc3VsdD0icDIiIHhsaW5rOmhyZWY9ImRhdGE6aW1hZ2Uvc3ZnK3htbDtiYXNlNjQsUEhOMlp5QjNhV1IwYUQwbk1qa3dKeUJvWldsbmFIUTlKelV3TUNjZ2RtbGxkMEp2ZUQwbk1DQXdJREk1TUNBMU1EQW5JSGh0Ykc1elBTZG9kSFJ3T2k4dmQzZDNMbmN6TG05eVp5OHlNREF3TDNOMlp5YytQR05wY21Oc1pTQmplRDBuTVRVeUp5QmplVDBuTVRBd0p5QnlQU2N4TWpCd2VDY2dabWxzYkQwbkl6azNabVk0TlNjdlBqd3ZjM1puUGc9PSIgLz48ZmVJbWFnZSByZXN1bHQ9InAzIiB4bGluazpocmVmPSJkYXRhOmltYWdlL3N2Zyt4bWw7YmFzZTY0LFBITjJaeUIzYVdSMGFEMG5Namt3SnlCb1pXbG5hSFE5SnpVd01DY2dkbWxsZDBKdmVEMG5NQ0F3SURJNU1DQTFNREFuSUhodGJHNXpQU2RvZEhSd09pOHZkM2QzTG5jekxtOXlaeTh5TURBd0wzTjJaeWMrUEdOcGNtTnNaU0JqZUQwbk1qUXpKeUJqZVQwbk1UQXdKeUJ5UFNjeE1EQndlQ2NnWm1sc2JEMG5JekF3TURBd05pY3ZQand2YzNablBnPT0iIC8+PGZlQmxlbmQgbW9kZT0ib3ZlcmxheSIgaW49InAwIiBpbjI9InAxIiAvPjxmZUJsZW5kIG1vZGU9ImV4Y2x1c2lvbiIgaW4yPSJwMiIgLz48ZmVCbGVuZCBtb2RlPSJvdmVybGF5IiBpbjI9InAzIiByZXN1bHQ9ImJsZW5kT3V0IiAvPjxmZUdhdXNzaWFuQmx1ciBpbj0iYmxlbmRPdXQiIHN0ZERldmlhdGlvbj0iNDIiIC8+PC9maWx0ZXI+IDxjbGlwUGF0aCBpZD0iY29ybmVycyI+PHJlY3Qgd2lkdGg9IjI5MCIgaGVpZ2h0PSI1MDAiIHJ4PSI0MiIgcnk9IjQyIiAvPjwvY2xpcFBhdGg+PHBhdGggaWQ9InRleHQtcGF0aC1hIiBkPSJNNDAgMTIgSDI1MCBBMjggMjggMCAwIDEgMjc4IDQwIFY0NjAgQTI4IDI4IDAgMCAxIDI1MCA0ODggSDQwIEEyOCAyOCAwIDAgMSAxMiA0NjAgVjQwIEEyOCAyOCAwIDAgMSA0MCAxMiB6IiAvPjxwYXRoIGlkPSJtaW5pbWFwIiBkPSJNMjM0IDQ0NEMyMzQgNDU3Ljk0OSAyNDIuMjEgNDYzIDI1MyA0NjMiIC8+PGZpbHRlciBpZD0idG9wLXJlZ2lvbi1ibHVyIj48ZmVHYXVzc2lhbkJsdXIgaW49IlNvdXJjZUdyYXBoaWMiIHN0ZERldmlhdGlvbj0iMjQiIC8+PC9maWx0ZXI+PGxpbmVhckdyYWRpZW50IGlkPSJncmFkLXVwIiB4MT0iMSIgeDI9IjAiIHkxPSIxIiB5Mj0iMCI+PHN0b3Agb2Zmc2V0PSIwLjAiIHN0b3AtY29sb3I9IndoaXRlIiBzdG9wLW9wYWNpdHk9IjEiIC8+PHN0b3Agb2Zmc2V0PSIuOSIgc3RvcC1jb2xvcj0id2hpdGUiIHN0b3Atb3BhY2l0eT0iMCIgLz48L2xpbmVhckdyYWRpZW50PjxsaW5lYXJHcmFkaWVudCBpZD0iZ3JhZC1kb3duIiB4MT0iMCIgeDI9IjEiIHkxPSIwIiB5Mj0iMSI+PHN0b3Agb2Zmc2V0PSIwLjAiIHN0b3AtY29sb3I9IndoaXRlIiBzdG9wLW9wYWNpdHk9IjEiIC8+PHN0b3Agb2Zmc2V0PSIwLjkiIHN0b3AtY29sb3I9IndoaXRlIiBzdG9wLW9wYWNpdHk9IjAiIC8+PC9saW5lYXJHcmFkaWVudD48bWFzayBpZD0iZmFkZS11cCIgbWFza0NvbnRlbnRVbml0cz0ib2JqZWN0Qm91bmRpbmdCb3giPjxyZWN0IHdpZHRoPSIxIiBoZWlnaHQ9IjEiIGZpbGw9InVybCgjZ3JhZC11cCkiIC8+PC9tYXNrPjxtYXNrIGlkPSJmYWRlLWRvd24iIG1hc2tDb250ZW50VW5pdHM9Im9iamVjdEJvdW5kaW5nQm94Ij48cmVjdCB3aWR0aD0iMSIgaGVpZ2h0PSIxIiBmaWxsPSJ1cmwoI2dyYWQtZG93bikiIC8+PC9tYXNrPjxtYXNrIGlkPSJub25lIiBtYXNrQ29udGVudFVuaXRzPSJvYmplY3RCb3VuZGluZ0JveCI+PHJlY3Qgd2lkdGg9IjEiIGhlaWdodD0iMSIgZmlsbD0id2hpdGUiIC8+PC9tYXNrPjxsaW5lYXJHcmFkaWVudCBpZD0iZ3JhZC1zeW1ib2wiPjxzdG9wIG9mZnNldD0iMC43IiBzdG9wLWNvbG9yPSJ3aGl0ZSIgc3RvcC1vcGFjaXR5PSIxIiAvPjxzdG9wIG9mZnNldD0iLjk1IiBzdG9wLWNvbG9yPSJ3aGl0ZSIgc3RvcC1vcGFjaXR5PSIwIiAvPjwvbGluZWFyR3JhZGllbnQ+PG1hc2sgaWQ9ImZhZGUtc3ltYm9sIiBtYXNrQ29udGVudFVuaXRzPSJ1c2VyU3BhY2VPblVzZSI+PHJlY3Qgd2lkdGg9IjI5MHB4IiBoZWlnaHQ9IjIwMHB4IiBmaWxsPSJ1cmwoI2dyYWQtc3ltYm9sKSIgLz48L21hc2s+PC9kZWZzPjxnIGNsaXAtcGF0aD0idXJsKCNjb3JuZXJzKSI+PHJlY3QgZmlsbD0iMGIyYzYzIiB4PSIwcHgiIHk9IjBweCIgd2lkdGg9IjI5MHB4IiBoZWlnaHQ9IjUwMHB4IiAvPjxyZWN0IHN0eWxlPSJmaWx0ZXI6IHVybCgjZjEpIiB4PSIwcHgiIHk9IjBweCIgd2lkdGg9IjI5MHB4IiBoZWlnaHQ9IjUwMHB4IiAvPiA8ZyBzdHlsZT0iZmlsdGVyOnVybCgjdG9wLXJlZ2lvbi1ibHVyKTsgdHJhbnNmb3JtOnNjYWxlKDEuNSk7IHRyYW5zZm9ybS1vcmlnaW46Y2VudGVyIHRvcDsiPjxyZWN0IGZpbGw9Im5vbmUiIHg9IjBweCIgeT0iMHB4IiB3aWR0aD0iMjkwcHgiIGhlaWdodD0iNTAwcHgiIC8+PGVsbGlwc2UgY3g9IjUwJSIgY3k9IjBweCIgcng9IjE4MHB4IiByeT0iMTIwcHgiIGZpbGw9IiMwMDAiIG9wYWNpdHk9IjAuODUiIC8+PC9nPjxyZWN0IHg9IjAiIHk9IjAiIHdpZHRoPSIyOTAiIGhlaWdodD0iNTAwIiByeD0iNDIiIHJ5PSI0MiIgZmlsbD0icmdiYSgwLDAsMCwwKSIgc3Ryb2tlPSJyZ2JhKDI1NSwyNTUsMjU1LDAuMikiIC8+PC9nPjx0ZXh0IHRleHQtcmVuZGVyaW5nPSJvcHRpbWl6ZVNwZWVkIj48dGV4dFBhdGggc3RhcnRPZmZzZXQ9Ii0xMDAlIiBmaWxsPSJ3aGl0ZSIgZm9udC1mYW1pbHk9IidDb3VyaWVyIE5ldycsIG1vbm9zcGFjZSIgZm9udC1zaXplPSIxMHB4IiB4bGluazpocmVmPSIjdGV4dC1wYXRoLWEiPjB4NDIwMDAwMDAwMDAwMDAwMDAwMDAwMDAwMDAwMDAwMDAwMDAwMDAwNiDigKIgV0VUSCA8YW5pbWF0ZSBhZGRpdGl2ZT0ic3VtIiBhdHRyaWJ1dGVOYW1lPSJzdGFydE9mZnNldCIgZnJvbT0iMCUiIHRvPSIxMDAlIiBiZWdpbj0iMHMiIGR1cj0iMzBzIiByZXBlYXRDb3VudD0iaW5kZWZpbml0ZSIgLz48L3RleHRQYXRoPiA8dGV4dFBhdGggc3RhcnRPZmZzZXQ9IjAlIiBmaWxsPSJ3aGl0ZSIgZm9udC1mYW1pbHk9IidDb3VyaWVyIE5ldycsIG1vbm9zcGFjZSIgZm9udC1zaXplPSIxMHB4IiB4bGluazpocmVmPSIjdGV4dC1wYXRoLWEiPjB4NDIwMDAwMDAwMDAwMDAwMDAwMDAwMDAwMDAwMDAwMDAwMDAwMDAwNiDigKIgV0VUSCA8YW5pbWF0ZSBhZGRpdGl2ZT0ic3VtIiBhdHRyaWJ1dGVOYW1lPSJzdGFydE9mZnNldCIgZnJvbT0iMCUiIHRvPSIxMDAlIiBiZWdpbj0iMHMiIGR1cj0iMzBzIiByZXBlYXRDb3VudD0iaW5kZWZpbml0ZSIgLz4gPC90ZXh0UGF0aD48dGV4dFBhdGggc3RhcnRPZmZzZXQ9IjUwJSIgZmlsbD0id2hpdGUiIGZvbnQtZmFtaWx5PSInQ291cmllciBOZXcnLCBtb25vc3BhY2UiIGZvbnQtc2l6ZT0iMTBweCIgeGxpbms6aHJlZj0iI3RleHQtcGF0aC1hIj4weDBiMmM2MzljNTMzODEzZjRhYTlkNzgzN2NhZjYyNjUzZDA5N2ZmODUg4oCiIFVTREMgPGFuaW1hdGUgYWRkaXRpdmU9InN1bSIgYXR0cmlidXRlTmFtZT0ic3RhcnRPZmZzZXQiIGZyb209IjAlIiB0bz0iMTAwJSIgYmVnaW49IjBzIiBkdXI9IjMwcyIgcmVwZWF0Q291bnQ9ImluZGVmaW5pdGUiIC8+PC90ZXh0UGF0aD48dGV4dFBhdGggc3RhcnRPZmZzZXQ9Ii01MCUiIGZpbGw9IndoaXRlIiBmb250LWZhbWlseT0iJ0NvdXJpZXIgTmV3JywgbW9ub3NwYWNlIiBmb250LXNpemU9IjEwcHgiIHhsaW5rOmhyZWY9IiN0ZXh0LXBhdGgtYSI+MHgwYjJjNjM5YzUzMzgxM2Y0YWE5ZDc4MzdjYWY2MjY1M2QwOTdmZjg1IOKAoiBVU0RDIDxhbmltYXRlIGFkZGl0aXZlPSJzdW0iIGF0dHJpYnV0ZU5hbWU9InN0YXJ0T2Zmc2V0IiBmcm9tPSIwJSIgdG89IjEwMCUiIGJlZ2luPSIwcyIgZHVyPSIzMHMiIHJlcGVhdENvdW50PSJpbmRlZmluaXRlIiAvPjwvdGV4dFBhdGg+PC90ZXh0PjxnIG1hc2s9InVybCgjZmFkZS1zeW1ib2wpIj48cmVjdCBmaWxsPSJub25lIiB4PSIwcHgiIHk9IjBweCIgd2lkdGg9IjI5MHB4IiBoZWlnaHQ9IjIwMHB4IiAvPiA8dGV4dCB5PSI3MHB4IiB4PSIzMnB4IiBmaWxsPSJ3aGl0ZSIgZm9udC1mYW1pbHk9IidDb3VyaWVyIE5ldycsIG1vbm9zcGFjZSIgZm9udC13ZWlnaHQ9IjIwMCIgZm9udC1zaXplPSIzNnB4Ij5VU0RDL1dFVEg8L3RleHQ+PHRleHQgeT0iMTE1cHgiIHg9IjMycHgiIGZpbGw9IndoaXRlIiBmb250LWZhbWlseT0iJ0NvdXJpZXIgTmV3JywgbW9ub3NwYWNlIiBmb250LXdlaWdodD0iMjAwIiBmb250LXNpemU9IjM2cHgiPjAuMyU8L3RleHQ+PC9nPjxyZWN0IHg9IjE2IiB5PSIxNiIgd2lkdGg9IjI1OCIgaGVpZ2h0PSI0NjgiIHJ4PSIyNiIgcnk9IjI2IiBmaWxsPSJyZ2JhKDAsMCwwLDApIiBzdHJva2U9InJnYmEoMjU1LDI1NSwyNTUsMC4yKSIgLz48ZyBtYXNrPSJ1cmwoI2ZhZGUtdXApIiBzdHlsZT0idHJhbnNmb3JtOnRyYW5zbGF0ZSg3MnB4LDE4OXB4KSI+PHJlY3QgeD0iLTE2cHgiIHk9Ii0xNnB4IiB3aWR0aD0iMTgwcHgiIGhlaWdodD0iMTgwcHgiIGZpbGw9Im5vbmUiIC8+PHBhdGggZD0iTTEgMUMyNSA2NSA4MSAxMjEgMTQ1IDE0NSIgc3Ryb2tlPSJyZ2JhKDAsMCwwLDAuMykiIHN0cm9rZS13aWR0aD0iMzJweCIgZmlsbD0ibm9uZSIgc3Ryb2tlLWxpbmVjYXA9InJvdW5kIiAvPjwvZz48ZyBtYXNrPSJ1cmwoI2ZhZGUtdXApIiBzdHlsZT0idHJhbnNmb3JtOnRyYW5zbGF0ZSg3MnB4LDE4OXB4KSI+PHJlY3QgeD0iLTE2cHgiIHk9Ii0xNnB4IiB3aWR0aD0iMTgwcHgiIGhlaWdodD0iMTgwcHgiIGZpbGw9Im5vbmUiIC8+PHBhdGggZD0iTTEgMUMyNSA2NSA4MSAxMjEgMTQ1IDE0NSIgc3Ryb2tlPSJyZ2JhKDI1NSwyNTUsMjU1LDEpIiBmaWxsPSJub25lIiBzdHJva2UtbGluZWNhcD0icm91bmQiIC8+PC9nPjxjaXJjbGUgY3g9IjIxN3B4IiBjeT0iMzM0cHgiIHI9IjRweCIgZmlsbD0id2hpdGUiIC8+PGNpcmNsZSBjeD0iMjE3cHgiIGN5PSIzMzRweCIgcj0iMjRweCIgZmlsbD0ibm9uZSIgc3Ryb2tlPSJ3aGl0ZSIgLz4gPGcgc3R5bGU9InRyYW5zZm9ybTp0cmFuc2xhdGUoMjlweCwgMzg0cHgpIj48cmVjdCB3aWR0aD0iOThweCIgaGVpZ2h0PSIyNnB4IiByeD0iOHB4IiByeT0iOHB4IiBmaWxsPSJyZ2JhKDAsMCwwLDAuNikiIC8+PHRleHQgeD0iMTJweCIgeT0iMTdweCIgZm9udC1mYW1pbHk9IidDb3VyaWVyIE5ldycsIG1vbm9zcGFjZSIgZm9udC1zaXplPSIxMnB4IiBmaWxsPSJ3aGl0ZSI+PHRzcGFuIGZpbGw9InJnYmEoMjU1LDI1NSwyNTUsMC42KSI+SUQ6IDwvdHNwYW4+NzI0MjYwPC90ZXh0PjwvZz4gPGcgc3R5bGU9InRyYW5zZm9ybTp0cmFuc2xhdGUoMjlweCwgNDE0cHgpIj48cmVjdCB3aWR0aD0iMTQwcHgiIGhlaWdodD0iMjZweCIgcng9IjhweCIgcnk9IjhweCIgZmlsbD0icmdiYSgwLDAsMCwwLjYpIiAvPjx0ZXh0IHg9IjEycHgiIHk9IjE3cHgiIGZvbnQtZmFtaWx5PSInQ291cmllciBOZXcnLCBtb25vc3BhY2UiIGZvbnQtc2l6ZT0iMTJweCIgZmlsbD0id2hpdGUiPjx0c3BhbiBmaWxsPSJyZ2JhKDI1NSwyNTUsMjU1LDAuNikiPk1pbiBUaWNrOiA8L3RzcGFuPjE5Mzc0MDwvdGV4dD48L2c+IDxnIHN0eWxlPSJ0cmFuc2Zvcm06dHJhbnNsYXRlKDI5cHgsIDQ0NHB4KSI+PHJlY3Qgd2lkdGg9IjE0MHB4IiBoZWlnaHQ9IjI2cHgiIHJ4PSI4cHgiIHJ5PSI4cHgiIGZpbGw9InJnYmEoMCwwLDAsMC42KSIgLz48dGV4dCB4PSIxMnB4IiB5PSIxN3B4IiBmb250LWZhbWlseT0iJ0NvdXJpZXIgTmV3JywgbW9ub3NwYWNlIiBmb250LXNpemU9IjEycHgiIGZpbGw9IndoaXRlIj48dHNwYW4gZmlsbD0icmdiYSgyNTUsMjU1LDI1NSwwLjYpIj5NYXggVGljazogPC90c3Bhbj4xOTQ4MjA8L3RleHQ+PC9nPjxnIHN0eWxlPSJ0cmFuc2Zvcm06dHJhbnNsYXRlKDIyNnB4LCA0MzNweCkiPjxyZWN0IHdpZHRoPSIzNnB4IiBoZWlnaHQ9IjM2cHgiIHJ4PSI4cHgiIHJ5PSI4cHgiIGZpbGw9Im5vbmUiIHN0cm9rZT0icmdiYSgyNTUsMjU1LDI1NSwwLjIpIiAvPjxwYXRoIHN0cm9rZS1saW5lY2FwPSJyb3VuZCIgZD0iTTggOUM4LjAwMDA0IDIyLjk0OTQgMTYuMjA5OSAyOCAyNyAyOCIgZmlsbD0ibm9uZSIgc3Ryb2tlPSJ3aGl0ZSIgLz48Y2lyY2xlIHN0eWxlPSJ0cmFuc2Zvcm06dHJhbnNsYXRlM2QoMjRweCwgMjdweCwgMHB4KSIgY3g9IjBweCIgY3k9IjBweCIgcj0iNHB4IiBmaWxsPSJ3aGl0ZSIvPjwvZz48L3N2Zz4=\",\"name\":\"Uniswap
        - 0.3% - USDC/WETH - 3463.4<>3858.3\"},\"owner\":null,\"thumbnails\":null,\"token\":{\"address_hash\":\"0xC36442b4a4522E871399CD717aBDD847Ab11FE88\",\"circulating_market_cap\":null,\"decimals\":null,\"exchange_rate\":null,\"holders_count\":\"163289\",\"icon_url\":null,\"name\":\"Uniswap
        V3 Positions NFT-V1\",\"reputation\":\"ok\",\"symbol\":\"UNI-V3-POS\",\"total_supply\":\"959592\",\"type\":\"ERC-721\",\"volume_24h\":null}}},\"transaction_hash\":\"0x6d11b151d37310d148ca9177b436bad7f5caea7bb41591acf7b2d11466088d80\",\"type\":\"token_transfer\"},{\"block_hash\":\"0x324b2e7715df8e62cd54bbb2f92ccda318ef835a434077f5349be532629bfac9\",\"block_number\":126758816,\"from\":{\"ens_domain_name\":null,\"hash\":\"0xc1738D90E2E26C35784A0d3E3d8A9f795074bcA4\",\"implementations\":[],\"is_contract\":true,\"is_scam\":false,\"is_verified\":true,\"metadata\":null,\"name\":\"UniswapV3Pool\",\"private_tags\":[],\"proxy_type\":null,\"public_tags\":[],\"reputation\":\"ok\",\"watchlist_names\":[]},\"log_index\":282,\"method\":null,\"timestamp\":null,\"to\":{\"ens_domain_name\":null,\"hash\":\"0x410b72CcfeAcBB20a31785eDAA358D25a07e143D\",\"implementations\":[],\"is_contract\":true,\"is_scam\":false,\"is_verified\":true,\"metadata\":{\"tags\":[{\"meta\":{\"tooltipUrl\":\"https://krystal.app/\"},\"name\":\"Krystal:
        V3 Utils\",\"ordinal\":10,\"slug\":\"krystal-v3-utils\",\"tagType\":\"name\"},{\"meta\":{\"appActionButtonText\":\"Krystal\",\"appID\":\"krystal\"},\"name\":\"Krystal\",\"ordinal\":0,\"slug\":\"krystal\",\"tagType\":\"protocol\"}]},\"name\":\"V3Utils\",\"private_tags\":[],\"proxy_type\":null,\"public_tags\":[],\"reputation\":\"ok\",\"watchlist_names\":[]},\"token\":{\"address_hash\":\"0x4200000000000000000000000000000000000006\",\"circulating_market_cap\":\"41513889.123153545\",\"decimals\":\"18\",\"exchange_rate\":\"2070.75\",\"holders_count\":\"300454\",\"icon_url\":\"https://assets.coingecko.com/coins/images/39715/small/WETH.PNG?1723731805\",\"name\":\"L2
        Standard Bridged WETH (Optimism)\",\"reputation\":\"ok\",\"symbol\":\"WETH\",\"total_supply\":\"20105201188761574306410\",\"type\":\"ERC-20\",\"volume_24h\":\"28065001.154418793\"},\"token_type\":\"ERC-20\",\"total\":{\"decimals\":\"18\",\"value\":\"13168861883336306\"},\"transaction_hash\":\"0x6d11b151d37310d148ca9177b436bad7f5caea7bb41591acf7b2d11466088d80\",\"type\":\"token_transfer\"},{\"block_hash\":\"0x324b2e7715df8e62cd54bbb2f92ccda318ef835a434077f5349be532629bfac9\",\"block_number\":126758816,\"from\":{\"ens_domain_name\":null,\"hash\":\"0x410b72CcfeAcBB20a31785eDAA358D25a07e143D\",\"implementations\":[],\"is_contract\":true,\"is_scam\":false,\"is_verified\":true,\"metadata\":{\"tags\":[{\"meta\":{\"tooltipUrl\":\"https://krystal.app/\"},\"name\":\"Krystal:
        V3 Utils\",\"ordinal\":10,\"slug\":\"krystal-v3-utils\",\"tagType\":\"name\"},{\"meta\":{\"appActionButtonText\":\"Krystal\",\"appID\":\"krystal\"},\"name\":\"Krystal\",\"ordinal\":0,\"slug\":\"krystal\",\"tagType\":\"protocol\"}]},\"name\":\"V3Utils\",\"private_tags\":[],\"proxy_type\":null,\"public_tags\":[],\"reputation\":\"ok\",\"watchlist_names\":[]},\"log_index\":285,\"method\":null,\"timestamp\":null,\"to\":{\"ens_domain_name\":null,\"hash\":\"0x8C4f68B691BDc29deCe2c4e569a6Cff3f042676f\",\"implementations\":[],\"is_contract\":false,\"is_scam\":false,\"is_verified\":false,\"metadata\":null,\"name\":null,\"private_tags\":[],\"proxy_type\":null,\"public_tags\":[],\"reputation\":\"ok\",\"watchlist_names\":[]},\"token\":{\"address_hash\":\"0x4200000000000000000000000000000000000006\",\"circulating_market_cap\":\"41513889.123153545\",\"decimals\":\"18\",\"exchange_rate\":\"2070.75\",\"holders_count\":\"300454\",\"icon_url\":\"https://assets.coingecko.com/coins/images/39715/small/WETH.PNG?1723731805\",\"name\":\"L2
        Standard Bridged WETH (Optimism)\",\"reputation\":\"ok\",\"symbol\":\"WETH\",\"total_supply\":\"20105201188761574306410\",\"type\":\"ERC-20\",\"volume_24h\":\"28065001.154418793\"},\"token_type\":\"ERC-20\",\"total\":{\"decimals\":\"18\",\"value\":\"13168861883336\"},\"transaction_hash\":\"0x6d11b151d37310d148ca9177b436bad7f5caea7bb41591acf7b2d11466088d80\",\"type\":\"token_transfer\"},{\"block_hash\":\"0x324b2e7715df8e62cd54bbb2f92ccda318ef835a434077f5349be532629bfac9\",\"block_number\":126758816,\"from\":{\"ens_domain_name\":null,\"hash\":\"0x410b72CcfeAcBB20a31785eDAA358D25a07e143D\",\"implementations\":[],\"is_contract\":true,\"is_scam\":false,\"is_verified\":true,\"metadata\":{\"tags\":[{\"meta\":{\"tooltipUrl\":\"https://krystal.app/\"},\"name\":\"Krystal:
        V3 Utils\",\"ordinal\":10,\"slug\":\"krystal-v3-utils\",\"tagType\":\"name\"},{\"meta\":{\"appActionButtonText\":\"Krystal\",\"appID\":\"krystal\"},\"name\":\"Krystal\",\"ordinal\":0,\"slug\":\"krystal\",\"tagType\":\"protocol\"}]},\"name\":\"V3Utils\",\"private_tags\":[],\"proxy_type\":null,\"public_tags\":[],\"reputation\":\"ok\",\"watchlist_names\":[]},\"log_index\":287,\"method\":null,\"timestamp\":null,\"to\":{\"ens_domain_name\":null,\"hash\":\"0x0000000000000000000000000000000000000000\",\"implementations\":[],\"is_contract\":false,\"is_scam\":false,\"is_verified\":false,\"metadata\":{\"tags\":[{\"meta\":{},\"name\":\"Null:
        0x000...000\",\"ordinal\":10,\"slug\":\"null-0x000000\",\"tagType\":\"name\"},{\"meta\":{},\"name\":\"Metamask
        User\",\"ordinal\":0,\"slug\":\"metamask-user\",\"tagType\":\"generic\"},{\"meta\":{},\"name\":\"Imtoken
        User\",\"ordinal\":0,\"slug\":\"imtoken-user\",\"tagType\":\"generic\"},{\"meta\":{},\"name\":\"Miner\",\"ordinal\":0,\"slug\":\"miner\",\"tagType\":\"generic\"},{\"meta\":{},\"name\":\"Burn\",\"ordinal\":0,\"slug\":\"burn\",\"tagType\":\"generic\"},{\"meta\":{\"alertStatus\":\"info\",\"data\":\"This
        address is commonly used by projects to burn tokens (reducing total supply)
        or mint tokens (increasing total supply).\"},\"name\":\"note_0\",\"ordinal\":0,\"slug\":\"note0\",\"tagType\":\"note\"},{\"meta\":{},\"name\":\"Null\",\"ordinal\":0,\"slug\":\"null\",\"tagType\":\"protocol\"}]},\"name\":null,\"private_tags\":[],\"proxy_type\":null,\"public_tags\":[],\"reputation\":\"ok\",\"watchlist_names\":[]},\"token\":{\"address_hash\":\"0x4200000000000000000000000000000000000006\",\"circulating_market_cap\":\"41513889.123153545\",\"decimals\":\"18\",\"exchange_rate\":\"2070.75\",\"holders_count\":\"300454\",\"icon_url\":\"https://assets.coingecko.com/coins/images/39715/small/WETH.PNG?1723731805\",\"name\":\"L2
        Standard Bridged WETH (Optimism)\",\"reputation\":\"ok\",\"symbol\":\"WETH\",\"total_supply\":\"20105201188761574306410\",\"type\":\"ERC-20\",\"volume_24h\":\"28065001.154418793\"},\"token_type\":\"ERC-20\",\"total\":{\"decimals\":\"18\",\"value\":\"13155693021452970\"},\"transaction_hash\":\"0x6d11b151d37310d148ca9177b436bad7f5caea7bb41591acf7b2d11466088d80\",\"type\":\"token_burning\"},{\"block_hash\":\"0x324b2e7715df8e62cd54bbb2f92ccda318ef835a434077f5349be532629bfac9\",\"block_number\":126758816,\"from\":{\"ens_domain_name\":null,\"hash\":\"0x410b72CcfeAcBB20a31785eDAA358D25a07e143D\",\"implementations\":[],\"is_contract\":true,\"is_scam\":false,\"is_verified\":true,\"metadata\":{\"tags\":[{\"meta\":{\"tooltipUrl\":\"https://krystal.app/\"},\"name\":\"Krystal:
        V3 Utils\",\"ordinal\":10,\"slug\":\"krystal-v3-utils\",\"tagType\":\"name\"},{\"meta\":{\"appActionButtonText\":\"Krystal\",\"appID\":\"krystal\"},\"name\":\"Krystal\",\"ordinal\":0,\"slug\":\"krystal\",\"tagType\":\"protocol\"}]},\"name\":\"V3Utils\",\"private_tags\":[],\"proxy_type\":null,\"public_tags\":[],\"reputation\":\"ok\",\"watchlist_names\":[]},\"log_index\":290,\"method\":null,\"timestamp\":null,\"to\":{\"ens_domain_name\":\"javxq.eth\",\"hash\":\"0x706A70067BE19BdadBea3600Db0626859Ff25D74\",\"implementations\":[],\"is_contract\":false,\"is_scam\":false,\"is_verified\":false,\"metadata\":null,\"name\":null,\"private_tags\":[],\"proxy_type\":null,\"public_tags\":[],\"reputation\":\"ok\",\"watchlist_names\":[]},\"token\":{\"address_hash\":\"0xC36442b4a4522E871399CD717aBDD847Ab11FE88\",\"circulating_market_cap\":null,\"decimals\":null,\"exchange_rate\":null,\"holders_count\":\"163289\",\"icon_url\":null,\"name\":\"Uniswap
        V3 Positions NFT-V1\",\"reputation\":\"ok\",\"symbol\":\"UNI-V3-POS\",\"total_supply\":\"959592\",\"type\":\"ERC-721\",\"volume_24h\":null},\"token_type\":\"ERC-721\",\"total\":{\"token_id\":\"724260\",\"token_instance\":{\"animation_url\":null,\"external_app_url\":null,\"id\":\"724260\",\"image_url\":\"data:image/svg+xml;base64,PHN2ZyB3aWR0aD0iMjkwIiBoZWlnaHQ9IjUwMCIgdmlld0JveD0iMCAwIDI5MCA1MDAiIHhtbG5zPSJodHRwOi8vd3d3LnczLm9yZy8yMDAwL3N2ZyIgeG1sbnM6eGxpbms9J2h0dHA6Ly93d3cudzMub3JnLzE5OTkveGxpbmsnPjxkZWZzPjxmaWx0ZXIgaWQ9ImYxIj48ZmVJbWFnZSByZXN1bHQ9InAwIiB4bGluazpocmVmPSJkYXRhOmltYWdlL3N2Zyt4bWw7YmFzZTY0LFBITjJaeUIzYVdSMGFEMG5Namt3SnlCb1pXbG5hSFE5SnpVd01DY2dkbWxsZDBKdmVEMG5NQ0F3SURJNU1DQTFNREFuSUhodGJHNXpQU2RvZEhSd09pOHZkM2QzTG5jekxtOXlaeTh5TURBd0wzTjJaeWMrUEhKbFkzUWdkMmxrZEdnOUp6STVNSEI0SnlCb1pXbG5hSFE5SnpVd01IQjRKeUJtYVd4c1BTY2pNR0l5WXpZekp5OCtQQzl6ZG1jKyIvPjxmZUltYWdlIHJlc3VsdD0icDEiIHhsaW5rOmhyZWY9ImRhdGE6aW1hZ2Uvc3ZnK3htbDtiYXNlNjQsUEhOMlp5QjNhV1IwYUQwbk1qa3dKeUJvWldsbmFIUTlKelV3TUNjZ2RtbGxkMEp2ZUQwbk1DQXdJREk1TUNBMU1EQW5JSGh0Ykc1elBTZG9kSFJ3T2k4dmQzZDNMbmN6TG05eVp5OHlNREF3TDNOMlp5YytQR05wY21Oc1pTQmplRDBuTVRVeUp5QmplVDBuTVRBd0p5QnlQU2N4TWpCd2VDY2dabWxzYkQwbkl6UXlNREF3TUNjdlBqd3ZjM1puUGc9PSIvPjxmZUltYWdlIHJlc3VsdD0icDIiIHhsaW5rOmhyZWY9ImRhdGE6aW1hZ2Uvc3ZnK3htbDtiYXNlNjQsUEhOMlp5QjNhV1IwYUQwbk1qa3dKeUJvWldsbmFIUTlKelV3TUNjZ2RtbGxkMEp2ZUQwbk1DQXdJREk1TUNBMU1EQW5JSGh0Ykc1elBTZG9kSFJ3T2k4dmQzZDNMbmN6TG05eVp5OHlNREF3TDNOMlp5YytQR05wY21Oc1pTQmplRDBuTVRVeUp5QmplVDBuTVRBd0p5QnlQU2N4TWpCd2VDY2dabWxzYkQwbkl6azNabVk0TlNjdlBqd3ZjM1puUGc9PSIgLz48ZmVJbWFnZSByZXN1bHQ9InAzIiB4bGluazpocmVmPSJkYXRhOmltYWdlL3N2Zyt4bWw7YmFzZTY0LFBITjJaeUIzYVdSMGFEMG5Namt3SnlCb1pXbG5hSFE5SnpVd01DY2dkbWxsZDBKdmVEMG5NQ0F3SURJNU1DQTFNREFuSUhodGJHNXpQU2RvZEhSd09pOHZkM2QzTG5jekxtOXlaeTh5TURBd0wzTjJaeWMrUEdOcGNtTnNaU0JqZUQwbk1qUXpKeUJqZVQwbk1UQXdKeUJ5UFNjeE1EQndlQ2NnWm1sc2JEMG5JekF3TURBd05pY3ZQand2YzNablBnPT0iIC8+PGZlQmxlbmQgbW9kZT0ib3ZlcmxheSIgaW49InAwIiBpbjI9InAxIiAvPjxmZUJsZW5kIG1vZGU9ImV4Y2x1c2lvbiIgaW4yPSJwMiIgLz48ZmVCbGVuZCBtb2RlPSJvdmVybGF5IiBpbjI9InAzIiByZXN1bHQ9ImJsZW5kT3V0IiAvPjxmZUdhdXNzaWFuQmx1ciBpbj0iYmxlbmRPdXQiIHN0ZERldmlhdGlvbj0iNDIiIC8+PC9maWx0ZXI+IDxjbGlwUGF0aCBpZD0iY29ybmVycyI+PHJlY3Qgd2lkdGg9IjI5MCIgaGVpZ2h0PSI1MDAiIHJ4PSI0MiIgcnk9IjQyIiAvPjwvY2xpcFBhdGg+PHBhdGggaWQ9InRleHQtcGF0aC1hIiBkPSJNNDAgMTIgSDI1MCBBMjggMjggMCAwIDEgMjc4IDQwIFY0NjAgQTI4IDI4IDAgMCAxIDI1MCA0ODggSDQwIEEyOCAyOCAwIDAgMSAxMiA0NjAgVjQwIEEyOCAyOCAwIDAgMSA0MCAxMiB6IiAvPjxwYXRoIGlkPSJtaW5pbWFwIiBkPSJNMjM0IDQ0NEMyMzQgNDU3Ljk0OSAyNDIuMjEgNDYzIDI1MyA0NjMiIC8+PGZpbHRlciBpZD0idG9wLXJlZ2lvbi1ibHVyIj48ZmVHYXVzc2lhbkJsdXIgaW49IlNvdXJjZUdyYXBoaWMiIHN0ZERldmlhdGlvbj0iMjQiIC8+PC9maWx0ZXI+PGxpbmVhckdyYWRpZW50IGlkPSJncmFkLXVwIiB4MT0iMSIgeDI9IjAiIHkxPSIxIiB5Mj0iMCI+PHN0b3Agb2Zmc2V0PSIwLjAiIHN0b3AtY29sb3I9IndoaXRlIiBzdG9wLW9wYWNpdHk9IjEiIC8+PHN0b3Agb2Zmc2V0PSIuOSIgc3RvcC1jb2xvcj0id2hpdGUiIHN0b3Atb3BhY2l0eT0iMCIgLz48L2xpbmVhckdyYWRpZW50PjxsaW5lYXJHcmFkaWVudCBpZD0iZ3JhZC1kb3duIiB4MT0iMCIgeDI9IjEiIHkxPSIwIiB5Mj0iMSI+PHN0b3Agb2Zmc2V0PSIwLjAiIHN0b3AtY29sb3I9IndoaXRlIiBzdG9wLW9wYWNpdHk9IjEiIC8+PHN0b3Agb2Zmc2V0PSIwLjkiIHN0b3AtY29sb3I9IndoaXRlIiBzdG9wLW9wYWNpdHk9IjAiIC8+PC9saW5lYXJHcmFkaWVudD48bWFzayBpZD0iZmFkZS11cCIgbWFza0NvbnRlbnRVbml0cz0ib2JqZWN0Qm91bmRpbmdCb3giPjxyZWN0IHdpZHRoPSIxIiBoZWlnaHQ9IjEiIGZpbGw9InVybCgjZ3JhZC11cCkiIC8+PC9tYXNrPjxtYXNrIGlkPSJmYWRlLWRvd24iIG1hc2tDb250ZW50VW5pdHM9Im9iamVjdEJvdW5kaW5nQm94Ij48cmVjdCB3aWR0aD0iMSIgaGVpZ2h0PSIxIiBmaWxsPSJ1cmwoI2dyYWQtZG93bikiIC8+PC9tYXNrPjxtYXNrIGlkPSJub25lIiBtYXNrQ29udGVudFVuaXRzPSJvYmplY3RCb3VuZGluZ0JveCI+PHJlY3Qgd2lkdGg9IjEiIGhlaWdodD0iMSIgZmlsbD0id2hpdGUiIC8+PC9tYXNrPjxsaW5lYXJHcmFkaWVudCBpZD0iZ3JhZC1zeW1ib2wiPjxzdG9wIG9mZnNldD0iMC43IiBzdG9wLWNvbG9yPSJ3aGl0ZSIgc3RvcC1vcGFjaXR5PSIxIiAvPjxzdG9wIG9mZnNldD0iLjk1IiBzdG9wLWNvbG9yPSJ3aGl0ZSIgc3RvcC1vcGFjaXR5PSIwIiAvPjwvbGluZWFyR3JhZGllbnQ+PG1hc2sgaWQ9ImZhZGUtc3ltYm9sIiBtYXNrQ29udGVudFVuaXRzPSJ1c2VyU3BhY2VPblVzZSI+PHJlY3Qgd2lkdGg9IjI5MHB4IiBoZWlnaHQ9IjIwMHB4IiBmaWxsPSJ1cmwoI2dyYWQtc3ltYm9sKSIgLz48L21hc2s+PC9kZWZzPjxnIGNsaXAtcGF0aD0idXJsKCNjb3JuZXJzKSI+PHJlY3QgZmlsbD0iMGIyYzYzIiB4PSIwcHgiIHk9IjBweCIgd2lkdGg9IjI5MHB4IiBoZWlnaHQ9IjUwMHB4IiAvPjxyZWN0IHN0eWxlPSJmaWx0ZXI6IHVybCgjZjEpIiB4PSIwcHgiIHk9IjBweCIgd2lkdGg9IjI5MHB4IiBoZWlnaHQ9IjUwMHB4IiAvPiA8ZyBzdHlsZT0iZmlsdGVyOnVybCgjdG9wLXJlZ2lvbi1ibHVyKTsgdHJhbnNmb3JtOnNjYWxlKDEuNSk7IHRyYW5zZm9ybS1vcmlnaW46Y2VudGVyIHRvcDsiPjxyZWN0IGZpbGw9Im5vbmUiIHg9IjBweCIgeT0iMHB4IiB3aWR0aD0iMjkwcHgiIGhlaWdodD0iNTAwcHgiIC8+PGVsbGlwc2UgY3g9IjUwJSIgY3k9IjBweCIgcng9IjE4MHB4IiByeT0iMTIwcHgiIGZpbGw9IiMwMDAiIG9wYWNpdHk9IjAuODUiIC8+PC9nPjxyZWN0IHg9IjAiIHk9IjAiIHdpZHRoPSIyOTAiIGhlaWdodD0iNTAwIiByeD0iNDIiIHJ5PSI0MiIgZmlsbD0icmdiYSgwLDAsMCwwKSIgc3Ryb2tlPSJyZ2JhKDI1NSwyNTUsMjU1LDAuMikiIC8+PC9nPjx0ZXh0IHRleHQtcmVuZGVyaW5nPSJvcHRpbWl6ZVNwZWVkIj48dGV4dFBhdGggc3RhcnRPZmZzZXQ9Ii0xMDAlIiBmaWxsPSJ3aGl0ZSIgZm9udC1mYW1pbHk9IidDb3VyaWVyIE5ldycsIG1vbm9zcGFjZSIgZm9udC1zaXplPSIxMHB4IiB4bGluazpocmVmPSIjdGV4dC1wYXRoLWEiPjB4NDIwMDAwMDAwMDAwMDAwMDAwMDAwMDAwMDAwMDAwMDAwMDAwMDAwNiDigKIgV0VUSCA8YW5pbWF0ZSBhZGRpdGl2ZT0ic3VtIiBhdHRyaWJ1dGVOYW1lPSJzdGFydE9mZnNldCIgZnJvbT0iMCUiIHRvPSIxMDAlIiBiZWdpbj0iMHMiIGR1cj0iMzBzIiByZXBlYXRDb3VudD0iaW5kZWZpbml0ZSIgLz48L3RleHRQYXRoPiA8dGV4dFBhdGggc3RhcnRPZmZzZXQ9IjAlIiBmaWxsPSJ3aGl0ZSIgZm9udC1mYW1pbHk9IidDb3VyaWVyIE5ldycsIG1vbm9zcGFjZSIgZm9udC1zaXplPSIxMHB4IiB4bGluazpocmVmPSIjdGV4dC1wYXRoLWEiPjB4NDIwMDAwMDAwMDAwMDAwMDAwMDAwMDAwMDAwMDAwMDAwMDAwMDAwNiDigKIgV0VUSCA8YW5pbWF0ZSBhZGRpdGl2ZT0ic3VtIiBhdHRyaWJ1dGVOYW1lPSJzdGFydE9mZnNldCIgZnJvbT0iMCUiIHRvPSIxMDAlIiBiZWdpbj0iMHMiIGR1cj0iMzBzIiByZXBlYXRDb3VudD0iaW5kZWZpbml0ZSIgLz4gPC90ZXh0UGF0aD48dGV4dFBhdGggc3RhcnRPZmZzZXQ9IjUwJSIgZmlsbD0id2hpdGUiIGZvbnQtZmFtaWx5PSInQ291cmllciBOZXcnLCBtb25vc3BhY2UiIGZvbnQtc2l6ZT0iMTBweCIgeGxpbms6aHJlZj0iI3RleHQtcGF0aC1hIj4weDBiMmM2MzljNTMzODEzZjRhYTlkNzgzN2NhZjYyNjUzZDA5N2ZmODUg4oCiIFVTREMgPGFuaW1hdGUgYWRkaXRpdmU9InN1bSIgYXR0cmlidXRlTmFtZT0ic3RhcnRPZmZzZXQiIGZyb209IjAlIiB0bz0iMTAwJSIgYmVnaW49IjBzIiBkdXI9IjMwcyIgcmVwZWF0Q291bnQ9ImluZGVmaW5pdGUiIC8+PC90ZXh0UGF0aD48dGV4dFBhdGggc3RhcnRPZmZzZXQ9Ii01MCUiIGZpbGw9IndoaXRlIiBmb250LWZhbWlseT0iJ0NvdXJpZXIgTmV3JywgbW9ub3NwYWNlIiBmb250LXNpemU9IjEwcHgiIHhsaW5rOmhyZWY9IiN0ZXh0LXBhdGgtYSI+MHgwYjJjNjM5YzUzMzgxM2Y0YWE5ZDc4MzdjYWY2MjY1M2QwOTdmZjg1IOKAoiBVU0RDIDxhbmltYXRlIGFkZGl0aXZlPSJzdW0iIGF0dHJpYnV0ZU5hbWU9InN0YXJ0T2Zmc2V0IiBmcm9tPSIwJSIgdG89IjEwMCUiIGJlZ2luPSIwcyIgZHVyPSIzMHMiIHJlcGVhdENvdW50PSJpbmRlZmluaXRlIiAvPjwvdGV4dFBhdGg+PC90ZXh0PjxnIG1hc2s9InVybCgjZmFkZS1zeW1ib2wpIj48cmVjdCBmaWxsPSJub25lIiB4PSIwcHgiIHk9IjBweCIgd2lkdGg9IjI5MHB4IiBoZWlnaHQ9IjIwMHB4IiAvPiA8dGV4dCB5PSI3MHB4IiB4PSIzMnB4IiBmaWxsPSJ3aGl0ZSIgZm9udC1mYW1pbHk9IidDb3VyaWVyIE5ldycsIG1vbm9zcGFjZSIgZm9udC13ZWlnaHQ9IjIwMCIgZm9udC1zaXplPSIzNnB4Ij5VU0RDL1dFVEg8L3RleHQ+PHRleHQgeT0iMTE1cHgiIHg9IjMycHgiIGZpbGw9IndoaXRlIiBmb250LWZhbWlseT0iJ0NvdXJpZXIgTmV3JywgbW9ub3NwYWNlIiBmb250LXdlaWdodD0iMjAwIiBmb250LXNpemU9IjM2cHgiPjAuMyU8L3RleHQ+PC9nPjxyZWN0IHg9IjE2IiB5PSIxNiIgd2lkdGg9IjI1OCIgaGVpZ2h0PSI0NjgiIHJ4PSIyNiIgcnk9IjI2IiBmaWxsPSJyZ2JhKDAsMCwwLDApIiBzdHJva2U9InJnYmEoMjU1LDI1NSwyNTUsMC4yKSIgLz48ZyBtYXNrPSJ1cmwoI2ZhZGUtdXApIiBzdHlsZT0idHJhbnNmb3JtOnRyYW5zbGF0ZSg3MnB4LDE4OXB4KSI+PHJlY3QgeD0iLTE2cHgiIHk9Ii0xNnB4IiB3aWR0aD0iMTgwcHgiIGhlaWdodD0iMTgwcHgiIGZpbGw9Im5vbmUiIC8+PHBhdGggZD0iTTEgMUMyNSA2NSA4MSAxMjEgMTQ1IDE0NSIgc3Ryb2tlPSJyZ2JhKDAsMCwwLDAuMykiIHN0cm9rZS13aWR0aD0iMzJweCIgZmlsbD0ibm9uZSIgc3Ryb2tlLWxpbmVjYXA9InJvdW5kIiAvPjwvZz48ZyBtYXNrPSJ1cmwoI2ZhZGUtdXApIiBzdHlsZT0idHJhbnNmb3JtOnRyYW5zbGF0ZSg3MnB4LDE4OXB4KSI+PHJlY3QgeD0iLTE2cHgiIHk9Ii0xNnB4IiB3aWR0aD0iMTgwcHgiIGhlaWdodD0iMTgwcHgiIGZpbGw9Im5vbmUiIC8+PHBhdGggZD0iTTEgMUMyNSA2NSA4MSAxMjEgMTQ1IDE0NSIgc3Ryb2tlPSJyZ2JhKDI1NSwyNTUsMjU1LDEpIiBmaWxsPSJub25lIiBzdHJva2UtbGluZWNhcD0icm91bmQiIC8+PC9nPjxjaXJjbGUgY3g9IjIxN3B4IiBjeT0iMzM0cHgiIHI9IjRweCIgZmlsbD0id2hpdGUiIC8+PGNpcmNsZSBjeD0iMjE3cHgiIGN5PSIzMzRweCIgcj0iMjRweCIgZmlsbD0ibm9uZSIgc3Ryb2tlPSJ3aGl0ZSIgLz4gPGcgc3R5bGU9InRyYW5zZm9ybTp0cmFuc2xhdGUoMjlweCwgMzg0cHgpIj48cmVjdCB3aWR0aD0iOThweCIgaGVpZ2h0PSIyNnB4IiByeD0iOHB4IiByeT0iOHB4IiBmaWxsPSJyZ2JhKDAsMCwwLDAuNikiIC8+PHRleHQgeD0iMTJweCIgeT0iMTdweCIgZm9udC1mYW1pbHk9IidDb3VyaWVyIE5ldycsIG1vbm9zcGFjZSIgZm9udC1zaXplPSIxMnB4IiBmaWxsPSJ3aGl0ZSI+PHRzcGFuIGZpbGw9InJnYmEoMjU1LDI1NSwyNTUsMC42KSI+SUQ6IDwvdHNwYW4+NzI0MjYwPC90ZXh0PjwvZz4gPGcgc3R5bGU9InRyYW5zZm9ybTp0cmFuc2xhdGUoMjlweCwgNDE0cHgpIj48cmVjdCB3aWR0aD0iMTQwcHgiIGhlaWdodD0iMjZweCIgcng9IjhweCIgcnk9IjhweCIgZmlsbD0icmdiYSgwLDAsMCwwLjYpIiAvPjx0ZXh0IHg9IjEycHgiIHk9IjE3cHgiIGZvbnQtZmFtaWx5PSInQ291cmllciBOZXcnLCBtb25vc3BhY2UiIGZvbnQtc2l6ZT0iMTJweCIgZmlsbD0id2hpdGUiPjx0c3BhbiBmaWxsPSJyZ2JhKDI1NSwyNTUsMjU1LDAuNikiPk1pbiBUaWNrOiA8L3RzcGFuPjE5Mzc0MDwvdGV4dD48L2c+IDxnIHN0eWxlPSJ0cmFuc2Zvcm06dHJhbnNsYXRlKDI5cHgsIDQ0NHB4KSI+PHJlY3Qgd2lkdGg9IjE0MHB4IiBoZWlnaHQ9IjI2cHgiIHJ4PSI4cHgiIHJ5PSI4cHgiIGZpbGw9InJnYmEoMCwwLDAsMC42KSIgLz48dGV4dCB4PSIxMnB4IiB5PSIxN3B4IiBmb250LWZhbWlseT0iJ0NvdXJpZXIgTmV3JywgbW9ub3NwYWNlIiBmb250LXNpemU9IjEycHgiIGZpbGw9IndoaXRlIj48dHNwYW4gZmlsbD0icmdiYSgyNTUsMjU1LDI1NSwwLjYpIj5NYXggVGljazogPC90c3Bhbj4xOTQ4MjA8L3RleHQ+PC9nPjxnIHN0eWxlPSJ0cmFuc2Zvcm06dHJhbnNsYXRlKDIyNnB4LCA0MzNweCkiPjxyZWN0IHdpZHRoPSIzNnB4IiBoZWlnaHQ9IjM2cHgiIHJ4PSI4cHgiIHJ5PSI4cHgiIGZpbGw9Im5vbmUiIHN0cm9rZT0icmdiYSgyNTUsMjU1LDI1NSwwLjIpIiAvPjxwYXRoIHN0cm9rZS1saW5lY2FwPSJyb3VuZCIgZD0iTTggOUM4LjAwMDA0IDIyLjk0OTQgMTYuMjA5OSAyOCAyNyAyOCIgZmlsbD0ibm9uZSIgc3Ryb2tlPSJ3aGl0ZSIgLz48Y2lyY2xlIHN0eWxlPSJ0cmFuc2Zvcm06dHJhbnNsYXRlM2QoMjRweCwgMjdweCwgMHB4KSIgY3g9IjBweCIgY3k9IjBweCIgcj0iNHB4IiBmaWxsPSJ3aGl0ZSIvPjwvZz48L3N2Zz4=\",\"is_unique\":null,\"media_type\":null,\"media_url\":\"data:image/svg+xml;base64,PHN2ZyB3aWR0aD0iMjkwIiBoZWlnaHQ9IjUwMCIgdmlld0JveD0iMCAwIDI5MCA1MDAiIHhtbG5zPSJodHRwOi8vd3d3LnczLm9yZy8yMDAwL3N2ZyIgeG1sbnM6eGxpbms9J2h0dHA6Ly93d3cudzMub3JnLzE5OTkveGxpbmsnPjxkZWZzPjxmaWx0ZXIgaWQ9ImYxIj48ZmVJbWFnZSByZXN1bHQ9InAwIiB4bGluazpocmVmPSJkYXRhOmltYWdlL3N2Zyt4bWw7YmFzZTY0LFBITjJaeUIzYVdSMGFEMG5Namt3SnlCb1pXbG5hSFE5SnpVd01DY2dkbWxsZDBKdmVEMG5NQ0F3SURJNU1DQTFNREFuSUhodGJHNXpQU2RvZEhSd09pOHZkM2QzTG5jekxtOXlaeTh5TURBd0wzTjJaeWMrUEhKbFkzUWdkMmxrZEdnOUp6STVNSEI0SnlCb1pXbG5hSFE5SnpVd01IQjRKeUJtYVd4c1BTY2pNR0l5WXpZekp5OCtQQzl6ZG1jKyIvPjxmZUltYWdlIHJlc3VsdD0icDEiIHhsaW5rOmhyZWY9ImRhdGE6aW1hZ2Uvc3ZnK3htbDtiYXNlNjQsUEhOMlp5QjNhV1IwYUQwbk1qa3dKeUJvWldsbmFIUTlKelV3TUNjZ2RtbGxkMEp2ZUQwbk1DQXdJREk1TUNBMU1EQW5JSGh0Ykc1elBTZG9kSFJ3T2k4dmQzZDNMbmN6TG05eVp5OHlNREF3TDNOMlp5YytQR05wY21Oc1pTQmplRDBuTVRVeUp5QmplVDBuTVRBd0p5QnlQU2N4TWpCd2VDY2dabWxzYkQwbkl6UXlNREF3TUNjdlBqd3ZjM1puUGc9PSIvPjxmZUltYWdlIHJlc3VsdD0icDIiIHhsaW5rOmhyZWY9ImRhdGE6aW1hZ2Uvc3ZnK3htbDtiYXNlNjQsUEhOMlp5QjNhV1IwYUQwbk1qa3dKeUJvWldsbmFIUTlKelV3TUNjZ2RtbGxkMEp2ZUQwbk1DQXdJREk1TUNBMU1EQW5JSGh0Ykc1elBTZG9kSFJ3T2k4dmQzZDNMbmN6TG05eVp5OHlNREF3TDNOMlp5YytQR05wY21Oc1pTQmplRDBuTVRVeUp5QmplVDBuTVRBd0p5QnlQU2N4TWpCd2VDY2dabWxzYkQwbkl6azNabVk0TlNjdlBqd3ZjM1puUGc9PSIgLz48ZmVJbWFnZSByZXN1bHQ9InAzIiB4bGluazpocmVmPSJkYXRhOmltYWdlL3N2Zyt4bWw7YmFzZTY0LFBITjJaeUIzYVdSMGFEMG5Namt3SnlCb1pXbG5hSFE5SnpVd01DY2dkbWxsZDBKdmVEMG5NQ0F3SURJNU1DQTFNREFuSUhodGJHNXpQU2RvZEhSd09pOHZkM2QzTG5jekxtOXlaeTh5TURBd0wzTjJaeWMrUEdOcGNtTnNaU0JqZUQwbk1qUXpKeUJqZVQwbk1UQXdKeUJ5UFNjeE1EQndlQ2NnWm1sc2JEMG5JekF3TURBd05pY3ZQand2YzNablBnPT0iIC8+PGZlQmxlbmQgbW9kZT0ib3ZlcmxheSIgaW49InAwIiBpbjI9InAxIiAvPjxmZUJsZW5kIG1vZGU9ImV4Y2x1c2lvbiIgaW4yPSJwMiIgLz48ZmVCbGVuZCBtb2RlPSJvdmVybGF5IiBpbjI9InAzIiByZXN1bHQ9ImJsZW5kT3V0IiAvPjxmZUdhdXNzaWFuQmx1ciBpbj0iYmxlbmRPdXQiIHN0ZERldmlhdGlvbj0iNDIiIC8+PC9maWx0ZXI+IDxjbGlwUGF0aCBpZD0iY29ybmVycyI+PHJlY3Qgd2lkdGg9IjI5MCIgaGVpZ2h0PSI1MDAiIHJ4PSI0MiIgcnk9IjQyIiAvPjwvY2xpcFBhdGg+PHBhdGggaWQ9InRleHQtcGF0aC1hIiBkPSJNNDAgMTIgSDI1MCBBMjggMjggMCAwIDEgMjc4IDQwIFY0NjAgQTI4IDI4IDAgMCAxIDI1MCA0ODggSDQwIEEyOCAyOCAwIDAgMSAxMiA0NjAgVjQwIEEyOCAyOCAwIDAgMSA0MCAxMiB6IiAvPjxwYXRoIGlkPSJtaW5pbWFwIiBkPSJNMjM0IDQ0NEMyMzQgNDU3Ljk0OSAyNDIuMjEgNDYzIDI1MyA0NjMiIC8+PGZpbHRlciBpZD0idG9wLXJlZ2lvbi1ibHVyIj48ZmVHYXVzc2lhbkJsdXIgaW49IlNvdXJjZUdyYXBoaWMiIHN0ZERldmlhdGlvbj0iMjQiIC8+PC9maWx0ZXI+PGxpbmVhckdyYWRpZW50IGlkPSJncmFkLXVwIiB4MT0iMSIgeDI9IjAiIHkxPSIxIiB5Mj0iMCI+PHN0b3Agb2Zmc2V0PSIwLjAiIHN0b3AtY29sb3I9IndoaXRlIiBzdG9wLW9wYWNpdHk9IjEiIC8+PHN0b3Agb2Zmc2V0PSIuOSIgc3RvcC1jb2xvcj0id2hpdGUiIHN0b3Atb3BhY2l0eT0iMCIgLz48L2xpbmVhckdyYWRpZW50PjxsaW5lYXJHcmFkaWVudCBpZD0iZ3JhZC1kb3duIiB4MT0iMCIgeDI9IjEiIHkxPSIwIiB5Mj0iMSI+PHN0b3Agb2Zmc2V0PSIwLjAiIHN0b3AtY29sb3I9IndoaXRlIiBzdG9wLW9wYWNpdHk9IjEiIC8+PHN0b3Agb2Zmc2V0PSIwLjkiIHN0b3AtY29sb3I9IndoaXRlIiBzdG9wLW9wYWNpdHk9IjAiIC8+PC9saW5lYXJHcmFkaWVudD48bWFzayBpZD0iZmFkZS11cCIgbWFza0NvbnRlbnRVbml0cz0ib2JqZWN0Qm91bmRpbmdCb3giPjxyZWN0IHdpZHRoPSIxIiBoZWlnaHQ9IjEiIGZpbGw9InVybCgjZ3JhZC11cCkiIC8+PC9tYXNrPjxtYXNrIGlkPSJmYWRlLWRvd24iIG1hc2tDb250ZW50VW5pdHM9Im9iamVjdEJvdW5kaW5nQm94Ij48cmVjdCB3aWR0aD0iMSIgaGVpZ2h0PSIxIiBmaWxsPSJ1cmwoI2dyYWQtZG93bikiIC8+PC9tYXNrPjxtYXNrIGlkPSJub25lIiBtYXNrQ29udGVudFVuaXRzPSJvYmplY3RCb3VuZGluZ0JveCI+PHJlY3Qgd2lkdGg9IjEiIGhlaWdodD0iMSIgZmlsbD0id2hpdGUiIC8+PC9tYXNrPjxsaW5lYXJHcmFkaWVudCBpZD0iZ3JhZC1zeW1ib2wiPjxzdG9wIG9mZnNldD0iMC43IiBzdG9wLWNvbG9yPSJ3aGl0ZSIgc3RvcC1vcGFjaXR5PSIxIiAvPjxzdG9wIG9mZnNldD0iLjk1IiBzdG9wLWNvbG9yPSJ3aGl0ZSIgc3RvcC1vcGFjaXR5PSIwIiAvPjwvbGluZWFyR3JhZGllbnQ+PG1hc2sgaWQ9ImZhZGUtc3ltYm9sIiBtYXNrQ29udGVudFVuaXRzPSJ1c2VyU3BhY2VPblVzZSI+PHJlY3Qgd2lkdGg9IjI5MHB4IiBoZWlnaHQ9IjIwMHB4IiBmaWxsPSJ1cmwoI2dyYWQtc3ltYm9sKSIgLz48L21hc2s+PC9kZWZzPjxnIGNsaXAtcGF0aD0idXJsKCNjb3JuZXJzKSI+PHJlY3QgZmlsbD0iMGIyYzYzIiB4PSIwcHgiIHk9IjBweCIgd2lkdGg9IjI5MHB4IiBoZWlnaHQ9IjUwMHB4IiAvPjxyZWN0IHN0eWxlPSJmaWx0ZXI6IHVybCgjZjEpIiB4PSIwcHgiIHk9IjBweCIgd2lkdGg9IjI5MHB4IiBoZWlnaHQ9IjUwMHB4IiAvPiA8ZyBzdHlsZT0iZmlsdGVyOnVybCgjdG9wLXJlZ2lvbi1ibHVyKTsgdHJhbnNmb3JtOnNjYWxlKDEuNSk7IHRyYW5zZm9ybS1vcmlnaW46Y2VudGVyIHRvcDsiPjxyZWN0IGZpbGw9Im5vbmUiIHg9IjBweCIgeT0iMHB4IiB3aWR0aD0iMjkwcHgiIGhlaWdodD0iNTAwcHgiIC8+PGVsbGlwc2UgY3g9IjUwJSIgY3k9IjBweCIgcng9IjE4MHB4IiByeT0iMTIwcHgiIGZpbGw9IiMwMDAiIG9wYWNpdHk9IjAuODUiIC8+PC9nPjxyZWN0IHg9IjAiIHk9IjAiIHdpZHRoPSIyOTAiIGhlaWdodD0iNTAwIiByeD0iNDIiIHJ5PSI0MiIgZmlsbD0icmdiYSgwLDAsMCwwKSIgc3Ryb2tlPSJyZ2JhKDI1NSwyNTUsMjU1LDAuMikiIC8+PC9nPjx0ZXh0IHRleHQtcmVuZGVyaW5nPSJvcHRpbWl6ZVNwZWVkIj48dGV4dFBhdGggc3RhcnRPZmZzZXQ9Ii0xMDAlIiBmaWxsPSJ3aGl0ZSIgZm9udC1mYW1pbHk9IidDb3VyaWVyIE5ldycsIG1vbm9zcGFjZSIgZm9udC1zaXplPSIxMHB4IiB4bGluazpocmVmPSIjdGV4dC1wYXRoLWEiPjB4NDIwMDAwMDAwMDAwMDAwMDAwMDAwMDAwMDAwMDAwMDAwMDAwMDAwNiDigKIgV0VUSCA8YW5pbWF0ZSBhZGRpdGl2ZT0ic3VtIiBhdHRyaWJ1dGVOYW1lPSJzdGFydE9mZnNldCIgZnJvbT0iMCUiIHRvPSIxMDAlIiBiZWdpbj0iMHMiIGR1cj0iMzBzIiByZXBlYXRDb3VudD0iaW5kZWZpbml0ZSIgLz48L3RleHRQYXRoPiA8dGV4dFBhdGggc3RhcnRPZmZzZXQ9IjAlIiBmaWxsPSJ3aGl0ZSIgZm9udC1mYW1pbHk9IidDb3VyaWVyIE5ldycsIG1vbm9zcGFjZSIgZm9udC1zaXplPSIxMHB4IiB4bGluazpocmVmPSIjdGV4dC1wYXRoLWEiPjB4NDIwMDAwMDAwMDAwMDAwMDAwMDAwMDAwMDAwMDAwMDAwMDAwMDAwNiDigKIgV0VUSCA8YW5pbWF0ZSBhZGRpdGl2ZT0ic3VtIiBhdHRyaWJ1dGVOYW1lPSJzdGFydE9mZnNldCIgZnJvbT0iMCUiIHRvPSIxMDAlIiBiZWdpbj0iMHMiIGR1cj0iMzBzIiByZXBlYXRDb3VudD0iaW5kZWZpbml0ZSIgLz4gPC90ZXh0UGF0aD48dGV4dFBhdGggc3RhcnRPZmZzZXQ9IjUwJSIgZmlsbD0id2hpdGUiIGZvbnQtZmFtaWx5PSInQ291cmllciBOZXcnLCBtb25vc3BhY2UiIGZvbnQtc2l6ZT0iMTBweCIgeGxpbms6aHJlZj0iI3RleHQtcGF0aC1hIj4weDBiMmM2MzljNTMzODEzZjRhYTlkNzgzN2NhZjYyNjUzZDA5N2ZmODUg4oCiIFVTREMgPGFuaW1hdGUgYWRkaXRpdmU9InN1bSIgYXR0cmlidXRlTmFtZT0ic3RhcnRPZmZzZXQiIGZyb209IjAlIiB0bz0iMTAwJSIgYmVnaW49IjBzIiBkdXI9IjMwcyIgcmVwZWF0Q291bnQ9ImluZGVmaW5pdGUiIC8+PC90ZXh0UGF0aD48dGV4dFBhdGggc3RhcnRPZmZzZXQ9Ii01MCUiIGZpbGw9IndoaXRlIiBmb250LWZhbWlseT0iJ0NvdXJpZXIgTmV3JywgbW9ub3NwYWNlIiBmb250LXNpemU9IjEwcHgiIHhsaW5rOmhyZWY9IiN0ZXh0LXBhdGgtYSI+MHgwYjJjNjM5YzUzMzgxM2Y0YWE5ZDc4MzdjYWY2MjY1M2QwOTdmZjg1IOKAoiBVU0RDIDxhbmltYXRlIGFkZGl0aXZlPSJzdW0iIGF0dHJpYnV0ZU5hbWU9InN0YXJ0T2Zmc2V0IiBmcm9tPSIwJSIgdG89IjEwMCUiIGJlZ2luPSIwcyIgZHVyPSIzMHMiIHJlcGVhdENvdW50PSJpbmRlZmluaXRlIiAvPjwvdGV4dFBhdGg+PC90ZXh0PjxnIG1hc2s9InVybCgjZmFkZS1zeW1ib2wpIj48cmVjdCBmaWxsPSJub25lIiB4PSIwcHgiIHk9IjBweCIgd2lkdGg9IjI5MHB4IiBoZWlnaHQ9IjIwMHB4IiAvPiA8dGV4dCB5PSI3MHB4IiB4PSIzMnB4IiBmaWxsPSJ3aGl0ZSIgZm9udC1mYW1pbHk9IidDb3VyaWVyIE5ldycsIG1vbm9zcGFjZSIgZm9udC13ZWlnaHQ9IjIwMCIgZm9udC1zaXplPSIzNnB4Ij5VU0RDL1dFVEg8L3RleHQ+PHRleHQgeT0iMTE1cHgiIHg9IjMycHgiIGZpbGw9IndoaXRlIiBmb250LWZhbWlseT0iJ0NvdXJpZXIgTmV3JywgbW9ub3NwYWNlIiBmb250LXdlaWdodD0iMjAwIiBmb250LXNpemU9IjM2cHgiPjAuMyU8L3RleHQ+PC9nPjxyZWN0IHg9IjE2IiB5PSIxNiIgd2lkdGg9IjI1OCIgaGVpZ2h0PSI0NjgiIHJ4PSIyNiIgcnk9IjI2IiBmaWxsPSJyZ2JhKDAsMCwwLDApIiBzdHJva2U9InJnYmEoMjU1LDI1NSwyNTUsMC4yKSIgLz48ZyBtYXNrPSJ1cmwoI2ZhZGUtdXApIiBzdHlsZT0idHJhbnNmb3JtOnRyYW5zbGF0ZSg3MnB4LDE4OXB4KSI+PHJlY3QgeD0iLTE2cHgiIHk9Ii0xNnB4IiB3aWR0aD0iMTgwcHgiIGhlaWdodD0iMTgwcHgiIGZpbGw9Im5vbmUiIC8+PHBhdGggZD0iTTEgMUMyNSA2NSA4MSAxMjEgMTQ1IDE0NSIgc3Ryb2tlPSJyZ2JhKDAsMCwwLDAuMykiIHN0cm9rZS13aWR0aD0iMzJweCIgZmlsbD0ibm9uZSIgc3Ryb2tlLWxpbmVjYXA9InJvdW5kIiAvPjwvZz48ZyBtYXNrPSJ1cmwoI2ZhZGUtdXApIiBzdHlsZT0idHJhbnNmb3JtOnRyYW5zbGF0ZSg3MnB4LDE4OXB4KSI+PHJlY3QgeD0iLTE2cHgiIHk9Ii0xNnB4IiB3aWR0aD0iMTgwcHgiIGhlaWdodD0iMTgwcHgiIGZpbGw9Im5vbmUiIC8+PHBhdGggZD0iTTEgMUMyNSA2NSA4MSAxMjEgMTQ1IDE0NSIgc3Ryb2tlPSJyZ2JhKDI1NSwyNTUsMjU1LDEpIiBmaWxsPSJub25lIiBzdHJva2UtbGluZWNhcD0icm91bmQiIC8+PC9nPjxjaXJjbGUgY3g9IjIxN3B4IiBjeT0iMzM0cHgiIHI9IjRweCIgZmlsbD0id2hpdGUiIC8+PGNpcmNsZSBjeD0iMjE3cHgiIGN5PSIzMzRweCIgcj0iMjRweCIgZmlsbD0ibm9uZSIgc3Ryb2tlPSJ3aGl0ZSIgLz4gPGcgc3R5bGU9InRyYW5zZm9ybTp0cmFuc2xhdGUoMjlweCwgMzg0cHgpIj48cmVjdCB3aWR0aD0iOThweCIgaGVpZ2h0PSIyNnB4IiByeD0iOHB4IiByeT0iOHB4IiBmaWxsPSJyZ2JhKDAsMCwwLDAuNikiIC8+PHRleHQgeD0iMTJweCIgeT0iMTdweCIgZm9udC1mYW1pbHk9IidDb3VyaWVyIE5ldycsIG1vbm9zcGFjZSIgZm9udC1zaXplPSIxMnB4IiBmaWxsPSJ3aGl0ZSI+PHRzcGFuIGZpbGw9InJnYmEoMjU1LDI1NSwyNTUsMC42KSI+SUQ6IDwvdHNwYW4+NzI0MjYwPC90ZXh0PjwvZz4gPGcgc3R5bGU9InRyYW5zZm9ybTp0cmFuc2xhdGUoMjlweCwgNDE0cHgpIj48cmVjdCB3aWR0aD0iMTQwcHgiIGhlaWdodD0iMjZweCIgcng9IjhweCIgcnk9IjhweCIgZmlsbD0icmdiYSgwLDAsMCwwLjYpIiAvPjx0ZXh0IHg9IjEycHgiIHk9IjE3cHgiIGZvbnQtZmFtaWx5PSInQ291cmllciBOZXcnLCBtb25vc3BhY2UiIGZvbnQtc2l6ZT0iMTJweCIgZmlsbD0id2hpdGUiPjx0c3BhbiBmaWxsPSJyZ2JhKDI1NSwyNTUsMjU1LDAuNikiPk1pbiBUaWNrOiA8L3RzcGFuPjE5Mzc0MDwvdGV4dD48L2c+IDxnIHN0eWxlPSJ0cmFuc2Zvcm06dHJhbnNsYXRlKDI5cHgsIDQ0NHB4KSI+PHJlY3Qgd2lkdGg9IjE0MHB4IiBoZWlnaHQ9IjI2cHgiIHJ4PSI4cHgiIHJ5PSI4cHgiIGZpbGw9InJnYmEoMCwwLDAsMC42KSIgLz48dGV4dCB4PSIxMnB4IiB5PSIxN3B4IiBmb250LWZhbWlseT0iJ0NvdXJpZXIgTmV3JywgbW9ub3NwYWNlIiBmb250LXNpemU9IjEycHgiIGZpbGw9IndoaXRlIj48dHNwYW4gZmlsbD0icmdiYSgyNTUsMjU1LDI1NSwwLjYpIj5NYXggVGljazogPC90c3Bhbj4xOTQ4MjA8L3RleHQ+PC9nPjxnIHN0eWxlPSJ0cmFuc2Zvcm06dHJhbnNsYXRlKDIyNnB4LCA0MzNweCkiPjxyZWN0IHdpZHRoPSIzNnB4IiBoZWlnaHQ9IjM2cHgiIHJ4PSI4cHgiIHJ5PSI4cHgiIGZpbGw9Im5vbmUiIHN0cm9rZT0icmdiYSgyNTUsMjU1LDI1NSwwLjIpIiAvPjxwYXRoIHN0cm9rZS1saW5lY2FwPSJyb3VuZCIgZD0iTTggOUM4LjAwMDA0IDIyLjk0OTQgMTYuMjA5OSAyOCAyNyAyOCIgZmlsbD0ibm9uZSIgc3Ryb2tlPSJ3aGl0ZSIgLz48Y2lyY2xlIHN0eWxlPSJ0cmFuc2Zvcm06dHJhbnNsYXRlM2QoMjRweCwgMjdweCwgMHB4KSIgY3g9IjBweCIgY3k9IjBweCIgcj0iNHB4IiBmaWxsPSJ3aGl0ZSIvPjwvZz48L3N2Zz4=\",\"metadata\":{\"description\":\"This
        NFT represents a liquidity position in a Uniswap V3 USDC-WETH pool. The owner
        of this NFT can modify or redeem the position.\\n\\nPool Address: 0xc1738d90e2e26c35784a0d3e3d8a9f795074bca4\\nUSDC
        Address: 0x0b2c639c533813f4aa9d7837caf62653d097ff85\\nWETH Address: 0x4200000000000000000000000000000000000006\\nFee
        Tier: 0.3%\\nToken ID: 724260\\n\\n\u26A0\uFE0F DISCLAIMER: Due diligence
        is imperative when assessing this NFT. Make sure token addresses match the
        expected tokens, as token symbols may be imitated.\",\"image\":\"data:image/svg+xml;base64,PHN2ZyB3aWR0aD0iMjkwIiBoZWlnaHQ9IjUwMCIgdmlld0JveD0iMCAwIDI5MCA1MDAiIHhtbG5zPSJodHRwOi8vd3d3LnczLm9yZy8yMDAwL3N2ZyIgeG1sbnM6eGxpbms9J2h0dHA6Ly93d3cudzMub3JnLzE5OTkveGxpbmsnPjxkZWZzPjxmaWx0ZXIgaWQ9ImYxIj48ZmVJbWFnZSByZXN1bHQ9InAwIiB4bGluazpocmVmPSJkYXRhOmltYWdlL3N2Zyt4bWw7YmFzZTY0LFBITjJaeUIzYVdSMGFEMG5Namt3SnlCb1pXbG5hSFE5SnpVd01DY2dkbWxsZDBKdmVEMG5NQ0F3SURJNU1DQTFNREFuSUhodGJHNXpQU2RvZEhSd09pOHZkM2QzTG5jekxtOXlaeTh5TURBd0wzTjJaeWMrUEhKbFkzUWdkMmxrZEdnOUp6STVNSEI0SnlCb1pXbG5hSFE5SnpVd01IQjRKeUJtYVd4c1BTY2pNR0l5WXpZekp5OCtQQzl6ZG1jKyIvPjxmZUltYWdlIHJlc3VsdD0icDEiIHhsaW5rOmhyZWY9ImRhdGE6aW1hZ2Uvc3ZnK3htbDtiYXNlNjQsUEhOMlp5QjNhV1IwYUQwbk1qa3dKeUJvWldsbmFIUTlKelV3TUNjZ2RtbGxkMEp2ZUQwbk1DQXdJREk1TUNBMU1EQW5JSGh0Ykc1elBTZG9kSFJ3T2k4dmQzZDNMbmN6TG05eVp5OHlNREF3TDNOMlp5YytQR05wY21Oc1pTQmplRDBuTVRVeUp5QmplVDBuTVRBd0p5QnlQU2N4TWpCd2VDY2dabWxzYkQwbkl6UXlNREF3TUNjdlBqd3ZjM1puUGc9PSIvPjxmZUltYWdlIHJlc3VsdD0icDIiIHhsaW5rOmhyZWY9ImRhdGE6aW1hZ2Uvc3ZnK3htbDtiYXNlNjQsUEhOMlp5QjNhV1IwYUQwbk1qa3dKeUJvWldsbmFIUTlKelV3TUNjZ2RtbGxkMEp2ZUQwbk1DQXdJREk1TUNBMU1EQW5JSGh0Ykc1elBTZG9kSFJ3T2k4dmQzZDNMbmN6TG05eVp5OHlNREF3TDNOMlp5YytQR05wY21Oc1pTQmplRDBuTVRVeUp5QmplVDBuTVRBd0p5QnlQU2N4TWpCd2VDY2dabWxzYkQwbkl6azNabVk0TlNjdlBqd3ZjM1puUGc9PSIgLz48ZmVJbWFnZSByZXN1bHQ9InAzIiB4bGluazpocmVmPSJkYXRhOmltYWdlL3N2Zyt4bWw7YmFzZTY0LFBITjJaeUIzYVdSMGFEMG5Namt3SnlCb1pXbG5hSFE5SnpVd01DY2dkbWxsZDBKdmVEMG5NQ0F3SURJNU1DQTFNREFuSUhodGJHNXpQU2RvZEhSd09pOHZkM2QzTG5jekxtOXlaeTh5TURBd0wzTjJaeWMrUEdOcGNtTnNaU0JqZUQwbk1qUXpKeUJqZVQwbk1UQXdKeUJ5UFNjeE1EQndlQ2NnWm1sc2JEMG5JekF3TURBd05pY3ZQand2YzNablBnPT0iIC8+PGZlQmxlbmQgbW9kZT0ib3ZlcmxheSIgaW49InAwIiBpbjI9InAxIiAvPjxmZUJsZW5kIG1vZGU9ImV4Y2x1c2lvbiIgaW4yPSJwMiIgLz48ZmVCbGVuZCBtb2RlPSJvdmVybGF5IiBpbjI9InAzIiByZXN1bHQ9ImJsZW5kT3V0IiAvPjxmZUdhdXNzaWFuQmx1ciBpbj0iYmxlbmRPdXQiIHN0ZERldmlhdGlvbj0iNDIiIC8+PC9maWx0ZXI+IDxjbGlwUGF0aCBpZD0iY29ybmVycyI+PHJlY3Qgd2lkdGg9IjI5MCIgaGVpZ2h0PSI1MDAiIHJ4PSI0MiIgcnk9IjQyIiAvPjwvY2xpcFBhdGg+PHBhdGggaWQ9InRleHQtcGF0aC1hIiBkPSJNNDAgMTIgSDI1MCBBMjggMjggMCAwIDEgMjc4IDQwIFY0NjAgQTI4IDI4IDAgMCAxIDI1MCA0ODggSDQwIEEyOCAyOCAwIDAgMSAxMiA0NjAgVjQwIEEyOCAyOCAwIDAgMSA0MCAxMiB6IiAvPjxwYXRoIGlkPSJtaW5pbWFwIiBkPSJNMjM0IDQ0NEMyMzQgNDU3Ljk0OSAyNDIuMjEgNDYzIDI1MyA0NjMiIC8+PGZpbHRlciBpZD0idG9wLXJlZ2lvbi1ibHVyIj48ZmVHYXVzc2lhbkJsdXIgaW49IlNvdXJjZUdyYXBoaWMiIHN0ZERldmlhdGlvbj0iMjQiIC8+PC9maWx0ZXI+PGxpbmVhckdyYWRpZW50IGlkPSJncmFkLXVwIiB4MT0iMSIgeDI9IjAiIHkxPSIxIiB5Mj0iMCI+PHN0b3Agb2Zmc2V0PSIwLjAiIHN0b3AtY29sb3I9IndoaXRlIiBzdG9wLW9wYWNpdHk9IjEiIC8+PHN0b3Agb2Zmc2V0PSIuOSIgc3RvcC1jb2xvcj0id2hpdGUiIHN0b3Atb3BhY2l0eT0iMCIgLz48L2xpbmVhckdyYWRpZW50PjxsaW5lYXJHcmFkaWVudCBpZD0iZ3JhZC1kb3duIiB4MT0iMCIgeDI9IjEiIHkxPSIwIiB5Mj0iMSI+PHN0b3Agb2Zmc2V0PSIwLjAiIHN0b3AtY29sb3I9IndoaXRlIiBzdG9wLW9wYWNpdHk9IjEiIC8+PHN0b3Agb2Zmc2V0PSIwLjkiIHN0b3AtY29sb3I9IndoaXRlIiBzdG9wLW9wYWNpdHk9IjAiIC8+PC9saW5lYXJHcmFkaWVudD48bWFzayBpZD0iZmFkZS11cCIgbWFza0NvbnRlbnRVbml0cz0ib2JqZWN0Qm91bmRpbmdCb3giPjxyZWN0IHdpZHRoPSIxIiBoZWlnaHQ9IjEiIGZpbGw9InVybCgjZ3JhZC11cCkiIC8+PC9tYXNrPjxtYXNrIGlkPSJmYWRlLWRvd24iIG1hc2tDb250ZW50VW5pdHM9Im9iamVjdEJvdW5kaW5nQm94Ij48cmVjdCB3aWR0aD0iMSIgaGVpZ2h0PSIxIiBmaWxsPSJ1cmwoI2dyYWQtZG93bikiIC8+PC9tYXNrPjxtYXNrIGlkPSJub25lIiBtYXNrQ29udGVudFVuaXRzPSJvYmplY3RCb3VuZGluZ0JveCI+PHJlY3Qgd2lkdGg9IjEiIGhlaWdodD0iMSIgZmlsbD0id2hpdGUiIC8+PC9tYXNrPjxsaW5lYXJHcmFkaWVudCBpZD0iZ3JhZC1zeW1ib2wiPjxzdG9wIG9mZnNldD0iMC43IiBzdG9wLWNvbG9yPSJ3aGl0ZSIgc3RvcC1vcGFjaXR5PSIxIiAvPjxzdG9wIG9mZnNldD0iLjk1IiBzdG9wLWNvbG9yPSJ3aGl0ZSIgc3RvcC1vcGFjaXR5PSIwIiAvPjwvbGluZWFyR3JhZGllbnQ+PG1hc2sgaWQ9ImZhZGUtc3ltYm9sIiBtYXNrQ29udGVudFVuaXRzPSJ1c2VyU3BhY2VPblVzZSI+PHJlY3Qgd2lkdGg9IjI5MHB4IiBoZWlnaHQ9IjIwMHB4IiBmaWxsPSJ1cmwoI2dyYWQtc3ltYm9sKSIgLz48L21hc2s+PC9kZWZzPjxnIGNsaXAtcGF0aD0idXJsKCNjb3JuZXJzKSI+PHJlY3QgZmlsbD0iMGIyYzYzIiB4PSIwcHgiIHk9IjBweCIgd2lkdGg9IjI5MHB4IiBoZWlnaHQ9IjUwMHB4IiAvPjxyZWN0IHN0eWxlPSJmaWx0ZXI6IHVybCgjZjEpIiB4PSIwcHgiIHk9IjBweCIgd2lkdGg9IjI5MHB4IiBoZWlnaHQ9IjUwMHB4IiAvPiA8ZyBzdHlsZT0iZmlsdGVyOnVybCgjdG9wLXJlZ2lvbi1ibHVyKTsgdHJhbnNmb3JtOnNjYWxlKDEuNSk7IHRyYW5zZm9ybS1vcmlnaW46Y2VudGVyIHRvcDsiPjxyZWN0IGZpbGw9Im5vbmUiIHg9IjBweCIgeT0iMHB4IiB3aWR0aD0iMjkwcHgiIGhlaWdodD0iNTAwcHgiIC8+PGVsbGlwc2UgY3g9IjUwJSIgY3k9IjBweCIgcng9IjE4MHB4IiByeT0iMTIwcHgiIGZpbGw9IiMwMDAiIG9wYWNpdHk9IjAuODUiIC8+PC9nPjxyZWN0IHg9IjAiIHk9IjAiIHdpZHRoPSIyOTAiIGhlaWdodD0iNTAwIiByeD0iNDIiIHJ5PSI0MiIgZmlsbD0icmdiYSgwLDAsMCwwKSIgc3Ryb2tlPSJyZ2JhKDI1NSwyNTUsMjU1LDAuMikiIC8+PC9nPjx0ZXh0IHRleHQtcmVuZGVyaW5nPSJvcHRpbWl6ZVNwZWVkIj48dGV4dFBhdGggc3RhcnRPZmZzZXQ9Ii0xMDAlIiBmaWxsPSJ3aGl0ZSIgZm9udC1mYW1pbHk9IidDb3VyaWVyIE5ldycsIG1vbm9zcGFjZSIgZm9udC1zaXplPSIxMHB4IiB4bGluazpocmVmPSIjdGV4dC1wYXRoLWEiPjB4NDIwMDAwMDAwMDAwMDAwMDAwMDAwMDAwMDAwMDAwMDAwMDAwMDAwNiDigKIgV0VUSCA8YW5pbWF0ZSBhZGRpdGl2ZT0ic3VtIiBhdHRyaWJ1dGVOYW1lPSJzdGFydE9mZnNldCIgZnJvbT0iMCUiIHRvPSIxMDAlIiBiZWdpbj0iMHMiIGR1cj0iMzBzIiByZXBlYXRDb3VudD0iaW5kZWZpbml0ZSIgLz48L3RleHRQYXRoPiA8dGV4dFBhdGggc3RhcnRPZmZzZXQ9IjAlIiBmaWxsPSJ3aGl0ZSIgZm9udC1mYW1pbHk9IidDb3VyaWVyIE5ldycsIG1vbm9zcGFjZSIgZm9udC1zaXplPSIxMHB4IiB4bGluazpocmVmPSIjdGV4dC1wYXRoLWEiPjB4NDIwMDAwMDAwMDAwMDAwMDAwMDAwMDAwMDAwMDAwMDAwMDAwMDAwNiDigKIgV0VUSCA8YW5pbWF0ZSBhZGRpdGl2ZT0ic3VtIiBhdHRyaWJ1dGVOYW1lPSJzdGFydE9mZnNldCIgZnJvbT0iMCUiIHRvPSIxMDAlIiBiZWdpbj0iMHMiIGR1cj0iMzBzIiByZXBlYXRDb3VudD0iaW5kZWZpbml0ZSIgLz4gPC90ZXh0UGF0aD48dGV4dFBhdGggc3RhcnRPZmZzZXQ9IjUwJSIgZmlsbD0id2hpdGUiIGZvbnQtZmFtaWx5PSInQ291cmllciBOZXcnLCBtb25vc3BhY2UiIGZvbnQtc2l6ZT0iMTBweCIgeGxpbms6aHJlZj0iI3RleHQtcGF0aC1hIj4weDBiMmM2MzljNTMzODEzZjRhYTlkNzgzN2NhZjYyNjUzZDA5N2ZmODUg4oCiIFVTREMgPGFuaW1hdGUgYWRkaXRpdmU9InN1bSIgYXR0cmlidXRlTmFtZT0ic3RhcnRPZmZzZXQiIGZyb209IjAlIiB0bz0iMTAwJSIgYmVnaW49IjBzIiBkdXI9IjMwcyIgcmVwZWF0Q291bnQ9ImluZGVmaW5pdGUiIC8+PC90ZXh0UGF0aD48dGV4dFBhdGggc3RhcnRPZmZzZXQ9Ii01MCUiIGZpbGw9IndoaXRlIiBmb250LWZhbWlseT0iJ0NvdXJpZXIgTmV3JywgbW9ub3NwYWNlIiBmb250LXNpemU9IjEwcHgiIHhsaW5rOmhyZWY9IiN0ZXh0LXBhdGgtYSI+MHgwYjJjNjM5YzUzMzgxM2Y0YWE5ZDc4MzdjYWY2MjY1M2QwOTdmZjg1IOKAoiBVU0RDIDxhbmltYXRlIGFkZGl0aXZlPSJzdW0iIGF0dHJpYnV0ZU5hbWU9InN0YXJ0T2Zmc2V0IiBmcm9tPSIwJSIgdG89IjEwMCUiIGJlZ2luPSIwcyIgZHVyPSIzMHMiIHJlcGVhdENvdW50PSJpbmRlZmluaXRlIiAvPjwvdGV4dFBhdGg+PC90ZXh0PjxnIG1hc2s9InVybCgjZmFkZS1zeW1ib2wpIj48cmVjdCBmaWxsPSJub25lIiB4PSIwcHgiIHk9IjBweCIgd2lkdGg9IjI5MHB4IiBoZWlnaHQ9IjIwMHB4IiAvPiA8dGV4dCB5PSI3MHB4IiB4PSIzMnB4IiBmaWxsPSJ3aGl0ZSIgZm9udC1mYW1pbHk9IidDb3VyaWVyIE5ldycsIG1vbm9zcGFjZSIgZm9udC13ZWlnaHQ9IjIwMCIgZm9udC1zaXplPSIzNnB4Ij5VU0RDL1dFVEg8L3RleHQ+PHRleHQgeT0iMTE1cHgiIHg9IjMycHgiIGZpbGw9IndoaXRlIiBmb250LWZhbWlseT0iJ0NvdXJpZXIgTmV3JywgbW9ub3NwYWNlIiBmb250LXdlaWdodD0iMjAwIiBmb250LXNpemU9IjM2cHgiPjAuMyU8L3RleHQ+PC9nPjxyZWN0IHg9IjE2IiB5PSIxNiIgd2lkdGg9IjI1OCIgaGVpZ2h0PSI0NjgiIHJ4PSIyNiIgcnk9IjI2IiBmaWxsPSJyZ2JhKDAsMCwwLDApIiBzdHJva2U9InJnYmEoMjU1LDI1NSwyNTUsMC4yKSIgLz48ZyBtYXNrPSJ1cmwoI2ZhZGUtdXApIiBzdHlsZT0idHJhbnNmb3JtOnRyYW5zbGF0ZSg3MnB4LDE4OXB4KSI+PHJlY3QgeD0iLTE2cHgiIHk9Ii0xNnB4IiB3aWR0aD0iMTgwcHgiIGhlaWdodD0iMTgwcHgiIGZpbGw9Im5vbmUiIC8+PHBhdGggZD0iTTEgMUMyNSA2NSA4MSAxMjEgMTQ1IDE0NSIgc3Ryb2tlPSJyZ2JhKDAsMCwwLDAuMykiIHN0cm9rZS13aWR0aD0iMzJweCIgZmlsbD0ibm9uZSIgc3Ryb2tlLWxpbmVjYXA9InJvdW5kIiAvPjwvZz48ZyBtYXNrPSJ1cmwoI2ZhZGUtdXApIiBzdHlsZT0idHJhbnNmb3JtOnRyYW5zbGF0ZSg3MnB4LDE4OXB4KSI+PHJlY3QgeD0iLTE2cHgiIHk9Ii0xNnB4IiB3aWR0aD0iMTgwcHgiIGhlaWdodD0iMTgwcHgiIGZpbGw9Im5vbmUiIC8+PHBhdGggZD0iTTEgMUMyNSA2NSA4MSAxMjEgMTQ1IDE0NSIgc3Ryb2tlPSJyZ2JhKDI1NSwyNTUsMjU1LDEpIiBmaWxsPSJub25lIiBzdHJva2UtbGluZWNhcD0icm91bmQiIC8+PC9nPjxjaXJjbGUgY3g9IjIxN3B4IiBjeT0iMzM0cHgiIHI9IjRweCIgZmlsbD0id2hpdGUiIC8+PGNpcmNsZSBjeD0iMjE3cHgiIGN5PSIzMzRweCIgcj0iMjRweCIgZmlsbD0ibm9uZSIgc3Ryb2tlPSJ3aGl0ZSIgLz4gPGcgc3R5bGU9InRyYW5zZm9ybTp0cmFuc2xhdGUoMjlweCwgMzg0cHgpIj48cmVjdCB3aWR0aD0iOThweCIgaGVpZ2h0PSIyNnB4IiByeD0iOHB4IiByeT0iOHB4IiBmaWxsPSJyZ2JhKDAsMCwwLDAuNikiIC8+PHRleHQgeD0iMTJweCIgeT0iMTdweCIgZm9udC1mYW1pbHk9IidDb3VyaWVyIE5ldycsIG1vbm9zcGFjZSIgZm9udC1zaXplPSIxMnB4IiBmaWxsPSJ3aGl0ZSI+PHRzcGFuIGZpbGw9InJnYmEoMjU1LDI1NSwyNTUsMC42KSI+SUQ6IDwvdHNwYW4+NzI0MjYwPC90ZXh0PjwvZz4gPGcgc3R5bGU9InRyYW5zZm9ybTp0cmFuc2xhdGUoMjlweCwgNDE0cHgpIj48cmVjdCB3aWR0aD0iMTQwcHgiIGhlaWdodD0iMjZweCIgcng9IjhweCIgcnk9IjhweCIgZmlsbD0icmdiYSgwLDAsMCwwLjYpIiAvPjx0ZXh0IHg9IjEycHgiIHk9IjE3cHgiIGZvbnQtZmFtaWx5PSInQ291cmllciBOZXcnLCBtb25vc3BhY2UiIGZvbnQtc2l6ZT0iMTJweCIgZmlsbD0id2hpdGUiPjx0c3BhbiBmaWxsPSJyZ2JhKDI1NSwyNTUsMjU1LDAuNikiPk1pbiBUaWNrOiA8L3RzcGFuPjE5Mzc0MDwvdGV4dD48L2c+IDxnIHN0eWxlPSJ0cmFuc2Zvcm06dHJhbnNsYXRlKDI5cHgsIDQ0NHB4KSI+PHJlY3Qgd2lkdGg9IjE0MHB4IiBoZWlnaHQ9IjI2cHgiIHJ4PSI4cHgiIHJ5PSI4cHgiIGZpbGw9InJnYmEoMCwwLDAsMC42KSIgLz48dGV4dCB4PSIxMnB4IiB5PSIxN3B4IiBmb250LWZhbWlseT0iJ0NvdXJpZXIgTmV3JywgbW9ub3NwYWNlIiBmb250LXNpemU9IjEycHgiIGZpbGw9IndoaXRlIj48dHNwYW4gZmlsbD0icmdiYSgyNTUsMjU1LDI1NSwwLjYpIj5NYXggVGljazogPC90c3Bhbj4xOTQ4MjA8L3RleHQ+PC9nPjxnIHN0eWxlPSJ0cmFuc2Zvcm06dHJhbnNsYXRlKDIyNnB4LCA0MzNweCkiPjxyZWN0IHdpZHRoPSIzNnB4IiBoZWlnaHQ9IjM2cHgiIHJ4PSI4cHgiIHJ5PSI4cHgiIGZpbGw9Im5vbmUiIHN0cm9rZT0icmdiYSgyNTUsMjU1LDI1NSwwLjIpIiAvPjxwYXRoIHN0cm9rZS1saW5lY2FwPSJyb3VuZCIgZD0iTTggOUM4LjAwMDA0IDIyLjk0OTQgMTYuMjA5OSAyOCAyNyAyOCIgZmlsbD0ibm9uZSIgc3Ryb2tlPSJ3aGl0ZSIgLz48Y2lyY2xlIHN0eWxlPSJ0cmFuc2Zvcm06dHJhbnNsYXRlM2QoMjRweCwgMjdweCwgMHB4KSIgY3g9IjBweCIgY3k9IjBweCIgcj0iNHB4IiBmaWxsPSJ3aGl0ZSIvPjwvZz48L3N2Zz4=\",\"name\":\"Uniswap
        - 0.3% - USDC/WETH - 3463.4<>3858.3\"},\"owner\":null,\"thumbnails\":null,\"token\":{\"address_hash\":\"0xC36442b4a4522E871399CD717aBDD847Ab11FE88\",\"circulating_market_cap\":null,\"decimals\":null,\"exchange_rate\":null,\"holders_count\":\"163289\",\"icon_url\":null,\"name\":\"Uniswap
        V3 Positions NFT-V1\",\"reputation\":\"ok\",\"symbol\":\"UNI-V3-POS\",\"total_supply\":\"959592\",\"type\":\"ERC-721\",\"volume_24h\":null}}},\"transaction_hash\":\"0x6d11b151d37310d148ca9177b436bad7f5caea7bb41591acf7b2d11466088d80\",\"type\":\"token_transfer\"}],\"base_fee_per_gas\":\"57475368\",\"timestamp\":\"2024-10-16T22:06:49.000000Z\",\"nonce\":22,\"historic_exchange_rate\":\"2610.95\",\"transaction_types\":[\"contract_call\",\"token_transfer\"],\"exchange_rate\":\"2061.81\",\"block_number\":126758816,\"has_error_in_internal_transactions\":false}"
    headers:
      CF-RAY:
      - 9d7f1a746cfa7517-MAD
      Cache-Control:
      - max-age=0, private, must-revalidate
      Connection:
      - keep-alive
      Content-Type:
      - application/json; charset=utf-8
      Date:
      - Fri, 06 Mar 2026 05:54:01 GMT
      Nel:
      - '{"report_to":"cf-nel","success_fraction":0.0,"max_age":604800}'
      Report-To:
      - '{"group":"cf-nel","max_age":604800,"endpoints":[{"url":"https://a.nel.cloudflare.com/report/v4?s=VVHCuT4OaO04jnPXqRjjNU%2FWqgLbBsJdE0QJVflwRLE%2BLLJWd7tQZ8fLfoxJnSa%2B6lo2Z1dVMbbTOcemBv%2BJaG8JlTu%2BV3acxo8UEWMuv1v%2FSA%3D%3D"}]}'
      Server:
      - cloudflare
      Transfer-Encoding:
      - chunked
      access-control-allow-credentials:
      - 'true'
      access-control-allow-origin:
      - '*'
      access-control-expose-headers:
      - bypass-429-option,x-ratelimit-reset,x-ratelimit-limit,x-ratelimit-remaining,api-v2-temp-token
      alt-svc:
      - h3=":443"; ma=86400
      bypass-429-option:
      - temporary_token
      cf-cache-status:
      - DYNAMIC
      content-length:
      - '72542'
      strict-transport-security:
      - max-age=31536000; includeSubDomains
      x-ratelimit-limit:
      - '600'
      x-ratelimit-remaining:
      - '596'
      x-ratelimit-reset:
      - '58960'
      x-request-id:
      - aaf621d6db7000e08bc00b6124dd766a
    status:
      code: 200
      message: OK
- request:
    body: null
    headers:
      Accept:
      - '*/*'
      Accept-Encoding:
      - gzip, deflate
      Connection:
      - keep-alive
      User-Agent:
      - rotki/1.42.1.dev85+g21cbca5056.d20260305
    method: GET
    uri: https://explorer.optimism.io/api?action=txlistinternal&address=0x706A70067BE19BdadBea3600Db0626859Ff25D74&endblock=126759111&module=account&sort=asc&startblock=126758611
  response:
    body:
      string: '{"message":"OK","result":[{"blockNumber":"126758782","callType":"call","contractAddress":"","errCode":"","from":"0xc36442b4a4522e871399cd717abdd847ab11fe88","gas":"34124","gasUsed":"0","index":"12","input":"0x","isError":"0","timeStamp":"1729116341","to":"0x706a70067be19bdadbea3600db0626859ff25d74","transactionHash":"0x24cf6c88c9645cb5e92596488206319c39a0a1c4e2829a83c690df8f11cb80b6","type":"call","value":"288112954210517"},{"blockNumber":"126758816","callType":"call","contractAddress":"","errCode":"","from":"0x410b72ccfeacbb20a31785edaa358d25a07e143d","gas":"119766","gasUsed":"0","index":"13","input":"0x","isError":"0","timeStamp":"1729116409","to":"0x706a70067be19bdadbea3600db0626859ff25d74","transactionHash":"0x6d11b151d37310d148ca9177b436bad7f5caea7bb41591acf7b2d11466088d80","type":"call","value":"13155693021452970"}],"status":"1"}'
    headers:
      CF-RAY:
      - 9d7f1a7b8af4f783-MAD
      Cache-Control:
      - max-age=0, private, must-revalidate
      Connection:
      - keep-alive
      Content-Type:
      - application/json; charset=utf-8
      Date:
      - Fri, 06 Mar 2026 05:54:02 GMT
      Nel:
      - '{"report_to":"cf-nel","success_fraction":0.0,"max_age":604800}'
      Report-To:
      - '{"group":"cf-nel","max_age":604800,"endpoints":[{"url":"https://a.nel.cloudflare.com/report/v4?s=3u5BPVFOLB%2BJKvJn95iZNkNlbsE2LAwqMZLjRmhJ4K27kBAWvDjoc%2BuU3t04Y2owbHwa%2FvvxrpX%2BpasVEIAF6fRPchY6mKT10LE3r9T0b%2BfPBw%3D%3D"}]}'
      Server:
      - cloudflare
      Transfer-Encoding:
      - chunked
      access-control-allow-credentials:
      - 'true'
      access-control-allow-origin:
      - '*'
      access-control-expose-headers:
      - bypass-429-option,x-ratelimit-reset,x-ratelimit-limit,x-ratelimit-remaining,api-v2-temp-token
      alt-svc:
      - h3=":443"; ma=86400
      bypass-429-option:
      - no_bypass
      cf-cache-status:
      - DYNAMIC
      content-length:
      - '847'
      strict-transport-security:
      - max-age=31536000; includeSubDomains
      x-ratelimit-limit:
      - '600'
      x-ratelimit-remaining:
      - '595'
      x-ratelimit-reset:
      - '57817'
      x-request-id:
      - ebaf228bc0935664e8066380f9720996
    status:
      code: 200
      message: OK
- request:
    body: '{"jsonrpc": "2.0", "method": "web3_clientVersion", "params": [], "id":
      0}'
    headers:
      Accept:
      - '*/*'
      Accept-Encoding:
      - gzip, deflate
      Connection:
      - keep-alive
      Content-Length:
      - '73'
      Content-Type:
      - application/json
      User-Agent:
      - web3.py/7.14.0/web3.providers.rpc.rpc.HTTPProvider
    method: POST
    uri: https://mainnet.optimism.io/
  response:
    body:
      string: '{"jsonrpc":"2.0","result":"Geth/v1.101609.0-stable-0c840dff/linux-amd64/go1.24.13","id":0}

        '
    headers:
      Alt-Svc:
      - h3=":443"; ma=2592000,h3-29=":443"; ma=2592000
      Content-Length:
      - '91'
      Content-Type:
      - application/json
      Date:
      - Fri, 06 Mar 2026 05:54:02 GMT
      Set-Cookie:
      - lb1=bd40a79ebf64e93e; Path=/
      Vary:
      - Origin
      Via:
      - 1.1 google
      X-Proxyd-Cache-Status:
      - MISS
    status:
      code: 200
      message: OK
- request:
    body: '{"jsonrpc": "2.0", "method": "net_version", "params": [], "id": 1}'
    headers:
      Accept:
      - '*/*'
      Accept-Encoding:
      - gzip, deflate
      Connection:
      - keep-alive
      Content-Length:
      - '66'
      Content-Type:
      - application/json
      Cookie:
      - lb1=bd40a79ebf64e93e
      User-Agent:
      - web3.py/7.14.0/web3.providers.rpc.rpc.HTTPProvider
    method: POST
    uri: https://mainnet.optimism.io/
  response:
    body:
      string: '{"jsonrpc":"2.0","result":"10","id":1}

        '
    headers:
      Alt-Svc:
      - h3=":443"; ma=2592000,h3-29=":443"; ma=2592000
      Content-Length:
      - '39'
      Content-Type:
      - application/json
      Date:
      - Fri, 06 Mar 2026 05:54:02 GMT
      Vary:
      - Origin
      Via:
      - 1.1 google
      X-Proxyd-Cache-Status:
      - HIT
    status:
      code: 200
      message: OK
- request:
    body: '{"jsonrpc": "2.0", "method": "eth_blockNumber", "params": [], "id": 2}'
    headers:
      Accept:
      - '*/*'
      Accept-Encoding:
      - gzip, deflate
      Connection:
      - keep-alive
      Content-Length:
      - '70'
      Content-Type:
      - application/json
      Cookie:
      - lb1=bd40a79ebf64e93e
      User-Agent:
      - web3.py/7.14.0/web3.providers.rpc.rpc.HTTPProvider
    method: POST
    uri: https://mainnet.optimism.io/
  response:
    body:
      string: '{"jsonrpc":"2.0","result":"0x8db4920","id":2}

        '
    headers:
      Alt-Svc:
      - h3=":443"; ma=2592000,h3-29=":443"; ma=2592000
      Content-Length:
      - '46'
      Content-Type:
      - application/json
      Date:
      - Fri, 06 Mar 2026 05:54:02 GMT
      Vary:
      - Origin
      Via:
      - 1.1 google
      X-Proxyd-Cache-Status:
      - MISS
    status:
      code: 200
      message: OK
- request:
    body: '{"jsonrpc": "2.0", "method": "eth_getBalance", "params": ["0x76a05Df20bFEF5EcE3eB16afF9cb10134199A921",
      "0x12110"], "id": 3}'
    headers:
      Accept:
      - '*/*'
      Accept-Encoding:
      - gzip, deflate
      Connection:
      - keep-alive
      Content-Length:
      - '124'
      Content-Type:
      - application/json
      Cookie:
      - lb1=bd40a79ebf64e93e
      User-Agent:
      - web3.py/7.14.0/web3.providers.rpc.rpc.HTTPProvider
    method: POST
    uri: https://mainnet.optimism.io/
  response:
    body:
      string: '{"jsonrpc":"2.0","result":"0xb1a2bc2ec50000","id":3}

        '
    headers:
      Alt-Svc:
      - h3=":443"; ma=2592000,h3-29=":443"; ma=2592000
      Content-Length:
      - '53'
      Content-Type:
      - application/json
      Date:
      - Fri, 06 Mar 2026 05:54:02 GMT
      Vary:
      - Origin
      Via:
      - 1.1 google
      X-Proxyd-Cache-Status:
      - MISS
    status:
      code: 200
      message: OK
- request:
    body: '{"jsonrpc": "2.0", "method": "eth_getTransactionByHash", "params": ["0x5e77a04531c7c107af1882d76cbff9486d0a9aa53701c30888509d4f5f2b003a"],
      "id": 4}'
    headers:
      Accept:
      - '*/*'
      Accept-Encoding:
      - gzip, deflate
      Connection:
      - keep-alive
      Content-Length:
      - '147'
      Content-Type:
      - application/json
      Cookie:
      - lb1=bd40a79ebf64e93e
      User-Agent:
      - web3.py/7.14.0/web3.providers.rpc.rpc.HTTPProvider
    method: POST
    uri: https://mainnet.optimism.io/
  response:
    body:
      string: '{"jsonrpc":"2.0","result":{"blockHash":"0xbee7192e575af30420cae0c7776304ac196077ee72b048970549e4f08e875453","blockNumber":"0x1","chainId":"0xa","from":"0x70b17c0fe982ab4a7ac17a4c25485643151a1f2d","gas":"0x7a120","gasPrice":"0x1","hash":"0x5e77a04531c7c107af1882d76cbff9486d0a9aa53701c30888509d4f5f2b003a","input":"0x202ee0ed000000000000000000000000000000000000000000000000000000000001421800000000000000000000000000000000000000000000000000000000d0e3ebf0","nonce":"0x28972","r":"0xc878d22e771004beb73e7a4268fd4f447735812b94b217f6807412efcec90d61","s":"0x3588018735fb361c49e5de54b266b8b157c1ba3d6ee08e3bcbdee7cd725c16e8","to":"0x8ce8c13d816fe6daf12d6fd9e4952e1fc88850af","transactionIndex":"0x0","type":"0x0","v":"0x38","value":"0x0"},"id":4}

        '
    headers:
      Alt-Svc:
      - h3=":443"; ma=2592000,h3-29=":443"; ma=2592000
      Content-Length:
      - '740'
      Content-Type:
      - application/json
      Date:
      - Fri, 06 Mar 2026 05:54:02 GMT
      Vary:
      - Origin
      Via:
      - 1.1 google
      X-Proxyd-Cache-Status:
      - MISS
    status:
      code: 200
      message: OK
- request:
    body: '{"jsonrpc": "2.0", "method": "eth_getTransactionByHash", "params": ["0x24cf6c88c9645cb5e92596488206319c39a0a1c4e2829a83c690df8f11cb80b6"],
      "id": 5}'
    headers:
      Accept:
      - '*/*'
      Accept-Encoding:
      - gzip, deflate
      Connection:
      - keep-alive
      Content-Length:
      - '147'
      Content-Type:
      - application/json
      Cookie:
      - lb1=bd40a79ebf64e93e
      User-Agent:
      - web3.py/7.14.0/web3.providers.rpc.rpc.HTTPProvider
    method: POST
    uri: https://mainnet.optimism.io/
  response:
    body:
      string: '{"jsonrpc":"2.0","result":{"accessList":[],"blockHash":"0xea783ab34371ca857614daf1ee413b538aa447421bccd1506f50a94c6513d5d3","blockNumber":"0x78e2f7e","chainId":"0xa","from":"0x706a70067be19bdadbea3600db0626859ff25d74","gas":"0x4018c","gasPrice":"0x3543b79","hash":"0x24cf6c88c9645cb5e92596488206319c39a0a1c4e2829a83c690df8f11cb80b6","input":"0xac9650d8000000000000000000000000000000000000000000000000000000000000002000000000000000000000000000000000000000000000000000000000000000030000000000000000000000000000000000000000000000000000000000000060000000000000000000000000000000000000000000000000000000000000012000000000000000000000000000000000000000000000000000000000000001a00000000000000000000000000000000000000000000000000000000000000084fc6f786500000000000000000000000000000000000000000000000000000000000b0d24000000000000000000000000000000000000000000000000000000000000000000000000000000000000000000000000ffffffffffffffffffffffffffffffff00000000000000000000000000000000ffffffffffffffffffffffffffffffff00000000000000000000000000000000000000000000000000000000000000000000000000000000000000000000000000000000000000000000004449404b7c0000000000000000000000000000000000000000000000000000000000000000000000000000000000000000706a70067be19bdadbea3600db0626859ff25d74000000000000000000000000000000000000000000000000000000000000000000000000000000000000000000000000000000000000000000000064df2ab5bb0000000000000000000000000b2c639c533813f4aa9d7837caf62653d097ff850000000000000000000000000000000000000000000000000000000000000000000000000000000000000000706a70067be19bdadbea3600db0626859ff25d7400000000000000000000000000000000000000000000000000000000","maxFeePerGas":"0x9c4d87e","maxPriorityFeePerGas":"0xa534f","nonce":"0x15","r":"0x201d33119bd82dc777dc6abb390ba8fc67bc32051429df3fd0e3a2e90985bdc0","s":"0x6b0667552b66b0cb5ef2fef67a458924538e8b91ee12d195c0e44d87b8b51415","to":"0xc36442b4a4522e871399cd717abdd847ab11fe88","transactionIndex":"0x32","type":"0x2","v":"0x0","value":"0x0","yParity":"0x0"},"id":5}

        '
    headers:
      Alt-Svc:
      - h3=":443"; ma=2592000,h3-29=":443"; ma=2592000
      Content-Length:
      - '1993'
      Content-Type:
      - application/json
      Date:
      - Fri, 06 Mar 2026 05:54:02 GMT
      Vary:
      - Origin
      Via:
      - 1.1 google
      X-Proxyd-Cache-Status:
      - MISS
    status:
      code: 200
      message: OK
- request:
    body: '{"jsonrpc": "2.0", "method": "eth_getTransactionReceipt", "params": ["0x24cf6c88c9645cb5e92596488206319c39a0a1c4e2829a83c690df8f11cb80b6"],
      "id": 6}'
    headers:
      Accept:
      - '*/*'
      Accept-Encoding:
      - gzip, deflate
      Connection:
      - keep-alive
      Content-Length:
      - '148'
      Content-Type:
      - application/json
      Cookie:
      - lb1=bd40a79ebf64e93e
      User-Agent:
      - web3.py/7.14.0/web3.providers.rpc.rpc.HTTPProvider
    method: POST
    uri: https://mainnet.optimism.io/
  response:
    body:
      string: '{"jsonrpc":"2.0","result":{"blockHash":"0xea783ab34371ca857614daf1ee413b538aa447421bccd1506f50a94c6513d5d3","blockNumber":"0x78e2f7e","contractAddress":null,"cumulativeGasUsed":"0x957741","effectiveGasPrice":"0x3543b79","from":"0x706a70067be19bdadbea3600db0626859ff25d74","gasUsed":"0x32baa","l1BaseFeeScalar":"0x146b","l1BlobBaseFee":"0x1","l1BlobBaseFeeScalar":"0xf79c5","l1Fee":"0x26e7fd0b7a","l1GasPrice":"0x28ccdf8b0","l1GasUsed":"0xb66","logs":[{"address":"0xc1738d90e2e26c35784a0d3e3d8a9f795074bca4","blockHash":"0xea783ab34371ca857614daf1ee413b538aa447421bccd1506f50a94c6513d5d3","blockNumber":"0x78e2f7e","blockTimestamp":"0x671038b5","data":"0x000000000000000000000000000000000000000000000000000000000000000000000000000000000000000000000000000000000000000000000000000000000000000000000000000000000000000000000000000000000000000000000000","logIndex":"0x181","removed":false,"topics":["0x0c396cd989a39f4459b5fa1aed6a9a8dcdbc45908acfd67e028cd568da98982c","0x000000000000000000000000c36442b4a4522e871399cd717abdd847ab11fe88","0x000000000000000000000000000000000000000000000000000000000002f4cc","0x000000000000000000000000000000000000000000000000000000000002f904"],"transactionHash":"0x24cf6c88c9645cb5e92596488206319c39a0a1c4e2829a83c690df8f11cb80b6","transactionIndex":"0x32"},{"address":"0x0b2c639c533813f4aa9d7837caf62653d097ff85","blockHash":"0xea783ab34371ca857614daf1ee413b538aa447421bccd1506f50a94c6513d5d3","blockNumber":"0x78e2f7e","blockTimestamp":"0x671038b5","data":"0x00000000000000000000000000000000000000000000000000000000000e8e5c","logIndex":"0x182","removed":false,"topics":["0xddf252ad1be2c89b69c2b068fc378daa952ba7f163c4a11628f55a4df523b3ef","0x000000000000000000000000c1738d90e2e26c35784a0d3e3d8a9f795074bca4","0x000000000000000000000000c36442b4a4522e871399cd717abdd847ab11fe88"],"transactionHash":"0x24cf6c88c9645cb5e92596488206319c39a0a1c4e2829a83c690df8f11cb80b6","transactionIndex":"0x32"},{"address":"0x4200000000000000000000000000000000000006","blockHash":"0xea783ab34371ca857614daf1ee413b538aa447421bccd1506f50a94c6513d5d3","blockNumber":"0x78e2f7e","blockTimestamp":"0x671038b5","data":"0x00000000000000000000000000000000000000000000000000010609864a78d5","logIndex":"0x183","removed":false,"topics":["0xddf252ad1be2c89b69c2b068fc378daa952ba7f163c4a11628f55a4df523b3ef","0x000000000000000000000000c1738d90e2e26c35784a0d3e3d8a9f795074bca4","0x000000000000000000000000c36442b4a4522e871399cd717abdd847ab11fe88"],"transactionHash":"0x24cf6c88c9645cb5e92596488206319c39a0a1c4e2829a83c690df8f11cb80b6","transactionIndex":"0x32"},{"address":"0xc1738d90e2e26c35784a0d3e3d8a9f795074bca4","blockHash":"0xea783ab34371ca857614daf1ee413b538aa447421bccd1506f50a94c6513d5d3","blockNumber":"0x78e2f7e","blockTimestamp":"0x671038b5","data":"0x000000000000000000000000c36442b4a4522e871399cd717abdd847ab11fe8800000000000000000000000000000000000000000000000000000000000e8e5c00000000000000000000000000000000000000000000000000010609864a78d5","logIndex":"0x184","removed":false,"topics":["0x70935338e69775456a85ddef226c395fb668b63fa0115f5f20610b388e6ca9c0","0x000000000000000000000000c36442b4a4522e871399cd717abdd847ab11fe88","0x000000000000000000000000000000000000000000000000000000000002f4cc","0x000000000000000000000000000000000000000000000000000000000002f904"],"transactionHash":"0x24cf6c88c9645cb5e92596488206319c39a0a1c4e2829a83c690df8f11cb80b6","transactionIndex":"0x32"},{"address":"0xc36442b4a4522e871399cd717abdd847ab11fe88","blockHash":"0xea783ab34371ca857614daf1ee413b538aa447421bccd1506f50a94c6513d5d3","blockNumber":"0x78e2f7e","blockTimestamp":"0x671038b5","data":"0x000000000000000000000000c36442b4a4522e871399cd717abdd847ab11fe8800000000000000000000000000000000000000000000000000000000000e8e5c00000000000000000000000000000000000000000000000000010609864a78d5","logIndex":"0x185","removed":false,"topics":["0x40d0efd1a53d60ecbf40971b9daf7dc90178c3aadc7aab1765632738fa8b8f01","0x00000000000000000000000000000000000000000000000000000000000b0d24"],"transactionHash":"0x24cf6c88c9645cb5e92596488206319c39a0a1c4e2829a83c690df8f11cb80b6","transactionIndex":"0x32"},{"address":"0x4200000000000000000000000000000000000006","blockHash":"0xea783ab34371ca857614daf1ee413b538aa447421bccd1506f50a94c6513d5d3","blockNumber":"0x78e2f7e","blockTimestamp":"0x671038b5","data":"0x00000000000000000000000000000000000000000000000000010609864a78d5","logIndex":"0x186","removed":false,"topics":["0x7fcf532c15f0a6db0bd6d0e038bea71d30d808c7d98cb3bf7268a95bf5081b65","0x000000000000000000000000c36442b4a4522e871399cd717abdd847ab11fe88"],"transactionHash":"0x24cf6c88c9645cb5e92596488206319c39a0a1c4e2829a83c690df8f11cb80b6","transactionIndex":"0x32"},{"address":"0x0b2c639c533813f4aa9d7837caf62653d097ff85","blockHash":"0xea783ab34371ca857614daf1ee413b538aa447421bccd1506f50a94c6513d5d3","blockNumber":"0x78e2f7e","blockTimestamp":"0x671038b5","data":"0x00000000000000000000000000000000000000000000000000000000000e8e5c","logIndex":"0x187","removed":false,"topics":["0xddf252ad1be2c89b69c2b068fc378daa952ba7f163c4a11628f55a4df523b3ef","0x000000000000000000000000c36442b4a4522e871399cd717abdd847ab11fe88","0x000000000000000000000000706a70067be19bdadbea3600db0626859ff25d74"],"transactionHash":"0x24cf6c88c9645cb5e92596488206319c39a0a1c4e2829a83c690df8f11cb80b6","transactionIndex":"0x32"}],"logsBloom":"0x008020000000000000000000020000000000000c0100000000040000400010000000000000000000000000104000000000010000000000000200000000000000000000000000a00000010008000000000000000000500000004008000000000000000000100080000000000000000000000000000004040000000090000008000000000000000000000000000000000000008000002000000000000002000000000000000000000000000000000000000000000000200008000200000000000040000002000000010000000000000000000000000000400000000002000000000000080000140000000000000000000000000000040000000000000000000000","status":"0x1","to":"0xc36442b4a4522e871399cd717abdd847ab11fe88","transactionHash":"0x24cf6c88c9645cb5e92596488206319c39a0a1c4e2829a83c690df8f11cb80b6","transactionIndex":"0x32","type":"0x2"},"id":6}

        '
    headers:
      Alt-Svc:
      - h3=":443"; ma=2592000,h3-29=":443"; ma=2592000
      Content-Type:
      - application/json
      Date:
      - Fri, 06 Mar 2026 05:54:02 GMT
      Transfer-Encoding:
      - chunked
      Vary:
      - Origin
      Via:
      - 1.1 google
      X-Proxyd-Cache-Status:
      - MISS
    status:
      code: 200
      message: OK
- request:
    body: '{"jsonrpc": "2.0", "method": "eth_getTransactionByHash", "params": ["0x6d11b151d37310d148ca9177b436bad7f5caea7bb41591acf7b2d11466088d80"],
      "id": 7}'
    headers:
      Accept:
      - '*/*'
      Accept-Encoding:
      - gzip, deflate
      Connection:
      - keep-alive
      Content-Length:
      - '147'
      Content-Type:
      - application/json
      Cookie:
      - lb1=bd40a79ebf64e93e
      User-Agent:
      - web3.py/7.14.0/web3.providers.rpc.rpc.HTTPProvider
    method: POST
    uri: https://mainnet.optimism.io/
  response:
    body:
      string: '{"jsonrpc":"2.0","result":{"accessList":[],"blockHash":"0x324b2e7715df8e62cd54bbb2f92ccda318ef835a434077f5349be532629bfac9","blockNumber":"0x78e2fa0","chainId":"0xa","from":"0x706a70067be19bdadbea3600db0626859ff25d74","gas":"0x77e86","gasPrice":"0x3776ccb","hash":"0x6d11b151d37310d148ca9177b436bad7f5caea7bb41591acf7b2d11466088d80","input":"0xb88d4fde000000000000000000000000706a70067be19bdadbea3600db0626859ff25d74000000000000000000000000410b72ccfeacbb20a31785edaa358d25a07e143d00000000000000000000000000000000000000000000000000000000000b0d24000000000000000000000000000000000000000000000000000000000000008000000000000000000000000000000000000000000000000000000000000003000000000000000000000000000000000000000000000000000000000000000020000000000000000000000000000000000000000000000000000000000000000100000000000000000000000000000000000000000000000000000000000000000000000000000000000000004200000000000000000000000000000000000006000000000000000000000000000000000000000000000000000000000000000000000000000000000000000000000000000000000000000000000000000000000000000000000000000000000000000000000000000000000000000000000000000000000000000000000000000000000000000000000000000000000000000000000000000000000000000000000000000000000000000000000000000002a00000000000000000000000000000000000000000000000000000000000000000000000000000000000000000000000000000000000000000000000000000000000000000000000000000000000000000000000000000000000000000000002c000000000000000000000000000000000000000000000000000000000000000000000000000000000000000000000000000000000000000000000000000000000000000000000000000000000000000000000000000000000000000000000000100000000000000000000000000000000000000000000000000000d68b7598872000000000000000000000000000000000000000000000000000000000000000000000000000000000000000000000000000000000000000000000000000000000000000000000000000000000000000000000000000000000000000067103b43000000000000000000000000706a70067be19bdadbea3600db0626859ff25d740000000000000000000000000000000000000000000000000000000000000001000000000000000000000000000000000000000000000000004189374bc6a7f000000000000000000000000000000000000000000000000000000000000000000000000000000000000000000000000000000000000000000000000000000000","maxFeePerGas":"0xa45f2d0","maxPriorityFeePerGas":"0xa6ba3","nonce":"0x16","r":"0xaad0e4cc7f5b740b66d9d90b9f4c3b72036a8b9b17680941e8fa5312acff0fc9","s":"0x7cc2aac1491471cc9248832c8e45e03242774dfaa6a96762771fbe82490e4ecb","to":"0xc36442b4a4522e871399cd717abdd847ab11fe88","transactionIndex":"0x1f","type":"0x2","v":"0x0","value":"0x0","yParity":"0x0"},"id":7}

        '
    headers:
      Alt-Svc:
      - h3=":443"; ma=2592000,h3-29=":443"; ma=2592000
      Content-Type:
      - application/json
      Date:
      - Fri, 06 Mar 2026 05:54:02 GMT
      Transfer-Encoding:
      - chunked
      Vary:
      - Origin
      Via:
      - 1.1 google
      X-Proxyd-Cache-Status:
      - MISS
    status:
      code: 200
      message: OK
- request:
    body: '{"jsonrpc": "2.0", "method": "eth_getTransactionReceipt", "params": ["0x6d11b151d37310d148ca9177b436bad7f5caea7bb41591acf7b2d11466088d80"],
      "id": 8}'
    headers:
      Accept:
      - '*/*'
      Accept-Encoding:
      - gzip, deflate
      Connection:
      - keep-alive
      Content-Length:
      - '148'
      Content-Type:
      - application/json
      Cookie:
      - lb1=bd40a79ebf64e93e
      User-Agent:
      - web3.py/7.14.0/web3.providers.rpc.rpc.HTTPProvider
    method: POST
    uri: https://mainnet.optimism.io/
  response:
    body:
      string: '{"jsonrpc":"2.0","result":{"blockHash":"0x324b2e7715df8e62cd54bbb2f92ccda318ef835a434077f5349be532629bfac9","blockNumber":"0x78e2fa0","contractAddress":null,"cumulativeGasUsed":"0x50e591","effectiveGasPrice":"0x3776ccb","from":"0x706a70067be19bdadbea3600db0626859ff25d74","gasUsed":"0x49e74","l1BaseFeeScalar":"0x146b","l1BlobBaseFee":"0x1","l1BlobBaseFeeScalar":"0xf79c5","l1Fee":"0x2be4bd84a6","l1GasPrice":"0x2ae25d7bb","l1GasUsed":"0xc3d","logs":[{"address":"0xc36442b4a4522e871399cd717abdd847ab11fe88","blockHash":"0x324b2e7715df8e62cd54bbb2f92ccda318ef835a434077f5349be532629bfac9","blockNumber":"0x78e2fa0","blockTimestamp":"0x671038f9","data":"0x","logIndex":"0x116","removed":false,"topics":["0x8c5be1e5ebec7d5bd14f71427d1e84f3dd0314c0f7b2291e5b200ac8c7c3b925","0x000000000000000000000000706a70067be19bdadbea3600db0626859ff25d74","0x0000000000000000000000000000000000000000000000000000000000000000","0x00000000000000000000000000000000000000000000000000000000000b0d24"],"transactionHash":"0x6d11b151d37310d148ca9177b436bad7f5caea7bb41591acf7b2d11466088d80","transactionIndex":"0x1f"},{"address":"0xc36442b4a4522e871399cd717abdd847ab11fe88","blockHash":"0x324b2e7715df8e62cd54bbb2f92ccda318ef835a434077f5349be532629bfac9","blockNumber":"0x78e2fa0","blockTimestamp":"0x671038f9","data":"0x","logIndex":"0x117","removed":false,"topics":["0xddf252ad1be2c89b69c2b068fc378daa952ba7f163c4a11628f55a4df523b3ef","0x000000000000000000000000706a70067be19bdadbea3600db0626859ff25d74","0x000000000000000000000000410b72ccfeacbb20a31785edaa358d25a07e143d","0x00000000000000000000000000000000000000000000000000000000000b0d24"],"transactionHash":"0x6d11b151d37310d148ca9177b436bad7f5caea7bb41591acf7b2d11466088d80","transactionIndex":"0x1f"},{"address":"0xc1738d90e2e26c35784a0d3e3d8a9f795074bca4","blockHash":"0x324b2e7715df8e62cd54bbb2f92ccda318ef835a434077f5349be532629bfac9","blockNumber":"0x78e2fa0","blockTimestamp":"0x671038f9","data":"0x00000000000000000000000000000000000000000000000000000d68b75988720000000000000000000000000000000000000000000000000000000000000000000000000000000000000000000000000000000000000000002ec90296a70672","logIndex":"0x118","removed":false,"topics":["0x0c396cd989a39f4459b5fa1aed6a9a8dcdbc45908acfd67e028cd568da98982c","0x000000000000000000000000c36442b4a4522e871399cd717abdd847ab11fe88","0x000000000000000000000000000000000000000000000000000000000002f4cc","0x000000000000000000000000000000000000000000000000000000000002f904"],"transactionHash":"0x6d11b151d37310d148ca9177b436bad7f5caea7bb41591acf7b2d11466088d80","transactionIndex":"0x1f"},{"address":"0xc36442b4a4522e871399cd717abdd847ab11fe88","blockHash":"0x324b2e7715df8e62cd54bbb2f92ccda318ef835a434077f5349be532629bfac9","blockNumber":"0x78e2fa0","blockTimestamp":"0x671038f9","data":"0x00000000000000000000000000000000000000000000000000000d68b75988720000000000000000000000000000000000000000000000000000000000000000000000000000000000000000000000000000000000000000002ec90296a70672","logIndex":"0x119","removed":false,"topics":["0x26f6a048ee9138f2c0ce266f322cb99228e8d619ae2bff30c67f8dcf9d2377b4","0x00000000000000000000000000000000000000000000000000000000000b0d24"],"transactionHash":"0x6d11b151d37310d148ca9177b436bad7f5caea7bb41591acf7b2d11466088d80","transactionIndex":"0x1f"},{"address":"0x4200000000000000000000000000000000000006","blockHash":"0x324b2e7715df8e62cd54bbb2f92ccda318ef835a434077f5349be532629bfac9","blockNumber":"0x78e2fa0","blockTimestamp":"0x671038f9","data":"0x000000000000000000000000000000000000000000000000002ec90296a70672","logIndex":"0x11a","removed":false,"topics":["0xddf252ad1be2c89b69c2b068fc378daa952ba7f163c4a11628f55a4df523b3ef","0x000000000000000000000000c1738d90e2e26c35784a0d3e3d8a9f795074bca4","0x000000000000000000000000410b72ccfeacbb20a31785edaa358d25a07e143d"],"transactionHash":"0x6d11b151d37310d148ca9177b436bad7f5caea7bb41591acf7b2d11466088d80","transactionIndex":"0x1f"},{"address":"0xc1738d90e2e26c35784a0d3e3d8a9f795074bca4","blockHash":"0x324b2e7715df8e62cd54bbb2f92ccda318ef835a434077f5349be532629bfac9","blockNumber":"0x78e2fa0","blockTimestamp":"0x671038f9","data":"0x000000000000000000000000410b72ccfeacbb20a31785edaa358d25a07e143d0000000000000000000000000000000000000000000000000000000000000000000000000000000000000000000000000000000000000000002ec90296a70672","logIndex":"0x11b","removed":false,"topics":["0x70935338e69775456a85ddef226c395fb668b63fa0115f5f20610b388e6ca9c0","0x000000000000000000000000c36442b4a4522e871399cd717abdd847ab11fe88","0x000000000000000000000000000000000000000000000000000000000002f4cc","0x000000000000000000000000000000000000000000000000000000000002f904"],"transactionHash":"0x6d11b151d37310d148ca9177b436bad7f5caea7bb41591acf7b2d11466088d80","transactionIndex":"0x1f"},{"address":"0xc36442b4a4522e871399cd717abdd847ab11fe88","blockHash":"0x324b2e7715df8e62cd54bbb2f92ccda318ef835a434077f5349be532629bfac9","blockNumber":"0x78e2fa0","blockTimestamp":"0x671038f9","data":"0x000000000000000000000000410b72ccfeacbb20a31785edaa358d25a07e143d0000000000000000000000000000000000000000000000000000000000000000000000000000000000000000000000000000000000000000002ec90296a70672","logIndex":"0x11c","removed":false,"topics":["0x40d0efd1a53d60ecbf40971b9daf7dc90178c3aadc7aab1765632738fa8b8f01","0x00000000000000000000000000000000000000000000000000000000000b0d24"],"transactionHash":"0x6d11b151d37310d148ca9177b436bad7f5caea7bb41591acf7b2d11466088d80","transactionIndex":"0x1f"},{"address":"0x4200000000000000000000000000000000000006","blockHash":"0x324b2e7715df8e62cd54bbb2f92ccda318ef835a434077f5349be532629bfac9","blockNumber":"0x78e2fa0","blockTimestamp":"0x671038f9","data":"0x00000000000000000000000000000000000000000000000000000bfa1d55abc8","logIndex":"0x11d","removed":false,"topics":["0xddf252ad1be2c89b69c2b068fc378daa952ba7f163c4a11628f55a4df523b3ef","0x000000000000000000000000410b72ccfeacbb20a31785edaa358d25a07e143d","0x0000000000000000000000008c4f68b691bdc29dece2c4e569a6cff3f042676f"],"transactionHash":"0x6d11b151d37310d148ca9177b436bad7f5caea7bb41591acf7b2d11466088d80","transactionIndex":"0x1f"},{"address":"0x410b72ccfeacbb20a31785edaa358d25a07e143d","blockHash":"0x324b2e7715df8e62cd54bbb2f92ccda318ef835a434077f5349be532629bfac9","blockNumber":"0x78e2fa0","blockTimestamp":"0x671038f9","data":"0x0000000000000000000000000b2c639c533813f4aa9d7837caf62653d097ff85000000000000000000000000420000000000000000000000000000000000000600000000000000000000000000000000000000000000000000000000000000000000000000000000000000000000000000000000000000000000000000000000000000000000000000000000000000000000000000000000002ec90296a706720000000000000000000000000000000000000000000000000000000000000000000000000000000000000000000000000000000000000000000000000000000000000000000000000000000000000000000000000000000000000bfa1d55abc80000000000000000000000000000000000000000000000000000000000000000000000000000000000000000000000000000000000000000004189374bc6a7f00000000000000000000000000000000000000000000000000000000000000001","logIndex":"0x11e","removed":false,"topics":["0x07b9ff32d43e39b450a13b642c1e93282a8ea460336f1422bddc6164b304c2da","0x000000000000000000000000c36442b4a4522e871399cd717abdd847ab11fe88","0x00000000000000000000000000000000000000000000000000000000000b0d24","0x000000000000000000000000706a70067be19bdadbea3600db0626859ff25d74"],"transactionHash":"0x6d11b151d37310d148ca9177b436bad7f5caea7bb41591acf7b2d11466088d80","transactionIndex":"0x1f"},{"address":"0x4200000000000000000000000000000000000006","blockHash":"0x324b2e7715df8e62cd54bbb2f92ccda318ef835a434077f5349be532629bfac9","blockNumber":"0x78e2fa0","blockTimestamp":"0x671038f9","data":"0x000000000000000000000000000000000000000000000000002ebd0879515aaa","logIndex":"0x11f","removed":false,"topics":["0x7fcf532c15f0a6db0bd6d0e038bea71d30d808c7d98cb3bf7268a95bf5081b65","0x000000000000000000000000410b72ccfeacbb20a31785edaa358d25a07e143d"],"transactionHash":"0x6d11b151d37310d148ca9177b436bad7f5caea7bb41591acf7b2d11466088d80","transactionIndex":"0x1f"},{"address":"0x410b72ccfeacbb20a31785edaa358d25a07e143d","blockHash":"0x324b2e7715df8e62cd54bbb2f92ccda318ef835a434077f5349be532629bfac9","blockNumber":"0x78e2fa0","blockTimestamp":"0x671038f9","data":"0x0000000000000000000000004200000000000000000000000000000000000006000000000000000000000000000000000000000000000000002ebd0879515aaa","logIndex":"0x120","removed":false,"topics":["0xc082f11600156d64071ed597a7b831f56741ad4e14954598e674e1ec2b61da0c","0x000000000000000000000000c36442b4a4522e871399cd717abdd847ab11fe88","0x00000000000000000000000000000000000000000000000000000000000b0d24"],"transactionHash":"0x6d11b151d37310d148ca9177b436bad7f5caea7bb41591acf7b2d11466088d80","transactionIndex":"0x1f"},{"address":"0xc36442b4a4522e871399cd717abdd847ab11fe88","blockHash":"0x324b2e7715df8e62cd54bbb2f92ccda318ef835a434077f5349be532629bfac9","blockNumber":"0x78e2fa0","blockTimestamp":"0x671038f9","data":"0x","logIndex":"0x121","removed":false,"topics":["0x8c5be1e5ebec7d5bd14f71427d1e84f3dd0314c0f7b2291e5b200ac8c7c3b925","0x000000000000000000000000410b72ccfeacbb20a31785edaa358d25a07e143d","0x0000000000000000000000000000000000000000000000000000000000000000","0x00000000000000000000000000000000000000000000000000000000000b0d24"],"transactionHash":"0x6d11b151d37310d148ca9177b436bad7f5caea7bb41591acf7b2d11466088d80","transactionIndex":"0x1f"},{"address":"0xc36442b4a4522e871399cd717abdd847ab11fe88","blockHash":"0x324b2e7715df8e62cd54bbb2f92ccda318ef835a434077f5349be532629bfac9","blockNumber":"0x78e2fa0","blockTimestamp":"0x671038f9","data":"0x","logIndex":"0x122","removed":false,"topics":["0xddf252ad1be2c89b69c2b068fc378daa952ba7f163c4a11628f55a4df523b3ef","0x000000000000000000000000410b72ccfeacbb20a31785edaa358d25a07e143d","0x000000000000000000000000706a70067be19bdadbea3600db0626859ff25d74","0x00000000000000000000000000000000000000000000000000000000000b0d24"],"transactionHash":"0x6d11b151d37310d148ca9177b436bad7f5caea7bb41591acf7b2d11466088d80","transactionIndex":"0x1f"}],"logsBloom":"0x00800000000000000000000002000000000000040100000040060000400010000000000090000000000000104000000000010000000000000200000000200000000000000000a00000010008000000000000000000500001004008000000000000000000120080000100000000000800000400001004040000008090000008000000000000200000800000020000000000008000042000000000000000000000020000000000002000000000000000000001000000200008000300000000000040000002000000010000000000000000000000000000400000800002000020000010080000140000000000000000000000000000040000200000000000000000","status":"0x1","to":"0xc36442b4a4522e871399cd717abdd847ab11fe88","transactionHash":"0x6d11b151d37310d148ca9177b436bad7f5caea7bb41591acf7b2d11466088d80","transactionIndex":"0x1f","type":"0x2"},"id":8}

        '
    headers:
      Alt-Svc:
      - h3=":443"; ma=2592000,h3-29=":443"; ma=2592000
      Content-Type:
      - application/json
      Date:
      - Fri, 06 Mar 2026 05:54:03 GMT
      Transfer-Encoding:
      - chunked
      Vary:
      - Origin
      Via:
      - 1.1 google
      X-Proxyd-Cache-Status:
      - MISS
    status:
      code: 200
      message: OK
- request:
    body: null
    headers:
      Accept:
      - '*/*'
      Accept-Encoding:
      - gzip, deflate
      Connection:
      - keep-alive
      User-Agent:
      - rotki/1.42.1.dev85+g21cbca5056.d20260305
    method: GET
    uri: https://explorer.optimism.io/api?action=tokentx&address=0x706A70067BE19BdadBea3600Db0626859Ff25D74&endblock=126759111&module=account&sort=asc&startblock=126758611
  response:
    body:
      string: '{"message":"OK","result":[{"value":"953948","blockHash":"0xea783ab34371ca857614daf1ee413b538aa447421bccd1506f50a94c6513d5d3","blockNumber":"126758782","confirmations":"21830050","contractAddress":"0x0b2c639c533813f4aa9d7837caf62653d097ff85","cumulativeGasUsed":"9795393","from":"0xc36442b4a4522e871399cd717abdd847ab11fe88","functionName":"multicall(bytes[]
        data)","gas":"262540","gasPrice":"55851897","gasUsed":"207786","hash":"0x24cf6c88c9645cb5e92596488206319c39a0a1c4e2829a83c690df8f11cb80b6","input":"0xac9650d8000000000000000000000000000000000000000000000000000000000000002000000000000000000000000000000000000000000000000000000000000000030000000000000000000000000000000000000000000000000000000000000060000000000000000000000000000000000000000000000000000000000000012000000000000000000000000000000000000000000000000000000000000001a00000000000000000000000000000000000000000000000000000000000000084fc6f786500000000000000000000000000000000000000000000000000000000000b0d24000000000000000000000000000000000000000000000000000000000000000000000000000000000000000000000000ffffffffffffffffffffffffffffffff00000000000000000000000000000000ffffffffffffffffffffffffffffffff00000000000000000000000000000000000000000000000000000000000000000000000000000000000000000000000000000000000000000000004449404b7c0000000000000000000000000000000000000000000000000000000000000000000000000000000000000000706a70067be19bdadbea3600db0626859ff25d74000000000000000000000000000000000000000000000000000000000000000000000000000000000000000000000000000000000000000000000064df2ab5bb0000000000000000000000000b2c639c533813f4aa9d7837caf62653d097ff850000000000000000000000000000000000000000000000000000000000000000000000000000000000000000706a70067be19bdadbea3600db0626859ff25d7400000000000000000000000000000000000000000000000000000000","methodId":"ac9650d8","nonce":"21","timeStamp":"1729116341","to":"0x706a70067be19bdadbea3600db0626859ff25d74","tokenDecimal":"6","tokenName":"USD
        Coin","tokenSymbol":"USDC","transactionIndex":"50"}],"status":"1"}'
    headers:
      CF-RAY:
      - 9d7f1a81ce71c8fe-MAD
      Cache-Control:
      - max-age=0, private, must-revalidate
      Connection:
      - keep-alive
      Content-Type:
      - application/json; charset=utf-8
      Date:
      - Fri, 06 Mar 2026 05:54:03 GMT
      Nel:
      - '{"report_to":"cf-nel","success_fraction":0.0,"max_age":604800}'
      Report-To:
      - '{"group":"cf-nel","max_age":604800,"endpoints":[{"url":"https://a.nel.cloudflare.com/report/v4?s=H62HXux58WuDCRaR3rhP0qUYWdwS4l%2BVcQWcIOpn6hklrUuxmuiNcG1cXjXrX6h7BmfoWa8Wsb%2F%2B%2F2KnOgDmX568oEI%2FmPw%2F5Qj2NMLa%2FkoDwx0g"}]}'
      Server:
      - cloudflare
      Transfer-Encoding:
      - chunked
      access-control-allow-credentials:
      - 'true'
      access-control-allow-origin:
      - '*'
      access-control-expose-headers:
      - bypass-429-option,x-ratelimit-reset,x-ratelimit-limit,x-ratelimit-remaining,api-v2-temp-token
      alt-svc:
      - h3=":443"; ma=86400
      bypass-429-option:
      - no_bypass
      cf-cache-status:
      - DYNAMIC
      content-length:
      - '2009'
      strict-transport-security:
      - max-age=31536000; includeSubDomains
      x-ratelimit-limit:
      - '600'
      x-ratelimit-remaining:
      - '594'
      x-ratelimit-reset:
      - '56817'
      x-request-id:
      - 3c62585cfc46a6632deaec5b0a652e4f
    status:
      code: 200
      message: OK
version: 1
