interactions:
- request:
    body: null
    headers:
      Accept:
      - '*/*'
      Accept-Encoding:
      - gzip, deflate
      Connection:
      - keep-alive
      User-Agent:
      - rotki/1.41.4.dev420+gd91fa9ae0a.d20260126
    method: GET
    uri: https://explorer.optimism.io/api?action=getblocknobytime&closest=before&module=block&timestamp=1729116000
  response:
    body:
      string: '{"message":"OK","result":{"blockNumber":"126758611"},"status":"1"}'
    headers:
      CF-RAY:
      - 9c4205d13ec6417c-LHR
      Cache-Control:
      - max-age=0, private, must-revalidate
      Connection:
      - keep-alive
      Content-Type:
      - application/json; charset=utf-8
      Date:
      - Mon, 26 Jan 2026 18:20:09 GMT
      Nel:
      - '{"report_to":"cf-nel","success_fraction":0.0,"max_age":604800}'
      Report-To:
      - '{"group":"cf-nel","max_age":604800,"endpoints":[{"url":"https://a.nel.cloudflare.com/report/v4?s=WPGAKoYZV%2BmOv0UhjFZF6soGp6bsfU8oVfSEdaqBreFCJBKSRMFj14nq9T%2FVZabBIU102giO4k87wSIwDKr%2F1X9mWQKkgNC6uuK4PFQ%2B6%2FfRhRPq"}]}'
      Server:
      - cloudflare
      Transfer-Encoding:
      - chunked
      access-control-allow-credentials:
      - 'true'
      access-control-allow-origin:
      - '*'
      access-control-expose-headers:
      - bypass-429-option,x-ratelimit-reset,x-ratelimit-limit,x-ratelimit-remaining,api-v2-temp-token
      alt-svc:
      - h3=":443"; ma=86400
      bypass-429-option:
      - no_bypass
      cf-cache-status:
      - DYNAMIC
      content-length:
      - '66'
      strict-transport-security:
      - max-age=31536000; includeSubDomains
      x-ratelimit-limit:
      - '600'
      x-ratelimit-remaining:
      - '599'
      x-ratelimit-reset:
      - '50188'
      x-request-id:
      - e0baf833cd6aeeb60bceba1a80c690e6
    status:
      code: 200
      message: OK
- request:
    body: null
    headers:
      Accept:
      - '*/*'
      Accept-Encoding:
      - gzip, deflate
      Connection:
      - keep-alive
      User-Agent:
      - rotki/1.41.4.dev420+gd91fa9ae0a.d20260126
    method: GET
    uri: https://explorer.optimism.io/api?action=getblocknobytime&closest=before&module=block&timestamp=1729117000
  response:
    body:
      string: '{"message":"OK","result":{"blockNumber":"126759111"},"status":"1"}'
    headers:
      CF-RAY:
      - 9c4205d45b7134ed-LHR
      Cache-Control:
      - max-age=0, private, must-revalidate
      Connection:
      - keep-alive
      Content-Type:
      - application/json; charset=utf-8
      Date:
      - Mon, 26 Jan 2026 18:20:10 GMT
      Nel:
      - '{"report_to":"cf-nel","success_fraction":0.0,"max_age":604800}'
      Report-To:
      - '{"group":"cf-nel","max_age":604800,"endpoints":[{"url":"https://a.nel.cloudflare.com/report/v4?s=k1WOoCuEZ6Lijx6lqlyc4EJNIH7gMvzd14XXqFQwqj44JjawLoDBPiiY1SF%2BAoMJQKFfDdgiH%2By9hoZS%2BdRIMj9h1DmXYugpZiqrbnu1LNCF9ssz"}]}'
      Server:
      - cloudflare
      Transfer-Encoding:
      - chunked
      access-control-allow-credentials:
      - 'true'
      access-control-allow-origin:
      - '*'
      access-control-expose-headers:
      - bypass-429-option,x-ratelimit-reset,x-ratelimit-limit,x-ratelimit-remaining,api-v2-temp-token
      alt-svc:
      - h3=":443"; ma=86400
      bypass-429-option:
      - no_bypass
      cf-cache-status:
      - DYNAMIC
      content-length:
      - '66'
      strict-transport-security:
      - max-age=31536000; includeSubDomains
      x-ratelimit-limit:
      - '600'
      x-ratelimit-remaining:
      - '598'
      x-ratelimit-reset:
      - '49695'
      x-request-id:
      - d57963b2c7d77a5ad1ef2f85a8a0d6a9
    status:
      code: 200
      message: OK
- request:
    body: null
    headers:
      Accept:
      - '*/*'
      Accept-Encoding:
      - gzip, deflate
      Connection:
      - keep-alive
      User-Agent:
      - rotki/1.41.4.dev420+gd91fa9ae0a.d20260126
    method: GET
    uri: https://explorer.optimism.io/api?action=txlist&address=0x706A70067BE19BdadBea3600Db0626859Ff25D74&endblock=126759111&module=account&sort=asc&startblock=126758611
  response:
    body:
      string: '{"message":"OK","result":[{"blockHash":"0xea783ab34371ca857614daf1ee413b538aa447421bccd1506f50a94c6513d5d3","blockNumber":"126758782","confirmations":"20167634","contractAddress":"","cumulativeGasUsed":"9795393","from":"0x706a70067be19bdadbea3600db0626859ff25d74","gas":"262540","gasPrice":"55851897","gasUsed":"207786","hash":"0x24cf6c88c9645cb5e92596488206319c39a0a1c4e2829a83c690df8f11cb80b6","input":"0xac9650d8000000000000000000000000000000000000000000000000000000000000002000000000000000000000000000000000000000000000000000000000000000030000000000000000000000000000000000000000000000000000000000000060000000000000000000000000000000000000000000000000000000000000012000000000000000000000000000000000000000000000000000000000000001a00000000000000000000000000000000000000000000000000000000000000084fc6f786500000000000000000000000000000000000000000000000000000000000b0d24000000000000000000000000000000000000000000000000000000000000000000000000000000000000000000000000ffffffffffffffffffffffffffffffff00000000000000000000000000000000ffffffffffffffffffffffffffffffff00000000000000000000000000000000000000000000000000000000000000000000000000000000000000000000000000000000000000000000004449404b7c0000000000000000000000000000000000000000000000000000000000000000000000000000000000000000706a70067be19bdadbea3600db0626859ff25d74000000000000000000000000000000000000000000000000000000000000000000000000000000000000000000000000000000000000000000000064df2ab5bb0000000000000000000000000b2c639c533813f4aa9d7837caf62653d097ff850000000000000000000000000000000000000000000000000000000000000000000000000000000000000000706a70067be19bdadbea3600db0626859ff25d7400000000000000000000000000000000000000000000000000000000","isError":"0","methodId":"0x","nonce":"21","timeStamp":"1729116341","to":"0xc36442b4a4522e871399cd717abdd847ab11fe88","transactionIndex":"50","txreceipt_status":"1","value":"0"},{"blockHash":"0x324b2e7715df8e62cd54bbb2f92ccda318ef835a434077f5349be532629bfac9","blockNumber":"126758816","confirmations":"20167600","contractAddress":"","cumulativeGasUsed":"5301649","from":"0x706a70067be19bdadbea3600db0626859ff25d74","gas":"491142","gasPrice":"58158283","gasUsed":"302708","hash":"0x6d11b151d37310d148ca9177b436bad7f5caea7bb41591acf7b2d11466088d80","input":"0xb88d4fde000000000000000000000000706a70067be19bdadbea3600db0626859ff25d74000000000000000000000000410b72ccfeacbb20a31785edaa358d25a07e143d00000000000000000000000000000000000000000000000000000000000b0d24000000000000000000000000000000000000000000000000000000000000008000000000000000000000000000000000000000000000000000000000000003000000000000000000000000000000000000000000000000000000000000000020000000000000000000000000000000000000000000000000000000000000000100000000000000000000000000000000000000000000000000000000000000000000000000000000000000004200000000000000000000000000000000000006000000000000000000000000000000000000000000000000000000000000000000000000000000000000000000000000000000000000000000000000000000000000000000000000000000000000000000000000000000000000000000000000000000000000000000000000000000000000000000000000000000000000000000000000000000000000000000000000000000000000000000000000000002a00000000000000000000000000000000000000000000000000000000000000000000000000000000000000000000000000000000000000000000000000000000000000000000000000000000000000000000000000000000000000000000002c000000000000000000000000000000000000000000000000000000000000000000000000000000000000000000000000000000000000000000000000000000000000000000000000000000000000000000000000000000000000000000000000100000000000000000000000000000000000000000000000000000d68b7598872000000000000000000000000000000000000000000000000000000000000000000000000000000000000000000000000000000000000000000000000000000000000000000000000000000000000000000000000000000000000000067103b43000000000000000000000000706a70067be19bdadbea3600db0626859ff25d740000000000000000000000000000000000000000000000000000000000000001000000000000000000000000000000000000000000000000004189374bc6a7f000000000000000000000000000000000000000000000000000000000000000000000000000000000000000000000000000000000000000000000000000000000","isError":"0","methodId":"0x","nonce":"22","timeStamp":"1729116409","to":"0xc36442b4a4522e871399cd717abdd847ab11fe88","transactionIndex":"31","txreceipt_status":"1","value":"0"}],"status":"1"}'
    headers:
      CF-RAY:
      - 9c4205d7387dd1fd-LHR
      Cache-Control:
      - max-age=0, private, must-revalidate
      Connection:
      - keep-alive
      Content-Type:
      - application/json; charset=utf-8
      Date:
      - Mon, 26 Jan 2026 18:20:10 GMT
      Nel:
      - '{"report_to":"cf-nel","success_fraction":0.0,"max_age":604800}'
      Report-To:
      - '{"group":"cf-nel","max_age":604800,"endpoints":[{"url":"https://a.nel.cloudflare.com/report/v4?s=iprpe%2BRuvv5ouO9uopA5Eb%2FSdn2rt1YkguN0MEtRE%2FotlEK7XfeQ3vHtH3KYB9lghz7MX2lcwhPb%2BnYPlRI9syXwuE5In8QudnnqMGEjhsQ%2FpamJ"}]}'
      Server:
      - cloudflare
      Transfer-Encoding:
      - chunked
      access-control-allow-credentials:
      - 'true'
      access-control-allow-origin:
      - '*'
      access-control-expose-headers:
      - bypass-429-option,x-ratelimit-reset,x-ratelimit-limit,x-ratelimit-remaining,api-v2-temp-token
      alt-svc:
      - h3=":443"; ma=86400
      bypass-429-option:
      - no_bypass
      cf-cache-status:
      - DYNAMIC
      content-length:
      - '4314'
      strict-transport-security:
      - max-age=31536000; includeSubDomains
      x-ratelimit-limit:
      - '600'
      x-ratelimit-remaining:
      - '597'
      x-ratelimit-reset:
      - '49227'
      x-request-id:
      - 36edbf21942c7427a19b548db5b2651d
    status:
      code: 200
      message: OK
- request:
    body: null
    headers:
      Accept:
      - '*/*'
      Accept-Encoding:
      - gzip, deflate
      Connection:
      - keep-alive
      User-Agent:
      - rotki/1.41.4.dev420+gd91fa9ae0a.d20260126
    method: GET
    uri: https://explorer.optimism.io/api/v2/transactions/0x24cf6c88c9645cb5e92596488206319c39a0a1c4e2829a83c690df8f11cb80b6
  response:
    body:
      string: '{"l1_gas_used":"2918","priority_fee":"140606084982","raw_input":"0xac9650d8000000000000000000000000000000000000000000000000000000000000002000000000000000000000000000000000000000000000000000000000000000030000000000000000000000000000000000000000000000000000000000000060000000000000000000000000000000000000000000000000000000000000012000000000000000000000000000000000000000000000000000000000000001a00000000000000000000000000000000000000000000000000000000000000084fc6f786500000000000000000000000000000000000000000000000000000000000b0d24000000000000000000000000000000000000000000000000000000000000000000000000000000000000000000000000ffffffffffffffffffffffffffffffff00000000000000000000000000000000ffffffffffffffffffffffffffffffff00000000000000000000000000000000000000000000000000000000000000000000000000000000000000000000000000000000000000000000004449404b7c0000000000000000000000000000000000000000000000000000000000000000000000000000000000000000706a70067be19bdadbea3600db0626859ff25d74000000000000000000000000000000000000000000000000000000000000000000000000000000000000000000000000000000000000000000000064df2ab5bb0000000000000000000000000b2c639c533813f4aa9d7837caf62653d097ff850000000000000000000000000000000000000000000000000000000000000000000000000000000000000000706a70067be19bdadbea3600db0626859ff25d7400000000000000000000000000000000000000000000000000000000","is_pending_update":false,"op_withdrawals":[],"result":"success","hash":"0x24cf6c88c9645cb5e92596488206319c39a0a1c4e2829a83c690df8f11cb80b6","max_fee_per_gas":"163895422","revert_reason":null,"confirmation_duration":[0,2.0e3],"transaction_burnt_fee":"11464636185060","type":2,"token_transfers_overflow":false,"confirmations":20167635,"position":50,"max_priority_fee_per_gas":"676687","transaction_tag":null,"created_contract":null,"value":"0","l1_fee_scalar":"0","from":{"ens_domain_name":"javxq.eth","hash":"0x706A70067BE19BdadBea3600Db0626859Ff25D74","implementations":[],"is_contract":false,"is_scam":false,"is_verified":false,"metadata":null,"name":null,"private_tags":[],"proxy_type":null,"public_tags":[],"reputation":"ok","watchlist_names":[]},"gas_used":"207786","status":"ok","to":{"ens_domain_name":null,"hash":"0xC36442b4a4522E871399CD717aBDD847Ab11FE88","implementations":[],"is_contract":true,"is_scam":false,"is_verified":true,"metadata":{"tags":[{"meta":{"bgColor":"#FFFFFF","projectName":"Uniswap
        V3","tagUrl":"https://app.klerosscout.eth.limo/#/?registry=Single_Tags&itemdetails=0xb5cbeef9f845f1a6e9745154742abde2682ea29214c51ec7cefd0eca64a2e5e9@0x66260c69d03837016d88c9877e61e08ef74c59f2","textColor":"#FF007A","tooltipDescription":"Welcome
        to the home of Uniswap V3 Positions NFT-V1 - p9FtekMoFd on OpenSea. Discover
        the best items in this collection.","tooltipUrl":"https://app.uniswap.org/#/pool","verifiedDomains":["app.uniswap.org"]},"name":"Uniswap
        V3: Positions NFT","ordinal":10,"slug":"uniswap-v3-positions-nft","tagType":"name"},{"meta":{},"name":"Token
        Contract","ordinal":0,"slug":"token-contract","tagType":"generic"},{"meta":{},"name":"DEX","ordinal":0,"slug":"dex","tagType":"generic"},{"meta":{"appActionButtonText":"Uniswap","appID":"uniswap","bgColor":"#FF007A","tagIcon":"https://blockscout-content.s3.amazonaws.com/uniswap.png","tagUrl":"https://uniswap.org/?utm_source=Blockscout","textColor":"#FFFFFF","tooltipDescription":"Trade
        crypto and NFTs safely on the top DeFi platform. Swapping made simple. Buy
        and sell crypto on Ethereum, Base, Arbitrum, Polygon, and more.","tooltipTitle":"Uniswap","tooltipUrl":"https://uniswap.org/?utm_source=Blockscout"},"name":"Uniswap
        V3","ordinal":0,"slug":"uniswap-v3","tagType":"protocol"}]},"name":"NonfungiblePositionManager","private_tags":[],"proxy_type":null,"public_tags":[],"reputation":"ok","watchlist_names":[]},"authorization_list":[],"l1_fee":"167100877690","method":"multicall","fee":{"type":"actual","value":"11772343147732"},"actions":[],"gas_limit":"262540","gas_price":"55851897","decoded_input":{"method_call":"multicall(bytes[]
        data)","method_id":"ac9650d8","parameters":[{"name":"data","type":"bytes[]","value":["0xfc6f786500000000000000000000000000000000000000000000000000000000000b0d24000000000000000000000000000000000000000000000000000000000000000000000000000000000000000000000000ffffffffffffffffffffffffffffffff00000000000000000000000000000000ffffffffffffffffffffffffffffffff","0x49404b7c0000000000000000000000000000000000000000000000000000000000000000000000000000000000000000706a70067be19bdadbea3600db0626859ff25d74","0xdf2ab5bb0000000000000000000000000b2c639c533813f4aa9d7837caf62653d097ff850000000000000000000000000000000000000000000000000000000000000000000000000000000000000000706a70067be19bdadbea3600db0626859ff25d74"]}]},"l1_gas_price":"10952243376","token_transfers":[{"block_hash":"0xea783ab34371ca857614daf1ee413b538aa447421bccd1506f50a94c6513d5d3","block_number":126758782,"from":{"ens_domain_name":null,"hash":"0xc1738D90E2E26C35784A0d3E3d8A9f795074bcA4","implementations":[],"is_contract":true,"is_scam":false,"is_verified":true,"metadata":null,"name":"UniswapV3Pool","private_tags":[],"proxy_type":null,"public_tags":[],"reputation":"ok","watchlist_names":[]},"log_index":386,"method":null,"timestamp":null,"to":{"ens_domain_name":null,"hash":"0xC36442b4a4522E871399CD717aBDD847Ab11FE88","implementations":[],"is_contract":true,"is_scam":false,"is_verified":true,"metadata":{"tags":[{"meta":{"bgColor":"#FFFFFF","projectName":"Uniswap
        V3","tagUrl":"https://app.klerosscout.eth.limo/#/?registry=Single_Tags&itemdetails=0xb5cbeef9f845f1a6e9745154742abde2682ea29214c51ec7cefd0eca64a2e5e9@0x66260c69d03837016d88c9877e61e08ef74c59f2","textColor":"#FF007A","tooltipDescription":"Welcome
        to the home of Uniswap V3 Positions NFT-V1 - p9FtekMoFd on OpenSea. Discover
        the best items in this collection.","tooltipUrl":"https://app.uniswap.org/#/pool","verifiedDomains":["app.uniswap.org"]},"name":"Uniswap
        V3: Positions NFT","ordinal":10,"slug":"uniswap-v3-positions-nft","tagType":"name"},{"meta":{},"name":"Token
        Contract","ordinal":0,"slug":"token-contract","tagType":"generic"},{"meta":{},"name":"DEX","ordinal":0,"slug":"dex","tagType":"generic"},{"meta":{"appActionButtonText":"Uniswap","appID":"uniswap","bgColor":"#FF007A","tagIcon":"https://blockscout-content.s3.amazonaws.com/uniswap.png","tagUrl":"https://uniswap.org/?utm_source=Blockscout","textColor":"#FFFFFF","tooltipDescription":"Trade
        crypto and NFTs safely on the top DeFi platform. Swapping made simple. Buy
        and sell crypto on Ethereum, Base, Arbitrum, Polygon, and more.","tooltipTitle":"Uniswap","tooltipUrl":"https://uniswap.org/?utm_source=Blockscout"},"name":"Uniswap
        V3","ordinal":0,"slug":"uniswap-v3","tagType":"protocol"}]},"name":"NonfungiblePositionManager","private_tags":[],"proxy_type":null,"public_tags":[],"reputation":"ok","watchlist_names":[]},"token":{"address_hash":"0x0b2C639c533813f4Aa9D7837CAf62653d097Ff85","circulating_market_cap":"72137328407.29147","decimals":"6","exchange_rate":"0.999612","holders_count":"557124","icon_url":"https://assets.coingecko.com/coins/images/6319/small/usdc.png?1696506694","name":"USD
        Coin","reputation":"ok","symbol":"USDC","total_supply":"217137140496057","type":"ERC-20","volume_24h":"10201650503.108936"},"token_type":"ERC-20","total":{"decimals":"6","value":"953948"},"transaction_hash":"0x24cf6c88c9645cb5e92596488206319c39a0a1c4e2829a83c690df8f11cb80b6","type":"token_transfer"},{"block_hash":"0xea783ab34371ca857614daf1ee413b538aa447421bccd1506f50a94c6513d5d3","block_number":126758782,"from":{"ens_domain_name":null,"hash":"0xc1738D90E2E26C35784A0d3E3d8A9f795074bcA4","implementations":[],"is_contract":true,"is_scam":false,"is_verified":true,"metadata":null,"name":"UniswapV3Pool","private_tags":[],"proxy_type":null,"public_tags":[],"reputation":"ok","watchlist_names":[]},"log_index":387,"method":null,"timestamp":null,"to":{"ens_domain_name":null,"hash":"0xC36442b4a4522E871399CD717aBDD847Ab11FE88","implementations":[],"is_contract":true,"is_scam":false,"is_verified":true,"metadata":{"tags":[{"meta":{"bgColor":"#FFFFFF","projectName":"Uniswap
        V3","tagUrl":"https://app.klerosscout.eth.limo/#/?registry=Single_Tags&itemdetails=0xb5cbeef9f845f1a6e9745154742abde2682ea29214c51ec7cefd0eca64a2e5e9@0x66260c69d03837016d88c9877e61e08ef74c59f2","textColor":"#FF007A","tooltipDescription":"Welcome
        to the home of Uniswap V3 Positions NFT-V1 - p9FtekMoFd on OpenSea. Discover
        the best items in this collection.","tooltipUrl":"https://app.uniswap.org/#/pool","verifiedDomains":["app.uniswap.org"]},"name":"Uniswap
        V3: Positions NFT","ordinal":10,"slug":"uniswap-v3-positions-nft","tagType":"name"},{"meta":{},"name":"Token
        Contract","ordinal":0,"slug":"token-contract","tagType":"generic"},{"meta":{},"name":"DEX","ordinal":0,"slug":"dex","tagType":"generic"},{"meta":{"appActionButtonText":"Uniswap","appID":"uniswap","bgColor":"#FF007A","tagIcon":"https://blockscout-content.s3.amazonaws.com/uniswap.png","tagUrl":"https://uniswap.org/?utm_source=Blockscout","textColor":"#FFFFFF","tooltipDescription":"Trade
        crypto and NFTs safely on the top DeFi platform. Swapping made simple. Buy
        and sell crypto on Ethereum, Base, Arbitrum, Polygon, and more.","tooltipTitle":"Uniswap","tooltipUrl":"https://uniswap.org/?utm_source=Blockscout"},"name":"Uniswap
        V3","ordinal":0,"slug":"uniswap-v3","tagType":"protocol"}]},"name":"NonfungiblePositionManager","private_tags":[],"proxy_type":null,"public_tags":[],"reputation":"ok","watchlist_names":[]},"token":{"address_hash":"0x4200000000000000000000000000000000000006","circulating_market_cap":"67468090.56184527","decimals":"18","exchange_rate":"2891.75","holders_count":"300943","icon_url":"https://assets.coingecko.com/coins/images/39715/small/WETH.PNG?1723731805","name":"L2
        Standard Bridged WETH (Optimism)","reputation":"ok","symbol":"WETH","total_supply":"23412377594790033826661","type":"ERC-20","volume_24h":"18497113.830982957"},"token_type":"ERC-20","total":{"decimals":"18","value":"288112954210517"},"transaction_hash":"0x24cf6c88c9645cb5e92596488206319c39a0a1c4e2829a83c690df8f11cb80b6","type":"token_transfer"},{"block_hash":"0xea783ab34371ca857614daf1ee413b538aa447421bccd1506f50a94c6513d5d3","block_number":126758782,"from":{"ens_domain_name":null,"hash":"0xC36442b4a4522E871399CD717aBDD847Ab11FE88","implementations":[],"is_contract":true,"is_scam":false,"is_verified":true,"metadata":{"tags":[{"meta":{"bgColor":"#FFFFFF","projectName":"Uniswap
        V3","tagUrl":"https://app.klerosscout.eth.limo/#/?registry=Single_Tags&itemdetails=0xb5cbeef9f845f1a6e9745154742abde2682ea29214c51ec7cefd0eca64a2e5e9@0x66260c69d03837016d88c9877e61e08ef74c59f2","textColor":"#FF007A","tooltipDescription":"Welcome
        to the home of Uniswap V3 Positions NFT-V1 - p9FtekMoFd on OpenSea. Discover
        the best items in this collection.","tooltipUrl":"https://app.uniswap.org/#/pool","verifiedDomains":["app.uniswap.org"]},"name":"Uniswap
        V3: Positions NFT","ordinal":10,"slug":"uniswap-v3-positions-nft","tagType":"name"},{"meta":{},"name":"Token
        Contract","ordinal":0,"slug":"token-contract","tagType":"generic"},{"meta":{},"name":"DEX","ordinal":0,"slug":"dex","tagType":"generic"},{"meta":{"appActionButtonText":"Uniswap","appID":"uniswap","bgColor":"#FF007A","tagIcon":"https://blockscout-content.s3.amazonaws.com/uniswap.png","tagUrl":"https://uniswap.org/?utm_source=Blockscout","textColor":"#FFFFFF","tooltipDescription":"Trade
        crypto and NFTs safely on the top DeFi platform. Swapping made simple. Buy
        and sell crypto on Ethereum, Base, Arbitrum, Polygon, and more.","tooltipTitle":"Uniswap","tooltipUrl":"https://uniswap.org/?utm_source=Blockscout"},"name":"Uniswap
        V3","ordinal":0,"slug":"uniswap-v3","tagType":"protocol"}]},"name":"NonfungiblePositionManager","private_tags":[],"proxy_type":null,"public_tags":[],"reputation":"ok","watchlist_names":[]},"log_index":390,"method":null,"timestamp":null,"to":{"ens_domain_name":null,"hash":"0x0000000000000000000000000000000000000000","implementations":[],"is_contract":false,"is_scam":false,"is_verified":false,"metadata":{"tags":[{"meta":{},"name":"Null:
        0x000...000","ordinal":10,"slug":"null-0x000000","tagType":"name"},{"meta":{},"name":"Metamask
        User","ordinal":0,"slug":"metamask-user","tagType":"generic"},{"meta":{},"name":"Imtoken
        User","ordinal":0,"slug":"imtoken-user","tagType":"generic"},{"meta":{},"name":"Miner","ordinal":0,"slug":"miner","tagType":"generic"},{"meta":{},"name":"Burn","ordinal":0,"slug":"burn","tagType":"generic"},{"meta":{"alertStatus":"info","data":"This
        address is commonly used by projects to burn tokens (reducing total supply)."},"name":"note_0","ordinal":0,"slug":"note0","tagType":"note"},{"meta":{},"name":"Null","ordinal":0,"slug":"null","tagType":"protocol"}]},"name":null,"private_tags":[],"proxy_type":null,"public_tags":[],"reputation":"ok","watchlist_names":[]},"token":{"address_hash":"0x4200000000000000000000000000000000000006","circulating_market_cap":"67468090.56184527","decimals":"18","exchange_rate":"2891.75","holders_count":"300943","icon_url":"https://assets.coingecko.com/coins/images/39715/small/WETH.PNG?1723731805","name":"L2
        Standard Bridged WETH (Optimism)","reputation":"ok","symbol":"WETH","total_supply":"23412377594790033826661","type":"ERC-20","volume_24h":"18497113.830982957"},"token_type":"ERC-20","total":{"decimals":"18","value":"288112954210517"},"transaction_hash":"0x24cf6c88c9645cb5e92596488206319c39a0a1c4e2829a83c690df8f11cb80b6","type":"token_burning"},{"block_hash":"0xea783ab34371ca857614daf1ee413b538aa447421bccd1506f50a94c6513d5d3","block_number":126758782,"from":{"ens_domain_name":null,"hash":"0xC36442b4a4522E871399CD717aBDD847Ab11FE88","implementations":[],"is_contract":true,"is_scam":false,"is_verified":true,"metadata":{"tags":[{"meta":{"bgColor":"#FFFFFF","projectName":"Uniswap
        V3","tagUrl":"https://app.klerosscout.eth.limo/#/?registry=Single_Tags&itemdetails=0xb5cbeef9f845f1a6e9745154742abde2682ea29214c51ec7cefd0eca64a2e5e9@0x66260c69d03837016d88c9877e61e08ef74c59f2","textColor":"#FF007A","tooltipDescription":"Welcome
        to the home of Uniswap V3 Positions NFT-V1 - p9FtekMoFd on OpenSea. Discover
        the best items in this collection.","tooltipUrl":"https://app.uniswap.org/#/pool","verifiedDomains":["app.uniswap.org"]},"name":"Uniswap
        V3: Positions NFT","ordinal":10,"slug":"uniswap-v3-positions-nft","tagType":"name"},{"meta":{},"name":"Token
        Contract","ordinal":0,"slug":"token-contract","tagType":"generic"},{"meta":{},"name":"DEX","ordinal":0,"slug":"dex","tagType":"generic"},{"meta":{"appActionButtonText":"Uniswap","appID":"uniswap","bgColor":"#FF007A","tagIcon":"https://blockscout-content.s3.amazonaws.com/uniswap.png","tagUrl":"https://uniswap.org/?utm_source=Blockscout","textColor":"#FFFFFF","tooltipDescription":"Trade
        crypto and NFTs safely on the top DeFi platform. Swapping made simple. Buy
        and sell crypto on Ethereum, Base, Arbitrum, Polygon, and more.","tooltipTitle":"Uniswap","tooltipUrl":"https://uniswap.org/?utm_source=Blockscout"},"name":"Uniswap
        V3","ordinal":0,"slug":"uniswap-v3","tagType":"protocol"}]},"name":"NonfungiblePositionManager","private_tags":[],"proxy_type":null,"public_tags":[],"reputation":"ok","watchlist_names":[]},"log_index":391,"method":null,"timestamp":null,"to":{"ens_domain_name":"javxq.eth","hash":"0x706A70067BE19BdadBea3600Db0626859Ff25D74","implementations":[],"is_contract":false,"is_scam":false,"is_verified":false,"metadata":null,"name":null,"private_tags":[],"proxy_type":null,"public_tags":[],"reputation":"ok","watchlist_names":[]},"token":{"address_hash":"0x0b2C639c533813f4Aa9D7837CAf62653d097Ff85","circulating_market_cap":"72137328407.29147","decimals":"6","exchange_rate":"0.999612","holders_count":"557124","icon_url":"https://assets.coingecko.com/coins/images/6319/small/usdc.png?1696506694","name":"USD
        Coin","reputation":"ok","symbol":"USDC","total_supply":"217137140496057","type":"ERC-20","volume_24h":"10201650503.108936"},"token_type":"ERC-20","total":{"decimals":"6","value":"953948"},"transaction_hash":"0x24cf6c88c9645cb5e92596488206319c39a0a1c4e2829a83c690df8f11cb80b6","type":"token_transfer"}],"base_fee_per_gas":"55175210","timestamp":"2024-10-16T22:05:41.000000Z","nonce":21,"historic_exchange_rate":"2610.95","transaction_types":["contract_call","token_transfer"],"exchange_rate":"2912.51","block_number":126758782,"has_error_in_internal_transactions":false}'
    headers:
      CF-RAY:
      - 9c4205da6e1c947c-LHR
      Cache-Control:
      - max-age=0, private, must-revalidate
      Connection:
      - keep-alive
      Content-Type:
      - application/json; charset=utf-8
      Date:
      - Mon, 26 Jan 2026 18:20:11 GMT
      Nel:
      - '{"report_to":"cf-nel","success_fraction":0.0,"max_age":604800}'
      Report-To:
      - '{"group":"cf-nel","max_age":604800,"endpoints":[{"url":"https://a.nel.cloudflare.com/report/v4?s=JEKhKmHozilxy%2BGE3sDhM92jBJfU%2FAyLeo%2BUJgiAJqKFfILYZFCYuatPLRZ6diWOcVAPmRVcYrFS%2B4sLggxbRlLIuR4LJUfm0X0TtGXH9bavkLyF"}]}'
      Server:
      - cloudflare
      Transfer-Encoding:
      - chunked
      access-control-allow-credentials:
      - 'true'
      access-control-allow-origin:
      - '*'
      access-control-expose-headers:
      - bypass-429-option,x-ratelimit-reset,x-ratelimit-limit,x-ratelimit-remaining,api-v2-temp-token
      alt-svc:
      - h3=":443"; ma=86400
      bypass-429-option:
      - temporary_token
      cf-cache-status:
      - DYNAMIC
      content-length:
      - '16315'
      strict-transport-security:
      - max-age=31536000; includeSubDomains
      x-ratelimit-limit:
      - '600'
      x-ratelimit-remaining:
      - '596'
      x-ratelimit-reset:
      - '48722'
      x-request-id:
      - 5d63f4753cbfe11c6d01e2eb744708d4
    status:
      code: 200
      message: OK
- request:
    body: null
    headers:
      Accept:
      - '*/*'
      Accept-Encoding:
      - gzip, deflate
      Connection:
      - keep-alive
      User-Agent:
      - rotki/1.41.4.dev420+gd91fa9ae0a.d20260126
    method: GET
    uri: https://explorer.optimism.io/api/v2/transactions/0x6d11b151d37310d148ca9177b436bad7f5caea7bb41591acf7b2d11466088d80
  response:
    body:
      string: "{\"l1_gas_used\":\"3133\",\"priority_fee\":\"206723833820\",\"raw_input\":\"0xb88d4fde000000000000000000000000706a70067be19bdadbea3600db0626859ff25d74000000000000000000000000410b72ccfeacbb20a31785edaa358d25a07e143d00000000000000000000000000000000000000000000000000000000000b0d24000000000000000000000000000000000000000000000000000000000000008000000000000000000000000000000000000000000000000000000000000003000000000000000000000000000000000000000000000000000000000000000020000000000000000000000000000000000000000000000000000000000000000100000000000000000000000000000000000000000000000000000000000000000000000000000000000000004200000000000000000000000000000000000006000000000000000000000000000000000000000000000000000000000000000000000000000000000000000000000000000000000000000000000000000000000000000000000000000000000000000000000000000000000000000000000000000000000000000000000000000000000000000000000000000000000000000000000000000000000000000000000000000000000000000000000000000002a00000000000000000000000000000000000000000000000000000000000000000000000000000000000000000000000000000000000000000000000000000000000000000000000000000000000000000000000000000000000000000000002c000000000000000000000000000000000000000000000000000000000000000000000000000000000000000000000000000000000000000000000000000000000000000000000000000000000000000000000000000000000000000000000000100000000000000000000000000000000000000000000000000000d68b7598872000000000000000000000000000000000000000000000000000000000000000000000000000000000000000000000000000000000000000000000000000000000000000000000000000000000000000000000000000000000000000067103b43000000000000000000000000706a70067be19bdadbea3600db0626859ff25d740000000000000000000000000000000000000000000000000000000000000001000000000000000000000000000000000000000000000000004189374bc6a7f000000000000000000000000000000000000000000000000000000000000000000000000000000000000000000000000000000000000000000000000000000000\",\"is_pending_update\":false,\"op_withdrawals\":[],\"result\":\"success\",\"hash\":\"0x6d11b151d37310d148ca9177b436bad7f5caea7bb41591acf7b2d11466088d80\",\"max_fee_per_gas\":\"172356304\",\"revert_reason\":null,\"confirmation_duration\":[0,2.0e3],\"transaction_burnt_fee\":\"17398253696544\",\"type\":2,\"token_transfers_overflow\":false,\"confirmations\":20167602,\"position\":31,\"max_priority_fee_per_gas\":\"682915\",\"transaction_tag\":null,\"created_contract\":null,\"value\":\"0\",\"l1_fee_scalar\":\"0\",\"from\":{\"ens_domain_name\":\"javxq.eth\",\"hash\":\"0x706A70067BE19BdadBea3600Db0626859Ff25D74\",\"implementations\":[],\"is_contract\":false,\"is_scam\":false,\"is_verified\":false,\"metadata\":null,\"name\":null,\"private_tags\":[],\"proxy_type\":null,\"public_tags\":[],\"reputation\":\"ok\",\"watchlist_names\":[]},\"gas_used\":\"302708\",\"status\":\"ok\",\"to\":{\"ens_domain_name\":null,\"hash\":\"0xC36442b4a4522E871399CD717aBDD847Ab11FE88\",\"implementations\":[],\"is_contract\":true,\"is_scam\":false,\"is_verified\":true,\"metadata\":{\"tags\":[{\"meta\":{\"bgColor\":\"#FFFFFF\",\"projectName\":\"Uniswap
        V3\",\"tagUrl\":\"https://app.klerosscout.eth.limo/#/?registry=Single_Tags&itemdetails=0xb5cbeef9f845f1a6e9745154742abde2682ea29214c51ec7cefd0eca64a2e5e9@0x66260c69d03837016d88c9877e61e08ef74c59f2\",\"textColor\":\"#FF007A\",\"tooltipDescription\":\"Uniswap
        V3's official Nonfungible Position Manager contract on Optimism\",\"tooltipUrl\":\"https://uniswap.org/\",\"verifiedDomains\":[\"app.uniswap.org\"]},\"name\":\"Uniswap
        V3: Positions NFT\",\"ordinal\":10,\"slug\":\"uniswap-v3-positions-nft\",\"tagType\":\"name\"},{\"meta\":{},\"name\":\"Token
        Contract\",\"ordinal\":0,\"slug\":\"token-contract\",\"tagType\":\"generic\"},{\"meta\":{},\"name\":\"DEX\",\"ordinal\":0,\"slug\":\"dex\",\"tagType\":\"generic\"},{\"meta\":{\"appActionButtonText\":\"Uniswap\",\"appID\":\"uniswap\",\"bgColor\":\"#FF007A\",\"tagIcon\":\"https://blockscout-content.s3.amazonaws.com/uniswap.png\",\"tagUrl\":\"https://uniswap.org/?utm_source=Blockscout\",\"textColor\":\"#FFFFFF\",\"tooltipDescription\":\"Trade
        crypto and NFTs safely on the top DeFi platform. Swapping made simple. Buy
        and sell crypto on Ethereum, Base, Arbitrum, Polygon, and more.\",\"tooltipTitle\":\"Uniswap\",\"tooltipUrl\":\"https://uniswap.org/?utm_source=Blockscout\"},\"name\":\"Uniswap
        V3\",\"ordinal\":0,\"slug\":\"uniswap-v3\",\"tagType\":\"protocol\"}]},\"name\":\"NonfungiblePositionManager\",\"private_tags\":[],\"proxy_type\":null,\"public_tags\":[],\"reputation\":\"ok\",\"watchlist_names\":[]},\"authorization_list\":[],\"l1_fee\":\"188521219238\",\"method\":\"safeTransferFrom\",\"fee\":{\"type\":\"actual\",\"value\":\"17793498749602\"},\"actions\":[],\"gas_limit\":\"491142\",\"gas_price\":\"58158283\",\"decoded_input\":{\"method_call\":\"safeTransferFrom(address
        from, address to, uint256 tokenId, bytes _data)\",\"method_id\":\"b88d4fde\",\"parameters\":[{\"name\":\"from\",\"type\":\"address\",\"value\":\"0x706A70067BE19BdadBea3600Db0626859Ff25D74\"},{\"name\":\"to\",\"type\":\"address\",\"value\":\"0x410b72CcfeAcBB20a31785eDAA358D25a07e143D\"},{\"name\":\"tokenId\",\"type\":\"uint256\",\"value\":\"724260\"},{\"name\":\"_data\",\"type\":\"bytes\",\"value\":\"0x0000000000000000000000000000000000000000000000000000000000000020000000000000000000000000000000000000000000000000000000000000000100000000000000000000000000000000000000000000000000000000000000000000000000000000000000004200000000000000000000000000000000000006000000000000000000000000000000000000000000000000000000000000000000000000000000000000000000000000000000000000000000000000000000000000000000000000000000000000000000000000000000000000000000000000000000000000000000000000000000000000000000000000000000000000000000000000000000000000000000000000000000000000000000000000000002a00000000000000000000000000000000000000000000000000000000000000000000000000000000000000000000000000000000000000000000000000000000000000000000000000000000000000000000000000000000000000000000002c000000000000000000000000000000000000000000000000000000000000000000000000000000000000000000000000000000000000000000000000000000000000000000000000000000000000000000000000000000000000000000000000100000000000000000000000000000000000000000000000000000d68b7598872000000000000000000000000000000000000000000000000000000000000000000000000000000000000000000000000000000000000000000000000000000000000000000000000000000000000000000000000000000000000000067103b43000000000000000000000000706a70067be19bdadbea3600db0626859ff25d740000000000000000000000000000000000000000000000000000000000000001000000000000000000000000000000000000000000000000004189374bc6a7f000000000000000000000000000000000000000000000000000000000000000000000000000000000000000000000000000000000000000000000000000000000\"}]},\"l1_gas_price\":\"11511650235\",\"token_transfers\":[{\"block_hash\":\"0x324b2e7715df8e62cd54bbb2f92ccda318ef835a434077f5349be532629bfac9\",\"block_number\":126758816,\"from\":{\"ens_domain_name\":\"javxq.eth\",\"hash\":\"0x706A70067BE19BdadBea3600Db0626859Ff25D74\",\"implementations\":[],\"is_contract\":false,\"is_scam\":false,\"is_verified\":false,\"metadata\":null,\"name\":null,\"private_tags\":[],\"proxy_type\":null,\"public_tags\":[],\"reputation\":\"ok\",\"watchlist_names\":[]},\"log_index\":279,\"method\":null,\"timestamp\":null,\"to\":{\"ens_domain_name\":null,\"hash\":\"0x410b72CcfeAcBB20a31785eDAA358D25a07e143D\",\"implementations\":[],\"is_contract\":true,\"is_scam\":false,\"is_verified\":true,\"metadata\":{\"tags\":[{\"meta\":{\"tooltipUrl\":\"https://krystal.app/\"},\"name\":\"Krystal:
        V3 Utils\",\"ordinal\":10,\"slug\":\"krystal-v3-utils\",\"tagType\":\"name\"},{\"meta\":{\"appActionButtonText\":\"Krystal\",\"appID\":\"krystal\"},\"name\":\"Krystal\",\"ordinal\":0,\"slug\":\"krystal\",\"tagType\":\"protocol\"}]},\"name\":\"V3Utils\",\"private_tags\":[],\"proxy_type\":null,\"public_tags\":[],\"reputation\":\"ok\",\"watchlist_names\":[]},\"token\":{\"address_hash\":\"0xC36442b4a4522E871399CD717aBDD847Ab11FE88\",\"circulating_market_cap\":null,\"decimals\":null,\"exchange_rate\":null,\"holders_count\":\"163053\",\"icon_url\":null,\"name\":\"Uniswap
        V3 Positions NFT-V1\",\"reputation\":\"ok\",\"symbol\":\"UNI-V3-POS\",\"total_supply\":\"955604\",\"type\":\"ERC-721\",\"volume_24h\":null},\"token_type\":\"ERC-721\",\"total\":{\"token_id\":\"724260\",\"token_instance\":{\"animation_url\":null,\"external_app_url\":null,\"id\":\"724260\",\"image_url\":\"data:image/svg+xml;base64,PHN2ZyB3aWR0aD0iMjkwIiBoZWlnaHQ9IjUwMCIgdmlld0JveD0iMCAwIDI5MCA1MDAiIHhtbG5zPSJodHRwOi8vd3d3LnczLm9yZy8yMDAwL3N2ZyIgeG1sbnM6eGxpbms9J2h0dHA6Ly93d3cudzMub3JnLzE5OTkveGxpbmsnPjxkZWZzPjxmaWx0ZXIgaWQ9ImYxIj48ZmVJbWFnZSByZXN1bHQ9InAwIiB4bGluazpocmVmPSJkYXRhOmltYWdlL3N2Zyt4bWw7YmFzZTY0LFBITjJaeUIzYVdSMGFEMG5Namt3SnlCb1pXbG5hSFE5SnpVd01DY2dkbWxsZDBKdmVEMG5NQ0F3SURJNU1DQTFNREFuSUhodGJHNXpQU2RvZEhSd09pOHZkM2QzTG5jekxtOXlaeTh5TURBd0wzTjJaeWMrUEhKbFkzUWdkMmxrZEdnOUp6STVNSEI0SnlCb1pXbG5hSFE5SnpVd01IQjRKeUJtYVd4c1BTY2pNR0l5WXpZekp5OCtQQzl6ZG1jKyIvPjxmZUltYWdlIHJlc3VsdD0icDEiIHhsaW5rOmhyZWY9ImRhdGE6aW1hZ2Uvc3ZnK3htbDtiYXNlNjQsUEhOMlp5QjNhV1IwYUQwbk1qa3dKeUJvWldsbmFIUTlKelV3TUNjZ2RtbGxkMEp2ZUQwbk1DQXdJREk1TUNBMU1EQW5JSGh0Ykc1elBTZG9kSFJ3T2k4dmQzZDNMbmN6TG05eVp5OHlNREF3TDNOMlp5YytQR05wY21Oc1pTQmplRDBuTVRVeUp5QmplVDBuTVRBd0p5QnlQU2N4TWpCd2VDY2dabWxzYkQwbkl6UXlNREF3TUNjdlBqd3ZjM1puUGc9PSIvPjxmZUltYWdlIHJlc3VsdD0icDIiIHhsaW5rOmhyZWY9ImRhdGE6aW1hZ2Uvc3ZnK3htbDtiYXNlNjQsUEhOMlp5QjNhV1IwYUQwbk1qa3dKeUJvWldsbmFIUTlKelV3TUNjZ2RtbGxkMEp2ZUQwbk1DQXdJREk1TUNBMU1EQW5JSGh0Ykc1elBTZG9kSFJ3T2k4dmQzZDNMbmN6TG05eVp5OHlNREF3TDNOMlp5YytQR05wY21Oc1pTQmplRDBuTVRVeUp5QmplVDBuTVRBd0p5QnlQU2N4TWpCd2VDY2dabWxzYkQwbkl6azNabVk0TlNjdlBqd3ZjM1puUGc9PSIgLz48ZmVJbWFnZSByZXN1bHQ9InAzIiB4bGluazpocmVmPSJkYXRhOmltYWdlL3N2Zyt4bWw7YmFzZTY0LFBITjJaeUIzYVdSMGFEMG5Namt3SnlCb1pXbG5hSFE5SnpVd01DY2dkbWxsZDBKdmVEMG5NQ0F3SURJNU1DQTFNREFuSUhodGJHNXpQU2RvZEhSd09pOHZkM2QzTG5jekxtOXlaeTh5TURBd0wzTjJaeWMrUEdOcGNtTnNaU0JqZUQwbk1qUXpKeUJqZVQwbk1UQXdKeUJ5UFNjeE1EQndlQ2NnWm1sc2JEMG5JekF3TURBd05pY3ZQand2YzNablBnPT0iIC8+PGZlQmxlbmQgbW9kZT0ib3ZlcmxheSIgaW49InAwIiBpbjI9InAxIiAvPjxmZUJsZW5kIG1vZGU9ImV4Y2x1c2lvbiIgaW4yPSJwMiIgLz48ZmVCbGVuZCBtb2RlPSJvdmVybGF5IiBpbjI9InAzIiByZXN1bHQ9ImJsZW5kT3V0IiAvPjxmZUdhdXNzaWFuQmx1ciBpbj0iYmxlbmRPdXQiIHN0ZERldmlhdGlvbj0iNDIiIC8+PC9maWx0ZXI+IDxjbGlwUGF0aCBpZD0iY29ybmVycyI+PHJlY3Qgd2lkdGg9IjI5MCIgaGVpZ2h0PSI1MDAiIHJ4PSI0MiIgcnk9IjQyIiAvPjwvY2xpcFBhdGg+PHBhdGggaWQ9InRleHQtcGF0aC1hIiBkPSJNNDAgMTIgSDI1MCBBMjggMjggMCAwIDEgMjc4IDQwIFY0NjAgQTI4IDI4IDAgMCAxIDI1MCA0ODggSDQwIEEyOCAyOCAwIDAgMSAxMiA0NjAgVjQwIEEyOCAyOCAwIDAgMSA0MCAxMiB6IiAvPjxwYXRoIGlkPSJtaW5pbWFwIiBkPSJNMjM0IDQ0NEMyMzQgNDU3Ljk0OSAyNDIuMjEgNDYzIDI1MyA0NjMiIC8+PGZpbHRlciBpZD0idG9wLXJlZ2lvbi1ibHVyIj48ZmVHYXVzc2lhbkJsdXIgaW49IlNvdXJjZUdyYXBoaWMiIHN0ZERldmlhdGlvbj0iMjQiIC8+PC9maWx0ZXI+PGxpbmVhckdyYWRpZW50IGlkPSJncmFkLXVwIiB4MT0iMSIgeDI9IjAiIHkxPSIxIiB5Mj0iMCI+PHN0b3Agb2Zmc2V0PSIwLjAiIHN0b3AtY29sb3I9IndoaXRlIiBzdG9wLW9wYWNpdHk9IjEiIC8+PHN0b3Agb2Zmc2V0PSIuOSIgc3RvcC1jb2xvcj0id2hpdGUiIHN0b3Atb3BhY2l0eT0iMCIgLz48L2xpbmVhckdyYWRpZW50PjxsaW5lYXJHcmFkaWVudCBpZD0iZ3JhZC1kb3duIiB4MT0iMCIgeDI9IjEiIHkxPSIwIiB5Mj0iMSI+PHN0b3Agb2Zmc2V0PSIwLjAiIHN0b3AtY29sb3I9IndoaXRlIiBzdG9wLW9wYWNpdHk9IjEiIC8+PHN0b3Agb2Zmc2V0PSIwLjkiIHN0b3AtY29sb3I9IndoaXRlIiBzdG9wLW9wYWNpdHk9IjAiIC8+PC9saW5lYXJHcmFkaWVudD48bWFzayBpZD0iZmFkZS11cCIgbWFza0NvbnRlbnRVbml0cz0ib2JqZWN0Qm91bmRpbmdCb3giPjxyZWN0IHdpZHRoPSIxIiBoZWlnaHQ9IjEiIGZpbGw9InVybCgjZ3JhZC11cCkiIC8+PC9tYXNrPjxtYXNrIGlkPSJmYWRlLWRvd24iIG1hc2tDb250ZW50VW5pdHM9Im9iamVjdEJvdW5kaW5nQm94Ij48cmVjdCB3aWR0aD0iMSIgaGVpZ2h0PSIxIiBmaWxsPSJ1cmwoI2dyYWQtZG93bikiIC8+PC9tYXNrPjxtYXNrIGlkPSJub25lIiBtYXNrQ29udGVudFVuaXRzPSJvYmplY3RCb3VuZGluZ0JveCI+PHJlY3Qgd2lkdGg9IjEiIGhlaWdodD0iMSIgZmlsbD0id2hpdGUiIC8+PC9tYXNrPjxsaW5lYXJHcmFkaWVudCBpZD0iZ3JhZC1zeW1ib2wiPjxzdG9wIG9mZnNldD0iMC43IiBzdG9wLWNvbG9yPSJ3aGl0ZSIgc3RvcC1vcGFjaXR5PSIxIiAvPjxzdG9wIG9mZnNldD0iLjk1IiBzdG9wLWNvbG9yPSJ3aGl0ZSIgc3RvcC1vcGFjaXR5PSIwIiAvPjwvbGluZWFyR3JhZGllbnQ+PG1hc2sgaWQ9ImZhZGUtc3ltYm9sIiBtYXNrQ29udGVudFVuaXRzPSJ1c2VyU3BhY2VPblVzZSI+PHJlY3Qgd2lkdGg9IjI5MHB4IiBoZWlnaHQ9IjIwMHB4IiBmaWxsPSJ1cmwoI2dyYWQtc3ltYm9sKSIgLz48L21hc2s+PC9kZWZzPjxnIGNsaXAtcGF0aD0idXJsKCNjb3JuZXJzKSI+PHJlY3QgZmlsbD0iMGIyYzYzIiB4PSIwcHgiIHk9IjBweCIgd2lkdGg9IjI5MHB4IiBoZWlnaHQ9IjUwMHB4IiAvPjxyZWN0IHN0eWxlPSJmaWx0ZXI6IHVybCgjZjEpIiB4PSIwcHgiIHk9IjBweCIgd2lkdGg9IjI5MHB4IiBoZWlnaHQ9IjUwMHB4IiAvPiA8ZyBzdHlsZT0iZmlsdGVyOnVybCgjdG9wLXJlZ2lvbi1ibHVyKTsgdHJhbnNmb3JtOnNjYWxlKDEuNSk7IHRyYW5zZm9ybS1vcmlnaW46Y2VudGVyIHRvcDsiPjxyZWN0IGZpbGw9Im5vbmUiIHg9IjBweCIgeT0iMHB4IiB3aWR0aD0iMjkwcHgiIGhlaWdodD0iNTAwcHgiIC8+PGVsbGlwc2UgY3g9IjUwJSIgY3k9IjBweCIgcng9IjE4MHB4IiByeT0iMTIwcHgiIGZpbGw9IiMwMDAiIG9wYWNpdHk9IjAuODUiIC8+PC9nPjxyZWN0IHg9IjAiIHk9IjAiIHdpZHRoPSIyOTAiIGhlaWdodD0iNTAwIiByeD0iNDIiIHJ5PSI0MiIgZmlsbD0icmdiYSgwLDAsMCwwKSIgc3Ryb2tlPSJyZ2JhKDI1NSwyNTUsMjU1LDAuMikiIC8+PC9nPjx0ZXh0IHRleHQtcmVuZGVyaW5nPSJvcHRpbWl6ZVNwZWVkIj48dGV4dFBhdGggc3RhcnRPZmZzZXQ9Ii0xMDAlIiBmaWxsPSJ3aGl0ZSIgZm9udC1mYW1pbHk9IidDb3VyaWVyIE5ldycsIG1vbm9zcGFjZSIgZm9udC1zaXplPSIxMHB4IiB4bGluazpocmVmPSIjdGV4dC1wYXRoLWEiPjB4NDIwMDAwMDAwMDAwMDAwMDAwMDAwMDAwMDAwMDAwMDAwMDAwMDAwNiDigKIgV0VUSCA8YW5pbWF0ZSBhZGRpdGl2ZT0ic3VtIiBhdHRyaWJ1dGVOYW1lPSJzdGFydE9mZnNldCIgZnJvbT0iMCUiIHRvPSIxMDAlIiBiZWdpbj0iMHMiIGR1cj0iMzBzIiByZXBlYXRDb3VudD0iaW5kZWZpbml0ZSIgLz48L3RleHRQYXRoPiA8dGV4dFBhdGggc3RhcnRPZmZzZXQ9IjAlIiBmaWxsPSJ3aGl0ZSIgZm9udC1mYW1pbHk9IidDb3VyaWVyIE5ldycsIG1vbm9zcGFjZSIgZm9udC1zaXplPSIxMHB4IiB4bGluazpocmVmPSIjdGV4dC1wYXRoLWEiPjB4NDIwMDAwMDAwMDAwMDAwMDAwMDAwMDAwMDAwMDAwMDAwMDAwMDAwNiDigKIgV0VUSCA8YW5pbWF0ZSBhZGRpdGl2ZT0ic3VtIiBhdHRyaWJ1dGVOYW1lPSJzdGFydE9mZnNldCIgZnJvbT0iMCUiIHRvPSIxMDAlIiBiZWdpbj0iMHMiIGR1cj0iMzBzIiByZXBlYXRDb3VudD0iaW5kZWZpbml0ZSIgLz4gPC90ZXh0UGF0aD48dGV4dFBhdGggc3RhcnRPZmZzZXQ9IjUwJSIgZmlsbD0id2hpdGUiIGZvbnQtZmFtaWx5PSInQ291cmllciBOZXcnLCBtb25vc3BhY2UiIGZvbnQtc2l6ZT0iMTBweCIgeGxpbms6aHJlZj0iI3RleHQtcGF0aC1hIj4weDBiMmM2MzljNTMzODEzZjRhYTlkNzgzN2NhZjYyNjUzZDA5N2ZmODUg4oCiIFVTREMgPGFuaW1hdGUgYWRkaXRpdmU9InN1bSIgYXR0cmlidXRlTmFtZT0ic3RhcnRPZmZzZXQiIGZyb209IjAlIiB0bz0iMTAwJSIgYmVnaW49IjBzIiBkdXI9IjMwcyIgcmVwZWF0Q291bnQ9ImluZGVmaW5pdGUiIC8+PC90ZXh0UGF0aD48dGV4dFBhdGggc3RhcnRPZmZzZXQ9Ii01MCUiIGZpbGw9IndoaXRlIiBmb250LWZhbWlseT0iJ0NvdXJpZXIgTmV3JywgbW9ub3NwYWNlIiBmb250LXNpemU9IjEwcHgiIHhsaW5rOmhyZWY9IiN0ZXh0LXBhdGgtYSI+MHgwYjJjNjM5YzUzMzgxM2Y0YWE5ZDc4MzdjYWY2MjY1M2QwOTdmZjg1IOKAoiBVU0RDIDxhbmltYXRlIGFkZGl0aXZlPSJzdW0iIGF0dHJpYnV0ZU5hbWU9InN0YXJ0T2Zmc2V0IiBmcm9tPSIwJSIgdG89IjEwMCUiIGJlZ2luPSIwcyIgZHVyPSIzMHMiIHJlcGVhdENvdW50PSJpbmRlZmluaXRlIiAvPjwvdGV4dFBhdGg+PC90ZXh0PjxnIG1hc2s9InVybCgjZmFkZS1zeW1ib2wpIj48cmVjdCBmaWxsPSJub25lIiB4PSIwcHgiIHk9IjBweCIgd2lkdGg9IjI5MHB4IiBoZWlnaHQ9IjIwMHB4IiAvPiA8dGV4dCB5PSI3MHB4IiB4PSIzMnB4IiBmaWxsPSJ3aGl0ZSIgZm9udC1mYW1pbHk9IidDb3VyaWVyIE5ldycsIG1vbm9zcGFjZSIgZm9udC13ZWlnaHQ9IjIwMCIgZm9udC1zaXplPSIzNnB4Ij5VU0RDL1dFVEg8L3RleHQ+PHRleHQgeT0iMTE1cHgiIHg9IjMycHgiIGZpbGw9IndoaXRlIiBmb250LWZhbWlseT0iJ0NvdXJpZXIgTmV3JywgbW9ub3NwYWNlIiBmb250LXdlaWdodD0iMjAwIiBmb250LXNpemU9IjM2cHgiPjAuMyU8L3RleHQ+PC9nPjxyZWN0IHg9IjE2IiB5PSIxNiIgd2lkdGg9IjI1OCIgaGVpZ2h0PSI0NjgiIHJ4PSIyNiIgcnk9IjI2IiBmaWxsPSJyZ2JhKDAsMCwwLDApIiBzdHJva2U9InJnYmEoMjU1LDI1NSwyNTUsMC4yKSIgLz48ZyBtYXNrPSJ1cmwoI2ZhZGUtdXApIiBzdHlsZT0idHJhbnNmb3JtOnRyYW5zbGF0ZSg3MnB4LDE4OXB4KSI+PHJlY3QgeD0iLTE2cHgiIHk9Ii0xNnB4IiB3aWR0aD0iMTgwcHgiIGhlaWdodD0iMTgwcHgiIGZpbGw9Im5vbmUiIC8+PHBhdGggZD0iTTEgMUMyNSA2NSA4MSAxMjEgMTQ1IDE0NSIgc3Ryb2tlPSJyZ2JhKDAsMCwwLDAuMykiIHN0cm9rZS13aWR0aD0iMzJweCIgZmlsbD0ibm9uZSIgc3Ryb2tlLWxpbmVjYXA9InJvdW5kIiAvPjwvZz48ZyBtYXNrPSJ1cmwoI2ZhZGUtdXApIiBzdHlsZT0idHJhbnNmb3JtOnRyYW5zbGF0ZSg3MnB4LDE4OXB4KSI+PHJlY3QgeD0iLTE2cHgiIHk9Ii0xNnB4IiB3aWR0aD0iMTgwcHgiIGhlaWdodD0iMTgwcHgiIGZpbGw9Im5vbmUiIC8+PHBhdGggZD0iTTEgMUMyNSA2NSA4MSAxMjEgMTQ1IDE0NSIgc3Ryb2tlPSJyZ2JhKDI1NSwyNTUsMjU1LDEpIiBmaWxsPSJub25lIiBzdHJva2UtbGluZWNhcD0icm91bmQiIC8+PC9nPjxjaXJjbGUgY3g9IjIxN3B4IiBjeT0iMzM0cHgiIHI9IjRweCIgZmlsbD0id2hpdGUiIC8+PGNpcmNsZSBjeD0iMjE3cHgiIGN5PSIzMzRweCIgcj0iMjRweCIgZmlsbD0ibm9uZSIgc3Ryb2tlPSJ3aGl0ZSIgLz4gPGcgc3R5bGU9InRyYW5zZm9ybTp0cmFuc2xhdGUoMjlweCwgMzg0cHgpIj48cmVjdCB3aWR0aD0iOThweCIgaGVpZ2h0PSIyNnB4IiByeD0iOHB4IiByeT0iOHB4IiBmaWxsPSJyZ2JhKDAsMCwwLDAuNikiIC8+PHRleHQgeD0iMTJweCIgeT0iMTdweCIgZm9udC1mYW1pbHk9IidDb3VyaWVyIE5ldycsIG1vbm9zcGFjZSIgZm9udC1zaXplPSIxMnB4IiBmaWxsPSJ3aGl0ZSI+PHRzcGFuIGZpbGw9InJnYmEoMjU1LDI1NSwyNTUsMC42KSI+SUQ6IDwvdHNwYW4+NzI0MjYwPC90ZXh0PjwvZz4gPGcgc3R5bGU9InRyYW5zZm9ybTp0cmFuc2xhdGUoMjlweCwgNDE0cHgpIj48cmVjdCB3aWR0aD0iMTQwcHgiIGhlaWdodD0iMjZweCIgcng9IjhweCIgcnk9IjhweCIgZmlsbD0icmdiYSgwLDAsMCwwLjYpIiAvPjx0ZXh0IHg9IjEycHgiIHk9IjE3cHgiIGZvbnQtZmFtaWx5PSInQ291cmllciBOZXcnLCBtb25vc3BhY2UiIGZvbnQtc2l6ZT0iMTJweCIgZmlsbD0id2hpdGUiPjx0c3BhbiBmaWxsPSJyZ2JhKDI1NSwyNTUsMjU1LDAuNikiPk1pbiBUaWNrOiA8L3RzcGFuPjE5Mzc0MDwvdGV4dD48L2c+IDxnIHN0eWxlPSJ0cmFuc2Zvcm06dHJhbnNsYXRlKDI5cHgsIDQ0NHB4KSI+PHJlY3Qgd2lkdGg9IjE0MHB4IiBoZWlnaHQ9IjI2cHgiIHJ4PSI4cHgiIHJ5PSI4cHgiIGZpbGw9InJnYmEoMCwwLDAsMC42KSIgLz48dGV4dCB4PSIxMnB4IiB5PSIxN3B4IiBmb250LWZhbWlseT0iJ0NvdXJpZXIgTmV3JywgbW9ub3NwYWNlIiBmb250LXNpemU9IjEycHgiIGZpbGw9IndoaXRlIj48dHNwYW4gZmlsbD0icmdiYSgyNTUsMjU1LDI1NSwwLjYpIj5NYXggVGljazogPC90c3Bhbj4xOTQ4MjA8L3RleHQ+PC9nPjxnIHN0eWxlPSJ0cmFuc2Zvcm06dHJhbnNsYXRlKDIyNnB4LCA0MzNweCkiPjxyZWN0IHdpZHRoPSIzNnB4IiBoZWlnaHQ9IjM2cHgiIHJ4PSI4cHgiIHJ5PSI4cHgiIGZpbGw9Im5vbmUiIHN0cm9rZT0icmdiYSgyNTUsMjU1LDI1NSwwLjIpIiAvPjxwYXRoIHN0cm9rZS1saW5lY2FwPSJyb3VuZCIgZD0iTTggOUM4LjAwMDA0IDIyLjk0OTQgMTYuMjA5OSAyOCAyNyAyOCIgZmlsbD0ibm9uZSIgc3Ryb2tlPSJ3aGl0ZSIgLz48Y2lyY2xlIHN0eWxlPSJ0cmFuc2Zvcm06dHJhbnNsYXRlM2QoMjRweCwgMjdweCwgMHB4KSIgY3g9IjBweCIgY3k9IjBweCIgcj0iNHB4IiBmaWxsPSJ3aGl0ZSIvPjwvZz48L3N2Zz4=\",\"is_unique\":null,\"media_type\":null,\"media_url\":\"data:image/svg+xml;base64,PHN2ZyB3aWR0aD0iMjkwIiBoZWlnaHQ9IjUwMCIgdmlld0JveD0iMCAwIDI5MCA1MDAiIHhtbG5zPSJodHRwOi8vd3d3LnczLm9yZy8yMDAwL3N2ZyIgeG1sbnM6eGxpbms9J2h0dHA6Ly93d3cudzMub3JnLzE5OTkveGxpbmsnPjxkZWZzPjxmaWx0ZXIgaWQ9ImYxIj48ZmVJbWFnZSByZXN1bHQ9InAwIiB4bGluazpocmVmPSJkYXRhOmltYWdlL3N2Zyt4bWw7YmFzZTY0LFBITjJaeUIzYVdSMGFEMG5Namt3SnlCb1pXbG5hSFE5SnpVd01DY2dkbWxsZDBKdmVEMG5NQ0F3SURJNU1DQTFNREFuSUhodGJHNXpQU2RvZEhSd09pOHZkM2QzTG5jekxtOXlaeTh5TURBd0wzTjJaeWMrUEhKbFkzUWdkMmxrZEdnOUp6STVNSEI0SnlCb1pXbG5hSFE5SnpVd01IQjRKeUJtYVd4c1BTY2pNR0l5WXpZekp5OCtQQzl6ZG1jKyIvPjxmZUltYWdlIHJlc3VsdD0icDEiIHhsaW5rOmhyZWY9ImRhdGE6aW1hZ2Uvc3ZnK3htbDtiYXNlNjQsUEhOMlp5QjNhV1IwYUQwbk1qa3dKeUJvWldsbmFIUTlKelV3TUNjZ2RtbGxkMEp2ZUQwbk1DQXdJREk1TUNBMU1EQW5JSGh0Ykc1elBTZG9kSFJ3T2k4dmQzZDNMbmN6TG05eVp5OHlNREF3TDNOMlp5YytQR05wY21Oc1pTQmplRDBuTVRVeUp5QmplVDBuTVRBd0p5QnlQU2N4TWpCd2VDY2dabWxzYkQwbkl6UXlNREF3TUNjdlBqd3ZjM1puUGc9PSIvPjxmZUltYWdlIHJlc3VsdD0icDIiIHhsaW5rOmhyZWY9ImRhdGE6aW1hZ2Uvc3ZnK3htbDtiYXNlNjQsUEhOMlp5QjNhV1IwYUQwbk1qa3dKeUJvWldsbmFIUTlKelV3TUNjZ2RtbGxkMEp2ZUQwbk1DQXdJREk1TUNBMU1EQW5JSGh0Ykc1elBTZG9kSFJ3T2k4dmQzZDNMbmN6TG05eVp5OHlNREF3TDNOMlp5YytQR05wY21Oc1pTQmplRDBuTVRVeUp5QmplVDBuTVRBd0p5QnlQU2N4TWpCd2VDY2dabWxzYkQwbkl6azNabVk0TlNjdlBqd3ZjM1puUGc9PSIgLz48ZmVJbWFnZSByZXN1bHQ9InAzIiB4bGluazpocmVmPSJkYXRhOmltYWdlL3N2Zyt4bWw7YmFzZTY0LFBITjJaeUIzYVdSMGFEMG5Namt3SnlCb1pXbG5hSFE5SnpVd01DY2dkbWxsZDBKdmVEMG5NQ0F3SURJNU1DQTFNREFuSUhodGJHNXpQU2RvZEhSd09pOHZkM2QzTG5jekxtOXlaeTh5TURBd0wzTjJaeWMrUEdOcGNtTnNaU0JqZUQwbk1qUXpKeUJqZVQwbk1UQXdKeUJ5UFNjeE1EQndlQ2NnWm1sc2JEMG5JekF3TURBd05pY3ZQand2YzNablBnPT0iIC8+PGZlQmxlbmQgbW9kZT0ib3ZlcmxheSIgaW49InAwIiBpbjI9InAxIiAvPjxmZUJsZW5kIG1vZGU9ImV4Y2x1c2lvbiIgaW4yPSJwMiIgLz48ZmVCbGVuZCBtb2RlPSJvdmVybGF5IiBpbjI9InAzIiByZXN1bHQ9ImJsZW5kT3V0IiAvPjxmZUdhdXNzaWFuQmx1ciBpbj0iYmxlbmRPdXQiIHN0ZERldmlhdGlvbj0iNDIiIC8+PC9maWx0ZXI+IDxjbGlwUGF0aCBpZD0iY29ybmVycyI+PHJlY3Qgd2lkdGg9IjI5MCIgaGVpZ2h0PSI1MDAiIHJ4PSI0MiIgcnk9IjQyIiAvPjwvY2xpcFBhdGg+PHBhdGggaWQ9InRleHQtcGF0aC1hIiBkPSJNNDAgMTIgSDI1MCBBMjggMjggMCAwIDEgMjc4IDQwIFY0NjAgQTI4IDI4IDAgMCAxIDI1MCA0ODggSDQwIEEyOCAyOCAwIDAgMSAxMiA0NjAgVjQwIEEyOCAyOCAwIDAgMSA0MCAxMiB6IiAvPjxwYXRoIGlkPSJtaW5pbWFwIiBkPSJNMjM0IDQ0NEMyMzQgNDU3Ljk0OSAyNDIuMjEgNDYzIDI1MyA0NjMiIC8+PGZpbHRlciBpZD0idG9wLXJlZ2lvbi1ibHVyIj48ZmVHYXVzc2lhbkJsdXIgaW49IlNvdXJjZUdyYXBoaWMiIHN0ZERldmlhdGlvbj0iMjQiIC8+PC9maWx0ZXI+PGxpbmVhckdyYWRpZW50IGlkPSJncmFkLXVwIiB4MT0iMSIgeDI9IjAiIHkxPSIxIiB5Mj0iMCI+PHN0b3Agb2Zmc2V0PSIwLjAiIHN0b3AtY29sb3I9IndoaXRlIiBzdG9wLW9wYWNpdHk9IjEiIC8+PHN0b3Agb2Zmc2V0PSIuOSIgc3RvcC1jb2xvcj0id2hpdGUiIHN0b3Atb3BhY2l0eT0iMCIgLz48L2xpbmVhckdyYWRpZW50PjxsaW5lYXJHcmFkaWVudCBpZD0iZ3JhZC1kb3duIiB4MT0iMCIgeDI9IjEiIHkxPSIwIiB5Mj0iMSI+PHN0b3Agb2Zmc2V0PSIwLjAiIHN0b3AtY29sb3I9IndoaXRlIiBzdG9wLW9wYWNpdHk9IjEiIC8+PHN0b3Agb2Zmc2V0PSIwLjkiIHN0b3AtY29sb3I9IndoaXRlIiBzdG9wLW9wYWNpdHk9IjAiIC8+PC9saW5lYXJHcmFkaWVudD48bWFzayBpZD0iZmFkZS11cCIgbWFza0NvbnRlbnRVbml0cz0ib2JqZWN0Qm91bmRpbmdCb3giPjxyZWN0IHdpZHRoPSIxIiBoZWlnaHQ9IjEiIGZpbGw9InVybCgjZ3JhZC11cCkiIC8+PC9tYXNrPjxtYXNrIGlkPSJmYWRlLWRvd24iIG1hc2tDb250ZW50VW5pdHM9Im9iamVjdEJvdW5kaW5nQm94Ij48cmVjdCB3aWR0aD0iMSIgaGVpZ2h0PSIxIiBmaWxsPSJ1cmwoI2dyYWQtZG93bikiIC8+PC9tYXNrPjxtYXNrIGlkPSJub25lIiBtYXNrQ29udGVudFVuaXRzPSJvYmplY3RCb3VuZGluZ0JveCI+PHJlY3Qgd2lkdGg9IjEiIGhlaWdodD0iMSIgZmlsbD0id2hpdGUiIC8+PC9tYXNrPjxsaW5lYXJHcmFkaWVudCBpZD0iZ3JhZC1zeW1ib2wiPjxzdG9wIG9mZnNldD0iMC43IiBzdG9wLWNvbG9yPSJ3aGl0ZSIgc3RvcC1vcGFjaXR5PSIxIiAvPjxzdG9wIG9mZnNldD0iLjk1IiBzdG9wLWNvbG9yPSJ3aGl0ZSIgc3RvcC1vcGFjaXR5PSIwIiAvPjwvbGluZWFyR3JhZGllbnQ+PG1hc2sgaWQ9ImZhZGUtc3ltYm9sIiBtYXNrQ29udGVudFVuaXRzPSJ1c2VyU3BhY2VPblVzZSI+PHJlY3Qgd2lkdGg9IjI5MHB4IiBoZWlnaHQ9IjIwMHB4IiBmaWxsPSJ1cmwoI2dyYWQtc3ltYm9sKSIgLz48L21hc2s+PC9kZWZzPjxnIGNsaXAtcGF0aD0idXJsKCNjb3JuZXJzKSI+PHJlY3QgZmlsbD0iMGIyYzYzIiB4PSIwcHgiIHk9IjBweCIgd2lkdGg9IjI5MHB4IiBoZWlnaHQ9IjUwMHB4IiAvPjxyZWN0IHN0eWxlPSJmaWx0ZXI6IHVybCgjZjEpIiB4PSIwcHgiIHk9IjBweCIgd2lkdGg9IjI5MHB4IiBoZWlnaHQ9IjUwMHB4IiAvPiA8ZyBzdHlsZT0iZmlsdGVyOnVybCgjdG9wLXJlZ2lvbi1ibHVyKTsgdHJhbnNmb3JtOnNjYWxlKDEuNSk7IHRyYW5zZm9ybS1vcmlnaW46Y2VudGVyIHRvcDsiPjxyZWN0IGZpbGw9Im5vbmUiIHg9IjBweCIgeT0iMHB4IiB3aWR0aD0iMjkwcHgiIGhlaWdodD0iNTAwcHgiIC8+PGVsbGlwc2UgY3g9IjUwJSIgY3k9IjBweCIgcng9IjE4MHB4IiByeT0iMTIwcHgiIGZpbGw9IiMwMDAiIG9wYWNpdHk9IjAuODUiIC8+PC9nPjxyZWN0IHg9IjAiIHk9IjAiIHdpZHRoPSIyOTAiIGhlaWdodD0iNTAwIiByeD0iNDIiIHJ5PSI0MiIgZmlsbD0icmdiYSgwLDAsMCwwKSIgc3Ryb2tlPSJyZ2JhKDI1NSwyNTUsMjU1LDAuMikiIC8+PC9nPjx0ZXh0IHRleHQtcmVuZGVyaW5nPSJvcHRpbWl6ZVNwZWVkIj48dGV4dFBhdGggc3RhcnRPZmZzZXQ9Ii0xMDAlIiBmaWxsPSJ3aGl0ZSIgZm9udC1mYW1pbHk9IidDb3VyaWVyIE5ldycsIG1vbm9zcGFjZSIgZm9udC1zaXplPSIxMHB4IiB4bGluazpocmVmPSIjdGV4dC1wYXRoLWEiPjB4NDIwMDAwMDAwMDAwMDAwMDAwMDAwMDAwMDAwMDAwMDAwMDAwMDAwNiDigKIgV0VUSCA8YW5pbWF0ZSBhZGRpdGl2ZT0ic3VtIiBhdHRyaWJ1dGVOYW1lPSJzdGFydE9mZnNldCIgZnJvbT0iMCUiIHRvPSIxMDAlIiBiZWdpbj0iMHMiIGR1cj0iMzBzIiByZXBlYXRDb3VudD0iaW5kZWZpbml0ZSIgLz48L3RleHRQYXRoPiA8dGV4dFBhdGggc3RhcnRPZmZzZXQ9IjAlIiBmaWxsPSJ3aGl0ZSIgZm9udC1mYW1pbHk9IidDb3VyaWVyIE5ldycsIG1vbm9zcGFjZSIgZm9udC1zaXplPSIxMHB4IiB4bGluazpocmVmPSIjdGV4dC1wYXRoLWEiPjB4NDIwMDAwMDAwMDAwMDAwMDAwMDAwMDAwMDAwMDAwMDAwMDAwMDAwNiDigKIgV0VUSCA8YW5pbWF0ZSBhZGRpdGl2ZT0ic3VtIiBhdHRyaWJ1dGVOYW1lPSJzdGFydE9mZnNldCIgZnJvbT0iMCUiIHRvPSIxMDAlIiBiZWdpbj0iMHMiIGR1cj0iMzBzIiByZXBlYXRDb3VudD0iaW5kZWZpbml0ZSIgLz4gPC90ZXh0UGF0aD48dGV4dFBhdGggc3RhcnRPZmZzZXQ9IjUwJSIgZmlsbD0id2hpdGUiIGZvbnQtZmFtaWx5PSInQ291cmllciBOZXcnLCBtb25vc3BhY2UiIGZvbnQtc2l6ZT0iMTBweCIgeGxpbms6aHJlZj0iI3RleHQtcGF0aC1hIj4weDBiMmM2MzljNTMzODEzZjRhYTlkNzgzN2NhZjYyNjUzZDA5N2ZmODUg4oCiIFVTREMgPGFuaW1hdGUgYWRkaXRpdmU9InN1bSIgYXR0cmlidXRlTmFtZT0ic3RhcnRPZmZzZXQiIGZyb209IjAlIiB0bz0iMTAwJSIgYmVnaW49IjBzIiBkdXI9IjMwcyIgcmVwZWF0Q291bnQ9ImluZGVmaW5pdGUiIC8+PC90ZXh0UGF0aD48dGV4dFBhdGggc3RhcnRPZmZzZXQ9Ii01MCUiIGZpbGw9IndoaXRlIiBmb250LWZhbWlseT0iJ0NvdXJpZXIgTmV3JywgbW9ub3NwYWNlIiBmb250LXNpemU9IjEwcHgiIHhsaW5rOmhyZWY9IiN0ZXh0LXBhdGgtYSI+MHgwYjJjNjM5YzUzMzgxM2Y0YWE5ZDc4MzdjYWY2MjY1M2QwOTdmZjg1IOKAoiBVU0RDIDxhbmltYXRlIGFkZGl0aXZlPSJzdW0iIGF0dHJpYnV0ZU5hbWU9InN0YXJ0T2Zmc2V0IiBmcm9tPSIwJSIgdG89IjEwMCUiIGJlZ2luPSIwcyIgZHVyPSIzMHMiIHJlcGVhdENvdW50PSJpbmRlZmluaXRlIiAvPjwvdGV4dFBhdGg+PC90ZXh0PjxnIG1hc2s9InVybCgjZmFkZS1zeW1ib2wpIj48cmVjdCBmaWxsPSJub25lIiB4PSIwcHgiIHk9IjBweCIgd2lkdGg9IjI5MHB4IiBoZWlnaHQ9IjIwMHB4IiAvPiA8dGV4dCB5PSI3MHB4IiB4PSIzMnB4IiBmaWxsPSJ3aGl0ZSIgZm9udC1mYW1pbHk9IidDb3VyaWVyIE5ldycsIG1vbm9zcGFjZSIgZm9udC13ZWlnaHQ9IjIwMCIgZm9udC1zaXplPSIzNnB4Ij5VU0RDL1dFVEg8L3RleHQ+PHRleHQgeT0iMTE1cHgiIHg9IjMycHgiIGZpbGw9IndoaXRlIiBmb250LWZhbWlseT0iJ0NvdXJpZXIgTmV3JywgbW9ub3NwYWNlIiBmb250LXdlaWdodD0iMjAwIiBmb250LXNpemU9IjM2cHgiPjAuMyU8L3RleHQ+PC9nPjxyZWN0IHg9IjE2IiB5PSIxNiIgd2lkdGg9IjI1OCIgaGVpZ2h0PSI0NjgiIHJ4PSIyNiIgcnk9IjI2IiBmaWxsPSJyZ2JhKDAsMCwwLDApIiBzdHJva2U9InJnYmEoMjU1LDI1NSwyNTUsMC4yKSIgLz48ZyBtYXNrPSJ1cmwoI2ZhZGUtdXApIiBzdHlsZT0idHJhbnNmb3JtOnRyYW5zbGF0ZSg3MnB4LDE4OXB4KSI+PHJlY3QgeD0iLTE2cHgiIHk9Ii0xNnB4IiB3aWR0aD0iMTgwcHgiIGhlaWdodD0iMTgwcHgiIGZpbGw9Im5vbmUiIC8+PHBhdGggZD0iTTEgMUMyNSA2NSA4MSAxMjEgMTQ1IDE0NSIgc3Ryb2tlPSJyZ2JhKDAsMCwwLDAuMykiIHN0cm9rZS13aWR0aD0iMzJweCIgZmlsbD0ibm9uZSIgc3Ryb2tlLWxpbmVjYXA9InJvdW5kIiAvPjwvZz48ZyBtYXNrPSJ1cmwoI2ZhZGUtdXApIiBzdHlsZT0idHJhbnNmb3JtOnRyYW5zbGF0ZSg3MnB4LDE4OXB4KSI+PHJlY3QgeD0iLTE2cHgiIHk9Ii0xNnB4IiB3aWR0aD0iMTgwcHgiIGhlaWdodD0iMTgwcHgiIGZpbGw9Im5vbmUiIC8+PHBhdGggZD0iTTEgMUMyNSA2NSA4MSAxMjEgMTQ1IDE0NSIgc3Ryb2tlPSJyZ2JhKDI1NSwyNTUsMjU1LDEpIiBmaWxsPSJub25lIiBzdHJva2UtbGluZWNhcD0icm91bmQiIC8+PC9nPjxjaXJjbGUgY3g9IjIxN3B4IiBjeT0iMzM0cHgiIHI9IjRweCIgZmlsbD0id2hpdGUiIC8+PGNpcmNsZSBjeD0iMjE3cHgiIGN5PSIzMzRweCIgcj0iMjRweCIgZmlsbD0ibm9uZSIgc3Ryb2tlPSJ3aGl0ZSIgLz4gPGcgc3R5bGU9InRyYW5zZm9ybTp0cmFuc2xhdGUoMjlweCwgMzg0cHgpIj48cmVjdCB3aWR0aD0iOThweCIgaGVpZ2h0PSIyNnB4IiByeD0iOHB4IiByeT0iOHB4IiBmaWxsPSJyZ2JhKDAsMCwwLDAuNikiIC8+PHRleHQgeD0iMTJweCIgeT0iMTdweCIgZm9udC1mYW1pbHk9IidDb3VyaWVyIE5ldycsIG1vbm9zcGFjZSIgZm9udC1zaXplPSIxMnB4IiBmaWxsPSJ3aGl0ZSI+PHRzcGFuIGZpbGw9InJnYmEoMjU1LDI1NSwyNTUsMC42KSI+SUQ6IDwvdHNwYW4+NzI0MjYwPC90ZXh0PjwvZz4gPGcgc3R5bGU9InRyYW5zZm9ybTp0cmFuc2xhdGUoMjlweCwgNDE0cHgpIj48cmVjdCB3aWR0aD0iMTQwcHgiIGhlaWdodD0iMjZweCIgcng9IjhweCIgcnk9IjhweCIgZmlsbD0icmdiYSgwLDAsMCwwLjYpIiAvPjx0ZXh0IHg9IjEycHgiIHk9IjE3cHgiIGZvbnQtZmFtaWx5PSInQ291cmllciBOZXcnLCBtb25vc3BhY2UiIGZvbnQtc2l6ZT0iMTJweCIgZmlsbD0id2hpdGUiPjx0c3BhbiBmaWxsPSJyZ2JhKDI1NSwyNTUsMjU1LDAuNikiPk1pbiBUaWNrOiA8L3RzcGFuPjE5Mzc0MDwvdGV4dD48L2c+IDxnIHN0eWxlPSJ0cmFuc2Zvcm06dHJhbnNsYXRlKDI5cHgsIDQ0NHB4KSI+PHJlY3Qgd2lkdGg9IjE0MHB4IiBoZWlnaHQ9IjI2cHgiIHJ4PSI4cHgiIHJ5PSI4cHgiIGZpbGw9InJnYmEoMCwwLDAsMC42KSIgLz48dGV4dCB4PSIxMnB4IiB5PSIxN3B4IiBmb250LWZhbWlseT0iJ0NvdXJpZXIgTmV3JywgbW9ub3NwYWNlIiBmb250LXNpemU9IjEycHgiIGZpbGw9IndoaXRlIj48dHNwYW4gZmlsbD0icmdiYSgyNTUsMjU1LDI1NSwwLjYpIj5NYXggVGljazogPC90c3Bhbj4xOTQ4MjA8L3RleHQ+PC9nPjxnIHN0eWxlPSJ0cmFuc2Zvcm06dHJhbnNsYXRlKDIyNnB4LCA0MzNweCkiPjxyZWN0IHdpZHRoPSIzNnB4IiBoZWlnaHQ9IjM2cHgiIHJ4PSI4cHgiIHJ5PSI4cHgiIGZpbGw9Im5vbmUiIHN0cm9rZT0icmdiYSgyNTUsMjU1LDI1NSwwLjIpIiAvPjxwYXRoIHN0cm9rZS1saW5lY2FwPSJyb3VuZCIgZD0iTTggOUM4LjAwMDA0IDIyLjk0OTQgMTYuMjA5OSAyOCAyNyAyOCIgZmlsbD0ibm9uZSIgc3Ryb2tlPSJ3aGl0ZSIgLz48Y2lyY2xlIHN0eWxlPSJ0cmFuc2Zvcm06dHJhbnNsYXRlM2QoMjRweCwgMjdweCwgMHB4KSIgY3g9IjBweCIgY3k9IjBweCIgcj0iNHB4IiBmaWxsPSJ3aGl0ZSIvPjwvZz48L3N2Zz4=\",\"metadata\":{\"description\":\"This
        NFT represents a liquidity position in a Uniswap V3 USDC-WETH pool. The owner
        of this NFT can modify or redeem the position.\\n\\nPool Address: 0xc1738d90e2e26c35784a0d3e3d8a9f795074bca4\\nUSDC
        Address: 0x0b2c639c533813f4aa9d7837caf62653d097ff85\\nWETH Address: 0x4200000000000000000000000000000000000006\\nFee
        Tier: 0.3%\\nToken ID: 724260\\n\\n\u26A0\uFE0F DISCLAIMER: Due diligence
        is imperative when assessing this NFT. Make sure token addresses match the
        expected tokens, as token symbols may be imitated.\",\"image\":\"data:image/svg+xml;base64,PHN2ZyB3aWR0aD0iMjkwIiBoZWlnaHQ9IjUwMCIgdmlld0JveD0iMCAwIDI5MCA1MDAiIHhtbG5zPSJodHRwOi8vd3d3LnczLm9yZy8yMDAwL3N2ZyIgeG1sbnM6eGxpbms9J2h0dHA6Ly93d3cudzMub3JnLzE5OTkveGxpbmsnPjxkZWZzPjxmaWx0ZXIgaWQ9ImYxIj48ZmVJbWFnZSByZXN1bHQ9InAwIiB4bGluazpocmVmPSJkYXRhOmltYWdlL3N2Zyt4bWw7YmFzZTY0LFBITjJaeUIzYVdSMGFEMG5Namt3SnlCb1pXbG5hSFE5SnpVd01DY2dkbWxsZDBKdmVEMG5NQ0F3SURJNU1DQTFNREFuSUhodGJHNXpQU2RvZEhSd09pOHZkM2QzTG5jekxtOXlaeTh5TURBd0wzTjJaeWMrUEhKbFkzUWdkMmxrZEdnOUp6STVNSEI0SnlCb1pXbG5hSFE5SnpVd01IQjRKeUJtYVd4c1BTY2pNR0l5WXpZekp5OCtQQzl6ZG1jKyIvPjxmZUltYWdlIHJlc3VsdD0icDEiIHhsaW5rOmhyZWY9ImRhdGE6aW1hZ2Uvc3ZnK3htbDtiYXNlNjQsUEhOMlp5QjNhV1IwYUQwbk1qa3dKeUJvWldsbmFIUTlKelV3TUNjZ2RtbGxkMEp2ZUQwbk1DQXdJREk1TUNBMU1EQW5JSGh0Ykc1elBTZG9kSFJ3T2k4dmQzZDNMbmN6TG05eVp5OHlNREF3TDNOMlp5YytQR05wY21Oc1pTQmplRDBuTVRVeUp5QmplVDBuTVRBd0p5QnlQU2N4TWpCd2VDY2dabWxzYkQwbkl6UXlNREF3TUNjdlBqd3ZjM1puUGc9PSIvPjxmZUltYWdlIHJlc3VsdD0icDIiIHhsaW5rOmhyZWY9ImRhdGE6aW1hZ2Uvc3ZnK3htbDtiYXNlNjQsUEhOMlp5QjNhV1IwYUQwbk1qa3dKeUJvWldsbmFIUTlKelV3TUNjZ2RtbGxkMEp2ZUQwbk1DQXdJREk1TUNBMU1EQW5JSGh0Ykc1elBTZG9kSFJ3T2k4dmQzZDNMbmN6TG05eVp5OHlNREF3TDNOMlp5YytQR05wY21Oc1pTQmplRDBuTVRVeUp5QmplVDBuTVRBd0p5QnlQU2N4TWpCd2VDY2dabWxzYkQwbkl6azNabVk0TlNjdlBqd3ZjM1puUGc9PSIgLz48ZmVJbWFnZSByZXN1bHQ9InAzIiB4bGluazpocmVmPSJkYXRhOmltYWdlL3N2Zyt4bWw7YmFzZTY0LFBITjJaeUIzYVdSMGFEMG5Namt3SnlCb1pXbG5hSFE5SnpVd01DY2dkbWxsZDBKdmVEMG5NQ0F3SURJNU1DQTFNREFuSUhodGJHNXpQU2RvZEhSd09pOHZkM2QzTG5jekxtOXlaeTh5TURBd0wzTjJaeWMrUEdOcGNtTnNaU0JqZUQwbk1qUXpKeUJqZVQwbk1UQXdKeUJ5UFNjeE1EQndlQ2NnWm1sc2JEMG5JekF3TURBd05pY3ZQand2YzNablBnPT0iIC8+PGZlQmxlbmQgbW9kZT0ib3ZlcmxheSIgaW49InAwIiBpbjI9InAxIiAvPjxmZUJsZW5kIG1vZGU9ImV4Y2x1c2lvbiIgaW4yPSJwMiIgLz48ZmVCbGVuZCBtb2RlPSJvdmVybGF5IiBpbjI9InAzIiByZXN1bHQ9ImJsZW5kT3V0IiAvPjxmZUdhdXNzaWFuQmx1ciBpbj0iYmxlbmRPdXQiIHN0ZERldmlhdGlvbj0iNDIiIC8+PC9maWx0ZXI+IDxjbGlwUGF0aCBpZD0iY29ybmVycyI+PHJlY3Qgd2lkdGg9IjI5MCIgaGVpZ2h0PSI1MDAiIHJ4PSI0MiIgcnk9IjQyIiAvPjwvY2xpcFBhdGg+PHBhdGggaWQ9InRleHQtcGF0aC1hIiBkPSJNNDAgMTIgSDI1MCBBMjggMjggMCAwIDEgMjc4IDQwIFY0NjAgQTI4IDI4IDAgMCAxIDI1MCA0ODggSDQwIEEyOCAyOCAwIDAgMSAxMiA0NjAgVjQwIEEyOCAyOCAwIDAgMSA0MCAxMiB6IiAvPjxwYXRoIGlkPSJtaW5pbWFwIiBkPSJNMjM0IDQ0NEMyMzQgNDU3Ljk0OSAyNDIuMjEgNDYzIDI1MyA0NjMiIC8+PGZpbHRlciBpZD0idG9wLXJlZ2lvbi1ibHVyIj48ZmVHYXVzc2lhbkJsdXIgaW49IlNvdXJjZUdyYXBoaWMiIHN0ZERldmlhdGlvbj0iMjQiIC8+PC9maWx0ZXI+PGxpbmVhckdyYWRpZW50IGlkPSJncmFkLXVwIiB4MT0iMSIgeDI9IjAiIHkxPSIxIiB5Mj0iMCI+PHN0b3Agb2Zmc2V0PSIwLjAiIHN0b3AtY29sb3I9IndoaXRlIiBzdG9wLW9wYWNpdHk9IjEiIC8+PHN0b3Agb2Zmc2V0PSIuOSIgc3RvcC1jb2xvcj0id2hpdGUiIHN0b3Atb3BhY2l0eT0iMCIgLz48L2xpbmVhckdyYWRpZW50PjxsaW5lYXJHcmFkaWVudCBpZD0iZ3JhZC1kb3duIiB4MT0iMCIgeDI9IjEiIHkxPSIwIiB5Mj0iMSI+PHN0b3Agb2Zmc2V0PSIwLjAiIHN0b3AtY29sb3I9IndoaXRlIiBzdG9wLW9wYWNpdHk9IjEiIC8+PHN0b3Agb2Zmc2V0PSIwLjkiIHN0b3AtY29sb3I9IndoaXRlIiBzdG9wLW9wYWNpdHk9IjAiIC8+PC9saW5lYXJHcmFkaWVudD48bWFzayBpZD0iZmFkZS11cCIgbWFza0NvbnRlbnRVbml0cz0ib2JqZWN0Qm91bmRpbmdCb3giPjxyZWN0IHdpZHRoPSIxIiBoZWlnaHQ9IjEiIGZpbGw9InVybCgjZ3JhZC11cCkiIC8+PC9tYXNrPjxtYXNrIGlkPSJmYWRlLWRvd24iIG1hc2tDb250ZW50VW5pdHM9Im9iamVjdEJvdW5kaW5nQm94Ij48cmVjdCB3aWR0aD0iMSIgaGVpZ2h0PSIxIiBmaWxsPSJ1cmwoI2dyYWQtZG93bikiIC8+PC9tYXNrPjxtYXNrIGlkPSJub25lIiBtYXNrQ29udGVudFVuaXRzPSJvYmplY3RCb3VuZGluZ0JveCI+PHJlY3Qgd2lkdGg9IjEiIGhlaWdodD0iMSIgZmlsbD0id2hpdGUiIC8+PC9tYXNrPjxsaW5lYXJHcmFkaWVudCBpZD0iZ3JhZC1zeW1ib2wiPjxzdG9wIG9mZnNldD0iMC43IiBzdG9wLWNvbG9yPSJ3aGl0ZSIgc3RvcC1vcGFjaXR5PSIxIiAvPjxzdG9wIG9mZnNldD0iLjk1IiBzdG9wLWNvbG9yPSJ3aGl0ZSIgc3RvcC1vcGFjaXR5PSIwIiAvPjwvbGluZWFyR3JhZGllbnQ+PG1hc2sgaWQ9ImZhZGUtc3ltYm9sIiBtYXNrQ29udGVudFVuaXRzPSJ1c2VyU3BhY2VPblVzZSI+PHJlY3Qgd2lkdGg9IjI5MHB4IiBoZWlnaHQ9IjIwMHB4IiBmaWxsPSJ1cmwoI2dyYWQtc3ltYm9sKSIgLz48L21hc2s+PC9kZWZzPjxnIGNsaXAtcGF0aD0idXJsKCNjb3JuZXJzKSI+PHJlY3QgZmlsbD0iMGIyYzYzIiB4PSIwcHgiIHk9IjBweCIgd2lkdGg9IjI5MHB4IiBoZWlnaHQ9IjUwMHB4IiAvPjxyZWN0IHN0eWxlPSJmaWx0ZXI6IHVybCgjZjEpIiB4PSIwcHgiIHk9IjBweCIgd2lkdGg9IjI5MHB4IiBoZWlnaHQ9IjUwMHB4IiAvPiA8ZyBzdHlsZT0iZmlsdGVyOnVybCgjdG9wLXJlZ2lvbi1ibHVyKTsgdHJhbnNmb3JtOnNjYWxlKDEuNSk7IHRyYW5zZm9ybS1vcmlnaW46Y2VudGVyIHRvcDsiPjxyZWN0IGZpbGw9Im5vbmUiIHg9IjBweCIgeT0iMHB4IiB3aWR0aD0iMjkwcHgiIGhlaWdodD0iNTAwcHgiIC8+PGVsbGlwc2UgY3g9IjUwJSIgY3k9IjBweCIgcng9IjE4MHB4IiByeT0iMTIwcHgiIGZpbGw9IiMwMDAiIG9wYWNpdHk9IjAuODUiIC8+PC9nPjxyZWN0IHg9IjAiIHk9IjAiIHdpZHRoPSIyOTAiIGhlaWdodD0iNTAwIiByeD0iNDIiIHJ5PSI0MiIgZmlsbD0icmdiYSgwLDAsMCwwKSIgc3Ryb2tlPSJyZ2JhKDI1NSwyNTUsMjU1LDAuMikiIC8+PC9nPjx0ZXh0IHRleHQtcmVuZGVyaW5nPSJvcHRpbWl6ZVNwZWVkIj48dGV4dFBhdGggc3RhcnRPZmZzZXQ9Ii0xMDAlIiBmaWxsPSJ3aGl0ZSIgZm9udC1mYW1pbHk9IidDb3VyaWVyIE5ldycsIG1vbm9zcGFjZSIgZm9udC1zaXplPSIxMHB4IiB4bGluazpocmVmPSIjdGV4dC1wYXRoLWEiPjB4NDIwMDAwMDAwMDAwMDAwMDAwMDAwMDAwMDAwMDAwMDAwMDAwMDAwNiDigKIgV0VUSCA8YW5pbWF0ZSBhZGRpdGl2ZT0ic3VtIiBhdHRyaWJ1dGVOYW1lPSJzdGFydE9mZnNldCIgZnJvbT0iMCUiIHRvPSIxMDAlIiBiZWdpbj0iMHMiIGR1cj0iMzBzIiByZXBlYXRDb3VudD0iaW5kZWZpbml0ZSIgLz48L3RleHRQYXRoPiA8dGV4dFBhdGggc3RhcnRPZmZzZXQ9IjAlIiBmaWxsPSJ3aGl0ZSIgZm9udC1mYW1pbHk9IidDb3VyaWVyIE5ldycsIG1vbm9zcGFjZSIgZm9udC1zaXplPSIxMHB4IiB4bGluazpocmVmPSIjdGV4dC1wYXRoLWEiPjB4NDIwMDAwMDAwMDAwMDAwMDAwMDAwMDAwMDAwMDAwMDAwMDAwMDAwNiDigKIgV0VUSCA8YW5pbWF0ZSBhZGRpdGl2ZT0ic3VtIiBhdHRyaWJ1dGVOYW1lPSJzdGFydE9mZnNldCIgZnJvbT0iMCUiIHRvPSIxMDAlIiBiZWdpbj0iMHMiIGR1cj0iMzBzIiByZXBlYXRDb3VudD0iaW5kZWZpbml0ZSIgLz4gPC90ZXh0UGF0aD48dGV4dFBhdGggc3RhcnRPZmZzZXQ9IjUwJSIgZmlsbD0id2hpdGUiIGZvbnQtZmFtaWx5PSInQ291cmllciBOZXcnLCBtb25vc3BhY2UiIGZvbnQtc2l6ZT0iMTBweCIgeGxpbms6aHJlZj0iI3RleHQtcGF0aC1hIj4weDBiMmM2MzljNTMzODEzZjRhYTlkNzgzN2NhZjYyNjUzZDA5N2ZmODUg4oCiIFVTREMgPGFuaW1hdGUgYWRkaXRpdmU9InN1bSIgYXR0cmlidXRlTmFtZT0ic3RhcnRPZmZzZXQiIGZyb209IjAlIiB0bz0iMTAwJSIgYmVnaW49IjBzIiBkdXI9IjMwcyIgcmVwZWF0Q291bnQ9ImluZGVmaW5pdGUiIC8+PC90ZXh0UGF0aD48dGV4dFBhdGggc3RhcnRPZmZzZXQ9Ii01MCUiIGZpbGw9IndoaXRlIiBmb250LWZhbWlseT0iJ0NvdXJpZXIgTmV3JywgbW9ub3NwYWNlIiBmb250LXNpemU9IjEwcHgiIHhsaW5rOmhyZWY9IiN0ZXh0LXBhdGgtYSI+MHgwYjJjNjM5YzUzMzgxM2Y0YWE5ZDc4MzdjYWY2MjY1M2QwOTdmZjg1IOKAoiBVU0RDIDxhbmltYXRlIGFkZGl0aXZlPSJzdW0iIGF0dHJpYnV0ZU5hbWU9InN0YXJ0T2Zmc2V0IiBmcm9tPSIwJSIgdG89IjEwMCUiIGJlZ2luPSIwcyIgZHVyPSIzMHMiIHJlcGVhdENvdW50PSJpbmRlZmluaXRlIiAvPjwvdGV4dFBhdGg+PC90ZXh0PjxnIG1hc2s9InVybCgjZmFkZS1zeW1ib2wpIj48cmVjdCBmaWxsPSJub25lIiB4PSIwcHgiIHk9IjBweCIgd2lkdGg9IjI5MHB4IiBoZWlnaHQ9IjIwMHB4IiAvPiA8dGV4dCB5PSI3MHB4IiB4PSIzMnB4IiBmaWxsPSJ3aGl0ZSIgZm9udC1mYW1pbHk9IidDb3VyaWVyIE5ldycsIG1vbm9zcGFjZSIgZm9udC13ZWlnaHQ9IjIwMCIgZm9udC1zaXplPSIzNnB4Ij5VU0RDL1dFVEg8L3RleHQ+PHRleHQgeT0iMTE1cHgiIHg9IjMycHgiIGZpbGw9IndoaXRlIiBmb250LWZhbWlseT0iJ0NvdXJpZXIgTmV3JywgbW9ub3NwYWNlIiBmb250LXdlaWdodD0iMjAwIiBmb250LXNpemU9IjM2cHgiPjAuMyU8L3RleHQ+PC9nPjxyZWN0IHg9IjE2IiB5PSIxNiIgd2lkdGg9IjI1OCIgaGVpZ2h0PSI0NjgiIHJ4PSIyNiIgcnk9IjI2IiBmaWxsPSJyZ2JhKDAsMCwwLDApIiBzdHJva2U9InJnYmEoMjU1LDI1NSwyNTUsMC4yKSIgLz48ZyBtYXNrPSJ1cmwoI2ZhZGUtdXApIiBzdHlsZT0idHJhbnNmb3JtOnRyYW5zbGF0ZSg3MnB4LDE4OXB4KSI+PHJlY3QgeD0iLTE2cHgiIHk9Ii0xNnB4IiB3aWR0aD0iMTgwcHgiIGhlaWdodD0iMTgwcHgiIGZpbGw9Im5vbmUiIC8+PHBhdGggZD0iTTEgMUMyNSA2NSA4MSAxMjEgMTQ1IDE0NSIgc3Ryb2tlPSJyZ2JhKDAsMCwwLDAuMykiIHN0cm9rZS13aWR0aD0iMzJweCIgZmlsbD0ibm9uZSIgc3Ryb2tlLWxpbmVjYXA9InJvdW5kIiAvPjwvZz48ZyBtYXNrPSJ1cmwoI2ZhZGUtdXApIiBzdHlsZT0idHJhbnNmb3JtOnRyYW5zbGF0ZSg3MnB4LDE4OXB4KSI+PHJlY3QgeD0iLTE2cHgiIHk9Ii0xNnB4IiB3aWR0aD0iMTgwcHgiIGhlaWdodD0iMTgwcHgiIGZpbGw9Im5vbmUiIC8+PHBhdGggZD0iTTEgMUMyNSA2NSA4MSAxMjEgMTQ1IDE0NSIgc3Ryb2tlPSJyZ2JhKDI1NSwyNTUsMjU1LDEpIiBmaWxsPSJub25lIiBzdHJva2UtbGluZWNhcD0icm91bmQiIC8+PC9nPjxjaXJjbGUgY3g9IjIxN3B4IiBjeT0iMzM0cHgiIHI9IjRweCIgZmlsbD0id2hpdGUiIC8+PGNpcmNsZSBjeD0iMjE3cHgiIGN5PSIzMzRweCIgcj0iMjRweCIgZmlsbD0ibm9uZSIgc3Ryb2tlPSJ3aGl0ZSIgLz4gPGcgc3R5bGU9InRyYW5zZm9ybTp0cmFuc2xhdGUoMjlweCwgMzg0cHgpIj48cmVjdCB3aWR0aD0iOThweCIgaGVpZ2h0PSIyNnB4IiByeD0iOHB4IiByeT0iOHB4IiBmaWxsPSJyZ2JhKDAsMCwwLDAuNikiIC8+PHRleHQgeD0iMTJweCIgeT0iMTdweCIgZm9udC1mYW1pbHk9IidDb3VyaWVyIE5ldycsIG1vbm9zcGFjZSIgZm9udC1zaXplPSIxMnB4IiBmaWxsPSJ3aGl0ZSI+PHRzcGFuIGZpbGw9InJnYmEoMjU1LDI1NSwyNTUsMC42KSI+SUQ6IDwvdHNwYW4+NzI0MjYwPC90ZXh0PjwvZz4gPGcgc3R5bGU9InRyYW5zZm9ybTp0cmFuc2xhdGUoMjlweCwgNDE0cHgpIj48cmVjdCB3aWR0aD0iMTQwcHgiIGhlaWdodD0iMjZweCIgcng9IjhweCIgcnk9IjhweCIgZmlsbD0icmdiYSgwLDAsMCwwLjYpIiAvPjx0ZXh0IHg9IjEycHgiIHk9IjE3cHgiIGZvbnQtZmFtaWx5PSInQ291cmllciBOZXcnLCBtb25vc3BhY2UiIGZvbnQtc2l6ZT0iMTJweCIgZmlsbD0id2hpdGUiPjx0c3BhbiBmaWxsPSJyZ2JhKDI1NSwyNTUsMjU1LDAuNikiPk1pbiBUaWNrOiA8L3RzcGFuPjE5Mzc0MDwvdGV4dD48L2c+IDxnIHN0eWxlPSJ0cmFuc2Zvcm06dHJhbnNsYXRlKDI5cHgsIDQ0NHB4KSI+PHJlY3Qgd2lkdGg9IjE0MHB4IiBoZWlnaHQ9IjI2cHgiIHJ4PSI4cHgiIHJ5PSI4cHgiIGZpbGw9InJnYmEoMCwwLDAsMC42KSIgLz48dGV4dCB4PSIxMnB4IiB5PSIxN3B4IiBmb250LWZhbWlseT0iJ0NvdXJpZXIgTmV3JywgbW9ub3NwYWNlIiBmb250LXNpemU9IjEycHgiIGZpbGw9IndoaXRlIj48dHNwYW4gZmlsbD0icmdiYSgyNTUsMjU1LDI1NSwwLjYpIj5NYXggVGljazogPC90c3Bhbj4xOTQ4MjA8L3RleHQ+PC9nPjxnIHN0eWxlPSJ0cmFuc2Zvcm06dHJhbnNsYXRlKDIyNnB4LCA0MzNweCkiPjxyZWN0IHdpZHRoPSIzNnB4IiBoZWlnaHQ9IjM2cHgiIHJ4PSI4cHgiIHJ5PSI4cHgiIGZpbGw9Im5vbmUiIHN0cm9rZT0icmdiYSgyNTUsMjU1LDI1NSwwLjIpIiAvPjxwYXRoIHN0cm9rZS1saW5lY2FwPSJyb3VuZCIgZD0iTTggOUM4LjAwMDA0IDIyLjk0OTQgMTYuMjA5OSAyOCAyNyAyOCIgZmlsbD0ibm9uZSIgc3Ryb2tlPSJ3aGl0ZSIgLz48Y2lyY2xlIHN0eWxlPSJ0cmFuc2Zvcm06dHJhbnNsYXRlM2QoMjRweCwgMjdweCwgMHB4KSIgY3g9IjBweCIgY3k9IjBweCIgcj0iNHB4IiBmaWxsPSJ3aGl0ZSIvPjwvZz48L3N2Zz4=\",\"name\":\"Uniswap
        - 0.3% - USDC/WETH - 3463.4<>3858.3\"},\"owner\":null,\"thumbnails\":null,\"token\":{\"address_hash\":\"0xC36442b4a4522E871399CD717aBDD847Ab11FE88\",\"circulating_market_cap\":null,\"decimals\":null,\"exchange_rate\":null,\"holders_count\":\"163053\",\"icon_url\":null,\"name\":\"Uniswap
        V3 Positions NFT-V1\",\"reputation\":\"ok\",\"symbol\":\"UNI-V3-POS\",\"total_supply\":\"955604\",\"type\":\"ERC-721\",\"volume_24h\":null}}},\"transaction_hash\":\"0x6d11b151d37310d148ca9177b436bad7f5caea7bb41591acf7b2d11466088d80\",\"type\":\"token_transfer\"},{\"block_hash\":\"0x324b2e7715df8e62cd54bbb2f92ccda318ef835a434077f5349be532629bfac9\",\"block_number\":126758816,\"from\":{\"ens_domain_name\":null,\"hash\":\"0xc1738D90E2E26C35784A0d3E3d8A9f795074bcA4\",\"implementations\":[],\"is_contract\":true,\"is_scam\":false,\"is_verified\":true,\"metadata\":null,\"name\":\"UniswapV3Pool\",\"private_tags\":[],\"proxy_type\":null,\"public_tags\":[],\"reputation\":\"ok\",\"watchlist_names\":[]},\"log_index\":282,\"method\":null,\"timestamp\":null,\"to\":{\"ens_domain_name\":null,\"hash\":\"0x410b72CcfeAcBB20a31785eDAA358D25a07e143D\",\"implementations\":[],\"is_contract\":true,\"is_scam\":false,\"is_verified\":true,\"metadata\":{\"tags\":[{\"meta\":{\"tooltipUrl\":\"https://krystal.app/\"},\"name\":\"Krystal:
        V3 Utils\",\"ordinal\":10,\"slug\":\"krystal-v3-utils\",\"tagType\":\"name\"},{\"meta\":{\"appActionButtonText\":\"Krystal\",\"appID\":\"krystal\"},\"name\":\"Krystal\",\"ordinal\":0,\"slug\":\"krystal\",\"tagType\":\"protocol\"}]},\"name\":\"V3Utils\",\"private_tags\":[],\"proxy_type\":null,\"public_tags\":[],\"reputation\":\"ok\",\"watchlist_names\":[]},\"token\":{\"address_hash\":\"0x4200000000000000000000000000000000000006\",\"circulating_market_cap\":\"67468090.56184527\",\"decimals\":\"18\",\"exchange_rate\":\"2891.75\",\"holders_count\":\"300943\",\"icon_url\":\"https://assets.coingecko.com/coins/images/39715/small/WETH.PNG?1723731805\",\"name\":\"L2
        Standard Bridged WETH (Optimism)\",\"reputation\":\"ok\",\"symbol\":\"WETH\",\"total_supply\":\"23412377594790033826661\",\"type\":\"ERC-20\",\"volume_24h\":\"18497113.830982957\"},\"token_type\":\"ERC-20\",\"total\":{\"decimals\":\"18\",\"value\":\"13168861883336306\"},\"transaction_hash\":\"0x6d11b151d37310d148ca9177b436bad7f5caea7bb41591acf7b2d11466088d80\",\"type\":\"token_transfer\"},{\"block_hash\":\"0x324b2e7715df8e62cd54bbb2f92ccda318ef835a434077f5349be532629bfac9\",\"block_number\":126758816,\"from\":{\"ens_domain_name\":null,\"hash\":\"0x410b72CcfeAcBB20a31785eDAA358D25a07e143D\",\"implementations\":[],\"is_contract\":true,\"is_scam\":false,\"is_verified\":true,\"metadata\":{\"tags\":[{\"meta\":{\"tooltipUrl\":\"https://krystal.app/\"},\"name\":\"Krystal:
        V3 Utils\",\"ordinal\":10,\"slug\":\"krystal-v3-utils\",\"tagType\":\"name\"},{\"meta\":{\"appActionButtonText\":\"Krystal\",\"appID\":\"krystal\"},\"name\":\"Krystal\",\"ordinal\":0,\"slug\":\"krystal\",\"tagType\":\"protocol\"}]},\"name\":\"V3Utils\",\"private_tags\":[],\"proxy_type\":null,\"public_tags\":[],\"reputation\":\"ok\",\"watchlist_names\":[]},\"log_index\":285,\"method\":null,\"timestamp\":null,\"to\":{\"ens_domain_name\":null,\"hash\":\"0x8C4f68B691BDc29deCe2c4e569a6Cff3f042676f\",\"implementations\":[],\"is_contract\":false,\"is_scam\":false,\"is_verified\":false,\"metadata\":null,\"name\":null,\"private_tags\":[],\"proxy_type\":null,\"public_tags\":[],\"reputation\":\"ok\",\"watchlist_names\":[]},\"token\":{\"address_hash\":\"0x4200000000000000000000000000000000000006\",\"circulating_market_cap\":\"67468090.56184527\",\"decimals\":\"18\",\"exchange_rate\":\"2891.75\",\"holders_count\":\"300943\",\"icon_url\":\"https://assets.coingecko.com/coins/images/39715/small/WETH.PNG?1723731805\",\"name\":\"L2
        Standard Bridged WETH (Optimism)\",\"reputation\":\"ok\",\"symbol\":\"WETH\",\"total_supply\":\"23412377594790033826661\",\"type\":\"ERC-20\",\"volume_24h\":\"18497113.830982957\"},\"token_type\":\"ERC-20\",\"total\":{\"decimals\":\"18\",\"value\":\"13168861883336\"},\"transaction_hash\":\"0x6d11b151d37310d148ca9177b436bad7f5caea7bb41591acf7b2d11466088d80\",\"type\":\"token_transfer\"},{\"block_hash\":\"0x324b2e7715df8e62cd54bbb2f92ccda318ef835a434077f5349be532629bfac9\",\"block_number\":126758816,\"from\":{\"ens_domain_name\":null,\"hash\":\"0x410b72CcfeAcBB20a31785eDAA358D25a07e143D\",\"implementations\":[],\"is_contract\":true,\"is_scam\":false,\"is_verified\":true,\"metadata\":{\"tags\":[{\"meta\":{\"tooltipUrl\":\"https://krystal.app/\"},\"name\":\"Krystal:
        V3 Utils\",\"ordinal\":10,\"slug\":\"krystal-v3-utils\",\"tagType\":\"name\"},{\"meta\":{\"appActionButtonText\":\"Krystal\",\"appID\":\"krystal\"},\"name\":\"Krystal\",\"ordinal\":0,\"slug\":\"krystal\",\"tagType\":\"protocol\"}]},\"name\":\"V3Utils\",\"private_tags\":[],\"proxy_type\":null,\"public_tags\":[],\"reputation\":\"ok\",\"watchlist_names\":[]},\"log_index\":287,\"method\":null,\"timestamp\":null,\"to\":{\"ens_domain_name\":null,\"hash\":\"0x0000000000000000000000000000000000000000\",\"implementations\":[],\"is_contract\":false,\"is_scam\":false,\"is_verified\":false,\"metadata\":{\"tags\":[{\"meta\":{},\"name\":\"Null:
        0x000...000\",\"ordinal\":10,\"slug\":\"null-0x000000\",\"tagType\":\"name\"},{\"meta\":{},\"name\":\"Metamask
        User\",\"ordinal\":0,\"slug\":\"metamask-user\",\"tagType\":\"generic\"},{\"meta\":{},\"name\":\"Imtoken
        User\",\"ordinal\":0,\"slug\":\"imtoken-user\",\"tagType\":\"generic\"},{\"meta\":{},\"name\":\"Miner\",\"ordinal\":0,\"slug\":\"miner\",\"tagType\":\"generic\"},{\"meta\":{},\"name\":\"Burn\",\"ordinal\":0,\"slug\":\"burn\",\"tagType\":\"generic\"},{\"meta\":{\"alertStatus\":\"info\",\"data\":\"This
        address is commonly used by projects to burn tokens (reducing total supply).\"},\"name\":\"note_0\",\"ordinal\":0,\"slug\":\"note0\",\"tagType\":\"note\"},{\"meta\":{},\"name\":\"Null\",\"ordinal\":0,\"slug\":\"null\",\"tagType\":\"protocol\"}]},\"name\":null,\"private_tags\":[],\"proxy_type\":null,\"public_tags\":[],\"reputation\":\"ok\",\"watchlist_names\":[]},\"token\":{\"address_hash\":\"0x4200000000000000000000000000000000000006\",\"circulating_market_cap\":\"67468090.56184527\",\"decimals\":\"18\",\"exchange_rate\":\"2891.75\",\"holders_count\":\"300943\",\"icon_url\":\"https://assets.coingecko.com/coins/images/39715/small/WETH.PNG?1723731805\",\"name\":\"L2
        Standard Bridged WETH (Optimism)\",\"reputation\":\"ok\",\"symbol\":\"WETH\",\"total_supply\":\"23412377594790033826661\",\"type\":\"ERC-20\",\"volume_24h\":\"18497113.830982957\"},\"token_type\":\"ERC-20\",\"total\":{\"decimals\":\"18\",\"value\":\"13155693021452970\"},\"transaction_hash\":\"0x6d11b151d37310d148ca9177b436bad7f5caea7bb41591acf7b2d11466088d80\",\"type\":\"token_burning\"},{\"block_hash\":\"0x324b2e7715df8e62cd54bbb2f92ccda318ef835a434077f5349be532629bfac9\",\"block_number\":126758816,\"from\":{\"ens_domain_name\":null,\"hash\":\"0x410b72CcfeAcBB20a31785eDAA358D25a07e143D\",\"implementations\":[],\"is_contract\":true,\"is_scam\":false,\"is_verified\":true,\"metadata\":{\"tags\":[{\"meta\":{\"tooltipUrl\":\"https://krystal.app/\"},\"name\":\"Krystal:
        V3 Utils\",\"ordinal\":10,\"slug\":\"krystal-v3-utils\",\"tagType\":\"name\"},{\"meta\":{\"appActionButtonText\":\"Krystal\",\"appID\":\"krystal\"},\"name\":\"Krystal\",\"ordinal\":0,\"slug\":\"krystal\",\"tagType\":\"protocol\"}]},\"name\":\"V3Utils\",\"private_tags\":[],\"proxy_type\":null,\"public_tags\":[],\"reputation\":\"ok\",\"watchlist_names\":[]},\"log_index\":290,\"method\":null,\"timestamp\":null,\"to\":{\"ens_domain_name\":\"javxq.eth\",\"hash\":\"0x706A70067BE19BdadBea3600Db0626859Ff25D74\",\"implementations\":[],\"is_contract\":false,\"is_scam\":false,\"is_verified\":false,\"metadata\":null,\"name\":null,\"private_tags\":[],\"proxy_type\":null,\"public_tags\":[],\"reputation\":\"ok\",\"watchlist_names\":[]},\"token\":{\"address_hash\":\"0xC36442b4a4522E871399CD717aBDD847Ab11FE88\",\"circulating_market_cap\":null,\"decimals\":null,\"exchange_rate\":null,\"holders_count\":\"163053\",\"icon_url\":null,\"name\":\"Uniswap
        V3 Positions NFT-V1\",\"reputation\":\"ok\",\"symbol\":\"UNI-V3-POS\",\"total_supply\":\"955604\",\"type\":\"ERC-721\",\"volume_24h\":null},\"token_type\":\"ERC-721\",\"total\":{\"token_id\":\"724260\",\"token_instance\":{\"animation_url\":null,\"external_app_url\":null,\"id\":\"724260\",\"image_url\":\"data:image/svg+xml;base64,PHN2ZyB3aWR0aD0iMjkwIiBoZWlnaHQ9IjUwMCIgdmlld0JveD0iMCAwIDI5MCA1MDAiIHhtbG5zPSJodHRwOi8vd3d3LnczLm9yZy8yMDAwL3N2ZyIgeG1sbnM6eGxpbms9J2h0dHA6Ly93d3cudzMub3JnLzE5OTkveGxpbmsnPjxkZWZzPjxmaWx0ZXIgaWQ9ImYxIj48ZmVJbWFnZSByZXN1bHQ9InAwIiB4bGluazpocmVmPSJkYXRhOmltYWdlL3N2Zyt4bWw7YmFzZTY0LFBITjJaeUIzYVdSMGFEMG5Namt3SnlCb1pXbG5hSFE5SnpVd01DY2dkbWxsZDBKdmVEMG5NQ0F3SURJNU1DQTFNREFuSUhodGJHNXpQU2RvZEhSd09pOHZkM2QzTG5jekxtOXlaeTh5TURBd0wzTjJaeWMrUEhKbFkzUWdkMmxrZEdnOUp6STVNSEI0SnlCb1pXbG5hSFE5SnpVd01IQjRKeUJtYVd4c1BTY2pNR0l5WXpZekp5OCtQQzl6ZG1jKyIvPjxmZUltYWdlIHJlc3VsdD0icDEiIHhsaW5rOmhyZWY9ImRhdGE6aW1hZ2Uvc3ZnK3htbDtiYXNlNjQsUEhOMlp5QjNhV1IwYUQwbk1qa3dKeUJvWldsbmFIUTlKelV3TUNjZ2RtbGxkMEp2ZUQwbk1DQXdJREk1TUNBMU1EQW5JSGh0Ykc1elBTZG9kSFJ3T2k4dmQzZDNMbmN6TG05eVp5OHlNREF3TDNOMlp5YytQR05wY21Oc1pTQmplRDBuTVRVeUp5QmplVDBuTVRBd0p5QnlQU2N4TWpCd2VDY2dabWxzYkQwbkl6UXlNREF3TUNjdlBqd3ZjM1puUGc9PSIvPjxmZUltYWdlIHJlc3VsdD0icDIiIHhsaW5rOmhyZWY9ImRhdGE6aW1hZ2Uvc3ZnK3htbDtiYXNlNjQsUEhOMlp5QjNhV1IwYUQwbk1qa3dKeUJvWldsbmFIUTlKelV3TUNjZ2RtbGxkMEp2ZUQwbk1DQXdJREk1TUNBMU1EQW5JSGh0Ykc1elBTZG9kSFJ3T2k4dmQzZDNMbmN6TG05eVp5OHlNREF3TDNOMlp5YytQR05wY21Oc1pTQmplRDBuTVRVeUp5QmplVDBuTVRBd0p5QnlQU2N4TWpCd2VDY2dabWxzYkQwbkl6azNabVk0TlNjdlBqd3ZjM1puUGc9PSIgLz48ZmVJbWFnZSByZXN1bHQ9InAzIiB4bGluazpocmVmPSJkYXRhOmltYWdlL3N2Zyt4bWw7YmFzZTY0LFBITjJaeUIzYVdSMGFEMG5Namt3SnlCb1pXbG5hSFE5SnpVd01DY2dkbWxsZDBKdmVEMG5NQ0F3SURJNU1DQTFNREFuSUhodGJHNXpQU2RvZEhSd09pOHZkM2QzTG5jekxtOXlaeTh5TURBd0wzTjJaeWMrUEdOcGNtTnNaU0JqZUQwbk1qUXpKeUJqZVQwbk1UQXdKeUJ5UFNjeE1EQndlQ2NnWm1sc2JEMG5JekF3TURBd05pY3ZQand2YzNablBnPT0iIC8+PGZlQmxlbmQgbW9kZT0ib3ZlcmxheSIgaW49InAwIiBpbjI9InAxIiAvPjxmZUJsZW5kIG1vZGU9ImV4Y2x1c2lvbiIgaW4yPSJwMiIgLz48ZmVCbGVuZCBtb2RlPSJvdmVybGF5IiBpbjI9InAzIiByZXN1bHQ9ImJsZW5kT3V0IiAvPjxmZUdhdXNzaWFuQmx1ciBpbj0iYmxlbmRPdXQiIHN0ZERldmlhdGlvbj0iNDIiIC8+PC9maWx0ZXI+IDxjbGlwUGF0aCBpZD0iY29ybmVycyI+PHJlY3Qgd2lkdGg9IjI5MCIgaGVpZ2h0PSI1MDAiIHJ4PSI0MiIgcnk9IjQyIiAvPjwvY2xpcFBhdGg+PHBhdGggaWQ9InRleHQtcGF0aC1hIiBkPSJNNDAgMTIgSDI1MCBBMjggMjggMCAwIDEgMjc4IDQwIFY0NjAgQTI4IDI4IDAgMCAxIDI1MCA0ODggSDQwIEEyOCAyOCAwIDAgMSAxMiA0NjAgVjQwIEEyOCAyOCAwIDAgMSA0MCAxMiB6IiAvPjxwYXRoIGlkPSJtaW5pbWFwIiBkPSJNMjM0IDQ0NEMyMzQgNDU3Ljk0OSAyNDIuMjEgNDYzIDI1MyA0NjMiIC8+PGZpbHRlciBpZD0idG9wLXJlZ2lvbi1ibHVyIj48ZmVHYXVzc2lhbkJsdXIgaW49IlNvdXJjZUdyYXBoaWMiIHN0ZERldmlhdGlvbj0iMjQiIC8+PC9maWx0ZXI+PGxpbmVhckdyYWRpZW50IGlkPSJncmFkLXVwIiB4MT0iMSIgeDI9IjAiIHkxPSIxIiB5Mj0iMCI+PHN0b3Agb2Zmc2V0PSIwLjAiIHN0b3AtY29sb3I9IndoaXRlIiBzdG9wLW9wYWNpdHk9IjEiIC8+PHN0b3Agb2Zmc2V0PSIuOSIgc3RvcC1jb2xvcj0id2hpdGUiIHN0b3Atb3BhY2l0eT0iMCIgLz48L2xpbmVhckdyYWRpZW50PjxsaW5lYXJHcmFkaWVudCBpZD0iZ3JhZC1kb3duIiB4MT0iMCIgeDI9IjEiIHkxPSIwIiB5Mj0iMSI+PHN0b3Agb2Zmc2V0PSIwLjAiIHN0b3AtY29sb3I9IndoaXRlIiBzdG9wLW9wYWNpdHk9IjEiIC8+PHN0b3Agb2Zmc2V0PSIwLjkiIHN0b3AtY29sb3I9IndoaXRlIiBzdG9wLW9wYWNpdHk9IjAiIC8+PC9saW5lYXJHcmFkaWVudD48bWFzayBpZD0iZmFkZS11cCIgbWFza0NvbnRlbnRVbml0cz0ib2JqZWN0Qm91bmRpbmdCb3giPjxyZWN0IHdpZHRoPSIxIiBoZWlnaHQ9IjEiIGZpbGw9InVybCgjZ3JhZC11cCkiIC8+PC9tYXNrPjxtYXNrIGlkPSJmYWRlLWRvd24iIG1hc2tDb250ZW50VW5pdHM9Im9iamVjdEJvdW5kaW5nQm94Ij48cmVjdCB3aWR0aD0iMSIgaGVpZ2h0PSIxIiBmaWxsPSJ1cmwoI2dyYWQtZG93bikiIC8+PC9tYXNrPjxtYXNrIGlkPSJub25lIiBtYXNrQ29udGVudFVuaXRzPSJvYmplY3RCb3VuZGluZ0JveCI+PHJlY3Qgd2lkdGg9IjEiIGhlaWdodD0iMSIgZmlsbD0id2hpdGUiIC8+PC9tYXNrPjxsaW5lYXJHcmFkaWVudCBpZD0iZ3JhZC1zeW1ib2wiPjxzdG9wIG9mZnNldD0iMC43IiBzdG9wLWNvbG9yPSJ3aGl0ZSIgc3RvcC1vcGFjaXR5PSIxIiAvPjxzdG9wIG9mZnNldD0iLjk1IiBzdG9wLWNvbG9yPSJ3aGl0ZSIgc3RvcC1vcGFjaXR5PSIwIiAvPjwvbGluZWFyR3JhZGllbnQ+PG1hc2sgaWQ9ImZhZGUtc3ltYm9sIiBtYXNrQ29udGVudFVuaXRzPSJ1c2VyU3BhY2VPblVzZSI+PHJlY3Qgd2lkdGg9IjI5MHB4IiBoZWlnaHQ9IjIwMHB4IiBmaWxsPSJ1cmwoI2dyYWQtc3ltYm9sKSIgLz48L21hc2s+PC9kZWZzPjxnIGNsaXAtcGF0aD0idXJsKCNjb3JuZXJzKSI+PHJlY3QgZmlsbD0iMGIyYzYzIiB4PSIwcHgiIHk9IjBweCIgd2lkdGg9IjI5MHB4IiBoZWlnaHQ9IjUwMHB4IiAvPjxyZWN0IHN0eWxlPSJmaWx0ZXI6IHVybCgjZjEpIiB4PSIwcHgiIHk9IjBweCIgd2lkdGg9IjI5MHB4IiBoZWlnaHQ9IjUwMHB4IiAvPiA8ZyBzdHlsZT0iZmlsdGVyOnVybCgjdG9wLXJlZ2lvbi1ibHVyKTsgdHJhbnNmb3JtOnNjYWxlKDEuNSk7IHRyYW5zZm9ybS1vcmlnaW46Y2VudGVyIHRvcDsiPjxyZWN0IGZpbGw9Im5vbmUiIHg9IjBweCIgeT0iMHB4IiB3aWR0aD0iMjkwcHgiIGhlaWdodD0iNTAwcHgiIC8+PGVsbGlwc2UgY3g9IjUwJSIgY3k9IjBweCIgcng9IjE4MHB4IiByeT0iMTIwcHgiIGZpbGw9IiMwMDAiIG9wYWNpdHk9IjAuODUiIC8+PC9nPjxyZWN0IHg9IjAiIHk9IjAiIHdpZHRoPSIyOTAiIGhlaWdodD0iNTAwIiByeD0iNDIiIHJ5PSI0MiIgZmlsbD0icmdiYSgwLDAsMCwwKSIgc3Ryb2tlPSJyZ2JhKDI1NSwyNTUsMjU1LDAuMikiIC8+PC9nPjx0ZXh0IHRleHQtcmVuZGVyaW5nPSJvcHRpbWl6ZVNwZWVkIj48dGV4dFBhdGggc3RhcnRPZmZzZXQ9Ii0xMDAlIiBmaWxsPSJ3aGl0ZSIgZm9udC1mYW1pbHk9IidDb3VyaWVyIE5ldycsIG1vbm9zcGFjZSIgZm9udC1zaXplPSIxMHB4IiB4bGluazpocmVmPSIjdGV4dC1wYXRoLWEiPjB4NDIwMDAwMDAwMDAwMDAwMDAwMDAwMDAwMDAwMDAwMDAwMDAwMDAwNiDigKIgV0VUSCA8YW5pbWF0ZSBhZGRpdGl2ZT0ic3VtIiBhdHRyaWJ1dGVOYW1lPSJzdGFydE9mZnNldCIgZnJvbT0iMCUiIHRvPSIxMDAlIiBiZWdpbj0iMHMiIGR1cj0iMzBzIiByZXBlYXRDb3VudD0iaW5kZWZpbml0ZSIgLz48L3RleHRQYXRoPiA8dGV4dFBhdGggc3RhcnRPZmZzZXQ9IjAlIiBmaWxsPSJ3aGl0ZSIgZm9udC1mYW1pbHk9IidDb3VyaWVyIE5ldycsIG1vbm9zcGFjZSIgZm9udC1zaXplPSIxMHB4IiB4bGluazpocmVmPSIjdGV4dC1wYXRoLWEiPjB4NDIwMDAwMDAwMDAwMDAwMDAwMDAwMDAwMDAwMDAwMDAwMDAwMDAwNiDigKIgV0VUSCA8YW5pbWF0ZSBhZGRpdGl2ZT0ic3VtIiBhdHRyaWJ1dGVOYW1lPSJzdGFydE9mZnNldCIgZnJvbT0iMCUiIHRvPSIxMDAlIiBiZWdpbj0iMHMiIGR1cj0iMzBzIiByZXBlYXRDb3VudD0iaW5kZWZpbml0ZSIgLz4gPC90ZXh0UGF0aD48dGV4dFBhdGggc3RhcnRPZmZzZXQ9IjUwJSIgZmlsbD0id2hpdGUiIGZvbnQtZmFtaWx5PSInQ291cmllciBOZXcnLCBtb25vc3BhY2UiIGZvbnQtc2l6ZT0iMTBweCIgeGxpbms6aHJlZj0iI3RleHQtcGF0aC1hIj4weDBiMmM2MzljNTMzODEzZjRhYTlkNzgzN2NhZjYyNjUzZDA5N2ZmODUg4oCiIFVTREMgPGFuaW1hdGUgYWRkaXRpdmU9InN1bSIgYXR0cmlidXRlTmFtZT0ic3RhcnRPZmZzZXQiIGZyb209IjAlIiB0bz0iMTAwJSIgYmVnaW49IjBzIiBkdXI9IjMwcyIgcmVwZWF0Q291bnQ9ImluZGVmaW5pdGUiIC8+PC90ZXh0UGF0aD48dGV4dFBhdGggc3RhcnRPZmZzZXQ9Ii01MCUiIGZpbGw9IndoaXRlIiBmb250LWZhbWlseT0iJ0NvdXJpZXIgTmV3JywgbW9ub3NwYWNlIiBmb250LXNpemU9IjEwcHgiIHhsaW5rOmhyZWY9IiN0ZXh0LXBhdGgtYSI+MHgwYjJjNjM5YzUzMzgxM2Y0YWE5ZDc4MzdjYWY2MjY1M2QwOTdmZjg1IOKAoiBVU0RDIDxhbmltYXRlIGFkZGl0aXZlPSJzdW0iIGF0dHJpYnV0ZU5hbWU9InN0YXJ0T2Zmc2V0IiBmcm9tPSIwJSIgdG89IjEwMCUiIGJlZ2luPSIwcyIgZHVyPSIzMHMiIHJlcGVhdENvdW50PSJpbmRlZmluaXRlIiAvPjwvdGV4dFBhdGg+PC90ZXh0PjxnIG1hc2s9InVybCgjZmFkZS1zeW1ib2wpIj48cmVjdCBmaWxsPSJub25lIiB4PSIwcHgiIHk9IjBweCIgd2lkdGg9IjI5MHB4IiBoZWlnaHQ9IjIwMHB4IiAvPiA8dGV4dCB5PSI3MHB4IiB4PSIzMnB4IiBmaWxsPSJ3aGl0ZSIgZm9udC1mYW1pbHk9IidDb3VyaWVyIE5ldycsIG1vbm9zcGFjZSIgZm9udC13ZWlnaHQ9IjIwMCIgZm9udC1zaXplPSIzNnB4Ij5VU0RDL1dFVEg8L3RleHQ+PHRleHQgeT0iMTE1cHgiIHg9IjMycHgiIGZpbGw9IndoaXRlIiBmb250LWZhbWlseT0iJ0NvdXJpZXIgTmV3JywgbW9ub3NwYWNlIiBmb250LXdlaWdodD0iMjAwIiBmb250LXNpemU9IjM2cHgiPjAuMyU8L3RleHQ+PC9nPjxyZWN0IHg9IjE2IiB5PSIxNiIgd2lkdGg9IjI1OCIgaGVpZ2h0PSI0NjgiIHJ4PSIyNiIgcnk9IjI2IiBmaWxsPSJyZ2JhKDAsMCwwLDApIiBzdHJva2U9InJnYmEoMjU1LDI1NSwyNTUsMC4yKSIgLz48ZyBtYXNrPSJ1cmwoI2ZhZGUtdXApIiBzdHlsZT0idHJhbnNmb3JtOnRyYW5zbGF0ZSg3MnB4LDE4OXB4KSI+PHJlY3QgeD0iLTE2cHgiIHk9Ii0xNnB4IiB3aWR0aD0iMTgwcHgiIGhlaWdodD0iMTgwcHgiIGZpbGw9Im5vbmUiIC8+PHBhdGggZD0iTTEgMUMyNSA2NSA4MSAxMjEgMTQ1IDE0NSIgc3Ryb2tlPSJyZ2JhKDAsMCwwLDAuMykiIHN0cm9rZS13aWR0aD0iMzJweCIgZmlsbD0ibm9uZSIgc3Ryb2tlLWxpbmVjYXA9InJvdW5kIiAvPjwvZz48ZyBtYXNrPSJ1cmwoI2ZhZGUtdXApIiBzdHlsZT0idHJhbnNmb3JtOnRyYW5zbGF0ZSg3MnB4LDE4OXB4KSI+PHJlY3QgeD0iLTE2cHgiIHk9Ii0xNnB4IiB3aWR0aD0iMTgwcHgiIGhlaWdodD0iMTgwcHgiIGZpbGw9Im5vbmUiIC8+PHBhdGggZD0iTTEgMUMyNSA2NSA4MSAxMjEgMTQ1IDE0NSIgc3Ryb2tlPSJyZ2JhKDI1NSwyNTUsMjU1LDEpIiBmaWxsPSJub25lIiBzdHJva2UtbGluZWNhcD0icm91bmQiIC8+PC9nPjxjaXJjbGUgY3g9IjIxN3B4IiBjeT0iMzM0cHgiIHI9IjRweCIgZmlsbD0id2hpdGUiIC8+PGNpcmNsZSBjeD0iMjE3cHgiIGN5PSIzMzRweCIgcj0iMjRweCIgZmlsbD0ibm9uZSIgc3Ryb2tlPSJ3aGl0ZSIgLz4gPGcgc3R5bGU9InRyYW5zZm9ybTp0cmFuc2xhdGUoMjlweCwgMzg0cHgpIj48cmVjdCB3aWR0aD0iOThweCIgaGVpZ2h0PSIyNnB4IiByeD0iOHB4IiByeT0iOHB4IiBmaWxsPSJyZ2JhKDAsMCwwLDAuNikiIC8+PHRleHQgeD0iMTJweCIgeT0iMTdweCIgZm9udC1mYW1pbHk9IidDb3VyaWVyIE5ldycsIG1vbm9zcGFjZSIgZm9udC1zaXplPSIxMnB4IiBmaWxsPSJ3aGl0ZSI+PHRzcGFuIGZpbGw9InJnYmEoMjU1LDI1NSwyNTUsMC42KSI+SUQ6IDwvdHNwYW4+NzI0MjYwPC90ZXh0PjwvZz4gPGcgc3R5bGU9InRyYW5zZm9ybTp0cmFuc2xhdGUoMjlweCwgNDE0cHgpIj48cmVjdCB3aWR0aD0iMTQwcHgiIGhlaWdodD0iMjZweCIgcng9IjhweCIgcnk9IjhweCIgZmlsbD0icmdiYSgwLDAsMCwwLjYpIiAvPjx0ZXh0IHg9IjEycHgiIHk9IjE3cHgiIGZvbnQtZmFtaWx5PSInQ291cmllciBOZXcnLCBtb25vc3BhY2UiIGZvbnQtc2l6ZT0iMTJweCIgZmlsbD0id2hpdGUiPjx0c3BhbiBmaWxsPSJyZ2JhKDI1NSwyNTUsMjU1LDAuNikiPk1pbiBUaWNrOiA8L3RzcGFuPjE5Mzc0MDwvdGV4dD48L2c+IDxnIHN0eWxlPSJ0cmFuc2Zvcm06dHJhbnNsYXRlKDI5cHgsIDQ0NHB4KSI+PHJlY3Qgd2lkdGg9IjE0MHB4IiBoZWlnaHQ9IjI2cHgiIHJ4PSI4cHgiIHJ5PSI4cHgiIGZpbGw9InJnYmEoMCwwLDAsMC42KSIgLz48dGV4dCB4PSIxMnB4IiB5PSIxN3B4IiBmb250LWZhbWlseT0iJ0NvdXJpZXIgTmV3JywgbW9ub3NwYWNlIiBmb250LXNpemU9IjEycHgiIGZpbGw9IndoaXRlIj48dHNwYW4gZmlsbD0icmdiYSgyNTUsMjU1LDI1NSwwLjYpIj5NYXggVGljazogPC90c3Bhbj4xOTQ4MjA8L3RleHQ+PC9nPjxnIHN0eWxlPSJ0cmFuc2Zvcm06dHJhbnNsYXRlKDIyNnB4LCA0MzNweCkiPjxyZWN0IHdpZHRoPSIzNnB4IiBoZWlnaHQ9IjM2cHgiIHJ4PSI4cHgiIHJ5PSI4cHgiIGZpbGw9Im5vbmUiIHN0cm9rZT0icmdiYSgyNTUsMjU1LDI1NSwwLjIpIiAvPjxwYXRoIHN0cm9rZS1saW5lY2FwPSJyb3VuZCIgZD0iTTggOUM4LjAwMDA0IDIyLjk0OTQgMTYuMjA5OSAyOCAyNyAyOCIgZmlsbD0ibm9uZSIgc3Ryb2tlPSJ3aGl0ZSIgLz48Y2lyY2xlIHN0eWxlPSJ0cmFuc2Zvcm06dHJhbnNsYXRlM2QoMjRweCwgMjdweCwgMHB4KSIgY3g9IjBweCIgY3k9IjBweCIgcj0iNHB4IiBmaWxsPSJ3aGl0ZSIvPjwvZz48L3N2Zz4=\",\"is_unique\":null,\"media_type\":null,\"media_url\":\"data:image/svg+xml;base64,PHN2ZyB3aWR0aD0iMjkwIiBoZWlnaHQ9IjUwMCIgdmlld0JveD0iMCAwIDI5MCA1MDAiIHhtbG5zPSJodHRwOi8vd3d3LnczLm9yZy8yMDAwL3N2ZyIgeG1sbnM6eGxpbms9J2h0dHA6Ly93d3cudzMub3JnLzE5OTkveGxpbmsnPjxkZWZzPjxmaWx0ZXIgaWQ9ImYxIj48ZmVJbWFnZSByZXN1bHQ9InAwIiB4bGluazpocmVmPSJkYXRhOmltYWdlL3N2Zyt4bWw7YmFzZTY0LFBITjJaeUIzYVdSMGFEMG5Namt3SnlCb1pXbG5hSFE5SnpVd01DY2dkbWxsZDBKdmVEMG5NQ0F3SURJNU1DQTFNREFuSUhodGJHNXpQU2RvZEhSd09pOHZkM2QzTG5jekxtOXlaeTh5TURBd0wzTjJaeWMrUEhKbFkzUWdkMmxrZEdnOUp6STVNSEI0SnlCb1pXbG5hSFE5SnpVd01IQjRKeUJtYVd4c1BTY2pNR0l5WXpZekp5OCtQQzl6ZG1jKyIvPjxmZUltYWdlIHJlc3VsdD0icDEiIHhsaW5rOmhyZWY9ImRhdGE6aW1hZ2Uvc3ZnK3htbDtiYXNlNjQsUEhOMlp5QjNhV1IwYUQwbk1qa3dKeUJvWldsbmFIUTlKelV3TUNjZ2RtbGxkMEp2ZUQwbk1DQXdJREk1TUNBMU1EQW5JSGh0Ykc1elBTZG9kSFJ3T2k4dmQzZDNMbmN6TG05eVp5OHlNREF3TDNOMlp5YytQR05wY21Oc1pTQmplRDBuTVRVeUp5QmplVDBuTVRBd0p5QnlQU2N4TWpCd2VDY2dabWxzYkQwbkl6UXlNREF3TUNjdlBqd3ZjM1puUGc9PSIvPjxmZUltYWdlIHJlc3VsdD0icDIiIHhsaW5rOmhyZWY9ImRhdGE6aW1hZ2Uvc3ZnK3htbDtiYXNlNjQsUEhOMlp5QjNhV1IwYUQwbk1qa3dKeUJvWldsbmFIUTlKelV3TUNjZ2RtbGxkMEp2ZUQwbk1DQXdJREk1TUNBMU1EQW5JSGh0Ykc1elBTZG9kSFJ3T2k4dmQzZDNMbmN6TG05eVp5OHlNREF3TDNOMlp5YytQR05wY21Oc1pTQmplRDBuTVRVeUp5QmplVDBuTVRBd0p5QnlQU2N4TWpCd2VDY2dabWxzYkQwbkl6azNabVk0TlNjdlBqd3ZjM1puUGc9PSIgLz48ZmVJbWFnZSByZXN1bHQ9InAzIiB4bGluazpocmVmPSJkYXRhOmltYWdlL3N2Zyt4bWw7YmFzZTY0LFBITjJaeUIzYVdSMGFEMG5Namt3SnlCb1pXbG5hSFE5SnpVd01DY2dkbWxsZDBKdmVEMG5NQ0F3SURJNU1DQTFNREFuSUhodGJHNXpQU2RvZEhSd09pOHZkM2QzTG5jekxtOXlaeTh5TURBd0wzTjJaeWMrUEdOcGNtTnNaU0JqZUQwbk1qUXpKeUJqZVQwbk1UQXdKeUJ5UFNjeE1EQndlQ2NnWm1sc2JEMG5JekF3TURBd05pY3ZQand2YzNablBnPT0iIC8+PGZlQmxlbmQgbW9kZT0ib3ZlcmxheSIgaW49InAwIiBpbjI9InAxIiAvPjxmZUJsZW5kIG1vZGU9ImV4Y2x1c2lvbiIgaW4yPSJwMiIgLz48ZmVCbGVuZCBtb2RlPSJvdmVybGF5IiBpbjI9InAzIiByZXN1bHQ9ImJsZW5kT3V0IiAvPjxmZUdhdXNzaWFuQmx1ciBpbj0iYmxlbmRPdXQiIHN0ZERldmlhdGlvbj0iNDIiIC8+PC9maWx0ZXI+IDxjbGlwUGF0aCBpZD0iY29ybmVycyI+PHJlY3Qgd2lkdGg9IjI5MCIgaGVpZ2h0PSI1MDAiIHJ4PSI0MiIgcnk9IjQyIiAvPjwvY2xpcFBhdGg+PHBhdGggaWQ9InRleHQtcGF0aC1hIiBkPSJNNDAgMTIgSDI1MCBBMjggMjggMCAwIDEgMjc4IDQwIFY0NjAgQTI4IDI4IDAgMCAxIDI1MCA0ODggSDQwIEEyOCAyOCAwIDAgMSAxMiA0NjAgVjQwIEEyOCAyOCAwIDAgMSA0MCAxMiB6IiAvPjxwYXRoIGlkPSJtaW5pbWFwIiBkPSJNMjM0IDQ0NEMyMzQgNDU3Ljk0OSAyNDIuMjEgNDYzIDI1MyA0NjMiIC8+PGZpbHRlciBpZD0idG9wLXJlZ2lvbi1ibHVyIj48ZmVHYXVzc2lhbkJsdXIgaW49IlNvdXJjZUdyYXBoaWMiIHN0ZERldmlhdGlvbj0iMjQiIC8+PC9maWx0ZXI+PGxpbmVhckdyYWRpZW50IGlkPSJncmFkLXVwIiB4MT0iMSIgeDI9IjAiIHkxPSIxIiB5Mj0iMCI+PHN0b3Agb2Zmc2V0PSIwLjAiIHN0b3AtY29sb3I9IndoaXRlIiBzdG9wLW9wYWNpdHk9IjEiIC8+PHN0b3Agb2Zmc2V0PSIuOSIgc3RvcC1jb2xvcj0id2hpdGUiIHN0b3Atb3BhY2l0eT0iMCIgLz48L2xpbmVhckdyYWRpZW50PjxsaW5lYXJHcmFkaWVudCBpZD0iZ3JhZC1kb3duIiB4MT0iMCIgeDI9IjEiIHkxPSIwIiB5Mj0iMSI+PHN0b3Agb2Zmc2V0PSIwLjAiIHN0b3AtY29sb3I9IndoaXRlIiBzdG9wLW9wYWNpdHk9IjEiIC8+PHN0b3Agb2Zmc2V0PSIwLjkiIHN0b3AtY29sb3I9IndoaXRlIiBzdG9wLW9wYWNpdHk9IjAiIC8+PC9saW5lYXJHcmFkaWVudD48bWFzayBpZD0iZmFkZS11cCIgbWFza0NvbnRlbnRVbml0cz0ib2JqZWN0Qm91bmRpbmdCb3giPjxyZWN0IHdpZHRoPSIxIiBoZWlnaHQ9IjEiIGZpbGw9InVybCgjZ3JhZC11cCkiIC8+PC9tYXNrPjxtYXNrIGlkPSJmYWRlLWRvd24iIG1hc2tDb250ZW50VW5pdHM9Im9iamVjdEJvdW5kaW5nQm94Ij48cmVjdCB3aWR0aD0iMSIgaGVpZ2h0PSIxIiBmaWxsPSJ1cmwoI2dyYWQtZG93bikiIC8+PC9tYXNrPjxtYXNrIGlkPSJub25lIiBtYXNrQ29udGVudFVuaXRzPSJvYmplY3RCb3VuZGluZ0JveCI+PHJlY3Qgd2lkdGg9IjEiIGhlaWdodD0iMSIgZmlsbD0id2hpdGUiIC8+PC9tYXNrPjxsaW5lYXJHcmFkaWVudCBpZD0iZ3JhZC1zeW1ib2wiPjxzdG9wIG9mZnNldD0iMC43IiBzdG9wLWNvbG9yPSJ3aGl0ZSIgc3RvcC1vcGFjaXR5PSIxIiAvPjxzdG9wIG9mZnNldD0iLjk1IiBzdG9wLWNvbG9yPSJ3aGl0ZSIgc3RvcC1vcGFjaXR5PSIwIiAvPjwvbGluZWFyR3JhZGllbnQ+PG1hc2sgaWQ9ImZhZGUtc3ltYm9sIiBtYXNrQ29udGVudFVuaXRzPSJ1c2VyU3BhY2VPblVzZSI+PHJlY3Qgd2lkdGg9IjI5MHB4IiBoZWlnaHQ9IjIwMHB4IiBmaWxsPSJ1cmwoI2dyYWQtc3ltYm9sKSIgLz48L21hc2s+PC9kZWZzPjxnIGNsaXAtcGF0aD0idXJsKCNjb3JuZXJzKSI+PHJlY3QgZmlsbD0iMGIyYzYzIiB4PSIwcHgiIHk9IjBweCIgd2lkdGg9IjI5MHB4IiBoZWlnaHQ9IjUwMHB4IiAvPjxyZWN0IHN0eWxlPSJmaWx0ZXI6IHVybCgjZjEpIiB4PSIwcHgiIHk9IjBweCIgd2lkdGg9IjI5MHB4IiBoZWlnaHQ9IjUwMHB4IiAvPiA8ZyBzdHlsZT0iZmlsdGVyOnVybCgjdG9wLXJlZ2lvbi1ibHVyKTsgdHJhbnNmb3JtOnNjYWxlKDEuNSk7IHRyYW5zZm9ybS1vcmlnaW46Y2VudGVyIHRvcDsiPjxyZWN0IGZpbGw9Im5vbmUiIHg9IjBweCIgeT0iMHB4IiB3aWR0aD0iMjkwcHgiIGhlaWdodD0iNTAwcHgiIC8+PGVsbGlwc2UgY3g9IjUwJSIgY3k9IjBweCIgcng9IjE4MHB4IiByeT0iMTIwcHgiIGZpbGw9IiMwMDAiIG9wYWNpdHk9IjAuODUiIC8+PC9nPjxyZWN0IHg9IjAiIHk9IjAiIHdpZHRoPSIyOTAiIGhlaWdodD0iNTAwIiByeD0iNDIiIHJ5PSI0MiIgZmlsbD0icmdiYSgwLDAsMCwwKSIgc3Ryb2tlPSJyZ2JhKDI1NSwyNTUsMjU1LDAuMikiIC8+PC9nPjx0ZXh0IHRleHQtcmVuZGVyaW5nPSJvcHRpbWl6ZVNwZWVkIj48dGV4dFBhdGggc3RhcnRPZmZzZXQ9Ii0xMDAlIiBmaWxsPSJ3aGl0ZSIgZm9udC1mYW1pbHk9IidDb3VyaWVyIE5ldycsIG1vbm9zcGFjZSIgZm9udC1zaXplPSIxMHB4IiB4bGluazpocmVmPSIjdGV4dC1wYXRoLWEiPjB4NDIwMDAwMDAwMDAwMDAwMDAwMDAwMDAwMDAwMDAwMDAwMDAwMDAwNiDigKIgV0VUSCA8YW5pbWF0ZSBhZGRpdGl2ZT0ic3VtIiBhdHRyaWJ1dGVOYW1lPSJzdGFydE9mZnNldCIgZnJvbT0iMCUiIHRvPSIxMDAlIiBiZWdpbj0iMHMiIGR1cj0iMzBzIiByZXBlYXRDb3VudD0iaW5kZWZpbml0ZSIgLz48L3RleHRQYXRoPiA8dGV4dFBhdGggc3RhcnRPZmZzZXQ9IjAlIiBmaWxsPSJ3aGl0ZSIgZm9udC1mYW1pbHk9IidDb3VyaWVyIE5ldycsIG1vbm9zcGFjZSIgZm9udC1zaXplPSIxMHB4IiB4bGluazpocmVmPSIjdGV4dC1wYXRoLWEiPjB4NDIwMDAwMDAwMDAwMDAwMDAwMDAwMDAwMDAwMDAwMDAwMDAwMDAwNiDigKIgV0VUSCA8YW5pbWF0ZSBhZGRpdGl2ZT0ic3VtIiBhdHRyaWJ1dGVOYW1lPSJzdGFydE9mZnNldCIgZnJvbT0iMCUiIHRvPSIxMDAlIiBiZWdpbj0iMHMiIGR1cj0iMzBzIiByZXBlYXRDb3VudD0iaW5kZWZpbml0ZSIgLz4gPC90ZXh0UGF0aD48dGV4dFBhdGggc3RhcnRPZmZzZXQ9IjUwJSIgZmlsbD0id2hpdGUiIGZvbnQtZmFtaWx5PSInQ291cmllciBOZXcnLCBtb25vc3BhY2UiIGZvbnQtc2l6ZT0iMTBweCIgeGxpbms6aHJlZj0iI3RleHQtcGF0aC1hIj4weDBiMmM2MzljNTMzODEzZjRhYTlkNzgzN2NhZjYyNjUzZDA5N2ZmODUg4oCiIFVTREMgPGFuaW1hdGUgYWRkaXRpdmU9InN1bSIgYXR0cmlidXRlTmFtZT0ic3RhcnRPZmZzZXQiIGZyb209IjAlIiB0bz0iMTAwJSIgYmVnaW49IjBzIiBkdXI9IjMwcyIgcmVwZWF0Q291bnQ9ImluZGVmaW5pdGUiIC8+PC90ZXh0UGF0aD48dGV4dFBhdGggc3RhcnRPZmZzZXQ9Ii01MCUiIGZpbGw9IndoaXRlIiBmb250LWZhbWlseT0iJ0NvdXJpZXIgTmV3JywgbW9ub3NwYWNlIiBmb250LXNpemU9IjEwcHgiIHhsaW5rOmhyZWY9IiN0ZXh0LXBhdGgtYSI+MHgwYjJjNjM5YzUzMzgxM2Y0YWE5ZDc4MzdjYWY2MjY1M2QwOTdmZjg1IOKAoiBVU0RDIDxhbmltYXRlIGFkZGl0aXZlPSJzdW0iIGF0dHJpYnV0ZU5hbWU9InN0YXJ0T2Zmc2V0IiBmcm9tPSIwJSIgdG89IjEwMCUiIGJlZ2luPSIwcyIgZHVyPSIzMHMiIHJlcGVhdENvdW50PSJpbmRlZmluaXRlIiAvPjwvdGV4dFBhdGg+PC90ZXh0PjxnIG1hc2s9InVybCgjZmFkZS1zeW1ib2wpIj48cmVjdCBmaWxsPSJub25lIiB4PSIwcHgiIHk9IjBweCIgd2lkdGg9IjI5MHB4IiBoZWlnaHQ9IjIwMHB4IiAvPiA8dGV4dCB5PSI3MHB4IiB4PSIzMnB4IiBmaWxsPSJ3aGl0ZSIgZm9udC1mYW1pbHk9IidDb3VyaWVyIE5ldycsIG1vbm9zcGFjZSIgZm9udC13ZWlnaHQ9IjIwMCIgZm9udC1zaXplPSIzNnB4Ij5VU0RDL1dFVEg8L3RleHQ+PHRleHQgeT0iMTE1cHgiIHg9IjMycHgiIGZpbGw9IndoaXRlIiBmb250LWZhbWlseT0iJ0NvdXJpZXIgTmV3JywgbW9ub3NwYWNlIiBmb250LXdlaWdodD0iMjAwIiBmb250LXNpemU9IjM2cHgiPjAuMyU8L3RleHQ+PC9nPjxyZWN0IHg9IjE2IiB5PSIxNiIgd2lkdGg9IjI1OCIgaGVpZ2h0PSI0NjgiIHJ4PSIyNiIgcnk9IjI2IiBmaWxsPSJyZ2JhKDAsMCwwLDApIiBzdHJva2U9InJnYmEoMjU1LDI1NSwyNTUsMC4yKSIgLz48ZyBtYXNrPSJ1cmwoI2ZhZGUtdXApIiBzdHlsZT0idHJhbnNmb3JtOnRyYW5zbGF0ZSg3MnB4LDE4OXB4KSI+PHJlY3QgeD0iLTE2cHgiIHk9Ii0xNnB4IiB3aWR0aD0iMTgwcHgiIGhlaWdodD0iMTgwcHgiIGZpbGw9Im5vbmUiIC8+PHBhdGggZD0iTTEgMUMyNSA2NSA4MSAxMjEgMTQ1IDE0NSIgc3Ryb2tlPSJyZ2JhKDAsMCwwLDAuMykiIHN0cm9rZS13aWR0aD0iMzJweCIgZmlsbD0ibm9uZSIgc3Ryb2tlLWxpbmVjYXA9InJvdW5kIiAvPjwvZz48ZyBtYXNrPSJ1cmwoI2ZhZGUtdXApIiBzdHlsZT0idHJhbnNmb3JtOnRyYW5zbGF0ZSg3MnB4LDE4OXB4KSI+PHJlY3QgeD0iLTE2cHgiIHk9Ii0xNnB4IiB3aWR0aD0iMTgwcHgiIGhlaWdodD0iMTgwcHgiIGZpbGw9Im5vbmUiIC8+PHBhdGggZD0iTTEgMUMyNSA2NSA4MSAxMjEgMTQ1IDE0NSIgc3Ryb2tlPSJyZ2JhKDI1NSwyNTUsMjU1LDEpIiBmaWxsPSJub25lIiBzdHJva2UtbGluZWNhcD0icm91bmQiIC8+PC9nPjxjaXJjbGUgY3g9IjIxN3B4IiBjeT0iMzM0cHgiIHI9IjRweCIgZmlsbD0id2hpdGUiIC8+PGNpcmNsZSBjeD0iMjE3cHgiIGN5PSIzMzRweCIgcj0iMjRweCIgZmlsbD0ibm9uZSIgc3Ryb2tlPSJ3aGl0ZSIgLz4gPGcgc3R5bGU9InRyYW5zZm9ybTp0cmFuc2xhdGUoMjlweCwgMzg0cHgpIj48cmVjdCB3aWR0aD0iOThweCIgaGVpZ2h0PSIyNnB4IiByeD0iOHB4IiByeT0iOHB4IiBmaWxsPSJyZ2JhKDAsMCwwLDAuNikiIC8+PHRleHQgeD0iMTJweCIgeT0iMTdweCIgZm9udC1mYW1pbHk9IidDb3VyaWVyIE5ldycsIG1vbm9zcGFjZSIgZm9udC1zaXplPSIxMnB4IiBmaWxsPSJ3aGl0ZSI+PHRzcGFuIGZpbGw9InJnYmEoMjU1LDI1NSwyNTUsMC42KSI+SUQ6IDwvdHNwYW4+NzI0MjYwPC90ZXh0PjwvZz4gPGcgc3R5bGU9InRyYW5zZm9ybTp0cmFuc2xhdGUoMjlweCwgNDE0cHgpIj48cmVjdCB3aWR0aD0iMTQwcHgiIGhlaWdodD0iMjZweCIgcng9IjhweCIgcnk9IjhweCIgZmlsbD0icmdiYSgwLDAsMCwwLjYpIiAvPjx0ZXh0IHg9IjEycHgiIHk9IjE3cHgiIGZvbnQtZmFtaWx5PSInQ291cmllciBOZXcnLCBtb25vc3BhY2UiIGZvbnQtc2l6ZT0iMTJweCIgZmlsbD0id2hpdGUiPjx0c3BhbiBmaWxsPSJyZ2JhKDI1NSwyNTUsMjU1LDAuNikiPk1pbiBUaWNrOiA8L3RzcGFuPjE5Mzc0MDwvdGV4dD48L2c+IDxnIHN0eWxlPSJ0cmFuc2Zvcm06dHJhbnNsYXRlKDI5cHgsIDQ0NHB4KSI+PHJlY3Qgd2lkdGg9IjE0MHB4IiBoZWlnaHQ9IjI2cHgiIHJ4PSI4cHgiIHJ5PSI4cHgiIGZpbGw9InJnYmEoMCwwLDAsMC42KSIgLz48dGV4dCB4PSIxMnB4IiB5PSIxN3B4IiBmb250LWZhbWlseT0iJ0NvdXJpZXIgTmV3JywgbW9ub3NwYWNlIiBmb250LXNpemU9IjEycHgiIGZpbGw9IndoaXRlIj48dHNwYW4gZmlsbD0icmdiYSgyNTUsMjU1LDI1NSwwLjYpIj5NYXggVGljazogPC90c3Bhbj4xOTQ4MjA8L3RleHQ+PC9nPjxnIHN0eWxlPSJ0cmFuc2Zvcm06dHJhbnNsYXRlKDIyNnB4LCA0MzNweCkiPjxyZWN0IHdpZHRoPSIzNnB4IiBoZWlnaHQ9IjM2cHgiIHJ4PSI4cHgiIHJ5PSI4cHgiIGZpbGw9Im5vbmUiIHN0cm9rZT0icmdiYSgyNTUsMjU1LDI1NSwwLjIpIiAvPjxwYXRoIHN0cm9rZS1saW5lY2FwPSJyb3VuZCIgZD0iTTggOUM4LjAwMDA0IDIyLjk0OTQgMTYuMjA5OSAyOCAyNyAyOCIgZmlsbD0ibm9uZSIgc3Ryb2tlPSJ3aGl0ZSIgLz48Y2lyY2xlIHN0eWxlPSJ0cmFuc2Zvcm06dHJhbnNsYXRlM2QoMjRweCwgMjdweCwgMHB4KSIgY3g9IjBweCIgY3k9IjBweCIgcj0iNHB4IiBmaWxsPSJ3aGl0ZSIvPjwvZz48L3N2Zz4=\",\"metadata\":{\"description\":\"This
        NFT represents a liquidity position in a Uniswap V3 USDC-WETH pool. The owner
        of this NFT can modify or redeem the position.\\n\\nPool Address: 0xc1738d90e2e26c35784a0d3e3d8a9f795074bca4\\nUSDC
        Address: 0x0b2c639c533813f4aa9d7837caf62653d097ff85\\nWETH Address: 0x4200000000000000000000000000000000000006\\nFee
        Tier: 0.3%\\nToken ID: 724260\\n\\n\u26A0\uFE0F DISCLAIMER: Due diligence
        is imperative when assessing this NFT. Make sure token addresses match the
        expected tokens, as token symbols may be imitated.\",\"image\":\"data:image/svg+xml;base64,PHN2ZyB3aWR0aD0iMjkwIiBoZWlnaHQ9IjUwMCIgdmlld0JveD0iMCAwIDI5MCA1MDAiIHhtbG5zPSJodHRwOi8vd3d3LnczLm9yZy8yMDAwL3N2ZyIgeG1sbnM6eGxpbms9J2h0dHA6Ly93d3cudzMub3JnLzE5OTkveGxpbmsnPjxkZWZzPjxmaWx0ZXIgaWQ9ImYxIj48ZmVJbWFnZSByZXN1bHQ9InAwIiB4bGluazpocmVmPSJkYXRhOmltYWdlL3N2Zyt4bWw7YmFzZTY0LFBITjJaeUIzYVdSMGFEMG5Namt3SnlCb1pXbG5hSFE5SnpVd01DY2dkbWxsZDBKdmVEMG5NQ0F3SURJNU1DQTFNREFuSUhodGJHNXpQU2RvZEhSd09pOHZkM2QzTG5jekxtOXlaeTh5TURBd0wzTjJaeWMrUEhKbFkzUWdkMmxrZEdnOUp6STVNSEI0SnlCb1pXbG5hSFE5SnpVd01IQjRKeUJtYVd4c1BTY2pNR0l5WXpZekp5OCtQQzl6ZG1jKyIvPjxmZUltYWdlIHJlc3VsdD0icDEiIHhsaW5rOmhyZWY9ImRhdGE6aW1hZ2Uvc3ZnK3htbDtiYXNlNjQsUEhOMlp5QjNhV1IwYUQwbk1qa3dKeUJvWldsbmFIUTlKelV3TUNjZ2RtbGxkMEp2ZUQwbk1DQXdJREk1TUNBMU1EQW5JSGh0Ykc1elBTZG9kSFJ3T2k4dmQzZDNMbmN6TG05eVp5OHlNREF3TDNOMlp5YytQR05wY21Oc1pTQmplRDBuTVRVeUp5QmplVDBuTVRBd0p5QnlQU2N4TWpCd2VDY2dabWxzYkQwbkl6UXlNREF3TUNjdlBqd3ZjM1puUGc9PSIvPjxmZUltYWdlIHJlc3VsdD0icDIiIHhsaW5rOmhyZWY9ImRhdGE6aW1hZ2Uvc3ZnK3htbDtiYXNlNjQsUEhOMlp5QjNhV1IwYUQwbk1qa3dKeUJvWldsbmFIUTlKelV3TUNjZ2RtbGxkMEp2ZUQwbk1DQXdJREk1TUNBMU1EQW5JSGh0Ykc1elBTZG9kSFJ3T2k4dmQzZDNMbmN6TG05eVp5OHlNREF3TDNOMlp5YytQR05wY21Oc1pTQmplRDBuTVRVeUp5QmplVDBuTVRBd0p5QnlQU2N4TWpCd2VDY2dabWxzYkQwbkl6azNabVk0TlNjdlBqd3ZjM1puUGc9PSIgLz48ZmVJbWFnZSByZXN1bHQ9InAzIiB4bGluazpocmVmPSJkYXRhOmltYWdlL3N2Zyt4bWw7YmFzZTY0LFBITjJaeUIzYVdSMGFEMG5Namt3SnlCb1pXbG5hSFE5SnpVd01DY2dkbWxsZDBKdmVEMG5NQ0F3SURJNU1DQTFNREFuSUhodGJHNXpQU2RvZEhSd09pOHZkM2QzTG5jekxtOXlaeTh5TURBd0wzTjJaeWMrUEdOcGNtTnNaU0JqZUQwbk1qUXpKeUJqZVQwbk1UQXdKeUJ5UFNjeE1EQndlQ2NnWm1sc2JEMG5JekF3TURBd05pY3ZQand2YzNablBnPT0iIC8+PGZlQmxlbmQgbW9kZT0ib3ZlcmxheSIgaW49InAwIiBpbjI9InAxIiAvPjxmZUJsZW5kIG1vZGU9ImV4Y2x1c2lvbiIgaW4yPSJwMiIgLz48ZmVCbGVuZCBtb2RlPSJvdmVybGF5IiBpbjI9InAzIiByZXN1bHQ9ImJsZW5kT3V0IiAvPjxmZUdhdXNzaWFuQmx1ciBpbj0iYmxlbmRPdXQiIHN0ZERldmlhdGlvbj0iNDIiIC8+PC9maWx0ZXI+IDxjbGlwUGF0aCBpZD0iY29ybmVycyI+PHJlY3Qgd2lkdGg9IjI5MCIgaGVpZ2h0PSI1MDAiIHJ4PSI0MiIgcnk9IjQyIiAvPjwvY2xpcFBhdGg+PHBhdGggaWQ9InRleHQtcGF0aC1hIiBkPSJNNDAgMTIgSDI1MCBBMjggMjggMCAwIDEgMjc4IDQwIFY0NjAgQTI4IDI4IDAgMCAxIDI1MCA0ODggSDQwIEEyOCAyOCAwIDAgMSAxMiA0NjAgVjQwIEEyOCAyOCAwIDAgMSA0MCAxMiB6IiAvPjxwYXRoIGlkPSJtaW5pbWFwIiBkPSJNMjM0IDQ0NEMyMzQgNDU3Ljk0OSAyNDIuMjEgNDYzIDI1MyA0NjMiIC8+PGZpbHRlciBpZD0idG9wLXJlZ2lvbi1ibHVyIj48ZmVHYXVzc2lhbkJsdXIgaW49IlNvdXJjZUdyYXBoaWMiIHN0ZERldmlhdGlvbj0iMjQiIC8+PC9maWx0ZXI+PGxpbmVhckdyYWRpZW50IGlkPSJncmFkLXVwIiB4MT0iMSIgeDI9IjAiIHkxPSIxIiB5Mj0iMCI+PHN0b3Agb2Zmc2V0PSIwLjAiIHN0b3AtY29sb3I9IndoaXRlIiBzdG9wLW9wYWNpdHk9IjEiIC8+PHN0b3Agb2Zmc2V0PSIuOSIgc3RvcC1jb2xvcj0id2hpdGUiIHN0b3Atb3BhY2l0eT0iMCIgLz48L2xpbmVhckdyYWRpZW50PjxsaW5lYXJHcmFkaWVudCBpZD0iZ3JhZC1kb3duIiB4MT0iMCIgeDI9IjEiIHkxPSIwIiB5Mj0iMSI+PHN0b3Agb2Zmc2V0PSIwLjAiIHN0b3AtY29sb3I9IndoaXRlIiBzdG9wLW9wYWNpdHk9IjEiIC8+PHN0b3Agb2Zmc2V0PSIwLjkiIHN0b3AtY29sb3I9IndoaXRlIiBzdG9wLW9wYWNpdHk9IjAiIC8+PC9saW5lYXJHcmFkaWVudD48bWFzayBpZD0iZmFkZS11cCIgbWFza0NvbnRlbnRVbml0cz0ib2JqZWN0Qm91bmRpbmdCb3giPjxyZWN0IHdpZHRoPSIxIiBoZWlnaHQ9IjEiIGZpbGw9InVybCgjZ3JhZC11cCkiIC8+PC9tYXNrPjxtYXNrIGlkPSJmYWRlLWRvd24iIG1hc2tDb250ZW50VW5pdHM9Im9iamVjdEJvdW5kaW5nQm94Ij48cmVjdCB3aWR0aD0iMSIgaGVpZ2h0PSIxIiBmaWxsPSJ1cmwoI2dyYWQtZG93bikiIC8+PC9tYXNrPjxtYXNrIGlkPSJub25lIiBtYXNrQ29udGVudFVuaXRzPSJvYmplY3RCb3VuZGluZ0JveCI+PHJlY3Qgd2lkdGg9IjEiIGhlaWdodD0iMSIgZmlsbD0id2hpdGUiIC8+PC9tYXNrPjxsaW5lYXJHcmFkaWVudCBpZD0iZ3JhZC1zeW1ib2wiPjxzdG9wIG9mZnNldD0iMC43IiBzdG9wLWNvbG9yPSJ3aGl0ZSIgc3RvcC1vcGFjaXR5PSIxIiAvPjxzdG9wIG9mZnNldD0iLjk1IiBzdG9wLWNvbG9yPSJ3aGl0ZSIgc3RvcC1vcGFjaXR5PSIwIiAvPjwvbGluZWFyR3JhZGllbnQ+PG1hc2sgaWQ9ImZhZGUtc3ltYm9sIiBtYXNrQ29udGVudFVuaXRzPSJ1c2VyU3BhY2VPblVzZSI+PHJlY3Qgd2lkdGg9IjI5MHB4IiBoZWlnaHQ9IjIwMHB4IiBmaWxsPSJ1cmwoI2dyYWQtc3ltYm9sKSIgLz48L21hc2s+PC9kZWZzPjxnIGNsaXAtcGF0aD0idXJsKCNjb3JuZXJzKSI+PHJlY3QgZmlsbD0iMGIyYzYzIiB4PSIwcHgiIHk9IjBweCIgd2lkdGg9IjI5MHB4IiBoZWlnaHQ9IjUwMHB4IiAvPjxyZWN0IHN0eWxlPSJmaWx0ZXI6IHVybCgjZjEpIiB4PSIwcHgiIHk9IjBweCIgd2lkdGg9IjI5MHB4IiBoZWlnaHQ9IjUwMHB4IiAvPiA8ZyBzdHlsZT0iZmlsdGVyOnVybCgjdG9wLXJlZ2lvbi1ibHVyKTsgdHJhbnNmb3JtOnNjYWxlKDEuNSk7IHRyYW5zZm9ybS1vcmlnaW46Y2VudGVyIHRvcDsiPjxyZWN0IGZpbGw9Im5vbmUiIHg9IjBweCIgeT0iMHB4IiB3aWR0aD0iMjkwcHgiIGhlaWdodD0iNTAwcHgiIC8+PGVsbGlwc2UgY3g9IjUwJSIgY3k9IjBweCIgcng9IjE4MHB4IiByeT0iMTIwcHgiIGZpbGw9IiMwMDAiIG9wYWNpdHk9IjAuODUiIC8+PC9nPjxyZWN0IHg9IjAiIHk9IjAiIHdpZHRoPSIyOTAiIGhlaWdodD0iNTAwIiByeD0iNDIiIHJ5PSI0MiIgZmlsbD0icmdiYSgwLDAsMCwwKSIgc3Ryb2tlPSJyZ2JhKDI1NSwyNTUsMjU1LDAuMikiIC8+PC9nPjx0ZXh0IHRleHQtcmVuZGVyaW5nPSJvcHRpbWl6ZVNwZWVkIj48dGV4dFBhdGggc3RhcnRPZmZzZXQ9Ii0xMDAlIiBmaWxsPSJ3aGl0ZSIgZm9udC1mYW1pbHk9IidDb3VyaWVyIE5ldycsIG1vbm9zcGFjZSIgZm9udC1zaXplPSIxMHB4IiB4bGluazpocmVmPSIjdGV4dC1wYXRoLWEiPjB4NDIwMDAwMDAwMDAwMDAwMDAwMDAwMDAwMDAwMDAwMDAwMDAwMDAwNiDigKIgV0VUSCA8YW5pbWF0ZSBhZGRpdGl2ZT0ic3VtIiBhdHRyaWJ1dGVOYW1lPSJzdGFydE9mZnNldCIgZnJvbT0iMCUiIHRvPSIxMDAlIiBiZWdpbj0iMHMiIGR1cj0iMzBzIiByZXBlYXRDb3VudD0iaW5kZWZpbml0ZSIgLz48L3RleHRQYXRoPiA8dGV4dFBhdGggc3RhcnRPZmZzZXQ9IjAlIiBmaWxsPSJ3aGl0ZSIgZm9udC1mYW1pbHk9IidDb3VyaWVyIE5ldycsIG1vbm9zcGFjZSIgZm9udC1zaXplPSIxMHB4IiB4bGluazpocmVmPSIjdGV4dC1wYXRoLWEiPjB4NDIwMDAwMDAwMDAwMDAwMDAwMDAwMDAwMDAwMDAwMDAwMDAwMDAwNiDigKIgV0VUSCA8YW5pbWF0ZSBhZGRpdGl2ZT0ic3VtIiBhdHRyaWJ1dGVOYW1lPSJzdGFydE9mZnNldCIgZnJvbT0iMCUiIHRvPSIxMDAlIiBiZWdpbj0iMHMiIGR1cj0iMzBzIiByZXBlYXRDb3VudD0iaW5kZWZpbml0ZSIgLz4gPC90ZXh0UGF0aD48dGV4dFBhdGggc3RhcnRPZmZzZXQ9IjUwJSIgZmlsbD0id2hpdGUiIGZvbnQtZmFtaWx5PSInQ291cmllciBOZXcnLCBtb25vc3BhY2UiIGZvbnQtc2l6ZT0iMTBweCIgeGxpbms6aHJlZj0iI3RleHQtcGF0aC1hIj4weDBiMmM2MzljNTMzODEzZjRhYTlkNzgzN2NhZjYyNjUzZDA5N2ZmODUg4oCiIFVTREMgPGFuaW1hdGUgYWRkaXRpdmU9InN1bSIgYXR0cmlidXRlTmFtZT0ic3RhcnRPZmZzZXQiIGZyb209IjAlIiB0bz0iMTAwJSIgYmVnaW49IjBzIiBkdXI9IjMwcyIgcmVwZWF0Q291bnQ9ImluZGVmaW5pdGUiIC8+PC90ZXh0UGF0aD48dGV4dFBhdGggc3RhcnRPZmZzZXQ9Ii01MCUiIGZpbGw9IndoaXRlIiBmb250LWZhbWlseT0iJ0NvdXJpZXIgTmV3JywgbW9ub3NwYWNlIiBmb250LXNpemU9IjEwcHgiIHhsaW5rOmhyZWY9IiN0ZXh0LXBhdGgtYSI+MHgwYjJjNjM5YzUzMzgxM2Y0YWE5ZDc4MzdjYWY2MjY1M2QwOTdmZjg1IOKAoiBVU0RDIDxhbmltYXRlIGFkZGl0aXZlPSJzdW0iIGF0dHJpYnV0ZU5hbWU9InN0YXJ0T2Zmc2V0IiBmcm9tPSIwJSIgdG89IjEwMCUiIGJlZ2luPSIwcyIgZHVyPSIzMHMiIHJlcGVhdENvdW50PSJpbmRlZmluaXRlIiAvPjwvdGV4dFBhdGg+PC90ZXh0PjxnIG1hc2s9InVybCgjZmFkZS1zeW1ib2wpIj48cmVjdCBmaWxsPSJub25lIiB4PSIwcHgiIHk9IjBweCIgd2lkdGg9IjI5MHB4IiBoZWlnaHQ9IjIwMHB4IiAvPiA8dGV4dCB5PSI3MHB4IiB4PSIzMnB4IiBmaWxsPSJ3aGl0ZSIgZm9udC1mYW1pbHk9IidDb3VyaWVyIE5ldycsIG1vbm9zcGFjZSIgZm9udC13ZWlnaHQ9IjIwMCIgZm9udC1zaXplPSIzNnB4Ij5VU0RDL1dFVEg8L3RleHQ+PHRleHQgeT0iMTE1cHgiIHg9IjMycHgiIGZpbGw9IndoaXRlIiBmb250LWZhbWlseT0iJ0NvdXJpZXIgTmV3JywgbW9ub3NwYWNlIiBmb250LXdlaWdodD0iMjAwIiBmb250LXNpemU9IjM2cHgiPjAuMyU8L3RleHQ+PC9nPjxyZWN0IHg9IjE2IiB5PSIxNiIgd2lkdGg9IjI1OCIgaGVpZ2h0PSI0NjgiIHJ4PSIyNiIgcnk9IjI2IiBmaWxsPSJyZ2JhKDAsMCwwLDApIiBzdHJva2U9InJnYmEoMjU1LDI1NSwyNTUsMC4yKSIgLz48ZyBtYXNrPSJ1cmwoI2ZhZGUtdXApIiBzdHlsZT0idHJhbnNmb3JtOnRyYW5zbGF0ZSg3MnB4LDE4OXB4KSI+PHJlY3QgeD0iLTE2cHgiIHk9Ii0xNnB4IiB3aWR0aD0iMTgwcHgiIGhlaWdodD0iMTgwcHgiIGZpbGw9Im5vbmUiIC8+PHBhdGggZD0iTTEgMUMyNSA2NSA4MSAxMjEgMTQ1IDE0NSIgc3Ryb2tlPSJyZ2JhKDAsMCwwLDAuMykiIHN0cm9rZS13aWR0aD0iMzJweCIgZmlsbD0ibm9uZSIgc3Ryb2tlLWxpbmVjYXA9InJvdW5kIiAvPjwvZz48ZyBtYXNrPSJ1cmwoI2ZhZGUtdXApIiBzdHlsZT0idHJhbnNmb3JtOnRyYW5zbGF0ZSg3MnB4LDE4OXB4KSI+PHJlY3QgeD0iLTE2cHgiIHk9Ii0xNnB4IiB3aWR0aD0iMTgwcHgiIGhlaWdodD0iMTgwcHgiIGZpbGw9Im5vbmUiIC8+PHBhdGggZD0iTTEgMUMyNSA2NSA4MSAxMjEgMTQ1IDE0NSIgc3Ryb2tlPSJyZ2JhKDI1NSwyNTUsMjU1LDEpIiBmaWxsPSJub25lIiBzdHJva2UtbGluZWNhcD0icm91bmQiIC8+PC9nPjxjaXJjbGUgY3g9IjIxN3B4IiBjeT0iMzM0cHgiIHI9IjRweCIgZmlsbD0id2hpdGUiIC8+PGNpcmNsZSBjeD0iMjE3cHgiIGN5PSIzMzRweCIgcj0iMjRweCIgZmlsbD0ibm9uZSIgc3Ryb2tlPSJ3aGl0ZSIgLz4gPGcgc3R5bGU9InRyYW5zZm9ybTp0cmFuc2xhdGUoMjlweCwgMzg0cHgpIj48cmVjdCB3aWR0aD0iOThweCIgaGVpZ2h0PSIyNnB4IiByeD0iOHB4IiByeT0iOHB4IiBmaWxsPSJyZ2JhKDAsMCwwLDAuNikiIC8+PHRleHQgeD0iMTJweCIgeT0iMTdweCIgZm9udC1mYW1pbHk9IidDb3VyaWVyIE5ldycsIG1vbm9zcGFjZSIgZm9udC1zaXplPSIxMnB4IiBmaWxsPSJ3aGl0ZSI+PHRzcGFuIGZpbGw9InJnYmEoMjU1LDI1NSwyNTUsMC42KSI+SUQ6IDwvdHNwYW4+NzI0MjYwPC90ZXh0PjwvZz4gPGcgc3R5bGU9InRyYW5zZm9ybTp0cmFuc2xhdGUoMjlweCwgNDE0cHgpIj48cmVjdCB3aWR0aD0iMTQwcHgiIGhlaWdodD0iMjZweCIgcng9IjhweCIgcnk9IjhweCIgZmlsbD0icmdiYSgwLDAsMCwwLjYpIiAvPjx0ZXh0IHg9IjEycHgiIHk9IjE3cHgiIGZvbnQtZmFtaWx5PSInQ291cmllciBOZXcnLCBtb25vc3BhY2UiIGZvbnQtc2l6ZT0iMTJweCIgZmlsbD0id2hpdGUiPjx0c3BhbiBmaWxsPSJyZ2JhKDI1NSwyNTUsMjU1LDAuNikiPk1pbiBUaWNrOiA8L3RzcGFuPjE5Mzc0MDwvdGV4dD48L2c+IDxnIHN0eWxlPSJ0cmFuc2Zvcm06dHJhbnNsYXRlKDI5cHgsIDQ0NHB4KSI+PHJlY3Qgd2lkdGg9IjE0MHB4IiBoZWlnaHQ9IjI2cHgiIHJ4PSI4cHgiIHJ5PSI4cHgiIGZpbGw9InJnYmEoMCwwLDAsMC42KSIgLz48dGV4dCB4PSIxMnB4IiB5PSIxN3B4IiBmb250LWZhbWlseT0iJ0NvdXJpZXIgTmV3JywgbW9ub3NwYWNlIiBmb250LXNpemU9IjEycHgiIGZpbGw9IndoaXRlIj48dHNwYW4gZmlsbD0icmdiYSgyNTUsMjU1LDI1NSwwLjYpIj5NYXggVGljazogPC90c3Bhbj4xOTQ4MjA8L3RleHQ+PC9nPjxnIHN0eWxlPSJ0cmFuc2Zvcm06dHJhbnNsYXRlKDIyNnB4LCA0MzNweCkiPjxyZWN0IHdpZHRoPSIzNnB4IiBoZWlnaHQ9IjM2cHgiIHJ4PSI4cHgiIHJ5PSI4cHgiIGZpbGw9Im5vbmUiIHN0cm9rZT0icmdiYSgyNTUsMjU1LDI1NSwwLjIpIiAvPjxwYXRoIHN0cm9rZS1saW5lY2FwPSJyb3VuZCIgZD0iTTggOUM4LjAwMDA0IDIyLjk0OTQgMTYuMjA5OSAyOCAyNyAyOCIgZmlsbD0ibm9uZSIgc3Ryb2tlPSJ3aGl0ZSIgLz48Y2lyY2xlIHN0eWxlPSJ0cmFuc2Zvcm06dHJhbnNsYXRlM2QoMjRweCwgMjdweCwgMHB4KSIgY3g9IjBweCIgY3k9IjBweCIgcj0iNHB4IiBmaWxsPSJ3aGl0ZSIvPjwvZz48L3N2Zz4=\",\"name\":\"Uniswap
        - 0.3% - USDC/WETH - 3463.4<>3858.3\"},\"owner\":null,\"thumbnails\":null,\"token\":{\"address_hash\":\"0xC36442b4a4522E871399CD717aBDD847Ab11FE88\",\"circulating_market_cap\":null,\"decimals\":null,\"exchange_rate\":null,\"holders_count\":\"163053\",\"icon_url\":null,\"name\":\"Uniswap
        V3 Positions NFT-V1\",\"reputation\":\"ok\",\"symbol\":\"UNI-V3-POS\",\"total_supply\":\"955604\",\"type\":\"ERC-721\",\"volume_24h\":null}}},\"transaction_hash\":\"0x6d11b151d37310d148ca9177b436bad7f5caea7bb41591acf7b2d11466088d80\",\"type\":\"token_transfer\"}],\"base_fee_per_gas\":\"57475368\",\"timestamp\":\"2024-10-16T22:06:49.000000Z\",\"nonce\":22,\"historic_exchange_rate\":\"2610.95\",\"transaction_types\":[\"contract_call\",\"token_transfer\"],\"exchange_rate\":\"2912.51\",\"block_number\":126758816,\"has_error_in_internal_transactions\":false}"
    headers:
      CF-RAY:
      - 9c4205e02e4a9911-LHR
      Cache-Control:
      - max-age=0, private, must-revalidate
      Connection:
      - keep-alive
      Content-Type:
      - application/json; charset=utf-8
      Date:
      - Mon, 26 Jan 2026 18:20:12 GMT
      Nel:
      - '{"report_to":"cf-nel","success_fraction":0.0,"max_age":604800}'
      Report-To:
      - '{"group":"cf-nel","max_age":604800,"endpoints":[{"url":"https://a.nel.cloudflare.com/report/v4?s=rZB%2FbOT6VIBA9Jd6YwBHV00Vx6s8iX%2B3voD8g8EPZ%2B3ojFz4aCDwF7Z8JFSqu1aDgAgE%2BjDoSiJSDASlL5HEXeXbvPlnhOakB4aXykOUdtsjf5UO"}]}'
      Server:
      - cloudflare
      Transfer-Encoding:
      - chunked
      access-control-allow-credentials:
      - 'true'
      access-control-allow-origin:
      - '*'
      access-control-expose-headers:
      - bypass-429-option,x-ratelimit-reset,x-ratelimit-limit,x-ratelimit-remaining,api-v2-temp-token
      alt-svc:
      - h3=":443"; ma=86400
      bypass-429-option:
      - temporary_token
      cf-cache-status:
      - DYNAMIC
      content-length:
      - '72190'
      strict-transport-security:
      - max-age=31536000; includeSubDomains
      x-ratelimit-limit:
      - '600'
      x-ratelimit-remaining:
      - '595'
      x-ratelimit-reset:
      - '47799'
      x-request-id:
      - 4d2f22b670117d1d2736d0d48489b722
    status:
      code: 200
      message: OK
- request:
    body: null
    headers:
      Accept:
      - '*/*'
      Accept-Encoding:
      - gzip, deflate
      Connection:
      - keep-alive
      User-Agent:
      - rotki/1.41.4.dev420+gd91fa9ae0a.d20260126
    method: GET
    uri: https://explorer.optimism.io/api?action=txlistinternal&address=0x706A70067BE19BdadBea3600Db0626859Ff25D74&endblock=126759111&module=account&sort=asc&startblock=126758611
  response:
    body:
      string: '{"message":"OK","result":[{"blockNumber":"126758782","callType":"call","contractAddress":"","errCode":"","from":"0xc36442b4a4522e871399cd717abdd847ab11fe88","gas":"34124","gasUsed":"0","index":"12","input":"0x","isError":"0","timeStamp":"1729116341","to":"0x706a70067be19bdadbea3600db0626859ff25d74","transactionHash":"0x24cf6c88c9645cb5e92596488206319c39a0a1c4e2829a83c690df8f11cb80b6","type":"call","value":"288112954210517"},{"blockNumber":"126758816","callType":"call","contractAddress":"","errCode":"","from":"0x410b72ccfeacbb20a31785edaa358d25a07e143d","gas":"119766","gasUsed":"0","index":"13","input":"0x","isError":"0","timeStamp":"1729116409","to":"0x706a70067be19bdadbea3600db0626859ff25d74","transactionHash":"0x6d11b151d37310d148ca9177b436bad7f5caea7bb41591acf7b2d11466088d80","type":"call","value":"13155693021452970"}],"status":"1"}'
    headers:
      CF-RAY:
      - 9c4205e6182e9383-LHR
      Cache-Control:
      - max-age=0, private, must-revalidate
      Connection:
      - keep-alive
      Content-Type:
      - application/json; charset=utf-8
      Date:
      - Mon, 26 Jan 2026 18:20:13 GMT
      Nel:
      - '{"report_to":"cf-nel","success_fraction":0.0,"max_age":604800}'
      Report-To:
      - '{"group":"cf-nel","max_age":604800,"endpoints":[{"url":"https://a.nel.cloudflare.com/report/v4?s=dNeUsWz56a%2Frbd%2FPef3WMpzkCCleFRWHBQ%2FkgDmNMU2szsLg7fB19N4uugKqAP3Z11chRzXpuri%2FeDVPjF1PwdJr3Gsed5cNx1E4r5YHYUj2MN7e"}]}'
      Server:
      - cloudflare
      Transfer-Encoding:
      - chunked
      access-control-allow-credentials:
      - 'true'
      access-control-allow-origin:
      - '*'
      access-control-expose-headers:
      - bypass-429-option,x-ratelimit-reset,x-ratelimit-limit,x-ratelimit-remaining,api-v2-temp-token
      alt-svc:
      - h3=":443"; ma=86400
      bypass-429-option:
      - no_bypass
      cf-cache-status:
      - DYNAMIC
      content-length:
      - '847'
      strict-transport-security:
      - max-age=31536000; includeSubDomains
      x-ratelimit-limit:
      - '600'
      x-ratelimit-remaining:
      - '594'
      x-ratelimit-reset:
      - '46856'
      x-request-id:
      - 5ff49c26a59162f417b72e6adca5355a
    status:
      code: 200
      message: OK
- request:
    body: '{"jsonrpc": "2.0", "method": "web3_clientVersion", "params": [], "id":
      0}'
    headers:
      Accept:
      - '*/*'
      Accept-Encoding:
      - gzip, deflate
      Connection:
      - keep-alive
      Content-Length:
      - '73'
      Content-Type:
      - application/json
      User-Agent:
      - web3.py/7.14.0/web3.providers.rpc.rpc.HTTPProvider
    method: POST
    uri: https://mainnet.optimism.io/
  response:
    body:
      string: '{"jsonrpc":"2.0","result":"reth/v1.9.3-27a8c0f/x86_64-unknown-linux-gnu/base/v0.2.1","id":0}

        '
    headers:
      Alt-Svc:
      - h3=":443"; ma=2592000,h3-29=":443"; ma=2592000
      Content-Length:
      - '93'
      Content-Type:
      - application/json
      Date:
      - Mon, 26 Jan 2026 18:20:13 GMT
      Set-Cookie:
      - lb1=3d5a7df2f7437523; Path=/
      Vary:
      - Origin
      Via:
      - 1.1 google
      X-Proxyd-Cache-Status:
      - MISS
    status:
      code: 200
      message: OK
- request:
    body: '{"jsonrpc": "2.0", "method": "net_version", "params": [], "id": 1}'
    headers:
      Accept:
      - '*/*'
      Accept-Encoding:
      - gzip, deflate
      Connection:
      - keep-alive
      Content-Length:
      - '66'
      Content-Type:
      - application/json
      Cookie:
      - lb1=3d5a7df2f7437523
      User-Agent:
      - web3.py/7.14.0/web3.providers.rpc.rpc.HTTPProvider
    method: POST
    uri: https://mainnet.optimism.io/
  response:
    body:
      string: '{"jsonrpc":"2.0","result":"10","id":1}

        '
    headers:
      Alt-Svc:
      - h3=":443"; ma=2592000,h3-29=":443"; ma=2592000
      Content-Length:
      - '39'
      Content-Type:
      - application/json
      Date:
      - Mon, 26 Jan 2026 18:20:14 GMT
      Vary:
      - Origin
      Via:
      - 1.1 google
      X-Proxyd-Cache-Status:
      - HIT
    status:
      code: 200
      message: OK
- request:
    body: '{"jsonrpc": "2.0", "method": "eth_blockNumber", "params": [], "id": 2}'
    headers:
      Accept:
      - '*/*'
      Accept-Encoding:
      - gzip, deflate
      Connection:
      - keep-alive
      Content-Length:
      - '70'
      Content-Type:
      - application/json
      Cookie:
      - lb1=3d5a7df2f7437523
      User-Agent:
      - web3.py/7.14.0/web3.providers.rpc.rpc.HTTPProvider
    method: POST
    uri: https://mainnet.optimism.io/
  response:
    body:
      string: '{"jsonrpc":"2.0","result":"0x8c1eb52","id":2}

        '
    headers:
      Alt-Svc:
      - h3=":443"; ma=2592000,h3-29=":443"; ma=2592000
      Content-Length:
      - '46'
      Content-Type:
      - application/json
      Date:
      - Mon, 26 Jan 2026 18:20:14 GMT
      Vary:
      - Origin
      Via:
      - 1.1 google
      X-Proxyd-Cache-Status:
      - MISS
    status:
      code: 200
      message: OK
- request:
    body: '{"jsonrpc": "2.0", "method": "eth_getBalance", "params": ["0x76a05Df20bFEF5EcE3eB16afF9cb10134199A921",
      "0x12110"], "id": 3}'
    headers:
      Accept:
      - '*/*'
      Accept-Encoding:
      - gzip, deflate
      Connection:
      - keep-alive
      Content-Length:
      - '124'
      Content-Type:
      - application/json
      Cookie:
      - lb1=3d5a7df2f7437523
      User-Agent:
      - web3.py/7.14.0/web3.providers.rpc.rpc.HTTPProvider
    method: POST
    uri: https://mainnet.optimism.io/
  response:
    body:
      string: '{"jsonrpc":"2.0","result":"0xb1a2bc2ec50000","id":3}

        '
    headers:
      Alt-Svc:
      - h3=":443"; ma=2592000,h3-29=":443"; ma=2592000
      Content-Length:
      - '53'
      Content-Type:
      - application/json
      Date:
      - Mon, 26 Jan 2026 18:20:15 GMT
      Vary:
      - Origin
      Via:
      - 1.1 google
      X-Proxyd-Cache-Status:
      - MISS
    status:
      code: 200
      message: OK
- request:
    body: '{"jsonrpc": "2.0", "method": "eth_getTransactionByHash", "params": ["0x5e77a04531c7c107af1882d76cbff9486d0a9aa53701c30888509d4f5f2b003a"],
      "id": 4}'
    headers:
      Accept:
      - '*/*'
      Accept-Encoding:
      - gzip, deflate
      Connection:
      - keep-alive
      Content-Length:
      - '147'
      Content-Type:
      - application/json
      Cookie:
      - lb1=3d5a7df2f7437523
      User-Agent:
      - web3.py/7.14.0/web3.providers.rpc.rpc.HTTPProvider
    method: POST
    uri: https://mainnet.optimism.io/
  response:
    body:
      string: '{"jsonrpc":"2.0","result":{"blockHash":"0xbee7192e575af30420cae0c7776304ac196077ee72b048970549e4f08e875453","blockNumber":"0x1","from":"0x70b17c0fe982ab4a7ac17a4c25485643151a1f2d","gas":"0x7a120","gasPrice":"0x1","hash":"0x5e77a04531c7c107af1882d76cbff9486d0a9aa53701c30888509d4f5f2b003a","index":"0x0","input":"0x202ee0ed000000000000000000000000000000000000000000000000000000000001421800000000000000000000000000000000000000000000000000000000d0e3ebf0","l1BlockNumber":"0xcf7a45","l1Timestamp":"0x618d8837","l1TxOrigin":null,"nonce":"0x28972","queueIndex":null,"queueOrigin":"sequencer","r":"0xc878d22e771004beb73e7a4268fd4f447735812b94b217f6807412efcec90d61","rawTransaction":"0xf8a883028972018307a120948ce8c13d816fe6daf12d6fd9e4952e1fc88850af80b844202ee0ed000000000000000000000000000000000000000000000000000000000001421800000000000000000000000000000000000000000000000000000000d0e3ebf038a0c878d22e771004beb73e7a4268fd4f447735812b94b217f6807412efcec90d61a03588018735fb361c49e5de54b266b8b157c1ba3d6ee08e3bcbdee7cd725c16e8","s":"0x3588018735fb361c49e5de54b266b8b157c1ba3d6ee08e3bcbdee7cd725c16e8","to":"0x8ce8c13d816fe6daf12d6fd9e4952e1fc88850af","transactionIndex":"0x0","v":"0x38","value":"0x0"},"id":4}

        '
    headers:
      Alt-Svc:
      - h3=":443"; ma=2592000,h3-29=":443"; ma=2592000
      Content-Length:
      - '1203'
      Content-Type:
      - application/json
      Date:
      - Mon, 26 Jan 2026 18:20:15 GMT
      Vary:
      - Origin
      Via:
      - 1.1 google
      X-Proxyd-Cache-Status:
      - MISS
    status:
      code: 200
      message: OK
- request:
    body: '{"jsonrpc": "2.0", "method": "eth_getTransactionByHash", "params": ["0x24cf6c88c9645cb5e92596488206319c39a0a1c4e2829a83c690df8f11cb80b6"],
      "id": 5}'
    headers:
      Accept:
      - '*/*'
      Accept-Encoding:
      - gzip, deflate
      Connection:
      - keep-alive
      Content-Length:
      - '147'
      Content-Type:
      - application/json
      Cookie:
      - lb1=3d5a7df2f7437523
      User-Agent:
      - web3.py/7.14.0/web3.providers.rpc.rpc.HTTPProvider
    method: POST
    uri: https://mainnet.optimism.io/
  response:
    body:
      string: '{"jsonrpc":"2.0","result":{"accessList":[],"blockHash":"0xea783ab34371ca857614daf1ee413b538aa447421bccd1506f50a94c6513d5d3","blockNumber":"0x78e2f7e","chainId":"0xa","from":"0x706a70067be19bdadbea3600db0626859ff25d74","gas":"0x4018c","gasPrice":"0x3543b79","hash":"0x24cf6c88c9645cb5e92596488206319c39a0a1c4e2829a83c690df8f11cb80b6","input":"0xac9650d8000000000000000000000000000000000000000000000000000000000000002000000000000000000000000000000000000000000000000000000000000000030000000000000000000000000000000000000000000000000000000000000060000000000000000000000000000000000000000000000000000000000000012000000000000000000000000000000000000000000000000000000000000001a00000000000000000000000000000000000000000000000000000000000000084fc6f786500000000000000000000000000000000000000000000000000000000000b0d24000000000000000000000000000000000000000000000000000000000000000000000000000000000000000000000000ffffffffffffffffffffffffffffffff00000000000000000000000000000000ffffffffffffffffffffffffffffffff00000000000000000000000000000000000000000000000000000000000000000000000000000000000000000000000000000000000000000000004449404b7c0000000000000000000000000000000000000000000000000000000000000000000000000000000000000000706a70067be19bdadbea3600db0626859ff25d74000000000000000000000000000000000000000000000000000000000000000000000000000000000000000000000000000000000000000000000064df2ab5bb0000000000000000000000000b2c639c533813f4aa9d7837caf62653d097ff850000000000000000000000000000000000000000000000000000000000000000000000000000000000000000706a70067be19bdadbea3600db0626859ff25d7400000000000000000000000000000000000000000000000000000000","maxFeePerGas":"0x9c4d87e","maxPriorityFeePerGas":"0xa534f","nonce":"0x15","r":"0x201d33119bd82dc777dc6abb390ba8fc67bc32051429df3fd0e3a2e90985bdc0","s":"0x6b0667552b66b0cb5ef2fef67a458924538e8b91ee12d195c0e44d87b8b51415","to":"0xc36442b4a4522e871399cd717abdd847ab11fe88","transactionIndex":"0x32","type":"0x2","v":"0x0","value":"0x0","yParity":"0x0"},"id":5}

        '
    headers:
      Alt-Svc:
      - h3=":443"; ma=2592000,h3-29=":443"; ma=2592000
      Content-Length:
      - '1993'
      Content-Type:
      - application/json
      Date:
      - Mon, 26 Jan 2026 18:20:15 GMT
      Vary:
      - Origin
      Via:
      - 1.1 google
      X-Proxyd-Cache-Status:
      - MISS
    status:
      code: 200
      message: OK
- request:
    body: '{"jsonrpc": "2.0", "method": "eth_getBlockByNumber", "params": ["0x78e2f7e",
      false], "id": 6}'
    headers:
      Accept:
      - '*/*'
      Accept-Encoding:
      - gzip, deflate
      Connection:
      - keep-alive
      Content-Length:
      - '93'
      Content-Type:
      - application/json
      Cookie:
      - lb1=3d5a7df2f7437523
      User-Agent:
      - web3.py/7.14.0/web3.providers.rpc.rpc.HTTPProvider
    method: POST
    uri: https://mainnet.optimism.io/
  response:
    body:
      string: '{"jsonrpc":"2.0","result":{"baseFeePerGas":"0x349e82a","blobGasUsed":"0x0","difficulty":"0x0","excessBlobGas":"0x0","extraData":"0x","gasLimit":"0x1c9c380","gasUsed":"0x957741","hash":"0xea783ab34371ca857614daf1ee413b538aa447421bccd1506f50a94c6513d5d3","logsBloom":"0xd2d820aa40042005a0011080860b44b0c287408e21840158141412104444180901489180b180000630200050400cb3c011458240c00224125620045000645a2167900288b000a02a0501300f5078000901010422015680158451880d22020011902051481208a0201170000811300c0109009c8248454400004c809a902b8a009000c4050c00411000330701800246a40007eca481210c0341073048d200001112540000140030010009000200402c81e0a26a904435810a4003074440218180420148336202050111004a22c0021885e84020048480540110002002002c204440343ca9209d22042108000100812030e0801064248a8c114e00cc00108f2808","miner":"0x4200000000000000000000000000000000000011","mixHash":"0x417615f13ca3c0382236553e5c38f42676444ff54adc015ddbe5992e28b97a1b","nonce":"0x0000000000000000","number":"0x78e2f7e","parentBeaconBlockRoot":"0x9ece793c5dd611a95659d2de486cc0b806ad9a5d073eba6b81adfbc423bb6925","parentHash":"0xfcb23090c7635adefccfa827fdf9d64f2ead90abb148e34b6a27494dfcee052a","receiptsRoot":"0xe54d782c2efe95fd12699cb1dabd1f028a8b5d00a99de79a8f3fc65b8bb16de7","sha3Uncles":"0x1dcc4de8dec75d7aab85b567b6ccd41ad312451b948a7413f0a142fd40d49347","size":"0x9eee","stateRoot":"0x3be10a8723bd0b9fc178af08c74f9b5b4a269b7e9415ef3050efffb4cb31b04e","timestamp":"0x671038b5","transactions":["0xf062f416eb8278b7dcda874f337d6a7a40ee54415658fc89fd6d82793e703331","0xae4cceb39a202f0b6f4c27724e804043ad14816dc64af1817d96929e0cfa1e0c","0xc2c4bad361e3fb94b0350c1e40649e6d255ed0dcc29281012d6e88142e48218f","0x2c52859617330454ae2f517a1fc609022443f488d91ba9e4cbe49f43935a7af7","0x3332ecb159eb8c4205730ba885c58dbe9b7d67b030e9d82cc84afd09e4120d8e","0xfe12960d07d1e7d13602413a3ce9266da49d63e95a333a5eaea04ff439f9af06","0x62e163099a68b8b835c4c6638a0fa9874788560b27a43c5aeb2173b2426f4aaf","0xdd5501c0266346c165291dea99ba697bc40d9f8497ddb2794180767ced3f6fb0","0x1f13e568a4734667cf05e730275d909803b15abf4f156dcc80780925b58dc5fe","0xf6b63778d930e49a5971900f49e59d865266067a2b9e9d53b2eff4b47de9a709","0x018c2dbfefd31cec07458e62a788d14852dd7e50ccec993c1a874157d709835f","0x9b8c0c75fd443de404e80f863d9df1a9b6ca663823f84d375ccd0d110790ec87","0x39c9eae4f0b379f333894337c6bb946f3990c83b62e4d646ab7ef86738e8c6c6","0x69f7828d65c9f37d5fad4602f5f3b3767f224e8435e6fdb8f467cf4c92e59dcd","0x6fe98cccc1a0ea049ab1d4657b4ba2c0e837524a517abcc34e24bf20b10980c4","0xec8140b43fad6eb911f9895eaa6b9da00530ed192ec864395132df27b892c3b7","0xb728b22b37f6e8f5c6ade6fd98cbd555a3d6596af754a18350fd1c5c2e67d54a","0xbf977ab6d1f0ad53c35a27076141837daeb77a3a37e38fc506655fc30b489876","0xa8772fa3df7a26772259be9d5f7e7c6b689373ff843c141bfe3638a47007c20e","0x49fd50189e72e83fb26829644df81b82d9d8e1942fb8cdd86c7f400376da37b0","0xe4b73ccdae56b2715adaa3583fc525c88e28ed50d94a37175cea5e4917de78fe","0x59310d8bf13f8aea6d369566876cde1d3050e0b66ac254687e9723b69a52c0ff","0x3baf678cb9bf2824480be13ba8ca91a6d8f05f7e65969c956c5fc7ee44009e99","0x1b9cdb890e3bfbf7c79ed0a2335d19b93b397031eb9657478ee5922aa8a86f84","0x51a01af55fa10ba754a1bf4dcb6d825be0a13341a632fbf16882e41d650995ef","0x1d7803597a5e976a3bfba60b08d651c3f7ebfb99ec88f8479a4b1cb2b3b5b0a2","0x7bcc7871d6bfdfdf32038b7cbe9bcd191407a4c068a1c1d68b392134d20190a6","0xb8835e891b83f0a84ee00f8988608df69e098155eded09da83eb2ffeabf85974","0x3e9003424864afe22bcd3ef47f1a2d562c704d30eb3bf0a7d79fba6d7cd76ca1","0x28f32ee63d87277767c4fbb4231af3fad4ae866e7388f39ae127c33349f65da2","0x899e155921732f9388a37290330e6bfe8e1d5c4d42cc8dff34e5f225f6b6ed45","0xf68740def3643f947dde48589b33003885f4d53832a3ebbf81b4f61b852f6346","0x443c512353c46ce6e6b8db7321e45fc1e05202d78d88490d3992d554f726a6ba","0xa81b2cc13d1e370114cf6b8d2705ada3f5996984978edb301e1d6094547a83f4","0x299eb15f45466b50519b5b72aed40786e5ebc24b1dcb8ac27fd96e948e1d6549","0x11356f3b756024b86b7eedcfdce25a887d9e9ff9edf5c90d565fbd8633315064","0xd0c139f67dd123aa42cd23ca20f0152c696d1fc57007c80d71b401e38521bf10","0xe81125c8300c71ef140cdea10e4c5de489effcbacf600e1eb18b6b4e064ad9bf","0x73696e8d591aa93d149e89c814f82ded60ea68c4e36f779a38fd829e1b277dd3","0xc1e67e62935f7ceec66eb8540e65b1e1e38bdd96e772fa95ed9ec88957474587","0xdd24dcccad872d244b9f7c3693f6c8adbbff74d0518eae07bc4f6b07c7a0af8f","0x49d16193a149284d0090dff89ca83ebc988179afc46cdd9a3094956e88c0017b","0x29d2cdfa71709498de3174ca7a3f8984c336a9677a4c4b7d27e0209967cde854","0xc9137102c65ef1c5ab9fd2beb4e61c83689a275dcb01bea6ee6cdba780ec0bc7","0x7e8f0a81cf2696df0c7dc713d04d69dd7c00654ce57140e51feae48e233f5a18","0x8323a3fa581de4a39f749db9feb839184ecf72f539652c749de27022958e14b2","0x4dea4c0c6bf8665a066f295bfff5b25e882ac3b1d1774d25cdd1a32cc2e8b127","0x5f37650bb0f7122fd691c980c153e71afc97dcd1a0055031bc148f338f2b2f88","0xa49d23ca8069064e6111fe8435e95e52ee7815312753efc30fe523d6c4997b7c","0xb00a4a2d0b11e38741e63a2ce720b66f9b2df3acf341bd854e2218335da01ec9","0x24cf6c88c9645cb5e92596488206319c39a0a1c4e2829a83c690df8f11cb80b6"],"transactionsRoot":"0xa1bed6cd28926fa1ac61c910acbce20e49f74cb8997055614fbff22b811f8aa3","uncles":[],"withdrawals":[],"withdrawalsRoot":"0x56e81f171bcc55a6ff8345e692c0f86e5b48e01b996cadc001622fb5e363b421"},"id":6}

        '
    headers:
      Alt-Svc:
      - h3=":443"; ma=2592000,h3-29=":443"; ma=2592000
      Content-Type:
      - application/json
      Date:
      - Mon, 26 Jan 2026 18:20:16 GMT
      Transfer-Encoding:
      - chunked
      Vary:
      - Origin
      Via:
      - 1.1 google
      X-Proxyd-Cache-Status:
      - MISS
    status:
      code: 200
      message: OK
- request:
    body: '{"jsonrpc": "2.0", "method": "eth_getTransactionReceipt", "params": ["0x24cf6c88c9645cb5e92596488206319c39a0a1c4e2829a83c690df8f11cb80b6"],
      "id": 7}'
    headers:
      Accept:
      - '*/*'
      Accept-Encoding:
      - gzip, deflate
      Connection:
      - keep-alive
      Content-Length:
      - '148'
      Content-Type:
      - application/json
      Cookie:
      - lb1=3d5a7df2f7437523
      User-Agent:
      - web3.py/7.14.0/web3.providers.rpc.rpc.HTTPProvider
    method: POST
    uri: https://mainnet.optimism.io/
  response:
    body:
      string: '{"jsonrpc":"2.0","result":{"blockHash":"0xea783ab34371ca857614daf1ee413b538aa447421bccd1506f50a94c6513d5d3","blockNumber":"0x78e2f7e","contractAddress":null,"cumulativeGasUsed":"0x957741","effectiveGasPrice":"0x3543b79","from":"0x706a70067be19bdadbea3600db0626859ff25d74","gasUsed":"0x32baa","l1BaseFeeScalar":"0x146b","l1BlobBaseFee":"0x1","l1BlobBaseFeeScalar":"0xf79c5","l1Fee":"0x26e7fd0b7a","l1GasPrice":"0x28ccdf8b0","l1GasUsed":"0xb66","logs":[{"address":"0xc1738d90e2e26c35784a0d3e3d8a9f795074bca4","blockHash":"0xea783ab34371ca857614daf1ee413b538aa447421bccd1506f50a94c6513d5d3","blockNumber":"0x78e2f7e","blockTimestamp":"0x671038b5","data":"0x000000000000000000000000000000000000000000000000000000000000000000000000000000000000000000000000000000000000000000000000000000000000000000000000000000000000000000000000000000000000000000000000","logIndex":"0x181","removed":false,"topics":["0x0c396cd989a39f4459b5fa1aed6a9a8dcdbc45908acfd67e028cd568da98982c","0x000000000000000000000000c36442b4a4522e871399cd717abdd847ab11fe88","0x000000000000000000000000000000000000000000000000000000000002f4cc","0x000000000000000000000000000000000000000000000000000000000002f904"],"transactionHash":"0x24cf6c88c9645cb5e92596488206319c39a0a1c4e2829a83c690df8f11cb80b6","transactionIndex":"0x32"},{"address":"0x0b2c639c533813f4aa9d7837caf62653d097ff85","blockHash":"0xea783ab34371ca857614daf1ee413b538aa447421bccd1506f50a94c6513d5d3","blockNumber":"0x78e2f7e","blockTimestamp":"0x671038b5","data":"0x00000000000000000000000000000000000000000000000000000000000e8e5c","logIndex":"0x182","removed":false,"topics":["0xddf252ad1be2c89b69c2b068fc378daa952ba7f163c4a11628f55a4df523b3ef","0x000000000000000000000000c1738d90e2e26c35784a0d3e3d8a9f795074bca4","0x000000000000000000000000c36442b4a4522e871399cd717abdd847ab11fe88"],"transactionHash":"0x24cf6c88c9645cb5e92596488206319c39a0a1c4e2829a83c690df8f11cb80b6","transactionIndex":"0x32"},{"address":"0x4200000000000000000000000000000000000006","blockHash":"0xea783ab34371ca857614daf1ee413b538aa447421bccd1506f50a94c6513d5d3","blockNumber":"0x78e2f7e","blockTimestamp":"0x671038b5","data":"0x00000000000000000000000000000000000000000000000000010609864a78d5","logIndex":"0x183","removed":false,"topics":["0xddf252ad1be2c89b69c2b068fc378daa952ba7f163c4a11628f55a4df523b3ef","0x000000000000000000000000c1738d90e2e26c35784a0d3e3d8a9f795074bca4","0x000000000000000000000000c36442b4a4522e871399cd717abdd847ab11fe88"],"transactionHash":"0x24cf6c88c9645cb5e92596488206319c39a0a1c4e2829a83c690df8f11cb80b6","transactionIndex":"0x32"},{"address":"0xc1738d90e2e26c35784a0d3e3d8a9f795074bca4","blockHash":"0xea783ab34371ca857614daf1ee413b538aa447421bccd1506f50a94c6513d5d3","blockNumber":"0x78e2f7e","blockTimestamp":"0x671038b5","data":"0x000000000000000000000000c36442b4a4522e871399cd717abdd847ab11fe8800000000000000000000000000000000000000000000000000000000000e8e5c00000000000000000000000000000000000000000000000000010609864a78d5","logIndex":"0x184","removed":false,"topics":["0x70935338e69775456a85ddef226c395fb668b63fa0115f5f20610b388e6ca9c0","0x000000000000000000000000c36442b4a4522e871399cd717abdd847ab11fe88","0x000000000000000000000000000000000000000000000000000000000002f4cc","0x000000000000000000000000000000000000000000000000000000000002f904"],"transactionHash":"0x24cf6c88c9645cb5e92596488206319c39a0a1c4e2829a83c690df8f11cb80b6","transactionIndex":"0x32"},{"address":"0xc36442b4a4522e871399cd717abdd847ab11fe88","blockHash":"0xea783ab34371ca857614daf1ee413b538aa447421bccd1506f50a94c6513d5d3","blockNumber":"0x78e2f7e","blockTimestamp":"0x671038b5","data":"0x000000000000000000000000c36442b4a4522e871399cd717abdd847ab11fe8800000000000000000000000000000000000000000000000000000000000e8e5c00000000000000000000000000000000000000000000000000010609864a78d5","logIndex":"0x185","removed":false,"topics":["0x40d0efd1a53d60ecbf40971b9daf7dc90178c3aadc7aab1765632738fa8b8f01","0x00000000000000000000000000000000000000000000000000000000000b0d24"],"transactionHash":"0x24cf6c88c9645cb5e92596488206319c39a0a1c4e2829a83c690df8f11cb80b6","transactionIndex":"0x32"},{"address":"0x4200000000000000000000000000000000000006","blockHash":"0xea783ab34371ca857614daf1ee413b538aa447421bccd1506f50a94c6513d5d3","blockNumber":"0x78e2f7e","blockTimestamp":"0x671038b5","data":"0x00000000000000000000000000000000000000000000000000010609864a78d5","logIndex":"0x186","removed":false,"topics":["0x7fcf532c15f0a6db0bd6d0e038bea71d30d808c7d98cb3bf7268a95bf5081b65","0x000000000000000000000000c36442b4a4522e871399cd717abdd847ab11fe88"],"transactionHash":"0x24cf6c88c9645cb5e92596488206319c39a0a1c4e2829a83c690df8f11cb80b6","transactionIndex":"0x32"},{"address":"0x0b2c639c533813f4aa9d7837caf62653d097ff85","blockHash":"0xea783ab34371ca857614daf1ee413b538aa447421bccd1506f50a94c6513d5d3","blockNumber":"0x78e2f7e","blockTimestamp":"0x671038b5","data":"0x00000000000000000000000000000000000000000000000000000000000e8e5c","logIndex":"0x187","removed":false,"topics":["0xddf252ad1be2c89b69c2b068fc378daa952ba7f163c4a11628f55a4df523b3ef","0x000000000000000000000000c36442b4a4522e871399cd717abdd847ab11fe88","0x000000000000000000000000706a70067be19bdadbea3600db0626859ff25d74"],"transactionHash":"0x24cf6c88c9645cb5e92596488206319c39a0a1c4e2829a83c690df8f11cb80b6","transactionIndex":"0x32"}],"logsBloom":"0x008020000000000000000000020000000000000c0100000000040000400010000000000000000000000000104000000000010000000000000200000000000000000000000000a00000010008000000000000000000500000004008000000000000000000100080000000000000000000000000000004040000000090000008000000000000000000000000000000000000008000002000000000000002000000000000000000000000000000000000000000000000200008000200000000000040000002000000010000000000000000000000000000400000000002000000000000080000140000000000000000000000000000040000000000000000000000","status":"0x1","to":"0xc36442b4a4522e871399cd717abdd847ab11fe88","transactionHash":"0x24cf6c88c9645cb5e92596488206319c39a0a1c4e2829a83c690df8f11cb80b6","transactionIndex":"0x32","type":"0x2"},"id":7}

        '
    headers:
      Alt-Svc:
      - h3=":443"; ma=2592000,h3-29=":443"; ma=2592000
      Content-Type:
      - application/json
      Date:
      - Mon, 26 Jan 2026 18:20:16 GMT
      Transfer-Encoding:
      - chunked
      Vary:
      - Origin
      Via:
      - 1.1 google
      X-Proxyd-Cache-Status:
      - MISS
    status:
      code: 200
      message: OK
- request:
    body: '{"jsonrpc": "2.0", "method": "eth_getTransactionByHash", "params": ["0x6d11b151d37310d148ca9177b436bad7f5caea7bb41591acf7b2d11466088d80"],
      "id": 8}'
    headers:
      Accept:
      - '*/*'
      Accept-Encoding:
      - gzip, deflate
      Connection:
      - keep-alive
      Content-Length:
      - '147'
      Content-Type:
      - application/json
      Cookie:
      - lb1=3d5a7df2f7437523
      User-Agent:
      - web3.py/7.14.0/web3.providers.rpc.rpc.HTTPProvider
    method: POST
    uri: https://mainnet.optimism.io/
  response:
    body:
      string: '{"jsonrpc":"2.0","result":{"accessList":[],"blockHash":"0x324b2e7715df8e62cd54bbb2f92ccda318ef835a434077f5349be532629bfac9","blockNumber":"0x78e2fa0","chainId":"0xa","from":"0x706a70067be19bdadbea3600db0626859ff25d74","gas":"0x77e86","gasPrice":"0x3776ccb","hash":"0x6d11b151d37310d148ca9177b436bad7f5caea7bb41591acf7b2d11466088d80","input":"0xb88d4fde000000000000000000000000706a70067be19bdadbea3600db0626859ff25d74000000000000000000000000410b72ccfeacbb20a31785edaa358d25a07e143d00000000000000000000000000000000000000000000000000000000000b0d24000000000000000000000000000000000000000000000000000000000000008000000000000000000000000000000000000000000000000000000000000003000000000000000000000000000000000000000000000000000000000000000020000000000000000000000000000000000000000000000000000000000000000100000000000000000000000000000000000000000000000000000000000000000000000000000000000000004200000000000000000000000000000000000006000000000000000000000000000000000000000000000000000000000000000000000000000000000000000000000000000000000000000000000000000000000000000000000000000000000000000000000000000000000000000000000000000000000000000000000000000000000000000000000000000000000000000000000000000000000000000000000000000000000000000000000000000002a00000000000000000000000000000000000000000000000000000000000000000000000000000000000000000000000000000000000000000000000000000000000000000000000000000000000000000000000000000000000000000000002c000000000000000000000000000000000000000000000000000000000000000000000000000000000000000000000000000000000000000000000000000000000000000000000000000000000000000000000000000000000000000000000000100000000000000000000000000000000000000000000000000000d68b7598872000000000000000000000000000000000000000000000000000000000000000000000000000000000000000000000000000000000000000000000000000000000000000000000000000000000000000000000000000000000000000067103b43000000000000000000000000706a70067be19bdadbea3600db0626859ff25d740000000000000000000000000000000000000000000000000000000000000001000000000000000000000000000000000000000000000000004189374bc6a7f000000000000000000000000000000000000000000000000000000000000000000000000000000000000000000000000000000000000000000000000000000000","maxFeePerGas":"0xa45f2d0","maxPriorityFeePerGas":"0xa6ba3","nonce":"0x16","r":"0xaad0e4cc7f5b740b66d9d90b9f4c3b72036a8b9b17680941e8fa5312acff0fc9","s":"0x7cc2aac1491471cc9248832c8e45e03242774dfaa6a96762771fbe82490e4ecb","to":"0xc36442b4a4522e871399cd717abdd847ab11fe88","transactionIndex":"0x1f","type":"0x2","v":"0x0","value":"0x0","yParity":"0x0"},"id":8}

        '
    headers:
      Alt-Svc:
      - h3=":443"; ma=2592000,h3-29=":443"; ma=2592000
      Content-Type:
      - application/json
      Date:
      - Mon, 26 Jan 2026 18:20:17 GMT
      Transfer-Encoding:
      - chunked
      Vary:
      - Origin
      Via:
      - 1.1 google
      X-Proxyd-Cache-Status:
      - MISS
    status:
      code: 200
      message: OK
- request:
    body: '{"jsonrpc": "2.0", "method": "eth_getBlockByNumber", "params": ["0x78e2fa0",
      false], "id": 9}'
    headers:
      Accept:
      - '*/*'
      Accept-Encoding:
      - gzip, deflate
      Connection:
      - keep-alive
      Content-Length:
      - '93'
      Content-Type:
      - application/json
      Cookie:
      - lb1=3d5a7df2f7437523
      User-Agent:
      - web3.py/7.14.0/web3.providers.rpc.rpc.HTTPProvider
    method: POST
    uri: https://mainnet.optimism.io/
  response:
    body:
      string: '{"jsonrpc":"2.0","result":{"baseFeePerGas":"0x36d0128","blobGasUsed":"0x0","difficulty":"0x0","excessBlobGas":"0x0","extraData":"0x","gasLimit":"0x1c9c380","gasUsed":"0x50e591","hash":"0x324b2e7715df8e62cd54bbb2f92ccda318ef835a434077f5349be532629bfac9","logsBloom":"0x028520024411000800210080020000085024000c09840000460600004410100000082088b5000000000800304800400000810042800022021204040000a04a000e0200840000b40a0001000840400000200244010254800d204288000880001440a8004a1226804011000100d81408010004080090740440106080980c0808100004010020a200a084490002400402000004c520942808010003200802000400020820000400002048020010000485c0208105020020100800030000000501236000400200020011008020020002100000220002040040000080000a002020000012288200144500280000034000000010000004050080202200800000810200","miner":"0x4200000000000000000000000000000000000011","mixHash":"0x755aa9920282462d19434e75f2d34ef680cebe50d8549f1866dc23ef137f1679","nonce":"0x0000000000000000","number":"0x78e2fa0","parentBeaconBlockRoot":"0x0306cd0737a6ff793fca730c5b9f49af5a93189b9121e53c6b02b0dc46267c3a","parentHash":"0x59042e1f166a048d577155706fd101b5ed90de59cf8b5411592d776da484a41d","receiptsRoot":"0x9556dd390aac37cc06321fb28a64ea3d83720b0701ba266d9c21a8d01ba669d0","sha3Uncles":"0x1dcc4de8dec75d7aab85b567b6ccd41ad312451b948a7413f0a142fd40d49347","size":"0x8559","stateRoot":"0xeeeb412fe4701e37cb535aef78287deacb8fed8daa5717fa536f48f1549889be","timestamp":"0x671038f9","transactions":["0xd14f2ffcce80ba54a9e69102206a23339c381ef6ae16ed4fa87129f941ef218a","0x8d6964feceab1e4780f649e8a1ddb18a56eae8706b0adc5be18eccb99c15d497","0xdf123629edf28e7567e93d055cfa3fff1d5c277253d416c95735b3c33000e021","0x1fca586e0e03c52d2fced9b41b73862aa520961a36bc8e5d8c61dd2e24650d29","0xd165f9fd715b2d859f33d0183c561661c7ed241dd075376dbb2ee80cc1652747","0xc7a9db005ec146757e1228c558f407e4732f47f3ba5460a725018a48ecd56ffa","0x775ae75737cbcef7be256e0ee31c16f1e25e3ef4a8cfc5b13354924be9d1157f","0x430eddc2d135cfe59ea6a7a2dc24103a8fe6ecaae0c2074521b09129d632ad69","0xc376c0a669465022e6cbd52e3f9a4688ff78e95b4e699835c5f94598f703d161","0x18e8b8c0165449672247a1882f927ab0bbe8f4aea438262e5a1a76fd890802b7","0xe7de29e12a97bb280c2d1c05c2516fd87bf5d7cbe59f003d533f5a1e09870e47","0xf44508b2eafebb75f772a995e5faab6e05306d527e830c86db5d1337c55b649b","0xcdfe42c05eda5f60815661517e5b972b1b3b265e5090c4ecddf29407ff41e690","0x6cf845f5a285d9cdd0eadf5af1229ebbbe6966a8cf67a970a4d090967fd317e0","0x66dce57ab6b499ff5e7de48f7696ebd20ac1413740605ebca9a5088e13883872","0xd20720c19822cf06a20ee4e3aaec0574a55e72ac512c36584f13c73eb388469a","0x38fe1033ad26e4e1f32c90e601b53904a921211e690c6d34ce3968e6caed57f4","0xe305b3054d3b2e6b261ddfc6cc886a4cd773153a53b888b9876044e0b1c16aa7","0xaaeb3970f5603cc7c87ddf81b8b230e26851a702f3c90a6072496e7e9e0177f0","0xc4c8e5df991c19dc971b74c9e5cf03770bc52d71904cd91f90053a87293b48bd","0xfc49bc0dc20aef524c89bea133a8f4056f26fae8bbbd96178df89b44d1d45206","0xa886fca13c11b7bd3ee15ca2345573ddd2b02590d8414ba44c7ea65ce2319928","0x556537770b5048501fd16a175742e6448d04793fbc3cfe2fcf5b9e809bc640b5","0xd0e1123bbbec91902f8735740c6d5c85bfa5ae70ae6f9a9aeb33d87f7e9b9733","0x08992ab24b86b62fc2e207535f5250b9bc595408b0963ad930945d7c643a4a6c","0x2a541471fa6ffb830a8201920dbd034c0c59f2fd434ef9f8794a5cafef3159bf","0xb2617057dc5e2fda37b3220d7a4089c29fd972c972fac8cd77eafb99cbed1a23","0xd065bc85b9f57279a71f7f8c692cd37ae12ef209199e4070cf64e2af588f8a6e","0x0fc7941729f8c1d878ba76bef90ec0d50494990e509fa92605f6be4b4c633554","0x20ed8f8b51b8b908f39e99d35d1ff7cfaac04380e74d537b1497dd09180ccbd8","0xebfb6cf0ccb7fb7d18590b95198832bfc233ec186893c83edb0dc0428426b24d","0x6d11b151d37310d148ca9177b436bad7f5caea7bb41591acf7b2d11466088d80"],"transactionsRoot":"0xacfee261c84a9580532dbb9935c6941f6a5463a7abb1b242181310312bfb114c","uncles":[],"withdrawals":[],"withdrawalsRoot":"0x56e81f171bcc55a6ff8345e692c0f86e5b48e01b996cadc001622fb5e363b421"},"id":9}

        '
    headers:
      Alt-Svc:
      - h3=":443"; ma=2592000,h3-29=":443"; ma=2592000
      Content-Type:
      - application/json
      Date:
      - Mon, 26 Jan 2026 18:20:17 GMT
      Transfer-Encoding:
      - chunked
      Vary:
      - Origin
      Via:
      - 1.1 google
      X-Proxyd-Cache-Status:
      - MISS
    status:
      code: 200
      message: OK
- request:
    body: '{"jsonrpc": "2.0", "method": "eth_getTransactionReceipt", "params": ["0x6d11b151d37310d148ca9177b436bad7f5caea7bb41591acf7b2d11466088d80"],
      "id": 10}'
    headers:
      Accept:
      - '*/*'
      Accept-Encoding:
      - gzip, deflate
      Connection:
      - keep-alive
      Content-Length:
      - '149'
      Content-Type:
      - application/json
      Cookie:
      - lb1=3d5a7df2f7437523
      User-Agent:
      - web3.py/7.14.0/web3.providers.rpc.rpc.HTTPProvider
    method: POST
    uri: https://mainnet.optimism.io/
  response:
    body:
      string: '{"jsonrpc":"2.0","result":{"blockHash":"0x324b2e7715df8e62cd54bbb2f92ccda318ef835a434077f5349be532629bfac9","blockNumber":"0x78e2fa0","contractAddress":null,"cumulativeGasUsed":"0x50e591","effectiveGasPrice":"0x3776ccb","from":"0x706a70067be19bdadbea3600db0626859ff25d74","gasUsed":"0x49e74","l1BaseFeeScalar":"0x146b","l1BlobBaseFee":"0x1","l1BlobBaseFeeScalar":"0xf79c5","l1Fee":"0x2be4bd84a6","l1GasPrice":"0x2ae25d7bb","l1GasUsed":"0xc3d","logs":[{"address":"0xc36442b4a4522e871399cd717abdd847ab11fe88","blockHash":"0x324b2e7715df8e62cd54bbb2f92ccda318ef835a434077f5349be532629bfac9","blockNumber":"0x78e2fa0","blockTimestamp":"0x671038f9","data":"0x","logIndex":"0x116","removed":false,"topics":["0x8c5be1e5ebec7d5bd14f71427d1e84f3dd0314c0f7b2291e5b200ac8c7c3b925","0x000000000000000000000000706a70067be19bdadbea3600db0626859ff25d74","0x0000000000000000000000000000000000000000000000000000000000000000","0x00000000000000000000000000000000000000000000000000000000000b0d24"],"transactionHash":"0x6d11b151d37310d148ca9177b436bad7f5caea7bb41591acf7b2d11466088d80","transactionIndex":"0x1f"},{"address":"0xc36442b4a4522e871399cd717abdd847ab11fe88","blockHash":"0x324b2e7715df8e62cd54bbb2f92ccda318ef835a434077f5349be532629bfac9","blockNumber":"0x78e2fa0","blockTimestamp":"0x671038f9","data":"0x","logIndex":"0x117","removed":false,"topics":["0xddf252ad1be2c89b69c2b068fc378daa952ba7f163c4a11628f55a4df523b3ef","0x000000000000000000000000706a70067be19bdadbea3600db0626859ff25d74","0x000000000000000000000000410b72ccfeacbb20a31785edaa358d25a07e143d","0x00000000000000000000000000000000000000000000000000000000000b0d24"],"transactionHash":"0x6d11b151d37310d148ca9177b436bad7f5caea7bb41591acf7b2d11466088d80","transactionIndex":"0x1f"},{"address":"0xc1738d90e2e26c35784a0d3e3d8a9f795074bca4","blockHash":"0x324b2e7715df8e62cd54bbb2f92ccda318ef835a434077f5349be532629bfac9","blockNumber":"0x78e2fa0","blockTimestamp":"0x671038f9","data":"0x00000000000000000000000000000000000000000000000000000d68b75988720000000000000000000000000000000000000000000000000000000000000000000000000000000000000000000000000000000000000000002ec90296a70672","logIndex":"0x118","removed":false,"topics":["0x0c396cd989a39f4459b5fa1aed6a9a8dcdbc45908acfd67e028cd568da98982c","0x000000000000000000000000c36442b4a4522e871399cd717abdd847ab11fe88","0x000000000000000000000000000000000000000000000000000000000002f4cc","0x000000000000000000000000000000000000000000000000000000000002f904"],"transactionHash":"0x6d11b151d37310d148ca9177b436bad7f5caea7bb41591acf7b2d11466088d80","transactionIndex":"0x1f"},{"address":"0xc36442b4a4522e871399cd717abdd847ab11fe88","blockHash":"0x324b2e7715df8e62cd54bbb2f92ccda318ef835a434077f5349be532629bfac9","blockNumber":"0x78e2fa0","blockTimestamp":"0x671038f9","data":"0x00000000000000000000000000000000000000000000000000000d68b75988720000000000000000000000000000000000000000000000000000000000000000000000000000000000000000000000000000000000000000002ec90296a70672","logIndex":"0x119","removed":false,"topics":["0x26f6a048ee9138f2c0ce266f322cb99228e8d619ae2bff30c67f8dcf9d2377b4","0x00000000000000000000000000000000000000000000000000000000000b0d24"],"transactionHash":"0x6d11b151d37310d148ca9177b436bad7f5caea7bb41591acf7b2d11466088d80","transactionIndex":"0x1f"},{"address":"0x4200000000000000000000000000000000000006","blockHash":"0x324b2e7715df8e62cd54bbb2f92ccda318ef835a434077f5349be532629bfac9","blockNumber":"0x78e2fa0","blockTimestamp":"0x671038f9","data":"0x000000000000000000000000000000000000000000000000002ec90296a70672","logIndex":"0x11a","removed":false,"topics":["0xddf252ad1be2c89b69c2b068fc378daa952ba7f163c4a11628f55a4df523b3ef","0x000000000000000000000000c1738d90e2e26c35784a0d3e3d8a9f795074bca4","0x000000000000000000000000410b72ccfeacbb20a31785edaa358d25a07e143d"],"transactionHash":"0x6d11b151d37310d148ca9177b436bad7f5caea7bb41591acf7b2d11466088d80","transactionIndex":"0x1f"},{"address":"0xc1738d90e2e26c35784a0d3e3d8a9f795074bca4","blockHash":"0x324b2e7715df8e62cd54bbb2f92ccda318ef835a434077f5349be532629bfac9","blockNumber":"0x78e2fa0","blockTimestamp":"0x671038f9","data":"0x000000000000000000000000410b72ccfeacbb20a31785edaa358d25a07e143d0000000000000000000000000000000000000000000000000000000000000000000000000000000000000000000000000000000000000000002ec90296a70672","logIndex":"0x11b","removed":false,"topics":["0x70935338e69775456a85ddef226c395fb668b63fa0115f5f20610b388e6ca9c0","0x000000000000000000000000c36442b4a4522e871399cd717abdd847ab11fe88","0x000000000000000000000000000000000000000000000000000000000002f4cc","0x000000000000000000000000000000000000000000000000000000000002f904"],"transactionHash":"0x6d11b151d37310d148ca9177b436bad7f5caea7bb41591acf7b2d11466088d80","transactionIndex":"0x1f"},{"address":"0xc36442b4a4522e871399cd717abdd847ab11fe88","blockHash":"0x324b2e7715df8e62cd54bbb2f92ccda318ef835a434077f5349be532629bfac9","blockNumber":"0x78e2fa0","blockTimestamp":"0x671038f9","data":"0x000000000000000000000000410b72ccfeacbb20a31785edaa358d25a07e143d0000000000000000000000000000000000000000000000000000000000000000000000000000000000000000000000000000000000000000002ec90296a70672","logIndex":"0x11c","removed":false,"topics":["0x40d0efd1a53d60ecbf40971b9daf7dc90178c3aadc7aab1765632738fa8b8f01","0x00000000000000000000000000000000000000000000000000000000000b0d24"],"transactionHash":"0x6d11b151d37310d148ca9177b436bad7f5caea7bb41591acf7b2d11466088d80","transactionIndex":"0x1f"},{"address":"0x4200000000000000000000000000000000000006","blockHash":"0x324b2e7715df8e62cd54bbb2f92ccda318ef835a434077f5349be532629bfac9","blockNumber":"0x78e2fa0","blockTimestamp":"0x671038f9","data":"0x00000000000000000000000000000000000000000000000000000bfa1d55abc8","logIndex":"0x11d","removed":false,"topics":["0xddf252ad1be2c89b69c2b068fc378daa952ba7f163c4a11628f55a4df523b3ef","0x000000000000000000000000410b72ccfeacbb20a31785edaa358d25a07e143d","0x0000000000000000000000008c4f68b691bdc29dece2c4e569a6cff3f042676f"],"transactionHash":"0x6d11b151d37310d148ca9177b436bad7f5caea7bb41591acf7b2d11466088d80","transactionIndex":"0x1f"},{"address":"0x410b72ccfeacbb20a31785edaa358d25a07e143d","blockHash":"0x324b2e7715df8e62cd54bbb2f92ccda318ef835a434077f5349be532629bfac9","blockNumber":"0x78e2fa0","blockTimestamp":"0x671038f9","data":"0x0000000000000000000000000b2c639c533813f4aa9d7837caf62653d097ff85000000000000000000000000420000000000000000000000000000000000000600000000000000000000000000000000000000000000000000000000000000000000000000000000000000000000000000000000000000000000000000000000000000000000000000000000000000000000000000000000002ec90296a706720000000000000000000000000000000000000000000000000000000000000000000000000000000000000000000000000000000000000000000000000000000000000000000000000000000000000000000000000000000000000bfa1d55abc80000000000000000000000000000000000000000000000000000000000000000000000000000000000000000000000000000000000000000004189374bc6a7f00000000000000000000000000000000000000000000000000000000000000001","logIndex":"0x11e","removed":false,"topics":["0x07b9ff32d43e39b450a13b642c1e93282a8ea460336f1422bddc6164b304c2da","0x000000000000000000000000c36442b4a4522e871399cd717abdd847ab11fe88","0x00000000000000000000000000000000000000000000000000000000000b0d24","0x000000000000000000000000706a70067be19bdadbea3600db0626859ff25d74"],"transactionHash":"0x6d11b151d37310d148ca9177b436bad7f5caea7bb41591acf7b2d11466088d80","transactionIndex":"0x1f"},{"address":"0x4200000000000000000000000000000000000006","blockHash":"0x324b2e7715df8e62cd54bbb2f92ccda318ef835a434077f5349be532629bfac9","blockNumber":"0x78e2fa0","blockTimestamp":"0x671038f9","data":"0x000000000000000000000000000000000000000000000000002ebd0879515aaa","logIndex":"0x11f","removed":false,"topics":["0x7fcf532c15f0a6db0bd6d0e038bea71d30d808c7d98cb3bf7268a95bf5081b65","0x000000000000000000000000410b72ccfeacbb20a31785edaa358d25a07e143d"],"transactionHash":"0x6d11b151d37310d148ca9177b436bad7f5caea7bb41591acf7b2d11466088d80","transactionIndex":"0x1f"},{"address":"0x410b72ccfeacbb20a31785edaa358d25a07e143d","blockHash":"0x324b2e7715df8e62cd54bbb2f92ccda318ef835a434077f5349be532629bfac9","blockNumber":"0x78e2fa0","blockTimestamp":"0x671038f9","data":"0x0000000000000000000000004200000000000000000000000000000000000006000000000000000000000000000000000000000000000000002ebd0879515aaa","logIndex":"0x120","removed":false,"topics":["0xc082f11600156d64071ed597a7b831f56741ad4e14954598e674e1ec2b61da0c","0x000000000000000000000000c36442b4a4522e871399cd717abdd847ab11fe88","0x00000000000000000000000000000000000000000000000000000000000b0d24"],"transactionHash":"0x6d11b151d37310d148ca9177b436bad7f5caea7bb41591acf7b2d11466088d80","transactionIndex":"0x1f"},{"address":"0xc36442b4a4522e871399cd717abdd847ab11fe88","blockHash":"0x324b2e7715df8e62cd54bbb2f92ccda318ef835a434077f5349be532629bfac9","blockNumber":"0x78e2fa0","blockTimestamp":"0x671038f9","data":"0x","logIndex":"0x121","removed":false,"topics":["0x8c5be1e5ebec7d5bd14f71427d1e84f3dd0314c0f7b2291e5b200ac8c7c3b925","0x000000000000000000000000410b72ccfeacbb20a31785edaa358d25a07e143d","0x0000000000000000000000000000000000000000000000000000000000000000","0x00000000000000000000000000000000000000000000000000000000000b0d24"],"transactionHash":"0x6d11b151d37310d148ca9177b436bad7f5caea7bb41591acf7b2d11466088d80","transactionIndex":"0x1f"},{"address":"0xc36442b4a4522e871399cd717abdd847ab11fe88","blockHash":"0x324b2e7715df8e62cd54bbb2f92ccda318ef835a434077f5349be532629bfac9","blockNumber":"0x78e2fa0","blockTimestamp":"0x671038f9","data":"0x","logIndex":"0x122","removed":false,"topics":["0xddf252ad1be2c89b69c2b068fc378daa952ba7f163c4a11628f55a4df523b3ef","0x000000000000000000000000410b72ccfeacbb20a31785edaa358d25a07e143d","0x000000000000000000000000706a70067be19bdadbea3600db0626859ff25d74","0x00000000000000000000000000000000000000000000000000000000000b0d24"],"transactionHash":"0x6d11b151d37310d148ca9177b436bad7f5caea7bb41591acf7b2d11466088d80","transactionIndex":"0x1f"}],"logsBloom":"0x00800000000000000000000002000000000000040100000040060000400010000000000090000000000000104000000000010000000000000200000000200000000000000000a00000010008000000000000000000500001004008000000000000000000120080000100000000000800000400001004040000008090000008000000000000200000800000020000000000008000042000000000000000000000020000000000002000000000000000000001000000200008000300000000000040000002000000010000000000000000000000000000400000800002000020000010080000140000000000000000000000000000040000200000000000000000","status":"0x1","to":"0xc36442b4a4522e871399cd717abdd847ab11fe88","transactionHash":"0x6d11b151d37310d148ca9177b436bad7f5caea7bb41591acf7b2d11466088d80","transactionIndex":"0x1f","type":"0x2"},"id":10}

        '
    headers:
      Alt-Svc:
      - h3=":443"; ma=2592000,h3-29=":443"; ma=2592000
      Content-Type:
      - application/json
      Date:
      - Mon, 26 Jan 2026 18:20:18 GMT
      Transfer-Encoding:
      - chunked
      Vary:
      - Origin
      Via:
      - 1.1 google
      X-Proxyd-Cache-Status:
      - MISS
    status:
      code: 200
      message: OK
- request:
    body: null
    headers:
      Accept:
      - '*/*'
      Accept-Encoding:
      - gzip, deflate
      Connection:
      - keep-alive
      User-Agent:
      - rotki/1.41.4.dev420+gd91fa9ae0a.d20260126
    method: GET
    uri: https://explorer.optimism.io/api?action=tokentx&address=0x706A70067BE19BdadBea3600Db0626859Ff25D74&endblock=126759111&module=account&sort=asc&startblock=126758611
  response:
    body:
      string: '{"message":"OK","result":[{"value":"953948","blockHash":"0xea783ab34371ca857614daf1ee413b538aa447421bccd1506f50a94c6513d5d3","blockNumber":"126758782","confirmations":"20167638","contractAddress":"0x0b2c639c533813f4aa9d7837caf62653d097ff85","cumulativeGasUsed":"9795393","from":"0xc36442b4a4522e871399cd717abdd847ab11fe88","functionName":"multicall(bytes[]
        data)","gas":"262540","gasPrice":"55851897","gasUsed":"207786","hash":"0x24cf6c88c9645cb5e92596488206319c39a0a1c4e2829a83c690df8f11cb80b6","input":"0xac9650d8000000000000000000000000000000000000000000000000000000000000002000000000000000000000000000000000000000000000000000000000000000030000000000000000000000000000000000000000000000000000000000000060000000000000000000000000000000000000000000000000000000000000012000000000000000000000000000000000000000000000000000000000000001a00000000000000000000000000000000000000000000000000000000000000084fc6f786500000000000000000000000000000000000000000000000000000000000b0d24000000000000000000000000000000000000000000000000000000000000000000000000000000000000000000000000ffffffffffffffffffffffffffffffff00000000000000000000000000000000ffffffffffffffffffffffffffffffff00000000000000000000000000000000000000000000000000000000000000000000000000000000000000000000000000000000000000000000004449404b7c0000000000000000000000000000000000000000000000000000000000000000000000000000000000000000706a70067be19bdadbea3600db0626859ff25d74000000000000000000000000000000000000000000000000000000000000000000000000000000000000000000000000000000000000000000000064df2ab5bb0000000000000000000000000b2c639c533813f4aa9d7837caf62653d097ff850000000000000000000000000000000000000000000000000000000000000000000000000000000000000000706a70067be19bdadbea3600db0626859ff25d7400000000000000000000000000000000000000000000000000000000","methodId":"ac9650d8","nonce":"21","timeStamp":"1729116341","to":"0x706a70067be19bdadbea3600db0626859ff25d74","tokenDecimal":"6","tokenName":"USD
        Coin","tokenSymbol":"USDC","transactionIndex":"50"}],"status":"1"}'
    headers:
      CF-RAY:
      - 9c420607d86bbdb2-LHR
      Cache-Control:
      - max-age=0, private, must-revalidate
      Connection:
      - keep-alive
      Content-Type:
      - application/json; charset=utf-8
      Date:
      - Mon, 26 Jan 2026 18:20:18 GMT
      Nel:
      - '{"report_to":"cf-nel","success_fraction":0.0,"max_age":604800}'
      Report-To:
      - '{"group":"cf-nel","max_age":604800,"endpoints":[{"url":"https://a.nel.cloudflare.com/report/v4?s=QK4FCizt0LrYcQ88OXn6B2dz9Euv418iRQgQLPd44HOFN3eDTxnA5oL%2FLWDtIVw0dQqCOyqnKo1RfjVA4NuJdeZE8V%2BevnryT6P0UyfU0Nm7YVvq"}]}'
      Server:
      - cloudflare
      Transfer-Encoding:
      - chunked
      access-control-allow-credentials:
      - 'true'
      access-control-allow-origin:
      - '*'
      access-control-expose-headers:
      - bypass-429-option,x-ratelimit-reset,x-ratelimit-limit,x-ratelimit-remaining,api-v2-temp-token
      alt-svc:
      - h3=":443"; ma=86400
      bypass-429-option:
      - no_bypass
      cf-cache-status:
      - DYNAMIC
      content-length:
      - '2009'
      strict-transport-security:
      - max-age=31536000; includeSubDomains
      x-ratelimit-limit:
      - '600'
      x-ratelimit-remaining:
      - '593'
      x-ratelimit-reset:
      - '41457'
      x-request-id:
      - 300e6672632aeb460dd8603873185825
    status:
      code: 200
      message: OK
version: 1
