interactions:
- request:
    body: null
    headers:
      Accept:
      - '*/*'
      Accept-Encoding:
      - gzip, deflate
      Connection:
      - keep-alive
      User-Agent:
      - rotki/1.27.2.dev552+gb6817212c.d20230507
    method: GET
    uri: https://api-optimistic.etherscan.io/api?module=proxy&action=eth_getTransactionByHash&txhash=0xeb9fb7b5047a30c4bb7e68343c6657ba4b0f0bcaf3d64972dcc01ccc3c10608b&apikey=IK3GCCMPQXTRIEGBAXQ9DUFWIUR524K3MW
  response:
    body:
      string: '{"jsonrpc":"2.0","id":1,"result":{"blockHash":"0x189ab8659924bb9eef8216e1f29e3596d522c0efde1142e612f6915ac1ced28d","blockNumber":"0x5ca351b","from":"0x2b888954421b424c5d3d9ce9bb67c9bd47537d12","gas":"0x3c0e6","gasPrice":"0xf4240","hash":"0xeb9fb7b5047a30c4bb7e68343c6657ba4b0f0bcaf3d64972dcc01ccc3c10608b","input":"0x7b3c71d37262d92efbcd6e91341699994814715b5e39d7ec83df1823b65763f974131e50000000000000000000000000000000000000000000000000000000000000000100000000000000000000000000000000000000000000000000000000000000600000000000000000000000000000000000000000000000000000000000000000","nonce":"0x7","to":"0xcdf27f107725988f2261ce2256bdfcde8b382b10","transactionIndex":"0x0","value":"0x0","v":"0x38","r":"0xe5a1c61a9b4ee6f9981b95304130df1a634a8b81d88e181399369057b237b71d","s":"0x79d89e2e12b47d61302e70c31d1333a86ec37a649d55076a39f75d13cd419575","queueOrigin":"sequencer","l1TxOrigin":null,"l1BlockNumber":"0x106d6bd","l1Timestamp":"0x645ab66b","index":"0x5ca351a","queueIndex":null,"rawTransaction":"0xf8e807830f42408303c0e694cdf27f107725988f2261ce2256bdfcde8b382b1080b8847b3c71d37262d92efbcd6e91341699994814715b5e39d7ec83df1823b65763f974131e5000000000000000000000000000000000000000000000000000000000000000010000000000000000000000000000000000000000000000000000000000000060000000000000000000000000000000000000000000000000000000000000000038a0e5a1c61a9b4ee6f9981b95304130df1a634a8b81d88e181399369057b237b71da079d89e2e12b47d61302e70c31d1333a86ec37a649d55076a39f75d13cd419575"}}

        '
    headers:
      Access-Control-Allow-Headers:
      - Content-Type
      Access-Control-Allow-Methods:
      - GET, POST, OPTIONS
      Access-Control-Allow-Origin:
      - '*'
      CF-Cache-Status:
      - DYNAMIC
      CF-RAY:
      - 7c5199c73a4d4163-HAM
      Cache-Control:
      - private
      Connection:
      - keep-alive
      Content-Type:
      - application/json; charset=utf-8
      Date:
      - Wed, 10 May 2023 10:46:50 GMT
      Server:
      - cloudflare
      Vary:
      - Accept-Encoding
      X-Frame-Options:
      - SAMEORIGIN
      alt-svc:
      - h3=":443"; ma=86400, h3-29=":443"; ma=86400
      content-length:
      - '1472'
    status:
      code: 200
      message: OK
- request:
    body: null
    headers:
      Accept:
      - '*/*'
      Accept-Encoding:
      - gzip, deflate
      Connection:
      - keep-alive
      User-Agent:
      - rotki/1.27.2.dev552+gb6817212c.d20230507
    method: GET
    uri: https://api-optimistic.etherscan.io/api?module=proxy&action=eth_getBlockByNumber&tag=0x5ca351b&boolean=true&apikey=IK3GCCMPQXTRIEGBAXQ9DUFWIUR524K3MW
  response:
    body:
      string: '{"jsonrpc":"2.0","id":1,"result":{"difficulty":"0x2","extraData":"0xd98301090a846765746889676f312e31352e3133856c696e757800000000000070547a0361a46908f43fb019ecdc9d8bd01e9d06f7e7fc7c88688335a79cb2db5887d771aa8e00ddcfdfbbc4188cecde9ef418e51165365257b9940677f5324b01","gasLimit":"0xe4e1c0","gasUsed":"0x1dae4","hash":"0x189ab8659924bb9eef8216e1f29e3596d522c0efde1142e612f6915ac1ced28d","logsBloom":"0x00008000000000000000000000000000000000000000000000000000000000000000000000000000000000000002000000000000000000000000000200000000020000000000000000000000000000000000000000400000000000000000000000000000080000000000000000000000000000100000000000000000000000000000000000000000000000040000000000000000000000000000000000000000000000000000000000000000000000000080000000000000000000000000000000000000000000000000000000000000000000000000000000000000000000000000000000000000000000000000000000000000000000000000000000000000","miner":"0x0000000000000000000000000000000000000000","mixHash":"0x0000000000000000000000000000000000000000000000000000000000000000","nonce":"0x0000000000000000","number":"0x5ca351b","parentHash":"0xfed7106a4ffdae86f45e3c52bde36bc2d3d7d18f94563c2afcfbec4dc925667d","receiptsRoot":"0x726a30d3c9f405912bd5e03d0dfd07575320b89bbd0849fdf1e013d9fc11ab49","sha3Uncles":"0x1dcc4de8dec75d7aab85b567b6ccd41ad312451b948a7413f0a142fd40d49347","size":"0x350","stateRoot":"0x7af56c8e03c20106c5734be18724a037f250f942eee09299049dd5837c63e696","timestamp":"0x645ab66b","totalDifficulty":"0xb946a37","transactions":[{"blockHash":"0x189ab8659924bb9eef8216e1f29e3596d522c0efde1142e612f6915ac1ced28d","blockNumber":"0x5ca351b","from":"0x2b888954421b424c5d3d9ce9bb67c9bd47537d12","gas":"0x3c0e6","gasPrice":"0xf4240","hash":"0xeb9fb7b5047a30c4bb7e68343c6657ba4b0f0bcaf3d64972dcc01ccc3c10608b","input":"0x7b3c71d37262d92efbcd6e91341699994814715b5e39d7ec83df1823b65763f974131e50000000000000000000000000000000000000000000000000000000000000000100000000000000000000000000000000000000000000000000000000000000600000000000000000000000000000000000000000000000000000000000000000","nonce":"0x7","to":"0xcdf27f107725988f2261ce2256bdfcde8b382b10","transactionIndex":"0x0","value":"0x0","v":"0x38","r":"0xe5a1c61a9b4ee6f9981b95304130df1a634a8b81d88e181399369057b237b71d","s":"0x79d89e2e12b47d61302e70c31d1333a86ec37a649d55076a39f75d13cd419575","queueOrigin":"sequencer","l1TxOrigin":null,"l1BlockNumber":"0x106d6bd","l1Timestamp":"0x645ab66b","index":"0x5ca351a","queueIndex":null,"rawTransaction":"0xf8e807830f42408303c0e694cdf27f107725988f2261ce2256bdfcde8b382b1080b8847b3c71d37262d92efbcd6e91341699994814715b5e39d7ec83df1823b65763f974131e5000000000000000000000000000000000000000000000000000000000000000010000000000000000000000000000000000000000000000000000000000000060000000000000000000000000000000000000000000000000000000000000000038a0e5a1c61a9b4ee6f9981b95304130df1a634a8b81d88e181399369057b237b71da079d89e2e12b47d61302e70c31d1333a86ec37a649d55076a39f75d13cd419575"}],"transactionsRoot":"0x78c82c34ec87c56280619e65ee12855206c30eddd7d29f789d993f26bdfec89e","uncles":[]}}

        '
    headers:
      Access-Control-Allow-Headers:
      - Content-Type
      Access-Control-Allow-Methods:
      - GET, POST, OPTIONS
      Access-Control-Allow-Origin:
      - '*'
      CF-Cache-Status:
      - DYNAMIC
      CF-RAY:
      - 7c5199c87b324163-HAM
      Cache-Control:
      - private
      Connection:
      - keep-alive
      Content-Type:
      - application/json; charset=utf-8
      Date:
      - Wed, 10 May 2023 10:46:51 GMT
      Server:
      - cloudflare
      Vary:
      - Accept-Encoding
      X-Frame-Options:
      - SAMEORIGIN
      alt-svc:
      - h3=":443"; ma=86400, h3-29=":443"; ma=86400
      content-length:
      - '3049'
    status:
      code: 200
      message: OK
- request:
    body: null
    headers:
      Accept:
      - '*/*'
      Accept-Encoding:
      - gzip, deflate
      Connection:
      - keep-alive
      User-Agent:
      - rotki/1.27.2.dev552+gb6817212c.d20230507
    method: GET
    uri: https://api-optimistic.etherscan.io/api?module=proxy&action=eth_getTransactionReceipt&txhash=0xeb9fb7b5047a30c4bb7e68343c6657ba4b0f0bcaf3d64972dcc01ccc3c10608b&apikey=IK3GCCMPQXTRIEGBAXQ9DUFWIUR524K3MW
  response:
    body:
      string: '{"jsonrpc":"2.0","id":1,"result":{"blockHash":"0x189ab8659924bb9eef8216e1f29e3596d522c0efde1142e612f6915ac1ced28d","blockNumber":"0x5ca351b","contractAddress":null,"cumulativeGasUsed":"0x1dae4","from":"0x2b888954421b424c5d3d9ce9bb67c9bd47537d12","gasUsed":"0x1dae4","l1Fee":"0x2556a3bcda830","l1FeeScalar":"1","l1GasPrice":"0x2051eb6e74","l1GasUsed":"0x127c","logs":[{"address":"0xcdf27f107725988f2261ce2256bdfcde8b382b10","topics":["0xb8e138887d0aa13bab447e82de9d5c1777041ecd21ca36ba824ff1e6c07ddda4","0x0000000000000000000000002b888954421b424c5d3d9ce9bb67c9bd47537d12"],"data":"0x7262d92efbcd6e91341699994814715b5e39d7ec83df1823b65763f974131e50000000000000000000000000000000000000000000000000000000000000000100000000000000000000000000000000000000000000f09e998d8138552831e300000000000000000000000000000000000000000000000000000000000000800000000000000000000000000000000000000000000000000000000000000000","blockNumber":"0x5ca351b","transactionHash":"0xeb9fb7b5047a30c4bb7e68343c6657ba4b0f0bcaf3d64972dcc01ccc3c10608b","transactionIndex":"0x0","blockHash":"0x189ab8659924bb9eef8216e1f29e3596d522c0efde1142e612f6915ac1ced28d","logIndex":"0x0","removed":false}],"logsBloom":"0x00008000000000000000000000000000000000000000000000000000000000000000000000000000000000000002000000000000000000000000000200000000020000000000000000000000000000000000000000400000000000000000000000000000080000000000000000000000000000100000000000000000000000000000000000000000000000040000000000000000000000000000000000000000000000000000000000000000000000000080000000000000000000000000000000000000000000000000000000000000000000000000000000000000000000000000000000000000000000000000000000000000000000000000000000000000","status":"0x1","to":"0xcdf27f107725988f2261ce2256bdfcde8b382b10","transactionHash":"0xeb9fb7b5047a30c4bb7e68343c6657ba4b0f0bcaf3d64972dcc01ccc3c10608b","transactionIndex":"0x0"}}

        '
    headers:
      Access-Control-Allow-Headers:
      - Content-Type
      Access-Control-Allow-Methods:
      - GET, POST, OPTIONS
      Access-Control-Allow-Origin:
      - '*'
      CF-Cache-Status:
      - DYNAMIC
      CF-RAY:
      - 7c5199c99c1b4163-HAM
      Cache-Control:
      - private
      Connection:
      - keep-alive
      Content-Type:
      - application/json; charset=utf-8
      Date:
      - Wed, 10 May 2023 10:46:51 GMT
      Server:
      - cloudflare
      Vary:
      - Accept-Encoding
      X-Frame-Options:
      - SAMEORIGIN
      alt-svc:
      - h3=":443"; ma=86400, h3-29=":443"; ma=86400
      content-length:
      - '1866'
    status:
      code: 200
      message: OK
- request:
    body: null
    headers:
      Accept:
      - '*/*'
      Accept-Encoding:
      - gzip, deflate
      Connection:
      - keep-alive
      User-Agent:
      - rotki/1.27.2.dev552+gb6817212c.d20230507
    method: GET
    uri: https://api-optimistic.etherscan.io/api?module=account&action=txlistinternal&sort=asc&txHash=0xeb9fb7b5047a30c4bb7e68343c6657ba4b0f0bcaf3d64972dcc01ccc3c10608b&apikey=IK3GCCMPQXTRIEGBAXQ9DUFWIUR524K3MW
  response:
    body:
      string: '{"status":"0","message":"No transactions found","result":[]}'
    headers:
      Access-Control-Allow-Headers:
      - Content-Type
      Access-Control-Allow-Methods:
      - GET, POST, OPTIONS
      Access-Control-Allow-Origin:
      - '*'
      CF-Cache-Status:
      - DYNAMIC
      CF-RAY:
      - 7c5199cb4d654163-HAM
      Cache-Control:
      - private
      Connection:
      - keep-alive
      Content-Type:
      - application/json; charset=utf-8
      Date:
      - Wed, 10 May 2023 10:46:51 GMT
      Server:
      - cloudflare
      Vary:
      - Accept-Encoding
      X-Frame-Options:
      - SAMEORIGIN
      alt-svc:
      - h3=":443"; ma=86400, h3-29=":443"; ma=86400
      content-length:
      - '60'
    status:
      code: 200
      message: OK
version: 1
