interactions:
- request:
    body: null
    headers:
      Accept:
      - '*/*'
      Accept-Encoding:
      - gzip, deflate
      Connection:
      - keep-alive
      User-Agent:
      - rotki/1.41.4.dev587+gfc75e0966f
    method: GET
    uri: https://base.blockscout.com/api?action=getblocknobytime&closest=before&module=block&timestamp=1756713300
  response:
    body:
      string: '{"message":"OK","result":{"blockNumber":"34961976"},"status":"1"}'
    headers:
      CF-RAY:
      - 9cd72dac8a47f58a-ATL
      Cache-Control:
      - max-age=0, private, must-revalidate
      Connection:
      - keep-alive
      Content-Type:
      - application/json; charset=utf-8
      Date:
      - Fri, 13 Feb 2026 20:47:00 GMT
      Nel:
      - '{"report_to":"cf-nel","success_fraction":0.0,"max_age":604800}'
      Report-To:
      - '{"group":"cf-nel","max_age":604800,"endpoints":[{"url":"https://a.nel.cloudflare.com/report/v4?s=Qki0ZrWeRvC1SD3643OAV8g7IsKIYp1x2NL%2BwUOYU2Cb0THyPvANKQ6m3yKmRWXd3hTqlxKSjEJGDm0%2BlZQAfRzDtyMQ78%2FwYwAH0H5%2BXT0qrw%3D%3D"}]}'
      Server:
      - cloudflare
      Transfer-Encoding:
      - chunked
      access-control-allow-credentials:
      - 'true'
      access-control-allow-origin:
      - '*'
      access-control-expose-headers:
      - bypass-429-option,x-ratelimit-reset,x-ratelimit-limit,x-ratelimit-remaining,api-v2-temp-token
      alt-svc:
      - h3=":443"; ma=86400
      bypass-429-option:
      - no_bypass
      cf-cache-status:
      - DYNAMIC
      content-length:
      - '65'
      strict-transport-security:
      - max-age=31536000; includeSubDomains
      x-ratelimit-limit:
      - '600'
      x-ratelimit-remaining:
      - '599'
      x-ratelimit-reset:
      - '59385'
      x-request-id:
      - 361e95173477007ed00bf0391083b740
    status:
      code: 200
      message: OK
- request:
    body: null
    headers:
      Accept:
      - '*/*'
      Accept-Encoding:
      - gzip, deflate
      Connection:
      - keep-alive
      User-Agent:
      - rotki/1.41.4.dev587+gfc75e0966f
    method: GET
    uri: https://base.blockscout.com/api?action=getblocknobytime&closest=before&module=block&timestamp=1756713400
  response:
    body:
      string: '{"message":"OK","result":{"blockNumber":"34962026"},"status":"1"}'
    headers:
      CF-RAY:
      - 9cd72dae484b055a-ATL
      Cache-Control:
      - max-age=0, private, must-revalidate
      Connection:
      - keep-alive
      Content-Type:
      - application/json; charset=utf-8
      Date:
      - Fri, 13 Feb 2026 20:47:01 GMT
      Nel:
      - '{"report_to":"cf-nel","success_fraction":0.0,"max_age":604800}'
      Report-To:
      - '{"group":"cf-nel","max_age":604800,"endpoints":[{"url":"https://a.nel.cloudflare.com/report/v4?s=kupJLkHCoc0P6p7iIvb3Ysq46xWd6gdQPCM6b7mmyrvVW2IDjhnp433p4tzRfKma7TKGq1nK7tFi7y20g0MICN%2BLeEAPqS%2FzdQp55h8NaaoaDg%3D%3D"}]}'
      Server:
      - cloudflare
      Transfer-Encoding:
      - chunked
      access-control-allow-credentials:
      - 'true'
      access-control-allow-origin:
      - '*'
      access-control-expose-headers:
      - bypass-429-option,x-ratelimit-reset,x-ratelimit-limit,x-ratelimit-remaining,api-v2-temp-token
      alt-svc:
      - h3=":443"; ma=86400
      bypass-429-option:
      - no_bypass
      cf-cache-status:
      - DYNAMIC
      content-length:
      - '65'
      strict-transport-security:
      - max-age=31536000; includeSubDomains
      x-ratelimit-limit:
      - '600'
      x-ratelimit-remaining:
      - '598'
      x-ratelimit-reset:
      - '59108'
      x-request-id:
      - ea7154ce639d372f2446c5026cb47766
    status:
      code: 200
      message: OK
- request:
    body: null
    headers:
      Accept:
      - '*/*'
      Accept-Encoding:
      - gzip, deflate
      Connection:
      - keep-alive
      User-Agent:
      - rotki/1.41.4.dev587+gfc75e0966f
    method: GET
    uri: https://base.blockscout.com/api?action=txlist&address=0x8De14E014402C0677B075A69122F94C0425Cc179&endblock=34962026&module=account&sort=asc&startblock=34961976
  response:
    body:
      string: '{"message":"OK","result":[{"blockHash":"0x2eda10969496473311773cdde3025ecf1acf931a1df61492c0c9d855b1ba3514","blockNumber":"34961990","confirmations":"7151144","contractAddress":"","cumulativeGasUsed":"8920633","from":"0x8de14e014402c0677b075a69122f94c0425cc179","gas":"1157745","gasPrice":"1798233","gasUsed":"97370","hash":"0xd6e4587c771951da6c4dd799cce35f49586ec5084a16186e8da9f0dfdf17fbe7","input":"0x09c56431b960fecad6d50db11efbc2caed3263c1510f04791fb57451d6b6fa6075b606720000000000000000000000002a6c106ae13b558bb9e2ec64bd2f1f7beff3a5e000000000000000000000000000000000000000000000000000000000000000e00000000000000000000000000000000000000000000000000000000068b5516d0000000000000000000000000000000000000000000000000000000068b554f1b38ae5cd5479d2a94733ceed8653517b119d85b5bb6a6f79691f0ae3382635fc34d73256583696b0e818b0342530bccba80464732bf96800bcd48e437c02f3e100000000000000000000000000000000000000000000000000000000000001e480381407000000000000000000000000ff5d4f2013563d06a6fd4930fd48ee0ff9c5e6220000000000000000000000009a593475d9c42d63c117bab7337843b3c0017b3d48bf6f36c237dad732e90978a1e952feed647c98caef3ee022680a6405ed568db960fecad6d50db11efbc2caed3263c1510f04791fb57451d6b6fa6075b6067200000000000000000000000000000000000000000000000000000000000000e00000000000000000000000000000000000000000000000000000000000000000000000000000000000000000000000000000000000000000000000000000000000000000000000000000000000000000000000000000000000000000000000c4c0e8c0c20000000000000000000000000000000000000000000000000000000000000060000000000000000000000000000000000000000000000000000000000000008000000000000000000000000000000000000000000000000000000000000000a00000000000000000000000000000000000000000000000000000000000000000000000000000000000000000000000000000000000000000000000000000000000000000000000000000000000000000000000000000000000000000000000000000000000000000000000000000000000000000000000000000000000000000000000000000000000000000000000000000000000000000","isError":"0","methodId":"0x","nonce":"806527","timeStamp":"1756713327","to":"0x08efb6d315c7e74c39620c9aaea289730f43a429","transactionIndex":"30","txreceipt_status":"1","value":"0"},{"blockHash":"0x2eda10969496473311773cdde3025ecf1acf931a1df61492c0c9d855b1ba3514","blockNumber":"34961990","confirmations":"7151144","contractAddress":"","cumulativeGasUsed":"68679853","from":"0x8de14e014402c0677b075a69122f94c0425cc179","gas":"1157745","gasPrice":"1798233","gasUsed":"97382","hash":"0x57beaffbe235309429a344d817867669b9735cbff737e16ceb56c3e106705d83","input":"0x09c56431a291398e15b8f8077a80e3996ce515e0917971ccb621676c15a79c53e8188fc20000000000000000000000002a6c106ae13b558bb9e2ec64bd2f1f7beff3a5e000000000000000000000000000000000000000000000000000000000000000e00000000000000000000000000000000000000000000000000000000068b5516f0000000000000000000000000000000000000000000000000000000068b554f31a098a327d29bd46254b3486253b64625fc46c2e14da6741917ec067b8935a26fb805d5a07e182c3f36d04c38df022283a26a4c7f4f63d8f5cbabc2d598ed28b00000000000000000000000000000000000000000000000000000000000001e480381407000000000000000000000000ff5d4f2013563d06a6fd4930fd48ee0ff9c5e6220000000000000000000000009a593475d9c42d63c117bab7337843b3c0017b3db1e5444265b4b8535ed9076c51651fd3faa5d0d9a2ab6486faa8f026e9c82d30a291398e15b8f8077a80e3996ce515e0917971ccb621676c15a79c53e8188fc200000000000000000000000000000000000000000000000000000000000000e00000000000000000000000000000000000000000000000000000000000000000000000000000000000000000000000000000000000000000000000000000000000000000000000000000000000000000000000000000000000000000000000c4c0e8c0c20000000000000000000000000000000000000000000000000000000000000060000000000000000000000000000000000000000000000000000000000000008000000000000000000000000000000000000000000000000000000000000000a00000000000000000000000000000000000000000000000000000000000000000000000000000000000000000000000000000000000000000000000000000000000000000000000000000000000000000000000000000000000000000000000000000000000000000000000000000000000000000000000000000000000000000000000000000000000000000000000000000000000000000","isError":"0","methodId":"0x","nonce":"806528","timeStamp":"1756713327","to":"0x08efb6d315c7e74c39620c9aaea289730f43a429","transactionIndex":"326","txreceipt_status":"1","value":"0"},{"blockHash":"0x2c09c874e01bcf42cae2f83a056705325214291f65d0a0f0b875603392219715","blockNumber":"34961996","confirmations":"7151138","contractAddress":"","cumulativeGasUsed":"47317147","from":"0x8de14e014402c0677b075a69122f94c0425cc179","gas":"1174179","gasPrice":"1819216","gasUsed":"165534","hash":"0x3e3871b768d3ecfd2b93d8824db7ae776660215d73299baf6af688f4ae525724","input":"0x765e827f00000000000000000000000000000000000000000000000000000000000000400000000000000000000000003ac05161b76a35c1c28dc99aa01bed7b24cea3bf000000000000000000000000000000000000000000000000000000000000000100000000000000000000000000000000000000000000000000000000000000200000000000000000000000003049f8761a83a90ac4164635c6f36e9b42c382b2000018d1b06af29a8492f6402d1300296c1295f29a6f58220000000000000000000000000000000000000000000000000000000000000000000000000000012000000000000000000000000000000000000000000000000000000000000001400000000000000000000000000001a3d40000000000000000000000000000f82b0000000000000000000000000000000000000000000000000000000000000000000000000000000000000000000000000000000000000000000000000000000000000000000000000000000000000000000000000000000000000000000002600000000000000000000000000000000000000000000000000000000000000280000000000000000000000000000000000000000000000000000000000000000000000000000000000000000000000000000000000000000000000000000000e4e9ae5c53000000000000000000000000000000000000000000000000000000000000000000000000000000000000000000000000000000000000000000000000000000400000000000000000000000000000000000000000000000000000000000000078833589fcd6edb6e08f4c7c32d4f71b54bda029130000000000000000000000000000000000000000000000000000000000000000a9059cbb000000000000000000000000c35c511dd9c95c1de76ba7fc8bb8dd0401ed1d9d000000000000000000000000000000000000000000000000000000000429c8f400000000000000000000000000000000000000000000000000000000000000000000000000000000000000000000000000000000000000000000000000000000000000000000000000000000000000000000000000000000000000000000000000000041ed931dde3fadd38953a9a73a6639d2a3cdbd8267f11fbe7c6e2d7d30e34e93b66954f7a42ba810e2a5991635aeb6e24d163eb25b8411740e28a4e4ac637ec8121b00000000000000000000000000000000000000000000000000000000000000","isError":"0","methodId":"0x","nonce":"806529","timeStamp":"1756713339","to":"0x0000000071727de22e5e9d8baf0edac6f37da032","transactionIndex":"245","txreceipt_status":"1","value":"0"},{"blockHash":"0xd063d3dc5b09b54551619b1a86d0d7f7a2fda37d0d2e83fea4a11173521ed95d","blockNumber":"34961997","confirmations":"7151137","contractAddress":"","cumulativeGasUsed":"22225544","from":"0x8de14e014402c0677b075a69122f94c0425cc179","gas":"1157745","gasPrice":"1830510","gasUsed":"97370","hash":"0xd8b9097fb7e8dd07f74f4757055e33f526d70c9f5a508b0bd764f4c8fce21cb6","input":"0x09c564318a52629b27011b5fa9158fdd57d3e5b402d91ce0157fb27bad85117b1cf024f80000000000000000000000002a6c106ae13b558bb9e2ec64bd2f1f7beff3a5e000000000000000000000000000000000000000000000000000000000000000e00000000000000000000000000000000000000000000000000000000068b5517b0000000000000000000000000000000000000000000000000000000068b554ffe5a6bef661cc8069bc4c54bf8696e17af1fbe87f0596b7458fefed90f7c430e09d43c619c6e82690e30ad28c4c2328c03a46886d63faa640a77be52ec263fd7900000000000000000000000000000000000000000000000000000000000001e480381407000000000000000000000000ff5d4f2013563d06a6fd4930fd48ee0ff9c5e6220000000000000000000000009a593475d9c42d63c117bab7337843b3c0017b3d6de17c1d5805f109d65f179b7444ddbb2414f9dc0dab21b748259d0b535d006e8a52629b27011b5fa9158fdd57d3e5b402d91ce0157fb27bad85117b1cf024f800000000000000000000000000000000000000000000000000000000000000e00000000000000000000000000000000000000000000000000000000000000000000000000000000000000000000000000000000000000000000000000000000000000000000000000000000000000000000000000000000000000000000000c4c0e8c0c20000000000000000000000000000000000000000000000000000000000000060000000000000000000000000000000000000000000000000000000000000008000000000000000000000000000000000000000000000000000000000000000a00000000000000000000000000000000000000000000000000000000000000000000000000000000000000000000000000000000000000000000000000000000000000000000000000000000000000000000000000000000000000000000000000000000000000000000000000000000000000000000000000000000000000000000000000000000000000000000000000000000000000000","isError":"0","methodId":"0x","nonce":"806530","timeStamp":"1756713341","to":"0x08efb6d315c7e74c39620c9aaea289730f43a429","transactionIndex":"75","txreceipt_status":"1","value":"0"},{"blockHash":"0xddb5af5ed330a0a7e6af7f97d472bc0eea45a0fa46d0e456e6acced9894561fd","blockNumber":"34962003","confirmations":"7151131","contractAddress":"","cumulativeGasUsed":"23054448","from":"0x8de14e014402c0677b075a69122f94c0425cc179","gas":"221216","gasPrice":"1836682","gasUsed":"74148","hash":"0x37d530d1347e3d0903bcb2c8650bd223b39259ba22af373ba70a3cb064ac46b4","input":"0x6a761202000000000000000000000000526643f69b81b008f46d95cd5ced5ec0edffdac6000000000000000000000000000000000000000000000000000000000000000000000000000000000000000000000000000000000000000000000000000001400000000000000000000000000000000000000000000000000000000000000001000000000000000000000000000000000000000000000000000000000000000000000000000000000000000000000000000000000000000000000000000000000000000000000000000000000000000000000000000000000000000000000000000000000000000000000000000000000000000000000000000000000000000000000000000000000000000000000000000000000000000000000000000000000000000000000000000000000000000000000000000000000000000000000180000000000000000000000000000000000000000000000000000000000000000468cb3d94000000000000000000000000000000000000000000000000000000000000000000000000000000000000000000000000000000000000000000000041bfbcd95815aecad072f85c8b2c14ddd8ea56370dd6dbf14d4047659df02e96f610fdc018034eb5e29f6c4ead8519d7f2fb004b8a06458638a1beb4ae24abe0e81c00000000000000000000000000000000000000000000000000000000000000","isError":"0","methodId":"0x","nonce":"806531","timeStamp":"1756713353","to":"0x0bebd2fca9854f657329324aa7dc90f656395189","transactionIndex":"132","txreceipt_status":"1","value":"0"},{"blockHash":"0x2507e785f7353a295b659bdb67e320aee3ec96392d83799ccbdf376c743a6939","blockNumber":"34962020","confirmations":"7151114","contractAddress":"","cumulativeGasUsed":"48274518","from":"0x8de14e014402c0677b075a69122f94c0425cc179","gas":"1339101","gasPrice":"1884011","gasUsed":"269462","hash":"0x810853468c87050e1a0cce3b5c51a182bdfb46d218ebf3ab2bd4da1b7ed5dd08","input":"0x09c56431ad20436c7e30e547bdb87fd38a5b93357bc414504a468cad425237a28fbf6f520000000000000000000000002a6c106ae13b558bb9e2ec64bd2f1f7beff3a5e000000000000000000000000000000000000000000000000000000000000000e00000000000000000000000000000000000000000000000000000000068b551aa0000000000000000000000000000000000000000000000000000000068b5552e46e521d2feed21c873a3ae1fca5ffbba24aa25c8a57f152efcb937d2f0d0a4b7c6e97f62cff00c76220f75a55f669e59470eb3c596c2d801f0cad6ad5fc62f8300000000000000000000000000000000000000000000000000000000000001e480381407000000000000000000000000ff5d4f2013563d06a6fd4930fd48ee0ff9c5e6220000000000000000000000009a593475d9c42d63c117bab7337843b3c0017b3d0cc0131ee5ae5e879c255d1a77c7259f78fbfd6ab56a09bf1b212e48c5eabecead20436c7e30e547bdb87fd38a5b93357bc414504a468cad425237a28fbf6f5200000000000000000000000000000000000000000000000000000000000000e00000000000000000000000000000000000000000000000000000000000000000000000000000000000000000000000000000000000000000000000000000000100000000000000000000000000000000000000000000000000000000000000c454132d780000000000000000000000004cad6ec90e65babec9335cad728ddc610c316368000000000000000000000000000000000000000000000000000000000000006000000000000000000000000000000000000000000000000000000000000000000000000000000000000000000000000000000000000000000000000000000024514fcac7000000000000000000000000000000000000000000000000000000000001f43d000000000000000000000000000000000000000000000000000000000000000000000000000000000000000000000000000000000000000000000000000000000000000000000000000000000000000000000000","isError":"0","methodId":"0x","nonce":"806532","timeStamp":"1756713387","to":"0x08efb6d315c7e74c39620c9aaea289730f43a429","transactionIndex":"228","txreceipt_status":"1","value":"0"},{"blockHash":"0x54a36b3b3a7d9a6eaa6ddbe414a452807b400b1047f376154a77511ece9e40d5","blockNumber":"34962025","confirmations":"7151109","contractAddress":"","cumulativeGasUsed":"58884632","from":"0x8de14e014402c0677b075a69122f94c0425cc179","gas":"1213079","gasPrice":"1894092","gasUsed":"143764","hash":"0xd04f29267c9d36af1f60ec93179461a8b1ea84e3865bbaf61abb8df86b87e3f6","input":"0x09c5643176f4ee9cb82e4c73ac379a729a2e7aaab18c5930b1778d62a360012c7f31a4410000000000000000000000002a6c106ae13b558bb9e2ec64bd2f1f7beff3a5e000000000000000000000000000000000000000000000000000000000000000e00000000000000000000000000000000000000000000000000000000068b551b40000000000000000000000000000000000000000000000000000000068b55538bb84b34125d860edbd60ee414b2043dce83547ac31b40d2189eb045dcf55130efea4dcb7160ceb5e4a95cdca1ddbe9fac84a518a2d617da149573395873f859000000000000000000000000000000000000000000000000000000000000001e480381407000000000000000000000000ff5d4f2013563d06a6fd4930fd48ee0ff9c5e6220000000000000000000000009a593475d9c42d63c117bab7337843b3c0017b3d8e613899b21ca9fc62904c880020a302cc48ad4fb45766e86997e4909a14ce9b76f4ee9cb82e4c73ac379a729a2e7aaab18c5930b1778d62a360012c7f31a44100000000000000000000000000000000000000000000000000000000000000e00000000000000000000000000000000000000000000000000000000000000000000000000000000000000000000000000000000000000000000000000000000100000000000000000000000000000000000000000000000000000000000000c454132d780000000000000000000000002a6c106ae13b558bb9e2ec64bd2f1f7beff3a5e0000000000000000000000000000000000000000000000000000000000000006000000000000000000000000000000000000000000000000000000000000000000000000000000000000000000000000000000000000000000000000000000024ee8ca3b58e613899b21ca9fc62904c880020a302cc48ad4fb45766e86997e4909a14ce9b000000000000000000000000000000000000000000000000000000000000000000000000000000000000000000000000000000000000000000000000000000000000000000000000000000000000000000000000","isError":"0","methodId":"0x","nonce":"806533","timeStamp":"1756713397","to":"0x08efb6d315c7e74c39620c9aaea289730f43a429","transactionIndex":"258","txreceipt_status":"1","value":"0"}],"status":"1"}'
    headers:
      CF-RAY:
      - 9cd72db00c5271f5-ATL
      Cache-Control:
      - max-age=0, private, must-revalidate
      Connection:
      - keep-alive
      Content-Type:
      - application/json; charset=utf-8
      Date:
      - Fri, 13 Feb 2026 20:47:02 GMT
      Nel:
      - '{"report_to":"cf-nel","success_fraction":0.0,"max_age":604800}'
      Report-To:
      - '{"group":"cf-nel","max_age":604800,"endpoints":[{"url":"https://a.nel.cloudflare.com/report/v4?s=Ai1r8sjHkRvwXtb00xdOjd3RaMdAp6%2Fj%2BC9TU%2B4G%2F8Gvkwu8GzhTSLQSJGyQFE3zlXEE8gSFX%2Fcs7E8J4bPcs9prtPstIqj%2BA6gStKkSevc%3D"}]}'
      Server:
      - cloudflare
      Transfer-Encoding:
      - chunked
      access-control-allow-credentials:
      - 'true'
      access-control-allow-origin:
      - '*'
      access-control-expose-headers:
      - bypass-429-option,x-ratelimit-reset,x-ratelimit-limit,x-ratelimit-remaining,api-v2-temp-token
      alt-svc:
      - h3=":443"; ma=86400
      bypass-429-option:
      - no_bypass
      cf-cache-status:
      - DYNAMIC
      content-length:
      - '14539'
      strict-transport-security:
      - max-age=31536000; includeSubDomains
      x-ratelimit-limit:
      - '600'
      x-ratelimit-remaining:
      - '597'
      x-ratelimit-reset:
      - '58821'
      x-request-id:
      - a5129653d1d7dc15dcfb387a4358f665
    status:
      code: 200
      message: OK
- request:
    body: null
    headers:
      Accept:
      - '*/*'
      Accept-Encoding:
      - gzip, deflate
      Connection:
      - keep-alive
      User-Agent:
      - rotki/1.41.4.dev587+gfc75e0966f
    method: GET
    uri: https://base.blockscout.com/api/v2/transactions/0xd6e4587c771951da6c4dd799cce35f49586ec5084a16186e8da9f0dfdf17fbe7
  response:
    body:
      string: '{"l1_gas_used":"4739","priority_fee":"98418577530","raw_input":"0x09c56431b960fecad6d50db11efbc2caed3263c1510f04791fb57451d6b6fa6075b606720000000000000000000000002a6c106ae13b558bb9e2ec64bd2f1f7beff3a5e000000000000000000000000000000000000000000000000000000000000000e00000000000000000000000000000000000000000000000000000000068b5516d0000000000000000000000000000000000000000000000000000000068b554f1b38ae5cd5479d2a94733ceed8653517b119d85b5bb6a6f79691f0ae3382635fc34d73256583696b0e818b0342530bccba80464732bf96800bcd48e437c02f3e100000000000000000000000000000000000000000000000000000000000001e480381407000000000000000000000000ff5d4f2013563d06a6fd4930fd48ee0ff9c5e6220000000000000000000000009a593475d9c42d63c117bab7337843b3c0017b3d48bf6f36c237dad732e90978a1e952feed647c98caef3ee022680a6405ed568db960fecad6d50db11efbc2caed3263c1510f04791fb57451d6b6fa6075b6067200000000000000000000000000000000000000000000000000000000000000e00000000000000000000000000000000000000000000000000000000000000000000000000000000000000000000000000000000000000000000000000000000000000000000000000000000000000000000000000000000000000000000000c4c0e8c0c20000000000000000000000000000000000000000000000000000000000000060000000000000000000000000000000000000000000000000000000000000008000000000000000000000000000000000000000000000000000000000000000a00000000000000000000000000000000000000000000000000000000000000000000000000000000000000000000000000000000000000000000000000000000000000000000000000000000000000000000000000000000000000000000000000000000000000000000000000000000000000000000000000000000000000000000000000000000000000000000000000000000000000000","is_pending_update":false,"op_withdrawals":[],"result":"success","hash":"0xd6e4587c771951da6c4dd799cce35f49586ec5084a16186e8da9f0dfdf17fbe7","max_fee_per_gas":"2114918","revert_reason":null,"confirmation_duration":[0,2.0e3],"transaction_burnt_fee":"76675369680","type":2,"token_transfers_overflow":false,"confirmations":7151145,"position":30,"max_priority_fee_per_gas":"1010769","transaction_tag":null,"created_contract":null,"value":"0","l1_fee_scalar":"0","from":{"ens_domain_name":null,"hash":"0x8De14E014402C0677B075A69122F94C0425Cc179","implementations":[],"is_contract":false,"is_scam":false,"is_verified":false,"metadata":{"tags":[{"meta":{},"name":"Bundler:
        0x8de...179","ordinal":10,"slug":"bundler-0x8de179","tagType":"name"},{"meta":{"tooltipDescription":"Deployer
        address for Telco.","tooltipUrl":"https://app.pendle.finance"},"name":"Pendle:
        Deployer 8","ordinal":10,"slug":"pendle-deployer-8","tagType":"name"},{"meta":{},"name":"Contract
        Deployer","ordinal":0,"slug":"contract-deployer","tagType":"generic"},{"meta":{},"name":"Bundler","ordinal":0,"slug":"bundler","tagType":"protocol"},{"meta":{"appActionButtonText":"Pendle","appID":"pendle"},"name":"Pendle","ordinal":0,"slug":"pendle","tagType":"protocol"}]},"name":null,"private_tags":[],"proxy_type":null,"public_tags":[],"reputation":"ok","watchlist_names":[]},"gas_used":"97370","status":"ok","to":{"ens_domain_name":null,"hash":"0x08EFb6D315c7e74C39620c9AAEA289730f43a429","implementations":[{"address_hash":"0xfDB8B034597cdD063Db5052cA23930092212eFEd","name":"DiamondCutFacet"},{"address_hash":"0x8b206547cFe6F35a77ddaB2D6D97260765A349Ef","name":"DiamondLoupeFacet"},{"address_hash":"0xD6bb1FCdc128b5f7268c4d9Ad58845eA6404Cf55","name":"OwnershipFacet"},{"address_hash":"0xa2351354b39977ea35b1C28A035BD94e48F3ED7D","name":"TransferFacet"},{"address_hash":"0x94B6ea47eFd818483862E116228d4B47b88A9051","name":"SignerFacet"},{"address_hash":"0x4B27D7e3a844AF791ebc4068255Fb70a85a05278","name":"ExecWithSigsFacet"},{"address_hash":"0xC9969739A22A1270d0b0AB267D0bA812903e92f5","name":"ExecWithSigFacet"}],"is_contract":true,"is_scam":false,"is_verified":true,"metadata":{"tags":[{"meta":{},"name":"Token
        Contract","ordinal":0,"slug":"token-contract","tagType":"generic"},{"meta":{"tagIcon
        ":"https://blockscout-icons.s3.us-east-1.amazonaws.com/OLI_tag_logo.svg","textColor":"#C163D4","tooltipAttribution":"https://www.openlabelsinitiative.org?utm_source=blockscout","tooltipAttributionIcon":"https://blockscout-icons.s3.us-east-1.amazonaws.com/OLI_tag_logo.svg","tooltipDescription":"Provided
        by OLI"},"name":"GelatoAutomate","ordinal":0,"slug":"gelatoautomate","tagType":"name"},{"meta":{"tagIcon
        ":"https://blockscout-icons.s3.us-east-1.amazonaws.com/OLI_tag_logo.svg","textColor":"#C163D4","tooltipAttribution":"https://www.openlabelsinitiative.org?utm_source=blockscout","tooltipAttributionIcon":"https://blockscout-icons.s3.us-east-1.amazonaws.com/OLI_tag_logo.svg","tooltipDescription":"Provided
        by OLI"},"name":"Gelato","ordinal":0,"slug":"gelato","tagType":"name"}]},"name":"Gelato","private_tags":[],"proxy_type":"eip2535","public_tags":[],"reputation":"ok","watchlist_names":[]},"authorization_list":[],"l1_fee":"15931381508","method":"execWithSig","fee":{"type":"actual","value":"191025328718"},"actions":[],"gas_limit":"1157745","gas_price":"1798233","decoded_input":{"method_call":"execWithSig(bytes32
        _correlationId, address _service, bytes _data, uint256 _salt, uint256 _deadline,
        bytes32 _r, bytes32 _vs)","method_id":"09c56431","parameters":[{"name":"_correlationId","type":"bytes32","value":"0xb960fecad6d50db11efbc2caed3263c1510f04791fb57451d6b6fa6075b60672"},{"name":"_service","type":"address","value":"0x2A6C106ae13B558BB9E2Ec64Bd2f1f7BEFF3A5E0"},{"name":"_data","type":"bytes","value":"0x80381407000000000000000000000000ff5d4f2013563d06a6fd4930fd48ee0ff9c5e6220000000000000000000000009a593475d9c42d63c117bab7337843b3c0017b3d48bf6f36c237dad732e90978a1e952feed647c98caef3ee022680a6405ed568db960fecad6d50db11efbc2caed3263c1510f04791fb57451d6b6fa6075b6067200000000000000000000000000000000000000000000000000000000000000e00000000000000000000000000000000000000000000000000000000000000000000000000000000000000000000000000000000000000000000000000000000000000000000000000000000000000000000000000000000000000000000000c4c0e8c0c20000000000000000000000000000000000000000000000000000000000000060000000000000000000000000000000000000000000000000000000000000008000000000000000000000000000000000000000000000000000000000000000a000000000000000000000000000000000000000000000000000000000000000000000000000000000000000000000000000000000000000000000000000000000000000000000000000000000000000000000000000000000000000000000000000000000000000000000000000000000000000000000000000000000"},{"name":"_salt","type":"uint256","value":"1756713325"},{"name":"_deadline","type":"uint256","value":"1756714225"},{"name":"_r","type":"bytes32","value":"0xb38ae5cd5479d2a94733ceed8653517b119d85b5bb6a6f79691f0ae3382635fc"},{"name":"_vs","type":"bytes32","value":"0x34d73256583696b0e818b0342530bccba80464732bf96800bcd48e437c02f3e1"}]},"l1_gas_price":"1481557263","token_transfers":[],"base_fee_per_gas":"787464","timestamp":"2025-09-01T07:55:27.000000Z","nonce":806527,"historic_exchange_rate":"4314.85","transaction_types":["contract_call"],"exchange_rate":"2043.77","block_number":34961990,"has_error_in_internal_transactions":false}'
    headers:
      CF-RAY:
      - 9cd72db9080f7790-ATL
      Cache-Control:
      - max-age=0, private, must-revalidate
      Connection:
      - keep-alive
      Content-Type:
      - application/json; charset=utf-8
      Date:
      - Fri, 13 Feb 2026 20:47:05 GMT
      Nel:
      - '{"report_to":"cf-nel","success_fraction":0.0,"max_age":604800}'
      Report-To:
      - '{"group":"cf-nel","max_age":604800,"endpoints":[{"url":"https://a.nel.cloudflare.com/report/v4?s=VdUgLQVzjfjaO3C7ABJoaKthdE3BtL56%2Fqo72NTgZf8eeIUMvnjuu1BVPPzDDviRZEhL7Ncm7f2BzLo%2FM5j2SwiF3vhFFPfRCOLTVtI%2Fy4wsNA%3D%3D"}]}'
      Server:
      - cloudflare
      Transfer-Encoding:
      - chunked
      access-control-allow-credentials:
      - 'true'
      access-control-allow-origin:
      - '*'
      access-control-expose-headers:
      - bypass-429-option,x-ratelimit-reset,x-ratelimit-limit,x-ratelimit-remaining,api-v2-temp-token
      alt-svc:
      - h3=":443"; ma=86400
      bypass-429-option:
      - temporary_token
      cf-cache-status:
      - DYNAMIC
      content-length:
      - '6996'
      strict-transport-security:
      - max-age=31536000; includeSubDomains
      x-ratelimit-limit:
      - '600'
      x-ratelimit-remaining:
      - '596'
      x-ratelimit-reset:
      - '57372'
      x-request-id:
      - 61b25cfd22d57827a3d93f3b472fb790
    status:
      code: 200
      message: OK
- request:
    body: null
    headers:
      Accept:
      - '*/*'
      Accept-Encoding:
      - gzip, deflate
      Connection:
      - keep-alive
      User-Agent:
      - rotki/1.41.4.dev587+gfc75e0966f
    method: GET
    uri: https://base.blockscout.com/api/v2/transactions/0x57beaffbe235309429a344d817867669b9735cbff737e16ceb56c3e106705d83
  response:
    body:
      string: '{"l1_gas_used":"4846","priority_fee":"98430706758","raw_input":"0x09c56431a291398e15b8f8077a80e3996ce515e0917971ccb621676c15a79c53e8188fc20000000000000000000000002a6c106ae13b558bb9e2ec64bd2f1f7beff3a5e000000000000000000000000000000000000000000000000000000000000000e00000000000000000000000000000000000000000000000000000000068b5516f0000000000000000000000000000000000000000000000000000000068b554f31a098a327d29bd46254b3486253b64625fc46c2e14da6741917ec067b8935a26fb805d5a07e182c3f36d04c38df022283a26a4c7f4f63d8f5cbabc2d598ed28b00000000000000000000000000000000000000000000000000000000000001e480381407000000000000000000000000ff5d4f2013563d06a6fd4930fd48ee0ff9c5e6220000000000000000000000009a593475d9c42d63c117bab7337843b3c0017b3db1e5444265b4b8535ed9076c51651fd3faa5d0d9a2ab6486faa8f026e9c82d30a291398e15b8f8077a80e3996ce515e0917971ccb621676c15a79c53e8188fc200000000000000000000000000000000000000000000000000000000000000e00000000000000000000000000000000000000000000000000000000000000000000000000000000000000000000000000000000000000000000000000000000000000000000000000000000000000000000000000000000000000000000000c4c0e8c0c20000000000000000000000000000000000000000000000000000000000000060000000000000000000000000000000000000000000000000000000000000008000000000000000000000000000000000000000000000000000000000000000a00000000000000000000000000000000000000000000000000000000000000000000000000000000000000000000000000000000000000000000000000000000000000000000000000000000000000000000000000000000000000000000000000000000000000000000000000000000000000000000000000000000000000000000000000000000000000000000000000000000000000000","is_pending_update":false,"op_withdrawals":[],"result":"success","hash":"0x57beaffbe235309429a344d817867669b9735cbff737e16ceb56c3e106705d83","max_fee_per_gas":"2110910","revert_reason":null,"confirmation_duration":[0,2.0e3],"transaction_burnt_fee":"76684819248","type":2,"token_transfers_overflow":false,"confirmations":7151146,"position":326,"max_priority_fee_per_gas":"1010769","transaction_tag":null,"created_contract":null,"value":"0","l1_fee_scalar":"0","from":{"ens_domain_name":null,"hash":"0x8De14E014402C0677B075A69122F94C0425Cc179","implementations":[],"is_contract":false,"is_scam":false,"is_verified":false,"metadata":{"tags":[{"meta":{},"name":"Bundler:
        0x8de...179","ordinal":10,"slug":"bundler-0x8de179","tagType":"name"},{"meta":{"tooltipDescription":"Deployer
        address for Telco.","tooltipUrl":"https://app.pendle.finance"},"name":"Pendle:
        Deployer 8","ordinal":10,"slug":"pendle-deployer-8","tagType":"name"},{"meta":{},"name":"Contract
        Deployer","ordinal":0,"slug":"contract-deployer","tagType":"generic"},{"meta":{},"name":"Bundler","ordinal":0,"slug":"bundler","tagType":"protocol"},{"meta":{"appActionButtonText":"Pendle","appID":"pendle"},"name":"Pendle","ordinal":0,"slug":"pendle","tagType":"protocol"}]},"name":null,"private_tags":[],"proxy_type":null,"public_tags":[],"reputation":"ok","watchlist_names":[]},"gas_used":"97382","status":"ok","to":{"ens_domain_name":null,"hash":"0x08EFb6D315c7e74C39620c9AAEA289730f43a429","implementations":[{"address_hash":"0xfDB8B034597cdD063Db5052cA23930092212eFEd","name":"DiamondCutFacet"},{"address_hash":"0x8b206547cFe6F35a77ddaB2D6D97260765A349Ef","name":"DiamondLoupeFacet"},{"address_hash":"0xD6bb1FCdc128b5f7268c4d9Ad58845eA6404Cf55","name":"OwnershipFacet"},{"address_hash":"0xa2351354b39977ea35b1C28A035BD94e48F3ED7D","name":"TransferFacet"},{"address_hash":"0x94B6ea47eFd818483862E116228d4B47b88A9051","name":"SignerFacet"},{"address_hash":"0x4B27D7e3a844AF791ebc4068255Fb70a85a05278","name":"ExecWithSigsFacet"},{"address_hash":"0xC9969739A22A1270d0b0AB267D0bA812903e92f5","name":"ExecWithSigFacet"}],"is_contract":true,"is_scam":false,"is_verified":true,"metadata":{"tags":[{"meta":{},"name":"Token
        Contract","ordinal":0,"slug":"token-contract","tagType":"generic"},{"meta":{"tagIcon
        ":"https://blockscout-icons.s3.us-east-1.amazonaws.com/OLI_tag_logo.svg","textColor":"#C163D4","tooltipAttribution":"https://www.openlabelsinitiative.org?utm_source=blockscout","tooltipAttributionIcon":"https://blockscout-icons.s3.us-east-1.amazonaws.com/OLI_tag_logo.svg","tooltipDescription":"Provided
        by OLI"},"name":"GelatoAutomate","ordinal":0,"slug":"gelatoautomate","tagType":"name"},{"meta":{"tagIcon
        ":"https://blockscout-icons.s3.us-east-1.amazonaws.com/OLI_tag_logo.svg","textColor":"#C163D4","tooltipAttribution":"https://www.openlabelsinitiative.org?utm_source=blockscout","tooltipAttributionIcon":"https://blockscout-icons.s3.us-east-1.amazonaws.com/OLI_tag_logo.svg","tooltipDescription":"Provided
        by OLI"},"name":"Gelato","ordinal":0,"slug":"gelato","tagType":"name"}]},"name":"Gelato","private_tags":[],"proxy_type":"eip2535","public_tags":[],"reputation":"ok","watchlist_names":[]},"authorization_list":[],"l1_fee":"16291320472","method":"execWithSig","fee":{"type":"actual","value":"191406846478"},"actions":[],"gas_limit":"1157745","gas_price":"1798233","decoded_input":{"method_call":"execWithSig(bytes32
        _correlationId, address _service, bytes _data, uint256 _salt, uint256 _deadline,
        bytes32 _r, bytes32 _vs)","method_id":"09c56431","parameters":[{"name":"_correlationId","type":"bytes32","value":"0xa291398e15b8f8077a80e3996ce515e0917971ccb621676c15a79c53e8188fc2"},{"name":"_service","type":"address","value":"0x2A6C106ae13B558BB9E2Ec64Bd2f1f7BEFF3A5E0"},{"name":"_data","type":"bytes","value":"0x80381407000000000000000000000000ff5d4f2013563d06a6fd4930fd48ee0ff9c5e6220000000000000000000000009a593475d9c42d63c117bab7337843b3c0017b3db1e5444265b4b8535ed9076c51651fd3faa5d0d9a2ab6486faa8f026e9c82d30a291398e15b8f8077a80e3996ce515e0917971ccb621676c15a79c53e8188fc200000000000000000000000000000000000000000000000000000000000000e00000000000000000000000000000000000000000000000000000000000000000000000000000000000000000000000000000000000000000000000000000000000000000000000000000000000000000000000000000000000000000000000c4c0e8c0c20000000000000000000000000000000000000000000000000000000000000060000000000000000000000000000000000000000000000000000000000000008000000000000000000000000000000000000000000000000000000000000000a000000000000000000000000000000000000000000000000000000000000000000000000000000000000000000000000000000000000000000000000000000000000000000000000000000000000000000000000000000000000000000000000000000000000000000000000000000000000000000000000000000000"},{"name":"_salt","type":"uint256","value":"1756713327"},{"name":"_deadline","type":"uint256","value":"1756714227"},{"name":"_r","type":"bytes32","value":"0x1a098a327d29bd46254b3486253b64625fc46c2e14da6741917ec067b8935a26"},{"name":"_vs","type":"bytes32","value":"0xfb805d5a07e182c3f36d04c38df022283a26a4c7f4f63d8f5cbabc2d598ed28b"}]},"l1_gas_price":"1481557263","token_transfers":[],"base_fee_per_gas":"787464","timestamp":"2025-09-01T07:55:27.000000Z","nonce":806528,"historic_exchange_rate":"4314.85","transaction_types":["contract_call"],"exchange_rate":"2042.77","block_number":34961990,"has_error_in_internal_transactions":false}'
    headers:
      CF-RAY:
      - 9cd72dc9c964aa0c-ATL
      Cache-Control:
      - max-age=0, private, must-revalidate
      Connection:
      - keep-alive
      Content-Type:
      - application/json; charset=utf-8
      Date:
      - Fri, 13 Feb 2026 20:47:07 GMT
      Nel:
      - '{"report_to":"cf-nel","success_fraction":0.0,"max_age":604800}'
      Report-To:
      - '{"group":"cf-nel","max_age":604800,"endpoints":[{"url":"https://a.nel.cloudflare.com/report/v4?s=Z62y0SJFXr2HvQk1DV1WSSrZ35yBWI95Mzs6glZvzAUuY57AZDArsbUFHi5IWSrWfnvB467CTarz%2Bzm22AYwtUjC2zLXQIbciy6gnORHsdmi0Q%3D%3D"}]}'
      Server:
      - cloudflare
      Transfer-Encoding:
      - chunked
      access-control-allow-credentials:
      - 'true'
      access-control-allow-origin:
      - '*'
      access-control-expose-headers:
      - bypass-429-option,x-ratelimit-reset,x-ratelimit-limit,x-ratelimit-remaining,api-v2-temp-token
      alt-svc:
      - h3=":443"; ma=86400
      bypass-429-option:
      - temporary_token
      cf-cache-status:
      - DYNAMIC
      content-length:
      - '6997'
      strict-transport-security:
      - max-age=31536000; includeSubDomains
      x-ratelimit-limit:
      - '600'
      x-ratelimit-remaining:
      - '595'
      x-ratelimit-reset:
      - '54703'
      x-request-id:
      - 13ac9609d17bbab729906eed9708fab4
    status:
      code: 200
      message: OK
- request:
    body: null
    headers:
      Accept:
      - '*/*'
      Accept-Encoding:
      - gzip, deflate
      Connection:
      - keep-alive
      User-Agent:
      - rotki/1.41.4.dev587+gfc75e0966f
    method: GET
    uri: https://base.blockscout.com/api/v2/transactions/0x3e3871b768d3ecfd2b93d8824db7ae776660215d73299baf6af688f4ae525724
  response:
    body:
      string: '{"l1_gas_used":"5167","priority_fee":"165439976688","raw_input":"0x765e827f00000000000000000000000000000000000000000000000000000000000000400000000000000000000000003ac05161b76a35c1c28dc99aa01bed7b24cea3bf000000000000000000000000000000000000000000000000000000000000000100000000000000000000000000000000000000000000000000000000000000200000000000000000000000003049f8761a83a90ac4164635c6f36e9b42c382b2000018d1b06af29a8492f6402d1300296c1295f29a6f58220000000000000000000000000000000000000000000000000000000000000000000000000000012000000000000000000000000000000000000000000000000000000000000001400000000000000000000000000001a3d40000000000000000000000000000f82b0000000000000000000000000000000000000000000000000000000000000000000000000000000000000000000000000000000000000000000000000000000000000000000000000000000000000000000000000000000000000000000002600000000000000000000000000000000000000000000000000000000000000280000000000000000000000000000000000000000000000000000000000000000000000000000000000000000000000000000000000000000000000000000000e4e9ae5c53000000000000000000000000000000000000000000000000000000000000000000000000000000000000000000000000000000000000000000000000000000400000000000000000000000000000000000000000000000000000000000000078833589fcd6edb6e08f4c7c32d4f71b54bda029130000000000000000000000000000000000000000000000000000000000000000a9059cbb000000000000000000000000c35c511dd9c95c1de76ba7fc8bb8dd0401ed1d9d000000000000000000000000000000000000000000000000000000000429c8f400000000000000000000000000000000000000000000000000000000000000000000000000000000000000000000000000000000000000000000000000000000000000000000000000000000000000000000000000000000000000000000000000000041ed931dde3fadd38953a9a73a6639d2a3cdbd8267f11fbe7c6e2d7d30e34e93b66954f7a42ba810e2a5991635aeb6e24d163eb25b8411740e28a4e4ac637ec8121b00000000000000000000000000000000000000000000000000000000000000","is_pending_update":false,"op_withdrawals":[],"result":"success","hash":"0x3e3871b768d3ecfd2b93d8824db7ae776660215d73299baf6af688f4ae525724","max_fee_per_gas":"2147129","revert_reason":null,"confirmation_duration":[0,2.0e3],"transaction_burnt_fee":"135702124656","type":2,"token_transfers_overflow":false,"confirmations":7151143,"position":245,"max_priority_fee_per_gas":"999432","transaction_tag":null,"created_contract":null,"value":"0","l1_fee_scalar":"0","from":{"ens_domain_name":null,"hash":"0x8De14E014402C0677B075A69122F94C0425Cc179","implementations":[],"is_contract":false,"is_scam":false,"is_verified":false,"metadata":{"tags":[{"meta":{},"name":"Bundler:
        0x8de...179","ordinal":10,"slug":"bundler-0x8de179","tagType":"name"},{"meta":{"tooltipDescription":"Deployer
        address for Telco.","tooltipUrl":"https://app.pendle.finance"},"name":"Pendle:
        Deployer 8","ordinal":10,"slug":"pendle-deployer-8","tagType":"name"},{"meta":{},"name":"Contract
        Deployer","ordinal":0,"slug":"contract-deployer","tagType":"generic"},{"meta":{},"name":"Bundler","ordinal":0,"slug":"bundler","tagType":"protocol"},{"meta":{"appActionButtonText":"Pendle","appID":"pendle"},"name":"Pendle","ordinal":0,"slug":"pendle","tagType":"protocol"}]},"name":null,"private_tags":[],"proxy_type":null,"public_tags":[],"reputation":"ok","watchlist_names":[]},"gas_used":"165534","status":"ok","to":{"ens_domain_name":null,"hash":"0x0000000071727De22E5E9d8BAf0edAc6f37da032","implementations":[],"is_contract":true,"is_scam":false,"is_verified":true,"metadata":{"tags":[{"meta":{"projectName":"ERC-4337","tagIcon
        ":"https://blockscout-icons.s3.us-east-1.amazonaws.com/OLI_tag_logo.svg","tagUrl":"https://app.klerosscout.eth.limo/#/?registry=Single_Tags&itemdetails=0x5582871daae921c2cdb644a4220e58ac7ad0340ca062a929b2c6a93c3a86de36@0x66260c69d03837016d88c9877e61e08ef74c59f2","textColor":"#C163D4","tooltipAttribution":"https://www.openlabelsinitiative.org?utm_source=blockscout","tooltipAttributionIcon":"https://blockscout-icons.s3.us-east-1.amazonaws.com/OLI_tag_logo.svg","tooltipDescription":"This
        smart contract is used as an entry point for ERC-4337 Account Abstraction
        transactions.","tooltipUrl":"https://twitter.com/erc4337"},"name":"Entry Point
        0.7.0","ordinal":10,"slug":"entry-point-070","tagType":"name"},{"meta":{"alertStatus":"info","data":"Wallets
        and apps are strongly encouraged to use the Entry Point 0.9.0 as described
        here on this X''s post."},"name":"note_0","ordinal":0,"slug":"note0","tagType":"note"}]},"name":"EntryPoint","private_tags":[],"proxy_type":null,"public_tags":[],"reputation":"ok","watchlist_names":[]},"authorization_list":[],"l1_fee":"16146403153","method":"handleOps","fee":{"type":"actual","value":"317288504497"},"actions":[],"gas_limit":"1174179","gas_price":"1819216","decoded_input":{"method_call":"handleOps((address,uint256,bytes,bytes,bytes32,uint256,bytes32,bytes,bytes)[]
        ops, address beneficiary)","method_id":"765e827f","parameters":[{"name":"ops","type":"(address,uint256,bytes,bytes,bytes32,uint256,bytes32,bytes,bytes)[]","value":[["0x3049F8761a83a90aC4164635c6f36E9B42C382b2","171295120135461380777001132750334661740657249511913007136993029241438208","0x","0xe9ae5c53000000000000000000000000000000000000000000000000000000000000000000000000000000000000000000000000000000000000000000000000000000400000000000000000000000000000000000000000000000000000000000000078833589fcd6edb6e08f4c7c32d4f71b54bda029130000000000000000000000000000000000000000000000000000000000000000a9059cbb000000000000000000000000c35c511dd9c95c1de76ba7fc8bb8dd0401ed1d9d000000000000000000000000000000000000000000000000000000000429c8f40000000000000000","0x0000000000000000000000000001a3d40000000000000000000000000000f82b","0","0x0000000000000000000000000000000000000000000000000000000000000000","0x","0xed931dde3fadd38953a9a73a6639d2a3cdbd8267f11fbe7c6e2d7d30e34e93b66954f7a42ba810e2a5991635aeb6e24d163eb25b8411740e28a4e4ac637ec8121b"]]},{"name":"beneficiary","type":"address","value":"0x3AC05161b76a35c1c28dC99Aa01BEd7B24cEA3bf"}]},"l1_gas_price":"1377101587","token_transfers":[{"block_hash":"0x2c09c874e01bcf42cae2f83a056705325214291f65d0a0f0b875603392219715","block_number":34961996,"from":{"ens_domain_name":null,"hash":"0x3049F8761a83a90aC4164635c6f36E9B42C382b2","implementations":[{"address_hash":"0xBAC849bB641841b44E965fB01A4Bf5F074f84b4D","name":"Kernel"}],"is_contract":true,"is_scam":false,"is_verified":false,"metadata":null,"name":null,"private_tags":[],"proxy_type":"eip1967","public_tags":[],"reputation":"ok","watchlist_names":[]},"log_index":652,"method":null,"timestamp":null,"to":{"ens_domain_name":null,"hash":"0xC35C511Dd9C95C1dE76BA7fc8bb8dd0401Ed1D9D","implementations":[],"is_contract":false,"is_scam":false,"is_verified":false,"metadata":null,"name":null,"private_tags":[],"proxy_type":null,"public_tags":[],"reputation":"ok","watchlist_names":[]},"token":{"address_hash":"0x833589fCD6eDb6E08f4c7C32D4f71b54bdA02913","circulating_market_cap":"73442246569.94554","decimals":"6","exchange_rate":"0.999985","holders_count":"5935835","icon_url":"https://assets.coingecko.com/coins/images/6319/small/USDC.png?1769615602","name":"USDC","reputation":"ok","symbol":"USDC","total_supply":"4178988962384876","type":"ERC-20","volume_24h":"12667704084.70989"},"token_type":"ERC-20","total":{"decimals":"6","value":"69847284"},"transaction_hash":"0x3e3871b768d3ecfd2b93d8824db7ae776660215d73299baf6af688f4ae525724","type":"token_transfer"}],"base_fee_per_gas":"819784","timestamp":"2025-09-01T07:55:39.000000Z","nonce":806529,"historic_exchange_rate":"4314.85","transaction_types":["contract_call","token_transfer"],"exchange_rate":"2042.77","block_number":34961996,"has_error_in_internal_transactions":false}'
    headers:
      CF-RAY:
      - 9cd72dda8d7c12d3-ATL
      Cache-Control:
      - max-age=0, private, must-revalidate
      Connection:
      - keep-alive
      Content-Type:
      - application/json; charset=utf-8
      Date:
      - Fri, 13 Feb 2026 20:47:10 GMT
      Nel:
      - '{"report_to":"cf-nel","success_fraction":0.0,"max_age":604800}'
      Report-To:
      - '{"group":"cf-nel","max_age":604800,"endpoints":[{"url":"https://a.nel.cloudflare.com/report/v4?s=Ewn%2FvebN575eL0oDNa6kIobdDCATc0KeNWXjNEK3VuuqhRcN6o%2BXfXZI7K4VANjb%2BYy%2BZvS3n0oXoK6S6OvBtwaljPRlnENwMM1Vb%2FG6mxU%3D"}]}'
      Server:
      - cloudflare
      Transfer-Encoding:
      - chunked
      access-control-allow-credentials:
      - 'true'
      access-control-allow-origin:
      - '*'
      access-control-expose-headers:
      - bypass-429-option,x-ratelimit-reset,x-ratelimit-limit,x-ratelimit-remaining,api-v2-temp-token
      alt-svc:
      - h3=":443"; ma=86400
      bypass-429-option:
      - temporary_token
      cf-cache-status:
      - DYNAMIC
      content-length:
      - '7587'
      strict-transport-security:
      - max-age=31536000; includeSubDomains
      x-ratelimit-limit:
      - '600'
      x-ratelimit-remaining:
      - '594'
      x-ratelimit-reset:
      - '52020'
      x-request-id:
      - eebb6abf841a1fa9052b66d8643e4fde
    status:
      code: 200
      message: OK
- request:
    body: null
    headers:
      Accept:
      - '*/*'
      Accept-Encoding:
      - gzip, deflate
      Connection:
      - keep-alive
      User-Agent:
      - rotki/1.41.4.dev587+gfc75e0966f
    method: GET
    uri: https://base.blockscout.com/api/v2/transactions/0xd8b9097fb7e8dd07f74f4757055e33f526d70c9f5a508b0bd764f4c8fce21cb6
  response:
    body:
      string: '{"l1_gas_used":"4739","priority_fee":"98363368740","raw_input":"0x09c564318a52629b27011b5fa9158fdd57d3e5b402d91ce0157fb27bad85117b1cf024f80000000000000000000000002a6c106ae13b558bb9e2ec64bd2f1f7beff3a5e000000000000000000000000000000000000000000000000000000000000000e00000000000000000000000000000000000000000000000000000000068b5517b0000000000000000000000000000000000000000000000000000000068b554ffe5a6bef661cc8069bc4c54bf8696e17af1fbe87f0596b7458fefed90f7c430e09d43c619c6e82690e30ad28c4c2328c03a46886d63faa640a77be52ec263fd7900000000000000000000000000000000000000000000000000000000000001e480381407000000000000000000000000ff5d4f2013563d06a6fd4930fd48ee0ff9c5e6220000000000000000000000009a593475d9c42d63c117bab7337843b3c0017b3d6de17c1d5805f109d65f179b7444ddbb2414f9dc0dab21b748259d0b535d006e8a52629b27011b5fa9158fdd57d3e5b402d91ce0157fb27bad85117b1cf024f800000000000000000000000000000000000000000000000000000000000000e00000000000000000000000000000000000000000000000000000000000000000000000000000000000000000000000000000000000000000000000000000000000000000000000000000000000000000000000000000000000000000000000c4c0e8c0c20000000000000000000000000000000000000000000000000000000000000060000000000000000000000000000000000000000000000000000000000000008000000000000000000000000000000000000000000000000000000000000000a00000000000000000000000000000000000000000000000000000000000000000000000000000000000000000000000000000000000000000000000000000000000000000000000000000000000000000000000000000000000000000000000000000000000000000000000000000000000000000000000000000000000000000000000000000000000000000000000000000000000000000","is_pending_update":false,"op_withdrawals":[],"result":"success","hash":"0xd8b9097fb7e8dd07f74f4757055e33f526d70c9f5a508b0bd764f4c8fce21cb6","max_fee_per_gas":"2126429","revert_reason":null,"confirmation_duration":[0,2.0e3],"transaction_burnt_fee":"79873389960","type":2,"token_transfers_overflow":false,"confirmations":7151143,"position":75,"max_priority_fee_per_gas":"1010202","transaction_tag":null,"created_contract":null,"value":"0","l1_fee_scalar":"0","from":{"ens_domain_name":null,"hash":"0x8De14E014402C0677B075A69122F94C0425Cc179","implementations":[],"is_contract":false,"is_scam":false,"is_verified":false,"metadata":{"tags":[{"meta":{},"name":"Bundler:
        0x8de...179","ordinal":10,"slug":"bundler-0x8de179","tagType":"name"},{"meta":{"tooltipDescription":"Deployer
        address for Telco.","tooltipUrl":"https://app.pendle.finance"},"name":"Pendle:
        Deployer 8","ordinal":10,"slug":"pendle-deployer-8","tagType":"name"},{"meta":{},"name":"Contract
        Deployer","ordinal":0,"slug":"contract-deployer","tagType":"generic"},{"meta":{},"name":"Bundler","ordinal":0,"slug":"bundler","tagType":"protocol"},{"meta":{"appActionButtonText":"Pendle","appID":"pendle"},"name":"Pendle","ordinal":0,"slug":"pendle","tagType":"protocol"}]},"name":null,"private_tags":[],"proxy_type":null,"public_tags":[],"reputation":"ok","watchlist_names":[]},"gas_used":"97370","status":"ok","to":{"ens_domain_name":null,"hash":"0x08EFb6D315c7e74C39620c9AAEA289730f43a429","implementations":[{"address_hash":"0xfDB8B034597cdD063Db5052cA23930092212eFEd","name":"DiamondCutFacet"},{"address_hash":"0x8b206547cFe6F35a77ddaB2D6D97260765A349Ef","name":"DiamondLoupeFacet"},{"address_hash":"0xD6bb1FCdc128b5f7268c4d9Ad58845eA6404Cf55","name":"OwnershipFacet"},{"address_hash":"0xa2351354b39977ea35b1C28A035BD94e48F3ED7D","name":"TransferFacet"},{"address_hash":"0x94B6ea47eFd818483862E116228d4B47b88A9051","name":"SignerFacet"},{"address_hash":"0x4B27D7e3a844AF791ebc4068255Fb70a85a05278","name":"ExecWithSigsFacet"},{"address_hash":"0xC9969739A22A1270d0b0AB267D0bA812903e92f5","name":"ExecWithSigFacet"}],"is_contract":true,"is_scam":false,"is_verified":true,"metadata":{"tags":[{"meta":{},"name":"Token
        Contract","ordinal":0,"slug":"token-contract","tagType":"generic"},{"meta":{"tagIcon
        ":"https://blockscout-icons.s3.us-east-1.amazonaws.com/OLI_tag_logo.svg","textColor":"#C163D4","tooltipAttribution":"https://www.openlabelsinitiative.org?utm_source=blockscout","tooltipAttributionIcon":"https://blockscout-icons.s3.us-east-1.amazonaws.com/OLI_tag_logo.svg","tooltipDescription":"Provided
        by OLI"},"name":"GelatoAutomate","ordinal":0,"slug":"gelatoautomate","tagType":"name"},{"meta":{"tagIcon
        ":"https://blockscout-icons.s3.us-east-1.amazonaws.com/OLI_tag_logo.svg","textColor":"#C163D4","tooltipAttribution":"https://www.openlabelsinitiative.org?utm_source=blockscout","tooltipAttributionIcon":"https://blockscout-icons.s3.us-east-1.amazonaws.com/OLI_tag_logo.svg","tooltipDescription":"Provided
        by OLI"},"name":"Gelato","ordinal":0,"slug":"gelato","tagType":"name"}]},"name":"Gelato","private_tags":[],"proxy_type":"eip2535","public_tags":[],"reputation":"ok","watchlist_names":[]},"authorization_list":[],"l1_fee":"14808155809","method":"execWithSig","fee":{"type":"actual","value":"193044914509"},"actions":[],"gas_limit":"1157745","gas_price":"1830510","decoded_input":{"method_call":"execWithSig(bytes32
        _correlationId, address _service, bytes _data, uint256 _salt, uint256 _deadline,
        bytes32 _r, bytes32 _vs)","method_id":"09c56431","parameters":[{"name":"_correlationId","type":"bytes32","value":"0x8a52629b27011b5fa9158fdd57d3e5b402d91ce0157fb27bad85117b1cf024f8"},{"name":"_service","type":"address","value":"0x2A6C106ae13B558BB9E2Ec64Bd2f1f7BEFF3A5E0"},{"name":"_data","type":"bytes","value":"0x80381407000000000000000000000000ff5d4f2013563d06a6fd4930fd48ee0ff9c5e6220000000000000000000000009a593475d9c42d63c117bab7337843b3c0017b3d6de17c1d5805f109d65f179b7444ddbb2414f9dc0dab21b748259d0b535d006e8a52629b27011b5fa9158fdd57d3e5b402d91ce0157fb27bad85117b1cf024f800000000000000000000000000000000000000000000000000000000000000e00000000000000000000000000000000000000000000000000000000000000000000000000000000000000000000000000000000000000000000000000000000000000000000000000000000000000000000000000000000000000000000000c4c0e8c0c20000000000000000000000000000000000000000000000000000000000000060000000000000000000000000000000000000000000000000000000000000008000000000000000000000000000000000000000000000000000000000000000a000000000000000000000000000000000000000000000000000000000000000000000000000000000000000000000000000000000000000000000000000000000000000000000000000000000000000000000000000000000000000000000000000000000000000000000000000000000000000000000000000000000"},{"name":"_salt","type":"uint256","value":"1756713339"},{"name":"_deadline","type":"uint256","value":"1756714239"},{"name":"_r","type":"bytes32","value":"0xe5a6bef661cc8069bc4c54bf8696e17af1fbe87f0596b7458fefed90f7c430e0"},{"name":"_vs","type":"bytes32","value":"0x9d43c619c6e82690e30ad28c4c2328c03a46886d63faa640a77be52ec263fd79"}]},"l1_gas_price":"1377101587","token_transfers":[],"base_fee_per_gas":"820308","timestamp":"2025-09-01T07:55:41.000000Z","nonce":806530,"historic_exchange_rate":"4314.85","transaction_types":["contract_call"],"exchange_rate":"2043.77","block_number":34961997,"has_error_in_internal_transactions":null}'
    headers:
      CF-RAY:
      - 9cd72debbda634d5-ATL
      Cache-Control:
      - max-age=0, private, must-revalidate
      Connection:
      - keep-alive
      Content-Type:
      - application/json; charset=utf-8
      Date:
      - Fri, 13 Feb 2026 20:47:13 GMT
      Nel:
      - '{"report_to":"cf-nel","success_fraction":0.0,"max_age":604800}'
      Report-To:
      - '{"group":"cf-nel","max_age":604800,"endpoints":[{"url":"https://a.nel.cloudflare.com/report/v4?s=rXO4xI7kBwf6mdzp2fPuKS%2BBcr%2F6L7T0a9PiI%2FwsO38Y15qHXG3pYgY4oKbFuhkSTbURO23LfuMCWQTP15etA5Bu9Iasm4eK4t%2BE1g8d8g%2Fpkg%3D%3D"}]}'
      Server:
      - cloudflare
      Transfer-Encoding:
      - chunked
      access-control-allow-credentials:
      - 'true'
      access-control-allow-origin:
      - '*'
      access-control-expose-headers:
      - bypass-429-option,x-ratelimit-reset,x-ratelimit-limit,x-ratelimit-remaining,api-v2-temp-token
      alt-svc:
      - h3=":443"; ma=86400
      bypass-429-option:
      - temporary_token
      cf-cache-status:
      - DYNAMIC
      content-length:
      - '6995'
      strict-transport-security:
      - max-age=31536000; includeSubDomains
      x-ratelimit-limit:
      - '600'
      x-ratelimit-remaining:
      - '593'
      x-ratelimit-reset:
      - '49272'
      x-request-id:
      - 7b9cd0bdc601980de7f8608ecc5691d1
    status:
      code: 200
      message: OK
- request:
    body: null
    headers:
      Accept:
      - '*/*'
      Accept-Encoding:
      - gzip, deflate
      Connection:
      - keep-alive
      User-Agent:
      - rotki/1.41.4.dev587+gfc75e0966f
    method: GET
    uri: https://base.blockscout.com/api/v2/transactions/0x37d530d1347e3d0903bcb2c8650bd223b39259ba22af373ba70a3cb064ac46b4
  response:
    body:
      string: '{"l1_gas_used":"2825","priority_fee":"74105883936","raw_input":"0x6a761202000000000000000000000000526643f69b81b008f46d95cd5ced5ec0edffdac6000000000000000000000000000000000000000000000000000000000000000000000000000000000000000000000000000000000000000000000000000001400000000000000000000000000000000000000000000000000000000000000001000000000000000000000000000000000000000000000000000000000000000000000000000000000000000000000000000000000000000000000000000000000000000000000000000000000000000000000000000000000000000000000000000000000000000000000000000000000000000000000000000000000000000000000000000000000000000000000000000000000000000000000000000000000000000000000000000000000000000000000000000000000000000000000180000000000000000000000000000000000000000000000000000000000000000468cb3d94000000000000000000000000000000000000000000000000000000000000000000000000000000000000000000000000000000000000000000000041bfbcd95815aecad072f85c8b2c14ddd8ea56370dd6dbf14d4047659df02e96f610fdc018034eb5e29f6c4ead8519d7f2fb004b8a06458638a1beb4ae24abe0e81c00000000000000000000000000000000000000000000000000000000000000","is_pending_update":false,"op_withdrawals":[],"result":"success","hash":"0x37d530d1347e3d0903bcb2c8650bd223b39259ba22af373ba70a3cb064ac46b4","max_fee_per_gas":"2156567","revert_reason":null,"confirmation_duration":[0,2.0e3],"transaction_burnt_fee":"62080413000","type":2,"token_transfers_overflow":false,"confirmations":7151138,"position":132,"max_priority_fee_per_gas":"999432","transaction_tag":null,"created_contract":null,"value":"0","l1_fee_scalar":"0","from":{"ens_domain_name":null,"hash":"0x8De14E014402C0677B075A69122F94C0425Cc179","implementations":[],"is_contract":false,"is_scam":false,"is_verified":false,"metadata":{"tags":[{"meta":{},"name":"Bundler:
        0x8de...179","ordinal":10,"slug":"bundler-0x8de179","tagType":"name"},{"meta":{"tooltipDescription":"Deployer
        address for Telco.","tooltipUrl":"https://app.pendle.finance"},"name":"Pendle:
        Deployer 8","ordinal":10,"slug":"pendle-deployer-8","tagType":"name"},{"meta":{},"name":"Contract
        Deployer","ordinal":0,"slug":"contract-deployer","tagType":"generic"},{"meta":{},"name":"Bundler","ordinal":0,"slug":"bundler","tagType":"protocol"},{"meta":{"appActionButtonText":"Pendle","appID":"pendle"},"name":"Pendle","ordinal":0,"slug":"pendle","tagType":"protocol"}]},"name":null,"private_tags":[],"proxy_type":null,"public_tags":[],"reputation":"ok","watchlist_names":[]},"gas_used":"74148","status":"ok","to":{"ens_domain_name":null,"hash":"0x0BeBD2FcA9854F657329324aA7dc90F656395189","implementations":[],"is_contract":false,"is_scam":false,"is_verified":false,"metadata":null,"name":null,"private_tags":[],"proxy_type":null,"public_tags":[],"reputation":"ok","watchlist_names":[]},"authorization_list":[],"l1_fee":"9682120706","method":"execTransaction","fee":{"type":"actual","value":"145868417642"},"actions":[],"gas_limit":"221216","gas_price":"1836682","decoded_input":{"method_call":"execTransaction(address
        to, uint256 value, bytes data, uint8 operation, uint256 safeTxGas, uint256
        baseGas, uint256 gasPrice, address gasToken, address refundReceiver, bytes
        signatures)","method_id":"6a761202","parameters":[{"name":"to","type":"address","value":"0x526643F69b81B008F46d95CD5ced5eC0edFFDaC6"},{"name":"value","type":"uint256","value":"0"},{"name":"data","type":"bytes","value":"0x68cb3d94"},{"name":"operation","type":"uint8","value":"1"},{"name":"safeTxGas","type":"uint256","value":"0"},{"name":"baseGas","type":"uint256","value":"0"},{"name":"gasPrice","type":"uint256","value":"0"},{"name":"gasToken","type":"address","value":"0x0000000000000000000000000000000000000000"},{"name":"refundReceiver","type":"address","value":"0x0000000000000000000000000000000000000000"},{"name":"signatures","type":"bytes","value":"0xbfbcd95815aecad072f85c8b2c14ddd8ea56370dd6dbf14d4047659df02e96f610fdc018034eb5e29f6c4ead8519d7f2fb004b8a06458638a1beb4ae24abe0e81c"}]},"l1_gas_price":"1510361435","token_transfers":[],"base_fee_per_gas":"837250","timestamp":"2025-09-01T07:55:53.000000Z","nonce":806531,"historic_exchange_rate":"4314.85","transaction_types":[],"exchange_rate":"2042.77","block_number":34962003,"has_error_in_internal_transactions":false}'
    headers:
      CF-RAY:
      - 9cd72dfccf18b6c2-ATL
      Cache-Control:
      - max-age=0, private, must-revalidate
      Connection:
      - keep-alive
      Content-Type:
      - application/json; charset=utf-8
      Date:
      - Fri, 13 Feb 2026 20:47:16 GMT
      Nel:
      - '{"report_to":"cf-nel","success_fraction":0.0,"max_age":604800}'
      Report-To:
      - '{"group":"cf-nel","max_age":604800,"endpoints":[{"url":"https://a.nel.cloudflare.com/report/v4?s=H0W9u1hs17fUDaVqxRW4GGe6NNCgqxtJuvwP3EQyZAgxC22DdrhozpQN6Gom9GVasAu5E%2BNly8Iux9I7BunGWAsGuXgyHMux57nknSTUb6j4ag%3D%3D"}]}'
      Server:
      - cloudflare
      Transfer-Encoding:
      - chunked
      access-control-allow-credentials:
      - 'true'
      access-control-allow-origin:
      - '*'
      access-control-expose-headers:
      - bypass-429-option,x-ratelimit-reset,x-ratelimit-limit,x-ratelimit-remaining,api-v2-temp-token
      alt-svc:
      - h3=":443"; ma=86400
      bypass-429-option:
      - temporary_token
      cf-cache-status:
      - DYNAMIC
      content-length:
      - '4207'
      strict-transport-security:
      - max-age=31536000; includeSubDomains
      x-ratelimit-limit:
      - '600'
      x-ratelimit-remaining:
      - '592'
      x-ratelimit-reset:
      - '46542'
      x-request-id:
      - ed8226c8ae7eb9a293c2b39cb5650ac3
    status:
      code: 200
      message: OK
- request:
    body: null
    headers:
      Accept:
      - '*/*'
      Accept-Encoding:
      - gzip, deflate
      Connection:
      - keep-alive
      User-Agent:
      - rotki/1.41.4.dev587+gfc75e0966f
    method: GET
    uri: https://base.blockscout.com/api/v2/transactions/0x810853468c87050e1a0cce3b5c51a182bdfb46d218ebf3ab2bd4da1b7ed5dd08
  response:
    body:
      string: '{"l1_gas_used":"5287","priority_fee":"269462000000","raw_input":"0x09c56431ad20436c7e30e547bdb87fd38a5b93357bc414504a468cad425237a28fbf6f520000000000000000000000002a6c106ae13b558bb9e2ec64bd2f1f7beff3a5e000000000000000000000000000000000000000000000000000000000000000e00000000000000000000000000000000000000000000000000000000068b551aa0000000000000000000000000000000000000000000000000000000068b5552e46e521d2feed21c873a3ae1fca5ffbba24aa25c8a57f152efcb937d2f0d0a4b7c6e97f62cff00c76220f75a55f669e59470eb3c596c2d801f0cad6ad5fc62f8300000000000000000000000000000000000000000000000000000000000001e480381407000000000000000000000000ff5d4f2013563d06a6fd4930fd48ee0ff9c5e6220000000000000000000000009a593475d9c42d63c117bab7337843b3c0017b3d0cc0131ee5ae5e879c255d1a77c7259f78fbfd6ab56a09bf1b212e48c5eabecead20436c7e30e547bdb87fd38a5b93357bc414504a468cad425237a28fbf6f5200000000000000000000000000000000000000000000000000000000000000e00000000000000000000000000000000000000000000000000000000000000000000000000000000000000000000000000000000000000000000000000000000100000000000000000000000000000000000000000000000000000000000000c454132d780000000000000000000000004cad6ec90e65babec9335cad728ddc610c316368000000000000000000000000000000000000000000000000000000000000006000000000000000000000000000000000000000000000000000000000000000000000000000000000000000000000000000000000000000000000000000000024514fcac7000000000000000000000000000000000000000000000000000000000001f43d000000000000000000000000000000000000000000000000000000000000000000000000000000000000000000000000000000000000000000000000000000000000000000000000000000000000000000000000","is_pending_update":false,"op_withdrawals":[],"result":"success","hash":"0x810853468c87050e1a0cce3b5c51a182bdfb46d218ebf3ab2bd4da1b7ed5dd08","max_fee_per_gas":"2237615","revert_reason":null,"confirmation_duration":[0,2.0e3],"transaction_burnt_fee":"238207372082","type":2,"token_transfers_overflow":false,"confirmations":7151122,"position":228,"max_priority_fee_per_gas":"1000000","transaction_tag":null,"created_contract":null,"value":"0","l1_fee_scalar":"0","from":{"ens_domain_name":null,"hash":"0x8De14E014402C0677B075A69122F94C0425Cc179","implementations":[],"is_contract":false,"is_scam":false,"is_verified":false,"metadata":{"tags":[{"meta":{},"name":"Bundler:
        0x8de...179","ordinal":10,"slug":"bundler-0x8de179","tagType":"name"},{"meta":{"tooltipDescription":"Deployer
        address for Telco.","tooltipUrl":"https://app.pendle.finance"},"name":"Pendle:
        Deployer 8","ordinal":10,"slug":"pendle-deployer-8","tagType":"name"},{"meta":{},"name":"Contract
        Deployer","ordinal":0,"slug":"contract-deployer","tagType":"generic"},{"meta":{},"name":"Bundler","ordinal":0,"slug":"bundler","tagType":"protocol"},{"meta":{"appActionButtonText":"Pendle","appID":"pendle"},"name":"Pendle","ordinal":0,"slug":"pendle","tagType":"protocol"}]},"name":null,"private_tags":[],"proxy_type":null,"public_tags":[],"reputation":"ok","watchlist_names":[]},"gas_used":"269462","status":"ok","to":{"ens_domain_name":null,"hash":"0x08EFb6D315c7e74C39620c9AAEA289730f43a429","implementations":[{"address_hash":"0xfDB8B034597cdD063Db5052cA23930092212eFEd","name":"DiamondCutFacet"},{"address_hash":"0x8b206547cFe6F35a77ddaB2D6D97260765A349Ef","name":"DiamondLoupeFacet"},{"address_hash":"0xD6bb1FCdc128b5f7268c4d9Ad58845eA6404Cf55","name":"OwnershipFacet"},{"address_hash":"0xa2351354b39977ea35b1C28A035BD94e48F3ED7D","name":"TransferFacet"},{"address_hash":"0x94B6ea47eFd818483862E116228d4B47b88A9051","name":"SignerFacet"},{"address_hash":"0x4B27D7e3a844AF791ebc4068255Fb70a85a05278","name":"ExecWithSigsFacet"},{"address_hash":"0xC9969739A22A1270d0b0AB267D0bA812903e92f5","name":"ExecWithSigFacet"}],"is_contract":true,"is_scam":false,"is_verified":true,"metadata":{"tags":[{"meta":{},"name":"Token
        Contract","ordinal":0,"slug":"token-contract","tagType":"generic"},{"meta":{"tagIcon
        ":"https://blockscout-icons.s3.us-east-1.amazonaws.com/OLI_tag_logo.svg","textColor":"#C163D4","tooltipAttribution":"https://www.openlabelsinitiative.org?utm_source=blockscout","tooltipAttributionIcon":"https://blockscout-icons.s3.us-east-1.amazonaws.com/OLI_tag_logo.svg","tooltipDescription":"Provided
        by OLI"},"name":"GelatoAutomate","ordinal":0,"slug":"gelatoautomate","tagType":"name"},{"meta":{"tagIcon
        ":"https://blockscout-icons.s3.us-east-1.amazonaws.com/OLI_tag_logo.svg","textColor":"#C163D4","tooltipAttribution":"https://www.openlabelsinitiative.org?utm_source=blockscout","tooltipAttributionIcon":"https://blockscout-icons.s3.us-east-1.amazonaws.com/OLI_tag_logo.svg","tooltipDescription":"Provided
        by OLI"},"name":"Gelato","ordinal":0,"slug":"gelato","tagType":"name"}]},"name":"Gelato","private_tags":[],"proxy_type":"eip2535","public_tags":[],"reputation":"ok","watchlist_names":[]},"authorization_list":[],"l1_fee":"17739738359","method":"execWithSig","fee":{"type":"actual","value":"525409110441"},"actions":[],"gas_limit":"1339101","gas_price":"1884011","decoded_input":{"method_call":"execWithSig(bytes32
        _correlationId, address _service, bytes _data, uint256 _salt, uint256 _deadline,
        bytes32 _r, bytes32 _vs)","method_id":"09c56431","parameters":[{"name":"_correlationId","type":"bytes32","value":"0xad20436c7e30e547bdb87fd38a5b93357bc414504a468cad425237a28fbf6f52"},{"name":"_service","type":"address","value":"0x2A6C106ae13B558BB9E2Ec64Bd2f1f7BEFF3A5E0"},{"name":"_data","type":"bytes","value":"0x80381407000000000000000000000000ff5d4f2013563d06a6fd4930fd48ee0ff9c5e6220000000000000000000000009a593475d9c42d63c117bab7337843b3c0017b3d0cc0131ee5ae5e879c255d1a77c7259f78fbfd6ab56a09bf1b212e48c5eabecead20436c7e30e547bdb87fd38a5b93357bc414504a468cad425237a28fbf6f5200000000000000000000000000000000000000000000000000000000000000e00000000000000000000000000000000000000000000000000000000000000000000000000000000000000000000000000000000000000000000000000000000100000000000000000000000000000000000000000000000000000000000000c454132d780000000000000000000000004cad6ec90e65babec9335cad728ddc610c316368000000000000000000000000000000000000000000000000000000000000006000000000000000000000000000000000000000000000000000000000000000000000000000000000000000000000000000000000000000000000000000000024514fcac7000000000000000000000000000000000000000000000000000000000001f43d0000000000000000000000000000000000000000000000000000000000000000000000000000000000000000000000000000000000000000"},{"name":"_salt","type":"uint256","value":"1756713386"},{"name":"_deadline","type":"uint256","value":"1756714286"},{"name":"_r","type":"bytes32","value":"0x46e521d2feed21c873a3ae1fca5ffbba24aa25c8a57f152efcb937d2f0d0a4b7"},{"name":"_vs","type":"bytes32","value":"0xc6e97f62cff00c76220f75a55f669e59470eb3c596c2d801f0cad6ad5fc62f83"}]},"l1_gas_price":"1478529289","token_transfers":[],"base_fee_per_gas":"884011","timestamp":"2025-09-01T07:56:27.000000Z","nonce":806532,"historic_exchange_rate":"4314.85","transaction_types":["contract_call"],"exchange_rate":"2042.77","block_number":34962020,"has_error_in_internal_transactions":false}'
    headers:
      CF-RAY:
      - 9cd72e107d35adb0-ATL
      Cache-Control:
      - max-age=0, private, must-revalidate
      Connection:
      - keep-alive
      Content-Type:
      - application/json; charset=utf-8
      Date:
      - Fri, 13 Feb 2026 20:47:19 GMT
      Nel:
      - '{"report_to":"cf-nel","success_fraction":0.0,"max_age":604800}'
      Report-To:
      - '{"group":"cf-nel","max_age":604800,"endpoints":[{"url":"https://a.nel.cloudflare.com/report/v4?s=roOvsDVe8QmnKBYX0rbyZy%2FhM9%2FLK3coNHq%2BjasVuKoj%2Bz5G19s76mpbBtiAO3InUbqPBvIrtZ9vNmvpGmFvkzrashqbVfzvBgUW6%2FDBb7QYPw%3D%3D"}]}'
      Server:
      - cloudflare
      Transfer-Encoding:
      - chunked
      access-control-allow-credentials:
      - 'true'
      access-control-allow-origin:
      - '*'
      access-control-expose-headers:
      - bypass-429-option,x-ratelimit-reset,x-ratelimit-limit,x-ratelimit-remaining,api-v2-temp-token
      alt-svc:
      - h3=":443"; ma=86400
      bypass-429-option:
      - temporary_token
      cf-cache-status:
      - DYNAMIC
      content-length:
      - '7000'
      strict-transport-security:
      - max-age=31536000; includeSubDomains
      x-ratelimit-limit:
      - '600'
      x-ratelimit-remaining:
      - '591'
      x-ratelimit-reset:
      - '43379'
      x-request-id:
      - 0292f663782bcdb348dbfaecb0e4cb33
    status:
      code: 200
      message: OK
- request:
    body: null
    headers:
      Accept:
      - '*/*'
      Accept-Encoding:
      - gzip, deflate
      Connection:
      - keep-alive
      User-Agent:
      - rotki/1.41.4.dev587+gfc75e0966f
    method: GET
    uri: https://base.blockscout.com/api/v2/transactions/0xd04f29267c9d36af1f60ec93179461a8b1ea84e3865bbaf61abb8df86b87e3f6
  response:
    body:
      string: '{"l1_gas_used":"4913","priority_fee":"143764000000","raw_input":"0x09c5643176f4ee9cb82e4c73ac379a729a2e7aaab18c5930b1778d62a360012c7f31a4410000000000000000000000002a6c106ae13b558bb9e2ec64bd2f1f7beff3a5e000000000000000000000000000000000000000000000000000000000000000e00000000000000000000000000000000000000000000000000000000068b551b40000000000000000000000000000000000000000000000000000000068b55538bb84b34125d860edbd60ee414b2043dce83547ac31b40d2189eb045dcf55130efea4dcb7160ceb5e4a95cdca1ddbe9fac84a518a2d617da149573395873f859000000000000000000000000000000000000000000000000000000000000001e480381407000000000000000000000000ff5d4f2013563d06a6fd4930fd48ee0ff9c5e6220000000000000000000000009a593475d9c42d63c117bab7337843b3c0017b3d8e613899b21ca9fc62904c880020a302cc48ad4fb45766e86997e4909a14ce9b76f4ee9cb82e4c73ac379a729a2e7aaab18c5930b1778d62a360012c7f31a44100000000000000000000000000000000000000000000000000000000000000e00000000000000000000000000000000000000000000000000000000000000000000000000000000000000000000000000000000000000000000000000000000100000000000000000000000000000000000000000000000000000000000000c454132d780000000000000000000000002a6c106ae13b558bb9e2ec64bd2f1f7beff3a5e0000000000000000000000000000000000000000000000000000000000000006000000000000000000000000000000000000000000000000000000000000000000000000000000000000000000000000000000000000000000000000000000024ee8ca3b58e613899b21ca9fc62904c880020a302cc48ad4fb45766e86997e4909a14ce9b000000000000000000000000000000000000000000000000000000000000000000000000000000000000000000000000000000000000000000000000000000000000000000000000000000000000000000000000","is_pending_update":false,"op_withdrawals":[],"result":"success","hash":"0xd04f29267c9d36af1f60ec93179461a8b1ea84e3865bbaf61abb8df86b87e3f6","max_fee_per_gas":"2251728","revert_reason":null,"confirmation_duration":[0,2.0e3],"transaction_burnt_fee":"128538242288","type":2,"token_transfers_overflow":false,"confirmations":7151118,"position":258,"max_priority_fee_per_gas":"1000000","transaction_tag":null,"created_contract":null,"value":"0","l1_fee_scalar":"0","from":{"ens_domain_name":null,"hash":"0x8De14E014402C0677B075A69122F94C0425Cc179","implementations":[],"is_contract":false,"is_scam":false,"is_verified":false,"metadata":{"tags":[{"meta":{},"name":"Bundler:
        0x8de...179","ordinal":10,"slug":"bundler-0x8de179","tagType":"name"},{"meta":{"tooltipDescription":"Deployer
        address for Telco.","tooltipUrl":"https://app.pendle.finance"},"name":"Pendle:
        Deployer 8","ordinal":10,"slug":"pendle-deployer-8","tagType":"name"},{"meta":{},"name":"Contract
        Deployer","ordinal":0,"slug":"contract-deployer","tagType":"generic"},{"meta":{},"name":"Bundler","ordinal":0,"slug":"bundler","tagType":"protocol"},{"meta":{"appActionButtonText":"Pendle","appID":"pendle"},"name":"Pendle","ordinal":0,"slug":"pendle","tagType":"protocol"}]},"name":null,"private_tags":[],"proxy_type":null,"public_tags":[],"reputation":"ok","watchlist_names":[]},"gas_used":"143764","status":"ok","to":{"ens_domain_name":null,"hash":"0x08EFb6D315c7e74C39620c9AAEA289730f43a429","implementations":[{"address_hash":"0xfDB8B034597cdD063Db5052cA23930092212eFEd","name":"DiamondCutFacet"},{"address_hash":"0x8b206547cFe6F35a77ddaB2D6D97260765A349Ef","name":"DiamondLoupeFacet"},{"address_hash":"0xD6bb1FCdc128b5f7268c4d9Ad58845eA6404Cf55","name":"OwnershipFacet"},{"address_hash":"0xa2351354b39977ea35b1C28A035BD94e48F3ED7D","name":"TransferFacet"},{"address_hash":"0x94B6ea47eFd818483862E116228d4B47b88A9051","name":"SignerFacet"},{"address_hash":"0x4B27D7e3a844AF791ebc4068255Fb70a85a05278","name":"ExecWithSigsFacet"},{"address_hash":"0xC9969739A22A1270d0b0AB267D0bA812903e92f5","name":"ExecWithSigFacet"}],"is_contract":true,"is_scam":false,"is_verified":true,"metadata":{"tags":[{"meta":{},"name":"Token
        Contract","ordinal":0,"slug":"token-contract","tagType":"generic"},{"meta":{"tagIcon
        ":"https://blockscout-icons.s3.us-east-1.amazonaws.com/OLI_tag_logo.svg","textColor":"#C163D4","tooltipAttribution":"https://www.openlabelsinitiative.org?utm_source=blockscout","tooltipAttributionIcon":"https://blockscout-icons.s3.us-east-1.amazonaws.com/OLI_tag_logo.svg","tooltipDescription":"Provided
        by OLI"},"name":"GelatoAutomate","ordinal":0,"slug":"gelatoautomate","tagType":"name"},{"meta":{"tagIcon
        ":"https://blockscout-icons.s3.us-east-1.amazonaws.com/OLI_tag_logo.svg","textColor":"#C163D4","tooltipAttribution":"https://www.openlabelsinitiative.org?utm_source=blockscout","tooltipAttributionIcon":"https://blockscout-icons.s3.us-east-1.amazonaws.com/OLI_tag_logo.svg","tooltipDescription":"Provided
        by OLI"},"name":"Gelato","ordinal":0,"slug":"gelato","tagType":"name"}]},"name":"Gelato","private_tags":[],"proxy_type":"eip2535","public_tags":[],"reputation":"ok","watchlist_names":[]},"authorization_list":[],"l1_fee":"16526174642","method":"execWithSig","fee":{"type":"actual","value":"288828416930"},"actions":[],"gas_limit":"1213079","gas_price":"1894092","decoded_input":{"method_call":"execWithSig(bytes32
        _correlationId, address _service, bytes _data, uint256 _salt, uint256 _deadline,
        bytes32 _r, bytes32 _vs)","method_id":"09c56431","parameters":[{"name":"_correlationId","type":"bytes32","value":"0x76f4ee9cb82e4c73ac379a729a2e7aaab18c5930b1778d62a360012c7f31a441"},{"name":"_service","type":"address","value":"0x2A6C106ae13B558BB9E2Ec64Bd2f1f7BEFF3A5E0"},{"name":"_data","type":"bytes","value":"0x80381407000000000000000000000000ff5d4f2013563d06a6fd4930fd48ee0ff9c5e6220000000000000000000000009a593475d9c42d63c117bab7337843b3c0017b3d8e613899b21ca9fc62904c880020a302cc48ad4fb45766e86997e4909a14ce9b76f4ee9cb82e4c73ac379a729a2e7aaab18c5930b1778d62a360012c7f31a44100000000000000000000000000000000000000000000000000000000000000e00000000000000000000000000000000000000000000000000000000000000000000000000000000000000000000000000000000000000000000000000000000100000000000000000000000000000000000000000000000000000000000000c454132d780000000000000000000000002a6c106ae13b558bb9e2ec64bd2f1f7beff3a5e0000000000000000000000000000000000000000000000000000000000000006000000000000000000000000000000000000000000000000000000000000000000000000000000000000000000000000000000000000000000000000000000024ee8ca3b58e613899b21ca9fc62904c880020a302cc48ad4fb45766e86997e4909a14ce9b0000000000000000000000000000000000000000000000000000000000000000000000000000000000000000000000000000000000000000"},{"name":"_salt","type":"uint256","value":"1756713396"},{"name":"_deadline","type":"uint256","value":"1756714296"},{"name":"_r","type":"bytes32","value":"0xbb84b34125d860edbd60ee414b2043dce83547ac31b40d2189eb045dcf55130e"},{"name":"_vs","type":"bytes32","value":"0xfea4dcb7160ceb5e4a95cdca1ddbe9fac84a518a2d617da149573395873f8590"}]},"l1_gas_price":"1482444632","token_transfers":[],"base_fee_per_gas":"894092","timestamp":"2025-09-01T07:56:37.000000Z","nonce":806533,"historic_exchange_rate":"4314.85","transaction_types":["contract_call"],"exchange_rate":"2042.77","block_number":34962025,"has_error_in_internal_transactions":false}'
    headers:
      CF-RAY:
      - 9cd72e210d0844fc-ATL
      Cache-Control:
      - max-age=0, private, must-revalidate
      Connection:
      - keep-alive
      Content-Type:
      - application/json; charset=utf-8
      Date:
      - Fri, 13 Feb 2026 20:47:22 GMT
      Nel:
      - '{"report_to":"cf-nel","success_fraction":0.0,"max_age":604800}'
      Report-To:
      - '{"group":"cf-nel","max_age":604800,"endpoints":[{"url":"https://a.nel.cloudflare.com/report/v4?s=rBAiWqZ%2FhAcNz5WhOiwwcgsy%2Bunc5euUYsIuXILTWbqmYNCq5BaXudBQ3w4DndQT41hhDkzjCLGtfAJILiSNPK%2BalqO4pzslLinEOIHdEXi4tg%3D%3D"}]}'
      Server:
      - cloudflare
      Transfer-Encoding:
      - chunked
      access-control-allow-credentials:
      - 'true'
      access-control-allow-origin:
      - '*'
      access-control-expose-headers:
      - bypass-429-option,x-ratelimit-reset,x-ratelimit-limit,x-ratelimit-remaining,api-v2-temp-token
      alt-svc:
      - h3=":443"; ma=86400
      bypass-429-option:
      - temporary_token
      cf-cache-status:
      - DYNAMIC
      content-length:
      - '7000'
      strict-transport-security:
      - max-age=31536000; includeSubDomains
      x-ratelimit-limit:
      - '600'
      x-ratelimit-remaining:
      - '590'
      x-ratelimit-reset:
      - '40464'
      x-request-id:
      - aecb6f4efc5b46d80fcbfbaaa2ad8bf1
    status:
      code: 200
      message: OK
- request:
    body: null
    headers:
      Accept:
      - '*/*'
      Accept-Encoding:
      - gzip, deflate
      Connection:
      - keep-alive
      User-Agent:
      - rotki/1.41.4.dev587+gfc75e0966f
    method: GET
    uri: https://base.blockscout.com/api?action=txlistinternal&address=0x8De14E014402C0677B075A69122F94C0425Cc179&endblock=34962026&module=account&sort=asc&startblock=34961976
  response:
    body:
      string: '{"message":"Some internal transactions within this block range have
        not yet been processed","result":[],"status":"2"}'
    headers:
      CF-RAY:
      - 9cd72e348d29e337-ATL
      Cache-Control:
      - max-age=0, private, must-revalidate
      Connection:
      - keep-alive
      Content-Type:
      - application/json; charset=utf-8
      Date:
      - Fri, 13 Feb 2026 20:47:22 GMT
      Nel:
      - '{"report_to":"cf-nel","success_fraction":0.0,"max_age":604800}'
      Report-To:
      - '{"group":"cf-nel","max_age":604800,"endpoints":[{"url":"https://a.nel.cloudflare.com/report/v4?s=09BfyjwlTVqUykggylomLi15838dDsuzMTXLrio1tUFEc6eme262w%2BgRRPSnDeHF85svcYvw52ycqNXwD9DNlF3ZSOsE6iFdHsQzgQaDbsj0og%3D%3D"}]}'
      Server:
      - cloudflare
      Transfer-Encoding:
      - chunked
      access-control-allow-credentials:
      - 'true'
      access-control-allow-origin:
      - '*'
      access-control-expose-headers:
      - bypass-429-option,x-ratelimit-reset,x-ratelimit-limit,x-ratelimit-remaining,api-v2-temp-token
      alt-svc:
      - h3=":443"; ma=86400
      bypass-429-option:
      - no_bypass
      cf-cache-status:
      - DYNAMIC
      content-length:
      - '117'
      strict-transport-security:
      - max-age=31536000; includeSubDomains
      x-ratelimit-limit:
      - '600'
      x-ratelimit-remaining:
      - '589'
      x-ratelimit-reset:
      - '37354'
      x-request-id:
      - 1e6159cb573650f06e2ace85162e3a39
    status:
      code: 200
      message: OK
- request:
    body: null
    headers:
      Accept:
      - '*/*'
      Accept-Encoding:
      - gzip, deflate
      Connection:
      - keep-alive
      User-Agent:
      - rotki/1.41.4.dev587+gfc75e0966f
    method: GET
    uri: https://api.etherscan.io/v2/api?action=txlistinternal&address=0x8De14E014402C0677B075A69122F94C0425Cc179&chainid=8453&endblock=34962026&module=account&sort=asc&startblock=34961976
  response:
    body:
      string: '{"status":"0","message":"NOTOK","result":"Free API access is not supported
        for this chain. Please upgrade your api plan for full chain coverage. https://etherscan.io/apis"}'
    headers:
      Access-Control-Allow-Headers:
      - Content-Type
      Access-Control-Allow-Methods:
      - GET, POST, OPTIONS
      Access-Control-Allow-Origin:
      - '*'
      Cache-Control:
      - private
      Connection:
      - keep-alive
      Content-Length:
      - '172'
      Content-Type:
      - application/json; charset=utf-8
      Date:
      - Fri, 13 Feb 2026 20:47:23 GMT
      Server:
      - nginx
      X-Frame-Options:
      - SAMEORIGIN
      X-Nginx-Id:
      - '4'
      svid:
      - base1new
    status:
      code: 200
      message: OK
- request:
    body: null
    headers:
      Accept:
      - '*/*'
      Accept-Encoding:
      - gzip, deflate
      Connection:
      - keep-alive
      User-Agent:
      - rotki/1.41.4.dev587+gfc75e0966f
    method: GET
    uri: https://base.blockscout.com/api?action=tokentx&address=0x8De14E014402C0677B075A69122F94C0425Cc179&endblock=34962026&module=account&sort=asc&startblock=34961976
  response:
    body:
      string: '{"message":"No token transfers found","result":[],"status":"0"}'
    headers:
      CF-RAY:
      - 9cd72e39d9366a00-ATL
      Cache-Control:
      - max-age=0, private, must-revalidate
      Connection:
      - keep-alive
      Content-Type:
      - application/json; charset=utf-8
      Date:
      - Fri, 13 Feb 2026 20:47:23 GMT
      Nel:
      - '{"report_to":"cf-nel","success_fraction":0.0,"max_age":604800}'
      Report-To:
      - '{"group":"cf-nel","max_age":604800,"endpoints":[{"url":"https://a.nel.cloudflare.com/report/v4?s=0GM3r9vl1G3mWQIrg1FI%2BljcbRhe0jX45G3y5zCuFdpIeMDRR3tdphtd6MasXFpjTV6miWdbeSv0%2BdZbi%2FGmd0Og0EtqjUxCx7Muhpl8Vupc8Q%3D%3D"}]}'
      Server:
      - cloudflare
      Transfer-Encoding:
      - chunked
      access-control-allow-credentials:
      - 'true'
      access-control-allow-origin:
      - '*'
      access-control-expose-headers:
      - bypass-429-option,x-ratelimit-reset,x-ratelimit-limit,x-ratelimit-remaining,api-v2-temp-token
      alt-svc:
      - h3=":443"; ma=86400
      bypass-429-option:
      - no_bypass
      cf-cache-status:
      - DYNAMIC
      content-length:
      - '63'
      strict-transport-security:
      - max-age=31536000; includeSubDomains
      x-ratelimit-limit:
      - '600'
      x-ratelimit-remaining:
      - '588'
      x-ratelimit-reset:
      - '36776'
      x-request-id:
      - ddc4aa0cb900216e247ff016d282cb9a
    status:
      code: 200
      message: OK
- request:
    body: '{"jsonrpc": "2.0", "method": "web3_clientVersion", "params": [], "id":
      0}'
    headers:
      Accept:
      - '*/*'
      Accept-Encoding:
      - gzip, deflate
      Connection:
      - keep-alive
      Content-Length:
      - '73'
      Content-Type:
      - application/json
      User-Agent:
      - web3.py/7.14.0/web3.providers.rpc.rpc.HTTPProvider
    method: POST
    uri: https://mainnet.base.org/
  response:
    body:
      string: '{"jsonrpc":"2.0","result":"Geth/v1.101605.0-stable-f03d103a/linux-amd64/go1.24.11","id":0}

        '
    headers:
      CF-RAY:
      - 9cd72e3c9cb03123-ATL
      Connection:
      - keep-alive
      Content-Type:
      - application/json
      Date:
      - Fri, 13 Feb 2026 20:47:23 GMT
      NEL:
      - '{"success_fraction":0.01,"report_to":"cf-nel","max_age":604800}'
      Report-To:
      - '{"endpoints":[{"url":"https:\/\/a.nel.cloudflare.com\/report\/v4?s=iPSgzmINPdEmPCWNpwUuIGNsCHR0X5APRZFA0lqIgBIH1dr4LwV%2BH%2Fy6kRcn5Z03%2BV4bcjk%2B4oBm8%2Fm5Fo4nUut%2FvMvc2TmEQph%2F%2FJx25cUBNH0pTlJk50lql8f6VejrtXk%3D"}],"group":"cf-nel","max_age":604800}'
      Server:
      - cloudflare
      Set-Cookie:
      - __cf_bm=G2.dXv9.6grudJCQL6bTdzAXiKmjlKXc2xqbeneyhWk-1771015643-1.0.1.1-KXwZzDskArl_a0AezrV1ErIhXns2Drp045bWRT8z997.43VNY209BptG35z3rDvHNLDsiUrNdtjX1_Fnhd8oDzHoxGk0ADsB.ifB1u_tWgM;
        path=/; expires=Fri, 13-Feb-26 21:17:23 GMT; domain=.base.org; HttpOnly; Secure;
        SameSite=None
      Strict-Transport-Security:
      - max-age=2592000
      Transfer-Encoding:
      - chunked
      X-Content-Type-Options:
      - nosniff
      cf-cache-status:
      - DYNAMIC
      content-length:
      - '91'
      vary:
      - Origin
      x-proxyd-cache-status:
      - MISS
    status:
      code: 200
      message: OK
- request:
    body: '{"jsonrpc": "2.0", "method": "net_version", "params": [], "id": 1}'
    headers:
      Accept:
      - '*/*'
      Accept-Encoding:
      - gzip, deflate
      Connection:
      - keep-alive
      Content-Length:
      - '66'
      Content-Type:
      - application/json
      Cookie:
      - __cf_bm=G2.dXv9.6grudJCQL6bTdzAXiKmjlKXc2xqbeneyhWk-1771015643-1.0.1.1-KXwZzDskArl_a0AezrV1ErIhXns2Drp045bWRT8z997.43VNY209BptG35z3rDvHNLDsiUrNdtjX1_Fnhd8oDzHoxGk0ADsB.ifB1u_tWgM
      User-Agent:
      - web3.py/7.14.0/web3.providers.rpc.rpc.HTTPProvider
    method: POST
    uri: https://mainnet.base.org/
  response:
    body:
      string: '{"jsonrpc":"2.0","result":"8453","id":1}

        '
    headers:
      CF-RAY:
      - 9cd72e3d4c4db02a-ATL
      Connection:
      - keep-alive
      Content-Length:
      - '41'
      Content-Type:
      - application/json
      Date:
      - Fri, 13 Feb 2026 20:47:23 GMT
      NEL:
      - '{"success_fraction":0.01,"report_to":"cf-nel","max_age":604800}'
      Report-To:
      - '{"endpoints":[{"url":"https:\/\/a.nel.cloudflare.com\/report\/v4?s=lGFHv2gzj35xyU1EQKrooXi%2FvCz3r9WQxSlX9VCIIo016BsbDBvM5AQpZbpuFX6mCUH%2FDhpEDXGVnbG251rCPye5KiqJdGL0xO9FQ91QS%2BS1umpFqwtiou4E7sdhGiDBROM%3D"}],"group":"cf-nel","max_age":604800}'
      Server:
      - cloudflare
      Strict-Transport-Security:
      - max-age=2592000
      X-Content-Type-Options:
      - nosniff
      cf-cache-status:
      - DYNAMIC
      vary:
      - Origin
      x-proxyd-cache-status:
      - HIT
    status:
      code: 200
      message: OK
- request:
    body: '{"jsonrpc": "2.0", "method": "eth_blockNumber", "params": [], "id": 2}'
    headers:
      Accept:
      - '*/*'
      Accept-Encoding:
      - gzip, deflate
      Connection:
      - keep-alive
      Content-Length:
      - '70'
      Content-Type:
      - application/json
      Cookie:
      - __cf_bm=G2.dXv9.6grudJCQL6bTdzAXiKmjlKXc2xqbeneyhWk-1771015643-1.0.1.1-KXwZzDskArl_a0AezrV1ErIhXns2Drp045bWRT8z997.43VNY209BptG35z3rDvHNLDsiUrNdtjX1_Fnhd8oDzHoxGk0ADsB.ifB1u_tWgM
      User-Agent:
      - web3.py/7.14.0/web3.providers.rpc.rpc.HTTPProvider
    method: POST
    uri: https://mainnet.base.org/
  response:
    body:
      string: '{"jsonrpc":"2.0","result":"0x282987c","id":2}

        '
    headers:
      CF-RAY:
      - 9cd72e3e08234bae-ATL
      Connection:
      - keep-alive
      Content-Length:
      - '46'
      Content-Type:
      - application/json
      Date:
      - Fri, 13 Feb 2026 20:47:23 GMT
      NEL:
      - '{"success_fraction":0.01,"report_to":"cf-nel","max_age":604800}'
      Report-To:
      - '{"endpoints":[{"url":"https:\/\/a.nel.cloudflare.com\/report\/v4?s=kO0lRv5tdkjPL0fj76i%2FZTgDIydDUqX2%2Beptdd4CUKgiE%2FIrc4ytztsazlzr%2FJszl4T%2FjPGiCR5sx4eZw4yGmwG39j5hUc5tTerE4HQzHh9RE0TvJPpleyDg4M%2Ff7rv16zA%3D"}],"group":"cf-nel","max_age":604800}'
      Server:
      - cloudflare
      Strict-Transport-Security:
      - max-age=2592000
      X-Content-Type-Options:
      - nosniff
      cf-cache-status:
      - DYNAMIC
      vary:
      - Origin
      x-proxyd-cache-status:
      - MISS
    status:
      code: 200
      message: OK
- request:
    body: '{"jsonrpc": "2.0", "method": "eth_getBalance", "params": ["0x3a9e669d9e2d0171c8a057031a9e9C048b7FEE60",
      "0x3e541a"], "id": 3}'
    headers:
      Accept:
      - '*/*'
      Accept-Encoding:
      - gzip, deflate
      Connection:
      - keep-alive
      Content-Length:
      - '125'
      Content-Type:
      - application/json
      Cookie:
      - __cf_bm=G2.dXv9.6grudJCQL6bTdzAXiKmjlKXc2xqbeneyhWk-1771015643-1.0.1.1-KXwZzDskArl_a0AezrV1ErIhXns2Drp045bWRT8z997.43VNY209BptG35z3rDvHNLDsiUrNdtjX1_Fnhd8oDzHoxGk0ADsB.ifB1u_tWgM
      User-Agent:
      - web3.py/7.14.0/web3.providers.rpc.rpc.HTTPProvider
    method: POST
    uri: https://mainnet.base.org/
  response:
    body:
      string: '{"jsonrpc":"2.0","result":"0x2386f26fc10000","id":3}

        '
    headers:
      CF-RAY:
      - 9cd72e3ebd86bfe0-ATL
      Connection:
      - keep-alive
      Content-Type:
      - application/json
      Date:
      - Fri, 13 Feb 2026 20:47:24 GMT
      NEL:
      - '{"success_fraction":0.01,"report_to":"cf-nel","max_age":604800}'
      Report-To:
      - '{"endpoints":[{"url":"https:\/\/a.nel.cloudflare.com\/report\/v4?s=HsYtFpEvhJnuMjY6dGHAGHtLNLRpc6W%2FhfDdsOUNlfsW%2FbCuo%2FmVGuvOwTvI0sRdID1qOk1HUfMMnXWKP8HHNZuBHSXWZJkucTssF%2FhfqGvw7Dvz0ag6MPZLcSQkEzA8AT8%3D"}],"group":"cf-nel","max_age":604800}'
      Server:
      - cloudflare
      Strict-Transport-Security:
      - max-age=2592000
      Transfer-Encoding:
      - chunked
      X-Content-Type-Options:
      - nosniff
      cf-cache-status:
      - DYNAMIC
      content-length:
      - '53'
      vary:
      - Origin
      x-proxyd-cache-status:
      - MISS
    status:
      code: 200
      message: OK
- request:
    body: '{"jsonrpc": "2.0", "method": "eth_getTransactionByHash", "params": ["0xc7e021f71a972940c2728717f058f49833e3aa4d074c3599054530f108c281b2"],
      "id": 4}'
    headers:
      Accept:
      - '*/*'
      Accept-Encoding:
      - gzip, deflate
      Connection:
      - keep-alive
      Content-Length:
      - '147'
      Content-Type:
      - application/json
      Cookie:
      - __cf_bm=G2.dXv9.6grudJCQL6bTdzAXiKmjlKXc2xqbeneyhWk-1771015643-1.0.1.1-KXwZzDskArl_a0AezrV1ErIhXns2Drp045bWRT8z997.43VNY209BptG35z3rDvHNLDsiUrNdtjX1_Fnhd8oDzHoxGk0ADsB.ifB1u_tWgM
      User-Agent:
      - web3.py/7.14.0/web3.providers.rpc.rpc.HTTPProvider
    method: POST
    uri: https://mainnet.base.org/
  response:
    body:
      string: '{"jsonrpc":"2.0","result":{"accessList":[],"blockHash":"0x493369ae3bb8df04408d15ed1d9971c0ae93a2a7fdc832a583240a723be3bbc4","blockNumber":"0x3e541a","chainId":"0x2105","from":"0x15718b9b0dade1c17d8329a13bb9553f3b38e172","gas":"0x5208","gasPrice":"0xdaf45a","hash":"0xc7e021f71a972940c2728717f058f49833e3aa4d074c3599054530f108c281b2","input":"0x","maxFeePerGas":"0x104a18f","maxPriorityFeePerGas":"0x5aeeeb","nonce":"0x1","r":"0x23df55c709dccbe0ddbca9867f1658f8a7b97ccc06bd0c2c74ad66ef05308b43","s":"0x6e72646fcd901f4d9ebf8e29f1b447bcc7c1fab524a3534bac2b85872940da67","to":"0x3a9e669d9e2d0171c8a057031a9e9c048b7fee60","transactionIndex":"0xf","type":"0x2","v":"0x0","value":"0x2386f26fc10000","yParity":"0x0"},"id":4}

        '
    headers:
      CF-RAY:
      - 9cd72e3f88d93baa-ATL
      Connection:
      - keep-alive
      Content-Type:
      - application/json
      Date:
      - Fri, 13 Feb 2026 20:47:24 GMT
      NEL:
      - '{"success_fraction":0.01,"report_to":"cf-nel","max_age":604800}'
      Report-To:
      - '{"endpoints":[{"url":"https:\/\/a.nel.cloudflare.com\/report\/v4?s=Zwij87HULyneyNRm%2F9Y%2FzVq8iin9ymCuwg0OLd1TEQ3ArmSUo3ZIfpgKRxanzNt2hol2nBQV92NTOw%2FokaTnVTvkIvJ9PJehFfmVcBKvlrYRZYGJJlyocxg3q1Z1AZ9mXig%3D"}],"group":"cf-nel","max_age":604800}'
      Server:
      - cloudflare
      Strict-Transport-Security:
      - max-age=2592000
      Transfer-Encoding:
      - chunked
      X-Content-Type-Options:
      - nosniff
      cf-cache-status:
      - DYNAMIC
      content-length:
      - '717'
      vary:
      - Origin
      x-proxyd-cache-status:
      - MISS
    status:
      code: 200
      message: OK
- request:
    body: '{"jsonrpc": "2.0", "method": "eth_getTransactionByHash", "params": ["0x37d530d1347e3d0903bcb2c8650bd223b39259ba22af373ba70a3cb064ac46b4"],
      "id": 5}'
    headers:
      Accept:
      - '*/*'
      Accept-Encoding:
      - gzip, deflate
      Connection:
      - keep-alive
      Content-Length:
      - '147'
      Content-Type:
      - application/json
      Cookie:
      - __cf_bm=G2.dXv9.6grudJCQL6bTdzAXiKmjlKXc2xqbeneyhWk-1771015643-1.0.1.1-KXwZzDskArl_a0AezrV1ErIhXns2Drp045bWRT8z997.43VNY209BptG35z3rDvHNLDsiUrNdtjX1_Fnhd8oDzHoxGk0ADsB.ifB1u_tWgM
      User-Agent:
      - web3.py/7.14.0/web3.providers.rpc.rpc.HTTPProvider
    method: POST
    uri: https://mainnet.base.org/
  response:
    body:
      string: '{"jsonrpc":"2.0","result":{"accessList":[],"blockHash":"0xddb5af5ed330a0a7e6af7f97d472bc0eea45a0fa46d0e456e6acced9894561fd","blockNumber":"0x2157a53","chainId":"0x2105","from":"0x8de14e014402c0677b075a69122f94c0425cc179","gas":"0x36020","gasPrice":"0x1c068a","hash":"0x37d530d1347e3d0903bcb2c8650bd223b39259ba22af373ba70a3cb064ac46b4","input":"0x6a761202000000000000000000000000526643f69b81b008f46d95cd5ced5ec0edffdac6000000000000000000000000000000000000000000000000000000000000000000000000000000000000000000000000000000000000000000000000000001400000000000000000000000000000000000000000000000000000000000000001000000000000000000000000000000000000000000000000000000000000000000000000000000000000000000000000000000000000000000000000000000000000000000000000000000000000000000000000000000000000000000000000000000000000000000000000000000000000000000000000000000000000000000000000000000000000000000000000000000000000000000000000000000000000000000000000000000000000000000000000000000000000000000000180000000000000000000000000000000000000000000000000000000000000000468cb3d94000000000000000000000000000000000000000000000000000000000000000000000000000000000000000000000000000000000000000000000041bfbcd95815aecad072f85c8b2c14ddd8ea56370dd6dbf14d4047659df02e96f610fdc018034eb5e29f6c4ead8519d7f2fb004b8a06458638a1beb4ae24abe0e81c00000000000000000000000000000000000000000000000000000000000000","maxFeePerGas":"0x20e817","maxPriorityFeePerGas":"0xf4008","nonce":"0xc4e83","r":"0xd2dc0a5a656af5304684ec3db133861d2a1574c5aeee6e8ea986c917aaa82354","s":"0x6718d7b1951395dd2bbb0a501f19a8ab40160f91fcd5e8a3bf5bda483bd14608","to":"0x0bebd2fca9854f657329324aa7dc90f656395189","transactionIndex":"0x84","type":"0x2","v":"0x0","value":"0x0","yParity":"0x0"},"id":5}

        '
    headers:
      CF-RAY:
      - 9cd72e404ac6bf6d-ATL
      Connection:
      - keep-alive
      Content-Type:
      - application/json
      Date:
      - Fri, 13 Feb 2026 20:47:24 GMT
      NEL:
      - '{"success_fraction":0.01,"report_to":"cf-nel","max_age":604800}'
      Report-To:
      - '{"endpoints":[{"url":"https:\/\/a.nel.cloudflare.com\/report\/v4?s=yifeYPpbWkh%2B%2B0rcv%2FxdKNirCP7d3CeAXgL5ng%2Fz%2BnNYQ8J1fDaFQ0hldoOYVTl3Nc3DaEX9BbGNtsu27eXL2K8TpfLCG%2BPpKadHtGWLp2uN2KFakE3P07yXz6z77TT48jM%3D"}],"group":"cf-nel","max_age":604800}'
      Server:
      - cloudflare
      Strict-Transport-Security:
      - max-age=2592000
      Transfer-Encoding:
      - chunked
      X-Content-Type-Options:
      - nosniff
      cf-cache-status:
      - DYNAMIC
      content-length:
      - '1741'
      vary:
      - Origin
      x-proxyd-cache-status:
      - MISS
    status:
      code: 200
      message: OK
- request:
    body: '{"jsonrpc": "2.0", "method": "eth_getBlockByNumber", "params": ["0x2157a53",
      false], "id": 6}'
    headers:
      Accept:
      - '*/*'
      Accept-Encoding:
      - gzip, deflate
      Connection:
      - keep-alive
      Content-Length:
      - '93'
      Content-Type:
      - application/json
      Cookie:
      - __cf_bm=G2.dXv9.6grudJCQL6bTdzAXiKmjlKXc2xqbeneyhWk-1771015643-1.0.1.1-KXwZzDskArl_a0AezrV1ErIhXns2Drp045bWRT8z997.43VNY209BptG35z3rDvHNLDsiUrNdtjX1_Fnhd8oDzHoxGk0ADsB.ifB1u_tWgM
      User-Agent:
      - web3.py/7.14.0/web3.providers.rpc.rpc.HTTPProvider
    method: POST
    uri: https://mainnet.base.org/
  response:
    body:
      string: '{"jsonrpc":"2.0","result":{"baseFeePerGas":"0xcc682","blobGasUsed":"0x0","difficulty":"0x0","excessBlobGas":"0x0","extraData":"0x000000003200000003","gasLimit":"0x8f0d180","gasUsed":"0x28a8e9f","hash":"0xddb5af5ed330a0a7e6af7f97d472bc0eea45a0fa46d0e456e6acced9894561fd","logsBloom":"0xf3f3aa41f8166ddd8c8fdbb9d3c5ebb4bee6d875ef5f9f190b8410abaeb165dd85ecf8599b9fef74764ac6553f633feea9558cadbf1667c8e7f68fe0d6bca88816ee4c7b354c4c7826e3315bfdb2423461967f3fc5ecf2b57ebef4618d630fda2dc4e96e7acf455c33861d0aba763fe7f3217d971cdc0e3670add1f7ee1b86ee033a59ebbd055228414bffeba80e378455d99ceb5ebd5889330fcfd609d4ce8d22ee1c949f84c6f75c60dbea90e1749f7b9706972df2b43f41ef7ff7c9d8f3877b0bc80acee98e998fbb49ede34ea2823fec84e7c4aae25bda7e67f79ecf6d260ef53c150eddbf3636fae6efddd05ff1ce967fb885b0ae528e2bbbb795654fa2","miner":"0x4200000000000000000000000000000000000011","mixHash":"0x6f1cf8116bafdc9109015a1df90a6b21a1bfc96fa51ca2b7a4feb2218959d585","nonce":"0x0000000000000000","number":"0x2157a53","parentBeaconBlockRoot":"0x7d9267b7cad1b316f84e7747086fddde16651f457303946e4ec0441d58889c96","parentHash":"0x3107a14cb37a0697ecf45d5f424a776d304893a0a321ce568d5925872bf4c523","receiptsRoot":"0x55ed65f106e2110d5844cfa265aeea54de5c78b792f4c769e56b7febdc85d385","requestsHash":"0xe3b0c44298fc1c149afbf4c8996fb92427ae41e4649b934ca495991b7852b855","sha3Uncles":"0x1dcc4de8dec75d7aab85b567b6ccd41ad312451b948a7413f0a142fd40d49347","size":"0x1c638","stateRoot":"0x90e102944a8969f5611443d36343e167dfa184cccc4a76314ec62800781fa72d","timestamp":"0x68b55189","transactions":["0x87bfa04b02d252eab8e8dcf452c94e4c9897d9feff2adc3546925a25a14dd4f7","0x4b295c7a6518330adfa8d1b646ee70ed2f72340ab4e26e86dd7b49df1b93a90f","0x0ecd1b9c7be40ddab189f1e3c03741fb9f6041dc122bf3fe5c58e71bec9354da","0x04660bd4105ab0d8b5016ee695d352fc2be1763b8783f74c5a851ea5f92c0976","0xe434d979ca34bf279cc66893b2ed887db5896d65729349b021d25094086a3c25","0x6946163af78eb6f2210424a5395aebab68eb4239014f329fdce13a6e51e1f282","0x02c38d749af89d5834916632a51498206bc6081af8933b27c28896abd0d7f1c7","0x210c7925e3bcd923ef57170d767e5b9e9f6ef4a75949322567ca719c8816edd4","0x636de7dcc47e9b81d8cfb69e82c4cc29fdb16ca84f01e8afd4f2dd05e889b5c8","0xca1e9c5f422b8acd5fa6eb50573a4adc2055f70a3be71448d335be1e9f1812d0","0x07a55b23b18f716de9e6291327bbc5a1bf4c66b3b0c3aef9e3463a2625c66fe8","0x7be1527288ed089b4cd00eee4329baf27866c508ad6c716baf64f92bdc112432","0x44b156200376739722acbbba0bf52a60b47675d40cd7ce6e268414c9db9b2645","0x15d7149978f0a23414db81a9185ec94fc0664953c7e286a17bec5e75b7fcb780","0x44dcff1e4cf7b868049739e9f2243745bd54259fcb2ddc77563dfa20487f5914","0x601f725ac9510f3b2f863d6263977d68f319d84838fbcaf0ada82d66d1cb4e81","0xb9e69f3704bb4beeede2f509165f5bc5169eec7b8ed9c7d5faaba51653b13c77","0xab9da3ae475d023008c4d27bec26941c60879103bc77c1bdaf9c4a4fceb5ad73","0xd77f5dafb2d9eb0743bb7af1e9c90b28e92bafcf474dba6e683390dc4750204d","0x2fd0e3e71742b2002b914037a77a4583543f86672139a4a13710562d580f8761","0x3c6aba3973f9808c69378ebd93183a6041c855a51576976db2f010ba8f3f20f5","0x0a2017c34014c6dcad80d7bbe69758c338f51ea5789a09584625752d731ca691","0xb606c5a37560dee026fbd83d1fa3c84301e5e24a4a0d5807bf1534b51ddd489e","0x45313e074d0a53fd433881178daf957597bdd8210c44e2e5f481cdfaaf08efa7","0x714ff9d284ac85c735fb655d36a64b57dc6a7f5574ac07dc8af4b85232cf89eb","0xb315d9998ad67f048eba1b5b512348820cf99f9a52f7ebbfaa02bdc6faa571fd","0xc07868c93a2a2eae6238859a4d6f71ba65122f723a6e4dea3c33307137306f29","0x15820f6c44d68bdeabf6b166d45c6838060cada9966f0ae73efd55753807b388","0x51a0d1c3eb04b70d21a581912a214dad11dd233e17f69d8fb5b097c400d72943","0xdc26d17f714f6967fd2dc349cb39317326f915c8c5c44c434473bf86cf5c76fe","0x6d2c8f6c6b824722098ae69ddcd4f19e6729a611df23d846278bdbcc9bb5e89e","0x11fa646f0673ad9be8a55808d9d5187a959db16ed3475b6f9ed59b5fe5b2f94c","0x7e5fe695e1ae197985866e61b93809fd9a4483db405c6ec1b3f772e1c9b9b601","0x1f55365d4f23ac166bffe0291fcdd180cf2d852e26e71bbafa4613a145d9d3b2","0xf34851d9cfa1d33e5d7605a6cf4ee5e18a98dfdbd7916c4dd53a50c8affba8eb","0x8a2808a67a0cdd141c1904df99b023559cc825954bf3ff4e96018c0f7984829a","0x6d093665adbac1f5a4d77af9997ccbe28b55cb18f3514b80390106ab3979032f","0x4043326572f8eed41d039ad311de98d91a6ec85f3a0a4c573b37d9436ddd0d21","0x3ead1cea784b98acf059ed30ccff7aba0b35e564d986216b0117a78387ad821c","0x20ad5ce97ab0ef1933f11f4898baf98349af6dedbdc21a611725893283b454ee","0x517f7ef3294ca922b64763e706cd203a45b4a0a5732e22635daf688dce506034","0x67064845a8bf1082f0c86ab106046abf05fb25df05d8c140fe8dcba65200851e","0xa2ac5842752c96797754c0b663c2a2c15774b20d3a0b29beb9396d7d28846765","0xecab059ca0dc5aed22c5c6b85a5ced19243e044eee685ed796cc3ed4cf06030e","0x2024e74cf3fa399e336adf2a999054bc8df9306456e56e452dc321c3d3a3c213","0xed51898e2384dd4cdbe6a5fbf1f11be0962bed3ffb7070e1f1e4ed2d7807f339","0x41aa25fc4ccc3f5663ea341ea69c5d2cd5ed17a2dcaa3798ecb706699a895d89","0x1d3546626a7dd290a94d8fe246fa08f48824c9e156ca979e0849ea3d2ef2a6f8","0x436282237ffe5460f30d8af11d770d27f5d9e8767a6008dc1f4876b2e477068f","0xf0b4e22bfaa2a73a5bf8095d11e073e34b6597156f755f547af6a41985143135","0x418c51047419e90eac8ed1988825cfe8402661fe3adb52a7a99051cbb8479850","0xea58b916076065c31758d9dee312c39297560663eae33d37ef2939604e23fdb6","0xaa266c85cca84e157c7e647c8baa88ccb345531f3f9db54985589f970252dbff","0xd430af26e4da4b973f3590de93fefaec87073822e10a16a81450fb78eb14ab35","0x8041b096ab8ac9e54c1533c89fc85b32bba76e0d68b041e6e0f9ee65e241479b","0xe00489004f83f51594f145e4617e3070b61f6803edbb5238009a0ab220bb4a69","0x4a790247d5bb1bcd51d380fe324cc37b265e1b7513f8929649e13d1f557ef4ce","0x2919def9c3e06e51c8cb63f68419299ab86e94fecd90f006d57cebd87c05ba11","0x4781a419c7ba38354101d18c5c269e4d846e59e74c688b1e865217b3c5e9bb6e","0xf1ca88cf05e545d115cafc4add01558275140639011025a839669afbf5fd989f","0xd5399f945484f8cccd928654521d2249dc7aa19b48097010f822755934c1ef3d","0x33da2a082956620831b7c528434a210b73309c5e5533839d0ce92dc30fe3f198","0x9296936c120a46284703dc127c9954ef9c8bfd5c792811fc4721512e4e33275e","0x6e26047ca73c5888ffa4adac07ed8795ccd45ef0feb06da19e8e2c81ee6092b6","0x395591288a5f7eee9c69b9628640fb0cb98b96f2bddd656c388f6273305d4577","0x73ba9b09f89b81827de9bc753fd3e22b31357431ac3633cdfcb2c6876ddb6849","0x676894aac778b38a76ab5ca322ad87de322cff3581177420214754ae68098636","0x753b0aa0c94239b155ea2edfb58e833afebf13bfd47cd17e86fb27bcafcf8605","0x19776163103715cb885b089f3cfbbf2bd36e4aca810e51befe778190f88d030c","0x9d30a4124328062454c34bbb099a8675e7c157b0412182f07eca2d51ef8b87a9","0xb67315f8791924477b4abf2c5ae5250dc4c5584bb3aff3d1a417f174bf45e268","0x0a4ba9059def3b31d23ee39fa78b5b2db7093ab28e9948a29353794323e96ee0","0x11f0bfce3bd6fa1287c154705e7101ab18aefe09be430b5a37120ef7a9c177a9","0xeef06e9037031f1a2b1fa1a8de258908970f788f38a78b08dd2247b95b6b6d70","0x71bcd88ce0604bf8dba7608e659bf0ca1c4a823135c9880c3d6aff1980441c39","0x013229c885fd18e57da86b804d4a05ca05a1da1d17a2f6368b23b893e43baafa","0xdb5f0968a30ec1746a356a1289a59d98df51963ab2e8638a911064d916b9286b","0xdec8507285d575d4979f14476aecb6582484b0a799506296529b95499cb8f5bc","0x0d7db5515a3dce0d847843cac498db32771fa7b0f6a354f2b62579e922a0960a","0xa95348dce28eb7446ead8f4ed0313f383399d2163c7bfbff6536cd28147f9c48","0x3f92bdc0a8e779bedf4a62235be628260a1e8ed242e976394773b3ea911ade4b","0x0f3906014e6796dcd04ee4c9591e5446db340708f82a740cfc5a2092a5e5fccf","0xfeaccc03689be31aa452b40a2cc7d56d010790f084c557554db8042db3c6e246","0x1d9f022795a349c6a29da6ba951b7af0af5d0c4923e7cb0e39d8cbba505cdae0","0x9bfe9894296786fadd5f556393903e3f8886da63e9208cbd2f0185699c78304e","0xbd632a132d3c0bd40e656cd3ed4961125cd5298ed2f80d4fe9139ac2d7577f64","0x3954578fb3d07228c55aadb067bdbfee6a8e0e05c89002b3eba623d45389d6f2","0xa61de73968c61244ec0ee06034c8e6e2a0f96a0d080c87d419293b21ec91ba47","0x500474b3f132bf128006cabe749e06aa7f067bc7cf80099f3dc3e209283bdd74","0xfaa43c8540f9e97539d4cd1bb49c39082a76b3ca941e729b112b346161a70cda","0x75d867a1c5b7aa126f1d5d59f17c443d1810b7fa6d67506bcd53ad29909688c7","0x4de0ee4d85fb4e52b8ba1964125898af9c51de8519f7bb67cb156f107dd57070","0xf464ee86d48b729bbe2819bad73e1d90f67cc429b13c508978e809afda75f626","0xef3d8ce9b4acdfffcc584573cfa360cc4522e8370e67a31233c669e375d16b32","0x3c70e0daf1996f2a3a72e59aa527c86b409cb96f2ee77a05a4ccdae674a9b712","0x58ebc646458cf7bfab406cc1dc76f38ba03c4fc64c70ef2abb6cdf55f85d84a6","0x6cb4aeb0b24de9fdb8a29ddd2c339ca87c29a33a1a76c341dd7d3b937b6a3c2d","0x30988522d9ba8a90f31aa32a6cde3fb21e377ffdf3e4b0bf8e075384c73c4fb2","0x6177200620ece697bd58ece79479ad2dc6bb913db748aa159261a3314db1777a","0x53c5737fb32f795009d862c28097f7ae2d67675278ebd9b604a1973561a1de66","0xea74527ffc10d458dd0d0a4bde5cf303b23ea7ae368f4fa36fbba2768a398423","0x2b0f4fa715f5b6d14f28ad6cacbab5ebb4bed684bc47adc744065a39d7666bb6","0xf2dded5b6f6936db74bd4e573273dc6cc5f559aa72508e299c04de1070c88f55","0x7fb687b341487466df6581d546498a54c566a2734ab6eeee3603a58f96d62e8a","0xc810f7d1030ca263284db26d7851b7c84e0886420eb4f7aa2663265c8d98b8dd","0x1ff701584d4ef4c39f8328dcc9cbc8cc4f346b687000a73df19fb62e4644f8d0","0xe4c19fb01dc9d8cb4c160ff21c740f725fceccd3e29f21375f970509e2a2aa5e","0xcb55ae90d03b37b364588bc2102ab307b76fe0c1f63d224ebf4314ec030a2f50","0xe30b041ead9d35647093e9234f54314d8cfc1797f28168447ac43fbff4ecb9dc","0xdf504695259a8615b2f2814eb6afcf9b0e27bec892fcfe22d2ca326821af7ed5","0xe25507844c93aa9c56e41bcb9570a26e319d874aaf711aaf31eadf59b4a5bcf6","0x0b060b2212413afeaf3a03b64364a2dfc354c27056b46c259c1b5bbaabc079ff","0x7b09ea1783dcbc905f2c2982f55ccf7a980cf6cf7f8fd61ea326e1dedba67bf7","0x159bae92d710845c7445d50966f3cab9b4181f1c078c6b99868ec00282b71702","0x5e4315c7de94f44a6815df8556d7cac764abc34e3136e6a9e6145fe4b28c77b0","0x857e6fafec8b46da35067dafea70eb6e2cdb74c9ae1b5d3f3a032382d6ce936e","0xb5edfdee63d7abac1ff7e4393122d2df199653653cce2ccb2d674b6008c774a3","0x363d6c073ad0909b52c891ff33841c8ee1cc6e6b8533aca3138d081b1aa40b2a","0x0f6f0391e0fd49d0897f6119aefa8389c3cea2a3cc644774c4f695c94cab0d7e","0x51f28ff5ea09b57dfe94593888b4a9f640ae754a1ae6d9d2e06020df16bc41a9","0x99421fc551315cd277ce091e035397f1b0fd82c915716d0578e8a224975bb8a1","0x6fde658e97fbcf7de0de7b80d837d9d1c4bc20496197e73c47da8e974aa592ef","0x2eba4aa14bbace9286cbcda431b1a3a2ca245a20b84d53790b962b4f9c0ee173","0x92dbda9dc102913faa9cadef05d2cfe665a90cabdfac42d85a10502860ea0d89","0x7538b0ab002b9b6aed18ef3e36d83d82a5e0eaa438851414c50c529869aac73a","0x51b53fa69564442122160e7939824ab2d99ce1dd13bab2d894cc89dbcbc5674d","0xe96aebe803b72f7a12009dca67d3661d41028dcfc13475c9424f332249ff05a7","0xe5c2ddb6d67c7e40766c2a7d86bfb86c4547d2bf3c9effdf2b1bb60198a471b4","0x78e2ca7362e3f767c6a08e3b4bdc08fbe8d9cdf36033a3bfcac7c99442926eb2","0x13444e409490312eb31ed8c319e11e9a1ec3c8586c383a1832f207ce967e6808","0x5b83a17156864d02277b01967c155a60e62bad888237f2466fed49692e29f792","0xcd8b874d641e4f1311611c66c2df01f47af7180d07bd5c317f0a387b9d8fe3fd","0x37d530d1347e3d0903bcb2c8650bd223b39259ba22af373ba70a3cb064ac46b4","0x80eb025211b9c91668e4002f9b991847e6693c9bc5920dce8b239292d8a0d2ad","0x249fed2d84c93ef22f4b4e7b63605296b0867aa8b2d5dc286a9945696a9f3acd","0x21d49f1e009ddb1d80184ab2e85ca3bc423752751ce7f90be9417780467d7561","0xd3f3cf42925976e650e24fd5ba57b879899399b3fd90ddcc7279095127ba885f","0x1d02d599f0de193c68dfb3dda7f674facaadf46c87dbe425b7b89fad848b21be","0x14c61f2726ac1e3d12a851df4b1ea490dd08a1a1c018eaa3e118336e4d5d1ce0","0x70b51dc9af4d26b0d574de97c2d3085953893207358963606944e8e904f022b5","0xbd7a42a7560d8f0e59fd00548a99c1f63a61c339e1d8e8e2ef4a42ba2dfed726","0xdeaf8b08699b5bc3136eab14d930e60b158009a156daeae74a588fd85f1fedba","0xc227f10df349d3e3c4721025e15e6bfea4cae2c16ab916615177385c1fc48737","0xcee4e92452163f203a32fe5e2f4da05c0b5651e024d3b572a6a5edf979f38750","0x5c63ffb0cc6c10e3a0930d856fb7a08196fcd503b1c22a9a86f0a6b350d2378d","0xa5986608a428a11684ee87039ea4766681014eb42e1b632776d0f54fabd6460f","0x38a0c46cd97db5567119c4e8b5e43b9711c4c6383e29041bac61e067cd77aef7","0x44e2dc22eb634757182a87720bb22e9ecaa615df4bea4727197c8ca4271e95cc","0xfef2f81613bdad18c3a32d3aa64a30bb65601bbaf1fbc22e7ce879fb8964bf36","0xdb55c97a3511a56594ba6cfe345e76d3c49a649d66704a0d359b041950a607bf","0x1e31cb4843f2a8b4d854a198c60828968936698a2b11e9b832c4068ed53b7d0d","0x70a89ab790e32b6ae81cfd99f1cd8305c510abc7bd8d4580b662d7659ad711c3","0x1a17b049ed8c4c871c46d8e63ccb70b47fd24e58507062b4e876507d5047aa12","0xeb3abe2c4f542ed1e198ad1926250c85f80d05c03f60e8b10a2f725bec0e5c6e","0xb660f15940f134f5cfaf302ab2a495f14293d87e25ea493d2c4d072ca9c817db","0xb8287f7d416d089daaf3986a760c82d4ec1e3166e02488efbfedc762858a7310","0x9daff4768d39980ef7e0788f2554bb755e10b49182c78b1c1bc991dddd34e3fe","0x3b8fe631c067ab7c8d345307565f080799dbee03500b0cb22bd12f5318482496","0x7f71f90a28e3a632d11f637a67466a05f53ecf715fd5572d97341ead576b9f2c","0x34b385fcca35a7b32a83044810f185d48d838e326b092d8483807d1a557e82e8","0x4f1cc57a8f5b209b07774ed5374542ba126804ec6590ae64b6c1fc100cfba5f0","0xb695dfa37f2186507931ad962ae88c3b4aace6842b23f8feea98d3df53bd1b90","0xba6e002fb1c2360c7475390aed5cec2e69386b9fc92c96f7768092f5a746ddfc","0x01433b2d97f5088301e72e428f95ea4f9c0109e848cf777d790325f79002e28a","0x9ee155c00f4cffdb8cdd4994e191e1c18fb2157e7ab0e27619b81cb84a2490af","0x04e8ffed97b790f9a666954c2e757793bc8d966dc3e8aed05181c5fa36c6c58f","0xd30fad6ebd98cc93d13b5d5b006b25c2185c5c63ff7bd94cb31747eb9377dc1c","0x68223f861d0f2fb49410fe8e229adf270f0bd459952064974f0afef8955f04e2","0xff368e5fc6dd6a25dd32d31f19a5baf820ed45c8999bcde6f2f359e33c1d8351","0x4a23f2fd065d18af21474355ce6028f94be3c0f2099d979f367ee90ea7f4ae4f","0x5541ba46973c2d60e078f5b1547abf24825f6bc69d177c5e52eef868825782c0","0x5bf50cde75889335f1c7b5494b604c3c590fd7f41dc5ea5b4bc492c07b458715","0x61ee06f566103396feb5cdc4a752ad3ee3951a422cfce0142273bbbd89b6fa72","0x5f46b97591d8f7892d3ad53e4c9663416221c523d111bc5615f90d66056c9ac1","0x502481fe0b72a5cb3027f84726bf96a8cf6277bc794a399672d04944aeea7737","0xa78d98fc25d1c90ae1a2ffdea315880b95fcbb1ccf8dc1998a00756c8e2459a9","0x88b56cd9413c15ae5739133ac8f0a15b0a39c426016ea8eee6f8f5f3c40b4061","0x126d1bda475659da7627e846b162b9240894a5167b55506f8e79b3ee4f5c79a1","0x7a635a1085b9b56811cfa339724b379826d4b584f52d2231958a771e5eb3e80f","0x7b48b6f0c202c045ed4ba2f58a5aff1990a832322d859767e887b139b7046ab1","0xd31aec31089fa2ef30eef00858186e5d5df53739cc2202eb10005b432c280596","0x7def4ea15ae415a74450a5c418b1eedecbcdf497cfbf2bb6618375698feb5e6c","0xb50e0d6bf6d0df41f895d47cdc3febaac93163b3c2f8bb93fb66443c1d73f694","0x8d2b451c9afa8a8790352c5e8b136481bf855f38d4de0d4a322bece7181f0286","0x46b9d0bd10cb7a3d714802b82369be0308b695c09a4b8bc6dd70ef53d6db7ada","0x3a766f78a48523c9a83a64dd0c7b41f35acf7a69a3bd67fdd1d9539bf2bed8ea","0x0182ef1e6a1b2eb890450624e3d9166e74931d80806bc6bcbfd353dd092efb13","0x1fa892808c6afec3fd0f003a5d438192ce93a20ea670dca97edcf16ad194167c","0xb9b57d8f8a2241891f9d5bea16e73e088d99c67835e22fb8f6f0f450788f2a73","0x36b40252745cb3b13c493a569f541f95e220b7fa56dfb3ccf16cdce21598de82","0x745935e830a13500e73979e67185c92bba66ddcb054b4c4644f37a8f931da691","0x83e0ebb11b7717a0155664fbc55966dc5b7e7ce38683f083cfe98c4c20f3b890","0x2333647d260f158afcc6a70a53dd18ef2117413a04623f1a416eeefe828b6e33","0x9f19f1dca0d21a830af7cf8afe8fa5b64c4c1d818dfaf5f9c44881951d52b15d","0x8700f147bf4a16fb965626652414d1b3ca34fa2bd8f77a23a977f766c71b37d6","0x6d102ce4e1c9367b6538c8e230652f9ca208d7268423f9eabd8f7fd6a1a30c48","0x45abb213bfdc2ae02c1278d5a2d6df47efddc42545bb232f0ccfe2cbcb8800d7","0x5d10dcfef1375d4dcf63b3f9ec1583d557ca95862c711ba4c114d0bc2813ad26","0xe30d7d59ecf5957f11384d91a222a79fdfe88386c958269cbdecb4919e69a06f","0xffcaaf98b3c6f291bfa4522fdfbf76ab454091719b3f9788c6e1ca2e83df682d","0x7a75a22d3b1f7b7d262d2b9961b65978f8c8cde6eb7e6e1c097c6e1b459e510f","0x0574a81c676dec7fa9696a513cf2def3ce5fff2e446e7e859c092cfaf0f50f92","0x6fae7b2f6a0c289353d97f9d57ca94d9d551738f832b19825ef2730c24a08f89","0x8a98bb418f292254ace0a716d470e3cec45d57cd5173b54a849284752eb8f11e","0x5eeb286644039e6542ec95961759dcfe83b44bd44bc2874212eacf278dd4e431","0xf89cc6e8b0fcd5dc7769bd3b7cfa9be59bb2eac10f9f78bb1cb08d8632eda712","0x7caa9396a6e4b35863ff56ced80a1aa516651ad31bfd70aa389392159b54a275","0xa02dddca76a0145bd6c8dc61b34a14c961ed6a283f3b338607a922af0cbbf0a5","0x9104a2282c4bb8e296e47e2042f27d66e6f534e92cb5803fa2ad684ea47cb369","0x8f51b48166ac50898697167a14b87ce86677a4941a6e6573c97d2dcf32a8d883","0x3ffebb152d533888469685ee3836aa9b6e6ea924d0d69fb7c7692108c712516f","0xf05a2132eb64edd8d26d2441730590e7c11cdf1d845051920e8cc85ad97cfa6b","0xe158cfd013f101dd678f0d80904342da862dc834fabb2e6eeaeda949205f4328","0xcf5f152fe46888f4e1ba5ef8c992d3a5f510bf87da1d2793f07d0f1e19488215","0xe9e0dec7ae3b558afdcdeb96da12fe8f78ca8499cd631ac53aebde6bd8a83afb","0x6eae1a01a069efae09704c01070004e597dc4272372a51c4322725640e070a2e","0x55fad7457fc30bab944c25d523e27db669aa80dfe94eed2489bf971545c0d5d5","0x8c3f22e78540358424f4b227ab75d4a71427fcebf702a73e30f8be0e40b2aef5","0x15543eb001c657c77795676bb502e9e4c9182f4a5159098ef71da609685df71c","0x0da513a86d33e8e22cc89ed6dd2dfcc21c647cee70667ed30df0ba1fa796d998","0x030647c8c8a5332a9e94306ceb18d81cc9c594ac60e1136f8648aaed8a82ea18","0xf621a1306926da538a3915d2d91b8395c3c264aec5ab9f6962c9f8301e80326c","0x02e19f905a105f955f3a9b5364bcfbf48b2ef64d8a5d7de2a8f4f724f3209366","0xde397a58c4f21dc3c18d5efc4708370180b5952bb6cdb1027ecb20fef0c6d51c","0xa4ea5f78805691686a7c7a59e2039533af99700932f25d5f47b9b8422475d82a","0x9f51e28016649a142e16be1a335cb668c60808605cda4a709c83c1e4d77cb240","0x1207f0b3607976a75d023e2dc35dcd6ffde54a22fe06c3c18cab4822ecfcefc1","0xd401e21a20457e36322dd3d523118ffd770edd8b9cbc4fdd454404f7a5a23a69","0x76de514ba0085054219ccb0e4fdd6641ffbc070aed5714e9180ac5b2cc2ada4b","0x42b0ce4df0f601763a8de2044e79325f1b69d64efd36ceaec36d5f828d7942f2","0xa7d17958a4d48b4c8eec3a5a0fd15c846bdea3283072a838a0928d89ffd7afa8","0x201c74c9f745e387398411f3d429f7bd4e4e73319cef8c0dddc258623c585895","0xc39dc249980054149a142e3e2689b0824c47d31168750b4cdb3a267047fe7a65","0xb01c609af97067131925d534809db02fe5f508664e4ec622bf37b113d4cb3f5d","0x44601b82144b40cfedf19430002404ffa10b0ab66fe83d82d68f30405317b564","0x5264e16f988b93aec7f984a8b6ff56a861f72ed0e6b9ddf823bc5e593437eafa","0xb3319e105d405e932b518d9c9d6e16501dbba463fe163d76e886b70b34b66dec","0x02a0f52114e677e8a81fc1b8a80869a7a84fb4bb9bc74bbd322a364a8d6f9f5c","0xe3433ca008d24640c0292bb89ec9aabe83fbcafb8e2c0bbbaccbf80882340294","0x3ddbeebd675c1d45f990be99d7fd3f530c1ed1490c641f67b4a5ed9f4023ac51","0x018c6f553ae1882023092bbf99bdc6b0de6814d64c3cd439bde8f11fca7e2423","0x5e83dfcd0e3a2552c478b2555ced37cc2f82e79f6b0b275c5ff0b9c37199f98b","0xef55914f9a065d12449b5bde2cc972b948abf5d0cd15b71ffe34a3d48d536faf","0xa748b6dd4c29d26d621ac56ca3315529366b206c5f5fa3474b6f3ff0b785eb45","0xbce86525a0d6d34171f1432a37f01b2070694c0842e20f1bdbef01f21667b311","0x6df1f6e242066da82813c2cc6d5ab7590db62574a99d73eadefe8f5b6bc1ea64","0x335432c78655380d2515af02f889f46eb29e687f30b2a91ef5e997f64ba3bf82"],"transactionsRoot":"0x1acb4940c6bec862ff452070b3a8290ac3ec0b1e5a31260b23e8ac47f297b1b1","uncles":[],"withdrawals":[],"withdrawalsRoot":"0x9b851842610de49221d466999465e8d409b8f010e9e05e4dfba90c7f18de3f7f"},"id":6}

        '
    headers:
      CF-RAY:
      - 9cd72e410940d1b5-ATL
      Connection:
      - keep-alive
      Content-Type:
      - application/json
      Date:
      - Fri, 13 Feb 2026 20:47:24 GMT
      NEL:
      - '{"success_fraction":0.01,"report_to":"cf-nel","max_age":604800}'
      Report-To:
      - '{"endpoints":[{"url":"https:\/\/a.nel.cloudflare.com\/report\/v4?s=zO%2Fzz%2BCP80%2FiRRRG2EvR1Fh8nb%2Bf0K5PNpf3hD2FKue1GgKklHUbhP8xR%2Fy62tCgLkb0e9uiI3xLZ7RcPn9mdezPvJA9DqL2LQud7atWCIjgu1eETkCfOC6JzBbSjURyoVY%3D"}],"group":"cf-nel","max_age":604800}'
      Server:
      - cloudflare
      Strict-Transport-Security:
      - max-age=2592000
      Transfer-Encoding:
      - chunked
      X-Content-Type-Options:
      - nosniff
      cf-cache-status:
      - DYNAMIC
      content-length:
      - '18802'
      vary:
      - Origin
      x-proxyd-cache-status:
      - MISS
    status:
      code: 200
      message: OK
- request:
    body: '{"jsonrpc": "2.0", "method": "eth_getTransactionReceipt", "params": ["0x37d530d1347e3d0903bcb2c8650bd223b39259ba22af373ba70a3cb064ac46b4"],
      "id": 7}'
    headers:
      Accept:
      - '*/*'
      Accept-Encoding:
      - gzip, deflate
      Connection:
      - keep-alive
      Content-Length:
      - '148'
      Content-Type:
      - application/json
      Cookie:
      - __cf_bm=G2.dXv9.6grudJCQL6bTdzAXiKmjlKXc2xqbeneyhWk-1771015643-1.0.1.1-KXwZzDskArl_a0AezrV1ErIhXns2Drp045bWRT8z997.43VNY209BptG35z3rDvHNLDsiUrNdtjX1_Fnhd8oDzHoxGk0ADsB.ifB1u_tWgM
      User-Agent:
      - web3.py/7.14.0/web3.providers.rpc.rpc.HTTPProvider
    method: POST
    uri: https://mainnet.base.org/
  response:
    body:
      string: '{"jsonrpc":"2.0","result":{"blockHash":"0xddb5af5ed330a0a7e6af7f97d472bc0eea45a0fa46d0e456e6acced9894561fd","blockNumber":"0x2157a53","contractAddress":null,"cumulativeGasUsed":"0x15fc870","effectiveGasPrice":"0x1c068a","from":"0x8de14e014402c0677b075a69122f94c0425cc179","gasUsed":"0x121a4","l1BaseFeeScalar":"0x8dd","l1BlobBaseFee":"0x1","l1BlobBaseFeeScalar":"0x101c12","l1Fee":"0x241197002","l1GasPrice":"0x5a06495b","l1GasUsed":"0xb09","logs":[{"address":"0x0bebd2fca9854f657329324aa7dc90f656395189","blockHash":"0xddb5af5ed330a0a7e6af7f97d472bc0eea45a0fa46d0e456e6acced9894561fd","blockNumber":"0x2157a53","blockTimestamp":"0x68b55189","data":"0x000000000000000000000000526643f69b81b008f46d95cd5ced5ec0edffdac60000000000000000000000000000000000000000000000000000000000000000000000000000000000000000000000000000000000000000000000000000016000000000000000000000000000000000000000000000000000000000000000010000000000000000000000000000000000000000000000000000000000000000000000000000000000000000000000000000000000000000000000000000000000000000000000000000000000000000000000000000000000000000000000000000000000000000000000000000000000000000000000000000000000000000000000000000000000000000000000000000000000000000000000000000000000000000000000000000000000000000000000000000000000000000000001a00000000000000000000000000000000000000000000000000000000000000220000000000000000000000000000000000000000000000000000000000000000468cb3d94000000000000000000000000000000000000000000000000000000000000000000000000000000000000000000000000000000000000000000000041bfbcd95815aecad072f85c8b2c14ddd8ea56370dd6dbf14d4047659df02e96f610fdc018034eb5e29f6c4ead8519d7f2fb004b8a06458638a1beb4ae24abe0e81c00000000000000000000000000000000000000000000000000000000000000000000000000000000000000000000000000000000000000000000000000006000000000000000000000000000000000000000000000000000000000000000030000000000000000000000008de14e014402c0677b075a69122f94c0425cc1790000000000000000000000000000000000000000000000000000000000000001","logIndex":"0x14e","removed":false,"topics":["0x66753cd2356569ee081232e3be8909b950e0a76c1f8460c3a5e3c2be32b11bed"],"transactionHash":"0x37d530d1347e3d0903bcb2c8650bd223b39259ba22af373ba70a3cb064ac46b4","transactionIndex":"0x84"},{"address":"0x0bebd2fca9854f657329324aa7dc90f656395189","blockHash":"0xddb5af5ed330a0a7e6af7f97d472bc0eea45a0fa46d0e456e6acced9894561fd","blockNumber":"0x2157a53","blockTimestamp":"0x68b55189","data":"0x00000000000000000000000029fcb43b46531bca003ddc8fcb67ffe91900c762","logIndex":"0x14f","removed":false,"topics":["0x75e41bc35ff1bf14d81d1d2f649c0084a0f974f9289c803ec9898eeec4c8d0b8"],"transactionHash":"0x37d530d1347e3d0903bcb2c8650bd223b39259ba22af373ba70a3cb064ac46b4","transactionIndex":"0x84"},{"address":"0x0bebd2fca9854f657329324aa7dc90f656395189","blockHash":"0xddb5af5ed330a0a7e6af7f97d472bc0eea45a0fa46d0e456e6acced9894561fd","blockNumber":"0x2157a53","blockTimestamp":"0x68b55189","data":"0x","logIndex":"0x150","removed":false,"topics":["0x5ac6c46c93c8d0e53714ba3b53db3e7c046da994313d7ed0d192028bc7c228b0","0x000000000000000000000000fd0732dc9e303f09fcef3a7388ad10a83459ec99"],"transactionHash":"0x37d530d1347e3d0903bcb2c8650bd223b39259ba22af373ba70a3cb064ac46b4","transactionIndex":"0x84"},{"address":"0x0bebd2fca9854f657329324aa7dc90f656395189","blockHash":"0xddb5af5ed330a0a7e6af7f97d472bc0eea45a0fa46d0e456e6acced9894561fd","blockNumber":"0x2157a53","blockTimestamp":"0x68b55189","data":"0x36b993beb1e6f657c2bb46ed37a409a378064d6bc8f2aa6becb60404ef1c50480000000000000000000000000000000000000000000000000000000000000000","logIndex":"0x151","removed":false,"topics":["0x442e715f626346e8c54381002da614f62bee8d27386535b2521ec8540898556e"],"transactionHash":"0x37d530d1347e3d0903bcb2c8650bd223b39259ba22af373ba70a3cb064ac46b4","transactionIndex":"0x84"}],"logsBloom":"0x00400000400020000000000000000000000000000000000000000000040000000000000000000000100000000000000000000000000004000000000000000000020000000000000002000000040000000000040000000000000000000000000000000000000000000000000000000000000000000000000000000000000000000000000000000000000000000000000000001000000000000000000000000000200000000400000000000000000004000000000000000000000000000000000000000000000000000000000000020000100000000000000000000020000000000000000000000000020000000000000000000000000000000000000000000000","status":"0x1","to":"0x0bebd2fca9854f657329324aa7dc90f656395189","transactionHash":"0x37d530d1347e3d0903bcb2c8650bd223b39259ba22af373ba70a3cb064ac46b4","transactionIndex":"0x84","type":"0x2"},"id":7}

        '
    headers:
      CF-RAY:
      - 9cd72e41c9d9dffe-ATL
      Connection:
      - keep-alive
      Content-Type:
      - application/json
      Date:
      - Fri, 13 Feb 2026 20:47:24 GMT
      NEL:
      - '{"success_fraction":0.01,"report_to":"cf-nel","max_age":604800}'
      Report-To:
      - '{"endpoints":[{"url":"https:\/\/a.nel.cloudflare.com\/report\/v4?s=ZaZ8W3Bmilu4WkAg4LPI%2FhCVLet5SlvIm1q2u8RupooVy50vmRDUp6MZEyzsZAfQhjQaO2i1iHAHVNMJsJaNDM4s6OfArK0oODB5FrOTzReFbjGO8%2BXDnQvqSxLHGXUQ9PQ%3D"}],"group":"cf-nel","max_age":604800}'
      Server:
      - cloudflare
      Strict-Transport-Security:
      - max-age=2592000
      Transfer-Encoding:
      - chunked
      X-Content-Type-Options:
      - nosniff
      cf-cache-status:
      - DYNAMIC
      content-length:
      - '4520'
      vary:
      - Origin
      x-proxyd-cache-status:
      - MISS
    status:
      code: 200
      message: OK
- request:
    body: null
    headers:
      Accept:
      - '*/*'
      Accept-Encoding:
      - gzip, deflate
      Connection:
      - keep-alive
      User-Agent:
      - rotki/1.41.4.dev587+gfc75e0966f
    method: GET
    uri: https://base.blockscout.com/api?action=txlistinternal&module=account&sort=asc&txhash=0x37d530d1347e3d0903bcb2c8650bd223b39259ba22af373ba70a3cb064ac46b4
  response:
    body:
      string: '{"message":"No internal transactions found","result":[],"status":"0"}'
    headers:
      CF-RAY:
      - 9cd72e42da464f7b-ATL
      Cache-Control:
      - max-age=0, private, must-revalidate
      Connection:
      - keep-alive
      Content-Type:
      - application/json; charset=utf-8
      Date:
      - Fri, 13 Feb 2026 20:47:25 GMT
      Nel:
      - '{"report_to":"cf-nel","success_fraction":0.0,"max_age":604800}'
      Report-To:
      - '{"group":"cf-nel","max_age":604800,"endpoints":[{"url":"https://a.nel.cloudflare.com/report/v4?s=9fkNGPZNci%2B%2BkPuvBM%2FEvfYuq5CdFLq5NZHQPe1d6JYfBJcyWQ8EDBOLxIHOnwEHYLBmnyFJi7TbHdtBFfKp76eADDrk5p11VB7RrxUWR1I2xA%3D%3D"}]}'
      Server:
      - cloudflare
      Transfer-Encoding:
      - chunked
      access-control-allow-credentials:
      - 'true'
      access-control-allow-origin:
      - '*'
      access-control-expose-headers:
      - bypass-429-option,x-ratelimit-reset,x-ratelimit-limit,x-ratelimit-remaining,api-v2-temp-token
      alt-svc:
      - h3=":443"; ma=86400
      bypass-429-option:
      - no_bypass
      cf-cache-status:
      - DYNAMIC
      content-length:
      - '69'
      strict-transport-security:
      - max-age=31536000; includeSubDomains
      x-ratelimit-limit:
      - '600'
      x-ratelimit-remaining:
      - '587'
      x-ratelimit-reset:
      - '35345'
      x-request-id:
      - bab3e349a8185cae7cde4228907be782
    status:
      code: 200
      message: OK
version: 1
