interactions:
- request:
    body: null
    headers:
      Accept:
      - '*/*'
      Accept-Encoding:
      - gzip, deflate
      Connection:
      - keep-alive
      User-Agent:
      - rotki/1.42.1.dev85+g21cbca5056.d20260305
    method: GET
    uri: https://api.blockscout.com/8453/api?action=getblocknobytime&closest=before&module=block&timestamp=1756713300
  response:
    body:
      string: '{"message":"OK","result":{"blockNumber":"34961976"},"status":"1"}'
    headers:
      CF-RAY:
      - 9d7b1bf7e93a04ae-MAD
      Cache-Control:
      - max-age=0, private, must-revalidate
      Connection:
      - keep-alive
      Content-Type:
      - application/json; charset=utf-8
      Date:
      - Thu, 05 Mar 2026 18:16:00 GMT
      Nel:
      - '{"report_to":"cf-nel","success_fraction":0.0,"max_age":604800}'
      Report-To:
      - '{"group":"cf-nel","max_age":604800,"endpoints":[{"url":"https://a.nel.cloudflare.com/report/v4?s=C2EwuKRX1IWcWlPhGhTDulne2k5LXNooXTwoUcKqA82E25%2FXtF5goTRFmIZa2uyimJdg5ug0FMUhyr7s8n4ts30UuC0SSMPAh2CvatePSa6lWw%3D%3D"}]}'
      Server:
      - cloudflare
      Transfer-Encoding:
      - chunked
      access-control-allow-credentials:
      - 'true'
      access-control-allow-origin:
      - '*'
      access-control-expose-headers:
      - bypass-429-option,x-ratelimit-reset,x-ratelimit-limit,x-ratelimit-remaining,api-v2-temp-token
      alt-svc:
      - h3=":443"; ma=86400
      bypass-429-option:
      - no_bypass
      cf-cache-status:
      - DYNAMIC
      content-length:
      - '65'
      strict-transport-security:
      - max-age=31536000; includeSubDomains
      x-ratelimit-limit:
      - '600'
      x-ratelimit-remaining:
      - '599'
      x-ratelimit-reset:
      - '59889'
      x-request-id:
      - 409a803f14e974f175fc132e9b135e66
    status:
      code: 200
      message: OK
- request:
    body: null
    headers:
      Accept:
      - '*/*'
      Accept-Encoding:
      - gzip, deflate
      Connection:
      - keep-alive
      User-Agent:
      - rotki/1.42.1.dev85+g21cbca5056.d20260305
    method: GET
    uri: https://api.blockscout.com/8453/api?action=getblocknobytime&closest=before&module=block&timestamp=1756713400
  response:
    body:
      string: '{"message":"OK","result":{"blockNumber":"34962026"},"status":"1"}'
    headers:
      CF-RAY:
      - 9d7b1bf9fc49f91f-MAD
      Cache-Control:
      - max-age=0, private, must-revalidate
      Connection:
      - keep-alive
      Content-Type:
      - application/json; charset=utf-8
      Date:
      - Thu, 05 Mar 2026 18:16:00 GMT
      Nel:
      - '{"report_to":"cf-nel","success_fraction":0.0,"max_age":604800}'
      Report-To:
      - '{"group":"cf-nel","max_age":604800,"endpoints":[{"url":"https://a.nel.cloudflare.com/report/v4?s=V3BjA04JpctfEmN8yteLfCXMJZsdPG4hAoMeHeellK5nvLuZz845Ed3W93k3CJe8uy3GGPhZa%2BTeK9Fvwy48KuGeXhdMbsSaSIZIIUAdesY%3D"}]}'
      Server:
      - cloudflare
      Transfer-Encoding:
      - chunked
      access-control-allow-credentials:
      - 'true'
      access-control-allow-origin:
      - '*'
      access-control-expose-headers:
      - bypass-429-option,x-ratelimit-reset,x-ratelimit-limit,x-ratelimit-remaining,api-v2-temp-token
      alt-svc:
      - h3=":443"; ma=86400
      bypass-429-option:
      - no_bypass
      cf-cache-status:
      - DYNAMIC
      content-length:
      - '65'
      strict-transport-security:
      - max-age=31536000; includeSubDomains
      x-ratelimit-limit:
      - '600'
      x-ratelimit-remaining:
      - '598'
      x-ratelimit-reset:
      - '59660'
      x-request-id:
      - 686cbc9a0f480ced30e3e0882af4dd01
    status:
      code: 200
      message: OK
- request:
    body: null
    headers:
      Accept:
      - '*/*'
      Accept-Encoding:
      - gzip, deflate
      Connection:
      - keep-alive
      User-Agent:
      - rotki/1.42.1.dev85+g21cbca5056.d20260305
    method: GET
    uri: https://api.blockscout.com/8453/api?action=txlist&address=0x8De14E014402C0677B075A69122F94C0425Cc179&endblock=34962026&module=account&sort=asc&startblock=34961976
  response:
    body:
      string: '{"message":"OK","result":[{"blockHash":"0x2eda10969496473311773cdde3025ecf1acf931a1df61492c0c9d855b1ba3514","blockNumber":"34961990","confirmations":"8000733","contractAddress":"","cumulativeGasUsed":"8920633","from":"0x8de14e014402c0677b075a69122f94c0425cc179","gas":"1157745","gasPrice":"1798233","gasUsed":"97370","hash":"0xd6e4587c771951da6c4dd799cce35f49586ec5084a16186e8da9f0dfdf17fbe7","input":"0x09c56431b960fecad6d50db11efbc2caed3263c1510f04791fb57451d6b6fa6075b606720000000000000000000000002a6c106ae13b558bb9e2ec64bd2f1f7beff3a5e000000000000000000000000000000000000000000000000000000000000000e00000000000000000000000000000000000000000000000000000000068b5516d0000000000000000000000000000000000000000000000000000000068b554f1b38ae5cd5479d2a94733ceed8653517b119d85b5bb6a6f79691f0ae3382635fc34d73256583696b0e818b0342530bccba80464732bf96800bcd48e437c02f3e100000000000000000000000000000000000000000000000000000000000001e480381407000000000000000000000000ff5d4f2013563d06a6fd4930fd48ee0ff9c5e6220000000000000000000000009a593475d9c42d63c117bab7337843b3c0017b3d48bf6f36c237dad732e90978a1e952feed647c98caef3ee022680a6405ed568db960fecad6d50db11efbc2caed3263c1510f04791fb57451d6b6fa6075b6067200000000000000000000000000000000000000000000000000000000000000e00000000000000000000000000000000000000000000000000000000000000000000000000000000000000000000000000000000000000000000000000000000000000000000000000000000000000000000000000000000000000000000000c4c0e8c0c20000000000000000000000000000000000000000000000000000000000000060000000000000000000000000000000000000000000000000000000000000008000000000000000000000000000000000000000000000000000000000000000a00000000000000000000000000000000000000000000000000000000000000000000000000000000000000000000000000000000000000000000000000000000000000000000000000000000000000000000000000000000000000000000000000000000000000000000000000000000000000000000000000000000000000000000000000000000000000000000000000000000000000000","isError":"0","methodId":"0x","nonce":"806527","timeStamp":"1756713327","to":"0x08efb6d315c7e74c39620c9aaea289730f43a429","transactionIndex":"30","txreceipt_status":"1","value":"0"},{"blockHash":"0x2eda10969496473311773cdde3025ecf1acf931a1df61492c0c9d855b1ba3514","blockNumber":"34961990","confirmations":"8000733","contractAddress":"","cumulativeGasUsed":"68679853","from":"0x8de14e014402c0677b075a69122f94c0425cc179","gas":"1157745","gasPrice":"1798233","gasUsed":"97382","hash":"0x57beaffbe235309429a344d817867669b9735cbff737e16ceb56c3e106705d83","input":"0x09c56431a291398e15b8f8077a80e3996ce515e0917971ccb621676c15a79c53e8188fc20000000000000000000000002a6c106ae13b558bb9e2ec64bd2f1f7beff3a5e000000000000000000000000000000000000000000000000000000000000000e00000000000000000000000000000000000000000000000000000000068b5516f0000000000000000000000000000000000000000000000000000000068b554f31a098a327d29bd46254b3486253b64625fc46c2e14da6741917ec067b8935a26fb805d5a07e182c3f36d04c38df022283a26a4c7f4f63d8f5cbabc2d598ed28b00000000000000000000000000000000000000000000000000000000000001e480381407000000000000000000000000ff5d4f2013563d06a6fd4930fd48ee0ff9c5e6220000000000000000000000009a593475d9c42d63c117bab7337843b3c0017b3db1e5444265b4b8535ed9076c51651fd3faa5d0d9a2ab6486faa8f026e9c82d30a291398e15b8f8077a80e3996ce515e0917971ccb621676c15a79c53e8188fc200000000000000000000000000000000000000000000000000000000000000e00000000000000000000000000000000000000000000000000000000000000000000000000000000000000000000000000000000000000000000000000000000000000000000000000000000000000000000000000000000000000000000000c4c0e8c0c20000000000000000000000000000000000000000000000000000000000000060000000000000000000000000000000000000000000000000000000000000008000000000000000000000000000000000000000000000000000000000000000a00000000000000000000000000000000000000000000000000000000000000000000000000000000000000000000000000000000000000000000000000000000000000000000000000000000000000000000000000000000000000000000000000000000000000000000000000000000000000000000000000000000000000000000000000000000000000000000000000000000000000000","isError":"0","methodId":"0x","nonce":"806528","timeStamp":"1756713327","to":"0x08efb6d315c7e74c39620c9aaea289730f43a429","transactionIndex":"326","txreceipt_status":"1","value":"0"},{"blockHash":"0x2c09c874e01bcf42cae2f83a056705325214291f65d0a0f0b875603392219715","blockNumber":"34961996","confirmations":"8000727","contractAddress":"","cumulativeGasUsed":"47317147","from":"0x8de14e014402c0677b075a69122f94c0425cc179","gas":"1174179","gasPrice":"1819216","gasUsed":"165534","hash":"0x3e3871b768d3ecfd2b93d8824db7ae776660215d73299baf6af688f4ae525724","input":"0x765e827f00000000000000000000000000000000000000000000000000000000000000400000000000000000000000003ac05161b76a35c1c28dc99aa01bed7b24cea3bf000000000000000000000000000000000000000000000000000000000000000100000000000000000000000000000000000000000000000000000000000000200000000000000000000000003049f8761a83a90ac4164635c6f36e9b42c382b2000018d1b06af29a8492f6402d1300296c1295f29a6f58220000000000000000000000000000000000000000000000000000000000000000000000000000012000000000000000000000000000000000000000000000000000000000000001400000000000000000000000000001a3d40000000000000000000000000000f82b0000000000000000000000000000000000000000000000000000000000000000000000000000000000000000000000000000000000000000000000000000000000000000000000000000000000000000000000000000000000000000000002600000000000000000000000000000000000000000000000000000000000000280000000000000000000000000000000000000000000000000000000000000000000000000000000000000000000000000000000000000000000000000000000e4e9ae5c53000000000000000000000000000000000000000000000000000000000000000000000000000000000000000000000000000000000000000000000000000000400000000000000000000000000000000000000000000000000000000000000078833589fcd6edb6e08f4c7c32d4f71b54bda029130000000000000000000000000000000000000000000000000000000000000000a9059cbb000000000000000000000000c35c511dd9c95c1de76ba7fc8bb8dd0401ed1d9d000000000000000000000000000000000000000000000000000000000429c8f400000000000000000000000000000000000000000000000000000000000000000000000000000000000000000000000000000000000000000000000000000000000000000000000000000000000000000000000000000000000000000000000000000041ed931dde3fadd38953a9a73a6639d2a3cdbd8267f11fbe7c6e2d7d30e34e93b66954f7a42ba810e2a5991635aeb6e24d163eb25b8411740e28a4e4ac637ec8121b00000000000000000000000000000000000000000000000000000000000000","isError":"0","methodId":"0x","nonce":"806529","timeStamp":"1756713339","to":"0x0000000071727de22e5e9d8baf0edac6f37da032","transactionIndex":"245","txreceipt_status":"1","value":"0"},{"blockHash":"0xd063d3dc5b09b54551619b1a86d0d7f7a2fda37d0d2e83fea4a11173521ed95d","blockNumber":"34961997","confirmations":"8000726","contractAddress":"","cumulativeGasUsed":"22225544","from":"0x8de14e014402c0677b075a69122f94c0425cc179","gas":"1157745","gasPrice":"1830510","gasUsed":"97370","hash":"0xd8b9097fb7e8dd07f74f4757055e33f526d70c9f5a508b0bd764f4c8fce21cb6","input":"0x09c564318a52629b27011b5fa9158fdd57d3e5b402d91ce0157fb27bad85117b1cf024f80000000000000000000000002a6c106ae13b558bb9e2ec64bd2f1f7beff3a5e000000000000000000000000000000000000000000000000000000000000000e00000000000000000000000000000000000000000000000000000000068b5517b0000000000000000000000000000000000000000000000000000000068b554ffe5a6bef661cc8069bc4c54bf8696e17af1fbe87f0596b7458fefed90f7c430e09d43c619c6e82690e30ad28c4c2328c03a46886d63faa640a77be52ec263fd7900000000000000000000000000000000000000000000000000000000000001e480381407000000000000000000000000ff5d4f2013563d06a6fd4930fd48ee0ff9c5e6220000000000000000000000009a593475d9c42d63c117bab7337843b3c0017b3d6de17c1d5805f109d65f179b7444ddbb2414f9dc0dab21b748259d0b535d006e8a52629b27011b5fa9158fdd57d3e5b402d91ce0157fb27bad85117b1cf024f800000000000000000000000000000000000000000000000000000000000000e00000000000000000000000000000000000000000000000000000000000000000000000000000000000000000000000000000000000000000000000000000000000000000000000000000000000000000000000000000000000000000000000c4c0e8c0c20000000000000000000000000000000000000000000000000000000000000060000000000000000000000000000000000000000000000000000000000000008000000000000000000000000000000000000000000000000000000000000000a00000000000000000000000000000000000000000000000000000000000000000000000000000000000000000000000000000000000000000000000000000000000000000000000000000000000000000000000000000000000000000000000000000000000000000000000000000000000000000000000000000000000000000000000000000000000000000000000000000000000000000","isError":"0","methodId":"0x","nonce":"806530","timeStamp":"1756713341","to":"0x08efb6d315c7e74c39620c9aaea289730f43a429","transactionIndex":"75","txreceipt_status":"1","value":"0"},{"blockHash":"0xddb5af5ed330a0a7e6af7f97d472bc0eea45a0fa46d0e456e6acced9894561fd","blockNumber":"34962003","confirmations":"8000720","contractAddress":"","cumulativeGasUsed":"23054448","from":"0x8de14e014402c0677b075a69122f94c0425cc179","gas":"221216","gasPrice":"1836682","gasUsed":"74148","hash":"0x37d530d1347e3d0903bcb2c8650bd223b39259ba22af373ba70a3cb064ac46b4","input":"0x6a761202000000000000000000000000526643f69b81b008f46d95cd5ced5ec0edffdac6000000000000000000000000000000000000000000000000000000000000000000000000000000000000000000000000000000000000000000000000000001400000000000000000000000000000000000000000000000000000000000000001000000000000000000000000000000000000000000000000000000000000000000000000000000000000000000000000000000000000000000000000000000000000000000000000000000000000000000000000000000000000000000000000000000000000000000000000000000000000000000000000000000000000000000000000000000000000000000000000000000000000000000000000000000000000000000000000000000000000000000000000000000000000000000000180000000000000000000000000000000000000000000000000000000000000000468cb3d94000000000000000000000000000000000000000000000000000000000000000000000000000000000000000000000000000000000000000000000041bfbcd95815aecad072f85c8b2c14ddd8ea56370dd6dbf14d4047659df02e96f610fdc018034eb5e29f6c4ead8519d7f2fb004b8a06458638a1beb4ae24abe0e81c00000000000000000000000000000000000000000000000000000000000000","isError":"0","methodId":"0x","nonce":"806531","timeStamp":"1756713353","to":"0x0bebd2fca9854f657329324aa7dc90f656395189","transactionIndex":"132","txreceipt_status":"1","value":"0"},{"blockHash":"0x2507e785f7353a295b659bdb67e320aee3ec96392d83799ccbdf376c743a6939","blockNumber":"34962020","confirmations":"8000703","contractAddress":"","cumulativeGasUsed":"48274518","from":"0x8de14e014402c0677b075a69122f94c0425cc179","gas":"1339101","gasPrice":"1884011","gasUsed":"269462","hash":"0x810853468c87050e1a0cce3b5c51a182bdfb46d218ebf3ab2bd4da1b7ed5dd08","input":"0x09c56431ad20436c7e30e547bdb87fd38a5b93357bc414504a468cad425237a28fbf6f520000000000000000000000002a6c106ae13b558bb9e2ec64bd2f1f7beff3a5e000000000000000000000000000000000000000000000000000000000000000e00000000000000000000000000000000000000000000000000000000068b551aa0000000000000000000000000000000000000000000000000000000068b5552e46e521d2feed21c873a3ae1fca5ffbba24aa25c8a57f152efcb937d2f0d0a4b7c6e97f62cff00c76220f75a55f669e59470eb3c596c2d801f0cad6ad5fc62f8300000000000000000000000000000000000000000000000000000000000001e480381407000000000000000000000000ff5d4f2013563d06a6fd4930fd48ee0ff9c5e6220000000000000000000000009a593475d9c42d63c117bab7337843b3c0017b3d0cc0131ee5ae5e879c255d1a77c7259f78fbfd6ab56a09bf1b212e48c5eabecead20436c7e30e547bdb87fd38a5b93357bc414504a468cad425237a28fbf6f5200000000000000000000000000000000000000000000000000000000000000e00000000000000000000000000000000000000000000000000000000000000000000000000000000000000000000000000000000000000000000000000000000100000000000000000000000000000000000000000000000000000000000000c454132d780000000000000000000000004cad6ec90e65babec9335cad728ddc610c316368000000000000000000000000000000000000000000000000000000000000006000000000000000000000000000000000000000000000000000000000000000000000000000000000000000000000000000000000000000000000000000000024514fcac7000000000000000000000000000000000000000000000000000000000001f43d000000000000000000000000000000000000000000000000000000000000000000000000000000000000000000000000000000000000000000000000000000000000000000000000000000000000000000000000","isError":"0","methodId":"0x","nonce":"806532","timeStamp":"1756713387","to":"0x08efb6d315c7e74c39620c9aaea289730f43a429","transactionIndex":"228","txreceipt_status":"1","value":"0"},{"blockHash":"0x54a36b3b3a7d9a6eaa6ddbe414a452807b400b1047f376154a77511ece9e40d5","blockNumber":"34962025","confirmations":"8000698","contractAddress":"","cumulativeGasUsed":"58884632","from":"0x8de14e014402c0677b075a69122f94c0425cc179","gas":"1213079","gasPrice":"1894092","gasUsed":"143764","hash":"0xd04f29267c9d36af1f60ec93179461a8b1ea84e3865bbaf61abb8df86b87e3f6","input":"0x09c5643176f4ee9cb82e4c73ac379a729a2e7aaab18c5930b1778d62a360012c7f31a4410000000000000000000000002a6c106ae13b558bb9e2ec64bd2f1f7beff3a5e000000000000000000000000000000000000000000000000000000000000000e00000000000000000000000000000000000000000000000000000000068b551b40000000000000000000000000000000000000000000000000000000068b55538bb84b34125d860edbd60ee414b2043dce83547ac31b40d2189eb045dcf55130efea4dcb7160ceb5e4a95cdca1ddbe9fac84a518a2d617da149573395873f859000000000000000000000000000000000000000000000000000000000000001e480381407000000000000000000000000ff5d4f2013563d06a6fd4930fd48ee0ff9c5e6220000000000000000000000009a593475d9c42d63c117bab7337843b3c0017b3d8e613899b21ca9fc62904c880020a302cc48ad4fb45766e86997e4909a14ce9b76f4ee9cb82e4c73ac379a729a2e7aaab18c5930b1778d62a360012c7f31a44100000000000000000000000000000000000000000000000000000000000000e00000000000000000000000000000000000000000000000000000000000000000000000000000000000000000000000000000000000000000000000000000000100000000000000000000000000000000000000000000000000000000000000c454132d780000000000000000000000002a6c106ae13b558bb9e2ec64bd2f1f7beff3a5e0000000000000000000000000000000000000000000000000000000000000006000000000000000000000000000000000000000000000000000000000000000000000000000000000000000000000000000000000000000000000000000000024ee8ca3b58e613899b21ca9fc62904c880020a302cc48ad4fb45766e86997e4909a14ce9b000000000000000000000000000000000000000000000000000000000000000000000000000000000000000000000000000000000000000000000000000000000000000000000000000000000000000000000000","isError":"0","methodId":"0x","nonce":"806533","timeStamp":"1756713397","to":"0x08efb6d315c7e74c39620c9aaea289730f43a429","transactionIndex":"258","txreceipt_status":"1","value":"0"}],"status":"1"}'
    headers:
      CF-RAY:
      - 9d7b1bfc1d570331-MAD
      Cache-Control:
      - max-age=0, private, must-revalidate
      Connection:
      - keep-alive
      Content-Type:
      - application/json; charset=utf-8
      Date:
      - Thu, 05 Mar 2026 18:16:00 GMT
      Nel:
      - '{"report_to":"cf-nel","success_fraction":0.0,"max_age":604800}'
      Report-To:
      - '{"group":"cf-nel","max_age":604800,"endpoints":[{"url":"https://a.nel.cloudflare.com/report/v4?s=UZsZV1n43zC1hTwpnz8pL2XRg4VHfXeH%2FBVYOz%2Bhjz93DdiVn%2Bd7cDwtDcEXhKzxhg0QTZCf1xfaL%2Bim9wKX9%2BQJQ3IJXw0yvo2iyXx8ZJxHtw%3D%3D"}]}'
      Server:
      - cloudflare
      Transfer-Encoding:
      - chunked
      access-control-allow-credentials:
      - 'true'
      access-control-allow-origin:
      - '*'
      access-control-expose-headers:
      - bypass-429-option,x-ratelimit-reset,x-ratelimit-limit,x-ratelimit-remaining,api-v2-temp-token
      alt-svc:
      - h3=":443"; ma=86400
      bypass-429-option:
      - no_bypass
      cf-cache-status:
      - DYNAMIC
      content-length:
      - '14539'
      strict-transport-security:
      - max-age=31536000; includeSubDomains
      x-ratelimit-limit:
      - '600'
      x-ratelimit-remaining:
      - '597'
      x-ratelimit-reset:
      - '59327'
      x-request-id:
      - aec0746e6321c97785ed5c3fd2a2f6b9
    status:
      code: 200
      message: OK
- request:
    body: null
    headers:
      Accept:
      - '*/*'
      Accept-Encoding:
      - gzip, deflate
      Connection:
      - keep-alive
      User-Agent:
      - rotki/1.42.1.dev85+g21cbca5056.d20260305
    method: GET
    uri: https://api.blockscout.com/8453/api/v2/transactions/0xd6e4587c771951da6c4dd799cce35f49586ec5084a16186e8da9f0dfdf17fbe7
  response:
    body:
      string: '{"l1_gas_used":"4739","priority_fee":"98418577530","raw_input":"0x09c56431b960fecad6d50db11efbc2caed3263c1510f04791fb57451d6b6fa6075b606720000000000000000000000002a6c106ae13b558bb9e2ec64bd2f1f7beff3a5e000000000000000000000000000000000000000000000000000000000000000e00000000000000000000000000000000000000000000000000000000068b5516d0000000000000000000000000000000000000000000000000000000068b554f1b38ae5cd5479d2a94733ceed8653517b119d85b5bb6a6f79691f0ae3382635fc34d73256583696b0e818b0342530bccba80464732bf96800bcd48e437c02f3e100000000000000000000000000000000000000000000000000000000000001e480381407000000000000000000000000ff5d4f2013563d06a6fd4930fd48ee0ff9c5e6220000000000000000000000009a593475d9c42d63c117bab7337843b3c0017b3d48bf6f36c237dad732e90978a1e952feed647c98caef3ee022680a6405ed568db960fecad6d50db11efbc2caed3263c1510f04791fb57451d6b6fa6075b6067200000000000000000000000000000000000000000000000000000000000000e00000000000000000000000000000000000000000000000000000000000000000000000000000000000000000000000000000000000000000000000000000000000000000000000000000000000000000000000000000000000000000000000c4c0e8c0c20000000000000000000000000000000000000000000000000000000000000060000000000000000000000000000000000000000000000000000000000000008000000000000000000000000000000000000000000000000000000000000000a00000000000000000000000000000000000000000000000000000000000000000000000000000000000000000000000000000000000000000000000000000000000000000000000000000000000000000000000000000000000000000000000000000000000000000000000000000000000000000000000000000000000000000000000000000000000000000000000000000000000000000","is_pending_update":false,"op_withdrawals":[],"result":"success","hash":"0xd6e4587c771951da6c4dd799cce35f49586ec5084a16186e8da9f0dfdf17fbe7","max_fee_per_gas":"2114918","revert_reason":null,"confirmation_duration":[0,2.0e3],"transaction_burnt_fee":"76675369680","type":2,"token_transfers_overflow":false,"confirmations":8000734,"position":30,"max_priority_fee_per_gas":"1010769","transaction_tag":null,"created_contract":null,"value":"0","l1_fee_scalar":"0","from":{"ens_domain_name":null,"hash":"0x8De14E014402C0677B075A69122F94C0425Cc179","implementations":[],"is_contract":false,"is_scam":false,"is_verified":false,"metadata":{"tags":[{"meta":{},"name":"Bundler:
        0x8de...179","ordinal":10,"slug":"bundler-0x8de179","tagType":"name"},{"meta":{"tooltipDescription":"Deployer
        address for Telco.","tooltipUrl":"https://app.pendle.finance"},"name":"Pendle:
        Deployer 8","ordinal":10,"slug":"pendle-deployer-8","tagType":"name"},{"meta":{},"name":"Contract
        Deployer","ordinal":0,"slug":"contract-deployer","tagType":"generic"},{"meta":{},"name":"Bundler","ordinal":0,"slug":"bundler","tagType":"protocol"},{"meta":{"appActionButtonText":"Pendle","appID":"pendle"},"name":"Pendle","ordinal":0,"slug":"pendle","tagType":"protocol"}]},"name":null,"private_tags":[],"proxy_type":null,"public_tags":[],"reputation":"ok","watchlist_names":[]},"gas_used":"97370","status":"ok","to":{"ens_domain_name":null,"hash":"0x08EFb6D315c7e74C39620c9AAEA289730f43a429","implementations":[{"address_hash":"0xfDB8B034597cdD063Db5052cA23930092212eFEd","name":"DiamondCutFacet"},{"address_hash":"0x8b206547cFe6F35a77ddaB2D6D97260765A349Ef","name":"DiamondLoupeFacet"},{"address_hash":"0xD6bb1FCdc128b5f7268c4d9Ad58845eA6404Cf55","name":"OwnershipFacet"},{"address_hash":"0xa2351354b39977ea35b1C28A035BD94e48F3ED7D","name":"TransferFacet"},{"address_hash":"0x94B6ea47eFd818483862E116228d4B47b88A9051","name":"SignerFacet"},{"address_hash":"0x4B27D7e3a844AF791ebc4068255Fb70a85a05278","name":"ExecWithSigsFacet"},{"address_hash":"0xC9969739A22A1270d0b0AB267D0bA812903e92f5","name":"ExecWithSigFacet"}],"is_contract":true,"is_scam":false,"is_verified":true,"metadata":{"tags":[{"meta":{},"name":"Token
        Contract","ordinal":0,"slug":"token-contract","tagType":"generic"},{"meta":{"tagIcon
        ":"https://blockscout-icons.s3.us-east-1.amazonaws.com/OLI_tag_logo.svg","textColor":"#C163D4","tooltipAttribution":"https://www.openlabelsinitiative.org?utm_source=blockscout","tooltipAttributionIcon":"https://blockscout-icons.s3.us-east-1.amazonaws.com/OLI_tag_logo.svg","tooltipDescription":"Provided
        by OLI"},"name":"GelatoAutomate","ordinal":0,"slug":"gelatoautomate","tagType":"name"},{"meta":{"tagIcon
        ":"https://blockscout-icons.s3.us-east-1.amazonaws.com/OLI_tag_logo.svg","textColor":"#C163D4","tooltipAttribution":"https://www.openlabelsinitiative.org?utm_source=blockscout","tooltipAttributionIcon":"https://blockscout-icons.s3.us-east-1.amazonaws.com/OLI_tag_logo.svg","tooltipDescription":"Provided
        by OLI"},"name":"Gelato","ordinal":0,"slug":"gelato","tagType":"name"}]},"name":"Gelato","private_tags":[],"proxy_type":"eip2535","public_tags":[],"reputation":"ok","watchlist_names":[]},"authorization_list":[],"l1_fee":"15931381508","method":"execWithSig","fee":{"type":"actual","value":"191025328718"},"actions":[],"gas_limit":"1157745","gas_price":"1798233","decoded_input":{"method_call":"execWithSig(bytes32
        _correlationId, address _service, bytes _data, uint256 _salt, uint256 _deadline,
        bytes32 _r, bytes32 _vs)","method_id":"09c56431","parameters":[{"name":"_correlationId","type":"bytes32","value":"0xb960fecad6d50db11efbc2caed3263c1510f04791fb57451d6b6fa6075b60672"},{"name":"_service","type":"address","value":"0x2A6C106ae13B558BB9E2Ec64Bd2f1f7BEFF3A5E0"},{"name":"_data","type":"bytes","value":"0x80381407000000000000000000000000ff5d4f2013563d06a6fd4930fd48ee0ff9c5e6220000000000000000000000009a593475d9c42d63c117bab7337843b3c0017b3d48bf6f36c237dad732e90978a1e952feed647c98caef3ee022680a6405ed568db960fecad6d50db11efbc2caed3263c1510f04791fb57451d6b6fa6075b6067200000000000000000000000000000000000000000000000000000000000000e00000000000000000000000000000000000000000000000000000000000000000000000000000000000000000000000000000000000000000000000000000000000000000000000000000000000000000000000000000000000000000000000c4c0e8c0c20000000000000000000000000000000000000000000000000000000000000060000000000000000000000000000000000000000000000000000000000000008000000000000000000000000000000000000000000000000000000000000000a000000000000000000000000000000000000000000000000000000000000000000000000000000000000000000000000000000000000000000000000000000000000000000000000000000000000000000000000000000000000000000000000000000000000000000000000000000000000000000000000000000000"},{"name":"_salt","type":"uint256","value":"1756713325"},{"name":"_deadline","type":"uint256","value":"1756714225"},{"name":"_r","type":"bytes32","value":"0xb38ae5cd5479d2a94733ceed8653517b119d85b5bb6a6f79691f0ae3382635fc"},{"name":"_vs","type":"bytes32","value":"0x34d73256583696b0e818b0342530bccba80464732bf96800bcd48e437c02f3e1"}]},"l1_gas_price":"1481557263","token_transfers":[],"base_fee_per_gas":"787464","timestamp":"2025-09-01T07:55:27.000000Z","nonce":806527,"historic_exchange_rate":"4314.85","transaction_types":["contract_call"],"exchange_rate":"2066.02","block_number":34961990,"has_error_in_internal_transactions":false}'
    headers:
      CF-RAY:
      - 9d7b1bfdeb661a81-MAD
      Cache-Control:
      - max-age=0, private, must-revalidate
      Connection:
      - keep-alive
      Content-Type:
      - application/json; charset=utf-8
      Date:
      - Thu, 05 Mar 2026 18:16:02 GMT
      Nel:
      - '{"report_to":"cf-nel","success_fraction":0.0,"max_age":604800}'
      Report-To:
      - '{"group":"cf-nel","max_age":604800,"endpoints":[{"url":"https://a.nel.cloudflare.com/report/v4?s=3UigZ1nRyQKfFiReWwILEhmgDotUjNWGNa%2FNa2Oqpc7UhHvE%2BNQSwGzMh8RO0PwmebSnwaFj3hK%2BiD2CBK52jbp3E6DdWQQXRGTSKYpohB1uPQ%3D%3D"}]}'
      Server:
      - cloudflare
      Transfer-Encoding:
      - chunked
      access-control-allow-credentials:
      - 'true'
      access-control-allow-origin:
      - '*'
      access-control-expose-headers:
      - bypass-429-option,x-ratelimit-reset,x-ratelimit-limit,x-ratelimit-remaining,api-v2-temp-token
      alt-svc:
      - h3=":443"; ma=86400
      bypass-429-option:
      - temporary_token
      cf-cache-status:
      - DYNAMIC
      content-length:
      - '6996'
      strict-transport-security:
      - max-age=31536000; includeSubDomains
      x-ratelimit-limit:
      - '600'
      x-ratelimit-remaining:
      - '596'
      x-ratelimit-reset:
      - '59024'
      x-request-id:
      - 723a34e83053f2edba5b6f8edc85a0fe
    status:
      code: 200
      message: OK
- request:
    body: null
    headers:
      Accept:
      - '*/*'
      Accept-Encoding:
      - gzip, deflate
      Connection:
      - keep-alive
      User-Agent:
      - rotki/1.42.1.dev85+g21cbca5056.d20260305
    method: GET
    uri: https://api.blockscout.com/8453/api/v2/transactions/0x57beaffbe235309429a344d817867669b9735cbff737e16ceb56c3e106705d83
  response:
    body:
      string: '{"l1_gas_used":"4846","priority_fee":"98430706758","raw_input":"0x09c56431a291398e15b8f8077a80e3996ce515e0917971ccb621676c15a79c53e8188fc20000000000000000000000002a6c106ae13b558bb9e2ec64bd2f1f7beff3a5e000000000000000000000000000000000000000000000000000000000000000e00000000000000000000000000000000000000000000000000000000068b5516f0000000000000000000000000000000000000000000000000000000068b554f31a098a327d29bd46254b3486253b64625fc46c2e14da6741917ec067b8935a26fb805d5a07e182c3f36d04c38df022283a26a4c7f4f63d8f5cbabc2d598ed28b00000000000000000000000000000000000000000000000000000000000001e480381407000000000000000000000000ff5d4f2013563d06a6fd4930fd48ee0ff9c5e6220000000000000000000000009a593475d9c42d63c117bab7337843b3c0017b3db1e5444265b4b8535ed9076c51651fd3faa5d0d9a2ab6486faa8f026e9c82d30a291398e15b8f8077a80e3996ce515e0917971ccb621676c15a79c53e8188fc200000000000000000000000000000000000000000000000000000000000000e00000000000000000000000000000000000000000000000000000000000000000000000000000000000000000000000000000000000000000000000000000000000000000000000000000000000000000000000000000000000000000000000c4c0e8c0c20000000000000000000000000000000000000000000000000000000000000060000000000000000000000000000000000000000000000000000000000000008000000000000000000000000000000000000000000000000000000000000000a00000000000000000000000000000000000000000000000000000000000000000000000000000000000000000000000000000000000000000000000000000000000000000000000000000000000000000000000000000000000000000000000000000000000000000000000000000000000000000000000000000000000000000000000000000000000000000000000000000000000000000","is_pending_update":false,"op_withdrawals":[],"result":"success","hash":"0x57beaffbe235309429a344d817867669b9735cbff737e16ceb56c3e106705d83","max_fee_per_gas":"2110910","revert_reason":null,"confirmation_duration":[0,2.0e3],"transaction_burnt_fee":"76684819248","type":2,"token_transfers_overflow":false,"confirmations":8000734,"position":326,"max_priority_fee_per_gas":"1010769","transaction_tag":null,"created_contract":null,"value":"0","l1_fee_scalar":"0","from":{"ens_domain_name":null,"hash":"0x8De14E014402C0677B075A69122F94C0425Cc179","implementations":[],"is_contract":false,"is_scam":false,"is_verified":false,"metadata":{"tags":[{"meta":{},"name":"Bundler:
        0x8de...179","ordinal":10,"slug":"bundler-0x8de179","tagType":"name"},{"meta":{"tooltipDescription":"Deployer
        address for Telco.","tooltipUrl":"https://app.pendle.finance"},"name":"Pendle:
        Deployer 8","ordinal":10,"slug":"pendle-deployer-8","tagType":"name"},{"meta":{},"name":"Contract
        Deployer","ordinal":0,"slug":"contract-deployer","tagType":"generic"},{"meta":{},"name":"Bundler","ordinal":0,"slug":"bundler","tagType":"protocol"},{"meta":{"appActionButtonText":"Pendle","appID":"pendle"},"name":"Pendle","ordinal":0,"slug":"pendle","tagType":"protocol"}]},"name":null,"private_tags":[],"proxy_type":null,"public_tags":[],"reputation":"ok","watchlist_names":[]},"gas_used":"97382","status":"ok","to":{"ens_domain_name":null,"hash":"0x08EFb6D315c7e74C39620c9AAEA289730f43a429","implementations":[{"address_hash":"0xfDB8B034597cdD063Db5052cA23930092212eFEd","name":"DiamondCutFacet"},{"address_hash":"0x8b206547cFe6F35a77ddaB2D6D97260765A349Ef","name":"DiamondLoupeFacet"},{"address_hash":"0xD6bb1FCdc128b5f7268c4d9Ad58845eA6404Cf55","name":"OwnershipFacet"},{"address_hash":"0xa2351354b39977ea35b1C28A035BD94e48F3ED7D","name":"TransferFacet"},{"address_hash":"0x94B6ea47eFd818483862E116228d4B47b88A9051","name":"SignerFacet"},{"address_hash":"0x4B27D7e3a844AF791ebc4068255Fb70a85a05278","name":"ExecWithSigsFacet"},{"address_hash":"0xC9969739A22A1270d0b0AB267D0bA812903e92f5","name":"ExecWithSigFacet"}],"is_contract":true,"is_scam":false,"is_verified":true,"metadata":{"tags":[{"meta":{},"name":"Token
        Contract","ordinal":0,"slug":"token-contract","tagType":"generic"},{"meta":{"tagIcon
        ":"https://blockscout-icons.s3.us-east-1.amazonaws.com/OLI_tag_logo.svg","textColor":"#C163D4","tooltipAttribution":"https://www.openlabelsinitiative.org?utm_source=blockscout","tooltipAttributionIcon":"https://blockscout-icons.s3.us-east-1.amazonaws.com/OLI_tag_logo.svg","tooltipDescription":"Provided
        by OLI"},"name":"GelatoAutomate","ordinal":0,"slug":"gelatoautomate","tagType":"name"},{"meta":{"tagIcon
        ":"https://blockscout-icons.s3.us-east-1.amazonaws.com/OLI_tag_logo.svg","textColor":"#C163D4","tooltipAttribution":"https://www.openlabelsinitiative.org?utm_source=blockscout","tooltipAttributionIcon":"https://blockscout-icons.s3.us-east-1.amazonaws.com/OLI_tag_logo.svg","tooltipDescription":"Provided
        by OLI"},"name":"Gelato","ordinal":0,"slug":"gelato","tagType":"name"}]},"name":"Gelato","private_tags":[],"proxy_type":"eip2535","public_tags":[],"reputation":"ok","watchlist_names":[]},"authorization_list":[],"l1_fee":"16291320472","method":"execWithSig","fee":{"type":"actual","value":"191406846478"},"actions":[],"gas_limit":"1157745","gas_price":"1798233","decoded_input":{"method_call":"execWithSig(bytes32
        _correlationId, address _service, bytes _data, uint256 _salt, uint256 _deadline,
        bytes32 _r, bytes32 _vs)","method_id":"09c56431","parameters":[{"name":"_correlationId","type":"bytes32","value":"0xa291398e15b8f8077a80e3996ce515e0917971ccb621676c15a79c53e8188fc2"},{"name":"_service","type":"address","value":"0x2A6C106ae13B558BB9E2Ec64Bd2f1f7BEFF3A5E0"},{"name":"_data","type":"bytes","value":"0x80381407000000000000000000000000ff5d4f2013563d06a6fd4930fd48ee0ff9c5e6220000000000000000000000009a593475d9c42d63c117bab7337843b3c0017b3db1e5444265b4b8535ed9076c51651fd3faa5d0d9a2ab6486faa8f026e9c82d30a291398e15b8f8077a80e3996ce515e0917971ccb621676c15a79c53e8188fc200000000000000000000000000000000000000000000000000000000000000e00000000000000000000000000000000000000000000000000000000000000000000000000000000000000000000000000000000000000000000000000000000000000000000000000000000000000000000000000000000000000000000000c4c0e8c0c20000000000000000000000000000000000000000000000000000000000000060000000000000000000000000000000000000000000000000000000000000008000000000000000000000000000000000000000000000000000000000000000a000000000000000000000000000000000000000000000000000000000000000000000000000000000000000000000000000000000000000000000000000000000000000000000000000000000000000000000000000000000000000000000000000000000000000000000000000000000000000000000000000000000"},{"name":"_salt","type":"uint256","value":"1756713327"},{"name":"_deadline","type":"uint256","value":"1756714227"},{"name":"_r","type":"bytes32","value":"0x1a098a327d29bd46254b3486253b64625fc46c2e14da6741917ec067b8935a26"},{"name":"_vs","type":"bytes32","value":"0xfb805d5a07e182c3f36d04c38df022283a26a4c7f4f63d8f5cbabc2d598ed28b"}]},"l1_gas_price":"1481557263","token_transfers":[],"base_fee_per_gas":"787464","timestamp":"2025-09-01T07:55:27.000000Z","nonce":806528,"historic_exchange_rate":"4314.85","transaction_types":["contract_call"],"exchange_rate":"2064.53","block_number":34961990,"has_error_in_internal_transactions":false}'
    headers:
      CF-RAY:
      - 9d7b1c0a4c60e55b-MAD
      Cache-Control:
      - max-age=0, private, must-revalidate
      Connection:
      - keep-alive
      Content-Type:
      - application/json; charset=utf-8
      Date:
      - Thu, 05 Mar 2026 18:16:04 GMT
      Nel:
      - '{"report_to":"cf-nel","success_fraction":0.0,"max_age":604800}'
      Report-To:
      - '{"group":"cf-nel","max_age":604800,"endpoints":[{"url":"https://a.nel.cloudflare.com/report/v4?s=Sa8sl0AIN1gWj8eiE2VSxAQtKwMWjQwAcHh%2F83wEvvi%2F5WfPsW88Gu9eevKtVtwQyi8oKNA%2BQ3xqf5sU0uOQ32RbsbRMsGmqxi2JSvsp9oM%3D"}]}'
      Server:
      - cloudflare
      Transfer-Encoding:
      - chunked
      access-control-allow-credentials:
      - 'true'
      access-control-allow-origin:
      - '*'
      access-control-expose-headers:
      - bypass-429-option,x-ratelimit-reset,x-ratelimit-limit,x-ratelimit-remaining,api-v2-temp-token
      alt-svc:
      - h3=":443"; ma=86400
      bypass-429-option:
      - temporary_token
      cf-cache-status:
      - DYNAMIC
      content-length:
      - '6997'
      strict-transport-security:
      - max-age=31536000; includeSubDomains
      x-ratelimit-limit:
      - '600'
      x-ratelimit-remaining:
      - '595'
      x-ratelimit-reset:
      - '57048'
      x-request-id:
      - 9f109bd4e6e853ab925abb5d062da2bf
    status:
      code: 200
      message: OK
- request:
    body: null
    headers:
      Accept:
      - '*/*'
      Accept-Encoding:
      - gzip, deflate
      Connection:
      - keep-alive
      User-Agent:
      - rotki/1.42.1.dev85+g21cbca5056.d20260305
    method: GET
    uri: https://api.blockscout.com/8453/api/v2/transactions/0x3e3871b768d3ecfd2b93d8824db7ae776660215d73299baf6af688f4ae525724
  response:
    body:
      string: '{"l1_gas_used":"5167","priority_fee":"165439976688","raw_input":"0x765e827f00000000000000000000000000000000000000000000000000000000000000400000000000000000000000003ac05161b76a35c1c28dc99aa01bed7b24cea3bf000000000000000000000000000000000000000000000000000000000000000100000000000000000000000000000000000000000000000000000000000000200000000000000000000000003049f8761a83a90ac4164635c6f36e9b42c382b2000018d1b06af29a8492f6402d1300296c1295f29a6f58220000000000000000000000000000000000000000000000000000000000000000000000000000012000000000000000000000000000000000000000000000000000000000000001400000000000000000000000000001a3d40000000000000000000000000000f82b0000000000000000000000000000000000000000000000000000000000000000000000000000000000000000000000000000000000000000000000000000000000000000000000000000000000000000000000000000000000000000000002600000000000000000000000000000000000000000000000000000000000000280000000000000000000000000000000000000000000000000000000000000000000000000000000000000000000000000000000000000000000000000000000e4e9ae5c53000000000000000000000000000000000000000000000000000000000000000000000000000000000000000000000000000000000000000000000000000000400000000000000000000000000000000000000000000000000000000000000078833589fcd6edb6e08f4c7c32d4f71b54bda029130000000000000000000000000000000000000000000000000000000000000000a9059cbb000000000000000000000000c35c511dd9c95c1de76ba7fc8bb8dd0401ed1d9d000000000000000000000000000000000000000000000000000000000429c8f400000000000000000000000000000000000000000000000000000000000000000000000000000000000000000000000000000000000000000000000000000000000000000000000000000000000000000000000000000000000000000000000000000041ed931dde3fadd38953a9a73a6639d2a3cdbd8267f11fbe7c6e2d7d30e34e93b66954f7a42ba810e2a5991635aeb6e24d163eb25b8411740e28a4e4ac637ec8121b00000000000000000000000000000000000000000000000000000000000000","is_pending_update":false,"op_withdrawals":[],"result":"success","hash":"0x3e3871b768d3ecfd2b93d8824db7ae776660215d73299baf6af688f4ae525724","max_fee_per_gas":"2147129","revert_reason":null,"confirmation_duration":[0,2.0e3],"transaction_burnt_fee":"135702124656","type":2,"token_transfers_overflow":false,"confirmations":8000728,"position":245,"max_priority_fee_per_gas":"999432","transaction_tag":null,"created_contract":null,"value":"0","l1_fee_scalar":"0","from":{"ens_domain_name":null,"hash":"0x8De14E014402C0677B075A69122F94C0425Cc179","implementations":[],"is_contract":false,"is_scam":false,"is_verified":false,"metadata":{"tags":[{"meta":{},"name":"Bundler:
        0x8de...179","ordinal":10,"slug":"bundler-0x8de179","tagType":"name"},{"meta":{"tooltipDescription":"Deployer
        address for Telco.","tooltipUrl":"https://app.pendle.finance"},"name":"Pendle:
        Deployer 8","ordinal":10,"slug":"pendle-deployer-8","tagType":"name"},{"meta":{},"name":"Contract
        Deployer","ordinal":0,"slug":"contract-deployer","tagType":"generic"},{"meta":{},"name":"Bundler","ordinal":0,"slug":"bundler","tagType":"protocol"},{"meta":{"appActionButtonText":"Pendle","appID":"pendle"},"name":"Pendle","ordinal":0,"slug":"pendle","tagType":"protocol"}]},"name":null,"private_tags":[],"proxy_type":null,"public_tags":[],"reputation":"ok","watchlist_names":[]},"gas_used":"165534","status":"ok","to":{"ens_domain_name":null,"hash":"0x0000000071727De22E5E9d8BAf0edAc6f37da032","implementations":[],"is_contract":true,"is_scam":false,"is_verified":true,"metadata":{"tags":[{"meta":{"projectName":"ERC-4337","tagIcon
        ":"https://blockscout-icons.s3.us-east-1.amazonaws.com/OLI_tag_logo.svg","tagUrl":"https://app.klerosscout.eth.limo/#/?registry=Single_Tags&itemdetails=0x5582871daae921c2cdb644a4220e58ac7ad0340ca062a929b2c6a93c3a86de36@0x66260c69d03837016d88c9877e61e08ef74c59f2","textColor":"#C163D4","tooltipAttribution":"https://www.openlabelsinitiative.org?utm_source=blockscout","tooltipAttributionIcon":"https://blockscout-icons.s3.us-east-1.amazonaws.com/OLI_tag_logo.svg","tooltipDescription":"This
        smart contract is used as an entry point for ERC-4337 Account Abstraction
        transactions.","tooltipUrl":"https://twitter.com/erc4337"},"name":"Entry Point
        0.7.0","ordinal":10,"slug":"entry-point-070","tagType":"name"},{"meta":{"alertStatus":"info","data":"Wallets
        and apps are strongly encouraged to use the Entry Point 0.9.0 as described
        here on this X''s post."},"name":"note_0","ordinal":0,"slug":"note0","tagType":"note"}]},"name":"EntryPoint","private_tags":[],"proxy_type":null,"public_tags":[],"reputation":"ok","watchlist_names":[]},"authorization_list":[],"l1_fee":"16146403153","method":"handleOps","fee":{"type":"actual","value":"317288504497"},"actions":[],"gas_limit":"1174179","gas_price":"1819216","decoded_input":{"method_call":"handleOps((address,uint256,bytes,bytes,bytes32,uint256,bytes32,bytes,bytes)[]
        ops, address beneficiary)","method_id":"765e827f","parameters":[{"name":"ops","type":"(address,uint256,bytes,bytes,bytes32,uint256,bytes32,bytes,bytes)[]","value":[["0x3049F8761a83a90aC4164635c6f36E9B42C382b2","171295120135461380777001132750334661740657249511913007136993029241438208","0x","0xe9ae5c53000000000000000000000000000000000000000000000000000000000000000000000000000000000000000000000000000000000000000000000000000000400000000000000000000000000000000000000000000000000000000000000078833589fcd6edb6e08f4c7c32d4f71b54bda029130000000000000000000000000000000000000000000000000000000000000000a9059cbb000000000000000000000000c35c511dd9c95c1de76ba7fc8bb8dd0401ed1d9d000000000000000000000000000000000000000000000000000000000429c8f40000000000000000","0x0000000000000000000000000001a3d40000000000000000000000000000f82b","0","0x0000000000000000000000000000000000000000000000000000000000000000","0x","0xed931dde3fadd38953a9a73a6639d2a3cdbd8267f11fbe7c6e2d7d30e34e93b66954f7a42ba810e2a5991635aeb6e24d163eb25b8411740e28a4e4ac637ec8121b"]]},{"name":"beneficiary","type":"address","value":"0x3AC05161b76a35c1c28dC99Aa01BEd7B24cEA3bf"}]},"l1_gas_price":"1377101587","token_transfers":[{"block_hash":"0x2c09c874e01bcf42cae2f83a056705325214291f65d0a0f0b875603392219715","block_number":34961996,"from":{"ens_domain_name":null,"hash":"0x3049F8761a83a90aC4164635c6f36E9B42C382b2","implementations":[{"address_hash":"0xBAC849bB641841b44E965fB01A4Bf5F074f84b4D","name":"Kernel"}],"is_contract":true,"is_scam":false,"is_verified":false,"metadata":null,"name":null,"private_tags":[],"proxy_type":"eip1967","public_tags":[],"reputation":"ok","watchlist_names":[]},"log_index":652,"method":null,"timestamp":null,"to":{"ens_domain_name":null,"hash":"0xC35C511Dd9C95C1dE76BA7fc8bb8dd0401Ed1D9D","implementations":[],"is_contract":false,"is_scam":false,"is_verified":false,"metadata":null,"name":null,"private_tags":[],"proxy_type":null,"public_tags":[],"reputation":"ok","watchlist_names":[]},"token":{"address_hash":"0x833589fCD6eDb6E08f4c7C32D4f71b54bdA02913","circulating_market_cap":"77059661689.41656","decimals":"6","exchange_rate":"0.999893","holders_count":"8884060","icon_url":"https://assets.coingecko.com/coins/images/6319/small/USDC.png?1769615602","name":"USDC","reputation":"ok","symbol":"USDC","total_supply":"4380486652100535","type":"ERC-20","volume_24h":"14790955088.651493"},"token_type":"ERC-20","total":{"decimals":"6","value":"69847284"},"transaction_hash":"0x3e3871b768d3ecfd2b93d8824db7ae776660215d73299baf6af688f4ae525724","type":"token_transfer"}],"base_fee_per_gas":"819784","timestamp":"2025-09-01T07:55:39.000000Z","nonce":806529,"historic_exchange_rate":"4314.85","transaction_types":["contract_call","token_transfer"],"exchange_rate":"2065.95","block_number":34961996,"has_error_in_internal_transactions":false}'
    headers:
      CF-RAY:
      - 9d7b1c11ef938038-MAD
      Cache-Control:
      - max-age=0, private, must-revalidate
      Connection:
      - keep-alive
      Content-Type:
      - application/json; charset=utf-8
      Date:
      - Thu, 05 Mar 2026 18:16:05 GMT
      Nel:
      - '{"report_to":"cf-nel","success_fraction":0.0,"max_age":604800}'
      Report-To:
      - '{"group":"cf-nel","max_age":604800,"endpoints":[{"url":"https://a.nel.cloudflare.com/report/v4?s=xuT6Xj5vtqPEyE0mUi481MRfXy%2BVMRazAIFGyO7fjgfAhk%2F7ZbvK%2F09xUCpwQOyz7sYc5Lx%2FrHCmdH5J6U0o5goEGAFZEVYgqSEUiv0iprQ%3D"}]}'
      Server:
      - cloudflare
      Transfer-Encoding:
      - chunked
      access-control-allow-credentials:
      - 'true'
      access-control-allow-origin:
      - '*'
      access-control-expose-headers:
      - bypass-429-option,x-ratelimit-reset,x-ratelimit-limit,x-ratelimit-remaining,api-v2-temp-token
      alt-svc:
      - h3=":443"; ma=86400
      bypass-429-option:
      - temporary_token
      cf-cache-status:
      - DYNAMIC
      content-length:
      - '7588'
      strict-transport-security:
      - max-age=31536000; includeSubDomains
      x-ratelimit-limit:
      - '600'
      x-ratelimit-remaining:
      - '594'
      x-ratelimit-reset:
      - '55830'
      x-request-id:
      - d644df8dd28a9eb93295d337e52f995f
    status:
      code: 200
      message: OK
- request:
    body: null
    headers:
      Accept:
      - '*/*'
      Accept-Encoding:
      - gzip, deflate
      Connection:
      - keep-alive
      User-Agent:
      - rotki/1.42.1.dev85+g21cbca5056.d20260305
    method: GET
    uri: https://api.blockscout.com/8453/api/v2/transactions/0xd8b9097fb7e8dd07f74f4757055e33f526d70c9f5a508b0bd764f4c8fce21cb6
  response:
    body:
      string: '{"l1_gas_used":"4739","priority_fee":"98363368740","raw_input":"0x09c564318a52629b27011b5fa9158fdd57d3e5b402d91ce0157fb27bad85117b1cf024f80000000000000000000000002a6c106ae13b558bb9e2ec64bd2f1f7beff3a5e000000000000000000000000000000000000000000000000000000000000000e00000000000000000000000000000000000000000000000000000000068b5517b0000000000000000000000000000000000000000000000000000000068b554ffe5a6bef661cc8069bc4c54bf8696e17af1fbe87f0596b7458fefed90f7c430e09d43c619c6e82690e30ad28c4c2328c03a46886d63faa640a77be52ec263fd7900000000000000000000000000000000000000000000000000000000000001e480381407000000000000000000000000ff5d4f2013563d06a6fd4930fd48ee0ff9c5e6220000000000000000000000009a593475d9c42d63c117bab7337843b3c0017b3d6de17c1d5805f109d65f179b7444ddbb2414f9dc0dab21b748259d0b535d006e8a52629b27011b5fa9158fdd57d3e5b402d91ce0157fb27bad85117b1cf024f800000000000000000000000000000000000000000000000000000000000000e00000000000000000000000000000000000000000000000000000000000000000000000000000000000000000000000000000000000000000000000000000000000000000000000000000000000000000000000000000000000000000000000c4c0e8c0c20000000000000000000000000000000000000000000000000000000000000060000000000000000000000000000000000000000000000000000000000000008000000000000000000000000000000000000000000000000000000000000000a00000000000000000000000000000000000000000000000000000000000000000000000000000000000000000000000000000000000000000000000000000000000000000000000000000000000000000000000000000000000000000000000000000000000000000000000000000000000000000000000000000000000000000000000000000000000000000000000000000000000000000","is_pending_update":false,"op_withdrawals":[],"result":"success","hash":"0xd8b9097fb7e8dd07f74f4757055e33f526d70c9f5a508b0bd764f4c8fce21cb6","max_fee_per_gas":"2126429","revert_reason":null,"confirmation_duration":[0,2.0e3],"transaction_burnt_fee":"79873389960","type":2,"token_transfers_overflow":false,"confirmations":8000727,"position":75,"max_priority_fee_per_gas":"1010202","transaction_tag":null,"created_contract":null,"value":"0","l1_fee_scalar":"0","from":{"ens_domain_name":null,"hash":"0x8De14E014402C0677B075A69122F94C0425Cc179","implementations":[],"is_contract":false,"is_scam":false,"is_verified":false,"metadata":{"tags":[{"meta":{},"name":"Bundler:
        0x8de...179","ordinal":10,"slug":"bundler-0x8de179","tagType":"name"},{"meta":{"tooltipDescription":"Deployer
        address for Telco.","tooltipUrl":"https://app.pendle.finance"},"name":"Pendle:
        Deployer 8","ordinal":10,"slug":"pendle-deployer-8","tagType":"name"},{"meta":{},"name":"Contract
        Deployer","ordinal":0,"slug":"contract-deployer","tagType":"generic"},{"meta":{},"name":"Bundler","ordinal":0,"slug":"bundler","tagType":"protocol"},{"meta":{"appActionButtonText":"Pendle","appID":"pendle"},"name":"Pendle","ordinal":0,"slug":"pendle","tagType":"protocol"}]},"name":null,"private_tags":[],"proxy_type":null,"public_tags":[],"reputation":"ok","watchlist_names":[]},"gas_used":"97370","status":"ok","to":{"ens_domain_name":null,"hash":"0x08EFb6D315c7e74C39620c9AAEA289730f43a429","implementations":[{"address_hash":"0xfDB8B034597cdD063Db5052cA23930092212eFEd","name":"DiamondCutFacet"},{"address_hash":"0x8b206547cFe6F35a77ddaB2D6D97260765A349Ef","name":"DiamondLoupeFacet"},{"address_hash":"0xD6bb1FCdc128b5f7268c4d9Ad58845eA6404Cf55","name":"OwnershipFacet"},{"address_hash":"0xa2351354b39977ea35b1C28A035BD94e48F3ED7D","name":"TransferFacet"},{"address_hash":"0x94B6ea47eFd818483862E116228d4B47b88A9051","name":"SignerFacet"},{"address_hash":"0x4B27D7e3a844AF791ebc4068255Fb70a85a05278","name":"ExecWithSigsFacet"},{"address_hash":"0xC9969739A22A1270d0b0AB267D0bA812903e92f5","name":"ExecWithSigFacet"}],"is_contract":true,"is_scam":false,"is_verified":true,"metadata":{"tags":[{"meta":{},"name":"Token
        Contract","ordinal":0,"slug":"token-contract","tagType":"generic"},{"meta":{"tagIcon
        ":"https://blockscout-icons.s3.us-east-1.amazonaws.com/OLI_tag_logo.svg","textColor":"#C163D4","tooltipAttribution":"https://www.openlabelsinitiative.org?utm_source=blockscout","tooltipAttributionIcon":"https://blockscout-icons.s3.us-east-1.amazonaws.com/OLI_tag_logo.svg","tooltipDescription":"Provided
        by OLI"},"name":"GelatoAutomate","ordinal":0,"slug":"gelatoautomate","tagType":"name"},{"meta":{"tagIcon
        ":"https://blockscout-icons.s3.us-east-1.amazonaws.com/OLI_tag_logo.svg","textColor":"#C163D4","tooltipAttribution":"https://www.openlabelsinitiative.org?utm_source=blockscout","tooltipAttributionIcon":"https://blockscout-icons.s3.us-east-1.amazonaws.com/OLI_tag_logo.svg","tooltipDescription":"Provided
        by OLI"},"name":"Gelato","ordinal":0,"slug":"gelato","tagType":"name"}]},"name":"Gelato","private_tags":[],"proxy_type":"eip2535","public_tags":[],"reputation":"ok","watchlist_names":[]},"authorization_list":[],"l1_fee":"14808155809","method":"execWithSig","fee":{"type":"actual","value":"193044914509"},"actions":[],"gas_limit":"1157745","gas_price":"1830510","decoded_input":{"method_call":"execWithSig(bytes32
        _correlationId, address _service, bytes _data, uint256 _salt, uint256 _deadline,
        bytes32 _r, bytes32 _vs)","method_id":"09c56431","parameters":[{"name":"_correlationId","type":"bytes32","value":"0x8a52629b27011b5fa9158fdd57d3e5b402d91ce0157fb27bad85117b1cf024f8"},{"name":"_service","type":"address","value":"0x2A6C106ae13B558BB9E2Ec64Bd2f1f7BEFF3A5E0"},{"name":"_data","type":"bytes","value":"0x80381407000000000000000000000000ff5d4f2013563d06a6fd4930fd48ee0ff9c5e6220000000000000000000000009a593475d9c42d63c117bab7337843b3c0017b3d6de17c1d5805f109d65f179b7444ddbb2414f9dc0dab21b748259d0b535d006e8a52629b27011b5fa9158fdd57d3e5b402d91ce0157fb27bad85117b1cf024f800000000000000000000000000000000000000000000000000000000000000e00000000000000000000000000000000000000000000000000000000000000000000000000000000000000000000000000000000000000000000000000000000000000000000000000000000000000000000000000000000000000000000000c4c0e8c0c20000000000000000000000000000000000000000000000000000000000000060000000000000000000000000000000000000000000000000000000000000008000000000000000000000000000000000000000000000000000000000000000a000000000000000000000000000000000000000000000000000000000000000000000000000000000000000000000000000000000000000000000000000000000000000000000000000000000000000000000000000000000000000000000000000000000000000000000000000000000000000000000000000000000"},{"name":"_salt","type":"uint256","value":"1756713339"},{"name":"_deadline","type":"uint256","value":"1756714239"},{"name":"_r","type":"bytes32","value":"0xe5a6bef661cc8069bc4c54bf8696e17af1fbe87f0596b7458fefed90f7c430e0"},{"name":"_vs","type":"bytes32","value":"0x9d43c619c6e82690e30ad28c4c2328c03a46886d63faa640a77be52ec263fd79"}]},"l1_gas_price":"1377101587","token_transfers":[],"base_fee_per_gas":"820308","timestamp":"2025-09-01T07:55:41.000000Z","nonce":806530,"historic_exchange_rate":"4314.85","transaction_types":["contract_call"],"exchange_rate":"2064.53","block_number":34961997,"has_error_in_internal_transactions":null}'
    headers:
      CF-RAY:
      - 9d7b1c199df7344b-MAD
      Cache-Control:
      - max-age=0, private, must-revalidate
      Connection:
      - keep-alive
      Content-Type:
      - application/json; charset=utf-8
      Date:
      - Thu, 05 Mar 2026 18:16:06 GMT
      Nel:
      - '{"report_to":"cf-nel","success_fraction":0.0,"max_age":604800}'
      Report-To:
      - '{"group":"cf-nel","max_age":604800,"endpoints":[{"url":"https://a.nel.cloudflare.com/report/v4?s=XxSLya%2BdOPg0m67uuwJaULok3hj430mxb8NxJKAXaZZoLT3iYPweZIGT5T932TgEZhFMagoXy%2Bi94sQ6pNlAGewLGmnoqMQoro%2BpTOSb9okc2Q%3D%3D"}]}'
      Server:
      - cloudflare
      Transfer-Encoding:
      - chunked
      access-control-allow-credentials:
      - 'true'
      access-control-allow-origin:
      - '*'
      access-control-expose-headers:
      - bypass-429-option,x-ratelimit-reset,x-ratelimit-limit,x-ratelimit-remaining,api-v2-temp-token
      alt-svc:
      - h3=":443"; ma=86400
      bypass-429-option:
      - temporary_token
      cf-cache-status:
      - DYNAMIC
      content-length:
      - '6995'
      strict-transport-security:
      - max-age=31536000; includeSubDomains
      x-ratelimit-limit:
      - '600'
      x-ratelimit-remaining:
      - '593'
      x-ratelimit-reset:
      - '54606'
      x-request-id:
      - 53ba30a8d5852ee8596e3038306e4c26
    status:
      code: 200
      message: OK
- request:
    body: null
    headers:
      Accept:
      - '*/*'
      Accept-Encoding:
      - gzip, deflate
      Connection:
      - keep-alive
      User-Agent:
      - rotki/1.42.1.dev85+g21cbca5056.d20260305
    method: GET
    uri: https://api.blockscout.com/8453/api/v2/transactions/0x37d530d1347e3d0903bcb2c8650bd223b39259ba22af373ba70a3cb064ac46b4
  response:
    body:
      string: '{"l1_gas_used":"2825","priority_fee":"74105883936","raw_input":"0x6a761202000000000000000000000000526643f69b81b008f46d95cd5ced5ec0edffdac6000000000000000000000000000000000000000000000000000000000000000000000000000000000000000000000000000000000000000000000000000001400000000000000000000000000000000000000000000000000000000000000001000000000000000000000000000000000000000000000000000000000000000000000000000000000000000000000000000000000000000000000000000000000000000000000000000000000000000000000000000000000000000000000000000000000000000000000000000000000000000000000000000000000000000000000000000000000000000000000000000000000000000000000000000000000000000000000000000000000000000000000000000000000000000000000180000000000000000000000000000000000000000000000000000000000000000468cb3d94000000000000000000000000000000000000000000000000000000000000000000000000000000000000000000000000000000000000000000000041bfbcd95815aecad072f85c8b2c14ddd8ea56370dd6dbf14d4047659df02e96f610fdc018034eb5e29f6c4ead8519d7f2fb004b8a06458638a1beb4ae24abe0e81c00000000000000000000000000000000000000000000000000000000000000","is_pending_update":false,"op_withdrawals":[],"result":"success","hash":"0x37d530d1347e3d0903bcb2c8650bd223b39259ba22af373ba70a3cb064ac46b4","max_fee_per_gas":"2156567","revert_reason":null,"confirmation_duration":[0,2.0e3],"transaction_burnt_fee":"62080413000","type":2,"token_transfers_overflow":false,"confirmations":8000721,"position":132,"max_priority_fee_per_gas":"999432","transaction_tag":null,"created_contract":null,"value":"0","l1_fee_scalar":"0","from":{"ens_domain_name":null,"hash":"0x8De14E014402C0677B075A69122F94C0425Cc179","implementations":[],"is_contract":false,"is_scam":false,"is_verified":false,"metadata":{"tags":[{"meta":{},"name":"Bundler:
        0x8de...179","ordinal":10,"slug":"bundler-0x8de179","tagType":"name"},{"meta":{"tooltipDescription":"Deployer
        address for Telco.","tooltipUrl":"https://app.pendle.finance"},"name":"Pendle:
        Deployer 8","ordinal":10,"slug":"pendle-deployer-8","tagType":"name"},{"meta":{},"name":"Contract
        Deployer","ordinal":0,"slug":"contract-deployer","tagType":"generic"},{"meta":{},"name":"Bundler","ordinal":0,"slug":"bundler","tagType":"protocol"},{"meta":{"appActionButtonText":"Pendle","appID":"pendle"},"name":"Pendle","ordinal":0,"slug":"pendle","tagType":"protocol"}]},"name":null,"private_tags":[],"proxy_type":null,"public_tags":[],"reputation":"ok","watchlist_names":[]},"gas_used":"74148","status":"ok","to":{"ens_domain_name":null,"hash":"0x0BeBD2FcA9854F657329324aA7dc90F656395189","implementations":[],"is_contract":false,"is_scam":false,"is_verified":false,"metadata":null,"name":null,"private_tags":[],"proxy_type":null,"public_tags":[],"reputation":"ok","watchlist_names":[]},"authorization_list":[],"l1_fee":"9682120706","method":"execTransaction","fee":{"type":"actual","value":"145868417642"},"actions":[],"gas_limit":"221216","gas_price":"1836682","decoded_input":{"method_call":"execTransaction(address
        to, uint256 value, bytes data, uint8 operation, uint256 safeTxGas, uint256
        baseGas, uint256 gasPrice, address gasToken, address refundReceiver, bytes
        signatures)","method_id":"6a761202","parameters":[{"name":"to","type":"address","value":"0x526643F69b81B008F46d95CD5ced5eC0edFFDaC6"},{"name":"value","type":"uint256","value":"0"},{"name":"data","type":"bytes","value":"0x68cb3d94"},{"name":"operation","type":"uint8","value":"1"},{"name":"safeTxGas","type":"uint256","value":"0"},{"name":"baseGas","type":"uint256","value":"0"},{"name":"gasPrice","type":"uint256","value":"0"},{"name":"gasToken","type":"address","value":"0x0000000000000000000000000000000000000000"},{"name":"refundReceiver","type":"address","value":"0x0000000000000000000000000000000000000000"},{"name":"signatures","type":"bytes","value":"0xbfbcd95815aecad072f85c8b2c14ddd8ea56370dd6dbf14d4047659df02e96f610fdc018034eb5e29f6c4ead8519d7f2fb004b8a06458638a1beb4ae24abe0e81c"}]},"l1_gas_price":"1510361435","token_transfers":[],"base_fee_per_gas":"837250","timestamp":"2025-09-01T07:55:53.000000Z","nonce":806531,"historic_exchange_rate":"4314.85","transaction_types":[],"exchange_rate":"2065.95","block_number":34962003,"has_error_in_internal_transactions":false}'
    headers:
      CF-RAY:
      - 9d7b1c23d934f774-MAD
      Cache-Control:
      - max-age=0, private, must-revalidate
      Connection:
      - keep-alive
      Content-Type:
      - application/json; charset=utf-8
      Date:
      - Thu, 05 Mar 2026 18:16:08 GMT
      Nel:
      - '{"report_to":"cf-nel","success_fraction":0.0,"max_age":604800}'
      Report-To:
      - '{"group":"cf-nel","max_age":604800,"endpoints":[{"url":"https://a.nel.cloudflare.com/report/v4?s=Db7GOx9KgpTXF8PO5w3NBHsRuQ%2BL6AeF%2FNpLiMTKZ652jXcLXjV76pKqeML%2FzgiWwlMNSF1I7etwGtyuzjIgCHDFNdY%2B%2FWWBvEUkZTRhXOk%3D"}]}'
      Server:
      - cloudflare
      Transfer-Encoding:
      - chunked
      access-control-allow-credentials:
      - 'true'
      access-control-allow-origin:
      - '*'
      access-control-expose-headers:
      - bypass-429-option,x-ratelimit-reset,x-ratelimit-limit,x-ratelimit-remaining,api-v2-temp-token
      alt-svc:
      - h3=":443"; ma=86400
      bypass-429-option:
      - temporary_token
      cf-cache-status:
      - DYNAMIC
      content-length:
      - '4207'
      strict-transport-security:
      - max-age=31536000; includeSubDomains
      x-ratelimit-limit:
      - '600'
      x-ratelimit-remaining:
      - '592'
      x-ratelimit-reset:
      - '52959'
      x-request-id:
      - 9901da7825561b98b2120dd17665f44d
    status:
      code: 200
      message: OK
- request:
    body: null
    headers:
      Accept:
      - '*/*'
      Accept-Encoding:
      - gzip, deflate
      Connection:
      - keep-alive
      User-Agent:
      - rotki/1.42.1.dev85+g21cbca5056.d20260305
    method: GET
    uri: https://api.blockscout.com/8453/api/v2/transactions/0x810853468c87050e1a0cce3b5c51a182bdfb46d218ebf3ab2bd4da1b7ed5dd08
  response:
    body:
      string: '{"l1_gas_used":"5287","priority_fee":"269462000000","raw_input":"0x09c56431ad20436c7e30e547bdb87fd38a5b93357bc414504a468cad425237a28fbf6f520000000000000000000000002a6c106ae13b558bb9e2ec64bd2f1f7beff3a5e000000000000000000000000000000000000000000000000000000000000000e00000000000000000000000000000000000000000000000000000000068b551aa0000000000000000000000000000000000000000000000000000000068b5552e46e521d2feed21c873a3ae1fca5ffbba24aa25c8a57f152efcb937d2f0d0a4b7c6e97f62cff00c76220f75a55f669e59470eb3c596c2d801f0cad6ad5fc62f8300000000000000000000000000000000000000000000000000000000000001e480381407000000000000000000000000ff5d4f2013563d06a6fd4930fd48ee0ff9c5e6220000000000000000000000009a593475d9c42d63c117bab7337843b3c0017b3d0cc0131ee5ae5e879c255d1a77c7259f78fbfd6ab56a09bf1b212e48c5eabecead20436c7e30e547bdb87fd38a5b93357bc414504a468cad425237a28fbf6f5200000000000000000000000000000000000000000000000000000000000000e00000000000000000000000000000000000000000000000000000000000000000000000000000000000000000000000000000000000000000000000000000000100000000000000000000000000000000000000000000000000000000000000c454132d780000000000000000000000004cad6ec90e65babec9335cad728ddc610c316368000000000000000000000000000000000000000000000000000000000000006000000000000000000000000000000000000000000000000000000000000000000000000000000000000000000000000000000000000000000000000000000024514fcac7000000000000000000000000000000000000000000000000000000000001f43d000000000000000000000000000000000000000000000000000000000000000000000000000000000000000000000000000000000000000000000000000000000000000000000000000000000000000000000000","is_pending_update":false,"op_withdrawals":[],"result":"success","hash":"0x810853468c87050e1a0cce3b5c51a182bdfb46d218ebf3ab2bd4da1b7ed5dd08","max_fee_per_gas":"2237615","revert_reason":null,"confirmation_duration":[0,2.0e3],"transaction_burnt_fee":"238207372082","type":2,"token_transfers_overflow":false,"confirmations":8000704,"position":228,"max_priority_fee_per_gas":"1000000","transaction_tag":null,"created_contract":null,"value":"0","l1_fee_scalar":"0","from":{"ens_domain_name":null,"hash":"0x8De14E014402C0677B075A69122F94C0425Cc179","implementations":[],"is_contract":false,"is_scam":false,"is_verified":false,"metadata":{"tags":[{"meta":{},"name":"Bundler:
        0x8de...179","ordinal":10,"slug":"bundler-0x8de179","tagType":"name"},{"meta":{"tooltipDescription":"Deployer
        address for Telco.","tooltipUrl":"https://app.pendle.finance"},"name":"Pendle:
        Deployer 8","ordinal":10,"slug":"pendle-deployer-8","tagType":"name"},{"meta":{},"name":"Contract
        Deployer","ordinal":0,"slug":"contract-deployer","tagType":"generic"},{"meta":{},"name":"Bundler","ordinal":0,"slug":"bundler","tagType":"protocol"},{"meta":{"appActionButtonText":"Pendle","appID":"pendle"},"name":"Pendle","ordinal":0,"slug":"pendle","tagType":"protocol"}]},"name":null,"private_tags":[],"proxy_type":null,"public_tags":[],"reputation":"ok","watchlist_names":[]},"gas_used":"269462","status":"ok","to":{"ens_domain_name":null,"hash":"0x08EFb6D315c7e74C39620c9AAEA289730f43a429","implementations":[{"address_hash":"0xfDB8B034597cdD063Db5052cA23930092212eFEd","name":"DiamondCutFacet"},{"address_hash":"0x8b206547cFe6F35a77ddaB2D6D97260765A349Ef","name":"DiamondLoupeFacet"},{"address_hash":"0xD6bb1FCdc128b5f7268c4d9Ad58845eA6404Cf55","name":"OwnershipFacet"},{"address_hash":"0xa2351354b39977ea35b1C28A035BD94e48F3ED7D","name":"TransferFacet"},{"address_hash":"0x94B6ea47eFd818483862E116228d4B47b88A9051","name":"SignerFacet"},{"address_hash":"0x4B27D7e3a844AF791ebc4068255Fb70a85a05278","name":"ExecWithSigsFacet"},{"address_hash":"0xC9969739A22A1270d0b0AB267D0bA812903e92f5","name":"ExecWithSigFacet"}],"is_contract":true,"is_scam":false,"is_verified":true,"metadata":{"tags":[{"meta":{},"name":"Token
        Contract","ordinal":0,"slug":"token-contract","tagType":"generic"},{"meta":{"tagIcon
        ":"https://blockscout-icons.s3.us-east-1.amazonaws.com/OLI_tag_logo.svg","textColor":"#C163D4","tooltipAttribution":"https://www.openlabelsinitiative.org?utm_source=blockscout","tooltipAttributionIcon":"https://blockscout-icons.s3.us-east-1.amazonaws.com/OLI_tag_logo.svg","tooltipDescription":"Provided
        by OLI"},"name":"GelatoAutomate","ordinal":0,"slug":"gelatoautomate","tagType":"name"},{"meta":{"tagIcon
        ":"https://blockscout-icons.s3.us-east-1.amazonaws.com/OLI_tag_logo.svg","textColor":"#C163D4","tooltipAttribution":"https://www.openlabelsinitiative.org?utm_source=blockscout","tooltipAttributionIcon":"https://blockscout-icons.s3.us-east-1.amazonaws.com/OLI_tag_logo.svg","tooltipDescription":"Provided
        by OLI"},"name":"Gelato","ordinal":0,"slug":"gelato","tagType":"name"}]},"name":"Gelato","private_tags":[],"proxy_type":"eip2535","public_tags":[],"reputation":"ok","watchlist_names":[]},"authorization_list":[],"l1_fee":"17739738359","method":"execWithSig","fee":{"type":"actual","value":"525409110441"},"actions":[],"gas_limit":"1339101","gas_price":"1884011","decoded_input":{"method_call":"execWithSig(bytes32
        _correlationId, address _service, bytes _data, uint256 _salt, uint256 _deadline,
        bytes32 _r, bytes32 _vs)","method_id":"09c56431","parameters":[{"name":"_correlationId","type":"bytes32","value":"0xad20436c7e30e547bdb87fd38a5b93357bc414504a468cad425237a28fbf6f52"},{"name":"_service","type":"address","value":"0x2A6C106ae13B558BB9E2Ec64Bd2f1f7BEFF3A5E0"},{"name":"_data","type":"bytes","value":"0x80381407000000000000000000000000ff5d4f2013563d06a6fd4930fd48ee0ff9c5e6220000000000000000000000009a593475d9c42d63c117bab7337843b3c0017b3d0cc0131ee5ae5e879c255d1a77c7259f78fbfd6ab56a09bf1b212e48c5eabecead20436c7e30e547bdb87fd38a5b93357bc414504a468cad425237a28fbf6f5200000000000000000000000000000000000000000000000000000000000000e00000000000000000000000000000000000000000000000000000000000000000000000000000000000000000000000000000000000000000000000000000000100000000000000000000000000000000000000000000000000000000000000c454132d780000000000000000000000004cad6ec90e65babec9335cad728ddc610c316368000000000000000000000000000000000000000000000000000000000000006000000000000000000000000000000000000000000000000000000000000000000000000000000000000000000000000000000000000000000000000000000024514fcac7000000000000000000000000000000000000000000000000000000000001f43d0000000000000000000000000000000000000000000000000000000000000000000000000000000000000000000000000000000000000000"},{"name":"_salt","type":"uint256","value":"1756713386"},{"name":"_deadline","type":"uint256","value":"1756714286"},{"name":"_r","type":"bytes32","value":"0x46e521d2feed21c873a3ae1fca5ffbba24aa25c8a57f152efcb937d2f0d0a4b7"},{"name":"_vs","type":"bytes32","value":"0xc6e97f62cff00c76220f75a55f669e59470eb3c596c2d801f0cad6ad5fc62f83"}]},"l1_gas_price":"1478529289","token_transfers":[],"base_fee_per_gas":"884011","timestamp":"2025-09-01T07:56:27.000000Z","nonce":806532,"historic_exchange_rate":"4314.85","transaction_types":["contract_call"],"exchange_rate":"2065.95","block_number":34962020,"has_error_in_internal_transactions":false}'
    headers:
      CF-RAY:
      - 9d7b1c308c1f783f-MAD
      Cache-Control:
      - max-age=0, private, must-revalidate
      Connection:
      - keep-alive
      Content-Type:
      - application/json; charset=utf-8
      Date:
      - Thu, 05 Mar 2026 18:16:10 GMT
      Nel:
      - '{"report_to":"cf-nel","success_fraction":0.0,"max_age":604800}'
      Report-To:
      - '{"group":"cf-nel","max_age":604800,"endpoints":[{"url":"https://a.nel.cloudflare.com/report/v4?s=55ilJ%2FijLS6ywnHZ%2FDKgK6X5lRddsftajXBWNadP2xhiHUIbfN4sFf2RAYt8EkBQ0ZB7tR%2B5kKR7zCviISpdR6ovmpK%2FVJ8Kx3CFsOtQm08b2A%3D%3D"}]}'
      Server:
      - cloudflare
      Transfer-Encoding:
      - chunked
      access-control-allow-credentials:
      - 'true'
      access-control-allow-origin:
      - '*'
      access-control-expose-headers:
      - bypass-429-option,x-ratelimit-reset,x-ratelimit-limit,x-ratelimit-remaining,api-v2-temp-token
      alt-svc:
      - h3=":443"; ma=86400
      bypass-429-option:
      - temporary_token
      cf-cache-status:
      - DYNAMIC
      content-length:
      - '7000'
      strict-transport-security:
      - max-age=31536000; includeSubDomains
      x-ratelimit-limit:
      - '600'
      x-ratelimit-remaining:
      - '591'
      x-ratelimit-reset:
      - '50932'
      x-request-id:
      - 6c35759dd5de54f625851188e39dc893
    status:
      code: 200
      message: OK
- request:
    body: null
    headers:
      Accept:
      - '*/*'
      Accept-Encoding:
      - gzip, deflate
      Connection:
      - keep-alive
      User-Agent:
      - rotki/1.42.1.dev85+g21cbca5056.d20260305
    method: GET
    uri: https://api.blockscout.com/8453/api/v2/transactions/0xd04f29267c9d36af1f60ec93179461a8b1ea84e3865bbaf61abb8df86b87e3f6
  response:
    body:
      string: '{"l1_gas_used":"4913","priority_fee":"143764000000","raw_input":"0x09c5643176f4ee9cb82e4c73ac379a729a2e7aaab18c5930b1778d62a360012c7f31a4410000000000000000000000002a6c106ae13b558bb9e2ec64bd2f1f7beff3a5e000000000000000000000000000000000000000000000000000000000000000e00000000000000000000000000000000000000000000000000000000068b551b40000000000000000000000000000000000000000000000000000000068b55538bb84b34125d860edbd60ee414b2043dce83547ac31b40d2189eb045dcf55130efea4dcb7160ceb5e4a95cdca1ddbe9fac84a518a2d617da149573395873f859000000000000000000000000000000000000000000000000000000000000001e480381407000000000000000000000000ff5d4f2013563d06a6fd4930fd48ee0ff9c5e6220000000000000000000000009a593475d9c42d63c117bab7337843b3c0017b3d8e613899b21ca9fc62904c880020a302cc48ad4fb45766e86997e4909a14ce9b76f4ee9cb82e4c73ac379a729a2e7aaab18c5930b1778d62a360012c7f31a44100000000000000000000000000000000000000000000000000000000000000e00000000000000000000000000000000000000000000000000000000000000000000000000000000000000000000000000000000000000000000000000000000100000000000000000000000000000000000000000000000000000000000000c454132d780000000000000000000000002a6c106ae13b558bb9e2ec64bd2f1f7beff3a5e0000000000000000000000000000000000000000000000000000000000000006000000000000000000000000000000000000000000000000000000000000000000000000000000000000000000000000000000000000000000000000000000024ee8ca3b58e613899b21ca9fc62904c880020a302cc48ad4fb45766e86997e4909a14ce9b000000000000000000000000000000000000000000000000000000000000000000000000000000000000000000000000000000000000000000000000000000000000000000000000000000000000000000000000","is_pending_update":false,"op_withdrawals":[],"result":"success","hash":"0xd04f29267c9d36af1f60ec93179461a8b1ea84e3865bbaf61abb8df86b87e3f6","max_fee_per_gas":"2251728","revert_reason":null,"confirmation_duration":[0,2.0e3],"transaction_burnt_fee":"128538242288","type":2,"token_transfers_overflow":false,"confirmations":8000699,"position":258,"max_priority_fee_per_gas":"1000000","transaction_tag":null,"created_contract":null,"value":"0","l1_fee_scalar":"0","from":{"ens_domain_name":null,"hash":"0x8De14E014402C0677B075A69122F94C0425Cc179","implementations":[],"is_contract":false,"is_scam":false,"is_verified":false,"metadata":{"tags":[{"meta":{},"name":"Bundler:
        0x8de...179","ordinal":10,"slug":"bundler-0x8de179","tagType":"name"},{"meta":{"tooltipDescription":"Deployer
        address for Telco.","tooltipUrl":"https://app.pendle.finance"},"name":"Pendle:
        Deployer 8","ordinal":10,"slug":"pendle-deployer-8","tagType":"name"},{"meta":{},"name":"Contract
        Deployer","ordinal":0,"slug":"contract-deployer","tagType":"generic"},{"meta":{},"name":"Bundler","ordinal":0,"slug":"bundler","tagType":"protocol"},{"meta":{"appActionButtonText":"Pendle","appID":"pendle"},"name":"Pendle","ordinal":0,"slug":"pendle","tagType":"protocol"}]},"name":null,"private_tags":[],"proxy_type":null,"public_tags":[],"reputation":"ok","watchlist_names":[]},"gas_used":"143764","status":"ok","to":{"ens_domain_name":null,"hash":"0x08EFb6D315c7e74C39620c9AAEA289730f43a429","implementations":[{"address_hash":"0xfDB8B034597cdD063Db5052cA23930092212eFEd","name":"DiamondCutFacet"},{"address_hash":"0x8b206547cFe6F35a77ddaB2D6D97260765A349Ef","name":"DiamondLoupeFacet"},{"address_hash":"0xD6bb1FCdc128b5f7268c4d9Ad58845eA6404Cf55","name":"OwnershipFacet"},{"address_hash":"0xa2351354b39977ea35b1C28A035BD94e48F3ED7D","name":"TransferFacet"},{"address_hash":"0x94B6ea47eFd818483862E116228d4B47b88A9051","name":"SignerFacet"},{"address_hash":"0x4B27D7e3a844AF791ebc4068255Fb70a85a05278","name":"ExecWithSigsFacet"},{"address_hash":"0xC9969739A22A1270d0b0AB267D0bA812903e92f5","name":"ExecWithSigFacet"}],"is_contract":true,"is_scam":false,"is_verified":true,"metadata":{"tags":[{"meta":{},"name":"Token
        Contract","ordinal":0,"slug":"token-contract","tagType":"generic"},{"meta":{"tagIcon
        ":"https://blockscout-icons.s3.us-east-1.amazonaws.com/OLI_tag_logo.svg","textColor":"#C163D4","tooltipAttribution":"https://www.openlabelsinitiative.org?utm_source=blockscout","tooltipAttributionIcon":"https://blockscout-icons.s3.us-east-1.amazonaws.com/OLI_tag_logo.svg","tooltipDescription":"Provided
        by OLI"},"name":"GelatoAutomate","ordinal":0,"slug":"gelatoautomate","tagType":"name"},{"meta":{"tagIcon
        ":"https://blockscout-icons.s3.us-east-1.amazonaws.com/OLI_tag_logo.svg","textColor":"#C163D4","tooltipAttribution":"https://www.openlabelsinitiative.org?utm_source=blockscout","tooltipAttributionIcon":"https://blockscout-icons.s3.us-east-1.amazonaws.com/OLI_tag_logo.svg","tooltipDescription":"Provided
        by OLI"},"name":"Gelato","ordinal":0,"slug":"gelato","tagType":"name"}]},"name":"Gelato","private_tags":[],"proxy_type":"eip2535","public_tags":[],"reputation":"ok","watchlist_names":[]},"authorization_list":[],"l1_fee":"16526174642","method":"execWithSig","fee":{"type":"actual","value":"288828416930"},"actions":[],"gas_limit":"1213079","gas_price":"1894092","decoded_input":{"method_call":"execWithSig(bytes32
        _correlationId, address _service, bytes _data, uint256 _salt, uint256 _deadline,
        bytes32 _r, bytes32 _vs)","method_id":"09c56431","parameters":[{"name":"_correlationId","type":"bytes32","value":"0x76f4ee9cb82e4c73ac379a729a2e7aaab18c5930b1778d62a360012c7f31a441"},{"name":"_service","type":"address","value":"0x2A6C106ae13B558BB9E2Ec64Bd2f1f7BEFF3A5E0"},{"name":"_data","type":"bytes","value":"0x80381407000000000000000000000000ff5d4f2013563d06a6fd4930fd48ee0ff9c5e6220000000000000000000000009a593475d9c42d63c117bab7337843b3c0017b3d8e613899b21ca9fc62904c880020a302cc48ad4fb45766e86997e4909a14ce9b76f4ee9cb82e4c73ac379a729a2e7aaab18c5930b1778d62a360012c7f31a44100000000000000000000000000000000000000000000000000000000000000e00000000000000000000000000000000000000000000000000000000000000000000000000000000000000000000000000000000000000000000000000000000100000000000000000000000000000000000000000000000000000000000000c454132d780000000000000000000000002a6c106ae13b558bb9e2ec64bd2f1f7beff3a5e0000000000000000000000000000000000000000000000000000000000000006000000000000000000000000000000000000000000000000000000000000000000000000000000000000000000000000000000000000000000000000000000024ee8ca3b58e613899b21ca9fc62904c880020a302cc48ad4fb45766e86997e4909a14ce9b0000000000000000000000000000000000000000000000000000000000000000000000000000000000000000000000000000000000000000"},{"name":"_salt","type":"uint256","value":"1756713396"},{"name":"_deadline","type":"uint256","value":"1756714296"},{"name":"_r","type":"bytes32","value":"0xbb84b34125d860edbd60ee414b2043dce83547ac31b40d2189eb045dcf55130e"},{"name":"_vs","type":"bytes32","value":"0xfea4dcb7160ceb5e4a95cdca1ddbe9fac84a518a2d617da149573395873f8590"}]},"l1_gas_price":"1482444632","token_transfers":[],"base_fee_per_gas":"894092","timestamp":"2025-09-01T07:56:37.000000Z","nonce":806533,"historic_exchange_rate":"4314.85","transaction_types":["contract_call"],"exchange_rate":"2066.02","block_number":34962025,"has_error_in_internal_transactions":false}'
    headers:
      CF-RAY:
      - 9d7b1c3bf98411f7-MAD
      Cache-Control:
      - max-age=0, private, must-revalidate
      Connection:
      - keep-alive
      Content-Type:
      - application/json; charset=utf-8
      Date:
      - Thu, 05 Mar 2026 18:16:12 GMT
      Nel:
      - '{"report_to":"cf-nel","success_fraction":0.0,"max_age":604800}'
      Report-To:
      - '{"group":"cf-nel","max_age":604800,"endpoints":[{"url":"https://a.nel.cloudflare.com/report/v4?s=KCTqvocLR3ISRXPA7w270N7Dv2vC%2FzRpv%2FQPb8QHcXTmEvPPA%2FCSIXqva8Nh4Ju8U1ijofk6zOndTTkoZ3ACOoMAr1Fw5K8lMizmHWMfoG46vA%3D%3D"}]}'
      Server:
      - cloudflare
      Transfer-Encoding:
      - chunked
      access-control-allow-credentials:
      - 'true'
      access-control-allow-origin:
      - '*'
      access-control-expose-headers:
      - bypass-429-option,x-ratelimit-reset,x-ratelimit-limit,x-ratelimit-remaining,api-v2-temp-token
      alt-svc:
      - h3=":443"; ma=86400
      bypass-429-option:
      - temporary_token
      cf-cache-status:
      - DYNAMIC
      content-length:
      - '7000'
      strict-transport-security:
      - max-age=31536000; includeSubDomains
      x-ratelimit-limit:
      - '600'
      x-ratelimit-remaining:
      - '590'
      x-ratelimit-reset:
      - '49091'
      x-request-id:
      - 620f97cc2e2227da73d9f4320bd58ebd
    status:
      code: 200
      message: OK
- request:
    body: null
    headers:
      Accept:
      - '*/*'
      Accept-Encoding:
      - gzip, deflate
      Connection:
      - keep-alive
      User-Agent:
      - rotki/1.42.1.dev85+g21cbca5056.d20260305
    method: GET
    uri: https://api.blockscout.com/8453/api?action=txlistinternal&address=0x8De14E014402C0677B075A69122F94C0425Cc179&endblock=34962026&module=account&sort=asc&startblock=34961976
  response:
    body:
      string: '{"message":"Some internal transactions within this block range have
        not yet been processed","result":[],"status":"2"}'
    headers:
      CF-RAY:
      - 9d7b1c443bc70727-MAD
      Cache-Control:
      - max-age=0, private, must-revalidate
      Connection:
      - keep-alive
      Content-Type:
      - application/json; charset=utf-8
      Date:
      - Thu, 05 Mar 2026 18:16:12 GMT
      Nel:
      - '{"report_to":"cf-nel","success_fraction":0.0,"max_age":604800}'
      Report-To:
      - '{"group":"cf-nel","max_age":604800,"endpoints":[{"url":"https://a.nel.cloudflare.com/report/v4?s=5g9mV7cF%2FRlUgasOH1QK84q%2Bn5B%2BRGECmzQg7RZGtwRT41dRRfz8Ggn5gK1%2Bcj78DLzFEUSKbAb8PLsJJtlFlDJluq9Py0jQI3br4uSbQVw%3D"}]}'
      Server:
      - cloudflare
      Transfer-Encoding:
      - chunked
      access-control-allow-credentials:
      - 'true'
      access-control-allow-origin:
      - '*'
      access-control-expose-headers:
      - bypass-429-option,x-ratelimit-reset,x-ratelimit-limit,x-ratelimit-remaining,api-v2-temp-token
      alt-svc:
      - h3=":443"; ma=86400
      bypass-429-option:
      - no_bypass
      cf-cache-status:
      - DYNAMIC
      content-length:
      - '117'
      strict-transport-security:
      - max-age=31536000; includeSubDomains
      x-ratelimit-limit:
      - '600'
      x-ratelimit-remaining:
      - '589'
      x-ratelimit-reset:
      - '47778'
      x-request-id:
      - 353c00344f52361aa2f92440f85542a3
    status:
      code: 200
      message: OK
- request:
    body: null
    headers:
      Accept:
      - '*/*'
      Accept-Encoding:
      - gzip, deflate
      Connection:
      - keep-alive
      User-Agent:
      - rotki/1.42.1.dev85+g21cbca5056.d20260305
    method: GET
    uri: https://api.etherscan.io/v2/api?action=txlistinternal&address=0x8De14E014402C0677B075A69122F94C0425Cc179&chainid=8453&endblock=34962026&module=account&sort=asc&startblock=34961976
  response:
    body:
      string: '{"status":"0","message":"NOTOK","result":"Free API access is not supported
        for this chain. Please upgrade your api plan for full chain coverage. https://etherscan.io/apis"}'
    headers:
      Access-Control-Allow-Headers:
      - Content-Type
      Access-Control-Allow-Methods:
      - GET, POST, OPTIONS
      Access-Control-Allow-Origin:
      - '*'
      Cache-Control:
      - private
      Connection:
      - keep-alive
      Content-Length:
      - '172'
      Content-Type:
      - application/json; charset=utf-8
      Date:
      - Thu, 05 Mar 2026 18:16:13 GMT
      Server:
      - nginx
      X-Frame-Options:
      - SAMEORIGIN
      X-Nginx-Id:
      - '4'
      svid:
      - base2new
    status:
      code: 200
      message: OK
- request:
    body: null
    headers:
      Accept:
      - '*/*'
      Accept-Encoding:
      - gzip, deflate
      Connection:
      - keep-alive
      User-Agent:
      - rotki/1.42.1.dev85+g21cbca5056.d20260305
    method: GET
    uri: https://api.blockscout.com/8453/api?action=tokentx&address=0x8De14E014402C0677B075A69122F94C0425Cc179&endblock=34962026&module=account&sort=asc&startblock=34961976
  response:
    body:
      string: '{"message":"No token transfers found","result":[],"status":"0"}'
    headers:
      CF-RAY:
      - 9d7b1c4baaf6cc39-MAD
      Cache-Control:
      - max-age=0, private, must-revalidate
      Connection:
      - keep-alive
      Content-Type:
      - application/json; charset=utf-8
      Date:
      - Thu, 05 Mar 2026 18:16:13 GMT
      Nel:
      - '{"report_to":"cf-nel","success_fraction":0.0,"max_age":604800}'
      Report-To:
      - '{"group":"cf-nel","max_age":604800,"endpoints":[{"url":"https://a.nel.cloudflare.com/report/v4?s=BYcomsb9SVdHRKbN42%2FiGmU85j7PQ0qlseV4Cdb%2B5dmgKxVBnynx2KEdqwYz3w7DcML89rejuuTfrL3%2Fz0IGlgLEKLaSqNyfhTm2U5x5v4vCgg%3D%3D"}]}'
      Server:
      - cloudflare
      Transfer-Encoding:
      - chunked
      access-control-allow-credentials:
      - 'true'
      access-control-allow-origin:
      - '*'
      access-control-expose-headers:
      - bypass-429-option,x-ratelimit-reset,x-ratelimit-limit,x-ratelimit-remaining,api-v2-temp-token
      alt-svc:
      - h3=":443"; ma=86400
      bypass-429-option:
      - no_bypass
      cf-cache-status:
      - DYNAMIC
      content-length:
      - '63'
      strict-transport-security:
      - max-age=31536000; includeSubDomains
      x-ratelimit-limit:
      - '600'
      x-ratelimit-remaining:
      - '588'
      x-ratelimit-reset:
      - '46505'
      x-request-id:
      - c1400186edd8709d37127b457eb68491
    status:
      code: 200
      message: OK
- request:
    body: '{"jsonrpc": "2.0", "method": "web3_clientVersion", "params": [], "id":
      0}'
    headers:
      Accept:
      - '*/*'
      Accept-Encoding:
      - gzip, deflate
      Connection:
      - keep-alive
      Content-Length:
      - '73'
      Content-Type:
      - application/json
      User-Agent:
      - web3.py/7.14.0/web3.providers.rpc.rpc.HTTPProvider
    method: POST
    uri: https://mainnet.base.org/
  response:
    body:
      string: '{"jsonrpc":"2.0","result":"Geth/v1.101609.0-stable-0c840dff/linux-amd64/go1.24.13","id":0}

        '
    headers:
      CF-RAY:
      - 9d7b1c4e584f98e6-BCN
      Connection:
      - keep-alive
      Content-Type:
      - application/json
      Date:
      - Thu, 05 Mar 2026 18:16:13 GMT
      NEL:
      - '{"success_fraction":0.01,"report_to":"cf-nel","max_age":604800}'
      Report-To:
      - '{"endpoints":[{"url":"https:\/\/a.nel.cloudflare.com\/report\/v4?s=3gOQ%2BWSMXL3FFpDh4BO4ExApInxlHYnj4ygLAjxAEfhGx2qzjII2tXtlZ3QTlYX5xpSVfbOrWovmxSPcY85%2FrgXr9VTAuAvh0%2FhmJM3D1GOlfQo8bwb6xgfSIH6bU5D%2FiTM%3D"}],"group":"cf-nel","max_age":604800}'
      Server:
      - cloudflare
      Set-Cookie:
      - __cf_bm=CgTy_lW8Q7pA4SqszfnYygo02yXw5PDtxWvdXN_WyRo-1772734573-1.0.1.1-y8ufkjLaU1nPCJrZCXXQRszq1HgZwHGEJKIlLwyJrXty5veY5AU6umaiCQEjBr4g6ms0uDcDyp0M5wf5qFEMW.oiW7Ptubqo_VW79SsDpe8;
        path=/; expires=Thu, 05-Mar-26 18:46:13 GMT; domain=.base.org; HttpOnly; Secure;
        SameSite=None
      Strict-Transport-Security:
      - max-age=2592000
      Transfer-Encoding:
      - chunked
      X-Content-Type-Options:
      - nosniff
      cf-cache-status:
      - DYNAMIC
      content-length:
      - '91'
      vary:
      - Origin
      x-proxyd-cache-status:
      - MISS
    status:
      code: 200
      message: OK
- request:
    body: '{"jsonrpc": "2.0", "method": "net_version", "params": [], "id": 1}'
    headers:
      Accept:
      - '*/*'
      Accept-Encoding:
      - gzip, deflate
      Connection:
      - keep-alive
      Content-Length:
      - '66'
      Content-Type:
      - application/json
      Cookie:
      - __cf_bm=CgTy_lW8Q7pA4SqszfnYygo02yXw5PDtxWvdXN_WyRo-1772734573-1.0.1.1-y8ufkjLaU1nPCJrZCXXQRszq1HgZwHGEJKIlLwyJrXty5veY5AU6umaiCQEjBr4g6ms0uDcDyp0M5wf5qFEMW.oiW7Ptubqo_VW79SsDpe8
      User-Agent:
      - web3.py/7.14.0/web3.providers.rpc.rpc.HTTPProvider
    method: POST
    uri: https://mainnet.base.org/
  response:
    body:
      string: '{"jsonrpc":"2.0","result":"8453","id":1}

        '
    headers:
      CF-RAY:
      - 9d7b1c4f6feba6eb-BCN
      Connection:
      - keep-alive
      Content-Length:
      - '41'
      Content-Type:
      - application/json
      Date:
      - Thu, 05 Mar 2026 18:16:14 GMT
      NEL:
      - '{"success_fraction":0.01,"report_to":"cf-nel","max_age":604800}'
      Report-To:
      - '{"endpoints":[{"url":"https:\/\/a.nel.cloudflare.com\/report\/v4?s=itKm7c49M8kYhYK54NtlPkSVwx1z2knYBNRXCbQkpAp416CoEC9T%2BRMBV2UCkSW7S%2F3fBBRxMr%2Fup2CS2NXc0R7tXWSMdfbRkx74vSpXmzShEBn1anUzM99QaxWdSzZ4SqY%3D"}],"group":"cf-nel","max_age":604800}'
      Server:
      - cloudflare
      Strict-Transport-Security:
      - max-age=2592000
      X-Content-Type-Options:
      - nosniff
      cf-cache-status:
      - DYNAMIC
      vary:
      - Origin
      x-proxyd-cache-status:
      - HIT
    status:
      code: 200
      message: OK
- request:
    body: '{"jsonrpc": "2.0", "method": "eth_blockNumber", "params": [], "id": 2}'
    headers:
      Accept:
      - '*/*'
      Accept-Encoding:
      - gzip, deflate
      Connection:
      - keep-alive
      Content-Length:
      - '70'
      Content-Type:
      - application/json
      Cookie:
      - __cf_bm=CgTy_lW8Q7pA4SqszfnYygo02yXw5PDtxWvdXN_WyRo-1772734573-1.0.1.1-y8ufkjLaU1nPCJrZCXXQRszq1HgZwHGEJKIlLwyJrXty5veY5AU6umaiCQEjBr4g6ms0uDcDyp0M5wf5qFEMW.oiW7Ptubqo_VW79SsDpe8
      User-Agent:
      - web3.py/7.14.0/web3.providers.rpc.rpc.HTTPProvider
    method: POST
    uri: https://mainnet.base.org/
  response:
    body:
      string: '{"jsonrpc":"2.0","result":"0x28fb5c5","id":2}

        '
    headers:
      CF-RAY:
      - 9d7b1c50898f5111-BCN
      Connection:
      - keep-alive
      Content-Length:
      - '46'
      Content-Type:
      - application/json
      Date:
      - Thu, 05 Mar 2026 18:16:14 GMT
      NEL:
      - '{"success_fraction":0.01,"report_to":"cf-nel","max_age":604800}'
      Report-To:
      - '{"endpoints":[{"url":"https:\/\/a.nel.cloudflare.com\/report\/v4?s=aI3Q4e9AwByPXMUdypp7%2FifaJD6qSyco0ZkmbayRG%2FOZnhlYGiH%2FrGCME%2BrKRoqCC6gGcUai6FI8f6JA9QZamtGl3oMw2W2wbLpU9HjCe0PCJvsrEgdPWUlRp6r%2BQXhYHS4%3D"}],"group":"cf-nel","max_age":604800}'
      Server:
      - cloudflare
      Strict-Transport-Security:
      - max-age=2592000
      X-Content-Type-Options:
      - nosniff
      cf-cache-status:
      - DYNAMIC
      vary:
      - Origin
      x-proxyd-cache-status:
      - MISS
    status:
      code: 200
      message: OK
- request:
    body: '{"jsonrpc": "2.0", "method": "eth_getBalance", "params": ["0x3a9e669d9e2d0171c8a057031a9e9C048b7FEE60",
      "0x3e541a"], "id": 3}'
    headers:
      Accept:
      - '*/*'
      Accept-Encoding:
      - gzip, deflate
      Connection:
      - keep-alive
      Content-Length:
      - '125'
      Content-Type:
      - application/json
      Cookie:
      - __cf_bm=CgTy_lW8Q7pA4SqszfnYygo02yXw5PDtxWvdXN_WyRo-1772734573-1.0.1.1-y8ufkjLaU1nPCJrZCXXQRszq1HgZwHGEJKIlLwyJrXty5veY5AU6umaiCQEjBr4g6ms0uDcDyp0M5wf5qFEMW.oiW7Ptubqo_VW79SsDpe8
      User-Agent:
      - web3.py/7.14.0/web3.providers.rpc.rpc.HTTPProvider
    method: POST
    uri: https://mainnet.base.org/
  response:
    body:
      string: '{"jsonrpc":"2.0","result":"0x2386f26fc10000","id":3}

        '
    headers:
      CF-RAY:
      - 9d7b1c51cfa69a49-BCN
      Connection:
      - keep-alive
      Content-Type:
      - application/json
      Date:
      - Thu, 05 Mar 2026 18:16:14 GMT
      NEL:
      - '{"success_fraction":0.01,"report_to":"cf-nel","max_age":604800}'
      Report-To:
      - '{"endpoints":[{"url":"https:\/\/a.nel.cloudflare.com\/report\/v4?s=GMaFoqScIsGDzzOond2ZmrZQLZprCk0UDir5oEAKNh9VJ7ehp7SZo9PRZT47QEzDSgu%2FKH9CX5A1qNTilmCYUFlgGNI6wVyXNndzD8gKvYmaFqfV0lMDjibh0LiiLTVONWk%3D"}],"group":"cf-nel","max_age":604800}'
      Server:
      - cloudflare
      Strict-Transport-Security:
      - max-age=2592000
      Transfer-Encoding:
      - chunked
      X-Content-Type-Options:
      - nosniff
      cf-cache-status:
      - DYNAMIC
      content-length:
      - '53'
      vary:
      - Origin
      x-proxyd-cache-status:
      - MISS
    status:
      code: 200
      message: OK
- request:
    body: '{"jsonrpc": "2.0", "method": "eth_getTransactionByHash", "params": ["0xc7e021f71a972940c2728717f058f49833e3aa4d074c3599054530f108c281b2"],
      "id": 4}'
    headers:
      Accept:
      - '*/*'
      Accept-Encoding:
      - gzip, deflate
      Connection:
      - keep-alive
      Content-Length:
      - '147'
      Content-Type:
      - application/json
      Cookie:
      - __cf_bm=CgTy_lW8Q7pA4SqszfnYygo02yXw5PDtxWvdXN_WyRo-1772734573-1.0.1.1-y8ufkjLaU1nPCJrZCXXQRszq1HgZwHGEJKIlLwyJrXty5veY5AU6umaiCQEjBr4g6ms0uDcDyp0M5wf5qFEMW.oiW7Ptubqo_VW79SsDpe8
      User-Agent:
      - web3.py/7.14.0/web3.providers.rpc.rpc.HTTPProvider
    method: POST
    uri: https://mainnet.base.org/
  response:
    body:
      string: '{"jsonrpc":"2.0","result":{"accessList":[],"blockHash":"0x493369ae3bb8df04408d15ed1d9971c0ae93a2a7fdc832a583240a723be3bbc4","blockNumber":"0x3e541a","chainId":"0x2105","from":"0x15718b9b0dade1c17d8329a13bb9553f3b38e172","gas":"0x5208","gasPrice":"0xdaf45a","hash":"0xc7e021f71a972940c2728717f058f49833e3aa4d074c3599054530f108c281b2","input":"0x","maxFeePerGas":"0x104a18f","maxPriorityFeePerGas":"0x5aeeeb","nonce":"0x1","r":"0x23df55c709dccbe0ddbca9867f1658f8a7b97ccc06bd0c2c74ad66ef05308b43","s":"0x6e72646fcd901f4d9ebf8e29f1b447bcc7c1fab524a3534bac2b85872940da67","to":"0x3a9e669d9e2d0171c8a057031a9e9c048b7fee60","transactionIndex":"0xf","type":"0x2","v":"0x0","value":"0x2386f26fc10000","yParity":"0x0"},"id":4}

        '
    headers:
      CF-RAY:
      - 9d7b1c531be8817a-BCN
      Connection:
      - keep-alive
      Content-Type:
      - application/json
      Date:
      - Thu, 05 Mar 2026 18:16:14 GMT
      NEL:
      - '{"success_fraction":0.01,"report_to":"cf-nel","max_age":604800}'
      Report-To:
      - '{"endpoints":[{"url":"https:\/\/a.nel.cloudflare.com\/report\/v4?s=ZeQbxKJwvNACpIKraPbvWMQ6mM87BfICKgP6Jm3Y2XgwilHTFnYyp6hgqACVm6GskLtRv6dAs3VH6W98WCvzUtunrwSPUSSdrd3Dsru29T6%2Fo06FK0jthvLwLJrLwhl6SAE%3D"}],"group":"cf-nel","max_age":604800}'
      Server:
      - cloudflare
      Strict-Transport-Security:
      - max-age=2592000
      Transfer-Encoding:
      - chunked
      X-Content-Type-Options:
      - nosniff
      cf-cache-status:
      - DYNAMIC
      content-length:
      - '717'
      vary:
      - Origin
      x-proxyd-cache-status:
      - MISS
    status:
      code: 200
      message: OK
- request:
    body: '{"jsonrpc": "2.0", "method": "eth_getTransactionByHash", "params": ["0x37d530d1347e3d0903bcb2c8650bd223b39259ba22af373ba70a3cb064ac46b4"],
      "id": 5}'
    headers:
      Accept:
      - '*/*'
      Accept-Encoding:
      - gzip, deflate
      Connection:
      - keep-alive
      Content-Length:
      - '147'
      Content-Type:
      - application/json
      Cookie:
      - __cf_bm=CgTy_lW8Q7pA4SqszfnYygo02yXw5PDtxWvdXN_WyRo-1772734573-1.0.1.1-y8ufkjLaU1nPCJrZCXXQRszq1HgZwHGEJKIlLwyJrXty5veY5AU6umaiCQEjBr4g6ms0uDcDyp0M5wf5qFEMW.oiW7Ptubqo_VW79SsDpe8
      User-Agent:
      - web3.py/7.14.0/web3.providers.rpc.rpc.HTTPProvider
    method: POST
    uri: https://mainnet.base.org/
  response:
    body:
      string: '{"jsonrpc":"2.0","result":{"accessList":[],"blockHash":"0xddb5af5ed330a0a7e6af7f97d472bc0eea45a0fa46d0e456e6acced9894561fd","blockNumber":"0x2157a53","chainId":"0x2105","from":"0x8de14e014402c0677b075a69122f94c0425cc179","gas":"0x36020","gasPrice":"0x1c068a","hash":"0x37d530d1347e3d0903bcb2c8650bd223b39259ba22af373ba70a3cb064ac46b4","input":"0x6a761202000000000000000000000000526643f69b81b008f46d95cd5ced5ec0edffdac6000000000000000000000000000000000000000000000000000000000000000000000000000000000000000000000000000000000000000000000000000001400000000000000000000000000000000000000000000000000000000000000001000000000000000000000000000000000000000000000000000000000000000000000000000000000000000000000000000000000000000000000000000000000000000000000000000000000000000000000000000000000000000000000000000000000000000000000000000000000000000000000000000000000000000000000000000000000000000000000000000000000000000000000000000000000000000000000000000000000000000000000000000000000000000000000180000000000000000000000000000000000000000000000000000000000000000468cb3d94000000000000000000000000000000000000000000000000000000000000000000000000000000000000000000000000000000000000000000000041bfbcd95815aecad072f85c8b2c14ddd8ea56370dd6dbf14d4047659df02e96f610fdc018034eb5e29f6c4ead8519d7f2fb004b8a06458638a1beb4ae24abe0e81c00000000000000000000000000000000000000000000000000000000000000","maxFeePerGas":"0x20e817","maxPriorityFeePerGas":"0xf4008","nonce":"0xc4e83","r":"0xd2dc0a5a656af5304684ec3db133861d2a1574c5aeee6e8ea986c917aaa82354","s":"0x6718d7b1951395dd2bbb0a501f19a8ab40160f91fcd5e8a3bf5bda483bd14608","to":"0x0bebd2fca9854f657329324aa7dc90f656395189","transactionIndex":"0x84","type":"0x2","v":"0x0","value":"0x0","yParity":"0x0"},"id":5}

        '
    headers:
      CF-RAY:
      - 9d7b1c546950d8be-BCN
      Connection:
      - keep-alive
      Content-Type:
      - application/json
      Date:
      - Thu, 05 Mar 2026 18:16:14 GMT
      NEL:
      - '{"success_fraction":0.01,"report_to":"cf-nel","max_age":604800}'
      Report-To:
      - '{"endpoints":[{"url":"https:\/\/a.nel.cloudflare.com\/report\/v4?s=Qpgm%2FQDqDDaLEjWMOvVzGiw%2BxwccnYyqof0XEe4z6BAgsqqAQrQNWL%2BQ875MKTWaYEYRmrbgcwVjK62z%2Bx2CQlvO%2FixZJDlf0KGMMhVrVf2ze3xHqdU%2BwBNvaTW%2FMw2D2EM%3D"}],"group":"cf-nel","max_age":604800}'
      Server:
      - cloudflare
      Strict-Transport-Security:
      - max-age=2592000
      Transfer-Encoding:
      - chunked
      X-Content-Type-Options:
      - nosniff
      cf-cache-status:
      - DYNAMIC
      content-length:
      - '1741'
      vary:
      - Origin
      x-proxyd-cache-status:
      - MISS
    status:
      code: 200
      message: OK
- request:
    body: '{"jsonrpc": "2.0", "method": "eth_getTransactionReceipt", "params": ["0x37d530d1347e3d0903bcb2c8650bd223b39259ba22af373ba70a3cb064ac46b4"],
      "id": 6}'
    headers:
      Accept:
      - '*/*'
      Accept-Encoding:
      - gzip, deflate
      Connection:
      - keep-alive
      Content-Length:
      - '148'
      Content-Type:
      - application/json
      Cookie:
      - __cf_bm=CgTy_lW8Q7pA4SqszfnYygo02yXw5PDtxWvdXN_WyRo-1772734573-1.0.1.1-y8ufkjLaU1nPCJrZCXXQRszq1HgZwHGEJKIlLwyJrXty5veY5AU6umaiCQEjBr4g6ms0uDcDyp0M5wf5qFEMW.oiW7Ptubqo_VW79SsDpe8
      User-Agent:
      - web3.py/7.14.0/web3.providers.rpc.rpc.HTTPProvider
    method: POST
    uri: https://mainnet.base.org/
  response:
    body:
      string: '{"jsonrpc":"2.0","result":{"blockHash":"0xddb5af5ed330a0a7e6af7f97d472bc0eea45a0fa46d0e456e6acced9894561fd","blockNumber":"0x2157a53","contractAddress":null,"cumulativeGasUsed":"0x15fc870","effectiveGasPrice":"0x1c068a","from":"0x8de14e014402c0677b075a69122f94c0425cc179","gasUsed":"0x121a4","l1BaseFeeScalar":"0x8dd","l1BlobBaseFee":"0x1","l1BlobBaseFeeScalar":"0x101c12","l1Fee":"0x241197002","l1GasPrice":"0x5a06495b","l1GasUsed":"0xb09","logs":[{"address":"0x0bebd2fca9854f657329324aa7dc90f656395189","blockHash":"0xddb5af5ed330a0a7e6af7f97d472bc0eea45a0fa46d0e456e6acced9894561fd","blockNumber":"0x2157a53","blockTimestamp":"0x68b55189","data":"0x000000000000000000000000526643f69b81b008f46d95cd5ced5ec0edffdac60000000000000000000000000000000000000000000000000000000000000000000000000000000000000000000000000000000000000000000000000000016000000000000000000000000000000000000000000000000000000000000000010000000000000000000000000000000000000000000000000000000000000000000000000000000000000000000000000000000000000000000000000000000000000000000000000000000000000000000000000000000000000000000000000000000000000000000000000000000000000000000000000000000000000000000000000000000000000000000000000000000000000000000000000000000000000000000000000000000000000000000000000000000000000000000001a00000000000000000000000000000000000000000000000000000000000000220000000000000000000000000000000000000000000000000000000000000000468cb3d94000000000000000000000000000000000000000000000000000000000000000000000000000000000000000000000000000000000000000000000041bfbcd95815aecad072f85c8b2c14ddd8ea56370dd6dbf14d4047659df02e96f610fdc018034eb5e29f6c4ead8519d7f2fb004b8a06458638a1beb4ae24abe0e81c00000000000000000000000000000000000000000000000000000000000000000000000000000000000000000000000000000000000000000000000000006000000000000000000000000000000000000000000000000000000000000000030000000000000000000000008de14e014402c0677b075a69122f94c0425cc1790000000000000000000000000000000000000000000000000000000000000001","logIndex":"0x14e","removed":false,"topics":["0x66753cd2356569ee081232e3be8909b950e0a76c1f8460c3a5e3c2be32b11bed"],"transactionHash":"0x37d530d1347e3d0903bcb2c8650bd223b39259ba22af373ba70a3cb064ac46b4","transactionIndex":"0x84"},{"address":"0x0bebd2fca9854f657329324aa7dc90f656395189","blockHash":"0xddb5af5ed330a0a7e6af7f97d472bc0eea45a0fa46d0e456e6acced9894561fd","blockNumber":"0x2157a53","blockTimestamp":"0x68b55189","data":"0x00000000000000000000000029fcb43b46531bca003ddc8fcb67ffe91900c762","logIndex":"0x14f","removed":false,"topics":["0x75e41bc35ff1bf14d81d1d2f649c0084a0f974f9289c803ec9898eeec4c8d0b8"],"transactionHash":"0x37d530d1347e3d0903bcb2c8650bd223b39259ba22af373ba70a3cb064ac46b4","transactionIndex":"0x84"},{"address":"0x0bebd2fca9854f657329324aa7dc90f656395189","blockHash":"0xddb5af5ed330a0a7e6af7f97d472bc0eea45a0fa46d0e456e6acced9894561fd","blockNumber":"0x2157a53","blockTimestamp":"0x68b55189","data":"0x","logIndex":"0x150","removed":false,"topics":["0x5ac6c46c93c8d0e53714ba3b53db3e7c046da994313d7ed0d192028bc7c228b0","0x000000000000000000000000fd0732dc9e303f09fcef3a7388ad10a83459ec99"],"transactionHash":"0x37d530d1347e3d0903bcb2c8650bd223b39259ba22af373ba70a3cb064ac46b4","transactionIndex":"0x84"},{"address":"0x0bebd2fca9854f657329324aa7dc90f656395189","blockHash":"0xddb5af5ed330a0a7e6af7f97d472bc0eea45a0fa46d0e456e6acced9894561fd","blockNumber":"0x2157a53","blockTimestamp":"0x68b55189","data":"0x36b993beb1e6f657c2bb46ed37a409a378064d6bc8f2aa6becb60404ef1c50480000000000000000000000000000000000000000000000000000000000000000","logIndex":"0x151","removed":false,"topics":["0x442e715f626346e8c54381002da614f62bee8d27386535b2521ec8540898556e"],"transactionHash":"0x37d530d1347e3d0903bcb2c8650bd223b39259ba22af373ba70a3cb064ac46b4","transactionIndex":"0x84"}],"logsBloom":"0x00400000400020000000000000000000000000000000000000000000040000000000000000000000100000000000000000000000000004000000000000000000020000000000000002000000040000000000040000000000000000000000000000000000000000000000000000000000000000000000000000000000000000000000000000000000000000000000000000001000000000000000000000000000200000000400000000000000000004000000000000000000000000000000000000000000000000000000000000020000100000000000000000000020000000000000000000000000020000000000000000000000000000000000000000000000","status":"0x1","to":"0x0bebd2fca9854f657329324aa7dc90f656395189","transactionHash":"0x37d530d1347e3d0903bcb2c8650bd223b39259ba22af373ba70a3cb064ac46b4","transactionIndex":"0x84","type":"0x2"},"id":6}

        '
    headers:
      CF-RAY:
      - 9d7b1c565eee589a-BCN
      Connection:
      - keep-alive
      Content-Type:
      - application/json
      Date:
      - Thu, 05 Mar 2026 18:16:15 GMT
      NEL:
      - '{"success_fraction":0.01,"report_to":"cf-nel","max_age":604800}'
      Report-To:
      - '{"endpoints":[{"url":"https:\/\/a.nel.cloudflare.com\/report\/v4?s=ZKqABbWGwaOoScduMtxZrX3ylQ69XrPsZW3ZDI32j9md4QVMuNpRrSKwO9%2FqIgw9EXqfTdNlZHuYOSNls7qvsk1xA8YjT%2BgWcpsG8rYIeHCNjzol2LhoPdpSqTFgiX117f0%3D"}],"group":"cf-nel","max_age":604800}'
      Server:
      - cloudflare
      Strict-Transport-Security:
      - max-age=2592000
      Transfer-Encoding:
      - chunked
      X-Content-Type-Options:
      - nosniff
      cf-cache-status:
      - DYNAMIC
      content-length:
      - '4520'
      vary:
      - Origin
      x-proxyd-cache-status:
      - MISS
    status:
      code: 200
      message: OK
- request:
    body: null
    headers:
      Accept:
      - '*/*'
      Accept-Encoding:
      - gzip, deflate
      Connection:
      - keep-alive
      User-Agent:
      - rotki/1.42.1.dev85+g21cbca5056.d20260305
    method: GET
    uri: https://api.blockscout.com/8453/api?action=txlistinternal&module=account&sort=asc&txhash=0x37d530d1347e3d0903bcb2c8650bd223b39259ba22af373ba70a3cb064ac46b4
  response:
    body:
      string: '{"message":"No internal transactions found","result":[],"status":"0"}'
    headers:
      CF-RAY:
      - 9d7b1c59ae3dec96-MAD
      Cache-Control:
      - max-age=0, private, must-revalidate
      Connection:
      - keep-alive
      Content-Type:
      - application/json; charset=utf-8
      Date:
      - Thu, 05 Mar 2026 18:16:16 GMT
      Nel:
      - '{"report_to":"cf-nel","success_fraction":0.0,"max_age":604800}'
      Report-To:
      - '{"group":"cf-nel","max_age":604800,"endpoints":[{"url":"https://a.nel.cloudflare.com/report/v4?s=HySAAiH7cAn5SVGmjo8QURMUTVzRFZfAC1ks2nrMEmqGAChW9fsl9IRpyOv7Vq3pARoI9cdGzO8mJ2pkM5Q8dkQwRrP8PaTuCXiFynx16YY%3D"}]}'
      Server:
      - cloudflare
      Transfer-Encoding:
      - chunked
      access-control-allow-credentials:
      - 'true'
      access-control-allow-origin:
      - '*'
      access-control-expose-headers:
      - bypass-429-option,x-ratelimit-reset,x-ratelimit-limit,x-ratelimit-remaining,api-v2-temp-token
      alt-svc:
      - h3=":443"; ma=86400
      bypass-429-option:
      - no_bypass
      cf-cache-status:
      - DYNAMIC
      content-length:
      - '69'
      strict-transport-security:
      - max-age=31536000; includeSubDomains
      x-ratelimit-limit:
      - '600'
      x-ratelimit-remaining:
      - '587'
      x-ratelimit-reset:
      - '44352'
      x-request-id:
      - 52ebe4072881aa402c5785128aa3c57b
    status:
      code: 200
      message: OK
version: 1
