interactions:
- request:
    body: null
    headers:
      Accept:
      - '*/*'
      Accept-Encoding:
      - gzip, deflate
      Connection:
      - keep-alive
      User-Agent:
      - rotki/1.27.2.dev11+ge6773788b.d20230228
    method: GET
    uri: https://api-optimistic.etherscan.io/api?module=proxy&action=eth_getTransactionByHash&txhash=0xda810d7e1757c6ce7387b437c26472f802eec47404e60d4f1eaa9f23bf8d8b73&apikey=IK3GCCMPQXTRIEGBAXQ9DUFWIUR524K3MW
  response:
    body:
      string: '{"jsonrpc":"2.0","id":1,"result":{"blockHash":"0x84b286a21097cdb7bdf1c3b56ed7a649e504dcf32ad150ea4bae9d958914bea2","blockNumber":"0x3ca0a6a","from":"0x2b888954421b424c5d3d9ce9bb67c9bd47537d12","gas":"0x1deb4","gasPrice":"0xf4240","hash":"0xda810d7e1757c6ce7387b437c26472f802eec47404e60d4f1eaa9f23bf8d8b73","input":"0x2e7ba6ef000000000000000000000000000000000000000000000000000000000000a3450000000000000000000000002b888954421b424c5d3d9ce9bb67c9bd47537d1200000000000000000000000000000000000000000000002cdf7994c0542400000000000000000000000000000000000000000000000000000000000000000080000000000000000000000000000000000000000000000000000000000000001255a789e1ab02125c50688474731c0ebfd3f43d09de64a738e00f8579fad08870362cb607f4e52e96ac217723481821cc7c0cef0e96f9c40e8c3185892be7dd08296005986f456258999c4ea096c61673789385a0c9f536a2f9311e00c0030162bd1117dd1a4128eb2b351a24b3c72bfb09adc9b4922ca5a076229513560d38692701b2085539dd2df4bfa3b17b3a23de493eac155766f125c5721e0fa30831c5ba944bd3ae1bd5abb0b94cc673d749f802a339fb20728391f509c83ce7565555dd18b62d4049d2f9f6904c8de2db7c20edeb53216efe571c0bc4b4246a6ed03f96a659bf9ae2c471705dbf036ab3bff3d362539a425c904d2dbc4a0c7a431be08ea01ece4db684df502a9fad46b977865ca8a1f10b938709209eec36693c980529161c9a9e6580c1e86c5ca1094543ad04ed770374acc73f4f1a721422a073187ec666dd615a1545c68f486042cf338f790cfd2dd4cb5b77ab54c3c650c0b8f1c707eb5d69a934b671af55f2356915f10b7aae33d4c64843bb5ac8746437493f5ec4975b5a87969e54ddd236e1c265371dd2cc0dfbc0e289abd16b1324c2d9746a7ffeb4a89f13a055a2ef26c552a0188e8cb2cd35c64b93c27241626617707690239b25bfa1022df1690436a1afd7b8402a5269b556e93c84f5ce0b3225644b74ca48867d821694a17baf26d56c5f1291f1c1150fe4d49cdd82c21cc9e78c7f0afdfcd4802e55b895896b3f7a849edf4fd3b4a491a9f9cf635c04c8a7d239a152044ff4e7c1d5d3a1a493a9e16f6ff1e909d6b4515d0da464811141abc8ce71","nonce":"0x1","to":"0xfedfaf1a10335448b7fa0268f56d2b44dbd357de","transactionIndex":"0x0","value":"0x0","v":"0x37","r":"0x906c90fbe04d3e21ea180b5885eff86df5ac6d92bcef9fb760e6ba200e345080","s":"0x5f13aa0a32e73c30dfddb60279005bec8c52e2878ac1a854fcc6c408eeaf354b","queueOrigin":"sequencer","l1TxOrigin":null,"l1BlockNumber":"0xf9dd08","l1Timestamp":"0x63bd1c41","index":"0x3ca0a69","queueIndex":null,"rawTransaction":"0xf9034901830f42408301deb494fedfaf1a10335448b7fa0268f56d2b44dbd357de80b902e42e7ba6ef000000000000000000000000000000000000000000000000000000000000a3450000000000000000000000002b888954421b424c5d3d9ce9bb67c9bd47537d1200000000000000000000000000000000000000000000002cdf7994c0542400000000000000000000000000000000000000000000000000000000000000000080000000000000000000000000000000000000000000000000000000000000001255a789e1ab02125c50688474731c0ebfd3f43d09de64a738e00f8579fad08870362cb607f4e52e96ac217723481821cc7c0cef0e96f9c40e8c3185892be7dd08296005986f456258999c4ea096c61673789385a0c9f536a2f9311e00c0030162bd1117dd1a4128eb2b351a24b3c72bfb09adc9b4922ca5a076229513560d38692701b2085539dd2df4bfa3b17b3a23de493eac155766f125c5721e0fa30831c5ba944bd3ae1bd5abb0b94cc673d749f802a339fb20728391f509c83ce7565555dd18b62d4049d2f9f6904c8de2db7c20edeb53216efe571c0bc4b4246a6ed03f96a659bf9ae2c471705dbf036ab3bff3d362539a425c904d2dbc4a0c7a431be08ea01ece4db684df502a9fad46b977865ca8a1f10b938709209eec36693c980529161c9a9e6580c1e86c5ca1094543ad04ed770374acc73f4f1a721422a073187ec666dd615a1545c68f486042cf338f790cfd2dd4cb5b77ab54c3c650c0b8f1c707eb5d69a934b671af55f2356915f10b7aae33d4c64843bb5ac8746437493f5ec4975b5a87969e54ddd236e1c265371dd2cc0dfbc0e289abd16b1324c2d9746a7ffeb4a89f13a055a2ef26c552a0188e8cb2cd35c64b93c27241626617707690239b25bfa1022df1690436a1afd7b8402a5269b556e93c84f5ce0b3225644b74ca48867d821694a17baf26d56c5f1291f1c1150fe4d49cdd82c21cc9e78c7f0afdfcd4802e55b895896b3f7a849edf4fd3b4a491a9f9cf635c04c8a7d239a152044ff4e7c1d5d3a1a493a9e16f6ff1e909d6b4515d0da464811141abc8ce7137a0906c90fbe04d3e21ea180b5885eff86df5ac6d92bcef9fb760e6ba200e345080a05f13aa0a32e73c30dfddb60279005bec8c52e2878ac1a854fcc6c408eeaf354b"}}

        '
    headers:
      Access-Control-Allow-Headers:
      - Content-Type
      Access-Control-Allow-Methods:
      - GET, POST, OPTIONS
      Access-Control-Allow-Origin:
      - '*'
      CF-Cache-Status:
      - DYNAMIC
      CF-RAY:
      - 7a134788b8baca2f-HAM
      Cache-Control:
      - private
      Connection:
      - keep-alive
      Content-Type:
      - application/json; charset=utf-8
      Date:
      - Wed, 01 Mar 2023 17:56:55 GMT
      Server:
      - cloudflare
      Vary:
      - Accept-Encoding
      X-Frame-Options:
      - SAMEORIGIN
      alt-svc:
      - h3=":443"; ma=86400, h3-29=":443"; ma=86400
      content-length:
      - '3907'
    status:
      code: 200
      message: OK
- request:
    body: null
    headers:
      Accept:
      - '*/*'
      Accept-Encoding:
      - gzip, deflate
      Connection:
      - keep-alive
      User-Agent:
      - rotki/1.27.2.dev11+ge6773788b.d20230228
    method: GET
    uri: https://api-optimistic.etherscan.io/api?module=proxy&action=eth_getBlockByNumber&tag=0x3ca0a6a&boolean=true&apikey=IK3GCCMPQXTRIEGBAXQ9DUFWIUR524K3MW
  response:
    body:
      string: '{"jsonrpc":"2.0","id":1,"result":{"difficulty":"0x2","extraData":"0xd98301090a846765746889676f312e31352e3133856c696e75780000000000004d7c9a0f45b8325dad31c68131b03b5742c44aee50ca4a07ea9ae4f07df06dd10ec534350c0f1facc200636ae8aa743eac2ae91565885717534e6027085c997500","gasLimit":"0xe4e1c0","gasUsed":"0x1deb4","hash":"0x84b286a21097cdb7bdf1c3b56ed7a649e504dcf32ad150ea4bae9d958914bea2","logsBloom":"0x00000000000000000000008000000000000000000000000000000000000000000000000000000200000000000002000000000000000000000000000200000040020000000000000020000008000000000000000000000000000000000400000000000000000000800040000000000040000000000000000000000010000000000000100000000000000000000000000000000000000000000000000000000000040000000000000000040000000000000000000000000000000001000000000000000002000000000000000000000000008000000000000000000000000000800000000000000000000000000000000000000000000020000000000000000000","miner":"0x0000000000000000000000000000000000000000","mixHash":"0x0000000000000000000000000000000000000000000000000000000000000000","nonce":"0x0000000000000000","number":"0x3ca0a6a","parentHash":"0xab0f6738177070baab4e4a05bd002bf4081fffa1890b12ef28af0074f327c385","receiptsRoot":"0xce0a422b6726ca5de4b9162188c3c05b9cbc44411a7fc8ad5a75b73f0cee5af8","sha3Uncles":"0x1dcc4de8dec75d7aab85b567b6ccd41ad312451b948a7413f0a142fd40d49347","size":"0x5b3","stateRoot":"0x8cefe71ff1c7e7a7e0d90dbd4022893ce93a427c5ddd6630fd4b890e0e412c98","timestamp":"0x63bd1c41","totalDifficulty":"0x79414d5","transactions":[{"blockHash":"0x84b286a21097cdb7bdf1c3b56ed7a649e504dcf32ad150ea4bae9d958914bea2","blockNumber":"0x3ca0a6a","from":"0x2b888954421b424c5d3d9ce9bb67c9bd47537d12","gas":"0x1deb4","gasPrice":"0xf4240","hash":"0xda810d7e1757c6ce7387b437c26472f802eec47404e60d4f1eaa9f23bf8d8b73","input":"0x2e7ba6ef000000000000000000000000000000000000000000000000000000000000a3450000000000000000000000002b888954421b424c5d3d9ce9bb67c9bd47537d1200000000000000000000000000000000000000000000002cdf7994c0542400000000000000000000000000000000000000000000000000000000000000000080000000000000000000000000000000000000000000000000000000000000001255a789e1ab02125c50688474731c0ebfd3f43d09de64a738e00f8579fad08870362cb607f4e52e96ac217723481821cc7c0cef0e96f9c40e8c3185892be7dd08296005986f456258999c4ea096c61673789385a0c9f536a2f9311e00c0030162bd1117dd1a4128eb2b351a24b3c72bfb09adc9b4922ca5a076229513560d38692701b2085539dd2df4bfa3b17b3a23de493eac155766f125c5721e0fa30831c5ba944bd3ae1bd5abb0b94cc673d749f802a339fb20728391f509c83ce7565555dd18b62d4049d2f9f6904c8de2db7c20edeb53216efe571c0bc4b4246a6ed03f96a659bf9ae2c471705dbf036ab3bff3d362539a425c904d2dbc4a0c7a431be08ea01ece4db684df502a9fad46b977865ca8a1f10b938709209eec36693c980529161c9a9e6580c1e86c5ca1094543ad04ed770374acc73f4f1a721422a073187ec666dd615a1545c68f486042cf338f790cfd2dd4cb5b77ab54c3c650c0b8f1c707eb5d69a934b671af55f2356915f10b7aae33d4c64843bb5ac8746437493f5ec4975b5a87969e54ddd236e1c265371dd2cc0dfbc0e289abd16b1324c2d9746a7ffeb4a89f13a055a2ef26c552a0188e8cb2cd35c64b93c27241626617707690239b25bfa1022df1690436a1afd7b8402a5269b556e93c84f5ce0b3225644b74ca48867d821694a17baf26d56c5f1291f1c1150fe4d49cdd82c21cc9e78c7f0afdfcd4802e55b895896b3f7a849edf4fd3b4a491a9f9cf635c04c8a7d239a152044ff4e7c1d5d3a1a493a9e16f6ff1e909d6b4515d0da464811141abc8ce71","nonce":"0x1","to":"0xfedfaf1a10335448b7fa0268f56d2b44dbd357de","transactionIndex":"0x0","value":"0x0","v":"0x37","r":"0x906c90fbe04d3e21ea180b5885eff86df5ac6d92bcef9fb760e6ba200e345080","s":"0x5f13aa0a32e73c30dfddb60279005bec8c52e2878ac1a854fcc6c408eeaf354b","queueOrigin":"sequencer","l1TxOrigin":null,"l1BlockNumber":"0xf9dd08","l1Timestamp":"0x63bd1c41","index":"0x3ca0a69","queueIndex":null,"rawTransaction":"0xf9034901830f42408301deb494fedfaf1a10335448b7fa0268f56d2b44dbd357de80b902e42e7ba6ef000000000000000000000000000000000000000000000000000000000000a3450000000000000000000000002b888954421b424c5d3d9ce9bb67c9bd47537d1200000000000000000000000000000000000000000000002cdf7994c0542400000000000000000000000000000000000000000000000000000000000000000080000000000000000000000000000000000000000000000000000000000000001255a789e1ab02125c50688474731c0ebfd3f43d09de64a738e00f8579fad08870362cb607f4e52e96ac217723481821cc7c0cef0e96f9c40e8c3185892be7dd08296005986f456258999c4ea096c61673789385a0c9f536a2f9311e00c0030162bd1117dd1a4128eb2b351a24b3c72bfb09adc9b4922ca5a076229513560d38692701b2085539dd2df4bfa3b17b3a23de493eac155766f125c5721e0fa30831c5ba944bd3ae1bd5abb0b94cc673d749f802a339fb20728391f509c83ce7565555dd18b62d4049d2f9f6904c8de2db7c20edeb53216efe571c0bc4b4246a6ed03f96a659bf9ae2c471705dbf036ab3bff3d362539a425c904d2dbc4a0c7a431be08ea01ece4db684df502a9fad46b977865ca8a1f10b938709209eec36693c980529161c9a9e6580c1e86c5ca1094543ad04ed770374acc73f4f1a721422a073187ec666dd615a1545c68f486042cf338f790cfd2dd4cb5b77ab54c3c650c0b8f1c707eb5d69a934b671af55f2356915f10b7aae33d4c64843bb5ac8746437493f5ec4975b5a87969e54ddd236e1c265371dd2cc0dfbc0e289abd16b1324c2d9746a7ffeb4a89f13a055a2ef26c552a0188e8cb2cd35c64b93c27241626617707690239b25bfa1022df1690436a1afd7b8402a5269b556e93c84f5ce0b3225644b74ca48867d821694a17baf26d56c5f1291f1c1150fe4d49cdd82c21cc9e78c7f0afdfcd4802e55b895896b3f7a849edf4fd3b4a491a9f9cf635c04c8a7d239a152044ff4e7c1d5d3a1a493a9e16f6ff1e909d6b4515d0da464811141abc8ce7137a0906c90fbe04d3e21ea180b5885eff86df5ac6d92bcef9fb760e6ba200e345080a05f13aa0a32e73c30dfddb60279005bec8c52e2878ac1a854fcc6c408eeaf354b"}],"transactionsRoot":"0x6943f5896183d3e17bb1fc0aba558182bbf25eb3fe78ed8f75f2c1b5a3923590","uncles":[]}}

        '
    headers:
      Access-Control-Allow-Headers:
      - Content-Type
      Access-Control-Allow-Methods:
      - GET, POST, OPTIONS
      Access-Control-Allow-Origin:
      - '*'
      CF-Cache-Status:
      - DYNAMIC
      CF-RAY:
      - 7a13478999a3ca2f-HAM
      Cache-Control:
      - private
      Connection:
      - keep-alive
      Content-Type:
      - application/json; charset=utf-8
      Date:
      - Wed, 01 Mar 2023 17:56:56 GMT
      Server:
      - cloudflare
      Vary:
      - Accept-Encoding
      X-Frame-Options:
      - SAMEORIGIN
      alt-svc:
      - h3=":443"; ma=86400, h3-29=":443"; ma=86400
      content-length:
      - '5484'
    status:
      code: 200
      message: OK
- request:
    body: null
    headers:
      Accept:
      - '*/*'
      Accept-Encoding:
      - gzip, deflate
      Connection:
      - keep-alive
      User-Agent:
      - rotki/1.27.2.dev11+ge6773788b.d20230228
    method: GET
    uri: https://api-optimistic.etherscan.io/api?module=proxy&action=eth_getTransactionReceipt&txhash=0xda810d7e1757c6ce7387b437c26472f802eec47404e60d4f1eaa9f23bf8d8b73&apikey=IK3GCCMPQXTRIEGBAXQ9DUFWIUR524K3MW
  response:
    body:
      string: '{"jsonrpc":"2.0","id":1,"result":{"blockHash":"0x84b286a21097cdb7bdf1c3b56ed7a649e504dcf32ad150ea4bae9d958914bea2","blockNumber":"0x3ca0a6a","contractAddress":null,"cumulativeGasUsed":"0x1deb4","from":"0x2b888954421b424c5d3d9ce9bb67c9bd47537d12","gasUsed":"0x1deb4","l1Fee":"0xb952494ca518","l1FeeScalar":"1","l1GasPrice":"0x35fd06472","l1GasUsed":"0x36ec","logs":[{"address":"0x4200000000000000000000000000000000000042","topics":["0xddf252ad1be2c89b69c2b068fc378daa952ba7f163c4a11628f55a4df523b3ef","0x000000000000000000000000fedfaf1a10335448b7fa0268f56d2b44dbd357de","0x0000000000000000000000002b888954421b424c5d3d9ce9bb67c9bd47537d12"],"data":"0x00000000000000000000000000000000000000000000002cdf7994c054240000","blockNumber":"0x3ca0a6a","transactionHash":"0xda810d7e1757c6ce7387b437c26472f802eec47404e60d4f1eaa9f23bf8d8b73","transactionIndex":"0x0","blockHash":"0x84b286a21097cdb7bdf1c3b56ed7a649e504dcf32ad150ea4bae9d958914bea2","logIndex":"0x0","removed":false},{"address":"0x4200000000000000000000000000000000000042","topics":["0xdec2bacdd2f05b59de34da9b523dff8be42e5e38e818c82fdb0bae774387a724","0x0000000000000000000000002b888954421b424c5d3d9ce9bb67c9bd47537d12"],"data":"0x00000000000000000000000000000000000000000000bee2784937ab1fbaa42500000000000000000000000000000000000000000000bf0f57c2cc6b73dea425","blockNumber":"0x3ca0a6a","transactionHash":"0xda810d7e1757c6ce7387b437c26472f802eec47404e60d4f1eaa9f23bf8d8b73","transactionIndex":"0x0","blockHash":"0x84b286a21097cdb7bdf1c3b56ed7a649e504dcf32ad150ea4bae9d958914bea2","logIndex":"0x1","removed":false},{"address":"0xfedfaf1a10335448b7fa0268f56d2b44dbd357de","topics":["0x4ec90e965519d92681267467f775ada5bd214aa92c0dc93d90a5e880ce9ed026"],"data":"0x000000000000000000000000000000000000000000000000000000000000a3450000000000000000000000002b888954421b424c5d3d9ce9bb67c9bd47537d1200000000000000000000000000000000000000000000002cdf7994c054240000","blockNumber":"0x3ca0a6a","transactionHash":"0xda810d7e1757c6ce7387b437c26472f802eec47404e60d4f1eaa9f23bf8d8b73","transactionIndex":"0x0","blockHash":"0x84b286a21097cdb7bdf1c3b56ed7a649e504dcf32ad150ea4bae9d958914bea2","logIndex":"0x2","removed":false}],"logsBloom":"0x00000000000000000000008000000000000000000000000000000000000000000000000000000200000000000002000000000000000000000000000200000040020000000000000020000008000000000000000000000000000000000400000000000000000000800040000000000040000000000000000000000010000000000000100000000000000000000000000000000000000000000000000000000000040000000000000000040000000000000000000000000000000001000000000000000002000000000000000000000000008000000000000000000000000000800000000000000000000000000000000000000000000020000000000000000000","status":"0x1","to":"0xfedfaf1a10335448b7fa0268f56d2b44dbd357de","transactionHash":"0xda810d7e1757c6ce7387b437c26472f802eec47404e60d4f1eaa9f23bf8d8b73","transactionIndex":"0x0"}}

        '
    headers:
      Access-Control-Allow-Headers:
      - Content-Type
      Access-Control-Allow-Methods:
      - GET, POST, OPTIONS
      Access-Control-Allow-Origin:
      - '*'
      CF-Cache-Status:
      - DYNAMIC
      CF-RAY:
      - 7a13478a8a5aca2f-HAM
      Cache-Control:
      - private
      Connection:
      - keep-alive
      Content-Type:
      - application/json; charset=utf-8
      Date:
      - Wed, 01 Mar 2023 17:56:56 GMT
      Server:
      - cloudflare
      Vary:
      - Accept-Encoding
      X-Frame-Options:
      - SAMEORIGIN
      alt-svc:
      - h3=":443"; ma=86400, h3-29=":443"; ma=86400
      content-length:
      - '2868'
    status:
      code: 200
      message: OK
- request:
    body: null
    headers:
      Accept:
      - '*/*'
      Accept-Encoding:
      - gzip, deflate
      Connection:
      - keep-alive
      User-Agent:
      - rotki/1.27.2.dev11+ge6773788b.d20230228
    method: GET
    uri: https://api-optimistic.etherscan.io/api?module=account&action=txlistinternal&sort=asc&txHash=0xda810d7e1757c6ce7387b437c26472f802eec47404e60d4f1eaa9f23bf8d8b73&apikey=IK3GCCMPQXTRIEGBAXQ9DUFWIUR524K3MW
  response:
    body:
      string: '{"status":"0","message":"No transactions found","result":[]}'
    headers:
      Access-Control-Allow-Headers:
      - Content-Type
      Access-Control-Allow-Methods:
      - GET, POST, OPTIONS
      Access-Control-Allow-Origin:
      - '*'
      CF-Cache-Status:
      - DYNAMIC
      CF-RAY:
      - 7a13478bab2bca2f-HAM
      Cache-Control:
      - private
      Connection:
      - keep-alive
      Content-Type:
      - application/json; charset=utf-8
      Date:
      - Wed, 01 Mar 2023 17:56:56 GMT
      Server:
      - cloudflare
      Vary:
      - Accept-Encoding
      X-Frame-Options:
      - SAMEORIGIN
      alt-svc:
      - h3=":443"; ma=86400, h3-29=":443"; ma=86400
      content-length:
      - '60'
    status:
      code: 200
      message: OK
version: 1
