interactions:
- request:
    body: '{"id": 0, "jsonrpc": "2.0", "method": "eth_getTransactionByHash", "params":
      ["0xa2f971ba5af848948e0930ab0f86b70751d595e7c79111aa863681a117924e71"]}'
    headers:
      Accept:
      - '*/*'
      Accept-Encoding:
      - gzip, deflate
      Connection:
      - keep-alive
      Content-Length:
      - '147'
      Content-Type:
      - application/json
      User-Agent:
      - rotki/1.42.1.dev192+g7b2836aa8f.d20260310
    method: POST
    uri: https://explorer.optimism.io/api/eth-rpc
  response:
    body:
      string: '{"jsonrpc":"2.0","result": {"accessList":[],"blockHash":"0x08a370790ae18ed36482f82f29b8024504671e1d54cc00d3d2782a64d0c05545","blockNumber":"0x867f7e1","chainId":"0xa","from":"0xc37b40abdb939635068d3c5f13e7faf686f03b65","gas":"0x177a88","gasPrice":"0x29e","hash":"0xa2f971ba5af848948e0930ab0f86b70751d595e7c79111aa863681a117924e71","input":"0xba677db700000000000000000000000000000000000000000000000000000000000000e000000000000000000000000000000000000000000000000000000000000003a000000000000000000000000000000000000000000000000000000834126468690000000000000000000000000000000000000000000000000000000068c3ca8b000000000000000000000000000000000000000000000000000000000000001b4cbe1e33be95044fc277f261b3197a79c3de60860074010a2f166e68567c670b31caf706e79039b9f9f1438cae0b8c2d3613c1cc4dba97ffac12798d09fdbae9000000000000000000000000000000000000000000000000000000000000000700000000000000000000000000000000000000000000000000000000000000e00000000000000000000000000000000000000000000000000000000000000120000000000000000000000000000000000000000000000000000000000000016000000000000000000000000000000000000000000000000000000000000001a000000000000000000000000000000000000000000000000000000000000001e000000000000000000000000000000000000000000000000000000000000002200000000000000000000000000000000000000000000000000000000000000260000000000000000000000000000000000000000000000000000000000000000153000000000000000000000000000000000000000000000000000000000000000000000000000000000000000000000000000000000000000000000000000001530000000000000000000000000000000000000000000000000000000000000000000000000000000000000000000000000000000000000000000000000000024c4d00000000000000000000000000000000000000000000000000000000000000000000000000000000000000000000000000000000000000000000000000015300000000000000000000000000000000000000000000000000000000000000000000000000000000000000000000000000000000000000000000000000000153000000000000000000000000000000000000000000000000000000000000000000000000000000000000000000000000000000000000000000000000000002425500000000000000000000000000000000000000000000000000000000000000000000000000000000000000000000000000000000000000000000000000015300000000000000000000000000000000000000000000000000000000000000000000000000000000000000000000000000000000000000000000000000000700000000000000000000000000000000000000000000000000000000000000e000000000000000000000000000000000000000000000000000000000000002200000000000000000000000000000000000000000000000000000000000000360000000000000000000000000000000000000000000000000000000000000046000000000000000000000000000000000000000000000000000000000000005a000000000000000000000000000000000000000000000000000000000000006e000000000000000000000000000000000000000000000000000000000000007e000000000000000000000000000000000000000000000000000000000000001200000000000000000000000000b2c639c533813f4aa9d7837caf62653d097ff85000000000000000000000000000000000000000000000000000000000724aec0000000000000000000000000c37b40abdb939635068d3c5f13e7faf686f03b65000000000000000000000000000000000000000000000000000000000000000000000000000000000000000003771e24b7c9172d163bf447490b142a15be34850000000000000000000000000000000000000000000000067e451c27eb6870ee00000000000000000000000000000000000000000000000000000000000000010000000000000000000000000000000000000000000000000000000000000000000000000000000000000000c37b40abdb939635068d3c5f13e7faf686f03b650000000000000000000000000000000000000000000000000000000000000120000000000000000000000000c52d7f23a2e460248db6ee192cb23dd12bddcbf6ffffffffffffffffffffffffffffffffffffffffffffffffffffffffffffffff00000000000000000000000000000000000000000000000000000000000000000000000000000000000000000000000000000000000000000000000000000000000000000000000000000000d1b30ba128573fcd7d141c8a987961b40e047bb6000000000000000000000000000000000000000000000000000000000722a50a00000000000000000000000000000000000000000000000000000000000000000000000000000000000000000000000000000000000000000000000000000001000000000000000000000000000000000000000000000000000000000000000000000000000000000000000000000000000000000000000000000000000000e000000000000000000000000094b008aa00579c1307b0ef2c499ad98a8ce58e58ffffffffffffffffffffffffffffffffffffffffffffffffffffffffffffffff000000000000000000000000000000000000000000000000000000000000000000000000000000000000000000000000000000000000000000000000000000000000000000000000000000000000000000000000000000000000000000000092000000000000000000000000000000000000000000000000000000000000000000000000000000000000000000000000000000000000000000000000000000000000000000000000000000000000000000000000000000000000000000000120000000000000000000000000d0b4799f3780193fca7bd7b5a035bdb1c75fe41dffffffffffffffffffffffffffffffffffffffffffffffffffffffffffffffff00000000000000000000000000000000000000000000000000000000000000000000000000000000000000000000000000000000000000000000000000000000000000000000000000000000d9bf67d8a5d698a028160f62480d456801f0b4b10000000000000000000000000000000000000000000000067ee71210f3dcbedb0000000000000000000000000000000000000000000000000000000000000001000000000000000000000000000000000000000000000000000000000000000000000000000000000000000000000000000000000000000000000000000000000000000000000000000000000000000000000000000000000000000000000120000000000000000000000000f1232a1ab5661abdd6e02c6d8ac9940a23bb0b84ffffffffffffffffffffffffffffffffffffffffffffffffffffffffffffffff0000000000000000000000000000000000000000000000000000000000000000000000000000000000000000000000000000000000000000000000000000000000000000000000000000000020c2e44bbbea698da4a4cb687514e663859966390000000000000000000000000000000000000000000000066a3c5605240299b700000000000000000000000000000000000000000000000000000000000000000000000000000000000000000000000000000000000000000000000000000001000000000000000000000000000000000000000000000000000000000000000000000000000000000000000000000000000000000000000000000000000000e0000000000000000000000000005afeb98fb359aab1769b095ca1da6c6db4ec27ffffffffffffffffffffffffffffffffffffffffffffffffffffffffffffffff0000000000000000000000000000000000000000000000000000000000000000000000000000000000000000000000000000000000000000000000000000000000000000000000000000000000000000000000000000000000000000000000640000000000000000000000000000000000000000000000000000000000000000000000000000000000000000000000000000000000000000000000000000000000000000000000000000000000000000000000000000000000000000000001200000000000000000000000001337bedc9d22ecbe766df105c9623922a27963ecffffffffffffffffffffffffffffffffffffffffffffffffffffffffffffffff0000000000000000000000000000000000000000000000000000000000000000000000000000000000000000c37b40abdb939635068d3c5f13e7faf686f03b65000000000000000000000000056c6c5e684cec248635ed86033378cc444459b0000000000000000000000000000000000000000000000005823f067022075503000000000000000000000000000000000000000000000000000000000000000100000000000000000000000000000000000000000000000000000000000000000000000000000000000000000000000000000000000000000000000000000000","maxFeePerGas":"0x343","maxPriorityFeePerGas":"0x5","nonce":"0x7d","r":"0x1f4537f77336ad0e0e068ebf6af6e40eae01a255c77d5688233c6ccb6ee04d08","s":"0x29962d80b8e2928f45c42ad4578aa1af123ba1c1eaa677aa00efd05a2b5051ca","to":"0xa2a786ff9148f7c88ee93372db8cbe9e94585c74","transactionIndex":"0x23","type":"0x2","v":"0x0","value":"0x83412646869","yParity":"0x0"},"id":
        0}

        '
    headers:
      CF-RAY:
      - 9da1bdefbe821960-MAD
      Cache-Control:
      - max-age=0, private, must-revalidate
      Connection:
      - keep-alive
      Content-Type:
      - application/json; charset=utf-8
      Date:
      - Tue, 10 Mar 2026 10:47:33 GMT
      Nel:
      - '{"report_to":"cf-nel","success_fraction":0.0,"max_age":604800}'
      Report-To:
      - '{"group":"cf-nel","max_age":604800,"endpoints":[{"url":"https://a.nel.cloudflare.com/report/v4?s=ijgWhHg%2FhFzwK7x8XvBButBIYEZ13yAjXls0kM5K2CYXAzploG%2FLqf00fbCLpiMVvty9b4O6fl6Jx1kWnjS3aUnF10UwayHmcpgitip9T7xGcnfx"}]}'
      Server:
      - cloudflare
      Transfer-Encoding:
      - chunked
      access-control-allow-credentials:
      - 'true'
      access-control-allow-origin:
      - '*'
      access-control-expose-headers:
      - bypass-429-option,x-ratelimit-reset,x-ratelimit-limit,x-ratelimit-remaining,api-v2-temp-token
      alt-svc:
      - h3=":443"; ma=86400
      bypass-429-option:
      - no_bypass
      cf-cache-status:
      - DYNAMIC
      content-length:
      - '7306'
      strict-transport-security:
      - max-age=31536000; includeSubDomains
      x-ratelimit-limit:
      - '600'
      x-ratelimit-remaining:
      - '599'
      x-ratelimit-reset:
      - '26900'
      x-request-id:
      - 2183ac8f668cfc282f34820c02f2a702
    status:
      code: 200
      message: OK
- request:
    body: '{"id": 0, "jsonrpc": "2.0", "method": "eth_getBlockByNumber", "params":
      ["0x867f7e1", true]}'
    headers:
      Accept:
      - '*/*'
      Accept-Encoding:
      - gzip, deflate
      Connection:
      - keep-alive
      Content-Length:
      - '92'
      Content-Type:
      - application/json
      User-Agent:
      - rotki/1.42.1.dev192+g7b2836aa8f.d20260310
    method: POST
    uri: https://explorer.optimism.io/api/eth-rpc
  response:
    body:
      string: '{"jsonrpc":"2.0","result": {"baseFeePerGas":"0x299","blobGasUsed":"0x0","difficulty":"0x0","excessBlobGas":"0x0","extraData":"0x00000000fa00000002","gasLimit":"0x2625a00","gasUsed":"0x2490617","hash":"0x08a370790ae18ed36482f82f29b8024504671e1d54cc00d3d2782a64d0c05545","logsBloom":"0xe3f3704691051501a91a14a01338a86214c00a8d144a95009e7d884248c42511055c1a892f0300148226e0da61a371300554c254862362ca07f00471c7685a482250389aa7487a8a258074ac9d0800213690240f00640fb2f47d9a50ab8811111dd44b05964414c51adc606b01681a318121df0fe91c443418089256cd0b5f484930216918aa20805129331281096d62d305b11f42234569491c64745b50045182782390200a448a8d1f416b22e8a0402726219e9089c34a5dc211d9e0c099caa1000a4371000c2339400fc6994230c0b0bf69de89f8030ca8fd621a1812689022942a09a0a683b0785ac1ce04921172df80430494a209c4bd2a19870015eb06","miner":"0x4200000000000000000000000000000000000011","mixHash":"0x2c57b52d14cb2d2efbca287f7ec639a0820f12d4f8ef2a71b01bb62b92b23e21","nonce":"0x0000000000000000","number":"0x867f7e1","parentBeaconBlockRoot":"0x11a8841bb99d08132de9b1a49a5f8c26de443108d86ebafb80810b140ce856d9","parentHash":"0x364f85f2f37792087b1769d20d936ae1f0b4699762775716fdeefec60e16c2b7","receiptsRoot":"0x8e4d52c4c205dcc54d86729ab2894d7b9b11585033945d713f71c61b491f8003","requestsHash":"0xe3b0c44298fc1c149afbf4c8996fb92427ae41e4649b934ca495991b7852b855","sha3Uncles":"0x1dcc4de8dec75d7aab85b567b6ccd41ad312451b948a7413f0a142fd40d49347","size":"0xd958","stateRoot":"0xfa105d71517679b52677062e52aaa9c084a1a1171798f94aa7e5ffc1d5aefacb","timestamp":"0x68c3c97b","transactions":[{"blockHash":"0x08a370790ae18ed36482f82f29b8024504671e1d54cc00d3d2782a64d0c05545","blockNumber":"0x867f7e1","depositReceiptVersion":"0x1","from":"0xdeaddeaddeaddeaddeaddeaddeaddeaddead0001","gas":"0xf4240","gasPrice":"0x0","hash":"0x03281b00eb6edddaa983f02267ae2307b3010aefadb242f42c2accd8deb104fd","input":"0x098999be0000146b000f79c500000000000000000000000068c3c933000000000164391c000000000000000000000000000000000000000000000000000000000d5240b3000000000000000000000000000000000000000000000000000000000000000196ad9fc6da10e60e783d174dd0df4ec4eea124b7d5ba450f3dacf851d020a1f10000000000000000000000006887246668a3b87f54deb3b94ba47a6f63f32985000000000000000000000000","mint":"0x0","nonce":"0x222356c","r":"0x0","s":"0x0","sourceHash":"0x752c6bdf16915e11e2bc99b8bc674679cf6fff9e2dd6e594e8713b3a5c399bb7","to":"0x4200000000000000000000000000000000000015","transactionIndex":"0x0","type":"0x7e","v":"0x0","value":"0x0","yParity":"0x0"},{"blockHash":"0x08a370790ae18ed36482f82f29b8024504671e1d54cc00d3d2782a64d0c05545","blockNumber":"0x867f7e1","chainId":"0xa","from":"0xe3e73f1aa65eeb809ff1f41f3c09c65ba0aa90e5","gas":"0xf4240","gasPrice":"0x21352b9","hash":"0x36c164708bef5acabe38420273677e67c267b307741d6ed83f49237fcd401c0a","input":"0x000000d263f9f959b39900000000000039ecac3f7d30f82e8755da388d630000000000100b39da","nonce":"0x138f66","r":"0x8c8d4d5bb092c74a345731b1c99b35df1663ed30da5595bbb935ccc2cb6d79e6","s":"0x671d1a2208179a993969df138b2efe8737b5e3970c189d06aab60fa73cf7f066","to":"0x0800af460a1b8c8daf01f756de8d9d0a58106701","transactionIndex":"0x1","type":"0x0","v":"0x37","value":"0x0"},{"accessList":[],"blockHash":"0x08a370790ae18ed36482f82f29b8024504671e1d54cc00d3d2782a64d0c05545","blockNumber":"0x867f7e1","chainId":"0xa","from":"0x3256295a58b291bf09fb955dbf30d6ba5642ca62","gas":"0x927c2","gasPrice":"0x17dde28","hash":"0xd9f519529af71754e7f4580db9f0d56a8f977eaa37488e6349feff3738b2a84b","input":"0xa00597a000000000000000000000000000000000000000000000000000325065d567e7ac00000000000000000000000000000000000039ef147dc96c96ad0d6810f4b7a600000000000000000000000042000000000000000000000000000000000000060000000000000000000000000000000000000000000000000000000000000000000000000000000000000000a9f987869bfe56d3a2ece2e79df55684d0bbcd8b0000000000000000000000000000000000000000000000000000000068c3ca2d","maxFeePerGas":"0x17de0c5","maxPriorityFeePerGas":"0x17ddb8f","nonce":"0x2736c","r":"0x772a2dc07496b51d2f936a56594361d370d3961f290b25f921ffa883dbcd8015","s":"0x37835650bad85b3567f74824731d10c06c2befe9729e3ab1f5e7fc86e0d197e8","to":"0x802b65b5d9016621e66003aed0b16615093f328b","transactionIndex":"0x2","type":"0x2","v":"0x0","value":"0x0","yParity":"0x0"},{"accessList":[],"blockHash":"0x08a370790ae18ed36482f82f29b8024504671e1d54cc00d3d2782a64d0c05545","blockNumber":"0x867f7e1","chainId":"0xa","from":"0x0a7832d7ec2a01b5b70fb9c84868202f8ea732d4","gas":"0x16e360","gasPrice":"0x1312f99","hash":"0x8f9c253c1596b660f08fcf5f25ecb32fba7d0110eeee0136f233ae0723b19570","input":"0xdb52e26000000000000000000000000000000000000000000000000000000000000f4240","maxFeePerGas":"0x3b9aca00","maxPriorityFeePerGas":"0x1312d00","nonce":"0x84c0f","r":"0x6caf5d54c7c9fc44bd5c1f7288aca5dc7c16ffb90aebc4500824850bda8f1540","s":"0x928616f0d9de1fd51ec48e98125a1191a8ae7c98beb171a6c191e935fb4c23d","to":"0x3cdbbc3eca52a65998b021c67982bc72b2decef0","transactionIndex":"0x3","type":"0x2","v":"0x1","value":"0x0","yParity":"0x1"},{"accessList":[],"blockHash":"0x08a370790ae18ed36482f82f29b8024504671e1d54cc00d3d2782a64d0c05545","blockNumber":"0x867f7e1","chainId":"0xa","from":"0xaf5507b353bb141c8e504f49a42baf497587a213","gas":"0x989680","gasPrice":"0x179f8a","hash":"0x670ad23ea3fa7968cbdb340764e0dc565fa338129e06461c138b31779a09bcb5","input":"0x00000000000068c3c9801c70da903317693886ae3f6b266f8494daf85149afdd88cff41c5a688f099f9ec82aa9ea141bdb37a09084e1f42bb325ba1e1325c2dc61fe12b3a5c7f58d94ee48fbb704d1d55528b587fe5fbaabd942134aef1ed1a772ad70241d9a141e2a2d192703319c0dd36284ac24a6b2bee73929f699b9f48c3800019f000064fbfe2f03cf50dea65ee80ebddaa61005a960ef5a5c995a99000190000064feec8b03478946bcd4a5a22b316470f5486fafb928c0ba2500019f00006402ee620285c31ffa3706d1cce9d525a00f1c7d4a2911754c0001f400000a000000034dc22588ade05c40338a9d95a6da9dcee68bcd600001ae0000c801525a03e5cf854f63152067059afd38e03fefb6cbe25df3000bb80000c80159de03bf30ff33cf9c6b0c48702ff17891293b002dfea400005a000001000773021fb3cf6e48f1e7b10213e7b6d87d4c073c7fdb7b0001f400000a000000022b959ccb3c8fc1ed7769004742c197e28251027e00004100000100000003ee1bac98527a9fdd57fccf967817215b083ce1f000019f00006402e6e90294687f50a6d6d01f63a60ba5b591e8163018b512000bb800003c00000000b3c8940f45f0bb0a7d8b54c341d414a881008574000bb800000000000002fdf64c32f4a03923547e6061911483b793e8d7e20027100000c800000000d77b31796b7ce1880f84709eb5d9045749bb3d31000bb800000000000004b54fb03cd65ee6f1214420e9ae50ce60f527f0f9fafff6a2354dbef56dda80c00027100000c8000000041298e22b83e87b363b453a10995c98762558d8aa042348f2c41650fa808cd05b0027100000c800000003f7f575f2c0f6c99fa9efe1bde9e11fa10be4fef900006400000100000503a9f987869bfe56d3a2ece2e79df55684d0bbcd8b0001f400006402ee62020e09db9fd122a71c237a094d2d1bd44d48339f3400006400000100000002c1738d90e2e26c35784a0d3e3d8a9f795074bca4000bb800003c0000000339ed27d101aa4b7ce1cb4293b877954b8b5e14e5000bd10000c801bbb0037cfc2da3ba598ef4de692905fedca32565ab836e000bc70000c804aa0b02b533c12fb4e7b53b5524eab9b47d93ff6c7a456f000bb800003c000000022ae3d6096d8215ac2acddf30c60caa984ea5debe000bb800003c000000034e5541815227e3272c405886149f45d2f437c7ff000ba90000c804224503ebd5311bea1948e1441333976eadcfe5fbda777c000aa00000c80440c60236e42931a765022790b797963e42c5522d6b585a0027100000c8000000018f47041adbef5bf321c9f63a0660326614ab6b6000271000000000000002dc6cb16b8d635ef255cef370263c35ac0007186a0027100000c80000000268f5c0a2de713a54991e01858fd27a3832401849000bb800003c00000002fc1f3296458f9b2a27a0b91dd7681c4020e09d050001f400000a00000002adab76dd2dca7ae080a796f0ce86170e482afb4a000bb800003c00000001a0a215de234276cac1b844fd58901351a50fec8a002328000000000000033c01ec09d15d5450fc702dc4353b17cd2978d8a500006400000104388502adb35413ec50e0afe41039eac8b930d313e94fa40001f400000a00000002d28f71e383e93c570d3edfe82ebbceb35ec6c41200006400000100000002e612cb2b5644aef0ad3e922bae70a8374c63515f00006400000100000003ec3d9098bd40ec741676fc04d4bd26bccf592aa3000bb80000c8ff81a204be6f020332287f77a2d73520a9f9e925ecd79785aadeef00507e77c69cb5a900000bb800003c0000001903000001010002010200000103000300040105000601020007000201030102010800090002000a010b0004000c010d000e010f0003000700100011010300020010001101030011001201130103001401150002010300020016010400030017011800020102011601190002001a011b00020118011c00020004011d00020004011e00030007001f0100000300140120000201030121012201230003000001240125000201120010010300020012001101020011002600","maxFeePerGas":"0x3938700","maxPriorityFeePerGas":"0x179cf1","nonce":"0x6d83","r":"0x4fd751118f44fb62b4fec490a9515b66743764701ee7eb93a959125c5222b36c","s":"0x427d399199a1f9f4569a9351e5981808bfc2bd5bb69030b4f04b3ec8c1b2488e","to":"0xa41b099535da7aa7fde4aa952791dad850fb1f4c","transactionIndex":"0x4","type":"0x2","v":"0x1","value":"0x0","yParity":"0x1"},{"accessList":[],"blockHash":"0x08a370790ae18ed36482f82f29b8024504671e1d54cc00d3d2782a64d0c05545","blockNumber":"0x867f7e1","chainId":"0xa","from":"0xaf5507b353bb141c8e504f49a42baf497587a213","gas":"0x989680","gasPrice":"0x177f80","hash":"0x43271c37ed5c2c1c994434506958947cf454967ece1ad98fcf8844fca267e775","input":"0x00000000000068c3c9821ce6701cb9d05629bba0c1feeaa38bc17ef385ced65f6023e7d8bea0ca711afb0f3f153cd5f2117bc7f770b8abaf5b4bf3e047d2191bc028a1cb6951bee48390d3fcc5dbb73c201899a6a1142eaa4d10f5f87c125e9d4080de635d0c8a5b93d6182703319c0dd36284ac24a6b2bee73929f699b9f48c3800019f000064fbfe2f03cf50dea65ee80ebddaa61005a960ef5a5c995a99000190000064feec8b03478946bcd4a5a22b316470f5486fafb928c0ba2500019f00006402ee620285c31ffa3706d1cce9d525a00f1c7d4a2911754c0001f400000a000000034dc22588ade05c40338a9d95a6da9dcee68bcd600001ae0000c801525a03e5cf854f63152067059afd38e03fefb6cbe25df3000bb80000c80159de03bf30ff33cf9c6b0c48702ff17891293b002dfea400005a000001000773021fb3cf6e48f1e7b10213e7b6d87d4c073c7fdb7b0001f400000a000000022b959ccb3c8fc1ed7769004742c197e28251027e00004100000100000003ee1bac98527a9fdd57fccf967817215b083ce1f000019f00006402e6e90294687f50a6d6d01f63a60ba5b591e8163018b512000bb800003c00000000b3c8940f45f0bb0a7d8b54c341d414a881008574000bb800000000000002fdf64c32f4a03923547e6061911483b793e8d7e20027100000c800000000d77b31796b7ce1880f84709eb5d9045749bb3d31000bb800000000000004b54fb03cd65ee6f1214420e9ae50ce60f527f0f9fafff6a2354dbef56dda80c00027100000c8000000041298e22b83e87b363b453a10995c98762558d8aa042348f2c41650fa808cd05b0027100000c800000003f7f575f2c0f6c99fa9efe1bde9e11fa10be4fef900006400000100000503a9f987869bfe56d3a2ece2e79df55684d0bbcd8b0001f400006402ee62020e09db9fd122a71c237a094d2d1bd44d48339f3400006400000100000002c1738d90e2e26c35784a0d3e3d8a9f795074bca4000bb800003c0000000339ed27d101aa4b7ce1cb4293b877954b8b5e14e5000bd10000c801bbb0037cfc2da3ba598ef4de692905fedca32565ab836e000bc70000c804aa0b02b533c12fb4e7b53b5524eab9b47d93ff6c7a456f000bb800003c000000022ae3d6096d8215ac2acddf30c60caa984ea5debe000bb800003c000000034e5541815227e3272c405886149f45d2f437c7ff000ba90000c804224503ebd5311bea1948e1441333976eadcfe5fbda777c000aa00000c80440c60236e42931a765022790b797963e42c5522d6b585a0027100000c8000000018f47041adbef5bf321c9f63a0660326614ab6b6000271000000000000002dc6cb16b8d635ef255cef370263c35ac0007186a0027100000c80000000268f5c0a2de713a54991e01858fd27a3832401849000bb800003c00000002fc1f3296458f9b2a27a0b91dd7681c4020e09d050001f400000a00000002adab76dd2dca7ae080a796f0ce86170e482afb4a000bb800003c00000001a0a215de234276cac1b844fd58901351a50fec8a002328000000000000033c01ec09d15d5450fc702dc4353b17cd2978d8a500006400000104388502adb35413ec50e0afe41039eac8b930d313e94fa40001f400000a00000002d28f71e383e93c570d3edfe82ebbceb35ec6c41200006400000100000002e612cb2b5644aef0ad3e922bae70a8374c63515f00006400000100000003ec3d9098bd40ec741676fc04d4bd26bccf592aa3000bb80000c8ff81a204be6f020332287f77a2d73520a9f9e925ecd79785aadeef00507e77c69cb5a900000bb800003c0000001903000001010002010200000103000300040105000601020007000201030102010800090002000a010b0004000c010d000e010f0003000700100011010300020010001101030011001201130103001401150002010300020016010400030017011800020102011601190002001a011b00020118011c00020004011d00020004011e00030007001f0100000300140120000201030121012201230003000001240125000201120010010300020012001101020011002600","maxFeePerGas":"0x3938700","maxPriorityFeePerGas":"0x177ce7","nonce":"0x6d84","r":"0x176bfda3e43d964dc103b7a4a46b05928f49ee71a7e21022d8ffa3f187de50f1","s":"0x6cb1112b2ec147926266b8e95180b896ef4d7ff788267e564d3f6c26ae4c5987","to":"0xa41b099535da7aa7fde4aa952791dad850fb1f4c","transactionIndex":"0x5","type":"0x2","v":"0x1","value":"0x0","yParity":"0x1"},{"blockHash":"0x08a370790ae18ed36482f82f29b8024504671e1d54cc00d3d2782a64d0c05545","blockNumber":"0x867f7e1","chainId":"0xa","from":"0xb8ff877ed78ba520ece21b1de7843a8a57ca47cb","gas":"0x6662a","gasPrice":"0x12529c","hash":"0x1f227319f3f022428df1132e3f0dac9e090c1ab2e327162fa2bfefb3a3369890","input":"0xb143044b000000000000000000000000000000000000000000000000000000000000002000000000000000000000000000000000000000000000000000000000000000010000000000000000000000000000000000000000000000000000000000000020000000000000000000000000000000000000000000000000000000000000006f0000000000000000000000003c4962ff6258dcfcafd23a814237b7d6eb71206300000000000000000000000000000000000000000000000000000000000000a00000000000000000000000000000000000000000000000000000000068c41dd500000000000000000000000000000000000000000000000000000000000001c000000000000000000000000000000000000000000000000000000000000000e40223536e00000000000000000000000000000000000000000000000000000000000000600a02cd8b230bcc36042f58463b07c6adddebebf477c3fd760e30ae6fa39d73f0000000000000000000000000000000000000000000000000000000000000001e000000000000000000000000000000000000000000000000000000000000005101000000000000aa8200007671000000000000000000000000fd1e52ac0203b63c6628baa53f242c8ba952fe910000759f0000000000000000000000008efbdff3bae9a3ed3c0ac7ad86bebf9aee46086f0000000000000000000000000000000000000000000000000000000000000000000000000000000000000000000000000000000000000000000000000000000000000000000000000000413fbb2dad14c4a2716db254a1065c287b0aad9e55f3aeb4cbf6888d61b17ed79e183b42f13cf7e609bf144006891e281d4b99c70ae2b1078ae09a28e3353d8d901b00000000000000000000000000000000000000000000000000000000000000","nonce":"0x73cb12","r":"0xf1a2936037b1dabd267175f484a43737337067fbb49c52dd9007e241c52b7968","s":"0x6df0847f8a59ac65eee999c8062d79a415b73a6e1781725664798bf2d845ce21","to":"0xa7b5189bca84cd304d8553977c7c614329750d99","transactionIndex":"0x6","type":"0x0","v":"0x37","value":"0x0"},{"blockHash":"0x08a370790ae18ed36482f82f29b8024504671e1d54cc00d3d2782a64d0c05545","blockNumber":"0x867f7e1","chainId":"0xa","from":"0xb8ff877ed78ba520ece21b1de7843a8a57ca47cb","gas":"0x6662a","gasPrice":"0x12529c","hash":"0x39620a13b5d5cacc80ffabdcca605179273037b6b610b5f6defeb4dc1f4a7f3c","input":"0xb143044b000000000000000000000000000000000000000000000000000000000000002000000000000000000000000000000000000000000000000000000000000000010000000000000000000000000000000000000000000000000000000000000020000000000000000000000000000000000000000000000000000000000000006f0000000000000000000000003c4962ff6258dcfcafd23a814237b7d6eb71206300000000000000000000000000000000000000000000000000000000000000a00000000000000000000000000000000000000000000000000000000068c41dd700000000000000000000000000000000000000000000000000000000000001c000000000000000000000000000000000000000000000000000000000000000e40223536e00000000000000000000000000000000000000000000000000000000000000600a02cd8b230bcc36042f58463b07c6adddebebf477c3fd760e30ae6fa39d73f0000000000000000000000000000000000000000000000000000000000000001e000000000000000000000000000000000000000000000000000000000000005101000000000000aa8200007671000000000000000000000000fd1e52ac0203b63c6628baa53f242c8ba952fe910000759f0000000000000000000000008efbdff3bae9a3ed3c0ac7ad86bebf9aee46086f0000000000000000000000000000000000000000000000000000000000000000000000000000000000000000000000000000000000000000000000000000000000000000000000000000417f0ea9523b387fff356686947c0598a2952ef7175a70ecc5d7822c6cdae3aadd25d5e318ccba305372d1112f33d36f2733d1a70c5e7666920a06ffed64a73d4f1c00000000000000000000000000000000000000000000000000000000000000","nonce":"0x73cb13","r":"0xd230cdbd83e2b319875b8b6db91d549f57f5eadc9199f785c88e913c2f0011c4","s":"0x2d9c3eea74c2cd6d96b01cabca27aefa9713cbe4fb42ef2755f226271feb9003","to":"0xfe6507f094155cabb4784403cd784c2df04122dd","transactionIndex":"0x7","type":"0x0","v":"0x38","value":"0x0"},{"accessList":[],"blockHash":"0x08a370790ae18ed36482f82f29b8024504671e1d54cc00d3d2782a64d0c05545","blockNumber":"0x867f7e1","chainId":"0xa","from":"0xa2f2cb3474f2f1f2f9f8bd96ebbfee5554a8bb3d","gas":"0x99bb8","gasPrice":"0xf44d9","hash":"0x9d7642799e32eebd6154d87fc33aa236c7323bebd544fee7b0ec61f1c6800257","input":"0x2e1a7d4d00000000000000000000000000000000000000000000000000000000003936df","maxFeePerGas":"0xf44d9","maxPriorityFeePerGas":"0xf44d9","nonce":"0x45c7","r":"0x9f3a728c2d537080b42fa55255b444a748801935dc6f58ed6787cbb94544cca7","s":"0x718090506abfc8aadb51169f7ae96bcf02de3ada44b863ac37faed50ff74774c","to":"0xa75127121d28a9bf848f3b70e7eea26570aa7700","transactionIndex":"0x8","type":"0x2","v":"0x1","value":"0x0","yParity":"0x1"},{"accessList":[],"blockHash":"0x08a370790ae18ed36482f82f29b8024504671e1d54cc00d3d2782a64d0c05545","blockNumber":"0x867f7e1","chainId":"0xa","from":"0xd9bc656ddef8840407e79481af8830ce48cf2cf9","gas":"0xb71b00","gasPrice":"0xf44d9","hash":"0x89f6d24bc6fa7afe35fbf0a8c4de9f628f826c1469f63a3215ac26b7ace44b56","input":"0x00000000000068c3c9811bf2ed7f31cea58dbf183d96a750216c7adf30b6bf6f3a18206767186491b1834127ddc43964b094fd45cec14b8178bbf742ba912961e313bbcbc06cbc5eb2e1d5a0a5b39d7920424bd8e7ed842adfec894bc058c2d2578fc66daacb7bfad80ed14b0285c31ffa3706d1cce9d525a00f1c7d4a2911754c0001f400000a000000027d1602f342787f80aef458c10e741149a1697447000bb800003c00000002ad4c666fc170b468b19988959eb931a3676f0e9f000bb800003c0000000203af20bdaaffb4cc0a521796a223f7d85e2aac31000bb800003c0000000226e7fed14a97e0c482a302237971cf1b04f6d3e9000bb800003c000000028e2eaef2c05ef93f424a8324b94e725eaa362f910027100000c8000000021fb3cf6e48f1e7b10213e7b6d87d4c073c7fdb7b0001f400000a00000002a73c628eaf6e283e26a7b1f8001cf186aa4c0e8e00006400000100000002dd0c6bae8ad5998c358b823df15a2a4181da1b80000bb800003c000000020d165f5bcc9cbb9cf75cef8b09cc77b1749a2a3300006400000100000002a8a5356ee5d02fe33d72355e4f698782f8f199e8000064000001000000022b6b093a6c2aba51e078540ad89ed76a0c6716fa000032000001000000034dc22588ade05c40338a9d95a6da9dcee68bcd600001ae0000c801525a0268f5c0a2de713a54991e01858fd27a3832401849000bb800003c0000000204f6c85a1b00f6d9b75f91fd23835974cc07e65c000064000001000000016da98bde0068d10ddd11b468b197ea97d96f96bc0001f400000000000003319c0dd36284ac24a6b2bee73929f699b9f48c3800019f000064fbfe2f03cf50dea65ee80ebddaa61005a960ef5a5c995a99000190000064feec8b03478946bcd4a5a22b316470f5486fafb928c0ba2500019f00006402ee6202394a9fcbab8599437d9ec4e5a4a0eb7cb1fd2f690001f400000a00000003e5cf854f63152067059afd38e03fefb6cbe25df3000bb80000c80159de03bf30ff33cf9c6b0c48702ff17891293b002dfea400005a000001000773045c204f3724cc4dbe95cb53c9a968ae3eee46c3b4092d500770dc9c2a3f44d88b000bb800003c00000003ee1bac98527a9fdd57fccf967817215b083ce1f000019f00006402e6e902b533c12fb4e7b53b5524eab9b47d93ff6c7a456f000bb800003c000000020fb07e6d6e1f52c839608e1436d2ea810cf072570027100000c80000000158e6433a6903886e440ddf519ecc573c4046a6b20027100000000000000384ce89b4f6f67e523a81a82f9f2f14d84b726f6b00005a000001fffffb02c858a329bf053be78d6239c4a4343b8fbd21472b0001f400000a000000022b959ccb3c8fc1ed7769004742c197e28251027e00004100000100000002fdf64c32f4a03923547e6061911483b793e8d7e20027100000c800000000d77b31796b7ce1880f84709eb5d9045749bb3d31000bb800000000000004b54fb03cd65ee6f1214420e9ae50ce60f527f0f9fafff6a2354dbef56dda80c00027100000c8000000041298e22b83e87b363b453a10995c98762558d8aa042348f2c41650fa808cd05b0027100000c8000000033c01ec09d15d5450fc702dc4353b17cd2978d8a500006400000104388502adb35413ec50e0afe41039eac8b930d313e94fa40001f400000a00000002d28f71e383e93c570d3edfe82ebbceb35ec6c4120000640000010000000294687f50a6d6d01f63a60ba5b591e8163018b512000bb800003c00000000b3c8940f45f0bb0a7d8b54c341d414a881008574000bb8000000000000026948263b49caec3b1e7989a9c86de1d0484234dc0027100000c8000000011eaa860dca29a5124f665f7d80affed92e877681000bb800000000000004480f40545dc5d0f203be423a4a7dc94217c00173617abaa22033e413370a66340027100000c800000001dff90e4a6c229565f25337b1db9fa12f6d8cb118000bb800000000000001f4f2657ae744354baca871e56775e5083f7276ab000bb8000000000000032fa71491f8070fa644d97b4782db5734854c0f6f000064000001fffffe03f7f575f2c0f6c99fa9efe1bde9e11fa10be4fef900006400000100000503a9f987869bfe56d3a2ece2e79df55684d0bbcd8b0001f400006402ee62020e09db9fd122a71c237a094d2d1bd44d48339f3400006400000100000001e0b1da86d17b884c4d246e218a67ae3466ad841c000bb800000000000002535541f1aa08416e69dc4d610131099fa2ae7222000bb800003c000000024dbb2d7785654074c53c5a915126d3378446bd61000032000001000000029b0c2660b535a156adf827481b2f9b61f31ebc49000bb800003c000000035483484f876218908ca435f08222751f7f7b2a3b000064000001fffffc03f0ab9385894ea749bfa79bafcd192d65a1571c2a0001f400006402ee5f02c1738d90e2e26c35784a0d3e3d8a9f795074bca4000bb800003c0000000339ed27d101aa4b7ce1cb4293b877954b8b5e14e5000bd10000c801bbb0037cfc2da3ba598ef4de692905fedca32565ab836e000bc70000c804aa0b034e5541815227e3272c405886149f45d2f437c7ff000ba90000c8042245022ae3d6096d8215ac2acddf30c60caa984ea5debe000bb800003c00000003ebd5311bea1948e1441333976eadcfe5fbda777c000aa00000c80440c6023f60fca6c50ae3bcd95ae150b4c57f0ba5c3f2ad000bb800003c00000004ac4115c780e2c68df8a1167fcc2503296feafd75167d9f8fd80705759a221e85000bb800003c0000000236e42931a765022790b797963e42c5522d6b585a0027100000c8000000018f47041adbef5bf321c9f63a0660326614ab6b6000271000000000000002dc6cb16b8d635ef255cef370263c35ac0007186a0027100000c80000000451bf4cc5b8d9f7f759e41f572fe2a25bc2aeb42432bf12544a350595e5c8bb430001f400000a000000022e2d190ad4e0d7be9569baebd4d33298379b05020001f400000a00000002d1f1bad4c9e6c44dec1e9bf3b94902205c5cd6c30027100000c800000002fc1f3296458f9b2a27a0b91dd7681c4020e09d050001f400000a00000002adab76dd2dca7ae080a796f0ce86170e482afb4a000bb800003c00000001a0a215de234276cac1b844fd58901351a50fec8a00232800000000000002e612cb2b5644aef0ad3e922bae70a8374c63515f00006400000100000003ec3d9098bd40ec741676fc04d4bd26bccf592aa3000bb80000c8ff81a204be6f020332287f77a2d73520a9f9e925ecd79785aadeef00507e77c69cb5a900000bb800003c0000000322be4975c78b77979014d6a6bc0140e0eaf219870001f40000640440bb33030000010101020003000301040005000300060007010800030109010a000b0002000c010d0002000e000f01020010010000030010011100120102011301110003000c011400150102000c01160003001200170115010300120018010c00020019011a00020006001201030012001b011c00030112011d00170004001e011f002001210003012201230124000200250126000200270125000300280129002a01020006002b01030109010a002c00030006002d002e01030012002f002e0103000600300131000201320133000300060034013501030012002d002e0103002e002f01360103003701380012010300060039013a0003003a0139001201020118013b0002013c013d0002003e013f0002013901400003003a013900410003014201430140000300060040013a00030006003b010d0002000c014400030006004501100003001d0014010c000300370146001201030010014701480002012f002d0102002e004900040016014a00340012010300120007011c00","maxFeePerGas":"0x3938700","maxPriorityFeePerGas":"0xf4240","nonce":"0x9fb3","r":"0x8161cf75db50abe2b7b5247d720fbc6fed0eaf84f87ce01d456db05994d9964b","s":"0x54c10a399bc850d70b46858b447ffc6ffc93cf364e451286fe8c29e5bbdfe08d","to":"0xa41b099535da7aa7fde4aa952791dad850fb1f4c","transactionIndex":"0x9","type":"0x2","v":"0x1","value":"0x0","yParity":"0x1"},{"accessList":[],"blockHash":"0x08a370790ae18ed36482f82f29b8024504671e1d54cc00d3d2782a64d0c05545","blockNumber":"0x867f7e1","chainId":"0xa","from":"0xd5ba47e66ed7e47630dadde1004a7a3c366b31db","gas":"0x7a1200","gasPrice":"0xf44d9","hash":"0x8cbfbdde23a45dc06c544721f82429faed2071091e21d3a21ae2df12c9ce6e4b","input":"0x0007530c94b008aa00579c1307b0ef2c499ad98a8ce58e58e85d2c93f7e26b99a46a8bb9350cbfb965fa4f820027100000000000000000000000000000000000000000e85d2c93f7e26b99a46a8bb9350cbfb965fa4f82002710000000000000000000000000000000000000000094b008aa00579c1307b0ef2c499ad98a8ce58e580001f494b008aa00579c1307b0ef2c499ad98a8ce58e58ff733b2a3557a7ed6697007ab5d11b79fdd1b76b0181f00b2c639c533813f4aa9d7837caf62653d097ff854200000000000000000000000000000000000042000bb842000000000000000000000000000000000000426fd9d7ad17242c41f7131d257212c54a0e816691000bb80b2c639c533813f4aa9d7837caf62653d097ff852416092f143378750bb29b79ed961ab195cceea500006400000000000000000000000000000000000000002416092f143378750bb29b79ed961ab195cceea50001f494b008aa00579c1307b0ef2c499ad98a8ce58e58f5ff651375b2b5f1b9531061de71781d58533dee000bb80000000000000000000000000000000000000000f5ff651375b2b5f1b9531061de71781d58533dee000bb80b2c639c533813f4aa9d7837caf62653d097ff85edf38688b27036816a50185caa430d5479e1c63e000bb80b2c639c533813f4aa9d7837caf62653d097ff8594b008aa00579c1307b0ef2c499ad98a8ce58e580000192cbf30ff33cf9c6b0c48702ff17891293b002dfea40001000900000000e5cf854f63152067059afd38e03fefb6cbe25df300c8012c000000004dc22588ade05c40338a9d95a6da9dcee68bcd6000c8002e00000000c858a329bf053be78d6239c4a4343b8fbd21472b000a003200000000000000000000000000000000000000000000000000c883e800000000000000000000000000000000000000000000000000c883e800000000478946bcd4a5a22b316470f5486fafb928c0ba250064002b000000001737275d53a5ca5dac582a493aa32c85ba2cfad30001000a0000000003af20bdaaffb4cc0a521796a223f7d85e2aac31003c012c000000000000000000000000000000000000000000000000000a803200000000eb1817b708415f4f78c5f0c99cbbd6a3a899fa6d003c012c00000000ad4c666fc170b468b19988959eb931a3676f0e9f003c012c00000000000000000000000000000000000000000000000007b8a698000000002cd32fb367431fd6f499328edf34934fdbbc6b264000412c00000000319c0dd36284ac24a6b2bee73929f699b9f48c380064002b00000000e612cb2b5644aef0ad3e922bae70a8374c63515f0001000a00000000ec3d9098bd40ec741676fc04d4bd26bccf592aa300c8012c000000006cfdebcc8bf2548967d4e02c058290634e4931d10064002800000000f0ab9385894ea749bfa79bafcd192d65a1571c2a006400320000000022be4975c78b77979014d6a6bc0140e0eaf21987006400320000000039ed27d101aa4b7ce1cb4293b877954b8b5e14e500c8012d00000000a0a215de234276cac1b844fd58901351a50fec8a40004384000000002b959ccb3c8fc1ed7769004742c197e28251027e0001000000000000ee1bac98527a9fdd57fccf967817215b083ce1f00064002c00000000fc1f3296458f9b2a27a0b91dd7681c4020e09d05000a0032000000004e5541815227e3272c405886149f45d2f437c7ff00c8012c000000002ae3d6096d8215ac2acddf30c60caa984ea5debe003c012c000000000000000000000000000000000000000000000000003c812c000000001fb3cf6e48f1e7b10213e7b6d87d4c073c7fdb7b000a003200000000cdd41009e74bd1ae4f7b2eecf892e4bc718b930200004032000000000000000000000000000000000000000000000000003c812c0000000000000000000000000000000000000000000000000001800a000000000000000000000000000000000000000000000000000a8032000000000000000000000000000000000000000000000000003c812c000000000000000000000000000000000000000000000000003c812c00000000b533c12fb4e7b53b5524eab9b47d93ff6c7a456f003c012c00000000394a9fcbab8599437d9ec4e5a4a0eb7cb1fd2f69000a0032000000008f47041adbef5bf321c9f63a0660326614ab6b60400043e80000000036e42931a765022790b797963e42c5522d6b585a00c803e8000000001d72b49f81832ef8155d8dedfce9cd122367e3b3006400320000000026e7fed14a97e0c482a302237971cf1b04f6d3e9003c012c000000000000000000000000000000000000000000000000003c812c000000001eaa860dca29a5124f665f7d80affed92e8776814000412c0000000000000000000000000000000000000000000000000001800300000000000300800182030003048503008607880300098a8b0300030c8d03000e0f90030011048503009213820300149506030096970602001882030086199a0300861b8202009c06030096018203001d1e8b0300861fa003000321a20300862382030086248e020025a6030027a88b03008629aa03001121a2030003ab06","maxFeePerGas":"0x2dcbf0","maxPriorityFeePerGas":"0xf4240","nonce":"0xb47f2","r":"0xd6ce33d0ff746299cdb25e292c96b96fa8300d5e270ce1e550e17d905686bd6f","s":"0x25da4b7b958a7abb005de253265eea6ca5ba5d1293f79f8e99d70f6e23e5a82d","to":"0x6e9f302f33bfb76fb7d9592c940d5bf24a3fdbb4","transactionIndex":"0xa","type":"0x2","v":"0x1","value":"0x0","yParity":"0x1"},{"accessList":[],"blockHash":"0x08a370790ae18ed36482f82f29b8024504671e1d54cc00d3d2782a64d0c05545","blockNumber":"0x867f7e1","chainId":"0xa","from":"0xba2e784abd115ac22333cdf9a0a505d039cff4d5","gas":"0x3d0900","gasPrice":"0x839a7","hash":"0x494d4142a53c11700dad73430cfadd8de8487379c391b78e0b6194b95dc0b3ba","input":"0x02000f01010001f4000a0000000111110101010100001fb2de7f59f1e7b10213f6a7c96d5c172c6fdb6a010100019a0064000000011111010101010000478857adc5a5a22b316461e4597fbfa938d0ba34","maxFeePerGas":"0x26c0be","maxPriorityFeePerGas":"0x8370e","nonce":"0x23154","r":"0xd2813051c48af2d44406b37909a4b486b5ee3e712f294e5e680df4c480151a28","s":"0x5b92864db666fca6688f4177bbed0d9cbec615f27e971f9f37a87db440613738","to":"0x61d1e5e08c20b5628bc81f67952dbd01441cbffb","transactionIndex":"0xb","type":"0x2","v":"0x0","value":"0x0","yParity":"0x0"},{"accessList":[],"blockHash":"0x08a370790ae18ed36482f82f29b8024504671e1d54cc00d3d2782a64d0c05545","blockNumber":"0x867f7e1","chainId":"0xa","from":"0xecb55e5ccfc128a1eca67e48dbe2f299e4366d0e","gas":"0x3d0900","gasPrice":"0x65065","hash":"0x2af87eb8920ab9536baf38225fda67cf01ed42336ada039c5060c02d35514840","input":"0x02000f01010001f4000a0000000111110101010100001fb2de7f59f1e7b10213f6a7c96d5c172c6fdb6a010100019a0064000000011111010101010000478857adc5a5a22b316461e4597fbfa938d0ba34","maxFeePerGas":"0x24d77e","maxPriorityFeePerGas":"0x64dcc","nonce":"0x2aa91","r":"0x8a3f21638b7e889e2b427730031c9eab524cf9d267d6a936c815867cfa56c67f","s":"0xce4a2e33f108b3db91c4244f83f5d2e67a2ac3d71bfe466b3a93b8c9ccfe275","to":"0x61d1e5e08c20b5628bc81f67952dbd01441cbffb","transactionIndex":"0xc","type":"0x2","v":"0x0","value":"0x0","yParity":"0x0"},{"accessList":[],"blockHash":"0x08a370790ae18ed36482f82f29b8024504671e1d54cc00d3d2782a64d0c05545","blockNumber":"0x867f7e1","chainId":"0xa","from":"0xf70da97812cb96acdf810712aa562db8dfa3dbef","gas":"0x81a24","gasPrice":"0x2cfc2","hash":"0x4b507f3202e2b949accd48d52c824996ddf7ae59563c21a8df887cb4ee4bd844","input":"0x33739082000000000000000000000000f70da97812cb96acdf810712aa562db8dfa3dbef00000000000000000000000000000000000000000000000000000000000000c00000000000000000000000000000000000000000000000000000000000000180000000000000000000000000f70da97812cb96acdf810712aa562db8dfa3dbef000000000000000000000000f70da97812cb96acdf810712aa562db8dfa3dbef00000000000000000000000000000000000000000000000000000000000009400000000000000000000000000000000000000000000000000000000000000060000000000000000000000000000000000000000000000000000034b878974b770000000000000000000000000000000000000000000000000000000068c3cbcf000000000000000000000000000000000000000000000000000000000000000100000000000000000000000094b008aa00579c1307b0ef2c499ad98a8ce58e580000000000000000000000000000000000000000000000000000000001021a5500000000000000000000000000000000000000000000000000000000000000030000000000000000000000000000000000000000000000000000000000000060000000000000000000000000000000000000000000000000000000000000016000000000000000000000000000000000000000000000000000000000000006a000000000000000000000000094b008aa00579c1307b0ef2c499ad98a8ce58e580000000000000000000000000000000000000000000000000000000000000000000000000000000000000000000000000000000000000000000000000000000000000000000000000000000000000000000000000000000000000000000000800000000000000000000000000000000000000000000000000000000000000044095ea7b300000000000000000000000068d6b739d2020067d1e2f713b999da97e4d548120000000000000000000000000000000000000000000000000000000001021a550000000000000000000000000000000000000000000000000000000000000000000000000000000086f752f1f662f39bfbcbef95ee56b6c20d178969000000000000000000000000000000000000000000000000000000000000000000000000000000000000000000000000000000000000000000000000000000000000000000000000000000000000000000000000000000000000000000000080000000000000000000000000000000000000000000000000000000000000048403b87e5f000000000000000000000000000000000000000000000000000000000001ad28000000000000000000000000f5042e6ffac5a625d4e7848e0b01373d8eb9e22200000000000000000000000094b008aa00579c1307b0ef2c499ad98a8ce58e58000000000000000000000000eeeeeeeeeeeeeeeeeeeeeeeeeeeeeeeeeeeeeeee0000000000000000000000000000000000000000000000000000000001021a55000000000000000000000000000000000000000000000000000d140f8959ae7d0000000000000000000000000000000000000000000000000000000068c3d78700000000000000000000000000000000000000000000000000000000000001400000000000000000000000000000000000000000000000000000000000000180000000000000000000000000000000000000000000000000000000000000046000000000000000000000000000000000000000000000000000000000000000010000000000000000000000000000000000000000000000000000000001021a55000000000000000000000000000000000000000000000000000000000000000100000000000000000000000000000000000000000000000000000000000000200000000000000000000000000000000000000000000000000000000000000001000000000000000000000000000000000000000000000000000000000000002000000000000000000000000000000000000000000000000000000000000000a000000000000000000000000000000000000000000000000000000000000000e00000000000000000000000000000000000000000000000000000000000000120000000000000000000000000000000000000000000000000000000000000016000000000000000000000000094b008aa00579c1307b0ef2c499ad98a8ce58e580000000000000000000000000000000000000000000000000000000000000001000000000000000000000000411d2c093e4c2e69bf0d8e94be1bf13dadd879c60000000000000000000000000000000000000000000000000000000000000001000000000000000000000000411d2c093e4c2e69bf0d8e94be1bf13dadd879c60000000000000000000000000000000000000000000000000000000000000001800000000000000000002710c858a329bf053be78d6239c4a4343b8fbd21472b0000000000000000000000000000000000000000000000000000000000000001000000000000000000000000000000000000000000000000000000000000002000000000000000000000000000000000000000000000000000000000000000a000000000000000000000000000000000000000000000000000000000000000000000000000000000000000000000000000000000000000000000000000000040000000000000000000000000000000000000000000000000000000000000004000000000000000000000000094b008aa00579c1307b0ef2c499ad98a8ce58e580000000000000000000000004200000000000000000000000000000000000006000000000000000000000000000000000000000000000000000000000000000000000000000000000000000000000000000000000000000000000000000000000000000000000000f5042e6ffac5a625d4e7848e0b01373d8eb9e22200000000000000000000000000000000000000000000000000000000000000000000000000000000000000000000000000000000000000000000000000000000000000000000000000000000000000000000000000000000000000000000008000000000000000000000000000000000000000000000000000000000000000445de81e3f0000000000000000000000000000000000000000000000000000000000000000000000000000000000000000f70da97812cb96acdf810712aa562db8dfa3dbef000000000000000000000000000000000000000000000000000000000000000000000000000000000000000000000000000000000000000000000041f60930f727a9e0f93941ac898ca2d941499346b1ef295b75422059dae2624cee077ca06621e4f1fdcc56e08d50ca01de8abf0a16ba106c283df1e6e56f844a101c00000000000000000000000000000000000000000000000000000000000000","maxFeePerGas":"0x2d004","maxPriorityFeePerGas":"0x2cd29","nonce":"0x5d5123","r":"0xc9ff2009bcbd14748369b89f259a05b1f3c13de1d5237a5b24f40db4aa2c60bb","s":"0x20b169e96345e7ecdba7bf0cd902c3f2ed3f7a285b9b5124b4f6c703635f6524","to":"0xbbbfd134e9b44bfb5123898ba36b01de7ab93d98","transactionIndex":"0xd","type":"0x2","v":"0x0","value":"0x0","yParity":"0x0"},{"accessList":[],"blockHash":"0x08a370790ae18ed36482f82f29b8024504671e1d54cc00d3d2782a64d0c05545","blockNumber":"0x867f7e1","chainId":"0xa","from":"0xf5ff79124c23ca0e0cde9a6736b7e14eca9fd95b","gas":"0xb31c","gasPrice":"0x2cfc2","hash":"0x63d3ddb59f3edfc29070710d8e824d81d0d2911ed2df2ba3b2decc009fcb204c","input":"0xa9059cbb000000000000000000000000f70da97812cb96acdf810712aa562db8dfa3dbef000000000000000000000000000000000000000000000000000000000a99c6907723cceb9833882675ebf4f53adbc031a90386d31db1ba914bb137ed768af474","maxFeePerGas":"0x2d004","maxPriorityFeePerGas":"0x2cd29","nonce":"0x0","r":"0x4c9344b394e5cbdbcbd43c368ccedd0d15c3076d9d5ceedb88d56a8588cf1ae3","s":"0x4de373558251e29d94ad4a6fe80cbe9401f010b72555e8a44c81d7deaaa61a24","to":"0x94b008aa00579c1307b0ef2c499ad98a8ce58e58","transactionIndex":"0xe","type":"0x2","v":"0x1","value":"0x0","yParity":"0x1"},{"accessList":[],"blockHash":"0x08a370790ae18ed36482f82f29b8024504671e1d54cc00d3d2782a64d0c05545","blockNumber":"0x867f7e1","chainId":"0xa","from":"0x2d7acb7cec02231deda8a6a173a05f20e4b3033b","gas":"0xe3730","gasPrice":"0x19a2e","hash":"0xd2ce929504a4ab3efec1a07cba413bf72d4aa5489bf66bdd7efdf907b1572cf4","input":"0xb94c3609000000000000000000000000000000000000000000000000000000000000004000000000000000000000000000000000000000000000000000000000000000c0000000000000000000000000000000000000000000000000000000000000000000000000000000000000000000000000000000000000000000000000000000400000000000000000000000000000000000000000000000000000000000000020000000000000000000000000000000000000000000000000000002ba7def30000000000000000000000000000000000000000000000000000000000000000cc495352c9f03d2796cf4c524a658f92d78288f40b1dee68be3d45c63304a562e86d795942ae074ac148cd8a19555927bec6f409444904ac12b802562e106600884a46136a200000000000000000000000000000000000000000000000000000000000000800000000000000000000000000000000000000000000000000000000000000140000000000000000000000000000000000000000000000000000000000000000519198595a30081ffffffffff69afa05352b3797b8d08ce3b5edf27eb0585d560346387bf430000000000000abedfac7488dccaafdd66d1d7d56349780fe0477e020303040502060708898affffffffffffffffffffffffffffffffffffffffff6e7a43a3010a0bffffffff0a7e7d64d987cab6eed08a191c4c2459daf2f8ed0b241c5912010affffffffffff7e7d64d987cab6eed08a191c4c2459daf2f8ed0b000000000000000000000000000000000000000000000000000000000000000c000000000000000000000000000000000000000000000000000000000000018000000000000000000000000000000000000000000000000000000000000001c000000000000000000000000000000000000000000000000000000000000001e00000000000000000000000000000000000000000000000000000000000000220000000000000000000000000000000000000000000000000000000000000026000000000000000000000000000000000000000000000000000000000000002a000000000000000000000000000000000000000000000000000000000000002e00000000000000000000000000000000000000000000000000000000000000320000000000000000000000000000000000000000000000000000000000000036000000000000000000000000000000000000000000000000000000000000003a00000000000000000000000000000000000000000000000000000000000000ae00000000000000000000000000000000000000000000000000000000000000b20000000000000000000000000000000000000000000000000000000000000002000000000000000000000000000000000000000000000000000000001bf08eb0000000000000000000000000000000000000000000000000000000000000000000000000000000000000000000000000000000000000000000000000000000020000000000000000000000000000000000000000000000000000002b8bee6450000000000000000000000000000000000000000000000000000000000000000200000000000000000000000000000000000001ff3684f28c67538d4d072c227340000000000000000000000000000000000000000000000000000000000000020000000000000000000000000eeeeeeeeeeeeeeeeeeeeeeeeeeeeeeeeeeeeeeee000000000000000000000000000000000000000000000000000000000000002000000000000000000000000094b008aa00579c1307b0ef2c499ad98a8ce58e580000000000000000000000000000000000000000000000000000000000000020000000000000000000000000000000000000000000000000000000000000352500000000000000000000000000000000000000000000000000000000000000200000000000000000000000002d7acb7cec02231deda8a6a173a05f20e4b3033b000000000000000000000000000000000000000000000000000000000000002000000000000000000000000069afa05352b3797b8d08ce3b5edf27eb0585d560000000000000000000000000000000000000000000000000000000000000072000000000000000000000000000000000000000000000000000000000000006e42213bc0b000000000000000000000000d8014f15a920bf9edfdb87159ee10cadc07fcb530000000000000000000000000000000000000000000000000000000000000000000000000000000000000000000000000000000000000000000002b8bee64500000000000000000000000000d8014f15a920bf9edfdb87159ee10cadc07fcb5300000000000000000000000000000000000000000000000000000000000000a000000000000000000000000000000000000000000000000000000000000006041fff991f000000000000000000000000bedfac7488dccaafdd66d1d7d56349780fe0477e00000000000000000000000094b008aa00579c1307b0ef2c499ad98a8ce58e58000000000000000000000000000000000000000000000000000000000000350300000000000000000000000000000000000000000000000000000000000000a0f46e8e8256977ed39d29ba0600000000000000000000000000000000000000000000000000000000000000000000000000000000000000000000000000000004000000000000000000000000000000000000000000000000000000000000008000000000000000000000000000000000000000000000000000000000000001c0000000000000000000000000000000000000000000000000000000000000030000000000000000000000000000000000000000000000000000000000000004a0000000000000000000000000000000000000000000000000000000000000010438c9c147000000000000000000000000eeeeeeeeeeeeeeeeeeeeeeeeeeeeeeeeeeeeeeee00000000000000000000000000000000000000000000000000000000000027100000000000000000000000004200000000000000000000000000000000000006000000000000000000000000000000000000000000000000000000000000000400000000000000000000000000000000000000000000000000000000000000a00000000000000000000000000000000000000000000000000000000000000024d0e30db000000000000000000000000000000000000000000000000000000000000000000000000000000000000000000000000000000000000000000000000000000000000000000000000000000000000000000000000000000000000000000000000000000000000000000000000000000000000000000000010438c9c147000000000000000000000000420000000000000000000000000000000000000600000000000000000000000000000000000000000000000000000000000027100000000000000000000000004200000000000000000000000000000000000006000000000000000000000000000000000000000000000000000000000000000400000000000000000000000000000000000000000000000000000000000000a000000000000000000000000000000000000000000000000000000000000000242e1a7d4d000000000000000000000000000000000000000000000000000000000000000000000000000000000000000000000000000000000000000000000000000000000000000000000000000000000000000000000000000000000000000000000000000000000000000000000000000000000000000000000164af72634f000000000000000000000000d8014f15a920bf9edfdb87159ee10cadc07fcb53000000000000000000000000eeeeeeeeeeeeeeeeeeeeeeeeeeeeeeeeeeeeeeee000000000000000000000000000000000000000000000000000000000000271000000000000000000000000000000000000000000000000000000000000000000000000000000000000000000000000000000000000000000000000000000003000000000000000000000000000000000000000000000000ffffffffffffffc500000000000000000000000000000000000000000000000000000000000001000000000000000000000000000000000000000000000000000000000000000000000000000000000000000000000000000000000000000000000000000000003427100194b008aa00579c1307b0ef2c499ad98a8ce58e580001f400000a0000000000000000000000000000000000000000000000000000000000000000000000000000000000000000000000000000000000000000000000000000000000000000000000000000000000000000000000000000000000000000000064c876d21d000000000000000000000000f5c4f3dc02c3fb9279495a8fef7b0741da95615700000000000000000000000094b008aa00579c1307b0ef2c499ad98a8ce58e58000000000000000000000000000000000000000000000000000000000000352d000000000000000000000000000000000000000000000000000000000000000000000000000000000000000000000000000000000000000000000000000000000000000000000000000000000000000000000000000000000000000000000000000000000000000000000000000000000000002000000000000000000000000000000000000000000000000000000000000000000000000000000000000000000000000000000000000000000000000000000020000000000000000000000000000000000000000000000000000000000000350200000000000000000000000000000000000000000000000000000000","maxFeePerGas":"0x19b05","maxPriorityFeePerGas":"0x19795","nonce":"0x2e","r":"0x90fd499f8984c68027cf11ac4803ecc59ce722174257fe1628d8ee39869d5fbf","s":"0x40797e89d68bbae6ba8fc3be7e865bd78ec2a17563e41457616a47d8648e6fa","to":"0xf75584ef6673ad213a685a1b58cc0330b8ea22cf","transactionIndex":"0xf","type":"0x2","v":"0x1","value":"0x2ba7def3000","yParity":"0x1"},{"accessList":[],"blockHash":"0x08a370790ae18ed36482f82f29b8024504671e1d54cc00d3d2782a64d0c05545","blockNumber":"0x867f7e1","chainId":"0xa","from":"0xd3885bbc51275492dea749ab5d56d260b4da5894","gas":"0xe3730","gasPrice":"0x19a2e","hash":"0x7c232be6b8ac9d5609d2d713438f312a25e83671d979dcd7111769b9d414539c","input":"0xb94c3609000000000000000000000000000000000000000000000000000000000000004000000000000000000000000000000000000000000000000000000000000000c0000000000000000000000000000000000000000000000000000000000000000000000000000000000000000000000000000000000000000000000000000000400000000000000000000000000000000000000000000000000000000000000020000000000000000000000000000000000000000000000000000002ba7def30000000000000000000000000000000000000000000000000000000000000000cc495352c9f03d2796cf4c524a658f92d78288f40b1dee68be3d45c63304a562e86d795942a0382536e7039bb0ce7401eb5f4a3cede3537fa8de0e373dc9ede2c8ea99c1b4800000000000000000000000000000000000000000000000000000000000000800000000000000000000000000000000000000000000000000000000000000140000000000000000000000000000000000000000000000000000000000000000519198595a30081ffffffffff69afa05352b3797b8d08ce3b5edf27eb0585d560346387bf430000000000000abedfac7488dccaafdd66d1d7d56349780fe0477e020303040502060708898affffffffffffffffffffffffffffffffffffffffff6e7a43a3010a0bffffffff0a7e7d64d987cab6eed08a191c4c2459daf2f8ed0b241c5912010affffffffffff7e7d64d987cab6eed08a191c4c2459daf2f8ed0b000000000000000000000000000000000000000000000000000000000000000c000000000000000000000000000000000000000000000000000000000000018000000000000000000000000000000000000000000000000000000000000001c000000000000000000000000000000000000000000000000000000000000001e00000000000000000000000000000000000000000000000000000000000000220000000000000000000000000000000000000000000000000000000000000026000000000000000000000000000000000000000000000000000000000000002a000000000000000000000000000000000000000000000000000000000000002e00000000000000000000000000000000000000000000000000000000000000320000000000000000000000000000000000000000000000000000000000000036000000000000000000000000000000000000000000000000000000000000003a00000000000000000000000000000000000000000000000000000000000000ae00000000000000000000000000000000000000000000000000000000000000b20000000000000000000000000000000000000000000000000000000000000002000000000000000000000000000000000000000000000000000000001bf08eb0000000000000000000000000000000000000000000000000000000000000000000000000000000000000000000000000000000000000000000000000000000020000000000000000000000000000000000000000000000000000002b8bee6450000000000000000000000000000000000000000000000000000000000000000200000000000000000000000000000000000001ff3684f28c67538d4d072c227340000000000000000000000000000000000000000000000000000000000000020000000000000000000000000eeeeeeeeeeeeeeeeeeeeeeeeeeeeeeeeeeeeeeee000000000000000000000000000000000000000000000000000000000000002000000000000000000000000094b008aa00579c1307b0ef2c499ad98a8ce58e58000000000000000000000000000000000000000000000000000000000000002000000000000000000000000000000000000000000000000000000000000035250000000000000000000000000000000000000000000000000000000000000020000000000000000000000000d3885bbc51275492dea749ab5d56d260b4da5894000000000000000000000000000000000000000000000000000000000000002000000000000000000000000069afa05352b3797b8d08ce3b5edf27eb0585d560000000000000000000000000000000000000000000000000000000000000072000000000000000000000000000000000000000000000000000000000000006e42213bc0b000000000000000000000000d8014f15a920bf9edfdb87159ee10cadc07fcb530000000000000000000000000000000000000000000000000000000000000000000000000000000000000000000000000000000000000000000002b8bee64500000000000000000000000000d8014f15a920bf9edfdb87159ee10cadc07fcb5300000000000000000000000000000000000000000000000000000000000000a000000000000000000000000000000000000000000000000000000000000006041fff991f000000000000000000000000bedfac7488dccaafdd66d1d7d56349780fe0477e00000000000000000000000094b008aa00579c1307b0ef2c499ad98a8ce58e58000000000000000000000000000000000000000000000000000000000000350300000000000000000000000000000000000000000000000000000000000000a0ec3507044ec9d380d0657db800000000000000000000000000000000000000000000000000000000000000000000000000000000000000000000000000000004000000000000000000000000000000000000000000000000000000000000008000000000000000000000000000000000000000000000000000000000000001c0000000000000000000000000000000000000000000000000000000000000030000000000000000000000000000000000000000000000000000000000000004a0000000000000000000000000000000000000000000000000000000000000010438c9c147000000000000000000000000eeeeeeeeeeeeeeeeeeeeeeeeeeeeeeeeeeeeeeee00000000000000000000000000000000000000000000000000000000000027100000000000000000000000004200000000000000000000000000000000000006000000000000000000000000000000000000000000000000000000000000000400000000000000000000000000000000000000000000000000000000000000a00000000000000000000000000000000000000000000000000000000000000024d0e30db000000000000000000000000000000000000000000000000000000000000000000000000000000000000000000000000000000000000000000000000000000000000000000000000000000000000000000000000000000000000000000000000000000000000000000000000000000000000000000000010438c9c147000000000000000000000000420000000000000000000000000000000000000600000000000000000000000000000000000000000000000000000000000027100000000000000000000000004200000000000000000000000000000000000006000000000000000000000000000000000000000000000000000000000000000400000000000000000000000000000000000000000000000000000000000000a000000000000000000000000000000000000000000000000000000000000000242e1a7d4d000000000000000000000000000000000000000000000000000000000000000000000000000000000000000000000000000000000000000000000000000000000000000000000000000000000000000000000000000000000000000000000000000000000000000000000000000000000000000000000164af72634f000000000000000000000000d8014f15a920bf9edfdb87159ee10cadc07fcb53000000000000000000000000eeeeeeeeeeeeeeeeeeeeeeeeeeeeeeeeeeeeeeee000000000000000000000000000000000000000000000000000000000000271000000000000000000000000000000000000000000000000000000000000000000000000000000000000000000000000000000000000000000000000000000003000000000000000000000000000000000000000000000000ffffffffffffffc500000000000000000000000000000000000000000000000000000000000001000000000000000000000000000000000000000000000000000000000000000000000000000000000000000000000000000000000000000000000000000000003427100194b008aa00579c1307b0ef2c499ad98a8ce58e580001f400000a0000000000000000000000000000000000000000000000000000000000000000000000000000000000000000000000000000000000000000000000000000000000000000000000000000000000000000000000000000000000000000000064c876d21d000000000000000000000000f5c4f3dc02c3fb9279495a8fef7b0741da95615700000000000000000000000094b008aa00579c1307b0ef2c499ad98a8ce58e58000000000000000000000000000000000000000000000000000000000000352e000000000000000000000000000000000000000000000000000000000000000000000000000000000000000000000000000000000000000000000000000000000000000000000000000000000000000000000000000000000000000000000000000000000000000000000000000000000000002000000000000000000000000000000000000000000000000000000000000000000000000000000000000000000000000000000000000000000000000000000020000000000000000000000000000000000000000000000000000000000000350200000000000000000000000000000000000000000000000000000000","maxFeePerGas":"0x19b05","maxPriorityFeePerGas":"0x19795","nonce":"0x2f","r":"0xefdc62fe2ed9b43e2f1a76ffe7aa8b35297c9eed831a3898403ff68015c89302","s":"0x1b69cd07ea78db871019c42c6b5cac2dc5314d2608fc0d8bf53fc1ce94f2e581","to":"0xf75584ef6673ad213a685a1b58cc0330b8ea22cf","transactionIndex":"0x10","type":"0x2","v":"0x0","value":"0x2ba7def3000","yParity":"0x0"},{"accessList":[],"blockHash":"0x08a370790ae18ed36482f82f29b8024504671e1d54cc00d3d2782a64d0c05545","blockNumber":"0x867f7e1","chainId":"0xa","from":"0xc29ab38aa6cc25a68c9db16e52f59865efa6b95f","gas":"0xb71b00","gasPrice":"0x191a5","hash":"0xb1c5977090de0283fe6f3bfbdf08af698f8fab8cc1ffb8128ed5726f7c17231d","input":"0x00000000000068c3c9801b87d68745971727d159493db0805fc9e719f8f515303d6f2c3af8691bd13142d33696c148a458ac862f24daaadf86e464972f54b6a1c7fae5a6df97e3176da71afbb704d1d55528b587fe5fbaabd942134aef1ed1a772ad70241d9a141e2a2d197303478946bcd4a5a22b316470f5486fafb928c0ba2500019f00006402ee620384ce89b4f6f67e523a81a82f9f2f14d84b726f6b00005a000001fffffb02c858a329bf053be78d6239c4a4343b8fbd21472b0001f400000a000000027de4c593fe83417ca6ef98d7cf59c99d304f41c9000bb800003c000000039894c14f090a452501f402e37302e58cc46007a3000a8c0000c801770a021fb3cf6e48f1e7b10213e7b6d87d4c073c7fdb7b0001f400000a00000004e46d7b8fd3eb5448cbfd2719a9ddf52da7874c858a9b7f76f7c541d5af612d2a000bb800003c00000003ebd5311bea1948e1441333976eadcfe5fbda777c000aa00000c80440c6036cfdebcc8bf2548967d4e02c058290634e4931d1000190000064fd119d034dc22588ade05c40338a9d95a6da9dcee68bcd600001ae0000c801525a0268f5c0a2de713a54991e01858fd27a3832401849000bb800003c00000002b533c12fb4e7b53b5524eab9b47d93ff6c7a456f000bb800003c0000000339ed27d101aa4b7ce1cb4293b877954b8b5e14e5000bd10000c801bbb001e9581d0f1a628b038fc8b2a7f5a7d904f0e2f93700271000000000000002fc1f3296458f9b2a27a0b91dd7681c4020e09d050001f400000a00000001f4638dc488f9c826dc40250515592e678e44723800271000000000000001f2d3941b6e1cbd3616061e556eb06986147715d1000bb800000000000002146b020399769339509c98b7b353d19130c150ec000bb800003c00000002d81947a322fe3dd17357095df245aa37f2da1f8600006400000100000003319c0dd36284ac24a6b2bee73929f699b9f48c3800019f000064fbfe2f045876423ef0d34b53e8ca5d6972ff9a9d72261eacf645a2fad664450f3eebc003000bb800003c00000002c1738d90e2e26c35784a0d3e3d8a9f795074bca4000bb800003c000000022ab22ac86b25bd448a4d9dc041bd2384655299c400006400000100000004d7c8298e87d17dc31e6ac54ac72003f0a0f06fd05914a7e88c11489ff3c6cc2b0001f400000a0000000203af20bdaaffb4cc0a521796a223f7d85e2aac31000bb800003c00000002d28f71e383e93c570d3edfe82ebbceb35ec6c412000064000001000000031737275d53a5ca5dac582a493aa32c85ba2cfad3000064000001043763046459d26482d93057c4a6f91ab5a3f1e0a058558a6da1692c94b04cad4052b0f0000bb800003c00000002adb35413ec50e0afe41039eac8b930d313e94fa40001f400000a000000033c01ec09d15d5450fc702dc4353b17cd2978d8a5000064000001043885022e80d5a7b3c613d854ee43243ff09808108561eb000bb800003c00000002e2101d19b78e695982975cc1a27b6a9117e02b090001f400000a000000037cfc2da3ba598ef4de692905fedca32565ab836e000bc70000c804aa0b02394a9fcbab8599437d9ec4e5a4a0eb7cb1fd2f690001f400000a000000011eaa860dca29a5124f665f7d80affed92e877681000bb800000000000004480f40545dc5d0f203be423a4a7dc94217c00173617abaa22033e413370a66340027100000c800000002ff7fbdf7832ae524deda39ca402e03d92adff7a5000bb800003c00000001dff90e4a6c229565f25337b1db9fa12f6d8cb118000bb800000000000001a0a215de234276cac1b844fd58901351a50fec8a002328000000000000034e5541815227e3272c405886149f45d2f437c7ff000ba90000c8042245022ae3d6096d8215ac2acddf30c60caa984ea5debe000bb800003c0000000162191c893df8d26ac295ba1274a00975dc07190c00271000000000000001ae6c9b2a2777d0396cbe7e13fc9aceac0d052e0000271000000000000003230c121f55538a05448a9eeb8a510e7e0af39ee90001f400003200061c04ac4115c780e2c68df8a1167fcc2503296feafd75167d9f8fd80705759a221e85000bb800003c0000000236ece061816550e5d9d9082679b0adcf19872fc70027100000c80000000468ac856797995e65fdf2789f4a5fb8e3141bf2e78434730b88824ca3a53e25320027100000c8000000022b959ccb3c8fc1ed7769004742c197e28251027e00004100000100000003ee1bac98527a9fdd57fccf967817215b083ce1f000019f00006402e6e902adab76dd2dca7ae080a796f0ce86170e482afb4a000bb800003c0000000285c31ffa3706d1cce9d525a00f1c7d4a2911754c0001f400000a0000000158e6433a6903886e440ddf519ecc573c4046a6b200271000000000000003cf50dea65ee80ebddaa61005a960ef5a5c995a99000190000064feec8b03f7f575f2c0f6c99fa9efe1bde9e11fa10be4fef900006400000100000503a9f987869bfe56d3a2ece2e79df55684d0bbcd8b0001f400006402ee620236e42931a765022790b797963e42c5522d6b585a0027100000c8000000018f47041adbef5bf321c9f63a0660326614ab6b6000271000000000000002fdf64c32f4a03923547e6061911483b793e8d7e20027100000c800000000d77b31796b7ce1880f84709eb5d9045749bb3d31000bb800000000000004b54fb03cd65ee6f1214420e9ae50ce60f527f0f9fafff6a2354dbef56dda80c00027100000c8000000041298e22b83e87b363b453a10995c98762558d8aa042348f2c41650fa808cd05b0027100000c8000000035483484f876218908ca435f08222751f7f7b2a3b000064000001fffffc03f0ab9385894ea749bfa79bafcd192d65a1571c2a0001f400006402ee5f0204f6c85a1b00f6d9b75f91fd23835974cc07e65c0000640000010000000451bf4cc5b8d9f7f759e41f572fe2a25bc2aeb42432bf12544a350595e5c8bb430001f400000a000000016da98bde0068d10ddd11b468b197ea97d96f96bc0001f400000000000003bf30ff33cf9c6b0c48702ff17891293b002dfea400005a000001000773010493bf8b6dbb159ce2db2e0e8403e753abd1235b000bb800000000000002b589969d38ce76d3d7aa319de7133bc9755fd840000bb800003c00000004ebe9db89947dd14b34817843231b74044084b04d5b4fea5b4cd1b433b3e5b99f00001900000100000002b40da71c49c745dd3ab801882b1d41076054167800006400000100000002ba41b5891ccb839fb81bc186ff41a593d1832ba7000bb800003c00000002a73c628eaf6e283e26a7b1f8001cf186aa4c0e8e00006400000100000002b2ac2e5a3684411254d58b1c5a542212b782114d000bb800003c000000020893e340ee2b0263ddad2f3b8bd23dba11859aea000bb800003c00000003522dc96e6fd6f78a4e7433d0ee05b7087e5152360027100007d000e77b04edba0a2a9dc73acf4b130e07605cb4c212bbd98a31c9cd442cfb8cf5b4e093e70001f400000a00000003173cdc71e29d5cffa6d090ad99f555a24b8831f90027100000c8036406016ed6df1c23c51cb7cc67a348cc8d9e6108ea3bfe000bb800000000000003ec3d9098bd40ec741676fc04d4bd26bccf592aa3000bb80000c8ff81a2038949a8e02998d76d7a703cac9ee7e0f52982801100006400000103838a02d4cb5566b5c16ef2f4a08b1438052013171212a20027100000c80000000285149247691df622eaf1a8bd0cafd40bc45154a90001f400000a00000001477fa18b063b7728409570d274f7a055e3da0d6e000bb800000000000001f117719d5460ed6090814213433cb8d4e07bd583000bb8000000000000041efeb6a4185cf975d1526760b2c15fc1172bea8f30469139b9e167e0e624ea940027100000c80000000273b14a78a0d396c521f954532d43fd5ffe385216000bb800003c000000020d165f5bcc9cbb9cf75cef8b09cc77b1749a2a3300006400000100000002a8a5356ee5d02fe33d72355e4f698782f8f199e8000064000001000000022b6b093a6c2aba51e078540ad89ed76a0c6716fa000032000001000000027d1602f342787f80aef458c10e741149a1697447000bb800003c00000002ad4c666fc170b468b19988959eb931a3676f0e9f000bb800003c0000000226e7fed14a97e0c482a302237971cf1b04f6d3e9000bb800003c000000028e2eaef2c05ef93f424a8324b94e725eaa362f910027100000c800000002dd0c6bae8ad5998c358b823df15a2a4181da1b80000bb800003c00000003e5cf854f63152067059afd38e03fefb6cbe25df3000bb80000c80159de045c204f3724cc4dbe95cb53c9a968ae3eee46c3b4092d500770dc9c2a3f44d88b000bb800003c000000020fb07e6d6e1f52c839608e1436d2ea810cf072570027100000c80000000294687f50a6d6d01f63a60ba5b591e8163018b512000bb800003c00000000b3c8940f45f0bb0a7d8b54c341d414a881008574000bb8000000000000026948263b49caec3b1e7989a9c86de1d0484234dc0027100000c800000001f4f2657ae744354baca871e56775e5083f7276ab000bb8000000000000032fa71491f8070fa644d97b4782db5734854c0f6f000064000001fffffe020e09db9fd122a71c237a094d2d1bd44d48339f3400006400000100000001e0b1da86d17b884c4d246e218a67ae3466ad841c000bb800000000000002535541f1aa08416e69dc4d610131099fa2ae7222000bb800003c000000024dbb2d7785654074c53c5a915126d3378446bd61000032000001000000029b0c2660b535a156adf827481b2f9b61f31ebc49000bb800003c000000023f60fca6c50ae3bcd95ae150b4c57f0ba5c3f2ad000bb800003c00000002dc6cb16b8d635ef255cef370263c35ac0007186a0027100000c8000000022e2d190ad4e0d7be9569baebd4d33298379b05020001f400000a00000002d1f1bad4c9e6c44dec1e9bf3b94902205c5cd6c30027100000c800000002e612cb2b5644aef0ad3e922bae70a8374c63515f00006400000100000004be6f020332287f77a2d73520a9f9e925ecd79785aadeef00507e77c69cb5a900000bb800003c0000000322be4975c78b77979014d6a6bc0140e0eaf219870001f40000640440bb5f0300000001010200020003010400020005000001020106010700020008010200020009010a00030005000b01090003000c010d0009000300050007010a0004000e010f01100011010300080112010300020009010e0002001301140003001500160117000300180119000001030018011a00050104001b011c001d000001030018011c001e0003011a011c001f0003011d011c01190003000c012000000103001301210000010200050015010200000015010300220123002401030022012300250103000c01260000010300050027012800040029012a012b000c00030022012c00000102012d012e00030100012f003000030000003101320003000500200133000201210134000300000035003601020037013800040039013a003b013c00030005003d013e0103003f003000400002002f0041010300050030014201020043014400030000004501020002003f00420102002f00420103002f004601470103001301310000010401480149004a01210002004b013800020040014c01030000004d014e000300050030012f0104004f015000210000010200000051010400520153005400050103005501540005010300000048010200020013015600030157015800590002000c013300030032015a015b00030018015c005d000300050048015e0002003f0041010200130132000300130134000001030009015f0042010200090160000300000030014201030000000b010900020061013300020062016300020064016200020005006501030157015800660003000500350036010300000067003601030005006801690002016a016b000300360067011501030028012700000102010b01070002016c012c00020127016d00030028012700400003016e016f016d00030005006d012800030005003101130003002f005f0109000300130170014f000201670035010200360071000400600172003d0000010301050122016c00","maxFeePerGas":"0x3938700","maxPriorityFeePerGas":"0x18f0c","nonce":"0x1fa4f","r":"0xe28ea0e2069dc0a3ad560c809a04b43f38046b426cd55cf1f556c5df3b819db6","s":"0x1f23fb134e4581f2bff307d71d4c6423ab6f9541652d5907e01e6f8ff16eef70","to":"0xa41b099535da7aa7fde4aa952791dad850fb1f4c","transactionIndex":"0x11","type":"0x2","v":"0x1","value":"0x0","yParity":"0x1"},{"accessList":[],"blockHash":"0x08a370790ae18ed36482f82f29b8024504671e1d54cc00d3d2782a64d0c05545","blockNumber":"0x867f7e1","chainId":"0xa","from":"0xc29ab38aa6cc25a68c9db16e52f59865efa6b95f","gas":"0xb71b00","gasPrice":"0x1925f","hash":"0x1f85c677458bf0e5a5a8dafda3d4bf2b91896aeee24a670de0f0c88089b6fa82","input":"0x00000000000068c3c9821b2e858d50ee2b066090bca02f3534f58ede8faf8936fa47f903287e9b2b20e2f219cd48b6a69b3eec52c8f190f27e362a2803d1f2f62fad61d3228c411be5f36dfcc5dbb73c201899a6a1142eaa4d10f5f87c125e9d4080de635d0c8a5b93d6187303478946bcd4a5a22b316470f5486fafb928c0ba2500019f00006402ee620384ce89b4f6f67e523a81a82f9f2f14d84b726f6b00005a000001fffffb02c858a329bf053be78d6239c4a4343b8fbd21472b0001f400000a000000027de4c593fe83417ca6ef98d7cf59c99d304f41c9000bb800003c000000039894c14f090a452501f402e37302e58cc46007a3000a8c0000c801770a021fb3cf6e48f1e7b10213e7b6d87d4c073c7fdb7b0001f400000a00000004e46d7b8fd3eb5448cbfd2719a9ddf52da7874c858a9b7f76f7c541d5af612d2a000bb800003c00000003ebd5311bea1948e1441333976eadcfe5fbda777c000aa00000c80440c6036cfdebcc8bf2548967d4e02c058290634e4931d1000190000064fd119d034dc22588ade05c40338a9d95a6da9dcee68bcd600001ae0000c801525a0268f5c0a2de713a54991e01858fd27a3832401849000bb800003c00000002b533c12fb4e7b53b5524eab9b47d93ff6c7a456f000bb800003c0000000339ed27d101aa4b7ce1cb4293b877954b8b5e14e5000bd10000c801bbb001e9581d0f1a628b038fc8b2a7f5a7d904f0e2f93700271000000000000002fc1f3296458f9b2a27a0b91dd7681c4020e09d050001f400000a00000001f4638dc488f9c826dc40250515592e678e44723800271000000000000001f2d3941b6e1cbd3616061e556eb06986147715d1000bb800000000000002146b020399769339509c98b7b353d19130c150ec000bb800003c00000002d81947a322fe3dd17357095df245aa37f2da1f8600006400000100000003319c0dd36284ac24a6b2bee73929f699b9f48c3800019f000064fbfe2f045876423ef0d34b53e8ca5d6972ff9a9d72261eacf645a2fad664450f3eebc003000bb800003c00000002c1738d90e2e26c35784a0d3e3d8a9f795074bca4000bb800003c000000022ab22ac86b25bd448a4d9dc041bd2384655299c400006400000100000004d7c8298e87d17dc31e6ac54ac72003f0a0f06fd05914a7e88c11489ff3c6cc2b0001f400000a0000000203af20bdaaffb4cc0a521796a223f7d85e2aac31000bb800003c00000002d28f71e383e93c570d3edfe82ebbceb35ec6c412000064000001000000031737275d53a5ca5dac582a493aa32c85ba2cfad3000064000001043763046459d26482d93057c4a6f91ab5a3f1e0a058558a6da1692c94b04cad4052b0f0000bb800003c00000002adb35413ec50e0afe41039eac8b930d313e94fa40001f400000a000000033c01ec09d15d5450fc702dc4353b17cd2978d8a5000064000001043885022e80d5a7b3c613d854ee43243ff09808108561eb000bb800003c00000002e2101d19b78e695982975cc1a27b6a9117e02b090001f400000a000000037cfc2da3ba598ef4de692905fedca32565ab836e000bc70000c804aa0b02394a9fcbab8599437d9ec4e5a4a0eb7cb1fd2f690001f400000a000000011eaa860dca29a5124f665f7d80affed92e877681000bb800000000000004480f40545dc5d0f203be423a4a7dc94217c00173617abaa22033e413370a66340027100000c800000002ff7fbdf7832ae524deda39ca402e03d92adff7a5000bb800003c00000001dff90e4a6c229565f25337b1db9fa12f6d8cb118000bb800000000000001a0a215de234276cac1b844fd58901351a50fec8a002328000000000000034e5541815227e3272c405886149f45d2f437c7ff000ba90000c8042245022ae3d6096d8215ac2acddf30c60caa984ea5debe000bb800003c0000000162191c893df8d26ac295ba1274a00975dc07190c00271000000000000001ae6c9b2a2777d0396cbe7e13fc9aceac0d052e0000271000000000000003230c121f55538a05448a9eeb8a510e7e0af39ee90001f400003200061c04ac4115c780e2c68df8a1167fcc2503296feafd75167d9f8fd80705759a221e85000bb800003c0000000236ece061816550e5d9d9082679b0adcf19872fc70027100000c80000000468ac856797995e65fdf2789f4a5fb8e3141bf2e78434730b88824ca3a53e25320027100000c8000000022b959ccb3c8fc1ed7769004742c197e28251027e00004100000100000003ee1bac98527a9fdd57fccf967817215b083ce1f000019f00006402e6e902adab76dd2dca7ae080a796f0ce86170e482afb4a000bb800003c0000000285c31ffa3706d1cce9d525a00f1c7d4a2911754c0001f400000a0000000158e6433a6903886e440ddf519ecc573c4046a6b200271000000000000003cf50dea65ee80ebddaa61005a960ef5a5c995a99000190000064feec8b03f7f575f2c0f6c99fa9efe1bde9e11fa10be4fef900006400000100000503a9f987869bfe56d3a2ece2e79df55684d0bbcd8b0001f400006402ee620236e42931a765022790b797963e42c5522d6b585a0027100000c8000000018f47041adbef5bf321c9f63a0660326614ab6b6000271000000000000002fdf64c32f4a03923547e6061911483b793e8d7e20027100000c800000000d77b31796b7ce1880f84709eb5d9045749bb3d31000bb800000000000004b54fb03cd65ee6f1214420e9ae50ce60f527f0f9fafff6a2354dbef56dda80c00027100000c8000000041298e22b83e87b363b453a10995c98762558d8aa042348f2c41650fa808cd05b0027100000c8000000035483484f876218908ca435f08222751f7f7b2a3b000064000001fffffc03f0ab9385894ea749bfa79bafcd192d65a1571c2a0001f400006402ee5f0204f6c85a1b00f6d9b75f91fd23835974cc07e65c0000640000010000000451bf4cc5b8d9f7f759e41f572fe2a25bc2aeb42432bf12544a350595e5c8bb430001f400000a000000016da98bde0068d10ddd11b468b197ea97d96f96bc0001f400000000000003bf30ff33cf9c6b0c48702ff17891293b002dfea400005a000001000773010493bf8b6dbb159ce2db2e0e8403e753abd1235b000bb800000000000002b589969d38ce76d3d7aa319de7133bc9755fd840000bb800003c00000004ebe9db89947dd14b34817843231b74044084b04d5b4fea5b4cd1b433b3e5b99f00001900000100000002b40da71c49c745dd3ab801882b1d41076054167800006400000100000002ba41b5891ccb839fb81bc186ff41a593d1832ba7000bb800003c00000002a73c628eaf6e283e26a7b1f8001cf186aa4c0e8e00006400000100000002b2ac2e5a3684411254d58b1c5a542212b782114d000bb800003c000000020893e340ee2b0263ddad2f3b8bd23dba11859aea000bb800003c00000003522dc96e6fd6f78a4e7433d0ee05b7087e5152360027100007d000e77b04edba0a2a9dc73acf4b130e07605cb4c212bbd98a31c9cd442cfb8cf5b4e093e70001f400000a00000003173cdc71e29d5cffa6d090ad99f555a24b8831f90027100000c8036406016ed6df1c23c51cb7cc67a348cc8d9e6108ea3bfe000bb800000000000003ec3d9098bd40ec741676fc04d4bd26bccf592aa3000bb80000c8ff81a2038949a8e02998d76d7a703cac9ee7e0f52982801100006400000103838a02d4cb5566b5c16ef2f4a08b1438052013171212a20027100000c80000000285149247691df622eaf1a8bd0cafd40bc45154a90001f400000a00000001477fa18b063b7728409570d274f7a055e3da0d6e000bb800000000000001f117719d5460ed6090814213433cb8d4e07bd583000bb8000000000000041efeb6a4185cf975d1526760b2c15fc1172bea8f30469139b9e167e0e624ea940027100000c80000000273b14a78a0d396c521f954532d43fd5ffe385216000bb800003c000000020d165f5bcc9cbb9cf75cef8b09cc77b1749a2a3300006400000100000002a8a5356ee5d02fe33d72355e4f698782f8f199e8000064000001000000022b6b093a6c2aba51e078540ad89ed76a0c6716fa000032000001000000027d1602f342787f80aef458c10e741149a1697447000bb800003c00000002ad4c666fc170b468b19988959eb931a3676f0e9f000bb800003c0000000226e7fed14a97e0c482a302237971cf1b04f6d3e9000bb800003c000000028e2eaef2c05ef93f424a8324b94e725eaa362f910027100000c800000002dd0c6bae8ad5998c358b823df15a2a4181da1b80000bb800003c00000003e5cf854f63152067059afd38e03fefb6cbe25df3000bb80000c80159de045c204f3724cc4dbe95cb53c9a968ae3eee46c3b4092d500770dc9c2a3f44d88b000bb800003c000000020fb07e6d6e1f52c839608e1436d2ea810cf072570027100000c80000000294687f50a6d6d01f63a60ba5b591e8163018b512000bb800003c00000000b3c8940f45f0bb0a7d8b54c341d414a881008574000bb8000000000000026948263b49caec3b1e7989a9c86de1d0484234dc0027100000c800000001f4f2657ae744354baca871e56775e5083f7276ab000bb8000000000000032fa71491f8070fa644d97b4782db5734854c0f6f000064000001fffffe020e09db9fd122a71c237a094d2d1bd44d48339f3400006400000100000001e0b1da86d17b884c4d246e218a67ae3466ad841c000bb800000000000002535541f1aa08416e69dc4d610131099fa2ae7222000bb800003c000000024dbb2d7785654074c53c5a915126d3378446bd61000032000001000000029b0c2660b535a156adf827481b2f9b61f31ebc49000bb800003c000000023f60fca6c50ae3bcd95ae150b4c57f0ba5c3f2ad000bb800003c00000002dc6cb16b8d635ef255cef370263c35ac0007186a0027100000c8000000022e2d190ad4e0d7be9569baebd4d33298379b05020001f400000a00000002d1f1bad4c9e6c44dec1e9bf3b94902205c5cd6c30027100000c800000002e612cb2b5644aef0ad3e922bae70a8374c63515f00006400000100000004be6f020332287f77a2d73520a9f9e925ecd79785aadeef00507e77c69cb5a900000bb800003c0000000322be4975c78b77979014d6a6bc0140e0eaf219870001f40000640440bb5f0300000001010200020003010400020005000001020106010700020008010200020009010a00030005000b01090003000c010d0009000300050007010a0004000e010f01100011010300080112010300020009010e0002001301140003001500160117000300180119000001030018011a00050104001b011c001d000001030018011c001e0003011a011c001f0003011d011c01190003000c012000000103001301210000010200050015010200000015010300220123002401030022012300250103000c01260000010300050027012800040029012a012b000c00030022012c00000102012d012e00030100012f003000030000003101320003000500200133000201210134000300000035003601020037013800040039013a003b013c00030005003d013e0103003f003000400002002f0041010300050030014201020043014400030000004501020002003f00420102002f00420103002f004601470103001301310000010401480149004a01210002004b013800020040014c01030000004d014e000300050030012f0104004f015000210000010200000051010400520153005400050103005501540005010300000048010200020013015600030157015800590002000c013300030032015a015b00030018015c005d000300050048015e0002003f0041010200130132000300130134000001030009015f0042010200090160000300000030014201030000000b010900020061013300020062016300020064016200020005006501030157015800660003000500350036010300000067003601030005006801690002016a016b000300360067011501030028012700000102010b01070002016c012c00020127016d00030028012700400003016e016f016d00030005006d012800030005003101130003002f005f0109000300130170014f000201670035010200360071000400600172003d0000010301050122016c00","maxFeePerGas":"0x3938700","maxPriorityFeePerGas":"0x18fc6","nonce":"0x1fa50","r":"0x732f78a25d524c18541f8ec1a971442d2f0f4b867ca80f0b6a7ac30d12d114f6","s":"0x1c2d2ba48842dd123f4f6dd17c0db79c440f48474fdb47100177915870895bb3","to":"0xa41b099535da7aa7fde4aa952791dad850fb1f4c","transactionIndex":"0x12","type":"0x2","v":"0x0","value":"0x0","yParity":"0x0"},{"accessList":[],"blockHash":"0x08a370790ae18ed36482f82f29b8024504671e1d54cc00d3d2782a64d0c05545","blockNumber":"0x867f7e1","chainId":"0xa","from":"0xd2dd3bd775f6de0280d5f60987f51b80c3fb5ea5","gas":"0x7a1200","gasPrice":"0x18f5b","hash":"0x2110a55cf25822157fcb1f46a1caefc0e19e897ddafc97dd2c35fc9ed982b245","input":"0x0007530c0b2c639c533813f4aa9d7837caf62653d097ff852416092f143378750bb29b79ed961ab195cceea500006400000000000000000000000000000000000000002416092f143378750bb29b79ed961ab195cceea50001f40b2c639c533813f4aa9d7837caf62653d097ff85edf38688b27036816a50185caa430d5479e1c63e000bb842000000000000000000000000000000000000426fd9d7ad17242c41f7131d257212c54a0e816691000bb8000000000000000000000000000000000000000094b008aa00579c1307b0ef2c499ad98a8ce58e580001f494b008aa00579c1307b0ef2c499ad98a8ce58e58e85d2c93f7e26b99a46a8bb9350cbfb965fa4f820027100000000000000000000000000000000000000000e85d2c93f7e26b99a46a8bb9350cbfb965fa4f820027100b2c639c533813f4aa9d7837caf62653d097ff854200000000000000000000000000000000000042000bb894b008aa00579c1307b0ef2c499ad98a8ce58e58f5ff651375b2b5f1b9531061de71781d58533dee000bb80000000000000000000000000000000000000000f5ff651375b2b5f1b9531061de71781d58533dee000bb80b2c639c533813f4aa9d7837caf62653d097ff8594b008aa00579c1307b0ef2c499ad98a8ce58e5800001994b008aa00579c1307b0ef2c499ad98a8ce58e58ff733b2a3557a7ed6697007ab5d11b79fdd1b76b0181f02cf0ab9385894ea749bfa79bafcd192d65a1571c2a006400320000000022be4975c78b77979014d6a6bc0140e0eaf2198700640032000000004dc22588ade05c40338a9d95a6da9dcee68bcd6000c8002e000000001d72b49f81832ef8155d8dedfce9cd122367e3b3006400320000000026e7fed14a97e0c482a302237971cf1b04f6d3e9003c012c00000000ad4c666fc170b468b19988959eb931a3676f0e9f003c012c00000000478946bcd4a5a22b316470f5486fafb928c0ba250064002b0000000000000000000000000000000000000000000000000001800a000000000000000000000000000000000000000000000000000a8032000000001fb3cf6e48f1e7b10213e7b6d87d4c073c7fdb7b000a0032000000001737275d53a5ca5dac582a493aa32c85ba2cfad30001000a0000000003af20bdaaffb4cc0a521796a223f7d85e2aac31003c012c000000000000000000000000000000000000000000000000003c812c000000001eaa860dca29a5124f665f7d80affed92e8776814000412c00000000cdd41009e74bd1ae4f7b2eecf892e4bc718b930200004032000000000000000000000000000000000000000000000000003c812c000000000000000000000000000000000000000000000000000a803200000000eb1817b708415f4f78c5f0c99cbbd6a3a899fa6d003c012c00000000c858a329bf053be78d6239c4a4343b8fbd21472b000a003200000000000000000000000000000000000000000000000000c883e800000000000000000000000000000000000000000000000000c883e8000000002b959ccb3c8fc1ed7769004742c197e28251027e0001000000000000e5cf854f63152067059afd38e03fefb6cbe25df300c8012c00000000394a9fcbab8599437d9ec4e5a4a0eb7cb1fd2f69000a003200000000319c0dd36284ac24a6b2bee73929f699b9f48c380064002b000000000000000000000000000000000000000000000000003c812c00000000ee1bac98527a9fdd57fccf967817215b083ce1f00064002c000000006cfdebcc8bf2548967d4e02c058290634e4931d100640028000000000000000000000000000000000000000000000000003c812c000000000000000000000000000000000000000000000000003c812c0000000039ed27d101aa4b7ce1cb4293b877954b8b5e14e500c8012d00000000a0a215de234276cac1b844fd58901351a50fec8a400043840000000000000000000000000000000000000000000000000001800300000000bf30ff33cf9c6b0c48702ff17891293b002dfea40001000900000000b533c12fb4e7b53b5524eab9b47d93ff6c7a456f003c012c00000000e612cb2b5644aef0ad3e922bae70a8374c63515f0001000a00000000ec3d9098bd40ec741676fc04d4bd26bccf592aa300c8012c00000000fc1f3296458f9b2a27a0b91dd7681c4020e09d05000a0032000000008f47041adbef5bf321c9f63a0660326614ab6b60400043e80000000036e42931a765022790b797963e42c5522d6b585a00c803e800000000000000000000000000000000000000000000000007b8a698000000002cd32fb367431fd6f499328edf34934fdbbc6b264000412c000000004e5541815227e3272c405886149f45d2f437c7ff00c8012c000000002ae3d6096d8215ac2acddf30c60caa984ea5debe003c012c0000000000030080018203000384850300860788020089060300860a8b0300860c8d03000e0f85030010918503001213940300951682030086179803008619820300959a0603001b1c9d03001e9f06030012a0060300a11682030086228203001823a402002582020026a703001228a903001b13940300121c9d0300862aab","maxFeePerGas":"0x201674","maxPriorityFeePerGas":"0x18cc2","nonce":"0xb4416","r":"0x3a6a8211a75f524c00f37ba008d6989777cf2f008cb630555c85e761b6728c1a","s":"0x3f36fa1f23a24bf7acfb493fef3f61341386a39010faaeda37aa4d7926f49c15","to":"0x6e9f302f33bfb76fb7d9592c940d5bf24a3fdbb4","transactionIndex":"0x13","type":"0x2","v":"0x0","value":"0x0","yParity":"0x0"},{"accessList":[],"blockHash":"0x08a370790ae18ed36482f82f29b8024504671e1d54cc00d3d2782a64d0c05545","blockNumber":"0x867f7e1","chainId":"0xa","from":"0x7163640337bd0097858c85daec5a34d11ae8c5db","gas":"0xdaa4b","gasPrice":"0x18c55","hash":"0x7c109e7273f7c53a55adc4a78c7687af447621a5b6ebb3fd7c103d05c821707a","input":"0xb94c3609000000000000000000000000000000000000000000000000000000000000004000000000000000000000000000000000000000000000000000000000000000c0000000000000000000000000000000000000000000000000000000000000000000000000000000000000000000000000000000000000000000000000000000400000000000000000000000000000000000000000000000000000000000000020000000000000000000000000000000000000000000000000000001d1a94a20000000000000000000000000000000000000000000000000000000000000000ae495352c9f03d2796cf4c524a658f92d78288f40b1dee68be3d45c63304a562e86d795942a5404915bf7cf4b502563c752c9e5b585105adfb38c193b56da00a59d5beb8a7500000000000000000000000000000000000000000000000000000000000000800000000000000000000000000000000000000000000000000000000000000140000000000000000000000000000000000000000000000000000000000000000519198595a30081ffffffffff69afa05352b3797b8d08ce3b5edf27eb0585d560346387bf430000000000000abedfac7488dccaafdd66d1d7d56349780fe0477e020303040502060708898affffffffffffffffffffffffffffffffffffffffff6e7a43a3010a0bffffffff0a7e7d64d987cab6eed08a191c4c2459daf2f8ed0b241c5912010affffffffffff7e7d64d987cab6eed08a191c4c2459daf2f8ed0b000000000000000000000000000000000000000000000000000000000000000c000000000000000000000000000000000000000000000000000000000000018000000000000000000000000000000000000000000000000000000000000001c000000000000000000000000000000000000000000000000000000000000001e00000000000000000000000000000000000000000000000000000000000000220000000000000000000000000000000000000000000000000000000000000026000000000000000000000000000000000000000000000000000000000000002a000000000000000000000000000000000000000000000000000000000000002e00000000000000000000000000000000000000000000000000000000000000320000000000000000000000000000000000000000000000000000000000000036000000000000000000000000000000000000000000000000000000000000003a0000000000000000000000000000000000000000000000000000000000000090000000000000000000000000000000000000000000000000000000000000009400000000000000000000000000000000000000000000000000000000000000020000000000000000000000000000000000000000000000000000000012a05f20000000000000000000000000000000000000000000000000000000000000000000000000000000000000000000000000000000000000000000000000000000020000000000000000000000000000000000000000000000000000001d07f442e0000000000000000000000000000000000000000000000000000000000000000200000000000000000000000000000000000001ff3684f28c67538d4d072c227340000000000000000000000000000000000000000000000000000000000000020000000000000000000000000eeeeeeeeeeeeeeeeeeeeeeeeeeeeeeeeeeeeeeee000000000000000000000000000000000000000000000000000000000000002000000000000000000000000094b008aa00579c1307b0ef2c499ad98a8ce58e580000000000000000000000000000000000000000000000000000000000000020000000000000000000000000000000000000000000000000000000000000235100000000000000000000000000000000000000000000000000000000000000200000000000000000000000007163640337bd0097858c85daec5a34d11ae8c5db000000000000000000000000000000000000000000000000000000000000002000000000000000000000000069afa05352b3797b8d08ce3b5edf27eb0585d560000000000000000000000000000000000000000000000000000000000000054000000000000000000000000000000000000000000000000000000000000005042213bc0b000000000000000000000000d8014f15a920bf9edfdb87159ee10cadc07fcb530000000000000000000000000000000000000000000000000000000000000000000000000000000000000000000000000000000000000000000001d07f442e00000000000000000000000000d8014f15a920bf9edfdb87159ee10cadc07fcb5300000000000000000000000000000000000000000000000000000000000000a000000000000000000000000000000000000000000000000000000000000004241fff991f000000000000000000000000bedfac7488dccaafdd66d1d7d56349780fe0477e00000000000000000000000094b008aa00579c1307b0ef2c499ad98a8ce58e58000000000000000000000000000000000000000000000000000000000000233a00000000000000000000000000000000000000000000000000000000000000a02885691f61bd8a7380f1a54e00000000000000000000000000000000000000000000000000000000000000000000000000000000000000000000000000000003000000000000000000000000000000000000000000000000000000000000006000000000000000000000000000000000000000000000000000000000000001a000000000000000000000000000000000000000000000000000000000000002c0000000000000000000000000000000000000000000000000000000000000010438c9c147000000000000000000000000eeeeeeeeeeeeeeeeeeeeeeeeeeeeeeeeeeeeeeee00000000000000000000000000000000000000000000000000000000000027100000000000000000000000004200000000000000000000000000000000000006000000000000000000000000000000000000000000000000000000000000000400000000000000000000000000000000000000000000000000000000000000a00000000000000000000000000000000000000000000000000000000000000024d0e30db00000000000000000000000000000000000000000000000000000000000000000000000000000000000000000000000000000000000000000000000000000000000000000000000000000000000000000000000000000000000000000000000000000000000000000000000000000000000000000000000e48d68a156000000000000000000000000d8014f15a920bf9edfdb87159ee10cadc07fcb53000000000000000000000000000000000000000000000000000000000000271000000000000000000000000000000000000000000000000000000000000000800000000000000000000000000000000000000000000000000000000000000000000000000000000000000000000000000000000000000000000000000000002c420000000000000000000000000000000000000602000bb894b008aa00579c1307b0ef2c499ad98a8ce58e580000000000000000000000000000000000000000000000000000000000000000000000000000000000000000000000000000000000000000000000000000000000000000000000000000000000000064c876d21d000000000000000000000000f5c4f3dc02c3fb9279495a8fef7b0741da95615700000000000000000000000094b008aa00579c1307b0ef2c499ad98a8ce58e580000000000000000000000000000000000000000000000000000000000002359000000000000000000000000000000000000000000000000000000000000000000000000000000000000000000000000000000000000000000000000000000000000000000000000000000000000000000000000000000000000000000000000000000000000000000000000000000000000002000000000000000000000000000000000000000000000000000000000000000000000000000000000000000000000000000000000000000000000000000000020000000000000000000000000000000000000000000000000000000000000233a00000000000000000000000000000000000000000000000000000000","maxFeePerGas":"0x18d32","maxPriorityFeePerGas":"0x189bc","nonce":"0xc9","r":"0xec57d75343d9cc74b57b462ca9dfef911c2d8829809ff8efbaca37e08524dba3","s":"0x24757e3f02d3feb5bd34a5c5895e18c1d2268b1c4aa6e75f60132e0eec364213","to":"0xf75584ef6673ad213a685a1b58cc0330b8ea22cf","transactionIndex":"0x14","type":"0x2","v":"0x1","value":"0x1d1a94a2000","yParity":"0x1"},{"accessList":[],"blockHash":"0x08a370790ae18ed36482f82f29b8024504671e1d54cc00d3d2782a64d0c05545","blockNumber":"0x867f7e1","chainId":"0xa","from":"0xd9d5f660ccd37153b22f8200fcf5ce3643a98d89","gas":"0xdaa6f","gasPrice":"0x18c55","hash":"0xeed395518425c5d71a9e747e028f5ae7c09672aa26e5ca32d5c0c0f5aa2e977e","input":"0xb94c3609000000000000000000000000000000000000000000000000000000000000004000000000000000000000000000000000000000000000000000000000000000c0000000000000000000000000000000000000000000000000000000000000000000000000000000000000000000000000000000000000000000000000000000400000000000000000000000000000000000000000000000000000000000000020000000000000000000000000000000000000000000000000000001d1a94a20000000000000000000000000000000000000000000000000000000000000000ae495352c9f03d2796cf4c524a658f92d78288f40b1dee68be3d45c63304a562e86d795942a321e8864d1acf53030b4e572ce2253da761cc0e54cc414c5d4b8c3c070968e2c00000000000000000000000000000000000000000000000000000000000000800000000000000000000000000000000000000000000000000000000000000140000000000000000000000000000000000000000000000000000000000000000519198595a30081ffffffffff69afa05352b3797b8d08ce3b5edf27eb0585d560346387bf430000000000000abedfac7488dccaafdd66d1d7d56349780fe0477e020303040502060708898affffffffffffffffffffffffffffffffffffffffff6e7a43a3010a0bffffffff0a7e7d64d987cab6eed08a191c4c2459daf2f8ed0b241c5912010affffffffffff7e7d64d987cab6eed08a191c4c2459daf2f8ed0b000000000000000000000000000000000000000000000000000000000000000c000000000000000000000000000000000000000000000000000000000000018000000000000000000000000000000000000000000000000000000000000001c000000000000000000000000000000000000000000000000000000000000001e00000000000000000000000000000000000000000000000000000000000000220000000000000000000000000000000000000000000000000000000000000026000000000000000000000000000000000000000000000000000000000000002a000000000000000000000000000000000000000000000000000000000000002e00000000000000000000000000000000000000000000000000000000000000320000000000000000000000000000000000000000000000000000000000000036000000000000000000000000000000000000000000000000000000000000003a0000000000000000000000000000000000000000000000000000000000000090000000000000000000000000000000000000000000000000000000000000009400000000000000000000000000000000000000000000000000000000000000020000000000000000000000000000000000000000000000000000000012a05f20000000000000000000000000000000000000000000000000000000000000000000000000000000000000000000000000000000000000000000000000000000020000000000000000000000000000000000000000000000000000001d07f442e0000000000000000000000000000000000000000000000000000000000000000200000000000000000000000000000000000001ff3684f28c67538d4d072c227340000000000000000000000000000000000000000000000000000000000000020000000000000000000000000eeeeeeeeeeeeeeeeeeeeeeeeeeeeeeeeeeeeeeee000000000000000000000000000000000000000000000000000000000000002000000000000000000000000094b008aa00579c1307b0ef2c499ad98a8ce58e58000000000000000000000000000000000000000000000000000000000000002000000000000000000000000000000000000000000000000000000000000023510000000000000000000000000000000000000000000000000000000000000020000000000000000000000000d9d5f660ccd37153b22f8200fcf5ce3643a98d89000000000000000000000000000000000000000000000000000000000000002000000000000000000000000069afa05352b3797b8d08ce3b5edf27eb0585d560000000000000000000000000000000000000000000000000000000000000054000000000000000000000000000000000000000000000000000000000000005042213bc0b000000000000000000000000d8014f15a920bf9edfdb87159ee10cadc07fcb530000000000000000000000000000000000000000000000000000000000000000000000000000000000000000000000000000000000000000000001d07f442e00000000000000000000000000d8014f15a920bf9edfdb87159ee10cadc07fcb5300000000000000000000000000000000000000000000000000000000000000a000000000000000000000000000000000000000000000000000000000000004241fff991f000000000000000000000000bedfac7488dccaafdd66d1d7d56349780fe0477e00000000000000000000000094b008aa00579c1307b0ef2c499ad98a8ce58e58000000000000000000000000000000000000000000000000000000000000233a00000000000000000000000000000000000000000000000000000000000000a0460d2f632483381b5720d8a300000000000000000000000000000000000000000000000000000000000000000000000000000000000000000000000000000003000000000000000000000000000000000000000000000000000000000000006000000000000000000000000000000000000000000000000000000000000001a000000000000000000000000000000000000000000000000000000000000002c0000000000000000000000000000000000000000000000000000000000000010438c9c147000000000000000000000000eeeeeeeeeeeeeeeeeeeeeeeeeeeeeeeeeeeeeeee00000000000000000000000000000000000000000000000000000000000027100000000000000000000000004200000000000000000000000000000000000006000000000000000000000000000000000000000000000000000000000000000400000000000000000000000000000000000000000000000000000000000000a00000000000000000000000000000000000000000000000000000000000000024d0e30db00000000000000000000000000000000000000000000000000000000000000000000000000000000000000000000000000000000000000000000000000000000000000000000000000000000000000000000000000000000000000000000000000000000000000000000000000000000000000000000000e48d68a156000000000000000000000000d8014f15a920bf9edfdb87159ee10cadc07fcb53000000000000000000000000000000000000000000000000000000000000271000000000000000000000000000000000000000000000000000000000000000800000000000000000000000000000000000000000000000000000000000000000000000000000000000000000000000000000000000000000000000000000002c420000000000000000000000000000000000000602000bb894b008aa00579c1307b0ef2c499ad98a8ce58e580000000000000000000000000000000000000000000000000000000000000000000000000000000000000000000000000000000000000000000000000000000000000000000000000000000000000064c876d21d000000000000000000000000f5c4f3dc02c3fb9279495a8fef7b0741da95615700000000000000000000000094b008aa00579c1307b0ef2c499ad98a8ce58e58000000000000000000000000000000000000000000000000000000000000235e000000000000000000000000000000000000000000000000000000000000000000000000000000000000000000000000000000000000000000000000000000000000000000000000000000000000000000000000000000000000000000000000000000000000000000000000000000000000002000000000000000000000000000000000000000000000000000000000000000000000000000000000000000000000000000000000000000000000000000000020000000000000000000000000000000000000000000000000000000000000233a00000000000000000000000000000000000000000000000000000000","maxFeePerGas":"0x18d32","maxPriorityFeePerGas":"0x189bc","nonce":"0xc6","r":"0xc81572949b20110540533ccfc75f822b3c3724aee24c4dccd6d8ccad9726e8b5","s":"0x18c440dfc697046753247314e1c9e3495cecd9a77a457fa39915fcc5a4c2bfac","to":"0xf75584ef6673ad213a685a1b58cc0330b8ea22cf","transactionIndex":"0x15","type":"0x2","v":"0x0","value":"0x1d1a94a2000","yParity":"0x0"},{"accessList":[],"blockHash":"0x08a370790ae18ed36482f82f29b8024504671e1d54cc00d3d2782a64d0c05545","blockNumber":"0x867f7e1","chainId":"0xa","from":"0x81b6e0eb9de7e11085915ce90b70ebf9b35f89a8","gas":"0x106c5c","gasPrice":"0x18c55","hash":"0xcd1af2201708c507df3a5ccbf784df263638d2e99b20dd67fedb8e7f69338f7a","input":"0xb94c3609000000000000000000000000000000000000000000000000000000000000004000000000000000000000000000000000000000000000000000000000000000c0000000000000000000000000000000000000000000000000000000000000000000000000000000000000000000000000000000000000000000000000000000400000000000000000000000000000000000000000000000000000000000000020000000000000000000000000000000000000000000000000000001d1a94a200000000000000000000000000000000000000000000000000000000000000008c495352c9f03d2796cf4c524a658f92d78288f40b1dee68be3d45c63304a562e86d795942a51e72508ef2a39cd61dc033c7d57d5479a46ea019770731346ab13a66eb44e7d00000000000000000000000000000000000000000000000000000000000000800000000000000000000000000000000000000000000000000000000000000140000000000000000000000000000000000000000000000000000000000000000519198595a30081ffffffffff69afa05352b3797b8d08ce3b5edf27eb0585d560346387bf430000000000000abedfac7488dccaafdd66d1d7d56349780fe0477e020303040502060708898affffffffffffffffffffffffffffffffffffffffff6e7a43a3010a0bffffffff0a7e7d64d987cab6eed08a191c4c2459daf2f8ed0b241c5912010affffffffffff7e7d64d987cab6eed08a191c4c2459daf2f8ed0b000000000000000000000000000000000000000000000000000000000000000c000000000000000000000000000000000000000000000000000000000000018000000000000000000000000000000000000000000000000000000000000001c000000000000000000000000000000000000000000000000000000000000001e00000000000000000000000000000000000000000000000000000000000000220000000000000000000000000000000000000000000000000000000000000026000000000000000000000000000000000000000000000000000000000000002a000000000000000000000000000000000000000000000000000000000000002e00000000000000000000000000000000000000000000000000000000000000320000000000000000000000000000000000000000000000000000000000000036000000000000000000000000000000000000000000000000000000000000003a000000000000000000000000000000000000000000000000000000000000006e000000000000000000000000000000000000000000000000000000000000007200000000000000000000000000000000000000000000000000000000000000020000000000000000000000000000000000000000000000000000000012a05f20000000000000000000000000000000000000000000000000000000000000000000000000000000000000000000000000000000000000000000000000000000020000000000000000000000000000000000000000000000000000001d07f442e000000000000000000000000000000000000000000000000000000000000000020000000000000000000000000111111125421ca6dc452d289314280a0f8842a650000000000000000000000000000000000000000000000000000000000000020000000000000000000000000eeeeeeeeeeeeeeeeeeeeeeeeeeeeeeeeeeeeeeee00000000000000000000000000000000000000000000000000000000000000200000000000000000000000007f5c764cbc14f9669b88837ca1490cca17c316070000000000000000000000000000000000000000000000000000000000000020000000000000000000000000000000000000000000000000000000000000236d000000000000000000000000000000000000000000000000000000000000002000000000000000000000000081b6e0eb9de7e11085915ce90b70ebf9b35f89a8000000000000000000000000000000000000000000000000000000000000002000000000000000000000000069afa05352b3797b8d08ce3b5edf27eb0585d560000000000000000000000000000000000000000000000000000000000000032000000000000000000000000000000000000000000000000000000000000002e807ed2379000000000000000000000000862268aae81a90e7976a4b4eeecef6c1fb08bfdb000000000000000000000000eeeeeeeeeeeeeeeeeeeeeeeeeeeeeeeeeeeeeeee0000000000000000000000007f5c764cbc14f9669b88837ca1490cca17c31607000000000000000000000000862268aae81a90e7976a4b4eeecef6c1fb08bfdb000000000000000000000000bedfac7488dccaafdd66d1d7d56349780fe0477e000000000000000000000000000000000000000000000000000001d07f442e00000000000000000000000000000000000000000000000000000000000000235600000000000000000000000000000000000000000000000000000000000000000000000000000000000000000000000000000000000000000000000000000120000000000000000000000000000000000000000000000000000000000000018800000000000000000000000000000000000000000000000000016a00001a40414200000000000000000000000000000000000006d0e30db05126a132dab612db5cb9fc9ac426a0cc215a3423f9c942000000000000000000000000000000000000060004f41766d80000000000000000000000000000000000000000000000000000000000000000000000000000000000000000000000000000000000000000000000000000231200000000000000000000000000000000000000000000000000000000000000a0000000000000000000000000111111125421ca6dc452d289314280a0f8842a650000000000000000000000000000000000000000000000000000000068ca60e8000000000000000000000000000000000000000000000000000000000000000100000000000000000000000042000000000000000000000000000000000000060000000000000000000000007f5c764cbc14f9669b88837ca1490cca17c31607000000000000000000000000000000000000000000000000000000000000000000000000000000000000000000000000000000000000000097864b91000000000000000000000000000000000000000000000000000000000000000000000000000000000000000000000000000000000000002000000000000000000000000000000000000000000000000000000000000000000000000000000000000000000000000000000000000000000000000000000020000000000000000000000000000000000000000000000000000000000000235600000000000000000000000000000000000000000000000000000000","maxFeePerGas":"0x18d31","maxPriorityFeePerGas":"0x189bc","nonce":"0xd2","r":"0x90ac440d5a2c9c503e0ca98d1ebe4285539be039bd9458b209585fad9959e072","s":"0xe6577d4fab4ba8c00092f16fb1dadae6821b86f4c196edc6397b524b81c38fb","to":"0xf75584ef6673ad213a685a1b58cc0330b8ea22cf","transactionIndex":"0x16","type":"0x2","v":"0x1","value":"0x1d1a94a2000","yParity":"0x1"},{"accessList":[],"blockHash":"0x08a370790ae18ed36482f82f29b8024504671e1d54cc00d3d2782a64d0c05545","blockNumber":"0x867f7e1","chainId":"0xa","from":"0xbd4f3e0fe97ba7f4081c7c798b3b43fd0876f7b0","gas":"0x1108da","gasPrice":"0x18c55","hash":"0x24e2706ebc33d5be8dea0f25e8fdfd46281d06c20a420f41b69e9df6d76fb70c","input":"0xb94c3609000000000000000000000000000000000000000000000000000000000000004000000000000000000000000000000000000000000000000000000000000000c0000000000000000000000000000000000000000000000000000000000000000000000000000000000000000000000000000000000000000000000000000000400000000000000000000000000000000000000000000000000000000000000020000000000000000000000000000000000000000000000000000000e8d4a5100000000000000000000000000000000000000000000000000000000000000008c495352c9f03d2796cf4c524a658f92d78288f40b1dee68be3d45c63304a562e86d795942ae204df5eecd3a8232f39078cb05bbcda884e9e8d5951e8e320af4602bb7f682d00000000000000000000000000000000000000000000000000000000000000800000000000000000000000000000000000000000000000000000000000000140000000000000000000000000000000000000000000000000000000000000000519198595a30081ffffffffff69afa05352b3797b8d08ce3b5edf27eb0585d560346387bf430000000000000abedfac7488dccaafdd66d1d7d56349780fe0477e020303040502060708898affffffffffffffffffffffffffffffffffffffffff6e7a43a3010a0bffffffff0a7e7d64d987cab6eed08a191c4c2459daf2f8ed0b241c5912010affffffffffff7e7d64d987cab6eed08a191c4c2459daf2f8ed0b000000000000000000000000000000000000000000000000000000000000000c000000000000000000000000000000000000000000000000000000000000018000000000000000000000000000000000000000000000000000000000000001c000000000000000000000000000000000000000000000000000000000000001e00000000000000000000000000000000000000000000000000000000000000220000000000000000000000000000000000000000000000000000000000000026000000000000000000000000000000000000000000000000000000000000002a000000000000000000000000000000000000000000000000000000000000002e00000000000000000000000000000000000000000000000000000000000000320000000000000000000000000000000000000000000000000000000000000036000000000000000000000000000000000000000000000000000000000000003a000000000000000000000000000000000000000000000000000000000000006e000000000000000000000000000000000000000000000000000000000000007200000000000000000000000000000000000000000000000000000000000000020000000000000000000000000000000000000000000000000000000009502f90000000000000000000000000000000000000000000000000000000000000000000000000000000000000000000000000000000000000000000000000000000020000000000000000000000000000000000000000000000000000000e83fa217000000000000000000000000000000000000000000000000000000000000000020000000000000000000000000111111125421ca6dc452d289314280a0f8842a650000000000000000000000000000000000000000000000000000000000000020000000000000000000000000eeeeeeeeeeeeeeeeeeeeeeeeeeeeeeeeeeeeeeee00000000000000000000000000000000000000000000000000000000000000200000000000000000000000007f5c764cbc14f9669b88837ca1490cca17c31607000000000000000000000000000000000000000000000000000000000000002000000000000000000000000000000000000000000000000000000000000011b60000000000000000000000000000000000000000000000000000000000000020000000000000000000000000bd4f3e0fe97ba7f4081c7c798b3b43fd0876f7b0000000000000000000000000000000000000000000000000000000000000002000000000000000000000000069afa05352b3797b8d08ce3b5edf27eb0585d560000000000000000000000000000000000000000000000000000000000000032000000000000000000000000000000000000000000000000000000000000002e807ed2379000000000000000000000000862268aae81a90e7976a4b4eeecef6c1fb08bfdb000000000000000000000000eeeeeeeeeeeeeeeeeeeeeeeeeeeeeeeeeeeeeeee0000000000000000000000007f5c764cbc14f9669b88837ca1490cca17c31607000000000000000000000000862268aae81a90e7976a4b4eeecef6c1fb08bfdb000000000000000000000000bedfac7488dccaafdd66d1d7d56349780fe0477e000000000000000000000000000000000000000000000000000000e83fa2170000000000000000000000000000000000000000000000000000000000000011aa00000000000000000000000000000000000000000000000000000000000000000000000000000000000000000000000000000000000000000000000000000120000000000000000000000000000000000000000000000000000000000000018800000000000000000000000000000000000000000000000000016a00001a40414200000000000000000000000000000000000006d0e30db05126a132dab612db5cb9fc9ac426a0cc215a3423f9c942000000000000000000000000000000000000060004f41766d80000000000000000000000000000000000000000000000000000000000000000000000000000000000000000000000000000000000000000000000000000118800000000000000000000000000000000000000000000000000000000000000a0000000000000000000000000111111125421ca6dc452d289314280a0f8842a650000000000000000000000000000000000000000000000000000000068ca60e8000000000000000000000000000000000000000000000000000000000000000100000000000000000000000042000000000000000000000000000000000000060000000000000000000000007f5c764cbc14f9669b88837ca1490cca17c31607000000000000000000000000000000000000000000000000000000000000000000000000000000000000000000000000000000000000000097864b9100000000000000000000000000000000000000000000000000000000000000000000000000000000000000000000000000000000000000200000000000000000000000000000000000000000000000000000000000000000000000000000000000000000000000000000000000000000000000000000002000000000000000000000000000000000000000000000000000000000000011aa00000000000000000000000000000000000000000000000000000000","maxFeePerGas":"0x18d32","maxPriorityFeePerGas":"0x189bc","nonce":"0xce","r":"0x145e4eaa2d1ef25101c1cf89dd8d1aa61832d72e961461cba44d0b934a75ab4e","s":"0x7b447f1fe8b7a43ee36f9bc89eb2b00a311feed8dfa2a0df329532b83c5c78ea","to":"0xf75584ef6673ad213a685a1b58cc0330b8ea22cf","transactionIndex":"0x17","type":"0x2","v":"0x0","value":"0xe8d4a51000","yParity":"0x0"},{"accessList":[],"blockHash":"0x08a370790ae18ed36482f82f29b8024504671e1d54cc00d3d2782a64d0c05545","blockNumber":"0x867f7e1","chainId":"0xa","from":"0x81212627903babf238c2cb505c5d04687b502b41","gas":"0x7a1200","gasPrice":"0x1894f","hash":"0xd89814d9ff125b0bfd83a1096effbaab5e88c7d57b887a3e8c2965319a1367d5","input":"0x0007530c42000000000000000000000000000000000000426fd9d7ad17242c41f7131d257212c54a0e816691000bb80b2c639c533813f4aa9d7837caf62653d097ff854200000000000000000000000000000000000042000bb8000000000000000000000000000000000000000094b008aa00579c1307b0ef2c499ad98a8ce58e580001f494b008aa00579c1307b0ef2c499ad98a8ce58e58f5ff651375b2b5f1b9531061de71781d58533dee000bb80000000000000000000000000000000000000000f5ff651375b2b5f1b9531061de71781d58533dee000bb894b008aa00579c1307b0ef2c499ad98a8ce58e58ff733b2a3557a7ed6697007ab5d11b79fdd1b76b0181f094b008aa00579c1307b0ef2c499ad98a8ce58e58e85d2c93f7e26b99a46a8bb9350cbfb965fa4f820027100000000000000000000000000000000000000000e85d2c93f7e26b99a46a8bb9350cbfb965fa4f820027100b2c639c533813f4aa9d7837caf62653d097ff85edf38688b27036816a50185caa430d5479e1c63e000bb80b2c639c533813f4aa9d7837caf62653d097ff852416092f143378750bb29b79ed961ab195cceea500006400000000000000000000000000000000000000002416092f143378750bb29b79ed961ab195cceea50001f40b2c639c533813f4aa9d7837caf62653d097ff8594b008aa00579c1307b0ef2c499ad98a8ce58e580000192c1fb3cf6e48f1e7b10213e7b6d87d4c073c7fdb7b000a003200000000478946bcd4a5a22b316470f5486fafb928c0ba250064002b000000002b959ccb3c8fc1ed7769004742c197e28251027e0001000000000000e5cf854f63152067059afd38e03fefb6cbe25df300c8012c000000004dc22588ade05c40338a9d95a6da9dcee68bcd6000c8002e00000000bf30ff33cf9c6b0c48702ff17891293b002dfea40001000900000000cdd41009e74bd1ae4f7b2eecf892e4bc718b930200004032000000000000000000000000000000000000000000000000003c812c00000000ad4c666fc170b468b19988959eb931a3676f0e9f003c012c000000000000000000000000000000000000000000000000003c812c000000000000000000000000000000000000000000000000000a803200000000eb1817b708415f4f78c5f0c99cbbd6a3a899fa6d003c012c00000000c858a329bf053be78d6239c4a4343b8fbd21472b000a0032000000000000000000000000000000000000000000000000003c812c000000000000000000000000000000000000000000000000003c812c00000000000000000000000000000000000000000000000007b8a698000000002cd32fb367431fd6f499328edf34934fdbbc6b264000412c00000000f0ab9385894ea749bfa79bafcd192d65a1571c2a006400320000000022be4975c78b77979014d6a6bc0140e0eaf2198700640032000000004e5541815227e3272c405886149f45d2f437c7ff00c8012c000000002ae3d6096d8215ac2acddf30c60caa984ea5debe003c012c000000006cfdebcc8bf2548967d4e02c058290634e4931d10064002800000000b533c12fb4e7b53b5524eab9b47d93ff6c7a456f003c012c00000000000000000000000000000000000000000000000000c883e800000000000000000000000000000000000000000000000000c883e8000000008f47041adbef5bf321c9f63a0660326614ab6b60400043e80000000036e42931a765022790b797963e42c5522d6b585a00c803e8000000001d72b49f81832ef8155d8dedfce9cd122367e3b3006400320000000026e7fed14a97e0c482a302237971cf1b04f6d3e9003c012c0000000039ed27d101aa4b7ce1cb4293b877954b8b5e14e500c8012d00000000a0a215de234276cac1b844fd58901351a50fec8a40004384000000000000000000000000000000000000000000000000003c812c000000001eaa860dca29a5124f665f7d80affed92e8776814000412c0000000000000000000000000000000000000000000000000001800a000000000000000000000000000000000000000000000000000a8032000000001737275d53a5ca5dac582a493aa32c85ba2cfad30001000a0000000003af20bdaaffb4cc0a521796a223f7d85e2aac31003c012c00000000fc1f3296458f9b2a27a0b91dd7681c4020e09d05000a00320000000000000000000000000000000000000000000000000001800300000000ee1bac98527a9fdd57fccf967817215b083ce1f00064002c00000000319c0dd36284ac24a6b2bee73929f699b9f48c380064002b00000000e612cb2b5644aef0ad3e922bae70a8374c63515f0001000a00000000ec3d9098bd40ec741676fc04d4bd26bccf592aa300c8012c00000000394a9fcbab8599437d9ec4e5a4a0eb7cb1fd2f69000a0032000000000002008001030082038403008503840300060788030081098403000a8b8803000c0d8e03000c0f90030091128403008113940300150d8e030081168403001517980200199a03001b9c8803001d9e010300811fa003008121a203008123a40200258403000ca601030082a70103000c179803002829aa0300812ba8","maxFeePerGas":"0x20106a","maxPriorityFeePerGas":"0x186b6","nonce":"0xb47e4","r":"0x8910e0df14b656f058de476e05dcf25ce3f84a8c772011e36289522223f7a133","s":"0x784ab83466953cec259010b5d78b93922dd6508a5d3c96ba22c3cad14e81216a","to":"0x6e9f302f33bfb76fb7d9592c940d5bf24a3fdbb4","transactionIndex":"0x18","type":"0x2","v":"0x1","value":"0x0","yParity":"0x1"},{"blockHash":"0x08a370790ae18ed36482f82f29b8024504671e1d54cc00d3d2782a64d0c05545","blockNumber":"0x867f7e1","chainId":"0xa","from":"0xa6acceeb7d7dade129d1b457868b1fcb4a46425d","gas":"0x5208","gasPrice":"0x89c6","hash":"0x6257e2c39e757e153a1a10ac8c14f9f434b48b7822597369a4f6f95d31eee25a","input":"0x","nonce":"0x8","r":"0x6daf9f21602d33951749c9a2ab7336abef43c045f97a6370ef837d5618f0c2ca","s":"0x77b7544338de9d08c1681159c406503f1fba886ea8e9c4ee28e73e19b0472c8e","to":"0x8e6c39264f4e2d9d739675de295a49abaed493b1","transactionIndex":"0x19","type":"0x0","v":"0x38","value":"0xfaa359326d7b"},{"accessList":[],"blockHash":"0x08a370790ae18ed36482f82f29b8024504671e1d54cc00d3d2782a64d0c05545","blockNumber":"0x867f7e1","chainId":"0xa","from":"0xfee1f59e3c4923cbd2220b59951a065e62118000","gas":"0x16403f0","gasPrice":"0x88b8","hash":"0x97bf45a3c272649a8eb3df234d3db80629592b5f59cfa8922d72ae9941f93f99","input":"0xecef92010000000000000000000000000000000000000000000000000000000000000080000000000000000000000000000000000000000000000000000000000000020b","maxFeePerGas":"0x88b8","maxPriorityFeePerGas":"0x88b8","nonce":"0x1e9","r":"0x8381e69e4fc469f102e69cbe96d74f7d31e57daf4b4753f92416e6ae01dd17ad","s":"0x5d7c252fb44a4213c177e0879bbd24b5626e94b0f74a24f44fc5e2e47f13d07a","to":"0xaf18644083151cf57f914cccc23c42a1892c218e","transactionIndex":"0x1a","type":"0x2","v":"0x1","value":"0x0","yParity":"0x1"},{"accessList":[],"blockHash":"0x08a370790ae18ed36482f82f29b8024504671e1d54cc00d3d2782a64d0c05545","blockNumber":"0x867f7e1","chainId":"0xa","from":"0xc41714f463340db93ff2e3a17ea09a2b929631f5","gas":"0x1583d0","gasPrice":"0x54db","hash":"0x59f3f49056ec738a8f1519f894c77f7190307ba2af085d9abe2669a02d83186f","input":"0xfdb5a03e","maxFeePerGas":"0x7f4a","maxPriorityFeePerGas":"0x5242","nonce":"0x17ed2e","r":"0x9e7773b1bd3e1068190ac494b4b212ea6a22160bb2ae722eb5dad6705932c11e","s":"0x1651745cd77ba5a567dcea3cfbf366eaeda2f45ef78115a08a5d4c77ce6c5759","to":"0xdfc62dbcb18c76ced61a9abf36e046a48fed055e","transactionIndex":"0x1b","type":"0x2","v":"0x1","value":"0x0","yParity":"0x1"},{"accessList":[],"blockHash":"0x08a370790ae18ed36482f82f29b8024504671e1d54cc00d3d2782a64d0c05545","blockNumber":"0x867f7e1","chainId":"0xa","from":"0xc41714f463340db93ff2e3a17ea09a2b929631f5","gas":"0x1583d0","gasPrice":"0x54dc","hash":"0x308c9dcad94372a54e5e53233e5222ef19515794adac2743c4ab788469f8df54","input":"0xfdb5a03e","maxFeePerGas":"0x7f4a","maxPriorityFeePerGas":"0x5243","nonce":"0x17ed2f","r":"0x5ff36b893ca9e17ec89bd214c093401c7e675fb3368aa6bcf8db3312b419b7cc","s":"0x7a20a537e8c56da583a76dbb30a8bb510784e85449952c2ff335ecf26434bc3c","to":"0xdfc62dbcb18c76ced61a9abf36e046a48fed055e","transactionIndex":"0x1c","type":"0x2","v":"0x1","value":"0x0","yParity":"0x1"},{"accessList":[],"blockHash":"0x08a370790ae18ed36482f82f29b8024504671e1d54cc00d3d2782a64d0c05545","blockNumber":"0x867f7e1","chainId":"0xa","from":"0x3455b7d2cd52466a3ef664ae881212611acc248e","gas":"0x60088","gasPrice":"0x2e05","hash":"0x74cf479c24fe2a5246ab2e36cff731d3a30a617dcb8ba5490fa95a04865aac06","input":"0x3c2b9a7d00000000000000000000000042000000000000000000000000000000000000420000000000000000000000000000000000001ff3684f28c67538d4d072c22734000000000000000000000000000000000000000000000000000000000000008000000000000000000000000000000000000000000000000000000000003ba97000000000000000000000000000000000000000000000000000000000000006442213bc0b000000000000000000000000d8014f15a920bf9edfdb87159ee10cadc07fcb530000000000000000000000000000000000000000000000000000000000000000000000000000000000000000000000000000000000000000000000001b2f6190000000000000000000000000d8014f15a920bf9edfdb87159ee10cadc07fcb5300000000000000000000000000000000000000000000000000000000000000a000000000000000000000000000000000000000000000000000000000000005641fff991f00000000000000000000000000000000009726632680fb29d3f7a9734e3010e200000000000000000000000042000000000000000000000000000000000000420000000000000000000000000000000000000000000000000000024e4a97a5c800000000000000000000000000000000000000000000000000000000000000a0fab418dabb0839a37ceb99f300000000000000000000000000000000000000000000000000000000000000000000000000000000000000000000000000000004000000000000000000000000000000000000000000000000000000000000008000000000000000000000000000000000000000000000000000000000000001c000000000000000000000000000000000000000000000000000000000000002e00000000000000000000000000000000000000000000000000000000000000400000000000000000000000000000000000000000000000000000000000000010438c9c147000000000000000000000000eeeeeeeeeeeeeeeeeeeeeeeeeeeeeeeeeeeeeeee00000000000000000000000000000000000000000000000000000000000027100000000000000000000000004200000000000000000000000000000000000006000000000000000000000000000000000000000000000000000000000000000400000000000000000000000000000000000000000000000000000000000000a00000000000000000000000000000000000000000000000000000000000000024d0e30db00000000000000000000000000000000000000000000000000000000000000000000000000000000000000000000000000000000000000000000000000000000000000000000000000000000000000000000000000000000000000000000000000000000000000000000000000000000000000000000000e48d68a156000000000000000000000000d8014f15a920bf9edfdb87159ee10cadc07fcb53000000000000000000000000000000000000000000000000000000000000271000000000000000000000000000000000000000000000000000000000000000800000000000000000000000000000000000000000000000000000000000000000000000000000000000000000000000000000000000000000000000000000002c420000000000000000000000000000000000000604000064da10009cbd5d07dd0cecc66161fc93d7c9000da100000000000000000000000000000000000000000000000000000000000000000000000000000000000000000000000000000000000000000000000000000000000000000000000000000000000000e48d68a156000000000000000000000000d8014f15a920bf9edfdb87159ee10cadc07fcb53000000000000000000000000000000000000000000000000000000000000271000000000000000000000000000000000000000000000000000000000000000800000000000000000000000000000000000000000000000000000000000000000000000000000000000000000000000000000000000000000000000000000002cda10009cbd5d07dd0cecc66161fc93d7c9000da10000006442000000000000000000000000000000000000420000000000000000000000000000000000000000000000000000000000000000000000000000000000000000000000000000000000000000000000000000000000000000000000000000000000000064c876d21d000000000000000000000000f5c4f3dc02c3fb9279495a8fef7b0741da95615700000000000000000000000042000000000000000000000000000000000000420000000000000000000000000000000000000000000000000000072c3319806c000000000000000000000000000000000000000000000000000000000000000000000000000000000000000000000000000000000000000000000000000000000000000000000000000000000000000000000000d7e44d53","maxFeePerGas":"0x2ebc","maxPriorityFeePerGas":"0x2b6c","nonce":"0x10d3","r":"0x6e6966c991fa0974c42c886ce292fd2ef9f17a4a9273baefb37437ced427cead","s":"0x29e21896869e5280495bde38178c41fd0a7fd7244e06d9c89f8fe1d12821fda3","to":"0x00000000009726632680fb29d3f7a9734e3010e2","transactionIndex":"0x1d","type":"0x2","v":"0x1","value":"0x1b6b0b00","yParity":"0x1"},{"accessList":[],"blockHash":"0x08a370790ae18ed36482f82f29b8024504671e1d54cc00d3d2782a64d0c05545","blockNumber":"0x867f7e1","chainId":"0xa","from":"0x3e44c5a2939b748c0f6b97b587d5520fcf7f5b12","gas":"0x110823","gasPrice":"0xa61","hash":"0x1889595ed5a629bd1c929ac4677cb450982106e9b9edb054fc5d492e58502ded","input":"0xb94c3609000000000000000000000000000000000000000000000000000000000000004000000000000000000000000000000000000000000000000000000000000000c00000000000000000000000000000000000000000000000000000000000000000000000000000000000000000000000000000000000000000000000000000004000000000000000000000000000000000000000000000000000000000000000200000000000000000000000000000000000000000000000000000000044d8060000000000000000000000000000000000000000000000000000000000000008c495352c9f03d2796cf4c524a658f92d78288f40b1dee68be3d45c63304a562e86d795942a913c66abc045fcf40b9dcd488d6eb45a5631d6f03ebe14220b4cbbc2365aa33c00000000000000000000000000000000000000000000000000000000000000800000000000000000000000000000000000000000000000000000000000000140000000000000000000000000000000000000000000000000000000000000000519198595a30081ffffffffff69afa05352b3797b8d08ce3b5edf27eb0585d560346387bf430000000000000abedfac7488dccaafdd66d1d7d56349780fe0477e020303040502060708898affffffffffffffffffffffffffffffffffffffffff6e7a43a3010a0bffffffff0a7e7d64d987cab6eed08a191c4c2459daf2f8ed0b241c5912010affffffffffff7e7d64d987cab6eed08a191c4c2459daf2f8ed0b000000000000000000000000000000000000000000000000000000000000000c000000000000000000000000000000000000000000000000000000000000018000000000000000000000000000000000000000000000000000000000000001c000000000000000000000000000000000000000000000000000000000000001e00000000000000000000000000000000000000000000000000000000000000220000000000000000000000000000000000000000000000000000000000000026000000000000000000000000000000000000000000000000000000000000002a000000000000000000000000000000000000000000000000000000000000002e00000000000000000000000000000000000000000000000000000000000000320000000000000000000000000000000000000000000000000000000000000036000000000000000000000000000000000000000000000000000000000000003a000000000000000000000000000000000000000000000000000000000000006e00000000000000000000000000000000000000000000000000000000000000720000000000000000000000000000000000000000000000000000000000000002000000000000000000000000000000000000000000000000000000000002c0f60000000000000000000000000000000000000000000000000000000000000000000000000000000000000000000000000000000000000000000000000000000200000000000000000000000000000000000000000000000000000000044abf6a00000000000000000000000000000000000000000000000000000000000000020000000000000000000000000111111125421ca6dc452d289314280a0f8842a650000000000000000000000000000000000000000000000000000000000000020000000000000000000000000eeeeeeeeeeeeeeeeeeeeeeeeeeeeeeeeeeeeeeee00000000000000000000000000000000000000000000000000000000000000200000000000000000000000007f5c764cbc14f9669b88837ca1490cca17c316070000000000000000000000000000000000000000000000000000000000000020000000000000000000000000000000000000000000000000000000000000000500000000000000000000000000000000000000000000000000000000000000200000000000000000000000003e44c5a2939b748c0f6b97b587d5520fcf7f5b12000000000000000000000000000000000000000000000000000000000000002000000000000000000000000069afa05352b3797b8d08ce3b5edf27eb0585d560000000000000000000000000000000000000000000000000000000000000032000000000000000000000000000000000000000000000000000000000000002e807ed2379000000000000000000000000862268aae81a90e7976a4b4eeecef6c1fb08bfdb000000000000000000000000eeeeeeeeeeeeeeeeeeeeeeeeeeeeeeeeeeeeeeee0000000000000000000000007f5c764cbc14f9669b88837ca1490cca17c31607000000000000000000000000862268aae81a90e7976a4b4eeecef6c1fb08bfdb000000000000000000000000bedfac7488dccaafdd66d1d7d56349780fe0477e0000000000000000000000000000000000000000000000000000000044abf6a0000000000000000000000000000000000000000000000000000000000000000400000000000000000000000000000000000000000000000000000000000000000000000000000000000000000000000000000000000000000000000000000120000000000000000000000000000000000000000000000000000000000000018800000000000000000000000000000000000000000000000000016a00001a40414200000000000000000000000000000000000006d0e30db05126a132dab612db5cb9fc9ac426a0cc215a3423f9c942000000000000000000000000000000000000060004f41766d80000000000000000000000000000000000000000000000000000000000000000000000000000000000000000000000000000000000000000000000000000000400000000000000000000000000000000000000000000000000000000000000a0000000000000000000000000111111125421ca6dc452d289314280a0f8842a650000000000000000000000000000000000000000000000000000000068ca607e000000000000000000000000000000000000000000000000000000000000000100000000000000000000000042000000000000000000000000000000000000060000000000000000000000007f5c764cbc14f9669b88837ca1490cca17c31607000000000000000000000000000000000000000000000000000000000000000000000000000000000000000000000000000000000000000097864b91000000000000000000000000000000000000000000000000000000000000000000000000000000000000000000000000000000000000002000000000000000000000000000000000000000000000000000000000000000000000000000000000000000000000000000000000000000000000000000000020000000000000000000000000000000000000000000000000000000000000000400000000000000000000000000000000000000000000000000000000","maxFeePerGas":"0xa61","maxPriorityFeePerGas":"0x7d0","nonce":"0xbf","r":"0x5edef7f4438de054eb41a2ca02aeff74023a086f72226729869dd48e43c7d86d","s":"0x2219f32f41122090d4ef728ab37a2619a58b387279a662d94c935ee15f43ff16","to":"0xf75584ef6673ad213a685a1b58cc0330b8ea22cf","transactionIndex":"0x1e","type":"0x2","v":"0x1","value":"0x44d80600","yParity":"0x1"},{"accessList":[],"blockHash":"0x08a370790ae18ed36482f82f29b8024504671e1d54cc00d3d2782a64d0c05545","blockNumber":"0x867f7e1","chainId":"0xa","from":"0x59b6151bc81071e4aa5c52967fb3f0205097b2c0","gas":"0xf6950","gasPrice":"0x387","hash":"0x0009bb1c5a02aaa188371bde658dfee1806250628735b92b7b54eb00cac84c28","input":"0xfdb5a03e","maxFeePerGas":"0x54c","maxPriorityFeePerGas":"0xee","nonce":"0xd8c29","r":"0xc0b04b3d9c09cbb9ea28b466e793daa4780ce888d6aeac865974dba1a7dd615a","s":"0x7ba7bd0ca4cee84d9d6213f39d3b51da9811c83517958a62439e75b539217127","to":"0x4111a6c15c1d227ed9c1b5de2732ab3115bc1c2d","transactionIndex":"0x1f","type":"0x2","v":"0x0","value":"0x0","yParity":"0x0"},{"accessList":[],"blockHash":"0x08a370790ae18ed36482f82f29b8024504671e1d54cc00d3d2782a64d0c05545","blockNumber":"0x867f7e1","chainId":"0xa","from":"0x8fb6b5fb4abb7243a4ae4545d2740bf61ee030e5","gas":"0x189110","gasPrice":"0x321","hash":"0xeaa8e8b35f4dc63e1df89261721175e9c4ef671ab5a3cb38101af9a3279ccdca","input":"0xfdb5a03e","maxFeePerGas":"0x4b3","maxPriorityFeePerGas":"0x88","nonce":"0x324d63","r":"0x4d8ec95702dd418187f2ec1ff3c959631ed57167de4d6dba6ff0fbfce75f16fd","s":"0x51e373d121dd68e0711973c8da03c2a686ee136082903d1d200aaf97ba9ad2f9","to":"0x80942a0066f72efff5900cf80c235dd32549b75d","transactionIndex":"0x20","type":"0x2","v":"0x0","value":"0x0","yParity":"0x0"},{"accessList":[],"blockHash":"0x08a370790ae18ed36482f82f29b8024504671e1d54cc00d3d2782a64d0c05545","blockNumber":"0x867f7e1","chainId":"0xa","from":"0x8fb6b5fb4abb7243a4ae4545d2740bf61ee030e5","gas":"0x189110","gasPrice":"0x426","hash":"0x89d4fe108f5ead98da61bd0ddd77d4b3a829b35296e1569b79dc141673a09147","input":"0xfdb5a03e","maxFeePerGas":"0x639","maxPriorityFeePerGas":"0x18d","nonce":"0x324d64","r":"0x7c91c0697edd2770d43ab63a9d953222682f52901dfe8757a0173531391295d3","s":"0x3dcd5b673de4a4a08f7026af69c8fcfdd972071f66064bdc5b77e5b0ed260a7","to":"0x80942a0066f72efff5900cf80c235dd32549b75d","transactionIndex":"0x21","type":"0x2","v":"0x1","value":"0x0","yParity":"0x1"},{"accessList":[],"blockHash":"0x08a370790ae18ed36482f82f29b8024504671e1d54cc00d3d2782a64d0c05545","blockNumber":"0x867f7e1","chainId":"0xa","from":"0xa62fb05af6c35d9af70015c7f33ee558a9060036","gas":"0x2e7a36","gasPrice":"0x29e","hash":"0xb00285f749d9c36fa35c2a540cad0b6a45f03b562ff9c13dd605b92e9c1df4da","input":"0xfdb5a03e","maxFeePerGas":"0xf4770","maxPriorityFeePerGas":"0x5","nonce":"0x151496","r":"0xb63ae0504af5e4790eabe13d8e2e2713d59db82c5500736d16cebb87d74bfb0e","s":"0xc047e3676b5abb283c7f47956d1f1d97af42955408cb3a9736ff21ba22b51d2","to":"0xdfc62dbcb18c76ced61a9abf36e046a48fed055e","transactionIndex":"0x22","type":"0x2","v":"0x1","value":"0x0","yParity":"0x1"},{"accessList":[],"blockHash":"0x08a370790ae18ed36482f82f29b8024504671e1d54cc00d3d2782a64d0c05545","blockNumber":"0x867f7e1","chainId":"0xa","from":"0xc37b40abdb939635068d3c5f13e7faf686f03b65","gas":"0x177a88","gasPrice":"0x29e","hash":"0xa2f971ba5af848948e0930ab0f86b70751d595e7c79111aa863681a117924e71","input":"0xba677db700000000000000000000000000000000000000000000000000000000000000e000000000000000000000000000000000000000000000000000000000000003a000000000000000000000000000000000000000000000000000000834126468690000000000000000000000000000000000000000000000000000000068c3ca8b000000000000000000000000000000000000000000000000000000000000001b4cbe1e33be95044fc277f261b3197a79c3de60860074010a2f166e68567c670b31caf706e79039b9f9f1438cae0b8c2d3613c1cc4dba97ffac12798d09fdbae9000000000000000000000000000000000000000000000000000000000000000700000000000000000000000000000000000000000000000000000000000000e00000000000000000000000000000000000000000000000000000000000000120000000000000000000000000000000000000000000000000000000000000016000000000000000000000000000000000000000000000000000000000000001a000000000000000000000000000000000000000000000000000000000000001e000000000000000000000000000000000000000000000000000000000000002200000000000000000000000000000000000000000000000000000000000000260000000000000000000000000000000000000000000000000000000000000000153000000000000000000000000000000000000000000000000000000000000000000000000000000000000000000000000000000000000000000000000000001530000000000000000000000000000000000000000000000000000000000000000000000000000000000000000000000000000000000000000000000000000024c4d00000000000000000000000000000000000000000000000000000000000000000000000000000000000000000000000000000000000000000000000000015300000000000000000000000000000000000000000000000000000000000000000000000000000000000000000000000000000000000000000000000000000153000000000000000000000000000000000000000000000000000000000000000000000000000000000000000000000000000000000000000000000000000002425500000000000000000000000000000000000000000000000000000000000000000000000000000000000000000000000000000000000000000000000000015300000000000000000000000000000000000000000000000000000000000000000000000000000000000000000000000000000000000000000000000000000700000000000000000000000000000000000000000000000000000000000000e000000000000000000000000000000000000000000000000000000000000002200000000000000000000000000000000000000000000000000000000000000360000000000000000000000000000000000000000000000000000000000000046000000000000000000000000000000000000000000000000000000000000005a000000000000000000000000000000000000000000000000000000000000006e000000000000000000000000000000000000000000000000000000000000007e000000000000000000000000000000000000000000000000000000000000001200000000000000000000000000b2c639c533813f4aa9d7837caf62653d097ff85000000000000000000000000000000000000000000000000000000000724aec0000000000000000000000000c37b40abdb939635068d3c5f13e7faf686f03b65000000000000000000000000000000000000000000000000000000000000000000000000000000000000000003771e24b7c9172d163bf447490b142a15be34850000000000000000000000000000000000000000000000067e451c27eb6870ee00000000000000000000000000000000000000000000000000000000000000010000000000000000000000000000000000000000000000000000000000000000000000000000000000000000c37b40abdb939635068d3c5f13e7faf686f03b650000000000000000000000000000000000000000000000000000000000000120000000000000000000000000c52d7f23a2e460248db6ee192cb23dd12bddcbf6ffffffffffffffffffffffffffffffffffffffffffffffffffffffffffffffff00000000000000000000000000000000000000000000000000000000000000000000000000000000000000000000000000000000000000000000000000000000000000000000000000000000d1b30ba128573fcd7d141c8a987961b40e047bb6000000000000000000000000000000000000000000000000000000000722a50a00000000000000000000000000000000000000000000000000000000000000000000000000000000000000000000000000000000000000000000000000000001000000000000000000000000000000000000000000000000000000000000000000000000000000000000000000000000000000000000000000000000000000e000000000000000000000000094b008aa00579c1307b0ef2c499ad98a8ce58e58ffffffffffffffffffffffffffffffffffffffffffffffffffffffffffffffff000000000000000000000000000000000000000000000000000000000000000000000000000000000000000000000000000000000000000000000000000000000000000000000000000000000000000000000000000000000000000000000092000000000000000000000000000000000000000000000000000000000000000000000000000000000000000000000000000000000000000000000000000000000000000000000000000000000000000000000000000000000000000000000120000000000000000000000000d0b4799f3780193fca7bd7b5a035bdb1c75fe41dffffffffffffffffffffffffffffffffffffffffffffffffffffffffffffffff00000000000000000000000000000000000000000000000000000000000000000000000000000000000000000000000000000000000000000000000000000000000000000000000000000000d9bf67d8a5d698a028160f62480d456801f0b4b10000000000000000000000000000000000000000000000067ee71210f3dcbedb0000000000000000000000000000000000000000000000000000000000000001000000000000000000000000000000000000000000000000000000000000000000000000000000000000000000000000000000000000000000000000000000000000000000000000000000000000000000000000000000000000000000000120000000000000000000000000f1232a1ab5661abdd6e02c6d8ac9940a23bb0b84ffffffffffffffffffffffffffffffffffffffffffffffffffffffffffffffff0000000000000000000000000000000000000000000000000000000000000000000000000000000000000000000000000000000000000000000000000000000000000000000000000000000020c2e44bbbea698da4a4cb687514e663859966390000000000000000000000000000000000000000000000066a3c5605240299b700000000000000000000000000000000000000000000000000000000000000000000000000000000000000000000000000000000000000000000000000000001000000000000000000000000000000000000000000000000000000000000000000000000000000000000000000000000000000000000000000000000000000e0000000000000000000000000005afeb98fb359aab1769b095ca1da6c6db4ec27ffffffffffffffffffffffffffffffffffffffffffffffffffffffffffffffff0000000000000000000000000000000000000000000000000000000000000000000000000000000000000000000000000000000000000000000000000000000000000000000000000000000000000000000000000000000000000000000000640000000000000000000000000000000000000000000000000000000000000000000000000000000000000000000000000000000000000000000000000000000000000000000000000000000000000000000000000000000000000000000001200000000000000000000000001337bedc9d22ecbe766df105c9623922a27963ecffffffffffffffffffffffffffffffffffffffffffffffffffffffffffffffff0000000000000000000000000000000000000000000000000000000000000000000000000000000000000000c37b40abdb939635068d3c5f13e7faf686f03b65000000000000000000000000056c6c5e684cec248635ed86033378cc444459b0000000000000000000000000000000000000000000000005823f067022075503000000000000000000000000000000000000000000000000000000000000000100000000000000000000000000000000000000000000000000000000000000000000000000000000000000000000000000000000000000000000000000000000","maxFeePerGas":"0x343","maxPriorityFeePerGas":"0x5","nonce":"0x7d","r":"0x1f4537f77336ad0e0e068ebf6af6e40eae01a255c77d5688233c6ccb6ee04d08","s":"0x29962d80b8e2928f45c42ad4578aa1af123ba1c1eaa677aa00efd05a2b5051ca","to":"0xa2a786ff9148f7c88ee93372db8cbe9e94585c74","transactionIndex":"0x23","type":"0x2","v":"0x0","value":"0x83412646869","yParity":"0x0"},{"accessList":[],"blockHash":"0x08a370790ae18ed36482f82f29b8024504671e1d54cc00d3d2782a64d0c05545","blockNumber":"0x867f7e1","chainId":"0xa","from":"0x430181cfc5767a55a411354dbcec766aa0e7ef7f","gas":"0x1d5c4a","gasPrice":"0x29e","hash":"0x1fe990656029bef51f42e4e4b7ccecd3e0da96c43e00988f0f8aaff2ee5552ba","input":"0xd1d0ff49000000000000000068c3c7c7e4ad11d694a6a24e1c5e45436ff094c15e85de3e","maxFeePerGas":"0x741c","maxPriorityFeePerGas":"0x5","nonce":"0x7051d","r":"0x4402ba11ebf32d1c6af32eae07e9ee315cb5ed7f6e31265a4b8a622e66805c52","s":"0x32fc6c060ec21d66b4c7a1133fb8e1541ec4b26ee9c08f1b970a347784f3448f","to":"0x6ff6a738233a3b728d4a67ea92b0e2416e316149","transactionIndex":"0x24","type":"0x2","v":"0x0","value":"0x0","yParity":"0x0"}],"transactionsRoot":"0x53908c265a1f373879a4c65649ac4e922891d1ccb1136386c6720dfc10d77628","uncles":[],"withdrawals":[],"withdrawalsRoot":"0x8ea122276fafdae3b4fa8aa6b0d461b49ac68f2aa7f67bdf9fd55d511036a11e"},"id":
        0}

        '
    headers:
      CF-RAY:
      - 9da1bdf09c52e882-MAD
      Cache-Control:
      - max-age=0, private, must-revalidate
      Connection:
      - keep-alive
      Content-Type:
      - application/json; charset=utf-8
      Date:
      - Tue, 10 Mar 2026 10:47:33 GMT
      Nel:
      - '{"report_to":"cf-nel","success_fraction":0.0,"max_age":604800}'
      Report-To:
      - '{"group":"cf-nel","max_age":604800,"endpoints":[{"url":"https://a.nel.cloudflare.com/report/v4?s=EQ4bE2dRrLNAy1Ytdsxrs6BNvRLktPi6e2jU1ib4JzIpRwnxv0CStx1S8Pk%2FyzvJT4%2FHwZNZCDHhphQ88FptVCXhQRkR0bc9NyPAEYHFBQxu7hQJ"}]}'
      Server:
      - cloudflare
      Transfer-Encoding:
      - chunked
      access-control-allow-credentials:
      - 'true'
      access-control-allow-origin:
      - '*'
      access-control-expose-headers:
      - bypass-429-option,x-ratelimit-reset,x-ratelimit-limit,x-ratelimit-remaining,api-v2-temp-token
      alt-svc:
      - h3=":443"; ma=86400
      bypass-429-option:
      - no_bypass
      cf-cache-status:
      - DYNAMIC
      content-length:
      - '127731'
      strict-transport-security:
      - max-age=31536000; includeSubDomains
      x-ratelimit-limit:
      - '600'
      x-ratelimit-remaining:
      - '598'
      x-ratelimit-reset:
      - '26760'
      x-request-id:
      - 3c7edd18767f3755a342e2557e337b29
    status:
      code: 200
      message: OK
- request:
    body: '{"id": 0, "jsonrpc": "2.0", "method": "eth_getTransactionReceipt", "params":
      ["0xa2f971ba5af848948e0930ab0f86b70751d595e7c79111aa863681a117924e71"]}'
    headers:
      Accept:
      - '*/*'
      Accept-Encoding:
      - gzip, deflate
      Connection:
      - keep-alive
      Content-Length:
      - '148'
      Content-Type:
      - application/json
      User-Agent:
      - rotki/1.42.1.dev192+g7b2836aa8f.d20260310
    method: POST
    uri: https://explorer.optimism.io/api/eth-rpc
  response:
    body:
      string: '{"jsonrpc":"2.0","result": {"blockHash":"0x08a370790ae18ed36482f82f29b8024504671e1d54cc00d3d2782a64d0c05545","blockNumber":"0x867f7e1","contractAddress":null,"cumulativeGasUsed":"0x236e20f","effectiveGasPrice":"0x29e","from":"0xc37b40abdb939635068d3c5f13e7faf686f03b65","gasUsed":"0xce19c","logs":[{"address":"0xa2a786ff9148f7c88ee93372db8cbe9e94585c74","blockHash":"0x08a370790ae18ed36482f82f29b8024504671e1d54cc00d3d2782a64d0c05545","blockNumber":"0x867f7e1","data":"0x00000000000000000000000094a365ca808029af8db18257ecd296c16c61ac050000000000000000000000000000000000000000000000000000083412646869","logIndex":"0x15f","removed":false,"topics":["0xbf6afbaffb3b955bebbf43430bbf8eecb8d34ff86f293f592203ab5ed79c5268","0x000000000000000000000000c37b40abdb939635068d3c5f13e7faf686f03b65"],"transactionHash":"0xa2f971ba5af848948e0930ab0f86b70751d595e7c79111aa863681a117924e71","transactionIndex":"0x23"},{"address":"0x0b2c639c533813f4aa9d7837caf62653d097ff85","blockHash":"0x08a370790ae18ed36482f82f29b8024504671e1d54cc00d3d2782a64d0c05545","blockNumber":"0x867f7e1","data":"0x000000000000000000000000000000000000000000000000000000000724aec0","logIndex":"0x160","removed":false,"topics":["0xddf252ad1be2c89b69c2b068fc378daa952ba7f163c4a11628f55a4df523b3ef","0x000000000000000000000000c37b40abdb939635068d3c5f13e7faf686f03b65","0x0000000000000000000000000ecd8bfdabd6005c9f325f222e1f6427e4db39e1"],"transactionHash":"0xa2f971ba5af848948e0930ab0f86b70751d595e7c79111aa863681a117924e71","transactionIndex":"0x23"},{"address":"0x0b2c639c533813f4aa9d7837caf62653d097ff85","blockHash":"0x08a370790ae18ed36482f82f29b8024504671e1d54cc00d3d2782a64d0c05545","blockNumber":"0x867f7e1","data":"0x000000000000000000000000000000000000000000000000000000000724aec0","logIndex":"0x161","removed":false,"topics":["0x8c5be1e5ebec7d5bd14f71427d1e84f3dd0314c0f7b2291e5b200ac8c7c3b925","0x0000000000000000000000000ecd8bfdabd6005c9f325f222e1f6427e4db39e1","0x00000000000000000000000003771e24b7c9172d163bf447490b142a15be3485"],"transactionHash":"0xa2f971ba5af848948e0930ab0f86b70751d595e7c79111aa863681a117924e71","transactionIndex":"0x23"},{"address":"0x0b2c639c533813f4aa9d7837caf62653d097ff85","blockHash":"0x08a370790ae18ed36482f82f29b8024504671e1d54cc00d3d2782a64d0c05545","blockNumber":"0x867f7e1","data":"0x000000000000000000000000000000000000000000000000000000000724aec0","logIndex":"0x162","removed":false,"topics":["0xddf252ad1be2c89b69c2b068fc378daa952ba7f163c4a11628f55a4df523b3ef","0x0000000000000000000000000ecd8bfdabd6005c9f325f222e1f6427e4db39e1","0x00000000000000000000000003771e24b7c9172d163bf447490b142a15be3485"],"transactionHash":"0xa2f971ba5af848948e0930ab0f86b70751d595e7c79111aa863681a117924e71","transactionIndex":"0x23"},{"address":"0xc52d7f23a2e460248db6ee192cb23dd12bddcbf6","blockHash":"0x08a370790ae18ed36482f82f29b8024504671e1d54cc00d3d2782a64d0c05545","blockNumber":"0x867f7e1","data":"0x0000000000000000000000000000000000000000000000067f19fcaa9099ab83","logIndex":"0x163","removed":false,"topics":["0xddf252ad1be2c89b69c2b068fc378daa952ba7f163c4a11628f55a4df523b3ef","0x00000000000000000000000003771e24b7c9172d163bf447490b142a15be3485","0x000000000000000000000000a2a786ff9148f7c88ee93372db8cbe9e94585c74"],"transactionHash":"0xa2f971ba5af848948e0930ab0f86b70751d595e7c79111aa863681a117924e71","transactionIndex":"0x23"},{"address":"0x03771e24b7c9172d163bf447490b142a15be3485","blockHash":"0x08a370790ae18ed36482f82f29b8024504671e1d54cc00d3d2782a64d0c05545","blockNumber":"0x867f7e1","data":"0x0000000000000000000000000000000000000000000000000000000000000001000000000000000000000000000000000000000000000000000000000724aec000000000000000000000000000000000000000000000000000000000000000000000000000000000000000000000000000000000000000067f19fcaa9099ab83","logIndex":"0x164","removed":false,"topics":["0x8b3e96f2b889fa771c53c981b40daf005f63f637f1869f707052d15a3dd97140","0x0000000000000000000000000ecd8bfdabd6005c9f325f222e1f6427e4db39e1"],"transactionHash":"0xa2f971ba5af848948e0930ab0f86b70751d595e7c79111aa863681a117924e71","transactionIndex":"0x23"},{"address":"0xc52d7f23a2e460248db6ee192cb23dd12bddcbf6","blockHash":"0x08a370790ae18ed36482f82f29b8024504671e1d54cc00d3d2782a64d0c05545","blockNumber":"0x867f7e1","data":"0x0000000000000000000000000000000000000000000000067f19fcaa9099ab83","logIndex":"0x165","removed":false,"topics":["0xddf252ad1be2c89b69c2b068fc378daa952ba7f163c4a11628f55a4df523b3ef","0x000000000000000000000000a2a786ff9148f7c88ee93372db8cbe9e94585c74","0x0000000000000000000000000ecd8bfdabd6005c9f325f222e1f6427e4db39e1"],"transactionHash":"0xa2f971ba5af848948e0930ab0f86b70751d595e7c79111aa863681a117924e71","transactionIndex":"0x23"},{"address":"0xc52d7f23a2e460248db6ee192cb23dd12bddcbf6","blockHash":"0x08a370790ae18ed36482f82f29b8024504671e1d54cc00d3d2782a64d0c05545","blockNumber":"0x867f7e1","data":"0x0000000000000000000000000000000000000000000000067f19fcaa9099ab83","logIndex":"0x166","removed":false,"topics":["0x8c5be1e5ebec7d5bd14f71427d1e84f3dd0314c0f7b2291e5b200ac8c7c3b925","0x0000000000000000000000000ecd8bfdabd6005c9f325f222e1f6427e4db39e1","0x000000000000000000000000d1b30ba128573fcd7d141c8a987961b40e047bb6"],"transactionHash":"0xa2f971ba5af848948e0930ab0f86b70751d595e7c79111aa863681a117924e71","transactionIndex":"0x23"},{"address":"0xc52d7f23a2e460248db6ee192cb23dd12bddcbf6","blockHash":"0x08a370790ae18ed36482f82f29b8024504671e1d54cc00d3d2782a64d0c05545","blockNumber":"0x867f7e1","data":"0x0000000000000000000000000000000000000000000000000000000000000000","logIndex":"0x167","removed":false,"topics":["0x8c5be1e5ebec7d5bd14f71427d1e84f3dd0314c0f7b2291e5b200ac8c7c3b925","0x0000000000000000000000000ecd8bfdabd6005c9f325f222e1f6427e4db39e1","0x000000000000000000000000d1b30ba128573fcd7d141c8a987961b40e047bb6"],"transactionHash":"0xa2f971ba5af848948e0930ab0f86b70751d595e7c79111aa863681a117924e71","transactionIndex":"0x23"},{"address":"0xc52d7f23a2e460248db6ee192cb23dd12bddcbf6","blockHash":"0x08a370790ae18ed36482f82f29b8024504671e1d54cc00d3d2782a64d0c05545","blockNumber":"0x867f7e1","data":"0x0000000000000000000000000000000000000000000000067f19fcaa9099ab83","logIndex":"0x168","removed":false,"topics":["0xddf252ad1be2c89b69c2b068fc378daa952ba7f163c4a11628f55a4df523b3ef","0x0000000000000000000000000ecd8bfdabd6005c9f325f222e1f6427e4db39e1","0x000000000000000000000000d1b30ba128573fcd7d141c8a987961b40e047bb6"],"transactionHash":"0xa2f971ba5af848948e0930ab0f86b70751d595e7c79111aa863681a117924e71","transactionIndex":"0x23"},{"address":"0x94b008aa00579c1307b0ef2c499ad98a8ce58e58","blockHash":"0x08a370790ae18ed36482f82f29b8024504671e1d54cc00d3d2782a64d0c05545","blockNumber":"0x867f7e1","data":"0x0000000000000000000000000000000000000000000000000000000007238ef7","logIndex":"0x169","removed":false,"topics":["0xddf252ad1be2c89b69c2b068fc378daa952ba7f163c4a11628f55a4df523b3ef","0x000000000000000000000000d1b30ba128573fcd7d141c8a987961b40e047bb6","0x000000000000000000000000ac8f44ceca92b2a4b30360e5bd3043850a0ffcbe"],"transactionHash":"0xa2f971ba5af848948e0930ab0f86b70751d595e7c79111aa863681a117924e71","transactionIndex":"0x23"},{"address":"0xd1b30ba128573fcd7d141c8a987961b40e047bb6","blockHash":"0x08a370790ae18ed36482f82f29b8024504671e1d54cc00d3d2782a64d0c05545","blockNumber":"0x867f7e1","data":"0x00000000000000000000000000000000000000000000000000000000000000000000000000000000000000000000000000000000000000067f19fcaa9099ab8300000000000000000000000000000000000000000000000000000000000000010000000000000000000000000000000000000000000000000000000007238ef7","logIndex":"0x16a","removed":false,"topics":["0x8b3e96f2b889fa771c53c981b40daf005f63f637f1869f707052d15a3dd97140","0x0000000000000000000000000ecd8bfdabd6005c9f325f222e1f6427e4db39e1"],"transactionHash":"0xa2f971ba5af848948e0930ab0f86b70751d595e7c79111aa863681a117924e71","transactionIndex":"0x23"},{"address":"0xac8f44ceca92b2a4b30360e5bd3043850a0ffcbe","blockHash":"0x08a370790ae18ed36482f82f29b8024504671e1d54cc00d3d2782a64d0c05545","blockNumber":"0x867f7e1","data":"0x00000000000000000000000094b008aa00579c1307b0ef2c499ad98a8ce58e580000000000000000000000000000000000000000000000000000000007238ef7000000000000000000000000ac8f44ceca92b2a4b30360e5bd3043850a0ffcbe000000000000000000000000a2a786ff9148f7c88ee93372db8cbe9e94585c74","logIndex":"0x16b","removed":false,"topics":["0xb5f411fa3c897c9b0b6cd61852278a67e73d885610724a5610a8580d3e94cfdb"],"transactionHash":"0xa2f971ba5af848948e0930ab0f86b70751d595e7c79111aa863681a117924e71","transactionIndex":"0x23"},{"address":"0x9e0989c0414592886c60a6f4763693fd8d5200dc","blockHash":"0x08a370790ae18ed36482f82f29b8024504671e1d54cc00d3d2782a64d0c05545","blockNumber":"0x867f7e1","data":"0x0000000000000000000000000000000000000000000000000000000000000000","logIndex":"0x16c","removed":false,"topics":["0x143963faf991902e2924cc3beb9697c8313703db6f5142bb7bd6716752d7f5f0","0x000000000000000000000000a2a786ff9148f7c88ee93372db8cbe9e94585c74","0x0000000000000000000000000000000000000000000000000000000000000000"],"transactionHash":"0xa2f971ba5af848948e0930ab0f86b70751d595e7c79111aa863681a117924e71","transactionIndex":"0x23"},{"address":"0xece9cf6a8f2768a3b8b65060925b646afeaa5167","blockHash":"0x08a370790ae18ed36482f82f29b8024504671e1d54cc00d3d2782a64d0c05545","blockNumber":"0x867f7e1","data":"0xda970057188c9cc34dc7f0beed3d0069c06f278297787466076f8f2bcd5967a80000000000000000000000000000000000000000000000000000000000000080000000000000000000000000a2a786ff9148f7c88ee93372db8cbe9e94585c7400000000000000000000000000000000000000000000000000000000000000920000000000000000000000000000000000000000000000000000000000000da000000000000000000000000000000000000000000000000000000000000000400000000000000000000000000000000000000000000000000000000000000d000000000000000000000000000000000000000000000000000000000000000c846b750d63da970057188c9cc34dc7f0beed3d0069c06f278297787466076f8f2bcd5967a8000000000000000000000000000000000000000000000000000000000000000200000000000000000000000000000000000000000000000000000000000000800000000000000000000000000000000000000000000000000000000000000340000000000000000000000000000000000000000000000000000000000000000700000000000000000000000000000000000000000000000000000000000000e00000000000000000000000000000000000000000000000000000000000000120000000000000000000000000000000000000000000000000000000000000016000000000000000000000000000000000000000000000000000000000000001a000000000000000000000000000000000000000000000000000000000000001e000000000000000000000000000000000000000000000000000000000000002200000000000000000000000000000000000000000000000000000000000000260000000000000000000000000000000000000000000000000000000000000000153000000000000000000000000000000000000000000000000000000000000000000000000000000000000000000000000000000000000000000000000000001530000000000000000000000000000000000000000000000000000000000000000000000000000000000000000000000000000000000000000000000000000024c4d00000000000000000000000000000000000000000000000000000000000000000000000000000000000000000000000000000000000000000000000000015300000000000000000000000000000000000000000000000000000000000000000000000000000000000000000000000000000000000000000000000000000153000000000000000000000000000000000000000000000000000000000000000000000000000000000000000000000000000000000000000000000000000002425500000000000000000000000000000000000000000000000000000000000000000000000000000000000000000000000000000000000000000000000000015300000000000000000000000000000000000000000000000000000000000000000000000000000000000000000000000000000000000000000000000000000700000000000000000000000000000000000000000000000000000000000000e000000000000000000000000000000000000000000000000000000000000002200000000000000000000000000000000000000000000000000000000000000360000000000000000000000000000000000000000000000000000000000000046000000000000000000000000000000000000000000000000000000000000005a000000000000000000000000000000000000000000000000000000000000006e000000000000000000000000000000000000000000000000000000000000007e000000000000000000000000000000000000000000000000000000000000001200000000000000000000000000b2c639c533813f4aa9d7837caf62653d097ff85000000000000000000000000000000000000000000000000000000000724aec0000000000000000000000000c37b40abdb939635068d3c5f13e7faf686f03b65000000000000000000000000000000000000000000000000000000000000000000000000000000000000000003771e24b7c9172d163bf447490b142a15be34850000000000000000000000000000000000000000000000067e451c27eb6870ee00000000000000000000000000000000000000000000000000000000000000010000000000000000000000000000000000000000000000000000000000000000000000000000000000000000c37b40abdb939635068d3c5f13e7faf686f03b650000000000000000000000000000000000000000000000000000000000000120000000000000000000000000c52d7f23a2e460248db6ee192cb23dd12bddcbf6ffffffffffffffffffffffffffffffffffffffffffffffffffffffffffffffff00000000000000000000000000000000000000000000000000000000000000000000000000000000000000000000000000000000000000000000000000000000000000000000000000000000d1b30ba128573fcd7d141c8a987961b40e047bb6000000000000000000000000000000000000000000000000000000000722a50a00000000000000000000000000000000000000000000000000000000000000000000000000000000000000000000000000000000000000000000000000000001000000000000000000000000000000000000000000000000000000000000000000000000000000000000000000000000000000000000000000000000000000e000000000000000000000000094b008aa00579c1307b0ef2c499ad98a8ce58e580000000000000000000000000000000000000000000000000000000007238ef7000000000000000000000000ac8f44ceca92b2a4b30360e5bd3043850a0ffcbe000000000000000000000000a2a786ff9148f7c88ee93372db8cbe9e94585c740000000000000000000000000000000000000000000000000000000000000092000000000000000000000000000000000000000000000000000000000000000a000000000000000000000000c37b40abdb939635068d3c5f13e7faf686f03b650000000000000000000000000000000000000000000000000000000000000120000000000000000000000000d0b4799f3780193fca7bd7b5a035bdb1c75fe41dffffffffffffffffffffffffffffffffffffffffffffffffffffffffffffffff00000000000000000000000000000000000000000000000000000000000000000000000000000000000000000000000000000000000000000000000000000000000000000000000000000000d9bf67d8a5d698a028160f62480d456801f0b4b10000000000000000000000000000000000000000000000067ee71210f3dcbedb0000000000000000000000000000000000000000000000000000000000000001000000000000000000000000000000000000000000000000000000000000000000000000000000000000000000000000000000000000000000000000000000000000000000000000000000000000000000000000000000000000000000000120000000000000000000000000f1232a1ab5661abdd6e02c6d8ac9940a23bb0b84ffffffffffffffffffffffffffffffffffffffffffffffffffffffffffffffff0000000000000000000000000000000000000000000000000000000000000000000000000000000000000000000000000000000000000000000000000000000000000000000000000000000020c2e44bbbea698da4a4cb687514e663859966390000000000000000000000000000000000000000000000066a3c5605240299b700000000000000000000000000000000000000000000000000000000000000000000000000000000000000000000000000000000000000000000000000000001000000000000000000000000000000000000000000000000000000000000000000000000000000000000000000000000000000000000000000000000000000e0000000000000000000000000005afeb98fb359aab1769b095ca1da6c6db4ec27ffffffffffffffffffffffffffffffffffffffffffffffffffffffffffffffff0000000000000000000000000000000000000000000000000000000000000000000000000000000000000000000000000000000000000000000000000000000000000000000000000000000000000000000000000000000000000000000000640000000000000000000000000000000000000000000000000000000000000000000000000000000000000000000000000000000000000000000000000000000000000000000000000000000000000000000000000000000000000000000001200000000000000000000000001337bedc9d22ecbe766df105c9623922a27963ecffffffffffffffffffffffffffffffffffffffffffffffffffffffffffffffff0000000000000000000000000000000000000000000000000000000000000000000000000000000000000000c37b40abdb939635068d3c5f13e7faf686f03b65000000000000000000000000056c6c5e684cec248635ed86033378cc444459b0000000000000000000000000000000000000000000000005823f067022075503000000000000000000000000000000000000000000000000000000000000000100000000000000000000000000000000000000000000000000000000000000000000000000000000000000000000000000000000000000000000000000000000000000000000000000000000000000000000000000000000000000000000000000000000000000000000000000000000000000000000000000000064b4ccca0d6b750d6300000000000000000000000000000000000000000000000000000000000000000000000000000000a2a786ff9148f7c88ee93372db8cbe9e94585c74000000000000000000000000000000000000000000000000000000000000000a00000000000000000000000000000000000000000000000000000000","logIndex":"0x16d","removed":false,"topics":["0x5566d73d091d945ab32ea023cd1930c0d43aa43bef9aee4cb029775cfc94bdae"],"transactionHash":"0xa2f971ba5af848948e0930ab0f86b70751d595e7c79111aa863681a117924e71","transactionIndex":"0x23"},{"address":"0xa2a786ff9148f7c88ee93372db8cbe9e94585c74","blockHash":"0x08a370790ae18ed36482f82f29b8024504671e1d54cc00d3d2782a64d0c05545","blockNumber":"0x867f7e1","data":"0x000000000000000000000000000000000000000000000000000000000000000a00000000000000000000000000000000000000000000000000000000000000000000000000000000000000000000000000000000000000000000000000000092da970057188c9cc34dc7f0beed3d0069c06f278297787466076f8f2bcd5967a800000000000000000000000000000000000000000000000000000000000000010000000000000000000000000000000000000000000000000000000000000002","logIndex":"0x16e","removed":false,"topics":["0x830adbcf80ee865e0f0883ad52e813fdbf061b0216b724694a2b4e06708d243c"],"transactionHash":"0xa2f971ba5af848948e0930ab0f86b70751d595e7c79111aa863681a117924e71","transactionIndex":"0x23"}],"logsBloom":"0x00402000000004000108000000000000000000080008100010000000080000100000000000010000000080004000000000000000020000000100044000200040001000000000000001802008090000000000000000000800000800000000000008400000820000000000000000001a0000000004000000000000801000000100000000000000000000000010000000000200000000000040000020000200000002400000000000000000400000000000010000000000004204000000000000008000000200000000004000000000000020080000000000000040000000002000001008080082000000000000000000000400400080000800000000800000a000","status":"0x1","to":"0xa2a786ff9148f7c88ee93372db8cbe9e94585c74","transactionHash":"0xa2f971ba5af848948e0930ab0f86b70751d595e7c79111aa863681a117924e71","transactionIndex":"0x23","type":"0x2"},"id":
        0}

        '
    headers:
      CF-RAY:
      - 9da1bdf339df4305-MAD
      Cache-Control:
      - max-age=0, private, must-revalidate
      Connection:
      - keep-alive
      Content-Type:
      - application/json; charset=utf-8
      Date:
      - Tue, 10 Mar 2026 10:47:33 GMT
      Nel:
      - '{"report_to":"cf-nel","success_fraction":0.0,"max_age":604800}'
      Report-To:
      - '{"group":"cf-nel","max_age":604800,"endpoints":[{"url":"https://a.nel.cloudflare.com/report/v4?s=u8TLMLjgrMVNmCSbBeMsBoh9AMBiTSxYNY6KEDqfWWBB0iqum4zno6y9KYK9ydL2j8LReQcPOqcOKGJGRAH%2BDTIM3uB6Qp8K%2BbyuH5iwdDtolpqg"}]}'
      Server:
      - cloudflare
      Transfer-Encoding:
      - chunked
      access-control-allow-credentials:
      - 'true'
      access-control-allow-origin:
      - '*'
      access-control-expose-headers:
      - bypass-429-option,x-ratelimit-reset,x-ratelimit-limit,x-ratelimit-remaining,api-v2-temp-token
      alt-svc:
      - h3=":443"; ma=86400
      bypass-429-option:
      - no_bypass
      cf-cache-status:
      - DYNAMIC
      content-length:
      - '18296'
      strict-transport-security:
      - max-age=31536000; includeSubDomains
      x-ratelimit-limit:
      - '600'
      x-ratelimit-remaining:
      - '597'
      x-ratelimit-reset:
      - '26343'
      x-request-id:
      - 8905ce7591a04724efc4bab063370a22
    status:
      code: 200
      message: OK
- request:
    body: null
    headers:
      Accept:
      - '*/*'
      Accept-Encoding:
      - gzip, deflate
      Connection:
      - keep-alive
      User-Agent:
      - rotki/1.42.1.dev192+g7b2836aa8f.d20260310
    method: GET
    uri: https://explorer.optimism.io/api/v2/transactions/0xa2f971ba5af848948e0930ab0f86b70751d595e7c79111aa863681a117924e71
  response:
    body:
      string: '{"l1_gas_used":"10628","priority_fee":"4220940","raw_input":"0xba677db700000000000000000000000000000000000000000000000000000000000000e000000000000000000000000000000000000000000000000000000000000003a000000000000000000000000000000000000000000000000000000834126468690000000000000000000000000000000000000000000000000000000068c3ca8b000000000000000000000000000000000000000000000000000000000000001b4cbe1e33be95044fc277f261b3197a79c3de60860074010a2f166e68567c670b31caf706e79039b9f9f1438cae0b8c2d3613c1cc4dba97ffac12798d09fdbae9000000000000000000000000000000000000000000000000000000000000000700000000000000000000000000000000000000000000000000000000000000e00000000000000000000000000000000000000000000000000000000000000120000000000000000000000000000000000000000000000000000000000000016000000000000000000000000000000000000000000000000000000000000001a000000000000000000000000000000000000000000000000000000000000001e000000000000000000000000000000000000000000000000000000000000002200000000000000000000000000000000000000000000000000000000000000260000000000000000000000000000000000000000000000000000000000000000153000000000000000000000000000000000000000000000000000000000000000000000000000000000000000000000000000000000000000000000000000001530000000000000000000000000000000000000000000000000000000000000000000000000000000000000000000000000000000000000000000000000000024c4d00000000000000000000000000000000000000000000000000000000000000000000000000000000000000000000000000000000000000000000000000015300000000000000000000000000000000000000000000000000000000000000000000000000000000000000000000000000000000000000000000000000000153000000000000000000000000000000000000000000000000000000000000000000000000000000000000000000000000000000000000000000000000000002425500000000000000000000000000000000000000000000000000000000000000000000000000000000000000000000000000000000000000000000000000015300000000000000000000000000000000000000000000000000000000000000000000000000000000000000000000000000000000000000000000000000000700000000000000000000000000000000000000000000000000000000000000e000000000000000000000000000000000000000000000000000000000000002200000000000000000000000000000000000000000000000000000000000000360000000000000000000000000000000000000000000000000000000000000046000000000000000000000000000000000000000000000000000000000000005a000000000000000000000000000000000000000000000000000000000000006e000000000000000000000000000000000000000000000000000000000000007e000000000000000000000000000000000000000000000000000000000000001200000000000000000000000000b2c639c533813f4aa9d7837caf62653d097ff85000000000000000000000000000000000000000000000000000000000724aec0000000000000000000000000c37b40abdb939635068d3c5f13e7faf686f03b65000000000000000000000000000000000000000000000000000000000000000000000000000000000000000003771e24b7c9172d163bf447490b142a15be34850000000000000000000000000000000000000000000000067e451c27eb6870ee00000000000000000000000000000000000000000000000000000000000000010000000000000000000000000000000000000000000000000000000000000000000000000000000000000000c37b40abdb939635068d3c5f13e7faf686f03b650000000000000000000000000000000000000000000000000000000000000120000000000000000000000000c52d7f23a2e460248db6ee192cb23dd12bddcbf6ffffffffffffffffffffffffffffffffffffffffffffffffffffffffffffffff00000000000000000000000000000000000000000000000000000000000000000000000000000000000000000000000000000000000000000000000000000000000000000000000000000000d1b30ba128573fcd7d141c8a987961b40e047bb6000000000000000000000000000000000000000000000000000000000722a50a00000000000000000000000000000000000000000000000000000000000000000000000000000000000000000000000000000000000000000000000000000001000000000000000000000000000000000000000000000000000000000000000000000000000000000000000000000000000000000000000000000000000000e000000000000000000000000094b008aa00579c1307b0ef2c499ad98a8ce58e58ffffffffffffffffffffffffffffffffffffffffffffffffffffffffffffffff000000000000000000000000000000000000000000000000000000000000000000000000000000000000000000000000000000000000000000000000000000000000000000000000000000000000000000000000000000000000000000000092000000000000000000000000000000000000000000000000000000000000000000000000000000000000000000000000000000000000000000000000000000000000000000000000000000000000000000000000000000000000000000000120000000000000000000000000d0b4799f3780193fca7bd7b5a035bdb1c75fe41dffffffffffffffffffffffffffffffffffffffffffffffffffffffffffffffff00000000000000000000000000000000000000000000000000000000000000000000000000000000000000000000000000000000000000000000000000000000000000000000000000000000d9bf67d8a5d698a028160f62480d456801f0b4b10000000000000000000000000000000000000000000000067ee71210f3dcbedb0000000000000000000000000000000000000000000000000000000000000001000000000000000000000000000000000000000000000000000000000000000000000000000000000000000000000000000000000000000000000000000000000000000000000000000000000000000000000000000000000000000000000120000000000000000000000000f1232a1ab5661abdd6e02c6d8ac9940a23bb0b84ffffffffffffffffffffffffffffffffffffffffffffffffffffffffffffffff0000000000000000000000000000000000000000000000000000000000000000000000000000000000000000000000000000000000000000000000000000000000000000000000000000000020c2e44bbbea698da4a4cb687514e663859966390000000000000000000000000000000000000000000000066a3c5605240299b700000000000000000000000000000000000000000000000000000000000000000000000000000000000000000000000000000000000000000000000000000001000000000000000000000000000000000000000000000000000000000000000000000000000000000000000000000000000000000000000000000000000000e0000000000000000000000000005afeb98fb359aab1769b095ca1da6c6db4ec27ffffffffffffffffffffffffffffffffffffffffffffffffffffffffffffffff0000000000000000000000000000000000000000000000000000000000000000000000000000000000000000000000000000000000000000000000000000000000000000000000000000000000000000000000000000000000000000000000640000000000000000000000000000000000000000000000000000000000000000000000000000000000000000000000000000000000000000000000000000000000000000000000000000000000000000000000000000000000000000000001200000000000000000000000001337bedc9d22ecbe766df105c9623922a27963ecffffffffffffffffffffffffffffffffffffffffffffffffffffffffffffffff0000000000000000000000000000000000000000000000000000000000000000000000000000000000000000c37b40abdb939635068d3c5f13e7faf686f03b65000000000000000000000000056c6c5e684cec248635ed86033378cc444459b0000000000000000000000000000000000000000000000005823f067022075503000000000000000000000000000000000000000000000000000000000000000100000000000000000000000000000000000000000000000000000000000000000000000000000000000000000000000000000000000000000000000000000000","is_pending_update":false,"op_withdrawals":[],"result":"success","hash":"0xa2f971ba5af848948e0930ab0f86b70751d595e7c79111aa863681a117924e71","max_fee_per_gas":"835","revert_reason":null,"confirmation_duration":[0,2.0e3],"transaction_burnt_fee":"561385020","type":2,"token_transfers_overflow":false,"confirmations":7739046,"position":35,"max_priority_fee_per_gas":"5","transaction_tag":null,"created_contract":null,"value":"9019739891817","l1_fee_scalar":"0","from":{"ens_domain_name":"yabir.eth","hash":"0xc37b40ABdB939635068d3c5f13E7faF686F03B65","implementations":[],"is_contract":false,"is_scam":false,"is_verified":false,"metadata":null,"name":null,"private_tags":[],"proxy_type":null,"public_tags":[],"reputation":"ok","watchlist_names":[]},"gas_used":"844188","status":"ok","to":{"ens_domain_name":null,"hash":"0xA2A786ff9148f7C88EE93372Db8CBe9e94585c74","implementations":[],"is_contract":true,"is_scam":false,"is_verified":true,"metadata":{"tags":[{"meta":{"projectName":"CrossCurve","tagIcon
        ":"https://blockscout-icons.s3.us-east-1.amazonaws.com/OLI_tag_logo.svg","tagUrl":"https://app.klerosscout.eth.limo/#/?registry=Single_Tags&itemdetails=0x4152d944b5b0263cde30757b60071404e57832e7049d40406231f005499056c3@0x66260c69d03837016d88c9877e61e08ef74c59f2","textColor":"#C163D4","tooltipAttribution":"https://www.openlabelsinitiative.org?utm_source=blockscout","tooltipAttributionIcon":"https://blockscout-icons.s3.us-east-1.amazonaws.com/OLI_tag_logo.svg","tooltipDescription":"CrossCurve''s
        Unified Router V2.1.0 contract on Optimism","tooltipUrl":"https://crosscurve.fi/","verifiedDomains":["app.crosscurve.fi"]},"name":"Unified
        Router V2.1.0","ordinal":10,"slug":"unified-router-v210-10","tagType":"name"},{"meta":{"alertStatus":"info","data":"This
        nametag was submitted by Kleros Curate."},"name":"note_0","ordinal":0,"slug":"note0","tagType":"note"},{"meta":{},"name":"CrossCurve","ordinal":0,"slug":"crosscurve","tagType":"protocol"}]},"name":"UnifiedRouterV2","private_tags":[],"proxy_type":null,"public_tags":[],"reputation":"ok","watchlist_names":[]},"authorization_list":[],"l1_fee":"12415810537","method":"start","fee":{"type":"actual","value":"12981416497"},"actions":[],"gas_limit":"1538696","gas_price":"670","decoded_input":{"method_call":"start(string[]
        operations, bytes[] params, (uint256,uint256,uint8,bytes32,bytes32) receipt)","method_id":"ba677db7","parameters":[{"name":"operations","type":"string[]","value":["S","S","LM","S","S","BU","S"]},{"name":"params","type":"bytes[]","value":["0x0000000000000000000000000b2c639c533813f4aa9d7837caf62653d097ff85000000000000000000000000000000000000000000000000000000000724aec0000000000000000000000000c37b40abdb939635068d3c5f13e7faf686f03b65000000000000000000000000000000000000000000000000000000000000000000000000000000000000000003771e24b7c9172d163bf447490b142a15be34850000000000000000000000000000000000000000000000067e451c27eb6870ee00000000000000000000000000000000000000000000000000000000000000010000000000000000000000000000000000000000000000000000000000000000000000000000000000000000c37b40abdb939635068d3c5f13e7faf686f03b65","0x000000000000000000000000c52d7f23a2e460248db6ee192cb23dd12bddcbf6ffffffffffffffffffffffffffffffffffffffffffffffffffffffffffffffff00000000000000000000000000000000000000000000000000000000000000000000000000000000000000000000000000000000000000000000000000000000000000000000000000000000d1b30ba128573fcd7d141c8a987961b40e047bb6000000000000000000000000000000000000000000000000000000000722a50a000000000000000000000000000000000000000000000000000000000000000000000000000000000000000000000000000000000000000000000000000000010000000000000000000000000000000000000000000000000000000000000000","0x00000000000000000000000094b008aa00579c1307b0ef2c499ad98a8ce58e58ffffffffffffffffffffffffffffffffffffffffffffffffffffffffffffffff00000000000000000000000000000000000000000000000000000000000000000000000000000000000000000000000000000000000000000000000000000000000000000000000000000000000000000000000000000000000000000000009200000000000000000000000000000000000000000000000000000000000000000000000000000000000000000000000000000000000000000000000000000000","0x000000000000000000000000d0b4799f3780193fca7bd7b5a035bdb1c75fe41dffffffffffffffffffffffffffffffffffffffffffffffffffffffffffffffff00000000000000000000000000000000000000000000000000000000000000000000000000000000000000000000000000000000000000000000000000000000000000000000000000000000d9bf67d8a5d698a028160f62480d456801f0b4b10000000000000000000000000000000000000000000000067ee71210f3dcbedb000000000000000000000000000000000000000000000000000000000000000100000000000000000000000000000000000000000000000000000000000000000000000000000000000000000000000000000000000000000000000000000000","0x000000000000000000000000f1232a1ab5661abdd6e02c6d8ac9940a23bb0b84ffffffffffffffffffffffffffffffffffffffffffffffffffffffffffffffff0000000000000000000000000000000000000000000000000000000000000000000000000000000000000000000000000000000000000000000000000000000000000000000000000000000020c2e44bbbea698da4a4cb687514e663859966390000000000000000000000000000000000000000000000066a3c5605240299b7000000000000000000000000000000000000000000000000000000000000000000000000000000000000000000000000000000000000000000000000000000010000000000000000000000000000000000000000000000000000000000000000","0x000000000000000000000000005afeb98fb359aab1769b095ca1da6c6db4ec27ffffffffffffffffffffffffffffffffffffffffffffffffffffffffffffffff00000000000000000000000000000000000000000000000000000000000000000000000000000000000000000000000000000000000000000000000000000000000000000000000000000000000000000000000000000000000000000000006400000000000000000000000000000000000000000000000000000000000000000000000000000000000000000000000000000000000000000000000000000000","0x0000000000000000000000001337bedc9d22ecbe766df105c9623922a27963ecffffffffffffffffffffffffffffffffffffffffffffffffffffffffffffffff0000000000000000000000000000000000000000000000000000000000000000000000000000000000000000c37b40abdb939635068d3c5f13e7faf686f03b65000000000000000000000000056c6c5e684cec248635ed86033378cc444459b0000000000000000000000000000000000000000000000005823f067022075503000000000000000000000000000000000000000000000000000000000000000100000000000000000000000000000000000000000000000000000000000000000000000000000000000000000000000000000000000000000000000000000000"]},{"name":"receipt","type":"(uint256,uint256,uint8,bytes32,bytes32)","value":["9019739891817","1757661835","27","0x4cbe1e33be95044fc277f261b3197a79c3de60860074010a2f166e68567c670b","0x31caf706e79039b9f9f1438cae0b8c2d3613c1cc4dba97ffac12798d09fdbae9"]}]},"l1_gas_price":"223494323","token_transfers":[{"block_hash":"0x08a370790ae18ed36482f82f29b8024504671e1d54cc00d3d2782a64d0c05545","block_number":141031393,"from":{"ens_domain_name":"yabir.eth","hash":"0xc37b40ABdB939635068d3c5f13E7faF686F03B65","implementations":[],"is_contract":false,"is_scam":false,"is_verified":false,"metadata":null,"name":null,"private_tags":[],"proxy_type":null,"public_tags":[],"reputation":"ok","watchlist_names":[]},"log_index":352,"method":null,"timestamp":null,"to":{"ens_domain_name":null,"hash":"0x0ECD8bfdABd6005c9F325f222E1f6427E4db39e1","implementations":[],"is_contract":true,"is_scam":false,"is_verified":true,"metadata":null,"name":"PoolAdapterStableNg","private_tags":[],"proxy_type":null,"public_tags":[],"reputation":"ok","watchlist_names":[]},"token":{"address_hash":"0x0b2C639c533813f4Aa9D7837CAf62653d097Ff85","circulating_market_cap":"78195247813.27919","decimals":"6","exchange_rate":"0.999929","holders_count":"568697","icon_url":"https://assets.coingecko.com/coins/images/6319/small/usdc.png?1696506694","name":"USD
        Coin","reputation":"ok","symbol":"USDC","total_supply":"190467151805596","type":"ERC-20","volume_24h":"11595267909.777903"},"token_type":"ERC-20","total":{"decimals":"6","value":"119844544"},"transaction_hash":"0xa2f971ba5af848948e0930ab0f86b70751d595e7c79111aa863681a117924e71","type":"token_transfer"},{"block_hash":"0x08a370790ae18ed36482f82f29b8024504671e1d54cc00d3d2782a64d0c05545","block_number":141031393,"from":{"ens_domain_name":null,"hash":"0x0ECD8bfdABd6005c9F325f222E1f6427E4db39e1","implementations":[],"is_contract":true,"is_scam":false,"is_verified":true,"metadata":null,"name":"PoolAdapterStableNg","private_tags":[],"proxy_type":null,"public_tags":[],"reputation":"ok","watchlist_names":[]},"log_index":354,"method":null,"timestamp":null,"to":{"ens_domain_name":null,"hash":"0x03771e24b7C9172d163Bf447490B142a15be3485","implementations":[],"is_contract":true,"is_scam":false,"is_verified":true,"metadata":{"tags":[{"meta":{"tooltipUrl":"https://www.curve.finance/"},"name":"Curve:
        crvUSDC Pool","ordinal":10,"slug":"curve-crvusdc-pool","tagType":"name"},{"meta":{"alertStatus":"info","data":"This
        nametag was submitted by Kleros Scout."},"name":"note_0","ordinal":0,"slug":"note0","tagType":"note"},{"meta":{"appActionButtonText":"Curve","appID":"curve"},"name":"Curve","ordinal":0,"slug":"curve","tagType":"protocol"}]},"name":"CurveStableSwapNG","private_tags":[],"proxy_type":null,"public_tags":[],"reputation":"ok","watchlist_names":[]},"token":{"address_hash":"0x0b2C639c533813f4Aa9D7837CAf62653d097Ff85","circulating_market_cap":"78195247813.27919","decimals":"6","exchange_rate":"0.999929","holders_count":"568697","icon_url":"https://assets.coingecko.com/coins/images/6319/small/usdc.png?1696506694","name":"USD
        Coin","reputation":"ok","symbol":"USDC","total_supply":"190467151805596","type":"ERC-20","volume_24h":"11595267909.777903"},"token_type":"ERC-20","total":{"decimals":"6","value":"119844544"},"transaction_hash":"0xa2f971ba5af848948e0930ab0f86b70751d595e7c79111aa863681a117924e71","type":"token_transfer"},{"block_hash":"0x08a370790ae18ed36482f82f29b8024504671e1d54cc00d3d2782a64d0c05545","block_number":141031393,"from":{"ens_domain_name":null,"hash":"0x03771e24b7C9172d163Bf447490B142a15be3485","implementations":[],"is_contract":true,"is_scam":false,"is_verified":true,"metadata":{"tags":[{"meta":{"tooltipUrl":"https://www.curve.finance/"},"name":"Curve:
        crvUSDC Pool","ordinal":10,"slug":"curve-crvusdc-pool","tagType":"name"},{"meta":{"alertStatus":"info","data":"This
        nametag was submitted by Kleros Scout."},"name":"note_0","ordinal":0,"slug":"note0","tagType":"note"},{"meta":{"appActionButtonText":"Curve","appID":"curve"},"name":"Curve","ordinal":0,"slug":"curve","tagType":"protocol"}]},"name":"CurveStableSwapNG","private_tags":[],"proxy_type":null,"public_tags":[],"reputation":"ok","watchlist_names":[]},"log_index":355,"method":null,"timestamp":null,"to":{"ens_domain_name":null,"hash":"0xA2A786ff9148f7C88EE93372Db8CBe9e94585c74","implementations":[],"is_contract":true,"is_scam":false,"is_verified":true,"metadata":{"tags":[{"meta":{"projectName":"CrossCurve","tagIcon
        ":"https://blockscout-icons.s3.us-east-1.amazonaws.com/OLI_tag_logo.svg","tagUrl":"https://app.klerosscout.eth.limo/#/?registry=Single_Tags&itemdetails=0x4152d944b5b0263cde30757b60071404e57832e7049d40406231f005499056c3@0x66260c69d03837016d88c9877e61e08ef74c59f2","textColor":"#C163D4","tooltipAttribution":"https://www.openlabelsinitiative.org?utm_source=blockscout","tooltipAttributionIcon":"https://blockscout-icons.s3.us-east-1.amazonaws.com/OLI_tag_logo.svg","tooltipDescription":"CrossCurve''s
        Unified Router V2.1.0 contract on Optimism","tooltipUrl":"https://crosscurve.fi/","verifiedDomains":["app.crosscurve.fi"]},"name":"Unified
        Router V2.1.0","ordinal":10,"slug":"unified-router-v210-10","tagType":"name"},{"meta":{"alertStatus":"info","data":"This
        nametag was submitted by Kleros Curate."},"name":"note_0","ordinal":0,"slug":"note0","tagType":"note"},{"meta":{},"name":"CrossCurve","ordinal":0,"slug":"crosscurve","tagType":"protocol"}]},"name":"UnifiedRouterV2","private_tags":[],"proxy_type":null,"public_tags":[],"reputation":"ok","watchlist_names":[]},"token":{"address_hash":"0xC52D7F23a2e460248Db6eE192Cb23dD12bDDCbf6","circulating_market_cap":"264005831.20016503","decimals":"18","exchange_rate":"0.994762","holders_count":"1679","icon_url":"https://assets.coingecko.com/coins/images/30118/small/crvusd.jpg?1746670973","name":"crvUSD","reputation":"ok","symbol":"CRVUSD","total_supply":"656721811294951006176499","type":"ERC-20","volume_24h":"39657016.12659543"},"token_type":"ERC-20","total":{"decimals":"18","value":"119839093568992553859"},"transaction_hash":"0xa2f971ba5af848948e0930ab0f86b70751d595e7c79111aa863681a117924e71","type":"token_transfer"},{"block_hash":"0x08a370790ae18ed36482f82f29b8024504671e1d54cc00d3d2782a64d0c05545","block_number":141031393,"from":{"ens_domain_name":null,"hash":"0xA2A786ff9148f7C88EE93372Db8CBe9e94585c74","implementations":[],"is_contract":true,"is_scam":false,"is_verified":true,"metadata":{"tags":[{"meta":{"projectName":"CrossCurve","tagIcon
        ":"https://blockscout-icons.s3.us-east-1.amazonaws.com/OLI_tag_logo.svg","tagUrl":"https://app.klerosscout.eth.limo/#/?registry=Single_Tags&itemdetails=0x4152d944b5b0263cde30757b60071404e57832e7049d40406231f005499056c3@0x66260c69d03837016d88c9877e61e08ef74c59f2","textColor":"#C163D4","tooltipAttribution":"https://www.openlabelsinitiative.org?utm_source=blockscout","tooltipAttributionIcon":"https://blockscout-icons.s3.us-east-1.amazonaws.com/OLI_tag_logo.svg","tooltipDescription":"CrossCurve''s
        Unified Router V2.1.0 contract on Optimism","tooltipUrl":"https://crosscurve.fi/","verifiedDomains":["app.crosscurve.fi"]},"name":"Unified
        Router V2.1.0","ordinal":10,"slug":"unified-router-v210-10","tagType":"name"},{"meta":{"alertStatus":"info","data":"This
        nametag was submitted by Kleros Curate."},"name":"note_0","ordinal":0,"slug":"note0","tagType":"note"},{"meta":{},"name":"CrossCurve","ordinal":0,"slug":"crosscurve","tagType":"protocol"}]},"name":"UnifiedRouterV2","private_tags":[],"proxy_type":null,"public_tags":[],"reputation":"ok","watchlist_names":[]},"log_index":357,"method":null,"timestamp":null,"to":{"ens_domain_name":null,"hash":"0x0ECD8bfdABd6005c9F325f222E1f6427E4db39e1","implementations":[],"is_contract":true,"is_scam":false,"is_verified":true,"metadata":null,"name":"PoolAdapterStableNg","private_tags":[],"proxy_type":null,"public_tags":[],"reputation":"ok","watchlist_names":[]},"token":{"address_hash":"0xC52D7F23a2e460248Db6eE192Cb23dD12bDDCbf6","circulating_market_cap":"264005831.20016503","decimals":"18","exchange_rate":"0.994762","holders_count":"1679","icon_url":"https://assets.coingecko.com/coins/images/30118/small/crvusd.jpg?1746670973","name":"crvUSD","reputation":"ok","symbol":"CRVUSD","total_supply":"656721811294951006176499","type":"ERC-20","volume_24h":"39657016.12659543"},"token_type":"ERC-20","total":{"decimals":"18","value":"119839093568992553859"},"transaction_hash":"0xa2f971ba5af848948e0930ab0f86b70751d595e7c79111aa863681a117924e71","type":"token_transfer"},{"block_hash":"0x08a370790ae18ed36482f82f29b8024504671e1d54cc00d3d2782a64d0c05545","block_number":141031393,"from":{"ens_domain_name":null,"hash":"0x0ECD8bfdABd6005c9F325f222E1f6427E4db39e1","implementations":[],"is_contract":true,"is_scam":false,"is_verified":true,"metadata":null,"name":"PoolAdapterStableNg","private_tags":[],"proxy_type":null,"public_tags":[],"reputation":"ok","watchlist_names":[]},"log_index":360,"method":null,"timestamp":null,"to":{"ens_domain_name":null,"hash":"0xD1b30BA128573fcd7D141C8A987961b40e047BB6","implementations":[],"is_contract":true,"is_scam":false,"is_verified":true,"metadata":{"tags":[{"meta":{"projectName":"Curve","tagUrl":"https://app.klerosscout.eth.limo/#/?registry=Single_Tags&itemdetails=0xc9c166d5e1a70f73e2abaaa92c3c9921c50971c7164e3bdb2ce7e084b7deb79a@0x66260c69d03837016d88c9877e61e08ef74c59f2","tooltipDescription":"Curve''s
        crvUSDT (crvUSD/USDT) pool contract.","tooltipUrl":"https://curve.fi"},"name":"crvUSDT
        Pool","ordinal":10,"slug":"crvusdt-pool-10","tagType":"name"},{"meta":{"alertStatus":"info","data":"This
        nametag was submitted by Kleros Scout."},"name":"note_0","ordinal":0,"slug":"note0","tagType":"note"},{"meta":{"appActionButtonText":"Curve","appID":"curve"},"name":"Curve","ordinal":0,"slug":"curve","tagType":"protocol"}]},"name":"CurveStableSwapNG","private_tags":[],"proxy_type":null,"public_tags":[],"reputation":"ok","watchlist_names":[]},"token":{"address_hash":"0xC52D7F23a2e460248Db6eE192Cb23dD12bDDCbf6","circulating_market_cap":"264005831.20016503","decimals":"18","exchange_rate":"0.994762","holders_count":"1679","icon_url":"https://assets.coingecko.com/coins/images/30118/small/crvusd.jpg?1746670973","name":"crvUSD","reputation":"ok","symbol":"CRVUSD","total_supply":"656721811294951006176499","type":"ERC-20","volume_24h":"39657016.12659543"},"token_type":"ERC-20","total":{"decimals":"18","value":"119839093568992553859"},"transaction_hash":"0xa2f971ba5af848948e0930ab0f86b70751d595e7c79111aa863681a117924e71","type":"token_transfer"},{"block_hash":"0x08a370790ae18ed36482f82f29b8024504671e1d54cc00d3d2782a64d0c05545","block_number":141031393,"from":{"ens_domain_name":null,"hash":"0xD1b30BA128573fcd7D141C8A987961b40e047BB6","implementations":[],"is_contract":true,"is_scam":false,"is_verified":true,"metadata":{"tags":[{"meta":{"projectName":"Curve","tagUrl":"https://app.klerosscout.eth.limo/#/?registry=Single_Tags&itemdetails=0xc9c166d5e1a70f73e2abaaa92c3c9921c50971c7164e3bdb2ce7e084b7deb79a@0x66260c69d03837016d88c9877e61e08ef74c59f2","tooltipDescription":"Curve''s
        crvUSDT (crvUSD/USDT) pool contract.","tooltipUrl":"https://curve.fi"},"name":"crvUSDT
        Pool","ordinal":10,"slug":"crvusdt-pool-10","tagType":"name"},{"meta":{"alertStatus":"info","data":"This
        nametag was submitted by Kleros Scout."},"name":"note_0","ordinal":0,"slug":"note0","tagType":"note"},{"meta":{"appActionButtonText":"Curve","appID":"curve"},"name":"Curve","ordinal":0,"slug":"curve","tagType":"protocol"}]},"name":"CurveStableSwapNG","private_tags":[],"proxy_type":null,"public_tags":[],"reputation":"ok","watchlist_names":[]},"log_index":361,"method":null,"timestamp":null,"to":{"ens_domain_name":null,"hash":"0xAc8f44ceCa92b2a4b30360E5bd3043850a0FFcbE","implementations":[],"is_contract":true,"is_scam":false,"is_verified":true,"metadata":{"tags":[{"meta":{"tagIcon
        ":"https://blockscout-icons.s3.us-east-1.amazonaws.com/OLI_tag_logo.svg","textColor":"#C163D4","tooltipAttribution":"https://www.openlabelsinitiative.org?utm_source=blockscout","tooltipAttributionIcon":"https://blockscout-icons.s3.us-east-1.amazonaws.com/OLI_tag_logo.svg","tooltipDescription":"Provided
        by OLI"},"name":"PortalV2","ordinal":0,"slug":"portalv2","tagType":"name"}]},"name":"PortalV2","private_tags":[],"proxy_type":null,"public_tags":[],"reputation":"ok","watchlist_names":[]},"token":{"address_hash":"0x94b008aA00579c1307B0EF2c499aD98a8ce58e58","circulating_market_cap":"0.0","decimals":"6","exchange_rate":"0.998619","holders_count":"1078241","icon_url":"https://assets.coingecko.com/coins/images/35001/small/logo.png?1706959346","name":"Bridged
        USDT","reputation":"ok","symbol":"USDT","total_supply":"147417973351528","type":"ERC-20","volume_24h":"4215632.761392184"},"token_type":"ERC-20","total":{"decimals":"6","value":"119770871"},"transaction_hash":"0xa2f971ba5af848948e0930ab0f86b70751d595e7c79111aa863681a117924e71","type":"token_transfer"}],"base_fee_per_gas":"665","timestamp":"2025-09-12T07:19:23.000000Z","nonce":125,"historic_exchange_rate":"4715.14","transaction_types":["coin_transfer","contract_call","token_transfer"],"exchange_rate":"2056.87","block_number":141031393,"has_error_in_internal_transactions":false}'
    headers:
      CF-RAY:
      - 9da1bdf42fc7e074-MAD
      Cache-Control:
      - max-age=0, private, must-revalidate
      Connection:
      - keep-alive
      Content-Type:
      - application/json; charset=utf-8
      Date:
      - Tue, 10 Mar 2026 10:47:34 GMT
      Nel:
      - '{"report_to":"cf-nel","success_fraction":0.0,"max_age":604800}'
      Report-To:
      - '{"group":"cf-nel","max_age":604800,"endpoints":[{"url":"https://a.nel.cloudflare.com/report/v4?s=BMR1%2F7RIrGsFm5ELWSGqkqvGOkjEncI7J9RpbWGs%2FxHiRzx4h0oxNpguKfeOUGKlYz6aMK1dnEaVIbPhQ2j7Q05aTiE3gm4yQsnYFsgZZTwbMw%3D%3D"}]}'
      Server:
      - cloudflare
      Transfer-Encoding:
      - chunked
      access-control-allow-credentials:
      - 'true'
      access-control-allow-origin:
      - '*'
      access-control-expose-headers:
      - bypass-429-option,x-ratelimit-reset,x-ratelimit-limit,x-ratelimit-remaining,api-v2-temp-token
      alt-svc:
      - h3=":443"; ma=86400
      bypass-429-option:
      - temporary_token
      cf-cache-status:
      - DYNAMIC
      content-length:
      - '26128'
      strict-transport-security:
      - max-age=31536000; includeSubDomains
      x-ratelimit-limit:
      - '600'
      x-ratelimit-remaining:
      - '596'
      x-ratelimit-reset:
      - '26191'
      x-request-id:
      - 3e645a1413e6d8db5ef2f7a39c4e2ee3
    status:
      code: 200
      message: OK
- request:
    body: null
    headers:
      Accept:
      - '*/*'
      Accept-Encoding:
      - gzip, deflate
      Connection:
      - keep-alive
      User-Agent:
      - rotki/1.42.1.dev192+g7b2836aa8f.d20260310
    method: GET
    uri: https://explorer.optimism.io/api?action=txlistinternal&module=account&sort=asc&txhash=0xa2f971ba5af848948e0930ab0f86b70751d595e7c79111aa863681a117924e71
  response:
    body:
      string: '{"message":"OK","result":[{"blockNumber":"141031393","callType":"call","contractAddress":"","errCode":"","from":"0xa2a786ff9148f7c88ee93372db8cbe9e94585c74","gas":"1377212","gasUsed":"55","index":"4","input":"0x","isError":"0","timeStamp":"1757661563","to":"0x94a365ca808029af8db18257ecd296c16c61ac05","transactionHash":"0xa2f971ba5af848948e0930ab0f86b70751d595e7c79111aa863681a117924e71","type":"call","value":"9019739891817"}],"status":"1"}'
    headers:
      CF-RAY:
      - 9da1bdf958dc0140-MAD
      Cache-Control:
      - max-age=0, private, must-revalidate
      Connection:
      - keep-alive
      Content-Type:
      - application/json; charset=utf-8
      Date:
      - Tue, 10 Mar 2026 10:47:34 GMT
      Nel:
      - '{"report_to":"cf-nel","success_fraction":0.0,"max_age":604800}'
      Report-To:
      - '{"group":"cf-nel","max_age":604800,"endpoints":[{"url":"https://a.nel.cloudflare.com/report/v4?s=urSsL7HL1QOyWM9UZkmx02EfUtdze8TnTdCcBqOsExJFsAfnxAsH5TuKrTaZUcJouU%2B%2BQdzYZEnr96E%2BBodc0WiFgT2HKr2fTtmfakybjD3N%2BWgV"}]}'
      Server:
      - cloudflare
      Transfer-Encoding:
      - chunked
      access-control-allow-credentials:
      - 'true'
      access-control-allow-origin:
      - '*'
      access-control-expose-headers:
      - bypass-429-option,x-ratelimit-reset,x-ratelimit-limit,x-ratelimit-remaining,api-v2-temp-token
      alt-svc:
      - h3=":443"; ma=86400
      bypass-429-option:
      - no_bypass
      cf-cache-status:
      - DYNAMIC
      content-length:
      - '442'
      strict-transport-security:
      - max-age=31536000; includeSubDomains
      x-ratelimit-limit:
      - '600'
      x-ratelimit-remaining:
      - '595'
      x-ratelimit-reset:
      - '25364'
      x-request-id:
      - ea4c384802616431a86718b90178a8c6
    status:
      code: 200
      message: OK
version: 1
