interactions:
- request:
    body: '{"id": 0, "jsonrpc": "2.0", "method": "eth_getTransactionByHash", "params":
      ["0x8d65dc5a77aaceabac3b80fd28f8fa3cd45143748c2d31598706580f68d724da"]}'
    headers:
      Accept:
      - '*/*'
      Accept-Encoding:
      - gzip, deflate
      Connection:
      - keep-alive
      Content-Length:
      - '147'
      Content-Type:
      - application/json
      User-Agent:
      - rotki/1.41.2.dev441+ga56b3c0f52.d20260113
    method: POST
    uri: https://explorer.optimism.io/api/eth-rpc
  response:
    body:
      string: '{"jsonrpc":"2.0","result": {"accessList":[],"blockHash":"0xb477b895204b47135ef9ed7aefdf7f0e78e06d859361ce88afd810d66bb1608f","blockNumber":"0x67f02aa","chainId":"0xa","from":"0x78c13393aee675dd7ed07ce992210750d1f5db88","gas":"0x814df","gasPrice":"0x55","hash":"0x8d65dc5a77aaceabac3b80fd28f8fa3cd45143748c2d31598706580f68d724da","input":"0x903638a4000000000000000000000000000000000000000000000000a36d2698eb029d74000000000000000000000000000000000000000000000000000000000000008000000000000000000000000078c13393aee675dd7ed07ce992210750d1f5db880000000000000000000000000000000000000000000000000000000064f1e60b000000000000000000000000000000000000000000000000000000000000000200000000000000000000000042000000000000000000000000000000000000060000000000000000000000006806411765af15bddd26f8f544a34cc40cb9838b0000000000000000000000000000000000000000000000000000000000000001000000000000000000000000f1046053aa5682b4f9a81b5481394da16be5ff5a0000000000000000000000006806411765af15bddd26f8f544a34cc40cb9838b00000000000000000000000042000000000000000000000000000000000000420000000000000000000000000000000000000000000000000000000000000000000000000000000000000000f1046053aa5682b4f9a81b5481394da16be5ff5a","maxFeePerGas":"0xe2","maxPriorityFeePerGas":"0xa","nonce":"0x3","r":"0xe505d42cbd656612e1e32c3b89fb6835d74f3e04a92a1ef3c4957e479f12593b","s":"0x88ef0ec307faf6660f9a7faf37ab01205fa6f60dd1c05e016ed57ef68fbbcdc","to":"0xa062ae8a9c5e11aaa026fc2670b0d65ccc8b2858","transactionIndex":"0xa","type":"0x2","v":"0x1","value":"0x2386f26fc10000","yParity":"0x1"},"id":
        0}

        '
    headers:
      CF-RAY:
      - 9bdf9f17f9e9dc3e-ATL
      Cache-Control:
      - max-age=0, private, must-revalidate
      Connection:
      - keep-alive
      Content-Type:
      - application/json; charset=utf-8
      Date:
      - Wed, 14 Jan 2026 19:43:18 GMT
      Nel:
      - '{"report_to":"cf-nel","success_fraction":0.0,"max_age":604800}'
      Report-To:
      - '{"group":"cf-nel","max_age":604800,"endpoints":[{"url":"https://a.nel.cloudflare.com/report/v4?s=%2BWb57uBf4LWHda7W7tdUu8adkMPVLOop9iLieLbPzrSVZdzwJGuCEM%2F9s%2F0SCU4qLdpWr5F7hHnj%2Fw5KmAVy1MbGsDKSompQVL4K2g2Qc%2BevjqM0"}]}'
      Server:
      - cloudflare
      Transfer-Encoding:
      - chunked
      access-control-allow-credentials:
      - 'true'
      access-control-allow-origin:
      - '*'
      access-control-expose-headers:
      - bypass-429-option,x-ratelimit-reset,x-ratelimit-limit,x-ratelimit-remaining,api-v2-temp-token
      alt-svc:
      - h3=":443"; ma=86400
      bypass-429-option:
      - no_bypass
      cf-cache-status:
      - DYNAMIC
      content-length:
      - '1543'
      strict-transport-security:
      - max-age=31536000; includeSubDomains
      x-ratelimit-limit:
      - '600'
      x-ratelimit-remaining:
      - '599'
      x-ratelimit-reset:
      - '41925'
      x-request-id:
      - ee8c1eacb0e2c4234e254b2abd00960d
    status:
      code: 200
      message: OK
- request:
    body: '{"id": 0, "jsonrpc": "2.0", "method": "eth_getBlockByNumber", "params":
      ["0x67f02aa", true]}'
    headers:
      Accept:
      - '*/*'
      Accept-Encoding:
      - gzip, deflate
      Connection:
      - keep-alive
      Content-Length:
      - '92'
      Content-Type:
      - application/json
      User-Agent:
      - rotki/1.41.2.dev441+ga56b3c0f52.d20260113
    method: POST
    uri: https://explorer.optimism.io/api/eth-rpc
  response:
    body:
      string: '{"jsonrpc":"2.0","result": {"baseFeePerGas":"0x4b","difficulty":"0x0","extraData":"0x","gasLimit":"0x1c9c380","gasUsed":"0x388cb8","hash":"0xb477b895204b47135ef9ed7aefdf7f0e78e06d859361ce88afd810d66bb1608f","logsBloom":"0x440000400a0001094000328082000000c004400200080400200400020000043006a09001000002010087001501180029424008c00008000202206e0000e0204000504820080200822004200f2820200002894000008200080000000084000200020408810205008100cc40100002091010009840810c608002000598c8230041060305240c000080084002400c000000011090013aa020004024408008020000468200404002432020000004c800000600200000000980400080008800502220a000300200000c0000000806000900c0108040402402020008050000000021c0509089010606201004802042101011080121000000d21a480014400808034005","miner":"0x4200000000000000000000000000000000000011","mixHash":"0x7f8682e2ce3ce9d6f595f0a8417e6ce564b117d22b4205bbd217cfab8dba2a79","nonce":"0x0000000000000000","number":"0x67f02aa","parentHash":"0x5375bd628797cf1bdb23ad411b601909510c00701c6ab038a4af56c4c0ec2068","receiptsRoot":"0x61757e4e4eb49e3e11f138c28ff9e6b25eab445d1fdfb12c9311fbf258b7397a","sha3Uncles":"0x1dcc4de8dec75d7aab85b567b6ccd41ad312451b948a7413f0a142fd40d49347","size":"0x1594","stateRoot":"0x1740cbd4ffbaea94c4350980ebe1d8b6612c32a37f4d9b1c70b82b01630a0103","timestamp":"0x64f1df0d","transactions":[{"blockHash":"0xb477b895204b47135ef9ed7aefdf7f0e78e06d859361ce88afd810d66bb1608f","blockNumber":"0x67f02aa","from":"0xdeaddeaddeaddeaddeaddeaddeaddeaddead0001","gas":"0xf4240","gasPrice":"0x0","hash":"0x7f3edf272c9eff7b39b9912d399a60384a61260acb05bc36b61af9e6d17b1c15","input":"0x015d8eb90000000000000000000000000000000000000000000000000000000001134be30000000000000000000000000000000000000000000000000000000064f1dec300000000000000000000000000000000000000000000000000000002ee304ebc31dbb6d5ab0d45d17ece703823ae87d71ec9209dff46cd96a8fc313da5e640de00000000000000000000000000000000000000000000000000000000000000030000000000000000000000006887246668a3b87f54deb3b94ba47a6f63f3298500000000000000000000000000000000000000000000000000000000000000bc00000000000000000000000000000000000000000000000000000000000a6fe0","mint":"0x0","nonce":"0x394032","r":"0x0","s":"0x0","sourceHash":"0xf80d4fc7b5cae1a9141acb577fb472b2ff2f849f3a23bf8dfbcb7d091be3f6a5","to":"0x4200000000000000000000000000000000000015","transactionIndex":"0x0","type":"0x7e","v":"0x0","value":"0x0","yParity":"0x0"},{"blockHash":"0xb477b895204b47135ef9ed7aefdf7f0e78e06d859361ce88afd810d66bb1608f","blockNumber":"0x67f02aa","chainId":"0xa","from":"0xe93685f3bba03016f02bd1828badd6195988d950","gas":"0x120c9a","gasPrice":"0x7270e5b","hash":"0xe71c626f5db9e4cd1a93f2aeecad164b9fa9164f2037bebedbb939a0576cc314","input":"0x252f7b01000000000000000000000000000000000000000000000000000000000000006e000000000000000000000000701a95707a0290ac8b90b3719e8ee5b2103608830000000000000000000000000000000000000000000000000000000000043238284262c697ffab836a7c3798f3b7e65080c11f58e890d544920b63f0cac1e62d284262c697ffab836a7c3798f3b7e65080c11f58e890d544920b63f0cac1e62d00000000000000000000000000000000000000000000000000000000000000c000000000000000000000000000000000000000000000000000000000000002740000000000000000000000004d73adb72bc3dd368966edd0f0b2148401a178e200000000002b5749006e352d8275aae3e0c2404d9f68f6cee084b5beb3dd006f701a95707a0290ac8b90b3719e8ee5b2103608830000000000000000000000000000000000000000000000000000000000000001000000000000000000000000000000000000000000000000000000000000000d000000000000000000000000000000000000000000000000000000000000000d00000000000000000000000000000000000000000000000000000000000000000000000000000000000000000000000000000000000000000000000000000000000000000000000000000000000000000000000000000022471352702a163a28000000000000000000000000000000000000000000000000088081bd72f75000000000000000000000000000000000000000000000000000000010b9c16adc000000000000000000000000000000000000000000000000000000000000000000000000000000000000000000000000000000000000000000000000000000000000000000000000000000000000000000000000000000000000013dc95aee54000000000000000000000000000000000000000000000000000881d0408f50800000000000000000000000000000000000000000000000000000000000000001c000000000000000000000000000000000000000000000000000000000000002000000000000000000000000000000000000000000000000000000000000000014dc0de2428be322d925f58efeea340ca54301fb950000000000000000000000000000000000000000000000000000000000000000000000000000000000000000000000000000000000000000","nonce":"0x527072","r":"0xede14608d2a4959731c24c5c4025a0767f0e21bb7d2a3808af9ebd8deda415ca","s":"0x7f638ae1a9c9f89d278c01df4cf3df3926bb8e8d84a36e822b55fcdf14e0dc0d","to":"0x81e792e5a9003cc1c8bf5569a00f34b65d75b017","transactionIndex":"0x1","type":"0x0","v":"0x37","value":"0x0"},{"blockHash":"0xb477b895204b47135ef9ed7aefdf7f0e78e06d859361ce88afd810d66bb1608f","blockNumber":"0x67f02aa","chainId":"0xa","from":"0xb8ff877ed78ba520ece21b1de7843a8a57ca47cb","gas":"0x2a77e","gasPrice":"0x7270e5a","hash":"0x60714d0c130c8e9d4c9acea60e9240a070fce674a476210eb80c20043fb73e2e","input":"0x6c459a280000000000000000000000004d73adb72bc3dd368966edd0f0b2148401a178e200000000000000000000000000000000000000000000000000000000000000800000000000000000000000000000000000000000000000000000000064f2336900000000000000000000000000000000000000000000000000000000000001400000000000000000000000000000000000000000000000000000000000000084704316e5000000000000000000000000000000000000000000000000000000000000006e7c0a3a5818bc96d42c160bfe28ef5246488ea1d63b044059d523c2f5f8c157d100000000000000000000000000000000000000000000000000000000000000147c0a3a5818bc96d42c160bfe28ef5246488ea1d63b044059d523c2f5f8c157d100000000000000000000000000000000000000000000000000000000000000000000000000000000000000000000000000000000000000000000008275f53bd9da3b817230414188099d5bdd13f89f8144fcd581bf5e30ad8d700b8d25b2131ea19b01a2ea29a72769a3a79e134cd6ee14d0de32c5211bf71a004e201ba05aa022df7aa73f16dd520e645362564fb3859eb7d78c5438796d10f0424ec151016531b0dcb5aa16d55aa9fcd2090f8e8605aeaecefb155c40822dd2ba3a841c000000000000000000000000000000000000000000000000000000000000","nonce":"0x3a0e57","r":"0x5e16ee4b8560b9a4e79b37c2c978b15ebee57ab71047fe30cdc4c92ed5352de7","s":"0x138a46be1b570ba771a3fc932501d319d87134843c70e51f393290ba5197829b","to":"0xa0cc33dd6f4819d473226257792afe230ec3c67f","transactionIndex":"0x2","type":"0x0","v":"0x38","value":"0x0"},{"blockHash":"0xb477b895204b47135ef9ed7aefdf7f0e78e06d859361ce88afd810d66bb1608f","blockNumber":"0x67f02aa","chainId":"0xa","from":"0xb1a50a32ada2c9b4f1b6d97860182d8d5a75b573","gas":"0x5b896","gasPrice":"0x5f5e14c","hash":"0x5dd008d7e2d1a9ab038acbdfff4659cdc4108eae9d5942ee830e8f2c4a2cb61d","input":"0x65fc38730000000000000000000000000000000000000000000000087013e303e71208900000000000000000000000000000000000000000000000000000000065dfc900","nonce":"0x3","r":"0x56b6c7e34c01ac213eddc1a4e10e8d6e66e83e1dcf8bbb99c2b383f4ed69443b","s":"0x49e9d21327a48d6ee27382944f6f034ba68befc42b74adda3b8b6e7105cbae9c","to":"0x43d2761ed16c89a2c4342e2b16a3c61ccf88f05b","transactionIndex":"0x3","type":"0x0","v":"0x37","value":"0x0"},{"accessList":[],"blockHash":"0xb477b895204b47135ef9ed7aefdf7f0e78e06d859361ce88afd810d66bb1608f","blockNumber":"0x67f02aa","chainId":"0xa","from":"0x9169332e2bd717321bda13679aa25979e4e8dd36","gas":"0x6a96c","gasPrice":"0x5f5e147","hash":"0x9542a2f5e54066683cd9640ba7abd9a170063d8be3e2767db902d2ac1a6f0d73","input":"0x84bd94ff0000000000000000000000000000000000000000000000015501697bb0417e74","maxFeePerGas":"0x5f5e147","maxPriorityFeePerGas":"0x5f5e147","nonce":"0x17e","r":"0xf329194c79763f9a41c06cf9e665bf052fab74d908ff4b4b1f8e30281462273c","s":"0x4f0649d5d3cf8c097b68ea8c5df353e964b46f5be28103d376c5fefee9bb821e","to":"0x2eacbc3c06a4d89f27a9e4b1ed73be4bb6915c6f","transactionIndex":"0x4","type":"0x2","v":"0x1","value":"0x0","yParity":"0x1"},{"accessList":[],"blockHash":"0xb477b895204b47135ef9ed7aefdf7f0e78e06d859361ce88afd810d66bb1608f","blockNumber":"0x67f02aa","chainId":"0xa","from":"0xc913846e6e830f0b88c6721f8f8e12e2706df051","gas":"0xd36d4","gasPrice":"0x5f5e147","hash":"0x50455cb117648306709ff7bcfbf2199a4d9f7cfdf25b0a0deb71755b3df16fff","input":"0xc45dec2700000000000000000000000000000000000000000000000001b3764e4eedab31000000000000000000000000c913846e6e830f0b88c6721f8f8e12e2706df051000000000000000000000000eeeeeeeeeeeeeeeeeeeeeeeeeeeeeeeeeeeeeeee0000000000000000000000007f5c764cbc14f9669b88837ca1490cca17c3160700000000000000000000000000000000000000000000000000ed7c09af90981900000000000000000000000000000000000000000000000000000000067a5e61000000000000000000000000000000000000000000000000000000000000006d0000000000000000000000002791bca1f2de4661ed88a30c99a7a9449aa841740000000000000000000000002791bca1f2de4661ed88a30c99a7a9449aa8417400000000000000000000000000000000000000000000000000000000067910d00000000000000000000000000000000000000000000000000000000000000000","maxFeePerGas":"0x5f5e147","maxPriorityFeePerGas":"0x5f5e147","nonce":"0x6","r":"0xc4f595fd88867dd2ff619f49709e29e299fe0469962841e4dfb4d35f33426955","s":"0x2f3d8115aa6a0c96e1c0ff93078f4289c6d05988a51cb6aedc821371b7a6f205","to":"0xbeae1b06949d033da628ba3e5af267c3e740494b","transactionIndex":"0x5","type":"0x2","v":"0x1","value":"0xee4119e0ce26c1","yParity":"0x1"},{"accessList":[],"blockHash":"0xb477b895204b47135ef9ed7aefdf7f0e78e06d859361ce88afd810d66bb1608f","blockNumber":"0x67f02aa","chainId":"0xa","from":"0x3f3b9b0f14def5817a61437ccb25ccbbd4853ffd","gas":"0xa3c06","gasPrice":"0x2625a2c","hash":"0x17daaa38fa3436786922aa6868ee17ce57d8973e4c58f6ddc8777ff93eed0713","input":"0x8e3c92e400000000000000000000000000000000000000000000000004cb43b2578031df00000000000000000000000000000000000000000000002edf62b0991e3e6fbc0000000000000000000000003f3b9b0f14def5817a61437ccb25ccbbd4853ffd000000000000000000000000bcfa4cfa97f74a6abf80b9901569bbc8654f43150000000000000000000000000000000000000000000000000000000000000000000000000000000000000000000000000000000000000000000000000000000000000000000000000000000000000000000000000000000000000000000000000000000000000000000000000000000000000000000000000000000000000000","maxFeePerGas":"0x2625a3f","maxPriorityFeePerGas":"0x26259e1","nonce":"0x41","r":"0xffd587785777fbf63b6c4fe5762208fc1985195db7fb50269a8d1881ed60e314","s":"0x2133b2409ef0b5a1c5f41294fd33208426209fc70a98b1e589f88df5b4a99396","to":"0x1e97925c365cd96d74ec55a04569915c4d65e5e0","transactionIndex":"0x6","type":"0x2","v":"0x0","value":"0x0","yParity":"0x0"},{"accessList":[],"blockHash":"0xb477b895204b47135ef9ed7aefdf7f0e78e06d859361ce88afd810d66bb1608f","blockNumber":"0x67f02aa","chainId":"0xa","from":"0xac62b724d8cc3d7e32503706adf221ee84989a37","gas":"0x1ac4b","gasPrice":"0x94","hash":"0x1460f7a2191f33e1608f1bb9874c52e2b7279fb1afec7f1b49b6e5418a1bd20a","input":"0x095ea7b3000000000000000000000000b0d502e938ed5f4df2e681fe6e419ff29631d62b0000000000000000000000000000000000000000000000000000000019cbaa21","maxFeePerGas":"0x94","maxPriorityFeePerGas":"0x94","nonce":"0x10","r":"0x6de7df34402d0487de73b3c9566cd1822b7324df01b149ba7747d2959fb35226","s":"0x1bc2b3cc5585b0404e9c363dcb8ec9ca8230217c5995297bb7158b230e659f0f","to":"0x7f5c764cbc14f9669b88837ca1490cca17c31607","transactionIndex":"0x7","type":"0x2","v":"0x0","value":"0x0","yParity":"0x0"},{"accessList":[],"blockHash":"0xb477b895204b47135ef9ed7aefdf7f0e78e06d859361ce88afd810d66bb1608f","blockNumber":"0x67f02aa","chainId":"0xa","from":"0x8a9cab3967a140066620deac6fa8039458ad3d9b","gas":"0x47181","gasPrice":"0x59","hash":"0x46be13a77bb9eb87bb4251f1070f151bd7c060f85f5bad21ff66a7e6ef8d5bc2","input":"0x519056360000000000000000000000008a9cab3967a140066620deac6fa8039458ad3d9b00000000000000000000000000000000000000000000000000000000000000af00000000000000000000000000000000000000000000000000000000000000e000000000000000000000000000000000000000000000000000000000004261cd0000000000000000000000008a9cab3967a140066620deac6fa8039458ad3d9b0000000000000000000000000000000000000000000000000000000000000000000000000000000000000000000000000000000000000000000000000000012000000000000000000000000000000000000000000000000000000000000000148a9cab3967a140066620deac6fa8039458ad3d9b00000000000000000000000000000000000000000000000000000000000000000000000000000000000000220001000000000000000000000000000000000000000000000000000000000003f7a0000000000000000000000000000000000000000000000000000000000000","maxFeePerGas":"0xe6","maxPriorityFeePerGas":"0xe","nonce":"0x1e","r":"0x28d601803c4f3b05c661f013818f2be62a7792991321234284041b6c91f63738","s":"0x5f24d3d54d916ecb446750909a711ff2725c24aae5203ad1b6bde289fdd4398a","to":"0xd12999440402d30f69e282d45081999412013844","transactionIndex":"0x8","type":"0x2","v":"0x0","value":"0x41474c108936","yParity":"0x0"},{"accessList":[],"blockHash":"0xb477b895204b47135ef9ed7aefdf7f0e78e06d859361ce88afd810d66bb1608f","blockNumber":"0x67f02aa","chainId":"0xa","from":"0x41d76a56ca9a203e4d877719055c3da59557d384","gas":"0x8a611","gasPrice":"0x59","hash":"0x621b7b1d37738a16eb594c47277de50bdc1446cb5ef97c431009499c4e7938a4","input":"0x9fbf10fc000000000000000000000000000000000000000000000000000000000000006a0000000000000000000000000000000000000000000000000000000000000001000000000000000000000000000000000000000000000000000000000000000200000000000000000000000041d76a56ca9a203e4d877719055c3da59557d3840000000000000000000000000000000000000000000000000000000011dd0f200000000000000000000000000000000000000000000000000000000011c6319c000000000000000000000000000000000000000000000000000000000000012000000000000000000000000000000000000000000000000000000000000001c0000000000000000000000000000000000000000000000000000000000000020000000000000000000000000000000000000000000000000000000000000000000000000000000000000000000000000000000000000000000000000000000000000000000000000000000000000000000000000000000000000000000000006000000000000000000000000000000000000000000000000000000000000000140000000000000000000000000000000000000001000000000000000000000000000000000000000000000000000000000000000000000000000000000000001441d76a56ca9a203e4d877719055c3da59557d3840000000000000000000000000000000000000000000000000000000000000000000000000000000000000000","maxFeePerGas":"0xe6","maxPriorityFeePerGas":"0xe","nonce":"0x2","r":"0x50a22860c9ef9489aa6dbbf9f349a66b2bcff39891785cedc579e14ba8a0dd4b","s":"0x3390ab26603fbc7fb9d9327e1e54c04db1afcefb703d44e71ca05adb12bd4fd2","to":"0xb0d502e938ed5f4df2e681fe6e419ff29631d62b","transactionIndex":"0x9","type":"0x2","v":"0x1","value":"0xdf8d3bda4774","yParity":"0x1"},{"accessList":[],"blockHash":"0xb477b895204b47135ef9ed7aefdf7f0e78e06d859361ce88afd810d66bb1608f","blockNumber":"0x67f02aa","chainId":"0xa","from":"0x78c13393aee675dd7ed07ce992210750d1f5db88","gas":"0x814df","gasPrice":"0x55","hash":"0x8d65dc5a77aaceabac3b80fd28f8fa3cd45143748c2d31598706580f68d724da","input":"0x903638a4000000000000000000000000000000000000000000000000a36d2698eb029d74000000000000000000000000000000000000000000000000000000000000008000000000000000000000000078c13393aee675dd7ed07ce992210750d1f5db880000000000000000000000000000000000000000000000000000000064f1e60b000000000000000000000000000000000000000000000000000000000000000200000000000000000000000042000000000000000000000000000000000000060000000000000000000000006806411765af15bddd26f8f544a34cc40cb9838b0000000000000000000000000000000000000000000000000000000000000001000000000000000000000000f1046053aa5682b4f9a81b5481394da16be5ff5a0000000000000000000000006806411765af15bddd26f8f544a34cc40cb9838b00000000000000000000000042000000000000000000000000000000000000420000000000000000000000000000000000000000000000000000000000000000000000000000000000000000f1046053aa5682b4f9a81b5481394da16be5ff5a","maxFeePerGas":"0xe2","maxPriorityFeePerGas":"0xa","nonce":"0x3","r":"0xe505d42cbd656612e1e32c3b89fb6835d74f3e04a92a1ef3c4957e479f12593b","s":"0x88ef0ec307faf6660f9a7faf37ab01205fa6f60dd1c05e016ed57ef68fbbcdc","to":"0xa062ae8a9c5e11aaa026fc2670b0d65ccc8b2858","transactionIndex":"0xa","type":"0x2","v":"0x1","value":"0x2386f26fc10000","yParity":"0x1"}],"transactionsRoot":"0x55c0b335a94073953faa4404478c717031c31b02db11af2fc982269b44541280","uncles":[]},"id":
        0}

        '
    headers:
      CF-RAY:
      - 9bdf9f1b383ef58a-ATL
      Cache-Control:
      - max-age=0, private, must-revalidate
      Connection:
      - keep-alive
      Content-Type:
      - application/json; charset=utf-8
      Date:
      - Wed, 14 Jan 2026 19:43:18 GMT
      Nel:
      - '{"report_to":"cf-nel","success_fraction":0.0,"max_age":604800}'
      Report-To:
      - '{"group":"cf-nel","max_age":604800,"endpoints":[{"url":"https://a.nel.cloudflare.com/report/v4?s=KRnwTTwodxaRVW4Uunw9Jonnvp%2FJdDAbH6jDoYCBvsG0yykr7kzvVBoQYp3iAdKyurh%2BuYywQkjfEuexNSe283SaXkg5oGzuyYnGFusIeJh0cDmn"}]}'
      Server:
      - cloudflare
      Transfer-Encoding:
      - chunked
      access-control-allow-credentials:
      - 'true'
      access-control-allow-origin:
      - '*'
      access-control-expose-headers:
      - bypass-429-option,x-ratelimit-reset,x-ratelimit-limit,x-ratelimit-remaining,api-v2-temp-token
      alt-svc:
      - h3=":443"; ma=86400
      bypass-429-option:
      - no_bypass
      cf-cache-status:
      - DYNAMIC
      content-length:
      - '15968'
      strict-transport-security:
      - max-age=31536000; includeSubDomains
      x-ratelimit-limit:
      - '600'
      x-ratelimit-remaining:
      - '598'
      x-ratelimit-reset:
      - '41396'
      x-request-id:
      - 7d191feeba28d0377741cc5894ff8805
    status:
      code: 200
      message: OK
- request:
    body: '{"id": 0, "jsonrpc": "2.0", "method": "eth_getTransactionReceipt", "params":
      ["0x8d65dc5a77aaceabac3b80fd28f8fa3cd45143748c2d31598706580f68d724da"]}'
    headers:
      Accept:
      - '*/*'
      Accept-Encoding:
      - gzip, deflate
      Connection:
      - keep-alive
      Content-Length:
      - '148'
      Content-Type:
      - application/json
      User-Agent:
      - rotki/1.41.2.dev441+ga56b3c0f52.d20260113
    method: POST
    uri: https://explorer.optimism.io/api/eth-rpc
  response:
    body:
      string: '{"jsonrpc":"2.0","result": {"blockHash":"0xb477b895204b47135ef9ed7aefdf7f0e78e06d859361ce88afd810d66bb1608f","blockNumber":"0x67f02aa","contractAddress":null,"cumulativeGasUsed":"0x388cb8","effectiveGasPrice":"0x55","from":"0x78c13393aee675dd7ed07ce992210750d1f5db88","gasUsed":"0x79461","logs":[{"address":"0x4200000000000000000000000000000000000006","blockHash":"0xb477b895204b47135ef9ed7aefdf7f0e78e06d859361ce88afd810d66bb1608f","blockNumber":"0x67f02aa","data":"0x000000000000000000000000000000000000000000000000002386f26fc10000","logIndex":"0x4a","removed":false,"topics":["0xe1fffcc4923d04b559f4d29a8bfc6cda04eb5b0d3c460751c2402c5c5cc9109c","0x000000000000000000000000a062ae8a9c5e11aaa026fc2670b0d65ccc8b2858"],"transactionHash":"0x8d65dc5a77aaceabac3b80fd28f8fa3cd45143748c2d31598706580f68d724da","transactionIndex":"0xa"},{"address":"0x4200000000000000000000000000000000000006","blockHash":"0xb477b895204b47135ef9ed7aefdf7f0e78e06d859361ce88afd810d66bb1608f","blockNumber":"0x67f02aa","data":"0x000000000000000000000000000000000000000000000000002386f26fc10000","logIndex":"0x4b","removed":false,"topics":["0xddf252ad1be2c89b69c2b068fc378daa952ba7f163c4a11628f55a4df523b3ef","0x000000000000000000000000a062ae8a9c5e11aaa026fc2670b0d65ccc8b2858","0x0000000000000000000000003f42dc59dc4df5cd607163bc620168f7ff7ab970"],"transactionHash":"0x8d65dc5a77aaceabac3b80fd28f8fa3cd45143748c2d31598706580f68d724da","transactionIndex":"0xa"},{"address":"0x6806411765af15bddd26f8f544a34cc40cb9838b","blockHash":"0xb477b895204b47135ef9ed7aefdf7f0e78e06d859361ce88afd810d66bb1608f","blockNumber":"0x67f02aa","data":"0x0000000000000000000000000000000000000000000000000023a77186b0077d","logIndex":"0x4c","removed":false,"topics":["0xddf252ad1be2c89b69c2b068fc378daa952ba7f163c4a11628f55a4df523b3ef","0x0000000000000000000000003f42dc59dc4df5cd607163bc620168f7ff7ab970","0x0000000000000000000000002fe304b407c7fab2a3c10962f14db751468a4f5b"],"transactionHash":"0x8d65dc5a77aaceabac3b80fd28f8fa3cd45143748c2d31598706580f68d724da","transactionIndex":"0xa"},{"address":"0x4200000000000000000000000000000000000006","blockHash":"0xb477b895204b47135ef9ed7aefdf7f0e78e06d859361ce88afd810d66bb1608f","blockNumber":"0x67f02aa","data":"0x0000000000000000000000000000000000000000000000000000048c27395000","logIndex":"0x4d","removed":false,"topics":["0xddf252ad1be2c89b69c2b068fc378daa952ba7f163c4a11628f55a4df523b3ef","0x0000000000000000000000003f42dc59dc4df5cd607163bc620168f7ff7ab970","0x000000000000000000000000e7a63f20d0a55d21d8677e09a7fa63c32b237685"],"transactionHash":"0x8d65dc5a77aaceabac3b80fd28f8fa3cd45143748c2d31598706580f68d724da","transactionIndex":"0xa"},{"address":"0x3f42dc59dc4df5cd607163bc620168f7ff7ab970","blockHash":"0xb477b895204b47135ef9ed7aefdf7f0e78e06d859361ce88afd810d66bb1608f","blockNumber":"0x67f02aa","data":"0x0000000000000000000000000000000000000000000000000000048c273950000000000000000000000000000000000000000000000000000000000000000000","logIndex":"0x4e","removed":false,"topics":["0x112c256902bf554b6ed882d2936687aaeb4225e8cd5b51303c90ca6cf43a8602","0x000000000000000000000000a062ae8a9c5e11aaa026fc2670b0d65ccc8b2858"],"transactionHash":"0x8d65dc5a77aaceabac3b80fd28f8fa3cd45143748c2d31598706580f68d724da","transactionIndex":"0xa"},{"address":"0x3f42dc59dc4df5cd607163bc620168f7ff7ab970","blockHash":"0xb477b895204b47135ef9ed7aefdf7f0e78e06d859361ce88afd810d66bb1608f","blockNumber":"0x67f02aa","data":"0x00000000000000000000000000000000000000000000001eb8a2acf2024a8a44000000000000000000000000000000000000000000000027a249bc17585f9ae4","logIndex":"0x4f","removed":false,"topics":["0xcf2aa50876cdfbb541206f89af0ee78d44a2abf8d328e37fa4917f982149848a"],"transactionHash":"0x8d65dc5a77aaceabac3b80fd28f8fa3cd45143748c2d31598706580f68d724da","transactionIndex":"0xa"},{"address":"0x3f42dc59dc4df5cd607163bc620168f7ff7ab970","blockHash":"0xb477b895204b47135ef9ed7aefdf7f0e78e06d859361ce88afd810d66bb1608f","blockNumber":"0x67f02aa","data":"0x000000000000000000000000000000000000000000000000002386f26fc10000000000000000000000000000000000000000000000000000000000000000000000000000000000000000000000000000000000000000000000000000000000000000000000000000000000000000000000000000000000000023a77186b0077d","logIndex":"0x50","removed":false,"topics":["0xb3e2773606abfd36b5bd91394b3a54d1398336c65005baf7bf7a05efeffaf75b","0x000000000000000000000000a062ae8a9c5e11aaa026fc2670b0d65ccc8b2858","0x0000000000000000000000002fe304b407c7fab2a3c10962f14db751468a4f5b"],"transactionHash":"0x8d65dc5a77aaceabac3b80fd28f8fa3cd45143748c2d31598706580f68d724da","transactionIndex":"0xa"},{"address":"0x4200000000000000000000000000000000000042","blockHash":"0xb477b895204b47135ef9ed7aefdf7f0e78e06d859361ce88afd810d66bb1608f","blockNumber":"0x67f02aa","data":"0x000000000000000000000000000000000000000000000000a513bf8d88891b2b","logIndex":"0x51","removed":false,"topics":["0xddf252ad1be2c89b69c2b068fc378daa952ba7f163c4a11628f55a4df523b3ef","0x0000000000000000000000002fe304b407c7fab2a3c10962f14db751468a4f5b","0x00000000000000000000000078c13393aee675dd7ed07ce992210750d1f5db88"],"transactionHash":"0x8d65dc5a77aaceabac3b80fd28f8fa3cd45143748c2d31598706580f68d724da","transactionIndex":"0xa"},{"address":"0x6806411765af15bddd26f8f544a34cc40cb9838b","blockHash":"0xb477b895204b47135ef9ed7aefdf7f0e78e06d859361ce88afd810d66bb1608f","blockNumber":"0x67f02aa","data":"0x000000000000000000000000000000000000000000000000000016d190563337","logIndex":"0x52","removed":false,"topics":["0xddf252ad1be2c89b69c2b068fc378daa952ba7f163c4a11628f55a4df523b3ef","0x0000000000000000000000002fe304b407c7fab2a3c10962f14db751468a4f5b","0x0000000000000000000000004d1b2450f08061d9cc2b491e126dab2c7110cdfd"],"transactionHash":"0x8d65dc5a77aaceabac3b80fd28f8fa3cd45143748c2d31598706580f68d724da","transactionIndex":"0xa"},{"address":"0x2fe304b407c7fab2a3c10962f14db751468a4f5b","blockHash":"0xb477b895204b47135ef9ed7aefdf7f0e78e06d859361ce88afd810d66bb1608f","blockNumber":"0x67f02aa","data":"0x0000000000000000000000000000000000000000000000000000000000000000000000000000000000000000000000000000000000000000000016d190563337","logIndex":"0x53","removed":false,"topics":["0x112c256902bf554b6ed882d2936687aaeb4225e8cd5b51303c90ca6cf43a8602","0x000000000000000000000000a062ae8a9c5e11aaa026fc2670b0d65ccc8b2858"],"transactionHash":"0x8d65dc5a77aaceabac3b80fd28f8fa3cd45143748c2d31598706580f68d724da","transactionIndex":"0xa"},{"address":"0x2fe304b407c7fab2a3c10962f14db751468a4f5b","blockHash":"0xb477b895204b47135ef9ed7aefdf7f0e78e06d859361ce88afd810d66bb1608f","blockNumber":"0x67f02aa","data":"0x00000000000000000000000000000000000000000000083c62a26f63120dc624000000000000000000000000000000000000000000000001c660f051ffad75e0","logIndex":"0x54","removed":false,"topics":["0xcf2aa50876cdfbb541206f89af0ee78d44a2abf8d328e37fa4917f982149848a"],"transactionHash":"0x8d65dc5a77aaceabac3b80fd28f8fa3cd45143748c2d31598706580f68d724da","transactionIndex":"0xa"},{"address":"0x2fe304b407c7fab2a3c10962f14db751468a4f5b","blockHash":"0xb477b895204b47135ef9ed7aefdf7f0e78e06d859361ce88afd810d66bb1608f","blockNumber":"0x67f02aa","data":"0x00000000000000000000000000000000000000000000000000000000000000000000000000000000000000000000000000000000000000000023a77186b0077d000000000000000000000000000000000000000000000000a513bf8d88891b2b0000000000000000000000000000000000000000000000000000000000000000","logIndex":"0x55","removed":false,"topics":["0xb3e2773606abfd36b5bd91394b3a54d1398336c65005baf7bf7a05efeffaf75b","0x000000000000000000000000a062ae8a9c5e11aaa026fc2670b0d65ccc8b2858","0x00000000000000000000000078c13393aee675dd7ed07ce992210750d1f5db88"],"transactionHash":"0x8d65dc5a77aaceabac3b80fd28f8fa3cd45143748c2d31598706580f68d724da","transactionIndex":"0xa"}],"logsBloom":"0x00000000000000000000000000000000c00000000000000000040000000000000400800000000000000000110000000000000040000000000000000000000040000000000002000020000009002000000080000000000008000000008000000000000000000400000000001000000000100000000000000000000010000000400001010000000000000002000000000000001001022000000000400008000000400200000000000000000000400000000000000000000000008000000000000000002002000000000000000400010000008000000000020000000000000000000000010100000000000000000010010000000000008000400000000000000000","status":"0x1","to":"0xa062ae8a9c5e11aaa026fc2670b0d65ccc8b2858","transactionHash":"0x8d65dc5a77aaceabac3b80fd28f8fa3cd45143748c2d31598706580f68d724da","transactionIndex":"0xa","type":"0x2"},"id":
        0}

        '
    headers:
      CF-RAY:
      - 9bdf9f1f9d37c102-ATL
      Cache-Control:
      - max-age=0, private, must-revalidate
      Connection:
      - keep-alive
      Content-Type:
      - application/json; charset=utf-8
      Date:
      - Wed, 14 Jan 2026 19:43:19 GMT
      Nel:
      - '{"report_to":"cf-nel","success_fraction":0.0,"max_age":604800}'
      Report-To:
      - '{"group":"cf-nel","max_age":604800,"endpoints":[{"url":"https://a.nel.cloudflare.com/report/v4?s=pyLSykKO8NIKE3cUwBjkKu2UyjFWmvQ5BiVO%2F4GcS2ud3vv5KIUP9esdsVRnrrdLCbSpNu3KibafkktMvPUC%2BxLDn1XL2ZNFbahsmPEcXTlT%2FS7F"}]}'
      Server:
      - cloudflare
      Transfer-Encoding:
      - chunked
      access-control-allow-credentials:
      - 'true'
      access-control-allow-origin:
      - '*'
      access-control-expose-headers:
      - bypass-429-option,x-ratelimit-reset,x-ratelimit-limit,x-ratelimit-remaining,api-v2-temp-token
      alt-svc:
      - h3=":443"; ma=86400
      bypass-429-option:
      - no_bypass
      cf-cache-status:
      - DYNAMIC
      content-length:
      - '8431'
      strict-transport-security:
      - max-age=31536000; includeSubDomains
      x-ratelimit-limit:
      - '600'
      x-ratelimit-remaining:
      - '597'
      x-ratelimit-reset:
      - '40971'
      x-request-id:
      - 782aee67c2b362cf67e5c4373c9675ec
    status:
      code: 200
      message: OK
- request:
    body: null
    headers:
      Accept:
      - '*/*'
      Accept-Encoding:
      - gzip, deflate
      Connection:
      - keep-alive
      User-Agent:
      - rotki/1.41.2.dev441+ga56b3c0f52.d20260113
    method: GET
    uri: https://explorer.optimism.io/api/v2/transactions/0x8d65dc5a77aaceabac3b80fd28f8fa3cd45143748c2d31598706580f68d724da
  response:
    body:
      string: '{"l1_gas_used":"5128","priority_fee":"4967370","raw_input":"0x903638a4000000000000000000000000000000000000000000000000a36d2698eb029d74000000000000000000000000000000000000000000000000000000000000008000000000000000000000000078c13393aee675dd7ed07ce992210750d1f5db880000000000000000000000000000000000000000000000000000000064f1e60b000000000000000000000000000000000000000000000000000000000000000200000000000000000000000042000000000000000000000000000000000000060000000000000000000000006806411765af15bddd26f8f544a34cc40cb9838b0000000000000000000000000000000000000000000000000000000000000001000000000000000000000000f1046053aa5682b4f9a81b5481394da16be5ff5a0000000000000000000000006806411765af15bddd26f8f544a34cc40cb9838b00000000000000000000000042000000000000000000000000000000000000420000000000000000000000000000000000000000000000000000000000000000000000000000000000000000f1046053aa5682b4f9a81b5481394da16be5ff5a","is_pending_update":false,"op_withdrawals":[],"result":"success","hash":"0x8d65dc5a77aaceabac3b80fd28f8fa3cd45143748c2d31598706580f68d724da","max_fee_per_gas":"226","revert_reason":null,"confirmation_duration":[0,2.0e3],"transaction_burnt_fee":"37255275","type":2,"token_transfers_overflow":false,"confirmations":37423462,"position":10,"max_priority_fee_per_gas":"10","transaction_tag":null,"created_contract":null,"value":"10000000000000000","l1_fee_scalar":"0.684","from":{"ens_domain_name":null,"hash":"0x78C13393Aee675DD7ED07ce992210750D1F5dB88","implementations":[],"is_contract":false,"is_scam":false,"is_verified":false,"metadata":null,"name":null,"private_tags":[],"proxy_type":null,"public_tags":[],"reputation":"ok","watchlist_names":[]},"gas_used":"496737","status":"ok","to":{"ens_domain_name":null,"hash":"0xa062aE8A9c5e11aaA026fc2670B0D65cCc8B2858","implementations":[],"is_contract":true,"is_scam":false,"is_verified":true,"metadata":{"tags":[{"meta":{"main_entity":"Velodrome","tooltipUrl":"https://www.velodrome.finance/"},"name":"Velodrome
        Finance: Router V2","ordinal":10,"slug":"velodrome-finance-router-v2","tagType":"name"},{"meta":{"projectName":"Velodrome
        Finance","tagUrl":"https://app.klerosscout.eth.limo/#/?registry=Single_Tags&itemdetails=0x365e72c948353a41f932658d7c3dbd28ae9b8d6cdf44eb9a5d957388ef65a5d3@0x66260c69d03837016d88c9877e61e08ef74c59f2","tooltipDescription":"Velodrome
        Finance''s official Router V2 contract on Optimism","tooltipUrl":"https://www.velodrome.finance/","verifiedDomains":["velodrome.finance","velo.drome.eth.limo","www.velodrome.finance","velo.drome.eth.link"]},"name":"Router
        V2","ordinal":10,"slug":"router-v2-10","tagType":"name"},{"meta":{"appActionButtonText":"Velodrome","appID":"velodrome"},"name":"Velodrome
        Finance","ordinal":0,"slug":"velodrome-finance","tagType":"protocol"}]},"name":"Router","private_tags":[],"proxy_type":null,"public_tags":[],"reputation":"ok","watchlist_names":[]},"authorization_list":[],"l1_fee":"44146322654179","method":"swapExactETHForTokens","fee":{"type":"actual","value":"44146364876824"},"actions":[],"gas_limit":"529631","gas_price":"85","decoded_input":{"method_call":"swapExactETHForTokens(uint256
        amountOutMin, (address,address,bool,address)[] routes, address to, uint256
        deadline)","method_id":"903638a4","parameters":[{"name":"amountOutMin","type":"uint256","value":"11776111038863416692"},{"name":"routes","type":"(address,address,bool,address)[]","value":[["0x4200000000000000000000000000000000000006","0x6806411765Af15Bddd26f8f544A34cC40cb9838B","true","0xF1046053aa5682b4F9a81b5481394DA16BE5FF5a"],["0x6806411765Af15Bddd26f8f544A34cC40cb9838B","0x4200000000000000000000000000000000000042","false","0xF1046053aa5682b4F9a81b5481394DA16BE5FF5a"]]},{"name":"to","type":"address","value":"0x78C13393Aee675DD7ED07ce992210750D1F5dB88"},{"name":"deadline","type":"uint256","value":"1693574667"}]},"l1_gas_price":"12586077884","token_transfers":[{"block_hash":"0xb477b895204b47135ef9ed7aefdf7f0e78e06d859361ce88afd810d66bb1608f","block_number":108987050,"from":{"ens_domain_name":null,"hash":"0x0000000000000000000000000000000000000000","implementations":[],"is_contract":false,"is_scam":false,"is_verified":false,"metadata":{"tags":[{"meta":{},"name":"Null:
        0x000...000","ordinal":10,"slug":"null-0x000000","tagType":"name"},{"meta":{},"name":"Metamask
        User","ordinal":0,"slug":"metamask-user","tagType":"generic"},{"meta":{},"name":"Imtoken
        User","ordinal":0,"slug":"imtoken-user","tagType":"generic"},{"meta":{},"name":"Miner","ordinal":0,"slug":"miner","tagType":"generic"},{"meta":{},"name":"Burn","ordinal":0,"slug":"burn","tagType":"generic"},{"meta":{"alertStatus":"info","data":"This
        address is commonly used by projects to burn tokens (reducing total supply)
        or mint tokens (increasing total supply)."},"name":"note_0","ordinal":0,"slug":"note0","tagType":"note"},{"meta":{},"name":"Null","ordinal":0,"slug":"null","tagType":"protocol"}]},"name":null,"private_tags":[],"proxy_type":null,"public_tags":[],"reputation":"ok","watchlist_names":[]},"log_index":74,"method":null,"timestamp":null,"to":{"ens_domain_name":null,"hash":"0xa062aE8A9c5e11aaA026fc2670B0D65cCc8B2858","implementations":[],"is_contract":true,"is_scam":false,"is_verified":true,"metadata":{"tags":[{"meta":{"main_entity":"Velodrome","tooltipUrl":"https://www.velodrome.finance/"},"name":"Velodrome
        Finance: Router V2","ordinal":10,"slug":"velodrome-finance-router-v2","tagType":"name"},{"meta":{"projectName":"Velodrome
        Finance","tagUrl":"https://app.klerosscout.eth.limo/#/?registry=Single_Tags&itemdetails=0x365e72c948353a41f932658d7c3dbd28ae9b8d6cdf44eb9a5d957388ef65a5d3@0x66260c69d03837016d88c9877e61e08ef74c59f2","tooltipDescription":"Velodrome
        Finance''s official Router V2 contract on Optimism","tooltipUrl":"https://www.velodrome.finance/","verifiedDomains":["velodrome.finance","velo.drome.eth.limo","www.velodrome.finance","velo.drome.eth.link"]},"name":"Router
        V2","ordinal":10,"slug":"router-v2-10","tagType":"name"},{"meta":{"appActionButtonText":"Velodrome","appID":"velodrome"},"name":"Velodrome
        Finance","ordinal":0,"slug":"velodrome-finance","tagType":"protocol"}]},"name":"Router","private_tags":[],"proxy_type":null,"public_tags":[],"reputation":"ok","watchlist_names":[]},"token":{"address_hash":"0x4200000000000000000000000000000000000006","circulating_market_cap":"77101808.04835153","decimals":"18","exchange_rate":"3353.89","holders_count":"301186","icon_url":"https://assets.coingecko.com/coins/images/39715/small/WETH.PNG?1723731805","name":"L2
        Standard Bridged WETH (Optimism)","reputation":"ok","symbol":"WETH","total_supply":"22985792750660937514418","type":"ERC-20","volume_24h":"21331816.289958112"},"token_type":"ERC-20","total":{"decimals":"18","value":"10000000000000000"},"transaction_hash":"0x8d65dc5a77aaceabac3b80fd28f8fa3cd45143748c2d31598706580f68d724da","type":"token_minting"},{"block_hash":"0xb477b895204b47135ef9ed7aefdf7f0e78e06d859361ce88afd810d66bb1608f","block_number":108987050,"from":{"ens_domain_name":null,"hash":"0xa062aE8A9c5e11aaA026fc2670B0D65cCc8B2858","implementations":[],"is_contract":true,"is_scam":false,"is_verified":true,"metadata":{"tags":[{"meta":{"main_entity":"Velodrome","tooltipUrl":"https://www.velodrome.finance/"},"name":"Velodrome
        Finance: Router V2","ordinal":10,"slug":"velodrome-finance-router-v2","tagType":"name"},{"meta":{"projectName":"Velodrome
        Finance","tagUrl":"https://app.klerosscout.eth.limo/#/?registry=Single_Tags&itemdetails=0x365e72c948353a41f932658d7c3dbd28ae9b8d6cdf44eb9a5d957388ef65a5d3@0x66260c69d03837016d88c9877e61e08ef74c59f2","tooltipDescription":"Velodrome
        Finance''s official Router V2 contract on Optimism","tooltipUrl":"https://www.velodrome.finance/","verifiedDomains":["velodrome.finance","velo.drome.eth.limo","www.velodrome.finance","velo.drome.eth.link"]},"name":"Router
        V2","ordinal":10,"slug":"router-v2-10","tagType":"name"},{"meta":{"appActionButtonText":"Velodrome","appID":"velodrome"},"name":"Velodrome
        Finance","ordinal":0,"slug":"velodrome-finance","tagType":"protocol"}]},"name":"Router","private_tags":[],"proxy_type":null,"public_tags":[],"reputation":"ok","watchlist_names":[]},"log_index":75,"method":null,"timestamp":null,"to":{"ens_domain_name":null,"hash":"0x3f42Dc59DC4dF5cD607163bC620168f7FF7aB970","implementations":[{"address_hash":"0x95885Af5492195F0754bE71AD1545Fe81364E531","name":"Pool"}],"is_contract":true,"is_scam":false,"is_verified":true,"metadata":{"tags":[{"meta":{"projectName":"Velodrome","tagUrl":"https://app.klerosscout.eth.limo/#/?registry=Single_Tags&itemdetails=0xb86b6a4e5332af0778febf9591625163d4b6ee946c6fa84f004fd151f51ea387@0x66260c69d03837016d88c9877e61e08ef74c59f2","tooltipDescription":"The
        liquidity pool contract on Velodrome v2 for the WETH / frxETH pool.","tooltipUrl":"https://velodrome.finance"},"name":"sAMMV2-WETH/frxETH
        Pool","ordinal":10,"slug":"sammv2wethfrxeth-pool-10","tagType":"name"},{"meta":{"bgColor":"linear-gradient(to
        right,rgba(96, 165, 250, 0.2),rgba(168, 85, 247, 0.2),rgba(236, 72, 153, 0.2));","tooltipDescription":"Provided
        by OLI"},"name":"Velodrome v2","ordinal":0,"slug":"velodrome-v2","tagType":"name"},{"meta":{"alertStatus":"info","data":"This
        nametag was submitted by Kleros Scout."},"name":"note_0","ordinal":0,"slug":"note0","tagType":"note"},{"meta":{},"name":"Velodrome","ordinal":0,"slug":"velodrome","tagType":"protocol"}]},"name":"StableV2
        AMM - WETH/frxETH","private_tags":[],"proxy_type":"eip1167","public_tags":[],"reputation":"ok","watchlist_names":[]},"token":{"address_hash":"0x4200000000000000000000000000000000000006","circulating_market_cap":"77101808.04835153","decimals":"18","exchange_rate":"3353.89","holders_count":"301186","icon_url":"https://assets.coingecko.com/coins/images/39715/small/WETH.PNG?1723731805","name":"L2
        Standard Bridged WETH (Optimism)","reputation":"ok","symbol":"WETH","total_supply":"22985792750660937514418","type":"ERC-20","volume_24h":"21331816.289958112"},"token_type":"ERC-20","total":{"decimals":"18","value":"10000000000000000"},"transaction_hash":"0x8d65dc5a77aaceabac3b80fd28f8fa3cd45143748c2d31598706580f68d724da","type":"token_transfer"},{"block_hash":"0xb477b895204b47135ef9ed7aefdf7f0e78e06d859361ce88afd810d66bb1608f","block_number":108987050,"from":{"ens_domain_name":null,"hash":"0x3f42Dc59DC4dF5cD607163bC620168f7FF7aB970","implementations":[{"address_hash":"0x95885Af5492195F0754bE71AD1545Fe81364E531","name":"Pool"}],"is_contract":true,"is_scam":false,"is_verified":true,"metadata":{"tags":[{"meta":{"projectName":"Velodrome","tagUrl":"https://app.klerosscout.eth.limo/#/?registry=Single_Tags&itemdetails=0xb86b6a4e5332af0778febf9591625163d4b6ee946c6fa84f004fd151f51ea387@0x66260c69d03837016d88c9877e61e08ef74c59f2","tooltipDescription":"The
        liquidity pool contract on Velodrome v2 for the WETH / frxETH pool.","tooltipUrl":"https://velodrome.finance"},"name":"sAMMV2-WETH/frxETH
        Pool","ordinal":10,"slug":"sammv2wethfrxeth-pool-10","tagType":"name"},{"meta":{"bgColor":"linear-gradient(to
        right,rgba(96, 165, 250, 0.2),rgba(168, 85, 247, 0.2),rgba(236, 72, 153, 0.2));","tooltipDescription":"Provided
        by OLI"},"name":"Velodrome v2","ordinal":0,"slug":"velodrome-v2","tagType":"name"},{"meta":{"alertStatus":"info","data":"This
        nametag was submitted by Kleros Scout."},"name":"note_0","ordinal":0,"slug":"note0","tagType":"note"},{"meta":{},"name":"Velodrome","ordinal":0,"slug":"velodrome","tagType":"protocol"}]},"name":"StableV2
        AMM - WETH/frxETH","private_tags":[],"proxy_type":"eip1167","public_tags":[],"reputation":"ok","watchlist_names":[]},"log_index":76,"method":null,"timestamp":null,"to":{"ens_domain_name":null,"hash":"0x2fE304b407c7fAb2a3c10962F14dB751468a4f5b","implementations":[{"address_hash":"0x95885Af5492195F0754bE71AD1545Fe81364E531","name":"Pool"}],"is_contract":true,"is_scam":false,"is_verified":true,"metadata":{"tags":[{"meta":{"bgColor":"linear-gradient(to
        right,rgba(96, 165, 250, 0.2),rgba(168, 85, 247, 0.2),rgba(236, 72, 153, 0.2));","tooltipDescription":"Provided
        by OLI"},"name":"Velodrome v2","ordinal":0,"slug":"velodrome-v2","tagType":"name"}]},"name":"VolatileV2
        AMM - OP/frxETH","private_tags":[],"proxy_type":"eip1167","public_tags":[],"reputation":"ok","watchlist_names":[]},"token":{"address_hash":"0x6806411765Af15Bddd26f8f544A34cC40cb9838B","circulating_market_cap":"282492420.92497337","decimals":"18","exchange_rate":"3360.4","holders_count":"1422","icon_url":"https://assets.coingecko.com/coins/images/28284/small/frxETH_icon.png?1696527284","name":"Frax
        Ether","reputation":"ok","symbol":"FRXETH","total_supply":"5052000000000000000000","type":"ERC-20","volume_24h":"942042.0596948798"},"token_type":"ERC-20","total":{"decimals":"18","value":"10035730217699197"},"transaction_hash":"0x8d65dc5a77aaceabac3b80fd28f8fa3cd45143748c2d31598706580f68d724da","type":"token_transfer"},{"block_hash":"0xb477b895204b47135ef9ed7aefdf7f0e78e06d859361ce88afd810d66bb1608f","block_number":108987050,"from":{"ens_domain_name":null,"hash":"0x3f42Dc59DC4dF5cD607163bC620168f7FF7aB970","implementations":[{"address_hash":"0x95885Af5492195F0754bE71AD1545Fe81364E531","name":"Pool"}],"is_contract":true,"is_scam":false,"is_verified":true,"metadata":{"tags":[{"meta":{"projectName":"Velodrome","tagUrl":"https://app.klerosscout.eth.limo/#/?registry=Single_Tags&itemdetails=0xb86b6a4e5332af0778febf9591625163d4b6ee946c6fa84f004fd151f51ea387@0x66260c69d03837016d88c9877e61e08ef74c59f2","tooltipDescription":"The
        liquidity pool contract on Velodrome v2 for the WETH / frxETH pool.","tooltipUrl":"https://velodrome.finance"},"name":"sAMMV2-WETH/frxETH
        Pool","ordinal":10,"slug":"sammv2wethfrxeth-pool-10","tagType":"name"},{"meta":{"bgColor":"linear-gradient(to
        right,rgba(96, 165, 250, 0.2),rgba(168, 85, 247, 0.2),rgba(236, 72, 153, 0.2));","tooltipDescription":"Provided
        by OLI"},"name":"Velodrome v2","ordinal":0,"slug":"velodrome-v2","tagType":"name"},{"meta":{"alertStatus":"info","data":"This
        nametag was submitted by Kleros Scout."},"name":"note_0","ordinal":0,"slug":"note0","tagType":"note"},{"meta":{},"name":"Velodrome","ordinal":0,"slug":"velodrome","tagType":"protocol"}]},"name":"StableV2
        AMM - WETH/frxETH","private_tags":[],"proxy_type":"eip1167","public_tags":[],"reputation":"ok","watchlist_names":[]},"log_index":77,"method":null,"timestamp":null,"to":{"ens_domain_name":null,"hash":"0xe7A63F20D0A55d21d8677E09a7Fa63C32B237685","implementations":[],"is_contract":true,"is_scam":false,"is_verified":false,"metadata":{"tags":[{"meta":{"bgColor":"linear-gradient(to
        right,rgba(96, 165, 250, 0.2),rgba(168, 85, 247, 0.2),rgba(236, 72, 153, 0.2));","tooltipDescription":"Provided
        by OLI"},"name":"PoolFees","ordinal":0,"slug":"poolfees","tagType":"name"}]},"name":null,"private_tags":[],"proxy_type":null,"public_tags":[],"reputation":"ok","watchlist_names":[]},"token":{"address_hash":"0x4200000000000000000000000000000000000006","circulating_market_cap":"77101808.04835153","decimals":"18","exchange_rate":"3353.89","holders_count":"301186","icon_url":"https://assets.coingecko.com/coins/images/39715/small/WETH.PNG?1723731805","name":"L2
        Standard Bridged WETH (Optimism)","reputation":"ok","symbol":"WETH","total_supply":"22985792750660937514418","type":"ERC-20","volume_24h":"21331816.289958112"},"token_type":"ERC-20","total":{"decimals":"18","value":"5000000000000"},"transaction_hash":"0x8d65dc5a77aaceabac3b80fd28f8fa3cd45143748c2d31598706580f68d724da","type":"token_transfer"},{"block_hash":"0xb477b895204b47135ef9ed7aefdf7f0e78e06d859361ce88afd810d66bb1608f","block_number":108987050,"from":{"ens_domain_name":null,"hash":"0x2fE304b407c7fAb2a3c10962F14dB751468a4f5b","implementations":[{"address_hash":"0x95885Af5492195F0754bE71AD1545Fe81364E531","name":"Pool"}],"is_contract":true,"is_scam":false,"is_verified":true,"metadata":{"tags":[{"meta":{"bgColor":"linear-gradient(to
        right,rgba(96, 165, 250, 0.2),rgba(168, 85, 247, 0.2),rgba(236, 72, 153, 0.2));","tooltipDescription":"Provided
        by OLI"},"name":"Velodrome v2","ordinal":0,"slug":"velodrome-v2","tagType":"name"}]},"name":"VolatileV2
        AMM - OP/frxETH","private_tags":[],"proxy_type":"eip1167","public_tags":[],"reputation":"ok","watchlist_names":[]},"log_index":81,"method":null,"timestamp":null,"to":{"ens_domain_name":null,"hash":"0x78C13393Aee675DD7ED07ce992210750D1F5dB88","implementations":[],"is_contract":false,"is_scam":false,"is_verified":false,"metadata":null,"name":null,"private_tags":[],"proxy_type":null,"public_tags":[],"reputation":"ok","watchlist_names":[]},"token":{"address_hash":"0x4200000000000000000000000000000000000042","circulating_market_cap":"691005205.0304432","decimals":"18","exchange_rate":"0.355095","holders_count":"1383198","icon_url":"https://assets.coingecko.com/coins/images/25244/small/Optimism.png?1696524385","name":"Optimism","reputation":"ok","symbol":"OP","total_supply":"4294963292498750113616177748","type":"ERC-20","volume_24h":"145489237.0802175"},"token_type":"ERC-20","total":{"decimals":"18","value":"11895061655417592619"},"transaction_hash":"0x8d65dc5a77aaceabac3b80fd28f8fa3cd45143748c2d31598706580f68d724da","type":"token_transfer"},{"block_hash":"0xb477b895204b47135ef9ed7aefdf7f0e78e06d859361ce88afd810d66bb1608f","block_number":108987050,"from":{"ens_domain_name":null,"hash":"0x2fE304b407c7fAb2a3c10962F14dB751468a4f5b","implementations":[{"address_hash":"0x95885Af5492195F0754bE71AD1545Fe81364E531","name":"Pool"}],"is_contract":true,"is_scam":false,"is_verified":true,"metadata":{"tags":[{"meta":{"bgColor":"linear-gradient(to
        right,rgba(96, 165, 250, 0.2),rgba(168, 85, 247, 0.2),rgba(236, 72, 153, 0.2));","tooltipDescription":"Provided
        by OLI"},"name":"Velodrome v2","ordinal":0,"slug":"velodrome-v2","tagType":"name"}]},"name":"VolatileV2
        AMM - OP/frxETH","private_tags":[],"proxy_type":"eip1167","public_tags":[],"reputation":"ok","watchlist_names":[]},"log_index":82,"method":null,"timestamp":null,"to":{"ens_domain_name":null,"hash":"0x4D1B2450F08061d9cC2b491e126DAB2c7110cDfd","implementations":[],"is_contract":true,"is_scam":false,"is_verified":false,"metadata":null,"name":null,"private_tags":[],"proxy_type":null,"public_tags":[],"reputation":"ok","watchlist_names":[]},"token":{"address_hash":"0x6806411765Af15Bddd26f8f544A34cC40cb9838B","circulating_market_cap":"282492420.92497337","decimals":"18","exchange_rate":"3360.4","holders_count":"1422","icon_url":"https://assets.coingecko.com/coins/images/28284/small/frxETH_icon.png?1696527284","name":"Frax
        Ether","reputation":"ok","symbol":"FRXETH","total_supply":"5052000000000000000000","type":"ERC-20","volume_24h":"942042.0596948798"},"token_type":"ERC-20","total":{"decimals":"18","value":"25089325544247"},"transaction_hash":"0x8d65dc5a77aaceabac3b80fd28f8fa3cd45143748c2d31598706580f68d724da","type":"token_transfer"}],"base_fee_per_gas":"75","timestamp":"2023-09-01T12:54:37.000000Z","nonce":3,"historic_exchange_rate":"1651.47","transaction_types":["coin_transfer","contract_call","token_transfer"],"exchange_rate":"3370.57","block_number":108987050,"has_error_in_internal_transactions":false}'
    headers:
      CF-RAY:
      - 9bdf9f212f9bbf96-ATL
      Cache-Control:
      - max-age=0, private, must-revalidate
      Connection:
      - keep-alive
      Content-Type:
      - application/json; charset=utf-8
      Date:
      - Wed, 14 Jan 2026 19:43:20 GMT
      Nel:
      - '{"report_to":"cf-nel","success_fraction":0.0,"max_age":604800}'
      Report-To:
      - '{"group":"cf-nel","max_age":604800,"endpoints":[{"url":"https://a.nel.cloudflare.com/report/v4?s=NGXjsNDi1DPLUMLT%2FGNiL6wBxgM5ExNiPHSv09sNfcSGb8nsP8EjEziLYFa8QeaqR2ZpUgZBumfuKbGI%2Be8mP9gFPcZqjXBOLUyqd9d2X%2FEViFlW"}]}'
      Server:
      - cloudflare
      Transfer-Encoding:
      - chunked
      access-control-allow-credentials:
      - 'true'
      access-control-allow-origin:
      - '*'
      access-control-expose-headers:
      - bypass-429-option,x-ratelimit-reset,x-ratelimit-limit,x-ratelimit-remaining,api-v2-temp-token
      alt-svc:
      - h3=":443"; ma=86400
      bypass-429-option:
      - temporary_token
      cf-cache-status:
      - DYNAMIC
      content-length:
      - '18959'
      strict-transport-security:
      - max-age=31536000; includeSubDomains
      x-ratelimit-limit:
      - '600'
      x-ratelimit-remaining:
      - '596'
      x-ratelimit-reset:
      - '40458'
      x-request-id:
      - 88c56d94ade874a12954d7d822fd69d6
    status:
      code: 200
      message: OK
- request:
    body: null
    headers:
      Accept:
      - '*/*'
      Accept-Encoding:
      - gzip, deflate
      Connection:
      - keep-alive
      User-Agent:
      - rotki/1.41.2.dev441+ga56b3c0f52.d20260113
    method: GET
    uri: https://explorer.optimism.io/api?action=txlistinternal&module=account&sort=asc&txhash=0x8d65dc5a77aaceabac3b80fd28f8fa3cd45143748c2d31598706580f68d724da
  response:
    body:
      string: '{"message":"OK","result":[{"blockNumber":"108987050","callType":"call","contractAddress":"","errCode":"","from":"0xa062ae8a9c5e11aaa026fc2670b0d65ccc8b2858","gas":"402011","gasUsed":"23802","index":"17","input":"0xd0e30db0","isError":"0","timeStamp":"1693572877","to":"0x4200000000000000000000000000000000000006","transactionHash":"0x8d65dc5a77aaceabac3b80fd28f8fa3cd45143748c2d31598706580f68d724da","type":"call","value":"10000000000000000"}],"status":"1"}'
    headers:
      CF-RAY:
      - 9bdf9f283e2c7b9c-ATL
      Cache-Control:
      - max-age=0, private, must-revalidate
      Connection:
      - keep-alive
      Content-Type:
      - application/json; charset=utf-8
      Date:
      - Wed, 14 Jan 2026 19:43:21 GMT
      Nel:
      - '{"report_to":"cf-nel","success_fraction":0.0,"max_age":604800}'
      Report-To:
      - '{"group":"cf-nel","max_age":604800,"endpoints":[{"url":"https://a.nel.cloudflare.com/report/v4?s=S5R0uXcdezaG3N1OuFF5S6mglD3x17Xu%2B4z2ijgdSS6jiJZ5wd7ZbaNqESA3L%2F%2BKmtVLDv7XNw2zxAGidyIjQEzo8C0sMISqq59rNE2ST4oRHUpS"}]}'
      Server:
      - cloudflare
      Transfer-Encoding:
      - chunked
      access-control-allow-credentials:
      - 'true'
      access-control-allow-origin:
      - '*'
      access-control-expose-headers:
      - bypass-429-option,x-ratelimit-reset,x-ratelimit-limit,x-ratelimit-remaining,api-v2-temp-token
      alt-svc:
      - h3=":443"; ma=86400
      bypass-429-option:
      - no_bypass
      cf-cache-status:
      - DYNAMIC
      content-length:
      - '457'
      strict-transport-security:
      - max-age=31536000; includeSubDomains
      x-ratelimit-limit:
      - '600'
      x-ratelimit-remaining:
      - '595'
      x-ratelimit-reset:
      - '39320'
      x-request-id:
      - 9247b8d8986e02a00a709dd58c7c6e0f
    status:
      code: 200
      message: OK
- request:
    body: '{"id": 0, "jsonrpc": "2.0", "method": "eth_call", "params": [{"to": "0xf96764f4d357A9A16AB8050D0E3abcAa67e50eF9",
      "data": "0x100f2c000000000000000000000000003f42dc59dc4df5cd607163bc620168f7ff7ab970"},
      "latest"]}'
    headers:
      Accept:
      - '*/*'
      Accept-Encoding:
      - gzip, deflate
      Connection:
      - keep-alive
      Content-Length:
      - '211'
      Content-Type:
      - application/json
      User-Agent:
      - rotki/1.41.2.dev441+ga56b3c0f52.d20260113
    method: POST
    uri: https://explorer.optimism.io/api/eth-rpc
  response:
    body:
      string: '{"jsonrpc":"2.0","result": "0x000000000000000000000000000000000000000000000000000000000000002000000000000000000000000000000000000000000000000000000000000000a0000000000000000000000000000000000000000000000000000000000000001200000000000000000000000042000000000000000000000000000000000000060000000000000000000000006806411765af15bddd26f8f544a34cc40cb9838b0000000000000000000000000000000000000000000000000000000000000000000000000000000000000000000000000000000000000000000000000000001273414d4d56322d574554482f6672784554480000000000000000000000000000","id":
        0}

        '
    headers:
      CF-RAY:
      - 9bdf9f2d69708045-ATL
      Cache-Control:
      - max-age=0, private, must-revalidate
      Connection:
      - keep-alive
      Content-Type:
      - application/json; charset=utf-8
      Date:
      - Wed, 14 Jan 2026 19:43:21 GMT
      Nel:
      - '{"report_to":"cf-nel","success_fraction":0.0,"max_age":604800}'
      Report-To:
      - '{"group":"cf-nel","max_age":604800,"endpoints":[{"url":"https://a.nel.cloudflare.com/report/v4?s=blwhYmzdPznypJt5IHeb75Jpo50NBhnnDZ4BPNUdm6wb2zt0d0hOZXqhjt6ePd66KztR5tx5oUp%2BRf7%2F09Sq4fDQJeO2zY7x%2Fx3%2F3dNGl6ETjNg8"}]}'
      Server:
      - cloudflare
      Transfer-Encoding:
      - chunked
      access-control-allow-credentials:
      - 'true'
      access-control-allow-origin:
      - '*'
      access-control-expose-headers:
      - bypass-429-option,x-ratelimit-reset,x-ratelimit-limit,x-ratelimit-remaining,api-v2-temp-token
      alt-svc:
      - h3=":443"; ma=86400
      bypass-429-option:
      - no_bypass
      cf-cache-status:
      - DYNAMIC
      content-length:
      - '553'
      strict-transport-security:
      - max-age=31536000; includeSubDomains
      x-ratelimit-limit:
      - '600'
      x-ratelimit-remaining:
      - '594'
      x-ratelimit-reset:
      - '38760'
      x-request-id:
      - 7ae10ddd2f4c36bb36aa7ecb27a65b2d
    status:
      code: 200
      message: OK
- request:
    body: '{"id": 0, "jsonrpc": "2.0", "method": "eth_call", "params": [{"to": "0x2DC0E2aa608532Da689e89e237dF582B783E552C",
      "data": "0xbce38bd7000000000000000000000000000000000000000000000000000000000000000000000000000000000000000000000000000000000000000000000000000000400000000000000000000000000000000000000000000000000000000000000003000000000000000000000000000000000000000000000000000000000000006000000000000000000000000000000000000000000000000000000000000000e000000000000000000000000000000000000000000000000000000000000001600000000000000000000000003f42dc59dc4df5cd607163bc620168f7ff7ab97000000000000000000000000000000000000000000000000000000000000000400000000000000000000000000000000000000000000000000000000000000004313ce567000000000000000000000000000000000000000000000000000000000000000000000000000000003f42dc59dc4df5cd607163bc620168f7ff7ab9700000000000000000000000000000000000000000000000000000000000000040000000000000000000000000000000000000000000000000000000000000000495d89b41000000000000000000000000000000000000000000000000000000000000000000000000000000003f42dc59dc4df5cd607163bc620168f7ff7ab9700000000000000000000000000000000000000000000000000000000000000040000000000000000000000000000000000000000000000000000000000000000406fdde0300000000000000000000000000000000000000000000000000000000"},
      "latest"]}'
    headers:
      Accept:
      - '*/*'
      Accept-Encoding:
      - gzip, deflate
      Connection:
      - keep-alive
      Content-Length:
      - '1299'
      Content-Type:
      - application/json
      User-Agent:
      - rotki/1.41.2.dev441+ga56b3c0f52.d20260113
    method: POST
    uri: https://explorer.optimism.io/api/eth-rpc
  response:
    body:
      string: '{"jsonrpc":"2.0","result": "0x00000000000000000000000000000000000000000000000000000000000000200000000000000000000000000000000000000000000000000000000000000003000000000000000000000000000000000000000000000000000000000000006000000000000000000000000000000000000000000000000000000000000000e000000000000000000000000000000000000000000000000000000000000001a000000000000000000000000000000000000000000000000000000000000000010000000000000000000000000000000000000000000000000000000000000040000000000000000000000000000000000000000000000000000000000000002000000000000000000000000000000000000000000000000000000000000000120000000000000000000000000000000000000000000000000000000000000001000000000000000000000000000000000000000000000000000000000000004000000000000000000000000000000000000000000000000000000000000000600000000000000000000000000000000000000000000000000000000000000020000000000000000000000000000000000000000000000000000000000000001273414d4d56322d574554482f66727845544800000000000000000000000000000000000000000000000000000000000000000000000000000000000000000001000000000000000000000000000000000000000000000000000000000000004000000000000000000000000000000000000000000000000000000000000000600000000000000000000000000000000000000000000000000000000000000020000000000000000000000000000000000000000000000000000000000000001a537461626c65563220414d4d202d20574554482f667278455448000000000000","id":
        0}

        '
    headers:
      CF-RAY:
      - 9bdf9f2f396d48cf-ATL
      Cache-Control:
      - max-age=0, private, must-revalidate
      Connection:
      - keep-alive
      Content-Type:
      - application/json; charset=utf-8
      Date:
      - Wed, 14 Jan 2026 19:43:21 GMT
      Nel:
      - '{"report_to":"cf-nel","success_fraction":0.0,"max_age":604800}'
      Report-To:
      - '{"group":"cf-nel","max_age":604800,"endpoints":[{"url":"https://a.nel.cloudflare.com/report/v4?s=Y2rvJgbHTk7ysa6AWeO4XjGMDMe4LM46aUz8OIz8Dv7O8I2uXFzhhWqHRJ99Wt2M%2BA0eAT7R1sPt3aGfYweLYEClzNx0R04kjVKZ8%2FGY7h1STtot"}]}'
      Server:
      - cloudflare
      Transfer-Encoding:
      - chunked
      access-control-allow-credentials:
      - 'true'
      access-control-allow-origin:
      - '*'
      access-control-expose-headers:
      - bypass-429-option,x-ratelimit-reset,x-ratelimit-limit,x-ratelimit-remaining,api-v2-temp-token
      alt-svc:
      - h3=":443"; ma=86400
      bypass-429-option:
      - no_bypass
      cf-cache-status:
      - DYNAMIC
      content-length:
      - '1385'
      strict-transport-security:
      - max-age=31536000; includeSubDomains
      x-ratelimit-limit:
      - '600'
      x-ratelimit-remaining:
      - '592'
      x-ratelimit-reset:
      - '38477'
      x-request-id:
      - 381eee2807ca8261808b292927dae53d
    status:
      code: 200
      message: OK
- request:
    body: '{"id": 0, "jsonrpc": "2.0", "method": "eth_call", "params": [{"to": "0xf96764f4d357A9A16AB8050D0E3abcAa67e50eF9",
      "data": "0x100f2c000000000000000000000000002fe304b407c7fab2a3c10962f14db751468a4f5b"},
      "latest"]}'
    headers:
      Accept:
      - '*/*'
      Accept-Encoding:
      - gzip, deflate
      Connection:
      - keep-alive
      Content-Length:
      - '211'
      Content-Type:
      - application/json
      User-Agent:
      - rotki/1.41.2.dev441+ga56b3c0f52.d20260113
    method: POST
    uri: https://explorer.optimism.io/api/eth-rpc
  response:
    body:
      string: '{"jsonrpc":"2.0","result": "0x000000000000000000000000000000000000000000000000000000000000002000000000000000000000000000000000000000000000000000000000000000a0000000000000000000000000000000000000000000000000000000000000001200000000000000000000000042000000000000000000000000000000000000420000000000000000000000006806411765af15bddd26f8f544a34cc40cb9838b0000000000000000000000000000000000000000000000000000000000000000000000000000000000000000000000000000000000000000000000000000001076414d4d56322d4f502f66727845544800000000000000000000000000000000","id":
        0}

        '
    headers:
      CF-RAY:
      - 9bdf9f30fcbabfc9-ATL
      Cache-Control:
      - max-age=0, private, must-revalidate
      Connection:
      - keep-alive
      Content-Type:
      - application/json; charset=utf-8
      Date:
      - Wed, 14 Jan 2026 19:43:22 GMT
      Nel:
      - '{"report_to":"cf-nel","success_fraction":0.0,"max_age":604800}'
      Report-To:
      - '{"group":"cf-nel","max_age":604800,"endpoints":[{"url":"https://a.nel.cloudflare.com/report/v4?s=6nvQCvWhgYKQ0AxWy0w1IU4NnoY0FVXpEnKu%2FcMXcQynv5sZ7yYEn8kNBp3r5iqQvPonBBEgVMPq368XCDDTQRDYsWjVJqxKY1X69gEoBjXmmmbZ"}]}'
      Server:
      - cloudflare
      Transfer-Encoding:
      - chunked
      access-control-allow-credentials:
      - 'true'
      access-control-allow-origin:
      - '*'
      access-control-expose-headers:
      - bypass-429-option,x-ratelimit-reset,x-ratelimit-limit,x-ratelimit-remaining,api-v2-temp-token
      alt-svc:
      - h3=":443"; ma=86400
      bypass-429-option:
      - no_bypass
      cf-cache-status:
      - DYNAMIC
      content-length:
      - '553'
      strict-transport-security:
      - max-age=31536000; includeSubDomains
      x-ratelimit-limit:
      - '600'
      x-ratelimit-remaining:
      - '591'
      x-ratelimit-reset:
      - '38196'
      x-request-id:
      - 6218fce172662c233d6650e581160cd6
    status:
      code: 200
      message: OK
- request:
    body: '{"id": 0, "jsonrpc": "2.0", "method": "eth_call", "params": [{"to": "0x2DC0E2aa608532Da689e89e237dF582B783E552C",
      "data": "0xbce38bd7000000000000000000000000000000000000000000000000000000000000000000000000000000000000000000000000000000000000000000000000000000400000000000000000000000000000000000000000000000000000000000000003000000000000000000000000000000000000000000000000000000000000006000000000000000000000000000000000000000000000000000000000000000e000000000000000000000000000000000000000000000000000000000000001600000000000000000000000002fe304b407c7fab2a3c10962f14db751468a4f5b00000000000000000000000000000000000000000000000000000000000000400000000000000000000000000000000000000000000000000000000000000004313ce567000000000000000000000000000000000000000000000000000000000000000000000000000000002fe304b407c7fab2a3c10962f14db751468a4f5b0000000000000000000000000000000000000000000000000000000000000040000000000000000000000000000000000000000000000000000000000000000495d89b41000000000000000000000000000000000000000000000000000000000000000000000000000000002fe304b407c7fab2a3c10962f14db751468a4f5b0000000000000000000000000000000000000000000000000000000000000040000000000000000000000000000000000000000000000000000000000000000406fdde0300000000000000000000000000000000000000000000000000000000"},
      "latest"]}'
    headers:
      Accept:
      - '*/*'
      Accept-Encoding:
      - gzip, deflate
      Connection:
      - keep-alive
      Content-Length:
      - '1299'
      Content-Type:
      - application/json
      User-Agent:
      - rotki/1.41.2.dev441+ga56b3c0f52.d20260113
    method: POST
    uri: https://explorer.optimism.io/api/eth-rpc
  response:
    body:
      string: '{"jsonrpc":"2.0","result": "0x00000000000000000000000000000000000000000000000000000000000000200000000000000000000000000000000000000000000000000000000000000003000000000000000000000000000000000000000000000000000000000000006000000000000000000000000000000000000000000000000000000000000000e000000000000000000000000000000000000000000000000000000000000001a000000000000000000000000000000000000000000000000000000000000000010000000000000000000000000000000000000000000000000000000000000040000000000000000000000000000000000000000000000000000000000000002000000000000000000000000000000000000000000000000000000000000000120000000000000000000000000000000000000000000000000000000000000001000000000000000000000000000000000000000000000000000000000000004000000000000000000000000000000000000000000000000000000000000000600000000000000000000000000000000000000000000000000000000000000020000000000000000000000000000000000000000000000000000000000000001076414d4d56322d4f502f667278455448000000000000000000000000000000000000000000000000000000000000000000000000000000000000000000000001000000000000000000000000000000000000000000000000000000000000004000000000000000000000000000000000000000000000000000000000000000600000000000000000000000000000000000000000000000000000000000000020000000000000000000000000000000000000000000000000000000000000001a566f6c6174696c65563220414d4d202d204f502f667278455448000000000000","id":
        0}

        '
    headers:
      CF-RAY:
      - 9bdf9f36fc2f7b9a-ATL
      Cache-Control:
      - max-age=0, private, must-revalidate
      Connection:
      - keep-alive
      Content-Type:
      - application/json; charset=utf-8
      Date:
      - Wed, 14 Jan 2026 19:43:22 GMT
      Nel:
      - '{"report_to":"cf-nel","success_fraction":0.0,"max_age":604800}'
      Report-To:
      - '{"group":"cf-nel","max_age":604800,"endpoints":[{"url":"https://a.nel.cloudflare.com/report/v4?s=J5f5cnKP3Vfbj4BakSU2Utuzp%2FBn7WwcgCFJomUjd8g53Lr%2BumWlR3MlZd%2Bc%2Fpjmr0FMvXmuv9TliyFUaNx1HLhA0RD738PzKaPtbddukszALxRB"}]}'
      Server:
      - cloudflare
      Transfer-Encoding:
      - chunked
      access-control-allow-credentials:
      - 'true'
      access-control-allow-origin:
      - '*'
      access-control-expose-headers:
      - bypass-429-option,x-ratelimit-reset,x-ratelimit-limit,x-ratelimit-remaining,api-v2-temp-token
      alt-svc:
      - h3=":443"; ma=86400
      bypass-429-option:
      - no_bypass
      cf-cache-status:
      - DYNAMIC
      content-length:
      - '1385'
      strict-transport-security:
      - max-age=31536000; includeSubDomains
      x-ratelimit-limit:
      - '600'
      x-ratelimit-remaining:
      - '590'
      x-ratelimit-reset:
      - '37235'
      x-request-id:
      - 8ef8c329d863d06dd8cc2fbe006fc1a4
    status:
      code: 200
      message: OK
version: 1
