interactions:
- request:
    body: null
    headers:
      Accept:
      - '*/*'
      Accept-Encoding:
      - gzip, deflate
      Connection:
      - keep-alive
      User-Agent:
      - rotki/1.41.2.dev732+g2ffe4b4efe
    method: GET
    uri: https://api.routescan.io/v2/network/mainnet/evm/10/etherscan/api?action=eth_getTransactionByHash&module=proxy&txhash=0x779c2c762ed7ca5d2236ac548f9e9bdc723a8bc9d6d8feba9e3baea9456bbac9
  response:
    body:
      string: '{"jsonrpc":"2.0","id":1,"result":{"blockHash":"0x0b436a8662880861d920ad1e5de77ef46055d8d707fd302d40206471c92a85c3","blockNumber":"0x63fe453","from":"0xe1343a4b5e64d47b0c0f208d05fb4b5973443818","gas":"0x3dfef","gasPrice":"0xf4240","hash":"0x779c2c762ed7ca5d2236ac548f9e9bdc723a8bc9d6d8feba9e3baea9456bbac9","input":"0x5a47ddc30000000000000000000000003417e54a51924c225330f8770514ad5560b9098d0000000000000000000000003c8b650257cfb5f272f799f5e2b4e65093a11a05000000000000000000000000000000000000000000000000000000000000000000000000000000000000000000000000000000000000000031c1a761594a7217000000000000000000000000000000000000000000000006b9a32a0dfa4b600000000000000000000000000000000000000000000000000030c2e697b8c8f4ee0000000000000000000000000000000000000000000000069734618894023000000000000000000000000000e1343a4b5e64d47b0c0f208d05fb4b597344381800000000000000000000000000000000000000000000000000000000647dd6f9","nonce":"0x101","to":"0x9c12939390052919af3155f41bf4160fd3666a6f","transactionIndex":"0x0","value":"0x0","v":"0x37","r":"0x9ee4038e40b818cd7345504c9e89e958c6c3354ddc13b74990d5601e1895f65d","s":"0x26efabbc5a73f584c8e55f7b58da8df816d630a73a227f6e5cfce0e6ebedd1b0","queueOrigin":"sequencer","l1TxOrigin":null,"l1BlockNumber":"0x109b87a","l1Timestamp":"0x647dd4ae","index":"0x63fe452","queueIndex":null,"rawTransaction":"0xf9018b820101830f42408303dfef949c12939390052919af3155f41bf4160fd3666a6f80b901245a47ddc30000000000000000000000003417e54a51924c225330f8770514ad5560b9098d0000000000000000000000003c8b650257cfb5f272f799f5e2b4e65093a11a05000000000000000000000000000000000000000000000000000000000000000000000000000000000000000000000000000000000000000031c1a761594a7217000000000000000000000000000000000000000000000006b9a32a0dfa4b600000000000000000000000000000000000000000000000000030c2e697b8c8f4ee0000000000000000000000000000000000000000000000069734618894023000000000000000000000000000e1343a4b5e64d47b0c0f208d05fb4b597344381800000000000000000000000000000000000000000000000000000000647dd6f937a09ee4038e40b818cd7345504c9e89e958c6c3354ddc13b74990d5601e1895f65da026efabbc5a73f584c8e55f7b58da8df816d630a73a227f6e5cfce0e6ebedd1b0"}}'
    headers:
      Alt-Svc:
      - h3=":443"; ma=86400
      Connection:
      - keep-alive
      Content-Type:
      - application/json; charset=utf-8
      Date:
      - Tue, 10 Feb 2026 13:15:47 GMT
      Transfer-Encoding:
      - chunked
      Vary:
      - accept-encoding
      Via:
      - 1.1 192214f2b714ecde75ddd74c51389aaa.cloudfront.net (CloudFront)
      X-Amz-Cf-Id:
      - 1qY7biDYrosnqL5Bn998wO1_I87w-wAcqb4_0pNB5-QBfvXyAO49zQ==
      X-Amz-Cf-Pop:
      - TXL52-P2
      X-Cache:
      - Miss from cloudfront
      access-control-allow-origin:
      - '*'
      content-length:
      - '2121'
      x-ratelimit-rpd-limit:
      - '100000'
      x-ratelimit-rpd-remaining:
      - '99823'
      x-ratelimit-rpd-reset:
      - '67632'
      x-ratelimit-rpm-limit:
      - '300'
      x-ratelimit-rpm-remaining:
      - '299'
      x-ratelimit-rpm-reset:
      - '60'
    status:
      code: 200
      message: OK
- request:
    body: null
    headers:
      Accept:
      - '*/*'
      Accept-Encoding:
      - gzip, deflate
      Connection:
      - keep-alive
      User-Agent:
      - rotki/1.41.2.dev732+g2ffe4b4efe
    method: GET
    uri: https://api.routescan.io/v2/network/mainnet/evm/10/etherscan/api?action=eth_getBlockByNumber&boolean=true&module=proxy&tag=0x63fe453
  response:
    body:
      string: '{"jsonrpc":"2.0","id":1,"result":{"difficulty":"0x2","extraData":"0xd98301090a846765746889676f312e31352e3133856c696e757800000000000031ce5967836ac7ae7cda3d43ef33872c1fd9ebe4225da5af51ba04d1261b81ed497218d89973146807f3010da27d12a0a7e6afc406109d35d27de4798c6303fe01","gasLimit":"0xe4e1c0","gasUsed":"0x27de8","hash":"0x0b436a8662880861d920ad1e5de77ef46055d8d707fd302d40206471c92a85c3","logsBloom":"0x01000000000000000000000000010000000000000000000000000000008001000000000000000000000000800000000000000000002000040000000000000000000000000400000000000008000000000000000000000000000000000000000000000000020400000000000000000800000000000008000000000010000000000000000000000000000000000000200000001000000000000080000000000000420000000000000000000000000000000000000000008000000000000008000000000002004000000000000400020000000000000000000000000020400020000000000000000000000000000000020000000000000000000000000020000000","miner":"0x0000000000000000000000000000000000000000","mixHash":"0x0000000000000000000000000000000000000000000000000000000000000000","nonce":"0x0000000000000000","number":"0x63fe453","parentHash":"0x3dbdf3e8c0c046b2fd8ca4a0a5e661c4080f71530d8536c2b8431f2828a6fdff","receiptsRoot":"0x04884cb3f6fbdc998411cdf29979f44544ea917e80a4ff2b7222df50e22bd82c","sha3Uncles":"0x1dcc4de8dec75d7aab85b567b6ccd41ad312451b948a7413f0a142fd40d49347","size":"0x3f5","stateRoot":"0xd8d9418bcc948923fca8140450623fc6c856fee298b49f12dd6f2c52b45c79cd","timestamp":"0x647dd4ae","totalDifficulty":"0xc7fc8a7","transactions":[{"blockHash":"0x0b436a8662880861d920ad1e5de77ef46055d8d707fd302d40206471c92a85c3","blockNumber":"0x63fe453","from":"0xe1343a4b5e64d47b0c0f208d05fb4b5973443818","gas":"0x3dfef","gasPrice":"0xf4240","hash":"0x779c2c762ed7ca5d2236ac548f9e9bdc723a8bc9d6d8feba9e3baea9456bbac9","input":"0x5a47ddc30000000000000000000000003417e54a51924c225330f8770514ad5560b9098d0000000000000000000000003c8b650257cfb5f272f799f5e2b4e65093a11a05000000000000000000000000000000000000000000000000000000000000000000000000000000000000000000000000000000000000000031c1a761594a7217000000000000000000000000000000000000000000000006b9a32a0dfa4b600000000000000000000000000000000000000000000000000030c2e697b8c8f4ee0000000000000000000000000000000000000000000000069734618894023000000000000000000000000000e1343a4b5e64d47b0c0f208d05fb4b597344381800000000000000000000000000000000000000000000000000000000647dd6f9","nonce":"0x101","to":"0x9c12939390052919af3155f41bf4160fd3666a6f","transactionIndex":"0x0","value":"0x0","v":"0x37","r":"0x9ee4038e40b818cd7345504c9e89e958c6c3354ddc13b74990d5601e1895f65d","s":"0x26efabbc5a73f584c8e55f7b58da8df816d630a73a227f6e5cfce0e6ebedd1b0","queueOrigin":"sequencer","l1TxOrigin":null,"l1BlockNumber":"0x109b87a","l1Timestamp":"0x647dd4ae","index":"0x63fe452","queueIndex":null,"rawTransaction":"0xf9018b820101830f42408303dfef949c12939390052919af3155f41bf4160fd3666a6f80b901245a47ddc30000000000000000000000003417e54a51924c225330f8770514ad5560b9098d0000000000000000000000003c8b650257cfb5f272f799f5e2b4e65093a11a05000000000000000000000000000000000000000000000000000000000000000000000000000000000000000000000000000000000000000031c1a761594a7217000000000000000000000000000000000000000000000006b9a32a0dfa4b600000000000000000000000000000000000000000000000000030c2e697b8c8f4ee0000000000000000000000000000000000000000000000069734618894023000000000000000000000000000e1343a4b5e64d47b0c0f208d05fb4b597344381800000000000000000000000000000000000000000000000000000000647dd6f937a09ee4038e40b818cd7345504c9e89e958c6c3354ddc13b74990d5601e1895f65da026efabbc5a73f584c8e55f7b58da8df816d630a73a227f6e5cfce0e6ebedd1b0"}],"transactionsRoot":"0x10d53870afe6d26d1fd6b937e3fa40a5e5d0433f111b21ab1c74a73b2e7d3812","uncles":[]}}'
    headers:
      Alt-Svc:
      - h3=":443"; ma=86400
      Connection:
      - keep-alive
      Content-Type:
      - application/json; charset=utf-8
      Date:
      - Tue, 10 Feb 2026 13:15:47 GMT
      Transfer-Encoding:
      - chunked
      Vary:
      - accept-encoding
      Via:
      - 1.1 3d98ff2f094b729179a8f8c2a7dd59ba.cloudfront.net (CloudFront)
      X-Amz-Cf-Id:
      - SypRz-UyGkIGezS7RU5rFW6syaaIRMGCezhur2IiReMCqeJLs4R1Iw==
      X-Amz-Cf-Pop:
      - TXL52-P2
      X-Cache:
      - Miss from cloudfront
      access-control-allow-origin:
      - '*'
      content-length:
      - '3698'
      x-ratelimit-rpd-limit:
      - '100000'
      x-ratelimit-rpd-remaining:
      - '99822'
      x-ratelimit-rpd-reset:
      - '67632'
      x-ratelimit-rpm-limit:
      - '300'
      x-ratelimit-rpm-remaining:
      - '298'
      x-ratelimit-rpm-reset:
      - '60'
    status:
      code: 200
      message: OK
- request:
    body: null
    headers:
      Accept:
      - '*/*'
      Accept-Encoding:
      - gzip, deflate
      Connection:
      - keep-alive
      User-Agent:
      - rotki/1.41.2.dev732+g2ffe4b4efe
    method: GET
    uri: https://api.routescan.io/v2/network/mainnet/evm/10/etherscan/api?action=eth_getTransactionReceipt&module=proxy&txhash=0x779c2c762ed7ca5d2236ac548f9e9bdc723a8bc9d6d8feba9e3baea9456bbac9
  response:
    body:
      string: '{"jsonrpc":"2.0","id":1,"result":{"blockHash":"0x0b436a8662880861d920ad1e5de77ef46055d8d707fd302d40206471c92a85c3","blockNumber":"0x63fe453","contractAddress":null,"cumulativeGasUsed":"0x27de8","from":"0xe1343a4b5e64d47b0c0f208d05fb4b5973443818","gasUsed":"0x27de8","l1Fee":"0x961fc5980f28","l1FeeScalar":"1","l1GasPrice":"0x637fee7fa","l1GasUsed":"0x1824","logs":[{"address":"0x3417e54a51924c225330f8770514ad5560b9098d","topics":["0xddf252ad1be2c89b69c2b068fc378daa952ba7f163c4a11628f55a4df523b3ef","0x000000000000000000000000e1343a4b5e64d47b0c0f208d05fb4b5973443818","0x0000000000000000000000006fe665f19517cd6076866db0548177d0e628156a"],"data":"0x00000000000000000000000000000000000000000000000031c1a75fffbd638a","blockNumber":"0x63fe453","transactionHash":"0x779c2c762ed7ca5d2236ac548f9e9bdc723a8bc9d6d8feba9e3baea9456bbac9","transactionIndex":"0x0","blockHash":"0x0b436a8662880861d920ad1e5de77ef46055d8d707fd302d40206471c92a85c3","logIndex":"0x0","removed":false},{"address":"0x3c8b650257cfb5f272f799f5e2b4e65093a11a05","topics":["0xddf252ad1be2c89b69c2b068fc378daa952ba7f163c4a11628f55a4df523b3ef","0x000000000000000000000000e1343a4b5e64d47b0c0f208d05fb4b5973443818","0x0000000000000000000000006fe665f19517cd6076866db0548177d0e628156a"],"data":"0x000000000000000000000000000000000000000000000006b9a32a0dfa4b6000","blockNumber":"0x63fe453","transactionHash":"0x779c2c762ed7ca5d2236ac548f9e9bdc723a8bc9d6d8feba9e3baea9456bbac9","transactionIndex":"0x0","blockHash":"0x0b436a8662880861d920ad1e5de77ef46055d8d707fd302d40206471c92a85c3","logIndex":"0x1","removed":false},{"address":"0x6fe665f19517cd6076866db0548177d0e628156a","topics":["0xddf252ad1be2c89b69c2b068fc378daa952ba7f163c4a11628f55a4df523b3ef","0x0000000000000000000000000000000000000000000000000000000000000000","0x000000000000000000000000e1343a4b5e64d47b0c0f208d05fb4b5973443818"],"data":"0x000000000000000000000000000000000000000000000001246710708f2812ea","blockNumber":"0x63fe453","transactionHash":"0x779c2c762ed7ca5d2236ac548f9e9bdc723a8bc9d6d8feba9e3baea9456bbac9","transactionIndex":"0x0","blockHash":"0x0b436a8662880861d920ad1e5de77ef46055d8d707fd302d40206471c92a85c3","logIndex":"0x2","removed":false},{"address":"0x6fe665f19517cd6076866db0548177d0e628156a","topics":["0xcf2aa50876cdfbb541206f89af0ee78d44a2abf8d328e37fa4917f982149848a"],"data":"0x000000000000000000000000000000000000000000002066ba0beeb441d6f88d00000000000000000000000000000000000000000004612030039663885d0e5e","blockNumber":"0x63fe453","transactionHash":"0x779c2c762ed7ca5d2236ac548f9e9bdc723a8bc9d6d8feba9e3baea9456bbac9","transactionIndex":"0x0","blockHash":"0x0b436a8662880861d920ad1e5de77ef46055d8d707fd302d40206471c92a85c3","logIndex":"0x3","removed":false},{"address":"0x6fe665f19517cd6076866db0548177d0e628156a","topics":["0x4c209b5fc8ad50758f13e2e1088ba56a560dff690a1c6fef26394f4c03821c4f","0x0000000000000000000000009c12939390052919af3155f41bf4160fd3666a6f"],"data":"0x00000000000000000000000000000000000000000000000031c1a75fffbd638a000000000000000000000000000000000000000000000006b9a32a0dfa4b6000","blockNumber":"0x63fe453","transactionHash":"0x779c2c762ed7ca5d2236ac548f9e9bdc723a8bc9d6d8feba9e3baea9456bbac9","transactionIndex":"0x0","blockHash":"0x0b436a8662880861d920ad1e5de77ef46055d8d707fd302d40206471c92a85c3","logIndex":"0x4","removed":false}],"logsBloom":"0x01000000000000000000000000010000000000000000000000000000008001000000000000000000000000800000000000000000002000040000000000000000000000000400000000000008000000000000000000000000000000000000000000000000020400000000000000000800000000000008000000000010000000000000000000000000000000000000200000001000000000000080000000000000420000000000000000000000000000000000000000008000000000000008000000000002004000000000000400020000000000000000000000000020400020000000000000000000000000000000020000000000000000000000000020000000","status":"0x1","to":"0x9c12939390052919af3155f41bf4160fd3666a6f","transactionHash":"0x779c2c762ed7ca5d2236ac548f9e9bdc723a8bc9d6d8feba9e3baea9456bbac9","transactionIndex":"0x0"}}'
    headers:
      Alt-Svc:
      - h3=":443"; ma=86400
      Connection:
      - keep-alive
      Content-Type:
      - application/json; charset=utf-8
      Date:
      - Tue, 10 Feb 2026 13:15:48 GMT
      Transfer-Encoding:
      - chunked
      Vary:
      - accept-encoding
      Via:
      - 1.1 d9ce3c90781cc87845c80393506fb47c.cloudfront.net (CloudFront)
      X-Amz-Cf-Id:
      - j1APcqhftX09wDwWw1ndjvImyjMQBEGrJCU9HXU8T73a3g8j9IygtA==
      X-Amz-Cf-Pop:
      - TXL52-P2
      X-Cache:
      - Miss from cloudfront
      access-control-allow-origin:
      - '*'
      content-length:
      - '4009'
      x-ratelimit-rpd-limit:
      - '100000'
      x-ratelimit-rpd-remaining:
      - '99821'
      x-ratelimit-rpd-reset:
      - '67631'
      x-ratelimit-rpm-limit:
      - '300'
      x-ratelimit-rpm-remaining:
      - '297'
      x-ratelimit-rpm-reset:
      - '60'
    status:
      code: 200
      message: OK
- request:
    body: null
    headers:
      Accept:
      - '*/*'
      Accept-Encoding:
      - gzip, deflate
      Connection:
      - keep-alive
      User-Agent:
      - rotki/1.41.2.dev732+g2ffe4b4efe
    method: GET
    uri: https://api.routescan.io/v2/network/mainnet/evm/10/etherscan/api?action=txlistinternal&module=account&offset=100&page=1&sort=asc&txhash=0x779c2c762ed7ca5d2236ac548f9e9bdc723a8bc9d6d8feba9e3baea9456bbac9
  response:
    body:
      string: '{"status":"0","message":"No transactions found","result":[]}'
    headers:
      Alt-Svc:
      - h3=":443"; ma=86400
      Connection:
      - keep-alive
      Content-Length:
      - '60'
      Content-Type:
      - application/json; charset=utf-8
      Date:
      - Tue, 10 Feb 2026 13:15:49 GMT
      Via:
      - 1.1 458235ca4f96921ac5ce38df5ed6e246.cloudfront.net (CloudFront)
      X-Amz-Cf-Id:
      - wGQqDIRpT3OAbaTxzCwT_ts6LA7Z1oWMUmXqQpny7sqEmY6ichPckg==
      X-Amz-Cf-Pop:
      - TXL52-P2
      X-Cache:
      - Miss from cloudfront
      access-control-allow-origin:
      - '*'
      x-ratelimit-rpd-limit:
      - '100000'
      x-ratelimit-rpd-remaining:
      - '99820'
      x-ratelimit-rpd-reset:
      - '67631'
      x-ratelimit-rpm-limit:
      - '300'
      x-ratelimit-rpm-remaining:
      - '296'
      x-ratelimit-rpm-reset:
      - '60'
    status:
      code: 200
      message: OK
- request:
    body: null
    headers:
      Accept:
      - '*/*'
      Accept-Encoding:
      - gzip, deflate
      Connection:
      - keep-alive
      User-Agent:
      - rotki/1.41.2.dev732+g2ffe4b4efe
    method: GET
    uri: https://api.routescan.io/v2/network/mainnet/evm/10/etherscan/api?action=eth_call&data=0x100f2c000000000000000000000000006fe665f19517cd6076866db0548177d0e628156a&module=proxy&to=0xf96764f4d357A9A16AB8050D0E3abcAa67e50eF9
  response:
    body:
      string: '{"jsonrpc":"2.0","id":1,"result":"0x000000000000000000000000000000000000000000000000000000000000002000000000000000000000000000000000000000000000000000000000000000a000000000000000000000000000000000000000000000000000000000000000120000000000000000000000003417e54a51924c225330f8770514ad5560b9098d0000000000000000000000003c8b650257cfb5f272f799f5e2b4e65093a11a050000000000000000000000000000000000000000000000000000000000000000000000000000000000000000000000000000000000000000000000000000000d76414d4d2d5245442f56454c4f00000000000000000000000000000000000000"}'
    headers:
      Alt-Svc:
      - h3=":443"; ma=86400
      Connection:
      - keep-alive
      Content-Length:
      - '550'
      Content-Type:
      - application/json; charset=utf-8
      Date:
      - Tue, 10 Feb 2026 13:15:51 GMT
      Via:
      - 1.1 d2f69f3862469cf3c20cafa58c4a605e.cloudfront.net (CloudFront)
      X-Amz-Cf-Id:
      - SwgUGJ4r8LYDe1X2UKjtnmUESv6uw7HL6Pb0BI6mkgF_EZrV-XVFTg==
      X-Amz-Cf-Pop:
      - TXL52-P2
      X-Cache:
      - Miss from cloudfront
      access-control-allow-origin:
      - '*'
      x-ratelimit-rpd-limit:
      - '100000'
      x-ratelimit-rpd-remaining:
      - '99819'
      x-ratelimit-rpd-reset:
      - '67629'
      x-ratelimit-rpm-limit:
      - '300'
      x-ratelimit-rpm-remaining:
      - '295'
      x-ratelimit-rpm-reset:
      - '57'
    status:
      code: 200
      message: OK
- request:
    body: null
    headers:
      Accept:
      - '*/*'
      Accept-Encoding:
      - gzip, deflate
      Connection:
      - keep-alive
      User-Agent:
      - rotki/1.41.2.dev732+g2ffe4b4efe
    method: GET
    uri: https://api.routescan.io/v2/network/mainnet/evm/10/etherscan/api?action=eth_call&data=0xbce38bd7000000000000000000000000000000000000000000000000000000000000000000000000000000000000000000000000000000000000000000000000000000400000000000000000000000000000000000000000000000000000000000000003000000000000000000000000000000000000000000000000000000000000006000000000000000000000000000000000000000000000000000000000000000e000000000000000000000000000000000000000000000000000000000000001600000000000000000000000006fe665f19517cd6076866db0548177d0e628156a00000000000000000000000000000000000000000000000000000000000000400000000000000000000000000000000000000000000000000000000000000004313ce567000000000000000000000000000000000000000000000000000000000000000000000000000000006fe665f19517cd6076866db0548177d0e628156a0000000000000000000000000000000000000000000000000000000000000040000000000000000000000000000000000000000000000000000000000000000495d89b41000000000000000000000000000000000000000000000000000000000000000000000000000000006fe665f19517cd6076866db0548177d0e628156a0000000000000000000000000000000000000000000000000000000000000040000000000000000000000000000000000000000000000000000000000000000406fdde0300000000000000000000000000000000000000000000000000000000&module=proxy&to=0x2DC0E2aa608532Da689e89e237dF582B783E552C
  response:
    body:
      string: '{"jsonrpc":"2.0","id":1,"result":"0x00000000000000000000000000000000000000000000000000000000000000200000000000000000000000000000000000000000000000000000000000000003000000000000000000000000000000000000000000000000000000000000006000000000000000000000000000000000000000000000000000000000000000e000000000000000000000000000000000000000000000000000000000000001a000000000000000000000000000000000000000000000000000000000000000010000000000000000000000000000000000000000000000000000000000000040000000000000000000000000000000000000000000000000000000000000002000000000000000000000000000000000000000000000000000000000000000120000000000000000000000000000000000000000000000000000000000000001000000000000000000000000000000000000000000000000000000000000004000000000000000000000000000000000000000000000000000000000000000600000000000000000000000000000000000000000000000000000000000000020000000000000000000000000000000000000000000000000000000000000000d76414d4d2d5245442f56454c4f0000000000000000000000000000000000000000000000000000000000000000000000000000000000000000000000000000010000000000000000000000000000000000000000000000000000000000000040000000000000000000000000000000000000000000000000000000000000006000000000000000000000000000000000000000000000000000000000000000200000000000000000000000000000000000000000000000000000000000000019566f6c6174696c65563120414d4d202d205245442f56454c4f00000000000000"}'
    headers:
      Alt-Svc:
      - h3=":443"; ma=86400
      Connection:
      - keep-alive
      Content-Type:
      - application/json; charset=utf-8
      Date:
      - Tue, 10 Feb 2026 13:15:51 GMT
      Transfer-Encoding:
      - chunked
      Vary:
      - accept-encoding
      Via:
      - 1.1 b0a751f9161fd546ec249858c6f7afc6.cloudfront.net (CloudFront)
      X-Amz-Cf-Id:
      - Wk9CSmQZkhzcBx4qsKA9NRmH3jH-h-QyCD9YVk8tuejvExepOdPJ9w==
      X-Amz-Cf-Pop:
      - TXL52-P2
      X-Cache:
      - Miss from cloudfront
      access-control-allow-origin:
      - '*'
      content-length:
      - '1382'
      x-ratelimit-rpd-limit:
      - '100000'
      x-ratelimit-rpd-remaining:
      - '99818'
      x-ratelimit-rpd-reset:
      - '67628'
      x-ratelimit-rpm-limit:
      - '300'
      x-ratelimit-rpm-remaining:
      - '294'
      x-ratelimit-rpm-reset:
      - '57'
    status:
      code: 200
      message: OK
version: 1
