interactions:
- request:
    body: '{"id": 0, "jsonrpc": "2.0", "method": "eth_getTransactionByHash", "params":
      ["0x9b564c266aea871c14fbe120d060d1713f0ba524452906af3592360594b946f6"]}'
    headers:
      Accept:
      - '*/*'
      Accept-Encoding:
      - gzip, deflate
      Connection:
      - keep-alive
      Content-Length:
      - '147'
      Content-Type:
      - application/json
      User-Agent:
      - rotki/1.41.2.dev441+ga56b3c0f52.d20260113
    method: POST
    uri: https://explorer.optimism.io/api/eth-rpc
  response:
    body:
      string: '{"jsonrpc":"2.0","result": {"accessList":[],"blockHash":"0x07c22f546089fcd029e7822447acf2b8f78b37d9b19ee3eec3940b2dee8de135","blockNumber":"0x68b7124","chainId":"0xa","from":"0xe435beba6dee3d6f99392ab9568777eb8165719d","gas":"0x4018b","gasPrice":"0x3682b24","hash":"0x9b564c266aea871c14fbe120d060d1713f0ba524452906af3592360594b946f6","input":"0x0dede6c400000000000000000000000042000000000000000000000000000000000000420000000000000000000000007f5c764cbc14f9669b88837ca1490cca17c31607000000000000000000000000000000000000000000000000000000000000000000000000000000000000000000000000000000000000000000009e9f4c072087000000000000000000000000000000000000000000000007f2bc0fa43d2f9477000000000000000000000000000000000000000000000000000000000c218936000000000000000000000000e435beba6dee3d6f99392ab9568777eb8165719d00000000000000000000000000000000000000000000000000000000650ac2dc","maxFeePerGas":"0x879c6c2","maxPriorityFeePerGas":"0x33d478","nonce":"0x1f","r":"0x71fdfb1b12e80ab81af3d9e04d96ec2bcc3dc5f201d3d050f8edd883d2da6154","s":"0x14b2314974a3eb516437fd9628c6cb5b544586e3ece2c6544c09447f9745c792","to":"0x9c12939390052919af3155f41bf4160fd3666a6f","transactionIndex":"0xc","type":"0x2","v":"0x0","value":"0x0","yParity":"0x0"},"id":
        0}

        '
    headers:
      CF-RAY:
      - 9bdf9f9829a66ad0-ATL
      Cache-Control:
      - max-age=0, private, must-revalidate
      Connection:
      - keep-alive
      Content-Type:
      - application/json; charset=utf-8
      Date:
      - Wed, 14 Jan 2026 19:43:38 GMT
      Nel:
      - '{"report_to":"cf-nel","success_fraction":0.0,"max_age":604800}'
      Report-To:
      - '{"group":"cf-nel","max_age":604800,"endpoints":[{"url":"https://a.nel.cloudflare.com/report/v4?s=zP3znGvHoIgWzH%2B64cQKFZW94OgYJAIr%2FaObnup11otRojaN1MnfzDsQNYlK88D2BYvqiAyVEQoaqNFFaqiuq2yKGjXK362YRFuUhuoXURsXTGLh"}]}'
      Server:
      - cloudflare
      Transfer-Encoding:
      - chunked
      access-control-allow-credentials:
      - 'true'
      access-control-allow-origin:
      - '*'
      access-control-expose-headers:
      - bypass-429-option,x-ratelimit-reset,x-ratelimit-limit,x-ratelimit-remaining,api-v2-temp-token
      alt-svc:
      - h3=":443"; ma=86400
      bypass-429-option:
      - no_bypass
      cf-cache-status:
      - DYNAMIC
      content-length:
      - '1227'
      strict-transport-security:
      - max-age=31536000; includeSubDomains
      x-ratelimit-limit:
      - '600'
      x-ratelimit-remaining:
      - '589'
      x-ratelimit-reset:
      - '21679'
      x-request-id:
      - 3104477c558be6b019f73f31487d9fd9
    status:
      code: 200
      message: OK
- request:
    body: '{"id": 0, "jsonrpc": "2.0", "method": "eth_getBlockByNumber", "params":
      ["0x68b7124", true]}'
    headers:
      Accept:
      - '*/*'
      Accept-Encoding:
      - gzip, deflate
      Connection:
      - keep-alive
      Content-Length:
      - '92'
      Content-Type:
      - application/json
      User-Agent:
      - rotki/1.41.2.dev441+ga56b3c0f52.d20260113
    method: POST
    uri: https://explorer.optimism.io/api/eth-rpc
  response:
    body:
      string: '{"jsonrpc":"2.0","result": {"baseFeePerGas":"0x33456ac","difficulty":"0x0","extraData":"0x","gasLimit":"0x1c9c380","gasUsed":"0x52311d","hash":"0x07c22f546089fcd029e7822447acf2b8f78b37d9b19ee3eec3940b2dee8de135","logsBloom":"0x82620040420808485000188010008000800c44000441000028000a038008210800001082000004002104000200b808802440104028032210000000200070204140420002c4000808230000090021200004a10008410a10040008008180044001820c21250204206100e1040008000800220290002a0840010005229800090300040010020801008e010000080600080001001481ac85002a022000c0a80010441220000010024360000000040100042002204000120101000002408080180401c000100308000801000028841011840060c000580080804000004104000030009110800033020440000c000e000c108002c11180000088400040400228070000","miner":"0x4200000000000000000000000000000000000011","mixHash":"0x2f292a831dd4c47de0400226fda9322fcd2a3a9ef870e307e2ef49e5c4f4e98a","nonce":"0x0000000000000000","number":"0x68b7124","parentHash":"0x449f569452a33bd885f130174f16957ba0a656cc94c7122c4806cb9cc33f443b","receiptsRoot":"0xca42d89a25018bd507760f95c895147f45f07f1b9c4a3e0f4847543ed9a96cfe","sha3Uncles":"0x1dcc4de8dec75d7aab85b567b6ccd41ad312451b948a7413f0a142fd40d49347","size":"0x1e01","stateRoot":"0xf666432a47e3b0ba357b123245d07868ed561fcf6b6ba31dd4ba281cf2e68211","timestamp":"0x650abc01","transactions":[{"blockHash":"0x07c22f546089fcd029e7822447acf2b8f78b37d9b19ee3eec3940b2dee8de135","blockNumber":"0x68b7124","from":"0xdeaddeaddeaddeaddeaddeaddeaddeaddead0001","gas":"0xf4240","gasPrice":"0x0","hash":"0x8c666934933ba783b8d8f3611ac1fd8a944e53c8e0b8556f340ff68a3eb504b6","input":"0x015d8eb900000000000000000000000000000000000000000000000000000000011558da00000000000000000000000000000000000000000000000000000000650abbaf000000000000000000000000000000000000000000000000000000025bf527c5324be78d70bd4e01463337cefa694433c03d15cd47d9f690f9911b005428463100000000000000000000000000000000000000000000000000000000000000030000000000000000000000006887246668a3b87f54deb3b94ba47a6f63f3298500000000000000000000000000000000000000000000000000000000000000bc00000000000000000000000000000000000000000000000000000000000a6fe0","mint":"0x0","nonce":"0x45aeac","r":"0x0","s":"0x0","sourceHash":"0x96246518eff03990f879166991daaa4be02d90385577bda93d184b2fca1d3285","to":"0x4200000000000000000000000000000000000015","transactionIndex":"0x0","type":"0x7e","v":"0x0","value":"0x0","yParity":"0x0"},{"accessList":[],"blockHash":"0x07c22f546089fcd029e7822447acf2b8f78b37d9b19ee3eec3940b2dee8de135","blockNumber":"0x68b7124","chainId":"0xa","from":"0x428ab2ba90eba0a4be7af34c9ac451ab061ac010","gas":"0x1c057","gasPrice":"0x198e626c","hash":"0x1b349ab02b4008395e2558776e9b870013c8c09bda97238f7e52659d0a876690","input":"0x44b8be680000000000000000000000003a23f943181408eac424116af7b7790c94cb97a5000000000000000000000000e06b8e2c3c4bd7e0ec7ea788ae5173259cc2db800000000000000000000000007f5c764cbc14f9669b88837ca1490cca17c316070000000000000000000000000000000000000000000000000000000080ca4c160000000000000000000000000000000000000000000000000000000080ca4c160000000000000000000000000000000000000000000000000000000000000001000000000000000000000000000000000000000000000000000000000000a4b100000000000000000000000000000000000000000000000000015a6b64da60c900000000000000000000000000000000000000000000000000006a013ca6980600000000000000000000000000000000000000000000000000000000001109020000000000000000000000000000000000000000000000000000000000000180ffffffffffffffffffffffffffffffffffffffffffffffffffffffffffffffff0000000000000000000000000000000000000000000000000000000000000000","maxFeePerGas":"0x2e1f6a50","maxPriorityFeePerGas":"0x165a0bc0","nonce":"0x1c89e","r":"0x45fbb0be63cae12fea21e82c2cae07bf772a3426454d893693fd8499502975cb","s":"0x6464eadfe3554dc55538527d1bdf532cce8ae14b825a41c0beec0b37297b64a2","to":"0x6f26bf09b1c792e3228e5467807a900a503c0281","transactionIndex":"0x1","type":"0x2","v":"0x1","value":"0x0","yParity":"0x1"},{"accessList":[],"blockHash":"0x07c22f546089fcd029e7822447acf2b8f78b37d9b19ee3eec3940b2dee8de135","blockNumber":"0x68b7124","chainId":"0xa","from":"0x0ec8c155ba8f5adc4f208e1884f8e09ddbc0bd80","gas":"0x4c4b40","gasPrice":"0xecb243c","hash":"0x735a9608d8ba18d5ffb4b9ed61f8393487b3468068add9d86d046ab0b3fd6285","input":"0xb6b1b6c300000000000000000000000086f1e0420c26a858fc203a3645dd1a36868f18e50000000000000000000000000000000000000000000000000000000000000001000000000000000000000000000000000000000000000000000000000000000100000000000000000000000000000000000000000000000000bc4b381d188005000000000000000000000000000000000000000000000000000000000000000000000000000000000000000000000000000000000000000000000000650abc3b00000000000000000000000000000000000000000000000000000000000000000000000000000000000000000000000000000000000000000000000000000000","maxFeePerGas":"0x342770c00","maxPriorityFeePerGas":"0xb96cd90","nonce":"0x119a6","r":"0x7ae0d1bca050ae33bcc531e0813ddc865ae8e15aaff2efe517c85ff47fde005b","s":"0x67556abb5163daf8bb937e3b7fe29052abf21cecc9f3bf872743eb3f6169a718","to":"0x82ac2ce43e33683c58be4cdc40975e73aa50f459","transactionIndex":"0x2","type":"0x2","v":"0x1","value":"0x0","yParity":"0x1"},{"accessList":[],"blockHash":"0x07c22f546089fcd029e7822447acf2b8f78b37d9b19ee3eec3940b2dee8de135","blockNumber":"0x68b7124","chainId":"0xa","from":"0x0ec8c155ba8f5adc4f208e1884f8e09ddbc0bd80","gas":"0x4c4b40","gasPrice":"0xecb243c","hash":"0x3d1cae8d67efe1e87700abc6e3f90f4c1885f8e999d01c41779626e14b195b10","input":"0xb6b1b6c300000000000000000000000086f1e0420c26a858fc203a3645dd1a36868f18e500000000000000000000000000000000000000000000000000000000000000010000000000000000000000000000000000000000000000000000000000000001000000000000000000000000000000000000000000000000010e0198eaedfffe000000000000000000000000000000000000000000000000000000000000000000000000000000000000000000000000000000000000000000000000650abc3b00000000000000000000000000000000000000000000000000000000000000000000000000000000000000000000000000000000000000000000000000000000","maxFeePerGas":"0x342770c00","maxPriorityFeePerGas":"0xb96cd90","nonce":"0x119a7","r":"0x42e28e050d42df7e1e714e808e148f6579f811f57a8e6ccba2831ee47e28eefe","s":"0x51173b254e38a23103baa8957ef4738e8f1080741812b3a6c441761c52bcb4a4","to":"0x82ac2ce43e33683c58be4cdc40975e73aa50f459","transactionIndex":"0x3","type":"0x2","v":"0x1","value":"0x0","yParity":"0x1"},{"blockHash":"0x07c22f546089fcd029e7822447acf2b8f78b37d9b19ee3eec3940b2dee8de135","blockNumber":"0x68b7124","chainId":"0xa","from":"0x21c3de23d98caddc406e3d31b25e807addf33633","gas":"0x1bf946","gasPrice":"0xa985c8a","hash":"0x4bcf77b9cf30b2580dde199255b74a2145ad0b14c2bc3078e3df3b02dce69410","input":"0xb143044b000000000000000000000000000000000000000000000000000000000000002000000000000000000000000000000000000000000000000000000000000000010000000000000000000000000000000000000000000000000000000000000020000000000000000000000000000000000000000000000000000000000000006f0000000000000000000000004d73adb72bc3dd368966edd0f0b2148401a178e200000000000000000000000000000000000000000000000000000000000000a000000000000000000000000000000000000000000000000000000000650b105b00000000000000000000000000000000000000000000000000000000000001600000000000000000000000000000000000000000000000000000000000000084704316e500000000000000000000000000000000000000000000000000000000000000b74da2cff105ab295b90ec16442c592345ae2ad738639887e3c4ec38d1b06b45bf000000000000000000000000000000000000000000000000000000000000000a4da2cff105ab295b90ec16442c592345ae2ad738639887e3c4ec38d1b06b45bf000000000000000000000000000000000000000000000000000000000000000000000000000000000000000000000000000000000000000000000082a52f63e485ce26de182c22d23d039ae8644e3f80a3baae33b2dff89ea0451f3208744f7285575da78b721765f9539b7967cf7cf2468486250bac7ab48aedcd9b1c32d5c5ba12fe9cb87b76fdd2548a14efa18fd1d3d20ca7406b8416d64a7d9ce006f27ea308fe8de691309a9d39c06aae8a213753bca72c710fc242e3678e933a1c000000000000000000000000000000000000000000000000000000000000","nonce":"0x2b8","r":"0xb8f4d0cc62794e9f177dd8a28c403acbf0be4c62a164b9b59bda1d00a0f49bbb","s":"0x41d3765c447ae640231e1d878897c3422584556edbed37b1c2ef89d61c14167f","to":"0xd56e4eab23cb81f43168f9f45211eb027b9ac7cc","transactionIndex":"0x4","type":"0x0","v":"0x37","value":"0x0"},{"blockHash":"0x07c22f546089fcd029e7822447acf2b8f78b37d9b19ee3eec3940b2dee8de135","blockNumber":"0x68b7124","chainId":"0xa","from":"0xb8ff877ed78ba520ece21b1de7843a8a57ca47cb","gas":"0x2a77e","gasPrice":"0xa985c8a","hash":"0xf46f74684b286323e85a252fd48beeeacb292c2ae9b952c863529d27d70f116b","input":"0x6c459a280000000000000000000000004d73adb72bc3dd368966edd0f0b2148401a178e2000000000000000000000000000000000000000000000000000000000000008000000000000000000000000000000000000000000000000000000000650b105d00000000000000000000000000000000000000000000000000000000000001400000000000000000000000000000000000000000000000000000000000000084704316e5000000000000000000000000000000000000000000000000000000000000006693cb9e81bd3b88b3126ce5628438a8817571b4500b663345337a572fe8c242af00000000000000000000000000000000000000000000000000000000000000147604582810ef2f4db68345cc0d405ff184b553c058035f187e52aa9cc744adea000000000000000000000000000000000000000000000000000000000000000000000000000000000000000000000000000000000000000000000082a8a7b66a441e6cdcf0d808dfad0824fe603012868bd17e4bdaba034abf371eae16ca89fd3afa860decd94e2e68975aededf8335cfc9813f66c134acf67d60dd61cc45e850b7e367c553e8f9c82224c373965c7fbf536a67e44d5311182600429090b22e92fe792f7f72420842d974615c6d4fc267229ec57e44e932eeb0b5615f01b000000000000000000000000000000000000000000000000000000000000","nonce":"0x3f1a52","r":"0x3983053184f19ea08960ef85896eb39cff28c3c09166a9fba33702dfd214f381","s":"0xd0705be5ff9f43ccfc8b4091d7473ebdef7b0a5989e718cb7776679a09cdaed","to":"0xa0cc33dd6f4819d473226257792afe230ec3c67f","transactionIndex":"0x5","type":"0x0","v":"0x38","value":"0x0"},{"accessList":[],"blockHash":"0x07c22f546089fcd029e7822447acf2b8f78b37d9b19ee3eec3940b2dee8de135","blockNumber":"0x68b7124","chainId":"0xa","from":"0x8cfc4459394801d2ea78f9ceeb31a7f58b8cddde","gas":"0x7a120","gasPrice":"0x729b5e1","hash":"0x741ebc934a7f47ee33bae94826b79c2f9d0b685387e713202ab61f19b44c5dfd","input":"0xc9807539000000000000000000000000000000000000000000000000000000000000008000000000000000000000000000000000000000000000000000000000000002600000000000000000000000000000000000000000000000000000000000000300010101010000000000000000000000000000000000000000000000000000000000000000000000000000000000000000000000000000000000000000000001c000000000000000000000005e5789adc5f496906bf9a5ac8d0acf6b000040f90400050607040809010203000000000000000000000000000000000000000000000000000000000000000000000000000000000000000000000000000000000060000000000000000000000000000000000000000000000000000000000000000a0000000000000000000000000000000000000000000000000000027628068ed40000000000000000000000000000000000000000000000000000027628068ed4000000000000000000000000000000000000000000000000000002762df991f3000000000000000000000000000000000000000000000000000002762dffe7240000000000000000000000000000000000000000000000000000027631aecdc00000000000000000000000000000000000000000000000000000027632750260000000000000000000000000000000000000000000000000000002763e309600000000000000000000000000000000000000000000000000000002766bac3c9c000000000000000000000000000000000000000000000000000002767917cf40000000000000000000000000000000000000000000000000000002768fd520380000000000000000000000000000000000000000000000000000000000000004517aae43b1d19185b6e82776b6e755cd55aa3aacf7189e844a575e9d8456cf419742d784b0a30dc6aad4c8f509c97e296110963f4d7f7c9df873f183a7f8ef1dbf7a025b14cdd1d2ecf252903f4c945e78d0083dfda33e6d10a2681277803945e94adc0f2473fda6eb56d8bebd726be2c55dfa67aab50e1fe87292d6da6e86bd000000000000000000000000000000000000000000000000000000000000000438812e24d01fffd7db7ccc399daebf6bc29519e60acd582a672dd1e3ca1cac2d11432ec4dc147c2c5012a6e1fc458bea34bbfca2e9361e9ef63b4c11beb6e323539b61d4b6a91b3a308524912808d7e406879f10bf312d1fd165c7ed105ee7ee5a716e7b9c998ffdd1e2c6fd2379a393edf8d79a61229682c41935c465b691ac","maxFeePerGas":"0x8a8f275","maxPriorityFeePerGas":"0x3f55f35","nonce":"0x48a44","r":"0x471743ad98132cafd0e7f0fe20a6c00477e3247301d1087e64457b171944c2d5","s":"0x5eb0718c7c8c3fd92483e4266344d5b6f7f832107e2e84cb4829afd7e55bb80a","to":"0x65f2c716937fb44b2c28417a7afc2daccf1c2d61","transactionIndex":"0x6","type":"0x2","v":"0x1","value":"0x0","yParity":"0x1"},{"blockHash":"0x07c22f546089fcd029e7822447acf2b8f78b37d9b19ee3eec3940b2dee8de135","blockNumber":"0x68b7124","chainId":"0xa","from":"0x1b762095afbd2959512fea1cbe983ba60b62ec83","gas":"0x37333e","gasPrice":"0x48ca89d","hash":"0x47e30ae237d79157407885a1579d763796812916915520a9e4b7852133f5ebb9","input":"0x7612c9eb00000000000000000000000021bbd8617b781657bda902029d8d8f9488dc28d600000000000000000000000000000000000000000000000000000000000000400000000000000000000000006a29c2fc650c0d880000a86a0000000a00010001000000000000000000000000000000000000000000000000000000000107c91100000000000000000000000000000000000000000000000000000000000186a000000000000000000000000000000000000000000000000000000000001bf8570000000000000000000000004b88f06b6b1b58c675243932d35f674972194fd7000000000000000000000000cd86448666b9ebbda1da740094383bdbb37702840000000000000000000000007f5c764cbc14f9669b88837ca1490cca17c316070000000000000000000000001b762095afbd2959512fea1cbe983ba60b62ec830000000000000000000000000000000000000000000000000000000000000000000000000000000000000000000000000000000000000000000000000000018000000000000000000000000000000000000000000000000000000000000002e0000000000000000000000000000000000000000000000000000000000000036000000000000000000000000000000000000000000000000000000000000001407f5c764cbc14f9669b88837ca1490cca17c316070000000000000000000000050000000000000000000000008c835dfaa34e2ae61775e80ee29e2c724c6ae2bb0000000000000000000000000000000000000000000000000000000000000000000000000000000000000000000000000000000000000000000119f17fe16000000000000000000000000000000000000000000000000000000000000001185000000000000000000000000000000000000000000000000000000000000120fc0000000000000000000000000000000000000000000000000000000000000000000000000000000000000000000000000000000000000000000118889cae540000000000000000000000000000000000000000000000000000000000000000000000000000000000000000000000000000000000000000000000018ab1ee841c0000000000000000000000000000000000000000000000000000000000000041db69828253b903713d5a919d55adca484a0f937c200a0c818c266f257945fbe63070cd07b5b6398088ec2fa291bc70f6fe8aacf2e2a57f34be641c6fdb6803c11b000000000000000000000000000000000000000000000000000000000000000000000000000000000000000000000000000000000000000000000000000000","nonce":"0x687","r":"0x9e57994c18cf0c1dcb368963e4d270359a36b6e4000420ac2f5ac53196e555e8","s":"0x441b3237ea55590bfaf01a4e7d65046945e7c5d827974842624a384acd5e6842","to":"0x4b88f06b6b1b58c675243932d35f674972194fd7","transactionIndex":"0x7","type":"0x0","v":"0x38","value":"0x0"},{"blockHash":"0x07c22f546089fcd029e7822447acf2b8f78b37d9b19ee3eec3940b2dee8de135","blockNumber":"0x68b7124","chainId":"0xa","from":"0x491e59c255c790d4e3a53cec2632524088f1aaa4","gas":"0x493e0","gasPrice":"0x3eaa146","hash":"0xa959e145d20a49f106a687e68682f9fa018aaeb3bb1b227b9221c384012116a0","input":"0x4201008423e75d4c6a07020053c942226d1d09","nonce":"0x58c52","r":"0xd673f61f6710c3a981e7e1b5b97fe1803a788cf303d0186e7558e71a51a5626f","s":"0x9e1fc2b72e9ad3f12f12adf5c5fef9c238ab0e807f71f95f915925c46b936df","to":"0xd589484d3a27b7ce5c2c7f829eb2e1d163f95817","transactionIndex":"0x8","type":"0x0","v":"0x38","value":"0x0"},{"accessList":[],"blockHash":"0x07c22f546089fcd029e7822447acf2b8f78b37d9b19ee3eec3940b2dee8de135","blockNumber":"0x68b7124","chainId":"0xa","from":"0xe8a63b086cc7fb2f2c4b48ee03de68fc6b517bc9","gas":"0x4aea8","gasPrice":"0x369c581","hash":"0xd3df160b3a4d79b15298ff19cb5f72ee05eee4eb48602d9aa191b0b65f01a64e","input":"0xdea4ccf20000000000000000000000000000000000000000000000000de0b6b3a7640000","maxFeePerGas":"0x941a590","maxPriorityFeePerGas":"0x356ed5","nonce":"0x418","r":"0x2cb4bd48008267989d1bb76258403c2f1be87b81006d4e350487acac208568a6","s":"0x2c5678aa01d12824306de0723097f0099bee77fc0ffe747fab744c6709978494","to":"0x8e195d65b9932185fcc76db5144534e0f3597628","transactionIndex":"0x9","type":"0x2","v":"0x0","value":"0x0","yParity":"0x0"},{"accessList":[],"blockHash":"0x07c22f546089fcd029e7822447acf2b8f78b37d9b19ee3eec3940b2dee8de135","blockNumber":"0x68b7124","chainId":"0xa","from":"0x67e73ab26ce66ebeca22c8481171b2ba2c932e6b","gas":"0x2e2b1","gasPrice":"0x3682b24","hash":"0x5f292d4582714c595c10c12d1377d5173a041df325ccb577d2868d142672e6a8","input":"0x2646478b00000000000000000000000042000000000000000000000000000000000000420000000000000000000000000000000000000000000000004563918244f40000000000000000000000000000eeeeeeeeeeeeeeeeeeeeeeeeeeeeeeeeeeeeeeee000000000000000000000000000000000000000000000000000ee7437dcda06000000000000000000000000067e73ab26ce66ebeca22c8481171b2ba2c932e6b00000000000000000000000000000000000000000000000000000000000000c0000000000000000000000000000000000000000000000000000000000000007002420000000000000000000000000000000000004201ffff0158b2f113244ddc9332c46af25bc223873e68ff3d00eb94eca012ec0bbb254722fdda2ce7475875a52b01420000000000000000000000000000000000000601ffff020067e73ab26ce66ebeca22c8481171b2ba2c932e6b00000000000000000000000000000000","maxFeePerGas":"0x879c6c2","maxPriorityFeePerGas":"0x33d478","nonce":"0x196","r":"0x63d7bc0c0be062867cf1de70723773749ce7680c210309371c03a21e9b58485b","s":"0x625a0afa073970db600c53da09e40079aef4c041245783798d1b6a16330ca253","to":"0xeb94eca012ec0bbb254722fdda2ce7475875a52b","transactionIndex":"0xa","type":"0x2","v":"0x0","value":"0x0","yParity":"0x0"},{"accessList":[],"blockHash":"0x07c22f546089fcd029e7822447acf2b8f78b37d9b19ee3eec3940b2dee8de135","blockNumber":"0x68b7124","chainId":"0xa","from":"0xd03fabaae42e227bd445b8ebc0ff71337d0b390f","gas":"0xcf57","gasPrice":"0x3682b24","hash":"0x2688d96ae14c9f29f6836979dd95ddd7da60d50bbf825bb565eacb8f41ff6cd4","input":"0x095ea7b3000000000000000000000000b0d502e938ed5f4df2e681fe6e419ff29631d62b0000000000000000000000000000000000000000000000000000000129d6a4a0","maxFeePerGas":"0x879c6c2","maxPriorityFeePerGas":"0x33d478","nonce":"0x114","r":"0xc17bbafe99783510969e58474dd22fb9f1a8a98e02e42049bbbbe537bbe18964","s":"0x15a5b9c8d248837de7a5f1224ef456d476d8c22c74ca7a2c74fed91fb728d335","to":"0x7f5c764cbc14f9669b88837ca1490cca17c31607","transactionIndex":"0xb","type":"0x2","v":"0x0","value":"0x0","yParity":"0x0"},{"accessList":[],"blockHash":"0x07c22f546089fcd029e7822447acf2b8f78b37d9b19ee3eec3940b2dee8de135","blockNumber":"0x68b7124","chainId":"0xa","from":"0xe435beba6dee3d6f99392ab9568777eb8165719d","gas":"0x4018b","gasPrice":"0x3682b24","hash":"0x9b564c266aea871c14fbe120d060d1713f0ba524452906af3592360594b946f6","input":"0x0dede6c400000000000000000000000042000000000000000000000000000000000000420000000000000000000000007f5c764cbc14f9669b88837ca1490cca17c31607000000000000000000000000000000000000000000000000000000000000000000000000000000000000000000000000000000000000000000009e9f4c072087000000000000000000000000000000000000000000000007f2bc0fa43d2f9477000000000000000000000000000000000000000000000000000000000c218936000000000000000000000000e435beba6dee3d6f99392ab9568777eb8165719d00000000000000000000000000000000000000000000000000000000650ac2dc","maxFeePerGas":"0x879c6c2","maxPriorityFeePerGas":"0x33d478","nonce":"0x1f","r":"0x71fdfb1b12e80ab81af3d9e04d96ec2bcc3dc5f201d3d050f8edd883d2da6154","s":"0x14b2314974a3eb516437fd9628c6cb5b544586e3ece2c6544c09447f9745c792","to":"0x9c12939390052919af3155f41bf4160fd3666a6f","transactionIndex":"0xc","type":"0x2","v":"0x0","value":"0x0","yParity":"0x0"},{"accessList":[],"blockHash":"0x07c22f546089fcd029e7822447acf2b8f78b37d9b19ee3eec3940b2dee8de135","blockNumber":"0x68b7124","chainId":"0xa","from":"0xdb9562aa390deedf2d835ad6328e3af0b4725b61","gas":"0x6d38c","gasPrice":"0x3682b24","hash":"0xb133e815631f9bedc2bc2975830cacfb09c9af658fd2445a15e39c9c6fc8c661","input":"0x1114cd2a00000000000000000000000000000000000000000000000000000000000000b7000000000000000000000000db9562aa390deedf2d835ad6328e3af0b4725b6100000000000000000000000000000000000000000000000000000000000000a0000000000000000000000000000000000000000000000000000891b38332c000000000000000000000000000000000000000000000000000000886bb932ea8000000000000000000000000000000000000000000000000000000000000000014db9562aa390deedf2d835ad6328e3af0b4725b61000000000000000000000000","maxFeePerGas":"0x879c6c2","maxPriorityFeePerGas":"0x33d478","nonce":"0x5b","r":"0x59635042bdf968caa7233eeca965f9942a3b2eacc5389dad177b119b4c3276f4","s":"0x103dd7b31c4d3ae0f3d983893a868285f0bad52bef222a4721422ec367e66fdf","to":"0xb49c4e680174e331cb0a7ff3ab58afc9738d5f8b","transactionIndex":"0xd","type":"0x2","v":"0x1","value":"0x9e2f70e8ebb46","yParity":"0x1"},{"accessList":[],"blockHash":"0x07c22f546089fcd029e7822447acf2b8f78b37d9b19ee3eec3940b2dee8de135","blockNumber":"0x68b7124","chainId":"0xa","from":"0x279c9a491674129663c6a76f56c7ef6d262769dd","gas":"0xcf4b","gasPrice":"0x3682b24","hash":"0x24dce36bd087df7763414cc58cd400c67c60b183d8a3f971f96d1d3679ed57fa","input":"0x095ea7b30000000000000000000000001111111254eeb25477b68fb85ed929f73a96058200000000000000000000000000000000000000000000000000000000c42029d8","maxFeePerGas":"0x879c6c2","maxPriorityFeePerGas":"0x33d478","nonce":"0x10","r":"0xc02415c9fea550782ba38975994d9dbdc91da5a339780513c1756cb8f7b09d13","s":"0xd09e8c2502150033d9541d1bf56b47327a0cf46b83f499cfe29bc8115aef5b7","to":"0x7f5c764cbc14f9669b88837ca1490cca17c31607","transactionIndex":"0xe","type":"0x2","v":"0x0","value":"0x0","yParity":"0x0"},{"accessList":[],"blockHash":"0x07c22f546089fcd029e7822447acf2b8f78b37d9b19ee3eec3940b2dee8de135","blockNumber":"0x68b7124","chainId":"0xa","from":"0x34a6d54dba1ee8a99b46f54732826c91e5a2da5f","gas":"0x16405","gasPrice":"0x34398ec","hash":"0x3bbc707f42466dcd2c34972103322f895734afb3cafc8f4ab745db4c50fdb3db","input":"0x095ea7b3000000000000000000000000167e42a1c7ab4be03764a2222aac57f5f6754411ffffffffffffffffffffffffffffffffffffffffffffffffffffffffffffffff","maxFeePerGas":"0x568fe02","maxPriorityFeePerGas":"0xf4240","nonce":"0x12","r":"0x8f8447ac856a100055595965cd20aa24424114250056d5ef03990da82726e136","s":"0x5587df7adbc732729119cd04aeacb6a4bf50275ad42185a6ceafcf2a3c4a98de","to":"0x8c6f28f2f1a3c87f0f938b96d27520d9751ec8d9","transactionIndex":"0xf","type":"0x2","v":"0x0","value":"0x0","yParity":"0x0"}],"transactionsRoot":"0x3310a893c66ab8ca24391ffc611b35d48824b5620d02de0e9976f96f2875cdbe","uncles":[]},"id":
        0}

        '
    headers:
      CF-RAY:
      - 9bdf9f998f96bd34-ATL
      Cache-Control:
      - max-age=0, private, must-revalidate
      Connection:
      - keep-alive
      Content-Type:
      - application/json; charset=utf-8
      Date:
      - Wed, 14 Jan 2026 19:43:38 GMT
      Nel:
      - '{"report_to":"cf-nel","success_fraction":0.0,"max_age":604800}'
      Report-To:
      - '{"group":"cf-nel","max_age":604800,"endpoints":[{"url":"https://a.nel.cloudflare.com/report/v4?s=%2FC4DPvsmRkLRPq9Y73mDR35CmKOK%2FLQvD%2BhAto7Rq8n0%2FsUzS5PUE6iGpBD7Y1BeF%2B9cLBgHBdPnfAsbiQrrOi7MEOH2QAjhcrJeGE76U%2BFPxIwP"}]}'
      Server:
      - cloudflare
      Transfer-Encoding:
      - chunked
      access-control-allow-credentials:
      - 'true'
      access-control-allow-origin:
      - '*'
      access-control-expose-headers:
      - bypass-429-option,x-ratelimit-reset,x-ratelimit-limit,x-ratelimit-remaining,api-v2-temp-token
      alt-svc:
      - h3=":443"; ma=86400
      bypass-429-option:
      - no_bypass
      cf-cache-status:
      - DYNAMIC
      content-length:
      - '22426'
      strict-transport-security:
      - max-age=31536000; includeSubDomains
      x-ratelimit-limit:
      - '600'
      x-ratelimit-remaining:
      - '588'
      x-ratelimit-reset:
      - '21465'
      x-request-id:
      - da3f62522a1a49802436bbffba6912e5
    status:
      code: 200
      message: OK
- request:
    body: '{"id": 0, "jsonrpc": "2.0", "method": "eth_getTransactionReceipt", "params":
      ["0x9b564c266aea871c14fbe120d060d1713f0ba524452906af3592360594b946f6"]}'
    headers:
      Accept:
      - '*/*'
      Accept-Encoding:
      - gzip, deflate
      Connection:
      - keep-alive
      Content-Length:
      - '148'
      Content-Type:
      - application/json
      User-Agent:
      - rotki/1.41.2.dev441+ga56b3c0f52.d20260113
    method: POST
    uri: https://explorer.optimism.io/api/eth-rpc
  response:
    body:
      string: '{"jsonrpc":"2.0","result": {"blockHash":"0x07c22f546089fcd029e7822447acf2b8f78b37d9b19ee3eec3940b2dee8de135","blockNumber":"0x68b7124","contractAddress":null,"cumulativeGasUsed":"0x4a7c40","effectiveGasPrice":"0x3682b24","from":"0xe435beba6dee3d6f99392ab9568777eb8165719d","gasUsed":"0x2c563","logs":[{"address":"0x47029bc8f5cbe3b464004e87ef9c9419a48018cd","blockHash":"0x07c22f546089fcd029e7822447acf2b8f78b37d9b19ee3eec3940b2dee8de135","blockNumber":"0x68b7124","data":"0x0000000000000000000000000000000000000000000000000000000000000000","logIndex":"0x26","removed":false,"topics":["0x8c5be1e5ebec7d5bd14f71427d1e84f3dd0314c0f7b2291e5b200ac8c7c3b925","0x000000000000000000000000e435beba6dee3d6f99392ab9568777eb8165719d","0x0000000000000000000000009c12939390052919af3155f41bf4160fd3666a6f"],"transactionHash":"0x9b564c266aea871c14fbe120d060d1713f0ba524452906af3592360594b946f6","transactionIndex":"0xc"},{"address":"0x47029bc8f5cbe3b464004e87ef9c9419a48018cd","blockHash":"0x07c22f546089fcd029e7822447acf2b8f78b37d9b19ee3eec3940b2dee8de135","blockNumber":"0x68b7124","data":"0x00000000000000000000000000000000000000000000000000009e9f4c072087","logIndex":"0x27","removed":false,"topics":["0xddf252ad1be2c89b69c2b068fc378daa952ba7f163c4a11628f55a4df523b3ef","0x000000000000000000000000e435beba6dee3d6f99392ab9568777eb8165719d","0x00000000000000000000000047029bc8f5cbe3b464004e87ef9c9419a48018cd"],"transactionHash":"0x9b564c266aea871c14fbe120d060d1713f0ba524452906af3592360594b946f6","transactionIndex":"0xc"},{"address":"0x47029bc8f5cbe3b464004e87ef9c9419a48018cd","blockHash":"0x07c22f546089fcd029e7822447acf2b8f78b37d9b19ee3eec3940b2dee8de135","blockNumber":"0x68b7124","data":"0x00000000000000000000000000000000000000000000000000009e9f4c072087","logIndex":"0x28","removed":false,"topics":["0xddf252ad1be2c89b69c2b068fc378daa952ba7f163c4a11628f55a4df523b3ef","0x00000000000000000000000047029bc8f5cbe3b464004e87ef9c9419a48018cd","0x0000000000000000000000000000000000000000000000000000000000000000"],"transactionHash":"0x9b564c266aea871c14fbe120d060d1713f0ba524452906af3592360594b946f6","transactionIndex":"0xc"},{"address":"0x4200000000000000000000000000000000000042","blockHash":"0x07c22f546089fcd029e7822447acf2b8f78b37d9b19ee3eec3940b2dee8de135","blockNumber":"0x68b7124","data":"0x00000000000000000000000000000000000000000000000807a190d5a25f9076","logIndex":"0x29","removed":false,"topics":["0xddf252ad1be2c89b69c2b068fc378daa952ba7f163c4a11628f55a4df523b3ef","0x00000000000000000000000047029bc8f5cbe3b464004e87ef9c9419a48018cd","0x000000000000000000000000e435beba6dee3d6f99392ab9568777eb8165719d"],"transactionHash":"0x9b564c266aea871c14fbe120d060d1713f0ba524452906af3592360594b946f6","transactionIndex":"0xc"},{"address":"0x7f5c764cbc14f9669b88837ca1490cca17c31607","blockHash":"0x07c22f546089fcd029e7822447acf2b8f78b37d9b19ee3eec3940b2dee8de135","blockNumber":"0x68b7124","data":"0x000000000000000000000000000000000000000000000000000000000c406173","logIndex":"0x2a","removed":false,"topics":["0xddf252ad1be2c89b69c2b068fc378daa952ba7f163c4a11628f55a4df523b3ef","0x00000000000000000000000047029bc8f5cbe3b464004e87ef9c9419a48018cd","0x000000000000000000000000e435beba6dee3d6f99392ab9568777eb8165719d"],"transactionHash":"0x9b564c266aea871c14fbe120d060d1713f0ba524452906af3592360594b946f6","transactionIndex":"0xc"},{"address":"0x47029bc8f5cbe3b464004e87ef9c9419a48018cd","blockHash":"0x07c22f546089fcd029e7822447acf2b8f78b37d9b19ee3eec3940b2dee8de135","blockNumber":"0x68b7124","data":"0x000000000000000000000000000000000000000000000ce4ce2e159b18d35f0800000000000000000000000000000000000000000000000000000013ac34cb38","logIndex":"0x2b","removed":false,"topics":["0xcf2aa50876cdfbb541206f89af0ee78d44a2abf8d328e37fa4917f982149848a"],"transactionHash":"0x9b564c266aea871c14fbe120d060d1713f0ba524452906af3592360594b946f6","transactionIndex":"0xc"},{"address":"0x47029bc8f5cbe3b464004e87ef9c9419a48018cd","blockHash":"0x07c22f546089fcd029e7822447acf2b8f78b37d9b19ee3eec3940b2dee8de135","blockNumber":"0x68b7124","data":"0x00000000000000000000000000000000000000000000000807a190d5a25f9076000000000000000000000000000000000000000000000000000000000c406173","logIndex":"0x2c","removed":false,"topics":["0xdccd412f0b1252819cb1fd330b93224ca42612892bb3f4f789976e6d81936496","0x0000000000000000000000009c12939390052919af3155f41bf4160fd3666a6f","0x000000000000000000000000e435beba6dee3d6f99392ab9568777eb8165719d"],"transactionHash":"0x9b564c266aea871c14fbe120d060d1713f0ba524452906af3592360594b946f6","transactionIndex":"0xc"}],"logsBloom":"0x00400000000000001000008000000000000000000000000000000000000020000000000000000000000000000000000000000040000000000000000000200040000000000400000020000008000000000000000000000000000000000000000000000004020400200000000000000800000200000000000000000010000000000000000000000000000000000000080000001000000000000000000000000000020000000000004000000000000000000000000000000000000000000000000000001002000000000000000400000000008000000000000000000000000020000110000000000000000000080008000000000000000000000000000020010000","status":"0x1","to":"0x9c12939390052919af3155f41bf4160fd3666a6f","transactionHash":"0x9b564c266aea871c14fbe120d060d1713f0ba524452906af3592360594b946f6","transactionIndex":"0xc","type":"0x2"},"id":
        0}

        '
    headers:
      CF-RAY:
      - 9bdf9f9c393b675a-ATL
      Cache-Control:
      - max-age=0, private, must-revalidate
      Connection:
      - keep-alive
      Content-Type:
      - application/json; charset=utf-8
      Date:
      - Wed, 14 Jan 2026 19:43:39 GMT
      Nel:
      - '{"report_to":"cf-nel","success_fraction":0.0,"max_age":604800}'
      Report-To:
      - '{"group":"cf-nel","max_age":604800,"endpoints":[{"url":"https://a.nel.cloudflare.com/report/v4?s=K5ykd5lA1Prw53wcMMgpoGzohM%2BeJhVmbXlHZNX4OEmKIAE%2FZdNHylXfeCut5EQ6ZFM4VWZahkv%2FHGNqqv0IT5BWObgmdmvxqx4AWrV90ZbIl2rL"}]}'
      Server:
      - cloudflare
      Transfer-Encoding:
      - chunked
      access-control-allow-credentials:
      - 'true'
      access-control-allow-origin:
      - '*'
      access-control-expose-headers:
      - bypass-429-option,x-ratelimit-reset,x-ratelimit-limit,x-ratelimit-remaining,api-v2-temp-token
      alt-svc:
      - h3=":443"; ma=86400
      bypass-429-option:
      - no_bypass
      cf-cache-status:
      - DYNAMIC
      content-length:
      - '5249'
      strict-transport-security:
      - max-age=31536000; includeSubDomains
      x-ratelimit-limit:
      - '600'
      x-ratelimit-remaining:
      - '587'
      x-ratelimit-reset:
      - '20758'
      x-request-id:
      - 755de44e2eb2a0fdd2d884f8add53bcd
    status:
      code: 200
      message: OK
- request:
    body: null
    headers:
      Accept:
      - '*/*'
      Accept-Encoding:
      - gzip, deflate
      Connection:
      - keep-alive
      User-Agent:
      - rotki/1.41.2.dev441+ga56b3c0f52.d20260113
    method: GET
    uri: https://explorer.optimism.io/api/v2/transactions/0x9b564c266aea871c14fbe120d060d1713f0ba524452906af3592360594b946f6
  response:
    body:
      string: '{"l1_gas_used":"3848","priority_fee":"616855994984","raw_input":"0x0dede6c400000000000000000000000042000000000000000000000000000000000000420000000000000000000000007f5c764cbc14f9669b88837ca1490cca17c31607000000000000000000000000000000000000000000000000000000000000000000000000000000000000000000000000000000000000000000009e9f4c072087000000000000000000000000000000000000000000000007f2bc0fa43d2f9477000000000000000000000000000000000000000000000000000000000c218936000000000000000000000000e435beba6dee3d6f99392ab9568777eb8165719d00000000000000000000000000000000000000000000000000000000650ac2dc","is_pending_update":false,"op_withdrawals":[],"result":"success","hash":"0x9b564c266aea871c14fbe120d060d1713f0ba524452906af3592360594b946f6","max_fee_per_gas":"142198466","revert_reason":null,"confirmation_duration":[0,2.0e3],"transaction_burnt_fee":"9763287457924","type":2,"token_transfers_overflow":false,"confirmations":36608758,"position":12,"max_priority_fee_per_gas":"3396728","transaction_tag":null,"created_contract":null,"value":"0","l1_fee_scalar":"0.684","from":{"ens_domain_name":null,"hash":"0xe435BEbA6DEE3D6F99392ab9568777EB8165719d","implementations":[],"is_contract":false,"is_scam":false,"is_verified":false,"metadata":null,"name":null,"private_tags":[],"proxy_type":null,"public_tags":[],"reputation":"ok","watchlist_names":[]},"gas_used":"181603","status":"ok","to":{"ens_domain_name":null,"hash":"0x9c12939390052919aF3155f41Bf4160Fd3666A6f","implementations":[],"is_contract":true,"is_scam":false,"is_verified":true,"metadata":{"tags":[{"meta":{"tooltipUrl":"https://www.velodrome.finance/"},"name":"Velodrome
        Finance: Router","ordinal":10,"slug":"velodrome-finance-router","tagType":"name"},{"meta":{"projectName":"Velodrome
        Finance","tagUrl":"https://app.klerosscout.eth.limo/#/?registry=Single_Tags&itemdetails=0x0284e6da325121935929fbbc596ca8e7c59a678a5678bd0fd540c3cad488e7cc@0x66260c69d03837016d88c9877e61e08ef74c59f2","tooltipDescription":"Velodrome
        Finance''s official Router V1 contract on Optimism","tooltipUrl":"https://www.velodrome.finance/"},"name":"Router
        V1","ordinal":10,"slug":"router-v1-10","tagType":"name"},{"meta":{"appActionButtonText":"Velodrome","appID":"velodrome"},"name":"Velodrome
        Finance","ordinal":0,"slug":"velodrome-finance","tagType":"protocol"}]},"name":"Router","private_tags":[],"proxy_type":null,"public_tags":[],"reputation":"ok","watchlist_names":[]},"authorization_list":[],"l1_fee":"26669663682655","method":"removeLiquidity","fee":{"type":"actual","value":"37049807135563"},"actions":[],"gas_limit":"262539","gas_price":"57158436","decoded_input":{"method_call":"removeLiquidity(address
        tokenA, address tokenB, bool stable, uint256 liquidity, uint256 amountAMin,
        uint256 amountBMin, address to, uint256 deadline)","method_id":"0dede6c4","parameters":[{"name":"tokenA","type":"address","value":"0x4200000000000000000000000000000000000042"},{"name":"tokenB","type":"address","value":"0x7F5c764cBc14f9669B88837ca1490cCa17c31607"},{"name":"stable","type":"bool","value":"false"},{"name":"liquidity","type":"uint256","value":"174407012524167"},{"name":"amountAMin","type":"uint256","value":"146618080766842606711"},{"name":"amountBMin","type":"uint256","value":"203524406"},{"name":"to","type":"address","value":"0xe435BEbA6DEE3D6F99392ab9568777EB8165719d"},{"name":"deadline","type":"uint256","value":"1695204060"}]},"l1_gas_price":"10132727749","token_transfers":[{"block_hash":"0x07c22f546089fcd029e7822447acf2b8f78b37d9b19ee3eec3940b2dee8de135","block_number":109801764,"from":{"ens_domain_name":null,"hash":"0xe435BEbA6DEE3D6F99392ab9568777EB8165719d","implementations":[],"is_contract":false,"is_scam":false,"is_verified":false,"metadata":null,"name":null,"private_tags":[],"proxy_type":null,"public_tags":[],"reputation":"ok","watchlist_names":[]},"log_index":39,"method":null,"timestamp":null,"to":{"ens_domain_name":null,"hash":"0x47029bc8f5CBe3b464004E87eF9c9419a48018cd","implementations":[],"is_contract":true,"is_scam":false,"is_verified":true,"metadata":{"tags":[{"meta":{"bgColor":"linear-gradient(to
        right,rgba(96, 165, 250, 0.2),rgba(168, 85, 247, 0.2),rgba(236, 72, 153, 0.2));","tooltipDescription":"Provided
        by OLI"},"name":"Velodrome","ordinal":0,"slug":"velodrome","tagType":"name"}]},"name":"Pair","private_tags":[],"proxy_type":null,"public_tags":[],"reputation":"ok","watchlist_names":[]},"token":{"address_hash":"0x47029bc8f5CBe3b464004E87eF9c9419a48018cd","circulating_market_cap":null,"decimals":"18","exchange_rate":null,"holders_count":"319","icon_url":null,"name":"VolatileV1
        AMM - OP/USDC","reputation":"ok","symbol":"vAMM-OP/USDC","total_supply":"20205402089982338","type":"ERC-20","volume_24h":null},"token_type":"ERC-20","total":{"decimals":"18","value":"174407012524167"},"transaction_hash":"0x9b564c266aea871c14fbe120d060d1713f0ba524452906af3592360594b946f6","type":"token_transfer"},{"block_hash":"0x07c22f546089fcd029e7822447acf2b8f78b37d9b19ee3eec3940b2dee8de135","block_number":109801764,"from":{"ens_domain_name":null,"hash":"0x47029bc8f5CBe3b464004E87eF9c9419a48018cd","implementations":[],"is_contract":true,"is_scam":false,"is_verified":true,"metadata":{"tags":[{"meta":{"bgColor":"linear-gradient(to
        right,rgba(96, 165, 250, 0.2),rgba(168, 85, 247, 0.2),rgba(236, 72, 153, 0.2));","tooltipDescription":"Provided
        by OLI"},"name":"Velodrome","ordinal":0,"slug":"velodrome","tagType":"name"}]},"name":"Pair","private_tags":[],"proxy_type":null,"public_tags":[],"reputation":"ok","watchlist_names":[]},"log_index":40,"method":null,"timestamp":null,"to":{"ens_domain_name":null,"hash":"0x0000000000000000000000000000000000000000","implementations":[],"is_contract":false,"is_scam":false,"is_verified":false,"metadata":{"tags":[{"meta":{},"name":"Null:
        0x000...000","ordinal":10,"slug":"null-0x000000","tagType":"name"},{"meta":{},"name":"Metamask
        User","ordinal":0,"slug":"metamask-user","tagType":"generic"},{"meta":{},"name":"Imtoken
        User","ordinal":0,"slug":"imtoken-user","tagType":"generic"},{"meta":{},"name":"Miner","ordinal":0,"slug":"miner","tagType":"generic"},{"meta":{},"name":"Burn","ordinal":0,"slug":"burn","tagType":"generic"},{"meta":{"alertStatus":"info","data":"This
        address is commonly used by projects to burn tokens (reducing total supply)
        or mint tokens (increasing total supply)."},"name":"note_0","ordinal":0,"slug":"note0","tagType":"note"},{"meta":{},"name":"Null","ordinal":0,"slug":"null","tagType":"protocol"}]},"name":null,"private_tags":[],"proxy_type":null,"public_tags":[],"reputation":"ok","watchlist_names":[]},"token":{"address_hash":"0x47029bc8f5CBe3b464004E87eF9c9419a48018cd","circulating_market_cap":null,"decimals":"18","exchange_rate":null,"holders_count":"319","icon_url":null,"name":"VolatileV1
        AMM - OP/USDC","reputation":"ok","symbol":"vAMM-OP/USDC","total_supply":"20205402089982338","type":"ERC-20","volume_24h":null},"token_type":"ERC-20","total":{"decimals":"18","value":"174407012524167"},"transaction_hash":"0x9b564c266aea871c14fbe120d060d1713f0ba524452906af3592360594b946f6","type":"token_burning"},{"block_hash":"0x07c22f546089fcd029e7822447acf2b8f78b37d9b19ee3eec3940b2dee8de135","block_number":109801764,"from":{"ens_domain_name":null,"hash":"0x47029bc8f5CBe3b464004E87eF9c9419a48018cd","implementations":[],"is_contract":true,"is_scam":false,"is_verified":true,"metadata":{"tags":[{"meta":{"bgColor":"linear-gradient(to
        right,rgba(96, 165, 250, 0.2),rgba(168, 85, 247, 0.2),rgba(236, 72, 153, 0.2));","tooltipDescription":"Provided
        by OLI"},"name":"Velodrome","ordinal":0,"slug":"velodrome","tagType":"name"}]},"name":"Pair","private_tags":[],"proxy_type":null,"public_tags":[],"reputation":"ok","watchlist_names":[]},"log_index":41,"method":null,"timestamp":null,"to":{"ens_domain_name":null,"hash":"0xe435BEbA6DEE3D6F99392ab9568777EB8165719d","implementations":[],"is_contract":false,"is_scam":false,"is_verified":false,"metadata":null,"name":null,"private_tags":[],"proxy_type":null,"public_tags":[],"reputation":"ok","watchlist_names":[]},"token":{"address_hash":"0x4200000000000000000000000000000000000042","circulating_market_cap":"691005205.0304432","decimals":"18","exchange_rate":"0.355095","holders_count":"1383198","icon_url":"https://assets.coingecko.com/coins/images/25244/small/Optimism.png?1696524385","name":"Optimism","reputation":"ok","symbol":"OP","total_supply":"4294963292498750113616177748","type":"ERC-20","volume_24h":"145489237.0802175"},"token_type":"ERC-20","total":{"decimals":"18","value":"148123832466418929782"},"transaction_hash":"0x9b564c266aea871c14fbe120d060d1713f0ba524452906af3592360594b946f6","type":"token_transfer"},{"block_hash":"0x07c22f546089fcd029e7822447acf2b8f78b37d9b19ee3eec3940b2dee8de135","block_number":109801764,"from":{"ens_domain_name":null,"hash":"0x47029bc8f5CBe3b464004E87eF9c9419a48018cd","implementations":[],"is_contract":true,"is_scam":false,"is_verified":true,"metadata":{"tags":[{"meta":{"bgColor":"linear-gradient(to
        right,rgba(96, 165, 250, 0.2),rgba(168, 85, 247, 0.2),rgba(236, 72, 153, 0.2));","tooltipDescription":"Provided
        by OLI"},"name":"Velodrome","ordinal":0,"slug":"velodrome","tagType":"name"}]},"name":"Pair","private_tags":[],"proxy_type":null,"public_tags":[],"reputation":"ok","watchlist_names":[]},"log_index":42,"method":null,"timestamp":null,"to":{"ens_domain_name":null,"hash":"0xe435BEbA6DEE3D6F99392ab9568777EB8165719d","implementations":[],"is_contract":false,"is_scam":false,"is_verified":false,"metadata":null,"name":null,"private_tags":[],"proxy_type":null,"public_tags":[],"reputation":"ok","watchlist_names":[]},"token":{"address_hash":"0x7F5c764cBc14f9669B88837ca1490cCa17c31607","circulating_market_cap":"31591666.62559905","decimals":"6","exchange_rate":"0.999506","holders_count":"947636","icon_url":"https://assets.coingecko.com/coins/images/31580/small/USDC-icon.png?1696530397","name":"USD
        Coin","reputation":"ok","symbol":"USDC","total_supply":"31610451244232","type":"ERC-20","volume_24h":"2047346.2215760972"},"token_type":"ERC-20","total":{"decimals":"6","value":"205545843"},"transaction_hash":"0x9b564c266aea871c14fbe120d060d1713f0ba524452906af3592360594b946f6","type":"token_transfer"}],"base_fee_per_gas":"53761708","timestamp":"2023-09-20T09:31:45.000000Z","nonce":31,"historic_exchange_rate":"1628.1","transaction_types":["contract_call","token_transfer"],"exchange_rate":"3366.05","block_number":109801764,"has_error_in_internal_transactions":false}'
    headers:
      CF-RAY:
      - 9bdf9f9f4fffda90-ATL
      Cache-Control:
      - max-age=0, private, must-revalidate
      Connection:
      - keep-alive
      Content-Type:
      - application/json; charset=utf-8
      Date:
      - Wed, 14 Jan 2026 19:43:40 GMT
      Nel:
      - '{"report_to":"cf-nel","success_fraction":0.0,"max_age":604800}'
      Report-To:
      - '{"group":"cf-nel","max_age":604800,"endpoints":[{"url":"https://a.nel.cloudflare.com/report/v4?s=Y0iu8HTxWMSDYuuo0plg7jcfkZbDwJaornVvaTvMh8rdJMR9xAnSTjMjwOJRdHI59zcPdt%2BJ3zlyax7enFQATmL51rkJ5bkPIrQs8jwTMyBwne6t"}]}'
      Server:
      - cloudflare
      Transfer-Encoding:
      - chunked
      access-control-allow-credentials:
      - 'true'
      access-control-allow-origin:
      - '*'
      access-control-expose-headers:
      - bypass-429-option,x-ratelimit-reset,x-ratelimit-limit,x-ratelimit-remaining,api-v2-temp-token
      alt-svc:
      - h3=":443"; ma=86400
      bypass-429-option:
      - temporary_token
      cf-cache-status:
      - DYNAMIC
      content-length:
      - '10406'
      strict-transport-security:
      - max-age=31536000; includeSubDomains
      x-ratelimit-limit:
      - '600'
      x-ratelimit-remaining:
      - '586'
      x-ratelimit-reset:
      - '20536'
      x-request-id:
      - b95b7115f2a46d3b52ffdfd9955e16c3
    status:
      code: 200
      message: OK
- request:
    body: null
    headers:
      Accept:
      - '*/*'
      Accept-Encoding:
      - gzip, deflate
      Connection:
      - keep-alive
      User-Agent:
      - rotki/1.41.2.dev441+ga56b3c0f52.d20260113
    method: GET
    uri: https://explorer.optimism.io/api?action=txlistinternal&module=account&sort=asc&txhash=0x9b564c266aea871c14fbe120d060d1713f0ba524452906af3592360594b946f6
  response:
    body:
      string: '{"message":"No internal transactions found","result":[],"status":"0"}'
    headers:
      CF-RAY:
      - 9bdf9fa6c8f86471-ATL
      Cache-Control:
      - max-age=0, private, must-revalidate
      Connection:
      - keep-alive
      Content-Type:
      - application/json; charset=utf-8
      Date:
      - Wed, 14 Jan 2026 19:43:41 GMT
      Nel:
      - '{"report_to":"cf-nel","success_fraction":0.0,"max_age":604800}'
      Report-To:
      - '{"group":"cf-nel","max_age":604800,"endpoints":[{"url":"https://a.nel.cloudflare.com/report/v4?s=WKYB3JDLP2fJP2bkzw1jY0afkcwSWPfdmD0YyR%2FzqpRfug4gu9XX5CBUopABwQq5G%2F4ykaGTCLLP3gB3wXLHCbgKtKiDw1NsExnHKnyrK1edtU6l"}]}'
      Server:
      - cloudflare
      Transfer-Encoding:
      - chunked
      access-control-allow-credentials:
      - 'true'
      access-control-allow-origin:
      - '*'
      access-control-expose-headers:
      - bypass-429-option,x-ratelimit-reset,x-ratelimit-limit,x-ratelimit-remaining,api-v2-temp-token
      alt-svc:
      - h3=":443"; ma=86400
      bypass-429-option:
      - no_bypass
      cf-cache-status:
      - DYNAMIC
      content-length:
      - '69'
      strict-transport-security:
      - max-age=31536000; includeSubDomains
      x-ratelimit-limit:
      - '600'
      x-ratelimit-remaining:
      - '585'
      x-ratelimit-reset:
      - '19066'
      x-request-id:
      - ff9fa6330c8185573d938ea9ec732130
    status:
      code: 200
      message: OK
- request:
    body: '{"id": 0, "jsonrpc": "2.0", "method": "eth_call", "params": [{"to": "0xf96764f4d357A9A16AB8050D0E3abcAa67e50eF9",
      "data": "0x100f2c0000000000000000000000000047029bc8f5cbe3b464004e87ef9c9419a48018cd"},
      "latest"]}'
    headers:
      Accept:
      - '*/*'
      Accept-Encoding:
      - gzip, deflate
      Connection:
      - keep-alive
      Content-Length:
      - '211'
      Content-Type:
      - application/json
      User-Agent:
      - rotki/1.41.2.dev441+ga56b3c0f52.d20260113
    method: POST
    uri: https://explorer.optimism.io/api/eth-rpc
  response:
    body:
      string: '{"jsonrpc":"2.0","result": "0x000000000000000000000000000000000000000000000000000000000000002000000000000000000000000000000000000000000000000000000000000000a0000000000000000000000000000000000000000000000000000000000000001200000000000000000000000042000000000000000000000000000000000000420000000000000000000000007f5c764cbc14f9669b88837ca1490cca17c316070000000000000000000000000000000000000000000000000000000000000000000000000000000000000000000000000000000000000000000000000000000c76414d4d2d4f502f555344430000000000000000000000000000000000000000","id":
        0}

        '
    headers:
      CF-RAY:
      - 9bdf9fad1b895651-ATL
      Cache-Control:
      - max-age=0, private, must-revalidate
      Connection:
      - keep-alive
      Content-Type:
      - application/json; charset=utf-8
      Date:
      - Wed, 14 Jan 2026 19:43:41 GMT
      Nel:
      - '{"report_to":"cf-nel","success_fraction":0.0,"max_age":604800}'
      Report-To:
      - '{"group":"cf-nel","max_age":604800,"endpoints":[{"url":"https://a.nel.cloudflare.com/report/v4?s=UmoNQwZ%2FexpoGDYl3OMUJV5sLEiGuBdZngsjv9ueku7fkKsK%2B92R%2BxfW5lc9PNApNEUVT0q8C5ZfLK3fS70R8ziyIspXzJXcVjpEvwDkobxeEKJI"}]}'
      Server:
      - cloudflare
      Transfer-Encoding:
      - chunked
      access-control-allow-credentials:
      - 'true'
      access-control-allow-origin:
      - '*'
      access-control-expose-headers:
      - bypass-429-option,x-ratelimit-reset,x-ratelimit-limit,x-ratelimit-remaining,api-v2-temp-token
      alt-svc:
      - h3=":443"; ma=86400
      bypass-429-option:
      - no_bypass
      cf-cache-status:
      - DYNAMIC
      content-length:
      - '553'
      strict-transport-security:
      - max-age=31536000; includeSubDomains
      x-ratelimit-limit:
      - '600'
      x-ratelimit-remaining:
      - '584'
      x-ratelimit-reset:
      - '18335'
      x-request-id:
      - f19a6cedd0bcc62861492ecad7495b42
    status:
      code: 200
      message: OK
- request:
    body: '{"id": 0, "jsonrpc": "2.0", "method": "eth_call", "params": [{"to": "0x2DC0E2aa608532Da689e89e237dF582B783E552C",
      "data": "0xbce38bd7000000000000000000000000000000000000000000000000000000000000000000000000000000000000000000000000000000000000000000000000000000400000000000000000000000000000000000000000000000000000000000000003000000000000000000000000000000000000000000000000000000000000006000000000000000000000000000000000000000000000000000000000000000e0000000000000000000000000000000000000000000000000000000000000016000000000000000000000000047029bc8f5cbe3b464004e87ef9c9419a48018cd00000000000000000000000000000000000000000000000000000000000000400000000000000000000000000000000000000000000000000000000000000004313ce5670000000000000000000000000000000000000000000000000000000000000000000000000000000047029bc8f5cbe3b464004e87ef9c9419a48018cd0000000000000000000000000000000000000000000000000000000000000040000000000000000000000000000000000000000000000000000000000000000495d89b410000000000000000000000000000000000000000000000000000000000000000000000000000000047029bc8f5cbe3b464004e87ef9c9419a48018cd0000000000000000000000000000000000000000000000000000000000000040000000000000000000000000000000000000000000000000000000000000000406fdde0300000000000000000000000000000000000000000000000000000000"},
      "latest"]}'
    headers:
      Accept:
      - '*/*'
      Accept-Encoding:
      - gzip, deflate
      Connection:
      - keep-alive
      Content-Length:
      - '1299'
      Content-Type:
      - application/json
      User-Agent:
      - rotki/1.41.2.dev441+ga56b3c0f52.d20260113
    method: POST
    uri: https://explorer.optimism.io/api/eth-rpc
  response:
    body:
      string: '{"jsonrpc":"2.0","result": "0x00000000000000000000000000000000000000000000000000000000000000200000000000000000000000000000000000000000000000000000000000000003000000000000000000000000000000000000000000000000000000000000006000000000000000000000000000000000000000000000000000000000000000e000000000000000000000000000000000000000000000000000000000000001a000000000000000000000000000000000000000000000000000000000000000010000000000000000000000000000000000000000000000000000000000000040000000000000000000000000000000000000000000000000000000000000002000000000000000000000000000000000000000000000000000000000000000120000000000000000000000000000000000000000000000000000000000000001000000000000000000000000000000000000000000000000000000000000004000000000000000000000000000000000000000000000000000000000000000600000000000000000000000000000000000000000000000000000000000000020000000000000000000000000000000000000000000000000000000000000000c76414d4d2d4f502f55534443000000000000000000000000000000000000000000000000000000000000000000000000000000000000000000000000000000010000000000000000000000000000000000000000000000000000000000000040000000000000000000000000000000000000000000000000000000000000006000000000000000000000000000000000000000000000000000000000000000200000000000000000000000000000000000000000000000000000000000000018566f6c6174696c65563120414d4d202d204f502f555344430000000000000000","id":
        0}

        '
    headers:
      CF-RAY:
      - 9bdf9faf6b86c158-ATL
      Cache-Control:
      - max-age=0, private, must-revalidate
      Connection:
      - keep-alive
      Content-Type:
      - application/json; charset=utf-8
      Date:
      - Wed, 14 Jan 2026 19:43:42 GMT
      Nel:
      - '{"report_to":"cf-nel","success_fraction":0.0,"max_age":604800}'
      Report-To:
      - '{"group":"cf-nel","max_age":604800,"endpoints":[{"url":"https://a.nel.cloudflare.com/report/v4?s=HQZlGhiUldP5mpGCv3rwXI6EmnOx9ZbhG2MftmXVvA01d1ZpxvbPNm4cCAipy9IPxRyrhEttKbqaVF9ymGs3dEBhVkbcCqLuBXFszNlDar%2BQs6au"}]}'
      Server:
      - cloudflare
      Transfer-Encoding:
      - chunked
      access-control-allow-credentials:
      - 'true'
      access-control-allow-origin:
      - '*'
      access-control-expose-headers:
      - bypass-429-option,x-ratelimit-reset,x-ratelimit-limit,x-ratelimit-remaining,api-v2-temp-token
      alt-svc:
      - h3=":443"; ma=86400
      bypass-429-option:
      - no_bypass
      cf-cache-status:
      - DYNAMIC
      content-length:
      - '1385'
      strict-transport-security:
      - max-age=31536000; includeSubDomains
      x-ratelimit-limit:
      - '600'
      x-ratelimit-remaining:
      - '583'
      x-ratelimit-reset:
      - '17964'
      x-request-id:
      - d4fd89a0714201c35f6b46ccf761353b
    status:
      code: 200
      message: OK
version: 1
