interactions:
- request:
    body: '{"id": 0, "jsonrpc": "2.0", "method": "eth_getTransactionByHash", "params":
      ["0x81351bf9ca6d78bff92d2b714d68dd7c785bb70de0e250bc7bc6ab073736d1ce"]}'
    headers:
      Accept:
      - '*/*'
      Accept-Encoding:
      - gzip, deflate
      Connection:
      - keep-alive
      Content-Length:
      - '147'
      Content-Type:
      - application/json
      User-Agent:
      - rotki/1.41.2.dev441+ga56b3c0f52.d20260113
    method: POST
    uri: https://explorer.optimism.io/api/eth-rpc
  response:
    body:
      string: '{"jsonrpc":"2.0","result": {"accessList":[],"blockHash":"0xbd231cda0c3a9a35678858a46dd9a01ffa2244a3f065e66bff696362c9501caf","blockNumber":"0x6876fa5","chainId":"0xa","from":"0x78c13393aee675dd7ed07ce992210750d1f5db88","gas":"0x38478","gasPrice":"0x221","hash":"0x81351bf9ca6d78bff92d2b714d68dd7c785bb70de0e250bc7bc6ab073736d1ce","input":"0x0dede6c40000000000000000000000004200000000000000000000000000000000000006000000000000000000000000420000000000000000000000000000000000004200000000000000000000000000000000000000000000000000000000000000000000000000000000000000000000000000000000000000000132a5cdbf99db850000000000000000000000000000000000000000000000000008bf631a21e2c40000000000000000000000000000000000000000000000002927a46cdbdaf63000000000000000000000000078c13393aee675dd7ed07ce992210750d1f5db88000000000000000000000000000000000000000000000000000000006502bffd","maxFeePerGas":"0x2a1","maxPriorityFeePerGas":"0x1e0","nonce":"0x13","r":"0xd3db476a85ac572fb53e346e228c94551b3618f4550d2e1d402ce533ebd24769","s":"0x68ee237d7640059209c1ecb1f92d0f90ad41a8984f1998e7763f3b35d0c05aa2","to":"0xa062ae8a9c5e11aaa026fc2670b0d65ccc8b2858","transactionIndex":"0x7","type":"0x2","v":"0x0","value":"0x0","yParity":"0x0"},"id":
        0}

        '
    headers:
      CF-RAY:
      - 9bdfa0249fdab6c2-ATL
      Cache-Control:
      - max-age=0, private, must-revalidate
      Connection:
      - keep-alive
      Content-Type:
      - application/json; charset=utf-8
      Date:
      - Wed, 14 Jan 2026 19:44:00 GMT
      Nel:
      - '{"report_to":"cf-nel","success_fraction":0.0,"max_age":604800}'
      Report-To:
      - '{"group":"cf-nel","max_age":604800,"endpoints":[{"url":"https://a.nel.cloudflare.com/report/v4?s=SJzs0kjO8%2BeewCCsjRVhwtRrcOHQv6d1xwkFzIqqIHinH29XYYHsvarVjfSIFwG52m1Kx0X47d3v6pahSRRjOp47d7Ysv7uAl175BEdxGMRMQdoi"}]}'
      Server:
      - cloudflare
      Transfer-Encoding:
      - chunked
      access-control-allow-credentials:
      - 'true'
      access-control-allow-origin:
      - '*'
      access-control-expose-headers:
      - bypass-429-option,x-ratelimit-reset,x-ratelimit-limit,x-ratelimit-remaining,api-v2-temp-token
      alt-svc:
      - h3=":443"; ma=86400
      bypass-429-option:
      - no_bypass
      cf-cache-status:
      - DYNAMIC
      content-length:
      - '1216'
      strict-transport-security:
      - max-age=31536000; includeSubDomains
      x-ratelimit-limit:
      - '600'
      x-ratelimit-remaining:
      - '599'
      x-ratelimit-reset:
      - '59214'
      x-request-id:
      - b2159cc4202950e84cac5d0deba25436
    status:
      code: 200
      message: OK
- request:
    body: '{"id": 0, "jsonrpc": "2.0", "method": "eth_getBlockByNumber", "params":
      ["0x6876fa5", true]}'
    headers:
      Accept:
      - '*/*'
      Accept-Encoding:
      - gzip, deflate
      Connection:
      - keep-alive
      Content-Length:
      - '92'
      Content-Type:
      - application/json
      User-Agent:
      - rotki/1.41.2.dev441+ga56b3c0f52.d20260113
    method: POST
    uri: https://explorer.optimism.io/api/eth-rpc
  response:
    body:
      string: '{"jsonrpc":"2.0","result": {"baseFeePerGas":"0x41","difficulty":"0x0","extraData":"0x","gasLimit":"0x1c9c380","gasUsed":"0x3185f7","hash":"0xbd231cda0c3a9a35678858a46dd9a01ffa2244a3f065e66bff696362c9501caf","logsBloom":"0x0200004056848000440100a00000440080004a4081010001204c0801452000508404908020200200020400110058002008018040801310420000020200e200410040802001080008204024a920a02040a4834000010800080100000880020000000404000604000100c0000000000a010020904040004202008008990081001c00000004004003011080021000002004801c3481ac20400000044080188040000600000050004b2000083004000014000821804020000601008000c0081020004000100200208d00000000460040220000c010500180020004002000000020003410a0010600000101000000820211401081240000a020400022402208118040","miner":"0x4200000000000000000000000000000000000011","mixHash":"0x61297a9abc2f18ee733854011f00b26bce9e045e70eaefbfc6e5e98affab6eaa","nonce":"0x0000000000000000","number":"0x6876fa5","parentHash":"0x7f88be9fe0b362c9898457a5b0299ebc7e8bb7e0e453d1efe6e50b90ea6ac6b4","receiptsRoot":"0xc1106594c458b55f9e2e6c6627d027400a1fb66c69e083dc4fa55f43f3169023","sha3Uncles":"0x1dcc4de8dec75d7aab85b567b6ccd41ad312451b948a7413f0a142fd40d49347","size":"0x1a87","stateRoot":"0xa9e7986f2265f787f9f8fea77bb30e75a619c7fdfda554ba7ef4859c98e1aa8d","timestamp":"0x6502b903","transactions":[{"blockHash":"0xbd231cda0c3a9a35678858a46dd9a01ffa2244a3f065e66bff696362c9501caf","blockNumber":"0x6876fa5","from":"0xdeaddeaddeaddeaddeaddeaddeaddeaddead0001","gas":"0xf4240","gasPrice":"0x0","hash":"0xf5eb80e0eba753caac349e7b39c44ab4a26a61da6fb5c00bc6ae70f03b59e21d","input":"0x015d8eb9000000000000000000000000000000000000000000000000000000000114b05e000000000000000000000000000000000000000000000000000000006502b8b70000000000000000000000000000000000000000000000000000000248aff0b8cd5b5930664168e74d5e0a5cb68688c5f160711016acaa02f4bde6247e8178b900000000000000000000000000000000000000000000000000000000000000030000000000000000000000006887246668a3b87f54deb3b94ba47a6f63f3298500000000000000000000000000000000000000000000000000000000000000bc00000000000000000000000000000000000000000000000000000000000a6fe0","mint":"0x0","nonce":"0x41ad2d","r":"0x0","s":"0x0","sourceHash":"0x0d969169540810ef1bc9265009a1773aa8395b0e99015e3096e58177194a11d3","to":"0x4200000000000000000000000000000000000015","transactionIndex":"0x0","type":"0x7e","v":"0x0","value":"0x0","yParity":"0x0"},{"accessList":[],"blockHash":"0xbd231cda0c3a9a35678858a46dd9a01ffa2244a3f065e66bff696362c9501caf","blockNumber":"0x6876fa5","chainId":"0xa","from":"0xc78a0fc7887844775f07191ca921065ecc9e6f6e","gas":"0x22d4c9","gasPrice":"0x59682f41","hash":"0xf96475480e9cb53018fc3b0d87c80a04fc5d767412821b8c27c3358fb4e84a5c","input":"0x256f333a0000000000000000000000000000000000000000000000000000000000000060000000000000000000000000000000000000000000000000000000000000078000000000000000000000000000000000000000000000000000000000000007c00000000000000000000000000000000000000000000000000000000000000001000000000000000000000000000000000000000000000000000000000000002000000000000000000000000000000000000000000000000000000000000006b301000000030d0058bc5ed429b0846c486ce1cd82ccbf6b5f494203d42d0dc4e7c7aff8200c95f5238b373103fa6fd766a2b72ac5ea47427ebd10e472ca04ea008a59fee3db420801025a90104b360dc3694fedba7d9db5bc867a25e10d18c2e1e5051464c8029a5ea33d2c61fad4c52cf7ef789b700ad07fd619b63a043afd468cadab9a4febeb22e9010462d3ab3fbe0e5e5de2e2982fa86340ef82ea1d5195bf3abce85752707ee71d1d19ca5a89d8f0abec3d44bb0bdb710b9f052a0d456626ff64beb1c6bfeacd3b1b01080c99603368082a82eae34c349efb2c7cc0387ca3eb9bdbfd706444a7d3ca80df2abd0f9199ac5eec31ee8d90038384aa62bce6a3042ca56ed8ec9f62072a9c1b0109c6a27ee2deab916c617c67dc086603d9d7e6668378bd73c3ef537a47d6e000fe06b2fd80eec2f217eb253da47123e9a63321547bb8ea62ede282ff1cc8840b3b010a9a711f65ee385fc83e7741a445c4a7b60a54411573a52f79a636ebd07883190509db028678b8c74935b466f4cc21f8a8e83de349a92014cf72a7cc63cdac72b6000baad48d878f3bae52b7d6a45dbb28e839e6f43a91fd6b57b1a79f25d4e1e8e7f00f6ee483c3687996042ac1963c78f0b049fe5a5550beff27d465481fdc042970000d8076251ec6d5502b0eaea908c8a6293fd060d7de9f7367dc3d35633876b0a0041f9d8a03aa24bca49501ac7cb980934ce5beb0754f0b5ac29492cade6d6ed4bb010ea42345954a3df0f5ea917e46d76c6af4816993ff6fa8ccaad8bf47f365d7d0716b49ebfeda50d190ceab331345cc9c7ead8f27dde3e71e69a57901c747aec9cc000f82dd1f747706bb45cf88f50c191248bce4eb1d0e9ecbef1cbd327fd24a3fe2a74a1b7289b9fb17ab3fb9c8706d318b42f98b08633552b41f6154fd908d1a6eb5011019baa3b06e8a07d2d990eefcce57874106fbdc39fa4bb9c61a7418cfe878b1e1165c0b31a1caf55b9bd3d3dd8030957921e45d5f6375e42d028330e494687c8301118dd5d363b17ec7b5d76e9e526d8dfb2bc6c2c34a2adf2d4bdd8d462d664007b168ec4e9ba11cdd5ba607548434660a6309d33473cee452bf04777f962957225b01125dec748e5f8cfd6cc22d3f9b7e40b81cd9e6b5f0fea9026d8a0e9c556e932a4b1764250497676801451105c1fe4efd735c9c0b19cd79768d81623fa207f7a257006502b8fb00000000001af8cd23c2ab91237730770bbea08d61005cdda0984348f3f6eecb559638c0bba0000000002714c2d70150325748000300010001020005009d04028fba493a357ecde648d51375a445ce1cb9681da1ea11e562b53522a5d3877f981f906d7cfe93f618804f1de89e0199ead306edc022d3230b3e8305f391b000000025af810450000000000d996a30fffffff800000025a0b2fe38000000000a506566010000000c0000000f000000006502b8fb000000006502b8fb000000006502b8fa00000025af9c06dd000000000c401c3d000000006502b8f9e6c020c1a15366b779a8c870e065023657c88c82b82d58a9fe856896a4034b0415ecddd26d49e1a8f1de9376ebebc03916ede873447c1255d2d5891b92ce5717000000278bac0bec000000000d5a782cfffffff8000000277c825200000000000b3dbb3a010000000a0000000c000000006502b8fb000000006502b8fb000000006502b8fa000000278d253370000000000ed39faf000000006502b8f9c67940be40e0cc7ffaa1acb08ee3fab30955a197da1ec297ab133d4d43d86ee6ff61491a931112ddf1bd8147cd1b641375f79f5825126d665480874634fd0ace00000025b9f2fff60000000003f6b50afffffff800000025a9c6c108000000000430093d010000001d00000020000000006502b8fb000000006502b8fb000000006502b8fa00000025b9f30b1800000000048f4067000000006502b8fa8d7c0971128e8a4764e757dedb32243ed799571706af3a68ab6a75479ea524ff846ae1bdb6300b817cee5fdee2a6da192775030db5615b94a465f53bd40850b500000025b5ce9688000000000c229c3dfffffff800000025a68fb1e8000000000b76e48e010000000d0000000e000000006502b8fb000000006502b8fa000000006502b8fa00000025b572f580000000000bc6fb35000000006502b8f9543b71a4c292744d3fcf814a2ccda6f7c00f283d457f83aa73c41e9defae034ba0255134973f4fdf2f8f7808354274a3b1ebc6ee438be898d045e8b56ba1fe1300000000000000000000000000000000fffffff800000000000000000000000000000000000000000400000008000000006502b8fb000000006502b8fa0000000000000000000000000000000000000000000000000000000000000000000000000000000000000000000000000000000000000000000000000000000000000000000000000000000001000000000000000000000000a005772371252981647825fbc1de929c9589c49a00000000000000000000000000000000000000000000000000000000000000010000000000000000000000000000000000000000000000000000000000000276","maxFeePerGas":"0x59682f4e","maxPriorityFeePerGas":"0x59682f00","nonce":"0x784","r":"0xf12099af296368c50609399b68267eb800aeceb9adac5ee131e6eaca105b76d0","s":"0x2341632355f94cd16c47ac34a0a34949d03613081b18151bf92739252adf8645","to":"0x12ead486199115d1470d43db5d16e606ab3c1043","transactionIndex":"0x1","type":"0x2","v":"0x0","value":"0x0","yParity":"0x0"},{"accessList":[],"blockHash":"0xbd231cda0c3a9a35678858a46dd9a01ffa2244a3f065e66bff696362c9501caf","blockNumber":"0x6876fa5","chainId":"0xa","from":"0x0df79e0983af9f2d2902876e0d621df945275477","gas":"0xf07e","gasPrice":"0x5f5e141","hash":"0x5ea17ba0ddd5381bff8293c7ae6cea9cd2b3930ae1a9e062b4a4f649a757f3c5","input":"0x095ea7b3000000000000000000000000b2c04c55979b6ca7eb10e666933de5ed84e6876b00000000000000000000000000000000000000000000000000000000004b0e83","maxFeePerGas":"0x5f5e149","maxPriorityFeePerGas":"0x5f5e100","nonce":"0x3","r":"0x2258c4306269b5aee3a5cbe732f8caea11f4ce15052e911611e381f178c94ab4","s":"0x514ba964ec8df96dafebe76d19ae410bb05ebb27394ea4ded581215488e43c7c","to":"0xad17a225074191d5c8a37b50fda1ae278a2ee6a2","transactionIndex":"0x2","type":"0x2","v":"0x0","value":"0x0","yParity":"0x0"},{"blockHash":"0xbd231cda0c3a9a35678858a46dd9a01ffa2244a3f065e66bff696362c9501caf","blockNumber":"0x6876fa5","chainId":"0xa","from":"0x1d1949e7ea9df5b9f4c7a0102c0976dbdc85455f","gas":"0x330a6","gasPrice":"0x5f5e100","hash":"0xfbe49c66b939a87ff0a953c02b2ce7e3ec298fdf9ba5c47d2dc947e6c1099fcd","input":"0xd6403f8f33a8a6d815ab8a3881ce4e4e68c0569900fda42cb11b9bfe6e2ecead90116a14d9fe14fcef0000000297cccbf19784d6e95ea3746cc7ddf7dd2760cd01a2dda16792f6b32992d17f4d037b1c9ef8644fcb335ed9e1569a01fea9970c9f2e5418bb090f978b96c8ff819aa30c6296ed2b1205970cdcfecf72fe4c2f3ce7828c1b7b72b961390088c9ecaa57c8007b4dc5261ded0b73a2d4e1be470000000029a2241af62c0000d0757c4f2fe857613d107042dd93b83efafc3ffdf64415296e6b9575607670608ea430bd91369913887f791c2b7317c2a9408ba8ad21a022a3bbd33136cad7e46b8f1b7ad47052f65f7c6d86a065c4be40f8911b009c4fe3f7556b71ea60b2d44e455961c998639bd500000000f5c268a312a785b639b4dba5d204f144752e425dd93fc50d9e18d8e58840e2e01ada8fbcbbcb25f748ca43748074a28cb7ef6f4719f163f872f5bb858d7534ea53560cc5558afe46bd3993d80002e620a33f14e00c8ae12200fac2ff03b375f89aff36da8334d6b464e622e0f73930619b000000000000000000000edcc4d0d81dee32f3efc23fa1720d792dd6c814db4a224a31b36705af9285b4c766ff10bed3b402363ad79eb33d8df49a487402fc4a15758d0d2a4bd06d9862b41c","nonce":"0x7758d","r":"0xbc8f4870afbd33c21ec73404123141e3f78629a645e678e58daadeb0a7fcc7db","s":"0x778b6ee69fd828bc1e58c808fb49b9cf36133504e57cb2a808314dba6a3aa95a","to":"0x2800f6eb0d1c000000819e0000008ac70c00b97b","transactionIndex":"0x3","type":"0x0","v":"0x37","value":"0x0"},{"accessList":[],"blockHash":"0xbd231cda0c3a9a35678858a46dd9a01ffa2244a3f065e66bff696362c9501caf","blockNumber":"0x6876fa5","chainId":"0xa","from":"0xacd03d601e5bb1b275bb94076ff46ed9d753435a","gas":"0xa212","gasPrice":"0x4c4b81","hash":"0xba6b872a36d44902e9bf9d69d05e0d325de7a5ef698a9d1bd3d9e7428bda592a","input":"0xa9059cbb000000000000000000000000ccfbd33122354c8d5a1479fd3759095955dae1390000000000000000000000000000000000000000000000000000000003567e00","maxFeePerGas":"0x12a05f200","maxPriorityFeePerGas":"0x4c4b40","nonce":"0x105681","r":"0xb8d557a4ac06ad7e8efeecf5f8d7e5ed3e15f2457ac18e4b51428ea49927f6e2","s":"0x650108a7136bbafb9613f4a22c17ca25dd0fc3791b20f78a6f59540c34bcbda9","to":"0x7f5c764cbc14f9669b88837ca1490cca17c31607","transactionIndex":"0x4","type":"0x2","v":"0x1","value":"0x0","yParity":"0x1"},{"accessList":[],"blockHash":"0xbd231cda0c3a9a35678858a46dd9a01ffa2244a3f065e66bff696362c9501caf","blockNumber":"0x6876fa5","chainId":"0xa","from":"0xb834ed914228b68b0e1f3e4f1e168ed2b580a35c","gas":"0x7a120","gasPrice":"0x2bb","hash":"0x8b5e8c3d27b5c6160761871716caaa7b938f4020897859a8d487581a6b92c64b","input":"0xc9807539000000000000000000000000000000000000000000000000000000000000008000000000000000000000000000000000000000000000000000000000000002600000000000000000000000000000000000000000000000000000000000000300010100000000000000000000000000000000000000000000000000000000000000000000000000000000000000000000000000000000000000000000000001c0000000000000000000000019f106b6a12e040f48e5fe41598637ff000028940109010302000406070508000000000000000000000000000000000000000000000000000000000000000000000000000000000000000000000000000000000060000000000000000000000000000000000000000000000000000000000000000a00000000000000000000000000000000000000000000000000000000028858900000000000000000000000000000000000000000000000000000000002886922000000000000000000000000000000000000000000000000000000000288692200000000000000000000000000000000000000000000000000000000028874610000000000000000000000000000000000000000000000000000000002887fa00000000000000000000000000000000000000000000000000000000002887fa00000000000000000000000000000000000000000000000000000000002887fa00000000000000000000000000000000000000000000000000000000002887fa0000000000000000000000000000000000000000000000000000000000288a417000000000000000000000000000000000000000000000000000000000288a4170000000000000000000000000000000000000000000000000000000000000004479ee81f6879bb0d97d7244df39ffc255fd0c40e15e46c2e9bb8021ad9e3511913c1818a8b2a4146fa0d61c97f005e48fb74d7b5ad85d8dba3c88fbc3add5a76625804f3832bc9a87b42c10829e9a02fa61d01bffc31d8c08fcbd47f5df01917863d10806763a1c6c3c4bcc73c73e93cd3ea6258c5ca4400c15824ddca319b9a0000000000000000000000000000000000000000000000000000000000000004481a9d9387ef675a98daf1fbbfef03eb3ab813a8cc289b09947e8b986addac0959520ce522a631791e3cc6a49e420e0c37cbd94792790f45434a829ed889a86663fc0341fbe0137b861b173d1387a39437520dd9c948ce3e4b8d6864878662a55f315fbae5bfbfc3fe15f6dbba4bd3d659f11f8444d418e37967388896cf0a9c","maxFeePerGas":"0x2e2","maxPriorityFeePerGas":"0x27a","nonce":"0x665ca","r":"0x83b527e2cd263c6363362cc1a387a4672940c6373c8af72b4277e7ce25349855","s":"0x4fcbac50367b108ff5b5c908334b64d7863bca20606288fb2a2d268193a5acd0","to":"0xc1c4a83d4707878d6d86c8d9c3f45c4d48473aa9","transactionIndex":"0x5","type":"0x2","v":"0x1","value":"0x0","yParity":"0x1"},{"accessList":[],"blockHash":"0xbd231cda0c3a9a35678858a46dd9a01ffa2244a3f065e66bff696362c9501caf","blockNumber":"0x6876fa5","chainId":"0xa","from":"0xac9939303a24ea2ac89c1ab4517b3812ba23e275","gas":"0x7017d","gasPrice":"0x2a8","hash":"0x2579eb87ee742cd4cdba91040ef9796db500b4516020045e6256991a31898706","input":"0x1114cd2a000000000000000000000000000000000000000000000000000000000000006e000000000000000000000000ac9939303a24ea2ac89c1ab4517b3812ba23e27500000000000000000000000000000000000000000000000000000000000000a00000000000000000000000000000000000000000000000000007702ed661c442000000000000000000000000000000000000000000000000000766a97bb5c1ff0000000000000000000000000000000000000000000000000000000000000014ac9939303a24ea2ac89c1ab4517b3812ba23e275000000000000000000000000","maxFeePerGas":"0x32d","maxPriorityFeePerGas":"0x267","nonce":"0x1","r":"0xb9347460146499349276bd290d29d0dd6db305772e5a707f04207b4b81d6a77b","s":"0x7ecd02a20b666b8e5628d34a9b236d8306a8579229967ba45ac77c7ace884aef","to":"0xb49c4e680174e331cb0a7ff3ab58afc9738d5f8b","transactionIndex":"0x6","type":"0x2","v":"0x0","value":"0x8b34992865be2","yParity":"0x0"},{"accessList":[],"blockHash":"0xbd231cda0c3a9a35678858a46dd9a01ffa2244a3f065e66bff696362c9501caf","blockNumber":"0x6876fa5","chainId":"0xa","from":"0x78c13393aee675dd7ed07ce992210750d1f5db88","gas":"0x38478","gasPrice":"0x221","hash":"0x81351bf9ca6d78bff92d2b714d68dd7c785bb70de0e250bc7bc6ab073736d1ce","input":"0x0dede6c40000000000000000000000004200000000000000000000000000000000000006000000000000000000000000420000000000000000000000000000000000004200000000000000000000000000000000000000000000000000000000000000000000000000000000000000000000000000000000000000000132a5cdbf99db850000000000000000000000000000000000000000000000000008bf631a21e2c40000000000000000000000000000000000000000000000002927a46cdbdaf63000000000000000000000000078c13393aee675dd7ed07ce992210750d1f5db88000000000000000000000000000000000000000000000000000000006502bffd","maxFeePerGas":"0x2a1","maxPriorityFeePerGas":"0x1e0","nonce":"0x13","r":"0xd3db476a85ac572fb53e346e228c94551b3618f4550d2e1d402ce533ebd24769","s":"0x68ee237d7640059209c1ecb1f92d0f90ad41a8984f1998e7763f3b35d0c05aa2","to":"0xa062ae8a9c5e11aaa026fc2670b0d65ccc8b2858","transactionIndex":"0x7","type":"0x2","v":"0x0","value":"0x0","yParity":"0x0"},{"accessList":[],"blockHash":"0xbd231cda0c3a9a35678858a46dd9a01ffa2244a3f065e66bff696362c9501caf","blockNumber":"0x6876fa5","chainId":"0xa","from":"0xd4d6929a2c13e2f9a2fe70d040d74385147787dd","gas":"0xa6193","gasPrice":"0x221","hash":"0xc579711965877c8b3d18abe78356d1c6c3d28fbe77b9635faf1f268ccf8317d8","input":"0x88cd821e0000000000000000000000000000000000000000000000002f2f39fc6c540000000000000000000000000000000000000000000000000005bfe1d6ae47b12a5d00000000000000000000000000000000000000000000000000000000000000a0000000000000000000000000d4d6929a2c13e2f9a2fe70d040d74385147787dd000000000000000000000000000000000000000000000000000000006502c00200000000000000000000000000000000000000000000000000000000000000030000000000000000000000004200000000000000000000000000000000000042000000000000000000000000676f784d19c7f1ac6c6beaeaac78b02a734278520000000000000000000000000000000000000000000000000000000000000000000000000000000000000000f1046053aa5682b4f9a81b5481394da16be5ff5a000000000000000000000000676f784d19c7f1ac6c6beaeaac78b02a7342785200000000000000000000000074ccbe53f77b08632ce0cb91d3a545bf6b8e09790000000000000000000000000000000000000000000000000000000000000000000000000000000000000000f1046053aa5682b4f9a81b5481394da16be5ff5a00000000000000000000000074ccbe53f77b08632ce0cb91d3a545bf6b8e09790000000000000000000000009560e827af36c94d2ac33a39bce1fe78631088db0000000000000000000000000000000000000000000000000000000000000000000000000000000000000000f1046053aa5682b4f9a81b5481394da16be5ff5a","maxFeePerGas":"0x2a1","maxPriorityFeePerGas":"0x1e0","nonce":"0x168","r":"0xc7ded42c37202b4826fe5d42435a07f146dc8d32d6f57a372cf1b2ebd19d152c","s":"0x2e5fdba05d2d46f6a130344c863dee0d6a60202b116933771cb2e3dff9afb814","to":"0xa062ae8a9c5e11aaa026fc2670b0d65ccc8b2858","transactionIndex":"0x8","type":"0x2","v":"0x1","value":"0x0","yParity":"0x1"},{"accessList":[],"blockHash":"0xbd231cda0c3a9a35678858a46dd9a01ffa2244a3f065e66bff696362c9501caf","blockNumber":"0x6876fa5","chainId":"0xa","from":"0xa1ec458781fe792aa33a376d10af142962d63e7f","gas":"0xcf3f","gasPrice":"0x221","hash":"0x3d0347ffa5924595c309ca501a3dfbb799b4dad65276ddd20dd562af5ff0de3a","input":"0x095ea7b3000000000000000000000000b0d502e938ed5f4df2e681fe6e419ff29631d62b00000000000000000000000000000000000000000000000000000000006e812e","maxFeePerGas":"0x2a1","maxPriorityFeePerGas":"0x1e0","nonce":"0x15","r":"0xd03fb2c5bb5c6136c5991354982c0d5fd0177b9a05f856e1c3f98b8875752472","s":"0x1a85364c24399184cf6b1e94644023c8e6fa5d9b09ff6cd7d18dff0bf09433af","to":"0x7f5c764cbc14f9669b88837ca1490cca17c31607","transactionIndex":"0x9","type":"0x2","v":"0x0","value":"0x0","yParity":"0x0"},{"accessList":[],"blockHash":"0xbd231cda0c3a9a35678858a46dd9a01ffa2244a3f065e66bff696362c9501caf","blockNumber":"0x6876fa5","chainId":"0xa","from":"0xbdc657528bf004df0f9a2cfda03f2a260c9fc12a","gas":"0xcf57","gasPrice":"0x221","hash":"0xcb60f4860d725ff0cb640e71304f204497ab422573a39291ae45508407748ca3","input":"0x095ea7b3000000000000000000000000b0d502e938ed5f4df2e681fe6e419ff29631d62b00000000000000000000000000000000000000000000000000000001648d9028","maxFeePerGas":"0x29e","maxPriorityFeePerGas":"0x1e0","nonce":"0x24","r":"0xa4741d473896df994ea61421c4dc17d628446e6e5fb96f179d9976d1dad3febf","s":"0x48810586b19e35dcefe5a414cacfe114af98e2e90799425170c067a13e0fcdd6","to":"0x7f5c764cbc14f9669b88837ca1490cca17c31607","transactionIndex":"0xa","type":"0x2","v":"0x0","value":"0x0","yParity":"0x0"}],"transactionsRoot":"0xc8ad924300c21905a1317f2d025407d4b5b0337d1d19b5bed2ddac034e6bf554","uncles":[]},"id":
        0}

        '
    headers:
      CF-RAY:
      - 9bdfa0262bb8b0cf-ATL
      Cache-Control:
      - max-age=0, private, must-revalidate
      Connection:
      - keep-alive
      Content-Type:
      - application/json; charset=utf-8
      Date:
      - Wed, 14 Jan 2026 19:44:01 GMT
      Nel:
      - '{"report_to":"cf-nel","success_fraction":0.0,"max_age":604800}'
      Report-To:
      - '{"group":"cf-nel","max_age":604800,"endpoints":[{"url":"https://a.nel.cloudflare.com/report/v4?s=9E59QB1f5fznw2u98oyb68Q6sKNZWC5JUPna2e77h%2BKvlm7u3IoNDtxksHPi4ynH%2BW9UiNmjXqAVGYTKawx7mJJPi4FTYOlqG8MjwUf%2B4BeaqYj2"}]}'
      Server:
      - cloudflare
      Transfer-Encoding:
      - chunked
      access-control-allow-credentials:
      - 'true'
      access-control-allow-origin:
      - '*'
      access-control-expose-headers:
      - bypass-429-option,x-ratelimit-reset,x-ratelimit-limit,x-ratelimit-remaining,api-v2-temp-token
      alt-svc:
      - h3=":443"; ma=86400
      bypass-429-option:
      - no_bypass
      cf-cache-status:
      - DYNAMIC
      content-length:
      - '18642'
      strict-transport-security:
      - max-age=31536000; includeSubDomains
      x-ratelimit-limit:
      - '600'
      x-ratelimit-remaining:
      - '598'
      x-ratelimit-reset:
      - '58962'
      x-request-id:
      - d828f4421d077966914931c3d055f2a6
    status:
      code: 200
      message: OK
- request:
    body: '{"id": 0, "jsonrpc": "2.0", "method": "eth_getTransactionReceipt", "params":
      ["0x81351bf9ca6d78bff92d2b714d68dd7c785bb70de0e250bc7bc6ab073736d1ce"]}'
    headers:
      Accept:
      - '*/*'
      Accept-Encoding:
      - gzip, deflate
      Connection:
      - keep-alive
      Content-Length:
      - '148'
      Content-Type:
      - application/json
      User-Agent:
      - rotki/1.41.2.dev441+ga56b3c0f52.d20260113
    method: POST
    uri: https://explorer.optimism.io/api/eth-rpc
  response:
    body:
      string: '{"jsonrpc":"2.0","result": {"blockHash":"0xbd231cda0c3a9a35678858a46dd9a01ffa2244a3f065e66bff696362c9501caf","blockNumber":"0x6876fa5","contractAddress":null,"cumulativeGasUsed":"0x25b679","effectiveGasPrice":"0x221","from":"0x78c13393aee675dd7ed07ce992210750d1f5db88","gasUsed":"0x30545","logs":[{"address":"0xd25711edfbf747efce181442cc1d8f5f8fc8a0d3","blockHash":"0xbd231cda0c3a9a35678858a46dd9a01ffa2244a3f065e66bff696362c9501caf","blockNumber":"0x6876fa5","data":"0x0000000000000000000000000000000000000000000000000000000000000000","logIndex":"0x20","removed":false,"topics":["0x8c5be1e5ebec7d5bd14f71427d1e84f3dd0314c0f7b2291e5b200ac8c7c3b925","0x00000000000000000000000078c13393aee675dd7ed07ce992210750d1f5db88","0x000000000000000000000000a062ae8a9c5e11aaa026fc2670b0d65ccc8b2858"],"transactionHash":"0x81351bf9ca6d78bff92d2b714d68dd7c785bb70de0e250bc7bc6ab073736d1ce","transactionIndex":"0x7"},{"address":"0xd25711edfbf747efce181442cc1d8f5f8fc8a0d3","blockHash":"0xbd231cda0c3a9a35678858a46dd9a01ffa2244a3f065e66bff696362c9501caf","blockNumber":"0x6876fa5","data":"0x0000000000000000000000000000000000000000000000000132a5cdbf99db85","logIndex":"0x21","removed":false,"topics":["0xddf252ad1be2c89b69c2b068fc378daa952ba7f163c4a11628f55a4df523b3ef","0x00000000000000000000000078c13393aee675dd7ed07ce992210750d1f5db88","0x000000000000000000000000d25711edfbf747efce181442cc1d8f5f8fc8a0d3"],"transactionHash":"0x81351bf9ca6d78bff92d2b714d68dd7c785bb70de0e250bc7bc6ab073736d1ce","transactionIndex":"0x7"},{"address":"0xd25711edfbf747efce181442cc1d8f5f8fc8a0d3","blockHash":"0xbd231cda0c3a9a35678858a46dd9a01ffa2244a3f065e66bff696362c9501caf","blockNumber":"0x6876fa5","data":"0x0000000000000000000000000000000000000000000000000132a5cdbf99db85","logIndex":"0x22","removed":false,"topics":["0xddf252ad1be2c89b69c2b068fc378daa952ba7f163c4a11628f55a4df523b3ef","0x000000000000000000000000d25711edfbf747efce181442cc1d8f5f8fc8a0d3","0x0000000000000000000000000000000000000000000000000000000000000000"],"transactionHash":"0x81351bf9ca6d78bff92d2b714d68dd7c785bb70de0e250bc7bc6ab073736d1ce","transactionIndex":"0x7"},{"address":"0x4200000000000000000000000000000000000006","blockHash":"0xbd231cda0c3a9a35678858a46dd9a01ffa2244a3f065e66bff696362c9501caf","blockNumber":"0x6876fa5","data":"0x0000000000000000000000000000000000000000000000000008d601d729fc55","logIndex":"0x23","removed":false,"topics":["0xddf252ad1be2c89b69c2b068fc378daa952ba7f163c4a11628f55a4df523b3ef","0x000000000000000000000000d25711edfbf747efce181442cc1d8f5f8fc8a0d3","0x00000000000000000000000078c13393aee675dd7ed07ce992210750d1f5db88"],"transactionHash":"0x81351bf9ca6d78bff92d2b714d68dd7c785bb70de0e250bc7bc6ab073736d1ce","transactionIndex":"0x7"},{"address":"0x4200000000000000000000000000000000000042","blockHash":"0xbd231cda0c3a9a35678858a46dd9a01ffa2244a3f065e66bff696362c9501caf","blockNumber":"0x6876fa5","data":"0x0000000000000000000000000000000000000000000000002992101b35feca21","logIndex":"0x24","removed":false,"topics":["0xddf252ad1be2c89b69c2b068fc378daa952ba7f163c4a11628f55a4df523b3ef","0x000000000000000000000000d25711edfbf747efce181442cc1d8f5f8fc8a0d3","0x00000000000000000000000078c13393aee675dd7ed07ce992210750d1f5db88"],"transactionHash":"0x81351bf9ca6d78bff92d2b714d68dd7c785bb70de0e250bc7bc6ab073736d1ce","transactionIndex":"0x7"},{"address":"0xd25711edfbf747efce181442cc1d8f5f8fc8a0d3","blockHash":"0xbd231cda0c3a9a35678858a46dd9a01ffa2244a3f065e66bff696362c9501caf","blockNumber":"0x6876fa5","data":"0x00000000000000000000000000000000000000000000006125a13683e68a689d00000000000000000000000000000000000000000001c90c1f24286fb7b757e7","logIndex":"0x25","removed":false,"topics":["0xcf2aa50876cdfbb541206f89af0ee78d44a2abf8d328e37fa4917f982149848a"],"transactionHash":"0x81351bf9ca6d78bff92d2b714d68dd7c785bb70de0e250bc7bc6ab073736d1ce","transactionIndex":"0x7"},{"address":"0xd25711edfbf747efce181442cc1d8f5f8fc8a0d3","blockHash":"0xbd231cda0c3a9a35678858a46dd9a01ffa2244a3f065e66bff696362c9501caf","blockNumber":"0x6876fa5","data":"0x0000000000000000000000000000000000000000000000000008d601d729fc550000000000000000000000000000000000000000000000002992101b35feca21","logIndex":"0x26","removed":false,"topics":["0x5d624aa9c148153ab3446c1b154f660ee7701e549fe9b62dab7171b1c80e6fa2","0x000000000000000000000000a062ae8a9c5e11aaa026fc2670b0d65ccc8b2858","0x00000000000000000000000078c13393aee675dd7ed07ce992210750d1f5db88"],"transactionHash":"0x81351bf9ca6d78bff92d2b714d68dd7c785bb70de0e250bc7bc6ab073736d1ce","transactionIndex":"0x7"}],"logsBloom":"0x00000000000000000000008000000000000000000000000000040000000000000000800000000000000000110000000000000000000000000000000000a00041000000200000000020000008000000002002000000000008000000080000000000000000020400000000000000000800000000000000000000000010000000040000000000000000000000000000000000001000002000000000000008000000020000000000000000000000000000000000000000000000008000000000000000000002000000000000000400000200008000000000000000000000000020000010000000000000000000000000000000000000008000000000000000000000","status":"0x1","to":"0xa062ae8a9c5e11aaa026fc2670b0d65ccc8b2858","transactionHash":"0x81351bf9ca6d78bff92d2b714d68dd7c785bb70de0e250bc7bc6ab073736d1ce","transactionIndex":"0x7","type":"0x2"},"id":
        0}

        '
    headers:
      CF-RAY:
      - 9bdfa0292f9ff142-ATL
      Cache-Control:
      - max-age=0, private, must-revalidate
      Connection:
      - keep-alive
      Content-Type:
      - application/json; charset=utf-8
      Date:
      - Wed, 14 Jan 2026 19:44:01 GMT
      Nel:
      - '{"report_to":"cf-nel","success_fraction":0.0,"max_age":604800}'
      Report-To:
      - '{"group":"cf-nel","max_age":604800,"endpoints":[{"url":"https://a.nel.cloudflare.com/report/v4?s=pQqCXQn4Lwsbo1T2uJU4DsLtQLXcH%2F3Fu26kSanGlJzw8FHCbdUEVufy59M1%2BnHVpfy7Z1zviFZnIQd%2F95g9Ng4QRibEOTVJB2evc3rQkcQ%2B66sr"}]}'
      Server:
      - cloudflare
      Transfer-Encoding:
      - chunked
      access-control-allow-credentials:
      - 'true'
      access-control-allow-origin:
      - '*'
      access-control-expose-headers:
      - bypass-429-option,x-ratelimit-reset,x-ratelimit-limit,x-ratelimit-remaining,api-v2-temp-token
      alt-svc:
      - h3=":443"; ma=86400
      bypass-429-option:
      - no_bypass
      cf-cache-status:
      - DYNAMIC
      content-length:
      - '5245'
      strict-transport-security:
      - max-age=31536000; includeSubDomains
      x-ratelimit-limit:
      - '600'
      x-ratelimit-remaining:
      - '597'
      x-ratelimit-reset:
      - '58482'
      x-request-id:
      - 117a0fec736b5809733edde158fc6540
    status:
      code: 200
      message: OK
- request:
    body: null
    headers:
      Accept:
      - '*/*'
      Accept-Encoding:
      - gzip, deflate
      Connection:
      - keep-alive
      User-Agent:
      - rotki/1.41.2.dev441+ga56b3c0f52.d20260113
    method: GET
    uri: https://explorer.optimism.io/api/v2/transactions/0x81351bf9ca6d78bff92d2b714d68dd7c785bb70de0e250bc7bc6ab073736d1ce
  response:
    body:
      string: '{"l1_gas_used":"3632","priority_fee":"95019360","raw_input":"0x0dede6c40000000000000000000000004200000000000000000000000000000000000006000000000000000000000000420000000000000000000000000000000000004200000000000000000000000000000000000000000000000000000000000000000000000000000000000000000000000000000000000000000132a5cdbf99db850000000000000000000000000000000000000000000000000008bf631a21e2c40000000000000000000000000000000000000000000000002927a46cdbdaf63000000000000000000000000078c13393aee675dd7ed07ce992210750d1f5db88000000000000000000000000000000000000000000000000000000006502bffd","is_pending_update":false,"op_withdrawals":[],"result":"success","hash":"0x81351bf9ca6d78bff92d2b714d68dd7c785bb70de0e250bc7bc6ab073736d1ce","max_fee_per_gas":"673","revert_reason":null,"confirmation_duration":[0,2.0e3],"transaction_burnt_fee":"12867205","type":2,"token_transfers_overflow":false,"confirmations":36871296,"position":7,"max_priority_fee_per_gas":"480","transaction_tag":null,"created_contract":null,"value":"0","l1_fee_scalar":"0.684","from":{"ens_domain_name":null,"hash":"0x78C13393Aee675DD7ED07ce992210750D1F5dB88","implementations":[],"is_contract":false,"is_scam":false,"is_verified":false,"metadata":null,"name":null,"private_tags":[],"proxy_type":null,"public_tags":[],"reputation":"ok","watchlist_names":[]},"gas_used":"197957","status":"ok","to":{"ens_domain_name":null,"hash":"0xa062aE8A9c5e11aaA026fc2670B0D65cCc8B2858","implementations":[],"is_contract":true,"is_scam":false,"is_verified":true,"metadata":{"tags":[{"meta":{"main_entity":"Velodrome","tooltipUrl":"https://www.velodrome.finance/"},"name":"Velodrome
        Finance: Router V2","ordinal":10,"slug":"velodrome-finance-router-v2","tagType":"name"},{"meta":{"projectName":"Velodrome
        Finance","tagUrl":"https://app.klerosscout.eth.limo/#/?registry=Single_Tags&itemdetails=0x365e72c948353a41f932658d7c3dbd28ae9b8d6cdf44eb9a5d957388ef65a5d3@0x66260c69d03837016d88c9877e61e08ef74c59f2","tooltipDescription":"Velodrome
        Finance''s official Router V2 contract on Optimism","tooltipUrl":"https://www.velodrome.finance/","verifiedDomains":["velodrome.finance","velo.drome.eth.limo","www.velodrome.finance","velo.drome.eth.link"]},"name":"Router
        V2","ordinal":10,"slug":"router-v2-10","tagType":"name"},{"meta":{"appActionButtonText":"Velodrome","appID":"velodrome"},"name":"Velodrome
        Finance","ordinal":0,"slug":"velodrome-finance","tagType":"protocol"}]},"name":"Router","private_tags":[],"proxy_type":null,"public_tags":[],"reputation":"ok","watchlist_names":[]},"authorization_list":[],"l1_fee":"24369435741187","method":"removeLiquidity","fee":{"type":"actual","value":"24369543627752"},"actions":[],"gas_limit":"230520","gas_price":"545","decoded_input":{"method_call":"removeLiquidity(address
        tokenA, address tokenB, bool stable, uint256 liquidity, uint256 amountAMin,
        uint256 amountBMin, address to, uint256 deadline)","method_id":"0dede6c4","parameters":[{"name":"tokenA","type":"address","value":"0x4200000000000000000000000000000000000006"},{"name":"tokenB","type":"address","value":"0x4200000000000000000000000000000000000042"},{"name":"stable","type":"bool","value":"false"},{"name":"liquidity","type":"uint256","value":"86313645974870917"},{"name":"amountAMin","type":"uint256","value":"2462232174781124"},{"name":"amountBMin","type":"uint256","value":"2965519667098744368"},{"name":"to","type":"address","value":"0x78C13393Aee675DD7ED07ce992210750D1F5dB88"},{"name":"deadline","type":"uint256","value":"1694679037"}]},"l1_gas_price":"9809424568","token_transfers":[{"block_hash":"0xbd231cda0c3a9a35678858a46dd9a01ffa2244a3f065e66bff696362c9501caf","block_number":109539237,"from":{"ens_domain_name":null,"hash":"0x78C13393Aee675DD7ED07ce992210750D1F5dB88","implementations":[],"is_contract":false,"is_scam":false,"is_verified":false,"metadata":null,"name":null,"private_tags":[],"proxy_type":null,"public_tags":[],"reputation":"ok","watchlist_names":[]},"log_index":33,"method":null,"timestamp":null,"to":{"ens_domain_name":null,"hash":"0xd25711EdfBf747efCE181442Cc1D8F5F8fc8a0D3","implementations":[{"address_hash":"0x95885Af5492195F0754bE71AD1545Fe81364E531","name":"Pool"}],"is_contract":true,"is_scam":false,"is_verified":true,"metadata":{"tags":[{"meta":{"bgColor":"linear-gradient(to
        right,rgba(96, 165, 250, 0.2),rgba(168, 85, 247, 0.2),rgba(236, 72, 153, 0.2));","tooltipDescription":"Provided
        by OLI"},"name":"Velodrome v2","ordinal":0,"slug":"velodrome-v2","tagType":"name"}]},"name":"VolatileV2
        AMM - WETH/OP","private_tags":[],"proxy_type":"eip1167","public_tags":[],"reputation":"ok","watchlist_names":[]},"token":{"address_hash":"0xd25711EdfBf747efCE181442Cc1D8F5F8fc8a0D3","circulating_market_cap":null,"decimals":"18","exchange_rate":null,"holders_count":"426","icon_url":null,"name":"VolatileV2
        AMM - WETH/OP","reputation":"ok","symbol":"vAMMV2-WETH/OP","total_supply":"10600358348651683315140","type":"ERC-20","volume_24h":null},"token_type":"ERC-20","total":{"decimals":"18","value":"86313645974870917"},"transaction_hash":"0x81351bf9ca6d78bff92d2b714d68dd7c785bb70de0e250bc7bc6ab073736d1ce","type":"token_transfer"},{"block_hash":"0xbd231cda0c3a9a35678858a46dd9a01ffa2244a3f065e66bff696362c9501caf","block_number":109539237,"from":{"ens_domain_name":null,"hash":"0xd25711EdfBf747efCE181442Cc1D8F5F8fc8a0D3","implementations":[{"address_hash":"0x95885Af5492195F0754bE71AD1545Fe81364E531","name":"Pool"}],"is_contract":true,"is_scam":false,"is_verified":true,"metadata":{"tags":[{"meta":{"bgColor":"linear-gradient(to
        right,rgba(96, 165, 250, 0.2),rgba(168, 85, 247, 0.2),rgba(236, 72, 153, 0.2));","tooltipDescription":"Provided
        by OLI"},"name":"Velodrome v2","ordinal":0,"slug":"velodrome-v2","tagType":"name"}]},"name":"VolatileV2
        AMM - WETH/OP","private_tags":[],"proxy_type":"eip1167","public_tags":[],"reputation":"ok","watchlist_names":[]},"log_index":34,"method":null,"timestamp":null,"to":{"ens_domain_name":null,"hash":"0x0000000000000000000000000000000000000000","implementations":[],"is_contract":false,"is_scam":false,"is_verified":false,"metadata":{"tags":[{"meta":{},"name":"Null:
        0x000...000","ordinal":10,"slug":"null-0x000000","tagType":"name"},{"meta":{},"name":"Metamask
        User","ordinal":0,"slug":"metamask-user","tagType":"generic"},{"meta":{},"name":"Imtoken
        User","ordinal":0,"slug":"imtoken-user","tagType":"generic"},{"meta":{},"name":"Miner","ordinal":0,"slug":"miner","tagType":"generic"},{"meta":{},"name":"Burn","ordinal":0,"slug":"burn","tagType":"generic"},{"meta":{"alertStatus":"info","data":"This
        address is commonly used by projects to burn tokens (reducing total supply)
        or mint tokens (increasing total supply)."},"name":"note_0","ordinal":0,"slug":"note0","tagType":"note"},{"meta":{},"name":"Null","ordinal":0,"slug":"null","tagType":"protocol"}]},"name":null,"private_tags":[],"proxy_type":null,"public_tags":[],"reputation":"ok","watchlist_names":[]},"token":{"address_hash":"0xd25711EdfBf747efCE181442Cc1D8F5F8fc8a0D3","circulating_market_cap":null,"decimals":"18","exchange_rate":null,"holders_count":"426","icon_url":null,"name":"VolatileV2
        AMM - WETH/OP","reputation":"ok","symbol":"vAMMV2-WETH/OP","total_supply":"10600358348651683315140","type":"ERC-20","volume_24h":null},"token_type":"ERC-20","total":{"decimals":"18","value":"86313645974870917"},"transaction_hash":"0x81351bf9ca6d78bff92d2b714d68dd7c785bb70de0e250bc7bc6ab073736d1ce","type":"token_burning"},{"block_hash":"0xbd231cda0c3a9a35678858a46dd9a01ffa2244a3f065e66bff696362c9501caf","block_number":109539237,"from":{"ens_domain_name":null,"hash":"0xd25711EdfBf747efCE181442Cc1D8F5F8fc8a0D3","implementations":[{"address_hash":"0x95885Af5492195F0754bE71AD1545Fe81364E531","name":"Pool"}],"is_contract":true,"is_scam":false,"is_verified":true,"metadata":{"tags":[{"meta":{"bgColor":"linear-gradient(to
        right,rgba(96, 165, 250, 0.2),rgba(168, 85, 247, 0.2),rgba(236, 72, 153, 0.2));","tooltipDescription":"Provided
        by OLI"},"name":"Velodrome v2","ordinal":0,"slug":"velodrome-v2","tagType":"name"}]},"name":"VolatileV2
        AMM - WETH/OP","private_tags":[],"proxy_type":"eip1167","public_tags":[],"reputation":"ok","watchlist_names":[]},"log_index":35,"method":null,"timestamp":null,"to":{"ens_domain_name":null,"hash":"0x78C13393Aee675DD7ED07ce992210750D1F5dB88","implementations":[],"is_contract":false,"is_scam":false,"is_verified":false,"metadata":null,"name":null,"private_tags":[],"proxy_type":null,"public_tags":[],"reputation":"ok","watchlist_names":[]},"token":{"address_hash":"0x4200000000000000000000000000000000000006","circulating_market_cap":"77101808.04835153","decimals":"18","exchange_rate":"3353.89","holders_count":"301186","icon_url":"https://assets.coingecko.com/coins/images/39715/small/WETH.PNG?1723731805","name":"L2
        Standard Bridged WETH (Optimism)","reputation":"ok","symbol":"WETH","total_supply":"22985792750660937514418","type":"ERC-20","volume_24h":"21331816.289958112"},"token_type":"ERC-20","total":{"decimals":"18","value":"2487103206849621"},"transaction_hash":"0x81351bf9ca6d78bff92d2b714d68dd7c785bb70de0e250bc7bc6ab073736d1ce","type":"token_transfer"},{"block_hash":"0xbd231cda0c3a9a35678858a46dd9a01ffa2244a3f065e66bff696362c9501caf","block_number":109539237,"from":{"ens_domain_name":null,"hash":"0xd25711EdfBf747efCE181442Cc1D8F5F8fc8a0D3","implementations":[{"address_hash":"0x95885Af5492195F0754bE71AD1545Fe81364E531","name":"Pool"}],"is_contract":true,"is_scam":false,"is_verified":true,"metadata":{"tags":[{"meta":{"bgColor":"linear-gradient(to
        right,rgba(96, 165, 250, 0.2),rgba(168, 85, 247, 0.2),rgba(236, 72, 153, 0.2));","tooltipDescription":"Provided
        by OLI"},"name":"Velodrome v2","ordinal":0,"slug":"velodrome-v2","tagType":"name"}]},"name":"VolatileV2
        AMM - WETH/OP","private_tags":[],"proxy_type":"eip1167","public_tags":[],"reputation":"ok","watchlist_names":[]},"log_index":36,"method":null,"timestamp":null,"to":{"ens_domain_name":null,"hash":"0x78C13393Aee675DD7ED07ce992210750D1F5dB88","implementations":[],"is_contract":false,"is_scam":false,"is_verified":false,"metadata":null,"name":null,"private_tags":[],"proxy_type":null,"public_tags":[],"reputation":"ok","watchlist_names":[]},"token":{"address_hash":"0x4200000000000000000000000000000000000042","circulating_market_cap":"691005205.0304432","decimals":"18","exchange_rate":"0.355095","holders_count":"1383198","icon_url":"https://assets.coingecko.com/coins/images/25244/small/Optimism.png?1696524385","name":"Optimism","reputation":"ok","symbol":"OP","total_supply":"4294963292498750113616177748","type":"ERC-20","volume_24h":"145489237.0802175"},"token_type":"ERC-20","total":{"decimals":"18","value":"2995474411210852897"},"transaction_hash":"0x81351bf9ca6d78bff92d2b714d68dd7c785bb70de0e250bc7bc6ab073736d1ce","type":"token_transfer"}],"base_fee_per_gas":"65","timestamp":"2023-09-14T07:40:51.000000Z","nonce":19,"historic_exchange_rate":"1627.01","transaction_types":["contract_call","token_transfer"],"exchange_rate":"3366.05","block_number":109539237,"has_error_in_internal_transactions":false}'
    headers:
      CF-RAY:
      - 9bdfa02aac84baec-ATL
      Cache-Control:
      - max-age=0, private, must-revalidate
      Connection:
      - keep-alive
      Content-Type:
      - application/json; charset=utf-8
      Date:
      - Wed, 14 Jan 2026 19:44:02 GMT
      Nel:
      - '{"report_to":"cf-nel","success_fraction":0.0,"max_age":604800}'
      Report-To:
      - '{"group":"cf-nel","max_age":604800,"endpoints":[{"url":"https://a.nel.cloudflare.com/report/v4?s=EQObCiCr4djsalGrZWaeE%2F7gUwTq0%2BFKUr8ZvF%2F4ojehgFCJLbGuCe7N%2FSjEzPJZH%2FaU2LGL6ZLqvbpvxP8bdOvkgQ5iMI5NuaPTa9lcekjUaw%3D%3D"}]}'
      Server:
      - cloudflare
      Transfer-Encoding:
      - chunked
      access-control-allow-credentials:
      - 'true'
      access-control-allow-origin:
      - '*'
      access-control-expose-headers:
      - bypass-429-option,x-ratelimit-reset,x-ratelimit-limit,x-ratelimit-remaining,api-v2-temp-token
      alt-svc:
      - h3=":443"; ma=86400
      bypass-429-option:
      - temporary_token
      cf-cache-status:
      - DYNAMIC
      content-length:
      - '11003'
      strict-transport-security:
      - max-age=31536000; includeSubDomains
      x-ratelimit-limit:
      - '600'
      x-ratelimit-remaining:
      - '596'
      x-ratelimit-reset:
      - '58235'
      x-request-id:
      - 4169b6d8b44e7476fa15bf0172820f61
    status:
      code: 200
      message: OK
- request:
    body: null
    headers:
      Accept:
      - '*/*'
      Accept-Encoding:
      - gzip, deflate
      Connection:
      - keep-alive
      User-Agent:
      - rotki/1.41.2.dev441+ga56b3c0f52.d20260113
    method: GET
    uri: https://explorer.optimism.io/api?action=txlistinternal&module=account&sort=asc&txhash=0x81351bf9ca6d78bff92d2b714d68dd7c785bb70de0e250bc7bc6ab073736d1ce
  response:
    body:
      string: '{"message":"No internal transactions found","result":[],"status":"0"}'
    headers:
      CF-RAY:
      - 9bdfa0302a5b15f6-ATL
      Cache-Control:
      - max-age=0, private, must-revalidate
      Connection:
      - keep-alive
      Content-Type:
      - application/json; charset=utf-8
      Date:
      - Wed, 14 Jan 2026 19:44:02 GMT
      Nel:
      - '{"report_to":"cf-nel","success_fraction":0.0,"max_age":604800}'
      Report-To:
      - '{"group":"cf-nel","max_age":604800,"endpoints":[{"url":"https://a.nel.cloudflare.com/report/v4?s=KEEVAD%2B%2B2aKO6cXSALZEhT81PiSn%2BfWMM%2B4bxM%2FO6OLwSJxSw%2BFs9t%2B1hKdcTYG8d4KyZcLsLnJke9yIGPqhSKdVWH81a%2FQwgZMKtYD93%2BiquIiP"}]}'
      Server:
      - cloudflare
      Transfer-Encoding:
      - chunked
      access-control-allow-credentials:
      - 'true'
      access-control-allow-origin:
      - '*'
      access-control-expose-headers:
      - bypass-429-option,x-ratelimit-reset,x-ratelimit-limit,x-ratelimit-remaining,api-v2-temp-token
      alt-svc:
      - h3=":443"; ma=86400
      bypass-429-option:
      - no_bypass
      cf-cache-status:
      - DYNAMIC
      content-length:
      - '69'
      strict-transport-security:
      - max-age=31536000; includeSubDomains
      x-ratelimit-limit:
      - '600'
      x-ratelimit-remaining:
      - '595'
      x-ratelimit-reset:
      - '57362'
      x-request-id:
      - 4483e2b6a81b4eef7733088ee2ba4a8f
    status:
      code: 200
      message: OK
- request:
    body: '{"id": 0, "jsonrpc": "2.0", "method": "eth_call", "params": [{"to": "0xf96764f4d357A9A16AB8050D0E3abcAa67e50eF9",
      "data": "0x100f2c00000000000000000000000000d25711edfbf747efce181442cc1d8f5f8fc8a0d3"},
      "latest"]}'
    headers:
      Accept:
      - '*/*'
      Accept-Encoding:
      - gzip, deflate
      Connection:
      - keep-alive
      Content-Length:
      - '211'
      Content-Type:
      - application/json
      User-Agent:
      - rotki/1.41.2.dev441+ga56b3c0f52.d20260113
    method: POST
    uri: https://explorer.optimism.io/api/eth-rpc
  response:
    body:
      string: '{"jsonrpc":"2.0","result": "0x000000000000000000000000000000000000000000000000000000000000002000000000000000000000000000000000000000000000000000000000000000a00000000000000000000000000000000000000000000000000000000000000012000000000000000000000000420000000000000000000000000000000000000600000000000000000000000042000000000000000000000000000000000000420000000000000000000000000000000000000000000000000000000000000000000000000000000000000000000000000000000000000000000000000000000e76414d4d56322d574554482f4f50000000000000000000000000000000000000","id":
        0}

        '
    headers:
      CF-RAY:
      - 9bdfa03359d6677b-ATL
      Cache-Control:
      - max-age=0, private, must-revalidate
      Connection:
      - keep-alive
      Content-Type:
      - application/json; charset=utf-8
      Date:
      - Wed, 14 Jan 2026 19:44:03 GMT
      Nel:
      - '{"report_to":"cf-nel","success_fraction":0.0,"max_age":604800}'
      Report-To:
      - '{"group":"cf-nel","max_age":604800,"endpoints":[{"url":"https://a.nel.cloudflare.com/report/v4?s=mbkb1FQpE5xYEVV4alhaHwEtRh%2BHb0cgjvy1TlCubQ5xX3Vco6jmg7EO9tHRI76UiqXWAec%2BmEfdJYtK7AywTM6Ar9ZA74sgNx9kCU5bUOAedK0x"}]}'
      Server:
      - cloudflare
      Transfer-Encoding:
      - chunked
      access-control-allow-credentials:
      - 'true'
      access-control-allow-origin:
      - '*'
      access-control-expose-headers:
      - bypass-429-option,x-ratelimit-reset,x-ratelimit-limit,x-ratelimit-remaining,api-v2-temp-token
      alt-svc:
      - h3=":443"; ma=86400
      bypass-429-option:
      - no_bypass
      cf-cache-status:
      - DYNAMIC
      content-length:
      - '553'
      strict-transport-security:
      - max-age=31536000; includeSubDomains
      x-ratelimit-limit:
      - '600'
      x-ratelimit-remaining:
      - '594'
      x-ratelimit-reset:
      - '56852'
      x-request-id:
      - b40402d92233a7537134f386532c95db
    status:
      code: 200
      message: OK
- request:
    body: '{"id": 0, "jsonrpc": "2.0", "method": "eth_call", "params": [{"to": "0x2DC0E2aa608532Da689e89e237dF582B783E552C",
      "data": "0xbce38bd7000000000000000000000000000000000000000000000000000000000000000000000000000000000000000000000000000000000000000000000000000000400000000000000000000000000000000000000000000000000000000000000003000000000000000000000000000000000000000000000000000000000000006000000000000000000000000000000000000000000000000000000000000000e00000000000000000000000000000000000000000000000000000000000000160000000000000000000000000d25711edfbf747efce181442cc1d8f5f8fc8a0d300000000000000000000000000000000000000000000000000000000000000400000000000000000000000000000000000000000000000000000000000000004313ce56700000000000000000000000000000000000000000000000000000000000000000000000000000000d25711edfbf747efce181442cc1d8f5f8fc8a0d30000000000000000000000000000000000000000000000000000000000000040000000000000000000000000000000000000000000000000000000000000000495d89b4100000000000000000000000000000000000000000000000000000000000000000000000000000000d25711edfbf747efce181442cc1d8f5f8fc8a0d30000000000000000000000000000000000000000000000000000000000000040000000000000000000000000000000000000000000000000000000000000000406fdde0300000000000000000000000000000000000000000000000000000000"},
      "latest"]}'
    headers:
      Accept:
      - '*/*'
      Accept-Encoding:
      - gzip, deflate
      Connection:
      - keep-alive
      Content-Length:
      - '1299'
      Content-Type:
      - application/json
      User-Agent:
      - rotki/1.41.2.dev441+ga56b3c0f52.d20260113
    method: POST
    uri: https://explorer.optimism.io/api/eth-rpc
  response:
    body:
      string: '{"jsonrpc":"2.0","result": "0x00000000000000000000000000000000000000000000000000000000000000200000000000000000000000000000000000000000000000000000000000000003000000000000000000000000000000000000000000000000000000000000006000000000000000000000000000000000000000000000000000000000000000e000000000000000000000000000000000000000000000000000000000000001a000000000000000000000000000000000000000000000000000000000000000010000000000000000000000000000000000000000000000000000000000000040000000000000000000000000000000000000000000000000000000000000002000000000000000000000000000000000000000000000000000000000000000120000000000000000000000000000000000000000000000000000000000000001000000000000000000000000000000000000000000000000000000000000004000000000000000000000000000000000000000000000000000000000000000600000000000000000000000000000000000000000000000000000000000000020000000000000000000000000000000000000000000000000000000000000000e76414d4d56322d574554482f4f5000000000000000000000000000000000000000000000000000000000000000000000000000000000000000000000000000010000000000000000000000000000000000000000000000000000000000000040000000000000000000000000000000000000000000000000000000000000006000000000000000000000000000000000000000000000000000000000000000200000000000000000000000000000000000000000000000000000000000000018566f6c6174696c65563220414d4d202d20574554482f4f500000000000000000","id":
        0}

        '
    headers:
      CF-RAY:
      - 9bdfa0361c27bd30-ATL
      Cache-Control:
      - max-age=0, private, must-revalidate
      Connection:
      - keep-alive
      Content-Type:
      - application/json; charset=utf-8
      Date:
      - Wed, 14 Jan 2026 19:44:03 GMT
      Nel:
      - '{"report_to":"cf-nel","success_fraction":0.0,"max_age":604800}'
      Report-To:
      - '{"group":"cf-nel","max_age":604800,"endpoints":[{"url":"https://a.nel.cloudflare.com/report/v4?s=L%2FE7ocn2F8RPmzykPpWOn9BQDrrSg9cbmUSfkHIRvh4p2kNzT4FV6MaverBVtgt1ycGfiKqsnzs1kYhAAeYECsfCYrWVZ5%2FxhwxIPnSJlxSjGOE4"}]}'
      Server:
      - cloudflare
      Transfer-Encoding:
      - chunked
      access-control-allow-credentials:
      - 'true'
      access-control-allow-origin:
      - '*'
      access-control-expose-headers:
      - bypass-429-option,x-ratelimit-reset,x-ratelimit-limit,x-ratelimit-remaining,api-v2-temp-token
      alt-svc:
      - h3=":443"; ma=86400
      bypass-429-option:
      - no_bypass
      cf-cache-status:
      - DYNAMIC
      content-length:
      - '1385'
      strict-transport-security:
      - max-age=31536000; includeSubDomains
      x-ratelimit-limit:
      - '600'
      x-ratelimit-remaining:
      - '593'
      x-ratelimit-reset:
      - '56413'
      x-request-id:
      - 99c222e1c0e716e7584f530e48efe011
    status:
      code: 200
      message: OK
version: 1
