interactions:
- request:
    body: null
    headers:
      Accept:
      - '*/*'
      Accept-Encoding:
      - gzip, deflate
      Connection:
      - keep-alive
      User-Agent:
      - rotki/1.42.1.dev85+g21cbca5056.d20260305
    method: GET
    uri: https://api.blockscout.com/8453/api?action=getblocknobytime&closest=before&module=block&timestamp=1761941900
  response:
    body:
      string: '{"message":"OK","result":{"blockNumber":"37576276"},"status":"1"}'
    headers:
      CF-RAY:
      - 9d7b1a83cae68c07-MAD
      Cache-Control:
      - max-age=0, private, must-revalidate
      Connection:
      - keep-alive
      Content-Type:
      - application/json; charset=utf-8
      Date:
      - Thu, 05 Mar 2026 18:15:00 GMT
      Nel:
      - '{"report_to":"cf-nel","success_fraction":0.0,"max_age":604800}'
      Report-To:
      - '{"group":"cf-nel","max_age":604800,"endpoints":[{"url":"https://a.nel.cloudflare.com/report/v4?s=iO784kWKZOu5G2vH0%2B%2B0rcV%2BVmJx27dqq7KD3lvNV4wFuwz6ZtUuvV8bMmJ5gQsSefNghLsx%2F4SeNoan3Gp9hr1rmWDJZhOA9jReXMjWD353zQ%3D%3D"}]}'
      Server:
      - cloudflare
      Transfer-Encoding:
      - chunked
      access-control-allow-credentials:
      - 'true'
      access-control-allow-origin:
      - '*'
      access-control-expose-headers:
      - bypass-429-option,x-ratelimit-reset,x-ratelimit-limit,x-ratelimit-remaining,api-v2-temp-token
      alt-svc:
      - h3=":443"; ma=86400
      bypass-429-option:
      - no_bypass
      cf-cache-status:
      - DYNAMIC
      content-length:
      - '65'
      strict-transport-security:
      - max-age=31536000; includeSubDomains
      x-ratelimit-limit:
      - '600'
      x-ratelimit-remaining:
      - '599'
      x-ratelimit-reset:
      - '59532'
      x-request-id:
      - a496ad71471d8b4f90a788fad8450420
    status:
      code: 200
      message: OK
- request:
    body: null
    headers:
      Accept:
      - '*/*'
      Accept-Encoding:
      - gzip, deflate
      Connection:
      - keep-alive
      User-Agent:
      - rotki/1.42.1.dev85+g21cbca5056.d20260305
    method: GET
    uri: https://api.blockscout.com/8453/api?action=getblocknobytime&closest=before&module=block&timestamp=1761942100
  response:
    body:
      string: '{"message":"OK","result":{"blockNumber":"37576376"},"status":"1"}'
    headers:
      CF-RAY:
      - 9d7b1a849f19cbc7-MAD
      Cache-Control:
      - max-age=0, private, must-revalidate
      Connection:
      - keep-alive
      Content-Type:
      - application/json; charset=utf-8
      Date:
      - Thu, 05 Mar 2026 18:15:00 GMT
      Nel:
      - '{"report_to":"cf-nel","success_fraction":0.0,"max_age":604800}'
      Report-To:
      - '{"group":"cf-nel","max_age":604800,"endpoints":[{"url":"https://a.nel.cloudflare.com/report/v4?s=xoz87hRuB7X0g2PRvgQLDcrKYGBEgWbL539ATwrTQ7Rcbz8TbW2Ca5eEWSbfKUaXtU971gtvQLzxORUU8La1yWNR7YoyQy0%2F%2B4sxE2%2B%2B%2BoX6VA%3D%3D"}]}'
      Server:
      - cloudflare
      Transfer-Encoding:
      - chunked
      access-control-allow-credentials:
      - 'true'
      access-control-allow-origin:
      - '*'
      access-control-expose-headers:
      - bypass-429-option,x-ratelimit-reset,x-ratelimit-limit,x-ratelimit-remaining,api-v2-temp-token
      alt-svc:
      - h3=":443"; ma=86400
      bypass-429-option:
      - no_bypass
      cf-cache-status:
      - DYNAMIC
      content-length:
      - '65'
      strict-transport-security:
      - max-age=31536000; includeSubDomains
      x-ratelimit-limit:
      - '600'
      x-ratelimit-remaining:
      - '598'
      x-ratelimit-reset:
      - '59310'
      x-request-id:
      - 6daf29a3c222afba514679512c2df86b
    status:
      code: 200
      message: OK
- request:
    body: null
    headers:
      Accept:
      - '*/*'
      Accept-Encoding:
      - gzip, deflate
      Connection:
      - keep-alive
      User-Agent:
      - rotki/1.42.1.dev85+g21cbca5056.d20260305
    method: GET
    uri: https://api.blockscout.com/8453/api?action=txlist&address=0x2B888954421b424C5D3D9Ce9bB67c9bD47537d12&endblock=37576376&module=account&sort=asc&startblock=37576276
  response:
    body:
      string: '{"message":"OK","result":[{"blockHash":"0x8ce07a1289ddfac5d5dd6ea0457da84414e69bc1d0c00b8243b51e84d1da7353","blockNumber":"37576327","confirmations":"5386396","contractAddress":"","cumulativeGasUsed":"2500034","from":"0x2b888954421b424c5d3d9ce9bb67c9bd47537d12","gas":"98929","gasPrice":"4749322","gasUsed":"97957","hash":"0xfaa51ffecb5388ef59808d4f3f5e6e07b8a47d4a7d195c467bf77c24ee77b287","input":"0x2f52ebb7000000000000000000000000000000000000000000000000000000000000122d000000000000000000000000000000000000000000000000000000000000004000000000000000000000000000000000000000000000000000000000000000049b2b38bf310be6ae453c74f25ea6c02f48cdfd52cbe3a88050a72e911d39a8fe7f67ac7fc4b6d9c6e218796e7e938559d9af3658c8a63ed651af8f490dc4e6c2b0bcf4a4669bba68347cf064c34eab00977fe1d3308c2688d9bd22416e1cb6f7597ed2a6b76cecdce5905e14162eba78aea648dbad70e6a095347b67b61bfc2c","isError":"0","methodId":"0x","nonce":"55","timeStamp":"1761942001","to":"0x1349a9ddee26fe16d0d44e35b3cb9b0ca18213a4","transactionIndex":"12","txreceipt_status":"1","value":"0"}],"status":"1"}'
    headers:
      CF-RAY:
      - 9d7b1a863fb29aa8-MAD
      Cache-Control:
      - max-age=0, private, must-revalidate
      Connection:
      - keep-alive
      Content-Type:
      - application/json; charset=utf-8
      Date:
      - Thu, 05 Mar 2026 18:15:00 GMT
      Nel:
      - '{"report_to":"cf-nel","success_fraction":0.0,"max_age":604800}'
      Report-To:
      - '{"group":"cf-nel","max_age":604800,"endpoints":[{"url":"https://a.nel.cloudflare.com/report/v4?s=e81HG9IvAz0UjQQxekpOIZdP0JeMHtZrTPW1ZM6i2y56VsP9exAgGeRHwv7M0rqlyQauYiNcTPfkaTlamvYKxQAL75s7CnENYYYyy6izANA%3D"}]}'
      Server:
      - cloudflare
      Transfer-Encoding:
      - chunked
      access-control-allow-credentials:
      - 'true'
      access-control-allow-origin:
      - '*'
      access-control-expose-headers:
      - bypass-429-option,x-ratelimit-reset,x-ratelimit-limit,x-ratelimit-remaining,api-v2-temp-token
      alt-svc:
      - h3=":443"; ma=86400
      bypass-429-option:
      - no_bypass
      cf-cache-status:
      - DYNAMIC
      content-length:
      - '1052'
      strict-transport-security:
      - max-age=31536000; includeSubDomains
      x-ratelimit-limit:
      - '600'
      x-ratelimit-remaining:
      - '597'
      x-ratelimit-reset:
      - '59140'
      x-request-id:
      - 5cb78b68bcacfc5b5368de2709530992
    status:
      code: 200
      message: OK
- request:
    body: null
    headers:
      Accept:
      - '*/*'
      Accept-Encoding:
      - gzip, deflate
      Connection:
      - keep-alive
      User-Agent:
      - rotki/1.42.1.dev85+g21cbca5056.d20260305
    method: GET
    uri: https://api.blockscout.com/8453/api/v2/transactions/0xfaa51ffecb5388ef59808d4f3f5e6e07b8a47d4a7d195c467bf77c24ee77b287
  response:
    body:
      string: '{"l1_gas_used":"2972","priority_fee":"198580683411","raw_input":"0x2f52ebb7000000000000000000000000000000000000000000000000000000000000122d000000000000000000000000000000000000000000000000000000000000004000000000000000000000000000000000000000000000000000000000000000049b2b38bf310be6ae453c74f25ea6c02f48cdfd52cbe3a88050a72e911d39a8fe7f67ac7fc4b6d9c6e218796e7e938559d9af3658c8a63ed651af8f490dc4e6c2b0bcf4a4669bba68347cf064c34eab00977fe1d3308c2688d9bd22416e1cb6f7597ed2a6b76cecdce5905e14162eba78aea648dbad70e6a095347b67b61bfc2c","is_pending_update":false,"op_withdrawals":[],"result":"success","hash":"0xfaa51ffecb5388ef59808d4f3f5e6e07b8a47d4a7d195c467bf77c24ee77b287","max_fee_per_gas":"13052088","revert_reason":null,"confirmation_duration":[0,2.0e3],"transaction_burnt_fee":"266648651743","type":2,"token_transfers_overflow":false,"confirmations":5386397,"position":12,"max_priority_fee_per_gas":"2027223","transaction_tag":null,"created_contract":null,"value":"0","l1_fee_scalar":"0","from":{"ens_domain_name":"lefteris.eth","hash":"0x2B888954421b424C5D3D9Ce9bB67c9bD47537d12","implementations":[],"is_contract":false,"is_scam":false,"is_verified":false,"metadata":{"tags":[{"meta":{"bgColor":"#8465CB","tagIcon":"data:image/svg+xml;utf8,%3Csvg%20xmlns%3D%22http%3A%2F%2Fwww.w3.org%2F2000%2Fsvg%22%20xmlns%3Axlink%3D%22http%3A%2F%2Fwww.w3.org%2F1999%2Fxlink%22%20viewBox%3D%220%200%2032%2029%22%3E%3Cpath%20d%3D%22M%205.507%200.072%20L%2026.097%200.072%20L%2026.097%204.167%20L%2031.952%204.167%20L%2030.725%208.263%20L%2029.686%208.263%20L%2029.686%2024.833%20C%2030.207%2024.833%2030.63%2025.249%2030.63%2025.763%20L%2030.63%2026.88%20L%2030.819%2026.88%20C%2031.341%2026.88%2031.764%2027.297%2031.764%2027.811%20L%2031.764%2028.928%20L%2021.185%2028.928%20L%2021.185%2027.811%20C%2021.185%2027.297%2021.608%2026.88%2022.13%2026.88%20L%2022.319%2026.88%20L%2022.319%2025.763%20C%2022.319%2025.316%2022.639%2024.943%2023.065%2024.853%20L%2023.045%2015.71%20C%2022.711%2012.057%2019.596%209.194%2015.802%209.194%20C%2012.008%209.194%208.893%2012.057%208.559%2015.71%20L%208.539%2024.845%20C%209.043%2024.919%209.663%2025.302%209.663%2025.763%20L%209.663%2026.88%20L%209.852%2026.88%20C%2010.373%2026.88%2010.796%2027.297%2010.796%2027.811%20L%2010.796%2028.928%20L%200.218%2028.928%20L%200.218%2027.811%20C%200.218%2027.297%200.641%2026.88%201.162%2026.88%20L%201.351%2026.88%20L%201.351%2025.763%20C%201.351%2025.249%201.774%2024.833%202.296%2024.833%20L%202.296%208.263%20L%201.257%208.263%20L%200.029%204.167%20L%205.507%204.167%20L%205.507%200.072%20Z%22%20fill%3D%22rgb(255%2C%20255%2C%20255)%22%3E%3C%2Fpath%3E%3Cpath%20d%3D%22M%2026.097%200.072%20L%2026.166%200.072%20L%2026.166%200.004%20L%2026.097%200.004%20Z%20M%205.507%200.072%20L%205.507%200.004%20L%205.438%200.004%20L%205.438%200.072%20Z%20M%2026.097%204.167%20L%2026.028%204.167%20L%2026.028%204.235%20L%2026.097%204.235%20Z%20M%2031.952%204.167%20L%2032.019%204.187%20L%2032.045%204.099%20L%2031.952%204.099%20L%2031.952%204.167%20Z%20M%2030.725%208.263%20L%2030.725%208.331%20L%2030.776%208.331%20L%2030.791%208.282%20Z%20M%2029.686%208.263%20L%2029.686%208.195%20L%2029.617%208.195%20L%2029.617%208.263%20Z%20M%2029.686%2024.833%20L%2029.617%2024.833%20L%2029.617%2024.901%20L%2029.686%2024.901%20Z%20M%2030.63%2026.88%20L%2030.561%2026.88%20L%2030.561%2026.948%20L%2030.63%2026.948%20Z%20M%2031.764%2028.928%20L%2031.764%2028.996%20L%2031.832%2028.996%20L%2031.832%2028.928%20Z%20M%2021.185%2028.928%20L%2021.116%2028.928%20L%2021.116%2028.996%20L%2021.185%2028.996%20Z%20M%2022.319%2026.88%20L%2022.319%2026.948%20L%2022.388%2026.948%20L%2022.388%2026.88%20Z%20M%2023.065%2024.853%20L%2023.08%2024.919%20L%2023.134%2024.908%20L%2023.134%2024.853%20Z%20M%2023.045%2015.71%20L%2023.114%2015.71%20L%2023.114%2015.707%20L%2023.113%2015.704%20Z%20M%208.559%2015.71%20L%208.49%2015.704%20L%208.49%2015.707%20L%208.49%2015.71%20Z%20M%208.539%2024.845%20L%208.47%2024.845%20L%208.469%2024.904%20L%208.528%2024.913%20Z%20M%209.663%2026.88%20L%209.594%2026.88%20L%209.594%2026.948%20L%209.663%2026.948%20Z%20M%2010.796%2028.928%20L%2010.796%2028.996%20L%2010.865%2028.996%20L%2010.865%2028.928%20Z%20M%200.218%2028.928%20L%200.149%2028.928%20L%200.149%2028.996%20L%200.218%2028.996%20Z%20M%201.351%2026.88%20L%201.351%2026.948%20L%201.42%2026.948%20L%201.42%2026.88%20Z%20M%202.296%2024.833%20L%202.296%2024.901%20L%202.365%2024.901%20L%202.365%2024.833%20Z%20M%202.296%208.263%20L%202.365%208.263%20L%202.365%208.195%20L%202.296%208.195%20Z%20M%201.257%208.263%20L%201.191%208.282%20L%201.205%208.331%20L%201.257%208.331%20Z%20M%200.029%204.167%20L%200.029%204.1%20L%20-0.063%204.1%20L%20-0.037%204.187%20L%200.029%204.167%20Z%20M%205.507%204.167%20L%205.507%204.235%20L%205.576%204.235%20L%205.576%204.167%20Z%20M%2026.097%200.004%20L%205.507%200.004%20L%205.507%200.139%20L%2026.097%200.139%20Z%20M%2026.166%204.167%20L%2026.166%200.072%20L%2026.028%200.072%20L%2026.028%204.167%20L%2026.166%204.167%20Z%20M%2031.952%204.099%20L%2026.097%204.099%20L%2026.097%204.235%20L%2031.952%204.235%20Z%20M%2030.791%208.282%20L%2032.019%204.187%20L%2031.886%204.148%20L%2030.658%208.244%20Z%20M%2029.686%208.331%20L%2030.725%208.331%20L%2030.725%208.195%20L%2029.686%208.195%20Z%20M%2029.755%2024.833%20L%2029.755%208.263%20L%2029.617%208.263%20L%2029.617%2024.833%20Z%20M%2030.699%2025.763%20C%2030.699%2025.212%2030.245%2024.765%2029.686%2024.765%20L%2029.686%2024.9%20C%2030.169%2024.9%2030.561%2025.287%2030.561%2025.763%20Z%20M%2030.699%2026.88%20L%2030.699%2025.763%20L%2030.561%2025.763%20L%2030.561%2026.88%20Z%20M%2030.819%2026.813%20L%2030.63%2026.813%20L%2030.63%2026.948%20L%2030.819%2026.948%20Z%20M%2031.832%2027.811%20C%2031.832%2027.26%2031.379%2026.813%2030.819%2026.813%20L%2030.819%2026.948%20C%2031.303%2026.948%2031.695%2027.335%2031.695%2027.811%20Z%20M%2031.832%2028.928%20L%2031.832%2027.811%20L%2031.695%2027.811%20L%2031.695%2028.928%20Z%20M%2026.097%2028.996%20L%2031.764%2028.996%20L%2031.764%2028.86%20L%2026.097%2028.86%20Z%20M%2023.074%2028.996%20L%2026.097%2028.996%20L%2026.097%2028.86%20L%2023.074%2028.86%20Z%20M%2021.185%2028.996%20L%2023.074%2028.996%20L%2023.074%2028.86%20L%2021.185%2028.86%20Z%20M%2021.116%2027.811%20L%2021.116%2028.928%20L%2021.254%2028.928%20L%2021.254%2027.811%20Z%20M%2022.13%2026.813%20C%2021.57%2026.813%2021.116%2027.26%2021.116%2027.811%20L%2021.254%2027.811%20C%2021.254%2027.335%2021.646%2026.948%2022.13%2026.948%20Z%20M%2022.319%2026.813%20L%2022.13%2026.813%20L%2022.13%2026.948%20L%2022.319%2026.948%20Z%20M%2022.25%2025.763%20L%2022.25%2026.88%20L%2022.388%2026.88%20L%2022.388%2025.763%20Z%20M%2023.051%2024.787%20C%2022.593%2024.883%2022.25%2025.284%2022.25%2025.763%20L%2022.388%2025.763%20C%2022.388%2025.349%2022.684%2025.003%2023.08%2024.919%20Z%20M%2022.976%2015.71%20L%2022.996%2024.853%20L%2023.134%2024.853%20L%2023.114%2015.71%20Z%20M%2015.802%209.262%20C%2019.559%209.262%2022.645%2012.098%2022.976%2015.716%20L%2023.113%2015.704%20C%2022.776%2012.016%2019.632%209.126%2015.802%209.126%20Z%20M%208.628%2015.716%20C%208.959%2012.098%2012.044%209.262%2015.802%209.262%20L%2015.802%209.126%20C%2011.972%209.126%208.828%2012.016%208.49%2015.704%20Z%20M%208.608%2024.845%20L%208.628%2015.71%20L%208.49%2015.71%20L%208.47%2024.845%20Z%20M%209.732%2025.763%20C%209.732%2025.502%209.557%2025.273%209.331%2025.105%20C%209.104%2024.935%208.812%2024.817%208.549%2024.778%20L%208.528%2024.912%20C%208.769%2024.948%209.039%2025.057%209.248%2025.213%20C%209.459%2025.37%209.594%2025.563%209.594%2025.763%20Z%20M%209.732%2026.88%20L%209.732%2025.763%20L%209.594%2025.763%20L%209.594%2026.88%20Z%20M%209.852%2026.813%20L%209.663%2026.813%20L%209.663%2026.948%20L%209.852%2026.948%20Z%20M%2010.865%2027.811%20C%2010.865%2027.26%2010.411%2026.813%209.852%2026.813%20L%209.852%2026.948%20C%2010.335%2026.948%2010.727%2027.335%2010.727%2027.811%20Z%20M%2010.865%2028.928%20L%2010.865%2027.811%20L%2010.727%2027.811%20L%2010.727%2028.928%20Z%20M%208.529%2028.996%20L%2010.796%2028.996%20L%2010.796%2028.86%20L%208.529%2028.86%20Z%20M%208.372%2028.996%20L%208.529%2028.996%20L%208.529%2028.86%20L%208.372%2028.86%20Z%20M%205.507%2028.996%20L%208.372%2028.996%20L%208.372%2028.86%20L%205.507%2028.86%20Z%20M%200.218%2028.996%20L%205.507%2028.996%20L%205.507%2028.86%20L%200.218%2028.86%20Z%20M%200.149%2027.811%20L%200.149%2028.928%20L%200.287%2028.928%20L%200.287%2027.811%20Z%20M%201.162%2026.813%20C%200.603%2026.813%200.149%2027.26%200.149%2027.811%20L%200.287%2027.811%20C%200.287%2027.335%200.679%2026.948%201.162%2026.948%20Z%20M%201.351%2026.813%20L%201.162%2026.813%20L%201.162%2026.948%20L%201.351%2026.948%20Z%20M%201.282%2025.763%20L%201.282%2026.88%20L%201.42%2026.88%20L%201.42%2025.763%20Z%20M%202.296%2024.765%20C%201.736%2024.765%201.282%2025.212%201.282%2025.763%20L%201.42%2025.763%20C%201.42%2025.287%201.812%2024.9%202.296%2024.9%20Z%20M%202.227%208.263%20L%202.227%2024.833%20L%202.365%2024.833%20L%202.365%208.263%20Z%20M%201.257%208.331%20L%202.296%208.331%20L%202.296%208.195%20L%201.257%208.195%20Z%20M%20-0.037%204.187%20L%201.191%208.282%20L%201.323%208.244%20L%200.095%204.148%20Z%20M%205.507%204.099%20L%200.029%204.099%20L%200.029%204.235%20L%205.507%204.235%20L%205.507%204.099%20Z%20M%205.438%200.072%20L%205.438%204.167%20L%205.576%204.167%20L%205.576%200.072%20Z%22%20fill%3D%22rgb(255%2C255%2C255)%22%3E%3C%2Fpath%3E%3C%2Fsvg%3E","textColor":"#FFFFFF","tooltipDescription":"This
        address is linked to a Farcaster account","warpcastHandle":"lefteris.eth"},"name":"Farcaster","ordinal":0,"slug":"warpcast-account","tagType":"classifier"}]},"name":null,"private_tags":[],"proxy_type":null,"public_tags":[],"reputation":"ok","watchlist_names":[]},"gas_used":"97957","status":"ok","to":{"ens_domain_name":null,"hash":"0x1349A9DdEe26Fe16D0D44E35B3CB9B0CA18213a4","implementations":[],"is_contract":true,"is_scam":false,"is_verified":true,"metadata":{"tags":[{"meta":{"projectName":"Mint
        Club","tagIcon ":"https://blockscout-icons.s3.us-east-1.amazonaws.com/OLI_tag_logo.svg","tagUrl":"https://app.klerosscout.eth.limo/#/?registry=Single_Tags&itemdetails=0xc0269812a2f2001281b112377a3a7dcf13aaa50e9503f49262f4ce81ab3b43e9@0x66260c69d03837016d88c9877e61e08ef74c59f2","textColor":"#C163D4","tooltipAttribution":"https://www.openlabelsinitiative.org?utm_source=blockscout","tooltipAttributionIcon":"https://blockscout-icons.s3.us-east-1.amazonaws.com/OLI_tag_logo.svg","tooltipDescription":"Mint
        Club''s Merkle Distributor contract for its airdrop tool on Base Mainnet.","tooltipUrl":"https://mint.club/","verifiedDomains":["mint.club"]},"name":"Mint
        Club : MerkleDistributor","ordinal":10,"slug":"mint-club--merkledistributor","tagType":"name"},{"meta":{"appActionButtonText":"Mint.Club","appID":"mint.club"},"name":"Mint
        Club ","ordinal":0,"slug":"mint-club","tagType":"protocol"}]},"name":"MerkleDistributor","private_tags":[],"proxy_type":null,"public_tags":[],"reputation":"ok","watchlist_names":[]},"authorization_list":[],"l1_fee":"1763435344","method":"claim","fee":{"type":"actual","value":"466992770498"},"actions":[],"gas_limit":"98929","gas_price":"4749322","decoded_input":{"method_call":"claim(uint256
        distributionId, bytes32[] merkleProof)","method_id":"2f52ebb7","parameters":[{"name":"distributionId","type":"uint256","value":"4653"},{"name":"merkleProof","type":"bytes32[]","value":["0x9b2b38bf310be6ae453c74f25ea6c02f48cdfd52cbe3a88050a72e911d39a8fe","0x7f67ac7fc4b6d9c6e218796e7e938559d9af3658c8a63ed651af8f490dc4e6c2","0xb0bcf4a4669bba68347cf064c34eab00977fe1d3308c2688d9bd22416e1cb6f7","0x597ed2a6b76cecdce5905e14162eba78aea648dbad70e6a095347b67b61bfc2c"]}]},"l1_gas_price":"261462029","token_transfers":[{"block_hash":"0x8ce07a1289ddfac5d5dd6ea0457da84414e69bc1d0c00b8243b51e84d1da7353","block_number":37576327,"from":{"ens_domain_name":null,"hash":"0x1349A9DdEe26Fe16D0D44E35B3CB9B0CA18213a4","implementations":[],"is_contract":true,"is_scam":false,"is_verified":true,"metadata":{"tags":[{"meta":{"projectName":"Mint
        Club","tagIcon ":"https://blockscout-icons.s3.us-east-1.amazonaws.com/OLI_tag_logo.svg","tagUrl":"https://app.klerosscout.eth.limo/#/?registry=Single_Tags&itemdetails=0xc0269812a2f2001281b112377a3a7dcf13aaa50e9503f49262f4ce81ab3b43e9@0x66260c69d03837016d88c9877e61e08ef74c59f2","textColor":"#C163D4","tooltipAttribution":"https://www.openlabelsinitiative.org?utm_source=blockscout","tooltipAttributionIcon":"https://blockscout-icons.s3.us-east-1.amazonaws.com/OLI_tag_logo.svg","tooltipDescription":"Mint
        Club''s Merkle Distributor contract for its airdrop tool on Base Mainnet.","tooltipUrl":"https://mint.club/","verifiedDomains":["mint.club"]},"name":"Mint
        Club : MerkleDistributor","ordinal":10,"slug":"mint-club--merkledistributor","tagType":"name"},{"meta":{"appActionButtonText":"Mint.Club","appID":"mint.club"},"name":"Mint
        Club ","ordinal":0,"slug":"mint-club","tagType":"protocol"}]},"name":"MerkleDistributor","private_tags":[],"proxy_type":null,"public_tags":[],"reputation":"ok","watchlist_names":[]},"log_index":35,"method":null,"timestamp":null,"to":{"ens_domain_name":"lefteris.eth","hash":"0x2B888954421b424C5D3D9Ce9bB67c9bD47537d12","implementations":[],"is_contract":false,"is_scam":false,"is_verified":false,"metadata":{"tags":[{"meta":{"bgColor":"#8465CB","tagIcon":"data:image/svg+xml;utf8,%3Csvg%20xmlns%3D%22http%3A%2F%2Fwww.w3.org%2F2000%2Fsvg%22%20xmlns%3Axlink%3D%22http%3A%2F%2Fwww.w3.org%2F1999%2Fxlink%22%20viewBox%3D%220%200%2032%2029%22%3E%3Cpath%20d%3D%22M%205.507%200.072%20L%2026.097%200.072%20L%2026.097%204.167%20L%2031.952%204.167%20L%2030.725%208.263%20L%2029.686%208.263%20L%2029.686%2024.833%20C%2030.207%2024.833%2030.63%2025.249%2030.63%2025.763%20L%2030.63%2026.88%20L%2030.819%2026.88%20C%2031.341%2026.88%2031.764%2027.297%2031.764%2027.811%20L%2031.764%2028.928%20L%2021.185%2028.928%20L%2021.185%2027.811%20C%2021.185%2027.297%2021.608%2026.88%2022.13%2026.88%20L%2022.319%2026.88%20L%2022.319%2025.763%20C%2022.319%2025.316%2022.639%2024.943%2023.065%2024.853%20L%2023.045%2015.71%20C%2022.711%2012.057%2019.596%209.194%2015.802%209.194%20C%2012.008%209.194%208.893%2012.057%208.559%2015.71%20L%208.539%2024.845%20C%209.043%2024.919%209.663%2025.302%209.663%2025.763%20L%209.663%2026.88%20L%209.852%2026.88%20C%2010.373%2026.88%2010.796%2027.297%2010.796%2027.811%20L%2010.796%2028.928%20L%200.218%2028.928%20L%200.218%2027.811%20C%200.218%2027.297%200.641%2026.88%201.162%2026.88%20L%201.351%2026.88%20L%201.351%2025.763%20C%201.351%2025.249%201.774%2024.833%202.296%2024.833%20L%202.296%208.263%20L%201.257%208.263%20L%200.029%204.167%20L%205.507%204.167%20L%205.507%200.072%20Z%22%20fill%3D%22rgb(255%2C%20255%2C%20255)%22%3E%3C%2Fpath%3E%3Cpath%20d%3D%22M%2026.097%200.072%20L%2026.166%200.072%20L%2026.166%200.004%20L%2026.097%200.004%20Z%20M%205.507%200.072%20L%205.507%200.004%20L%205.438%200.004%20L%205.438%200.072%20Z%20M%2026.097%204.167%20L%2026.028%204.167%20L%2026.028%204.235%20L%2026.097%204.235%20Z%20M%2031.952%204.167%20L%2032.019%204.187%20L%2032.045%204.099%20L%2031.952%204.099%20L%2031.952%204.167%20Z%20M%2030.725%208.263%20L%2030.725%208.331%20L%2030.776%208.331%20L%2030.791%208.282%20Z%20M%2029.686%208.263%20L%2029.686%208.195%20L%2029.617%208.195%20L%2029.617%208.263%20Z%20M%2029.686%2024.833%20L%2029.617%2024.833%20L%2029.617%2024.901%20L%2029.686%2024.901%20Z%20M%2030.63%2026.88%20L%2030.561%2026.88%20L%2030.561%2026.948%20L%2030.63%2026.948%20Z%20M%2031.764%2028.928%20L%2031.764%2028.996%20L%2031.832%2028.996%20L%2031.832%2028.928%20Z%20M%2021.185%2028.928%20L%2021.116%2028.928%20L%2021.116%2028.996%20L%2021.185%2028.996%20Z%20M%2022.319%2026.88%20L%2022.319%2026.948%20L%2022.388%2026.948%20L%2022.388%2026.88%20Z%20M%2023.065%2024.853%20L%2023.08%2024.919%20L%2023.134%2024.908%20L%2023.134%2024.853%20Z%20M%2023.045%2015.71%20L%2023.114%2015.71%20L%2023.114%2015.707%20L%2023.113%2015.704%20Z%20M%208.559%2015.71%20L%208.49%2015.704%20L%208.49%2015.707%20L%208.49%2015.71%20Z%20M%208.539%2024.845%20L%208.47%2024.845%20L%208.469%2024.904%20L%208.528%2024.913%20Z%20M%209.663%2026.88%20L%209.594%2026.88%20L%209.594%2026.948%20L%209.663%2026.948%20Z%20M%2010.796%2028.928%20L%2010.796%2028.996%20L%2010.865%2028.996%20L%2010.865%2028.928%20Z%20M%200.218%2028.928%20L%200.149%2028.928%20L%200.149%2028.996%20L%200.218%2028.996%20Z%20M%201.351%2026.88%20L%201.351%2026.948%20L%201.42%2026.948%20L%201.42%2026.88%20Z%20M%202.296%2024.833%20L%202.296%2024.901%20L%202.365%2024.901%20L%202.365%2024.833%20Z%20M%202.296%208.263%20L%202.365%208.263%20L%202.365%208.195%20L%202.296%208.195%20Z%20M%201.257%208.263%20L%201.191%208.282%20L%201.205%208.331%20L%201.257%208.331%20Z%20M%200.029%204.167%20L%200.029%204.1%20L%20-0.063%204.1%20L%20-0.037%204.187%20L%200.029%204.167%20Z%20M%205.507%204.167%20L%205.507%204.235%20L%205.576%204.235%20L%205.576%204.167%20Z%20M%2026.097%200.004%20L%205.507%200.004%20L%205.507%200.139%20L%2026.097%200.139%20Z%20M%2026.166%204.167%20L%2026.166%200.072%20L%2026.028%200.072%20L%2026.028%204.167%20L%2026.166%204.167%20Z%20M%2031.952%204.099%20L%2026.097%204.099%20L%2026.097%204.235%20L%2031.952%204.235%20Z%20M%2030.791%208.282%20L%2032.019%204.187%20L%2031.886%204.148%20L%2030.658%208.244%20Z%20M%2029.686%208.331%20L%2030.725%208.331%20L%2030.725%208.195%20L%2029.686%208.195%20Z%20M%2029.755%2024.833%20L%2029.755%208.263%20L%2029.617%208.263%20L%2029.617%2024.833%20Z%20M%2030.699%2025.763%20C%2030.699%2025.212%2030.245%2024.765%2029.686%2024.765%20L%2029.686%2024.9%20C%2030.169%2024.9%2030.561%2025.287%2030.561%2025.763%20Z%20M%2030.699%2026.88%20L%2030.699%2025.763%20L%2030.561%2025.763%20L%2030.561%2026.88%20Z%20M%2030.819%2026.813%20L%2030.63%2026.813%20L%2030.63%2026.948%20L%2030.819%2026.948%20Z%20M%2031.832%2027.811%20C%2031.832%2027.26%2031.379%2026.813%2030.819%2026.813%20L%2030.819%2026.948%20C%2031.303%2026.948%2031.695%2027.335%2031.695%2027.811%20Z%20M%2031.832%2028.928%20L%2031.832%2027.811%20L%2031.695%2027.811%20L%2031.695%2028.928%20Z%20M%2026.097%2028.996%20L%2031.764%2028.996%20L%2031.764%2028.86%20L%2026.097%2028.86%20Z%20M%2023.074%2028.996%20L%2026.097%2028.996%20L%2026.097%2028.86%20L%2023.074%2028.86%20Z%20M%2021.185%2028.996%20L%2023.074%2028.996%20L%2023.074%2028.86%20L%2021.185%2028.86%20Z%20M%2021.116%2027.811%20L%2021.116%2028.928%20L%2021.254%2028.928%20L%2021.254%2027.811%20Z%20M%2022.13%2026.813%20C%2021.57%2026.813%2021.116%2027.26%2021.116%2027.811%20L%2021.254%2027.811%20C%2021.254%2027.335%2021.646%2026.948%2022.13%2026.948%20Z%20M%2022.319%2026.813%20L%2022.13%2026.813%20L%2022.13%2026.948%20L%2022.319%2026.948%20Z%20M%2022.25%2025.763%20L%2022.25%2026.88%20L%2022.388%2026.88%20L%2022.388%2025.763%20Z%20M%2023.051%2024.787%20C%2022.593%2024.883%2022.25%2025.284%2022.25%2025.763%20L%2022.388%2025.763%20C%2022.388%2025.349%2022.684%2025.003%2023.08%2024.919%20Z%20M%2022.976%2015.71%20L%2022.996%2024.853%20L%2023.134%2024.853%20L%2023.114%2015.71%20Z%20M%2015.802%209.262%20C%2019.559%209.262%2022.645%2012.098%2022.976%2015.716%20L%2023.113%2015.704%20C%2022.776%2012.016%2019.632%209.126%2015.802%209.126%20Z%20M%208.628%2015.716%20C%208.959%2012.098%2012.044%209.262%2015.802%209.262%20L%2015.802%209.126%20C%2011.972%209.126%208.828%2012.016%208.49%2015.704%20Z%20M%208.608%2024.845%20L%208.628%2015.71%20L%208.49%2015.71%20L%208.47%2024.845%20Z%20M%209.732%2025.763%20C%209.732%2025.502%209.557%2025.273%209.331%2025.105%20C%209.104%2024.935%208.812%2024.817%208.549%2024.778%20L%208.528%2024.912%20C%208.769%2024.948%209.039%2025.057%209.248%2025.213%20C%209.459%2025.37%209.594%2025.563%209.594%2025.763%20Z%20M%209.732%2026.88%20L%209.732%2025.763%20L%209.594%2025.763%20L%209.594%2026.88%20Z%20M%209.852%2026.813%20L%209.663%2026.813%20L%209.663%2026.948%20L%209.852%2026.948%20Z%20M%2010.865%2027.811%20C%2010.865%2027.26%2010.411%2026.813%209.852%2026.813%20L%209.852%2026.948%20C%2010.335%2026.948%2010.727%2027.335%2010.727%2027.811%20Z%20M%2010.865%2028.928%20L%2010.865%2027.811%20L%2010.727%2027.811%20L%2010.727%2028.928%20Z%20M%208.529%2028.996%20L%2010.796%2028.996%20L%2010.796%2028.86%20L%208.529%2028.86%20Z%20M%208.372%2028.996%20L%208.529%2028.996%20L%208.529%2028.86%20L%208.372%2028.86%20Z%20M%205.507%2028.996%20L%208.372%2028.996%20L%208.372%2028.86%20L%205.507%2028.86%20Z%20M%200.218%2028.996%20L%205.507%2028.996%20L%205.507%2028.86%20L%200.218%2028.86%20Z%20M%200.149%2027.811%20L%200.149%2028.928%20L%200.287%2028.928%20L%200.287%2027.811%20Z%20M%201.162%2026.813%20C%200.603%2026.813%200.149%2027.26%200.149%2027.811%20L%200.287%2027.811%20C%200.287%2027.335%200.679%2026.948%201.162%2026.948%20Z%20M%201.351%2026.813%20L%201.162%2026.813%20L%201.162%2026.948%20L%201.351%2026.948%20Z%20M%201.282%2025.763%20L%201.282%2026.88%20L%201.42%2026.88%20L%201.42%2025.763%20Z%20M%202.296%2024.765%20C%201.736%2024.765%201.282%2025.212%201.282%2025.763%20L%201.42%2025.763%20C%201.42%2025.287%201.812%2024.9%202.296%2024.9%20Z%20M%202.227%208.263%20L%202.227%2024.833%20L%202.365%2024.833%20L%202.365%208.263%20Z%20M%201.257%208.331%20L%202.296%208.331%20L%202.296%208.195%20L%201.257%208.195%20Z%20M%20-0.037%204.187%20L%201.191%208.282%20L%201.323%208.244%20L%200.095%204.148%20Z%20M%205.507%204.099%20L%200.029%204.099%20L%200.029%204.235%20L%205.507%204.235%20L%205.507%204.099%20Z%20M%205.438%200.072%20L%205.438%204.167%20L%205.576%204.167%20L%205.576%200.072%20Z%22%20fill%3D%22rgb(255%2C255%2C255)%22%3E%3C%2Fpath%3E%3C%2Fsvg%3E","textColor":"#FFFFFF","tooltipDescription":"This
        address is linked to a Farcaster account","warpcastHandle":"lefteris.eth"},"name":"Farcaster","ordinal":0,"slug":"warpcast-account","tagType":"classifier"}]},"name":null,"private_tags":[],"proxy_type":null,"public_tags":[],"reputation":"ok","watchlist_names":[]},"token":{"address_hash":"0x18b6f6049A0af4Ed2BBe0090319174EeeF89f53a","circulating_market_cap":"120213.7937292992","decimals":"18","exchange_rate":"0.120504","holders_count":"542631","icon_url":"https://assets.coingecko.com/coins/images/52160/small/Untitled_design_3.PNG?1763494826","name":"RUNNER","reputation":"ok","symbol":"RUNNER","total_supply":"1000000000000000000000000","type":"ERC-20","volume_24h":"2620.2963576405214"},"token_type":"ERC-20","total":{"decimals":"18","value":"417333333333333333333"},"transaction_hash":"0xfaa51ffecb5388ef59808d4f3f5e6e07b8a47d4a7d195c467bf77c24ee77b287","type":"token_transfer"}],"base_fee_per_gas":"2722099","timestamp":"2025-10-31T20:20:01.000000Z","nonce":55,"historic_exchange_rate":"3846.74","transaction_types":["contract_call","token_transfer"],"exchange_rate":"2065.95","block_number":37576327,"has_error_in_internal_transactions":null}'
    headers:
      CF-RAY:
      - 9d7b1a87095dc8f6-MAD
      Cache-Control:
      - max-age=0, private, must-revalidate
      Connection:
      - keep-alive
      Content-Type:
      - application/json; charset=utf-8
      Date:
      - Thu, 05 Mar 2026 18:15:01 GMT
      Nel:
      - '{"report_to":"cf-nel","success_fraction":0.0,"max_age":604800}'
      Report-To:
      - '{"group":"cf-nel","max_age":604800,"endpoints":[{"url":"https://a.nel.cloudflare.com/report/v4?s=Bu8lI91m4FwheYoViDab6RQq8QdJR0CeN0xEEmgFQ0oX8sgkfumgXwvPzjWJDGonfZRMIW8uwFcq7KWVYhFXF6IE%2BZY7Us9Vz%2BOk6kM%2BXHabhg%3D%3D"}]}'
      Server:
      - cloudflare
      Transfer-Encoding:
      - chunked
      access-control-allow-credentials:
      - 'true'
      access-control-allow-origin:
      - '*'
      access-control-expose-headers:
      - bypass-429-option,x-ratelimit-reset,x-ratelimit-limit,x-ratelimit-remaining,api-v2-temp-token
      alt-svc:
      - h3=":443"; ma=86400
      bypass-429-option:
      - temporary_token
      cf-cache-status:
      - DYNAMIC
      content-length:
      - '22633'
      strict-transport-security:
      - max-age=31536000; includeSubDomains
      x-ratelimit-limit:
      - '600'
      x-ratelimit-remaining:
      - '596'
      x-ratelimit-reset:
      - '59001'
      x-request-id:
      - 39f77f3c0d9253f1657ba140d7e7b744
    status:
      code: 200
      message: OK
- request:
    body: null
    headers:
      Accept:
      - '*/*'
      Accept-Encoding:
      - gzip, deflate
      Connection:
      - keep-alive
      User-Agent:
      - rotki/1.42.1.dev85+g21cbca5056.d20260305
    method: GET
    uri: https://api.blockscout.com/8453/api?action=txlistinternal&address=0x2B888954421b424C5D3D9Ce9bB67c9bD47537d12&endblock=37576376&module=account&sort=asc&startblock=37576276
  response:
    body:
      string: '{"message":"Some internal transactions within this block range have
        not yet been processed","result":[],"status":"2"}'
    headers:
      CF-RAY:
      - 9d7b1a8d5c85f779-MAD
      Cache-Control:
      - max-age=0, private, must-revalidate
      Connection:
      - keep-alive
      Content-Type:
      - application/json; charset=utf-8
      Date:
      - Thu, 05 Mar 2026 18:15:02 GMT
      Nel:
      - '{"report_to":"cf-nel","success_fraction":0.0,"max_age":604800}'
      Report-To:
      - '{"group":"cf-nel","max_age":604800,"endpoints":[{"url":"https://a.nel.cloudflare.com/report/v4?s=Skw14aCEJ1Auae1dHQgzeIO4NdHQWtkA7Arvip6RT%2BLKQ9ZRDjLHDkhNsSjWpjehAwFkBA2tCs0WREAMci9Q5%2FuTz1ah%2BuVhbNWb%2F817Gh0%3D"}]}'
      Server:
      - cloudflare
      Transfer-Encoding:
      - chunked
      access-control-allow-credentials:
      - 'true'
      access-control-allow-origin:
      - '*'
      access-control-expose-headers:
      - bypass-429-option,x-ratelimit-reset,x-ratelimit-limit,x-ratelimit-remaining,api-v2-temp-token
      alt-svc:
      - h3=":443"; ma=86400
      bypass-429-option:
      - no_bypass
      cf-cache-status:
      - DYNAMIC
      content-length:
      - '117'
      strict-transport-security:
      - max-age=31536000; includeSubDomains
      x-ratelimit-limit:
      - '600'
      x-ratelimit-remaining:
      - '595'
      x-ratelimit-reset:
      - '58010'
      x-request-id:
      - 633e6ef40b8352402e593ffa77310002
    status:
      code: 200
      message: OK
- request:
    body: null
    headers:
      Accept:
      - '*/*'
      Accept-Encoding:
      - gzip, deflate
      Connection:
      - keep-alive
      User-Agent:
      - rotki/1.42.1.dev85+g21cbca5056.d20260305
    method: GET
    uri: https://api.routescan.io/v2/network/mainnet/evm/8453/etherscan/api?action=txlistinternal&address=0x2B888954421b424C5D3D9Ce9bB67c9bD47537d12&endblock=37576376&module=account&offset=10000&page=1&sort=asc&startblock=37576276
  response:
    body:
      string: '{"status":"0","message":"No transactions found","result":[]}'
    headers:
      Alt-Svc:
      - h3=":443"; ma=86400
      Connection:
      - keep-alive
      Content-Length:
      - '60'
      Content-Type:
      - application/json; charset=utf-8
      Date:
      - Thu, 05 Mar 2026 18:15:02 GMT
      Via:
      - 1.1 e48a14501e2d5f7f3b7b6724900bcac0.cloudfront.net (CloudFront)
      X-Amz-Cf-Id:
      - luqBuNaVVN4uKBxSdJCxFra4SoJQ--R10ADVWku6pdLeY_QPeuNE9w==
      X-Amz-Cf-Pop:
      - MAD53-P6
      X-Cache:
      - Miss from cloudfront
      access-control-allow-origin:
      - '*'
      x-ratelimit-rpd-limit:
      - '100000'
      x-ratelimit-rpd-remaining:
      - '99999'
      x-ratelimit-rpd-reset:
      - '86400'
      x-ratelimit-rpm-limit:
      - '300'
      x-ratelimit-rpm-remaining:
      - '299'
      x-ratelimit-rpm-reset:
      - '60'
    status:
      code: 200
      message: OK
- request:
    body: null
    headers:
      Accept:
      - '*/*'
      Accept-Encoding:
      - gzip, deflate
      Connection:
      - keep-alive
      User-Agent:
      - rotki/1.42.1.dev85+g21cbca5056.d20260305
    method: GET
    uri: https://api.blockscout.com/8453/api?action=tokentx&address=0x2B888954421b424C5D3D9Ce9bB67c9bD47537d12&endblock=37576376&module=account&sort=asc&startblock=37576276
  response:
    body:
      string: '{"message":"OK","result":[{"value":"417333333333333333333","blockHash":"0x8ce07a1289ddfac5d5dd6ea0457da84414e69bc1d0c00b8243b51e84d1da7353","blockNumber":"37576327","confirmations":"5386396","contractAddress":"0x18b6f6049a0af4ed2bbe0090319174eeef89f53a","cumulativeGasUsed":"2500034","from":"0x1349a9ddee26fe16d0d44e35b3cb9b0ca18213a4","functionName":"claim(uint256
        amount, bytes32[] proof)","gas":"98929","gasPrice":"4749322","gasUsed":"97957","hash":"0xfaa51ffecb5388ef59808d4f3f5e6e07b8a47d4a7d195c467bf77c24ee77b287","input":"0x2f52ebb7000000000000000000000000000000000000000000000000000000000000122d000000000000000000000000000000000000000000000000000000000000004000000000000000000000000000000000000000000000000000000000000000049b2b38bf310be6ae453c74f25ea6c02f48cdfd52cbe3a88050a72e911d39a8fe7f67ac7fc4b6d9c6e218796e7e938559d9af3658c8a63ed651af8f490dc4e6c2b0bcf4a4669bba68347cf064c34eab00977fe1d3308c2688d9bd22416e1cb6f7597ed2a6b76cecdce5905e14162eba78aea648dbad70e6a095347b67b61bfc2c","methodId":"2f52ebb7","nonce":"55","timeStamp":"1761942001","to":"0x2b888954421b424c5d3d9ce9bb67c9bd47537d12","tokenDecimal":"18","tokenName":"RUNNER","tokenSymbol":"RUNNER","transactionIndex":"12"}],"status":"1"}'
    headers:
      CF-RAY:
      - 9d7b1a93de83c905-MAD
      Cache-Control:
      - max-age=0, private, must-revalidate
      Connection:
      - keep-alive
      Content-Type:
      - application/json; charset=utf-8
      Date:
      - Thu, 05 Mar 2026 18:15:03 GMT
      Nel:
      - '{"report_to":"cf-nel","success_fraction":0.0,"max_age":604800}'
      Report-To:
      - '{"group":"cf-nel","max_age":604800,"endpoints":[{"url":"https://a.nel.cloudflare.com/report/v4?s=OHUkae467waRt2jh83hmWLgyB8TnritYdONQr8P%2BbPEsiDqIzMjx8cE3qvuDQIiMSXOYfe2rSX%2F2SSBNc8Sxxg%2Fi%2FwYWg2pSyTqAtjqeDzHJqA%3D%3D"}]}'
      Server:
      - cloudflare
      Transfer-Encoding:
      - chunked
      access-control-allow-credentials:
      - 'true'
      access-control-allow-origin:
      - '*'
      access-control-expose-headers:
      - bypass-429-option,x-ratelimit-reset,x-ratelimit-limit,x-ratelimit-remaining,api-v2-temp-token
      alt-svc:
      - h3=":443"; ma=86400
      bypass-429-option:
      - no_bypass
      cf-cache-status:
      - DYNAMIC
      content-length:
      - '1203'
      strict-transport-security:
      - max-age=31536000; includeSubDomains
      x-ratelimit-limit:
      - '600'
      x-ratelimit-remaining:
      - '594'
      x-ratelimit-reset:
      - '56965'
      x-request-id:
      - 423772b5f4599d53dad99b013c0ced15
    status:
      code: 200
      message: OK
- request:
    body: '{"jsonrpc": "2.0", "method": "web3_clientVersion", "params": [], "id":
      0}'
    headers:
      Accept:
      - '*/*'
      Accept-Encoding:
      - gzip, deflate
      Connection:
      - keep-alive
      Content-Length:
      - '73'
      Content-Type:
      - application/json
      User-Agent:
      - web3.py/7.14.0/web3.providers.rpc.rpc.HTTPProvider
    method: POST
    uri: https://mainnet.base.org/
  response:
    body:
      string: '{"jsonrpc":"2.0","result":"Geth/v1.101609.0-stable-0c840dff/linux-amd64/go1.24.13","id":0}

        '
    headers:
      CF-RAY:
      - 9d7b1a95ce6daa4b-BCN
      Connection:
      - keep-alive
      Content-Type:
      - application/json
      Date:
      - Thu, 05 Mar 2026 18:15:03 GMT
      NEL:
      - '{"success_fraction":0.01,"report_to":"cf-nel","max_age":604800}'
      Report-To:
      - '{"endpoints":[{"url":"https:\/\/a.nel.cloudflare.com\/report\/v4?s=c48MmQSV8OuC1tXIKl43O5oG2HxzxeZohXYxfd2w0hvNAgZqWfAmcjlJQ%2F57shmBO24VoXM0r0VPKEqv1yKkvSberdTqtEdvzpfg0VGkiJvYOIu%2FbNwuLCsGNnn2tasOXRM%3D"}],"group":"cf-nel","max_age":604800}'
      Server:
      - cloudflare
      Set-Cookie:
      - __cf_bm=nlJul7Cl78ruX6iyCy_1FrhqDGHF.QITDjVe41oLS2Q-1772734503-1.0.1.1-hKXeGmnUqRt1Qabj57uevJ3AThbo8u8JaeMMJ4rKOsur0DB9S7ltWO8Dq.CNiZ7w9BUh5qDVCiALcGpc.qo0YET0UnTvu3WxbKbVzp5vMJA;
        path=/; expires=Thu, 05-Mar-26 18:45:03 GMT; domain=.base.org; HttpOnly; Secure;
        SameSite=None
      Strict-Transport-Security:
      - max-age=2592000
      Transfer-Encoding:
      - chunked
      X-Content-Type-Options:
      - nosniff
      cf-cache-status:
      - DYNAMIC
      content-length:
      - '91'
      vary:
      - Origin
      x-proxyd-cache-status:
      - MISS
    status:
      code: 200
      message: OK
- request:
    body: '{"jsonrpc": "2.0", "method": "net_version", "params": [], "id": 1}'
    headers:
      Accept:
      - '*/*'
      Accept-Encoding:
      - gzip, deflate
      Connection:
      - keep-alive
      Content-Length:
      - '66'
      Content-Type:
      - application/json
      Cookie:
      - __cf_bm=nlJul7Cl78ruX6iyCy_1FrhqDGHF.QITDjVe41oLS2Q-1772734503-1.0.1.1-hKXeGmnUqRt1Qabj57uevJ3AThbo8u8JaeMMJ4rKOsur0DB9S7ltWO8Dq.CNiZ7w9BUh5qDVCiALcGpc.qo0YET0UnTvu3WxbKbVzp5vMJA
      User-Agent:
      - web3.py/7.14.0/web3.providers.rpc.rpc.HTTPProvider
    method: POST
    uri: https://mainnet.base.org/
  response:
    body:
      string: '{"jsonrpc":"2.0","result":"8453","id":1}

        '
    headers:
      CF-RAY:
      - 9d7b1a96fe3d78b2-BCN
      Connection:
      - keep-alive
      Content-Length:
      - '41'
      Content-Type:
      - application/json
      Date:
      - Thu, 05 Mar 2026 18:15:03 GMT
      NEL:
      - '{"success_fraction":0.01,"report_to":"cf-nel","max_age":604800}'
      Report-To:
      - '{"endpoints":[{"url":"https:\/\/a.nel.cloudflare.com\/report\/v4?s=f%2FqnWHikfNSDQzO6SloJRW34%2BEe1qiU2MhgNzd3CwI7a5HbHqXTooLR5QXPTKe0%2F1AijKbrYSubVXa7sTnAJuagP3odg%2F9zWZyAcEfTREOq20P7KQ7m%2BDTjqnPRE%2F2GR%2FG4%3D"}],"group":"cf-nel","max_age":604800}'
      Server:
      - cloudflare
      Strict-Transport-Security:
      - max-age=2592000
      X-Content-Type-Options:
      - nosniff
      cf-cache-status:
      - DYNAMIC
      vary:
      - Origin
      x-proxyd-cache-status:
      - HIT
    status:
      code: 200
      message: OK
- request:
    body: '{"jsonrpc": "2.0", "method": "eth_blockNumber", "params": [], "id": 2}'
    headers:
      Accept:
      - '*/*'
      Accept-Encoding:
      - gzip, deflate
      Connection:
      - keep-alive
      Content-Length:
      - '70'
      Content-Type:
      - application/json
      Cookie:
      - __cf_bm=nlJul7Cl78ruX6iyCy_1FrhqDGHF.QITDjVe41oLS2Q-1772734503-1.0.1.1-hKXeGmnUqRt1Qabj57uevJ3AThbo8u8JaeMMJ4rKOsur0DB9S7ltWO8Dq.CNiZ7w9BUh5qDVCiALcGpc.qo0YET0UnTvu3WxbKbVzp5vMJA
      User-Agent:
      - web3.py/7.14.0/web3.providers.rpc.rpc.HTTPProvider
    method: POST
    uri: https://mainnet.base.org/
  response:
    body:
      string: '{"jsonrpc":"2.0","result":"0x28fb5a2","id":2}

        '
    headers:
      CF-RAY:
      - 9d7b1a98484c817a-BCN
      Connection:
      - keep-alive
      Content-Length:
      - '46'
      Content-Type:
      - application/json
      Date:
      - Thu, 05 Mar 2026 18:15:03 GMT
      NEL:
      - '{"success_fraction":0.01,"report_to":"cf-nel","max_age":604800}'
      Report-To:
      - '{"endpoints":[{"url":"https:\/\/a.nel.cloudflare.com\/report\/v4?s=2pF0hU%2BRSvtPlDkOS6CiyaNSOBlPTzFB8p4DYPtcWSs1vYIxx9ReLpa%2B76yjlqq26MP8kTDmhqm3C6cdbZOJdD%2BmNAHAtE0zQd4O3ewFnch8d56c1vIiKrHbM4eIehwSFdw%3D"}],"group":"cf-nel","max_age":604800}'
      Server:
      - cloudflare
      Strict-Transport-Security:
      - max-age=2592000
      X-Content-Type-Options:
      - nosniff
      cf-cache-status:
      - DYNAMIC
      vary:
      - Origin
      x-proxyd-cache-status:
      - MISS
    status:
      code: 200
      message: OK
- request:
    body: '{"jsonrpc": "2.0", "method": "eth_getBalance", "params": ["0x3a9e669d9e2d0171c8a057031a9e9C048b7FEE60",
      "0x3e541a"], "id": 3}'
    headers:
      Accept:
      - '*/*'
      Accept-Encoding:
      - gzip, deflate
      Connection:
      - keep-alive
      Content-Length:
      - '125'
      Content-Type:
      - application/json
      Cookie:
      - __cf_bm=nlJul7Cl78ruX6iyCy_1FrhqDGHF.QITDjVe41oLS2Q-1772734503-1.0.1.1-hKXeGmnUqRt1Qabj57uevJ3AThbo8u8JaeMMJ4rKOsur0DB9S7ltWO8Dq.CNiZ7w9BUh5qDVCiALcGpc.qo0YET0UnTvu3WxbKbVzp5vMJA
      User-Agent:
      - web3.py/7.14.0/web3.providers.rpc.rpc.HTTPProvider
    method: POST
    uri: https://mainnet.base.org/
  response:
    body:
      string: '{"jsonrpc":"2.0","result":"0x2386f26fc10000","id":3}

        '
    headers:
      CF-RAY:
      - 9d7b1a99781bb8e3-BCN
      Connection:
      - keep-alive
      Content-Type:
      - application/json
      Date:
      - Thu, 05 Mar 2026 18:15:04 GMT
      NEL:
      - '{"success_fraction":0.01,"report_to":"cf-nel","max_age":604800}'
      Report-To:
      - '{"endpoints":[{"url":"https:\/\/a.nel.cloudflare.com\/report\/v4?s=Q4p7CTHDaWfxpHbfGtsVGWokk9i5DWHE%2Fer3z%2BTAwoq0iZ4ZigwFoDOJBgSvSLAmOaouufXadySqXWznAhgDS7KN3arShXIbmkckBzjkTssXqBurMEYpfIxQf6%2FTDZu4EHI%3D"}],"group":"cf-nel","max_age":604800}'
      Server:
      - cloudflare
      Strict-Transport-Security:
      - max-age=2592000
      Transfer-Encoding:
      - chunked
      X-Content-Type-Options:
      - nosniff
      cf-cache-status:
      - DYNAMIC
      content-length:
      - '53'
      vary:
      - Origin
      x-proxyd-cache-status:
      - MISS
    status:
      code: 200
      message: OK
- request:
    body: '{"jsonrpc": "2.0", "method": "eth_getTransactionByHash", "params": ["0xc7e021f71a972940c2728717f058f49833e3aa4d074c3599054530f108c281b2"],
      "id": 4}'
    headers:
      Accept:
      - '*/*'
      Accept-Encoding:
      - gzip, deflate
      Connection:
      - keep-alive
      Content-Length:
      - '147'
      Content-Type:
      - application/json
      Cookie:
      - __cf_bm=nlJul7Cl78ruX6iyCy_1FrhqDGHF.QITDjVe41oLS2Q-1772734503-1.0.1.1-hKXeGmnUqRt1Qabj57uevJ3AThbo8u8JaeMMJ4rKOsur0DB9S7ltWO8Dq.CNiZ7w9BUh5qDVCiALcGpc.qo0YET0UnTvu3WxbKbVzp5vMJA
      User-Agent:
      - web3.py/7.14.0/web3.providers.rpc.rpc.HTTPProvider
    method: POST
    uri: https://mainnet.base.org/
  response:
    body:
      string: '{"jsonrpc":"2.0","result":{"accessList":[],"blockHash":"0x493369ae3bb8df04408d15ed1d9971c0ae93a2a7fdc832a583240a723be3bbc4","blockNumber":"0x3e541a","chainId":"0x2105","from":"0x15718b9b0dade1c17d8329a13bb9553f3b38e172","gas":"0x5208","gasPrice":"0xdaf45a","hash":"0xc7e021f71a972940c2728717f058f49833e3aa4d074c3599054530f108c281b2","input":"0x","maxFeePerGas":"0x104a18f","maxPriorityFeePerGas":"0x5aeeeb","nonce":"0x1","r":"0x23df55c709dccbe0ddbca9867f1658f8a7b97ccc06bd0c2c74ad66ef05308b43","s":"0x6e72646fcd901f4d9ebf8e29f1b447bcc7c1fab524a3534bac2b85872940da67","to":"0x3a9e669d9e2d0171c8a057031a9e9c048b7fee60","transactionIndex":"0xf","type":"0x2","v":"0x0","value":"0x2386f26fc10000","yParity":"0x0"},"id":4}

        '
    headers:
      CF-RAY:
      - 9d7b1a9ac988589a-BCN
      Connection:
      - keep-alive
      Content-Type:
      - application/json
      Date:
      - Thu, 05 Mar 2026 18:15:04 GMT
      NEL:
      - '{"success_fraction":0.01,"report_to":"cf-nel","max_age":604800}'
      Report-To:
      - '{"endpoints":[{"url":"https:\/\/a.nel.cloudflare.com\/report\/v4?s=45wS%2FGIx31n0vMjGNRl5zLRstkphmpz0BYlEcFCmLF8hEIqWYtPxI8GW0WCBB4hmk4NOXtFL1vJ0ZdEYzX9j3rgABwILiVLKfGTPa4VNY%2Bd56V9FM10Hh0z8cqg1wWGLj4w%3D"}],"group":"cf-nel","max_age":604800}'
      Server:
      - cloudflare
      Strict-Transport-Security:
      - max-age=2592000
      Transfer-Encoding:
      - chunked
      X-Content-Type-Options:
      - nosniff
      cf-cache-status:
      - DYNAMIC
      content-length:
      - '717'
      vary:
      - Origin
      x-proxyd-cache-status:
      - MISS
    status:
      code: 200
      message: OK
- request:
    body: '{"jsonrpc": "2.0", "method": "eth_getTransactionByHash", "params": ["0xfaa51ffecb5388ef59808d4f3f5e6e07b8a47d4a7d195c467bf77c24ee77b287"],
      "id": 5}'
    headers:
      Accept:
      - '*/*'
      Accept-Encoding:
      - gzip, deflate
      Connection:
      - keep-alive
      Content-Length:
      - '147'
      Content-Type:
      - application/json
      Cookie:
      - __cf_bm=nlJul7Cl78ruX6iyCy_1FrhqDGHF.QITDjVe41oLS2Q-1772734503-1.0.1.1-hKXeGmnUqRt1Qabj57uevJ3AThbo8u8JaeMMJ4rKOsur0DB9S7ltWO8Dq.CNiZ7w9BUh5qDVCiALcGpc.qo0YET0UnTvu3WxbKbVzp5vMJA
      User-Agent:
      - web3.py/7.14.0/web3.providers.rpc.rpc.HTTPProvider
    method: POST
    uri: https://mainnet.base.org/
  response:
    body:
      string: '{"jsonrpc":"2.0","result":{"accessList":[],"blockHash":"0x8ce07a1289ddfac5d5dd6ea0457da84414e69bc1d0c00b8243b51e84d1da7353","blockNumber":"0x23d5e87","chainId":"0x2105","from":"0x2b888954421b424c5d3d9ce9bb67c9bd47537d12","gas":"0x18271","gasPrice":"0x48780a","hash":"0xfaa51ffecb5388ef59808d4f3f5e6e07b8a47d4a7d195c467bf77c24ee77b287","input":"0x2f52ebb7000000000000000000000000000000000000000000000000000000000000122d000000000000000000000000000000000000000000000000000000000000004000000000000000000000000000000000000000000000000000000000000000049b2b38bf310be6ae453c74f25ea6c02f48cdfd52cbe3a88050a72e911d39a8fe7f67ac7fc4b6d9c6e218796e7e938559d9af3658c8a63ed651af8f490dc4e6c2b0bcf4a4669bba68347cf064c34eab00977fe1d3308c2688d9bd22416e1cb6f7597ed2a6b76cecdce5905e14162eba78aea648dbad70e6a095347b67b61bfc2c","maxFeePerGas":"0xc728b8","maxPriorityFeePerGas":"0x1eeed7","nonce":"0x37","r":"0xa8ef59ef1597b02e53ff768098e62564a94583264b8ae2196edd0059e6d80e9d","s":"0x3220c4b6efc45ea0872b72da591bd92b8d76eac9c9b944e8f64479578d2d37a","to":"0x1349a9ddee26fe16d0d44e35b3cb9b0ca18213a4","transactionIndex":"0xc","type":"0x2","v":"0x0","value":"0x0","yParity":"0x0"},"id":5}

        '
    headers:
      CF-RAY:
      - 9d7b1a9d580177f5-BCN
      Connection:
      - keep-alive
      Content-Type:
      - application/json
      Date:
      - Thu, 05 Mar 2026 18:15:04 GMT
      NEL:
      - '{"success_fraction":0.01,"report_to":"cf-nel","max_age":604800}'
      Report-To:
      - '{"endpoints":[{"url":"https:\/\/a.nel.cloudflare.com\/report\/v4?s=HR%2BqU0Ez3CHBHpEkWT6XNJDWW4y9u%2FCDrqUICWIcXYB1jYb8SVK0If7IWQODxekOhUQ7xR0cp%2BLy4iQrjgOENGKrF5rjT3QphJDf0uU30kowoElTWHy4IkaTFIhDyF%2FnJw0%3D"}],"group":"cf-nel","max_age":604800}'
      Server:
      - cloudflare
      Strict-Transport-Security:
      - max-age=2592000
      Transfer-Encoding:
      - chunked
      X-Content-Type-Options:
      - nosniff
      cf-cache-status:
      - DYNAMIC
      content-length:
      - '1161'
      vary:
      - Origin
      x-proxyd-cache-status:
      - MISS
    status:
      code: 200
      message: OK
- request:
    body: '{"jsonrpc": "2.0", "method": "eth_getTransactionReceipt", "params": ["0xfaa51ffecb5388ef59808d4f3f5e6e07b8a47d4a7d195c467bf77c24ee77b287"],
      "id": 6}'
    headers:
      Accept:
      - '*/*'
      Accept-Encoding:
      - gzip, deflate
      Connection:
      - keep-alive
      Content-Length:
      - '148'
      Content-Type:
      - application/json
      Cookie:
      - __cf_bm=nlJul7Cl78ruX6iyCy_1FrhqDGHF.QITDjVe41oLS2Q-1772734503-1.0.1.1-hKXeGmnUqRt1Qabj57uevJ3AThbo8u8JaeMMJ4rKOsur0DB9S7ltWO8Dq.CNiZ7w9BUh5qDVCiALcGpc.qo0YET0UnTvu3WxbKbVzp5vMJA
      User-Agent:
      - web3.py/7.14.0/web3.providers.rpc.rpc.HTTPProvider
    method: POST
    uri: https://mainnet.base.org/
  response:
    body:
      string: '{"jsonrpc":"2.0","result":{"blockHash":"0x8ce07a1289ddfac5d5dd6ea0457da84414e69bc1d0c00b8243b51e84d1da7353","blockNumber":"0x23d5e87","contractAddress":null,"cumulativeGasUsed":"0x2625c2","effectiveGasPrice":"0x48780a","from":"0x2b888954421b424c5d3d9ce9bb67c9bd47537d12","gasUsed":"0x17ea5","l1BaseFeeScalar":"0x8dd","l1BlobBaseFee":"0x1","l1BlobBaseFeeScalar":"0x101c12","l1Fee":"0x691be350","l1GasPrice":"0xf95980d","l1GasUsed":"0xb9c","logs":[{"address":"0x18b6f6049a0af4ed2bbe0090319174eeef89f53a","blockHash":"0x8ce07a1289ddfac5d5dd6ea0457da84414e69bc1d0c00b8243b51e84d1da7353","blockNumber":"0x23d5e87","blockTimestamp":"0x690519f1","data":"0x0000000000000000000000000000000000000000000000169fa9d78a37055555","logIndex":"0x23","removed":false,"topics":["0xddf252ad1be2c89b69c2b068fc378daa952ba7f163c4a11628f55a4df523b3ef","0x0000000000000000000000001349a9ddee26fe16d0d44e35b3cb9b0ca18213a4","0x0000000000000000000000002b888954421b424c5d3d9ce9bb67c9bd47537d12"],"transactionHash":"0xfaa51ffecb5388ef59808d4f3f5e6e07b8a47d4a7d195c467bf77c24ee77b287","transactionIndex":"0xc"},{"address":"0x1349a9ddee26fe16d0d44e35b3cb9b0ca18213a4","blockHash":"0x8ce07a1289ddfac5d5dd6ea0457da84414e69bc1d0c00b8243b51e84d1da7353","blockNumber":"0x23d5e87","blockTimestamp":"0x690519f1","data":"0x0000000000000000000000002b888954421b424c5d3d9ce9bb67c9bd47537d12","logIndex":"0x24","removed":false,"topics":["0x6aa3eac93d079e5e100b1029be716caa33586c96aa4baac390669fb5c2a21212","0x000000000000000000000000000000000000000000000000000000000000122d"],"transactionHash":"0xfaa51ffecb5388ef59808d4f3f5e6e07b8a47d4a7d195c467bf77c24ee77b287","transactionIndex":"0xc"}],"logsBloom":"0x00000000000000000000000000000000000020000000000000000000000000100000000000000000000000000002000000000000000000000000000200000000120000000000000000000008000000000004000000000000000000000000000000000000000000000000000000000000000000000000000000000010000800000000080000000000000000000000000000000000000000000000000000000000040100000000000000000000000000000000000000000000000000100000000000040002000000000000000000000000000000000000000000000000000000008000000000000000000800000000000000000040000000000000000020000000","status":"0x1","to":"0x1349a9ddee26fe16d0d44e35b3cb9b0ca18213a4","transactionHash":"0xfaa51ffecb5388ef59808d4f3f5e6e07b8a47d4a7d195c467bf77c24ee77b287","transactionIndex":"0xc","type":"0x2"},"id":6}

        '
    headers:
      CF-RAY:
      - 9d7b1a9f493578b2-BCN
      Connection:
      - keep-alive
      Content-Type:
      - application/json
      Date:
      - Thu, 05 Mar 2026 18:15:04 GMT
      NEL:
      - '{"success_fraction":0.01,"report_to":"cf-nel","max_age":604800}'
      Report-To:
      - '{"endpoints":[{"url":"https:\/\/a.nel.cloudflare.com\/report\/v4?s=Iijzntgqm%2BGxsSmBq0XOW68Js8CcwzTm9zPq1h89kHHE7QG3YE7PWBn0nQVDQCvg23EI0bbu4b3t039sBckH06V4H9osPjak39FvLxT%2BmIgq7slrtEKVtl%2BL6HtEK6vk5J8%3D"}],"group":"cf-nel","max_age":604800}'
      Server:
      - cloudflare
      Strict-Transport-Security:
      - max-age=2592000
      Transfer-Encoding:
      - chunked
      X-Content-Type-Options:
      - nosniff
      cf-cache-status:
      - DYNAMIC
      content-length:
      - '2374'
      vary:
      - Origin
      x-proxyd-cache-status:
      - MISS
    status:
      code: 200
      message: OK
- request:
    body: null
    headers:
      Accept:
      - '*/*'
      Accept-Encoding:
      - gzip, deflate
      Connection:
      - keep-alive
      User-Agent:
      - rotki/1.42.1.dev85+g21cbca5056.d20260305
    method: GET
    uri: https://api.blockscout.com/8453/api?action=txlistinternal&module=account&sort=asc&txhash=0xfaa51ffecb5388ef59808d4f3f5e6e07b8a47d4a7d195c467bf77c24ee77b287
  response:
    body:
      string: '{"message":"Internal transactions for this transaction have not been
        processed yet","result":[],"status":"2"}'
    headers:
      CF-RAY:
      - 9d7b1aa20d79ecaa-MAD
      Cache-Control:
      - max-age=0, private, must-revalidate
      Connection:
      - keep-alive
      Content-Type:
      - application/json; charset=utf-8
      Date:
      - Thu, 05 Mar 2026 18:15:05 GMT
      Nel:
      - '{"report_to":"cf-nel","success_fraction":0.0,"max_age":604800}'
      Report-To:
      - '{"group":"cf-nel","max_age":604800,"endpoints":[{"url":"https://a.nel.cloudflare.com/report/v4?s=9sNF7Q7O5o7rSPKTmz3djrasFBiXTOTWEFdThcGocuaGEoZw%2B2dTEJxCixcHxd%2B9xkQbGa1p26ZA9zWtVVgp9ljzkoP1AHGKJHvfEm6AY2lO8Q%3D%3D"}]}'
      Server:
      - cloudflare
      Transfer-Encoding:
      - chunked
      access-control-allow-credentials:
      - 'true'
      access-control-allow-origin:
      - '*'
      access-control-expose-headers:
      - bypass-429-option,x-ratelimit-reset,x-ratelimit-limit,x-ratelimit-remaining,api-v2-temp-token
      alt-svc:
      - h3=":443"; ma=86400
      bypass-429-option:
      - no_bypass
      cf-cache-status:
      - DYNAMIC
      content-length:
      - '109'
      strict-transport-security:
      - max-age=31536000; includeSubDomains
      x-ratelimit-limit:
      - '600'
      x-ratelimit-remaining:
      - '593'
      x-ratelimit-reset:
      - '54693'
      x-request-id:
      - f4579e6f926c79199572b4e2968bb315
    status:
      code: 200
      message: OK
- request:
    body: null
    headers:
      Accept:
      - '*/*'
      Accept-Encoding:
      - gzip, deflate
      Connection:
      - keep-alive
      User-Agent:
      - rotki/1.42.1.dev85+g21cbca5056.d20260305
    method: GET
    uri: https://api.routescan.io/v2/network/mainnet/evm/8453/etherscan/api?action=txlistinternal&module=account&offset=100&page=1&sort=asc&txhash=0xfaa51ffecb5388ef59808d4f3f5e6e07b8a47d4a7d195c467bf77c24ee77b287
  response:
    body:
      string: '{"status":"0","message":"No transactions found","result":[]}'
    headers:
      Alt-Svc:
      - h3=":443"; ma=86400
      Connection:
      - keep-alive
      Content-Length:
      - '60'
      Content-Type:
      - application/json; charset=utf-8
      Date:
      - Thu, 05 Mar 2026 18:15:05 GMT
      Via:
      - 1.1 7e2cc9b34be80a5137a247a2b1c09a04.cloudfront.net (CloudFront)
      X-Amz-Cf-Id:
      - 87pM0celApqWBeyf3yGilTKqJC612i-o6YPCze03WQ93GBTghEhKEQ==
      X-Amz-Cf-Pop:
      - MAD53-P6
      X-Cache:
      - Miss from cloudfront
      access-control-allow-origin:
      - '*'
      x-ratelimit-rpd-limit:
      - '100000'
      x-ratelimit-rpd-remaining:
      - '99998'
      x-ratelimit-rpd-reset:
      - '86398'
      x-ratelimit-rpm-limit:
      - '300'
      x-ratelimit-rpm-remaining:
      - '298'
      x-ratelimit-rpm-reset:
      - '58'
    status:
      code: 200
      message: OK
- request:
    body: '{"jsonrpc": "2.0", "method": "eth_call", "params": [{"to": "0xeDF6D2a16e8081F777eB623EeB4411466556aF3d",
      "data": "0xbce38bd7000000000000000000000000000000000000000000000000000000000000000000000000000000000000000000000000000000000000000000000000000000400000000000000000000000000000000000000000000000000000000000000003000000000000000000000000000000000000000000000000000000000000006000000000000000000000000000000000000000000000000000000000000000e0000000000000000000000000000000000000000000000000000000000000016000000000000000000000000018b6f6049a0af4ed2bbe0090319174eeef89f53a00000000000000000000000000000000000000000000000000000000000000400000000000000000000000000000000000000000000000000000000000000004313ce5670000000000000000000000000000000000000000000000000000000000000000000000000000000018b6f6049a0af4ed2bbe0090319174eeef89f53a0000000000000000000000000000000000000000000000000000000000000040000000000000000000000000000000000000000000000000000000000000000495d89b410000000000000000000000000000000000000000000000000000000000000000000000000000000018b6f6049a0af4ed2bbe0090319174eeef89f53a0000000000000000000000000000000000000000000000000000000000000040000000000000000000000000000000000000000000000000000000000000000406fdde0300000000000000000000000000000000000000000000000000000000"},
      "latest"], "id": 7}'
    headers:
      Accept:
      - '*/*'
      Accept-Encoding:
      - gzip, deflate
      Connection:
      - keep-alive
      Content-Length:
      - '1299'
      Content-Type:
      - application/json
      Cookie:
      - __cf_bm=nlJul7Cl78ruX6iyCy_1FrhqDGHF.QITDjVe41oLS2Q-1772734503-1.0.1.1-hKXeGmnUqRt1Qabj57uevJ3AThbo8u8JaeMMJ4rKOsur0DB9S7ltWO8Dq.CNiZ7w9BUh5qDVCiALcGpc.qo0YET0UnTvu3WxbKbVzp5vMJA
      User-Agent:
      - web3.py/7.14.0/web3.providers.rpc.rpc.HTTPProvider
    method: POST
    uri: https://mainnet.base.org/
  response:
    body:
      string: '{"jsonrpc":"2.0","result":"0x00000000000000000000000000000000000000000000000000000000000000200000000000000000000000000000000000000000000000000000000000000003000000000000000000000000000000000000000000000000000000000000006000000000000000000000000000000000000000000000000000000000000000e000000000000000000000000000000000000000000000000000000000000001a000000000000000000000000000000000000000000000000000000000000000010000000000000000000000000000000000000000000000000000000000000040000000000000000000000000000000000000000000000000000000000000002000000000000000000000000000000000000000000000000000000000000000120000000000000000000000000000000000000000000000000000000000000001000000000000000000000000000000000000000000000000000000000000004000000000000000000000000000000000000000000000000000000000000000600000000000000000000000000000000000000000000000000000000000000020000000000000000000000000000000000000000000000000000000000000000652554e4e455200000000000000000000000000000000000000000000000000000000000000000000000000000000000000000000000000000000000000000001000000000000000000000000000000000000000000000000000000000000004000000000000000000000000000000000000000000000000000000000000000600000000000000000000000000000000000000000000000000000000000000020000000000000000000000000000000000000000000000000000000000000000652554e4e45520000000000000000000000000000000000000000000000000000","id":7}

        '
    headers:
      CF-RAY:
      - 9d7b1aa74a9af298-BCN
      Connection:
      - keep-alive
      Content-Type:
      - application/json
      Date:
      - Thu, 05 Mar 2026 18:15:06 GMT
      NEL:
      - '{"success_fraction":0.01,"report_to":"cf-nel","max_age":604800}'
      Report-To:
      - '{"endpoints":[{"url":"https:\/\/a.nel.cloudflare.com\/report\/v4?s=fpMwaOX6fbwcz0acz3a6zYLX2rYIvMLivD8tGCTv4p8WpuRvoXT8j3q7duhz6U36ZuT3ScP1er%2Fyf%2FmIRpijUYugvOdV5oMJ38UOilD9oIbpViW8CCd8rfBNxqYIvgH4hVA%3D"}],"group":"cf-nel","max_age":604800}'
      Server:
      - cloudflare
      Strict-Transport-Security:
      - max-age=2592000
      Transfer-Encoding:
      - chunked
      X-Content-Type-Options:
      - nosniff
      cf-cache-status:
      - DYNAMIC
      content-length:
      - '1383'
      vary:
      - Origin
      x-proxyd-cache-status:
      - MISS
    status:
      code: 200
      message: OK
version: 1
