interactions:
- request:
    body: '{"id": 0, "jsonrpc": "2.0", "method": "eth_getTransactionByHash", "params":
      ["0xa82527d5cc77fb8a6bb1826621b55e30fb7f3263cec678753ff1974f889cb6dc"]}'
    headers:
      Accept:
      - '*/*'
      Accept-Encoding:
      - gzip, deflate
      Connection:
      - keep-alive
      Content-Length:
      - '147'
      Content-Type:
      - application/json
      User-Agent:
      - rotki/1.42.2.dev193+g3fa0373574
    method: POST
    uri: https://api.blockscout.com/10/json-rpc
  response:
    body:
      string: '{"jsonrpc":"2.0","result": {"accessList":[],"blockHash":"0x324fbac2aa1241e075c8e33069929f49edb8dcbd0625ff7be55f85cb767a50ba","blockNumber":"0x8ef4f62","chainId":"0xa","from":"0x3bae0f9811fb3869267caff8b5a1baf00a352935","gas":"0x5e2c4d","gasPrice":"0x18dbd","hash":"0xa82527d5cc77fb8a6bb1826621b55e30fb7f3263cec678753ff1974f889cb6dc","input":"0x1e83409a0000000000000000000000003bae0f9811fb3869267caff8b5a1baf00a352935","maxFeePerGas":"0x19064","maxPriorityFeePerGas":"0x186a0","nonce":"0x4b1","r":"0x3db6f3a1e98874b1bc0676d2ff00f80de2b66dacc00edff9ade5c76b70ac7b6e","s":"0x369f6cb8bf307260555d75aef0222928ed1525dd86b489816e769b0a1ba8759d","to":"0xf368f535e329c6d08dff0d4b2da961c4e7f3fcaf","transactionIndex":"0x1c","type":"0x2","v":"0x0","value":"0x0","yParity":"0x0"},"id":
        0}

        '
    headers:
      CF-RAY:
      - 9e819af2cf3a52b5-MAD
      Cache-Control:
      - max-age=0, private, must-revalidate
      Connection:
      - keep-alive
      Content-Type:
      - application/json; charset=utf-8
      Date:
      - Mon, 06 Apr 2026 14:50:30 GMT
      Nel:
      - '{"report_to":"cf-nel","success_fraction":0.0,"max_age":604800}'
      Report-To:
      - '{"group":"cf-nel","max_age":604800,"endpoints":[{"url":"https://a.nel.cloudflare.com/report/v4?s=3wxZvAdJyPrGk5c0UIVKGnHljdlcTMaKHiLq1vukyIGxd5PShHMLMG0JvuzPUDa1yB2NJFubdBCHz9L4kKgDDFxDAO3mh7CBWf%2BoOfSg1wasSyXEUp4%2Bv%2ByTHCFMsTFGgRbXZg%3D%3D"}]}'
      Server:
      - cloudflare
      alt-svc:
      - h3=":443"; ma=86400
      cf-cache-status:
      - DYNAMIC
      content-length:
      - '777'
      strict-transport-security:
      - max-age=31536000; includeSubDomains
      vary:
      - accept-encoding
      x-credits-remaining:
      - '94380'
      x-ratelimit-limit:
      - '5'
      x-ratelimit-remaining:
      - '4'
      x-ratelimit-reset:
      - '674'
      x-request-id:
      - c54c84ead536071e52f669d2d6ed1bfd
    status:
      code: 200
      message: OK
- request:
    body: '{"id": 0, "jsonrpc": "2.0", "method": "eth_getBlockByNumber", "params":
      ["0x8ef4f62", true]}'
    headers:
      Accept:
      - '*/*'
      Accept-Encoding:
      - gzip, deflate
      Connection:
      - keep-alive
      Content-Length:
      - '92'
      Content-Type:
      - application/json
      User-Agent:
      - rotki/1.42.2.dev193+g3fa0373574
    method: POST
    uri: https://api.blockscout.com/10/json-rpc
  response:
    body:
      string: '{"jsonrpc":"2.0","result": {"baseFeePerGas":"0x71d","blobGasUsed":"0x2d57d0","difficulty":"0x0","excessBlobGas":"0x0","extraData":"0x01000000fa000000020000000000000000","gasLimit":"0x2625a00","gasUsed":"0x167edf3","hash":"0x324fbac2aa1241e075c8e33069929f49edb8dcbd0625ff7be55f85cb767a50ba","logsBloom":"0x52446a81018000e9605930030321030892e0308a410000145044401045cb8b5023090c0030020200023100b18d02b840855480c00042280a0620034000742a49605068200800200aa8189c0e820812102044042280e50830080c002c2000904390c0405822480821f20084630100182458088126188410000216947001080800408100222a088010032005488888180021008e044821e0004120808022440213028020000c50004d02e0001a044210a42010111711b9244c4127334080884ab240172a42600408f140510a8004426881d884000202c2008c4400201001846c004014080b00942080a40800186402a220a6800382401009000d08680448440802","miner":"0x4200000000000000000000000000000000000011","mixHash":"0x3012b9482eb6d068affc30463bb35349cfe7976e006236bc96e185139caf080d","nonce":"0x0000000000000000","number":"0x8ef4f62","parentBeaconBlockRoot":"0x115dea3a929769a92d88ee9c78187a91d29e2a82682948d6192737f8ee6870e7","parentHash":"0xa83f38c632b4be3b106d95f02f94499a6619df371acc53daaf3b6e5a2b8411a3","receiptsRoot":"0x045e18af5364f097687874d6e8a5fffede246fb1d103cdf0a6b0bcc23fe8ff8f","requestsHash":"0xe3b0c44298fc1c149afbf4c8996fb92427ae41e4649b934ca495991b7852b855","sha3Uncles":"0x1dcc4de8dec75d7aab85b567b6ccd41ad312451b948a7413f0a142fd40d49347","size":"0x4a14","stateRoot":"0x8dcac904020c0186b85c631bf66c26ce6a5a2e1260cd86d5cf30fb63dbad2287","timestamp":"0x69d2787d","transactions":[{"blockHash":"0x324fbac2aa1241e075c8e33069929f49edb8dcbd0625ff7be55f85cb767a50ba","blockNumber":"0x8ef4f62","depositReceiptVersion":"0x1","from":"0xdeaddeaddeaddeaddeaddeaddeaddeaddead0001","gas":"0xf4240","gasPrice":"0x0","hash":"0x21f08d94219abc9711bb8fc1337300520740ebc3562668f330bad28b28b68269","input":"0x3db6be2b0000146b000f79c500000000000000050000000069d2782300000000017aa2760000000000000000000000000000000000000000000000000000000007628cce00000000000000000000000000000000000000000000000000000000007273136e2a218ea28ee87b93dc83ea534478a80ca5e072db74e7fa9addf99bdab61e9b0000000000000000000000006887246668a3b87f54deb3b94ba47a6f63f329850000000000000000000000000190","mint":"0x0","nonce":"0x2a98cee","r":"0x0","s":"0x0","sourceHash":"0x91c9edc446db31dc26601a64936e4a89a41a2148943d76eefb6ed4eb4011a472","to":"0x4200000000000000000000000000000000000015","transactionIndex":"0x0","type":"0x7e","v":"0x0","value":"0x0","yParity":"0x0"},{"accessList":[],"blockHash":"0x324fbac2aa1241e075c8e33069929f49edb8dcbd0625ff7be55f85cb767a50ba","blockNumber":"0x8ef4f62","chainId":"0xa","from":"0xa7d1f7ea97e93b282aa9d3ed153f68adf9fbbbf9","gas":"0x1e8480","gasPrice":"0x16ea7e","hash":"0x8df6b169529aa9ed85e44ade82d8ed865e44817b25810fedc077b0c8bd72ea7c","input":"0x000000000000000000000000000000000000000000000000000000000000000000000000","maxFeePerGas":"0x1dcd6500","maxPriorityFeePerGas":"0x16e361","nonce":"0x1e839","r":"0x7b0a1fd9ca350c57094f5ff135373a147c0881a39fbfa1dac35d7b8b7a57f16d","s":"0x42ce9de4113d7b14bfbd9edf89597e435d81cf0546f0502825cd1c16f31fb0cb","to":"0x17adbb47735c68b75e405abceaba52a7f6522e17","transactionIndex":"0x1","type":"0x2","v":"0x1","value":"0x0","yParity":"0x1"},{"accessList":[],"blockHash":"0x324fbac2aa1241e075c8e33069929f49edb8dcbd0625ff7be55f85cb767a50ba","blockNumber":"0x8ef4f62","chainId":"0xa","from":"0x3f2801a4726e72df88be23daac3ccb463ae5444a","gas":"0x1312d0","gasPrice":"0x16ea7d","hash":"0xe3cbc21800ed101b4f6f6efb8d275b0c3807cf0324b689d690e081b977658f75","input":"0x6e1b98f5","maxFeePerGas":"0x16eb27","maxPriorityFeePerGas":"0x16e360","nonce":"0x10df14","r":"0xbafc79ab2b1c47f52d15792f660440c8b310851619483bbd7de52556d2dc8a08","s":"0x1e46eb08fddbd4fdd427b4fd70914eddd72176ae468d07e2c22bae5d59ab1f84","to":"0xd53100cfd29d68c83b07ec1d97bee54b7a525428","transactionIndex":"0x2","type":"0x2","v":"0x0","value":"0x0","yParity":"0x0"},{"accessList":[],"blockHash":"0x324fbac2aa1241e075c8e33069929f49edb8dcbd0625ff7be55f85cb767a50ba","blockNumber":"0x8ef4f62","chainId":"0xa","from":"0x4160f36bf377c0cf98d86397c5f1a3e3bf11c48f","gas":"0x1e8480","gasPrice":"0x10cffd","hash":"0x1dd1f4cdd6193980529d51ef63b03ce1ee9f940fb5b06ad7b0b05d25d46eeedf","input":"0x000000000000000000000000000000000000000000000000000000000000000000000003","maxFeePerGas":"0x1dcd6500","maxPriorityFeePerGas":"0x10c8e0","nonce":"0x1fec60","r":"0x1fe851d3c8955b3a3f3b7e74933b649a8fda3c3c9d607640f8b630de14f7eb80","s":"0x4e6c8c6dd1554641322e4c002bbb272e0037427975d5138ea7df5714b5cafc0d","to":"0x17adbb47735c68b75e405abceaba52a7f6522e17","transactionIndex":"0x3","type":"0x2","v":"0x0","value":"0x0","yParity":"0x0"},{"accessList":[],"blockHash":"0x324fbac2aa1241e075c8e33069929f49edb8dcbd0625ff7be55f85cb767a50ba","blockNumber":"0x8ef4f62","chainId":"0xa","from":"0x103f6012e3e1d3bac7345d86b44f116a7418f1f2","gas":"0x1e8480","gasPrice":"0x10cffd","hash":"0x203a97fdc5d76d7fd5edd8e3a232ff342556d8eaa8ba2d0e21a1001abcef24de","input":"0x000000000000000000000000000000000000000000000000000000000000000000000008","maxFeePerGas":"0x1dcd6500","maxPriorityFeePerGas":"0x10c8e0","nonce":"0xbd414","r":"0x472ccab423ac626317c2c679dd20458f8b4b64546a1d8d99b9b9c0e5d16a69b3","s":"0x6a9f20817293ece57e1ab1d8b870ef260d68c9ca4e156bb12c2f77410dab547e","to":"0x17adbb47735c68b75e405abceaba52a7f6522e17","transactionIndex":"0x4","type":"0x2","v":"0x1","value":"0x0","yParity":"0x1"},{"accessList":[],"blockHash":"0x324fbac2aa1241e075c8e33069929f49edb8dcbd0625ff7be55f85cb767a50ba","blockNumber":"0x8ef4f62","chainId":"0xa","from":"0xee9d52601c011ee9c033b3a8d2776a191217bdcb","gas":"0x1e8480","gasPrice":"0x10cffd","hash":"0x3e49c5ce0b3556ee421f91386eea6fec9e73ade34fe32ab7659edf022f26a79e","input":"0x000000000000000000000000000000000000000000000000000000000000000000000001","maxFeePerGas":"0x1dcd6500","maxPriorityFeePerGas":"0x10c8e0","nonce":"0x29bf62","r":"0xcdf6794e89bd1d153b21c387200235828fa704a23873d035a9c7ec64193bca08","s":"0x3516e462d0b0b6fda4a6c643d13cdce5417d5e738947806a52e632acb7935593","to":"0x17adbb47735c68b75e405abceaba52a7f6522e17","transactionIndex":"0x5","type":"0x2","v":"0x1","value":"0x0","yParity":"0x1"},{"accessList":[],"blockHash":"0x324fbac2aa1241e075c8e33069929f49edb8dcbd0625ff7be55f85cb767a50ba","blockNumber":"0x8ef4f62","chainId":"0xa","from":"0x8d0902ec607dffd647de8cacf416d45209c66ddd","gas":"0x1e8480","gasPrice":"0x10cffd","hash":"0xa177bc1070ef381811c8d6822807b513a7bd27b450bc0cf42b345203deee486a","input":"0x000000000000000000000000000000000000000000000000000000000000000000000006","maxFeePerGas":"0x1dcd6500","maxPriorityFeePerGas":"0x10c8e0","nonce":"0x8bf39","r":"0x691dbfcedf19c5e3431e6bbb9324c98d4118f6618d9575c007e6bb151c2cb796","s":"0x6187b31d70b0d2c9ae31f1aab9374d48122878e5b832049d7cc9398e706dceee","to":"0x17adbb47735c68b75e405abceaba52a7f6522e17","transactionIndex":"0x6","type":"0x2","v":"0x0","value":"0x0","yParity":"0x0"},{"accessList":[],"blockHash":"0x324fbac2aa1241e075c8e33069929f49edb8dcbd0625ff7be55f85cb767a50ba","blockNumber":"0x8ef4f62","chainId":"0xa","from":"0x506e35a6659348aa32e61f67872b37f83166c18d","gas":"0x1e8480","gasPrice":"0x10cffd","hash":"0xde7833164920e11706bfc0b13b610df6ce2f15d240cc49eeb2658ed1ac7284f4","input":"0x000000000000000000000000000000000000000000000000000000000000000000000002","maxFeePerGas":"0x1dcd6500","maxPriorityFeePerGas":"0x10c8e0","nonce":"0x158f42","r":"0xd79cf79cf9ef67971ff6ed46c57ca5203d17013a23727f51f5752906a688045","s":"0x140dd0574cfa5ec759fc14a81e5ff286ab501016a16bcce97ed1946b7afc9323","to":"0x17adbb47735c68b75e405abceaba52a7f6522e17","transactionIndex":"0x7","type":"0x2","v":"0x1","value":"0x0","yParity":"0x1"},{"accessList":[],"blockHash":"0x324fbac2aa1241e075c8e33069929f49edb8dcbd0625ff7be55f85cb767a50ba","blockNumber":"0x8ef4f62","chainId":"0xa","from":"0xba06767793a74ba0917415472d9fb07cdd680b18","gas":"0x16e360","gasPrice":"0x18dbd","hash":"0x373e62912297eab758344dc97a4871c5fb3fce713d22e934f3364e3e57e179d7","input":"0x000000000001f4000bb8000164000bb80001f400013d000bb80027100001900001900001f4000177000bb80001f400019000000c00006400006400005a000064000a8c00006401","maxFeePerGas":"0x2fc7720","maxPriorityFeePerGas":"0x186a0","nonce":"0x12d39b","r":"0xdf1f0efc1a8901a266b7c45ebb54f9fc1759b74a02204c3624e62ff2a0b6cdfd","s":"0x550bc08b3f0a6c9db3e3fba644b812307f74b7323a8826f1fac2d470d32ff00b","to":"0xa8995ddb92d29ebfb898d9fc1991d7541f67cfb5","transactionIndex":"0x8","type":"0x2","v":"0x0","value":"0x0","yParity":"0x0"},{"accessList":[],"blockHash":"0x324fbac2aa1241e075c8e33069929f49edb8dcbd0625ff7be55f85cb767a50ba","blockNumber":"0x8ef4f62","chainId":"0xa","from":"0x7422268853b2d25ed46aba01c07275e89ac904ef","gas":"0x1312d0","gasPrice":"0x781","hash":"0xf22d3d745f2aefeb73bf037d11f606cc4d6a50844194766bf9a8247774e04944","input":"0x6e1b98f5","maxFeePerGas":"0x82b","maxPriorityFeePerGas":"0x64","nonce":"0x25711","r":"0x92368bc56c704b5c5de8dfe949661932da9420717ce1e18f0cd4b3637acba610","s":"0x2aad5474092341579142c32813b4111c5f5599066e2ea188aa8c92d60eff6ef2","to":"0x0d30b9d53f914fe8cd0945a6c7628d974f2ab23b","transactionIndex":"0x9","type":"0x2","v":"0x1","value":"0x0","yParity":"0x1"},{"accessList":[],"blockHash":"0x324fbac2aa1241e075c8e33069929f49edb8dcbd0625ff7be55f85cb767a50ba","blockNumber":"0x8ef4f62","chainId":"0xa","from":"0xbf5954ba6847e3e9ddcdd71611ad108408d53851","gas":"0x1e8480","gasPrice":"0x10cffd","hash":"0x8f425a04d919d884f38413f4ac8bafdfbdf6603ced824fe4b8b0885ca28852ac","input":"0x000000000000000000000000000000000000000000000000000000000000000000000004","maxFeePerGas":"0x1dcd6500","maxPriorityFeePerGas":"0x10c8e0","nonce":"0x9c01e","r":"0xddb5f04ce3a4d05234fa819ddeb8175bf1cc76eff1c9d4de9618c1260c18b8f7","s":"0x1589f7c225d5d9480fd9b3ad313cc86d9412f55df186369c028bedf9145d52c2","to":"0x17adbb47735c68b75e405abceaba52a7f6522e17","transactionIndex":"0xa","type":"0x2","v":"0x1","value":"0x0","yParity":"0x1"},{"accessList":[],"blockHash":"0x324fbac2aa1241e075c8e33069929f49edb8dcbd0625ff7be55f85cb767a50ba","blockNumber":"0x8ef4f62","chainId":"0xa","from":"0x0d105ef4a5f064fe56e4d6a6d6e85dfedaacafef","gas":"0x1e8480","gasPrice":"0x10cffd","hash":"0x1486ef04aabd4776ad8bfeb0521fe7b0bd4799245816f2c72765c3c982c76ecc","input":"0x000000000000000000000000000000000000000000000000000000000000000000000007","maxFeePerGas":"0x1dcd6500","maxPriorityFeePerGas":"0x10c8e0","nonce":"0xa5d4f","r":"0xd684a4b2239ce8398a739e4a13dc94d49d6fc5e752508a737182610cb0d33918","s":"0x245ae945847a01359d153912f3e34049684dd1e8d3cfad3f3abc48531861d5fc","to":"0x17adbb47735c68b75e405abceaba52a7f6522e17","transactionIndex":"0xb","type":"0x2","v":"0x0","value":"0x0","yParity":"0x0"},{"accessList":[],"blockHash":"0x324fbac2aa1241e075c8e33069929f49edb8dcbd0625ff7be55f85cb767a50ba","blockNumber":"0x8ef4f62","chainId":"0xa","from":"0x9e3ed65340a913b96ba7b86d5d5876dde623946e","gas":"0x2dc6c0","gasPrice":"0xca6d","hash":"0x137b1996254d11733dcfbeea5fb586cfd69f460d3a527a06f7c65c83979d6a2c","input":"0xa126d6010000000000000000000000000000000000000000000000000000000008ef4f65","maxFeePerGas":"0x11e1a300","maxPriorityFeePerGas":"0xc350","nonce":"0x8e1fdb","r":"0x621490072c71e8bb9b93db431e26806d6f90df7f470098318c319079d301e86b","s":"0x7ec626e189abe99b2c33186242bbe667c4d7561387259b1d7c04a86ab3b1c207","to":"0xd9f7bd6033d34caf61143a460d7f79c4384aae97","transactionIndex":"0xc","type":"0x2","v":"0x1","value":"0x0","yParity":"0x1"},{"accessList":[],"blockHash":"0x324fbac2aa1241e075c8e33069929f49edb8dcbd0625ff7be55f85cb767a50ba","blockNumber":"0x8ef4f62","chainId":"0xa","from":"0xcde377407d9b819efc0e185aa2d442194c2233e6","gas":"0x1e8480","gasPrice":"0x553d","hash":"0xe7e0d47d519c38cc37d7a030bbcbc53e044e7bd93b5c897cd8e43d26ba8c1b65","input":"0xa126d6010000000000000000000000000000000000000000000000000000000008ef4f65","maxFeePerGas":"0x11e1a300","maxPriorityFeePerGas":"0x4e20","nonce":"0x802e48","r":"0xd48981afcf0f3640a5d2c65fc1ad5de6e1ac09c2d05804a19f06c11061a28ba5","s":"0x51c53b8a16f75c7016c597900e9fdf9cc7d036f14c36cf16b046fb820b8a4775","to":"0x4aed348173bbf17dfaeb91598321904c9323d36e","transactionIndex":"0xd","type":"0x2","v":"0x1","value":"0x0","yParity":"0x1"},{"accessList":[],"blockHash":"0x324fbac2aa1241e075c8e33069929f49edb8dcbd0625ff7be55f85cb767a50ba","blockNumber":"0x8ef4f62","chainId":"0xa","from":"0xdb49dc858fea0d474a2e4bf2164a224b672d8118","gas":"0x1e8480","gasPrice":"0x553d","hash":"0x5e33f406a9705aa2e0f60a646ea24c5cf4d591b6e82d221a1c8c7b5307e5d4b4","input":"0xa126d6010000000000000000000000000000000000000000000000000000000008ef4f65","maxFeePerGas":"0x11e1a300","maxPriorityFeePerGas":"0x4e20","nonce":"0x38e469","r":"0x8bf4004f9085fbe82511c9e241d0b9e3357f2bfa9a1f5984c0642e7c8c47b78e","s":"0x147b31f081c42f9407ebcd83a6f79f8799ad4caa8ae14fced8de0bf36106c6e9","to":"0x896edf38f53c10a7ddb7d73ee82e2ce8f609b0bb","transactionIndex":"0xe","type":"0x2","v":"0x1","value":"0x0","yParity":"0x1"},{"accessList":[],"blockHash":"0x324fbac2aa1241e075c8e33069929f49edb8dcbd0625ff7be55f85cb767a50ba","blockNumber":"0x8ef4f62","chainId":"0xa","from":"0x10ae0f7d28720cc0a79f806e705f5a54e96111cd","gas":"0x1312d0","gasPrice":"0x781","hash":"0xcef2c2896bab2d7ff1d51bd61cf3866397aae05f086c99674c72da3c540c353c","input":"0x6e1b98f5","maxFeePerGas":"0x82b","maxPriorityFeePerGas":"0x64","nonce":"0x575f","r":"0x202077a9dba471ef2c1822c779af906f767115f3af9c0881057fa9bd5e77d32c","s":"0x62b1f66af0790d2cc123ef9c76c65eb5ed76b57a3f7d848199b3814d4354d856","to":"0x085bb46576d28b454dca5be6476932efc56677f8","transactionIndex":"0xf","type":"0x2","v":"0x0","value":"0x0","yParity":"0x0"},{"accessList":[],"blockHash":"0x324fbac2aa1241e075c8e33069929f49edb8dcbd0625ff7be55f85cb767a50ba","blockNumber":"0x8ef4f62","chainId":"0xa","from":"0x9a0dcb0917ff1ca0085c26fd7e89d7dff668e295","gas":"0x16e360","gasPrice":"0x728","hash":"0x5a79ae6117f697e542175224d07c8883889378c80bf96f2d946527b8e4eeebd7","input":"0x000000000001f4000bb8000164000bb80001f400013d000bb80027100001900001900001f4000177000bb80001f400019000000c00006400006400005a000064000a8c00006401","maxFeePerGas":"0x2faf08b","maxPriorityFeePerGas":"0xb","nonce":"0x12b3d1","r":"0x6cb21794c0092ff21dc37ccfc5614108ec883bd69ef74f40dd0bd176bdc08e47","s":"0x6822754cf34dc86b3462b477868b1c18a09a6cd8b8bce9d56c5ad377f5625761","to":"0xa8995ddb92d29ebfb898d9fc1991d7541f67cfb5","transactionIndex":"0x10","type":"0x2","v":"0x0","value":"0x0","yParity":"0x0"},{"accessList":[],"blockHash":"0x324fbac2aa1241e075c8e33069929f49edb8dcbd0625ff7be55f85cb767a50ba","blockNumber":"0x8ef4f62","chainId":"0xa","from":"0xb92949bdf09f4193599ae7700211751ab5f74acd","gas":"0x24902","gasPrice":"0x21e745","hash":"0xc6c7cd4dcca04d95476b8d7afc6580c7fc2bd36c39dc73c673cc8d942126ac19","input":"0x20265830000000000000000000000000000000000000000000000000000000000000004000000000000000000000000000000000000000000000000000000000000000e000000000000000000000000000000000000000000000000000000000000000010000000000000000000000000000000000000000000000000000000000000020000000000000000000000000000000000000000000000000000000000000002430636566653335302d633835352d343235302d386265622d3831616634646335306364650000000000000000000000000000000000000000000000000000000000000000000000000000000000000000000000000000000000000000000000010000000000000000000000000000000000000000000000000000000000000020000000000000000000000000000000000000000000000000000000000000000100000000000000000000000094b008aa00579c1307b0ef2c499ad98a8ce58e58","maxFeePerGas":"0x21ecfb","maxPriorityFeePerGas":"0x21e028","nonce":"0x4451d","r":"0xc6d052add8cf53e20b3b873d1c3f75792ac69fb0a470eadaa9a04936bee745e4","s":"0x7fc16f9270eec70fe4d76bf9cfe6469b48be89d69a5b896043b2d990f5d8152e","to":"0x05a47f354296f1aee2275f4c34dff42b1fb9d976","transactionIndex":"0x11","type":"0x2","v":"0x0","value":"0x0","yParity":"0x0"},{"accessList":[],"blockHash":"0x324fbac2aa1241e075c8e33069929f49edb8dcbd0625ff7be55f85cb767a50ba","blockNumber":"0x8ef4f62","chainId":"0xa","from":"0x9c1cf6d65aa9b3367054c8178f5faf3a21a0c83a","gas":"0x16e360","gasPrice":"0x728","hash":"0x330e298cb298b2bf2aa4720230f77ab053847bc29597c95de9bcdfcd447895c7","input":"0x000000000001f4000bb8000164000bb80001f400013d000bb80027100001900001900001f4000177000bb80001f400019000000c00006400006400005a000064000a8c00006401","maxFeePerGas":"0x2faf08b","maxPriorityFeePerGas":"0xb","nonce":"0x12efc0","r":"0xc608263cefd5346740120c5fb048ddc16ae4cd52798c849b820a514f50d3c80f","s":"0x7e2deb8d59d55f2218b1612c4f9e876e27be2d53a0c244d7c663c56dceaf951","to":"0xa8995ddb92d29ebfb898d9fc1991d7541f67cfb5","transactionIndex":"0x12","type":"0x2","v":"0x0","value":"0x0","yParity":"0x0"},{"accessList":[],"blockHash":"0x324fbac2aa1241e075c8e33069929f49edb8dcbd0625ff7be55f85cb767a50ba","blockNumber":"0x8ef4f62","chainId":"0xa","from":"0x795a2865837cf2117c1b1cb8bc4635b558c3ea9f","gas":"0xb71b00","gasPrice":"0x18dbd","hash":"0x1ce145071bca2d9a7873304b43abadb69fa184b0e2dacaa6f0481fc4ea84251b","input":"0x00000000000069d278b71b1f088107974a8ed050b2fb285ec83f25f9a050c57984fb2b8f06547e71b2eb7e1d2bf730ce08d11159271ffd652cee3fc35c30b2252a9be87c5c676020fd53480f0300020ca747e5c527e857d8a71b53b6efbad2866b9e04000bb800003c00000000011de84e1324baf5a9f3a49a48892fe90ce48456f1000bb80000000000000003478946bcd4a5a22b316470f5486fafb928c0ba2500023b000064030db7010300020fcd58c457d71bf630a44a41437537e0d5be7ed80027100000c8000000000156770b94279539416855fe29ef14b26438b5e421000bb8000000000000010285149247691df622eaf1a8bd0cafd40bc45154a90001f400000a00000000020102adab76dd2dca7ae080a796f0ce86170e482afb4a000bb800003c0000000103cf50dea65ee80ebddaa61005a960ef5a5c995a990001f9000064ff01f500020003478946bcd4a5a22b316470f5486fafb928c0ba2500023b000064030db70002c1738d90e2e26c35784a0d3e3d8a9f795074bca4000bb800003c00000001030003478946bcd4a5a22b316470f5486fafb928c0ba2500023b000064030db70003cf50dea65ee80ebddaa61005a960ef5a5c995a990001f9000064ff01f5010273b14a78a0d396c521f954532d43fd5ffe385216000bb800003c00000000030002c1738d90e2e26c35784a0d3e3d8a9f795074bca4000bb800003c00000000024dbb2d7785654074c53c5a915126d3378446bd610000320000010000000102c858a329bf053be78d6239c4a4343b8fbd21472b0001f400000a00000000030003478946bcd4a5a22b316470f5486fafb928c0ba2500023b000064030db70002b06b3259c816f5b4cb2bbc55952467b0abed3c840001f400000a00000001024a5a2a152e985078e1a4aa9c3362c412b7dd0a860001f400000a000000010300034dc22588ade05c40338a9d95a6da9dcee68bcd600001f90000c80181120101e9581d0f1a628b038fc8b2a7f5a7d904f0e2f937002710000000000000010339ed27d101aa4b7ce1cb4293b877954b8b5e14e5000bd60000c801d26c00030003478946bcd4a5a22b316470f5486fafb928c0ba2500023b000064030db70001a0a215de234276cac1b844fd58901351a50fec8a002328000000000000010339ed27d101aa4b7ce1cb4293b877954b8b5e14e5000bd60000c801d26c00020003478946bcd4a5a22b316470f5486fafb928c0ba2500023b000064030db700021fb3cf6e48f1e7b10213e7b6d87d4c073c7fdb7b0001f400000a00000001030003319c0dd36284ac24a6b2bee73929f699b9f48c380001f9000064fbf43d0103cf50dea65ee80ebddaa61005a960ef5a5c995a990001f9000064ff01f50003478946bcd4a5a22b316470f5486fafb928c0ba2500023b000064030db7010200021fb3cf6e48f1e7b10213e7b6d87d4c073c7fdb7b0001f400000a0000000003478946bcd4a5a22b316470f5486fafb928c0ba2500023b000064030db70102000339ed27d101aa4b7ce1cb4293b877954b8b5e14e5000bd60000c801d26c010158e6433a6903886e440ddf519ecc573c4046a6b200271000000000000000040003bf30ff33cf9c6b0c48702ff17891293b002dfea400006500000100081b0003ee1bac98527a9fdd57fccf967817215b083ce1f00001f90000640305980003cf50dea65ee80ebddaa61005a960ef5a5c995a990001f9000064ff01f50103319c0dd36284ac24a6b2bee73929f699b9f48c380001f9000064fbf43d00040002c858a329bf053be78d6239c4a4343b8fbd21472b0001f400000a000000010384ce89b4f6f67e523a81a82f9f2f14d84b726f6b00005b0000010000000003ee1bac98527a9fdd57fccf967817215b083ce1f00001f90000640305980103bf30ff33cf9c6b0c48702ff17891293b002dfea400006500000100081b01","maxFeePerGas":"0x3938700","maxPriorityFeePerGas":"0x186a0","nonce":"0x2d782","r":"0xf52ec757a2e7db4683ecd5c48f68d57ad2e2a5adea47054c9d796a1d3dd3e9","s":"0x44fdddcf0addf056005d417cf91caafe795dec88d6a7b50a7dc8bdba72b37d18","to":"0x355463adfd60892ee5aefb92ba2e86d8cd554a30","transactionIndex":"0x13","type":"0x2","v":"0x0","value":"0x0","yParity":"0x0"},{"accessList":[],"blockHash":"0x324fbac2aa1241e075c8e33069929f49edb8dcbd0625ff7be55f85cb767a50ba","blockNumber":"0x8ef4f62","chainId":"0xa","from":"0x0ce027ba8270385a4809584f3d646a4ed1be61d1","gas":"0x16e360","gasPrice":"0x728","hash":"0x6825c28c8d9f8f6dbaaf567cc566358af106ed4972bf6404bc40f16e9493f329","input":"0x000000000001f4000bb8000164000bb80001f400013d000bb80027100001900001900001f4000177000bb80001f400019000000c00006400006400005a000064000a8c00006401","maxFeePerGas":"0x2faf08b","maxPriorityFeePerGas":"0xb","nonce":"0x12dfe8","r":"0xcf122ee39ae85c4881fe9eee44191b2c343a0987c0840f454e0b10ac4f0b712d","s":"0x4590af4297a679d5c99d541c54b4607c45c51ca14cbefb677feae4d818efbf15","to":"0xa8995ddb92d29ebfb898d9fc1991d7541f67cfb5","transactionIndex":"0x14","type":"0x2","v":"0x1","value":"0x0","yParity":"0x1"},{"accessList":[],"blockHash":"0x324fbac2aa1241e075c8e33069929f49edb8dcbd0625ff7be55f85cb767a50ba","blockNumber":"0x8ef4f62","chainId":"0xa","from":"0xcbd8eae56e5d51c82e9b901ff535906077c5ab32","gas":"0x3c21d","gasPrice":"0x21e745","hash":"0x951db400d9735f80a21cde95fdb3a8e02f7496f24cdad0fb39d16da425f5b96a","input":"0x348011ae00000000000000000000000000000000000000000000000000000000000000a0000000000000000000000000000000000000000000000000000000000000014000000000000000000000000000000000000000000000000000000000000001e00000000000000000000000000000000000000000000000000000000000000220000000000000000000000000000000000000000000000000000000000000026000000000000000000000000000000000000000000000000000000000000000010000000000000000000000000000000000000000000000000000000000000020000000000000000000000000000000000000000000000000000000000000002465643034353563612d356634642d346135372d613136612d3564386263386166386232340000000000000000000000000000000000000000000000000000000000000000000000000000000000000000000000000000000000000000000000010000000000000000000000000000000000000000000000000000000000000020000000000000000000000000000000000000000000000000000000000000002463633631623930382d613831312d343962352d626138652d323163616430336163393830000000000000000000000000000000000000000000000000000000000000000000000000000000000000000000000000000000000000000000000001000000000000000000000000000000000000000000000000000000000000001a00000000000000000000000000000000000000000000000000000000000000010000000000000000000000001f2330e009bd4923d89ae234ce64fe1d0ca288ad00000000000000000000000000000000000000000000000000000000000000010000000000000000000000000000000000000000000000000000000069d2620d","maxFeePerGas":"0x21ecfb","maxPriorityFeePerGas":"0x21e028","nonce":"0x4083e","r":"0xf926ef5f4250e69b598469b20b4ef3255dc06d1fd6e581c642eac93a22781d0c","s":"0x6249b60633199fc403859c05b23849ff0811c34789c051ea0fdc7732e4f02508","to":"0x05a47f354296f1aee2275f4c34dff42b1fb9d976","transactionIndex":"0x15","type":"0x2","v":"0x1","value":"0x0","yParity":"0x1"},{"accessList":[],"blockHash":"0x324fbac2aa1241e075c8e33069929f49edb8dcbd0625ff7be55f85cb767a50ba","blockNumber":"0x8ef4f62","chainId":"0xa","from":"0x0366cfd13e6a0d2704ff04c998bb1897941ecc00","gas":"0xb71b00","gasPrice":"0x18dbd","hash":"0xb8d6439b94d8bcdae30cce3799b0889144c176f30f868dc04ee0ac0b51974efc","input":"0x00000000000069d278b71c9f0c253300b46174ecdc279eb10bea38e5ce0452cb21c5878cba0b1d9e1a188f6947353376e0e725af73faa62b1bcd8477cc8b9ce5f649cd925d101e7fe791ad120300020ca747e5c527e857d8a71b53b6efbad2866b9e04000bb800003c00000000011de84e1324baf5a9f3a49a48892fe90ce48456f1000bb80000000000000003478946bcd4a5a22b316470f5486fafb928c0ba2500023b000064030db7010300020fcd58c457d71bf630a44a41437537e0d5be7ed80027100000c8000000000156770b94279539416855fe29ef14b26438b5e421000bb8000000000000010285149247691df622eaf1a8bd0cafd40bc45154a90001f400000a00000000020102adab76dd2dca7ae080a796f0ce86170e482afb4a000bb800003c0000000103cf50dea65ee80ebddaa61005a960ef5a5c995a990001f9000064ff01f500020003478946bcd4a5a22b316470f5486fafb928c0ba2500023b000064030db70002c1738d90e2e26c35784a0d3e3d8a9f795074bca4000bb800003c00000001030003478946bcd4a5a22b316470f5486fafb928c0ba2500023b000064030db70003cf50dea65ee80ebddaa61005a960ef5a5c995a990001f9000064ff01f5010273b14a78a0d396c521f954532d43fd5ffe385216000bb800003c00000000030002c1738d90e2e26c35784a0d3e3d8a9f795074bca4000bb800003c00000000024dbb2d7785654074c53c5a915126d3378446bd610000320000010000000102c858a329bf053be78d6239c4a4343b8fbd21472b0001f400000a00000000030003478946bcd4a5a22b316470f5486fafb928c0ba2500023b000064030db70002b06b3259c816f5b4cb2bbc55952467b0abed3c840001f400000a00000001024a5a2a152e985078e1a4aa9c3362c412b7dd0a860001f400000a000000010200021fb3cf6e48f1e7b10213e7b6d87d4c073c7fdb7b0001f400000a0000000003478946bcd4a5a22b316470f5486fafb928c0ba2500023b000064030db701030003bf30ff33cf9c6b0c48702ff17891293b002dfea400006500000100081b0002b06b3259c816f5b4cb2bbc55952467b0abed3c840001f400000a0000000002c1738d90e2e26c35784a0d3e3d8a9f795074bca4000bb800003c00000001020102b06b3259c816f5b4cb2bbc55952467b0abed3c840001f400000a0000000103ee1bac98527a9fdd57fccf967817215b083ce1f00001f9000064030598000300034dc22588ade05c40338a9d95a6da9dcee68bcd600001f90000c80181120101e9581d0f1a628b038fc8b2a7f5a7d904f0e2f937002710000000000000010339ed27d101aa4b7ce1cb4293b877954b8b5e14e5000bd60000c801d26c00030003478946bcd4a5a22b316470f5486fafb928c0ba2500023b000064030db70001a0a215de234276cac1b844fd58901351a50fec8a002328000000000000010339ed27d101aa4b7ce1cb4293b877954b8b5e14e5000bd60000c801d26c00020003478946bcd4a5a22b316470f5486fafb928c0ba2500023b000064030db700021fb3cf6e48f1e7b10213e7b6d87d4c073c7fdb7b0001f400000a00000001030003319c0dd36284ac24a6b2bee73929f699b9f48c380001f9000064fbf43d0103cf50dea65ee80ebddaa61005a960ef5a5c995a990001f9000064ff01f50003478946bcd4a5a22b316470f5486fafb928c0ba2500023b000064030db70102000339ed27d101aa4b7ce1cb4293b877954b8b5e14e5000bd60000c801d26c010158e6433a6903886e440ddf519ecc573c4046a6b20027100000000000000003000339ed27d101aa4b7ce1cb4293b877954b8b5e14e5000bd60000c801d26c0101a0a215de234276cac1b844fd58901351a50fec8a0023280000000000000003478946bcd4a5a22b316470f5486fafb928c0ba2500023b000064030db701040003bf30ff33cf9c6b0c48702ff17891293b002dfea400006500000100081b0003ee1bac98527a9fdd57fccf967817215b083ce1f00001f90000640305980003cf50dea65ee80ebddaa61005a960ef5a5c995a990001f9000064ff01f50103319c0dd36284ac24a6b2bee73929f699b9f48c380001f9000064fbf43d00040002c858a329bf053be78d6239c4a4343b8fbd21472b0001f400000a000000010384ce89b4f6f67e523a81a82f9f2f14d84b726f6b00005b0000010000000003ee1bac98527a9fdd57fccf967817215b083ce1f00001f90000640305980103bf30ff33cf9c6b0c48702ff17891293b002dfea400006500000100081b01","maxFeePerGas":"0x3938700","maxPriorityFeePerGas":"0x186a0","nonce":"0xa664f","r":"0x24710f512f1c9571fa58c1fc7b895e7ab150ba9b260ac7a84ac69482baeee6b7","s":"0x100d672058bf97be450cbd0cf360cea57ecbf9b4e0ff5bdd09f13c101e1c0d01","to":"0x355463adfd60892ee5aefb92ba2e86d8cd554a30","transactionIndex":"0x16","type":"0x2","v":"0x1","value":"0x0","yParity":"0x1"},{"accessList":[],"blockHash":"0x324fbac2aa1241e075c8e33069929f49edb8dcbd0625ff7be55f85cb767a50ba","blockNumber":"0x8ef4f62","chainId":"0xa","from":"0x8780693726948c15757589e89fb3ed56c7a33e8f","gas":"0x16e360","gasPrice":"0x728","hash":"0x8d78922f9c7a21ec5d4edf62c9da801831d5b7dca19312a0ffd62cbb9d3a1b18","input":"0x000000000001f4000bb8000164000bb80001f400013d000bb80027100001900001900001f4000177000bb80001f400019000000c00006400006400005a000064000a8c00006401","maxFeePerGas":"0x2faf08b","maxPriorityFeePerGas":"0xb","nonce":"0x126435","r":"0xa40ed6957d5280f89b5dd7afcf64d4808ed7b167288c7d4e60367c887ad946e","s":"0x2284637f7b2a9bdd4951ea2c525a86428eba0e2ff5d62db49b34311f3ff52c77","to":"0xa8995ddb92d29ebfb898d9fc1991d7541f67cfb5","transactionIndex":"0x17","type":"0x2","v":"0x0","value":"0x0","yParity":"0x0"},{"accessList":[],"blockHash":"0x324fbac2aa1241e075c8e33069929f49edb8dcbd0625ff7be55f85cb767a50ba","blockNumber":"0x8ef4f62","chainId":"0xa","from":"0x151f6f5b1c25b741c3663472959d8ba6b16556a6","gas":"0x16e360","gasPrice":"0x728","hash":"0x7037c6638a68a789ae1734906a22216cbf415bcdc24d86a5d2c00a111adeef4b","input":"0x000000000001f4000bb8000164000bb80001f400013d000bb80027100001900001900001f4000177000bb80001f400019000000c00006400006400005a000064000a8c00006401","maxFeePerGas":"0x2faf08b","maxPriorityFeePerGas":"0xb","nonce":"0x12d62f","r":"0xae45846393c89b7b5909c448fecbf29e88a60725f418373082d868026fcdc47d","s":"0x4a6a9e282b639aed56e61c440e09dc4305995ec8e3569b8f34d331f59125be25","to":"0xa8995ddb92d29ebfb898d9fc1991d7541f67cfb5","transactionIndex":"0x18","type":"0x2","v":"0x0","value":"0x0","yParity":"0x0"},{"accessList":[],"blockHash":"0x324fbac2aa1241e075c8e33069929f49edb8dcbd0625ff7be55f85cb767a50ba","blockNumber":"0x8ef4f62","chainId":"0xa","from":"0x61a2ff829fa6e4250cbd41dbf375a0d08b0d3b6f","gas":"0xf618","gasPrice":"0x2faf08e","hash":"0x3e7371d4adfc80c669477859768da28ed0c806db23fb1fa1aae364e633c37fa9","input":"0x","maxFeePerGas":"0x2faf308","maxPriorityFeePerGas":"0x2fae971","nonce":"0x7","r":"0xb6189ac984a3c8fd46a10a9d9fb6f9a8cc953abbd0ee0b1688f59198260c1c6a","s":"0x320142660e4ae0d7d6a0bc3b028fed9317cd66d8303637cf96ffac71d249d142","to":"0x8f88b1f4eb2c8eaf53a79e92a7f00fccaed6b199","transactionIndex":"0x19","type":"0x2","v":"0x0","value":"0x2380a31bdfa98d","yParity":"0x0"},{"accessList":[],"blockHash":"0x324fbac2aa1241e075c8e33069929f49edb8dcbd0625ff7be55f85cb767a50ba","blockNumber":"0x8ef4f62","chainId":"0xa","from":"0x4337013ef5cd421cef649fc58c1b0defd37bbeb1","gas":"0x76970","gasPrice":"0x15e752","hash":"0xd7fba6e5ded12466418edf1d2644cd57c38415905ebe2fe22ba1793ecb135970","input":"0x765e827f00000000000000000000000000000000000000000000000000000000000000400000000000000000000000004337013ef5cd421cef649fc58c1b0defd37bbeb1000000000000000000000000000000000000000000000000000000000000000100000000000000000000000000000000000000000000000000000000000000200000000000000000000000005bbbafd8e7d0ae0551f81c6c7cd1ef9b8c40f16f0000000000000000000000000000000000000000000000000000000000003d3b000000000000000000000000000000000000000000000000000000000000012000000000000000000000000000000000000000000000000000000000000001400000000000000000000000000000a3520000000000000000000000000004b31900000000000000000000000000000000000000000000000000000000000128ea0000000000000000000000000016e36000000000000000000000000000262cbb00000000000000000000000000000000000000000000000000000000000008600000000000000000000000000000000000000000000000000000000000000920000000000000000000000000000000000000000000000000000000000000000000000000000000000000000000000000000000000000000000000000000006e4e9ae5c53010000000000000000000000000000000000000000000000000000000000000000000000000000000000000000000000000000000000000000000000000000400000000000000000000000000000000000000000000000000000000000000680000000000000000000000000000000000000000000000000000000000000002000000000000000000000000000000000000000000000000000000000000000030000000000000000000000000000000000000000000000000000000000000060000000000000000000000000000000000000000000000000000000000000014000000000000000000000000000000000000000000000000000000000000005c000000000000000000000000094b008aa00579c1307b0ef2c499ad98a8ce58e58000000000000000000000000000000000000000000000000000000000000000000000000000000000000000000000000000000000000000000000000000000600000000000000000000000000000000000000000000000000000000000000044a9059cbb000000000000000000000000f70853810b8fc6869068dc8f7f94c439c9a2cdca000000000000000000000000000000000000000000000000000000000000311f000000000000000000000000000000000000000000000000000000000000000000000000000000006733eb2e75b1625f1fe5f18ad2cb2babda510d190000000000000000000000000000000000000000000000000000000000000000000000000000000000000000000000000000000000000000000000000000006000000000000000000000000000000000000000000000000000000000000003e40c307f76000000000000000000000000000000000000000000000000000000003bbb7b2e0000000000000000000000005bbbafd8e7d0ae0551f81c6c7cd1ef9b8c40f16f00000000000000000000000094b008aa00579c1307b0ef2c499ad98a8ce58e580000000000000000000000000b2c639c533813f4aa9d7837caf62653d097ff850000000000000000000000000000000000000000000000000000000001b1f3000000000000000000000000000000000000000000000000000000000001b178de0000000000000000000000000000000000000000000000000000000069d2868600000000000000000000000000000000000000000000000000000000000001000000000000000000000000000000000000000000000000000000000000000001000000000000000000000000000000000000000000000000000000000000002000000000000000000000000000000000000000000000000000000000000000a000000000000000000000000000000000000000000000000000000000000000e00000000000000000000000000000000000000000000000000000000000000120000000000000000000000000000000000000000000000000000000000000016000000000000000000000000094b008aa00579c1307b0ef2c499ad98a8ce58e580000000000000000000000000000000000000000000000000000000000000001000000000000000000000000411d2c093e4c2e69bf0d8e94be1bf13dadd879c60000000000000000000000000000000000000000000000000000000000000001000000000000000000000000411d2c093e4c2e69bf0d8e94be1bf13dadd879c6000000000000000000000000000000000000000000000000000000000000000180000000000000000001271084ce89b4f6f67e523a81a82f9f2f14d84b726f6b0000000000000000000000000000000000000000000000000000000000000001000000000000000000000000000000000000000000000000000000000000002000000000000000000000000000000000000000000000000000000000000000a000000000000000000000000000000000000000000000000000000000000000000000000000000000000000000000000000000000000000000000000000000040000000000000000000000000000000000000000000000000000000000000004000000000000000000000000094b008aa00579c1307b0ef2c499ad98a8ce58e580000000000000000000000000b2c639c533813f4aa9d7837caf62653d097ff857777777711118000000000000000000000000000000000000000000001b1e7f3777777771111000000000064fa00a9ed787f3793db668bff3e6e6e7db0f92a1b000000000000000000000000000000000000000000000000000000000000000000000000000000005bbbafd8e7d0ae0551f81c6c7cd1ef9b8c40f16f000000000000000000000000000000000000000000000000000000000000000000000000000000000000000000000000000000000000000000000000000000600000000000000000000000000000000000000000000000000000000000000000000000000000000000000000000000000000000000000000000000000000000000000000000000000000000000000000000000000000000000000082777777777777aec03fd955926dbf81597e66834c0000000000000000000000000000b5780000000000000000000000000000000101000069d27ad3000000000000e40866b6f1736d69e50e94b2a4505ee5e30ef6bb9fca53504e5674ecbde7b9d93a670bda43e4011c62ee229743a09a3c4cfb8d2cdef5ff83d1a40bd4384866ae1b0000000000000000000000000000000000000000000000000000000000000000000000000000000000000000000000000000000000000000000000000041634160a8e7e1d2a05d5b8458171937f12cf832959bde55604a6d4a4cddb85930251c6b40a8c70612a25e10da140f2fe9a84ca23163a3861a6ffcd78b8a5362371c00000000000000000000000000000000000000000000000000000000000000","maxFeePerGas":"0x15e752","maxPriorityFeePerGas":"0x15e752","nonce":"0x9f34","r":"0xf798ff07d3b140a5e6834e3a3b054395496594a6fcb96f42dbe7de69ca809a80","s":"0x3c3daf72ceac2d32b84e7ef2731c937e189d45d37e9fc6659b147b0a459fa9ed","to":"0x0000000071727de22e5e9d8baf0edac6f37da032","transactionIndex":"0x1a","type":"0x2","v":"0x0","value":"0x0","yParity":"0x0"},{"blockHash":"0x324fbac2aa1241e075c8e33069929f49edb8dcbd0625ff7be55f85cb767a50ba","blockNumber":"0x8ef4f62","chainId":"0xa","from":"0x2c40c085b9233367dcc3238f81aeb160b5a26b93","gas":"0x622b7","gasPrice":"0x125808","hash":"0xdc24c7782dfe4f95b72a7984e8f8d4bd1e085c567b60f96a91db858050d8eb13","input":"0xa44c9ce7000000000000000000000000000000000000000000000000000000000000006000000000000000000000000000000000000000000000000000000000000001600000000000000000000000000000000000000000000000000000000000000000000000000000000000000000e8b7759fcba11db00139e39f49a06e2c2abdf42c00000000000000000000000000000000000000000000000000000000000000000000000000000000000000000000000000000000000000000000000069d27ad2000000000000000000000000000000000000000000000000000000000000008000000000000000000000000000000000000000000000000000000000000000412cf03a25a336873ecb3805c07c276f9d06804ca167665bb6c8d52ed56fd74ccb06d020333c94c2d5dff2010736065c1af75a2f2045d8e63e171244d2189783731b0000000000000000000000000000000000000000000000000000000000000000000000000000000000000000000000000000000000000000000000000000010000000000000000000000000000000000000000000000000000000000000020000000000000000000000000000000000000000000000000000000000000000100000000000000000000000000000000000000000000000000000000000000c0000000000000000000000000000000000000000000000000000000000000000100000000000000000000000000000000000000000000000000000000000001000000000000000000000000000000000000000000000000000000000069d2868a0000000000000000000000000000000000000000000000000000000000000240000000000000000000000000000000000000000000000000000000000000002023f09d96f5379be6a3753accdd7c078c3cdeecde75dafd259473e52989c7441700000000000000000000000000000000000000000000000000000000000001200000000000000000000000000000000000000000000000000000000000000020000000000000000000000000000000000000000000000000000000000004ba6100000000000000000000000020c5cfecc0d1e03d2511aec13ea016f552d639b700000000000000000000000000000000000000000000000000000000000000800000000000000000000000000000000000000000000000000000000069d2868a00000000000000000000000000000000000000000000000000000000000000414cdfdb9da9952b31e331e48ace25b66dd7cef034f7f1360e8d4ec6bbe329f12214f3a38ef5fc84454b1b016732e96cf15d8ec212a6faa90264fc295680e001f61b0000000000000000000000000000000000000000000000000000000000000000000000000000000000000000000000000000000000000000000000000000414da1ab9fb444776ad3d1590d347519f90f75db0ce8e131c2756dd63e9fa564c56c2380f393022a2a79b238f5b2766647704e222db129f80e74026032ac7bf0721b00000000000000000000000000000000000000000000000000000000000000","nonce":"0x22a06","r":"0x8b8d63a10a3227ba4ed7688130c584580f0a5842da8ccad575b43db3a0c7a35","s":"0x7136bf7e068f62934a392628bf61ea9b746b0e3db088cfa44d172d1cd530923","to":"0x00000000fc04c910a0b5fea33b03e0447ad0b0aa","transactionIndex":"0x1b","type":"0x0","v":"0x37","value":"0x587fbdbc2810"},{"accessList":[],"blockHash":"0x324fbac2aa1241e075c8e33069929f49edb8dcbd0625ff7be55f85cb767a50ba","blockNumber":"0x8ef4f62","chainId":"0xa","from":"0x3bae0f9811fb3869267caff8b5a1baf00a352935","gas":"0x5e2c4d","gasPrice":"0x18dbd","hash":"0xa82527d5cc77fb8a6bb1826621b55e30fb7f3263cec678753ff1974f889cb6dc","input":"0x1e83409a0000000000000000000000003bae0f9811fb3869267caff8b5a1baf00a352935","maxFeePerGas":"0x19064","maxPriorityFeePerGas":"0x186a0","nonce":"0x4b1","r":"0x3db6f3a1e98874b1bc0676d2ff00f80de2b66dacc00edff9ade5c76b70ac7b6e","s":"0x369f6cb8bf307260555d75aef0222928ed1525dd86b489816e769b0a1ba8759d","to":"0xf368f535e329c6d08dff0d4b2da961c4e7f3fcaf","transactionIndex":"0x1c","type":"0x2","v":"0x0","value":"0x0","yParity":"0x0"},{"accessList":[],"blockHash":"0x324fbac2aa1241e075c8e33069929f49edb8dcbd0625ff7be55f85cb767a50ba","blockNumber":"0x8ef4f62","chainId":"0xa","from":"0xbb8545a02736494f934314a9aa55cf421fff1aed","gas":"0x7a120","gasPrice":"0xb05","hash":"0x5828417283a635be5de3d6b72e021c717aa74e334d5e441a7277e716acef50c4","input":"0x4e6669ed4150584554480000000000000000000000000000000000000000000000000000","maxFeePerGas":"0x59682f01","maxPriorityFeePerGas":"0x3e8","nonce":"0x1f07bd","r":"0x63e4f020692bdcb049190dc526d95a0ab5da883077cc3adb7102a7d217040c4f","s":"0x7a4ae4ebd1839e6b7fef206f7de495e5ce944fafcb1de8d1844d27dfd8df71d9","to":"0xf4f18205d8d46638489865e42c0a71a3d4f9fc22","transactionIndex":"0x1d","type":"0x2","v":"0x1","value":"0x0","yParity":"0x1"},{"accessList":[],"blockHash":"0x324fbac2aa1241e075c8e33069929f49edb8dcbd0625ff7be55f85cb767a50ba","blockNumber":"0x8ef4f62","chainId":"0xa","from":"0xbdccb78e31a28e84235491e8a2d7cecaa41fa849","gas":"0x7a120","gasPrice":"0xb05","hash":"0x0fa4044208448484b9cf8f65db561d566bea357216fd76884db2a2c909751581","input":"0x4e6669ed4150584554480000000000000000000000000000000000000000000000000000","maxFeePerGas":"0x59682f01","maxPriorityFeePerGas":"0x3e8","nonce":"0x21349b","r":"0x962df4862ea76fb39c440fa33a22f4ef87d8fd47fe6d035eb7e4801270fcda8f","s":"0x27013531b71269041c72b8dd3d0973395b340772336591d4abccc0c073554485","to":"0xf4f18205d8d46638489865e42c0a71a3d4f9fc22","transactionIndex":"0x1e","type":"0x2","v":"0x0","value":"0x0","yParity":"0x0"},{"accessList":[],"blockHash":"0x324fbac2aa1241e075c8e33069929f49edb8dcbd0625ff7be55f85cb767a50ba","blockNumber":"0x8ef4f62","chainId":"0xa","from":"0x226cd32e106512a5cc417a57da74745c21597723","gas":"0x16e360","gasPrice":"0x728","hash":"0xa0852f8f291bf2059cfafd372c9d7f3106f109aeae4156747201134e0c9c522d","input":"0x000000000001f4000bb8000164000bb80001f400013d000bb80027100001900001900001f4000177000bb80001f400019000000c00006400006400005a000064000a8c00006401","maxFeePerGas":"0x2faf08b","maxPriorityFeePerGas":"0xb","nonce":"0x12ece5","r":"0xd28db5dcac69448cf2affd2074666acd9ad005fc2220c7e7e6692a886b2f235f","s":"0x100da3bedc8f2f4653dddbf2ea6d3c178143d14c15aca8d78f86bd0891b57e42","to":"0xa8995ddb92d29ebfb898d9fc1991d7541f67cfb5","transactionIndex":"0x1f","type":"0x2","v":"0x0","value":"0x0","yParity":"0x0"},{"accessList":[],"blockHash":"0x324fbac2aa1241e075c8e33069929f49edb8dcbd0625ff7be55f85cb767a50ba","blockNumber":"0x8ef4f62","chainId":"0xa","from":"0xa91a456f64d0106c7ef817fe62f274c020dd68c9","gas":"0xe4e1c0","gasPrice":"0x71f","hash":"0xc19529d6ef2ee6a48305de13f3e24482ddf3bda7e6f8934d378177f52817de30","input":"0x0d390afd0000000000000000000000000000000000000000000000000000000000000020000000000000000000000000000000000000000000000000000000000000000600000000000000000000000000000000000000000000000000000000000000000000000000000000000000000000000000000000000000000000000000030db7000000000000000000000000000000000000000000000000000000000000000a00000000000000000000000000000000000000000000000000000000000000f900000000000000000000000000000000000000000000000000000000000027100000000000000000000000000000000000000000000000000000000ad7bf57030000000000000000000000000000000000000000000000004e8d3b2af79d2dec00000000000000000000000000000000000000000000000000000000000000030000000000000000000000000000000000000000000000000000000000018112000000000000000000000000000000000000000000000000000000000000000a00000000000000000000000000000000000000000000000000000000000006bd000000000000000000000000000000000000000000000000000000000000271000000000000000000000000000000000000000000000000006f81e37e2d51d9800000000000000000000000000000000000000000000107470cb4a510a00c1600000000000000000000000000000000000000000000000000000000000000004000000000000000000000000000000000000000000000000000000000001d26c000000000000000000000000000000000000000000000000000000000000000a00000000000000000000000000000000000000000000000000000000000007be00000000000000000000000000000000000000000000000000000000000027100000000000000000000000000000000000000000000000014c95199f55c375c400000000000000000000000000000000000000000000123b75cfd1692b12b45d00000000000000000000000000000000000000000000000000000000000000060000000000000000000000000000000000000000000000000000000000030598000000000000000000000000000000000000000000000000000000000000000a0000000000000000000000000000000000000000000000000000000000000bfd0000000000000000000000000000000000000000000000000000000000001f4000000000000000000000000000000000000000000000000000000000d13df7f50000000000000000000000000000000000000000000000000cfc276fba390c0c0000000000000000000000000000000000000000000000000000000000000007fffffffffffffffffffffffffffffffffffffffffffffffffffffffffffcf248000000000000000000000000000000000000000000000000000000000000000a000000000000000000000000000000000000000000000000000000000000151c0000000000000000000000000000000000000000000000000000000000002328000000000000000000000000000000000000000000000000080bf70852b41dc9000000000000000000000000000000000000000000000000000000011e63711c000000000000000000000000000000000000000000000000000000000000000800000000000000000000000000000000000000000000000000000000000379bb000000000000000000000000000000000000000000000000000000000000000a00000000000000000000000000000000000000000000000000000000000011b40000000000000000000000000000000000000000000000000000000000001f4000000000000000000000000000000000000000000000000000000000225299150000000000000000000000000000000000000000000000016fbb308eff2ae2ec","maxFeePerGas":"0x1dcd6502","maxPriorityFeePerGas":"0x2","nonce":"0x4e520","r":"0x6a90c9b6ccf7f8436fdc4d48155aaea9145697a92219b447b635ac5a0305ace8","s":"0x11bae6a2da2ae6aa1bd1c4aa63f607e4e1f4e2a80dacb15769920f56a230f81","to":"0x17adbb47735c68b75e405abceaba52a7f6522e17","transactionIndex":"0x20","type":"0x2","v":"0x0","value":"0x0","yParity":"0x0"},{"accessList":[],"blockHash":"0x324fbac2aa1241e075c8e33069929f49edb8dcbd0625ff7be55f85cb767a50ba","blockNumber":"0x8ef4f62","chainId":"0xa","from":"0xa83a922a933da0d06cc87d60e54c6a44ddcdfaf9","gas":"0x16e360","gasPrice":"0x71e","hash":"0xfaed93b94ea383cb7155afd686dfc98697e7c3fa053939789b0ba51a34863ab5","input":"0xcbce98b000000000000000000000000000000000000000000000000000000000000000640000000000000000000000000000000000000000000000000000000000030da40000000000000000000000000000000000000000000000000000000000030e080000000000000000000000000000000000000000000000000000000069d27896","maxFeePerGas":"0xaaa","maxPriorityFeePerGas":"0x1","nonce":"0x26a3d","r":"0x8f527f987159cf0eae4013868b8a93fd3e7a60b1e99841b36df70edbad251ea7","s":"0x26a3eb90e450ca20c03c09a4bfd61cd3bc50094c4f28fb7e2598839add212beb","to":"0xc26ae9339be07ce072b96003fa959517c4af37e9","transactionIndex":"0x21","type":"0x2","v":"0x1","value":"0x0","yParity":"0x1"},{"blockHash":"0x324fbac2aa1241e075c8e33069929f49edb8dcbd0625ff7be55f85cb767a50ba","blockNumber":"0x8ef4f62","chainId":"0xa","from":"0xe82951807393da15582f3ae4cc008d0e8b90615b","gas":"0x622b7","gasPrice":"0x125808","hash":"0x6ab9a0abfaba92a18867e86ebaf48444d0058d49551f60df34f394f3115ec0c4","input":"0xa44c9ce70000000000000000000000000000000000000000000000000000000000000060000000000000000000000000000000000000000000000000000000000000016000000000000000000000000000000000000000000000000000000000000000000000000000000000000000005db5a2f06ea2d72b40efedd57647b6578957af8100000000000000000000000000000000000000000000000000000000000000000000000000000000000000000000000000000000000000000000000069d27ad3000000000000000000000000000000000000000000000000000000000000008000000000000000000000000000000000000000000000000000000000000000415d05a4b2aa7170129ef5813f4c684dc5216824259f7dba54f01fa0046ce3f48377081797186539b20fd434de78c5e8671d243b4e2948e5f07fd1fbbf7bd237a01b0000000000000000000000000000000000000000000000000000000000000000000000000000000000000000000000000000000000000000000000000000010000000000000000000000000000000000000000000000000000000000000020000000000000000000000000000000000000000000000000000000000000000100000000000000000000000000000000000000000000000000000000000000c0000000000000000000000000000000000000000000000000000000000000000100000000000000000000000000000000000000000000000000000000000001000000000000000000000000000000000000000000000000000000000069d2868b000000000000000000000000000000000000000000000000000000000000024000000000000000000000000000000000000000000000000000000000000000204ebf720352f84424654ad952019fbea3fc69b737341f7292ed7e419cf6ebc45700000000000000000000000000000000000000000000000000000000000001200000000000000000000000000000000000000000000000000000000000000020000000000000000000000000000000000000000000000000000000000004ba6100000000000000000000000020c5cfecc0d1e03d2511aec13ea016f552d639b700000000000000000000000000000000000000000000000000000000000000800000000000000000000000000000000000000000000000000000000069d2868b00000000000000000000000000000000000000000000000000000000000000418e827a21256f0849a8c64ec9488d793929af62555363841911de8f8b927e31f67573d9fab33aa7a6e3f9556c8d192e874d52b0b8f923010f8a91625e932fb7a11b00000000000000000000000000000000000000000000000000000000000000000000000000000000000000000000000000000000000000000000000000004114eed6192de231c957fbc8526ce902cb0a76452aea4aca30955b2e8c9b45ae1a71196816a425ee7ebac0e8cdff80e6110a05d172b9e6320cbc42c4551cb170571c00000000000000000000000000000000000000000000000000000000000000","nonce":"0x216d2","r":"0x1a74f32e8e4d5a4828a28c04e7ece56b250ab2c9ccd7dad8bee0127072e56ef","s":"0x7b5d71dbec94697acbdef1969bcd8f6334e8c5b7a219da8053cc37182939d0e0","to":"0x00000000fc04c910a0b5fea33b03e0447ad0b0aa","transactionIndex":"0x22","type":"0x0","v":"0x37","value":"0x587fbdbc2810"},{"blockHash":"0x324fbac2aa1241e075c8e33069929f49edb8dcbd0625ff7be55f85cb767a50ba","blockNumber":"0x8ef4f62","chainId":"0xa","from":"0xbdd19ed1d0c68743baf49c0c22bf9289c9327d1e","gas":"0x622b7","gasPrice":"0x125808","hash":"0xb3b379c653177c87adfb9bbbad08995c51257b8637f34cad3755b9993238d1fa","input":"0xa44c9ce70000000000000000000000000000000000000000000000000000000000000060000000000000000000000000000000000000000000000000000000000000016000000000000000000000000000000000000000000000000000000000000000000000000000000000000000001660262721f4870f4df9b4497f82b537775349ab00000000000000000000000000000000000000000000000000000000000000000000000000000000000000000000000000000000000000000000000069d27ad300000000000000000000000000000000000000000000000000000000000000800000000000000000000000000000000000000000000000000000000000000041984f39d9ca89f0bdedb8da8d86526fd86ba5e4c8396e888ecd37f6c27f978638733204240a29af78107c6c89053cc416044e81c698959c4260ff6371c5f044f81c0000000000000000000000000000000000000000000000000000000000000000000000000000000000000000000000000000000000000000000000000000010000000000000000000000000000000000000000000000000000000000000020000000000000000000000000000000000000000000000000000000000000000100000000000000000000000000000000000000000000000000000000000000c0000000000000000000000000000000000000000000000000000000000000000100000000000000000000000000000000000000000000000000000000000001000000000000000000000000000000000000000000000000000000000069d2868b000000000000000000000000000000000000000000000000000000000000024000000000000000000000000000000000000000000000000000000000000000208c9fe18f4e6aca24a3902a21e475d9db3697f4c546bb0bbb18758ef20a3634c700000000000000000000000000000000000000000000000000000000000001200000000000000000000000000000000000000000000000000000000000000020000000000000000000000000000000000000000000000000000000000004ba6100000000000000000000000020c5cfecc0d1e03d2511aec13ea016f552d639b700000000000000000000000000000000000000000000000000000000000000800000000000000000000000000000000000000000000000000000000069d2868b0000000000000000000000000000000000000000000000000000000000000041a039ba67aa1e591942095f6a2b5df4aabaed5fed4d3b09fe515620154cd4977352a363a4f66b74f34130443c79e1799d9f63782074cb216738980aecdc2f3a541b000000000000000000000000000000000000000000000000000000000000000000000000000000000000000000000000000000000000000000000000000041d5be49d5b47605699c84cb6e8274540f1fd16a7dd44f883d5d39404ca8eaedef469c33cf36bcc22e06b3ea35908c98997e79792c1af1365523ed93f553c32aa21b00000000000000000000000000000000000000000000000000000000000000","nonce":"0x23a4f","r":"0x340bd3a35e68f2a3b3a4d9d79b7dd499906e4fec6ae4d9513d90048a32ef5c2f","s":"0x57872a5bae02b76773b84d24834926a9388fad7a9a002d828d36f7552ad00f62","to":"0x00000000fc04c910a0b5fea33b03e0447ad0b0aa","transactionIndex":"0x23","type":"0x0","v":"0x38","value":"0x587fbdbc2810"},{"accessList":[],"blockHash":"0x324fbac2aa1241e075c8e33069929f49edb8dcbd0625ff7be55f85cb767a50ba","blockNumber":"0x8ef4f62","chainId":"0xa","from":"0x257c2555c85488b10995d0239abcb7d8c2a345b9","gas":"0x16e360","gasPrice":"0x728","hash":"0x63ea84946d89a7747bf4e3a3f90b9b0d7afee821452aac041134ea328b590e71","input":"0x000000000001f4000bb8000164000bb80001f400013d000bb80027100001900001900001f4000177000bb80001f400019000000c00006400006400005a000064000a8c00006401","maxFeePerGas":"0x2faf08b","maxPriorityFeePerGas":"0xb","nonce":"0x12a64f","r":"0x8a3e458df77fe38554430702f9729de325e6dcbf1129720c300df1351dea44db","s":"0x28ab2a257555a65f374f2cb77bf6e9aa494121cf8fb936df985fa02759b8f6c6","to":"0xa8995ddb92d29ebfb898d9fc1991d7541f67cfb5","transactionIndex":"0x24","type":"0x2","v":"0x1","value":"0x0","yParity":"0x1"},{"accessList":[],"blockHash":"0x324fbac2aa1241e075c8e33069929f49edb8dcbd0625ff7be55f85cb767a50ba","blockNumber":"0x8ef4f62","chainId":"0xa","from":"0x7422268853b2d25ed46aba01c07275e89ac904ef","gas":"0xf4240","gasPrice":"0x71e","hash":"0x1cfbe8862751566fc195c68098e129c28e23b2bd752b43754bf65bc42bc54399","input":"0x94ad4df3000000000000000000000000000000000000000000000000000000012cc29cc6000000000000000000000000000000000000000000000000000000000086d042ffffffffffffffffffffffffffffffffffffffffffffffffffffffffffff01b4ffffffffffffffffffffffffffffffffffffffffffffffffffffffffffff02180000000000000000000000000000000000000000000000000000000000000000","maxFeePerGas":"0x7c6","maxPriorityFeePerGas":"0x1","nonce":"0x25712","r":"0x3660ac0dfa9c10cf46c75d0a3e4cb9be8bd0b075aed27f3522a41cc431600ef9","s":"0x55ee140005f48e6c88b6d2ec14658af46a94cd5b2c1051d367c4c2051f9f0dfc","to":"0x0d30b9d53f914fe8cd0945a6c7628d974f2ab23b","transactionIndex":"0x25","type":"0x2","v":"0x0","value":"0x0","yParity":"0x0"},{"accessList":[],"blockHash":"0x324fbac2aa1241e075c8e33069929f49edb8dcbd0625ff7be55f85cb767a50ba","blockNumber":"0x8ef4f62","chainId":"0xa","from":"0x10ae0f7d28720cc0a79f806e705f5a54e96111cd","gas":"0xf4240","gasPrice":"0x71e","hash":"0xdc8a97fd48b2510622cbd133a8566494ee93ce7506abf8dfe9faf7e04daaf79f","input":"0x94ad4df3000000000000000000000000000000000000000000000000201fb21bba44ba000000000000000000000000000000000000000000000009f2e9bbc732ac000000000000000000000000000000000000000000000000000000000000000001806000000000000000000000000000000000000000000000000000000000000181280000000000000000000000000000000000000000000000000000000000000000","maxFeePerGas":"0x7c6","maxPriorityFeePerGas":"0x1","nonce":"0x5760","r":"0xd8df43b95830046a150c602f18f58f8d0851aa8b7b78a18893f30de615874e7e","s":"0x3035822ec1b2f172cb4de802f696f66441d125f7673e47623c5a06471f14abc0","to":"0x085bb46576d28b454dca5be6476932efc56677f8","transactionIndex":"0x26","type":"0x2","v":"0x0","value":"0x0","yParity":"0x0"},{"accessList":[],"blockHash":"0x324fbac2aa1241e075c8e33069929f49edb8dcbd0625ff7be55f85cb767a50ba","blockNumber":"0x8ef4f62","chainId":"0xa","from":"0x3f2801a4726e72df88be23daac3ccb463ae5444a","gas":"0xf4240","gasPrice":"0x71e","hash":"0xba35dd006034ddc79978f25aa4169f571808924b06b8d881fa904b13ffa04d9d","input":"0x94ad4df300000000000000000000000000000000000000000000000000000015587507c400000000000000000000000000000000000000000000000239ace733faaba0000000000000000000000000000000000000000000000000000000000000030da40000000000000000000000000000000000000000000000000000000000030e080000000000000000000000000000000000000000000000000000000000000000","maxFeePerGas":"0x7c6","maxPriorityFeePerGas":"0x1","nonce":"0x10df15","r":"0x7824de3f307a00d7054b472e05d9acc5753fa84ec8361f3169508f800a610945","s":"0x558698a58eefc841404ac1b3691cd6418fef91c0fd51684c0d408da53f902395","to":"0xd53100cfd29d68c83b07ec1d97bee54b7a525428","transactionIndex":"0x27","type":"0x2","v":"0x1","value":"0x0","yParity":"0x1"},{"accessList":[],"blockHash":"0x324fbac2aa1241e075c8e33069929f49edb8dcbd0625ff7be55f85cb767a50ba","blockNumber":"0x8ef4f62","chainId":"0xa","from":"0x9e3ed65340a913b96ba7b86d5d5876dde623946e","gas":"0x27ac40","gasPrice":"0x71e","hash":"0x25c4886e9c1534b19192b1da6c639473d5f57d6ede94fd477dba6338d5ab1a71","input":"0x83730cc30000000000000000000000000000000000000000000000000000000008ef4f62","maxFeePerGas":"0x5f5e100","maxPriorityFeePerGas":"0x1","nonce":"0x8e1fdc","r":"0xde302feee37dfd19f508b20f1dc3178452488042615aff431ed29ed516441d23","s":"0x17f343b3685a88c08cf99d99539af60c56531f1f9d7ba917626ee2293638785b","to":"0xd9f7bd6033d34caf61143a460d7f79c4384aae97","transactionIndex":"0x28","type":"0x2","v":"0x0","value":"0x0","yParity":"0x0"},{"accessList":[],"blockHash":"0x324fbac2aa1241e075c8e33069929f49edb8dcbd0625ff7be55f85cb767a50ba","blockNumber":"0x8ef4f62","chainId":"0xa","from":"0xcde377407d9b819efc0e185aa2d442194c2233e6","gas":"0x27ac40","gasPrice":"0x71e","hash":"0x982093ccd656c57e43c1699a9bfafb19706b9ed65a872c7c4b3aad41976e8d8a","input":"0x83730cc30000000000000000000000000000000000000000000000000000000008ef4f62","maxFeePerGas":"0x5f5e100","maxPriorityFeePerGas":"0x1","nonce":"0x802e49","r":"0x1c9fbae9e17282fb9ca2c506334902fcba397773f8e73efd578e7255bfba9aab","s":"0x79368e8b0d08ecf918d72ceb1d4d071bb6222c086e42a2c742b623b74b969851","to":"0x4aed348173bbf17dfaeb91598321904c9323d36e","transactionIndex":"0x29","type":"0x2","v":"0x0","value":"0x0","yParity":"0x0"},{"accessList":[],"blockHash":"0x324fbac2aa1241e075c8e33069929f49edb8dcbd0625ff7be55f85cb767a50ba","blockNumber":"0x8ef4f62","chainId":"0xa","from":"0xdb49dc858fea0d474a2e4bf2164a224b672d8118","gas":"0x27ac40","gasPrice":"0x71e","hash":"0xd75e255010f0faaad3a5928425576e73e287129f32afff0d999bacb5954e8cf1","input":"0x83730cc30000000000000000000000000000000000000000000000000000000008ef4f62","maxFeePerGas":"0x5f5e100","maxPriorityFeePerGas":"0x1","nonce":"0x38e46a","r":"0x91dd2ee551d088959245d8c87bddd1153da3a86198bd15f0f2f070b9a18f8ec6","s":"0x7b833de297431c0e1cf58ef96a96da7d399e6d7c28562085b1a1712d769a219e","to":"0x896edf38f53c10a7ddb7d73ee82e2ce8f609b0bb","transactionIndex":"0x2a","type":"0x2","v":"0x1","value":"0x0","yParity":"0x1"}],"transactionsRoot":"0xed2c01a2dcf613260c497a6a8c6ba2751bed275d98a253409588dc6e980767b5","uncles":[],"withdrawals":[],"withdrawalsRoot":"0xdf6e17c433fb637d6db263b3dc3a264b7d0a20bd23cebae7562748c5e3fea841"},"id":
        0}

        '
    headers:
      CF-RAY:
      - 9e819af47fb91ba2-MAD
      Cache-Control:
      - max-age=0, private, must-revalidate
      Connection:
      - keep-alive
      Content-Type:
      - application/json; charset=utf-8
      Date:
      - Mon, 06 Apr 2026 14:50:31 GMT
      Nel:
      - '{"report_to":"cf-nel","success_fraction":0.0,"max_age":604800}'
      Report-To:
      - '{"group":"cf-nel","max_age":604800,"endpoints":[{"url":"https://a.nel.cloudflare.com/report/v4?s=ZFz0KZWEYc36QtJDpVJRlzIPGbPRvrzxihzPh%2BUalQmJ0utcQPBsfsdPaCP6nHWDDdRPGbMEBOq1bRzKxYZoEazCTaOINrgC89O%2Biz%2FBXaNp5jTKHfDIManExw%2BcTPSo6tUEPQ%3D%3D"}]}'
      Server:
      - cloudflare
      alt-svc:
      - h3=":443"; ma=86400
      cf-cache-status:
      - DYNAMIC
      content-length:
      - '57223'
      strict-transport-security:
      - max-age=31536000; includeSubDomains
      vary:
      - accept-encoding
      x-credits-remaining:
      - '94360'
      x-ratelimit-limit:
      - '5'
      x-ratelimit-remaining:
      - '3'
      x-ratelimit-reset:
      - '406'
      x-request-id:
      - d7c69b130490a166f963c75f24073983
    status:
      code: 200
      message: OK
- request:
    body: '{"id": 0, "jsonrpc": "2.0", "method": "eth_getTransactionReceipt", "params":
      ["0xa82527d5cc77fb8a6bb1826621b55e30fb7f3263cec678753ff1974f889cb6dc"]}'
    headers:
      Accept:
      - '*/*'
      Accept-Encoding:
      - gzip, deflate
      Connection:
      - keep-alive
      Content-Length:
      - '148'
      Content-Type:
      - application/json
      User-Agent:
      - rotki/1.42.2.dev193+g3fa0373574
    method: POST
    uri: https://api.blockscout.com/10/json-rpc
  response:
    body:
      string: '{"jsonrpc":"2.0","result": {"blockHash":"0x324fbac2aa1241e075c8e33069929f49edb8dcbd0625ff7be55f85cb767a50ba","blockNumber":"0x8ef4f62","contractAddress":null,"cumulativeGasUsed":"0xd90d18","effectiveGasPrice":"0x18dbd","from":"0x3bae0f9811fb3869267caff8b5a1baf00a352935","gasUsed":"0x3db927","logs":[{"address":"0xf368f535e329c6d08dff0d4b2da961c4e7f3fcaf","blockHash":"0x324fbac2aa1241e075c8e33069929f49edb8dcbd0625ff7be55f85cb767a50ba","blockNumber":"0x8ef4f62","data":"0x0000000000000000000000000000000000000000000000000000000069d2787d0000000000000000000000000000000000000000000000000000000000000000","logIndex":"0x119","removed":false,"topics":["0x1ffd20a1849cae68acad6fab1b7029a8b6a7f6e3bd94c0008d3d4e80530e0040"],"transactionHash":"0xa82527d5cc77fb8a6bb1826621b55e30fb7f3263cec678753ff1974f889cb6dc","transactionIndex":"0x1c"},{"address":"0xf368f535e329c6d08dff0d4b2da961c4e7f3fcaf","blockHash":"0x324fbac2aa1241e075c8e33069929f49edb8dcbd0625ff7be55f85cb767a50ba","blockNumber":"0x8ef4f62","data":"0x00000000000000000000000000000000000000000000000006195c4e4d3f7e9b0000000000000000000000000000000000000000000000000000000000000009000000000000000000000000000000000000000000000000000000000000000a","logIndex":"0x11a","removed":false,"topics":["0x94a8e1916a31bb1e2864bac78a6c85e5de33a2f0fc066dfd3cda6d69f5d3d528","0x0000000000000000000000003bae0f9811fb3869267caff8b5a1baf00a352935","0x0000000000000000000000003bae0f9811fb3869267caff8b5a1baf00a352935"],"transactionHash":"0xa82527d5cc77fb8a6bb1826621b55e30fb7f3263cec678753ff1974f889cb6dc","transactionIndex":"0x1c"},{"address":"0xef4461891dfb3ac8572ccf7c794664a8dd927945","blockHash":"0x324fbac2aa1241e075c8e33069929f49edb8dcbd0625ff7be55f85cb767a50ba","blockNumber":"0x8ef4f62","data":"0x00000000000000000000000000000000000000000000000006195c4e4d3f7e9b","logIndex":"0x11b","removed":false,"topics":["0xddf252ad1be2c89b69c2b068fc378daa952ba7f163c4a11628f55a4df523b3ef","0x000000000000000000000000f368f535e329c6d08dff0d4b2da961c4e7f3fcaf","0x0000000000000000000000003bae0f9811fb3869267caff8b5a1baf00a352935"],"transactionHash":"0xa82527d5cc77fb8a6bb1826621b55e30fb7f3263cec678753ff1974f889cb6dc","transactionIndex":"0x1c"}],"logsBloom":"0x00000000000000000000000000000000000000080000000400000000010000000000080000000000000000000400000001000000000000000000000000000000000040000000000000080008000000000000000000000000000000040000000000000000000000000000000000000004000000000000000000100010000000000000000000000000000000000080000000000000000000000000000000000000000000000000000100000000000000000000010000800004000000008000000000000002000000000000000000000000000000000000000000000000000000000000000000000000000000000000000000000000000000000000000040000000","status":"0x1","to":"0xf368f535e329c6d08dff0d4b2da961c4e7f3fcaf","transactionHash":"0xa82527d5cc77fb8a6bb1826621b55e30fb7f3263cec678753ff1974f889cb6dc","transactionIndex":"0x1c","type":"0x2"},"id":
        0}

        '
    headers:
      CF-RAY:
      - 9e819af89801c127-MAD
      Cache-Control:
      - max-age=0, private, must-revalidate
      Connection:
      - keep-alive
      Content-Type:
      - application/json; charset=utf-8
      Date:
      - Mon, 06 Apr 2026 14:50:31 GMT
      Nel:
      - '{"report_to":"cf-nel","success_fraction":0.0,"max_age":604800}'
      Report-To:
      - '{"group":"cf-nel","max_age":604800,"endpoints":[{"url":"https://a.nel.cloudflare.com/report/v4?s=%2FnjqLrLiDqZI5a3VA9yzM%2BdrQMZMh2dKDT8FNqo3I7RibPdFFZw66E0yYi%2FY3m9xC%2BdsSu2vtDXqrONFogx96PXJA4T1yX7cQIb6gAewml8flXIVsNHwlBnDOi3XqquVuNC20Q%3D%3D"}]}'
      Server:
      - cloudflare
      alt-svc:
      - h3=":443"; ma=86400
      cf-cache-status:
      - DYNAMIC
      content-length:
      - '2903'
      strict-transport-security:
      - max-age=31536000; includeSubDomains
      vary:
      - accept-encoding
      x-credits-remaining:
      - '94340'
      x-ratelimit-limit:
      - '5'
      x-ratelimit-remaining:
      - '4'
      x-ratelimit-reset:
      - '839'
      x-request-id:
      - 5f72d3d2978e97fafb8d6656e1756fa6
    status:
      code: 200
      message: OK
- request:
    body: null
    headers:
      Accept:
      - '*/*'
      Accept-Encoding:
      - gzip, deflate
      Connection:
      - keep-alive
      User-Agent:
      - rotki/1.42.2.dev193+g3fa0373574
    method: GET
    uri: https://api.blockscout.com/10/api/v2/transactions/0xa82527d5cc77fb8a6bb1826621b55e30fb7f3263cec678753ff1974f889cb6dc
  response:
    body:
      string: '{"l1_gas_used":"1600","priority_fee":"404509500000","raw_input":"0x1e83409a0000000000000000000000003bae0f9811fb3869267caff8b5a1baf00a352935","is_pending_update":false,"op_withdrawals":[],"result":"success","hash":"0xa82527d5cc77fb8a6bb1826621b55e30fb7f3263cec678753ff1974f889cb6dc","max_fee_per_gas":"102500","revert_reason":null,"confirmation_duration":[0,2.0e3],"transaction_burnt_fee":"7366117995","type":2,"token_transfers_overflow":false,"confirmations":42974,"position":28,"max_priority_fee_per_gas":"100000","transaction_tag":null,"created_contract":null,"value":"0","l1_fee_scalar":"0","from":{"ens_domain_name":"wolupapat.eth","hash":"0x3bae0F9811fB3869267CaFf8B5a1bAF00a352935","implementations":[{"address_hash":"0xa845C74344Fc9405b1Fcf712f04668979573c1bf","name":null}],"is_contract":true,"is_scam":false,"is_verified":false,"metadata":null,"name":null,"private_tags":[],"proxy_type":"eip7702","public_tags":[],"reputation":"ok","watchlist_names":[]},"gas_used":"4045095","status":"ok","to":{"ens_domain_name":null,"hash":"0xF368F535e329c6d08DFf0d4b2dA961C4e7F3fCAF","implementations":[{"address_hash":"0x98c27ae4C11F67CDE0E3aFDf90fBba01Bf826238","name":"StakingRewardDistributor"}],"is_contract":true,"is_scam":false,"is_verified":true,"metadata":{"tags":[{"meta":{"tooltipUrl":"https://walletconnect.network/"},"name":"WalletConnect:
        Staking Reward Distributor","ordinal":10,"slug":"walletconnect-staking-reward-distributor","tagType":"name"},{"meta":{"tagIcon
        ":"https://blockscout-icons.s3.us-east-1.amazonaws.com/OLI_tag_logo.svg","textColor":"#C163D4","tooltipAttribution":"https://www.openlabelsinitiative.org?utm_source=blockscout","tooltipAttributionIcon":"https://blockscout-icons.s3.us-east-1.amazonaws.com/OLI_tag_logo.svg","tooltipDescription":"Provided
        by OLI"},"name":"Safe Decoder","ordinal":0,"slug":"safe-decoder","tagType":"name"},{"meta":{},"name":"WalletConnect","ordinal":0,"slug":"walletconnect","tagType":"protocol"}]},"name":"TransparentUpgradeableProxy","private_tags":[],"proxy_type":"eip1967","public_tags":[],"reputation":"ok","watchlist_names":[]},"authorization_list":[],"l1_fee":"1796909686","method":"claim","fee":{"type":"actual","value":"413672527681"},"actions":[],"gas_limit":"6171725","gas_price":"101821","decoded_input":{"method_call":"claim(address
        user)","method_id":"1e83409a","parameters":[{"name":"user","type":"address","value":"0x3bae0F9811fB3869267CaFf8B5a1bAF00a352935"}]},"l1_gas_price":"123899086","token_transfers":[{"block_hash":"0x324fbac2aa1241e075c8e33069929f49edb8dcbd0625ff7be55f85cb767a50ba","block_number":149901154,"from":{"ens_domain_name":null,"hash":"0xF368F535e329c6d08DFf0d4b2dA961C4e7F3fCAF","implementations":[{"address_hash":"0x98c27ae4C11F67CDE0E3aFDf90fBba01Bf826238","name":"StakingRewardDistributor"}],"is_contract":true,"is_scam":false,"is_verified":true,"metadata":{"tags":[{"meta":{"tooltipUrl":"https://walletconnect.network/"},"name":"WalletConnect:
        Staking Reward Distributor","ordinal":10,"slug":"walletconnect-staking-reward-distributor","tagType":"name"},{"meta":{"tagIcon
        ":"https://blockscout-icons.s3.us-east-1.amazonaws.com/OLI_tag_logo.svg","textColor":"#C163D4","tooltipAttribution":"https://www.openlabelsinitiative.org?utm_source=blockscout","tooltipAttributionIcon":"https://blockscout-icons.s3.us-east-1.amazonaws.com/OLI_tag_logo.svg","tooltipDescription":"Provided
        by OLI"},"name":"Safe Decoder","ordinal":0,"slug":"safe-decoder","tagType":"name"},{"meta":{},"name":"WalletConnect","ordinal":0,"slug":"walletconnect","tagType":"protocol"}]},"name":"TransparentUpgradeableProxy","private_tags":[],"proxy_type":"eip1967","public_tags":[],"reputation":"ok","watchlist_names":[]},"log_index":283,"method":null,"timestamp":null,"to":{"ens_domain_name":"wolupapat.eth","hash":"0x3bae0F9811fB3869267CaFf8B5a1bAF00a352935","implementations":[{"address_hash":"0xa845C74344Fc9405b1Fcf712f04668979573c1bf","name":null}],"is_contract":true,"is_scam":false,"is_verified":false,"metadata":null,"name":null,"private_tags":[],"proxy_type":"eip7702","public_tags":[],"reputation":"ok","watchlist_names":[]},"token":{"address_hash":"0xeF4461891DfB3AC8572cCf7C794664A8DD927945","circulating_market_cap":"10574843.492031436","decimals":"18","exchange_rate":"0.056778","holders_count":"134613","icon_url":"https://assets.coingecko.com/coins/images/50390/small/wc-token1.png?1727569464","name":"WalletConnect
        Token","reputation":"ok","symbol":"WCT","total_supply":"980958636815693960000000000","type":"ERC-20","volume_24h":"8618156.620799484"},"token_type":"ERC-20","total":{"decimals":"18","value":"439483930018545307"},"transaction_hash":"0xa82527d5cc77fb8a6bb1826621b55e30fb7f3263cec678753ff1974f889cb6dc","type":"token_transfer"}],"base_fee_per_gas":"1821","timestamp":"2026-04-05T14:58:05.000000Z","nonce":1201,"historic_exchange_rate":"2109.27","transaction_types":["contract_call","token_transfer"],"exchange_rate":"2146.39","block_number":149901154,"has_error_in_internal_transactions":false,"da_footprint_gas_scalar":"400"}'
    headers:
      CF-RAY:
      - 9e819af9d945de0a-MAD
      Cache-Control:
      - max-age=0, private, must-revalidate
      Connection:
      - keep-alive
      Content-Type:
      - application/json; charset=utf-8
      Date:
      - Mon, 06 Apr 2026 14:50:31 GMT
      Nel:
      - '{"report_to":"cf-nel","success_fraction":0.0,"max_age":604800}'
      Report-To:
      - '{"group":"cf-nel","max_age":604800,"endpoints":[{"url":"https://a.nel.cloudflare.com/report/v4?s=ahJAjxmSS41E%2BsWDB3fzPr4ffbrdh4fi6BqTdBPu9s7MN8UVRFDtXabspRnqutwHvsW50Al54iyikjkye%2Fq1opCZk23oZZPZ5kMkkFrlh1i9yHQJRgn3EJau3TfeBaVJv9%2FaVw%3D%3D"}]}'
      Server:
      - cloudflare
      alt-svc:
      - h3=":443"; ma=86400
      cf-cache-status:
      - DYNAMIC
      content-length:
      - '5016'
      strict-transport-security:
      - max-age=31536000; includeSubDomains
      vary:
      - accept-encoding
      x-credits-remaining:
      - '94320'
      x-ratelimit-limit:
      - '5'
      x-ratelimit-remaining:
      - '3'
      x-ratelimit-reset:
      - '631'
      x-request-id:
      - 8ce19fd115d0ce9106c7208af8ce3e4c
    status:
      code: 200
      message: OK
- request:
    body: null
    headers:
      Accept:
      - '*/*'
      Accept-Encoding:
      - gzip, deflate
      Connection:
      - keep-alive
      User-Agent:
      - rotki/1.42.2.dev193+g3fa0373574
    method: GET
    uri: https://api.blockscout.com/10/api?action=txlistinternal&module=account&sort=asc&txhash=0xa82527d5cc77fb8a6bb1826621b55e30fb7f3263cec678753ff1974f889cb6dc
  response:
    body:
      string: '{"message":"No internal transactions found","result":[],"status":"0"}'
    headers:
      CF-RAY:
      - 9e819afe1bb30359-MAD
      Cache-Control:
      - max-age=0, private, must-revalidate
      Connection:
      - keep-alive
      Content-Type:
      - application/json; charset=utf-8
      Date:
      - Mon, 06 Apr 2026 14:50:32 GMT
      Nel:
      - '{"report_to":"cf-nel","success_fraction":0.0,"max_age":604800}'
      Report-To:
      - '{"group":"cf-nel","max_age":604800,"endpoints":[{"url":"https://a.nel.cloudflare.com/report/v4?s=an5wcb6FmRX2Rj3vqZNFifjPhux%2FYDNKu40zxiTZG%2B4Hohn9MDAPbsdgUKHTkzC1ARkx0o92ITctvGf8M03DnI6%2BCcFGhWjFjava6CeH4bWTck%2F6ZoJfOLIsVi%2BUz5gk5QnGCA%3D%3D"}]}'
      Server:
      - cloudflare
      alt-svc:
      - h3=":443"; ma=86400
      cf-cache-status:
      - DYNAMIC
      content-length:
      - '69'
      strict-transport-security:
      - max-age=31536000; includeSubDomains
      vary:
      - accept-encoding
      x-credits-remaining:
      - '94300'
      x-ratelimit-limit:
      - '5'
      x-ratelimit-remaining:
      - '4'
      x-ratelimit-reset:
      - '871'
      x-request-id:
      - fef373e5c6b0b647c15b478434af70f6
    status:
      code: 200
      message: OK
version: 1
