interactions:
- request:
    body: '{"jsonrpc": "2.0", "method": "web3_clientVersion", "params": [], "id":
      0}'
    headers:
      Accept:
      - '*/*'
      Accept-Encoding:
      - gzip, deflate
      Connection:
      - keep-alive
      Content-Length:
      - '73'
      Content-Type:
      - application/json
      User-Agent:
      - Web3.py/5.31.3/<class 'web3.providers.rpc.HTTPProvider'>
    method: POST
    uri: https://mainnet.optimism.io/
  response:
    body:
      string: '{"jsonrpc":"2.0","result":"Geth/v1.9.10-stable/linux-amd64/go1.18","id":0}

        '
    headers:
      Alt-Svc:
      - h3=":443"; ma=2592000,h3-29=":443"; ma=2592000
      Content-Length:
      - '75'
      content-type:
      - application/json
      date:
      - Fri, 17 Feb 2023 07:51:19 GMT
      vary:
      - Origin
      via:
      - 1.1 google
      x-proxyd-cache-status:
      - MISS
    status:
      code: 200
      message: OK
- request:
    body: '{"jsonrpc": "2.0", "method": "web3_clientVersion", "params": [], "id":
      0}'
    headers:
      Accept:
      - '*/*'
      Accept-Encoding:
      - gzip, deflate
      Connection:
      - keep-alive
      Content-Length:
      - '73'
      Content-Type:
      - application/json
      User-Agent:
      - Web3.py/5.31.3/<class 'web3.providers.rpc.HTTPProvider'>
    method: POST
    uri: https://opt-mainnet.nodereal.io/v1/e85935b614124789b99aa92930aca9a4
  response:
    body:
      string: '{"jsonrpc":"2.0","id":0,"result":"Geth/v1.9.10-stable/linux-amd64/go1.18"}'
    headers:
      Access-Control-Allow-Credentials:
      - 'true'
      Access-Control-Allow-Headers:
      - '*'
      Access-Control-Allow-Methods:
      - POST, GET, OPTIONS
      Access-Control-Allow-Origin:
      - '*'
      Access-Control-Max-Age:
      - '600'
      Connection:
      - keep-alive
      Content-Length:
      - '74'
      Content-Type:
      - application/json; charset=utf-8
      Date:
      - Fri, 17 Feb 2023 07:51:19 GMT
      Referrer-Policy:
      - origin-when-cross-origin
      Strict-Transport-Security:
      - max-age=31536000; includeSubdomains
      Vary:
      - Accept-Encoding
      X-Content-Type-Options:
      - nosniff
      X-Frame-Options:
      - SAMEORIGIN
      X-Nr-Trace-Id:
      - e808032578830d0f773a51054f80d06f
      X-Xss-Protection:
      - 1; mode=block
    status:
      code: 200
      message: OK
- request:
    body: '{"jsonrpc": "2.0", "method": "web3_clientVersion", "params": [], "id":
      0}'
    headers:
      Accept:
      - '*/*'
      Accept-Encoding:
      - gzip, deflate
      Connection:
      - keep-alive
      Content-Length:
      - '73'
      Content-Type:
      - application/json
      User-Agent:
      - Web3.py/5.31.3/<class 'web3.providers.rpc.HTTPProvider'>
    method: POST
    uri: https://optimism-mainnet.public.blastapi.io/
  response:
    body:
      string: '{"jsonrpc":"2.0","id":0,"result":"Geth/v1.9.10-stable/linux-amd64/go1.18"}'
    headers:
      Access-Control-Allow-Credentials:
      - 'true'
      Access-Control-Allow-Headers:
      - '*'
      Access-Control-Allow-Methods:
      - POST, GET, OPTIONS
      Access-Control-Allow-Origin:
      - '*'
      Access-Control-Max-Age:
      - '600'
      Connection:
      - keep-alive
      Content-Length:
      - '74'
      Content-Type:
      - application/json; charset=utf-8
      Date:
      - Fri, 17 Feb 2023 07:51:19 GMT
      Referrer-Policy:
      - origin-when-cross-origin
      Strict-Transport-Security:
      - max-age=31536000; includeSubdomains
      Vary:
      - Accept-Encoding
      X-Content-Type-Options:
      - nosniff
      X-Frame-Options:
      - SAMEORIGIN
      X-Nr-Trace-Id:
      - e808032578830d0f773a51054f80d06f
      X-Xss-Protection:
      - 1; mode=block
    status:
      code: 200
      message: OK
- request:
    body: '{"jsonrpc": "2.0", "method": "web3_clientVersion", "params": [], "id":
      0}'
    headers:
      Accept:
      - '*/*'
      Accept-Encoding:
      - gzip, deflate
      Connection:
      - keep-alive
      Content-Length:
      - '73'
      Content-Type:
      - application/json
      User-Agent:
      - Web3.py/5.31.3/<class 'web3.providers.rpc.HTTPProvider'>
    method: POST
    uri: https://rpc.ankr.com/optimism
  response:
    body:
      string: '{"jsonrpc":"2.0","id":0,"result":"Geth/v1.9.10-stable/linux-amd64/go1.18"}'
    headers:
      Access-Control-Allow-Credentials:
      - 'true'
      Access-Control-Allow-Headers:
      - '*'
      Access-Control-Allow-Methods:
      - POST, GET, OPTIONS
      Access-Control-Allow-Origin:
      - '*'
      Access-Control-Max-Age:
      - '600'
      Connection:
      - keep-alive
      Content-Length:
      - '74'
      Content-Type:
      - application/json; charset=utf-8
      Date:
      - Fri, 17 Feb 2023 07:51:19 GMT
      Referrer-Policy:
      - origin-when-cross-origin
      Strict-Transport-Security:
      - max-age=31536000; includeSubdomains
      Vary:
      - Accept-Encoding
      X-Content-Type-Options:
      - nosniff
      X-Frame-Options:
      - SAMEORIGIN
      X-Nr-Trace-Id:
      - e808032578830d0f773a51054f80d06f
      X-Xss-Protection:
      - 1; mode=block
    status:
      code: 200
      message: OK
- request:
    body: '{"jsonrpc": "2.0", "method": "net_version", "params": [], "id": 1}'
    headers:
      Accept:
      - '*/*'
      Accept-Encoding:
      - gzip, deflate
      Connection:
      - keep-alive
      Content-Length:
      - '66'
      Content-Type:
      - application/json
      User-Agent:
      - Web3.py/5.31.3/<class 'web3.providers.rpc.HTTPProvider'>
    method: POST
    uri: https://mainnet.optimism.io/
  response:
    body:
      string: '{"jsonrpc":"2.0","result":"10","id":1}

        '
    headers:
      Alt-Svc:
      - h3=":443"; ma=2592000,h3-29=":443"; ma=2592000
      Content-Length:
      - '39'
      content-type:
      - application/json
      date:
      - Fri, 17 Feb 2023 07:51:19 GMT
      vary:
      - Origin
      via:
      - 1.1 google
      x-proxyd-cache-status:
      - MISS
    status:
      code: 200
      message: OK
- request:
    body: '{"jsonrpc": "2.0", "method": "net_version", "params": [], "id": 1}'
    headers:
      Accept:
      - '*/*'
      Accept-Encoding:
      - gzip, deflate
      Connection:
      - keep-alive
      Content-Length:
      - '66'
      Content-Type:
      - application/json
      User-Agent:
      - Web3.py/5.31.3/<class 'web3.providers.rpc.HTTPProvider'>
    method: POST
    uri: https://opt-mainnet.nodereal.io/v1/e85935b614124789b99aa92930aca9a4
  response:
    body:
      string: '{"jsonrpc":"2.0","id":1,"result":"10"}'
    headers:
      Access-Control-Allow-Credentials:
      - 'true'
      Access-Control-Allow-Headers:
      - '*'
      Access-Control-Allow-Methods:
      - POST, GET, OPTIONS
      Access-Control-Allow-Origin:
      - '*'
      Access-Control-Max-Age:
      - '600'
      Connection:
      - keep-alive
      Content-Length:
      - '38'
      Content-Type:
      - application/json; charset=utf-8
      Date:
      - Fri, 17 Feb 2023 07:51:19 GMT
      Referrer-Policy:
      - origin-when-cross-origin
      Strict-Transport-Security:
      - max-age=31536000; includeSubdomains
      Vary:
      - Accept-Encoding
      X-Content-Type-Options:
      - nosniff
      X-Frame-Options:
      - SAMEORIGIN
      X-Nr-Trace-Id:
      - 2bbb7619f1ba939c2edb9e914551dbc9
      X-Xss-Protection:
      - 1; mode=block
    status:
      code: 200
      message: OK
- request:
    body: '{"jsonrpc": "2.0", "method": "eth_blockNumber", "params": [], "id": 2}'
    headers:
      Accept:
      - '*/*'
      Accept-Encoding:
      - gzip, deflate
      Connection:
      - keep-alive
      Content-Length:
      - '70'
      Content-Type:
      - application/json
      User-Agent:
      - Web3.py/5.31.3/<class 'web3.providers.rpc.HTTPProvider'>
    method: POST
    uri: https://opt-mainnet.nodereal.io/v1/e85935b614124789b99aa92930aca9a4
  response:
    body:
      string: '{"jsonrpc":"2.0","id":2,"result":"0x4772e01"}'
    headers:
      Access-Control-Allow-Credentials:
      - 'true'
      Access-Control-Allow-Headers:
      - '*'
      Access-Control-Allow-Methods:
      - POST, GET, OPTIONS
      Access-Control-Allow-Origin:
      - '*'
      Access-Control-Max-Age:
      - '600'
      Connection:
      - keep-alive
      Content-Length:
      - '45'
      Content-Type:
      - application/json; charset=utf-8
      Date:
      - Fri, 17 Feb 2023 07:51:19 GMT
      Referrer-Policy:
      - origin-when-cross-origin
      Strict-Transport-Security:
      - max-age=31536000; includeSubdomains
      Vary:
      - Accept-Encoding
      X-Content-Type-Options:
      - nosniff
      X-Frame-Options:
      - SAMEORIGIN
      X-Nr-Trace-Id:
      - 58cb53f5cca646198ebd3a517b1ac552
      X-Xss-Protection:
      - 1; mode=block
    status:
      code: 200
      message: OK
- request:
    body: '{"jsonrpc": "2.0", "method": "net_version", "params": [], "id": 1}'
    headers:
      Accept:
      - '*/*'
      Accept-Encoding:
      - gzip, deflate
      Connection:
      - keep-alive
      Content-Length:
      - '66'
      Content-Type:
      - application/json
      User-Agent:
      - Web3.py/5.31.3/<class 'web3.providers.rpc.HTTPProvider'>
    method: POST
    uri: https://rpc.ankr.com/optimism
  response:
    body:
      string: '{"jsonrpc":"2.0","id":1,"result":"10"}'
    headers:
      Access-Control-Allow-Headers:
      - Content-Type,Authorization
      Access-Control-Allow-Methods:
      - GET,POST,DELETE,OPTIONS
      Access-Control-Allow-Origin:
      - '*'
      Access-Control-Max-Age:
      - '86400'
      CF-Cache-Status:
      - DYNAMIC
      CF-RAY:
      - 79acefec0a302405-LHR
      Cache-Control:
      - public, max-age=2
      Connection:
      - keep-alive
      Content-Length:
      - '38'
      Content-Type:
      - application/json
      Date:
      - Fri, 17 Feb 2023 07:51:19 GMT
      Server:
      - cloudflare
      Vary:
      - Accept-Encoding
      x-multirpc-response-type:
      - '1'
    status:
      code: 200
      message: OK
- request:
    body: '{"jsonrpc": "2.0", "method": "eth_blockNumber", "params": [], "id": 2}'
    headers:
      Accept:
      - '*/*'
      Accept-Encoding:
      - gzip, deflate
      Connection:
      - keep-alive
      Content-Length:
      - '70'
      Content-Type:
      - application/json
      User-Agent:
      - Web3.py/5.31.3/<class 'web3.providers.rpc.HTTPProvider'>
    method: POST
    uri: https://mainnet.optimism.io/
  response:
    body:
      string: '{"jsonrpc":"2.0","result":"0x4772e01","id":2}

        '
    headers:
      Alt-Svc:
      - h3=":443"; ma=2592000,h3-29=":443"; ma=2592000
      Content-Length:
      - '46'
      content-type:
      - application/json
      date:
      - Fri, 17 Feb 2023 07:51:20 GMT
      vary:
      - Origin
      via:
      - 1.1 google
      x-proxyd-cache-status:
      - MISS
    status:
      code: 200
      message: OK
- request:
    body: '{"jsonrpc": "2.0", "method": "eth_blockNumber", "params": [], "id": 2}'
    headers:
      Accept:
      - '*/*'
      Accept-Encoding:
      - gzip, deflate
      Connection:
      - keep-alive
      Content-Length:
      - '70'
      Content-Type:
      - application/json
      User-Agent:
      - Web3.py/5.31.3/<class 'web3.providers.rpc.HTTPProvider'>
    method: POST
    uri: https://rpc.ankr.com/optimism
  response:
    body:
      string: '{"jsonrpc":"2.0","id":2,"result":"0x4772df8"}'
    headers:
      Access-Control-Allow-Headers:
      - Content-Type,Authorization
      Access-Control-Allow-Methods:
      - GET,POST,DELETE,OPTIONS
      Access-Control-Allow-Origin:
      - '*'
      Access-Control-Max-Age:
      - '86400'
      CF-Cache-Status:
      - DYNAMIC
      CF-RAY:
      - 79acefee5d482405-LHR
      Cache-Control:
      - public, max-age=2
      Connection:
      - keep-alive
      Content-Length:
      - '45'
      Content-Type:
      - application/json
      Date:
      - Fri, 17 Feb 2023 07:51:20 GMT
      Server:
      - cloudflare
      Vary:
      - Accept-Encoding
      x-multirpc-response-type:
      - '1'
    status:
      code: 200
      message: OK
- request:
    body: null
    headers:
      Accept:
      - '*/*'
      Accept-Encoding:
      - gzip, deflate
      Connection:
      - keep-alive
      User-Agent:
      - rotki/1.27.1.dev44+ga1a43b699.d20230209
    method: GET
    uri: https://api-optimistic.etherscan.io/api?action=eth_blockNumber&module=proxy
  response:
    body:
      string: '{"jsonrpc":"2.0","id":83,"result":"0x4772df0"}

        '
    headers:
      Access-Control-Allow-Headers:
      - Content-Type
      Access-Control-Allow-Methods:
      - GET, POST, OPTIONS
      Access-Control-Allow-Origin:
      - '*'
      CF-Cache-Status:
      - DYNAMIC
      CF-RAY:
      - 79aceff0fa5e889b-LHR
      Cache-Control:
      - private
      Connection:
      - keep-alive
      Content-Type:
      - application/json; charset=utf-8
      Date:
      - Fri, 17 Feb 2023 07:51:20 GMT
      Server:
      - cloudflare
      Vary:
      - Accept-Encoding
      X-Frame-Options:
      - SAMEORIGIN
      alt-svc:
      - h3=":443"; ma=86400, h3-29=":443"; ma=86400
      content-length:
      - '47'
    status:
      code: 200
      message: OK
- request:
    body: '{"jsonrpc": "2.0", "method": "eth_getBalance", "params": ["0x76a05Df20bFEF5EcE3eB16afF9cb10134199A921",
      "0x12110"], "id": 3}'
    headers:
      Accept:
      - '*/*'
      Accept-Encoding:
      - gzip, deflate
      Connection:
      - keep-alive
      Content-Length:
      - '124'
      Content-Type:
      - application/json
      User-Agent:
      - Web3.py/5.31.3/<class 'web3.providers.rpc.HTTPProvider'>
    method: POST
    uri: https://opt-mainnet.nodereal.io/v1/e85935b614124789b99aa92930aca9a4
  response:
    body:
      string: '{"jsonrpc":"2.0","id":3,"error":{"code":-32000,"message":"missing trie
        node abc634243dc49e462efe942923f54d3fdf7b9564d8bfe4a4993885a54ae20832 (path
        )"}}'
    headers:
      Access-Control-Allow-Credentials:
      - 'true'
      Access-Control-Allow-Headers:
      - '*'
      Access-Control-Allow-Methods:
      - POST, GET, OPTIONS
      Access-Control-Allow-Origin:
      - '*'
      Access-Control-Max-Age:
      - '600'
      Connection:
      - keep-alive
      Content-Length:
      - '151'
      Content-Type:
      - application/json; charset=utf-8
      Date:
      - Fri, 17 Feb 2023 07:51:20 GMT
      Referrer-Policy:
      - origin-when-cross-origin
      Strict-Transport-Security:
      - max-age=31536000; includeSubdomains
      Vary:
      - Accept-Encoding
      X-Content-Type-Options:
      - nosniff
      X-Frame-Options:
      - SAMEORIGIN
      X-Nr-Trace-Id:
      - 0e3ed704be92f97ae10be0165f6fc6eb
      X-Xss-Protection:
      - 1; mode=block
    status:
      code: 200
      message: OK
- request:
    body: '{"jsonrpc": "2.0", "method": "eth_getBalance", "params": ["0x76a05Df20bFEF5EcE3eB16afF9cb10134199A921",
      "0x12110"], "id": 3}'
    headers:
      Accept:
      - '*/*'
      Accept-Encoding:
      - gzip, deflate
      Connection:
      - keep-alive
      Content-Length:
      - '124'
      Content-Type:
      - application/json
      User-Agent:
      - Web3.py/5.31.3/<class 'web3.providers.rpc.HTTPProvider'>
    method: POST
    uri: https://mainnet.optimism.io/
  response:
    body:
      string: '{"jsonrpc":"2.0","result":"0xb1a2bc2ec50000","id":3}

        '
    headers:
      Alt-Svc:
      - h3=":443"; ma=2592000,h3-29=":443"; ma=2592000
      Content-Length:
      - '53'
      content-type:
      - application/json
      date:
      - Fri, 17 Feb 2023 07:51:21 GMT
      vary:
      - Origin
      via:
      - 1.1 google
      x-proxyd-cache-status:
      - MISS
    status:
      code: 200
      message: OK
- request:
    body: '{"jsonrpc": "2.0", "method": "eth_getTransactionByHash", "params": ["0x5e77a04531c7c107af1882d76cbff9486d0a9aa53701c30888509d4f5f2b003a"],
      "id": 4}'
    headers:
      Accept:
      - '*/*'
      Accept-Encoding:
      - gzip, deflate
      Connection:
      - keep-alive
      Content-Length:
      - '147'
      Content-Type:
      - application/json
      User-Agent:
      - Web3.py/5.31.3/<class 'web3.providers.rpc.HTTPProvider'>
    method: POST
    uri: https://opt-mainnet.nodereal.io/v1/e85935b614124789b99aa92930aca9a4
  response:
    body:
      string: '{"jsonrpc":"2.0","id":4,"result":{"blockHash":"0xbee7192e575af30420cae0c7776304ac196077ee72b048970549e4f08e875453","blockNumber":"0x1","from":"0x70b17c0fe982ab4a7ac17a4c25485643151a1f2d","gas":"0x7a120","gasPrice":"0x1","hash":"0x5e77a04531c7c107af1882d76cbff9486d0a9aa53701c30888509d4f5f2b003a","input":"0x202ee0ed000000000000000000000000000000000000000000000000000000000001421800000000000000000000000000000000000000000000000000000000d0e3ebf0","nonce":"0x28972","to":"0x8ce8c13d816fe6daf12d6fd9e4952e1fc88850af","transactionIndex":"0x0","value":"0x0","v":"0x38","r":"0xc878d22e771004beb73e7a4268fd4f447735812b94b217f6807412efcec90d61","s":"0x3588018735fb361c49e5de54b266b8b157c1ba3d6ee08e3bcbdee7cd725c16e8","queueOrigin":"sequencer","l1TxOrigin":null,"l1BlockNumber":"0xcf7a45","l1Timestamp":"0x618d8837","index":"0x0","queueIndex":null,"rawTransaction":"0xf8a883028972018307a120948ce8c13d816fe6daf12d6fd9e4952e1fc88850af80b844202ee0ed000000000000000000000000000000000000000000000000000000000001421800000000000000000000000000000000000000000000000000000000d0e3ebf038a0c878d22e771004beb73e7a4268fd4f447735812b94b217f6807412efcec90d61a03588018735fb361c49e5de54b266b8b157c1ba3d6ee08e3bcbdee7cd725c16e8"}}'
    headers:
      Access-Control-Allow-Credentials:
      - 'true'
      Access-Control-Allow-Headers:
      - '*'
      Access-Control-Allow-Methods:
      - POST, GET, OPTIONS
      Access-Control-Allow-Origin:
      - '*'
      Access-Control-Max-Age:
      - '600'
      Connection:
      - keep-alive
      Content-Type:
      - application/json; charset=utf-8
      Date:
      - Fri, 17 Feb 2023 07:51:21 GMT
      Referrer-Policy:
      - origin-when-cross-origin
      Strict-Transport-Security:
      - max-age=31536000; includeSubdomains
      Transfer-Encoding:
      - chunked
      Vary:
      - Accept-Encoding
      X-Content-Type-Options:
      - nosniff
      X-Frame-Options:
      - SAMEORIGIN
      X-Nr-Trace-Id:
      - ae333fbe977cfb8745e85424d0ae734c
      X-Xss-Protection:
      - 1; mode=block
      content-length:
      - '1202'
    status:
      code: 200
      message: OK
- request:
    body: '{"jsonrpc": "2.0", "method": "eth_getTransactionByHash", "params": ["0x5e77a04531c7c107af1882d76cbff9486d0a9aa53701c30888509d4f5f2b003a"],
      "id": 4}'
    headers:
      Accept:
      - '*/*'
      Accept-Encoding:
      - gzip, deflate
      Connection:
      - keep-alive
      Content-Length:
      - '147'
      Content-Type:
      - application/json
      User-Agent:
      - Web3.py/5.31.3/<class 'web3.providers.rpc.HTTPProvider'>
    method: POST
    uri: https://mainnet.optimism.io/
  response:
    body:
      string: '{"jsonrpc":"2.0","result":{"blockHash":"0xbee7192e575af30420cae0c7776304ac196077ee72b048970549e4f08e875453","blockNumber":"0x1","from":"0x70b17c0fe982ab4a7ac17a4c25485643151a1f2d","gas":"0x7a120","gasPrice":"0x1","hash":"0x5e77a04531c7c107af1882d76cbff9486d0a9aa53701c30888509d4f5f2b003a","index":"0x0","input":"0x202ee0ed000000000000000000000000000000000000000000000000000000000001421800000000000000000000000000000000000000000000000000000000d0e3ebf0","l1BlockNumber":"0xcf7a45","l1Timestamp":"0x618d8837","nonce":"0x28972","queueOrigin":"sequencer","r":"0xc878d22e771004beb73e7a4268fd4f447735812b94b217f6807412efcec90d61","rawTransaction":"0xf8a883028972018307a120948ce8c13d816fe6daf12d6fd9e4952e1fc88850af80b844202ee0ed000000000000000000000000000000000000000000000000000000000001421800000000000000000000000000000000000000000000000000000000d0e3ebf038a0c878d22e771004beb73e7a4268fd4f447735812b94b217f6807412efcec90d61a03588018735fb361c49e5de54b266b8b157c1ba3d6ee08e3bcbdee7cd725c16e8","s":"0x3588018735fb361c49e5de54b266b8b157c1ba3d6ee08e3bcbdee7cd725c16e8","to":"0x8ce8c13d816fe6daf12d6fd9e4952e1fc88850af","transactionIndex":"0x0","v":"0x38","value":"0x0"},"id":4}

        '
    headers:
      Alt-Svc:
      - h3=":443"; ma=2592000,h3-29=":443"; ma=2592000
      Content-Length:
      - '1167'
      content-type:
      - application/json
      date:
      - Fri, 17 Feb 2023 07:51:21 GMT
      vary:
      - Origin
      via:
      - 1.1 google
      x-proxyd-cache-status:
      - MISS
    status:
      code: 200
      message: OK
- request:
    body: '{"jsonrpc": "2.0", "method": "net_version", "params": [], "id": 1}'
    headers:
      Accept:
      - '*/*'
      Accept-Encoding:
      - gzip, deflate
      Connection:
      - keep-alive
      Content-Length:
      - '66'
      Content-Type:
      - application/json
      User-Agent:
      - Web3.py/5.31.3/<class 'web3.providers.rpc.HTTPProvider'>
    method: POST
    uri: https://optimism-mainnet.public.blastapi.io/
  response:
    body:
      string: '{"jsonrpc":"2.0","id":1,"result":"10"}

        '
    headers:
      CF-Cache-Status:
      - DYNAMIC
      CF-RAY:
      - 79aceff87941774a-LHR
      Connection:
      - keep-alive
      Content-Type:
      - application/json
      Date:
      - Fri, 17 Feb 2023 07:51:21 GMT
      NEL:
      - '{"success_fraction":0,"report_to":"cf-nel","max_age":604800}'
      Report-To:
      - '{"endpoints":[{"url":"https:\/\/a.nel.cloudflare.com\/report\/v3?s=R%2B%2B4KpgZ%2FJ%2BJvKuk%2BT%2FjYJuWFSD8YFEOFKCyC3R2W%2FqmjpuSK3kgaguy7yN9hiniQcmnDyUIiTDQ99C7mo2MrbL9vwWAU1N%2BKbX%2B9%2FVarwy6Ipi0h3slMWUkfG7nya8YU9EvvVdIocwrbKMgR2y82kAAvw1S"}],"group":"cf-nel","max_age":604800}'
      Server:
      - cloudflare
      Vary:
      - Origin
      access-control-allow-credentials:
      - 'true'
      access-control-allow-headers:
      - DNT,Keep-Alive,User-Agent,X-Requested-With,If-Modified-Since,Cache-Control,Content-Type,Range,Authorization
      access-control-allow-methods:
      - GET, PUT, POST, DELETE, PATCH, OPTIONS
      access-control-allow-origin:
      - '*'
      access-control-max-age:
      - '1728000'
      alt-svc:
      - h3=":443"; ma=86400, h3-29=":443"; ma=86400
      content-length:
      - '39'
      strict-transport-security:
      - max-age=2592000
    status:
      code: 200
      message: OK
- request:
    body: '{"jsonrpc": "2.0", "method": "eth_getBalance", "params": ["0x76a05Df20bFEF5EcE3eB16afF9cb10134199A921",
      "0x12110"], "id": 3}'
    headers:
      Accept:
      - '*/*'
      Accept-Encoding:
      - gzip, deflate
      Connection:
      - keep-alive
      Content-Length:
      - '124'
      Content-Type:
      - application/json
      User-Agent:
      - Web3.py/5.31.3/<class 'web3.providers.rpc.HTTPProvider'>
    method: POST
    uri: https://rpc.ankr.com/optimism
  response:
    body:
      string: '{"jsonrpc":"2.0","id":3,"error":{"code":-32000,"message":"missing trie
        node abc634243dc49e462efe942923f54d3fdf7b9564d8bfe4a4993885a54ae20832 (path
        )"}}'
    headers:
      Access-Control-Allow-Headers:
      - Content-Type,Authorization
      Access-Control-Allow-Methods:
      - GET,POST,DELETE,OPTIONS
      Access-Control-Allow-Origin:
      - '*'
      Access-Control-Max-Age:
      - '86400'
      CF-Cache-Status:
      - DYNAMIC
      CF-RAY:
      - 79aceff77fe42405-LHR
      Cache-Control:
      - public, max-age=60
      Connection:
      - keep-alive
      Content-Type:
      - application/json
      Date:
      - Fri, 17 Feb 2023 07:51:22 GMT
      Server:
      - cloudflare
      Transfer-Encoding:
      - chunked
      Vary:
      - Accept-Encoding
      content-length:
      - '151'
      x-multirpc-response-type:
      - '1'
    status:
      code: 200
      message: OK
- request:
    body: '{"jsonrpc": "2.0", "method": "eth_blockNumber", "params": [], "id": 2}'
    headers:
      Accept:
      - '*/*'
      Accept-Encoding:
      - gzip, deflate
      Connection:
      - keep-alive
      Content-Length:
      - '70'
      Content-Type:
      - application/json
      User-Agent:
      - Web3.py/5.31.3/<class 'web3.providers.rpc.HTTPProvider'>
    method: POST
    uri: https://optimism-mainnet.public.blastapi.io/
  response:
    body:
      string: '{"jsonrpc":"2.0","id":2,"result":"0x4772dfa"}

        '
    headers:
      CF-Cache-Status:
      - DYNAMIC
      CF-RAY:
      - 79aceffb7d16774a-LHR
      Connection:
      - keep-alive
      Content-Type:
      - application/json
      Date:
      - Fri, 17 Feb 2023 07:51:22 GMT
      NEL:
      - '{"success_fraction":0,"report_to":"cf-nel","max_age":604800}'
      Report-To:
      - '{"endpoints":[{"url":"https:\/\/a.nel.cloudflare.com\/report\/v3?s=WQAblLrjwxbnR3leF273xwyd5aeWrbOFnypu6ghvkQVrvd002OpVyFr5%2Fh8iTsrUv%2FJRmoSAb8ntN1WGyz%2FywfQsKocInd1sNR0ldSvi29Ibit8rz1X%2FztSTwULUJJ9ivhZ11pM4LE6yXtNj%2F9dBMFxwLise"}],"group":"cf-nel","max_age":604800}'
      Server:
      - cloudflare
      Vary:
      - Origin
      access-control-allow-credentials:
      - 'true'
      access-control-allow-headers:
      - DNT,Keep-Alive,User-Agent,X-Requested-With,If-Modified-Since,Cache-Control,Content-Type,Range,Authorization
      access-control-allow-methods:
      - GET, PUT, POST, DELETE, PATCH, OPTIONS
      access-control-allow-origin:
      - '*'
      access-control-max-age:
      - '1728000'
      alt-svc:
      - h3=":443"; ma=86400, h3-29=":443"; ma=86400
      content-length:
      - '46'
      strict-transport-security:
      - max-age=2592000
    status:
      code: 200
      message: OK
- request:
    body: '{"jsonrpc": "2.0", "method": "eth_getTransactionByHash", "params": ["0x5e77a04531c7c107af1882d76cbff9486d0a9aa53701c30888509d4f5f2b003a"],
      "id": 4}'
    headers:
      Accept:
      - '*/*'
      Accept-Encoding:
      - gzip, deflate
      Connection:
      - keep-alive
      Content-Length:
      - '147'
      Content-Type:
      - application/json
      User-Agent:
      - Web3.py/5.31.3/<class 'web3.providers.rpc.HTTPProvider'>
    method: POST
    uri: https://rpc.ankr.com/optimism
  response:
    body:
      string: '{"jsonrpc":"2.0","id":4,"result":{"blockHash":"0xbee7192e575af30420cae0c7776304ac196077ee72b048970549e4f08e875453","blockNumber":"0x1","from":"0x70b17c0fe982ab4a7ac17a4c25485643151a1f2d","gas":"0x7a120","gasPrice":"0x1","hash":"0x5e77a04531c7c107af1882d76cbff9486d0a9aa53701c30888509d4f5f2b003a","input":"0x202ee0ed000000000000000000000000000000000000000000000000000000000001421800000000000000000000000000000000000000000000000000000000d0e3ebf0","nonce":"0x28972","to":"0x8ce8c13d816fe6daf12d6fd9e4952e1fc88850af","transactionIndex":"0x0","value":"0x0","v":"0x38","r":"0xc878d22e771004beb73e7a4268fd4f447735812b94b217f6807412efcec90d61","s":"0x3588018735fb361c49e5de54b266b8b157c1ba3d6ee08e3bcbdee7cd725c16e8","queueOrigin":"sequencer","l1TxOrigin":null,"l1BlockNumber":"0xcf7a45","l1Timestamp":"0x618d8837","index":"0x0","queueIndex":null,"rawTransaction":"0xf8a883028972018307a120948ce8c13d816fe6daf12d6fd9e4952e1fc88850af80b844202ee0ed000000000000000000000000000000000000000000000000000000000001421800000000000000000000000000000000000000000000000000000000d0e3ebf038a0c878d22e771004beb73e7a4268fd4f447735812b94b217f6807412efcec90d61a03588018735fb361c49e5de54b266b8b157c1ba3d6ee08e3bcbdee7cd725c16e8"}}'
    headers:
      Access-Control-Allow-Headers:
      - Content-Type,Authorization
      Access-Control-Allow-Methods:
      - GET,POST,DELETE,OPTIONS
      Access-Control-Allow-Origin:
      - '*'
      Access-Control-Max-Age:
      - '86400'
      CF-Cache-Status:
      - DYNAMIC
      CF-RAY:
      - 79aceffbdcd12405-LHR
      Cache-Control:
      - public, max-age=2
      Connection:
      - keep-alive
      Content-Type:
      - application/json
      Date:
      - Fri, 17 Feb 2023 07:51:22 GMT
      Server:
      - cloudflare
      Transfer-Encoding:
      - chunked
      Vary:
      - Accept-Encoding
      content-length:
      - '1202'
      x-multirpc-response-type:
      - '1'
    status:
      code: 200
      message: OK
- request:
    body: null
    headers:
      Accept:
      - '*/*'
      Accept-Encoding:
      - gzip, deflate
      Connection:
      - keep-alive
      User-Agent:
      - rotki/1.27.1.dev44+ga1a43b699.d20230209
    method: GET
    uri: https://api-optimistic.etherscan.io/api?action=eth_blockNumber&module=proxy
  response:
    body:
      string: '{"jsonrpc":"2.0","id":83,"result":"0x4772e06"}

        '
    headers:
      Access-Control-Allow-Headers:
      - Content-Type
      Access-Control-Allow-Methods:
      - GET, POST, OPTIONS
      Access-Control-Allow-Origin:
      - '*'
      CF-Cache-Status:
      - DYNAMIC
      CF-RAY:
      - 79aceffd9a2e889b-LHR
      Cache-Control:
      - private
      Connection:
      - keep-alive
      Content-Type:
      - application/json; charset=utf-8
      Date:
      - Fri, 17 Feb 2023 07:51:22 GMT
      Server:
      - cloudflare
      Vary:
      - Accept-Encoding
      X-Frame-Options:
      - SAMEORIGIN
      alt-svc:
      - h3=":443"; ma=86400, h3-29=":443"; ma=86400
      content-length:
      - '47'
    status:
      code: 200
      message: OK
- request:
    body: '{"jsonrpc": "2.0", "method": "eth_getBalance", "params": ["0x76a05Df20bFEF5EcE3eB16afF9cb10134199A921",
      "0x12110"], "id": 3}'
    headers:
      Accept:
      - '*/*'
      Accept-Encoding:
      - gzip, deflate
      Connection:
      - keep-alive
      Content-Length:
      - '124'
      Content-Type:
      - application/json
      User-Agent:
      - Web3.py/5.31.3/<class 'web3.providers.rpc.HTTPProvider'>
    method: POST
    uri: https://optimism-mainnet.public.blastapi.io/
  response:
    body:
      string: '{"jsonrpc":"2.0","id":3,"result":"0xb1a2bc2ec50000"}

        '
    headers:
      CF-Cache-Status:
      - DYNAMIC
      CF-RAY:
      - 79acefff497d774a-LHR
      Connection:
      - keep-alive
      Content-Type:
      - application/json
      Date:
      - Fri, 17 Feb 2023 07:51:22 GMT
      NEL:
      - '{"success_fraction":0,"report_to":"cf-nel","max_age":604800}'
      Report-To:
      - '{"endpoints":[{"url":"https:\/\/a.nel.cloudflare.com\/report\/v3?s=0UJ%2BXeW4mconUDRvFtnEd28cjqpKF9OOCfQGYX6UV4M3R%2BAG1vAXVDfqvT6zadGIMppYA6JXm55EaMrsd%2FjRrtlGaNn6R%2FMDM%2BmpWN0vvSlYd8J1%2FOnxdV6uPwgdNUjhmclknrznu7ZB9Y3ffumqiH4divO4"}],"group":"cf-nel","max_age":604800}'
      Server:
      - cloudflare
      Vary:
      - Origin
      access-control-allow-credentials:
      - 'true'
      access-control-allow-headers:
      - DNT,Keep-Alive,User-Agent,X-Requested-With,If-Modified-Since,Cache-Control,Content-Type,Range,Authorization
      access-control-allow-methods:
      - GET, PUT, POST, DELETE, PATCH, OPTIONS
      access-control-allow-origin:
      - '*'
      access-control-max-age:
      - '1728000'
      alt-svc:
      - h3=":443"; ma=86400, h3-29=":443"; ma=86400
      content-length:
      - '53'
      strict-transport-security:
      - max-age=2592000
    status:
      code: 200
      message: OK
- request:
    body: '{"jsonrpc": "2.0", "method": "eth_getTransactionByHash", "params": ["0x5e77a04531c7c107af1882d76cbff9486d0a9aa53701c30888509d4f5f2b003a"],
      "id": 4}'
    headers:
      Accept:
      - '*/*'
      Accept-Encoding:
      - gzip, deflate
      Connection:
      - keep-alive
      Content-Length:
      - '147'
      Content-Type:
      - application/json
      User-Agent:
      - Web3.py/5.31.3/<class 'web3.providers.rpc.HTTPProvider'>
    method: POST
    uri: https://optimism-mainnet.public.blastapi.io/
  response:
    body:
      string: '{"jsonrpc":"2.0","id":4,"result":{"blockHash":"0xbee7192e575af30420cae0c7776304ac196077ee72b048970549e4f08e875453","blockNumber":"0x1","from":"0x70b17c0fe982ab4a7ac17a4c25485643151a1f2d","gas":"0x7a120","gasPrice":"0x1","hash":"0x5e77a04531c7c107af1882d76cbff9486d0a9aa53701c30888509d4f5f2b003a","input":"0x202ee0ed000000000000000000000000000000000000000000000000000000000001421800000000000000000000000000000000000000000000000000000000d0e3ebf0","nonce":"0x28972","to":"0x8ce8c13d816fe6daf12d6fd9e4952e1fc88850af","transactionIndex":"0x0","value":"0x0","v":"0x38","r":"0xc878d22e771004beb73e7a4268fd4f447735812b94b217f6807412efcec90d61","s":"0x3588018735fb361c49e5de54b266b8b157c1ba3d6ee08e3bcbdee7cd725c16e8","queueOrigin":"sequencer","l1TxOrigin":null,"l1BlockNumber":"0xcf7a45","l1Timestamp":"0x618d8837","index":"0x0","queueIndex":null,"rawTransaction":"0xf8a883028972018307a120948ce8c13d816fe6daf12d6fd9e4952e1fc88850af80b844202ee0ed000000000000000000000000000000000000000000000000000000000001421800000000000000000000000000000000000000000000000000000000d0e3ebf038a0c878d22e771004beb73e7a4268fd4f447735812b94b217f6807412efcec90d61a03588018735fb361c49e5de54b266b8b157c1ba3d6ee08e3bcbdee7cd725c16e8"}}

        '
    headers:
      CF-Cache-Status:
      - DYNAMIC
      CF-RAY:
      - 79acf0011c18774a-LHR
      Connection:
      - keep-alive
      Content-Type:
      - application/json
      Date:
      - Fri, 17 Feb 2023 07:51:23 GMT
      NEL:
      - '{"success_fraction":0,"report_to":"cf-nel","max_age":604800}'
      Report-To:
      - '{"endpoints":[{"url":"https:\/\/a.nel.cloudflare.com\/report\/v3?s=cA0ci96wxJ9Rd6ne%2FOnpu1efeaMNNiEbalagmNINwNMgvBxBrL%2BZMa5KX%2B%2FyYzg1wGgTjmWWxOTt1nMNC9UoC1QX13x6Y2Tq7b0PAFy6%2BmW6gO9LGrvg%2BSSMbEJKeBfY3gsseAks7SxHL700W2pQG13Hq5EG"}],"group":"cf-nel","max_age":604800}'
      Server:
      - cloudflare
      Vary:
      - Origin
      access-control-allow-credentials:
      - 'true'
      access-control-allow-headers:
      - DNT,Keep-Alive,User-Agent,X-Requested-With,If-Modified-Since,Cache-Control,Content-Type,Range,Authorization
      access-control-allow-methods:
      - GET, PUT, POST, DELETE, PATCH, OPTIONS
      access-control-allow-origin:
      - '*'
      access-control-max-age:
      - '1728000'
      alt-svc:
      - h3=":443"; ma=86400, h3-29=":443"; ma=86400
      content-length:
      - '1203'
      strict-transport-security:
      - max-age=2592000
    status:
      code: 200
      message: OK
version: 1