interactions:
- request:
    body: null
    headers:
      Accept:
      - '*/*'
      Accept-Encoding:
      - gzip, deflate
      Connection:
      - keep-alive
      User-Agent:
      - rotki/1.27.2.dev11+ge6773788b.d20230228
    method: GET
    uri: https://api-optimistic.etherscan.io/api?module=proxy&action=eth_getTransactionByHash&txhash=0x5798c5d91658e6a3722f8507ca25ac9b21d7df555d364f5cd1f5578c92329412&apikey=IK3GCCMPQXTRIEGBAXQ9DUFWIUR524K3MW
  response:
    body:
      string: '{"jsonrpc":"2.0","id":1,"result":{"blockHash":"0x2e4dbefb540f7d58b45fadcd65b378ec69a881e68f7267dc1811c9b48e225ca1","blockNumber":"0x3df2352","from":"0x261fd12af4c4babb30f44c1b0fe20a718a39b04c","gas":"0x1e654","gasPrice":"0xf4240","hash":"0x5798c5d91658e6a3722f8507ca25ac9b21d7df555d364f5cd1f5578c92329412","input":"0x32b7006d0000000000000000000000007f5c764cbc14f9669b88837ca1490cca17c3160700000000000000000000000000000000000000000000000000000000a20e7940000000000000000000000000000000000000000000000000000000000000000000000000000000000000000000000000000000000000000000000000000000800000000000000000000000000000000000000000000000000000000000000000","nonce":"0x22e","to":"0x4200000000000000000000000000000000000010","transactionIndex":"0x0","value":"0x0","v":"0x38","r":"0xdeec09efe2f514307e0f1c70f537c921676b3798aa8331288f0cdf38a255862b","s":"0x15310c8434310e3492cf2ad240f70eed79e50bdffdbed59412fb879aa900f4b2","queueOrigin":"sequencer","l1TxOrigin":null,"l1BlockNumber":"0xfa18e0","l1Timestamp":"0x63bfee97","index":"0x3df2351","queueIndex":null,"rawTransaction":"0xf9010a82022e830f42408301e65494420000000000000000000000000000000000001080b8a432b7006d0000000000000000000000007f5c764cbc14f9669b88837ca1490cca17c3160700000000000000000000000000000000000000000000000000000000a20e794000000000000000000000000000000000000000000000000000000000000000000000000000000000000000000000000000000000000000000000000000000080000000000000000000000000000000000000000000000000000000000000000038a0deec09efe2f514307e0f1c70f537c921676b3798aa8331288f0cdf38a255862ba015310c8434310e3492cf2ad240f70eed79e50bdffdbed59412fb879aa900f4b2"}}

        '
    headers:
      Access-Control-Allow-Headers:
      - Content-Type
      Access-Control-Allow-Methods:
      - GET, POST, OPTIONS
      Access-Control-Allow-Origin:
      - '*'
      CF-Cache-Status:
      - DYNAMIC
      CF-RAY:
      - 7a134ad14990725e-HAM
      Cache-Control:
      - private
      Connection:
      - keep-alive
      Content-Type:
      - application/json; charset=utf-8
      Date:
      - Wed, 01 Mar 2023 17:59:10 GMT
      Server:
      - cloudflare
      Vary:
      - Accept-Encoding
      X-Frame-Options:
      - SAMEORIGIN
      alt-svc:
      - h3=":443"; ma=86400, h3-29=":443"; ma=86400
      content-length:
      - '1607'
    status:
      code: 200
      message: OK
- request:
    body: null
    headers:
      Accept:
      - '*/*'
      Accept-Encoding:
      - gzip, deflate
      Connection:
      - keep-alive
      User-Agent:
      - rotki/1.27.2.dev11+ge6773788b.d20230228
    method: GET
    uri: https://api-optimistic.etherscan.io/api?module=proxy&action=eth_getBlockByNumber&tag=0x3df2352&boolean=true&apikey=IK3GCCMPQXTRIEGBAXQ9DUFWIUR524K3MW
  response:
    body:
      string: '{"jsonrpc":"2.0","id":1,"result":{"difficulty":"0x2","extraData":"0xd98301090a846765746889676f312e31352e3133856c696e75780000000000003f561f65f76b6c7042aadc0b17f81636421f67cca8ee4bf0eff415bbbef9e3682da56a45f308cd3957f15d93525edc580c9501036ca00dcad9dbae469077433b01","gasLimit":"0xe4e1c0","gasUsed":"0x1d394","hash":"0x2e4dbefb540f7d58b45fadcd65b378ec69a881e68f7267dc1811c9b48e225ca1","logsBloom":"0x02000000000000000010008000000000000000000000001000100000001000000000000000000080000002000000008000000040000000000000000000000000000000000000000040000008000000000000000000000000000000004000000002000000020000000000000000000800080000000000000000000010000000000401000000000000000000000200000200800000008000000000000000200000000000008000000001000000000000000000200000000000000000000000000000000002000000000000000400000000000002100000000008000000000020000000000000000000000000000000000004000000000000000000000000010000","miner":"0x0000000000000000000000000000000000000000","mixHash":"0x0000000000000000000000000000000000000000000000000000000000000000","nonce":"0x0000000000000000","number":"0x3df2352","parentHash":"0x32d85b4e3f985e6b99919e7e70ee3381ba5a683c892cbc154270f633fe6a50d0","receiptsRoot":"0x38ab4eb90e589ec6b61de2a64176c37566b8820907dd8c6fcefa03279971b5d5","sha3Uncles":"0x1dcc4de8dec75d7aab85b567b6ccd41ad312451b948a7413f0a142fd40d49347","size":"0x374","stateRoot":"0x3ef2154e04ed99130496319e2128322d37dc24b5616c5e002aabfd08bf621b63","timestamp":"0x63bfee97","totalDifficulty":"0x7be46a5","transactions":[{"blockHash":"0x2e4dbefb540f7d58b45fadcd65b378ec69a881e68f7267dc1811c9b48e225ca1","blockNumber":"0x3df2352","from":"0x261fd12af4c4babb30f44c1b0fe20a718a39b04c","gas":"0x1e654","gasPrice":"0xf4240","hash":"0x5798c5d91658e6a3722f8507ca25ac9b21d7df555d364f5cd1f5578c92329412","input":"0x32b7006d0000000000000000000000007f5c764cbc14f9669b88837ca1490cca17c3160700000000000000000000000000000000000000000000000000000000a20e7940000000000000000000000000000000000000000000000000000000000000000000000000000000000000000000000000000000000000000000000000000000800000000000000000000000000000000000000000000000000000000000000000","nonce":"0x22e","to":"0x4200000000000000000000000000000000000010","transactionIndex":"0x0","value":"0x0","v":"0x38","r":"0xdeec09efe2f514307e0f1c70f537c921676b3798aa8331288f0cdf38a255862b","s":"0x15310c8434310e3492cf2ad240f70eed79e50bdffdbed59412fb879aa900f4b2","queueOrigin":"sequencer","l1TxOrigin":null,"l1BlockNumber":"0xfa18e0","l1Timestamp":"0x63bfee97","index":"0x3df2351","queueIndex":null,"rawTransaction":"0xf9010a82022e830f42408301e65494420000000000000000000000000000000000001080b8a432b7006d0000000000000000000000007f5c764cbc14f9669b88837ca1490cca17c3160700000000000000000000000000000000000000000000000000000000a20e794000000000000000000000000000000000000000000000000000000000000000000000000000000000000000000000000000000000000000000000000000000080000000000000000000000000000000000000000000000000000000000000000038a0deec09efe2f514307e0f1c70f537c921676b3798aa8331288f0cdf38a255862ba015310c8434310e3492cf2ad240f70eed79e50bdffdbed59412fb879aa900f4b2"}],"transactionsRoot":"0x5514c87d3bd7247b1e2f8c2ccdcca2413d47e723ca206562c641d0e583a300da","uncles":[]}}

        '
    headers:
      Access-Control-Allow-Headers:
      - Content-Type
      Access-Control-Allow-Methods:
      - GET, POST, OPTIONS
      Access-Control-Allow-Origin:
      - '*'
      CF-Cache-Status:
      - DYNAMIC
      CF-RAY:
      - 7a134ad23a49725e-HAM
      Cache-Control:
      - private
      Connection:
      - keep-alive
      Content-Type:
      - application/json; charset=utf-8
      Date:
      - Wed, 01 Mar 2023 17:59:10 GMT
      Server:
      - cloudflare
      Vary:
      - Accept-Encoding
      X-Frame-Options:
      - SAMEORIGIN
      alt-svc:
      - h3=":443"; ma=86400, h3-29=":443"; ma=86400
      content-length:
      - '3184'
    status:
      code: 200
      message: OK
- request:
    body: null
    headers:
      Accept:
      - '*/*'
      Accept-Encoding:
      - gzip, deflate
      Connection:
      - keep-alive
      User-Agent:
      - rotki/1.27.2.dev11+ge6773788b.d20230228
    method: GET
    uri: https://api-optimistic.etherscan.io/api?module=proxy&action=eth_getTransactionReceipt&txhash=0x5798c5d91658e6a3722f8507ca25ac9b21d7df555d364f5cd1f5578c92329412&apikey=IK3GCCMPQXTRIEGBAXQ9DUFWIUR524K3MW
  response:
    body:
      string: '{"jsonrpc":"2.0","id":1,"result":{"blockHash":"0x2e4dbefb540f7d58b45fadcd65b378ec69a881e68f7267dc1811c9b48e225ca1","blockNumber":"0x3df2352","contractAddress":null,"cumulativeGasUsed":"0x1d394","from":"0x261fd12af4c4babb30f44c1b0fe20a718a39b04c","gasUsed":"0x1d394","l1Fee":"0x3a11a1076320","l1FeeScalar":"1","l1GasPrice":"0x3434b5a18","l1GasUsed":"0x11cc","logs":[{"address":"0x7f5c764cbc14f9669b88837ca1490cca17c31607","topics":["0xddf252ad1be2c89b69c2b068fc378daa952ba7f163c4a11628f55a4df523b3ef","0x000000000000000000000000261fd12af4c4babb30f44c1b0fe20a718a39b04c","0x0000000000000000000000000000000000000000000000000000000000000000"],"data":"0x00000000000000000000000000000000000000000000000000000000a20e7940","blockNumber":"0x3df2352","transactionHash":"0x5798c5d91658e6a3722f8507ca25ac9b21d7df555d364f5cd1f5578c92329412","transactionIndex":"0x0","blockHash":"0x2e4dbefb540f7d58b45fadcd65b378ec69a881e68f7267dc1811c9b48e225ca1","logIndex":"0x0","removed":false},{"address":"0x7f5c764cbc14f9669b88837ca1490cca17c31607","topics":["0xcc16f5dbb4873280815c1ee09dbd06736cffcc184412cf7a71a0fdb75d397ca5","0x000000000000000000000000261fd12af4c4babb30f44c1b0fe20a718a39b04c"],"data":"0x00000000000000000000000000000000000000000000000000000000a20e7940","blockNumber":"0x3df2352","transactionHash":"0x5798c5d91658e6a3722f8507ca25ac9b21d7df555d364f5cd1f5578c92329412","transactionIndex":"0x0","blockHash":"0x2e4dbefb540f7d58b45fadcd65b378ec69a881e68f7267dc1811c9b48e225ca1","logIndex":"0x1","removed":false},{"address":"0x4200000000000000000000000000000000000007","topics":["0xcb0f7ffd78f9aee47a248fae8db181db6eee833039123e026dcbff529522e52a","0x00000000000000000000000099c9fc46f92e8a1c0dec1b1747d010903e884be1"],"data":"0x00000000000000000000000042000000000000000000000000000000000000100000000000000000000000000000000000000000000000000000000000000080000000000000000000000000000000000000000000000000000000000001cf63000000000000000000000000000000000000000000000000000000000000000000000000000000000000000000000000000000000000000000000000000000e4a9f9e675000000000000000000000000a0b86991c6218b36c1d19d4a2e9eb0ce3606eb480000000000000000000000007f5c764cbc14f9669b88837ca1490cca17c31607000000000000000000000000261fd12af4c4babb30f44c1b0fe20a718a39b04c000000000000000000000000261fd12af4c4babb30f44c1b0fe20a718a39b04c00000000000000000000000000000000000000000000000000000000a20e794000000000000000000000000000000000000000000000000000000000000000c0000000000000000000000000000000000000000000000000000000000000000000000000000000000000000000000000000000000000000000000000","blockNumber":"0x3df2352","transactionHash":"0x5798c5d91658e6a3722f8507ca25ac9b21d7df555d364f5cd1f5578c92329412","transactionIndex":"0x0","blockHash":"0x2e4dbefb540f7d58b45fadcd65b378ec69a881e68f7267dc1811c9b48e225ca1","logIndex":"0x2","removed":false},{"address":"0x4200000000000000000000000000000000000010","topics":["0x73d170910aba9e6d50b102db522b1dbcd796216f5128b445aa2135272886497e","0x000000000000000000000000a0b86991c6218b36c1d19d4a2e9eb0ce3606eb48","0x0000000000000000000000007f5c764cbc14f9669b88837ca1490cca17c31607","0x000000000000000000000000261fd12af4c4babb30f44c1b0fe20a718a39b04c"],"data":"0x000000000000000000000000261fd12af4c4babb30f44c1b0fe20a718a39b04c00000000000000000000000000000000000000000000000000000000a20e794000000000000000000000000000000000000000000000000000000000000000600000000000000000000000000000000000000000000000000000000000000000","blockNumber":"0x3df2352","transactionHash":"0x5798c5d91658e6a3722f8507ca25ac9b21d7df555d364f5cd1f5578c92329412","transactionIndex":"0x0","blockHash":"0x2e4dbefb540f7d58b45fadcd65b378ec69a881e68f7267dc1811c9b48e225ca1","logIndex":"0x3","removed":false}],"logsBloom":"0x02000000000000000010008000000000000000000000001000100000001000000000000000000080000002000000008000000040000000000000000000000000000000000000000040000008000000000000000000000000000000004000000002000000020000000000000000000800080000000000000000000010000000000401000000000000000000000200000200800000008000000000000000200000000000008000000001000000000000000000200000000000000000000000000000000002000000000000000400000000000002100000000008000000000020000000000000000000000000000000000004000000000000000000000000010000","status":"0x1","to":"0x4200000000000000000000000000000000000010","transactionHash":"0x5798c5d91658e6a3722f8507ca25ac9b21d7df555d364f5cd1f5578c92329412","transactionIndex":"0x0"}}

        '
    headers:
      Access-Control-Allow-Headers:
      - Content-Type
      Access-Control-Allow-Methods:
      - GET, POST, OPTIONS
      Access-Control-Allow-Origin:
      - '*'
      CF-Cache-Status:
      - DYNAMIC
      CF-RAY:
      - 7a134ad32b23725e-HAM
      Cache-Control:
      - private
      Connection:
      - keep-alive
      Content-Type:
      - application/json; charset=utf-8
      Date:
      - Wed, 01 Mar 2023 17:59:10 GMT
      Server:
      - cloudflare
      Vary:
      - Accept-Encoding
      X-Frame-Options:
      - SAMEORIGIN
      alt-svc:
      - h3=":443"; ma=86400, h3-29=":443"; ma=86400
      content-length:
      - '4377'
    status:
      code: 200
      message: OK
- request:
    body: null
    headers:
      Accept:
      - '*/*'
      Accept-Encoding:
      - gzip, deflate
      Connection:
      - keep-alive
      User-Agent:
      - rotki/1.27.2.dev11+ge6773788b.d20230228
    method: GET
    uri: https://api-optimistic.etherscan.io/api?module=account&action=txlistinternal&sort=asc&txHash=0x5798c5d91658e6a3722f8507ca25ac9b21d7df555d364f5cd1f5578c92329412&apikey=IK3GCCMPQXTRIEGBAXQ9DUFWIUR524K3MW
  response:
    body:
      string: '{"status":"0","message":"No transactions found","result":[]}'
    headers:
      Access-Control-Allow-Headers:
      - Content-Type
      Access-Control-Allow-Methods:
      - GET, POST, OPTIONS
      Access-Control-Allow-Origin:
      - '*'
      CF-Cache-Status:
      - DYNAMIC
      CF-RAY:
      - 7a134ad43c27725e-HAM
      Cache-Control:
      - private
      Connection:
      - keep-alive
      Content-Type:
      - application/json; charset=utf-8
      Date:
      - Wed, 01 Mar 2023 17:59:10 GMT
      Server:
      - cloudflare
      Vary:
      - Accept-Encoding
      X-Frame-Options:
      - SAMEORIGIN
      alt-svc:
      - h3=":443"; ma=86400, h3-29=":443"; ma=86400
      content-length:
      - '60'
    status:
      code: 200
      message: OK
version: 1
