interactions:
- request:
    body: '{"jsonrpc": "2.0", "method": "web3_clientVersion", "params": [], "id":
      0}'
    headers:
      Accept:
      - '*/*'
      Accept-Encoding:
      - gzip, deflate
      Connection:
      - keep-alive
      Content-Length:
      - '73'
      Content-Type:
      - application/json
      User-Agent:
      - web3.py/7.15.0/web3.providers.rpc.rpc.HTTPProvider
    method: POST
    uri: https://mainnet.base.org/
  response:
    body:
      string: '{"jsonrpc":"2.0","result":"reth/v1.11.3-d6324d6/x86_64-unknown-linux-gnu/base/v0.7.6","id":0}

        '
    headers:
      CF-RAY:
      - 9f9fd77b1f5c589a-BCN
      Connection:
      - keep-alive
      Content-Type:
      - application/json
      Date:
      - Mon, 11 May 2026 08:33:57 GMT
      Nel:
      - '{"report_to":"cf-nel","success_fraction":0.01,"max_age":604800}'
      Report-To:
      - '{"group":"cf-nel","max_age":604800,"endpoints":[{"url":"https://a.nel.cloudflare.com/report/v4?s=3u4LUyxw7Jk5rZ5xF4pL2q3EySf383smL6fUUA36kNN1%2FPP2yz96qXQDGorQexyKEHPuqrvSQODSjOxzxpEXp479BDHbnY0iyHgfrzgxK7Vn6bwU%2BZAItPGTEn2g9sPR1A0%3D"}]}'
      Server:
      - cloudflare
      Strict-Transport-Security:
      - max-age=2592000
      Transfer-Encoding:
      - chunked
      X-Content-Type-Options:
      - nosniff
      cf-cache-status:
      - DYNAMIC
      content-length:
      - '94'
      set-cookie:
      - __cf_bm=nRFJZEpAmmLMivo8QxK1B1LQavAUUHRVwPhu7GmSmm0-1778488436.9795809-1.0.1.1-OHEmcNGulsWKACgho9eAbWTBy8ZR.7TiVCvYjYv87syS35ObT8u2Wcdx4DBiG.rMMVnyZh71F92RNtysC72u0WiLH2nqkRp6AFs3Vvkz3XIr_eJZWGhe3HcjWIG4xwRw;
        HttpOnly; Secure; Path=/; Domain=base.org; Expires=Mon, 11 May 2026 09:03:57
        GMT
      vary:
      - Origin
      x-proxyd-cache-status:
      - MISS
    status:
      code: 200
      message: OK
- request:
    body: '{"jsonrpc": "2.0", "method": "net_version", "params": [], "id": 1}'
    headers:
      Accept:
      - '*/*'
      Accept-Encoding:
      - gzip, deflate
      Connection:
      - keep-alive
      Content-Length:
      - '66'
      Content-Type:
      - application/json
      Cookie:
      - __cf_bm=nRFJZEpAmmLMivo8QxK1B1LQavAUUHRVwPhu7GmSmm0-1778488436.9795809-1.0.1.1-OHEmcNGulsWKACgho9eAbWTBy8ZR.7TiVCvYjYv87syS35ObT8u2Wcdx4DBiG.rMMVnyZh71F92RNtysC72u0WiLH2nqkRp6AFs3Vvkz3XIr_eJZWGhe3HcjWIG4xwRw
      User-Agent:
      - web3.py/7.15.0/web3.providers.rpc.rpc.HTTPProvider
    method: POST
    uri: https://mainnet.base.org/
  response:
    body:
      string: '{"jsonrpc":"2.0","result":"8453","id":1}

        '
    headers:
      CF-RAY:
      - 9f9fd77d6847f488-BCN
      Connection:
      - keep-alive
      Content-Length:
      - '41'
      Content-Type:
      - application/json
      Date:
      - Mon, 11 May 2026 08:33:57 GMT
      Nel:
      - '{"report_to":"cf-nel","success_fraction":0.01,"max_age":604800}'
      Report-To:
      - '{"group":"cf-nel","max_age":604800,"endpoints":[{"url":"https://a.nel.cloudflare.com/report/v4?s=cYgNIewSfoi0S0F12TaVmIdKk0d%2FW1Zu1ANwSh873F2Hyx2vcnl%2F4OWE9jgq5OYbNgqRGKbGuGOuaa3V%2BIxnbuFXwaAJAuug18qRnPqCowEt3IeKeKTyX8i7B8R%2F5duVGik%3D"}]}'
      Server:
      - cloudflare
      Strict-Transport-Security:
      - max-age=2592000
      X-Content-Type-Options:
      - nosniff
      cf-cache-status:
      - DYNAMIC
      vary:
      - Origin
      x-proxyd-cache-status:
      - HIT
    status:
      code: 200
      message: OK
- request:
    body: '{"jsonrpc": "2.0", "method": "eth_blockNumber", "params": [], "id": 2}'
    headers:
      Accept:
      - '*/*'
      Accept-Encoding:
      - gzip, deflate
      Connection:
      - keep-alive
      Content-Length:
      - '70'
      Content-Type:
      - application/json
      Cookie:
      - __cf_bm=nRFJZEpAmmLMivo8QxK1B1LQavAUUHRVwPhu7GmSmm0-1778488436.9795809-1.0.1.1-OHEmcNGulsWKACgho9eAbWTBy8ZR.7TiVCvYjYv87syS35ObT8u2Wcdx4DBiG.rMMVnyZh71F92RNtysC72u0WiLH2nqkRp6AFs3Vvkz3XIr_eJZWGhe3HcjWIG4xwRw
      User-Agent:
      - web3.py/7.15.0/web3.providers.rpc.rpc.HTTPProvider
    method: POST
    uri: https://mainnet.base.org/
  response:
    body:
      string: '{"jsonrpc":"2.0","result":"0x2bb9bc9","id":2}

        '
    headers:
      CF-RAY:
      - 9f9fd77e8f35cc4a-BCN
      Connection:
      - keep-alive
      Content-Length:
      - '46'
      Content-Type:
      - application/json
      Date:
      - Mon, 11 May 2026 08:33:57 GMT
      Nel:
      - '{"report_to":"cf-nel","success_fraction":0.01,"max_age":604800}'
      Report-To:
      - '{"group":"cf-nel","max_age":604800,"endpoints":[{"url":"https://a.nel.cloudflare.com/report/v4?s=gmIKozuTOjRYvgGlyY2xBuaWvlot8rgFz3BfEYRp8eYoL4DcUPg4%2Fq3snhZH3zxU%2FJ8KpIXTTDM1eQdqLFKf%2BDAD%2BJoDp8qBrog9C8HSkIgCjqZECwO%2FOyey%2BSD2%2F7kk50w%3D"}]}'
      Server:
      - cloudflare
      Strict-Transport-Security:
      - max-age=2592000
      X-Content-Type-Options:
      - nosniff
      cf-cache-status:
      - DYNAMIC
      vary:
      - Origin
      x-proxyd-cache-status:
      - MISS
    status:
      code: 200
      message: OK
- request:
    body: '{"jsonrpc": "2.0", "method": "eth_getBalance", "params": ["0x3a9e669d9e2d0171c8a057031a9e9C048b7FEE60",
      "0x3e541a"], "id": 3}'
    headers:
      Accept:
      - '*/*'
      Accept-Encoding:
      - gzip, deflate
      Connection:
      - keep-alive
      Content-Length:
      - '125'
      Content-Type:
      - application/json
      Cookie:
      - __cf_bm=nRFJZEpAmmLMivo8QxK1B1LQavAUUHRVwPhu7GmSmm0-1778488436.9795809-1.0.1.1-OHEmcNGulsWKACgho9eAbWTBy8ZR.7TiVCvYjYv87syS35ObT8u2Wcdx4DBiG.rMMVnyZh71F92RNtysC72u0WiLH2nqkRp6AFs3Vvkz3XIr_eJZWGhe3HcjWIG4xwRw
      User-Agent:
      - web3.py/7.15.0/web3.providers.rpc.rpc.HTTPProvider
    method: POST
    uri: https://mainnet.base.org/
  response:
    body:
      string: '{"jsonrpc":"2.0","result":"0x2386f26fc10000","id":3}

        '
    headers:
      CF-RAY:
      - 9f9fd77fbc05f298-BCN
      Connection:
      - keep-alive
      Content-Type:
      - application/json
      Date:
      - Mon, 11 May 2026 08:33:57 GMT
      Nel:
      - '{"report_to":"cf-nel","success_fraction":0.01,"max_age":604800}'
      Report-To:
      - '{"group":"cf-nel","max_age":604800,"endpoints":[{"url":"https://a.nel.cloudflare.com/report/v4?s=rcpeeW7Zt%2FwIFiA8Ix6plmM1D4vneO577Xe8kd%2F9o3kdjJfiOxXsLCUvhI%2BmWxR1tzeAWxrleTlwNSatgzknkQfCf1UK2Otfv4Qvkj6MIt6xAJfxgh6cQAnMGUtA734Hfwo%3D"}]}'
      Server:
      - cloudflare
      Strict-Transport-Security:
      - max-age=2592000
      Transfer-Encoding:
      - chunked
      X-Content-Type-Options:
      - nosniff
      cf-cache-status:
      - DYNAMIC
      content-length:
      - '53'
      vary:
      - Origin
      x-proxyd-cache-status:
      - MISS
    status:
      code: 200
      message: OK
- request:
    body: '{"jsonrpc": "2.0", "method": "eth_getTransactionByHash", "params": ["0xc7e021f71a972940c2728717f058f49833e3aa4d074c3599054530f108c281b2"],
      "id": 4}'
    headers:
      Accept:
      - '*/*'
      Accept-Encoding:
      - gzip, deflate
      Connection:
      - keep-alive
      Content-Length:
      - '147'
      Content-Type:
      - application/json
      Cookie:
      - __cf_bm=nRFJZEpAmmLMivo8QxK1B1LQavAUUHRVwPhu7GmSmm0-1778488436.9795809-1.0.1.1-OHEmcNGulsWKACgho9eAbWTBy8ZR.7TiVCvYjYv87syS35ObT8u2Wcdx4DBiG.rMMVnyZh71F92RNtysC72u0WiLH2nqkRp6AFs3Vvkz3XIr_eJZWGhe3HcjWIG4xwRw
      User-Agent:
      - web3.py/7.15.0/web3.providers.rpc.rpc.HTTPProvider
    method: POST
    uri: https://mainnet.base.org/
  response:
    body:
      string: '{"jsonrpc":"2.0","result":null,"id":4}

        '
    headers:
      CF-RAY:
      - 9f9fd780e81798e6-BCN
      Connection:
      - keep-alive
      Content-Length:
      - '39'
      Content-Type:
      - application/json
      Date:
      - Mon, 11 May 2026 08:33:58 GMT
      Nel:
      - '{"report_to":"cf-nel","success_fraction":0.01,"max_age":604800}'
      Report-To:
      - '{"group":"cf-nel","max_age":604800,"endpoints":[{"url":"https://a.nel.cloudflare.com/report/v4?s=Jau2fXyBQnThOSAhWD4%2BmUOJDj6%2FLLWvuuOq3tC0jOOBIxzJosVTVjiRT57As77M007TR6zgQOsCKd%2BXF4DLmEODxPX%2FTWOdeqPRaNTsiHo5nc1eUsSypz7f7XgFDTg%2FHes%3D"}]}'
      Server:
      - cloudflare
      Strict-Transport-Security:
      - max-age=2592000
      X-Content-Type-Options:
      - nosniff
      cf-cache-status:
      - DYNAMIC
      vary:
      - Origin
      x-proxyd-cache-status:
      - MISS
    status:
      code: 200
      message: OK
- request:
    body: '{"id": 0, "jsonrpc": "2.0", "method": "eth_getTransactionByHash", "params":
      ["0x6a0359515efbce1047222ad3525c773755596a8635c80ee578ff25c160f88502"]}'
    headers:
      Accept:
      - '*/*'
      Accept-Encoding:
      - gzip, deflate
      Connection:
      - keep-alive
      Content-Length:
      - '147'
      Content-Type:
      - application/json
      User-Agent:
      - rotki/1.42.2.dev421+g97b4186897
    method: POST
    uri: https://api.blockscout.com/8453/json-rpc
  response:
    body:
      string: '{"jsonrpc":"2.0","result": {"accessList":[],"blockHash":"0x37707555a84b1d0c1630035449e3e36da0c7d0db3b83e3d0ac4b7aa8cde974de","blockNumber":"0x2690caa","chainId":"0x2105","from":"0xd26a5e62808e501a55ffd91f662387a646e1beb0","gas":"0x470c0","gasPrice":"0x3aaa10","hash":"0x6a0359515efbce1047222ad3525c773755596a8635c80ee578ff25c160f88502","input":"0x0ce9a63d0000000000b1a2bc2ec5000000000000000000000000000000000000000000000000000000000000098f8352833589fcd6edb6e08f4c7c32d4f71b54bda029130000004ab7d32fc30000000005f5e1000058d15e1762800000640096695c76720000000000436c6970706572d26a5e62808e501a55ffd91f662387a646e1beb062c8e5a590e84212eb69f5acbcd043bfc6d2e7ec21c97c37ad10daa969f9fcd5df551f41b6a0f11ba225aa9c6ac7f09ff1a1e4465a9d1f34e3a899c33f1d3820","maxFeePerGas":"0x4c9578","maxPriorityFeePerGas":"0xf4240","nonce":"0x2b0","r":"0x1408f170cb3ed08947b82283d59f9820e33eecd86355a14e3fb75afcb661d32c","s":"0xb485a494cc6e7ee98af0d8ea9d53aab71d1836f5c49a4bc2cdf4a34c8639459","to":"0xb32d856cad3d2ef07c94867a800035e37241247c","transactionIndex":"0x1d","type":"0x2","v":"0x0","value":"0xb1a2bc2ec50000","yParity":"0x0"},"id":
        0}

        '
    headers:
      CF-RAY:
      - 9f9fd782ad52f767-MAD
      Cache-Control:
      - max-age=0, private, must-revalidate
      Connection:
      - keep-alive
      Content-Type:
      - application/json; charset=utf-8
      Date:
      - Mon, 11 May 2026 08:33:58 GMT
      Nel:
      - '{"report_to":"cf-nel","success_fraction":0.0,"max_age":604800}'
      Report-To:
      - '{"group":"cf-nel","max_age":604800,"endpoints":[{"url":"https://a.nel.cloudflare.com/report/v4?s=RBJffjJFQtM2JTK5FHuMiUUnjgEMoiCw2XQvvN97dPzzMBuNYW%2FWgxWpdlHmkXnlGjv5ECBKZcEj2wNF2jFY7u%2BC8mUe7TAqoIF78oIcvSHsDih0T%2B7bQB9TQLxaUYe7v3rbcQ%3D%3D"}]}'
      Server:
      - cloudflare
      alt-svc:
      - h3=":443"; ma=86400
      cf-cache-status:
      - DYNAMIC
      content-length:
      - '1113'
      strict-transport-security:
      - max-age=31536000; includeSubDomains
      vary:
      - accept-encoding
      x-credits-remaining:
      - '99880'
      x-ratelimit-limit:
      - '5'
      x-ratelimit-remaining:
      - '4'
      x-ratelimit-reset:
      - '790'
      x-request-id:
      - d4bbe98d4a550438e6f3a8dd22705773
    status:
      code: 200
      message: OK
- request:
    body: '{"jsonrpc": "2.0", "method": "eth_getBlockByNumber", "params": ["0x2690caa",
      false], "id": 5}'
    headers:
      Accept:
      - '*/*'
      Accept-Encoding:
      - gzip, deflate
      Connection:
      - keep-alive
      Content-Length:
      - '93'
      Content-Type:
      - application/json
      Cookie:
      - __cf_bm=nRFJZEpAmmLMivo8QxK1B1LQavAUUHRVwPhu7GmSmm0-1778488436.9795809-1.0.1.1-OHEmcNGulsWKACgho9eAbWTBy8ZR.7TiVCvYjYv87syS35ObT8u2Wcdx4DBiG.rMMVnyZh71F92RNtysC72u0WiLH2nqkRp6AFs3Vvkz3XIr_eJZWGhe3HcjWIG4xwRw
      User-Agent:
      - web3.py/7.15.0/web3.providers.rpc.rpc.HTTPProvider
    method: POST
    uri: https://mainnet.base.org/
  response:
    body:
      string: '{"jsonrpc":"2.0","result":{"baseFeePerGas":"0x2b67d0","blobGasUsed":"0xc8a028","difficulty":"0x0","excessBlobGas":"0x0","extraData":"0x010000003200000006000000000007a120","gasLimit":"0x165a0bc0","gasUsed":"0x2d4688e","hash":"0x37707555a84b1d0c1630035449e3e36da0c7d0db3b83e3d0ac4b7aa8cde974de","logsBloom":"0xd7ffcf5dfb5d84f0d9daff65c6ffcfa2b97dbf3ce6d3a9129fd6fea5b23fedd9bd7cfc8ef8977f2db73aa3339f2eb50fedd49f2bd6b8fd3c36bf37d27fbfc7af176f9ef8eff5bc9b4fcdff9bfb654baf65ffbcaebf7c7df7676a79def7ebedfa3bdfee7b7fce77f6a65e47138db37b5b77a077e7d866fdb1113f987ead9af7efd3fef6cfefdbffed75cff7a0afbc5338a539dfdf7dffd6ae58befc653faeff0fd676bccfe3a29ff2eddc7fff1dabafe6fabd7de31fffcddb8fe7c37d971bbfdebee4e3afcae57ff16e73ebffedfbd794fffffb576dfeff73ffefafffdf697c764b9df95dfddeff2d3fff3af55e15c5fdaff7bf73499feddbbf3f7666bf15feb4","miner":"0x4200000000000000000000000000000000000011","mixHash":"0x232584f68c461331170278d84356f6c607f2df369930411d88db2d19e486fcc4","nonce":"0x0000000000000000","number":"0x2690caa","parentBeaconBlockRoot":"0x4f8cfe3fccd735507d11d63c6b85f634a48b8806d6b3599be9321932f2645431","parentHash":"0xf2609f62c6df99dd8f47a2a16025292ab9b6a68ba57b5365ff2790e494b5bc9e","receiptsRoot":"0x68795cbb2df20888fc1965e1e4a79dbb1abef439d34d227a15c15fece1761ee4","requestsHash":"0xe3b0c44298fc1c149afbf4c8996fb92427ae41e4649b934ca495991b7852b855","sha3Uncles":"0x1dcc4de8dec75d7aab85b567b6ccd41ad312451b948a7413f0a142fd40d49347","size":"0x283","stateRoot":"0x55e3f986781ae34c745396f71923a4b4844ea8358346bb926413cf2a0c64fd7e","timestamp":"0x695c7637","transactions":[],"transactionsRoot":"0x667a3b2fd49f5e51334aef95d53b1c1b34636f3be04b6707a7e9db9c9668f3a3","uncles":[],"withdrawals":[],"withdrawalsRoot":"0xb6fcd91c7e2ee9fec7d75c264afa9a34eea47f0359a902609268aa6a53ff496e"},"id":5}

        '
    headers:
      CF-RAY:
      - 9f9fd78429abf488-BCN
      Connection:
      - keep-alive
      Content-Type:
      - application/json
      Date:
      - Mon, 11 May 2026 08:33:58 GMT
      Nel:
      - '{"report_to":"cf-nel","success_fraction":0.01,"max_age":604800}'
      Report-To:
      - '{"group":"cf-nel","max_age":604800,"endpoints":[{"url":"https://a.nel.cloudflare.com/report/v4?s=3qhKFXzPMxbHWPkumirDIJdWf5jhudR%2BCoKPd8SRV%2BFGq%2FNTaljmSqH%2BcG3avL6fO13mrHDUmW0L9IXcUEj5Fhdjp8O1yTf3sAGy1Yx9H04sKRL%2BNfIX8RMBodPOkUvTDu0%3D"}]}'
      Server:
      - cloudflare
      Strict-Transport-Security:
      - max-age=2592000
      Transfer-Encoding:
      - chunked
      X-Content-Type-Options:
      - nosniff
      cf-cache-status:
      - DYNAMIC
      content-length:
      - '1781'
      vary:
      - Origin
      x-proxyd-cache-status:
      - MISS
    status:
      code: 200
      message: OK
- request:
    body: '{"id": 0, "jsonrpc": "2.0", "method": "eth_getTransactionReceipt", "params":
      ["0x6a0359515efbce1047222ad3525c773755596a8635c80ee578ff25c160f88502"]}'
    headers:
      Accept:
      - '*/*'
      Accept-Encoding:
      - gzip, deflate
      Connection:
      - keep-alive
      Content-Length:
      - '148'
      Content-Type:
      - application/json
      User-Agent:
      - rotki/1.42.2.dev421+g97b4186897
    method: POST
    uri: https://api.blockscout.com/8453/json-rpc
  response:
    body:
      string: '{"jsonrpc":"2.0","result": {"blockHash":"0x37707555a84b1d0c1630035449e3e36da0c7d0db3b83e3d0ac4b7aa8cde974de","blockNumber":"0x2690caa","contractAddress":null,"cumulativeGasUsed":"0x8d2f49","effectiveGasPrice":"0x3aaa10","from":"0xd26a5e62808e501a55ffd91f662387a646e1beb0","gasUsed":"0x2ddeb","logs":[{"address":"0x4200000000000000000000000000000000000006","blockHash":"0x37707555a84b1d0c1630035449e3e36da0c7d0db3b83e3d0ac4b7aa8cde974de","blockNumber":"0x2690caa","data":"0x00000000000000000000000000000000000000000000000000b1a2bc2ec50000","logIndex":"0x105","removed":false,"topics":["0xe1fffcc4923d04b559f4d29a8bfc6cda04eb5b0d3c460751c2402c5c5cc9109c","0x000000000000000000000000b32d856cad3d2ef07c94867a800035e37241247c"],"transactionHash":"0x6a0359515efbce1047222ad3525c773755596a8635c80ee578ff25c160f88502","transactionIndex":"0x1d"},{"address":"0x833589fcd6edb6e08f4c7c32d4f71b54bda02913","blockHash":"0x37707555a84b1d0c1630035449e3e36da0c7d0db3b83e3d0ac4b7aa8cde974de","blockNumber":"0x2690caa","data":"0x00000000000000000000000000000000000000000000000000000000098f8352","logIndex":"0x106","removed":false,"topics":["0xddf252ad1be2c89b69c2b068fc378daa952ba7f163c4a11628f55a4df523b3ef","0x000000000000000000000000b32d856cad3d2ef07c94867a800035e37241247c","0x000000000000000000000000d26a5e62808e501a55ffd91f662387a646e1beb0"],"transactionHash":"0x6a0359515efbce1047222ad3525c773755596a8635c80ee578ff25c160f88502","transactionIndex":"0x1d"},{"address":"0xb32d856cad3d2ef07c94867a800035e37241247c","blockHash":"0x37707555a84b1d0c1630035449e3e36da0c7d0db3b83e3d0ac4b7aa8cde974de","blockNumber":"0x2690caa","data":"0x00000000000000000000000000000000000000000000000000b1a2bc2ec5000000000000000000000000000000000000000000000000000000000000098f83520000000000000000000000000000000000000000000000000000000000000060000000000000000000000000000000000000000000000000000000000000002000000000000000000000000000000000000000000000000000436c6970706572","logIndex":"0x107","removed":false,"topics":["0x4be05c8d54f5e056ab2cfa033e9f582057001268c3e28561bb999d35d2c8f2c8","0x0000000000000000000000004200000000000000000000000000000000000006","0x000000000000000000000000833589fcd6edb6e08f4c7c32d4f71b54bda02913","0x000000000000000000000000d26a5e62808e501a55ffd91f662387a646e1beb0"],"transactionHash":"0x6a0359515efbce1047222ad3525c773755596a8635c80ee578ff25c160f88502","transactionIndex":"0x1d"}],"logsBloom":"0x80000000000000000100000000004000000000000000000000040000000000000000000000000000000000100008900000000000000000000020000000000000000000000000040000000008000000000000000000080000000000008000000000800000000000000000000000000000010010020000000000000010000000000000000000000000400084000000000000000001002000000000000000000000000000000000000000040000000000000000008000000000000000000000000000000002000004000000000000000000000080000000000000000000000000000000000000000000000000000000000000000000080000400000000000000000","status":"0x1","to":"0xb32d856cad3d2ef07c94867a800035e37241247c","transactionHash":"0x6a0359515efbce1047222ad3525c773755596a8635c80ee578ff25c160f88502","transactionIndex":"0x1d","type":"0x2"},"id":
        0}

        '
    headers:
      CF-RAY:
      - 9f9fd785d845301c-MAD
      Cache-Control:
      - max-age=0, private, must-revalidate
      Connection:
      - keep-alive
      Content-Type:
      - application/json; charset=utf-8
      Date:
      - Mon, 11 May 2026 08:33:58 GMT
      Nel:
      - '{"report_to":"cf-nel","success_fraction":0.0,"max_age":604800}'
      Report-To:
      - '{"group":"cf-nel","max_age":604800,"endpoints":[{"url":"https://a.nel.cloudflare.com/report/v4?s=mWjXQgYGpic5aDDXdVV2rSnaFAg9yCanTv0L5StsOyD70I2stQeyudbIiNUHfWj3c%2B6cn99x6kQasga%2BLdTABNFwYcp7xTCV9n%2FefvbFYbtMcUTSjzuQd90lPpkNg%2BJ8N4c1hQ%3D%3D"}]}'
      Server:
      - cloudflare
      alt-svc:
      - h3=":443"; ma=86400
      cf-cache-status:
      - DYNAMIC
      content-length:
      - '3105'
      strict-transport-security:
      - max-age=31536000; includeSubDomains
      vary:
      - accept-encoding
      x-credits-remaining:
      - '99860'
      x-ratelimit-limit:
      - '5'
      x-ratelimit-remaining:
      - '3'
      x-ratelimit-reset:
      - '281'
      x-request-id:
      - a74e88e73772ac08ff5d086ff0d08906
    status:
      code: 200
      message: OK
- request:
    body: null
    headers:
      Accept:
      - '*/*'
      Accept-Encoding:
      - gzip, deflate
      Connection:
      - keep-alive
      User-Agent:
      - rotki/1.42.2.dev421+g97b4186897
    method: GET
    uri: https://api.blockscout.com/8453/api/v2/transactions/0x6a0359515efbce1047222ad3525c773755596a8635c80ee578ff25c160f88502
  response:
    body:
      string: '{"l1_gas_used":"3240","priority_fee":"187883000000","raw_input":"0x0ce9a63d0000000000b1a2bc2ec5000000000000000000000000000000000000000000000000000000000000098f8352833589fcd6edb6e08f4c7c32d4f71b54bda029130000004ab7d32fc30000000005f5e1000058d15e1762800000640096695c76720000000000436c6970706572d26a5e62808e501a55ffd91f662387a646e1beb062c8e5a590e84212eb69f5acbcd043bfc6d2e7ec21c97c37ad10daa969f9fcd5df551f41b6a0f11ba225aa9c6ac7f09ff1a1e4465a9d1f34e3a899c33f1d3820","is_pending_update":false,"op_withdrawals":[],"result":"success","hash":"0x6a0359515efbce1047222ad3525c773755596a8635c80ee578ff25c160f88502","max_fee_per_gas":"5019000","revert_reason":null,"confirmation_duration":[0,2.0e3],"transaction_burnt_fee":"534456490992","type":2,"token_transfers_overflow":false,"confirmations":5333372,"position":29,"max_priority_fee_per_gas":"1000000","transaction_tag":null,"created_contract":null,"value":"50000000000000000","l1_fee_scalar":"0","from":{"ens_domain_name":"vnidnex.eth","hash":"0xd26a5e62808E501a55ffd91f662387a646E1Beb0","implementations":[],"is_contract":false,"is_scam":false,"is_verified":false,"metadata":null,"name":null,"private_tags":[],"proxy_type":null,"public_tags":[],"reputation":"ok","watchlist_names":[]},"gas_used":"187883","status":"ok","to":{"ens_domain_name":null,"hash":"0xb32D856cAd3D2EF07C94867A800035E37241247C","implementations":[],"is_contract":true,"is_scam":false,"is_verified":true,"metadata":{"tags":[{"meta":{},"name":"Clipper","ordinal":0,"slug":"clipper","tagType":"generic"},{"meta":{"tagIcon
        ":"https://blockscout-icons.s3.us-east-1.amazonaws.com/OLI_tag_logo.svg","textColor":"#C163D4","tooltipAttribution":"https://www.openlabelsinitiative.org?utm_source=blockscout","tooltipAttributionIcon":"https://blockscout-icons.s3.us-east-1.amazonaws.com/OLI_tag_logo.svg","tooltipDescription":"Provided
        by OLI"},"name":"ClipperPackedVerifiedExchange","ordinal":0,"slug":"clipperpackedverifiedexchange","tagType":"name"}]},"name":"ClipperPackedVerifiedExchange","private_tags":[],"proxy_type":null,"public_tags":[],"reputation":"ok","watchlist_names":[]},"authorization_list":[],"l1_fee":"1256695927","method":"packedTransmitAndSwap","fee":{"type":"actual","value":"723596186919"},"actions":[],"gas_limit":"291008","gas_price":"3844624","decoded_input":{"method_call":"packedTransmitAndSwap(uint256
        packedInput, uint256 packedOutput, uint256 packedDestination, bytes32 auxData,
        bytes32 r, bytes32 vs)","method_id":"0ce9a63d","parameters":[{"name":"packedInput","type":"uint256","value":"73075081866545145910184241635814150982796627148800000000000000000"},{"name":"packedOutput","type":"uint256","value":"234425170292292418462947160516283128103339560399926208787"},{"name":"packedDestination","type":"uint256","value":"2014395079860014922162781517786834091777729778926248646730036979463794"},{"name":"auxData","type":"bytes32","value":"0x0000000000436c6970706572d26a5e62808e501a55ffd91f662387a646e1beb0"},{"name":"r","type":"bytes32","value":"0x62c8e5a590e84212eb69f5acbcd043bfc6d2e7ec21c97c37ad10daa969f9fcd5"},{"name":"vs","type":"bytes32","value":"0xdf551f41b6a0f11ba225aa9c6ac7f09ff1a1e4465a9d1f34e3a899c33f1d3820"}]},"l1_gas_price":"61088564","token_transfers":[{"block_hash":"0x37707555a84b1d0c1630035449e3e36da0c7d0db3b83e3d0ac4b7aa8cde974de","block_number":40438954,"from":{"ens_domain_name":null,"hash":"0x0000000000000000000000000000000000000000","implementations":[],"is_contract":false,"is_scam":false,"is_verified":false,"metadata":{"tags":[{"meta":{},"name":"Null:
        0x000...000","ordinal":10,"slug":"null-0x000000","tagType":"name"},{"meta":{},"name":"Metamask
        User","ordinal":0,"slug":"metamask-user","tagType":"generic"},{"meta":{},"name":"Imtoken
        User","ordinal":0,"slug":"imtoken-user","tagType":"generic"},{"meta":{},"name":"Miner","ordinal":0,"slug":"miner","tagType":"generic"},{"meta":{},"name":"Burn","ordinal":0,"slug":"burn","tagType":"generic"},{"meta":{"tagIcon
        ":"https://blockscout-icons.s3.us-east-1.amazonaws.com/OLI_tag_logo.svg","textColor":"#C163D4","tooltipAttribution":"https://www.openlabelsinitiative.org?utm_source=blockscout","tooltipAttributionIcon":"https://blockscout-icons.s3.us-east-1.amazonaws.com/OLI_tag_logo.svg","tooltipDescription":"Provided
        by OLI"},"name":"Burn","ordinal":0,"slug":"burn","tagType":"name"},{"meta":{"alertStatus":"info","data":"This
        address is commonly used by projects to burn tokens (reducing total supply)
        or mint tokens (increasing total supply)."},"name":"note_0","ordinal":0,"slug":"note0","tagType":"note"},{"meta":{},"name":"Null","ordinal":0,"slug":"null","tagType":"protocol"}]},"name":null,"private_tags":[],"proxy_type":null,"public_tags":[],"reputation":"ok","watchlist_names":[]},"log_index":261,"method":null,"timestamp":null,"to":{"ens_domain_name":null,"hash":"0xb32D856cAd3D2EF07C94867A800035E37241247C","implementations":[],"is_contract":true,"is_scam":false,"is_verified":true,"metadata":{"tags":[{"meta":{},"name":"Clipper","ordinal":0,"slug":"clipper","tagType":"generic"},{"meta":{"tagIcon
        ":"https://blockscout-icons.s3.us-east-1.amazonaws.com/OLI_tag_logo.svg","textColor":"#C163D4","tooltipAttribution":"https://www.openlabelsinitiative.org?utm_source=blockscout","tooltipAttributionIcon":"https://blockscout-icons.s3.us-east-1.amazonaws.com/OLI_tag_logo.svg","tooltipDescription":"Provided
        by OLI"},"name":"ClipperPackedVerifiedExchange","ordinal":0,"slug":"clipperpackedverifiedexchange","tagType":"name"}]},"name":"ClipperPackedVerifiedExchange","private_tags":[],"proxy_type":null,"public_tags":[],"reputation":"ok","watchlist_names":[]},"token":{"address_hash":"0x4200000000000000000000000000000000000006","circulating_market_cap":"610481391.9508572","decimals":"18","exchange_rate":"2327.58","holders_count":"5197579","icon_url":"https://assets.coingecko.com/coins/images/39810/small/weth.png?1724139790","name":"L2
        Standard Bridged WETH (Base)","reputation":"ok","symbol":"WETH","total_supply":"252940518030923911382402","type":"ERC-20","volume_24h":"450022670.8085405"},"token_type":"ERC-20","total":{"decimals":"18","value":"50000000000000000"},"transaction_hash":"0x6a0359515efbce1047222ad3525c773755596a8635c80ee578ff25c160f88502","type":"token_minting"},{"block_hash":"0x37707555a84b1d0c1630035449e3e36da0c7d0db3b83e3d0ac4b7aa8cde974de","block_number":40438954,"from":{"ens_domain_name":null,"hash":"0xb32D856cAd3D2EF07C94867A800035E37241247C","implementations":[],"is_contract":true,"is_scam":false,"is_verified":true,"metadata":{"tags":[{"meta":{},"name":"Clipper","ordinal":0,"slug":"clipper","tagType":"generic"},{"meta":{"tagIcon
        ":"https://blockscout-icons.s3.us-east-1.amazonaws.com/OLI_tag_logo.svg","textColor":"#C163D4","tooltipAttribution":"https://www.openlabelsinitiative.org?utm_source=blockscout","tooltipAttributionIcon":"https://blockscout-icons.s3.us-east-1.amazonaws.com/OLI_tag_logo.svg","tooltipDescription":"Provided
        by OLI"},"name":"ClipperPackedVerifiedExchange","ordinal":0,"slug":"clipperpackedverifiedexchange","tagType":"name"}]},"name":"ClipperPackedVerifiedExchange","private_tags":[],"proxy_type":null,"public_tags":[],"reputation":"ok","watchlist_names":[]},"log_index":262,"method":null,"timestamp":null,"to":{"ens_domain_name":"vnidnex.eth","hash":"0xd26a5e62808E501a55ffd91f662387a646E1Beb0","implementations":[],"is_contract":false,"is_scam":false,"is_verified":false,"metadata":null,"name":null,"private_tags":[],"proxy_type":null,"public_tags":[],"reputation":"ok","watchlist_names":[]},"token":{"address_hash":"0x833589fCD6eDb6E08f4c7C32D4f71b54bdA02913","circulating_market_cap":"77848803351.48654","decimals":"6","exchange_rate":"0.999728","holders_count":"11986044","icon_url":"https://assets.coingecko.com/coins/images/6319/small/USDC.png?1769615602","name":"USDC","reputation":"ok","symbol":"USDC","total_supply":"4380781256597998","type":"ERC-20","volume_24h":"12226925844.996538"},"token_type":"ERC-20","total":{"decimals":"6","value":"160400210"},"transaction_hash":"0x6a0359515efbce1047222ad3525c773755596a8635c80ee578ff25c160f88502","type":"token_transfer"}],"base_fee_per_gas":"2844624","timestamp":"2026-01-06T02:40:55.000000Z","nonce":688,"historic_exchange_rate":"3295.76","transaction_types":["coin_transfer","contract_call","token_transfer"],"exchange_rate":"2331.41","block_number":40438954,"has_error_in_internal_transactions":null,"da_footprint_gas_scalar":"325"}'
    headers:
      CF-RAY:
      - 9f9fd7878daf03c7-MAD
      Cache-Control:
      - max-age=0, private, must-revalidate
      Connection:
      - keep-alive
      Content-Type:
      - application/json; charset=utf-8
      Date:
      - Mon, 11 May 2026 08:33:59 GMT
      Nel:
      - '{"report_to":"cf-nel","success_fraction":0.0,"max_age":604800}'
      Report-To:
      - '{"group":"cf-nel","max_age":604800,"endpoints":[{"url":"https://a.nel.cloudflare.com/report/v4?s=x1VxnGLEfRfs9kAM0JE3%2BZt0QhV%2F2CIT%2FPvs%2FIUgdx5alX96n8Ba0wyCk5jjNnOMK%2B%2B1PQmzovt7TjbsXuf4P8CzbbmnuJZa4DprnCIQbRjgSw6uniHjUzozWe8MoSIf2MNJvg%3D%3D"}]}'
      Server:
      - cloudflare
      alt-svc:
      - h3=":443"; ma=86400
      cf-cache-status:
      - DYNAMIC
      content-length:
      - '8359'
      strict-transport-security:
      - max-age=31536000; includeSubDomains
      vary:
      - accept-encoding
      x-credits-remaining:
      - '99840'
      x-ratelimit-limit:
      - '5'
      x-ratelimit-remaining:
      - '2'
      x-ratelimit-reset:
      - '9'
      x-request-id:
      - a456d5d29300bc977647f9e4964cc81f
    status:
      code: 200
      message: OK
version: 1
