interactions:
- request:
    body: '{"id": 0, "jsonrpc": "2.0", "method": "eth_getTransactionByHash", "params":
      ["0x39db7fc22c237e649949443d596e065259d527bd1c093413cfcc14c2b9faf4a9"]}'
    headers:
      Accept:
      - '*/*'
      Accept-Encoding:
      - gzip, deflate
      Connection:
      - keep-alive
      Content-Length:
      - '147'
      Content-Type:
      - application/json
      User-Agent:
      - rotki/1.41.4.dev742+g4f85aa271f
    method: POST
    uri: https://explorer.optimism.io/api/eth-rpc
  response:
    body:
      string: '{"jsonrpc":"2.0","result": {"accessList":[],"blockHash":"0xbca3a27a8f49679c2d664aad9aba1ce7977a4d92dfdf663746b73c0e19f4a8eb","blockNumber":"0x8729f7a","chainId":"0xa","from":"0x7a27075accbbc212b703fafbdc82146214ba0469","gas":"0x31cf4","gasPrice":"0x1886a","hash":"0x39db7fc22c237e649949443d596e065259d527bd1c093413cfcc14c2b9faf4a9","input":"0x199b83fa0000000000000000000000001111111254eeb25477b68fb85ed929f73a9605820000000000000000000000001111111254eeb25477b68fb85ed929f73a9605820000000000000000000000009bcef72be871e61ed4fbbc7630889bee758eb81d000000000000000000000000eeeeeeeeeeeeeeeeeeeeeeeeeeeeeeeeeeeeeeee000000000000000000000000000000000000000000000000016345785d8a000000000000000000000000000000000000000000000000000001958f7c1381ff640000000000000000000000007a27075accbbc212b703fafbdc82146214ba0469000000000000000000000000000000000000000000000000000000000000010000000000000000000000000000000000000000000000000000000000000000a8e449022e000000000000000000000000000000000000000000000000016345785d8a000000000000000000000000000000000000000000000000000001958f7c1381ff4c00000000000000000000000000000000000000000000000000000000000000600000000000000000000000000000000000000000000000000000000000000001a000000000000000000000004905220ca9d1001daa7be72e877243f4996002e02501326a000000000000000000000000000000000000000000000000","maxFeePerGas":"0x18c07","maxPriorityFeePerGas":"0x186a0","nonce":"0x42","r":"0xa61f096f0ae3dc331450956da15c6573294c7419f5b6688a121c4107f282e723","s":"0x2e295216503bed43e09fd2fce449460d964cf1b2b145b9bdfafca38678dc016b","to":"0x4c4af8dbc524681930a27b2f1af5bcc8062e6fb7","transactionIndex":"0xa","type":"0x2","v":"0x0","value":"0x0","yParity":"0x0"},"id":
        0}

        '
    headers:
      CF-RAY:
      - 9d085c8099be451d-ATL
      Cache-Control:
      - max-age=0, private, must-revalidate
      Connection:
      - keep-alive
      Content-Type:
      - application/json; charset=utf-8
      Date:
      - Thu, 19 Feb 2026 20:02:21 GMT
      Nel:
      - '{"report_to":"cf-nel","success_fraction":0.0,"max_age":604800}'
      Report-To:
      - '{"group":"cf-nel","max_age":604800,"endpoints":[{"url":"https://a.nel.cloudflare.com/report/v4?s=%2BrWU03v0Y4tX5TTi4p9cigNpDuKIzTgAj7A6a%2BHSArFD%2BYMYtNozL9POzObVs69c7l7MMqOFeahI%2BcPL1MSWdkV9l0e8LmTQwkZqvpt0vCqIZLZP"}]}'
      Server:
      - cloudflare
      Transfer-Encoding:
      - chunked
      access-control-allow-credentials:
      - 'true'
      access-control-allow-origin:
      - '*'
      access-control-expose-headers:
      - bypass-429-option,x-ratelimit-reset,x-ratelimit-limit,x-ratelimit-remaining,api-v2-temp-token
      alt-svc:
      - h3=":443"; ma=86400
      bypass-429-option:
      - no_bypass
      cf-cache-status:
      - DYNAMIC
      content-length:
      - '1670'
      strict-transport-security:
      - max-age=31536000; includeSubDomains
      x-ratelimit-limit:
      - '600'
      x-ratelimit-remaining:
      - '599'
      x-ratelimit-reset:
      - '38776'
      x-request-id:
      - aec66bfec25e13001749901edc77223c
    status:
      code: 200
      message: OK
- request:
    body: '{"id": 0, "jsonrpc": "2.0", "method": "eth_getBlockByNumber", "params":
      ["0x8729f7a", true]}'
    headers:
      Accept:
      - '*/*'
      Accept-Encoding:
      - gzip, deflate
      Connection:
      - keep-alive
      Content-Length:
      - '92'
      Content-Type:
      - application/json
      User-Agent:
      - rotki/1.41.4.dev742+g4f85aa271f
    method: POST
    uri: https://explorer.optimism.io/api/eth-rpc
  response:
    body:
      string: '{"jsonrpc":"2.0","result": {"baseFeePerGas":"0x1ca","blobGasUsed":"0x0","difficulty":"0x0","excessBlobGas":"0x0","extraData":"0x00000000fa00000002","gasLimit":"0x2625a00","gasUsed":"0x87f0b7","hash":"0xbca3a27a8f49679c2d664aad9aba1ce7977a4d92dfdf663746b73c0e19f4a8eb","logsBloom":"0x00103000500000010000108040000008200102080000400008440020c5900100050800002400020000000010000021010010004044022208007060004020a000000000000008288a000012081040080000c014000240020004004000000000000000010002040100000008000408081080804000001a0420000000120c280108002000010002200051100602040100105100114008200000000000000a30004082000000040000844000062000000400000008001000000900800020002000500010000200081000200000040052000000010140008c03402008000208203020001800090020020008040002000001000000000091830000c000180400010400","miner":"0x4200000000000000000000000000000000000011","mixHash":"0xb4111ae483463e5218e72d1fda9945f50989453adb1d0ee67500fb7f9324c02a","nonce":"0x0000000000000000","number":"0x8729f7a","parentBeaconBlockRoot":"0xd05b85d58450c6b3e62293505f20e8c66d52e5db57725cac9d3defc792f2a2ea","parentHash":"0xff305ce09c086e975377a133b290aa1456ddfc2c48da9cbfc6e5534d19b37273","receiptsRoot":"0x1140dd0a0880d6abdc2675cef11c93e874c54b03d8b841a8ef09ddbda5c20591","requestsHash":"0xe3b0c44298fc1c149afbf4c8996fb92427ae41e4649b934ca495991b7852b855","sha3Uncles":"0x1dcc4de8dec75d7aab85b567b6ccd41ad312451b948a7413f0a142fd40d49347","size":"0x45f2","stateRoot":"0xaa433d8fe8ed3cfc30622d1dcfb4f911917031d43984e793da6b7dfae7c40eda","timestamp":"0x68d918ad","transactions":[{"blockHash":"0xbca3a27a8f49679c2d664aad9aba1ce7977a4d92dfdf663746b73c0e19f4a8eb","blockNumber":"0x8729f7a","depositReceiptVersion":"0x1","from":"0xdeaddeaddeaddeaddeaddeaddeaddeaddead0001","gas":"0xf4240","gasPrice":"0x0","hash":"0xfe77220279302723eda9b936bed96ba5c29640f4c1822ab8a26da8eaa1742153","input":"0x098999be0000146b000f79c500000000000000000000000068d9185f000000000165fd0400000000000000000000000000000000000000000000000000000000074df11b000000000000000000000000000000000000000000000000000000000000000186b1787b93a0a3dec4bed7ff22827fb7637cacecdd3b62da65afbe75b5b535f00000000000000000000000006887246668a3b87f54deb3b94ba47a6f63f32985000000000000000000000000","mint":"0x0","nonce":"0x22cdd05","r":"0x0","s":"0x0","sourceHash":"0x6fa7423796f29b677682fc8aeab2cb9fe14016d9e3cb190164ebeea2fcaca70e","to":"0x4200000000000000000000000000000000000015","transactionIndex":"0x0","type":"0x7e","v":"0x0","value":"0x0","yParity":"0x0"},{"blockHash":"0xbca3a27a8f49679c2d664aad9aba1ce7977a4d92dfdf663746b73c0e19f4a8eb","blockNumber":"0x8729f7a","chainId":"0xa","from":"0xe93685f3bba03016f02bd1828badd6195988d950","gas":"0x76ea6","gasPrice":"0x1251a5","hash":"0x9f8e9dc06d4565c394fbe0950b5ca603596dc601f175fa134fcbca7bbdb30bb5","input":"0xcfc325700000000000000000000000000000000000000000000000000000000000000020000000000000000000000000f1fcb4cbd57b67d683972a59b6a7b1e2e8bf27e600000000000000000000000000000000000000000000000000000000000075e80000000000000000000000005634c4a5fed09819e3c46d86a965dd9447d86e470000000000000000000000000000000000000000000000000000000000068c59648768281fef8aefc01ae3acfa6677339883210e483bb33019a9c2fd967bb760000000000000000000000000000000000000000000000000000000000000010000000000000000000000000000000000000000000000000000000000000001600000000000000000000000000000000000000000000000000000000000029d74000000000000000000000000000000000000000000000000000000000000002b01000100000000000000000000000060f21cca7c58904032919389425f8c330a8d77880000000004f952270000000000000000000000000000000000000000000000000000000000000000000000000000000000000000000000000000000000","nonce":"0xc52414","r":"0x6933c0954bbe735f6bf503d4e6dfa819939f2f2e404d20039034b1113d130072","s":"0x4639ce316cd55677ba42773177738a6ae8ab0aba3c1bf225909fc8db5c05b282","to":"0x2d2ea0697bdbede3f01553d2ae4b8d0c486b666e","transactionIndex":"0x1","type":"0x0","v":"0x38","value":"0x0"},{"accessList":[],"blockHash":"0xbca3a27a8f49679c2d664aad9aba1ce7977a4d92dfdf663746b73c0e19f4a8eb","blockNumber":"0x8729f7a","chainId":"0xa","from":"0x58d304b0e691ed65b649098866ac4b8b8672d780","gas":"0x989680","gasPrice":"0xf440b","hash":"0x31151c87057b965ec0d0906d9a968b0aabaf78b93d2f008fb81bd28fc7f38ffd","input":"0x00000000000068d918b41c229f582f8c9dc9dff9ab946b7cd5d46abf542251ed6b79929313617f6726c687493dc3b1b6db9f0c43de9602d2e2aa0845103805290c461eb9ab10ceaa336ec3bddaf7bf8d595a0723c4332640d5f8b95e3ff24fcf08a2b0762461f3dcde28a82d021fb3cf6e48f1e7b10213e7b6d87d4c073c7fdb7b0001f400000a000000029490e281c4f738fa7b3b2343f07998beef66a0600027100000c800000002782dcc2cd3a65405baeb794269703e9c29a175cc000bb800003c0000000204f6c85a1b00f6d9b75f91fd23835974cc07e65c00006400000100000003ee1bac98527a9fdd57fccf967817215b083ce1f00001a400006402ebdd0339ed27d101aa4b7ce1cb4293b877954b8b5e14e5000bc20000c801bfcc037cfc2da3ba598ef4de692905fedca32565ab836e000bcc0000c804b33d03478946bcd4a5a22b316470f5486fafb928c0ba2500015a00006402f36e0285149247691df622eaf1a8bd0cafd40bc45154a90001f400000a000000028530f0272a4efe974cf8b9f7fe024711d08daf700027100000c800000001db1fe6da83698885104da02a6e0b3b65c0b0de80000bb80000000000000268f5c0a2de713a54991e01858fd27a3832401849000bb800003c00000000442659a6d04b907c879032da1ef634548110dd37000bb80000000000000188391365c225973032275db256b9d15f845d2c72000bb800000000000002b533c12fb4e7b53b5524eab9b47d93ff6c7a456f000bb800003c00000002c1738d90e2e26c35784a0d3e3d8a9f795074bca4000bb800003c00000003ebd5311bea1948e1441333976eadcfe5fbda777c000a8c0000c80447b004ebe9db89947dd14b34817843231b74044084b04d5b4fea5b4cd1b433b3e5b99f00001900000100000002c858a329bf053be78d6239c4a4343b8fbd21472b0001f400000a0000000384ce89b4f6f67e523a81a82f9f2f14d84b726f6b000034000001fffffa020e09db9fd122a71c237a094d2d1bd44d48339f3400006400000100000003a9f987869bfe56d3a2ece2e79df55684d0bbcd8b0001f400006402f374034da46c6afe7322b66efefda1f702605cbe08e0bd00006400000100000002962e23cd3f58f887a5238082a75d223f7189062900006400000100000002dd0c6bae8ad5998c358b823df15a2a4181da1b80000bb800003c000000036cfdebcc8bf2548967d4e02c058290634e4931d1000190000064fd0c8c03f7f575f2c0f6c99fa9efe1bde9e11fa10be4fef900006400000100000601a0a215de234276cac1b844fd58901351a50fec8a002328000000000000011eaa860dca29a5124f665f7d80affed92e877681000bb800000000000004ac4115c780e2c68df8a1167fcc2503296feafd75167d9f8fd80705759a221e85000bb800003c00000001dff90e4a6c229565f25337b1db9fa12f6d8cb118000bb800000000000002ff7fbdf7832ae524deda39ca402e03d92adff7a5000bb800003c00000002d4cb5566b5c16ef2f4a08b1438052013171212a20027100000c800000002394a9fcbab8599437d9ec4e5a4a0eb7cb1fd2f690001f400000a0000000273b14a78a0d396c521f954532d43fd5ffe385216000bb800003c000000022b959ccb3c8fc1ed7769004742c197e28251027e00004100000100000003bf30ff33cf9c6b0c48702ff17891293b002dfea400005a00000100078c02eb0d8d9e19b749efb20c67d71ee50b46dfe5755f00006400000100000003e5cf854f63152067059afd38e03fefb6cbe25df3000bb80000c8015be2034dc22588ade05c40338a9d95a6da9dcee68bcd600001710000c801544501e9581d0f1a628b038fc8b2a7f5a7d904f0e2f937002710000000000000018f0364cd47fb819953d9096bda1ec8017829aaa2000bb800000000000001894d6ea97767ebecefe01c9410f6bd67935aa952000bb8000000000000027de4c593fe83417ca6ef98d7cf59c99d304f41c9000bb800003c000000039894c14f090a452501f402e37302e58cc46007a3000a8c0000c8017979250300000001010200030003000400000103000501060007010300080109000a0103000b010c010d00030003000400070103000b010e000f0102010e011000030007001101120003000700130112000300000014001501030015001601120003000000170118000400190116001a010001030005011b00070103001c011d00070102001e001f010201070120000300070021012200020107010f00020106011b0003002300040007010300230004000f010300240004002501020114001a01030107010b011000030023002601270002000000070103002701260024010300270128010500030007001b0105000200070000010400240029012a00070102002b012c0002011301110003000700130118000300070013011900","maxFeePerGas":"0x3938700","maxPriorityFeePerGas":"0xf4241","nonce":"0x1738","r":"0x8b6e7922f2c1092843dacb63b8b545c3caa581a6be65898955560592673acaf5","s":"0x64ac6f32144079edfd25de01fa4029222535629333582c23298770aa6712eeed","to":"0xa41b099535da7aa7fde4aa952791dad850fb1f4c","transactionIndex":"0x2","type":"0x2","v":"0x0","value":"0x0","yParity":"0x0"},{"accessList":[],"blockHash":"0xbca3a27a8f49679c2d664aad9aba1ce7977a4d92dfdf663746b73c0e19f4a8eb","blockNumber":"0x8729f7a","chainId":"0xa","from":"0xb93bca62b916c6f2bd98280d3544a660c225d812","gas":"0xb71b00","gasPrice":"0xf440a","hash":"0xecbdb9e5077fadde2ce8fadb39c02179020a03800b3c8bc421dd23d069a49dc6","input":"0x00000000000068d918e71b2dcdba8c65c6179476fd79d5b3b71d5df52319ab9565289a60d3e05389c1d26d7d6f82f8bef610eba0b6acf1295bad74ad0415f2d22158112d58584587ccc474d7cc36aa0d8ce7a6fb961fc8016a7480e464196fa26eaf3e67d6b208204d59734003319c0dd36284ac24a6b2bee73929f699b9f48c3800013d000064fbfb310285c31ffa3706d1cce9d525a00f1c7d4a2911754c0001f400000a000000021fb3cf6e48f1e7b10213e7b6d87d4c073c7fdb7b0001f400000a000000029490e281c4f738fa7b3b2343f07998beef66a0600027100000c800000002782dcc2cd3a65405baeb794269703e9c29a175cc000bb800003c000000020d165f5bcc9cbb9cf75cef8b09cc77b1749a2a3300006400000100000002a8a5356ee5d02fe33d72355e4f698782f8f199e8000064000001000000022ab22ac86b25bd448a4d9dc041bd2384655299c40000640000010000000204f6c85a1b00f6d9b75f91fd23835974cc07e65c00006400000100000003ee1bac98527a9fdd57fccf967817215b083ce1f00001a400006402ebdd020e09db9fd122a71c237a094d2d1bd44d48339f3400006400000100000004be6f020332287f77a2d73520a9f9e925ecd79785aadeef00507e77c69cb5a900000bb800003c00000002adab76dd2dca7ae080a796f0ce86170e482afb4a000bb800003c00000003478946bcd4a5a22b316470f5486fafb928c0ba2500015a00006402f36e01c5c247580a4a6e4d3811c0da6215057aac480bac000bb8000000000000014ffcfbf4c01746dafc3fe0719ab3a83814130f22000bb80000000000000339ed27d101aa4b7ce1cb4293b877954b8b5e14e5000bc20000c801bfcc037cfc2da3ba598ef4de692905fedca32565ab836e000bcc0000c804b33d0285149247691df622eaf1a8bd0cafd40bc45154a90001f400000a000000028530f0272a4efe974cf8b9f7fe024711d08daf700027100000c800000001db1fe6da83698885104da02a6e0b3b65c0b0de80000bb8000000000000023f60fca6c50ae3bcd95ae150b4c57f0ba5c3f2ad000bb800003c00000004ac4115c780e2c68df8a1167fcc2503296feafd75167d9f8fd80705759a221e85000bb800003c0000000268f5c0a2de713a54991e01858fd27a3832401849000bb800003c00000000442659a6d04b907c879032da1ef634548110dd37000bb80000000000000188391365c225973032275db256b9d15f845d2c72000bb8000000000000011eaa860dca29a5124f665f7d80affed92e877681000bb800000000000001dff90e4a6c229565f25337b1db9fa12f6d8cb118000bb800000000000002ff7fbdf7832ae524deda39ca402e03d92adff7a5000bb800003c00000002b533c12fb4e7b53b5524eab9b47d93ff6c7a456f000bb800003c00000002c1738d90e2e26c35784a0d3e3d8a9f795074bca4000bb800003c00000003ebd5311bea1948e1441333976eadcfe5fbda777c000a8c0000c80447b0034dc22588ade05c40338a9d95a6da9dcee68bcd600001710000c801544504ebe9db89947dd14b34817843231b74044084b04d5b4fea5b4cd1b433b3e5b99f00001900000100000002c858a329bf053be78d6239c4a4343b8fbd21472b0001f400000a0000000384ce89b4f6f67e523a81a82f9f2f14d84b726f6b000034000001fffffa0203af20bdaaffb4cc0a521796a223f7d85e2aac31000bb800003c00000002d28f71e383e93c570d3edfe82ebbceb35ec6c4120000640000010000000451bf4cc5b8d9f7f759e41f572fe2a25bc2aeb42432bf12544a350595e5c8bb430001f400000a000000036cfdebcc8bf2548967d4e02c058290634e4931d1000190000064fd0c8c02f1f199342687a7d78bcc16fce79fa2665ef870e100006400000100000003a9f987869bfe56d3a2ece2e79df55684d0bbcd8b0001f400006402f374034da46c6afe7322b66efefda1f702605cbe08e0bd00006400000100000002a73c628eaf6e283e26a7b1f8001cf186aa4c0e8e00006400000100000002962e23cd3f58f887a5238082a75d223f7189062900006400000100000002dd0c6bae8ad5998c358b823df15a2a4181da1b80000bb800003c00000003f7f575f2c0f6c99fa9efe1bde9e11fa10be4fef9000064000001000006035483484f876218908ca435f08222751f7f7b2a3b000064000001fffffb0322be4975c78b77979014d6a6bc0140e0eaf219870001f40000640447b701a0a215de234276cac1b844fd58901351a50fec8a0023280000000000000219ea026886cbb7a900ecb2458636d72b5cae223b000bb800003c000000046d8dfaaf69a5b464cc54b00086ce8754c47f71f1fae11250acae6f0a122519d2000bb800003c00000002d4cb5566b5c16ef2f4a08b1438052013171212a20027100000c800000002394a9fcbab8599437d9ec4e5a4a0eb7cb1fd2f690001f400000a0000000273b14a78a0d396c521f954532d43fd5ffe385216000bb800003c000000022b959ccb3c8fc1ed7769004742c197e28251027e00004100000100000003bf30ff33cf9c6b0c48702ff17891293b002dfea400005a00000100078c02eb0d8d9e19b749efb20c67d71ee50b46dfe5755f00006400000100000003e5cf854f63152067059afd38e03fefb6cbe25df3000bb80000c8015be201e9581d0f1a628b038fc8b2a7f5a7d904f0e2f937002710000000000000018f0364cd47fb819953d9096bda1ec8017829aaa2000bb800000000000001894d6ea97767ebecefe01c9410f6bd67935aa952000bb8000000000000027de4c593fe83417ca6ef98d7cf59c99d304f41c9000bb800003c000000039894c14f090a452501f402e37302e58cc46007a3000a8c0000c801797936020000010100030002000301040003010501060007000300080009000201030002000a000b00030000010c000d01020002000d01030008000e010f000300100111000d010300120113001401020115011600030017011801190003001a0116000d0102001b001c010300080009000d01030017011d001e0102011d011f0003000d001d01200003000d002101220003000d002301220003002401250002010200020026000300270128001200030002000a002901030029002a012200030002002b012200030002002c012d00040027012a002e01020103012f0130011f000300100131000d01020111013100020032003300030002000c01000002010d01340003000d003501360002010d011e0003000d0035010100020002001e010300370009000d010300370009001e01030038000900390102010a002e01030020013a00380103010d0117011f0003001a0115000d01030037003a012000030020013b01100003000d003101100002000d000201040038003c013d000d0102003e013f0002012301210003000d0023012d0003000d0023012700","maxFeePerGas":"0x3938700","maxPriorityFeePerGas":"0xf4240","nonce":"0x11253","r":"0xde3c78369ef1c3ca306bb3828c04427f3fd121da3b4a1255003c031aff397889","s":"0x4a821cb7178eff3ae6a64d4d8e718e0a5bbf43db8e27e3f0226b60bbd30c8a82","to":"0xa41b099535da7aa7fde4aa952791dad850fb1f4c","transactionIndex":"0x3","type":"0x2","v":"0x1","value":"0x0","yParity":"0x1"},{"accessList":[],"blockHash":"0xbca3a27a8f49679c2d664aad9aba1ce7977a4d92dfdf663746b73c0e19f4a8eb","blockNumber":"0x8729f7a","chainId":"0xa","from":"0xc26a9d6c2fccd410256d959aec4fc66472a56779","gas":"0x7a1200","gasPrice":"0xf440a","hash":"0xaafd16a8d759ca8eb8c4e4b17cf0bf4e2f106046944706ed266c82dc3bffa477","input":"0x0004060342000000000000000000000000000000000000428700daec35af8ff88c16bdf0418774cb3d7599b400271000000000000000000000000000000000000000008700daec35af8ff88c16bdf0418774cb3d7599b4000bb80b2c639c533813f4aa9d7837caf62653d097ff8594b008aa00579c1307b0ef2c499ad98a8ce58e580000191d4dc22588ade05c40338a9d95a6da9dcee68bcd6000c80025000000000193e65b5d94aec601b54f68d9d1581fc686d08f00c803e8000000000392b358ce4547601befa962680bede836606ae2003c012c0000000084a67cd00eb244edca2288346add251a783243c80032002800000000000000000000000000000000000000000000000000c883e8000000000000000000000000000000000000000000000000003c812c00000000319c0dd36284ac24a6b2bee73929f699b9f48c38006400200000000085c31ffa3706d1cce9d525a00f1c7d4a2911754c000a0032000000002b959ccb3c8fc1ed7769004742c197e28251027e0001000000000000bf30ff33cf9c6b0c48702ff17891293b002dfea40001000900000000b29a022ff4b37bdfb21e5f1daff4af5a22aa9510000a003200000000894d6ea97767ebecefe01c9410f6bd67935aa9524000412c00000000146eda2f1d35efb5eef5703acec701c68e1503d8000a0032000000007de4c593fe83417ca6ef98d7cf59c99d304f41c9003c012c000000009894c14f090a452501f402e37302e58cc46007a300c8010e00000000478946bcd4a5a22b316470f5486fafb928c0ba2500640023000000002fa71491f8070fa644d97b4782db5734854c0f6f0001000a0000000079c912fef520be002c2b6e57ec4324e260f38e5000004032000000001eaa860dca29a5124f665f7d80affed92e8776814000412c000000003f60fca6c50ae3bcd95ae150b4c57f0ba5c3f2ad003c012c000000007cfc2da3ba598ef4de692905fedca32565ab836e00c8012e0000000039ed27d101aa4b7ce1cb4293b877954b8b5e14e500c8012d00000000fc1f3296458f9b2a27a0b91dd7681c4020e09d05000a003200000000e5cf854f63152067059afd38e03fefb6cbe25df300c8012c00000000b533c12fb4e7b53b5524eab9b47d93ff6c7a456f003c012c00000000c1738d90e2e26c35784a0d3e3d8a9f795074bca4003c012c00000000f25bbc18a607bbe218c87ba1ff0e673d9b53dd5800c8012c0000000000000000000000000000000000000000000000000001800300000000c858a329bf053be78d6239c4a4343b8fbd21472b000a003200000000000300000182020000830300000485020006870200880903000a8b0c02000d8e03008f1091030012930f03008f149502000096030000048203000097080300028b0f03008f188002008f190300029a0f03008f1b9c","maxFeePerGas":"0x2dca54","maxPriorityFeePerGas":"0xf4240","nonce":"0xc91a0","r":"0xeda3975050de4dd52784b938d98bdfe38d1dec8b09a8be8c28880486c0f0d4ce","s":"0x98101979b687479b1740c5382fd75e58d4e36679226c3ef504e50200df6abb0","to":"0x6e9f302f33bfb76fb7d9592c940d5bf24a3fdbb4","transactionIndex":"0x4","type":"0x2","v":"0x1","value":"0x0","yParity":"0x1"},{"accessList":[],"blockHash":"0xbca3a27a8f49679c2d664aad9aba1ce7977a4d92dfdf663746b73c0e19f4a8eb","blockNumber":"0x8729f7a","chainId":"0xa","from":"0x8835669696fb92839ab198cd80ce9f0d35f45ad5","gas":"0xd567c","gasPrice":"0xf440a","hash":"0x0b3bb8df2941e593ae1fb3ddedec325e3d778f6d32cb33c773200f327e613fa1","input":"0x6a76120200000000000000000000000042000000000000000000000000000000000000210000000000000000000000000000000000000000000000000000000000000000000000000000000000000000000000000000000000000000000000000000014000000000000000000000000000000000000000000000000000000000000000000000000000000000000000000000000000000000000000000000000000000000000000000000000000000000000000000000000000000000000000000000000000000000000000000000000000000000000000000000000000000000000000000000000000000000000000000000000000000000000000000000000000000000000000000000000000000000000000000000000000000000000000000000000000000000000000000000000000000000000000000000000000000000000004000000000000000000000000000000000000000000000000000000000000000284f17325e70000000000000000000000000000000000000000000000000000000000000020b77b597c6b8404139df340a738e9252ff7e758564562d34694ebfd827027086500000000000000000000000000000000000000000000000000000000000000400000000000000000000000002d0f1e10cc0cd57d5de8f32302fc1f0c19386c4300000000000000000000000000000000000000000000000000000000000000000000000000000000000000000000000000000000000000000000000000000000000000000000000000000000000000000000000000000000000000000000000000000000000000000000000000000000000000000000000000000000000000c00000000000000000000000000000000000000000000000000000000000000000000000000000000000000000000000000000000000000000000000000000014000000000000000000000000000000000000000000000000000000000000000200000000000000000000000000000000000000000000000000000000000000004000000000000000000000000000000000000000000000000000000000000000a0000000000000000000000000000000000000000000000000000000000000004000000000000000000000000000000000000000000000000000000000000000c000000000000000000000000000000000000000000000000000000000000000400000000000000000000000000000000000000000000000000000000000000100000000000000000000000000000000000000000000000000000000000000005000000000000000000000000000000000000000000000000000000000000001800000000000000000000000000000000000000000000000000000000000000040000000000000000000000000000000000000000000000000000000000000000000000000000000000000000000000000000000000000000000000410000000000000000000000008835669696fb92839ab198cd80ce9f0d35f45ad5000000000000000000000000000000000000000000000000000000000000000001000000000000000000000000000000000000000000000000000000000000005afe003433613232343763663835306565386462343564646561393238633361","maxFeePerGas":"0xf4465","maxPriorityFeePerGas":"0xf4240","nonce":"0x562d3","r":"0x8bbb85842ed1e8cceaaf62c2779caa40b33a784345be14cea5dc20f76522c0c1","s":"0x1c19b2d255d690e25962500ac3a42038d7cb887bb4257a63510c24f8ef6735a4","to":"0x54efe9c4d7d91e2690f257a7855aad4b21e20745","transactionIndex":"0x5","type":"0x2","v":"0x0","value":"0x0","yParity":"0x0"},{"accessList":[],"blockHash":"0xbca3a27a8f49679c2d664aad9aba1ce7977a4d92dfdf663746b73c0e19f4a8eb","blockNumber":"0x8729f7a","chainId":"0xa","from":"0x3f6976003383513f0c5b6f2022ededbbe77e4d38","gas":"0xb71b00","gasPrice":"0x62f8c","hash":"0xb9a2254ba61801046348ab65838e73b96a512cc1dbf740b737a286993b73ec03","input":"0x03000d010100019a0064000000011111010101010000478857adc5a5a22b316461e4597fbfa938d0ba3401020000190001ebe9db88856cd04a35807843231a65155184b04d5b4ffb4a5dc1a423a3f5b98e00010001f4000a000000011111010101010000c859b238ae053be78d6228d5b5242b9fad31473a04000d010100005a0001000000011111010101010000bf31ee22de9c6b0c48703ee06981392b103dfeb50100000bb800000000000111110101010100008f0275dc56fb819953d9187acb0ed8116839aab30000000bb80000000000011111010101010000894c7fb86667ebecefe00d8501e6ad77834aa943010100019a0064000000011111010101010000478857adc5a5a22b316461e4597fbfa938d0ba3402000d010100019a0064000000011111010101010000478857adc5a5a22b316461e4597fbfa938d0ba3401010001f4000a0000000111110101010100001fb2de7f59f1e7b10213f6a7c96d5c172c6fdb6a","maxFeePerGas":"0x24b5d6","maxPriorityFeePerGas":"0x62dc2","nonce":"0x39ef1","r":"0x925372cdbc30ec904bc0c46daa133d329722ca87630d0b733e22d13e1f94ec9a","s":"0x4bd49095a463b074fe6ca72ed9affc855eee94b902d339079b49dc211f48c94b","to":"0x61d1e5e08c20b5628bc81f67952dbd01441cbffb","transactionIndex":"0x6","type":"0x2","v":"0x0","value":"0x0","yParity":"0x0"},{"accessList":[],"blockHash":"0xbca3a27a8f49679c2d664aad9aba1ce7977a4d92dfdf663746b73c0e19f4a8eb","blockNumber":"0x8729f7a","chainId":"0xa","from":"0xd2e286c3caa5dcfa12066cf52dd0102542a59200","gas":"0x7a1200","gasPrice":"0x18ecd","hash":"0x81b4d3ac90eebddfdab16b6011451c3ebb1505be77790ceadbe339edfce669fe","input":"0x0004060342000000000000000000000000000000000000428700daec35af8ff88c16bdf0418774cb3d7599b400271000000000000000000000000000000000000000008700daec35af8ff88c16bdf0418774cb3d7599b4000bb80b2c639c533813f4aa9d7837caf62653d097ff8594b008aa00579c1307b0ef2c499ad98a8ce58e580000191d7de4c593fe83417ca6ef98d7cf59c99d304f41c9003c012c000000009894c14f090a452501f402e37302e58cc46007a300c8010e000000000392b358ce4547601befa962680bede836606ae2003c012c00000000f25bbc18a607bbe218c87ba1ff0e673d9b53dd5800c8012c00000000478946bcd4a5a22b316470f5486fafb928c0ba2500640023000000001eaa860dca29a5124f665f7d80affed92e8776814000412c000000003f60fca6c50ae3bcd95ae150b4c57f0ba5c3f2ad003c012c000000004dc22588ade05c40338a9d95a6da9dcee68bcd6000c8002500000000e5cf854f63152067059afd38e03fefb6cbe25df300c8012c000000002b959ccb3c8fc1ed7769004742c197e28251027e0001000000000000b29a022ff4b37bdfb21e5f1daff4af5a22aa9510000a003200000000894d6ea97767ebecefe01c9410f6bd67935aa9524000412c00000000146eda2f1d35efb5eef5703acec701c68e1503d8000a0032000000000193e65b5d94aec601b54f68d9d1581fc686d08f00c803e8000000002fa71491f8070fa644d97b4782db5734854c0f6f0001000a0000000079c912fef520be002c2b6e57ec4324e260f38e5000004032000000007cfc2da3ba598ef4de692905fedca32565ab836e00c8012e0000000039ed27d101aa4b7ce1cb4293b877954b8b5e14e500c8012d00000000fc1f3296458f9b2a27a0b91dd7681c4020e09d05000a003200000000000000000000000000000000000000000000000000c883e8000000000000000000000000000000000000000000000000003c812c00000000319c0dd36284ac24a6b2bee73929f699b9f48c38006400200000000085c31ffa3706d1cce9d525a00f1c7d4a2911754c000a00320000000000000000000000000000000000000000000000000001800300000000c858a329bf053be78d6239c4a4343b8fbd21472b000a00320000000084a67cd00eb244edca2288346add251a783243c80032002800000000bf30ff33cf9c6b0c48702ff17891293b002dfea40001000900000000b533c12fb4e7b53b5524eab9b47d93ff6c7a456f003c012c00000000c1738d90e2e26c35784a0d3e3d8a9f795074bca4003c012c00000000000200008103000283040300058604030007880903000a8b0c0300028b040300070d820300840e8f03008410910200079203000713820300071394020015960300841798020007990200891a0300841b870200841c","maxFeePerGas":"0x201517","maxPriorityFeePerGas":"0x18d03","nonce":"0xc92e0","r":"0x36acb234fd3ddb21839dc6847fdd730fca8dc1c5eb7f4d46ac80a5931d0b6ff4","s":"0x483b2ccb2cc95e7b6e06e7fdc1363b6d3cccdc0d731c8cd2968b472cae3ca0da","to":"0x6e9f302f33bfb76fb7d9592c940d5bf24a3fdbb4","transactionIndex":"0x7","type":"0x2","v":"0x0","value":"0x0","yParity":"0x0"},{"accessList":[],"blockHash":"0xbca3a27a8f49679c2d664aad9aba1ce7977a4d92dfdf663746b73c0e19f4a8eb","blockNumber":"0x8729f7a","chainId":"0xa","from":"0xd968352000dabcdc098bac0429872d813926b7ce","gas":"0xb71b00","gasPrice":"0x1886a","hash":"0x6bb1fd296ce92011a25f5ef489e94a88524b6fcac1633bbd34b423c1c49deb55","input":"0x00000000000068d918e71b4f955ca424d48d5659305049bdd809d435c0db4dd61cdc2a0f44baaa1fc27f9a409cd24ae81e3b37ae695026e29d9dfa69f76b055d1807c7763a79f1b87ae376d7cc36aa0d8ce7a6fb961fc8016a7480e464196fa26eaf3e67d6b208204d59734d016da87897bb36d0e2bc4e69c407935bcc7fa9d9c9002710000000000000017e1357fa56c0ecfe69daf22e08489ae8de56d86c00271000000000000002fc1f3296458f9b2a27a0b91dd7681c4020e09d050001f400000a0000000339ed27d101aa4b7ce1cb4293b877954b8b5e14e5000bc20000c801bfcc02bcfac19a0036ada56496316ee5cf388c2af2bf58000bb800003c000000022ae3d6096d8215ac2acddf30c60caa984ea5debe000bb800003c000000034e5541815227e3272c405886149f45d2f437c7ff000a8c0000c8042ea503478946bcd4a5a22b316470f5486fafb928c0ba2500015a00006402f36e020fb07e6d6e1f52c839608e1436d2ea810cf072570027100000c80000000158e6433a6903886e440ddf519ecc573c4046a6b2002710000000000000021fb3cf6e48f1e7b10213e7b6d87d4c073c7fdb7b0001f400000a00000003a9f987869bfe56d3a2ece2e79df55684d0bbcd8b0001f400006402f37404be6f020332287f77a2d73520a9f9e925ecd79785aadeef00507e77c69cb5a900000bb800003c000000013d5cbc66c366a51975918a132b1809c34d5c6fa2000bb800000000000001c04754f8027abbfe9eea492c9cc78b66946a07d1000bb8000000000000021529e6ac4819fd7f4fa11822b2d3d0ef870884df0027100000c800000001a0a215de234276cac1b844fd58901351a50fec8a002328000000000000033c01ec09d15d5450fc702dc4353b17cd2978d8a500006400000104381d02adb35413ec50e0afe41039eac8b930d313e94fa40001f400000a00000002d28f71e383e93c570d3edfe82ebbceb35ec6c41200006400000100000003319c0dd36284ac24a6b2bee73929f699b9f48c3800013d000064fbfb310285c31ffa3706d1cce9d525a00f1c7d4a2911754c0001f400000a000000034dc22588ade05c40338a9d95a6da9dcee68bcd600001710000c80154450451bf4cc5b8d9f7f759e41f572fe2a25bc2aeb42432bf12544a350595e5c8bb430001f400000a00000004edba0a2a9dc73acf4b130e07605cb4c212bbd98a31c9cd442cfb8cf5b4e093e70001f400000a000000029490e281c4f738fa7b3b2343f07998beef66a0600027100000c800000002782dcc2cd3a65405baeb794269703e9c29a175cc000bb800003c000000020d165f5bcc9cbb9cf75cef8b09cc77b1749a2a3300006400000100000002a8a5356ee5d02fe33d72355e4f698782f8f199e8000064000001000000022ab22ac86b25bd448a4d9dc041bd2384655299c40000640000010000000204f6c85a1b00f6d9b75f91fd23835974cc07e65c00006400000100000003ee1bac98527a9fdd57fccf967817215b083ce1f00001a400006402ebdd020e09db9fd122a71c237a094d2d1bd44d48339f3400006400000100000002adab76dd2dca7ae080a796f0ce86170e482afb4a000bb800003c00000001c5c247580a4a6e4d3811c0da6215057aac480bac000bb8000000000000014ffcfbf4c01746dafc3fe0719ab3a83814130f22000bb8000000000000037cfc2da3ba598ef4de692905fedca32565ab836e000bcc0000c804b33d0285149247691df622eaf1a8bd0cafd40bc45154a90001f400000a000000028530f0272a4efe974cf8b9f7fe024711d08daf700027100000c800000001db1fe6da83698885104da02a6e0b3b65c0b0de80000bb80000000000000268f5c0a2de713a54991e01858fd27a3832401849000bb800003c00000000442659a6d04b907c879032da1ef634548110dd37000bb80000000000000188391365c225973032275db256b9d15f845d2c72000bb8000000000000011eaa860dca29a5124f665f7d80affed92e877681000bb800000000000004ac4115c780e2c68df8a1167fcc2503296feafd75167d9f8fd80705759a221e85000bb800003c00000001dff90e4a6c229565f25337b1db9fa12f6d8cb118000bb800000000000002ff7fbdf7832ae524deda39ca402e03d92adff7a5000bb800003c00000002b533c12fb4e7b53b5524eab9b47d93ff6c7a456f000bb800003c00000002c1738d90e2e26c35784a0d3e3d8a9f795074bca4000bb800003c00000003ebd5311bea1948e1441333976eadcfe5fbda777c000a8c0000c80447b004ebe9db89947dd14b34817843231b74044084b04d5b4fea5b4cd1b433b3e5b99f00001900000100000002c858a329bf053be78d6239c4a4343b8fbd21472b0001f400000a0000000384ce89b4f6f67e523a81a82f9f2f14d84b726f6b000034000001fffffa0203af20bdaaffb4cc0a521796a223f7d85e2aac31000bb800003c000000036cfdebcc8bf2548967d4e02c058290634e4931d1000190000064fd0c8c02f1f199342687a7d78bcc16fce79fa2665ef870e1000064000001000000034da46c6afe7322b66efefda1f702605cbe08e0bd00006400000100000002a73c628eaf6e283e26a7b1f8001cf186aa4c0e8e00006400000100000002962e23cd3f58f887a5238082a75d223f7189062900006400000100000002dd0c6bae8ad5998c358b823df15a2a4181da1b80000bb800003c00000003f7f575f2c0f6c99fa9efe1bde9e11fa10be4fef9000064000001000006035483484f876218908ca435f08222751f7f7b2a3b000064000001fffffb0322be4975c78b77979014d6a6bc0140e0eaf219870001f40000640447b70219ea026886cbb7a900ecb2458636d72b5cae223b000bb800003c000000046d8dfaaf69a5b464cc54b00086ce8754c47f71f1fae11250acae6f0a122519d2000bb800003c00000002d4cb5566b5c16ef2f4a08b1438052013171212a20027100000c800000002394a9fcbab8599437d9ec4e5a4a0eb7cb1fd2f690001f400000a0000000273b14a78a0d396c521f954532d43fd5ffe385216000bb800003c000000022b959ccb3c8fc1ed7769004742c197e28251027e00004100000100000003bf30ff33cf9c6b0c48702ff17891293b002dfea400005a00000100078c02eb0d8d9e19b749efb20c67d71ee50b46dfe5755f00006400000100000003e5cf854f63152067059afd38e03fefb6cbe25df3000bb80000c8015be2023f60fca6c50ae3bcd95ae150b4c57f0ba5c3f2ad000bb800003c000000018f0364cd47fb819953d9096bda1ec8017829aaa2000bb800000000000001894d6ea97767ebecefe01c9410f6bd67935aa952000bb8000000000000027de4c593fe83417ca6ef98d7cf59c99d304f41c9000bb800003c000000039894c14f090a452501f402e37302e58cc46007a3000a8c0000c80179793c0300000101000200020003010400030005010600070102000801090002000a00070102000b000c00040000010d000e01030002010f011000030111011201130002001401150002001601020002001701180103000a0019011a0003011b011c001d0003001e001f000a0103000a0020000c00030014012100070103001e0022012300030003012400070103002501260027010300280129012a0003002b012c00070102002d002e0103001e001f000701030028012f00300102012f013100030007002f011600030007003201330003000700340133000300350113000a0102000a001700030036013700250003000a0020000b0103000b003801330003000a003901330003000a003a013b000400360138003c010a0103013d013e013100030003011000070102012401100002003f00400003000a00210114000201070141000300070042014300020107013000030007004201150002000a003001030044001f000701030044001f003001030045001f004601020120003c010300160147004501030107012801310003002b014800070103004400470116000400450049014a00070102004b014c000201340132000300070034013b000300070034013600","maxFeePerGas":"0x3938700","maxPriorityFeePerGas":"0x186a0","nonce":"0x3b94d","r":"0xd5c58343d3dcd9ce3b05737d5f6b4f5c4fa1e95b5b659946e04b6384651d3b26","s":"0x534d8a81ba2b09e52bc6bcc05e31074bf891ed54c583986c31d5d88bfdb7aa7c","to":"0xa41b099535da7aa7fde4aa952791dad850fb1f4c","transactionIndex":"0x8","type":"0x2","v":"0x0","value":"0x0","yParity":"0x0"},{"accessList":[],"blockHash":"0xbca3a27a8f49679c2d664aad9aba1ce7977a4d92dfdf663746b73c0e19f4a8eb","blockNumber":"0x8729f7a","chainId":"0xa","from":"0xcf79c51ddfdac213844461086d93cf8b55a92f95","gas":"0xe4e1c0","gasPrice":"0x1886a","hash":"0x590fbf19b281577452c3533d55abda51a47971528900bcb21255f588120c60df","input":"0x424b4f820000000000000000000000000000000000000000000000000000000000000000","maxFeePerGas":"0x18a34","maxPriorityFeePerGas":"0x186a0","nonce":"0x5c587","r":"0xe4f6cc2f0c5090ede8c2f2452bdc59753f3fb26927d5d6de470fd9390667515d","s":"0x2cde86d3ac39e303f8b1b9066824f3f06bf2605173e385ced4eb2e6c40f194ec","to":"0x3a17886b53d248f54655ae1eb4d32ac94ab037f5","transactionIndex":"0x9","type":"0x2","v":"0x1","value":"0x0","yParity":"0x1"},{"accessList":[],"blockHash":"0xbca3a27a8f49679c2d664aad9aba1ce7977a4d92dfdf663746b73c0e19f4a8eb","blockNumber":"0x8729f7a","chainId":"0xa","from":"0x7a27075accbbc212b703fafbdc82146214ba0469","gas":"0x31cf4","gasPrice":"0x1886a","hash":"0x39db7fc22c237e649949443d596e065259d527bd1c093413cfcc14c2b9faf4a9","input":"0x199b83fa0000000000000000000000001111111254eeb25477b68fb85ed929f73a9605820000000000000000000000001111111254eeb25477b68fb85ed929f73a9605820000000000000000000000009bcef72be871e61ed4fbbc7630889bee758eb81d000000000000000000000000eeeeeeeeeeeeeeeeeeeeeeeeeeeeeeeeeeeeeeee000000000000000000000000000000000000000000000000016345785d8a000000000000000000000000000000000000000000000000000001958f7c1381ff640000000000000000000000007a27075accbbc212b703fafbdc82146214ba0469000000000000000000000000000000000000000000000000000000000000010000000000000000000000000000000000000000000000000000000000000000a8e449022e000000000000000000000000000000000000000000000000016345785d8a000000000000000000000000000000000000000000000000000001958f7c1381ff4c00000000000000000000000000000000000000000000000000000000000000600000000000000000000000000000000000000000000000000000000000000001a000000000000000000000004905220ca9d1001daa7be72e877243f4996002e02501326a000000000000000000000000000000000000000000000000","maxFeePerGas":"0x18c07","maxPriorityFeePerGas":"0x186a0","nonce":"0x42","r":"0xa61f096f0ae3dc331450956da15c6573294c7419f5b6688a121c4107f282e723","s":"0x2e295216503bed43e09fd2fce449460d964cf1b2b145b9bdfafca38678dc016b","to":"0x4c4af8dbc524681930a27b2f1af5bcc8062e6fb7","transactionIndex":"0xa","type":"0x2","v":"0x0","value":"0x0","yParity":"0x0"},{"accessList":[],"blockHash":"0xbca3a27a8f49679c2d664aad9aba1ce7977a4d92dfdf663746b73c0e19f4a8eb","blockNumber":"0x8729f7a","chainId":"0xa","from":"0x95dd8db1c0c066eba8c37cd1c6b4c895500b20f2","gas":"0x124f80","gasPrice":"0x1886a","hash":"0x629598e7772e699c776fb089c572acce0695188e0657be941643ba83fbca5613","input":"0xc7c7f5b3000000000000000000000000000000000000000000000000000000000000008000000000000000000000000000000000000000000000000000007ea616847654000000000000000000000000000000000000000000000000000000000000000000000000000000000000000095dd8db1c0c066eba8c37cd1c6b4c895500b20f2000000000000000000000000000000000000000000000000000000000000759500000000000000000000000095dd8db1c0c066eba8c37cd1c6b4c895500b20f2000000000000000000000000000000000000000000000000000000019f280b4a00000000000000000000000000000000000000000000000000000022d658504000000000000000000000000000000000000000000000000000000000000000e000000000000000000000000000000000000000000000000000000000000001000000000000000000000000000000000000000000000000000000000000000120000000000000000000000000000000000000000000000000000000000000000000000000000000000000000000000000000000000000000000000000000000000000000000000000000000000000000000000000000000000000000000000000","maxFeePerGas":"0x18a34","maxPriorityFeePerGas":"0x186a0","nonce":"0x5458","r":"0x46f2a75ceb91dbcf6ec78905ce956e2218c3ef3021cb10a9a1f136092995c43f","s":"0x256154f2d72abacc103be8158b02d2e2a469eece649e7d94d8a6a1817c2f3c0f","to":"0xce8cca271ebc0533920c83d39f417ed6a0abb7d0","transactionIndex":"0xb","type":"0x2","v":"0x0","value":"0x7ea616847654","yParity":"0x0"},{"accessList":[],"blockHash":"0xbca3a27a8f49679c2d664aad9aba1ce7977a4d92dfdf663746b73c0e19f4a8eb","blockNumber":"0x8729f7a","chainId":"0xa","from":"0xe51abef146d46faca43c5280fcde074ef27473a6","gas":"0x3d0900","gasPrice":"0x162eb","hash":"0x0b18f1f42a96f639ed3df5eaaecdcf6484c906cd74f0375fadb0803ec30f9ee1","input":"0x02000d0002000bb8003ccfd0da1a07d55f42b640ce4aefe3366fe9631c8769e998ba63f327728aee68760001000bb8003c0000000111110101010100000393a249df4547601befb873791bfdf826706af3","maxFeePerGas":"0x1fe935","maxPriorityFeePerGas":"0x16121","nonce":"0x39e93","r":"0xaef01d389bef603f8d4ef6e537fa018f082f9f977ff25e39585606b49a0f447f","s":"0x444af821b705f01ebf6799856e4664bde2c1bb78d16e00faab18dc894024bb69","to":"0x61d1e5e08c20b5628bc81f67952dbd01441cbffb","transactionIndex":"0xc","type":"0x2","v":"0x0","value":"0x0","yParity":"0x0"},{"accessList":[],"blockHash":"0xbca3a27a8f49679c2d664aad9aba1ce7977a4d92dfdf663746b73c0e19f4a8eb","blockNumber":"0x8729f7a","chainId":"0xa","from":"0xc96faba4ff9941a55754d7a4b02aeaf7d53f43b9","gas":"0xe4e1c0","gasPrice":"0x8d61","hash":"0xbd7dc6992849b94b0def8c44c34a405ef2064108a2b8b9e9b5a8046f68a3d3be","input":"0x424b4f820000000000000000000000000000000000000000000000000000000000000000","maxFeePerGas":"0x8f2b","maxPriorityFeePerGas":"0x8b97","nonce":"0x38e590","r":"0x5e332053d14f41803f2bdd2c5f4f30c331e14f256a98db09a22b86ab25f743da","s":"0x56f7c5127beb61ebc936bc6b723810bb6859ff34f95e307288cc2aa69cf94e60","to":"0x3a17886b53d248f54655ae1eb4d32ac94ab037f5","transactionIndex":"0xd","type":"0x2","v":"0x0","value":"0x0","yParity":"0x0"},{"accessList":[],"blockHash":"0xbca3a27a8f49679c2d664aad9aba1ce7977a4d92dfdf663746b73c0e19f4a8eb","blockNumber":"0x8729f7a","chainId":"0xa","from":"0x0fa19bb76c071c9adbe8e652cdd5c2281ac95f7e","gas":"0x3d0900","gasPrice":"0x5e6e","hash":"0xe0571a92c54e55a05694d5b0b2ed78d509a3b3d6880ca7fe7563f4f7b6100cb3","input":"0x02000d0001000190003200000001111101010101000084a76dc11fb244edca2299257bcd350a682243d900010001f4000a000000011111010101010000fc1e2387548f9b2a27a0a80cc6780c5030f09d14","maxFeePerGas":"0x1edb4b","maxPriorityFeePerGas":"0x5ca4","nonce":"0x39ec5","r":"0x411785dab23210140efc64a84a56ba49cff02b46c3e68fc4067f87e11488ba8d","s":"0x60ff91da7616b2a3c4760b46edeab0b56333ebb9a093a815aa0152f97a99c395","to":"0x61d1e5e08c20b5628bc81f67952dbd01441cbffb","transactionIndex":"0xe","type":"0x2","v":"0x1","value":"0x0","yParity":"0x1"},{"accessList":[],"blockHash":"0xbca3a27a8f49679c2d664aad9aba1ce7977a4d92dfdf663746b73c0e19f4a8eb","blockNumber":"0x8729f7a","chainId":"0xa","from":"0x3fad7301beaa92b838bdb2d252f2384a63350e96","gas":"0x3d0900","gasPrice":"0x3cb0","hash":"0x13f9d2ace8e2cbf4e74ae94f4364ff6d3093fb80919cf7ac14c5dbf969d7f5bc","input":"0x030d00000100003200010000000111110101010100004dba3c6694654074c53c4b804036c3279456bd7000000001f4000000000001111101010101000078ee4146038eb482fe8370115f095d782b16e94b000100006400010000000111110101010100005482595e966218908ca424e19332650f6f6b2a2a","maxFeePerGas":"0x1ec2fa","maxPriorityFeePerGas":"0x3ae6","nonce":"0x39eb5","r":"0x4f56a0a48c2803a73935d5b10a99716de25cb760fe2d7809c9867f09102d5545","s":"0x5721053ddaa0f87360400293e571634e78c42bd5dda09feccc513acf13fd7280","to":"0x61d1e5e08c20b5628bc81f67952dbd01441cbffb","transactionIndex":"0xf","type":"0x2","v":"0x0","value":"0x0","yParity":"0x0"},{"accessList":[],"blockHash":"0xbca3a27a8f49679c2d664aad9aba1ce7977a4d92dfdf663746b73c0e19f4a8eb","blockNumber":"0x8729f7a","chainId":"0xa","from":"0x0aea65e637ea25a43922074fac03de93c3ffd103","gas":"0xb71b00","gasPrice":"0x7bf","hash":"0x11d9db013fc7bb4e292f7e6eda17627ef54072cf741bad83eb9d19f9f44af795","input":"0x03000d010100019a0064000000011111010101010000478857adc5a5a22b316461e4597fbfa938d0ba3401020000190001ebe9db88856cd04a35807843231a65155184b04d5b4ffb4a5dc1a423a3f5b98e00010001f4000a000000011111010101010000c859b238ae053be78d6228d5b5242b9fad31473a04000d010100005a0001000000011111010101010000bf31ee22de9c6b0c48703ee06981392b103dfeb50100000bb800000000000111110101010100008f0275dc56fb819953d9187acb0ed8116839aab30000000bb80000000000011111010101010000894c7fb86667ebecefe00d8501e6ad77834aa943010100019a0064000000011111010101010000478857adc5a5a22b316461e4597fbfa938d0ba3402000d010100019a0064000000011111010101010000478857adc5a5a22b316461e4597fbfa938d0ba3401010001f4000a0000000111110101010100001fb2de7f59f1e7b10213f6a7c96d5c172c6fdb6a","maxFeePerGas":"0x1e8e09","maxPriorityFeePerGas":"0x5f5","nonce":"0x39ef1","r":"0x46a77df9eccd46441ef2100acd19fa77a829c034d1724c05b783b2e18b6bb697","s":"0x3051734fed73ca160433a4188d2f3999bbd4b9c0cb0e95f5ebdb7a0c73672b06","to":"0x61d1e5e08c20b5628bc81f67952dbd01441cbffb","transactionIndex":"0x10","type":"0x2","v":"0x0","value":"0x0","yParity":"0x0"},{"accessList":[],"blockHash":"0xbca3a27a8f49679c2d664aad9aba1ce7977a4d92dfdf663746b73c0e19f4a8eb","blockNumber":"0x8729f7a","chainId":"0xa","from":"0x8fb6b5fb4abb7243a4ae4545d2740bf61ee030e5","gas":"0x189110","gasPrice":"0x309","hash":"0xc1afb812aac3d9b5d694892daf8edcbd84906e83f92c3c88b7cda4dad469b065","input":"0xfdb5a03e","maxFeePerGas":"0x48d","maxPriorityFeePerGas":"0x13f","nonce":"0x3983e6","r":"0x5efdf9dab6a72d4106802f251fe5f42693d9a5e75d9c1cc86eefeab189851169","s":"0x333b7801e29a34a61787ea79b7f726ae15bb63a88eaa939a8a1b876d8db9187f","to":"0x80942a0066f72efff5900cf80c235dd32549b75d","transactionIndex":"0x11","type":"0x2","v":"0x1","value":"0x0","yParity":"0x1"},{"accessList":[],"blockHash":"0xbca3a27a8f49679c2d664aad9aba1ce7977a4d92dfdf663746b73c0e19f4a8eb","blockNumber":"0x8729f7a","chainId":"0xa","from":"0x98d9fe29c5da385479703c66c07623e02521b266","gas":"0x3d0900","gasPrice":"0x2b8","hash":"0xd7b6dcecbc0d5ce520f508bfef9d41de454bec0789763066e63d5ad6c35f6efa","input":"0x02000d0001000bb8003c0000000111110101010100007de5d482ef83417ca6ef89c6de49d98d205f41d80001000a8c00c80000000111110101010100009895d05e180a452501f413f26212f59cd47007b2","maxFeePerGas":"0x1e8902","maxPriorityFeePerGas":"0xee","nonce":"0x39f00","r":"0xcf800456f775879bc8abd01a85de1e799725987ec500b90b173878921475a7d7","s":"0x6d6bca08cd3a2f17fdcc1b9da426ea329fa3e839e385e3b3f293ac7a78c94030","to":"0x61d1e5e08c20b5628bc81f67952dbd01441cbffb","transactionIndex":"0x12","type":"0x2","v":"0x0","value":"0x0","yParity":"0x0"},{"accessList":[],"blockHash":"0xbca3a27a8f49679c2d664aad9aba1ce7977a4d92dfdf663746b73c0e19f4a8eb","blockNumber":"0x8729f7a","chainId":"0xa","from":"0x669bee230facc9240e2ef81c2e566c3ebadd7c71","gas":"0xe4e1c0","gasPrice":"0x267","hash":"0x781d18a1e007eef695a2d09bbf37fc4d76019b6bcbc4bd6ebfae6cee900ce0a9","input":"0x424b4f820000000000000000000000000000000000000000000000000000000000000000","maxFeePerGas":"0x431","maxPriorityFeePerGas":"0x9d","nonce":"0x200181","r":"0xa8464472594499b7c125488a3b889aa5347c3f3174cbd126417bdf27bbf22a71","s":"0x275d00695552914dfa346e4a9134f9453d435c37f580b621d4ae12440fad79dd","to":"0x3a17886b53d248f54655ae1eb4d32ac94ab037f5","transactionIndex":"0x13","type":"0x2","v":"0x0","value":"0x0","yParity":"0x0"},{"accessList":[],"blockHash":"0xbca3a27a8f49679c2d664aad9aba1ce7977a4d92dfdf663746b73c0e19f4a8eb","blockNumber":"0x8729f7a","chainId":"0xa","from":"0xfcf4ac6c9875fe67e275d56892c6094576886a24","gas":"0x7a1200","gasPrice":"0x1cb","hash":"0x4cbc5c8b42da4d7f02abd4606b6a73ddd6a5e525084347abec8eebf847f5fb20","input":"0x0003fa016985884c4392d348587b19cb9eaaf157f13271cd94b008aa00579c1307b0ef2c499ad98a8ce58e58000bb81d93fc04cd6d108588ecd844c7d60f46635037b5a30000403200000000c0f184c6c4832b3ed861bd5b05722792ffa64abd003c012c0000000071d53b5b7141e1ec9a3fc9cc48b4766102d14a4a4000412c00000000d9dd34576c7034beb0b11a99afffc49e91011235003c012c000000000000000000000000000000000000000000000000003c812c00000000f25bbc18a607bbe218c87ba1ff0e673d9b53dd5800c8012c000000002b6b093a6c2aba51e078540ad89ed76a0c6716fa00010000000000008f0364cd47fb819953d9096bda1ec8017829aaa24000412c00000000894d6ea97767ebecefe01c9410f6bd67935aa9524000412c00000000ee1bac98527a9fdd57fccf967817215b083ce1f00064002a00000000886b4f0cb357e0d6ec07b7a3985f346cc17ece7d000a003200000000acf0e452599c6783c29518e45256fac0ef5aa8b40001000a0000000084ce89b4f6f67e523a81a82f9f2f14d84b726f6b00010006000000002441a0952a74994890f3326143032736ec7aada40000403200000000a894e0ee8879a56710c8c9216219e6902e5542500001000a000000002fa71491f8070fa644d97b4782db5734854c0f6f0001000a000000002ab22ac86b25bd448a4d9dc041bd2384655299c40001000a000000000d165f5bcc9cbb9cf75cef8b09cc77b1749a2a330001000a00000000a8a5356ee5d02fe33d72355e4f698782f8f199e80001000a00000000766854992bd5363ebeeff0113f5a5795796befab000a0032000000005483484f876218908ca435f08222751f7f7b2a3b0001000a0000000011b236c8309312ed45481a21e6e40279dc02c3594000412c000000003c01ec09d15d5450fc702dc4353b17cd2978d8a50001000b000000009c8a59934fba9af82674eff5d13a24e7c7e7a1f10000403200000000e0b1da86d17b884c4d246e218a67ae3466ad841c4000412c00000000a73c628eaf6e283e26a7b1f8001cf186aa4c0e8e0001000a000000007cfc2da3ba598ef4de692905fedca32565ab836e00c8012e00000000230c121f55538a05448a9eeb8a510e7e0af39ee90032003200000000f065fae2bddeac3c2e4a3ce7f3babc1c228e113400c8003200000000047f5c764cbc14f9669b88837ca1490cca17c316079294b008aa00579c1307b0ef2c499ad98a8ce58e58921f32b1c2345538c0c6f582fcb022739c4a194ebb2b0b2c639c533813f4aa9d7837caf62653d097ff85920301008182020283040301028506030307880903028a8b0c03010d8e0f0301901192030193890603018f119203028c14150304168188030117980f030299141503041a1b9c0301129106","maxFeePerGas":"0x1e8815","maxPriorityFeePerGas":"0x1","nonce":"0xc9328","r":"0x3789a61937d65c71afe522957dea5230997a3451500bdfbb63d60d0ddfb2e6","s":"0x7a7310a407e479ab111b074c0694227f0935f17695930a0a6864fe40d23cd2d4","to":"0x27f68ab2b6502449557bd0bd4b52c05e6fffca85","transactionIndex":"0x14","type":"0x2","v":"0x1","value":"0x0","yParity":"0x1"},{"accessList":[],"blockHash":"0xbca3a27a8f49679c2d664aad9aba1ce7977a4d92dfdf663746b73c0e19f4a8eb","blockNumber":"0x8729f7a","chainId":"0xa","from":"0x678fa1d680beb37d345412fb60b381c429276faf","gas":"0xe4e1c0","gasPrice":"0x1cb","hash":"0x1b20e209aecc76f5f7073b1cf631f583bb8b0b79fd799f3f2bd2779719755db2","input":"0x424b4f820000000000000000000000000000000000000000000000000000000000000000","maxFeePerGas":"0x395","maxPriorityFeePerGas":"0x1","nonce":"0x27e94d","r":"0xc8beec12b48bd22b272bc797835b021b5e76e4eab44a8830af7fe9712cab4003","s":"0x1c4f2202d7579b31bf96188c01c0ebe1f8878cfb699953bcca674e20ff0dea1c","to":"0x3a17886b53d248f54655ae1eb4d32ac94ab037f5","transactionIndex":"0x15","type":"0x2","v":"0x0","value":"0x0","yParity":"0x0"},{"accessList":[],"blockHash":"0xbca3a27a8f49679c2d664aad9aba1ce7977a4d92dfdf663746b73c0e19f4a8eb","blockNumber":"0x8729f7a","chainId":"0xa","from":"0x0b0879643ccb17843156709d67786ea5f5c99098","gas":"0xf42400","gasPrice":"0x1cb","hash":"0x538f40f99720ee2473b878258c941a599a8bab8aa30a91abdf00c907caffdba1","input":"0x03000d010100019a0064000000011111010101010000478857adc5a5a22b316461e4597fbfa938d0ba3401020000190001ebe9db88856cd04a35807843231a65155184b04d5b4ffb4a5dc1a423a3f5b98e00010001f4000a000000011111010101010000c859b238ae053be78d6228d5b5242b9fad31473a04000d010100005a0001000000011111010101010000bf31ee22de9c6b0c48703ee06981392b103dfeb50100000bb800000000000111110101010100008f0275dc56fb819953d9187acb0ed8116839aab30000000bb80000000000011111010101010000894c7fb86667ebecefe00d8501e6ad77834aa943010100019a0064000000011111010101010000478857adc5a5a22b316461e4597fbfa938d0ba3402000d010100019a0064000000011111010101010000478857adc5a5a22b316461e4597fbfa938d0ba3401010001f4000a0000000111110101010100001fb2de7f59f1e7b10213f6a7c96d5c172c6fdb6a02000d0001000bb8003c0000000111110101010100007de5d482ef83417ca6ef89c6de49d98d205f41d80001000a8c00c80000000111110101010100009895d05e180a452501f413f26212f59cd47007b2","maxFeePerGas":"0x1e8815","maxPriorityFeePerGas":"0x1","nonce":"0x39e38","r":"0x3d33e586bb2b9f5395d3c83b71bcdfabd9ef07f7f4c1cbb4a38195e15fc01165","s":"0x682057c4f0184b74c7ba30c69fd007aff31757c5f4f0e00795489eef14ba57e9","to":"0x61d1e5e08c20b5628bc81f67952dbd01441cbffb","transactionIndex":"0x16","type":"0x2","v":"0x0","value":"0x0","yParity":"0x0"}],"transactionsRoot":"0x956f05ced3fe2f4bbde511063f3c733d2f16fb52da18c50ae0aa20f334388daf","uncles":[],"withdrawals":[],"withdrawalsRoot":"0x1ad920c15b354960a79fae7eb263976a3daa830001fa2bff2590f8b7b4598804"},"id":
        0}

        '
    headers:
      CF-RAY:
      - 9d085c836f498bb9-ATL
      Cache-Control:
      - max-age=0, private, must-revalidate
      Connection:
      - keep-alive
      Content-Type:
      - application/json; charset=utf-8
      Date:
      - Thu, 19 Feb 2026 20:02:22 GMT
      Nel:
      - '{"report_to":"cf-nel","success_fraction":0.0,"max_age":604800}'
      Report-To:
      - '{"group":"cf-nel","max_age":604800,"endpoints":[{"url":"https://a.nel.cloudflare.com/report/v4?s=sv03v7Io8X%2Bvozx%2B6x5uu7ql5uhJwRsv6xcyf0oucPYoNasXz21pT91rczvNKiPWbP5nBqURe8q60dkjq%2BwzVwuDLsVQ1m5bPed7mnyG5EwHWQ%3D%3D"}]}'
      Server:
      - cloudflare
      Transfer-Encoding:
      - chunked
      access-control-allow-credentials:
      - 'true'
      access-control-allow-origin:
      - '*'
      access-control-expose-headers:
      - bypass-429-option,x-ratelimit-reset,x-ratelimit-limit,x-ratelimit-remaining,api-v2-temp-token
      alt-svc:
      - h3=":443"; ma=86400
      bypass-429-option:
      - no_bypass
      cf-cache-status:
      - DYNAMIC
      content-length:
      - '46305'
      strict-transport-security:
      - max-age=31536000; includeSubDomains
      x-ratelimit-limit:
      - '600'
      x-ratelimit-remaining:
      - '598'
      x-ratelimit-reset:
      - '38312'
      x-request-id:
      - a2dcc41ad4f3e6203e9b104cbabebd5d
    status:
      code: 200
      message: OK
- request:
    body: '{"id": 0, "jsonrpc": "2.0", "method": "eth_getTransactionReceipt", "params":
      ["0x39db7fc22c237e649949443d596e065259d527bd1c093413cfcc14c2b9faf4a9"]}'
    headers:
      Accept:
      - '*/*'
      Accept-Encoding:
      - gzip, deflate
      Connection:
      - keep-alive
      Content-Length:
      - '148'
      Content-Type:
      - application/json
      User-Agent:
      - rotki/1.41.4.dev742+g4f85aa271f
    method: POST
    uri: https://explorer.optimism.io/api/eth-rpc
  response:
    body:
      string: '{"jsonrpc":"2.0","result": {"blockHash":"0xbca3a27a8f49679c2d664aad9aba1ce7977a4d92dfdf663746b73c0e19f4a8eb","blockNumber":"0x8729f7a","contractAddress":null,"cumulativeGasUsed":"0x50c49a","effectiveGasPrice":"0x1886a","from":"0x7a27075accbbc212b703fafbdc82146214ba0469","gasUsed":"0x27539","logs":[{"address":"0x9bcef72be871e61ed4fbbc7630889bee758eb81d","blockHash":"0xbca3a27a8f49679c2d664aad9aba1ce7977a4d92dfdf663746b73c0e19f4a8eb","blockNumber":"0x8729f7a","data":"0x000000000000000000000000000000000000000000000000016345785d8a0000","logIndex":"0x13","removed":false,"topics":["0xddf252ad1be2c89b69c2b068fc378daa952ba7f163c4a11628f55a4df523b3ef","0x0000000000000000000000007a27075accbbc212b703fafbdc82146214ba0469","0x0000000000000000000000004c4af8dbc524681930a27b2f1af5bcc8062e6fb7"],"transactionHash":"0x39db7fc22c237e649949443d596e065259d527bd1c093413cfcc14c2b9faf4a9","transactionIndex":"0xa"},{"address":"0x9bcef72be871e61ed4fbbc7630889bee758eb81d","blockHash":"0xbca3a27a8f49679c2d664aad9aba1ce7977a4d92dfdf663746b73c0e19f4a8eb","blockNumber":"0x8729f7a","data":"0x0000000000000000000000000000000000000000000000000000000000000000","logIndex":"0x14","removed":false,"topics":["0x8c5be1e5ebec7d5bd14f71427d1e84f3dd0314c0f7b2291e5b200ac8c7c3b925","0x0000000000000000000000007a27075accbbc212b703fafbdc82146214ba0469","0x0000000000000000000000004c4af8dbc524681930a27b2f1af5bcc8062e6fb7"],"transactionHash":"0x39db7fc22c237e649949443d596e065259d527bd1c093413cfcc14c2b9faf4a9","transactionIndex":"0xa"},{"address":"0x9bcef72be871e61ed4fbbc7630889bee758eb81d","blockHash":"0xbca3a27a8f49679c2d664aad9aba1ce7977a4d92dfdf663746b73c0e19f4a8eb","blockNumber":"0x8729f7a","data":"0x000000000000000000000000000000000000000000000000016345785d8a0000","logIndex":"0x15","removed":false,"topics":["0x8c5be1e5ebec7d5bd14f71427d1e84f3dd0314c0f7b2291e5b200ac8c7c3b925","0x0000000000000000000000004c4af8dbc524681930a27b2f1af5bcc8062e6fb7","0x0000000000000000000000001111111254eeb25477b68fb85ed929f73a960582"],"transactionHash":"0x39db7fc22c237e649949443d596e065259d527bd1c093413cfcc14c2b9faf4a9","transactionIndex":"0xa"},{"address":"0x4200000000000000000000000000000000000006","blockHash":"0xbca3a27a8f49679c2d664aad9aba1ce7977a4d92dfdf663746b73c0e19f4a8eb","blockNumber":"0x8729f7a","data":"0x0000000000000000000000000000000000000000000000000195f7697e62dd37","logIndex":"0x16","removed":false,"topics":["0xddf252ad1be2c89b69c2b068fc378daa952ba7f163c4a11628f55a4df523b3ef","0x0000000000000000000000004905220ca9d1001daa7be72e877243f4996002e0","0x0000000000000000000000001111111254eeb25477b68fb85ed929f73a960582"],"transactionHash":"0x39db7fc22c237e649949443d596e065259d527bd1c093413cfcc14c2b9faf4a9","transactionIndex":"0xa"},{"address":"0x9bcef72be871e61ed4fbbc7630889bee758eb81d","blockHash":"0xbca3a27a8f49679c2d664aad9aba1ce7977a4d92dfdf663746b73c0e19f4a8eb","blockNumber":"0x8729f7a","data":"0x000000000000000000000000000000000000000000000000016345785d8a0000","logIndex":"0x17","removed":false,"topics":["0xddf252ad1be2c89b69c2b068fc378daa952ba7f163c4a11628f55a4df523b3ef","0x0000000000000000000000004c4af8dbc524681930a27b2f1af5bcc8062e6fb7","0x0000000000000000000000004905220ca9d1001daa7be72e877243f4996002e0"],"transactionHash":"0x39db7fc22c237e649949443d596e065259d527bd1c093413cfcc14c2b9faf4a9","transactionIndex":"0xa"},{"address":"0x9bcef72be871e61ed4fbbc7630889bee758eb81d","blockHash":"0xbca3a27a8f49679c2d664aad9aba1ce7977a4d92dfdf663746b73c0e19f4a8eb","blockNumber":"0x8729f7a","data":"0x0000000000000000000000000000000000000000000000000000000000000000","logIndex":"0x18","removed":false,"topics":["0x8c5be1e5ebec7d5bd14f71427d1e84f3dd0314c0f7b2291e5b200ac8c7c3b925","0x0000000000000000000000004c4af8dbc524681930a27b2f1af5bcc8062e6fb7","0x0000000000000000000000001111111254eeb25477b68fb85ed929f73a960582"],"transactionHash":"0x39db7fc22c237e649949443d596e065259d527bd1c093413cfcc14c2b9faf4a9","transactionIndex":"0xa"},{"address":"0x4905220ca9d1001daa7be72e877243f4996002e0","blockHash":"0xbca3a27a8f49679c2d664aad9aba1ce7977a4d92dfdf663746b73c0e19f4a8eb","blockNumber":"0x8729f7a","data":"0xfffffffffffffffffffffffffffffffffffffffffffffffffe6a0896819d22c9000000000000000000000000000000000000000000000000016345785d8a00000000000000000000000000000000000000000000ef78bc325483ce32cb45c39b000000000000000000000000000000000000000000000656b1e5ae2fd4381e01fffffffffffffffffffffffffffffffffffffffffffffffffffffffffffffac9","logIndex":"0x19","removed":false,"topics":["0xc42079f94a6350d7e6235f29174924f928cc2ac818eb64fed8004e115fbcca67","0x0000000000000000000000001111111254eeb25477b68fb85ed929f73a960582","0x0000000000000000000000001111111254eeb25477b68fb85ed929f73a960582"],"transactionHash":"0x39db7fc22c237e649949443d596e065259d527bd1c093413cfcc14c2b9faf4a9","transactionIndex":"0xa"},{"address":"0x4200000000000000000000000000000000000006","blockHash":"0xbca3a27a8f49679c2d664aad9aba1ce7977a4d92dfdf663746b73c0e19f4a8eb","blockNumber":"0x8729f7a","data":"0x0000000000000000000000000000000000000000000000000195f7697e62dd37","logIndex":"0x1a","removed":false,"topics":["0x7fcf532c15f0a6db0bd6d0e038bea71d30d808c7d98cb3bf7268a95bf5081b65","0x0000000000000000000000001111111254eeb25477b68fb85ed929f73a960582"],"transactionHash":"0x39db7fc22c237e649949443d596e065259d527bd1c093413cfcc14c2b9faf4a9","transactionIndex":"0xa"},{"address":"0x9bcef72be871e61ed4fbbc7630889bee758eb81d","blockHash":"0xbca3a27a8f49679c2d664aad9aba1ce7977a4d92dfdf663746b73c0e19f4a8eb","blockNumber":"0x8729f7a","data":"0x0000000000000000000000000000000000000000000000000000000000000000","logIndex":"0x1b","removed":false,"topics":["0x8c5be1e5ebec7d5bd14f71427d1e84f3dd0314c0f7b2291e5b200ac8c7c3b925","0x0000000000000000000000004c4af8dbc524681930a27b2f1af5bcc8062e6fb7","0x0000000000000000000000001111111254eeb25477b68fb85ed929f73a960582"],"transactionHash":"0x39db7fc22c237e649949443d596e065259d527bd1c093413cfcc14c2b9faf4a9","transactionIndex":"0xa"},{"address":"0x4c4af8dbc524681930a27b2f1af5bcc8062e6fb7","blockHash":"0xbca3a27a8f49679c2d664aad9aba1ce7977a4d92dfdf663746b73c0e19f4a8eb","blockNumber":"0x8729f7a","data":"0x0000000000000000000000000000000000000000000000000000000000000001000000000000000000000000000000000000000000000000016345785d8a00000000000000000000000000000000000000000000000000000195f7697e62dd370000000000000000000000007a27075accbbc212b703fafbdc82146214ba04690000000000000000000000000000000000000000000000000000000000000000","logIndex":"0x1c","removed":false,"topics":["0x27c98e911efdd224f4002f6cd831c3ad0d2759ee176f9ee8466d95826af22a1c","0x0000000000000000000000009bcef72be871e61ed4fbbc7630889bee758eb81d","0x000000000000000000000000eeeeeeeeeeeeeeeeeeeeeeeeeeeeeeeeeeeeeeee","0x0000000000000000000000007a27075accbbc212b703fafbdc82146214ba0469"],"transactionHash":"0x39db7fc22c237e649949443d596e065259d527bd1c093413cfcc14c2b9faf4a9","transactionIndex":"0xa"}],"logsBloom":"0x00000000000000000000000000000000200100000000000000040000800000000000000004000000000000100000000100000000000220000010600000200000000000000000080800000008000008000000000002400000000000000000000000000000000000000000000004000000000000000000040000000010002800000000000000000000100000000000001040000000002000000000000000000040020000000000000400000200000004000000000000000001000000200020000000000002000000000000000000100000000000400000000000000002000000000010000000000000000400000000000000000000800200000000000000000000","status":"0x1","to":"0x4c4af8dbc524681930a27b2f1af5bcc8062e6fb7","transactionHash":"0x39db7fc22c237e649949443d596e065259d527bd1c093413cfcc14c2b9faf4a9","transactionIndex":"0xa","type":"0x2"},"id":
        0}

        '
    headers:
      CF-RAY:
      - 9d085c8b7df39877-ATL
      Cache-Control:
      - max-age=0, private, must-revalidate
      Connection:
      - keep-alive
      Content-Type:
      - application/json; charset=utf-8
      Date:
      - Thu, 19 Feb 2026 20:02:23 GMT
      Nel:
      - '{"report_to":"cf-nel","success_fraction":0.0,"max_age":604800}'
      Report-To:
      - '{"group":"cf-nel","max_age":604800,"endpoints":[{"url":"https://a.nel.cloudflare.com/report/v4?s=Uc96flrerFRS%2Btfxn2rJ1RAxiA2MWaQitoElanqWwodoFDEpC5u%2Fasf%2BiLXmlun1u%2F49hCoah08ybxUTxxmDC2gQtKOq%2F3BHZy%2FNUuzbGV%2FAPMc4"}]}'
      Server:
      - cloudflare
      Transfer-Encoding:
      - chunked
      access-control-allow-credentials:
      - 'true'
      access-control-allow-origin:
      - '*'
      access-control-expose-headers:
      - bypass-429-option,x-ratelimit-reset,x-ratelimit-limit,x-ratelimit-remaining,api-v2-temp-token
      alt-svc:
      - h3=":443"; ma=86400
      bypass-429-option:
      - no_bypass
      cf-cache-status:
      - DYNAMIC
      content-length:
      - '7581'
      strict-transport-security:
      - max-age=31536000; includeSubDomains
      x-ratelimit-limit:
      - '600'
      x-ratelimit-remaining:
      - '597'
      x-ratelimit-reset:
      - '37033'
      x-request-id:
      - 62b9badbe252f888eb87ec74e0315436
    status:
      code: 200
      message: OK
- request:
    body: null
    headers:
      Accept:
      - '*/*'
      Accept-Encoding:
      - gzip, deflate
      Connection:
      - keep-alive
      User-Agent:
      - rotki/1.41.4.dev742+g4f85aa271f
    method: GET
    uri: https://explorer.optimism.io/api/v2/transactions/0x39db7fc22c237e649949443d596e065259d527bd1c093413cfcc14c2b9faf4a9
  response:
    body:
      string: '{"l1_gas_used":"3521","priority_fee":"16108100000","raw_input":"0x199b83fa0000000000000000000000001111111254eeb25477b68fb85ed929f73a9605820000000000000000000000001111111254eeb25477b68fb85ed929f73a9605820000000000000000000000009bcef72be871e61ed4fbbc7630889bee758eb81d000000000000000000000000eeeeeeeeeeeeeeeeeeeeeeeeeeeeeeeeeeeeeeee000000000000000000000000000000000000000000000000016345785d8a000000000000000000000000000000000000000000000000000001958f7c1381ff640000000000000000000000007a27075accbbc212b703fafbdc82146214ba0469000000000000000000000000000000000000000000000000000000000000010000000000000000000000000000000000000000000000000000000000000000a8e449022e000000000000000000000000000000000000000000000000016345785d8a000000000000000000000000000000000000000000000000000001958f7c1381ff4c00000000000000000000000000000000000000000000000000000000000000600000000000000000000000000000000000000000000000000000000000000001a000000000000000000000004905220ca9d1001daa7be72e877243f4996002e02501326a000000000000000000000000000000000000000000000000","is_pending_update":false,"op_withdrawals":[],"result":"success","hash":"0x39db7fc22c237e649949443d596e065259d527bd1c093413cfcc14c2b9faf4a9","max_fee_per_gas":"101383","revert_reason":null,"confirmation_duration":[0,2.0e3],"transaction_burnt_fee":"73775098","type":2,"token_transfers_overflow":false,"confirmations":6236626,"position":10,"max_priority_fee_per_gas":"100000","transaction_tag":null,"created_contract":null,"value":"0","l1_fee_scalar":"0","from":{"ens_domain_name":null,"hash":"0x7a27075aCcBbC212b703fafbdC82146214Ba0469","implementations":[],"is_contract":false,"is_scam":false,"is_verified":false,"metadata":null,"name":null,"private_tags":[],"proxy_type":null,"public_tags":[],"reputation":"ok","watchlist_names":[]},"gas_used":"161081","status":"ok","to":{"ens_domain_name":null,"hash":"0x4c4AF8DBc524681930a27b2F1Af5bcC8062E6fB7","implementations":[],"is_contract":true,"is_scam":false,"is_verified":true,"metadata":{"tags":[{"meta":{"projectName":"WOOFi","tagIcon
        ":"https://blockscout-icons.s3.us-east-1.amazonaws.com/OLI_tag_logo.svg","tagUrl":"https://app.klerosscout.eth.limo/#/?registry=Single_Tags&itemdetails=0x55e8d483fe100906d84834e849d90b8fb4a97782f7d0c18e1b34269a3107254c@0x66260c69d03837016d88c9877e61e08ef74c59f2","textColor":"#C163D4","tooltipAttribution":"https://www.openlabelsinitiative.org?utm_source=blockscout","tooltipAttributionIcon":"https://blockscout-icons.s3.us-east-1.amazonaws.com/OLI_tag_logo.svg","tooltipDescription":"WOOFi''s
        WooRouter V2.1 contract on Optimism","tooltipUrl":"https://woofi.com/","verifiedDomains":["fi.woo.org"]},"name":"WooRouter
        V2.1","ordinal":10,"slug":"woorouter-v21-10","tagType":"name"},{"meta":{"alertStatus":"info","data":"This
        nametag was submitted by Kleros Curate."},"name":"note_0","ordinal":0,"slug":"note0","tagType":"note"},{"meta":{},"name":"WooFi","ordinal":0,"slug":"woofi","tagType":"protocol"}]},"name":"WooRouterV2","private_tags":[],"proxy_type":null,"public_tags":[],"reputation":"ok","watchlist_names":[]},"authorization_list":[],"l1_fee":"2255547878","method":"externalSwap","fee":{"type":"actual","value":"18437422976"},"actions":[],"gas_limit":"204020","gas_price":"100458","decoded_input":{"method_call":"externalSwap(address
        approveTarget, address swapTarget, address fromToken, address toToken, uint256
        fromAmount, uint256 minToAmount, address to, bytes data)","method_id":"199b83fa","parameters":[{"name":"approveTarget","type":"address","value":"0x1111111254EEB25477B68fb85Ed929f73A960582"},{"name":"swapTarget","type":"address","value":"0x1111111254EEB25477B68fb85Ed929f73A960582"},{"name":"fromToken","type":"address","value":"0x9Bcef72be871e61ED4fBbc7630889beE758eb81D"},{"name":"toToken","type":"address","value":"0xEeeeeEeeeEeEeeEeEeEeeEEEeeeeEeeeeeeeEEeE"},{"name":"fromAmount","type":"uint256","value":"100000000000000000"},{"name":"minToAmount","type":"uint256","value":"114155128633818980"},{"name":"to","type":"address","value":"0x7a27075aCcBbC212b703fafbdC82146214Ba0469"},{"name":"data","type":"bytes","value":"0xe449022e000000000000000000000000000000000000000000000000016345785d8a000000000000000000000000000000000000000000000000000001958f7c1381ff4c00000000000000000000000000000000000000000000000000000000000000600000000000000000000000000000000000000000000000000000000000000001a000000000000000000000004905220ca9d1001daa7be72e877243f4996002e02501326a"}]},"l1_gas_price":"122548507","token_transfers":[{"block_hash":"0xbca3a27a8f49679c2d664aad9aba1ce7977a4d92dfdf663746b73c0e19f4a8eb","block_number":141729658,"from":{"ens_domain_name":null,"hash":"0x7a27075aCcBbC212b703fafbdC82146214Ba0469","implementations":[],"is_contract":false,"is_scam":false,"is_verified":false,"metadata":null,"name":null,"private_tags":[],"proxy_type":null,"public_tags":[],"reputation":"ok","watchlist_names":[]},"log_index":19,"method":null,"timestamp":null,"to":{"ens_domain_name":null,"hash":"0x4c4AF8DBc524681930a27b2F1Af5bcC8062E6fB7","implementations":[],"is_contract":true,"is_scam":false,"is_verified":true,"metadata":{"tags":[{"meta":{"projectName":"WOOFi","tagIcon
        ":"https://blockscout-icons.s3.us-east-1.amazonaws.com/OLI_tag_logo.svg","tagUrl":"https://app.klerosscout.eth.limo/#/?registry=Single_Tags&itemdetails=0x55e8d483fe100906d84834e849d90b8fb4a97782f7d0c18e1b34269a3107254c@0x66260c69d03837016d88c9877e61e08ef74c59f2","textColor":"#C163D4","tooltipAttribution":"https://www.openlabelsinitiative.org?utm_source=blockscout","tooltipAttributionIcon":"https://blockscout-icons.s3.us-east-1.amazonaws.com/OLI_tag_logo.svg","tooltipDescription":"WOOFi''s
        WooRouter V2.1 contract on Optimism","tooltipUrl":"https://woofi.com/","verifiedDomains":["fi.woo.org"]},"name":"WooRouter
        V2.1","ordinal":10,"slug":"woorouter-v21-10","tagType":"name"},{"meta":{"alertStatus":"info","data":"This
        nametag was submitted by Kleros Curate."},"name":"note_0","ordinal":0,"slug":"note0","tagType":"note"},{"meta":{},"name":"WooFi","ordinal":0,"slug":"woofi","tagType":"protocol"}]},"name":"WooRouterV2","private_tags":[],"proxy_type":null,"public_tags":[],"reputation":"ok","watchlist_names":[]},"token":{"address_hash":"0x9Bcef72be871e61ED4fBbc7630889beE758eb81D","circulating_market_cap":"769947129.3534603","decimals":"18","exchange_rate":"2248.24","holders_count":"18100","icon_url":"https://assets.coingecko.com/coins/images/20764/small/reth.png?1696520159","name":"Rocket
        Pool ETH","reputation":"ok","symbol":"RETH","total_supply":"3222013334576671015786","type":"ERC-20","volume_24h":"1871121.8964098336"},"token_type":"ERC-20","total":{"decimals":"18","value":"100000000000000000"},"transaction_hash":"0x39db7fc22c237e649949443d596e065259d527bd1c093413cfcc14c2b9faf4a9","type":"token_transfer"},{"block_hash":"0xbca3a27a8f49679c2d664aad9aba1ce7977a4d92dfdf663746b73c0e19f4a8eb","block_number":141729658,"from":{"ens_domain_name":null,"hash":"0x4905220Ca9d1001DaA7BE72e877243F4996002E0","implementations":[],"is_contract":true,"is_scam":false,"is_verified":true,"metadata":null,"name":"UniswapV3Pool","private_tags":[],"proxy_type":null,"public_tags":[],"reputation":"ok","watchlist_names":[]},"log_index":22,"method":null,"timestamp":null,"to":{"ens_domain_name":null,"hash":"0x1111111254EEB25477B68fb85Ed929f73A960582","implementations":[],"is_contract":true,"is_scam":false,"is_verified":true,"metadata":{"tags":[{"meta":{"projectName":"1inch","tagIcon
        ":"https://blockscout-icons.s3.us-east-1.amazonaws.com/OLI_tag_logo.svg","tagUrl":"https://app.klerosscout.eth.limo/#/?registry=Single_Tags&itemdetails=0xa50f1ed4ba6d99e155528044996dd91a0c2feeeeeaeaa0ecdadb89dd88a0fb4c@0x66260c69d03837016d88c9877e61e08ef74c59f2","textColor":"#C163D4","tooltipAttribution":"https://www.openlabelsinitiative.org?utm_source=blockscout","tooltipAttributionIcon":"https://blockscout-icons.s3.us-east-1.amazonaws.com/OLI_tag_logo.svg","tooltipDescription":"1inch''s
        official Aggregation Router V5 contract on Optimism","tooltipUrl":"https://1inch.io/","verifiedDomains":["swap.defillama.com"]},"name":"Aggregation
        Router V5","ordinal":10,"slug":"aggregation-router-v5-10","tagType":"name"},{"meta":{"alertStatus":"info","data":"This
        nametag was submitted by Kleros Curate."},"name":"note_0","ordinal":0,"slug":"note0","tagType":"note"},{"meta":{"appActionButtonText":"1inch","appID":"1inch"},"name":"1inch","ordinal":0,"slug":"1inch","tagType":"protocol"}]},"name":"AggregationRouterV5","private_tags":[],"proxy_type":null,"public_tags":[],"reputation":"ok","watchlist_names":[]},"token":{"address_hash":"0x4200000000000000000000000000000000000006","circulating_market_cap":"38831008.792489626","decimals":"18","exchange_rate":"1937.69","holders_count":"301007","icon_url":"https://assets.coingecko.com/coins/images/39715/small/WETH.PNG?1723731805","name":"L2
        Standard Bridged WETH (Optimism)","reputation":"ok","symbol":"WETH","total_supply":"20107273393691899238999","type":"ERC-20","volume_24h":"10177335.81349564"},"token_type":"ERC-20","total":{"decimals":"18","value":"114269398031850807"},"transaction_hash":"0x39db7fc22c237e649949443d596e065259d527bd1c093413cfcc14c2b9faf4a9","type":"token_transfer"},{"block_hash":"0xbca3a27a8f49679c2d664aad9aba1ce7977a4d92dfdf663746b73c0e19f4a8eb","block_number":141729658,"from":{"ens_domain_name":null,"hash":"0x4c4AF8DBc524681930a27b2F1Af5bcC8062E6fB7","implementations":[],"is_contract":true,"is_scam":false,"is_verified":true,"metadata":{"tags":[{"meta":{"projectName":"WOOFi","tagIcon
        ":"https://blockscout-icons.s3.us-east-1.amazonaws.com/OLI_tag_logo.svg","tagUrl":"https://app.klerosscout.eth.limo/#/?registry=Single_Tags&itemdetails=0x55e8d483fe100906d84834e849d90b8fb4a97782f7d0c18e1b34269a3107254c@0x66260c69d03837016d88c9877e61e08ef74c59f2","textColor":"#C163D4","tooltipAttribution":"https://www.openlabelsinitiative.org?utm_source=blockscout","tooltipAttributionIcon":"https://blockscout-icons.s3.us-east-1.amazonaws.com/OLI_tag_logo.svg","tooltipDescription":"WOOFi''s
        WooRouter V2.1 contract on Optimism","tooltipUrl":"https://woofi.com/","verifiedDomains":["fi.woo.org"]},"name":"WooRouter
        V2.1","ordinal":10,"slug":"woorouter-v21-10","tagType":"name"},{"meta":{"alertStatus":"info","data":"This
        nametag was submitted by Kleros Curate."},"name":"note_0","ordinal":0,"slug":"note0","tagType":"note"},{"meta":{},"name":"WooFi","ordinal":0,"slug":"woofi","tagType":"protocol"}]},"name":"WooRouterV2","private_tags":[],"proxy_type":null,"public_tags":[],"reputation":"ok","watchlist_names":[]},"log_index":23,"method":null,"timestamp":null,"to":{"ens_domain_name":null,"hash":"0x4905220Ca9d1001DaA7BE72e877243F4996002E0","implementations":[],"is_contract":true,"is_scam":false,"is_verified":true,"metadata":null,"name":"UniswapV3Pool","private_tags":[],"proxy_type":null,"public_tags":[],"reputation":"ok","watchlist_names":[]},"token":{"address_hash":"0x9Bcef72be871e61ED4fBbc7630889beE758eb81D","circulating_market_cap":"769947129.3534603","decimals":"18","exchange_rate":"2248.24","holders_count":"18100","icon_url":"https://assets.coingecko.com/coins/images/20764/small/reth.png?1696520159","name":"Rocket
        Pool ETH","reputation":"ok","symbol":"RETH","total_supply":"3222013334576671015786","type":"ERC-20","volume_24h":"1871121.8964098336"},"token_type":"ERC-20","total":{"decimals":"18","value":"100000000000000000"},"transaction_hash":"0x39db7fc22c237e649949443d596e065259d527bd1c093413cfcc14c2b9faf4a9","type":"token_transfer"},{"block_hash":"0xbca3a27a8f49679c2d664aad9aba1ce7977a4d92dfdf663746b73c0e19f4a8eb","block_number":141729658,"from":{"ens_domain_name":null,"hash":"0x1111111254EEB25477B68fb85Ed929f73A960582","implementations":[],"is_contract":true,"is_scam":false,"is_verified":true,"metadata":{"tags":[{"meta":{"projectName":"1inch","tagIcon
        ":"https://blockscout-icons.s3.us-east-1.amazonaws.com/OLI_tag_logo.svg","tagUrl":"https://app.klerosscout.eth.limo/#/?registry=Single_Tags&itemdetails=0xa50f1ed4ba6d99e155528044996dd91a0c2feeeeeaeaa0ecdadb89dd88a0fb4c@0x66260c69d03837016d88c9877e61e08ef74c59f2","textColor":"#C163D4","tooltipAttribution":"https://www.openlabelsinitiative.org?utm_source=blockscout","tooltipAttributionIcon":"https://blockscout-icons.s3.us-east-1.amazonaws.com/OLI_tag_logo.svg","tooltipDescription":"1inch''s
        official Aggregation Router V5 contract on Optimism","tooltipUrl":"https://1inch.io/","verifiedDomains":["swap.defillama.com"]},"name":"Aggregation
        Router V5","ordinal":10,"slug":"aggregation-router-v5-10","tagType":"name"},{"meta":{"alertStatus":"info","data":"This
        nametag was submitted by Kleros Curate."},"name":"note_0","ordinal":0,"slug":"note0","tagType":"note"},{"meta":{"appActionButtonText":"1inch","appID":"1inch"},"name":"1inch","ordinal":0,"slug":"1inch","tagType":"protocol"}]},"name":"AggregationRouterV5","private_tags":[],"proxy_type":null,"public_tags":[],"reputation":"ok","watchlist_names":[]},"log_index":26,"method":null,"timestamp":null,"to":{"ens_domain_name":null,"hash":"0x0000000000000000000000000000000000000000","implementations":[],"is_contract":false,"is_scam":false,"is_verified":false,"metadata":{"tags":[{"meta":{},"name":"Null:
        0x000...000","ordinal":10,"slug":"null-0x000000","tagType":"name"},{"meta":{},"name":"Metamask
        User","ordinal":0,"slug":"metamask-user","tagType":"generic"},{"meta":{},"name":"Imtoken
        User","ordinal":0,"slug":"imtoken-user","tagType":"generic"},{"meta":{},"name":"Miner","ordinal":0,"slug":"miner","tagType":"generic"},{"meta":{},"name":"Burn","ordinal":0,"slug":"burn","tagType":"generic"},{"meta":{"alertStatus":"info","data":"This
        address is commonly used by projects to burn tokens (reducing total supply)
        or mint tokens (increasing total supply)."},"name":"note_0","ordinal":0,"slug":"note0","tagType":"note"},{"meta":{},"name":"Null","ordinal":0,"slug":"null","tagType":"protocol"}]},"name":null,"private_tags":[],"proxy_type":null,"public_tags":[],"reputation":"ok","watchlist_names":[]},"token":{"address_hash":"0x4200000000000000000000000000000000000006","circulating_market_cap":"38831008.792489626","decimals":"18","exchange_rate":"1937.69","holders_count":"301007","icon_url":"https://assets.coingecko.com/coins/images/39715/small/WETH.PNG?1723731805","name":"L2
        Standard Bridged WETH (Optimism)","reputation":"ok","symbol":"WETH","total_supply":"20107273393691899238999","type":"ERC-20","volume_24h":"10177335.81349564"},"token_type":"ERC-20","total":{"decimals":"18","value":"114269398031850807"},"transaction_hash":"0x39db7fc22c237e649949443d596e065259d527bd1c093413cfcc14c2b9faf4a9","type":"token_burning"}],"base_fee_per_gas":"458","timestamp":"2025-09-28T11:14:53.000000Z","nonce":66,"historic_exchange_rate":"4143.89","transaction_types":["contract_call","token_transfer"],"exchange_rate":"1940.12","block_number":141729658,"has_error_in_internal_transactions":false}'
    headers:
      CF-RAY:
      - 9d085c8e6960ecfc-ATL
      Cache-Control:
      - max-age=0, private, must-revalidate
      Connection:
      - keep-alive
      Content-Type:
      - application/json; charset=utf-8
      Date:
      - Thu, 19 Feb 2026 20:02:23 GMT
      Nel:
      - '{"report_to":"cf-nel","success_fraction":0.0,"max_age":604800}'
      Report-To:
      - '{"group":"cf-nel","max_age":604800,"endpoints":[{"url":"https://a.nel.cloudflare.com/report/v4?s=aKnTIWzExuFzPlgGHgfFggZHVQcvYG1GP79mAKZk85R0EZJAy86NGpTmdnq7JxhIv2OaHhnG92yQ31GG8eIZzlmt%2BixnswdtsXE5odd%2B8a7j6I3P"}]}'
      Server:
      - cloudflare
      Transfer-Encoding:
      - chunked
      access-control-allow-credentials:
      - 'true'
      access-control-allow-origin:
      - '*'
      access-control-expose-headers:
      - bypass-429-option,x-ratelimit-reset,x-ratelimit-limit,x-ratelimit-remaining,api-v2-temp-token
      alt-svc:
      - h3=":443"; ma=86400
      bypass-429-option:
      - temporary_token
      cf-cache-status:
      - DYNAMIC
      content-length:
      - '14771'
      strict-transport-security:
      - max-age=31536000; includeSubDomains
      x-ratelimit-limit:
      - '600'
      x-ratelimit-remaining:
      - '596'
      x-ratelimit-reset:
      - '36550'
      x-request-id:
      - eadfdd7528b558634105cb62147f5318
    status:
      code: 200
      message: OK
- request:
    body: null
    headers:
      Accept:
      - '*/*'
      Accept-Encoding:
      - gzip, deflate
      Connection:
      - keep-alive
      User-Agent:
      - rotki/1.41.4.dev742+g4f85aa271f
    method: GET
    uri: https://explorer.optimism.io/api?action=txlistinternal&module=account&sort=asc&txhash=0x39db7fc22c237e649949443d596e065259d527bd1c093413cfcc14c2b9faf4a9
  response:
    body:
      string: '{"message":"OK","result":[{"blockNumber":"141729658","callType":"call","contractAddress":"","errCode":"","from":"0x4200000000000000000000000000000000000006","gas":"2300","gasUsed":"124","index":"14","input":"0x","isError":"0","timeStamp":"1759058093","to":"0x1111111254eeb25477b68fb85ed929f73a960582","transactionHash":"0x39db7fc22c237e649949443d596e065259d527bd1c093413cfcc14c2b9faf4a9","type":"call","value":"114269398031850807"},{"blockNumber":"141729658","callType":"call","contractAddress":"","errCode":"","from":"0x1111111254eeb25477b68fb85ed929f73a960582","gas":"16306","gasUsed":"279","index":"15","input":"0x","isError":"0","timeStamp":"1759058093","to":"0x4c4af8dbc524681930a27b2f1af5bcc8062e6fb7","transactionHash":"0x39db7fc22c237e649949443d596e065259d527bd1c093413cfcc14c2b9faf4a9","type":"call","value":"114269398031850807"},{"blockNumber":"141729658","callType":"call","contractAddress":"","errCode":"","from":"0x4c4af8dbc524681930a27b2f1af5bcc8062e6fb7","gas":"6311","gasUsed":"0","index":"17","input":"0x","isError":"0","timeStamp":"1759058093","to":"0x7a27075accbbc212b703fafbdc82146214ba0469","transactionHash":"0x39db7fc22c237e649949443d596e065259d527bd1c093413cfcc14c2b9faf4a9","type":"call","value":"114269398031850807"}],"status":"1"}'
    headers:
      CF-RAY:
      - 9d085c946a8f4275-ATL
      Cache-Control:
      - max-age=0, private, must-revalidate
      Connection:
      - keep-alive
      Content-Type:
      - application/json; charset=utf-8
      Date:
      - Thu, 19 Feb 2026 20:02:24 GMT
      Nel:
      - '{"report_to":"cf-nel","success_fraction":0.0,"max_age":604800}'
      Report-To:
      - '{"group":"cf-nel","max_age":604800,"endpoints":[{"url":"https://a.nel.cloudflare.com/report/v4?s=kEHPU7rLbrmCzCLGBmWzpE2WW9QJABMNV3URWXeRcd%2FjMU7vCaqrNxJ6nLC387mj%2F7m19sqp87%2BX%2FOibVSf2pwk4xaCaY3FG7Kf7F0KlU09HRJs%2B"}]}'
      Server:
      - cloudflare
      Transfer-Encoding:
      - chunked
      access-control-allow-credentials:
      - 'true'
      access-control-allow-origin:
      - '*'
      access-control-expose-headers:
      - bypass-429-option,x-ratelimit-reset,x-ratelimit-limit,x-ratelimit-remaining,api-v2-temp-token
      alt-svc:
      - h3=":443"; ma=86400
      bypass-429-option:
      - no_bypass
      cf-cache-status:
      - DYNAMIC
      content-length:
      - '1257'
      strict-transport-security:
      - max-age=31536000; includeSubDomains
      x-ratelimit-limit:
      - '600'
      x-ratelimit-remaining:
      - '595'
      x-ratelimit-reset:
      - '35541'
      x-request-id:
      - 6f219909b4fc2867bef51565f734f9d9
    status:
      code: 200
      message: OK
version: 1
