interactions:
- request:
    body: '{"id": 0, "jsonrpc": "2.0", "method": "eth_getTransactionByHash", "params":
      ["0x4436accee15974bd8836e6a2e2e335a7594fcd29de378cf2f5858c1a92cd0f2b"]}'
    headers:
      Accept:
      - '*/*'
      Accept-Encoding:
      - gzip, deflate
      Connection:
      - keep-alive
      Content-Length:
      - '147'
      Content-Type:
      - application/json
      User-Agent:
      - rotki/1.41.4.dev762+ge38047a983
    method: POST
    uri: https://explorer.optimism.io/api/eth-rpc
  response:
    body:
      string: '{"jsonrpc":"2.0","result": {"accessList":[],"blockHash":"0xd71e67897c86ac63816bc1e3ea6ebdfccd08191078c8c533c962a6a17b8f5129","blockNumber":"0x8d26319","chainId":"0xa","from":"0x38430336153468dcf36af5cea7d6bc472425633a","gas":"0x45888","gasPrice":"0x73e99","hash":"0x4436accee15974bd8836e6a2e2e335a7594fcd29de378cf2f5858c1a92cd0f2b","input":"0xddc632620000000000000000000000000000000000000000000000000000000000000001","maxFeePerGas":"0x994bc","maxPriorityFeePerGas":"0x186a0","nonce":"0x6ba","r":"0xc97a03e14712ed2552f15d3784d2aeae7838627e125cde9669091bf494edb6b3","s":"0x6c764773073e12391d75bd91ed77733ec1c1016c4a79ca20a0638c8ed073d7d9","to":"0xc0f8c29e3a9a7650a3f642e467d70087819926d6","transactionIndex":"0x1c","type":"0x2","v":"0x1","value":"0x0","yParity":"0x1"},"id":
        0}

        '
    headers:
      CF-RAY:
      - 9d3186916e4e677b-ATL
      Cache-Control:
      - max-age=0, private, must-revalidate
      Connection:
      - keep-alive
      Content-Type:
      - application/json; charset=utf-8
      Date:
      - Tue, 24 Feb 2026 19:56:20 GMT
      Nel:
      - '{"report_to":"cf-nel","success_fraction":0.0,"max_age":604800}'
      Report-To:
      - '{"group":"cf-nel","max_age":604800,"endpoints":[{"url":"https://a.nel.cloudflare.com/report/v4?s=msQuprjBdWL9NYNyCtFyOUPRcOWeS9Vz%2BBr6v7FgcJiR7W1ktluVa1cUSbWirR59%2FB9kTTpZO5JqWyXVoHiP%2BAvPfOYHQTjzO8afkSm6Lq%2BMjbjH"}]}'
      Server:
      - cloudflare
      Transfer-Encoding:
      - chunked
      access-control-allow-credentials:
      - 'true'
      access-control-allow-origin:
      - '*'
      access-control-expose-headers:
      - bypass-429-option,x-ratelimit-reset,x-ratelimit-limit,x-ratelimit-remaining,api-v2-temp-token
      alt-svc:
      - h3=":443"; ma=86400
      bypass-429-option:
      - no_bypass
      cf-cache-status:
      - DYNAMIC
      content-length:
      - '776'
      strict-transport-security:
      - max-age=31536000; includeSubDomains
      x-ratelimit-limit:
      - '600'
      x-ratelimit-remaining:
      - '593'
      x-ratelimit-reset:
      - '39883'
      x-request-id:
      - d7246582170eee20a09e03657d039493
    status:
      code: 200
      message: OK
- request:
    body: '{"id": 0, "jsonrpc": "2.0", "method": "eth_getBlockByNumber", "params":
      ["0x8d26319", true]}'
    headers:
      Accept:
      - '*/*'
      Accept-Encoding:
      - gzip, deflate
      Connection:
      - keep-alive
      Content-Length:
      - '92'
      Content-Type:
      - application/json
      User-Agent:
      - rotki/1.41.4.dev762+ge38047a983
    method: POST
    uri: https://explorer.optimism.io/api/eth-rpc
  response:
    body:
      string: '{"jsonrpc":"2.0","result": {"baseFeePerGas":"0x5b7f9","blobGasUsed":"0x24bcb0","difficulty":"0x0","excessBlobGas":"0x0","extraData":"0x01000000fa000000020000000000000000","gasLimit":"0x2625a00","gasUsed":"0x110c3dd","hash":"0xd71e67897c86ac63816bc1e3ea6ebdfccd08191078c8c533c962a6a17b8f5129","logsBloom":"0x404027e0008020008002110302404014018024aac000080010044010540b0b200108800030028a0405000010070035140144011004042003260000410025004106000000048a080a6402210802081020004000028404403008010011300020011822006822400000e0400041078038410c90000a0c1400200000851504088000008000422c01040118208010d90c10229c0081001425100000118201223000b0064800400c5000181000000000001000200122000091240804270140000008820030880a48000001c0003a8004100480998002000281042c400005000200656020144808c0d40a222800000000002220a0912184900009000c000000004208a0","miner":"0x4200000000000000000000000000000000000011","mixHash":"0x3a0b48db78d9c8745225b5186d12de45c5b78cd31d4ea4759fe6828f84e45d4b","nonce":"0x0000000000000000","number":"0x8d26319","parentBeaconBlockRoot":"0x753ce4b4cfdeb6080f7ec32fc8b0e549aefca4c55a0bf472068d53408f2ca7c0","parentHash":"0x93ddc5543f9cb139c801185d10b23a1d5516b82f29d0145b853d8346fcb8128c","receiptsRoot":"0xb23c6d2dd687401393700575a225e8406ad573f1ae66802926bb9b5810d17c8b","requestsHash":"0xe3b0c44298fc1c149afbf4c8996fb92427ae41e4649b934ca495991b7852b855","sha3Uncles":"0x1dcc4de8dec75d7aab85b567b6ccd41ad312451b948a7413f0a142fd40d49347","size":"0x2b7b","stateRoot":"0x90b568ce2f59b9112b0b63f659233fb21ee70e9286a3c7142f64f5bab20e1be5","timestamp":"0x69989feb","transactions":[{"blockHash":"0xd71e67897c86ac63816bc1e3ea6ebdfccd08191078c8c533c962a6a17b8f5129","blockNumber":"0x8d26319","depositReceiptVersion":"0x1","from":"0xdeaddeaddeaddeaddeaddeaddeaddeaddead0001","gas":"0xf4240","gasPrice":"0x0","hash":"0x1551f691d2893cd4d7069b8cceefac6716484dbae7caab614ad6b2d149289957","input":"0x3db6be2b0000146b000f79c500000000000000050000000069989f93000000000175d5e1000000000000000000000000000000000000000000000000000000000719917300000000000000000000000000000000000000000000000000000000006628514beecbf288703c3c9d57b92a96b7d789e3a5a4e9b49d4a2001c579ce1ec392b40000000000000000000000006887246668a3b87f54deb3b94ba47a6f63f329850000000000000000000000000190","mint":"0x0","nonce":"0x28ca0a5","r":"0x0","s":"0x0","sourceHash":"0xd54c6ba22783e1a574678c1919df9b4e9d3eba95a031d9743011e1fb348c3d7c","to":"0x4200000000000000000000000000000000000015","transactionIndex":"0x0","type":"0x7e","v":"0x0","value":"0x0","yParity":"0x0"},{"accessList":[],"blockHash":"0xd71e67897c86ac63816bc1e3ea6ebdfccd08191078c8c533c962a6a17b8f5129","blockNumber":"0x8d26319","chainId":"0xa","from":"0x1bb32de6b19f4cbf0763f05966ea2285999a0ee6","gas":"0x7a120","gasPrice":"0xeeeb60d","hash":"0xe08ae9a8c7d1cf21cf887089ba276c2eaddc1a7f7a7fbb2456f2e6a0b3567166","input":"0x4fbdaa16000000000000000000000000478946bcd4a5a22b316470f5486fafb928c0ba25000000000000000000000000420000000000000000000000000000000000000600000000000000000000000000000000000000000000000013fa7c929aa6fff700000000000000000000000000000000000000000000000000000000000000000000000000000000000000000000000000005808eb1560469eca9488dc926dc1000000000000000000000000000000000000580b4a5e4ebeef04757219616c06","maxFeePerGas":"0xeeeb60d","maxPriorityFeePerGas":"0xeeeb60d","nonce":"0x18ba0","r":"0xad9d6e2eefc298430d4f955bfe4e657c64878de5528fd13a1690e24d4ad33c38","s":"0x207f05051b4ee09a92887d5e9a915da64419c0be35779459cfaee2efda5bebc5","to":"0x6777c00839fe6ccfc84f08a44704108471bb1fe4","transactionIndex":"0x1","type":"0x2","v":"0x1","value":"0x0","yParity":"0x1"},{"accessList":[],"blockHash":"0xd71e67897c86ac63816bc1e3ea6ebdfccd08191078c8c533c962a6a17b8f5129","blockNumber":"0x8d26319","chainId":"0xa","from":"0x1b824b7309884440ab1cdee08695abfc939b888a","gas":"0x493e0","gasPrice":"0x36fc69a","hash":"0x52a0eeeb9c4af9045f8a8a743f30c47a0f87aa074ca896480cb974f68e10a49a","input":"0x49c36c07000000000000000000000000478946bcd4a5a22b316470f5486fafb928c0ba2500000000000000000000000000000000000000000000000010a741a46278018f0000000000000000000000000000000000005808faa5abcec47079d2076fd3bb000000000000000000000000000000000000580b2d1b9944a1b3980c659c06d90000000000000000000000000000000000000000000000000000000000000000","maxFeePerGas":"0x3714df1","maxPriorityFeePerGas":"0x36a0ea1","nonce":"0xa51fa","r":"0xd81fd794d46dbfa12fddd3dd4bcf9f403e809d1cd1f516b1eb5abe2bfc80cf42","s":"0x2818726c628217cc146bb2b3f5037ff692e8b79a835a9b0a534b844a78af97e0","to":"0x98374401eab7eca7c5b8243a834c0dc6b4dd4c69","transactionIndex":"0x2","type":"0x2","v":"0x1","value":"0x0","yParity":"0x1"},{"accessList":[],"blockHash":"0xd71e67897c86ac63816bc1e3ea6ebdfccd08191078c8c533c962a6a17b8f5129","blockNumber":"0x8d26319","chainId":"0xa","from":"0xb845ba45be71e908cd71552f6c0fc4bf41e1a4ef","gas":"0x1e8480","gasPrice":"0x337eb9","hash":"0xd98d0c3414ed13d997a56009b86e67c6afe122fb8145843c1b206108c444749f","input":"0x00000001","maxFeePerGas":"0x1dfb2bc0","maxPriorityFeePerGas":"0x2dc6c0","nonce":"0x1ed3ad","r":"0xd310bdc17b0403beca6c21e1e6dd7c204ee53c4061e51174dff8b6d74b4df0c0","s":"0x4c3297e39baa903260bc16349f401b9335a277fd5b41a44cae0b4251baf4053a","to":"0x63f8d4000ba6fe867dcb581eaa20a1bc89dcc15e","transactionIndex":"0x3","type":"0x2","v":"0x1","value":"0x0","yParity":"0x1"},{"accessList":[],"blockHash":"0xd71e67897c86ac63816bc1e3ea6ebdfccd08191078c8c533c962a6a17b8f5129","blockNumber":"0x8d26319","chainId":"0xa","from":"0x893150406fdbaf4834315edb24a9bf1136b5fe42","gas":"0x1e8480","gasPrice":"0x7408d","hash":"0x42e0eb4ccb60918e006a4006d5b401bd2371d9eecf3b465053fcdfe54b5b28d3","input":"0x00000001","maxFeePerGas":"0x1dceed94","maxPriorityFeePerGas":"0x18894","nonce":"0x19501b","r":"0x7fff22828ad16bad9bb3e73a80eb6927a1f468947d193121ba861b00b37405be","s":"0x404e378d2a1bbe1613b42e98f00a637987bfbb9d994ed0ed81610008701c1c93","to":"0x12904000757d295d27b4599b264a4d0acec46148","transactionIndex":"0x4","type":"0x2","v":"0x0","value":"0x0","yParity":"0x0"},{"accessList":[],"blockHash":"0xd71e67897c86ac63816bc1e3ea6ebdfccd08191078c8c533c962a6a17b8f5129","blockNumber":"0x8d26319","chainId":"0xa","from":"0xad7cab43c128b0383f235ad181a89532f5a6f4f2","gas":"0xf4240","gasPrice":"0x73e99","hash":"0x7e72f140a6cb1c994b15c8d34f49c328a359edac19d996ed2aa2386c85be24b3","input":"0x80","maxFeePerGas":"0x3b9aca00","maxPriorityFeePerGas":"0x186a0","nonce":"0x11ba0","r":"0x130d49b315a30ac0294660d8c4e01555524faac7080d36fb703d5d5aa13020d7","s":"0x4a59690691be625485cf960d9ca753d8b44ee6408d98cafa20c0e2cd5b30cf57","to":"0xbbdd22eb1f0cb54c10a169c5e3b804d2fbc65201","transactionIndex":"0x5","type":"0x2","v":"0x0","value":"0x0","yParity":"0x0"},{"accessList":[],"blockHash":"0xd71e67897c86ac63816bc1e3ea6ebdfccd08191078c8c533c962a6a17b8f5129","blockNumber":"0x8d26319","chainId":"0xa","from":"0x9e3ed65340a913b96ba7b86d5d5876dde623946e","gas":"0x2dc6c0","gasPrice":"0x67b49","hash":"0x6555e93ab538b6dfc3def22432bcfe538897e6fce6ae6ee000b0dd460e2ff759","input":"0xa126d6010000000000000000000000000000000000000000000000000000000008d2631c","maxFeePerGas":"0x11e1a300","maxPriorityFeePerGas":"0xc350","nonce":"0x554374","r":"0x9e035bba2bc48a9234a38476621e4ac847bddf0ca77a48601486ee51ba4192a5","s":"0x50223cfd295a744df744c585063a64aeffb3ea9fe6da98d7624d1b43d8925515","to":"0xd9f7bd6033d34caf61143a460d7f79c4384aae97","transactionIndex":"0x6","type":"0x2","v":"0x0","value":"0x0","yParity":"0x0"},{"accessList":[],"blockHash":"0xd71e67897c86ac63816bc1e3ea6ebdfccd08191078c8c533c962a6a17b8f5129","blockNumber":"0x8d26319","chainId":"0xa","from":"0x1442511b89b7d460de4e728f6425098e62d4be65","gas":"0x55517","gasPrice":"0x1fdd00b","hash":"0xc5fd07732777227ef53fa2843e7536a853e3c738fe8740e0cd7205ea7b6db2e1","input":"0x61fe21c000000d00000000000f839b6594b59800000000000000000000831cd58d0000000000000000000000000000000000000000005808a79b7eab07a7b46ef2428a63","maxFeePerGas":"0x1fdd00b","maxPriorityFeePerGas":"0x1fdd00b","nonce":"0x4d9b7","r":"0x643b179201c968abb7f63f8c27d76a290f1bc292092ef860bc203537213510d9","s":"0x7b1e704440db81e975cf3397dfab2916b55cec162122c0dd94ab60a3064cbb99","to":"0x1ef354f86058c1f4af8b8b1f3ff0c2fc31d539e9","transactionIndex":"0x7","type":"0x2","v":"0x1","value":"0x0","yParity":"0x1"},{"accessList":[],"blockHash":"0xd71e67897c86ac63816bc1e3ea6ebdfccd08191078c8c533c962a6a17b8f5129","blockNumber":"0x8d26319","chainId":"0xa","from":"0xcde377407d9b819efc0e185aa2d442194c2233e6","gas":"0x1e8480","gasPrice":"0x60619","hash":"0x0d5b43a54601f5685b46ea6ee4a977a28a1d8149fa945fec89042081f22cf9b9","input":"0xa126d6010000000000000000000000000000000000000000000000000000000008d2631c","maxFeePerGas":"0x11e1a300","maxPriorityFeePerGas":"0x4e20","nonce":"0x4751b7","r":"0x8ef2e024b707f1cf10878e89d5e716cc61433f170fa942b47ed430ad6c44038c","s":"0x2193ef87c6c67f369e5159602e08419eafd541199447c9603b2b0bd6ae1ab3ba","to":"0x4aed348173bbf17dfaeb91598321904c9323d36e","transactionIndex":"0x8","type":"0x2","v":"0x1","value":"0x0","yParity":"0x1"},{"accessList":[],"blockHash":"0xd71e67897c86ac63816bc1e3ea6ebdfccd08191078c8c533c962a6a17b8f5129","blockNumber":"0x8d26319","chainId":"0xa","from":"0x7eb63e28ca5541b35d1dd5a8000e2073ba2d8ec8","gas":"0x1e8480","gasPrice":"0x60619","hash":"0xd41c7d3652aad92d5c262afd972121a3d6cbd0454a3c140491e76ee9e17e7ccc","input":"0xa126d6010000000000000000000000000000000000000000000000000000000008d2631c","maxFeePerGas":"0x11e1a300","maxPriorityFeePerGas":"0x4e20","nonce":"0x2cfb53","r":"0x38ab50c72f667c6a61bbbde0f6cdf5ad12d11e7446764a18fdd37e1481efde4","s":"0x65ea5fbe1dc3f0ffc0fb6dca71bde0b717898e5708aea800e1c438427930904e","to":"0x2008e0c258a16040f3f451262e853c9f69828b98","transactionIndex":"0x9","type":"0x2","v":"0x0","value":"0x0","yParity":"0x0"},{"accessList":[],"blockHash":"0xd71e67897c86ac63816bc1e3ea6ebdfccd08191078c8c533c962a6a17b8f5129","blockNumber":"0x8d26319","chainId":"0xa","from":"0xffd12b32d000617551681973911fd3ad49b89294","gas":"0x1e8480","gasPrice":"0x60619","hash":"0x9c7a013adb4d7740ef0559d29871d93985230b62ac6941bfd14d7ffc1afae904","input":"0xa126d6010000000000000000000000000000000000000000000000000000000008d2631c","maxFeePerGas":"0x11e1a300","maxPriorityFeePerGas":"0x4e20","nonce":"0x10c5","r":"0xd6819843639da056721398781257c4c14cb4e9af21703ca4c9c422e36b68e5fb","s":"0x226d3a4af18c377539df19fbac8528f2022bc4a8c365140aabdf4d56e872ec73","to":"0x1c43229d1a6006ae61d7071f1c6a57d8846b0047","transactionIndex":"0xa","type":"0x2","v":"0x0","value":"0x0","yParity":"0x0"},{"accessList":[],"blockHash":"0xd71e67897c86ac63816bc1e3ea6ebdfccd08191078c8c533c962a6a17b8f5129","blockNumber":"0x8d26319","chainId":"0xa","from":"0xdb49dc858fea0d474a2e4bf2164a224b672d8118","gas":"0x1e8480","gasPrice":"0x60619","hash":"0xea889b4a0f8eefc76f103888911a00cab0fbcb78b9ff18189eb817eec006efb9","input":"0xa126d6010000000000000000000000000000000000000000000000000000000008d2631c","maxFeePerGas":"0x11e1a300","maxPriorityFeePerGas":"0x4e20","nonce":"0x16bc","r":"0xa28ea1cec059f0df965eddc23006e991e6a72ce67a95350aab452ff7cef5f3f6","s":"0x23f7bd7b25241cc15ed0646457e18a1e913e789bbfe937fffda66abeae1045be","to":"0x896edf38f53c10a7ddb7d73ee82e2ce8f609b0bb","transactionIndex":"0xb","type":"0x2","v":"0x0","value":"0x0","yParity":"0x0"},{"accessList":[],"blockHash":"0xd71e67897c86ac63816bc1e3ea6ebdfccd08191078c8c533c962a6a17b8f5129","blockNumber":"0x8d26319","chainId":"0xa","from":"0xb74dcd28032d9fec936c0efb7e352517caeb9fa6","gas":"0x3d0900","gasPrice":"0x5b803","hash":"0x6733dffe995ee622990d8ed8b58fd8fc9386222d9526540eb989af6f1270b062","input":"0x000000000001f4000bb80001f4000bb80001f400013d000bb80027100001900001900001f4000173000bb80001f400003400006400005a000064000b5e000064","maxFeePerGas":"0x2faf08a","maxPriorityFeePerGas":"0xa","nonce":"0x4a234","r":"0x765bf0c1b2545699ef7b5be938ce8501617e15874041775a94625c27b8bdf144","s":"0x6ab3c99917f65a8a129664c397bc5df0087037e098f60e2ef4795c79d30cfc96","to":"0x32a56e03abee3b88a478ef5fddc8c1dd42f9990d","transactionIndex":"0xc","type":"0x2","v":"0x0","value":"0x0","yParity":"0x0"},{"accessList":[],"blockHash":"0xd71e67897c86ac63816bc1e3ea6ebdfccd08191078c8c533c962a6a17b8f5129","blockNumber":"0x8d26319","chainId":"0xa","from":"0x6afc898d79c209c41fa4409a436176ff82c7fcd4","gas":"0x3d0900","gasPrice":"0x5b803","hash":"0xf112aa1292dd2d900b91ca44000bd36004bbbd12e45faac7cb4b67883a9220d6","input":"0x000000000001f4000bb80001f4000bb80001f400013d000bb80027100001900001900001f4000173000bb80001f400003400006400005a000064000b5e000064","maxFeePerGas":"0x2faf08a","maxPriorityFeePerGas":"0xa","nonce":"0x4aa56","r":"0xf7d6a17b16ba4c80793b0e58c36e75a044b073f6b8bad2230fe0c6997eab2aa","s":"0x53f509a427d606798b984aa43ab9e790cf430eff98fd0950c524bcb57917dd4e","to":"0x32a56e03abee3b88a478ef5fddc8c1dd42f9990d","transactionIndex":"0xd","type":"0x2","v":"0x1","value":"0x0","yParity":"0x1"},{"blockHash":"0xd71e67897c86ac63816bc1e3ea6ebdfccd08191078c8c533c962a6a17b8f5129","blockNumber":"0x8d26319","chainId":"0xa","from":"0x18fb33a47fe93b464fc9ea766452e7a60ed29ca2","gas":"0x5be68","gasPrice":"0x14f729","hash":"0x7e571a3fe5468337a5f2c3dd01dd89248faed80de082ddecccf7fe248f0d9f30","input":"0x000000020000000000000000002648d7e6f273ee016cfdebcc8bf2548967d4e02c058290634e4931d1420000000000000000000000000000000000000694b008aa00579c1307b0ef2c499ad98a8ce58e5800000000000000000000000000000000000000000000000000000000013d271400000000000000000000000000000000000000000002e86d22f4683f7cbedfaa0000000069989fef000000000000000000000000000000000000000000000000000ad691d8650cea00000000000000000000000000000000000000000002e87a64058738523da60c3850c7bd","nonce":"0x30cb8","r":"0xa3158d0c63b0fb6ff184150f42b2f3b1fe8ad5e1dbe06feb3f6988cd82ca95c","s":"0x1fa5b8c9fc3ae4db49d23d8bc23c73819c71cbb70d1e2ec1d6f83e0dcbf6518e","to":"0x19668e66c95a937c8fcbbfd8786d47d4e21f24bd","transactionIndex":"0xe","type":"0x0","v":"0x37","value":"0x0"},{"accessList":[],"blockHash":"0xd71e67897c86ac63816bc1e3ea6ebdfccd08191078c8c533c962a6a17b8f5129","blockNumber":"0x8d26319","chainId":"0xa","from":"0x2ac1dc050aab495ff26c2156d5e4e53f14bdf618","gas":"0xb71b00","gasPrice":"0x12ea3d","hash":"0x0bac89f1c5bbce8edb027cfee8cdf9ed17f1bc4ba3bdcb0c6f1eed858915c79e","input":"0x02000d0001000bb8003c0f321014f2354f8e6383ab4ed8676a4fd8b02f2f4de651e589b25b58ab5b192e000100019500c80f325f388e121a1f34d947382ed99d1bfd81789a65d1cdf5a0babcae7f90cc0702000d00010001f400640f325f388e121a1f34d94738ac4b66350e892a678cfd4065af00ce3ac5825bfe0001000bb8003c0f325f388e121a1f34d94738ceb0ce4e7dab5e3ad6fcc690c8e6366ed131fa2d02000d000100019000640f325f388e121a1f34d947385287b54032e588fef0e9ee873f49d7f920ef8d5f00010001f4000a0f325f388e121a1f34d94738e6d8a7696767f516bf8e75c0097c5c2ab00a742b","maxFeePerGas":"0x371fb8","maxPriorityFeePerGas":"0xd3244","nonce":"0x2630c9","r":"0x819c1b57d6b51464d92fde6ccd8177e4678470e5299735f90f9cf97268087ed6","s":"0x179ed604a2e9f05efd50456cd02c77732669017bc220862110be592b7d52da5c","to":"0x56e63998921f8ff8ee9d0206606f3a2dfe3b6689","transactionIndex":"0xf","type":"0x2","v":"0x1","value":"0x0","yParity":"0x1"},{"accessList":[],"blockHash":"0xd71e67897c86ac63816bc1e3ea6ebdfccd08191078c8c533c962a6a17b8f5129","blockNumber":"0x8d26319","chainId":"0xa","from":"0xb4caec896699168f0a5cc82c9ec774597e87a8c8","gas":"0xb71b00","gasPrice":"0x12ea3d","hash":"0x8ca90ed2234fb4c319f0f05067c5cb9ab4b55923fb448455a5ff812f4387ad01","input":"0x02000d0001000bb8003c0f321014f2354f8e6383ab4ed8676a4fd8b02f2f4de651e589b25b58ab5b192e000100019500c80f325f388e121a1f34d947382ed99d1bfd81789a65d1cdf5a0babcae7f90cc0702000d00010001f400640f325f388e121a1f34d94738ac4b66350e892a678cfd4065af00ce3ac5825bfe0001000bb8003c0f325f388e121a1f34d94738ceb0ce4e7dab5e3ad6fcc690c8e6366ed131fa2d02000d000100019000640f325f388e121a1f34d947385287b54032e588fef0e9ee873f49d7f920ef8d5f00010001f4000a0f325f388e121a1f34d94738e6d8a7696767f516bf8e75c0097c5c2ab00a742b","maxFeePerGas":"0x371fb8","maxPriorityFeePerGas":"0xd3244","nonce":"0x263418","r":"0x5c8def895163d1158e0c5994ed81f67514163e020d1bab483a9240f1ae4af3ec","s":"0x458124190df29800afc17ff7138d60bec5a0a06cd260e6195c79c658cb4ffd9a","to":"0x56e63998921f8ff8ee9d0206606f3a2dfe3b6689","transactionIndex":"0x10","type":"0x2","v":"0x0","value":"0x0","yParity":"0x0"},{"accessList":[],"blockHash":"0xd71e67897c86ac63816bc1e3ea6ebdfccd08191078c8c533c962a6a17b8f5129","blockNumber":"0x8d26319","chainId":"0xa","from":"0xbff66ec13a01ccfee6cc6a5e90cf44439b688bee","gas":"0xb71b00","gasPrice":"0x12ea3d","hash":"0x64c92931e6608a2a1a14b078e48d55cd63910fdd76a4ffc94540c8e98c611339","input":"0x02000d0001000bb8003c0f321014f2354f8e6383ab4ed8676a4fd8b02f2f4de651e589b25b58ab5b192e000100019500c80f325f388e121a1f34d947382ed99d1bfd81789a65d1cdf5a0babcae7f90cc0702000d00010001f400640f325f388e121a1f34d94738ac4b66350e892a678cfd4065af00ce3ac5825bfe0001000bb8003c0f325f388e121a1f34d94738ceb0ce4e7dab5e3ad6fcc690c8e6366ed131fa2d02000d000100019000640f325f388e121a1f34d947385287b54032e588fef0e9ee873f49d7f920ef8d5f00010001f4000a0f325f388e121a1f34d94738e6d8a7696767f516bf8e75c0097c5c2ab00a742b","maxFeePerGas":"0x371fb8","maxPriorityFeePerGas":"0xd3244","nonce":"0x262a52","r":"0x1056f09e1c102269ae704e4f4264aa3272a0418d256262d67c1c9aa8ed76751e","s":"0x2f88bd8de0308556aff6937e658c23ab43ca749bc0e724aa2782d0380d6f8361","to":"0x56e63998921f8ff8ee9d0206606f3a2dfe3b6689","transactionIndex":"0x11","type":"0x2","v":"0x1","value":"0x0","yParity":"0x1"},{"accessList":[],"blockHash":"0xd71e67897c86ac63816bc1e3ea6ebdfccd08191078c8c533c962a6a17b8f5129","blockNumber":"0x8d26319","chainId":"0xa","from":"0xd4ccc1e743733fc2f5df8ed637b85b2b3c06514c","gas":"0xb71b00","gasPrice":"0x12ea3d","hash":"0x4d6d8b9923d40e5030dfda556b9c01ceee07b4ad44f0ce6164e4c4d1f7d958a4","input":"0x02000d0001000bb8003c0f321014f2354f8e6383ab4ed8676a4fd8b02f2f4de651e589b25b58ab5b192e000100019500c80f325f388e121a1f34d947382ed99d1bfd81789a65d1cdf5a0babcae7f90cc0702000d00010001f400640f325f388e121a1f34d94738ac4b66350e892a678cfd4065af00ce3ac5825bfe0001000bb8003c0f325f388e121a1f34d94738ceb0ce4e7dab5e3ad6fcc690c8e6366ed131fa2d02000d000100019000640f325f388e121a1f34d947385287b54032e588fef0e9ee873f49d7f920ef8d5f00010001f4000a0f325f388e121a1f34d94738e6d8a7696767f516bf8e75c0097c5c2ab00a742b","maxFeePerGas":"0x371fb8","maxPriorityFeePerGas":"0xd3244","nonce":"0x263a78","r":"0x343b37d17b36a55bb5bfba889d1faa346da11e1739310cc15d1004137f2700f2","s":"0x25c60a76a04cec38010770cc855fac0b8dfc61a2de2dbab911bab481937bd509","to":"0x56e63998921f8ff8ee9d0206606f3a2dfe3b6689","transactionIndex":"0x12","type":"0x2","v":"0x1","value":"0x0","yParity":"0x1"},{"accessList":[],"blockHash":"0xd71e67897c86ac63816bc1e3ea6ebdfccd08191078c8c533c962a6a17b8f5129","blockNumber":"0x8d26319","chainId":"0xa","from":"0x3326bd372b93d912640c3d92c7a7453a892bceef","gas":"0xf4240","gasPrice":"0x63892","hash":"0x44438fb8c414f684d1b9815252b19c499e72b67a987201ec829ae123c594f0e8","input":"0xb9d81800000000000000000000000000000000000000580fa6a3f6b08800000000000000","maxFeePerGas":"0x399163","maxPriorityFeePerGas":"0x8099","nonce":"0x28734","r":"0x7b1442070936f849bbf825daa05151937d97e4629e2059eedddf0f9693505ac8","s":"0xae1c4daa3d6498cdaadffd6d585d6c2f48654f235c23e0094ea52fb907c339f","to":"0x328b1ccea834b85acfb05225ee8d254af9b6491d","transactionIndex":"0x13","type":"0x2","v":"0x1","value":"0x0","yParity":"0x1"},{"accessList":[],"blockHash":"0xd71e67897c86ac63816bc1e3ea6ebdfccd08191078c8c533c962a6a17b8f5129","blockNumber":"0x8d26319","chainId":"0xa","from":"0x44b7fc04d745d794e58d90ed42290280de8eb317","gas":"0x989680","gasPrice":"0x5b803","hash":"0xacdba182c8cef6fa1d4a995cce8461c21b918ff3c36eacb7656c10b62b970de3","input":"0x000000000001f4000bb80001f4000bb80001f400013d000bb80027100001900001900001f4000173000bb80001f400003400006400005a000064000b5e000064","maxFeePerGas":"0x2faf08a","maxPriorityFeePerGas":"0xa","nonce":"0x4aa89","r":"0xecec99cc52af6d88c1b5f366e46c9bcaa0ba317b82676f330019b636dbfe9558","s":"0x72152def3a9d2a51be06360bcc7fc7880aea3802fea5cc48acb24a03801af08d","to":"0x32a56e03abee3b88a478ef5fddc8c1dd42f9990d","transactionIndex":"0x14","type":"0x2","v":"0x1","value":"0x0","yParity":"0x1"},{"accessList":[],"blockHash":"0xd71e67897c86ac63816bc1e3ea6ebdfccd08191078c8c533c962a6a17b8f5129","blockNumber":"0x8d26319","chainId":"0xa","from":"0x5a8441e978aca6fc89a39744f399ede98d85551e","gas":"0xb71b00","gasPrice":"0x12b2b9","hash":"0xd63248e4534cc1aeac3029b9fc74613a679f023223f23293966251c15e361d0a","input":"0x02000d0001000bb8003c0f321014f2354f8e6383ab4ed8676a4fd8b02f2f4de651e589b25b58ab5b192e000100019500c80f325f388e121a1f34d947382ed99d1bfd81789a65d1cdf5a0babcae7f90cc0702000d00010001f400640f325f388e121a1f34d94738ac4b66350e892a678cfd4065af00ce3ac5825bfe0001000bb8003c0f325f388e121a1f34d94738ceb0ce4e7dab5e3ad6fcc690c8e6366ed131fa2d02000d000100019000640f325f388e121a1f34d947385287b54032e588fef0e9ee873f49d7f920ef8d5f00010001f4000a0f325f388e121a1f34d94738e6d8a7696767f516bf8e75c0097c5c2ab00a742b","maxFeePerGas":"0x36e902","maxPriorityFeePerGas":"0xcfac0","nonce":"0x263785","r":"0x2eb77a872e41c4335ea5b5f04d6fecc1ddb2ae68090be091d0ffe2270af9cc73","s":"0x3463abae8f6d8c58e0daffb737cfd3b46554d94b82f53bc444c2a0e091129f82","to":"0x56e63998921f8ff8ee9d0206606f3a2dfe3b6689","transactionIndex":"0x15","type":"0x2","v":"0x0","value":"0x0","yParity":"0x0"},{"accessList":[],"blockHash":"0xd71e67897c86ac63816bc1e3ea6ebdfccd08191078c8c533c962a6a17b8f5129","blockNumber":"0x8d26319","chainId":"0xa","from":"0x27ee6f22ae22463e05036e73aa13440d03336fac","gas":"0xe4e1c0","gasPrice":"0x73e99","hash":"0x37e63d16852910f2369bb636bb17cfa3b7c5ea82e27c272c2c82637850069a00","input":"0x424b4f820000000000000000000000000000000000000000000000000000000000000000","maxFeePerGas":"0x3a976a","maxPriorityFeePerGas":"0x186a0","nonce":"0x16b310","r":"0x42541cd4372efc90499dd531b9a2fd260191d20fd3c7563d63fb58a875b880eb","s":"0x483cf15a6d1ebeb0ef56db12bb2841b8265beb363e2e033eebc48446c914ceb6","to":"0xa1578bbda1412920e9b332ba7c632d5c87fdf6b2","transactionIndex":"0x16","type":"0x2","v":"0x1","value":"0x0","yParity":"0x1"},{"accessList":[],"blockHash":"0xd71e67897c86ac63816bc1e3ea6ebdfccd08191078c8c533c962a6a17b8f5129","blockNumber":"0x8d26319","chainId":"0xa","from":"0xb5ca6eada6c99433a34d6c32c748c0660ac7f52c","gas":"0xe4e1c0","gasPrice":"0x705f7","hash":"0x36fb2d9ed2782c75e823b7287affef3357f6341177d72b20a287ad74e257a5fd","input":"0x424b4f820000000000000000000000000000000000000000000000000000000000000000","maxFeePerGas":"0x3a5ec8","maxPriorityFeePerGas":"0x14dfe","nonce":"0x16afa7","r":"0x3378ff6401c272a275de9c21650e786fe352caa1df354f32a9f276cc2349e730","s":"0x54c42aebdb65dca29d7f77759037d3c9fc2aa143cc7f96bea5d384ee0c9ef250","to":"0xa1578bbda1412920e9b332ba7c632d5c87fdf6b2","transactionIndex":"0x17","type":"0x2","v":"0x1","value":"0x0","yParity":"0x1"},{"accessList":[],"blockHash":"0xd71e67897c86ac63816bc1e3ea6ebdfccd08191078c8c533c962a6a17b8f5129","blockNumber":"0x8d26319","chainId":"0xa","from":"0x15128120487bf23641ed6a9074612c843a9f5502","gas":"0xe4e1c0","gasPrice":"0x64739","hash":"0x150655aeb46ea28113eb500d0a027274148efadf82b7e844d964b8d95018d229","input":"0x424b4f820000000000000000000000000000000000000000000000000000000000000000","maxFeePerGas":"0x39a00a","maxPriorityFeePerGas":"0x8f40","nonce":"0x16b85f","r":"0x1903229d41a6a5aee4b36ed7d4022f0487db8cf1739de4adb692b32243ef4e10","s":"0x25aea9376d2183fbd3cf8f9e9c38a2ada06eb6da24e0c00743d995161704335b","to":"0xa1578bbda1412920e9b332ba7c632d5c87fdf6b2","transactionIndex":"0x18","type":"0x2","v":"0x1","value":"0x0","yParity":"0x1"},{"accessList":[],"blockHash":"0xd71e67897c86ac63816bc1e3ea6ebdfccd08191078c8c533c962a6a17b8f5129","blockNumber":"0x8d26319","chainId":"0xa","from":"0xbdccb78e31a28e84235491e8a2d7cecaa41fa849","gas":"0x7a120","gasPrice":"0x5bbe1","hash":"0xb42a1b4e8121aef1af669896aa74cd8451bdaa40f78d63f559541d36e8ea3bd5","input":"0x4e6669ed4d53455448000000000000000000000000000000000000000000000000000000","maxFeePerGas":"0x59682f01","maxPriorityFeePerGas":"0x3e8","nonce":"0x10b31f","r":"0xb09103e4640cb245267f679d3bc9a361b2ae6f1bc15deb6a0198e822393f33f1","s":"0x84a832eb7bbc14dcb462b04a53bda951e408e3305c39764ac523d4de608d5d9","to":"0xf4f18205d8d46638489865e42c0a71a3d4f9fc22","transactionIndex":"0x19","type":"0x2","v":"0x1","value":"0x0","yParity":"0x1"},{"accessList":[],"blockHash":"0xd71e67897c86ac63816bc1e3ea6ebdfccd08191078c8c533c962a6a17b8f5129","blockNumber":"0x8d26319","chainId":"0xa","from":"0xeac6c80bf53afefa8887de61bcd3b79e39b2ea2a","gas":"0x989680","gasPrice":"0x5b803","hash":"0x621ae68eadd2050bc633dbc4f1cc7641e03cd32960c98b60b081acf990fe7dcd","input":"0x000000000001f4000bb80001f4000bb80001f400013d000bb80027100001900001900001f4000173000bb80001f400003400006400005a000064000b5e000064","maxFeePerGas":"0x2faf08a","maxPriorityFeePerGas":"0xa","nonce":"0x4a29a","r":"0xfd7e1eeda5fd1b1803d5b344391c9a7b9e2d2cb33746e7f13965ca6a5abd6765","s":"0x416df0bebe8616a6231aaf61265471cc879c4167ed9a77b819b950bb39a227bb","to":"0x32a56e03abee3b88a478ef5fddc8c1dd42f9990d","transactionIndex":"0x1a","type":"0x2","v":"0x0","value":"0x0","yParity":"0x0"},{"accessList":[],"blockHash":"0xd71e67897c86ac63816bc1e3ea6ebdfccd08191078c8c533c962a6a17b8f5129","blockNumber":"0x8d26319","chainId":"0xa","from":"0x6c8a03ed520f0ed8398827afb7ceb2a0f44d7acc","gas":"0xb71b00","gasPrice":"0x12b2b9","hash":"0x3920f511f619fbd25c7f94e31945c66f09a3bba3f71bf4ed4c84b136ab56d892","input":"0x02000d0001000bb8003c0f321014f2354f8e6383ab4ed8676a4fd8b02f2f4de651e589b25b58ab5b192e000100019500c80f325f388e121a1f34d947382ed99d1bfd81789a65d1cdf5a0babcae7f90cc0702000d00010001f400640f325f388e121a1f34d94738ac4b66350e892a678cfd4065af00ce3ac5825bfe0001000bb8003c0f325f388e121a1f34d94738ceb0ce4e7dab5e3ad6fcc690c8e6366ed131fa2d02000d000100019000640f325f388e121a1f34d947385287b54032e588fef0e9ee873f49d7f920ef8d5f00010001f4000a0f325f388e121a1f34d94738e6d8a7696767f516bf8e75c0097c5c2ab00a742b","maxFeePerGas":"0x36e902","maxPriorityFeePerGas":"0xcfac0","nonce":"0x262e30","r":"0x598683515513a438c68b06efb06d08b4c6afe87fc97d04443f29767ad0fcbe8d","s":"0x1637fb3530c26d90e9cbeddd517f69a53bbabf6e14eccfcc8309372519a427e1","to":"0x56e63998921f8ff8ee9d0206606f3a2dfe3b6689","transactionIndex":"0x1b","type":"0x2","v":"0x0","value":"0x0","yParity":"0x0"},{"accessList":[],"blockHash":"0xd71e67897c86ac63816bc1e3ea6ebdfccd08191078c8c533c962a6a17b8f5129","blockNumber":"0x8d26319","chainId":"0xa","from":"0x38430336153468dcf36af5cea7d6bc472425633a","gas":"0x45888","gasPrice":"0x73e99","hash":"0x4436accee15974bd8836e6a2e2e335a7594fcd29de378cf2f5858c1a92cd0f2b","input":"0xddc632620000000000000000000000000000000000000000000000000000000000000001","maxFeePerGas":"0x994bc","maxPriorityFeePerGas":"0x186a0","nonce":"0x6ba","r":"0xc97a03e14712ed2552f15d3784d2aeae7838627e125cde9669091bf494edb6b3","s":"0x6c764773073e12391d75bd91ed77733ec1c1016c4a79ca20a0638c8ed073d7d9","to":"0xc0f8c29e3a9a7650a3f642e467d70087819926d6","transactionIndex":"0x1c","type":"0x2","v":"0x1","value":"0x0","yParity":"0x1"},{"accessList":[],"blockHash":"0xd71e67897c86ac63816bc1e3ea6ebdfccd08191078c8c533c962a6a17b8f5129","blockNumber":"0x8d26319","chainId":"0xa","from":"0x0b9bc785fd2bea7bf9cb81065cfaba2fc5d0286b","gas":"0x7b551","gasPrice":"0x73e99","hash":"0x731e652e2b02e8b5597539e6373ca874725237395970ccd263d94a0b3809588c","input":"0x2e1a7d4d0000000000000000000000000000000000000000000000000000000000d5d1018779ce964b87d3f896438d4318c2","maxFeePerGas":"0x129613","maxPriorityFeePerGas":"0x186a0","nonce":"0x111c","r":"0xa11d8951d99d6a0ef00ccfccf23b47e24b4789c5b75def8386f033de5a7a78eb","s":"0x6dc34490be7c9021c7a0a32c0030c7bc41123c502582c5c3059c6454913a21af","to":"0x399761aaffd958741f41dab9d6d1151bf4d02344","transactionIndex":"0x1d","type":"0x2","v":"0x1","value":"0x0","yParity":"0x1"},{"accessList":[],"blockHash":"0xd71e67897c86ac63816bc1e3ea6ebdfccd08191078c8c533c962a6a17b8f5129","blockNumber":"0x8d26319","chainId":"0xa","from":"0xbdccb78e31a28e84235491e8a2d7cecaa41fa849","gas":"0x7a120","gasPrice":"0x5bbe1","hash":"0x5feb704bef922b34209a40c6bc70bd46e52b30f69023032f74285d3d0af52257","input":"0x4e6669ed59562d56454c4f2d4d534554482d574554480000000000000000000000000000","maxFeePerGas":"0x59682f01","maxPriorityFeePerGas":"0x3e8","nonce":"0x10b320","r":"0x652b9db7bd894cf4f49355bf5dc684d44bd904b12b26d28000d0a0cb8b3caf32","s":"0x7b2ac5987c5b7f11c1a3bc967accaadee38e6ca535066400fc27f1d7b9a622b6","to":"0xf4f18205d8d46638489865e42c0a71a3d4f9fc22","transactionIndex":"0x1e","type":"0x2","v":"0x0","value":"0x0","yParity":"0x0"},{"accessList":[],"blockHash":"0xd71e67897c86ac63816bc1e3ea6ebdfccd08191078c8c533c962a6a17b8f5129","blockNumber":"0x8d26319","chainId":"0xa","from":"0x8abfd4e4c20c56f582d1339cefd965b3145c274a","gas":"0x989680","gasPrice":"0x5b803","hash":"0xe506445883ff54ece725cf1b10ef7f7ca804f9def96ccae9d1ac50222530d4c0","input":"0x000000000001f4000bb80001f4000bb80001f400013d000bb80027100001900001900001f4000173000bb80001f400003400006400005a000064000b5e000064","maxFeePerGas":"0x2faf08a","maxPriorityFeePerGas":"0xa","nonce":"0x4acfa","r":"0x88deb7654ab1ca4f4fbed479e33fee269d244952d36905cf477215e5fdef3b84","s":"0x4c11174b2f8dff8e2e39c914eacfd0a3ead84d231d0e617fd37288d67e7dfe15","to":"0x32a56e03abee3b88a478ef5fddc8c1dd42f9990d","transactionIndex":"0x1f","type":"0x2","v":"0x1","value":"0x0","yParity":"0x1"},{"accessList":[],"blockHash":"0xd71e67897c86ac63816bc1e3ea6ebdfccd08191078c8c533c962a6a17b8f5129","blockNumber":"0x8d26319","chainId":"0xa","from":"0x94ad460d19a22a576f7bdb90eca49c2c21fabb46","gas":"0xe4e1c0","gasPrice":"0x5b7fa","hash":"0xcb902c719bce984ddb77c3cfc782fbd9394c4a7e71415f1c9dba9f098b996ff6","input":"0x424b4f820000000000000000000000000000000000000000000000000000000000000000","maxFeePerGas":"0x3910cb","maxPriorityFeePerGas":"0x1","nonce":"0x16af27","r":"0xb462514ff78070ee07ce5b86d25223345b037d5a7482bb95c50c0177b569ee0f","s":"0x6ee6e9f240e303978ed7af8eacaced6da2c007002cb17083316ac40420b6b13c","to":"0xa1578bbda1412920e9b332ba7c632d5c87fdf6b2","transactionIndex":"0x20","type":"0x2","v":"0x1","value":"0x0","yParity":"0x1"},{"accessList":[],"blockHash":"0xd71e67897c86ac63816bc1e3ea6ebdfccd08191078c8c533c962a6a17b8f5129","blockNumber":"0x8d26319","chainId":"0xa","from":"0xded59537b5c3263b7ce2d07839b5f04a1ed97e13","gas":"0xe4e1c0","gasPrice":"0x5b7fa","hash":"0xa28ca0a240da6d5e11d4b2c6661ae9843bde1f4b61accc32480ba61ce39aa17e","input":"0x424b4f820000000000000000000000000000000000000000000000000000000000000000","maxFeePerGas":"0x3910cb","maxPriorityFeePerGas":"0x1","nonce":"0x169c4c","r":"0xc57339ef2a9eafaf46372f4ab019a895c11644d7443dc89ab22f054d61914f3a","s":"0x45d15a73ac33004f381b51d0afc4658977bba73bd62933b04339b0609eb4e5a7","to":"0xa1578bbda1412920e9b332ba7c632d5c87fdf6b2","transactionIndex":"0x21","type":"0x2","v":"0x0","value":"0x0","yParity":"0x0"},{"accessList":[],"blockHash":"0xd71e67897c86ac63816bc1e3ea6ebdfccd08191078c8c533c962a6a17b8f5129","blockNumber":"0x8d26319","chainId":"0xa","from":"0x9bcc465d4693fac43a5152cc962f22d8d6723886","gas":"0xb71b00","gasPrice":"0x12b2b9","hash":"0xe7fe606f3886c90a5dbb59f295e3a56a31499dff4d2815be03b04738993de048","input":"0x02000d0001000bb8003c0f321014f2354f8e6383ab4ed8676a4fd8b02f2f4de651e589b25b58ab5b192e000100019500c80f325f388e121a1f34d947382ed99d1bfd81789a65d1cdf5a0babcae7f90cc0702000d00010001f400640f325f388e121a1f34d94738ac4b66350e892a678cfd4065af00ce3ac5825bfe0001000bb8003c0f325f388e121a1f34d94738ceb0ce4e7dab5e3ad6fcc690c8e6366ed131fa2d02000d000100019000640f325f388e121a1f34d947385287b54032e588fef0e9ee873f49d7f920ef8d5f00010001f4000a0f325f388e121a1f34d94738e6d8a7696767f516bf8e75c0097c5c2ab00a742b","maxFeePerGas":"0x36e902","maxPriorityFeePerGas":"0xcfac0","nonce":"0x262d29","r":"0xe1191285c1fdfcf382c2b79713b9b8e64750fdc4eee6cbbb022a6d755a5c2956","s":"0x61b1d170f4029d7c3a390dd7d93fce710293a6c92360877e59f85ec31c272863","to":"0x56e63998921f8ff8ee9d0206606f3a2dfe3b6689","transactionIndex":"0x22","type":"0x2","v":"0x0","value":"0x0","yParity":"0x0"},{"accessList":[],"blockHash":"0xd71e67897c86ac63816bc1e3ea6ebdfccd08191078c8c533c962a6a17b8f5129","blockNumber":"0x8d26319","chainId":"0xa","from":"0xbdccb78e31a28e84235491e8a2d7cecaa41fa849","gas":"0x7a120","gasPrice":"0x5bbe1","hash":"0x36b33cdfd9da7bc1d2daf833b6b501b913b2a76157fe5c2bd7cb5ab3905c417d","input":"0x4e6669ed4841494145524f00000000000000000000000000000000000000000000000000","maxFeePerGas":"0x59682f01","maxPriorityFeePerGas":"0x3e8","nonce":"0x10b321","r":"0xa6d7a59275105510975457a58b6735f55fe35b94bc78873de28f77602f4cb6fd","s":"0x1e995266158d573146b2a18ccc565e2cdb8f038747db8449c008f0908e9facfe","to":"0xf4f18205d8d46638489865e42c0a71a3d4f9fc22","transactionIndex":"0x23","type":"0x2","v":"0x0","value":"0x0","yParity":"0x0"},{"accessList":[],"blockHash":"0xd71e67897c86ac63816bc1e3ea6ebdfccd08191078c8c533c962a6a17b8f5129","blockNumber":"0x8d26319","chainId":"0xa","from":"0xfb6b0aba7f9c42a9957c66f9c85938c546e4b0e4","gas":"0xe4e1c0","gasPrice":"0x5b909","hash":"0x488d062c71e58ceb434697fe6593b2ee70edb3c5451aef5c976eeec2aafae878","input":"0x424b4f820000000000000000000000000000000000000000000000000000000000000000","maxFeePerGas":"0x3911da","maxPriorityFeePerGas":"0x110","nonce":"0x16acfb","r":"0xb7beece30cb0b4ad181c127e89d9df9e089270f9f67db5484495e649d6b1478c","s":"0x593f71ebe61fb69d4df5dd72261e23d133a05c67276f7b1e1c6f0c4cb5f9da59","to":"0xa1578bbda1412920e9b332ba7c632d5c87fdf6b2","transactionIndex":"0x24","type":"0x2","v":"0x1","value":"0x0","yParity":"0x1"},{"accessList":[],"blockHash":"0xd71e67897c86ac63816bc1e3ea6ebdfccd08191078c8c533c962a6a17b8f5129","blockNumber":"0x8d26319","chainId":"0xa","from":"0xe16c0ffc4bce490b93b85a19f774aa34dc5351b3","gas":"0x989680","gasPrice":"0x5b803","hash":"0x669612b4a7c7cac28c8c83c79939892d77deae84a18266fb7968656613aa3a00","input":"0x000000000001f4000bb80001f4000bb80001f400013d000bb80027100001900001900001f4000173000bb80001f400003400006400005a000064000b5e000064","maxFeePerGas":"0x2faf08a","maxPriorityFeePerGas":"0xa","nonce":"0x4aa70","r":"0xe2d7473eb23f38a90e6781e28811001804b1aef7028abb682220447004772eaa","s":"0x779fed4eea35b0ea8b69f9ba5f1f053958b6047280021dbc74aac41c5e17dc3c","to":"0x32a56e03abee3b88a478ef5fddc8c1dd42f9990d","transactionIndex":"0x25","type":"0x2","v":"0x1","value":"0x0","yParity":"0x1"},{"accessList":[],"blockHash":"0xd71e67897c86ac63816bc1e3ea6ebdfccd08191078c8c533c962a6a17b8f5129","blockNumber":"0x8d26319","chainId":"0xa","from":"0xc3e52eb8d84e2631128af88b5917c647c6ebc2be","gas":"0xe4e1c0","gasPrice":"0x5b7fa","hash":"0x92e00186311cda87935e1ace9ab542e4b00b78ed9da6493557597659004f4065","input":"0x424b4f820000000000000000000000000000000000000000000000000000000000000000","maxFeePerGas":"0x3910cb","maxPriorityFeePerGas":"0x1","nonce":"0x16a944","r":"0x3616ab8c458b5b093699ae1dc020988a5afd28dbb7461fd5c8bef90e5bfc363b","s":"0x2fc7fc3f6288ac3e36266be99771d7656189181ce12f05b616b87acc10107e1a","to":"0xa1578bbda1412920e9b332ba7c632d5c87fdf6b2","transactionIndex":"0x26","type":"0x2","v":"0x1","value":"0x0","yParity":"0x1"},{"accessList":[],"blockHash":"0xd71e67897c86ac63816bc1e3ea6ebdfccd08191078c8c533c962a6a17b8f5129","blockNumber":"0x8d26319","chainId":"0xa","from":"0x827bf9241c326521100366caf5d2757b6065f20b","gas":"0x927c2","gasPrice":"0x5b7fa","hash":"0x25b4017ba910658a3ef42e8ce72a19faee9e0e30d6fa24fc086a522595e40695","input":"0xa00597a0000000000000000000000000000000000000000000000000001f946068eaa5d400000000000000000000000000000000000000000002e86f8b91a081ffc491a8000000000000000000000000420000000000000000000000000000000000000600000000000000000000000000000000000000000000000000000000000000010000000000000000000000006cfdebcc8bf2548967d4e02c058290634e4931d1000000000000000000000000000000000000000000000000000000006998a09e0d","maxFeePerGas":"0xb93b7","maxPriorityFeePerGas":"0x1","nonce":"0x9cf6f","r":"0xa3a690a85e77e9ab5742cb993bf3411a9cb2e55a23c659c8bfdbc99ee7eb374a","s":"0x3f6cac3f49674a768c5fd2e24e9f88100a86173583ad0fab396f1f7a28791b0","to":"0x278d858f05b94576c1e6f73285886876ff6ef8d2","transactionIndex":"0x27","type":"0x2","v":"0x0","value":"0x0","yParity":"0x0"},{"accessList":[],"blockHash":"0xd71e67897c86ac63816bc1e3ea6ebdfccd08191078c8c533c962a6a17b8f5129","blockNumber":"0x8d26319","chainId":"0xa","from":"0x0d689172132cb214490c43c1805d029bcea3dff7","gas":"0x49516","gasPrice":"0x22dc7e","hash":"0xe24d06332a55381eebe346f8615538ec20350ee122324e8e67438ca725eae6d0","input":"0x6146195400020000000000000ba9b4f72a5d8f0000000000000000000000628fea0969989ff004478946bcd4a5a22b316470f5486fafb928c0ba2501000000000000000ba9b4f72a5d8f0000000000000000000000628fea09000000000000580968ac628592098f13b4ec1592","maxFeePerGas":"0x22dcb0","maxPriorityFeePerGas":"0x1d2485","nonce":"0x10b1d","r":"0xaf95c3a7e5613f8505ea652fddfe8043d3ba4b74b81f099a8180b9b2fac44e5d","s":"0x6e1dc4cb72047f9482bd6df500a0a6e3a56ffe43bc799b00485f3ff3e803ff13","to":"0x565732344fe74159e634b860a69bdb3567ec6529","transactionIndex":"0x28","type":"0x2","v":"0x0","value":"0x0","yParity":"0x0"},{"accessList":[],"blockHash":"0xd71e67897c86ac63816bc1e3ea6ebdfccd08191078c8c533c962a6a17b8f5129","blockNumber":"0x8d26319","chainId":"0xa","from":"0x3f6976003383513f0c5b6f2022ededbbe77e4d38","gas":"0xb71b00","gasPrice":"0x12b2b9","hash":"0xc4a204ff12dbcb5d37b4432d990d740dac7a33ad48d95131022850bb6329cb2c","input":"0x02000d0001000bb8003c0f321014f2354f8e6383ab4ed8676a4fd8b02f2f4de651e589b25b58ab5b192e000100019500c80f325f388e121a1f34d947382ed99d1bfd81789a65d1cdf5a0babcae7f90cc0702000d00010001f400640f325f388e121a1f34d94738ac4b66350e892a678cfd4065af00ce3ac5825bfe0001000bb8003c0f325f388e121a1f34d94738ceb0ce4e7dab5e3ad6fcc690c8e6366ed131fa2d02000d000100019000640f325f388e121a1f34d947385287b54032e588fef0e9ee873f49d7f920ef8d5f00010001f4000a0f325f388e121a1f34d94738e6d8a7696767f516bf8e75c0097c5c2ab00a742b","maxFeePerGas":"0x36e902","maxPriorityFeePerGas":"0xcfac0","nonce":"0x2624c4","r":"0x33d5d18c9078bb42ff7f626d259f01d8c3a668bc3f4c34577fc0e036a85c99b2","s":"0xb26a9356eba4c93a4da3399a2c576d3b471d95c0de7e3325e4339460a0c9e9f","to":"0x56e63998921f8ff8ee9d0206606f3a2dfe3b6689","transactionIndex":"0x29","type":"0x2","v":"0x1","value":"0x0","yParity":"0x1"},{"accessList":[],"blockHash":"0xd71e67897c86ac63816bc1e3ea6ebdfccd08191078c8c533c962a6a17b8f5129","blockNumber":"0x8d26319","chainId":"0xa","from":"0x1bfa9afb646bf8316758cc0277aee62c59dbe832","gas":"0xe4e1c0","gasPrice":"0x73e99","hash":"0x5c03a76ee9f526a2149025f5ef23e0e773416abcc2b6ea56edf886d927e7f587","input":"0x424b4f820000000000000000000000000000000000000000000000000000000000000000","maxFeePerGas":"0x3a976a","maxPriorityFeePerGas":"0x186a0","nonce":"0x16a3c8","r":"0x1d25a2ad375d26d4ca9e1cdbd2c5a2eba0c0e5955e51fa74760aa2c3634fd29e","s":"0x1f77d18f0d987c276949d6f3d8c83e35fe6aa7c0c09a0a486bdf1696c252c651","to":"0xa1578bbda1412920e9b332ba7c632d5c87fdf6b2","transactionIndex":"0x2a","type":"0x2","v":"0x0","value":"0x0","yParity":"0x0"},{"accessList":[],"blockHash":"0xd71e67897c86ac63816bc1e3ea6ebdfccd08191078c8c533c962a6a17b8f5129","blockNumber":"0x8d26319","chainId":"0xa","from":"0xe792dd99636bda14b670c13bbfe638e70c1ea981","gas":"0x2a0f4","gasPrice":"0x5d912","hash":"0x972d883a530c2f2ee300716b54713bd4bb778b605c2315d20431b491d1b54ce4","input":"0x1f8c24de0000000000000000000000000000000000000000000000004b10fbca9690c00000000000000000000000000037e7b62686538a501828a6b931216d51f9a0d5b400000000000000000000000000000000000000000000000000000000000000a0000000000000000000000000000000000000000000000000000000006998a0f900000000000000000000000000000000000000000000000000000000000000a00000000000000000000000000000000000000000000000000000000000000041e948abc1bfd995fd3f094cec9a67143743ff2aa0e881eb64422ea6be9d9e1b2d44951b2ead5096f419946119358e3889111a88c4e484c5f91d6c3d844fc1569a1b00000000000000000000000000000000000000000000000000000000000000","maxFeePerGas":"0x8c231","maxPriorityFeePerGas":"0x2119","nonce":"0x68","r":"0xe8f7c9006cee91edf82bf16e829a2763d84da598e320fac6e84629250d38fe2d","s":"0x30bfe8048572992267d4368e10cded1fa36859c23744c8cb44116176f6a3339b","to":"0x0ca8ce179ac368aa7d3c657421799dc872fef7bc","transactionIndex":"0x2b","type":"0x2","v":"0x1","value":"0x0","yParity":"0x1"},{"accessList":[],"blockHash":"0xd71e67897c86ac63816bc1e3ea6ebdfccd08191078c8c533c962a6a17b8f5129","blockNumber":"0x8d26319","chainId":"0xa","from":"0xbb8545a02736494f934314a9aa55cf421fff1aed","gas":"0x7a120","gasPrice":"0x5bbe1","hash":"0xb1ebcf832d219a9519679498a1ab8aceed63c44718bb11c7f22819ac1cfb4520","input":"0x4e6669ed4841494145524f00000000000000000000000000000000000000000000000000","maxFeePerGas":"0x59682f01","maxPriorityFeePerGas":"0x3e8","nonce":"0xe3ab5","r":"0x73f7619e87011495a9813582ea3bdc2f23fd2ec5292809b2f5528f947ee93ad6","s":"0xb27fd8e97cb231cdd55bfd0a149d952a98873614a627b1741876a0733e63862","to":"0xf4f18205d8d46638489865e42c0a71a3d4f9fc22","transactionIndex":"0x2c","type":"0x2","v":"0x0","value":"0x0","yParity":"0x0"},{"accessList":[],"blockHash":"0xd71e67897c86ac63816bc1e3ea6ebdfccd08191078c8c533c962a6a17b8f5129","blockNumber":"0x8d26319","chainId":"0xa","from":"0xfd4e9739bf1349d2021ff0d03a000a9df05538da","gas":"0x989680","gasPrice":"0x5b803","hash":"0xb3bf0bde6e28d75b2fb7e7347834fe7a897e8f02879edfd1972abe599339c52a","input":"0x000000000001f4000bb80001f4000bb80001f400013d000bb80027100001900001900001f4000173000bb80001f400003400006400005a000064000b5e000064","maxFeePerGas":"0x2faf08a","maxPriorityFeePerGas":"0xa","nonce":"0x4ac57","r":"0x422941f5008639723c936367dfd2e102bf826020512118a403bacf36126bab70","s":"0xead5ad0ea3989e9d315a89eb15a59e04c54fa4ba35f7526a46329126add93d6","to":"0x32a56e03abee3b88a478ef5fddc8c1dd42f9990d","transactionIndex":"0x2d","type":"0x2","v":"0x1","value":"0x0","yParity":"0x1"},{"accessList":[],"blockHash":"0xd71e67897c86ac63816bc1e3ea6ebdfccd08191078c8c533c962a6a17b8f5129","blockNumber":"0x8d26319","chainId":"0xa","from":"0x3047bf5bfca618e40c35cb3c6d20f38bd41948a0","gas":"0x16e360","gasPrice":"0x5b7fa","hash":"0x09348b004798dc2848a071ebfbeae1a5fc7725eeea3c178562f0b57a02b95021","input":"0x00000c8788d26319","maxFeePerGas":"0x5f5e100","maxPriorityFeePerGas":"0x1","nonce":"0x11a8a","r":"0xfdbd878e6a4640436f1052b3fa17ee653d70bfabb217f8250e9f4a18dcd50024","s":"0x7449c28b2113ffe9a3096eccab2f2a9f1adc7ab99285cc4c7b10c810c74ea906","to":"0xbbdd22eb1f0cb54c10a169c5e3b804d2fbc65201","transactionIndex":"0x2e","type":"0x2","v":"0x0","value":"0x0","yParity":"0x0"},{"accessList":[],"blockHash":"0xd71e67897c86ac63816bc1e3ea6ebdfccd08191078c8c533c962a6a17b8f5129","blockNumber":"0x8d26319","chainId":"0xa","from":"0xb845ba45be71e908cd71552f6c0fc4bf41e1a4ef","gas":"0x1e8480","gasPrice":"0x5b7fa","hash":"0xf9477f06e4b5597a2035714bf5e4a9f46ef2f4136b46f7fa47fcda6553342b80","input":"0x6a1f2d740000000000000000000000000000000000000000000000000000000000030f1300000000000000000000000000000000000000000000000000000000000000000000000000000000000000000000000000000000000000000000000000000ce4000000000000000000000000000000000000000000000000000000000000000000000000000000000000000000000000000000000000000000038a38dc30974d000000000000000000000000000000000000000000000000000000000000000a","maxFeePerGas":"0x1dcd6501","maxPriorityFeePerGas":"0x1","nonce":"0x1ed3ae","r":"0x7a6da3ddcfb8b6f18b34a8acac38229d8d40e34fbb2178eaab232f5b5948bf2f","s":"0x4ef9466ec8f4bac702384cf9481dc05ad43628dd9faa0ce01637a829912b3640","to":"0x63f8d4000ba6fe867dcb581eaa20a1bc89dcc15e","transactionIndex":"0x2f","type":"0x2","v":"0x1","value":"0x0","yParity":"0x1"},{"accessList":[],"blockHash":"0xd71e67897c86ac63816bc1e3ea6ebdfccd08191078c8c533c962a6a17b8f5129","blockNumber":"0x8d26319","chainId":"0xa","from":"0x893150406fdbaf4834315edb24a9bf1136b5fe42","gas":"0x1e8480","gasPrice":"0x5b7fa","hash":"0x64d46b38976be5d3461118e3b0692a082d6b17fdecca30513aa5f00930c93a41","input":"0x6a1f2d74000000000000000000000000000000000000000000000000000000000004873f00000000000000000000000000000000000000000000000000000000000005a10000000000000000000000000000000000000000000000000000000000000000000000000000000000000000000000000000000000000000000000000000000000000000000000000000000000000000000000000000000000b1fa3b0ccd508e000000000000000000000000000000000000000000000000000000000000000a","maxFeePerGas":"0x1dcd6501","maxPriorityFeePerGas":"0x1","nonce":"0x19501c","r":"0xf52e8d1c7b6d09c87519886ad148a24d43c9b14105021e5e3b693658f0c1b360","s":"0xa5e1a994a897e7a9ee778212b28c5f0f5b4f512eea4d8acfa75569b96f2f789","to":"0x12904000757d295d27b4599b264a4d0acec46148","transactionIndex":"0x30","type":"0x2","v":"0x0","value":"0x0","yParity":"0x0"}],"transactionsRoot":"0x5a678e1177116d2d379d96e8e9f6fc27380528f38c92bf428bbcd3881d94c00a","uncles":[],"withdrawals":[],"withdrawalsRoot":"0x5a6ba6c6b44b81d2c01260916c0586560ef9908fb02bc04361df655f269baa1f"},"id":
        0}

        '
    headers:
      CF-RAY:
      - 9d3186928ce578d1-ATL
      Cache-Control:
      - max-age=0, private, must-revalidate
      Connection:
      - keep-alive
      Content-Type:
      - application/json; charset=utf-8
      Date:
      - Tue, 24 Feb 2026 19:56:20 GMT
      Nel:
      - '{"report_to":"cf-nel","success_fraction":0.0,"max_age":604800}'
      Report-To:
      - '{"group":"cf-nel","max_age":604800,"endpoints":[{"url":"https://a.nel.cloudflare.com/report/v4?s=aT4eCFe5a4yZQ2N99EPiTpBBET8q9xrTJ1%2BHw3Xif2KxtquDne6V52hlFthUqa8HiJCz6DhHEPFfIlViP7unBCxYDb9kwyxtzir57dVJJcY5Io8s"}]}'
      Server:
      - cloudflare
      Transfer-Encoding:
      - chunked
      access-control-allow-credentials:
      - 'true'
      access-control-allow-origin:
      - '*'
      access-control-expose-headers:
      - bypass-429-option,x-ratelimit-reset,x-ratelimit-limit,x-ratelimit-remaining,api-v2-temp-token
      alt-svc:
      - h3=":443"; ma=86400
      bypass-429-option:
      - no_bypass
      cf-cache-status:
      - DYNAMIC
      content-length:
      - '44409'
      strict-transport-security:
      - max-age=31536000; includeSubDomains
      x-ratelimit-limit:
      - '600'
      x-ratelimit-remaining:
      - '592'
      x-ratelimit-reset:
      - '39701'
      x-request-id:
      - 9088f4f754aeae335cc9e32dd078561a
    status:
      code: 200
      message: OK
- request:
    body: '{"id": 0, "jsonrpc": "2.0", "method": "eth_getTransactionReceipt", "params":
      ["0x4436accee15974bd8836e6a2e2e335a7594fcd29de378cf2f5858c1a92cd0f2b"]}'
    headers:
      Accept:
      - '*/*'
      Accept-Encoding:
      - gzip, deflate
      Connection:
      - keep-alive
      Content-Length:
      - '148'
      Content-Type:
      - application/json
      User-Agent:
      - rotki/1.41.4.dev762+ge38047a983
    method: POST
    uri: https://explorer.optimism.io/api/eth-rpc
  response:
    body:
      string: '{"jsonrpc":"2.0","result": {"blockHash":"0xd71e67897c86ac63816bc1e3ea6ebdfccd08191078c8c533c962a6a17b8f5129","blockNumber":"0x8d26319","contractAddress":null,"cumulativeGasUsed":"0x9d7c86","effectiveGasPrice":"0x73e99","from":"0x38430336153468dcf36af5cea7d6bc472425633a","gasUsed":"0x2c5bb","logs":[{"address":"0xc0f8c29e3a9a7650a3f642e467d70087819926d6","blockHash":"0xd71e67897c86ac63816bc1e3ea6ebdfccd08191078c8c533c962a6a17b8f5129","blockNumber":"0x8d26319","data":"0x00000000000000000000000000000000000000000000000000000000000000010000000000000000000000000000000000000000000000000000000008d26319000000000000000000000000000000000000000000002461ae9b5bd61db09b0100000000000000000000000000000000000000000000000000000504ee76f2d0","logIndex":"0xb4","removed":false,"topics":["0xb0a2ded49817748754bcca0474b24011f01d4574dd5c40e14197ffa2e6540fef"],"transactionHash":"0x4436accee15974bd8836e6a2e2e335a7594fcd29de378cf2f5858c1a92cd0f2b","transactionIndex":"0x1c"},{"address":"0x871f2f2ff935fd1ed867842ff2a7bfd051a5e527","blockHash":"0xd71e67897c86ac63816bc1e3ea6ebdfccd08191078c8c533c962a6a17b8f5129","blockNumber":"0x8d26319","data":"0x00000000000000000000000000000000000000000000000380f046970320c330","logIndex":"0xb5","removed":false,"topics":["0xddf252ad1be2c89b69c2b068fc378daa952ba7f163c4a11628f55a4df523b3ef","0x000000000000000000000000c0f8c29e3a9a7650a3f642e467d70087819926d6","0x00000000000000000000000038430336153468dcf36af5cea7d6bc472425633a"],"transactionHash":"0x4436accee15974bd8836e6a2e2e335a7594fcd29de378cf2f5858c1a92cd0f2b","transactionIndex":"0x1c"},{"address":"0x4200000000000000000000000000000000000042","blockHash":"0xd71e67897c86ac63816bc1e3ea6ebdfccd08191078c8c533c962a6a17b8f5129","blockNumber":"0x8d26319","data":"0x0000000000000000000000000000000000000000000000000fe78e864a3d3c00","logIndex":"0xb6","removed":false,"topics":["0xddf252ad1be2c89b69c2b068fc378daa952ba7f163c4a11628f55a4df523b3ef","0x0000000000000000000000008e5ddc0106059e6a31ed802aaef91e4600e103d8","0x00000000000000000000000038430336153468dcf36af5cea7d6bc472425633a"],"transactionHash":"0x4436accee15974bd8836e6a2e2e335a7594fcd29de378cf2f5858c1a92cd0f2b","transactionIndex":"0x1c"},{"address":"0x4200000000000000000000000000000000000042","blockHash":"0xd71e67897c86ac63816bc1e3ea6ebdfccd08191078c8c533c962a6a17b8f5129","blockNumber":"0x8d26319","data":"0x00000000000000000000000000000000000000000000faf1b2bf1c9c6d337f3500000000000000000000000000000000000000000000faf1c2a6ab22b770bb35","logIndex":"0xb7","removed":false,"topics":["0xdec2bacdd2f05b59de34da9b523dff8be42e5e38e818c82fdb0bae774387a724","0x0000000000000000000000007b0befc5b043148cd7bd5cfeeef7bc63d28edec0"],"transactionHash":"0x4436accee15974bd8836e6a2e2e335a7594fcd29de378cf2f5858c1a92cd0f2b","transactionIndex":"0x1c"},{"address":"0x8e5ddc0106059e6a31ed802aaef91e4600e103d8","blockHash":"0xd71e67897c86ac63816bc1e3ea6ebdfccd08191078c8c533c962a6a17b8f5129","blockNumber":"0x8d26319","data":"0x0000000000000000000000000000000000000000000000000fe78e864a3d3c00","logIndex":"0xb8","removed":false,"topics":["0x924cd60a7c2792f23ac2090237adb3996092fac4be3644cfdc271064f53b5704","0x00000000000000000000000038430336153468dcf36af5cea7d6bc472425633a"],"transactionHash":"0x4436accee15974bd8836e6a2e2e335a7594fcd29de378cf2f5858c1a92cd0f2b","transactionIndex":"0x1c"},{"address":"0xc0f8c29e3a9a7650a3f642e467d70087819926d6","blockHash":"0xd71e67897c86ac63816bc1e3ea6ebdfccd08191078c8c533c962a6a17b8f5129","blockNumber":"0x8d26319","data":"0x00000000000000000000000000000000000000000000000380f046970320c330","logIndex":"0xb9","removed":false,"topics":["0x71bab65ced2e5750775a0613be067df48ef06cf92a496ebf7663ae0660924954","0x00000000000000000000000038430336153468dcf36af5cea7d6bc472425633a","0x0000000000000000000000000000000000000000000000000000000000000001"],"transactionHash":"0x4436accee15974bd8836e6a2e2e335a7594fcd29de378cf2f5858c1a92cd0f2b","transactionIndex":"0x1c"}],"logsBloom":"0x00400000000000008000000100004010000000000000000000000000000000200000000000000200010000000000010000000010000000002000000000040040000000000080000024000108000000000000000000044000000000010000000000000000000000000040000000000040000000000000000000000011000000000000000020000000000000000000000000000000000000000000000000200000040000000000000000000000000000000000000000002000000001000000000000000002400000004000300004000400008000000000000000000000000060000000000000c00000000000000000000000000000000000000000000000000000","status":"0x1","to":"0xc0f8c29e3a9a7650a3f642e467d70087819926d6","transactionHash":"0x4436accee15974bd8836e6a2e2e335a7594fcd29de378cf2f5858c1a92cd0f2b","transactionIndex":"0x1c","type":"0x2"},"id":
        0}

        '
    headers:
      CF-RAY:
      - 9d3186965fc9efcb-ATL
      Cache-Control:
      - max-age=0, private, must-revalidate
      Connection:
      - keep-alive
      Content-Type:
      - application/json; charset=utf-8
      Date:
      - Tue, 24 Feb 2026 19:56:21 GMT
      Nel:
      - '{"report_to":"cf-nel","success_fraction":0.0,"max_age":604800}'
      Report-To:
      - '{"group":"cf-nel","max_age":604800,"endpoints":[{"url":"https://a.nel.cloudflare.com/report/v4?s=U2fUmCtZ%2Fmvh95hsi5hFXvGMLPR%2FYMV9xDB4v8%2BRs2vGfR7YiVGjJSRIkLeSgsTMb%2B5Yx85CMZzK6VI8P1wTch%2B8ZU1Y%2BTxkzDji3i5bZ%2FTEXGbd"}]}'
      Server:
      - cloudflare
      Transfer-Encoding:
      - chunked
      access-control-allow-credentials:
      - 'true'
      access-control-allow-origin:
      - '*'
      access-control-expose-headers:
      - bypass-429-option,x-ratelimit-reset,x-ratelimit-limit,x-ratelimit-remaining,api-v2-temp-token
      alt-svc:
      - h3=":443"; ma=86400
      bypass-429-option:
      - no_bypass
      cf-cache-status:
      - DYNAMIC
      content-length:
      - '4640'
      strict-transport-security:
      - max-age=31536000; includeSubDomains
      x-ratelimit-limit:
      - '600'
      x-ratelimit-remaining:
      - '591'
      x-ratelimit-reset:
      - '38818'
      x-request-id:
      - 05f0bd36d49cfa5324822fbaa44d78d4
    status:
      code: 200
      message: OK
- request:
    body: null
    headers:
      Accept:
      - '*/*'
      Accept-Encoding:
      - gzip, deflate
      Connection:
      - keep-alive
      User-Agent:
      - rotki/1.41.4.dev762+ge38047a983
    method: GET
    uri: https://explorer.optimism.io/api/v2/transactions/0x4436accee15974bd8836e6a2e2e335a7594fcd29de378cf2f5858c1a92cd0f2b
  response:
    body:
      string: '{"l1_gas_used":"1600","priority_fee":"18169100000","raw_input":"0xddc632620000000000000000000000000000000000000000000000000000000000000001","is_pending_update":false,"op_withdrawals":[],"result":"success","hash":"0x4436accee15974bd8836e6a2e2e335a7594fcd29de378cf2f5858c1a92cd0f2b","max_fee_per_gas":"627900","revert_reason":null,"confirmation_duration":[0,2.0e3],"transaction_burnt_fee":"68093607907","type":2,"token_transfers_overflow":false,"confirmations":176446,"position":28,"max_priority_fee_per_gas":"100000","transaction_tag":null,"created_contract":null,"value":"0","l1_fee_scalar":"0","from":{"ens_domain_name":"edwardtay.eth","hash":"0x38430336153468dcf36Af5cea7D6bc472425633A","implementations":[],"is_contract":false,"is_scam":false,"is_verified":false,"metadata":{"tags":[{"meta":{},"name":"edwardtay.eth","ordinal":10,"slug":"edwardtayeth","tagType":"name"},{"meta":{"bgColor":"#8465CB","tagIcon":"data:image/svg+xml;utf8,%3Csvg%20xmlns%3D%22http%3A%2F%2Fwww.w3.org%2F2000%2Fsvg%22%20xmlns%3Axlink%3D%22http%3A%2F%2Fwww.w3.org%2F1999%2Fxlink%22%20viewBox%3D%220%200%2032%2029%22%3E%3Cpath%20d%3D%22M%205.507%200.072%20L%2026.097%200.072%20L%2026.097%204.167%20L%2031.952%204.167%20L%2030.725%208.263%20L%2029.686%208.263%20L%2029.686%2024.833%20C%2030.207%2024.833%2030.63%2025.249%2030.63%2025.763%20L%2030.63%2026.88%20L%2030.819%2026.88%20C%2031.341%2026.88%2031.764%2027.297%2031.764%2027.811%20L%2031.764%2028.928%20L%2021.185%2028.928%20L%2021.185%2027.811%20C%2021.185%2027.297%2021.608%2026.88%2022.13%2026.88%20L%2022.319%2026.88%20L%2022.319%2025.763%20C%2022.319%2025.316%2022.639%2024.943%2023.065%2024.853%20L%2023.045%2015.71%20C%2022.711%2012.057%2019.596%209.194%2015.802%209.194%20C%2012.008%209.194%208.893%2012.057%208.559%2015.71%20L%208.539%2024.845%20C%209.043%2024.919%209.663%2025.302%209.663%2025.763%20L%209.663%2026.88%20L%209.852%2026.88%20C%2010.373%2026.88%2010.796%2027.297%2010.796%2027.811%20L%2010.796%2028.928%20L%200.218%2028.928%20L%200.218%2027.811%20C%200.218%2027.297%200.641%2026.88%201.162%2026.88%20L%201.351%2026.88%20L%201.351%2025.763%20C%201.351%2025.249%201.774%2024.833%202.296%2024.833%20L%202.296%208.263%20L%201.257%208.263%20L%200.029%204.167%20L%205.507%204.167%20L%205.507%200.072%20Z%22%20fill%3D%22rgb(255%2C%20255%2C%20255)%22%3E%3C%2Fpath%3E%3Cpath%20d%3D%22M%2026.097%200.072%20L%2026.166%200.072%20L%2026.166%200.004%20L%2026.097%200.004%20Z%20M%205.507%200.072%20L%205.507%200.004%20L%205.438%200.004%20L%205.438%200.072%20Z%20M%2026.097%204.167%20L%2026.028%204.167%20L%2026.028%204.235%20L%2026.097%204.235%20Z%20M%2031.952%204.167%20L%2032.019%204.187%20L%2032.045%204.099%20L%2031.952%204.099%20L%2031.952%204.167%20Z%20M%2030.725%208.263%20L%2030.725%208.331%20L%2030.776%208.331%20L%2030.791%208.282%20Z%20M%2029.686%208.263%20L%2029.686%208.195%20L%2029.617%208.195%20L%2029.617%208.263%20Z%20M%2029.686%2024.833%20L%2029.617%2024.833%20L%2029.617%2024.901%20L%2029.686%2024.901%20Z%20M%2030.63%2026.88%20L%2030.561%2026.88%20L%2030.561%2026.948%20L%2030.63%2026.948%20Z%20M%2031.764%2028.928%20L%2031.764%2028.996%20L%2031.832%2028.996%20L%2031.832%2028.928%20Z%20M%2021.185%2028.928%20L%2021.116%2028.928%20L%2021.116%2028.996%20L%2021.185%2028.996%20Z%20M%2022.319%2026.88%20L%2022.319%2026.948%20L%2022.388%2026.948%20L%2022.388%2026.88%20Z%20M%2023.065%2024.853%20L%2023.08%2024.919%20L%2023.134%2024.908%20L%2023.134%2024.853%20Z%20M%2023.045%2015.71%20L%2023.114%2015.71%20L%2023.114%2015.707%20L%2023.113%2015.704%20Z%20M%208.559%2015.71%20L%208.49%2015.704%20L%208.49%2015.707%20L%208.49%2015.71%20Z%20M%208.539%2024.845%20L%208.47%2024.845%20L%208.469%2024.904%20L%208.528%2024.913%20Z%20M%209.663%2026.88%20L%209.594%2026.88%20L%209.594%2026.948%20L%209.663%2026.948%20Z%20M%2010.796%2028.928%20L%2010.796%2028.996%20L%2010.865%2028.996%20L%2010.865%2028.928%20Z%20M%200.218%2028.928%20L%200.149%2028.928%20L%200.149%2028.996%20L%200.218%2028.996%20Z%20M%201.351%2026.88%20L%201.351%2026.948%20L%201.42%2026.948%20L%201.42%2026.88%20Z%20M%202.296%2024.833%20L%202.296%2024.901%20L%202.365%2024.901%20L%202.365%2024.833%20Z%20M%202.296%208.263%20L%202.365%208.263%20L%202.365%208.195%20L%202.296%208.195%20Z%20M%201.257%208.263%20L%201.191%208.282%20L%201.205%208.331%20L%201.257%208.331%20Z%20M%200.029%204.167%20L%200.029%204.1%20L%20-0.063%204.1%20L%20-0.037%204.187%20L%200.029%204.167%20Z%20M%205.507%204.167%20L%205.507%204.235%20L%205.576%204.235%20L%205.576%204.167%20Z%20M%2026.097%200.004%20L%205.507%200.004%20L%205.507%200.139%20L%2026.097%200.139%20Z%20M%2026.166%204.167%20L%2026.166%200.072%20L%2026.028%200.072%20L%2026.028%204.167%20L%2026.166%204.167%20Z%20M%2031.952%204.099%20L%2026.097%204.099%20L%2026.097%204.235%20L%2031.952%204.235%20Z%20M%2030.791%208.282%20L%2032.019%204.187%20L%2031.886%204.148%20L%2030.658%208.244%20Z%20M%2029.686%208.331%20L%2030.725%208.331%20L%2030.725%208.195%20L%2029.686%208.195%20Z%20M%2029.755%2024.833%20L%2029.755%208.263%20L%2029.617%208.263%20L%2029.617%2024.833%20Z%20M%2030.699%2025.763%20C%2030.699%2025.212%2030.245%2024.765%2029.686%2024.765%20L%2029.686%2024.9%20C%2030.169%2024.9%2030.561%2025.287%2030.561%2025.763%20Z%20M%2030.699%2026.88%20L%2030.699%2025.763%20L%2030.561%2025.763%20L%2030.561%2026.88%20Z%20M%2030.819%2026.813%20L%2030.63%2026.813%20L%2030.63%2026.948%20L%2030.819%2026.948%20Z%20M%2031.832%2027.811%20C%2031.832%2027.26%2031.379%2026.813%2030.819%2026.813%20L%2030.819%2026.948%20C%2031.303%2026.948%2031.695%2027.335%2031.695%2027.811%20Z%20M%2031.832%2028.928%20L%2031.832%2027.811%20L%2031.695%2027.811%20L%2031.695%2028.928%20Z%20M%2026.097%2028.996%20L%2031.764%2028.996%20L%2031.764%2028.86%20L%2026.097%2028.86%20Z%20M%2023.074%2028.996%20L%2026.097%2028.996%20L%2026.097%2028.86%20L%2023.074%2028.86%20Z%20M%2021.185%2028.996%20L%2023.074%2028.996%20L%2023.074%2028.86%20L%2021.185%2028.86%20Z%20M%2021.116%2027.811%20L%2021.116%2028.928%20L%2021.254%2028.928%20L%2021.254%2027.811%20Z%20M%2022.13%2026.813%20C%2021.57%2026.813%2021.116%2027.26%2021.116%2027.811%20L%2021.254%2027.811%20C%2021.254%2027.335%2021.646%2026.948%2022.13%2026.948%20Z%20M%2022.319%2026.813%20L%2022.13%2026.813%20L%2022.13%2026.948%20L%2022.319%2026.948%20Z%20M%2022.25%2025.763%20L%2022.25%2026.88%20L%2022.388%2026.88%20L%2022.388%2025.763%20Z%20M%2023.051%2024.787%20C%2022.593%2024.883%2022.25%2025.284%2022.25%2025.763%20L%2022.388%2025.763%20C%2022.388%2025.349%2022.684%2025.003%2023.08%2024.919%20Z%20M%2022.976%2015.71%20L%2022.996%2024.853%20L%2023.134%2024.853%20L%2023.114%2015.71%20Z%20M%2015.802%209.262%20C%2019.559%209.262%2022.645%2012.098%2022.976%2015.716%20L%2023.113%2015.704%20C%2022.776%2012.016%2019.632%209.126%2015.802%209.126%20Z%20M%208.628%2015.716%20C%208.959%2012.098%2012.044%209.262%2015.802%209.262%20L%2015.802%209.126%20C%2011.972%209.126%208.828%2012.016%208.49%2015.704%20Z%20M%208.608%2024.845%20L%208.628%2015.71%20L%208.49%2015.71%20L%208.47%2024.845%20Z%20M%209.732%2025.763%20C%209.732%2025.502%209.557%2025.273%209.331%2025.105%20C%209.104%2024.935%208.812%2024.817%208.549%2024.778%20L%208.528%2024.912%20C%208.769%2024.948%209.039%2025.057%209.248%2025.213%20C%209.459%2025.37%209.594%2025.563%209.594%2025.763%20Z%20M%209.732%2026.88%20L%209.732%2025.763%20L%209.594%2025.763%20L%209.594%2026.88%20Z%20M%209.852%2026.813%20L%209.663%2026.813%20L%209.663%2026.948%20L%209.852%2026.948%20Z%20M%2010.865%2027.811%20C%2010.865%2027.26%2010.411%2026.813%209.852%2026.813%20L%209.852%2026.948%20C%2010.335%2026.948%2010.727%2027.335%2010.727%2027.811%20Z%20M%2010.865%2028.928%20L%2010.865%2027.811%20L%2010.727%2027.811%20L%2010.727%2028.928%20Z%20M%208.529%2028.996%20L%2010.796%2028.996%20L%2010.796%2028.86%20L%208.529%2028.86%20Z%20M%208.372%2028.996%20L%208.529%2028.996%20L%208.529%2028.86%20L%208.372%2028.86%20Z%20M%205.507%2028.996%20L%208.372%2028.996%20L%208.372%2028.86%20L%205.507%2028.86%20Z%20M%200.218%2028.996%20L%205.507%2028.996%20L%205.507%2028.86%20L%200.218%2028.86%20Z%20M%200.149%2027.811%20L%200.149%2028.928%20L%200.287%2028.928%20L%200.287%2027.811%20Z%20M%201.162%2026.813%20C%200.603%2026.813%200.149%2027.26%200.149%2027.811%20L%200.287%2027.811%20C%200.287%2027.335%200.679%2026.948%201.162%2026.948%20Z%20M%201.351%2026.813%20L%201.162%2026.813%20L%201.162%2026.948%20L%201.351%2026.948%20Z%20M%201.282%2025.763%20L%201.282%2026.88%20L%201.42%2026.88%20L%201.42%2025.763%20Z%20M%202.296%2024.765%20C%201.736%2024.765%201.282%2025.212%201.282%2025.763%20L%201.42%2025.763%20C%201.42%2025.287%201.812%2024.9%202.296%2024.9%20Z%20M%202.227%208.263%20L%202.227%2024.833%20L%202.365%2024.833%20L%202.365%208.263%20Z%20M%201.257%208.331%20L%202.296%208.331%20L%202.296%208.195%20L%201.257%208.195%20Z%20M%20-0.037%204.187%20L%201.191%208.282%20L%201.323%208.244%20L%200.095%204.148%20Z%20M%205.507%204.099%20L%200.029%204.099%20L%200.029%204.235%20L%205.507%204.235%20L%205.507%204.099%20Z%20M%205.438%200.072%20L%205.438%204.167%20L%205.576%204.167%20L%205.576%200.072%20Z%22%20fill%3D%22rgb(255%2C255%2C255)%22%3E%3C%2Fpath%3E%3C%2Fsvg%3E","tagUrl":"https://warpcast.com/edwardtay","textColor":"#FFFFFF","tooltipDescription":"This
        address is linked to a Farcaster account","warpcastHandle":"edwardtay"},"name":"Farcaster","ordinal":0,"slug":"warpcast-account","tagType":"classifier"},{"meta":{},"name":"Metamask
        User","ordinal":0,"slug":"metamask-user","tagType":"generic"}]},"name":null,"private_tags":[],"proxy_type":null,"public_tags":[],"reputation":"ok","watchlist_names":[]},"gas_used":"181691","status":"ok","to":{"ens_domain_name":null,"hash":"0xc0f8C29e3a9A7650a3F642e467d70087819926d6","implementations":[],"is_contract":true,"is_scam":false,"is_verified":true,"metadata":{"tags":[{"meta":{},"name":"WOO","ordinal":0,"slug":"woo","tagType":"generic"},{"meta":{"tagIcon
        ":"https://blockscout-icons.s3.us-east-1.amazonaws.com/OLI_tag_logo.svg","textColor":"#C163D4","tooltipAttribution":"https://www.openlabelsinitiative.org?utm_source=blockscout","tooltipAttributionIcon":"https://blockscout-icons.s3.us-east-1.amazonaws.com/OLI_tag_logo.svg","tooltipDescription":"Provided
        by OLI"},"name":"MasterChefReward","ordinal":0,"slug":"masterchefreward","tagType":"name"}]},"name":"MasterChefReward","private_tags":[],"proxy_type":null,"public_tags":[],"reputation":"ok","watchlist_names":[]},"authorization_list":[],"l1_fee":"1675207054","method":"harvest","fee":{"type":"actual","value":"87937914961"},"actions":[],"gas_limit":"284808","gas_price":"474777","decoded_input":{"method_call":"harvest(uint256
        _pid)","method_id":"ddc63262","parameters":[{"name":"_pid","type":"uint256","value":"1"}]},"l1_gas_price":"119116147","token_transfers":[{"block_hash":"0xd71e67897c86ac63816bc1e3ea6ebdfccd08191078c8c533c962a6a17b8f5129","block_number":148005657,"from":{"ens_domain_name":null,"hash":"0xc0f8C29e3a9A7650a3F642e467d70087819926d6","implementations":[],"is_contract":true,"is_scam":false,"is_verified":true,"metadata":{"tags":[{"meta":{},"name":"WOO","ordinal":0,"slug":"woo","tagType":"generic"},{"meta":{"tagIcon
        ":"https://blockscout-icons.s3.us-east-1.amazonaws.com/OLI_tag_logo.svg","textColor":"#C163D4","tooltipAttribution":"https://www.openlabelsinitiative.org?utm_source=blockscout","tooltipAttributionIcon":"https://blockscout-icons.s3.us-east-1.amazonaws.com/OLI_tag_logo.svg","tooltipDescription":"Provided
        by OLI"},"name":"MasterChefReward","ordinal":0,"slug":"masterchefreward","tagType":"name"}]},"name":"MasterChefReward","private_tags":[],"proxy_type":null,"public_tags":[],"reputation":"ok","watchlist_names":[]},"log_index":181,"method":null,"timestamp":null,"to":{"ens_domain_name":"edwardtay.eth","hash":"0x38430336153468dcf36Af5cea7D6bc472425633A","implementations":[],"is_contract":false,"is_scam":false,"is_verified":false,"metadata":{"tags":[{"meta":{},"name":"edwardtay.eth","ordinal":10,"slug":"edwardtayeth","tagType":"name"},{"meta":{"bgColor":"#8465CB","tagIcon":"data:image/svg+xml;utf8,%3Csvg%20xmlns%3D%22http%3A%2F%2Fwww.w3.org%2F2000%2Fsvg%22%20xmlns%3Axlink%3D%22http%3A%2F%2Fwww.w3.org%2F1999%2Fxlink%22%20viewBox%3D%220%200%2032%2029%22%3E%3Cpath%20d%3D%22M%205.507%200.072%20L%2026.097%200.072%20L%2026.097%204.167%20L%2031.952%204.167%20L%2030.725%208.263%20L%2029.686%208.263%20L%2029.686%2024.833%20C%2030.207%2024.833%2030.63%2025.249%2030.63%2025.763%20L%2030.63%2026.88%20L%2030.819%2026.88%20C%2031.341%2026.88%2031.764%2027.297%2031.764%2027.811%20L%2031.764%2028.928%20L%2021.185%2028.928%20L%2021.185%2027.811%20C%2021.185%2027.297%2021.608%2026.88%2022.13%2026.88%20L%2022.319%2026.88%20L%2022.319%2025.763%20C%2022.319%2025.316%2022.639%2024.943%2023.065%2024.853%20L%2023.045%2015.71%20C%2022.711%2012.057%2019.596%209.194%2015.802%209.194%20C%2012.008%209.194%208.893%2012.057%208.559%2015.71%20L%208.539%2024.845%20C%209.043%2024.919%209.663%2025.302%209.663%2025.763%20L%209.663%2026.88%20L%209.852%2026.88%20C%2010.373%2026.88%2010.796%2027.297%2010.796%2027.811%20L%2010.796%2028.928%20L%200.218%2028.928%20L%200.218%2027.811%20C%200.218%2027.297%200.641%2026.88%201.162%2026.88%20L%201.351%2026.88%20L%201.351%2025.763%20C%201.351%2025.249%201.774%2024.833%202.296%2024.833%20L%202.296%208.263%20L%201.257%208.263%20L%200.029%204.167%20L%205.507%204.167%20L%205.507%200.072%20Z%22%20fill%3D%22rgb(255%2C%20255%2C%20255)%22%3E%3C%2Fpath%3E%3Cpath%20d%3D%22M%2026.097%200.072%20L%2026.166%200.072%20L%2026.166%200.004%20L%2026.097%200.004%20Z%20M%205.507%200.072%20L%205.507%200.004%20L%205.438%200.004%20L%205.438%200.072%20Z%20M%2026.097%204.167%20L%2026.028%204.167%20L%2026.028%204.235%20L%2026.097%204.235%20Z%20M%2031.952%204.167%20L%2032.019%204.187%20L%2032.045%204.099%20L%2031.952%204.099%20L%2031.952%204.167%20Z%20M%2030.725%208.263%20L%2030.725%208.331%20L%2030.776%208.331%20L%2030.791%208.282%20Z%20M%2029.686%208.263%20L%2029.686%208.195%20L%2029.617%208.195%20L%2029.617%208.263%20Z%20M%2029.686%2024.833%20L%2029.617%2024.833%20L%2029.617%2024.901%20L%2029.686%2024.901%20Z%20M%2030.63%2026.88%20L%2030.561%2026.88%20L%2030.561%2026.948%20L%2030.63%2026.948%20Z%20M%2031.764%2028.928%20L%2031.764%2028.996%20L%2031.832%2028.996%20L%2031.832%2028.928%20Z%20M%2021.185%2028.928%20L%2021.116%2028.928%20L%2021.116%2028.996%20L%2021.185%2028.996%20Z%20M%2022.319%2026.88%20L%2022.319%2026.948%20L%2022.388%2026.948%20L%2022.388%2026.88%20Z%20M%2023.065%2024.853%20L%2023.08%2024.919%20L%2023.134%2024.908%20L%2023.134%2024.853%20Z%20M%2023.045%2015.71%20L%2023.114%2015.71%20L%2023.114%2015.707%20L%2023.113%2015.704%20Z%20M%208.559%2015.71%20L%208.49%2015.704%20L%208.49%2015.707%20L%208.49%2015.71%20Z%20M%208.539%2024.845%20L%208.47%2024.845%20L%208.469%2024.904%20L%208.528%2024.913%20Z%20M%209.663%2026.88%20L%209.594%2026.88%20L%209.594%2026.948%20L%209.663%2026.948%20Z%20M%2010.796%2028.928%20L%2010.796%2028.996%20L%2010.865%2028.996%20L%2010.865%2028.928%20Z%20M%200.218%2028.928%20L%200.149%2028.928%20L%200.149%2028.996%20L%200.218%2028.996%20Z%20M%201.351%2026.88%20L%201.351%2026.948%20L%201.42%2026.948%20L%201.42%2026.88%20Z%20M%202.296%2024.833%20L%202.296%2024.901%20L%202.365%2024.901%20L%202.365%2024.833%20Z%20M%202.296%208.263%20L%202.365%208.263%20L%202.365%208.195%20L%202.296%208.195%20Z%20M%201.257%208.263%20L%201.191%208.282%20L%201.205%208.331%20L%201.257%208.331%20Z%20M%200.029%204.167%20L%200.029%204.1%20L%20-0.063%204.1%20L%20-0.037%204.187%20L%200.029%204.167%20Z%20M%205.507%204.167%20L%205.507%204.235%20L%205.576%204.235%20L%205.576%204.167%20Z%20M%2026.097%200.004%20L%205.507%200.004%20L%205.507%200.139%20L%2026.097%200.139%20Z%20M%2026.166%204.167%20L%2026.166%200.072%20L%2026.028%200.072%20L%2026.028%204.167%20L%2026.166%204.167%20Z%20M%2031.952%204.099%20L%2026.097%204.099%20L%2026.097%204.235%20L%2031.952%204.235%20Z%20M%2030.791%208.282%20L%2032.019%204.187%20L%2031.886%204.148%20L%2030.658%208.244%20Z%20M%2029.686%208.331%20L%2030.725%208.331%20L%2030.725%208.195%20L%2029.686%208.195%20Z%20M%2029.755%2024.833%20L%2029.755%208.263%20L%2029.617%208.263%20L%2029.617%2024.833%20Z%20M%2030.699%2025.763%20C%2030.699%2025.212%2030.245%2024.765%2029.686%2024.765%20L%2029.686%2024.9%20C%2030.169%2024.9%2030.561%2025.287%2030.561%2025.763%20Z%20M%2030.699%2026.88%20L%2030.699%2025.763%20L%2030.561%2025.763%20L%2030.561%2026.88%20Z%20M%2030.819%2026.813%20L%2030.63%2026.813%20L%2030.63%2026.948%20L%2030.819%2026.948%20Z%20M%2031.832%2027.811%20C%2031.832%2027.26%2031.379%2026.813%2030.819%2026.813%20L%2030.819%2026.948%20C%2031.303%2026.948%2031.695%2027.335%2031.695%2027.811%20Z%20M%2031.832%2028.928%20L%2031.832%2027.811%20L%2031.695%2027.811%20L%2031.695%2028.928%20Z%20M%2026.097%2028.996%20L%2031.764%2028.996%20L%2031.764%2028.86%20L%2026.097%2028.86%20Z%20M%2023.074%2028.996%20L%2026.097%2028.996%20L%2026.097%2028.86%20L%2023.074%2028.86%20Z%20M%2021.185%2028.996%20L%2023.074%2028.996%20L%2023.074%2028.86%20L%2021.185%2028.86%20Z%20M%2021.116%2027.811%20L%2021.116%2028.928%20L%2021.254%2028.928%20L%2021.254%2027.811%20Z%20M%2022.13%2026.813%20C%2021.57%2026.813%2021.116%2027.26%2021.116%2027.811%20L%2021.254%2027.811%20C%2021.254%2027.335%2021.646%2026.948%2022.13%2026.948%20Z%20M%2022.319%2026.813%20L%2022.13%2026.813%20L%2022.13%2026.948%20L%2022.319%2026.948%20Z%20M%2022.25%2025.763%20L%2022.25%2026.88%20L%2022.388%2026.88%20L%2022.388%2025.763%20Z%20M%2023.051%2024.787%20C%2022.593%2024.883%2022.25%2025.284%2022.25%2025.763%20L%2022.388%2025.763%20C%2022.388%2025.349%2022.684%2025.003%2023.08%2024.919%20Z%20M%2022.976%2015.71%20L%2022.996%2024.853%20L%2023.134%2024.853%20L%2023.114%2015.71%20Z%20M%2015.802%209.262%20C%2019.559%209.262%2022.645%2012.098%2022.976%2015.716%20L%2023.113%2015.704%20C%2022.776%2012.016%2019.632%209.126%2015.802%209.126%20Z%20M%208.628%2015.716%20C%208.959%2012.098%2012.044%209.262%2015.802%209.262%20L%2015.802%209.126%20C%2011.972%209.126%208.828%2012.016%208.49%2015.704%20Z%20M%208.608%2024.845%20L%208.628%2015.71%20L%208.49%2015.71%20L%208.47%2024.845%20Z%20M%209.732%2025.763%20C%209.732%2025.502%209.557%2025.273%209.331%2025.105%20C%209.104%2024.935%208.812%2024.817%208.549%2024.778%20L%208.528%2024.912%20C%208.769%2024.948%209.039%2025.057%209.248%2025.213%20C%209.459%2025.37%209.594%2025.563%209.594%2025.763%20Z%20M%209.732%2026.88%20L%209.732%2025.763%20L%209.594%2025.763%20L%209.594%2026.88%20Z%20M%209.852%2026.813%20L%209.663%2026.813%20L%209.663%2026.948%20L%209.852%2026.948%20Z%20M%2010.865%2027.811%20C%2010.865%2027.26%2010.411%2026.813%209.852%2026.813%20L%209.852%2026.948%20C%2010.335%2026.948%2010.727%2027.335%2010.727%2027.811%20Z%20M%2010.865%2028.928%20L%2010.865%2027.811%20L%2010.727%2027.811%20L%2010.727%2028.928%20Z%20M%208.529%2028.996%20L%2010.796%2028.996%20L%2010.796%2028.86%20L%208.529%2028.86%20Z%20M%208.372%2028.996%20L%208.529%2028.996%20L%208.529%2028.86%20L%208.372%2028.86%20Z%20M%205.507%2028.996%20L%208.372%2028.996%20L%208.372%2028.86%20L%205.507%2028.86%20Z%20M%200.218%2028.996%20L%205.507%2028.996%20L%205.507%2028.86%20L%200.218%2028.86%20Z%20M%200.149%2027.811%20L%200.149%2028.928%20L%200.287%2028.928%20L%200.287%2027.811%20Z%20M%201.162%2026.813%20C%200.603%2026.813%200.149%2027.26%200.149%2027.811%20L%200.287%2027.811%20C%200.287%2027.335%200.679%2026.948%201.162%2026.948%20Z%20M%201.351%2026.813%20L%201.162%2026.813%20L%201.162%2026.948%20L%201.351%2026.948%20Z%20M%201.282%2025.763%20L%201.282%2026.88%20L%201.42%2026.88%20L%201.42%2025.763%20Z%20M%202.296%2024.765%20C%201.736%2024.765%201.282%2025.212%201.282%2025.763%20L%201.42%2025.763%20C%201.42%2025.287%201.812%2024.9%202.296%2024.9%20Z%20M%202.227%208.263%20L%202.227%2024.833%20L%202.365%2024.833%20L%202.365%208.263%20Z%20M%201.257%208.331%20L%202.296%208.331%20L%202.296%208.195%20L%201.257%208.195%20Z%20M%20-0.037%204.187%20L%201.191%208.282%20L%201.323%208.244%20L%200.095%204.148%20Z%20M%205.507%204.099%20L%200.029%204.099%20L%200.029%204.235%20L%205.507%204.235%20L%205.507%204.099%20Z%20M%205.438%200.072%20L%205.438%204.167%20L%205.576%204.167%20L%205.576%200.072%20Z%22%20fill%3D%22rgb(255%2C255%2C255)%22%3E%3C%2Fpath%3E%3C%2Fsvg%3E","tagUrl":"https://warpcast.com/edwardtay","textColor":"#FFFFFF","tooltipDescription":"This
        address is linked to a Farcaster account","warpcastHandle":"edwardtay"},"name":"Farcaster","ordinal":0,"slug":"warpcast-account","tagType":"classifier"},{"meta":{},"name":"Metamask
        User","ordinal":0,"slug":"metamask-user","tagType":"generic"}]},"name":null,"private_tags":[],"proxy_type":null,"public_tags":[],"reputation":"ok","watchlist_names":[]},"token":{"address_hash":"0x871f2F2ff935FD1eD867842FF2a7bfD051A5E527","circulating_market_cap":null,"decimals":"18","exchange_rate":null,"holders_count":"5081","icon_url":null,"name":"Wootrade
        Network","reputation":"ok","symbol":"WOO","total_supply":"2225633894758817867818435","type":"ERC-20","volume_24h":null},"token_type":"ERC-20","total":{"decimals":"18","value":"64631235866800472880"},"transaction_hash":"0x4436accee15974bd8836e6a2e2e335a7594fcd29de378cf2f5858c1a92cd0f2b","type":"token_transfer"},{"block_hash":"0xd71e67897c86ac63816bc1e3ea6ebdfccd08191078c8c533c962a6a17b8f5129","block_number":148005657,"from":{"ens_domain_name":null,"hash":"0x8E5DDc0106059e6A31ED802aaeF91e4600E103d8","implementations":[],"is_contract":true,"is_scam":false,"is_verified":false,"metadata":null,"name":null,"private_tags":[],"proxy_type":null,"public_tags":[],"reputation":"ok","watchlist_names":[]},"log_index":182,"method":null,"timestamp":null,"to":{"ens_domain_name":"edwardtay.eth","hash":"0x38430336153468dcf36Af5cea7D6bc472425633A","implementations":[],"is_contract":false,"is_scam":false,"is_verified":false,"metadata":{"tags":[{"meta":{},"name":"edwardtay.eth","ordinal":10,"slug":"edwardtayeth","tagType":"name"},{"meta":{"bgColor":"#8465CB","tagIcon":"data:image/svg+xml;utf8,%3Csvg%20xmlns%3D%22http%3A%2F%2Fwww.w3.org%2F2000%2Fsvg%22%20xmlns%3Axlink%3D%22http%3A%2F%2Fwww.w3.org%2F1999%2Fxlink%22%20viewBox%3D%220%200%2032%2029%22%3E%3Cpath%20d%3D%22M%205.507%200.072%20L%2026.097%200.072%20L%2026.097%204.167%20L%2031.952%204.167%20L%2030.725%208.263%20L%2029.686%208.263%20L%2029.686%2024.833%20C%2030.207%2024.833%2030.63%2025.249%2030.63%2025.763%20L%2030.63%2026.88%20L%2030.819%2026.88%20C%2031.341%2026.88%2031.764%2027.297%2031.764%2027.811%20L%2031.764%2028.928%20L%2021.185%2028.928%20L%2021.185%2027.811%20C%2021.185%2027.297%2021.608%2026.88%2022.13%2026.88%20L%2022.319%2026.88%20L%2022.319%2025.763%20C%2022.319%2025.316%2022.639%2024.943%2023.065%2024.853%20L%2023.045%2015.71%20C%2022.711%2012.057%2019.596%209.194%2015.802%209.194%20C%2012.008%209.194%208.893%2012.057%208.559%2015.71%20L%208.539%2024.845%20C%209.043%2024.919%209.663%2025.302%209.663%2025.763%20L%209.663%2026.88%20L%209.852%2026.88%20C%2010.373%2026.88%2010.796%2027.297%2010.796%2027.811%20L%2010.796%2028.928%20L%200.218%2028.928%20L%200.218%2027.811%20C%200.218%2027.297%200.641%2026.88%201.162%2026.88%20L%201.351%2026.88%20L%201.351%2025.763%20C%201.351%2025.249%201.774%2024.833%202.296%2024.833%20L%202.296%208.263%20L%201.257%208.263%20L%200.029%204.167%20L%205.507%204.167%20L%205.507%200.072%20Z%22%20fill%3D%22rgb(255%2C%20255%2C%20255)%22%3E%3C%2Fpath%3E%3Cpath%20d%3D%22M%2026.097%200.072%20L%2026.166%200.072%20L%2026.166%200.004%20L%2026.097%200.004%20Z%20M%205.507%200.072%20L%205.507%200.004%20L%205.438%200.004%20L%205.438%200.072%20Z%20M%2026.097%204.167%20L%2026.028%204.167%20L%2026.028%204.235%20L%2026.097%204.235%20Z%20M%2031.952%204.167%20L%2032.019%204.187%20L%2032.045%204.099%20L%2031.952%204.099%20L%2031.952%204.167%20Z%20M%2030.725%208.263%20L%2030.725%208.331%20L%2030.776%208.331%20L%2030.791%208.282%20Z%20M%2029.686%208.263%20L%2029.686%208.195%20L%2029.617%208.195%20L%2029.617%208.263%20Z%20M%2029.686%2024.833%20L%2029.617%2024.833%20L%2029.617%2024.901%20L%2029.686%2024.901%20Z%20M%2030.63%2026.88%20L%2030.561%2026.88%20L%2030.561%2026.948%20L%2030.63%2026.948%20Z%20M%2031.764%2028.928%20L%2031.764%2028.996%20L%2031.832%2028.996%20L%2031.832%2028.928%20Z%20M%2021.185%2028.928%20L%2021.116%2028.928%20L%2021.116%2028.996%20L%2021.185%2028.996%20Z%20M%2022.319%2026.88%20L%2022.319%2026.948%20L%2022.388%2026.948%20L%2022.388%2026.88%20Z%20M%2023.065%2024.853%20L%2023.08%2024.919%20L%2023.134%2024.908%20L%2023.134%2024.853%20Z%20M%2023.045%2015.71%20L%2023.114%2015.71%20L%2023.114%2015.707%20L%2023.113%2015.704%20Z%20M%208.559%2015.71%20L%208.49%2015.704%20L%208.49%2015.707%20L%208.49%2015.71%20Z%20M%208.539%2024.845%20L%208.47%2024.845%20L%208.469%2024.904%20L%208.528%2024.913%20Z%20M%209.663%2026.88%20L%209.594%2026.88%20L%209.594%2026.948%20L%209.663%2026.948%20Z%20M%2010.796%2028.928%20L%2010.796%2028.996%20L%2010.865%2028.996%20L%2010.865%2028.928%20Z%20M%200.218%2028.928%20L%200.149%2028.928%20L%200.149%2028.996%20L%200.218%2028.996%20Z%20M%201.351%2026.88%20L%201.351%2026.948%20L%201.42%2026.948%20L%201.42%2026.88%20Z%20M%202.296%2024.833%20L%202.296%2024.901%20L%202.365%2024.901%20L%202.365%2024.833%20Z%20M%202.296%208.263%20L%202.365%208.263%20L%202.365%208.195%20L%202.296%208.195%20Z%20M%201.257%208.263%20L%201.191%208.282%20L%201.205%208.331%20L%201.257%208.331%20Z%20M%200.029%204.167%20L%200.029%204.1%20L%20-0.063%204.1%20L%20-0.037%204.187%20L%200.029%204.167%20Z%20M%205.507%204.167%20L%205.507%204.235%20L%205.576%204.235%20L%205.576%204.167%20Z%20M%2026.097%200.004%20L%205.507%200.004%20L%205.507%200.139%20L%2026.097%200.139%20Z%20M%2026.166%204.167%20L%2026.166%200.072%20L%2026.028%200.072%20L%2026.028%204.167%20L%2026.166%204.167%20Z%20M%2031.952%204.099%20L%2026.097%204.099%20L%2026.097%204.235%20L%2031.952%204.235%20Z%20M%2030.791%208.282%20L%2032.019%204.187%20L%2031.886%204.148%20L%2030.658%208.244%20Z%20M%2029.686%208.331%20L%2030.725%208.331%20L%2030.725%208.195%20L%2029.686%208.195%20Z%20M%2029.755%2024.833%20L%2029.755%208.263%20L%2029.617%208.263%20L%2029.617%2024.833%20Z%20M%2030.699%2025.763%20C%2030.699%2025.212%2030.245%2024.765%2029.686%2024.765%20L%2029.686%2024.9%20C%2030.169%2024.9%2030.561%2025.287%2030.561%2025.763%20Z%20M%2030.699%2026.88%20L%2030.699%2025.763%20L%2030.561%2025.763%20L%2030.561%2026.88%20Z%20M%2030.819%2026.813%20L%2030.63%2026.813%20L%2030.63%2026.948%20L%2030.819%2026.948%20Z%20M%2031.832%2027.811%20C%2031.832%2027.26%2031.379%2026.813%2030.819%2026.813%20L%2030.819%2026.948%20C%2031.303%2026.948%2031.695%2027.335%2031.695%2027.811%20Z%20M%2031.832%2028.928%20L%2031.832%2027.811%20L%2031.695%2027.811%20L%2031.695%2028.928%20Z%20M%2026.097%2028.996%20L%2031.764%2028.996%20L%2031.764%2028.86%20L%2026.097%2028.86%20Z%20M%2023.074%2028.996%20L%2026.097%2028.996%20L%2026.097%2028.86%20L%2023.074%2028.86%20Z%20M%2021.185%2028.996%20L%2023.074%2028.996%20L%2023.074%2028.86%20L%2021.185%2028.86%20Z%20M%2021.116%2027.811%20L%2021.116%2028.928%20L%2021.254%2028.928%20L%2021.254%2027.811%20Z%20M%2022.13%2026.813%20C%2021.57%2026.813%2021.116%2027.26%2021.116%2027.811%20L%2021.254%2027.811%20C%2021.254%2027.335%2021.646%2026.948%2022.13%2026.948%20Z%20M%2022.319%2026.813%20L%2022.13%2026.813%20L%2022.13%2026.948%20L%2022.319%2026.948%20Z%20M%2022.25%2025.763%20L%2022.25%2026.88%20L%2022.388%2026.88%20L%2022.388%2025.763%20Z%20M%2023.051%2024.787%20C%2022.593%2024.883%2022.25%2025.284%2022.25%2025.763%20L%2022.388%2025.763%20C%2022.388%2025.349%2022.684%2025.003%2023.08%2024.919%20Z%20M%2022.976%2015.71%20L%2022.996%2024.853%20L%2023.134%2024.853%20L%2023.114%2015.71%20Z%20M%2015.802%209.262%20C%2019.559%209.262%2022.645%2012.098%2022.976%2015.716%20L%2023.113%2015.704%20C%2022.776%2012.016%2019.632%209.126%2015.802%209.126%20Z%20M%208.628%2015.716%20C%208.959%2012.098%2012.044%209.262%2015.802%209.262%20L%2015.802%209.126%20C%2011.972%209.126%208.828%2012.016%208.49%2015.704%20Z%20M%208.608%2024.845%20L%208.628%2015.71%20L%208.49%2015.71%20L%208.47%2024.845%20Z%20M%209.732%2025.763%20C%209.732%2025.502%209.557%2025.273%209.331%2025.105%20C%209.104%2024.935%208.812%2024.817%208.549%2024.778%20L%208.528%2024.912%20C%208.769%2024.948%209.039%2025.057%209.248%2025.213%20C%209.459%2025.37%209.594%2025.563%209.594%2025.763%20Z%20M%209.732%2026.88%20L%209.732%2025.763%20L%209.594%2025.763%20L%209.594%2026.88%20Z%20M%209.852%2026.813%20L%209.663%2026.813%20L%209.663%2026.948%20L%209.852%2026.948%20Z%20M%2010.865%2027.811%20C%2010.865%2027.26%2010.411%2026.813%209.852%2026.813%20L%209.852%2026.948%20C%2010.335%2026.948%2010.727%2027.335%2010.727%2027.811%20Z%20M%2010.865%2028.928%20L%2010.865%2027.811%20L%2010.727%2027.811%20L%2010.727%2028.928%20Z%20M%208.529%2028.996%20L%2010.796%2028.996%20L%2010.796%2028.86%20L%208.529%2028.86%20Z%20M%208.372%2028.996%20L%208.529%2028.996%20L%208.529%2028.86%20L%208.372%2028.86%20Z%20M%205.507%2028.996%20L%208.372%2028.996%20L%208.372%2028.86%20L%205.507%2028.86%20Z%20M%200.218%2028.996%20L%205.507%2028.996%20L%205.507%2028.86%20L%200.218%2028.86%20Z%20M%200.149%2027.811%20L%200.149%2028.928%20L%200.287%2028.928%20L%200.287%2027.811%20Z%20M%201.162%2026.813%20C%200.603%2026.813%200.149%2027.26%200.149%2027.811%20L%200.287%2027.811%20C%200.287%2027.335%200.679%2026.948%201.162%2026.948%20Z%20M%201.351%2026.813%20L%201.162%2026.813%20L%201.162%2026.948%20L%201.351%2026.948%20Z%20M%201.282%2025.763%20L%201.282%2026.88%20L%201.42%2026.88%20L%201.42%2025.763%20Z%20M%202.296%2024.765%20C%201.736%2024.765%201.282%2025.212%201.282%2025.763%20L%201.42%2025.763%20C%201.42%2025.287%201.812%2024.9%202.296%2024.9%20Z%20M%202.227%208.263%20L%202.227%2024.833%20L%202.365%2024.833%20L%202.365%208.263%20Z%20M%201.257%208.331%20L%202.296%208.331%20L%202.296%208.195%20L%201.257%208.195%20Z%20M%20-0.037%204.187%20L%201.191%208.282%20L%201.323%208.244%20L%200.095%204.148%20Z%20M%205.507%204.099%20L%200.029%204.099%20L%200.029%204.235%20L%205.507%204.235%20L%205.507%204.099%20Z%20M%205.438%200.072%20L%205.438%204.167%20L%205.576%204.167%20L%205.576%200.072%20Z%22%20fill%3D%22rgb(255%2C255%2C255)%22%3E%3C%2Fpath%3E%3C%2Fsvg%3E","tagUrl":"https://warpcast.com/edwardtay","textColor":"#FFFFFF","tooltipDescription":"This
        address is linked to a Farcaster account","warpcastHandle":"edwardtay"},"name":"Farcaster","ordinal":0,"slug":"warpcast-account","tagType":"classifier"},{"meta":{},"name":"Metamask
        User","ordinal":0,"slug":"metamask-user","tagType":"generic"}]},"name":null,"private_tags":[],"proxy_type":null,"public_tags":[],"reputation":"ok","watchlist_names":[]},"token":{"address_hash":"0x4200000000000000000000000000000000000042","circulating_market_cap":"247940853.801741","decimals":"18","exchange_rate":"0.117071","holders_count":"1381283","icon_url":"https://assets.coingecko.com/coins/images/25244/small/Optimism.png?1696524385","name":"Optimism","reputation":"ok","symbol":"OP","total_supply":"4294963292498750113616177748","type":"ERC-20","volume_24h":"75746026.36558683"},"token_type":"ERC-20","total":{"decimals":"18","value":"1146041337611369472"},"transaction_hash":"0x4436accee15974bd8836e6a2e2e335a7594fcd29de378cf2f5858c1a92cd0f2b","type":"token_transfer"}],"base_fee_per_gas":"374777","timestamp":"2026-02-20T17:54:51.000000Z","nonce":1722,"historic_exchange_rate":"1968.32","transaction_types":["contract_call","token_transfer"],"exchange_rate":"1853.88","block_number":148005657,"has_error_in_internal_transactions":false,"da_footprint_gas_scalar":"400"}'
    headers:
      CF-RAY:
      - 9d318699385d846e-ATL
      Cache-Control:
      - max-age=0, private, must-revalidate
      Connection:
      - keep-alive
      Content-Type:
      - application/json; charset=utf-8
      Date:
      - Tue, 24 Feb 2026 19:56:22 GMT
      Nel:
      - '{"report_to":"cf-nel","success_fraction":0.0,"max_age":604800}'
      Report-To:
      - '{"group":"cf-nel","max_age":604800,"endpoints":[{"url":"https://a.nel.cloudflare.com/report/v4?s=uzcn3ObJA0%2F8Xv2gmmatD9%2FYsegZN2fYNzyn774GZCsM4N%2BHdpSk4C4z5oOudPzAktem0u3iQeGf4hEUhIZx6JzVq45Lt4iUaruJe3tqu02q9WLz"}]}'
      Server:
      - cloudflare
      Transfer-Encoding:
      - chunked
      access-control-allow-credentials:
      - 'true'
      access-control-allow-origin:
      - '*'
      access-control-expose-headers:
      - bypass-429-option,x-ratelimit-reset,x-ratelimit-limit,x-ratelimit-remaining,api-v2-temp-token
      alt-svc:
      - h3=":443"; ma=86400
      bypass-429-option:
      - temporary_token
      cf-cache-status:
      - DYNAMIC
      content-length:
      - '31320'
      strict-transport-security:
      - max-age=31536000; includeSubDomains
      x-ratelimit-limit:
      - '600'
      x-ratelimit-remaining:
      - '590'
      x-ratelimit-reset:
      - '38629'
      x-request-id:
      - bf7be45a58f23b1f1eca94232e369041
    status:
      code: 200
      message: OK
- request:
    body: null
    headers:
      Accept:
      - '*/*'
      Accept-Encoding:
      - gzip, deflate
      Connection:
      - keep-alive
      User-Agent:
      - rotki/1.41.4.dev762+ge38047a983
    method: GET
    uri: https://explorer.optimism.io/api?action=txlistinternal&module=account&sort=asc&txhash=0x4436accee15974bd8836e6a2e2e335a7594fcd29de378cf2f5858c1a92cd0f2b
  response:
    body:
      string: '{"message":"No internal transactions found","result":[],"status":"0"}'
    headers:
      CF-RAY:
      - 9d31869eaaa6704d-ATL
      Cache-Control:
      - max-age=0, private, must-revalidate
      Connection:
      - keep-alive
      Content-Type:
      - application/json; charset=utf-8
      Date:
      - Tue, 24 Feb 2026 19:56:22 GMT
      Nel:
      - '{"report_to":"cf-nel","success_fraction":0.0,"max_age":604800}'
      Report-To:
      - '{"group":"cf-nel","max_age":604800,"endpoints":[{"url":"https://a.nel.cloudflare.com/report/v4?s=LtwiJCWcw6X4mk3dD3x%2FB6%2B2hr%2Bzechp7hX467yZXEXKT0UigC%2F6mMkcDCneT8Tei8K%2BJEJ1QedKcJfM%2BYnOE0QNiZtj7rJu%2BKlr9Su7LeDcaUmx"}]}'
      Server:
      - cloudflare
      Transfer-Encoding:
      - chunked
      access-control-allow-credentials:
      - 'true'
      access-control-allow-origin:
      - '*'
      access-control-expose-headers:
      - bypass-429-option,x-ratelimit-reset,x-ratelimit-limit,x-ratelimit-remaining,api-v2-temp-token
      alt-svc:
      - h3=":443"; ma=86400
      bypass-429-option:
      - no_bypass
      cf-cache-status:
      - DYNAMIC
      content-length:
      - '69'
      strict-transport-security:
      - max-age=31536000; includeSubDomains
      x-ratelimit-limit:
      - '600'
      x-ratelimit-remaining:
      - '589'
      x-ratelimit-reset:
      - '37482'
      x-request-id:
      - f0b45710b86b18469a9acd248abb21b7
    status:
      code: 200
      message: OK
- request:
    body: '{"id": 0, "jsonrpc": "2.0", "method": "eth_call", "params": [{"to": "0xc0f8C29e3a9A7650a3F642e467d70087819926d6",
      "data": "0x1526fe270000000000000000000000000000000000000000000000000000000000000001"},
      "latest"]}'
    headers:
      Accept:
      - '*/*'
      Accept-Encoding:
      - gzip, deflate
      Connection:
      - keep-alive
      Content-Length:
      - '211'
      Content-Type:
      - application/json
      User-Agent:
      - rotki/1.41.4.dev762+ge38047a983
    method: POST
    uri: https://explorer.optimism.io/api/eth-rpc
  response:
    body:
      string: '{"jsonrpc":"2.0","result": "0x000000000000000000000000ca7184ea1cb4cf04d49bf219c49a39231299da2600000000000000000000000000000000000000000000000000000000000000640000000000000000000000000000000000000000000000000000000008d43c0e00000000000000000000000000000000000000000000000000000504ee76f2d00000000000000000000000008e5ddc0106059e6a31ed802aaef91e4600e103d8","id":
        0}

        '
    headers:
      CF-RAY:
      - 9d3186a38f7c2c4f-ATL
      Cache-Control:
      - max-age=0, private, must-revalidate
      Connection:
      - keep-alive
      Content-Type:
      - application/json; charset=utf-8
      Date:
      - Tue, 24 Feb 2026 19:56:23 GMT
      Nel:
      - '{"report_to":"cf-nel","success_fraction":0.0,"max_age":604800}'
      Report-To:
      - '{"group":"cf-nel","max_age":604800,"endpoints":[{"url":"https://a.nel.cloudflare.com/report/v4?s=DtE0p1uhThZwEzAIyRMIFqJSJS2m1IWPHbmo4DdctCOKzrrWDyAc86eOdbrSwj5NpzY3llc0sdNge5at9HQ1668OmsI6jmFHUbI3f6vH08wgapCp"}]}'
      Server:
      - cloudflare
      Transfer-Encoding:
      - chunked
      access-control-allow-credentials:
      - 'true'
      access-control-allow-origin:
      - '*'
      access-control-expose-headers:
      - bypass-429-option,x-ratelimit-reset,x-ratelimit-limit,x-ratelimit-remaining,api-v2-temp-token
      alt-svc:
      - h3=":443"; ma=86400
      bypass-429-option:
      - no_bypass
      cf-cache-status:
      - DYNAMIC
      content-length:
      - '361'
      strict-transport-security:
      - max-age=31536000; includeSubDomains
      x-ratelimit-limit:
      - '600'
      x-ratelimit-remaining:
      - '588'
      x-ratelimit-reset:
      - '36975'
      x-request-id:
      - 4b23b2bf0cbbb1c0721e7066dcb9927a
    status:
      code: 200
      message: OK
version: 1
