interactions:
- request:
    body: '{"id": 0, "jsonrpc": "2.0", "method": "eth_getTransactionByHash", "params":
      ["0x1d3ce58bcea0b090a2ec8d9f9dfcfb4754bcf44a0231376e4cba691379fac9ba"]}'
    headers:
      Accept:
      - '*/*'
      Accept-Encoding:
      - gzip, deflate
      Connection:
      - keep-alive
      Content-Length:
      - '147'
      Content-Type:
      - application/json
      User-Agent:
      - rotki/1.41.4.dev762+ge38047a983
    method: POST
    uri: https://explorer.optimism.io/api/eth-rpc
  response:
    body:
      string: '{"jsonrpc":"2.0","result": {"accessList":[],"blockHash":"0xa32cde76caa7f18e822d73d5af983cf253113167e6c24678bb69c1a80e55cef8","blockNumber":"0x8bc0ded","chainId":"0xa","from":"0xc736a2e29f4e764f548a76a960595687559d8eac","gas":"0x17636","gasPrice":"0x19026","hash":"0x1d3ce58bcea0b090a2ec8d9f9dfcfb4754bcf44a0231376e4cba691379fac9ba","input":"0x3ccfd60b","maxFeePerGas":"0x193e8","maxPriorityFeePerGas":"0x186a0","nonce":"0x25d","r":"0x518e4d0de28db002b35f166d9f434b58a279b4dc9839415ae08d91773991da78","s":"0x6c8392b2002d76a14b9b1dc73ae5b7a34b91615d6f94b90f86895a9c6bbad5da","to":"0x91741863a48f0b29fc0b6d10b3cde2122feb58f7","transactionIndex":"0x20","type":"0x2","v":"0x1","value":"0x0","yParity":"0x1"},"id":
        0}

        '
    headers:
      CF-RAY:
      - 9d29492f9e1ac17a-ATL
      Cache-Control:
      - max-age=0, private, must-revalidate
      Connection:
      - keep-alive
      Content-Type:
      - application/json; charset=utf-8
      Date:
      - Mon, 23 Feb 2026 19:56:20 GMT
      Nel:
      - '{"report_to":"cf-nel","success_fraction":0.0,"max_age":604800}'
      Report-To:
      - '{"group":"cf-nel","max_age":604800,"endpoints":[{"url":"https://a.nel.cloudflare.com/report/v4?s=etERW6qwhNtXvwf9P26LcHW0HPlhKGn6KrJc5a6TAjDFOFJUpO41%2BS4yBNcdvv62KoY%2BOdb%2FuL7u8%2BDMAK%2FYv0paktFk0HOwf7f3LH62WDC1vMSl"}]}'
      Server:
      - cloudflare
      Transfer-Encoding:
      - chunked
      access-control-allow-credentials:
      - 'true'
      access-control-allow-origin:
      - '*'
      access-control-expose-headers:
      - bypass-429-option,x-ratelimit-reset,x-ratelimit-limit,x-ratelimit-remaining,api-v2-temp-token
      alt-svc:
      - h3=":443"; ma=86400
      bypass-429-option:
      - no_bypass
      cf-cache-status:
      - DYNAMIC
      content-length:
      - '712'
      strict-transport-security:
      - max-age=31536000; includeSubDomains
      x-ratelimit-limit:
      - '600'
      x-ratelimit-remaining:
      - '599'
      x-ratelimit-reset:
      - '39890'
      x-request-id:
      - c1872b9587c82b822c83db8762e5409e
    status:
      code: 200
      message: OK
- request:
    body: '{"id": 0, "jsonrpc": "2.0", "method": "eth_getBlockByNumber", "params":
      ["0x8bc0ded", true]}'
    headers:
      Accept:
      - '*/*'
      Accept-Encoding:
      - gzip, deflate
      Connection:
      - keep-alive
      Content-Length:
      - '92'
      Content-Type:
      - application/json
      User-Agent:
      - rotki/1.41.4.dev762+ge38047a983
    method: POST
    uri: https://explorer.optimism.io/api/eth-rpc
  response:
    body:
      string: '{"jsonrpc":"2.0","result": {"baseFeePerGas":"0x986","blobGasUsed":"0x6f8dd0","difficulty":"0x0","excessBlobGas":"0x0","extraData":"0x01000000fa000000020000000000000000","gasLimit":"0x2625a00","gasUsed":"0x1271be6","hash":"0xa32cde76caa7f18e822d73d5af983cf253113167e6c24678bb69c1a80e55cef8","logsBloom":"0xc73232911191a5190082108a46024826414202984009280008345590748b1901178d1010348482100840801127007922244602d2ae607694c60c0345406500403af0a0010ca830aba205540850090a2602c49a02806409b90848000cb4e06251f41222089a5dc048bc8001e1c120580409800202085ca408019084328c4a14289028246968004c00582a1340ca0094d00100f80118218182058a80544a910238a28201020e08402110e38b030850508120d0707111e810480ce723606008608e17203a622a0c84f131030a972a62578bdec01e044e87270c3080002a584a6444415ead0911a713022c40138c32ca11208482c84c419209480642e5a1402b2882","miner":"0x4200000000000000000000000000000000000011","mixHash":"0x12667f420ed53c689984f86d01225b40f67cd69fa9241615152e4f243679ec19","nonce":"0x0000000000000000","number":"0x8bc0ded","parentBeaconBlockRoot":"0x52dd3f3a40447d8825ee82fe9c0ae94b1be81d1f79df5f09b2e61521671b61c5","parentHash":"0x328a5816855b7bf80a75cd520ea0ad6ab6f0dfd81cc33982f7f608937b4dd02d","receiptsRoot":"0x08d0ae3a9e8a86b749b2bca6da2fab088c3d1f1d7d61593ca6199bfd0b3c40a3","requestsHash":"0xe3b0c44298fc1c149afbf4c8996fb92427ae41e4649b934ca495991b7852b855","sha3Uncles":"0x1dcc4de8dec75d7aab85b567b6ccd41ad312451b948a7413f0a142fd40d49347","size":"0xc433","stateRoot":"0x3e610d1935c1a68c771413700f311103aa62c5c369840ce43b68cf9823880aab","timestamp":"0x696bf593","transactions":[{"blockHash":"0xa32cde76caa7f18e822d73d5af983cf253113167e6c24678bb69c1a80e55cef8","blockNumber":"0x8bc0ded","depositReceiptVersion":"0x1","from":"0xdeaddeaddeaddeaddeaddeaddeaddeaddead0001","gas":"0xf4240","gasPrice":"0x0","hash":"0xd86fc523ac03eeef5b514c0468f61ebba5dcfaedd730e759cc3f1666320ffeb8","input":"0x3db6be2b0000146b000f79c5000000000000000300000000696bf54300000000017221b50000000000000000000000000000000000000000000000000000000001fac40d00000000000000000000000000000000000000000000000000000000001b9fa440b09d07ac438742a8025efd72ca6732907c689c4693f0b5933041fa50e4bb450000000000000000000000006887246668a3b87f54deb3b94ba47a6f63f329850000000000000000000000000190","mint":"0x0","nonce":"0x2764b79","r":"0x0","s":"0x0","sourceHash":"0xf581980316827bdf046bace468eb312109c08dbfc33c68c07a010019877df6ea","to":"0x4200000000000000000000000000000000000015","transactionIndex":"0x0","type":"0x7e","v":"0x0","value":"0x0","yParity":"0x0"},{"blockHash":"0xa32cde76caa7f18e822d73d5af983cf253113167e6c24678bb69c1a80e55cef8","blockNumber":"0x8bc0ded","chainId":"0xa","from":"0x9db45367b2b8f41a9d72ee6d3eea3327e364e3b7","gas":"0xadb40","gasPrice":"0x125af2","hash":"0xe572946285233edfa3b729d5f363885333d44ce40a4687335176a3168edcecac","input":"0x174dea710000000000000000000000000000000000000000000000000000000000000020000000000000000000000000000000000000000000000000000000000000000200000000000000000000000000000000000000000000000000000000000000400000000000000000000000000000000000000000000000000000000000000220000000000000000000000000ba5ed110efdba3d005bfc882d75358acbbb8584200000000000000000000000000000000000000000000000000000000000000000000000000000000000000000000000000000000000000000000000000000000000000000000000000000000000000000000000000000000000000000000008000000000000000000000000000000000000000000000000000000000000001343ffba36f0000000000000000000000000000000000000000000000000000000000000040000000000000000000000000000000000000000000000000000000000000000000000000000000000000000000000000000000000000000000000000000000020000000000000000000000000000000000000000000000000000000000000040000000000000000000000000000000000000000000000000000000000000008000000000000000000000000000000000000000000000000000000000000000200000000000000000000000004dbdf36665de9bfb7bf27c75994c7f93c923927e00000000000000000000000000000000000000000000000000000000000000200000000000000000000000002572a318f9dab90801c26cafdaa9f0eb5be145f6d20498fe84b1616932a3117fe1f30da100000000000000000000000000000000000000000000000000000000fc04c910a0b5fea33b03e0447ad0b0aa0000000000000000000000000000000000000000000000000000000000000000000000000000000000000000000000000000000000000000000036d35102daf800000000000000000000000000000000000000000000000000000000000000800000000000000000000000000000000000000000000000000000000000000564a44c9ce7000000000000000000000000000000000000000000000000000000000000006000000000000000000000000000000000000000000000000000000000000001e0000000000000000000000000000000000000000000000000000000000000000000000000000000000000000058309ced7038f2e250f66cf25fb4465f41a8d163000000000000000000000000000000000000000000000000000000000000000000000000000000000000000000000000000000000000000000000000696bf7c9000000000000000000000000000000000000000000000000000000000000008000000000000000000000000000000000000000000000000000000000000000e00000000000000000000000000000000000000000000000000000000000000020000000000000000000000000000000000000000000000000000000000000000100000000000000000000000000000000000000000000000000000000000000400000000000000000000000000000000000000000000000000000000000000041962c590471a0d0781f01833a3ec41e592a1ca2d768fe0f26663021a50de95a0e1f84572df0031262df7f493f5b889b5dcc42c4ee35ad48b52186b0310118b7ca1c0000000000000000000000000000000000000000000000000000000000000000000000000000000000000000000000000000000000000000000000000000010000000000000000000000000000000000000000000000000000000000000020000000000000000000000000000000000000000000000000000000000000000100000000000000000000000000000000000000000000000000000000000000c00000000000000000000000000000000000000000000000000000000000000001000000000000000000000000000000000000000000000000000000000000010000000000000000000000000000000000000000000000000000000000696c038100000000000000000000000000000000000000000000000000000000000002400000000000000000000000000000000000000000000000000000000000000020d9bfa3f4cd4043dc8c9dd54727d241b984c7963dc47c555109ac1befc1dc715a00000000000000000000000000000000000000000000000000000000000001200000000000000000000000000000000000000000000000000000000000000020000000000000000000000000000000000000000000000000000000000004ba6100000000000000000000000020c5cfecc0d1e03d2511aec13ea016f552d639b7000000000000000000000000000000000000000000000000000000000000008000000000000000000000000000000000000000000000000000000000696c03810000000000000000000000000000000000000000000000000000000000000041861863b524a1deb9d0aef9f4d93a50b9d914945bc9fdd51b17c7bca382076dbc5fee79f7cc44e86cce445f09c987cabe17285b01f9d3445a92e30cedeeb0468a1c0000000000000000000000000000000000000000000000000000000000000000000000000000000000000000000000000000000000000000000000000000e00000000000000000000000000000000000000000000000000000000000000020000000000000000000000000000000000000000000000000000000000000000100000000000000000000000000000000000000000000000000000000000000400000000000000000000000000000000000000000000000000000000000000041a157a5c58e9818ce2bfb03ca4074b0eeecb3056fdaf198d4229683ba0407ad9800104795ea7291ed177dab73ab0e2758a69428ae714af36f5f5b9546d5d4775d1b0000000000000000000000000000000000000000000000000000000000000000000000000000000000000000000000000000000000000000000000","nonce":"0xa800","r":"0x1be30819f51fdf290326188ca2e630bcf4143709be2004290b01dd5afcf14529","s":"0x7cc89935720e686ff5d13363eb11e62f72abb3182c8423eb84ed026e77eee61e","to":"0xca11bde05977b3631167028862be2a173976ca11","transactionIndex":"0x1","type":"0x0","v":"0x37","value":"0x36d35102daf8"},{"accessList":[],"blockHash":"0xa32cde76caa7f18e822d73d5af983cf253113167e6c24678bb69c1a80e55cef8","blockNumber":"0x8bc0ded","chainId":"0xa","from":"0x6deedcccf4d6c2d414f919c3b1aa4c95592625b7","gas":"0x30d40","gasPrice":"0xf4bc6","hash":"0xb01dff402e1d8af270cfedf1fd08e82f3aef342c105fb855f529c3193847f987","input":"0x3593564c000000000000000000000000000000000000000000000000000000000000006000000000000000000000000000000000000000000000000000000000000000a000000000000000000000000000000000000000000000000000000000696bf7e600000000000000000000000000000000000000000000000000000000000000020b000000000000000000000000000000000000000000000000000000000000000000000000000000000000000000000000000000000000000000000000000002000000000000000000000000000000000000000000000000000000000000004000000000000000000000000000000000000000000000000000000000000000a0000000000000000000000000000000000000000000000000000000000000004000000000000000000000000000000000000000000000000000000000000000020000000000000000000000000000000000000000000000000000048c2739500000000000000000000000000000000000000000000000000000000000000001000000000000000000000000006deedcccf4d6c2d414f919c3b1aa4c95592625b70000000000000000000000000000000000000000000000000000048c273950000000000000000000000000000000000000000000000000000186cc6acd4b000000000000000000000000000000000000000000000000000000000000000000a00000000000000000000000000000000000000000000000000000000000000000000000000000000000000000000000000000000000000000000000000000002b4200000000000000000000000000000000000006000bb8ef4461891dfb3ac8572ccf7c794664a8dd927945000000000000000000000000000000000000000000","maxFeePerGas":"0xf5554","maxPriorityFeePerGas":"0xf4240","nonce":"0x0","r":"0x3fb0b1f7f872de429ee240ca419c851ee419d2442abb72ab275c7120f76993be","s":"0x252fd1e2ae1f5e648fa4a470b7c086e7764ddee163019952b0c61c2ceb47491d","to":"0x851116d9223fabed8e56c0e6b8ad0c31d98b3507","transactionIndex":"0x2","type":"0x2","v":"0x0","value":"0x48c27395000","yParity":"0x0"},{"accessList":[],"blockHash":"0xa32cde76caa7f18e822d73d5af983cf253113167e6c24678bb69c1a80e55cef8","blockNumber":"0x8bc0ded","chainId":"0xa","from":"0x0ba8f6633a71784f05de0d9df378d3662e47e958","gas":"0xad94d","gasPrice":"0x3bc66","hash":"0xe94666a861ce6e17fe5edc14835c95ad42307595aedd6c4f6f0701b38c0f2757","input":"0x0193b9fc00000000000000000000000000000000000000000000000000000000000000c000000000000000000000000094b008aa00579c1307b0ef2c499ad98a8ce58e580000000000000000000000000000000000000000000000000000000000989680000000000000000000000000000000000000000000000000000000000000000b00000000000000000000000000000000000000000000000000000000696bfc9000000000000000000000000000000000000000000000000000000000000003200000000000000000000000000000000000000000000000000000000000000224092e8fa40000000000000000000000000000000000000000000000000000000000000060ef16987a23cb2f3dd82fc15671214fcfa2efb484bbf58ff3f16ed633eb8428230000000000000000000000000ba8f6633a71784f05de0d9df378d3662e47e958516b23189256cfb5b739a859ff8c757c5bcb3e2132e10d4fcfa0766f59f4cf4900000000000000000000000000000000000000000000000000000000000001400000000000000000000000000000000000000000000000000000000000000180000000000000000000000000000000000000000000000000000000000000000000000000000000000000000094b008aa00579c1307b0ef2c499ad98a8ce58e5800000000000000000000000011f111f111f111f111f111f111f111f111f111f10000000000000000000000000000000000000000000000000000000000989680000000000000000000000000000000000000000000000000000416edef1601be00000000000000000000000000000000000000000000000000000000000000000000000000000000000000000000000000000000000000000000000000000000000000000000000000000000000000000000000000000000000000000000000f72656c61796465706f7369746f72790000000000000000000000000000000000000000000000000000000000000000000000000000000000000000000000000f6a756d7065722e65786368616e6765000000000000000000000000000000000000000000000000000000000000000000000000000000000000000000000000000000000000000000000000000000000000000000000000000000004156256fc86007e6ed4d06026edce8d8bb7b5b4899c26a3face33c50ac37e76e46549fac31a9454e34e16513050223c463d1d45c49d9144b0fdf29ac5290349fea1b00000000000000000000000000000000000000000000000000000000000000","maxFeePerGas":"0x3c1b8","maxPriorityFeePerGas":"0x3b2e0","nonce":"0x1e4","r":"0xa1b4a4782f51ccabd203abccd383953ba2696a4c8b3398cb21a2b587baa3a075","s":"0x1573f7d0c0b6321c60b67df365d3f2f4f2724af39cad8ececfc0e9050999ba96","to":"0x89c6340b1a1f4b25d36cd8b063d49045caf3f818","transactionIndex":"0x3","type":"0x2","v":"0x0","value":"0x0","yParity":"0x0"},{"accessList":[],"blockHash":"0xa32cde76caa7f18e822d73d5af983cf253113167e6c24678bb69c1a80e55cef8","blockNumber":"0x8bc0ded","chainId":"0xa","from":"0x063d1a004fe245b47032292c49a683345cb31ffc","gas":"0x1e8480","gasPrice":"0x1921b","hash":"0x3fb084eaff862bccd10724e92ba75903bfa2a85b4db62b3e76a072109f8299d2","input":"0x00000001","maxFeePerGas":"0x3b9c5295","maxPriorityFeePerGas":"0x18895","nonce":"0x119788","r":"0xf55a426914003cc5f7cc6563bfe6c1692c4ff021001b534cc449239eee2bd07b","s":"0x2cfe79f002b1d22825ab28f587131f46dc4bc5367c9952812323e29cccf48037","to":"0x63f8d4000ba6fe867dcb581eaa20a1bc89dcc15e","transactionIndex":"0x4","type":"0x2","v":"0x1","value":"0x0","yParity":"0x1"},{"accessList":[],"blockHash":"0xa32cde76caa7f18e822d73d5af983cf253113167e6c24678bb69c1a80e55cef8","blockNumber":"0x8bc0ded","chainId":"0xa","from":"0xee9d52601c011ee9c033b3a8d2776a191217bdcb","gas":"0x1e8480","gasPrice":"0x1921a","hash":"0x4612895615509ecefbc9c37b3d59fb4d787c0183dca75de1a3d165a1ad24aa71","input":"0x00000001","maxFeePerGas":"0x3b9c5294","maxPriorityFeePerGas":"0x18894","nonce":"0x1168a6","r":"0x6b79cb5ca267755fb3a350b29ae8ec00bfc61fde5379a119be4ffd69ef6b94fd","s":"0xe794abb92842d6a7a05c4b5a9bb0538ba2062e2731cfe8abfbe46b8e019756f","to":"0x682756f7985896f1924c03cd9c55b41319c89c9d","transactionIndex":"0x5","type":"0x2","v":"0x1","value":"0x0","yParity":"0x1"},{"accessList":[],"blockHash":"0xa32cde76caa7f18e822d73d5af983cf253113167e6c24678bb69c1a80e55cef8","blockNumber":"0x8bc0ded","chainId":"0xa","from":"0x4160f36bf377c0cf98d86397c5f1a3e3bf11c48f","gas":"0x1e8480","gasPrice":"0x1921a","hash":"0x6c7f030b88f4ea56d3eeaa860ea72dbd50d8c365a88ff73244ac89ccd0f821c0","input":"0x00000001","maxFeePerGas":"0x3b9c5294","maxPriorityFeePerGas":"0x18894","nonce":"0xed0cc","r":"0xd189ada88adb475488c92d7301b1ec759d6c868c86c9b0a83c72344c1b2cdc31","s":"0x313ab4c5e350e8ed5a00f25f62288c92df1ddeffbd63bf8495db22036533cd8","to":"0x12904000757d295d27b4599b264a4d0acec46148","transactionIndex":"0x6","type":"0x2","v":"0x1","value":"0x0","yParity":"0x1"},{"accessList":[],"blockHash":"0xa32cde76caa7f18e822d73d5af983cf253113167e6c24678bb69c1a80e55cef8","blockNumber":"0x8bc0ded","chainId":"0xa","from":"0xcde377407d9b819efc0e185aa2d442194c2233e6","gas":"0x1e8480","gasPrice":"0x3096","hash":"0x5a8cb370befdc9cf92dc3488b2fa1cb66f56087a41da51b8249db4f1e4868283","input":"0xa126d6010000000000000000000000000000000000000000000000000000000008bc0df0","maxFeePerGas":"0x3a24","maxPriorityFeePerGas":"0x2710","nonce":"0x1ed81f","r":"0xcb17af6f39f596d1bb7bf280fd68181c7b2bed0f4fce40418171a45f388bc7a8","s":"0x4efae1870a0480a68aab48ff5f4d3eb7c2f0045bd42a9a4501f8cdba9f2ff6e","to":"0x4aed348173bbf17dfaeb91598321904c9323d36e","transactionIndex":"0x7","type":"0x2","v":"0x1","value":"0x0","yParity":"0x1"},{"accessList":[],"blockHash":"0xa32cde76caa7f18e822d73d5af983cf253113167e6c24678bb69c1a80e55cef8","blockNumber":"0x8bc0ded","chainId":"0xa","from":"0xbdccb78e31a28e84235491e8a2d7cecaa41fa849","gas":"0x7a120","gasPrice":"0xd6e","hash":"0x897ac3b4f2f2c6faf4ad85cbeb122ef417e6e96e269e197d5632aea548cfbf03","input":"0x4e6669ed4d4f4f2d56454c4f2d424f4c442d4c5553440000000000000000000000000000","maxFeePerGas":"0x59682f01","maxPriorityFeePerGas":"0x3e8","nonce":"0x9f698","r":"0xd4bc8900617e27aa15917548a17bdfefa4864cbecde4d9d3c2b122e3cd69fced","s":"0x4e582cb9fe91163a4096d4f0775356434fbd74c00a5a5aa3cef0a5c59d4b75b7","to":"0xf4f18205d8d46638489865e42c0a71a3d4f9fc22","transactionIndex":"0x8","type":"0x2","v":"0x1","value":"0x0","yParity":"0x1"},{"blockHash":"0xa32cde76caa7f18e822d73d5af983cf253113167e6c24678bb69c1a80e55cef8","blockNumber":"0x8bc0ded","chainId":"0xa","from":"0x92eefbb9e8e5f415b5e01683a7499fbc1d6007d1","gas":"0x5a3c","gasPrice":"0xf4bcb","hash":"0x35a786723a813e9358a1a72c7c45a4cedcb8e0cff2f5940592579f39c5d2c105","input":"0x","nonce":"0x5","r":"0xa835e9a698eb674ae0f3afbe9e7be23f18a6dcaa4610f1e85f0aef547a8f2a11","s":"0x61beea5eb94369f37bf80a8a0bf4e9d6e89811a7867dc95e75a7cfb2af75bfad","to":"0xc507c6502e3b6aaa817fcc59a360cfb73d898528","transactionIndex":"0x9","type":"0x0","v":"0x37","value":"0x0"},{"accessList":[],"blockHash":"0xa32cde76caa7f18e822d73d5af983cf253113167e6c24678bb69c1a80e55cef8","blockNumber":"0x8bc0ded","chainId":"0xa","from":"0x28d8b1f67ef643bac10fb11657128bae574be3bf","gas":"0x7415c","gasPrice":"0xf4bc6","hash":"0x174b0c48bf6af19d7f39c4ee9e9bcc698e54d387f229c0fd62fb4f5acc419814","input":"0x258c16ee000000000000000000000000c47da4cb96ce65a96844a01bfae509f9d54545340000000000000000000000000000000000000000000000000000000035a4e90000000000000000000000000000000000000000000000000000000000000000a000000000000000000000000000000000000000000000000000000000000000c00000000000000000000000000000000000000000000000000000000000000000000000000000000000000000000000000000000000000000000000000000000000000000000000000000000000000000000000000000000000000000000000000000000000000000000000006131b5fae19ea4f9d964eac0408e4408b66337b50000000000000000000000000000000000000000000000000000000000000100000000000000000000000000749d8cc1ff63cb92cc6dd64380d68ecb72b9993f0000000000000000000000000000000000000000000003bbc40723ca32ea6b5100000000000000000000000000000000000000000000000000000000000027100000000000000000000000000000000000000000000000000000000000000f8000000000000000000000000028d8b1f67ef643bac10fb11657128bae574be3bf0000000000000000000000000000000000000000000000000000000000000e44e21fd0e9000000000000000000000000000000000000000000000000000000000000002000000000000000000000000063242a4ea82847b20e506b63b0e2e2eff0cc6cb0000000000000000000000000000000000000000000000000000000000000000000000000000000000000000000000000000000000000000000000000000000a000000000000000000000000000000000000000000000000000000000000009000000000000000000000000000000000000000000000000000000000000000b40000000000000000000000000000000000000000000000000000000000000084000000000000000000000000035a4e90000000000000000000000000035a4e900000000000000000000000000000000000000000000000000000000000000006000000000000000000000000000000000000000000000000000000000000000e000000000000000000000000000000000000000000000000000000000000000410f0d9862dc3628e8ea977709746a595468c34f642751016895c48a01fbe478bc1981595e812373bdeb77b540ff7ff26d9952bf4fc159366a9f54f97debd441631c000000000000000000000000000000000000000000000000000000000000000000000000000000000000000000000000000000000000000000000000000740000000000000000000000000663dc15d3c1ac63ff12e45ab68fea3f0a883c2510000000000000000000000000000000000000000000000000000000000000140000000000000000000000000000000000000000000000000000000000000018000000000000000000000000032f643c000000000000000000000000038538e4000000000000000000000000035a4e90000000000000003c539958f2011800000000000000000000000000000000000003f41c98b1fefd80000000f42400000000000000000000000000000004f82e73edb06d29ff62c91ec8f5ff06571bdeb29000000000000000000000000000000000000000000000000000000000000000000000000000000000000000000000000000000000000000000000000696bfa3d0000000000000000000000000000000000000000000000000000000000000720000000000000000000000000000000000000000000000000000000000000000161f598cd000000000000000092934e8915576ff4684cad10ee82dfe788e9250c00000000000000000000000000000000000000000000000000000000000000040000000000000000000000000000000000000000000000000000000000000080000000000000000000000000000000000000000000000000000000000000020000000000000000000000000000000000000000000000000000000000000003800000000000000000000000000000000000000000000000000000000000000500000000000000000000000000c47da4cb96ce65a96844a01bfae509f9d54545348000000000000000000000000000038400000000000000000000000035a4e9000000000000000000000000000000000000000000000000000000000000000060000000000000000000000000000000000000000000000000000000000000000100000000000000000000000000000000000000000000000000000000000000200000000000000000000000000000000000000000000000000000000035a4e9003b9d6e0900000000000000015455c918e405a2831fbff8595c0aae35ee3db9d1000000000000000000000000000000000000000000000000000000000000008000000000000000000000000063242a4ea82847b20e506b63b0e2e2eff0cc6cb000000000000000000000000000000000000000000000000000000000000000400000000000000000000000004efc6d91b5170b670a1bd5cfb8d4ae50283400eb000000000000000000000000ff53611968f1e5ca45cfca7918447e7f5776f6d300000000000000000000000094b008aa00579c1307b0ef2c499ad98a8ce58e58800000000000000000000000000000050000000000000000000000000056416800000000000000000000000000000000000000000000000000000000000000600000000000000000000000000000000000000000000000000000000000000001000000000000000000000000000000000000000000000000000000000000002000000000000000000000000000000000000000000000000000000000005641683b9d6e0900000000000000025455c918e405a2831fbff8595c0aae35ee3db9d1000000000000000000000000000000000000000000000000000000000000008000000000000000000000000063242a4ea82847b20e506b63b0e2e2eff0cc6cb00000000000000000000000000000000000000000000000000000000000000040000000000000000000000000c858a329bf053be78d6239c4a4343b8fbd21472b000000000000000000000000fff6fbe64b68d618d47c209fe40b0d8ee6e23c90000000000000000000000000420000000000000000000000000000000000000680000000000000000000000065887ecc000000000000000000060d4600c6198800000000000000000000000000000000000000000000000000000000000000600000000000000000000000000000000000000000000000000000000000000001000000000000000000000000000000000000000000000000000000000000002000000000000000000000000000000000000000000000000000060d4600c619883b9d6e0900000000000000035455c918e405a2831fbff8595c0aae35ee3db9d1000000000000000000000000000000000000000000000000000000000000008000000000000000000000000063242a4ea82847b20e506b63b0e2e2eff0cc6cb00000000000000000000000000000000000000000000000000000000000000040000000000000000000000000fd37dfb6a904c8355ef139f70a5ae9bb3908260b0000000000000000000000000000000000000000000000000000000100ad139d000000000000000000000000749d8cc1ff63cb92cc6dd64380d68ecb72b9993f8000000000000000000000000000000100000000000000000000000000000000000000000000000000000000000000000000000000000000000000000000006000000000000000000000000000000000000000000000000000000000000000000000000000000000000000000000000000000000000000000000000000000000000000000000000000000000c47da4cb96ce65a96844a01bfae509f9d5454534000000000000000000000000749d8cc1ff63cb92cc6dd64380d68ecb72b9993f000000000000000000000000000000000000000000000000000000000000016000000000000000000000000000000000000000000000000000000000000001a000000000000000000000000000000000000000000000000000000000000001e00000000000000000000000000000000000000000000000000000000000000200000000000000000000000000663dc15d3c1ac63ff12e45ab68fea3f0a883c2510000000000000000000000000000000000000000000000000000000035a4e9000000000000000000000000000000000000000000000003bef3732dcf9a9a2d0e00000000000000000000000000000000000000000000000000000000000002000000000000000000000000000000000000000000000000000000000000000220000000000000000000000000000000000000000000000000000000000000000100000000000000000000000063242a4ea82847b20e506b63b0e2e2eff0cc6cb000000000000000000000000000000000000000000000000000000000000000010000000000000000000000000000000000000000000000000000000035a4e90000000000000000000000000000000000000000000000000000000000000000000000000000000000000000000000000000000000000000000000000000000000000000000000000000000000000000000000000000000000000000000000000000000000000000000000000000000000000000000000000000000000000002a17b22536f75726365223a2264654272696467652d346663642d396531662d393161373561343166333562222c22416d6f756e74496e555344223a22352e363637353130343838313037383737222c22416d6f756e744f7574555344223a22352e363330323138313936333232313932222c22526566657272616c223a22222c22466c616773223a302c22416d6f756e744f7574223a223137383035323537343131313239333034343136323536222c2254696d657374616d70223a313736383638323839332c22526f7574654944223a2235666330396566372d346637612d346566352d396537632d6463393938646236306535313a38616134323963362d666435612d346439322d613235342d383837643463663230343235222c22496e74656772697479496e666f223a7b224b65794944223a2231222c225369676e6174757265223a224f77787065312f464c4149586d51596337797364443550326e57316f536b70777569714b364c75544e3455342f4a6c643872494c396d386253784c38487838324d494b707745666950642f64372b435342676775366756773747744e2b444f64506c534f44432b346a57456d784d53653739767a71672f7277702f357166627432704a595a3574387150713359637733764e6b53313168525a4f3232692f7036786c5574777575655041567a6f33627750592f5248594d34715a3463454c734b6e44335672412f337043362b4e363669776853434274547541694d4675327130665a6e4d6f64326753443958394e59524d30555761344e585949673367662f2f32747979674553646d2f7a476e474d527151395a764e724535734454702f4848674d35385864444a3875555576352b656f476373496e596b3969767a502b56697545644b68787a4648386a574d633451794f475031513d3d227d7d00000000000000000000000000000000000000000000000000000000000000000000000000000000000000000000000000000000000000000000000000000000000000000000000000000000000000000000000000000000000016001968cc4ff62a37eee0be1fa3ce49c9cf53244f70a900000000000000000000","maxFeePerGas":"0xf5554","maxPriorityFeePerGas":"0xf4240","nonce":"0x241","r":"0xa9693e0e70d17963c39908add1992675b666715c1acbc26714342fa3c9e32243","s":"0x24106e59a976d71f4a353c253e80b41aa1e1c75f6bb66adb2878662a5ee299ff","to":"0x663dc15d3c1ac63ff12e45ab68fea3f0a883c251","transactionIndex":"0xa","type":"0x2","v":"0x0","value":"0x0","yParity":"0x0"},{"accessList":[],"blockHash":"0xa32cde76caa7f18e822d73d5af983cf253113167e6c24678bb69c1a80e55cef8","blockNumber":"0x8bc0ded","chainId":"0xa","from":"0x9bcc465d4693fac43a5152cc962f22d8d6723886","gas":"0x3d0900","gasPrice":"0xb4bf","hash":"0x1e90a31040e811d7b1d40999e8bc3541e153027a3437b91370c08c38e4f60078","input":"0x02000d000100271000c80f321014f2354f8e6383ab4ec16d584bb42c5fe850ec25a63a59cac3e5c9f78800000001f400000f325f388e121a1f34d947387356bb81a93b3fea00180d7960ef031232057c95","maxFeePerGas":"0x117e97","maxPriorityFeePerGas":"0xab39","nonce":"0x1e9d2a","r":"0x9b542f89cb5b330465354e38e20cc5f39b12fc63a691df377709b2a5634446e4","s":"0x20971fc51d4d09b304aa36a700015f26ad4134f77d1661bd0b513b13fcc457e9","to":"0x56e63998921f8ff8ee9d0206606f3a2dfe3b6689","transactionIndex":"0xb","type":"0x2","v":"0x0","value":"0x0","yParity":"0x0"},{"accessList":[],"blockHash":"0xa32cde76caa7f18e822d73d5af983cf253113167e6c24678bb69c1a80e55cef8","blockNumber":"0x8bc0ded","chainId":"0xa","from":"0x0aea65e637ea25a43922074fac03de93c3ffd103","gas":"0x3d0900","gasPrice":"0xb4bf","hash":"0x7d552e384daeaf9dbc687eb7ad0648a426db3630c877fffe9872dc9a58e8ab4b","input":"0x02000d000100271000c80f321014f2354f8e6383ab4ec16d584bb42c5fe850ec25a63a59cac3e5c9f78800000001f400000f325f388e121a1f34d947387356bb81a93b3fea00180d7960ef031232057c95","maxFeePerGas":"0x117e97","maxPriorityFeePerGas":"0xab39","nonce":"0x1e9171","r":"0x62f4081119f41852ceb714e4d5abae3cd8f6f8508b75423841ce1a6aa5085703","s":"0x6ab5e7fbfbc57384fc08a2cfe2c0763b0aac1bf24331b1be5baa45776efacec7","to":"0x56e63998921f8ff8ee9d0206606f3a2dfe3b6689","transactionIndex":"0xc","type":"0x2","v":"0x0","value":"0x0","yParity":"0x0"},{"accessList":[],"blockHash":"0xa32cde76caa7f18e822d73d5af983cf253113167e6c24678bb69c1a80e55cef8","blockNumber":"0x8bc0ded","chainId":"0xa","from":"0x5e9cc770b8feb8800c156b009063cb4939e30caf","gas":"0x1e8480","gasPrice":"0x3096","hash":"0x2e328e17ac5a02bf0dc6440e22ddf3faf95f3611623a2ec137732205c9f35ac7","input":"0xa126d6010000000000000000000000000000000000000000000000000000000008bc0df0","maxFeePerGas":"0x3a24","maxPriorityFeePerGas":"0x2710","nonce":"0x29e34a","r":"0x5507a9c659482042237fe511a157ac28bcb02e4958b85056b937cf8006232885","s":"0x3626dc6f57ecc9474bcb2049e1f573527a64769408e24c66f28640a619a2e6af","to":"0x991ea644546ef0043afab651bd7daa01737d914e","transactionIndex":"0xd","type":"0x2","v":"0x0","value":"0x0","yParity":"0x0"},{"accessList":[],"blockHash":"0xa32cde76caa7f18e822d73d5af983cf253113167e6c24678bb69c1a80e55cef8","blockNumber":"0x8bc0ded","chainId":"0xa","from":"0x9e3ed65340a913b96ba7b86d5d5876dde623946e","gas":"0x1e8480","gasPrice":"0x3096","hash":"0x7627c5e1de83816642bd5096ac534abcc6829c87d5f6266e765dc670cedd97f4","input":"0xa126d6010000000000000000000000000000000000000000000000000000000008bc0df0","maxFeePerGas":"0x3a24","maxPriorityFeePerGas":"0x2710","nonce":"0x2b451e","r":"0x467419676ac4a3053db8a9e0b7feb3cb99ac092ffef6e1b355b23541e36443a5","s":"0x2b2cb6fe77e27b9db2dad998a53dfc1b3e20382804e07224dd673f406ac7bf75","to":"0x481837132126834ec97b35e21c29ee3726a9d294","transactionIndex":"0xe","type":"0x2","v":"0x1","value":"0x0","yParity":"0x1"},{"accessList":[],"blockHash":"0xa32cde76caa7f18e822d73d5af983cf253113167e6c24678bb69c1a80e55cef8","blockNumber":"0x8bc0ded","chainId":"0xa","from":"0xa62fb05af6c35d9af70015c7f33ee558a9060036","gas":"0x32c5fc","gasPrice":"0x98b","hash":"0xb120b1cf566f7e1b3f4c6f68623af905d52abe47a3d7d20744b8e4dfcd874577","input":"0xfdb5a03e","maxFeePerGas":"0xf5554","maxPriorityFeePerGas":"0x5","nonce":"0x239563","r":"0xce72219df7c99011bcbb27029bf33d2d9215e3798a44dd1e698e3e7542d14593","s":"0x1e1ef1936537feeacfac355432ffbea39128859d90f0bf173820852a193938f0","to":"0x3b749be6ca33f27e2837138ede69f8c6c53f9207","transactionIndex":"0xf","type":"0x2","v":"0x1","value":"0x0","yParity":"0x1"},{"blockHash":"0xa32cde76caa7f18e822d73d5af983cf253113167e6c24678bb69c1a80e55cef8","blockNumber":"0x8bc0ded","chainId":"0xa","from":"0x9a8469349d732370c8c81a8d6ce00e5063ebfeb7","gas":"0x10ba8","gasPrice":"0x2dc6c0","hash":"0x07359f9c2ede338181236397626357c8b085735bb06e974b56093d71535980bd","input":"0xa9059cbb000000000000000000000000df90c9b995a3b10a5b8570a47101e6c6a29eb9450000000000000000000000000000000000000000000000000000000014e2d510","nonce":"0x1b","r":"0x73e21fde94f9b22b0c0337a08a63a40572e07fe8d997e7a9a2df9dceb9ea9b81","s":"0x707d7c023244f6380e24af6df3977729b7cf39b7407a25a93729880c104fe3bd","to":"0x0b2c639c533813f4aa9d7837caf62653d097ff85","transactionIndex":"0x10","type":"0x0","v":"0x38","value":"0x0"},{"accessList":[],"blockHash":"0xa32cde76caa7f18e822d73d5af983cf253113167e6c24678bb69c1a80e55cef8","blockNumber":"0x8bc0ded","chainId":"0xa","from":"0x2d93c2f74b2c4697f9ea85d0450148aa45d4d5a2","gas":"0x2c761","gasPrice":"0xf4bc6","hash":"0x99420ac6ff66ecedd01c957d0b017dad74d8a9413b922150774f5d10e9959e0f","input":"0xa005d3d20000000000000000000000005c57b155cccb5ce25265ebad163ca83ac032ea55000000000000000000000000000000000000000000000000000000000000000200000000000000000000000000000000000000000000000000000000000000e00000000000000000000000000000000000000000000000000000000000000001000000000000000000000000000000000000000000000000000000000000012000000000000000000000000000000000000000000000000000000000696bf911000000000000000000000000000000000000000000000000000000000000026000000000000000000000000000000000000000000000000000000000000000200000000000000000000000008c33e07e70f32d24b7112081fa8e436cfb5a03cc0000000000000000000000000000000000000000000000000000000000000120000000000000000000000000000000000000000000000000000000000000002000000000000000000000000000000000000000000000000000000000000023c000000000000000000000000002ef790dd7993a35fd847c053eddae940d055596000000000000000000000000000000000000000000000000000000000000008000000000000000000000000000000000000000000000000000000000696bf91100000000000000000000000000000000000000000000000000000000000000417c943fa2e8d8e95aaa7d671e0b47b3e4f1a8a817ca2b575803f484e783b4ab2964a74928fbc0a2e7ea4ba7d1c4f47e5560f93397ef98be90da7cada7522716071b000000000000000000000000000000000000000000000000000000000000000000000000000000000000000000000000000000000000000000000000000041f41e6fbd8190410850ffab84493ad6233a7ed5ffab76dfdeb95f3c1346b164bf7a58f1ddb794cbcdc615bc5b9f124d92db6a8a92975cbe77e54b99585be9e7e31c00000000000000000000000000000000000000000000000000000000000000","maxFeePerGas":"0x125af2","maxPriorityFeePerGas":"0xf4240","nonce":"0x1651dc","r":"0xa828e3b670087e1e99a3573094b4a4e6e81a20bbc81f0476f6dd3899a8d85bff","s":"0x37e898caa650d3af70866e59edd20e5e4c94f05e2e6bd2343f0e07dbd4705f2d","to":"0x00000000fc56947c7e7183f8ca4b62398caadf0b","transactionIndex":"0x11","type":"0x2","v":"0x0","value":"0x0","yParity":"0x0"},{"accessList":[],"blockHash":"0xa32cde76caa7f18e822d73d5af983cf253113167e6c24678bb69c1a80e55cef8","blockNumber":"0x8bc0ded","chainId":"0xa","from":"0x6c8a03ed520f0ed8398827afb7ceb2a0f44d7acc","gas":"0x7a1200","gasPrice":"0x19026","hash":"0xd076724a5ed6093884453835a44c2e645bf99c4f1442f9ae4330cf163546f862","input":"0x03000d010100003200010f321014f2354f8e6383ab4e9bf9a3d76aebaf2a3480046adefef60a957c179d0100000bb800000f325f388e121a1f34d9473883aa6215811aac961b7f3e418c078f54ffb6857b0000000bb800000f325f388e121a1f34d947382dc2b4345495d229c30a3992048a1456c75ab54304000d01010001f4000a0f325f388e121a1f34d947387ca877fd1890c36b5448b7d6de1d6d67a564da1c0100000bb800000f325f388e121a1f34d9473883aa6215811aac961b7f3e418c078f54ffb6857b00000001f400000f325f388e121a1f34d94738ff91e1001fdbbe22702fbf95d75a05875efca09600000001f400000f325f388e121a1f34d947381ad2aa6da5419ada7a703e37ea230582f9e88f37","maxFeePerGas":"0x1259fe","maxPriorityFeePerGas":"0x186a0","nonce":"0x1e9d7e","r":"0x2909571e5962cb8e1f0672ed62a645659d579c9637cefa4cd2bbad05bb88726b","s":"0x69c70f7e5f3b03dedb9f05ec7e20ad79bf61a2ee2f7587dee72b064c08776dc6","to":"0x56e63998921f8ff8ee9d0206606f3a2dfe3b6689","transactionIndex":"0x12","type":"0x2","v":"0x1","value":"0x0","yParity":"0x1"},{"accessList":[],"blockHash":"0xa32cde76caa7f18e822d73d5af983cf253113167e6c24678bb69c1a80e55cef8","blockNumber":"0x8bc0ded","chainId":"0xa","from":"0xe51abef146d46faca43c5280fcde074ef27473a6","gas":"0x7a1200","gasPrice":"0x19026","hash":"0xd77e59e0e2d9a1c5c924c75fa95a220e3c649ead0b216e76bfebc70ae1f89f96","input":"0x03000d010100003200010f321014f2354f8e6383ab4e9bf9a3d76aebaf2a3480046adefef60a957c179d0100000bb800000f325f388e121a1f34d9473883aa6215811aac961b7f3e418c078f54ffb6857b0000000bb800000f325f388e121a1f34d947382dc2b4345495d229c30a3992048a1456c75ab54304000d01010001f4000a0f325f388e121a1f34d947387ca877fd1890c36b5448b7d6de1d6d67a564da1c0100000bb800000f325f388e121a1f34d9473883aa6215811aac961b7f3e418c078f54ffb6857b00000001f400000f325f388e121a1f34d94738ff91e1001fdbbe22702fbf95d75a05875efca09600000001f400000f325f388e121a1f34d947381ad2aa6da5419ada7a703e37ea230582f9e88f37","maxFeePerGas":"0x1259fe","maxPriorityFeePerGas":"0x186a0","nonce":"0x1e8e79","r":"0xfd3a4bdbe9f820e548d763d3b8414380692db4ca9a3e1a9a108f542af1b29420","s":"0xaded997da7c19ffaa8a54254840355044431e2d1298a0f9e931fb056eb392b8","to":"0x56e63998921f8ff8ee9d0206606f3a2dfe3b6689","transactionIndex":"0x13","type":"0x2","v":"0x1","value":"0x0","yParity":"0x1"},{"accessList":[],"blockHash":"0xa32cde76caa7f18e822d73d5af983cf253113167e6c24678bb69c1a80e55cef8","blockNumber":"0x8bc0ded","chainId":"0xa","from":"0x3fad7301beaa92b838bdb2d252f2384a63350e96","gas":"0x7a1200","gasPrice":"0x19026","hash":"0xa630714843e4c19e1cdf4d14904441f0f860726ac9e426dcc6a5644b13018da4","input":"0x03000d010100003200010f321014f2354f8e6383ab4e9bf9a3d76aebaf2a3480046adefef60a957c179d0100000bb800000f325f388e121a1f34d9473883aa6215811aac961b7f3e418c078f54ffb6857b0000000bb800000f325f388e121a1f34d947382dc2b4345495d229c30a3992048a1456c75ab54304000d01010001f4000a0f325f388e121a1f34d947387ca877fd1890c36b5448b7d6de1d6d67a564da1c0100000bb800000f325f388e121a1f34d9473883aa6215811aac961b7f3e418c078f54ffb6857b00000001f400000f325f388e121a1f34d94738ff91e1001fdbbe22702fbf95d75a05875efca09600000001f400000f325f388e121a1f34d947381ad2aa6da5419ada7a703e37ea230582f9e88f37","maxFeePerGas":"0x1259fd","maxPriorityFeePerGas":"0x186a0","nonce":"0x1e874c","r":"0x6263df669606c80ef6df103bd99175ee1e3126fb3ca50996170690613a2b973e","s":"0x2ee370682f91cfe88519679f4b6e0ff1921dd4ef4f3c33cab92f94d1193389f0","to":"0x56e63998921f8ff8ee9d0206606f3a2dfe3b6689","transactionIndex":"0x14","type":"0x2","v":"0x0","value":"0x0","yParity":"0x0"},{"accessList":[],"blockHash":"0xa32cde76caa7f18e822d73d5af983cf253113167e6c24678bb69c1a80e55cef8","blockNumber":"0x8bc0ded","chainId":"0xa","from":"0x5a8441e978aca6fc89a39744f399ede98d85551e","gas":"0x7a1200","gasPrice":"0x116e9","hash":"0x1b5890ae2aa2ae4e3c3a790a7770cfd336e1edc9017e48f7a15fe3690f08894c","input":"0x03000d010100003200010f321014f2354f8e6383ab4e9bf9a3d76aebaf2a3480046adefef60a957c179d0100000bb800000f325f388e121a1f34d9473883aa6215811aac961b7f3e418c078f54ffb6857b0000000bb800000f325f388e121a1f34d947382dc2b4345495d229c30a3992048a1456c75ab54304000d01010001f4000a0f325f388e121a1f34d947387ca877fd1890c36b5448b7d6de1d6d67a564da1c0100000bb800000f325f388e121a1f34d9473883aa6215811aac961b7f3e418c078f54ffb6857b00000001f400000f325f388e121a1f34d94738ff91e1001fdbbe22702fbf95d75a05875efca09600000001f400000f325f388e121a1f34d947381ad2aa6da5419ada7a703e37ea230582f9e88f37","maxFeePerGas":"0x11e0c1","maxPriorityFeePerGas":"0x10d63","nonce":"0x1ea6b8","r":"0x13b908ac43fcc887d9bb26f2922a0d7dec085eef2e39e7ae1c35a727a5be2454","s":"0x52c76cb50aa8cfbb3d8620bf4f3585c435e4bc871568797621c480e08c696475","to":"0x56e63998921f8ff8ee9d0206606f3a2dfe3b6689","transactionIndex":"0x15","type":"0x2","v":"0x1","value":"0x0","yParity":"0x1"},{"accessList":[],"blockHash":"0xa32cde76caa7f18e822d73d5af983cf253113167e6c24678bb69c1a80e55cef8","blockNumber":"0x8bc0ded","chainId":"0xa","from":"0x0fa19bb76c071c9adbe8e652cdd5c2281ac95f7e","gas":"0x7a1200","gasPrice":"0x116e9","hash":"0xa526c565771b31c7547cf2c5ab39eff1fd91c98bf357460a95e98f64417d7036","input":"0x03000d010100003200010f321014f2354f8e6383ab4e9bf9a3d76aebaf2a3480046adefef60a957c179d0100000bb800000f325f388e121a1f34d9473883aa6215811aac961b7f3e418c078f54ffb6857b0000000bb800000f325f388e121a1f34d947382dc2b4345495d229c30a3992048a1456c75ab54304000d01010001f4000a0f325f388e121a1f34d947387ca877fd1890c36b5448b7d6de1d6d67a564da1c0100000bb800000f325f388e121a1f34d9473883aa6215811aac961b7f3e418c078f54ffb6857b00000001f400000f325f388e121a1f34d94738ff91e1001fdbbe22702fbf95d75a05875efca09600000001f400000f325f388e121a1f34d947381ad2aa6da5419ada7a703e37ea230582f9e88f37","maxFeePerGas":"0x11e0c1","maxPriorityFeePerGas":"0x10d63","nonce":"0x1e9a72","r":"0xc01f178be7414faa736b549fef0d863376cb07946ecc4e7fb1930be13849b2f5","s":"0x2a06c0c3159bb63e6dcbc6b14c1b02352bbbaf725b520ca005497c73b6002ca6","to":"0x56e63998921f8ff8ee9d0206606f3a2dfe3b6689","transactionIndex":"0x16","type":"0x2","v":"0x1","value":"0x0","yParity":"0x1"},{"accessList":[],"blockHash":"0xa32cde76caa7f18e822d73d5af983cf253113167e6c24678bb69c1a80e55cef8","blockNumber":"0x8bc0ded","chainId":"0xa","from":"0x98d9fe29c5da385479703c66c07623e02521b266","gas":"0x7a1200","gasPrice":"0x116e9","hash":"0x978f84b11bc860715293a5ebc75b407d35d2e7e99f63497e02430c729e8d9221","input":"0x03000d010100003200010f321014f2354f8e6383ab4e9bf9a3d76aebaf2a3480046adefef60a957c179d0100000bb800000f325f388e121a1f34d9473883aa6215811aac961b7f3e418c078f54ffb6857b0000000bb800000f325f388e121a1f34d947382dc2b4345495d229c30a3992048a1456c75ab54304000d01010001f4000a0f325f388e121a1f34d947387ca877fd1890c36b5448b7d6de1d6d67a564da1c0100000bb800000f325f388e121a1f34d9473883aa6215811aac961b7f3e418c078f54ffb6857b00000001f400000f325f388e121a1f34d94738ff91e1001fdbbe22702fbf95d75a05875efca09600000001f400000f325f388e121a1f34d947381ad2aa6da5419ada7a703e37ea230582f9e88f37","maxFeePerGas":"0x11e0c0","maxPriorityFeePerGas":"0x10d63","nonce":"0x1e8309","r":"0x6262e5480a4b5eacdc79e69ac2cda02833f83827acd1a8ed56318b8c28fe6aaf","s":"0x14eec93a7fd5c76fd99714aa00ffb70cb3502b93b0c760014f56bc836f0b3123","to":"0x56e63998921f8ff8ee9d0206606f3a2dfe3b6689","transactionIndex":"0x17","type":"0x2","v":"0x0","value":"0x0","yParity":"0x0"},{"accessList":[],"blockHash":"0xa32cde76caa7f18e822d73d5af983cf253113167e6c24678bb69c1a80e55cef8","blockNumber":"0x8bc0ded","chainId":"0xa","from":"0x7518f27d43b48453b5868628af3977fd73492bef","gas":"0x3d0900","gasPrice":"0xb4bf","hash":"0x6d56f3b99864d666370d53a3ad65f410c7255393b300b0ab3e9a7097e3d80c99","input":"0x02000d000100271000c80f321014f2354f8e6383ab4ec16d584bb42c5fe850ec25a63a59cac3e5c9f78800000001f400000f325f388e121a1f34d947387356bb81a93b3fea00180d7960ef031232057c95","maxFeePerGas":"0x117e96","maxPriorityFeePerGas":"0xab39","nonce":"0x1e8d20","r":"0x4242355e8c20b896aede555908daa2be9900479b653a985632f1f1f6d6535014","s":"0x2b6e420cbedbe6058f3d48395041773653434916e376621d481d3362d383b7b9","to":"0x56e63998921f8ff8ee9d0206606f3a2dfe3b6689","transactionIndex":"0x18","type":"0x2","v":"0x0","value":"0x0","yParity":"0x0"},{"accessList":[],"blockHash":"0xa32cde76caa7f18e822d73d5af983cf253113167e6c24678bb69c1a80e55cef8","blockNumber":"0x8bc0ded","chainId":"0xa","from":"0xd4ccc1e743733fc2f5df8ed637b85b2b3c06514c","gas":"0x7a1200","gasPrice":"0xa81f","hash":"0x31b0d53bd6d446bb76f5be7637869044d0d6b4fae6089bc14744427bf86a3c15","input":"0x03000d010100003200010f321014f2354f8e6383ab4e9bf9a3d76aebaf2a3480046adefef60a957c179d0100000bb800000f325f388e121a1f34d9473883aa6215811aac961b7f3e418c078f54ffb6857b0000000bb800000f325f388e121a1f34d947382dc2b4345495d229c30a3992048a1456c75ab54304000d01010001f4000a0f325f388e121a1f34d947387ca877fd1890c36b5448b7d6de1d6d67a564da1c0100000bb800000f325f388e121a1f34d9473883aa6215811aac961b7f3e418c078f54ffb6857b00000001f400000f325f388e121a1f34d94738ff91e1001fdbbe22702fbf95d75a05875efca09600000001f400000f325f388e121a1f34d947381ad2aa6da5419ada7a703e37ea230582f9e88f37","maxFeePerGas":"0x1171f7","maxPriorityFeePerGas":"0x9e99","nonce":"0x1ead1d","r":"0xf0c6dd60d95397c0b8592046925be64156437b6e4602d89b5c3d43b0a483c1e4","s":"0x68f0c4968a86711767ecc8d1bb742689d09628e2aa6605589303a20198c31a13","to":"0x56e63998921f8ff8ee9d0206606f3a2dfe3b6689","transactionIndex":"0x19","type":"0x2","v":"0x0","value":"0x0","yParity":"0x0"},{"accessList":[],"blockHash":"0xa32cde76caa7f18e822d73d5af983cf253113167e6c24678bb69c1a80e55cef8","blockNumber":"0x8bc0ded","chainId":"0xa","from":"0x3f6976003383513f0c5b6f2022ededbbe77e4d38","gas":"0x7a1200","gasPrice":"0xa81f","hash":"0x737a8264a5d1d51914b3d66175004e9548b30266973535e599aacfccd3745167","input":"0x03000d010100003200010f321014f2354f8e6383ab4e9bf9a3d76aebaf2a3480046adefef60a957c179d0100000bb800000f325f388e121a1f34d9473883aa6215811aac961b7f3e418c078f54ffb6857b0000000bb800000f325f388e121a1f34d947382dc2b4345495d229c30a3992048a1456c75ab54304000d01010001f4000a0f325f388e121a1f34d947387ca877fd1890c36b5448b7d6de1d6d67a564da1c0100000bb800000f325f388e121a1f34d9473883aa6215811aac961b7f3e418c078f54ffb6857b00000001f400000f325f388e121a1f34d94738ff91e1001fdbbe22702fbf95d75a05875efca09600000001f400000f325f388e121a1f34d947381ad2aa6da5419ada7a703e37ea230582f9e88f37","maxFeePerGas":"0x1171f7","maxPriorityFeePerGas":"0x9e99","nonce":"0x1e9477","r":"0x52ce34eceab7283d282d0f3b3f6a4ed2a5097c2e7b7229716e6411fd32d89441","s":"0x15be13d54cca72091252afd78d5f32d5dc784ecf2f302f6a2664d4c698c22dd","to":"0x56e63998921f8ff8ee9d0206606f3a2dfe3b6689","transactionIndex":"0x1a","type":"0x2","v":"0x0","value":"0x0","yParity":"0x0"},{"accessList":[],"blockHash":"0xa32cde76caa7f18e822d73d5af983cf253113167e6c24678bb69c1a80e55cef8","blockNumber":"0x8bc0ded","chainId":"0xa","from":"0x4337006f33e2940fcbebd899bf2396117e65df9b","gas":"0x104796","gasPrice":"0xa2e9f3","hash":"0x3850a7af838fd99cbb8940575e7a146d55af7f966f9ecc32f33d2fd311ff50de","input":"0x765e827f00000000000000000000000000000000000000000000000000000000000000400000000000000000000000004337006f33e2940fcbebd899bf2396117e65df9b0000000000000000000000000000000000000000000000000000000000000003000000000000000000000000000000000000000000000000000000000000006000000000000000000000000000000000000000000000000000000000000007200000000000000000000000000000000000000000000000000000000000000d4000000000000000000000000014bd0587c4eb87a31ff461e8395c7be150c0f04b0000000000000000000000000000000000000000000000000000000000000469000000000000000000000000000000000000000000000000000000000000012000000000000000000000000000000000000000000000000000000000000001400000000000000000000000000000a352000000000000000000000000000358ea000000000000000000000000000000000000000000000000000000000000e9260000000000000000000000000016e36000000000000000000000000000262f2a0000000000000000000000000000000000000000000000000000000000000580000000000000000000000000000000000000000000000000000000000000064000000000000000000000000000000000000000000000000000000000000000000000000000000000000000000000000000000000000000000000000000000404e9ae5c530100000000000000000000000000000000000000000000000000000000000000000000000000000000000000000000000000000000000000000000000000004000000000000000000000000000000000000000000000000000000000000003a0000000000000000000000000000000000000000000000000000000000000002000000000000000000000000000000000000000000000000000000000000000030000000000000000000000000000000000000000000000000000000000000060000000000000000000000000000000000000000000000000000000000000014000000000000000000000000000000000000000000000000000000000000002e000000000000000000000000094b008aa00579c1307b0ef2c499ad98a8ce58e58000000000000000000000000000000000000000000000000000000000000000000000000000000000000000000000000000000000000000000000000000000600000000000000000000000000000000000000000000000000000000000000044a9059cbb00000000000000000000000034dac76555ab52fab3eb7071fb864dbb8fa3752d0000000000000000000000000000000000000000000000000000000000000e6c000000000000000000000000000000000000000000000000000000000000000000000000000000000792a633f0c19c351081cf4b211f68f79bcc9676000000000000000000000000000000000000000000000000000000000000000000000000000000000000000000000000000000000000000000000000000000600000000000000000000000000000000000000000000000000000000000000104a026383e00000000000000000000000094b008aa00579c1307b0ef2c499ad98a8ce58e580000000000000000000000000b2c639c533813f4aa9d7837caf62653d097ff85000000000000000000000000000000000000000000000000000000000000000100000000000000000000000014bd0587c4eb87a31ff461e8395c7be150c0f04b00000000000000000000000000000000000000000000000000000000696bfc9000000000000000000000000000000000000000000000000000000000010a6c2600000000000000000000000000000000000000000000000000000000010a59d800000000000000000000000000000000000000010007172234e7f54ea5d894be0000000000000000000000000000000000000000000000000000000000000000000000000000000014bd0587c4eb87a31ff461e8395c7be150c0f04b000000000000000000000000000000000000000000000000000000000000000000000000000000000000000000000000000000000000000000000000000000600000000000000000000000000000000000000000000000000000000000000000000000000000000000000000000000000000000000000000000000000000000000000000000000000000000000000000000000000000000000000082777777777777aec03fd955926dbf81597e66834c0000000000000000000000000000b57800000000000000000000000000000001010000696bf7e8000000000000bb95590a6adb591f28ab50fa000dba563105844034ab29177d0e4bf2ae270cab67152c4371c3543b4910ef1df0957dd557f7cdd08e85d9789085c09b1167f8c71c0000000000000000000000000000000000000000000000000000000000000000000000000000000000000000000000000000000000000000000000000041a9c269af3d56210398b6986a852e282190d4f0a1020a28371f7a06a9575b5bc26d6f2ad5d7e34f13f7db2a2836d682330b78556aae01a2baed8c592847a3afd11c0000000000000000000000000000000000000000000000000000000000000000000000000000000000000011ba5e0d528648e0030791c0a28ce9777ecd4a6c00000000000000000000000000000000000000000000000000000000000002a0000000000000000000000000000000000000000000000000000000000000012000000000000000000000000000000000000000000000000000000000000001400000000000000000000000000000c9f2000000000000000000000000000358ea000000000000000000000000000000000000000000000000000000000000ddfd0000000000000000000000000098968000000000000000000000000000a7e24a000000000000000000000000000000000000000000000000000000000000058000000000000000000000000000000000000000000000000000000000000005a000000000000000000000000000000000000000000000000000000000000000000000000000000000000000000000000000000000000000000000000000000404e9ae5c530100000000000000000000000000000000000000000000000000000000000000000000000000000000000000000000000000000000000000000000000000004000000000000000000000000000000000000000000000000000000000000003a0000000000000000000000000000000000000000000000000000000000000002000000000000000000000000000000000000000000000000000000000000000030000000000000000000000000000000000000000000000000000000000000060000000000000000000000000000000000000000000000000000000000000014000000000000000000000000000000000000000000000000000000000000002e000000000000000000000000094b008aa00579c1307b0ef2c499ad98a8ce58e58000000000000000000000000000000000000000000000000000000000000000000000000000000000000000000000000000000000000000000000000000000600000000000000000000000000000000000000000000000000000000000000044a9059cbb00000000000000000000000034dac76555ab52fab3eb7071fb864dbb8fa3752d000000000000000000000000000000000000000000000000000000000000dd38000000000000000000000000000000000000000000000000000000000000000000000000000000000792a633f0c19c351081cf4b211f68f79bcc9676000000000000000000000000000000000000000000000000000000000000000000000000000000000000000000000000000000000000000000000000000000600000000000000000000000000000000000000000000000000000000000000104a026383e00000000000000000000000094b008aa00579c1307b0ef2c499ad98a8ce58e580000000000000000000000000b2c639c533813f4aa9d7837caf62653d097ff85000000000000000000000000000000000000000000000000000000000000000100000000000000000000000011ba5e0d528648e0030791c0a28ce9777ecd4a6c00000000000000000000000000000000000000000000000000000000696bfc970000000000000000000000000000000000000000000000000000000021c0884d0000000000000000000000000000000000000000000000000000000021bd59fc000000000000000000000000000000000000000100071707608706f2d42c58250000000000000000000000000000000000000000000000000000000000000000000000000000000011ba5e0d528648e0030791c0a28ce9777ecd4a6c00000000000000000000000000000000000000000000000000000000000000000000000000000000000000000000000000000000000000000000000000000060000000000000000000000000000000000000000000000000000000000000000000000000000000000000000000000000000000000000000000000000000000000000000000000000000000000000000000000000000000000000000000000000000000000000000000000000000000000000000000000000000000414fd29d2eae1c387c99e79068603580d725872559805718a5a83667c152c9a090457ef8f4ba15858bf7b3500dbda522808425cac38d7ee24690e4b808e5c6e14d1c00000000000000000000000000000000000000000000000000000000000000000000000000000000000000bdceaf04b9cab477e27f7745b7f39c50471fef0d000000000000000000000000000000000000000000000000000000000000005a000000000000000000000000000000000000000000000000000000000000012000000000000000000000000000000000000000000000000000000000000001400000000000000000000000000000c9f2000000000000000000000000000358ea000000000000000000000000000000000000000000000000000000000000ddca00000000000000000000000001312d00000000000000000000000000014078ca000000000000000000000000000000000000000000000000000000000000058000000000000000000000000000000000000000000000000000000000000005a000000000000000000000000000000000000000000000000000000000000000000000000000000000000000000000000000000000000000000000000000000404e9ae5c530100000000000000000000000000000000000000000000000000000000000000000000000000000000000000000000000000000000000000000000000000004000000000000000000000000000000000000000000000000000000000000003a0000000000000000000000000000000000000000000000000000000000000002000000000000000000000000000000000000000000000000000000000000000030000000000000000000000000000000000000000000000000000000000000060000000000000000000000000000000000000000000000000000000000000014000000000000000000000000000000000000000000000000000000000000002e000000000000000000000000094b008aa00579c1307b0ef2c499ad98a8ce58e58000000000000000000000000000000000000000000000000000000000000000000000000000000000000000000000000000000000000000000000000000000600000000000000000000000000000000000000000000000000000000000000044a9059cbb00000000000000000000000034dac76555ab52fab3eb7071fb864dbb8fa3752d000000000000000000000000000000000000000000000000000000000001d18a000000000000000000000000000000000000000000000000000000000000000000000000000000000792a633f0c19c351081cf4b211f68f79bcc9676000000000000000000000000000000000000000000000000000000000000000000000000000000000000000000000000000000000000000000000000000000600000000000000000000000000000000000000000000000000000000000000104a026383e00000000000000000000000094b008aa00579c1307b0ef2c499ad98a8ce58e580000000000000000000000000b2c639c533813f4aa9d7837caf62653d097ff850000000000000000000000000000000000000000000000000000000000000001000000000000000000000000bdceaf04b9cab477e27f7745b7f39c50471fef0d00000000000000000000000000000000000000000000000000000000696bfc9200000000000000000000000000000000000000000000000000000000470756be0000000000000000000000000000000000000000000000000000000044e11a50000000000000000000000000000000000000000100071b585d30726460c28aaa00000000000000000000000000000000000000000000000000000000000000000000000000000000bdceaf04b9cab477e27f7745b7f39c50471fef0d000000000000000000000000000000000000000000000000000000000000000000000000000000000000000000000000000000000000000000000000000000600000000000000000000000000000000000000000000000000000000000000000000000000000000000000000000000000000000000000000000000000000000000000000000000000000000000000000000000000000000000000000000000000000000000000000000000000000000000000000000000000000004163ae75accc9138773065eb38238c68625eef827ab5477ca890f7bb05bc88201068248fbd52a355c21efeae5dd6157c6301ff58567922787390147aad5e096a5d1c00000000000000000000000000000000000000000000000000000000000000","maxFeePerGas":"0xa2e9f3","maxPriorityFeePerGas":"0xa2e9f3","nonce":"0x3b916","r":"0x77065b75c2621f3997741a9483e3304b63f2b9c01c19c1990243d880d1607142","s":"0x6d515f3da9ceb31552592b22e7e0288298659e0c778baa17c5325a8f5332f62e","to":"0x0000000071727de22e5e9d8baf0edac6f37da032","transactionIndex":"0x1b","type":"0x2","v":"0x0","value":"0x0","yParity":"0x0"},{"accessList":[],"blockHash":"0xa32cde76caa7f18e822d73d5af983cf253113167e6c24678bb69c1a80e55cef8","blockNumber":"0x8bc0ded","chainId":"0xa","from":"0xa83a922a933da0d06cc87d60e54c6a44ddcdfaf9","gas":"0x16e360","gasPrice":"0x5b9706","hash":"0x0265bf9797cccaf28388309bfde9c75f968ce59c9a61346ad0527e3fe0298e77","input":"0xd9fc0833","maxFeePerGas":"0x5b9bcd","maxPriorityFeePerGas":"0x5b8d80","nonce":"0x12441","r":"0x96e93f8ded50c40cda49508310c6c54b6607dcc49c184924d3d3bdf0108d6584","s":"0x13526d51dedd8ce9654133c760f4cf2965468318381c328c9bcdc6d56af0c7f0","to":"0xc26ae9339be07ce072b96003fa959517c4af37e9","transactionIndex":"0x1c","type":"0x2","v":"0x0","value":"0x0","yParity":"0x0"},{"accessList":[],"blockHash":"0xa32cde76caa7f18e822d73d5af983cf253113167e6c24678bb69c1a80e55cef8","blockNumber":"0x8bc0ded","chainId":"0xa","from":"0xa602141bfc2577a37b43d6156728b09c900b33c3","gas":"0x5f652","gasPrice":"0x24a886","hash":"0x8d656b8b201c1806dcb3ab4517da9907adfc66490d098b9f51b4433c99f016c8","input":"0x4343433c00000000000000000000000000000000000000000000000000000000000000c0000000000000000000000000bdb9f958e2f0e38d89173374e24ee335b50ed12800000000000000000000000000000000000000000000000000000000000000e00000000000000000000000000000000000000000000000000000000000000300000000000000000000000000000000000000000000000000000000000000032000000000000000000000000000000000000000000000000000000000000000010000000000000000000000000000000000000000000000000000000000000000000000000000000000000000000000000000000000000000000000000000000a000000000000000000000000000000000000000000000000000000000000014000000000000000000000000094b008aa00579c1307b0ef2c499ad98a8ce58e5800000000000000000000000000000000000000000000000000000000029020c000000000000000000000000000000000000000000000000000000000000001a0000000000000000000000000bdb9f958e2f0e38d89173374e24ee335b50ed128000000000000000000000000596c0ea6cbf1d05d309b5c92229ed6778490f14e0000000000000000000000004ffa0d891239979128974411dc4ee350b91de4c599b8030937018ed3ad13cec578bec8acc40fed6c074cc80ca138714322ad7a5e00000000000000000000000000000000000000000000000000000000696d42bd00000000000000000000000000000000000000000000000000000000000000010000000000000000000000000b2c639c533813f4aa9d7837caf62653d097ff8500000000000000000000000000000000000000000000000000000000029020c00000000000000000000000004736d66fcfffd3fd599007648e01caa33d9faeca00000000000000000000000000000000000000000000000000000000000000000000000000000000000000000000000000000000000000000000000000000060000000000000000000000000000000000000000000000000000000000000000000000000000000000000000000000000000000000000000000000000000000000000000000000000000000000000000000000000000000000000000000000000","maxFeePerGas":"0x24c528","maxPriorityFeePerGas":"0x249f00","nonce":"0x1289b","r":"0xb31150bfa43c37eb498022e1feee181f7afed1bef37e568f81dfc0a97ab584b0","s":"0x13610dd6fb54950e53a57fd5ae952fba6e57e04fb8369e3f1c7928b32d80c758","to":"0x64df9d9b318118798abd20836fe46af6b09fb530","transactionIndex":"0x1d","type":"0x2","v":"0x0","value":"0x0","yParity":"0x0"},{"accessList":[],"blockHash":"0xa32cde76caa7f18e822d73d5af983cf253113167e6c24678bb69c1a80e55cef8","blockNumber":"0x8bc0ded","chainId":"0xa","from":"0x6042fae6e28b7a267efac7f4876494e61fa38401","gas":"0xb71b00","gasPrice":"0xf4bc6","hash":"0xa2558695e309ffa8cbcf61247f5493f17914cd77a330150d6be8836d38be1aec","input":"0x000000000000696bf5cd1b8656c27383dfff17bb380280f62945c9f6eecfd5790c68b3aa0eff8a9a494f0c4268f75279d948003834919f8b57bbacf6339d7872df3925b576753e101c9a120d030003478946bcd4a5a22b316470f5486fafb928c0ba2500023b00006402fab400037cfc2da3ba598ef4de692905fedca32565ab836e000c130000c804c859010158e6433a6903886e440ddf519ecc573c4046a6b20027100000000000000003000339ed27d101aa4b7ce1cb4293b877954b8b5e14e5000bd60000c801cd9e0101e9581d0f1a628b038fc8b2a7f5a7d904f0e2f93700271000000000000000034dc22588ade05c40338a9d95a6da9dcee68bcd600001f90000c80165e6000200036cfdebcc8bf2548967d4e02c058290634e4931d1000194000064fd054c0102c858a329bf053be78d6239c4a4343b8fbd21472b0001f400000a00000000030003319c0dd36284ac24a6b2bee73929f699b9f48c380001f9000064fbf9680103cf50dea65ee80ebddaa61005a960ef5a5c995a990001f9000064fef41d0003478946bcd4a5a22b316470f5486fafb928c0ba2500023b00006402fab401030003478946bcd4a5a22b316470f5486fafb928c0ba2500023b00006402fab40003173cdc71e29d5cffa6d090ad99f555a24b8831f90027740000c803640301016ed6df1c23c51cb7cc67a348cc8d9e6108ea3bfe000bb8000000000000000300034dc22588ade05c40338a9d95a6da9dcee68bcd600001f90000c80165e60101e9581d0f1a628b038fc8b2a7f5a7d904f0e2f937002710000000000000010339ed27d101aa4b7ce1cb4293b877954b8b5e14e5000bd60000c801cd9e00030003478946bcd4a5a22b316470f5486fafb928c0ba2500023b00006402fab40001a0a215de234276cac1b844fd58901351a50fec8a002328000000000000010339ed27d101aa4b7ce1cb4293b877954b8b5e14e5000bd60000c801cd9e00020003478946bcd4a5a22b316470f5486fafb928c0ba2500023b00006402fab400021fb3cf6e48f1e7b10213e7b6d87d4c073c7fdb7b0001f400000a00000001020001104d0312f95a1b3056435d19668f2272ab1e7df20001f4000000000000010271fff2a6b2ed4a93841475c63c39eba37cd2f6ef0027100000c80000000004000179c912fef520be002c2b6e57ec4324e260f38e500001f400000000000001019c8a59934fba9af82674eff5d13a24e7c7e7a1f10001f40000000000000101e0b1da86d17b884c4d246e218a67ae3466ad841c000bb800000000000000021fb3cf6e48f1e7b10213e7b6d87d4c073c7fdb7b0001f400000a0000000104000179c912fef520be002c2b6e57ec4324e260f38e500001f400000000000001019c8a59934fba9af82674eff5d13a24e7c7e7a1f10001f40000000000000101e0b1da86d17b884c4d246e218a67ae3466ad841c000bb80000000000000003478946bcd4a5a22b316470f5486fafb928c0ba2500023b00006402fab40104000384a67cd00eb244edca2288346add251a783243c80001940000320165e4010322be4975c78b77979014d6a6bc0140e0eaf219870001f900006404609600035483484f876218908ca435f08222751f7f7b2a3b000065000001ffffff0003478946bcd4a5a22b316470f5486fafb928c0ba2500023b00006402fab4010300020392b358ce4547601befa962680bede836606ae2000bb800003c0000000101894d6ea97767ebecefe01c9410f6bd67935aa952000a8c0000000000000002c1738d90e2e26c35784a0d3e3d8a9f795074bca4000bb800003c00000001","maxFeePerGas":"0x3938700","maxPriorityFeePerGas":"0xf4240","nonce":"0x180b1","r":"0xf89d19801d7e3ac1b88d9283eee0454b09227810687100ec0c349a9256b69704","s":"0x710ce80221247b251acb78d93b4ceb957796494c2334cee21259e01ca0a69db3","to":"0x355463adfd60892ee5aefb92ba2e86d8cd554a30","transactionIndex":"0x1e","type":"0x2","v":"0x1","value":"0x0","yParity":"0x1"},{"accessList":[],"blockHash":"0xa32cde76caa7f18e822d73d5af983cf253113167e6c24678bb69c1a80e55cef8","blockNumber":"0x8bc0ded","chainId":"0xa","from":"0xdd747f32add26b1c1dbce16ea53a68dd7ab5aa29","gas":"0xb789","gasPrice":"0xf4bc6","hash":"0x7a4aef0042b5028adc82cfa090d65a0c3cf8173013b5900d5c3043aa8c8a29ee","input":"0x942b67dc323032363031313741323435313636460000000000000000000000000000000028c5bdc6300f41ab2256979ebac08433c6c82fd1cdb5e90746fd6fcee0401b4a","maxFeePerGas":"0xf5552","maxPriorityFeePerGas":"0xf4240","nonce":"0x1f8fe","r":"0x3ad546b9f3f254fe99c03827cab93c39fcaf2d6f969e5fe7901d04abeb6703f0","s":"0x24250632b5d60eafcbc2eb6f86366dfed1b86af95da6460f834377c450e1ea97","to":"0xfb4e4811c7a811e098a556bd79b64c20b479e431","transactionIndex":"0x1f","type":"0x2","v":"0x1","value":"0x0","yParity":"0x1"},{"accessList":[],"blockHash":"0xa32cde76caa7f18e822d73d5af983cf253113167e6c24678bb69c1a80e55cef8","blockNumber":"0x8bc0ded","chainId":"0xa","from":"0xc736a2e29f4e764f548a76a960595687559d8eac","gas":"0x17636","gasPrice":"0x19026","hash":"0x1d3ce58bcea0b090a2ec8d9f9dfcfb4754bcf44a0231376e4cba691379fac9ba","input":"0x3ccfd60b","maxFeePerGas":"0x193e8","maxPriorityFeePerGas":"0x186a0","nonce":"0x25d","r":"0x518e4d0de28db002b35f166d9f434b58a279b4dc9839415ae08d91773991da78","s":"0x6c8392b2002d76a14b9b1dc73ae5b7a34b91615d6f94b90f86895a9c6bbad5da","to":"0x91741863a48f0b29fc0b6d10b3cde2122feb58f7","transactionIndex":"0x20","type":"0x2","v":"0x1","value":"0x0","yParity":"0x1"},{"accessList":[],"blockHash":"0xa32cde76caa7f18e822d73d5af983cf253113167e6c24678bb69c1a80e55cef8","blockNumber":"0x8bc0ded","chainId":"0xa","from":"0x1f1d37c47abe77e333139dccd7bd3d67dab11fb0","gas":"0x7a1200","gasPrice":"0x19026","hash":"0xbcaa2a21e9a12c02606045318e9959912007fd14fc39eed31c2d3472019736da","input":"0x03000d010100003200010f321014f2354f8e6383ab4e9bf9a3d76aebaf2a3480046adefef60a957c179d0100000bb800000f325f388e121a1f34d9473883aa6215811aac961b7f3e418c078f54ffb6857b0000000bb800000f325f388e121a1f34d947382dc2b4345495d229c30a3992048a1456c75ab54304000d01010001f4000a0f325f388e121a1f34d947387ca877fd1890c36b5448b7d6de1d6d67a564da1c0100000bb800000f325f388e121a1f34d9473883aa6215811aac961b7f3e418c078f54ffb6857b00000001f400000f325f388e121a1f34d94738ff91e1001fdbbe22702fbf95d75a05875efca09600000001f400000f325f388e121a1f34d947381ad2aa6da5419ada7a703e37ea230582f9e88f37","maxFeePerGas":"0x1259fd","maxPriorityFeePerGas":"0x186a0","nonce":"0x1e7e7c","r":"0xf348e8c2a7b0997649a96c7248b731cad926710c1a19bc262fac11e3e2806357","s":"0x29522b6784764b18d9a741667a8589632e82fb91f63f99f00a72fd272f9c972a","to":"0x56e63998921f8ff8ee9d0206606f3a2dfe3b6689","transactionIndex":"0x21","type":"0x2","v":"0x0","value":"0x0","yParity":"0x0"},{"accessList":[],"blockHash":"0xa32cde76caa7f18e822d73d5af983cf253113167e6c24678bb69c1a80e55cef8","blockNumber":"0x8bc0ded","chainId":"0xa","from":"0xeb7fba90b6ff36d1592f650c98da2962b1d17f60","gas":"0x7a1200","gasPrice":"0x116e9","hash":"0xab29c37f6a0f0b1fc3167fae7cef944e4c196e78fdbc5e92b5b3ba38e4143b00","input":"0x03000d010100003200010f321014f2354f8e6383ab4e9bf9a3d76aebaf2a3480046adefef60a957c179d0100000bb800000f325f388e121a1f34d9473883aa6215811aac961b7f3e418c078f54ffb6857b0000000bb800000f325f388e121a1f34d947382dc2b4345495d229c30a3992048a1456c75ab54304000d01010001f4000a0f325f388e121a1f34d947387ca877fd1890c36b5448b7d6de1d6d67a564da1c0100000bb800000f325f388e121a1f34d9473883aa6215811aac961b7f3e418c078f54ffb6857b00000001f400000f325f388e121a1f34d94738ff91e1001fdbbe22702fbf95d75a05875efca09600000001f400000f325f388e121a1f34d947381ad2aa6da5419ada7a703e37ea230582f9e88f37","maxFeePerGas":"0x11e0c0","maxPriorityFeePerGas":"0x10d63","nonce":"0x1e8624","r":"0x2f0fe9027cc46a1c460fa58cf55bdf012390a51fb70e9d218fb85c26f4db1590","s":"0x15d11a4a1b0e3f63373d981213791420d96ded43b9678a0105025f8fde50532e","to":"0x56e63998921f8ff8ee9d0206606f3a2dfe3b6689","transactionIndex":"0x22","type":"0x2","v":"0x1","value":"0x0","yParity":"0x1"},{"accessList":[],"blockHash":"0xa32cde76caa7f18e822d73d5af983cf253113167e6c24678bb69c1a80e55cef8","blockNumber":"0x8bc0ded","chainId":"0xa","from":"0x12c86206439b462263a6416e1586c2bb035d1844","gas":"0x3d0900","gasPrice":"0xb4bf","hash":"0x2edce838395b9e907f6666471a131409e7f5c8d2e3425a29aa56b66d7ce619bf","input":"0x02000d000100271000c80f321014f2354f8e6383ab4ec16d584bb42c5fe850ec25a63a59cac3e5c9f78800000001f400000f325f388e121a1f34d947387356bb81a93b3fea00180d7960ef031232057c95","maxFeePerGas":"0x117e96","maxPriorityFeePerGas":"0xab39","nonce":"0x1e8dea","r":"0x8a816dfea408fdb1a76353881f240df2b46c60c82ee25dd71c594e9219596dd9","s":"0x2cab6f8c3a3d0b9fdb4c0f8dbe3043f8c606a4f1067db6b52a730f0da94965f0","to":"0x56e63998921f8ff8ee9d0206606f3a2dfe3b6689","transactionIndex":"0x23","type":"0x2","v":"0x1","value":"0x0","yParity":"0x1"},{"accessList":[],"blockHash":"0xa32cde76caa7f18e822d73d5af983cf253113167e6c24678bb69c1a80e55cef8","blockNumber":"0x8bc0ded","chainId":"0xa","from":"0x8d53cc3fee06a17a5958995b4c7e6aaad9aa75ee","gas":"0x7a1200","gasPrice":"0xa81f","hash":"0x48eb78c7ff37a3ad495271ae97e1a6336f923f588245a44f5296ebdb788cb209","input":"0x03000d010100003200010f321014f2354f8e6383ab4e9bf9a3d76aebaf2a3480046adefef60a957c179d0100000bb800000f325f388e121a1f34d9473883aa6215811aac961b7f3e418c078f54ffb6857b0000000bb800000f325f388e121a1f34d947382dc2b4345495d229c30a3992048a1456c75ab54304000d01010001f4000a0f325f388e121a1f34d947387ca877fd1890c36b5448b7d6de1d6d67a564da1c0100000bb800000f325f388e121a1f34d9473883aa6215811aac961b7f3e418c078f54ffb6857b00000001f400000f325f388e121a1f34d94738ff91e1001fdbbe22702fbf95d75a05875efca09600000001f400000f325f388e121a1f34d947381ad2aa6da5419ada7a703e37ea230582f9e88f37","maxFeePerGas":"0x1171f6","maxPriorityFeePerGas":"0x9e99","nonce":"0x1e80bf","r":"0xf3b0a7e876febd27c3136fcad8b43a0f801c631aed239bb37a04fcb4b7b45448","s":"0x2cd271ad705e0d21db48c2a23645e2ac384d790fbbb4da2fe1a308575fede2a4","to":"0x56e63998921f8ff8ee9d0206606f3a2dfe3b6689","transactionIndex":"0x24","type":"0x2","v":"0x1","value":"0x0","yParity":"0x1"},{"accessList":[],"blockHash":"0xa32cde76caa7f18e822d73d5af983cf253113167e6c24678bb69c1a80e55cef8","blockNumber":"0x8bc0ded","chainId":"0xa","from":"0x79d49da9d813c85038e2b5ca0de3693f9eb666e0","gas":"0xb71b00","gasPrice":"0x19026","hash":"0xc4abee8cbfa57f7a319ad96d2eddff31c4192c74cb1864203f26ece716717a7c","input":"0x000000000000696bf5cd1be6e6d4d758f42aee12fe2ad19e2702602d698a4bd3e296c59a29a26e335607a6443e290b27207c2ab6fe88b6d5054fdf8febb85998f7135ecb45895e5dcd5e9b0e030003478946bcd4a5a22b316470f5486fafb928c0ba2500023b00006402fab400037cfc2da3ba598ef4de692905fedca32565ab836e000c130000c804c859010158e6433a6903886e440ddf519ecc573c4046a6b20027100000000000000003000339ed27d101aa4b7ce1cb4293b877954b8b5e14e5000bd60000c801cd9e0101e9581d0f1a628b038fc8b2a7f5a7d904f0e2f93700271000000000000000034dc22588ade05c40338a9d95a6da9dcee68bcd600001f90000c80165e6000200036cfdebcc8bf2548967d4e02c058290634e4931d1000194000064fd054c0102c858a329bf053be78d6239c4a4343b8fbd21472b0001f400000a00000000030003319c0dd36284ac24a6b2bee73929f699b9f48c380001f9000064fbf9680103cf50dea65ee80ebddaa61005a960ef5a5c995a990001f9000064fef41d0003478946bcd4a5a22b316470f5486fafb928c0ba2500023b00006402fab401030003478946bcd4a5a22b316470f5486fafb928c0ba2500023b00006402fab40003173cdc71e29d5cffa6d090ad99f555a24b8831f90027740000c803640301016ed6df1c23c51cb7cc67a348cc8d9e6108ea3bfe000bb8000000000000000200021fb3cf6e48f1e7b10213e7b6d87d4c073c7fdb7b0001f400000a0000000003478946bcd4a5a22b316470f5486fafb928c0ba2500023b00006402fab4010300034dc22588ade05c40338a9d95a6da9dcee68bcd600001f90000c80165e60101e9581d0f1a628b038fc8b2a7f5a7d904f0e2f937002710000000000000010339ed27d101aa4b7ce1cb4293b877954b8b5e14e5000bd60000c801cd9e00030003478946bcd4a5a22b316470f5486fafb928c0ba2500023b00006402fab40001a0a215de234276cac1b844fd58901351a50fec8a002328000000000000010339ed27d101aa4b7ce1cb4293b877954b8b5e14e5000bd60000c801cd9e00020003478946bcd4a5a22b316470f5486fafb928c0ba2500023b00006402fab400021fb3cf6e48f1e7b10213e7b6d87d4c073c7fdb7b0001f400000a00000001020001104d0312f95a1b3056435d19668f2272ab1e7df20001f4000000000000010271fff2a6b2ed4a93841475c63c39eba37cd2f6ef0027100000c80000000004000179c912fef520be002c2b6e57ec4324e260f38e500001f400000000000001019c8a59934fba9af82674eff5d13a24e7c7e7a1f10001f40000000000000101e0b1da86d17b884c4d246e218a67ae3466ad841c000bb800000000000000021fb3cf6e48f1e7b10213e7b6d87d4c073c7fdb7b0001f400000a0000000104000179c912fef520be002c2b6e57ec4324e260f38e500001f400000000000001019c8a59934fba9af82674eff5d13a24e7c7e7a1f10001f40000000000000101e0b1da86d17b884c4d246e218a67ae3466ad841c000bb80000000000000003478946bcd4a5a22b316470f5486fafb928c0ba2500023b00006402fab40104000384a67cd00eb244edca2288346add251a783243c80001940000320165e4010322be4975c78b77979014d6a6bc0140e0eaf219870001f900006404609600035483484f876218908ca435f08222751f7f7b2a3b000065000001ffffff0003478946bcd4a5a22b316470f5486fafb928c0ba2500023b00006402fab4010300020392b358ce4547601befa962680bede836606ae2000bb800003c0000000101894d6ea97767ebecefe01c9410f6bd67935aa952000a8c0000000000000002c1738d90e2e26c35784a0d3e3d8a9f795074bca4000bb800003c00000001","maxFeePerGas":"0x3938700","maxPriorityFeePerGas":"0x186a0","nonce":"0xf6c2f","r":"0xed59071e2a5ed5258f187cd05c61383d4dbdc11052a189312491e02fffbad4ae","s":"0x343c790a56370edadae54fa181b2b4801ab6ed9411a8a6fbbfd5c0148ddcd48e","to":"0x355463adfd60892ee5aefb92ba2e86d8cd554a30","transactionIndex":"0x25","type":"0x2","v":"0x1","value":"0x0","yParity":"0x1"},{"accessList":[],"blockHash":"0xa32cde76caa7f18e822d73d5af983cf253113167e6c24678bb69c1a80e55cef8","blockNumber":"0x8bc0ded","chainId":"0xa","from":"0xde0eb0769b5f457aa632167d60eaa6cec7b75de7","gas":"0x7a1200","gasPrice":"0x19026","hash":"0x1145deba7e3d4570bf84bd40d7c9cd9c16761eba01355dc65fab7041f5079499","input":"0x03000d010100003200010f321014f2354f8e6383ab4e9bf9a3d76aebaf2a3480046adefef60a957c179d0100000bb800000f325f388e121a1f34d9473883aa6215811aac961b7f3e418c078f54ffb6857b0000000bb800000f325f388e121a1f34d947382dc2b4345495d229c30a3992048a1456c75ab54304000d01010001f4000a0f325f388e121a1f34d947387ca877fd1890c36b5448b7d6de1d6d67a564da1c0100000bb800000f325f388e121a1f34d9473883aa6215811aac961b7f3e418c078f54ffb6857b00000001f400000f325f388e121a1f34d94738ff91e1001fdbbe22702fbf95d75a05875efca09600000001f400000f325f388e121a1f34d947381ad2aa6da5419ada7a703e37ea230582f9e88f37","maxFeePerGas":"0x1259fd","maxPriorityFeePerGas":"0x186a0","nonce":"0x1e958b","r":"0x6dbbc53c4f542e34d5121d4ad4e1e2fd97e0a19dc40264a5903eb8b5a33388e7","s":"0x226812a6b8663ee08ebc9e7da0efb9cd0a7f50aa5c57c89039dd841c3d9f1464","to":"0x56e63998921f8ff8ee9d0206606f3a2dfe3b6689","transactionIndex":"0x26","type":"0x2","v":"0x0","value":"0x0","yParity":"0x0"},{"accessList":[],"blockHash":"0xa32cde76caa7f18e822d73d5af983cf253113167e6c24678bb69c1a80e55cef8","blockNumber":"0x8bc0ded","chainId":"0xa","from":"0x243f762aaac3895704e0ec025449229912c63d94","gas":"0x7a1200","gasPrice":"0x116e9","hash":"0xbbb210c1c251aac56e1489c9464039315d0492d1c6002d85b94242311bcca4d7","input":"0x03000d010100003200010f321014f2354f8e6383ab4e9bf9a3d76aebaf2a3480046adefef60a957c179d0100000bb800000f325f388e121a1f34d9473883aa6215811aac961b7f3e418c078f54ffb6857b0000000bb800000f325f388e121a1f34d947382dc2b4345495d229c30a3992048a1456c75ab54304000d01010001f4000a0f325f388e121a1f34d947387ca877fd1890c36b5448b7d6de1d6d67a564da1c0100000bb800000f325f388e121a1f34d9473883aa6215811aac961b7f3e418c078f54ffb6857b00000001f400000f325f388e121a1f34d94738ff91e1001fdbbe22702fbf95d75a05875efca09600000001f400000f325f388e121a1f34d947381ad2aa6da5419ada7a703e37ea230582f9e88f37","maxFeePerGas":"0x11e0c0","maxPriorityFeePerGas":"0x10d63","nonce":"0x1e9180","r":"0x1a1a154fe106ef5c90194e65cffd003957627d975e4b85fc6858dc945c82e341","s":"0x735d0faeee5792b7dc05e0ce0440cdfec1a726ece1194d80213edc50feb5b07b","to":"0x56e63998921f8ff8ee9d0206606f3a2dfe3b6689","transactionIndex":"0x27","type":"0x2","v":"0x1","value":"0x0","yParity":"0x1"},{"accessList":[],"blockHash":"0xa32cde76caa7f18e822d73d5af983cf253113167e6c24678bb69c1a80e55cef8","blockNumber":"0x8bc0ded","chainId":"0xa","from":"0xb1741c259190b7ee5dc9c8878b2fd7e75f0f2904","gas":"0x3d0900","gasPrice":"0xb4bf","hash":"0xbfdf85226205283cd69c237b956f28e77dffa7d2b23f283ef06cbca08502ac3a","input":"0x02000d000100271000c80f321014f2354f8e6383ab4ec16d584bb42c5fe850ec25a63a59cac3e5c9f78800000001f400000f325f388e121a1f34d947387356bb81a93b3fea00180d7960ef031232057c95","maxFeePerGas":"0x117e96","maxPriorityFeePerGas":"0xab39","nonce":"0x1e9862","r":"0x7252c7093b25cae81aea6e2e436245211c563c63b133889ab361977bd31aa11","s":"0x2e4fb71663a9682b8e2ceeccca57dc608cf113ffecd7ae58fc20c047caca2b33","to":"0x56e63998921f8ff8ee9d0206606f3a2dfe3b6689","transactionIndex":"0x28","type":"0x2","v":"0x1","value":"0x0","yParity":"0x1"},{"accessList":[],"blockHash":"0xa32cde76caa7f18e822d73d5af983cf253113167e6c24678bb69c1a80e55cef8","blockNumber":"0x8bc0ded","chainId":"0xa","from":"0x24ae36512421f1d9f6e074f00ff5b8393f5dd925","gas":"0x7a1200","gasPrice":"0xa81f","hash":"0x3d03b4deda6bc35fc08daa93f1245a2b853553f4d3c963e001bc2677373a7549","input":"0x03000d010100003200010f321014f2354f8e6383ab4e9bf9a3d76aebaf2a3480046adefef60a957c179d0100000bb800000f325f388e121a1f34d9473883aa6215811aac961b7f3e418c078f54ffb6857b0000000bb800000f325f388e121a1f34d947382dc2b4345495d229c30a3992048a1456c75ab54304000d01010001f4000a0f325f388e121a1f34d947387ca877fd1890c36b5448b7d6de1d6d67a564da1c0100000bb800000f325f388e121a1f34d9473883aa6215811aac961b7f3e418c078f54ffb6857b00000001f400000f325f388e121a1f34d94738ff91e1001fdbbe22702fbf95d75a05875efca09600000001f400000f325f388e121a1f34d947381ad2aa6da5419ada7a703e37ea230582f9e88f37","maxFeePerGas":"0x1171f6","maxPriorityFeePerGas":"0x9e99","nonce":"0x1e8fba","r":"0x6a4ab561ca20fe82d244a3bbea2be9d55da9c4e198876ba4bc5f58bcbb6ddaaf","s":"0x2e0a6fd647672447b590253631131ff08aeb443bd239d685ffbc05873654ac6e","to":"0x56e63998921f8ff8ee9d0206606f3a2dfe3b6689","transactionIndex":"0x29","type":"0x2","v":"0x0","value":"0x0","yParity":"0x0"},{"accessList":[],"blockHash":"0xa32cde76caa7f18e822d73d5af983cf253113167e6c24678bb69c1a80e55cef8","blockNumber":"0x8bc0ded","chainId":"0xa","from":"0x5e258962409958dde3a4b1592e9fe202f7cfcc07","gas":"0x989680","gasPrice":"0x7667","hash":"0x37c6c986a7667f3fa62a850d748d2079a0fab4ea91d70ad8d668bcb07273a485","input":"0x000000000000696bf5ce1bea892aade09014b30eb0ed7a71b963bf5bc89ca11eb4099bf649b15c82637e82220cb88c352b5d96150ca8328a5d58eedc42600dcae51fc0e33bd7942a39db860d030003478946bcd4a5a22b316470f5486fafb928c0ba2500023b00006402fab400037cfc2da3ba598ef4de692905fedca32565ab836e000c130000c804c859010158e6433a6903886e440ddf519ecc573c4046a6b20027100000000000000003000339ed27d101aa4b7ce1cb4293b877954b8b5e14e5000bd60000c801cd9e0101e9581d0f1a628b038fc8b2a7f5a7d904f0e2f93700271000000000000000034dc22588ade05c40338a9d95a6da9dcee68bcd600001f90000c80165e6000200036cfdebcc8bf2548967d4e02c058290634e4931d1000194000064fd054c0102c858a329bf053be78d6239c4a4343b8fbd21472b0001f400000a00000000030003319c0dd36284ac24a6b2bee73929f699b9f48c380001f9000064fbf9680103cf50dea65ee80ebddaa61005a960ef5a5c995a990001f9000064fef41d0003478946bcd4a5a22b316470f5486fafb928c0ba2500023b00006402fab401030003478946bcd4a5a22b316470f5486fafb928c0ba2500023b00006402fab40003173cdc71e29d5cffa6d090ad99f555a24b8831f90027740000c803640301016ed6df1c23c51cb7cc67a348cc8d9e6108ea3bfe000bb8000000000000000300034dc22588ade05c40338a9d95a6da9dcee68bcd600001f90000c80165e60101e9581d0f1a628b038fc8b2a7f5a7d904f0e2f937002710000000000000010339ed27d101aa4b7ce1cb4293b877954b8b5e14e5000bd60000c801cd9e00030003478946bcd4a5a22b316470f5486fafb928c0ba2500023b00006402fab40001a0a215de234276cac1b844fd58901351a50fec8a002328000000000000010339ed27d101aa4b7ce1cb4293b877954b8b5e14e5000bd60000c801cd9e00020003478946bcd4a5a22b316470f5486fafb928c0ba2500023b00006402fab400021fb3cf6e48f1e7b10213e7b6d87d4c073c7fdb7b0001f400000a00000001020001104d0312f95a1b3056435d19668f2272ab1e7df20001f4000000000000010271fff2a6b2ed4a93841475c63c39eba37cd2f6ef0027100000c80000000004000179c912fef520be002c2b6e57ec4324e260f38e500001f400000000000001019c8a59934fba9af82674eff5d13a24e7c7e7a1f10001f40000000000000101e0b1da86d17b884c4d246e218a67ae3466ad841c000bb800000000000000021fb3cf6e48f1e7b10213e7b6d87d4c073c7fdb7b0001f400000a0000000104000179c912fef520be002c2b6e57ec4324e260f38e500001f400000000000001019c8a59934fba9af82674eff5d13a24e7c7e7a1f10001f40000000000000101e0b1da86d17b884c4d246e218a67ae3466ad841c000bb80000000000000003478946bcd4a5a22b316470f5486fafb928c0ba2500023b00006402fab40104000384a67cd00eb244edca2288346add251a783243c80001940000320165e4010322be4975c78b77979014d6a6bc0140e0eaf219870001f900006404609600035483484f876218908ca435f08222751f7f7b2a3b000065000001ffffff0003478946bcd4a5a22b316470f5486fafb928c0ba2500023b00006402fab4010300020392b358ce4547601befa962680bede836606ae2000bb800003c0000000101894d6ea97767ebecefe01c9410f6bd67935aa952000a8c0000000000000002c1738d90e2e26c35784a0d3e3d8a9f795074bca4000bb800003c00000001","maxFeePerGas":"0x3938700","maxPriorityFeePerGas":"0x6ce1","nonce":"0x18101","r":"0xde43a9379aadf62847098e55dc5938dd42671edffda208e967e0f281798f48f2","s":"0x72f6564a88e7f002c05399f762c5cdfa012a3b0ceea6b6a26ba4502a640a9382","to":"0x355463adfd60892ee5aefb92ba2e86d8cd554a30","transactionIndex":"0x2a","type":"0x2","v":"0x1","value":"0x0","yParity":"0x1"},{"blockHash":"0xa32cde76caa7f18e822d73d5af983cf253113167e6c24678bb69c1a80e55cef8","blockNumber":"0x8bc0ded","chainId":"0xa","from":"0xa74d0bfabe2d3f55672cba1fff259f909a274396","gas":"0xadb40","gasPrice":"0x125af1","hash":"0x4767afeb34b05c6c95bf725a1cb5d80ad1bff2512ba2c4c05fcec67de85715c5","input":"0x174dea710000000000000000000000000000000000000000000000000000000000000020000000000000000000000000000000000000000000000000000000000000000200000000000000000000000000000000000000000000000000000000000000400000000000000000000000000000000000000000000000000000000000000220000000000000000000000000ba5ed110efdba3d005bfc882d75358acbbb8584200000000000000000000000000000000000000000000000000000000000000000000000000000000000000000000000000000000000000000000000000000000000000000000000000000000000000000000000000000000000000000000008000000000000000000000000000000000000000000000000000000000000001343ffba36f000000000000000000000000000000000000000000000000000000000000004000000000000000000000000000000000000000000000000000000000000000000000000000000000000000000000000000000000000000000000000000000002000000000000000000000000000000000000000000000000000000000000004000000000000000000000000000000000000000000000000000000000000000800000000000000000000000000000000000000000000000000000000000000020000000000000000000000000bbe344f88a12b2cb695ed047efd321363c10c859000000000000000000000000000000000000000000000000000000000000002000000000000000000000000016d5f076510a808f17a2fccac76908c4d3c9c9c1e15b0a8c44ecad456533d0110ead2ce000000000000000000000000000000000000000000000000000000000fc04c910a0b5fea33b03e0447ad0b0aa0000000000000000000000000000000000000000000000000000000000000000000000000000000000000000000000000000000000000000000036d35102daf800000000000000000000000000000000000000000000000000000000000000800000000000000000000000000000000000000000000000000000000000000564a44c9ce7000000000000000000000000000000000000000000000000000000000000006000000000000000000000000000000000000000000000000000000000000001e000000000000000000000000000000000000000000000000000000000000000000000000000000000000000000e247f077901de8cbec78710ec89eb776aa249bf000000000000000000000000000000000000000000000000000000000000000000000000000000000000000000000000000000000000000000000000696bf7e5000000000000000000000000000000000000000000000000000000000000008000000000000000000000000000000000000000000000000000000000000000e00000000000000000000000000000000000000000000000000000000000000020000000000000000000000000000000000000000000000000000000000000000100000000000000000000000000000000000000000000000000000000000000400000000000000000000000000000000000000000000000000000000000000041baf20520b0678fa5d7f4863c41eadabe875aa5423373440da75438f5504b695e07a3731b3e22a8e47368297d1449a78add186263793627d80ebd6edc5c8facda1c0000000000000000000000000000000000000000000000000000000000000000000000000000000000000000000000000000000000000000000000000000010000000000000000000000000000000000000000000000000000000000000020000000000000000000000000000000000000000000000000000000000000000100000000000000000000000000000000000000000000000000000000000000c00000000000000000000000000000000000000000000000000000000000000001000000000000000000000000000000000000000000000000000000000000010000000000000000000000000000000000000000000000000000000000696c039f00000000000000000000000000000000000000000000000000000000000002400000000000000000000000000000000000000000000000000000000000000020f28e6cf6db3297b25311411bb72e09557025cb31b10964ec0f506705a680075400000000000000000000000000000000000000000000000000000000000001200000000000000000000000000000000000000000000000000000000000000020000000000000000000000000000000000000000000000000000000000004ba6100000000000000000000000020c5cfecc0d1e03d2511aec13ea016f552d639b7000000000000000000000000000000000000000000000000000000000000008000000000000000000000000000000000000000000000000000000000696c039f0000000000000000000000000000000000000000000000000000000000000041c31199578e7189a1d253e04de4a7bf47b5124fa5783b4c4ca93a6cd593a23a0942f2196166d6a463e805a213ef02de08f04321a606ac7e41b7bc4d36e4f562331c0000000000000000000000000000000000000000000000000000000000000000000000000000000000000000000000000000000000000000000000000000e0000000000000000000000000000000000000000000000000000000000000002000000000000000000000000000000000000000000000000000000000000000010000000000000000000000000000000000000000000000000000000000000040000000000000000000000000000000000000000000000000000000000000004105c1f20c481f10e56ad4002e9209880c2c550423a8ddfd32082b53ddc5650be30e73c7101a05387d9ff8f3a67a2aa2e5688d12deb0de10b4e6bffe1e2e5d13a41b0000000000000000000000000000000000000000000000000000000000000000000000000000000000000000000000000000000000000000000000","nonce":"0xaf01","r":"0xd4b16b143a0242ecb8caed77f32424794cca6114cf0d28a5d50c2e77f37b1272","s":"0x53d7ec69282a8463afd682d69c5da2d2155cf1ec1b5974ab83f98a2ad1cce583","to":"0xca11bde05977b3631167028862be2a173976ca11","transactionIndex":"0x2b","type":"0x0","v":"0x38","value":"0x36d35102daf8"},{"accessList":[],"blockHash":"0xa32cde76caa7f18e822d73d5af983cf253113167e6c24678bb69c1a80e55cef8","blockNumber":"0x8bc0ded","chainId":"0xa","from":"0x7fd9b0727fefd7f8ca79b3a32f597549f300f75e","gas":"0x7a1200","gasPrice":"0x19026","hash":"0xbf608817b2c2f95cc713e5c01a82087e07cd09d7ea5b792f0c7bc4b76162ee39","input":"0x03000d010100003200010f321014f2354f8e6383ab4e9bf9a3d76aebaf2a3480046adefef60a957c179d0100000bb800000f325f388e121a1f34d9473883aa6215811aac961b7f3e418c078f54ffb6857b0000000bb800000f325f388e121a1f34d947382dc2b4345495d229c30a3992048a1456c75ab54304000d01010001f4000a0f325f388e121a1f34d947387ca877fd1890c36b5448b7d6de1d6d67a564da1c0100000bb800000f325f388e121a1f34d9473883aa6215811aac961b7f3e418c078f54ffb6857b00000001f400000f325f388e121a1f34d94738ff91e1001fdbbe22702fbf95d75a05875efca09600000001f400000f325f388e121a1f34d947381ad2aa6da5419ada7a703e37ea230582f9e88f37","maxFeePerGas":"0x1259fd","maxPriorityFeePerGas":"0x186a0","nonce":"0x4b8f2e","r":"0xa501310f7e181598f9516a3781e6940298de82c6a20845d33fea56eb73a1872","s":"0x56e355651d70b71411b839539f048158523b6542c09d0dc7ec303002ae637e25","to":"0x56e63998921f8ff8ee9d0206606f3a2dfe3b6689","transactionIndex":"0x2c","type":"0x2","v":"0x1","value":"0x0","yParity":"0x1"},{"accessList":[],"blockHash":"0xa32cde76caa7f18e822d73d5af983cf253113167e6c24678bb69c1a80e55cef8","blockNumber":"0x8bc0ded","chainId":"0xa","from":"0x2efc4931f2e64b38d6ae3d714466840fbc951f56","gas":"0x7a1200","gasPrice":"0x116e9","hash":"0x43f209bbebe5f0e5734c6908cfd478513d9904821fc79d70c0fe644ab43c42b3","input":"0x03000d010100003200010f321014f2354f8e6383ab4e9bf9a3d76aebaf2a3480046adefef60a957c179d0100000bb800000f325f388e121a1f34d9473883aa6215811aac961b7f3e418c078f54ffb6857b0000000bb800000f325f388e121a1f34d947382dc2b4345495d229c30a3992048a1456c75ab54304000d01010001f4000a0f325f388e121a1f34d947387ca877fd1890c36b5448b7d6de1d6d67a564da1c0100000bb800000f325f388e121a1f34d9473883aa6215811aac961b7f3e418c078f54ffb6857b00000001f400000f325f388e121a1f34d94738ff91e1001fdbbe22702fbf95d75a05875efca09600000001f400000f325f388e121a1f34d947381ad2aa6da5419ada7a703e37ea230582f9e88f37","maxFeePerGas":"0x11e0c0","maxPriorityFeePerGas":"0x10d63","nonce":"0x52662f","r":"0x45b7c5c3b6d6efcb6178fcc3c310b9732e7d580c7456d4a07d0c1c147c816a05","s":"0x6e915d264977c6786219321cb918d2e402fee76a04c3b61d6dd4846a79a24d49","to":"0x56e63998921f8ff8ee9d0206606f3a2dfe3b6689","transactionIndex":"0x2d","type":"0x2","v":"0x1","value":"0x0","yParity":"0x1"},{"accessList":[],"blockHash":"0xa32cde76caa7f18e822d73d5af983cf253113167e6c24678bb69c1a80e55cef8","blockNumber":"0x8bc0ded","chainId":"0xa","from":"0x63f164167d6efe31418a812548b8db2d29d839e7","gas":"0x3d0900","gasPrice":"0xb4bf","hash":"0xb808132f6bd45c9a4cf2b527d4ebfb2b6a590b5c07f2f8589ea924b9ae72c9be","input":"0x02000d000100271000c80f321014f2354f8e6383ab4ec16d584bb42c5fe850ec25a63a59cac3e5c9f78800000001f400000f325f388e121a1f34d947387356bb81a93b3fea00180d7960ef031232057c95","maxFeePerGas":"0x117e96","maxPriorityFeePerGas":"0xab39","nonce":"0x495ca7","r":"0x7c18d9d7232c6077d82d3d3c36a6dbb51b06f36d0ff9dfbd0afbc106c958e233","s":"0x5ce504c7dcff6f6409d5ec63733aa7c07e6e9424396f484ae1e49467a8a10297","to":"0x56e63998921f8ff8ee9d0206606f3a2dfe3b6689","transactionIndex":"0x2e","type":"0x2","v":"0x1","value":"0x0","yParity":"0x1"},{"accessList":[],"blockHash":"0xa32cde76caa7f18e822d73d5af983cf253113167e6c24678bb69c1a80e55cef8","blockNumber":"0x8bc0ded","chainId":"0xa","from":"0xe6c7e624907dee652c870938726ed0026d16e07b","gas":"0x7a1200","gasPrice":"0xa81f","hash":"0xbb0a476e2c4f3eac660365dd12045e64c3e7aa2f112dfc7bc77f09d04e4e4d69","input":"0x03000d010100003200010f321014f2354f8e6383ab4e9bf9a3d76aebaf2a3480046adefef60a957c179d0100000bb800000f325f388e121a1f34d9473883aa6215811aac961b7f3e418c078f54ffb6857b0000000bb800000f325f388e121a1f34d947382dc2b4345495d229c30a3992048a1456c75ab54304000d01010001f4000a0f325f388e121a1f34d947387ca877fd1890c36b5448b7d6de1d6d67a564da1c0100000bb800000f325f388e121a1f34d9473883aa6215811aac961b7f3e418c078f54ffb6857b00000001f400000f325f388e121a1f34d94738ff91e1001fdbbe22702fbf95d75a05875efca09600000001f400000f325f388e121a1f34d947381ad2aa6da5419ada7a703e37ea230582f9e88f37","maxFeePerGas":"0x1171f6","maxPriorityFeePerGas":"0x9e99","nonce":"0x1e944e","r":"0x8fd528a1c3615334279687d5394112b300b39377da7b290fde6fdcf309849b5c","s":"0x225bdcf491a9d7eca72539ebe3484d5a2917d6ecc50c6e39e0c57ca1b2b24ea3","to":"0x56e63998921f8ff8ee9d0206606f3a2dfe3b6689","transactionIndex":"0x2f","type":"0x2","v":"0x0","value":"0x0","yParity":"0x0"},{"blockHash":"0xa32cde76caa7f18e822d73d5af983cf253113167e6c24678bb69c1a80e55cef8","blockNumber":"0x8bc0ded","chainId":"0xa","from":"0x140dd4380a96a140670a95640bb2a56946ac0c3b","gas":"0x5a3c","gasPrice":"0xf4bca","hash":"0x4be083c78ddcfb815f17ed059b5883afb77aefc32b9f2c4a68244f3f5766ca99","input":"0x","nonce":"0x5","r":"0x4707fd32556271114d7c4caaafb1b49f796f3cc3f7e4839b69e1195555aa9d53","s":"0x12b1dfc08a942fcee8391dffc1554abb01c33e967ea816a5166b5b10dc9a6d73","to":"0xc507c6502e3b6aaa817fcc59a360cfb73d898528","transactionIndex":"0x30","type":"0x0","v":"0x38","value":"0x0"},{"accessList":[],"blockHash":"0xa32cde76caa7f18e822d73d5af983cf253113167e6c24678bb69c1a80e55cef8","blockNumber":"0x8bc0ded","chainId":"0xa","from":"0xb0fb15c2e9a6654901c37eb015923970bccce522","gas":"0x10cad0","gasPrice":"0x19026","hash":"0xb0f4ab9fdc2ba1b779a0604f3f1ea813eac8693324a8d766bd93c1db6b90c263","input":"0xe21fd0e9000000000000000000000000000000000000000000000000000000000000002000000000000000000000000063242a4ea82847b20e506b63b0e2e2eff0cc6cb0000000000000000000000000000000000000000000000000000000000000000000000000000000000000000000000000000000000000000000000000000000a000000000000000000000000000000000000000000000000000000000000009400000000000000000000000000000000000000000000000000000000000000b80000000000000000000000000000000000000000000000000000000000000088000000000000000000000000005f5e10000000000000000000000000005f5e100000000000000000000000000000000000000000000000000000000000000006000000000000000000000000000000000000000000000000000000000000000e00000000000000000000000000000000000000000000000000000000000000041a98263b7b337b6327257b6fd8ca5f005f4ea8628cfaee4b75fe24b8be3558bb134a2185b3fa12007e6b14bcb893c5428943c4f111cac6f83e533fa1a500db0221c000000000000000000000000000000000000000000000000000000000000000000000000000000000000000000000000000000000000000000000000000780000000000000000000000000b0fb15c2e9a6654901c37eb015923970bccce522000000000000000000000000000000000000000000000000000000000000014000000000000000000000000000000000000000000000000000000000000001a000000000000000000000000005a995c000000000000000000000000006422c4000000000000000000000000005f5e10000000000000000762bd3bb8573b000000000000000000000000000000000000007be956ff409590000000f42400000000000000000000000000000004f82e73edb06d29ff62c91ec8f5ff06571bdeb29000000000000000000000000000000000000000000000000000000000000000000000000000000000000000000000000000000000000000000000000696bfa3d0000000000000000000000000000000000000000000000000000000000000760000000000000000000000000000000000000000000000000000000000000000261f598cd000000000000000092934e8915576ff4684cad10ee82dfe788e9250c91dd7346000000000000000092934e8915576ff4684cad10ee82dfe788e9250c0000000000000000000000000000000000000000000000000000000000000003000000000000000000000000000000000000000000000000000000000000006000000000000000000000000000000000000000000000000000000000000003c0000000000000000000000000000000000000000000000000000000000000052000000000000000000000000094b008aa00579c1307b0ef2c499ad98a8ce58e588000000000000000000000000000006400000000000000000000000005f5e1000000000000000000000000000000000000000000000000000000000000000060000000000000000000000000000000000000000000000000000000000000000100000000000000000000000000000000000000000000000000000000000000200000000000000000000000000000000000000000000000000000000005f5e100736e774d0000000000000001df5238831fb85ec1075e4de58d95233be9bae71e000000000000000000000000000000000000000000000000000000000000008000000000000000000000000063242a4ea82847b20e506b63b0e2e2eff0cc6cb000000000000000000000000000000000000000000000000000000000000002200000000000000000000000009a13f98cb987694c9f086b1f5eb990eea8264ec3000000000000000000000000000000000000000000000000000000000000000100000000000000000000000000000000000000000000000000000000000000600000000000000000000000000000000000000000000000000000000000000001000000000000000000000000000000000000000000000000000000000000002000000000000000000000000094b008aa00579c1307b0ef2c499ad98a8ce58e580000000000000000000000000000000000000000000000000000000005f5e1000000000000000000000000000000000000000000000000000000000000000060000000000000000000000000000000000000000000000000000000000000000100000000000000000000000000000000000000000000000000000000000000200000000000000000000000000b2c639c533813f4aa9d7837caf62653d097ff8500000000000000000000000000000000000000000000000000000000000000190000000000000000000000000000000000000000000000000000000000000001000000000000000000000000000000000000000000000000000000000000000000000000000000000000000000000000000000000000000000000000000000c0000000000000000000000000fffd8963efd1fc6a506488495d951d5263988d2500000000000000000000000000000000000000000000000000000000000000000000000000000000000000000b2c639c533813f4aa9d7837caf62653d097ff858000000000000000000000000000006300000000000000000000000005f58c790000000000000000000000000000000000000000000000000000000000000060000000000000000000000000000000000000000000000000000000000000000100000000000000000000000000000000000000000000000000000000000000200000000000000000000000000000000000000000000000000000000005f58c795515d8c800000000000200025455c918e405a2831fbff8595c0aae35ee3db9d10000000000000000000000000000000000000000000000000000000000000080000000000000000000000000b0fb15c2e9a6654901c37eb015923970bccce5220000000000000000000000000000000000000000000000000000000000000020000000000000000000000000e0b1da86d17b884c4d246e218a67ae3466ad841c0000000000000000000000009e1028f5f1d5ede59748ffcee5532509976840e0800000000000000000000000000000010000000000000000000000000000000000000000000000000000000000000000000000000000000000000000000000600000000000000000000000000000000000000000000000000000000000000000000000000000000000000000000000000000000000000000000000000000000000000000000000000000000094b008aa00579c1307b0ef2c499ad98a8ce58e580000000000000000000000009e1028f5f1d5ede59748ffcee5532509976840e0000000000000000000000000000000000000000000000000000000000000016000000000000000000000000000000000000000000000000000000000000001a000000000000000000000000000000000000000000000000000000000000001e00000000000000000000000000000000000000000000000000000000000000200000000000000000000000000b0fb15c2e9a6654901c37eb015923970bccce5220000000000000000000000000000000000000000000000000000000005f5e100000000000000000000000000000000000000000000000075d112544d7fe26a7e00000000000000000000000000000000000000000000000000000000000002000000000000000000000000000000000000000000000000000000000000000220000000000000000000000000000000000000000000000000000000000000000100000000000000000000000063242a4ea82847b20e506b63b0e2e2eff0cc6cb000000000000000000000000000000000000000000000000000000000000000010000000000000000000000000000000000000000000000000000000005f5e10000000000000000000000000000000000000000000000000000000000000000000000000000000000000000000000000000000000000000000000000000000000000000000000000000000000000000000000000000000000000000000000000000000000000000000000000000000000000000000000000000000000000002897b22536f75726365223a226b7962657273776170222c22416d6f756e74496e555344223a2239392e39373132323737323636303335222c22416d6f756e744f7574555344223a2239352e3730303530363237343637333536222c22526566657272616c223a22222c22466c616773223a302c22416d6f756e744f7574223a2232313739383733383734363433323839383939303038222c2254696d657374616d70223a313736383638323839332c22526f7574654944223a2239336432626463382d333562662d343164382d613566372d6132373531636432313436303a36333062336235372d646462642d343934642d393330662d326566336161333133363030222c22496e74656772697479496e666f223a7b224b65794944223a2231222c225369676e6174757265223a225a6161506672564872487665724633705a576f4f6d786d77564f31727a5048496d30776c436845626f5a6e44426772456b7756707a5a6979476445396d6c654338547a58444e632b536574695779525243496175382b485538714e4f454751364332487a64724e595851367779303472564538714a3161683043456f495731686d76324956506c4148576a554f5549486b6535746e3534746b6a4e2f42436a7348764352345a527057324c786132314b443954534e386f614a4b2b53433947735a5136503279323178316e4e414356514156333768357a55777772437a6d346e346558736f4f525745323753335242316459796949343349623138374e5768656e6a75784b42416b74757443455a6a5134377969306c433770764654645a58446d5878464c7744485577555a6c5970312b4858444b66415758646d334c56634c3178454e66726e6b387373326c53714a36564b7933413d3d227d7d0000000000000000000000000000000000000000000000","maxFeePerGas":"0x1937f","maxPriorityFeePerGas":"0x186a0","nonce":"0x1ce","r":"0x2c27c001164db9f8050db54cc1827aece04bbabe60dc68f0f62954fe83c1adcf","s":"0x4c14083d120385037f04d3ced9e5b6a643de5cadc4927fb99ab8ecc04a0f8c56","to":"0x6131b5fae19ea4f9d964eac0408e4408b66337b5","transactionIndex":"0x31","type":"0x2","v":"0x0","value":"0x0","yParity":"0x0"},{"accessList":[],"blockHash":"0xa32cde76caa7f18e822d73d5af983cf253113167e6c24678bb69c1a80e55cef8","blockNumber":"0x8bc0ded","chainId":"0xa","from":"0xecb55e5ccfc128a1eca67e48dbe2f299e4366d0e","gas":"0x7a1200","gasPrice":"0x19026","hash":"0x84aa4f653d0ca77340bccfaf593e0edbe954ba8c17b510d7a8720b511584d14f","input":"0x03000d010100003200010f321014f2354f8e6383ab4e9bf9a3d76aebaf2a3480046adefef60a957c179d0100000bb800000f325f388e121a1f34d9473883aa6215811aac961b7f3e418c078f54ffb6857b0000000bb800000f325f388e121a1f34d947382dc2b4345495d229c30a3992048a1456c75ab54304000d01010001f4000a0f325f388e121a1f34d947387ca877fd1890c36b5448b7d6de1d6d67a564da1c0100000bb800000f325f388e121a1f34d9473883aa6215811aac961b7f3e418c078f54ffb6857b00000001f400000f325f388e121a1f34d94738ff91e1001fdbbe22702fbf95d75a05875efca09600000001f400000f325f388e121a1f34d947381ad2aa6da5419ada7a703e37ea230582f9e88f37","maxFeePerGas":"0x1259fd","maxPriorityFeePerGas":"0x186a0","nonce":"0x1f7237","r":"0x5c81fdd3ec858dc00b5c2250f9df8a3d6c2111c2955d1d8679a65f54ab3ba9a9","s":"0x1e9f31c452662a0ecf5c530b4b49870b439eecfb221528e9f9346162f42a4e1e","to":"0x56e63998921f8ff8ee9d0206606f3a2dfe3b6689","transactionIndex":"0x32","type":"0x2","v":"0x0","value":"0x0","yParity":"0x0"},{"accessList":[],"blockHash":"0xa32cde76caa7f18e822d73d5af983cf253113167e6c24678bb69c1a80e55cef8","blockNumber":"0x8bc0ded","chainId":"0xa","from":"0x38ab43d5e326d058b815c37d71e47c9be5f248da","gas":"0x7a1200","gasPrice":"0x116e9","hash":"0xc396224e5579e3c8715ea3b2eeca670e944f961ccc45db8bd9282e3faa919e06","input":"0x03000d010100003200010f321014f2354f8e6383ab4e9bf9a3d76aebaf2a3480046adefef60a957c179d0100000bb800000f325f388e121a1f34d9473883aa6215811aac961b7f3e418c078f54ffb6857b0000000bb800000f325f388e121a1f34d947382dc2b4345495d229c30a3992048a1456c75ab54304000d01010001f4000a0f325f388e121a1f34d947387ca877fd1890c36b5448b7d6de1d6d67a564da1c0100000bb800000f325f388e121a1f34d9473883aa6215811aac961b7f3e418c078f54ffb6857b00000001f400000f325f388e121a1f34d94738ff91e1001fdbbe22702fbf95d75a05875efca09600000001f400000f325f388e121a1f34d947381ad2aa6da5419ada7a703e37ea230582f9e88f37","maxFeePerGas":"0x11e0c0","maxPriorityFeePerGas":"0x10d63","nonce":"0x2093c5","r":"0xf5b2ac3425e6aea8381c78df3743b4227f23388b4476ec21c46fc71cbf0d6a9e","s":"0x6f718d2157a42070b8073c19818db12d2b759afe38f8aedd49dc485ddb756636","to":"0x56e63998921f8ff8ee9d0206606f3a2dfe3b6689","transactionIndex":"0x33","type":"0x2","v":"0x0","value":"0x0","yParity":"0x0"},{"accessList":[],"blockHash":"0xa32cde76caa7f18e822d73d5af983cf253113167e6c24678bb69c1a80e55cef8","blockNumber":"0x8bc0ded","chainId":"0xa","from":"0x6ebd5cd5f6958816c726d955d51799e2257f962e","gas":"0x3d0900","gasPrice":"0xb4bf","hash":"0x5e36c8afa4857a325807a22d896c3325e7c414640d449811555b497a0ddf0bdb","input":"0x02000d000100271000c80f321014f2354f8e6383ab4ec16d584bb42c5fe850ec25a63a59cac3e5c9f78800000001f400000f325f388e121a1f34d947387356bb81a93b3fea00180d7960ef031232057c95","maxFeePerGas":"0x117e96","maxPriorityFeePerGas":"0xab39","nonce":"0x1f1652","r":"0x2687be28b36a74546d92a60454b424ba0c162b60d1f54def9805ab20b5f1c9ae","s":"0x71cdf0548798ae08367a4ccb9bf1e72452249ad8a96348c18c7c9295d7444924","to":"0x56e63998921f8ff8ee9d0206606f3a2dfe3b6689","transactionIndex":"0x34","type":"0x2","v":"0x0","value":"0x0","yParity":"0x0"},{"accessList":[],"blockHash":"0xa32cde76caa7f18e822d73d5af983cf253113167e6c24678bb69c1a80e55cef8","blockNumber":"0x8bc0ded","chainId":"0xa","from":"0x53531b1872b141d56b4d82a54b61d23911be04c1","gas":"0x7a1200","gasPrice":"0xa81f","hash":"0x8150fa49614313c9915fd2e13c2be8d0728ac1b643d12d4c40ca2f3eda352133","input":"0x03000d010100003200010f321014f2354f8e6383ab4e9bf9a3d76aebaf2a3480046adefef60a957c179d0100000bb800000f325f388e121a1f34d9473883aa6215811aac961b7f3e418c078f54ffb6857b0000000bb800000f325f388e121a1f34d947382dc2b4345495d229c30a3992048a1456c75ab54304000d01010001f4000a0f325f388e121a1f34d947387ca877fd1890c36b5448b7d6de1d6d67a564da1c0100000bb800000f325f388e121a1f34d9473883aa6215811aac961b7f3e418c078f54ffb6857b00000001f400000f325f388e121a1f34d94738ff91e1001fdbbe22702fbf95d75a05875efca09600000001f400000f325f388e121a1f34d947381ad2aa6da5419ada7a703e37ea230582f9e88f37","maxFeePerGas":"0x1171f6","maxPriorityFeePerGas":"0x9e99","nonce":"0x32d2f0","r":"0x5cafd05e2b1d6e01f3b2e323406bbd9e49b851cbb7acd98dd910a3517795593f","s":"0x1fd0dd890b1c99767b77ac7e82ce4432bc9819bfa9c3a768f5d4715a16c7906","to":"0x56e63998921f8ff8ee9d0206606f3a2dfe3b6689","transactionIndex":"0x35","type":"0x2","v":"0x0","value":"0x0","yParity":"0x0"},{"accessList":[],"blockHash":"0xa32cde76caa7f18e822d73d5af983cf253113167e6c24678bb69c1a80e55cef8","blockNumber":"0x8bc0ded","chainId":"0xa","from":"0x4a811fc4150b0dacf5eeb9e826b56279254b7333","gas":"0x4c4b40","gasPrice":"0x3096","hash":"0xc024f780ed7b2538bc5b85a89eb4099eb3c7676b55fdfbaa2e2fd8eeaafa3683","input":"0x02dbe483000000000000000000000000000000000000000000000000000000000000004000000000000000000000000000000000000000000000000000000000000000800000000000000000000000000000000000000000000000000000000000000001000000000000000000000000896f87d1922cb8d8c90a877fecc44981684660b600000000000000000000000000000000000000000000000000000000000000030000000000000000000000000000000000000000000000000000000000000060000000000000000000000000000000000000000000000000000000000000022000000000000000000000000000000000000000000000000000000000000003e00000000000000000000000000000000000000000000000000000000000000184e4c47c6b000000000000000000000000000000000000000000000000000000000000004000000000000000000000000000000000000000000000000000000000000000c00000000000000000000000000000000000000000000000000000000000000003000000000000000000000000000000000000000000000000000000000000000000000000000000000000000000000000000000000000000000000000000000000000000000000000000000000000000000000000000000000000000000000000000000000000000000000000000000000000000000000000000000000000009700000000000000017c000000000000000000000000019da11ff60bfc5af527f58fd61679c3ac98d040d9000bb80b2c639c533813f4aa9d7837caf62653d097ff856c23fa7ec9eea627261c4a0978664ea592ca0e1900100a7f5c764cbc14f9669b88837ca1490cca17c3160784ce89b4f6f67e523a81a82f9f2f14d84b726f6b00000294b008aa00579c1307b0ef2c499ad98a8ce58e58000000000000000000000000000000000000000000000000000000000000000000000000000000000000000000000000000000000000000000000000000000000000000184e4c47c6b000000000000000000000000000000000000000000000000000000000000004000000000000000000000000000000000000000000000000000000000000000c0000000000000000000000000000000000000000000000000000000000000000300000000000000000000000000000000000000000000000000000000000000000000000000000000000000000000000000000000000000000000000000000000000000000000000000000000000000000000000000000000000000000000000000000000000000000000000000000000000000000000000000000000000000970000000000000003410000000000000000000000000036e3c209b373b861c185ecdbb8b2ebdd98587bdb00100a0b2c639c533813f4aa9d7837caf62653d097ff859da11ff60bfc5af527f58fd61679c3ac98d040d9000bc37f5c764cbc14f9669b88837ca1490cca17c316074dbb2d7785654074c53c5a915126d3378446bd6100000294b008aa00579c1307b0ef2c499ad98a8ce58e58000000000000000000000000000000000000000000000000000000000000000000000000000000000000000000000000000000000000000000000000000000000000000184e4c47c6b000000000000000000000000000000000000000000000000000000000000004000000000000000000000000000000000000000000000000000000000000000c0000000000000000000000000000000000000000000000000000000000000000300000000000000000000000000000000000000000000000000000000000000000000000000000000000000000000000000000000000000000000000000000000000000000000000000000000000000000000000000000000000000000000000000000000000000000000000000000000000000000000000000000000000000970000000000000002c700000000000000000000000000707ba27189e8bf89e43b2198e6b88aac4720124f00100a0b2c639c533813f4aa9d7837caf62653d097ff852e931de1fcb2681dc98601e0b513308da9c5ceae00100a1f514a61bcde34f94bc39731235690ab9da737f72b6b093a6c2aba51e078540ad89ed76a0c6716fa0000027f5c764cbc14f9669b88837ca1490cca17c3160700000000000000000000000000000000000000000000000000000000000000000000000000","maxFeePerGas":"0x5f5e100","maxPriorityFeePerGas":"0x2710","nonce":"0x136bb2","r":"0x48125695b5c84e22619ebd6a6b09706173a942db5181b06d4c26660e7c1c821c","s":"0x361305d0cc5ebcd20c32b49f258af1f7eaa482da4c890951e4fea0e79b6009ce","to":"0xdcdf888450614840842b6171614225ac6f8f2172","transactionIndex":"0x36","type":"0x2","v":"0x1","value":"0x0","yParity":"0x1"},{"accessList":[],"blockHash":"0xa32cde76caa7f18e822d73d5af983cf253113167e6c24678bb69c1a80e55cef8","blockNumber":"0x8bc0ded","chainId":"0xa","from":"0x433700890211c1c776c391d414cffd38efdd1811","gas":"0x17c1f7","gasPrice":"0x18be7d","hash":"0xb2f3d7ed222661750f001096e9ab45daa37d52d019e2e51c04d3a972134cbb12","input":"0x765e827f0000000000000000000000000000000000000000000000000000000000000040000000000000000000000000433700890211c1c776c391d414cffd38efdd18110000000000000000000000000000000000000000000000000000000000000004000000000000000000000000000000000000000000000000000000000000008000000000000000000000000000000000000000000000000000000000000007400000000000000000000000000000000000000000000000000000000000000e0000000000000000000000000000000000000000000000000000000000000014c00000000000000000000000004b2b80c02ac987746089d89758485777f6505a140000000000000000000000000000000000000000000000000000000000000220000000000000000000000000000000000000000000000000000000000000012000000000000000000000000000000000000000000000000000000000000001400000000000000000000000000000a352000000000000000000000000000358ea000000000000000000000000000000000000000000000000000000000000e9070000000000000000000000000016e36000000000000000000000000000262f2b0000000000000000000000000000000000000000000000000000000000000580000000000000000000000000000000000000000000000000000000000000064000000000000000000000000000000000000000000000000000000000000000000000000000000000000000000000000000000000000000000000000000000404e9ae5c530100000000000000000000000000000000000000000000000000000000000000000000000000000000000000000000000000000000000000000000000000004000000000000000000000000000000000000000000000000000000000000003a0000000000000000000000000000000000000000000000000000000000000002000000000000000000000000000000000000000000000000000000000000000030000000000000000000000000000000000000000000000000000000000000060000000000000000000000000000000000000000000000000000000000000014000000000000000000000000000000000000000000000000000000000000002e000000000000000000000000094b008aa00579c1307b0ef2c499ad98a8ce58e58000000000000000000000000000000000000000000000000000000000000000000000000000000000000000000000000000000000000000000000000000000600000000000000000000000000000000000000000000000000000000000000044a9059cbb00000000000000000000000034dac76555ab52fab3eb7071fb864dbb8fa3752d0000000000000000000000000000000000000000000000000000000000000ecb000000000000000000000000000000000000000000000000000000000000000000000000000000000792a633f0c19c351081cf4b211f68f79bcc9676000000000000000000000000000000000000000000000000000000000000000000000000000000000000000000000000000000000000000000000000000000600000000000000000000000000000000000000000000000000000000000000104a026383e00000000000000000000000094b008aa00579c1307b0ef2c499ad98a8ce58e580000000000000000000000000b2c639c533813f4aa9d7837caf62653d097ff8500000000000000000000000000000000000000000000000000000000000000010000000000000000000000004b2b80c02ac987746089d89758485777f6505a1400000000000000000000000000000000000000000000000000000000696bfc95000000000000000000000000000000000000000000000000000000000118f1b7000000000000000000000000000000000000000000000000000000000118de6f00000000000000000000000000000000000000010007147ae943f05be73547e3000000000000000000000000000000000000000000000000000000000000000000000000000000004b2b80c02ac987746089d89758485777f6505a14000000000000000000000000000000000000000000000000000000000000000000000000000000000000000000000000000000000000000000000000000000600000000000000000000000000000000000000000000000000000000000000000000000000000000000000000000000000000000000000000000000000000000000000000000000000000000000000000000000000000000000000082777777777777aec03fd955926dbf81597e66834c0000000000000000000000000000b57800000000000000000000000000000001010000696bf7e900000000000026280251a16a7a5045fffd65290a3319144205c09cd3857c1840ce6e7f03e99d266bbfdece721834fb39a6864b05d1638f567a97a5f00ffd2363b716a8eb7b261c000000000000000000000000000000000000000000000000000000000000000000000000000000000000000000000000000000000000000000000000004196a66d438227059ea419046dfaa09abef2a83faf537dc8b7ac7ede32a36a535e6ea51daee9f66403a88793055478e51dd3733e7116b0dacfa34d8ca76ea2cd531b000000000000000000000000000000000000000000000000000000000000000000000000000000000000005f8d782d5f761575896c0a2c10e07d2dd4a4b6040000000000000000000000000000000000000000000000000000000000000485000000000000000000000000000000000000000000000000000000000000012000000000000000000000000000000000000000000000000000000000000001400000000000000000000000000000a35200000000000000000000000000037863000000000000000000000000000000000000000000000000000000000000e9270000000000000000000000000016e36000000000000000000000000000262f2b0000000000000000000000000000000000000000000000000000000000000580000000000000000000000000000000000000000000000000000000000000064000000000000000000000000000000000000000000000000000000000000000000000000000000000000000000000000000000000000000000000000000000404e9ae5c530100000000000000000000000000000000000000000000000000000000000000000000000000000000000000000000000000000000000000000000000000004000000000000000000000000000000000000000000000000000000000000003a0000000000000000000000000000000000000000000000000000000000000002000000000000000000000000000000000000000000000000000000000000000030000000000000000000000000000000000000000000000000000000000000060000000000000000000000000000000000000000000000000000000000000014000000000000000000000000000000000000000000000000000000000000002e00000000000000000000000000b2c639c533813f4aa9d7837caf62653d097ff85000000000000000000000000000000000000000000000000000000000000000000000000000000000000000000000000000000000000000000000000000000600000000000000000000000000000000000000000000000000000000000000044a9059cbb00000000000000000000000034dac76555ab52fab3eb7071fb864dbb8fa3752d0000000000000000000000000000000000000000000000000000000000001022000000000000000000000000000000000000000000000000000000000000000000000000000000000792a633f0c19c351081cf4b211f68f79bcc9676000000000000000000000000000000000000000000000000000000000000000000000000000000000000000000000000000000000000000000000000000000600000000000000000000000000000000000000000000000000000000000000104a026383e0000000000000000000000000b2c639c533813f4aa9d7837caf62653d097ff8500000000000000000000000094b008aa00579c1307b0ef2c499ad98a8ce58e5800000000000000000000000000000000000000000000000000000000000000010000000000000000000000005f8d782d5f761575896c0a2c10e07d2dd4a4b60400000000000000000000000000000000000000000000000000000000696bfc9500000000000000000000000000000000000000000000000000000000014d697a00000000000000000000000000000000000000000000000000000000014d777900000000000000000000000000000000000000010007144af47f658464e69270000000000000000000000000000000000000000000000000000000000000000000000000000000005f8d782d5f761575896c0a2c10e07d2dd4a4b604000000000000000000000000000000000000000000000000000000000000000000000000000000000000000000000000000000000000000000000000000000600000000000000000000000000000000000000000000000000000000000000000000000000000000000000000000000000000000000000000000000000000000000000000000000000000000000000000000000000000000000000082777777777777aec03fd955926dbf81597e66834c0000000000000000000000000000b57800000000000000000000000000000001010000696bf7e9000000000000a7450087f703f118ccb8cd9a48d29d463c37a5783ea9f97de0671897ec68b27d5be00270b1178404491c405c8b0988433f194770510574b62a991b56267041ad1b0000000000000000000000000000000000000000000000000000000000000000000000000000000000000000000000000000000000000000000000000041baaff83efab2b58ff1838e478c5a58d3abafd1bc3e92d9441b5ce33c40d877b232d04ce6889fb0e5655ff2449240c45f6cd49f18abead466423fed54dc6417781c00000000000000000000000000000000000000000000000000000000000000000000000000000000000000f718848fafe05d05206856ceff67de84dbbd95440000000000000000000000000000000000000000000000000000000000000a96000000000000000000000000000000000000000000000000000000000000012000000000000000000000000000000000000000000000000000000000000001400000000000000000000000000000a35200000000000000000000000000037863000000000000000000000000000000000000000000000000000000000000e8ff0000000000000000000000000016e36000000000000000000000000000262f2b0000000000000000000000000000000000000000000000000000000000000580000000000000000000000000000000000000000000000000000000000000064000000000000000000000000000000000000000000000000000000000000000000000000000000000000000000000000000000000000000000000000000000404e9ae5c530100000000000000000000000000000000000000000000000000000000000000000000000000000000000000000000000000000000000000000000000000004000000000000000000000000000000000000000000000000000000000000003a0000000000000000000000000000000000000000000000000000000000000002000000000000000000000000000000000000000000000000000000000000000030000000000000000000000000000000000000000000000000000000000000060000000000000000000000000000000000000000000000000000000000000014000000000000000000000000000000000000000000000000000000000000002e00000000000000000000000000b2c639c533813f4aa9d7837caf62653d097ff85000000000000000000000000000000000000000000000000000000000000000000000000000000000000000000000000000000000000000000000000000000600000000000000000000000000000000000000000000000000000000000000044a9059cbb00000000000000000000000034dac76555ab52fab3eb7071fb864dbb8fa3752d0000000000000000000000000000000000000000000000000000000000000b6e000000000000000000000000000000000000000000000000000000000000000000000000000000000792a633f0c19c351081cf4b211f68f79bcc9676000000000000000000000000000000000000000000000000000000000000000000000000000000000000000000000000000000000000000000000000000000600000000000000000000000000000000000000000000000000000000000000104a026383e0000000000000000000000000b2c639c533813f4aa9d7837caf62653d097ff8500000000000000000000000094b008aa00579c1307b0ef2c499ad98a8ce58e580000000000000000000000000000000000000000000000000000000000000001000000000000000000000000f718848fafe05d05206856ceff67de84dbbd954400000000000000000000000000000000000000000000000000000000696bfc96000000000000000000000000000000000000000000000000000000000095b200000000000000000000000000000000000000000000000000000000000095b8480000000000000000000000000000000000000001000714594c18f9195a11823300000000000000000000000000000000000000000000000000000000000000000000000000000000f718848fafe05d05206856ceff67de84dbbd9544000000000000000000000000000000000000000000000000000000000000000000000000000000000000000000000000000000000000000000000000000000600000000000000000000000000000000000000000000000000000000000000000000000000000000000000000000000000000000000000000000000000000000000000000000000000000000000000000000000000000000000000082777777777777aec03fd955926dbf81597e66834c0000000000000000000000000000b57800000000000000000000000000000001010000696bf7e9000000000000141263bee41724863fe09d077f15a3cd46addaf585487f470bb37062221420f939a3953973264ca291733028a2a069aa7af39e6a7135b7083b59238200ed67b71b0000000000000000000000000000000000000000000000000000000000000000000000000000000000000000000000000000000000000000000000000041511352f0962c2298495f5b7ab4b06f9c7183737746b7d181ccdb29a71fdf7d007d15c0bcd022456702c1eefa20788fa6e0dda9011a8e3a3cf18bf0e9173b1ba71c000000000000000000000000000000000000000000000000000000000000000000000000000000000000002c2fbbd1bbf9dbe30c95586a44d874ec1be7188200000000000000000000000000000000000000000000000000000000000001bd000000000000000000000000000000000000000000000000000000000000012000000000000000000000000000000000000000000000000000000000000001400000000000000000000000000000a35200000000000000000000000000037863000000000000000000000000000000000000000000000000000000000000e9330000000000000000000000000016e36000000000000000000000000000262f2b0000000000000000000000000000000000000000000000000000000000000580000000000000000000000000000000000000000000000000000000000000064000000000000000000000000000000000000000000000000000000000000000000000000000000000000000000000000000000000000000000000000000000404e9ae5c530100000000000000000000000000000000000000000000000000000000000000000000000000000000000000000000000000000000000000000000000000004000000000000000000000000000000000000000000000000000000000000003a0000000000000000000000000000000000000000000000000000000000000002000000000000000000000000000000000000000000000000000000000000000030000000000000000000000000000000000000000000000000000000000000060000000000000000000000000000000000000000000000000000000000000014000000000000000000000000000000000000000000000000000000000000002e00000000000000000000000000b2c639c533813f4aa9d7837caf62653d097ff85000000000000000000000000000000000000000000000000000000000000000000000000000000000000000000000000000000000000000000000000000000600000000000000000000000000000000000000000000000000000000000000044a9059cbb00000000000000000000000034dac76555ab52fab3eb7071fb864dbb8fa3752d0000000000000000000000000000000000000000000000000000000000000ed7000000000000000000000000000000000000000000000000000000000000000000000000000000000792a633f0c19c351081cf4b211f68f79bcc9676000000000000000000000000000000000000000000000000000000000000000000000000000000000000000000000000000000000000000000000000000000600000000000000000000000000000000000000000000000000000000000000104a026383e0000000000000000000000000b2c639c533813f4aa9d7837caf62653d097ff8500000000000000000000000094b008aa00579c1307b0ef2c499ad98a8ce58e5800000000000000000000000000000000000000000000000000000000000000010000000000000000000000002c2fbbd1bbf9dbe30c95586a44d874ec1be7188200000000000000000000000000000000000000000000000000000000696bfc9500000000000000000000000000000000000000000000000000000000011af92800000000000000000000000000000000000000000000000000000000011b050900000000000000000000000000000000000000010007144ee4859f272017ed17000000000000000000000000000000000000000000000000000000000000000000000000000000002c2fbbd1bbf9dbe30c95586a44d874ec1be71882000000000000000000000000000000000000000000000000000000000000000000000000000000000000000000000000000000000000000000000000000000600000000000000000000000000000000000000000000000000000000000000000000000000000000000000000000000000000000000000000000000000000000000000000000000000000000000000000000000000000000000000082777777777777aec03fd955926dbf81597e66834c0000000000000000000000000000b57800000000000000000000000000000001010000696bf7e90000000000009ce8cd21776198f1b03b57dec8440cd9a8e01039d717aa33123a61c3512273e030cd6e1f69894c06a0b256337c1466d826fa402350470c969afae4e305a6a5d11c00000000000000000000000000000000000000000000000000000000000000000000000000000000000000000000000000000000000000000000000000411cbd07edfc305f7144ecf4d015454c4e5deeeec15db33edf69aaaade6265cc101551bf3843a5385066dc88ee181dac626a1530d65f9778910351d28abda527ca1b00000000000000000000000000000000000000000000000000000000000000","maxFeePerGas":"0x18be7d","maxPriorityFeePerGas":"0x18be7d","nonce":"0x3b782","r":"0x234cb3869582db66f44a2dd3be4e975fdcf09619fe6916f7a82ea9d77f8fc39c","s":"0x3e2dc3be0c296609bb8dd50a5a24a40505c10a11c8be5fe71457f62236f83ca5","to":"0x0000000071727de22e5e9d8baf0edac6f37da032","transactionIndex":"0x37","type":"0x2","v":"0x0","value":"0x0","yParity":"0x0"},{"blockHash":"0xa32cde76caa7f18e822d73d5af983cf253113167e6c24678bb69c1a80e55cef8","blockNumber":"0x8bc0ded","chainId":"0xa","from":"0x7d58bc1f7194c9697f2391e2492da60886fe7545","gas":"0x5afe1","gasPrice":"0x9c072","hash":"0x73deb5f21be3bb9baf1a5b49f60c1b83cee3ea5f1007d810c98a64cc4270f445","input":"0x00030000000000e2253c60280000000000dceb4f1b0f80000085149247691df622eaf1a8bd0cafd40bc45154a90082012c4ed90ca704f4f6f3955169f202ea35365e41b42400000000535541f1aa08416e69dc4d610131099fa2ae7222","nonce":"0xaa1c6","r":"0x1fc620aedae56bfa1b5d3da568f184c0fd1b3d66d6beab5d7b9c588dc3652949","s":"0x7e1b0f7f1921c910153cbd6c9536c90f257298038393487d2fcf0eb5d9bf5253","to":"0x6d066a3d832e6a8b54954e1256b62d495df046a4","transactionIndex":"0x38","type":"0x0","v":"0x38","value":"0x0"},{"accessList":[],"blockHash":"0xa32cde76caa7f18e822d73d5af983cf253113167e6c24678bb69c1a80e55cef8","blockNumber":"0x8bc0ded","chainId":"0xa","from":"0x75feba0b7763ec26c2ba72a65ccb8ebb0dceb8c0","gas":"0x3d0a17","gasPrice":"0x19026","hash":"0xe511b75b75e3c6e849b55dc072f41f107425d925e47cd1601c12486cb3769393","input":"0x000000b20117000000a2030b2c639c533813f4aa9d7837caf62653d097ff85a062ae8a9c5e11aaa026fc2670b0d65ccc8b2858e0b1da86d17b884c4d246e218a67ae3466ad841c9e1028f5f1d5ede59748ffcee5532509976840e00f36880f4240000000010aa062ae8a9c5e11aaa026fc2670b0d65ccc8b28584ed90ca704f4f6f3955169f202ea35365e41b4247f5c764cbc14f9669b88837ca1490cca17c316070f36880f4240000000100aa062ae8a9c5e11aaa026fc2670b0d65ccc8b285836e3c209b373b861c185ecdbb8b2ebdd98587bdb0b2c639c533813f4aa9d7837caf62653d097ff850f404c0f4240000000100b0000000000000000000000000000000002534f335a000000000000000000000000000000000066d14b","maxFeePerGas":"0x1259fd","maxPriorityFeePerGas":"0x186a0","nonce":"0x109a","r":"0xf5049f0ed99d6111d87204b20fe47796f7ecf7f6add31e1706024ae83bbb3a78","s":"0x7d34feb248e271e2195c82bee2681fa66cd817dec3a14fad7a428f835260431d","to":"0xc42e5e42021861cfae40b4ce32784ba9f021959e","transactionIndex":"0x39","type":"0x2","v":"0x1","value":"0x0","yParity":"0x1"},{"accessList":[],"blockHash":"0xa32cde76caa7f18e822d73d5af983cf253113167e6c24678bb69c1a80e55cef8","blockNumber":"0x8bc0ded","chainId":"0xa","from":"0x47fd87c7f3b3dacaf0f3ed24703a8e76903fd1a6","gas":"0x7a1200","gasPrice":"0x19026","hash":"0x871e12b3a1f48b36b0a12374e40877a2b561fb0dcffb16c3ebe5e25881198dcf","input":"0x03000d010100003200010f321014f2354f8e6383ab4e9bf9a3d76aebaf2a3480046adefef60a957c179d0100000bb800000f325f388e121a1f34d9473883aa6215811aac961b7f3e418c078f54ffb6857b0000000bb800000f325f388e121a1f34d947382dc2b4345495d229c30a3992048a1456c75ab54304000d01010001f4000a0f325f388e121a1f34d947387ca877fd1890c36b5448b7d6de1d6d67a564da1c0100000bb800000f325f388e121a1f34d9473883aa6215811aac961b7f3e418c078f54ffb6857b00000001f400000f325f388e121a1f34d94738ff91e1001fdbbe22702fbf95d75a05875efca09600000001f400000f325f388e121a1f34d947381ad2aa6da5419ada7a703e37ea230582f9e88f37","maxFeePerGas":"0x1259fd","maxPriorityFeePerGas":"0x186a0","nonce":"0x1ec7c8","r":"0x5838d64c57092b6e5fa604b771633262fff08a31f0291b7640c6f2f733dd57ba","s":"0x5cf6c3b0f6d426dce2e7fe8a7a6cc79c0483601fbbdee8af73253a2ce813e3b8","to":"0x56e63998921f8ff8ee9d0206606f3a2dfe3b6689","transactionIndex":"0x3a","type":"0x2","v":"0x1","value":"0x0","yParity":"0x1"},{"accessList":[],"blockHash":"0xa32cde76caa7f18e822d73d5af983cf253113167e6c24678bb69c1a80e55cef8","blockNumber":"0x8bc0ded","chainId":"0xa","from":"0x0dc6b4a14b7082e5f17dbe6a22f6422977ac74f1","gas":"0x7a1200","gasPrice":"0x116e9","hash":"0x8feac60be83d7fe97c46e31193e530fcf5abbe90c64fe9e1dcc9a56f07ebf64e","input":"0x03000d010100003200010f321014f2354f8e6383ab4e9bf9a3d76aebaf2a3480046adefef60a957c179d0100000bb800000f325f388e121a1f34d9473883aa6215811aac961b7f3e418c078f54ffb6857b0000000bb800000f325f388e121a1f34d947382dc2b4345495d229c30a3992048a1456c75ab54304000d01010001f4000a0f325f388e121a1f34d947387ca877fd1890c36b5448b7d6de1d6d67a564da1c0100000bb800000f325f388e121a1f34d9473883aa6215811aac961b7f3e418c078f54ffb6857b00000001f400000f325f388e121a1f34d94738ff91e1001fdbbe22702fbf95d75a05875efca09600000001f400000f325f388e121a1f34d947381ad2aa6da5419ada7a703e37ea230582f9e88f37","maxFeePerGas":"0x11e0c0","maxPriorityFeePerGas":"0x10d63","nonce":"0x1ed207","r":"0xf8c45e7a02024099d62f78b254c3e6911acc6e61f55922939ac9663891c35dfc","s":"0x5b2c54b4d1b1ed847a6f084e4cef3fe98c801a47588fbb301baee72813ab6599","to":"0x56e63998921f8ff8ee9d0206606f3a2dfe3b6689","transactionIndex":"0x3b","type":"0x2","v":"0x1","value":"0x0","yParity":"0x1"},{"accessList":[],"blockHash":"0xa32cde76caa7f18e822d73d5af983cf253113167e6c24678bb69c1a80e55cef8","blockNumber":"0x8bc0ded","chainId":"0xa","from":"0x2b9d5ee187892af23ddd328ce0774de81465800d","gas":"0x3d0900","gasPrice":"0xb4bf","hash":"0x59d7545f916762ef6b3f4c19d9e5acd95e9f41a6ca6f4509b938f6a2a1385812","input":"0x02000d000100271000c80f321014f2354f8e6383ab4ec16d584bb42c5fe850ec25a63a59cac3e5c9f78800000001f400000f325f388e121a1f34d947387356bb81a93b3fea00180d7960ef031232057c95","maxFeePerGas":"0x117e96","maxPriorityFeePerGas":"0xab39","nonce":"0x1ea517","r":"0xccdac0f77fdc12e6d576dcc69c8378e2da2f8f6d37bb8e181aaedac634a67797","s":"0x2d65ddaa3fa7d5c3663f142bd64567b29418823755dd5ee85d8419a3d3b93b14","to":"0x56e63998921f8ff8ee9d0206606f3a2dfe3b6689","transactionIndex":"0x3c","type":"0x2","v":"0x1","value":"0x0","yParity":"0x1"},{"accessList":[],"blockHash":"0xa32cde76caa7f18e822d73d5af983cf253113167e6c24678bb69c1a80e55cef8","blockNumber":"0x8bc0ded","chainId":"0xa","from":"0xba2e784abd115ac22333cdf9a0a505d039cff4d5","gas":"0x7a1200","gasPrice":"0xa81f","hash":"0xf6b40b9efae5fc4d33eec1e43531be865c80ad5b7a17b9e1e4c3260503f52946","input":"0x03000d010100003200010f321014f2354f8e6383ab4e9bf9a3d76aebaf2a3480046adefef60a957c179d0100000bb800000f325f388e121a1f34d9473883aa6215811aac961b7f3e418c078f54ffb6857b0000000bb800000f325f388e121a1f34d947382dc2b4345495d229c30a3992048a1456c75ab54304000d01010001f4000a0f325f388e121a1f34d947387ca877fd1890c36b5448b7d6de1d6d67a564da1c0100000bb800000f325f388e121a1f34d9473883aa6215811aac961b7f3e418c078f54ffb6857b00000001f400000f325f388e121a1f34d94738ff91e1001fdbbe22702fbf95d75a05875efca09600000001f400000f325f388e121a1f34d947381ad2aa6da5419ada7a703e37ea230582f9e88f37","maxFeePerGas":"0x1171f6","maxPriorityFeePerGas":"0x9e99","nonce":"0x1ee865","r":"0x489a4acf79a618b15b6e3f8e683792a19db857d9633563dfeb5d6cdb5e5c286b","s":"0x13fd713de1edde91f8c22337589b697930ee14983aecc88ab3893f8b087381f1","to":"0x56e63998921f8ff8ee9d0206606f3a2dfe3b6689","transactionIndex":"0x3d","type":"0x2","v":"0x1","value":"0x0","yParity":"0x1"},{"accessList":[],"blockHash":"0xa32cde76caa7f18e822d73d5af983cf253113167e6c24678bb69c1a80e55cef8","blockNumber":"0x8bc0ded","chainId":"0xa","from":"0x9e3ed65340a913b96ba7b86d5d5876dde623946e","gas":"0x27ac40","gasPrice":"0x987","hash":"0xf3ebf97fc99e45e6a26a0dec48299d68e427195891a71fa44c80df62fe364917","input":"0x83730cc30000000000000000000000000000000000000000000000000000000008bc0ded","maxFeePerGas":"0x1313","maxPriorityFeePerGas":"0x1","nonce":"0x2b451f","r":"0x70ff11ab60a480859c1cb64422be06defb973ff483308f49c888c4a486494249","s":"0x41f02457094f6617e3a26546725fe7eba7488e3c4b7c6500266ac394baaede92","to":"0x481837132126834ec97b35e21c29ee3726a9d294","transactionIndex":"0x3e","type":"0x2","v":"0x0","value":"0x0","yParity":"0x0"},{"accessList":[],"blockHash":"0xa32cde76caa7f18e822d73d5af983cf253113167e6c24678bb69c1a80e55cef8","blockNumber":"0x8bc0ded","chainId":"0xa","from":"0xcde377407d9b819efc0e185aa2d442194c2233e6","gas":"0x27ac40","gasPrice":"0x987","hash":"0x612b953bcc13c2d4711f3337baf1b82c489c1c33180f17c5620469d4659296ec","input":"0x83730cc30000000000000000000000000000000000000000000000000000000008bc0ded","maxFeePerGas":"0x1313","maxPriorityFeePerGas":"0x1","nonce":"0x1ed820","r":"0x9c35e2c40693a564a51c72a62d39cbf84e357cbdfcbf6f258b0211e9fbf33d85","s":"0x2204388f659b9f4ece815664ace2589bcbee6cd9b32c0664e816c326abce73e6","to":"0x4aed348173bbf17dfaeb91598321904c9323d36e","transactionIndex":"0x3f","type":"0x2","v":"0x0","value":"0x0","yParity":"0x0"},{"accessList":[],"blockHash":"0xa32cde76caa7f18e822d73d5af983cf253113167e6c24678bb69c1a80e55cef8","blockNumber":"0x8bc0ded","chainId":"0xa","from":"0x5e9cc770b8feb8800c156b009063cb4939e30caf","gas":"0x27ac40","gasPrice":"0x987","hash":"0xd1c70b6b43d7e87172f6f0edf9d2f1032e03e65433bdddeaef61ce0b362a7b92","input":"0x83730cc30000000000000000000000000000000000000000000000000000000008bc0ded","maxFeePerGas":"0x1313","maxPriorityFeePerGas":"0x1","nonce":"0x29e34b","r":"0x7a7a9c743f43566fd142e8d7afeb28c7aebb7ef78ff307bb44cb924ce52869ef","s":"0x496c641c9b58a1e060daa4fa2e2f20f24011aa2990a9a8dcd8399b9ac65e94e9","to":"0x991ea644546ef0043afab651bd7daa01737d914e","transactionIndex":"0x40","type":"0x2","v":"0x1","value":"0x0","yParity":"0x1"},{"accessList":[],"blockHash":"0xa32cde76caa7f18e822d73d5af983cf253113167e6c24678bb69c1a80e55cef8","blockNumber":"0x8bc0ded","chainId":"0xa","from":"0xee9d52601c011ee9c033b3a8d2776a191217bdcb","gas":"0x1e8480","gasPrice":"0x987","hash":"0x2cb1d257af39a21b16385d7501a8029e134068bcd3d9c1e5c3dbf33d953ba99e","input":"0x6a1f2d74000000000000000000000000000000000000000000000000000000000003640300000000000000000000000000000000000000000000000000000000000000ac00000000000000000000000000000000000000000000000000000000000000000000000000000000000000000000000000000000000000000000000000001f400000000000000000000000000000000000000000000000000003cd87e3b2bf9d000000000000000000000000000000000000000000000000000000000000000a","maxFeePerGas":"0x3b9aca01","maxPriorityFeePerGas":"0x1","nonce":"0x1168a7","r":"0xd9731a5db0dd6cd5ace4548cf0b306dfb5efc194dd13cf88481392af054d5872","s":"0xd3285668c85c0b4ec04c1c15f1310d9e0d3940f3b1ae85fd02a15ae85be2e47","to":"0x682756f7985896f1924c03cd9c55b41319c89c9d","transactionIndex":"0x41","type":"0x2","v":"0x1","value":"0x0","yParity":"0x1"},{"accessList":[],"blockHash":"0xa32cde76caa7f18e822d73d5af983cf253113167e6c24678bb69c1a80e55cef8","blockNumber":"0x8bc0ded","chainId":"0xa","from":"0x063d1a004fe245b47032292c49a683345cb31ffc","gas":"0x1e8480","gasPrice":"0x987","hash":"0xb4d651044b77b95b612afd4ad330407a8a82a107f02a74861f7b3eae648fd6cc","input":"0x6a1f2d74000000000000000000000000000000000000000000000000000000000002fab4000000000000000000000000000000000000000000000000000000000000000000000000000000000000000000000000000000000000000000000000000000000000000000000000000000000000000000000000000000000000000000000000000000000000000000000000000000000000000000000000000385ede1be4135000000000000000000000000000000000000000000000000000000000000000a","maxFeePerGas":"0x3b9aca01","maxPriorityFeePerGas":"0x1","nonce":"0x119789","r":"0x31b313ca38838adff0d83ed5c4507d2335de5c4fb2009d1a55340608c5e7f28f","s":"0x4e1532eae2662b619293d66cd73f257e80e18bb6ced1932d28414d3dc2e94c6f","to":"0x63f8d4000ba6fe867dcb581eaa20a1bc89dcc15e","transactionIndex":"0x42","type":"0x2","v":"0x1","value":"0x0","yParity":"0x1"},{"accessList":[],"blockHash":"0xa32cde76caa7f18e822d73d5af983cf253113167e6c24678bb69c1a80e55cef8","blockNumber":"0x8bc0ded","chainId":"0xa","from":"0x4160f36bf377c0cf98d86397c5f1a3e3bf11c48f","gas":"0x1e8480","gasPrice":"0x987","hash":"0x4f284011a7d9690864e2a31ad56116d7f8441d533ac1979378473efa010e1608","input":"0x6a1f2d74000000000000000000000000000000000000000000000000000000000004608300000000000000000000000000000000000000000000000000000000000000fd00000000000000000000000000000000000000000000000000000000000000000000000000000000000000000000000000000000000000000000000000001f40000000000000000000000000000000000000000000000000007999f8b2954a94000000000000000000000000000000000000000000000000000000000000000a","maxFeePerGas":"0x3b9aca01","maxPriorityFeePerGas":"0x1","nonce":"0xed0cd","r":"0x795b5b7c07f192dc41a3a75a01234bf49bec29d39612c705538f822405b5b14b","s":"0x4a4f55f5b609e47c80fd73bf5867fbdc6a6dea23452ae03a17a99e9d3daf0f3e","to":"0x12904000757d295d27b4599b264a4d0acec46148","transactionIndex":"0x43","type":"0x2","v":"0x1","value":"0x0","yParity":"0x1"}],"transactionsRoot":"0x2311201811de7c9b4b264c6d1f34308048c93bc456964305956ee1115fad59d5","uncles":[],"withdrawals":[],"withdrawalsRoot":"0x3651437835d43781de11cb35cd8676e50181b13a4ef60e6c5ffcf0335125a633"},"id":
        0}

        '
    headers:
      CF-RAY:
      - 9d2949327ff48832-ATL
      Cache-Control:
      - max-age=0, private, must-revalidate
      Connection:
      - keep-alive
      Content-Type:
      - application/json; charset=utf-8
      Date:
      - Mon, 23 Feb 2026 19:56:20 GMT
      Nel:
      - '{"report_to":"cf-nel","success_fraction":0.0,"max_age":604800}'
      Report-To:
      - '{"group":"cf-nel","max_age":604800,"endpoints":[{"url":"https://a.nel.cloudflare.com/report/v4?s=hTsJ41zHmdyIKvFr4bHJUv9C4RYirXi80zW32UU2O7SR4VLSXwNxJoQq1bO4ZxEwC90tOOHiIvsdjh5MFuZcUdo%2FoWLuCanqTt9vG1vkPJ3EHogo"}]}'
      Server:
      - cloudflare
      Transfer-Encoding:
      - chunked
      access-control-allow-credentials:
      - 'true'
      access-control-allow-origin:
      - '*'
      access-control-expose-headers:
      - bypass-429-option,x-ratelimit-reset,x-ratelimit-limit,x-ratelimit-remaining,api-v2-temp-token
      alt-svc:
      - h3=":443"; ma=86400
      bypass-429-option:
      - no_bypass
      cf-cache-status:
      - DYNAMIC
      content-length:
      - '130465'
      strict-transport-security:
      - max-age=31536000; includeSubDomains
      x-ratelimit-limit:
      - '600'
      x-ratelimit-remaining:
      - '598'
      x-ratelimit-reset:
      - '39430'
      x-request-id:
      - b86a7dab850bf049d12b238aad4522e4
    status:
      code: 200
      message: OK
- request:
    body: '{"id": 0, "jsonrpc": "2.0", "method": "eth_getTransactionReceipt", "params":
      ["0x1d3ce58bcea0b090a2ec8d9f9dfcfb4754bcf44a0231376e4cba691379fac9ba"]}'
    headers:
      Accept:
      - '*/*'
      Accept-Encoding:
      - gzip, deflate
      Connection:
      - keep-alive
      Content-Length:
      - '148'
      Content-Type:
      - application/json
      User-Agent:
      - rotki/1.41.4.dev762+ge38047a983
    method: POST
    uri: https://explorer.optimism.io/api/eth-rpc
  response:
    body:
      string: '{"jsonrpc":"2.0","result": {"blockHash":"0xa32cde76caa7f18e822d73d5af983cf253113167e6c24678bb69c1a80e55cef8","blockNumber":"0x8bc0ded","contractAddress":null,"cumulativeGasUsed":"0x7f7075","effectiveGasPrice":"0x19026","from":"0xc736a2e29f4e764f548a76a960595687559d8eac","gasUsed":"0xd187","logs":[{"address":"0x4200000000000000000000000000000000000006","blockHash":"0xa32cde76caa7f18e822d73d5af983cf253113167e6c24678bb69c1a80e55cef8","blockNumber":"0x8bc0ded","data":"0x0000000000000000000000000000000000000000000000000001d80dcfe09533","logIndex":"0xe4","removed":false,"topics":["0x7fcf532c15f0a6db0bd6d0e038bea71d30d808c7d98cb3bf7268a95bf5081b65","0x00000000000000000000000091741863a48f0b29fc0b6d10b3cde2122feb58f7"],"transactionHash":"0x1d3ce58bcea0b090a2ec8d9f9dfcfb4754bcf44a0231376e4cba691379fac9ba","transactionIndex":"0x20"},{"address":"0x91741863a48f0b29fc0b6d10b3cde2122feb58f7","blockHash":"0xa32cde76caa7f18e822d73d5af983cf253113167e6c24678bb69c1a80e55cef8","blockNumber":"0x8bc0ded","data":"0x0000000000000000000000000000000000000000000000000001d80dcfe09533","logIndex":"0xe5","removed":false,"topics":["0x884edad9ce6fa2440d8a54cc123490eb96d2768479d49ff9c7366125a9424364","0x000000000000000000000000c736a2e29f4e764f548a76a960595687559d8eac"],"transactionHash":"0x1d3ce58bcea0b090a2ec8d9f9dfcfb4754bcf44a0231376e4cba691379fac9ba","transactionIndex":"0x20"}],"logsBloom":"0x00000000000000000000000000000000000000000000000000140000000000000000000000000000000000100000000000000000000000000000000000000000000000000000000000040000000000000000000000400000000000000000000000000000000000000000000000000000000000000000040000000000000004001000004000000000000000000000001001000000002000000000000000000000800000000000000000000000000000000000000000000000000000000000000010000000000000000000000002000000000008000000000000000002000000000000000000000000000000000000000000000040000000000000000000000000","status":"0x1","to":"0x91741863a48f0b29fc0b6d10b3cde2122feb58f7","transactionHash":"0x1d3ce58bcea0b090a2ec8d9f9dfcfb4754bcf44a0231376e4cba691379fac9ba","transactionIndex":"0x20","type":"0x2"},"id":
        0}

        '
    headers:
      CF-RAY:
      - 9d294937a81e452d-ATL
      Cache-Control:
      - max-age=0, private, must-revalidate
      Connection:
      - keep-alive
      Content-Type:
      - application/json; charset=utf-8
      Date:
      - Mon, 23 Feb 2026 19:56:21 GMT
      Nel:
      - '{"report_to":"cf-nel","success_fraction":0.0,"max_age":604800}'
      Report-To:
      - '{"group":"cf-nel","max_age":604800,"endpoints":[{"url":"https://a.nel.cloudflare.com/report/v4?s=q%2Bkouv1Gv%2FC4v5lBtJzMLMonU3Hlhqen0dtzbcBoOz0yLazG9HRnql0%2FPIK5Q6irjTAfqw6YkOceYpMMKYlpWvXY%2BEv2rf37ClzPRlcUTU2M%2FWjy"}]}'
      Server:
      - cloudflare
      Transfer-Encoding:
      - chunked
      access-control-allow-credentials:
      - 'true'
      access-control-allow-origin:
      - '*'
      access-control-expose-headers:
      - bypass-429-option,x-ratelimit-reset,x-ratelimit-limit,x-ratelimit-remaining,api-v2-temp-token
      alt-svc:
      - h3=":443"; ma=86400
      bypass-429-option:
      - no_bypass
      cf-cache-status:
      - DYNAMIC
      content-length:
      - '2101'
      strict-transport-security:
      - max-age=31536000; includeSubDomains
      x-ratelimit-limit:
      - '600'
      x-ratelimit-remaining:
      - '597'
      x-ratelimit-reset:
      - '38616'
      x-request-id:
      - fdf2eb87db38169978d0c64b47ad6ba1
    status:
      code: 200
      message: OK
- request:
    body: null
    headers:
      Accept:
      - '*/*'
      Accept-Encoding:
      - gzip, deflate
      Connection:
      - keep-alive
      User-Agent:
      - rotki/1.41.4.dev762+ge38047a983
    method: GET
    uri: https://explorer.optimism.io/api/v2/transactions/0x1d3ce58bcea0b090a2ec8d9f9dfcfb4754bcf44a0231376e4cba691379fac9ba
  response:
    body:
      string: '{"l1_gas_used":"1600","priority_fee":"5363900000","raw_input":"0x3ccfd60b","is_pending_update":false,"op_withdrawals":[],"result":"success","hash":"0x1d3ce58bcea0b090a2ec8d9f9dfcfb4754bcf44a0231376e4cba691379fac9ba","max_fee_per_gas":"103400","revert_reason":null,"confirmation_duration":[0,2.0e3],"transaction_burnt_fee":"130771882","type":2,"token_transfers_overflow":false,"confirmations":1596842,"position":32,"max_priority_fee_per_gas":"100000","transaction_tag":null,"created_contract":null,"value":"0","l1_fee_scalar":"0","from":{"ens_domain_name":"dibtc.eth","hash":"0xC736A2e29f4E764f548A76A960595687559d8Eac","implementations":[],"is_contract":false,"is_scam":false,"is_verified":false,"metadata":null,"name":null,"private_tags":[],"proxy_type":null,"public_tags":[],"reputation":"ok","watchlist_names":[]},"gas_used":"53639","status":"ok","to":{"ens_domain_name":null,"hash":"0x91741863A48f0B29fC0B6D10b3cdE2122feB58f7","implementations":[],"is_contract":true,"is_scam":false,"is_verified":true,"metadata":{"tags":[{"meta":{"tagIcon
        ":"https://blockscout-icons.s3.us-east-1.amazonaws.com/OLI_tag_logo.svg","textColor":"#C163D4","tooltipAttribution":"https://www.openlabelsinitiative.org?utm_source=blockscout","tooltipAttributionIcon":"https://blockscout-icons.s3.us-east-1.amazonaws.com/OLI_tag_logo.svg","tooltipDescription":"Provided
        by OLI"},"name":"WooWithdrawManager","ordinal":0,"slug":"woowithdrawmanager","tagType":"name"}]},"name":"WooWithdrawManager","private_tags":[],"proxy_type":null,"public_tags":[],"reputation":"ok","watchlist_names":[]},"authorization_list":[],"l1_fee":"461360658","method":"withdraw","fee":{"type":"actual","value":"5956032540"},"actions":[],"gas_limit":"95798","gas_price":"102438","decoded_input":{"method_call":"withdraw()","method_id":"3ccfd60b","parameters":[]},"l1_gas_price":"33211405","token_transfers":[{"block_hash":"0xa32cde76caa7f18e822d73d5af983cf253113167e6c24678bb69c1a80e55cef8","block_number":146542061,"from":{"ens_domain_name":null,"hash":"0x91741863A48f0B29fC0B6D10b3cdE2122feB58f7","implementations":[],"is_contract":true,"is_scam":false,"is_verified":true,"metadata":{"tags":[{"meta":{"tagIcon
        ":"https://blockscout-icons.s3.us-east-1.amazonaws.com/OLI_tag_logo.svg","textColor":"#C163D4","tooltipAttribution":"https://www.openlabelsinitiative.org?utm_source=blockscout","tooltipAttributionIcon":"https://blockscout-icons.s3.us-east-1.amazonaws.com/OLI_tag_logo.svg","tooltipDescription":"Provided
        by OLI"},"name":"WooWithdrawManager","ordinal":0,"slug":"woowithdrawmanager","tagType":"name"}]},"name":"WooWithdrawManager","private_tags":[],"proxy_type":null,"public_tags":[],"reputation":"ok","watchlist_names":[]},"log_index":228,"method":null,"timestamp":null,"to":{"ens_domain_name":null,"hash":"0x0000000000000000000000000000000000000000","implementations":[],"is_contract":false,"is_scam":false,"is_verified":false,"metadata":{"tags":[{"meta":{},"name":"Null:
        0x000...000","ordinal":10,"slug":"null-0x000000","tagType":"name"},{"meta":{},"name":"Metamask
        User","ordinal":0,"slug":"metamask-user","tagType":"generic"},{"meta":{},"name":"Imtoken
        User","ordinal":0,"slug":"imtoken-user","tagType":"generic"},{"meta":{},"name":"Miner","ordinal":0,"slug":"miner","tagType":"generic"},{"meta":{},"name":"Burn","ordinal":0,"slug":"burn","tagType":"generic"},{"meta":{"alertStatus":"info","data":"This
        address is commonly used by projects to burn tokens (reducing total supply)
        or mint tokens (increasing total supply)."},"name":"note_0","ordinal":0,"slug":"note0","tagType":"note"},{"meta":{},"name":"Null","ordinal":0,"slug":"null","tagType":"protocol"}]},"name":null,"private_tags":[],"proxy_type":null,"public_tags":[],"reputation":"ok","watchlist_names":[]},"token":{"address_hash":"0x4200000000000000000000000000000000000006","circulating_market_cap":"36766735.68048349","decimals":"18","exchange_rate":"1840.49","holders_count":"300597","icon_url":"https://assets.coingecko.com/coins/images/39715/small/WETH.PNG?1723731805","name":"L2
        Standard Bridged WETH (Optimism)","reputation":"ok","symbol":"WETH","total_supply":"19860913379496631435640","type":"ERC-20","volume_24h":"10691603.916176137"},"token_type":"ERC-20","total":{"decimals":"18","value":"519028810487091"},"transaction_hash":"0x1d3ce58bcea0b090a2ec8d9f9dfcfb4754bcf44a0231376e4cba691379fac9ba","type":"token_burning"}],"base_fee_per_gas":"2438","timestamp":"2026-01-17T20:48:19.000000Z","nonce":605,"historic_exchange_rate":"3309.35","transaction_types":["contract_call","token_transfer"],"exchange_rate":"1854.27","block_number":146542061,"has_error_in_internal_transactions":false,"da_footprint_gas_scalar":"400"}'
    headers:
      CF-RAY:
      - 9d29493a783a349c-ATL
      Cache-Control:
      - max-age=0, private, must-revalidate
      Connection:
      - keep-alive
      Content-Type:
      - application/json; charset=utf-8
      Date:
      - Mon, 23 Feb 2026 19:56:22 GMT
      Nel:
      - '{"report_to":"cf-nel","success_fraction":0.0,"max_age":604800}'
      Report-To:
      - '{"group":"cf-nel","max_age":604800,"endpoints":[{"url":"https://a.nel.cloudflare.com/report/v4?s=wBupj1%2BY7QVxfb%2FV9srBOpHGCsC5iQe74A5miRTWuc6%2FFoipprADYZWQF3JdZhD9JULSPdGtTenvyYwUKa69wWCoKMRc8yevfZnUFPw7COfJucR%2F"}]}'
      Server:
      - cloudflare
      Transfer-Encoding:
      - chunked
      access-control-allow-credentials:
      - 'true'
      access-control-allow-origin:
      - '*'
      access-control-expose-headers:
      - bypass-429-option,x-ratelimit-reset,x-ratelimit-limit,x-ratelimit-remaining,api-v2-temp-token
      alt-svc:
      - h3=":443"; ma=86400
      bypass-429-option:
      - temporary_token
      cf-cache-status:
      - DYNAMIC
      content-length:
      - '4652'
      strict-transport-security:
      - max-age=31536000; includeSubDomains
      x-ratelimit-limit:
      - '600'
      x-ratelimit-remaining:
      - '596'
      x-ratelimit-reset:
      - '38161'
      x-request-id:
      - 1a489de50820941f86cfb94f061df018
    status:
      code: 200
      message: OK
- request:
    body: null
    headers:
      Accept:
      - '*/*'
      Accept-Encoding:
      - gzip, deflate
      Connection:
      - keep-alive
      User-Agent:
      - rotki/1.41.4.dev762+ge38047a983
    method: GET
    uri: https://explorer.optimism.io/api?action=txlistinternal&module=account&sort=asc&txhash=0x1d3ce58bcea0b090a2ec8d9f9dfcfb4754bcf44a0231376e4cba691379fac9ba
  response:
    body:
      string: '{"message":"OK","result":[{"blockNumber":"146542061","callType":"call","contractAddress":"","errCode":"","from":"0x4200000000000000000000000000000000000006","gas":"2300","gasUsed":"55","index":"2","input":"0x","isError":"0","timeStamp":"1768682899","to":"0x91741863a48f0b29fc0b6d10b3cde2122feb58f7","transactionHash":"0x1d3ce58bcea0b090a2ec8d9f9dfcfb4754bcf44a0231376e4cba691379fac9ba","type":"call","value":"519028810487091"},{"blockNumber":"146542061","callType":"call","contractAddress":"","errCode":"","from":"0x91741863a48f0b29fc0b6d10b3cde2122feb58f7","gas":"35678","gasUsed":"0","index":"3","input":"0x","isError":"0","timeStamp":"1768682899","to":"0xc736a2e29f4e764f548a76a960595687559d8eac","transactionHash":"0x1d3ce58bcea0b090a2ec8d9f9dfcfb4754bcf44a0231376e4cba691379fac9ba","type":"call","value":"519028810487091"}],"status":"1"}'
    headers:
      CF-RAY:
      - 9d2949420b46672d-ATL
      Cache-Control:
      - max-age=0, private, must-revalidate
      Connection:
      - keep-alive
      Content-Type:
      - application/json; charset=utf-8
      Date:
      - Mon, 23 Feb 2026 19:56:23 GMT
      Nel:
      - '{"report_to":"cf-nel","success_fraction":0.0,"max_age":604800}'
      Report-To:
      - '{"group":"cf-nel","max_age":604800,"endpoints":[{"url":"https://a.nel.cloudflare.com/report/v4?s=NL%2FfQMJOYSBRQfCQcypAPBU5kaR1snsweCU%2BTfazvi397I2LjDi8l0gs2EchM5aVTPy%2BTrM14VNuOR%2BT9lT2noXU3gWujJZvDazNKoChiwMCJNIh"}]}'
      Server:
      - cloudflare
      Transfer-Encoding:
      - chunked
      access-control-allow-credentials:
      - 'true'
      access-control-allow-origin:
      - '*'
      access-control-expose-headers:
      - bypass-429-option,x-ratelimit-reset,x-ratelimit-limit,x-ratelimit-remaining,api-v2-temp-token
      alt-svc:
      - h3=":443"; ma=86400
      bypass-429-option:
      - no_bypass
      cf-cache-status:
      - DYNAMIC
      content-length:
      - '842'
      strict-transport-security:
      - max-age=31536000; includeSubDomains
      x-ratelimit-limit:
      - '600'
      x-ratelimit-remaining:
      - '595'
      x-ratelimit-reset:
      - '37219'
      x-request-id:
      - 2b323591aa6093dd9b8cbed0d7cd40c2
    status:
      code: 200
      message: OK
version: 1
