interactions:
- request:
    body: '{"id": 0, "jsonrpc": "2.0", "method": "eth_getTransactionByHash", "params":
      ["0x50511c1bd6d67fcc38cfca49b3f129a3a9f941530046655b871d96c12b221206"]}'
    headers:
      Accept:
      - '*/*'
      Accept-Encoding:
      - gzip, deflate
      Connection:
      - keep-alive
      Content-Length:
      - '147'
      Content-Type:
      - application/json
      User-Agent:
      - rotki/1.41.4.dev762+ge38047a983
    method: POST
    uri: https://explorer.optimism.io/api/eth-rpc
  response:
    body:
      string: '{"jsonrpc":"2.0","result": {"accessList":[],"blockHash":"0x9d63463c3b9af72f1569cbfb7a665a9d29e808dc28d96d2bf244d552a96fc857","blockNumber":"0x8d3b963","chainId":"0xa","from":"0x0af640d56210545b52eb119a10ace8b463ca2614","gas":"0x37dbe","gasPrice":"0xf4999","hash":"0x50511c1bd6d67fcc38cfca49b3f129a3a9f941530046655b871d96c12b221206","input":"0x441a3e7000000000000000000000000000000000000000000000000000000000000000030000000000000000000000000000000000000000000000000000000005d99dfc","maxFeePerGas":"0xf4999","maxPriorityFeePerGas":"0xf4999","nonce":"0x279","r":"0x843372d9d1bccecb3654516fcec1942ac66cac091075c4e6780162584f2f454f","s":"0x64d6818454cf879fe38a480cfa9fae09da8263137a4b89bc283d7b536de1c4ab","to":"0xc0f8c29e3a9a7650a3f642e467d70087819926d6","transactionIndex":"0x2","type":"0x2","v":"0x1","value":"0x0","yParity":"0x1"},"id":
        0}

        '
    headers:
      CF-RAY:
      - 9d3186114eae8bbc-ATL
      Cache-Control:
      - max-age=0, private, must-revalidate
      Connection:
      - keep-alive
      Content-Type:
      - application/json; charset=utf-8
      Date:
      - Tue, 24 Feb 2026 19:55:59 GMT
      Nel:
      - '{"report_to":"cf-nel","success_fraction":0.0,"max_age":604800}'
      Report-To:
      - '{"group":"cf-nel","max_age":604800,"endpoints":[{"url":"https://a.nel.cloudflare.com/report/v4?s=JxLrOdciEN5pcvOqvdYNrD%2FUR89HDEKVAi983pmJptp5sbZqSqcke1Wa7xTAvuPf7Lup0cuWzPHf%2BeIfeQj8zEEkjFaZVE6T4E7DmDTHaMugxg%3D%3D"}]}'
      Server:
      - cloudflare
      Transfer-Encoding:
      - chunked
      access-control-allow-credentials:
      - 'true'
      access-control-allow-origin:
      - '*'
      access-control-expose-headers:
      - bypass-429-option,x-ratelimit-reset,x-ratelimit-limit,x-ratelimit-remaining,api-v2-temp-token
      alt-svc:
      - h3=":443"; ma=86400
      bypass-429-option:
      - no_bypass
      cf-cache-status:
      - DYNAMIC
      content-length:
      - '839'
      strict-transport-security:
      - max-age=31536000; includeSubDomains
      x-ratelimit-limit:
      - '600'
      x-ratelimit-remaining:
      - '599'
      x-ratelimit-reset:
      - '102'
      x-request-id:
      - b04a81ebf66fc7bc76ddaab7082e83dc
    status:
      code: 200
      message: OK
- request:
    body: '{"id": 0, "jsonrpc": "2.0", "method": "eth_getBlockByNumber", "params":
      ["0x8d3b963", true]}'
    headers:
      Accept:
      - '*/*'
      Accept-Encoding:
      - gzip, deflate
      Connection:
      - keep-alive
      Content-Length:
      - '92'
      Content-Type:
      - application/json
      User-Agent:
      - rotki/1.41.4.dev762+ge38047a983
    method: POST
    uri: https://explorer.optimism.io/api/eth-rpc
  response:
    body:
      string: '{"jsonrpc":"2.0","result": {"baseFeePerGas":"0x75a","blobGasUsed":"0x24a3b0","difficulty":"0x0","excessBlobGas":"0x0","extraData":"0x01000000fa000000020000000000000000","gasLimit":"0x2625a00","gasUsed":"0x11e3167","hash":"0x9d63463c3b9af72f1569cbfb7a665a9d29e808dc28d96d2bf244d552a96fc857","logsBloom":"0x50543280118020112000108302004014032028aa4000281018064098459bbba0250a00003044020091041210070433842044405046006e00a7c8000240208041000002000208a8c26400050c0208120020c0840b8000401008400021200160095000004802440100b0c000c105221842058000020d1dc0001120841b0800042820a004430c00041058a04b08c0489022c900b10010210000000180040a8118318ec02000ac40382001100004001050802000000141da200c48a74151000050840030181a4800000120002a858c4340809c8404108281032c4000020002006400011c0c0940b40202680000000000a12008880184d18000080c02410000030c80","miner":"0x4200000000000000000000000000000000000011","mixHash":"0xe9c5dd1d5a0f6b65cd20e2a98ac780bb70b71427584c366ecb9c981d5a41219d","nonce":"0x0000000000000000","number":"0x8d3b963","parentBeaconBlockRoot":"0xa148869d20f3a30f7b6d3d68c53d35cfa050ca0402a38caccfd8864870878a52","parentHash":"0x747dc33ca6c37cac0472464c690ee1b7e842ba0f6fdb821fc5e2255480e4cf32","receiptsRoot":"0x098ac906a7b0fb8cc91c1a17c2a1ec292d5e154911829f08c5f12e0aae73605f","requestsHash":"0xe3b0c44298fc1c149afbf4c8996fb92427ae41e4649b934ca495991b7852b855","sha3Uncles":"0x1dcc4de8dec75d7aab85b567b6ccd41ad312451b948a7413f0a142fd40d49347","size":"0x2c6e","stateRoot":"0xacc869012f4791756a046aff02ddc1b8bb5e4fc3ee1c0891f447810312d6385a","timestamp":"0x699b4c7f","transactions":[{"blockHash":"0x9d63463c3b9af72f1569cbfb7a665a9d29e808dc28d96d2bf244d552a96fc857","blockNumber":"0x8d3b963","depositReceiptVersion":"0x1","from":"0xdeaddeaddeaddeaddeaddeaddeaddeaddead0001","gas":"0xf4240","gasPrice":"0x0","hash":"0xc995302a73c6625b430b0229c20c7041a4b6d51be5e8adbf2d303beca994afd8","input":"0x3db6be2b0000146b000f79c5000000000000000500000000699b4c2f0000000001760eba00000000000000000000000000000000000000000000000000000000025b08ed0000000000000000000000000000000000000000000000000000000000241df07e7a6c425b3eabc9f4be1772869f4ee0edad9c523d4a686aef26873e49cb8f5d0000000000000000000000006887246668a3b87f54deb3b94ba47a6f63f329850000000000000000000000000190","mint":"0x0","nonce":"0x28df6ef","r":"0x0","s":"0x0","sourceHash":"0x62c00dbdc2985c7b79778dcb1c04473697578287b90b0582d74fa82de4d5ef5c","to":"0x4200000000000000000000000000000000000015","transactionIndex":"0x0","type":"0x7e","v":"0x0","value":"0x0","yParity":"0x0"},{"accessList":[],"blockHash":"0x9d63463c3b9af72f1569cbfb7a665a9d29e808dc28d96d2bf244d552a96fc857","blockNumber":"0x8d3b963","chainId":"0xa","from":"0xb845ba45be71e908cd71552f6c0fc4bf41e1a4ef","gas":"0x1e8480","gasPrice":"0x2dce1a","hash":"0x1097a5eb8b7547fc6caba113c45344027316c3b50e4df5a487c9b1cfc6a52e70","input":"0x00000001","maxFeePerGas":"0x1dfb2bc0","maxPriorityFeePerGas":"0x2dc6c0","nonce":"0x216e3e","r":"0xb52ff938cae46e22cedf3c406d5836971578256755b6323c6c768c0a29ed7728","s":"0x17dfcb9d072f2868941cd7aece975ad8b2ac502538dac35228a442f2da6484fe","to":"0x63f8d4000ba6fe867dcb581eaa20a1bc89dcc15e","transactionIndex":"0x1","type":"0x2","v":"0x0","value":"0x0","yParity":"0x0"},{"accessList":[],"blockHash":"0x9d63463c3b9af72f1569cbfb7a665a9d29e808dc28d96d2bf244d552a96fc857","blockNumber":"0x8d3b963","chainId":"0xa","from":"0x0af640d56210545b52eb119a10ace8b463ca2614","gas":"0x37dbe","gasPrice":"0xf4999","hash":"0x50511c1bd6d67fcc38cfca49b3f129a3a9f941530046655b871d96c12b221206","input":"0x441a3e7000000000000000000000000000000000000000000000000000000000000000030000000000000000000000000000000000000000000000000000000005d99dfc","maxFeePerGas":"0xf4999","maxPriorityFeePerGas":"0xf4999","nonce":"0x279","r":"0x843372d9d1bccecb3654516fcec1942ac66cac091075c4e6780162584f2f454f","s":"0x64d6818454cf879fe38a480cfa9fae09da8263137a4b89bc283d7b536de1c4ab","to":"0xc0f8c29e3a9a7650a3f642e467d70087819926d6","transactionIndex":"0x2","type":"0x2","v":"0x1","value":"0x0","yParity":"0x1"},{"accessList":[],"blockHash":"0x9d63463c3b9af72f1569cbfb7a665a9d29e808dc28d96d2bf244d552a96fc857","blockNumber":"0x8d3b963","chainId":"0xa","from":"0x893150406fdbaf4834315edb24a9bf1136b5fe42","gas":"0x1e8480","gasPrice":"0x18fee","hash":"0xc2c8c369a8cd1424a31c126baacf49dd4d15f3d435fc794b215f9fc0ad852712","input":"0x00000001","maxFeePerGas":"0x1dceed94","maxPriorityFeePerGas":"0x18894","nonce":"0x1bfb56","r":"0xca693618a58d2cef187babf0fc330951deff53bc6f3065d6b580297abb13b2b4","s":"0xd6d1e46fbc5006068f92d13bfbba2fdc5b4514e4988df2393fac8b960a8b0ce","to":"0x12904000757d295d27b4599b264a4d0acec46148","transactionIndex":"0x3","type":"0x2","v":"0x0","value":"0x0","yParity":"0x0"},{"accessList":[],"blockHash":"0x9d63463c3b9af72f1569cbfb7a665a9d29e808dc28d96d2bf244d552a96fc857","blockNumber":"0x8d3b963","chainId":"0xa","from":"0x9c6a4e0221dae3bfc6274de38368479486425c01","gas":"0x1e8480","gasPrice":"0x18fee","hash":"0xa1670c6f43c945afeebe4ecf4d9dc57219ffa6743d828f48d0cc40f0c5d0d0ea","input":"0x00000001","maxFeePerGas":"0x1dceed94","maxPriorityFeePerGas":"0x18894","nonce":"0x21bf7b","r":"0xbac45c307bec254087e8cb3110511fc594c7183b5605eea54e5ac3f3ff2a3fa1","s":"0x72af4fcc467d0141e45c1813aac06f06e3fb36057f85dcb8013d056d431a6034","to":"0x682756f7985896f1924c03cd9c55b41319c89c9d","transactionIndex":"0x4","type":"0x2","v":"0x0","value":"0x0","yParity":"0x0"},{"accessList":[],"blockHash":"0x9d63463c3b9af72f1569cbfb7a665a9d29e808dc28d96d2bf244d552a96fc857","blockNumber":"0x8d3b963","chainId":"0xa","from":"0x29e6b004a70de9dd0d700fdeb42e99911096ca2b","gas":"0xf4240","gasPrice":"0x18dfa","hash":"0x6f8ea89960dd9de84b547de752da0ba5b188f2ac1b5fb144c5bb6f34a4175355","input":"0x80","maxFeePerGas":"0x3b9aca00","maxPriorityFeePerGas":"0x186a0","nonce":"0x1296d","r":"0x6f42328de6f09b8e95d5a987326022d682ce0b08b2fd5ec97a5e3c26c7b6d8d6","s":"0x77f10a7bd49fd1a96f3581303d6b3d57f831f67af88218285a8f6e600805ccb0","to":"0xbbdd22eb1f0cb54c10a169c5e3b804d2fbc65201","transactionIndex":"0x5","type":"0x2","v":"0x0","value":"0x0","yParity":"0x0"},{"accessList":[],"blockHash":"0x9d63463c3b9af72f1569cbfb7a665a9d29e808dc28d96d2bf244d552a96fc857","blockNumber":"0x8d3b963","chainId":"0xa","from":"0xdb49dc858fea0d474a2e4bf2164a224b672d8118","gas":"0x1e8480","gasPrice":"0x557a","hash":"0x10a1ea277a0f55a1e96732c044db97eeda2ca3b7dee22536cfeb09c3546ae729","input":"0xa126d6010000000000000000000000000000000000000000000000000000000008d3b966","maxFeePerGas":"0x11e1a300","maxPriorityFeePerGas":"0x4e20","nonce":"0x2b398","r":"0x6359155525a91c5b64ea3229628e1451b2cf08d92446f28e6253bae6a01bcb81","s":"0x6926b6c428ec7c1fcaf2df91ef74316638c1ef385357b9546a76faed22492080","to":"0x896edf38f53c10a7ddb7d73ee82e2ce8f609b0bb","transactionIndex":"0x6","type":"0x2","v":"0x0","value":"0x0","yParity":"0x0"},{"accessList":[],"blockHash":"0x9d63463c3b9af72f1569cbfb7a665a9d29e808dc28d96d2bf244d552a96fc857","blockNumber":"0x8d3b963","chainId":"0xa","from":"0x7eb63e28ca5541b35d1dd5a8000e2073ba2d8ec8","gas":"0x1e8480","gasPrice":"0x557a","hash":"0x7cebb43f41701c4c16ba4a1d2f20ae9b6e2bfbdadcd986718bd0e48877685d6f","input":"0xa126d6010000000000000000000000000000000000000000000000000000000008d3b966","maxFeePerGas":"0x11e1a300","maxPriorityFeePerGas":"0x4e20","nonce":"0x2f9b39","r":"0xc57bd8b7e690ef3a0c2a8b0558539427b540fa1bc96bf0bed40fd4204cf61392","s":"0x43d3414f2a4edac7ca399e03ebdad5126b674da383431d7effd6f9188f5dd1d7","to":"0x2008e0c258a16040f3f451262e853c9f69828b98","transactionIndex":"0x7","type":"0x2","v":"0x0","value":"0x0","yParity":"0x0"},{"accessList":[],"blockHash":"0x9d63463c3b9af72f1569cbfb7a665a9d29e808dc28d96d2bf244d552a96fc857","blockNumber":"0x8d3b963","chainId":"0xa","from":"0x9e3ed65340a913b96ba7b86d5d5876dde623946e","gas":"0x2dc6c0","gasPrice":"0xcaaa","hash":"0xb641a5b913e96e07a529ae0b48780e206becce913a9a33f8be1ff1acd74f0b28","input":"0xa126d6010000000000000000000000000000000000000000000000000000000008d3b966","maxFeePerGas":"0x11e1a300","maxPriorityFeePerGas":"0xc350","nonce":"0x57e29d","r":"0xbef224dc4549c965d0883ce8db6aab1455654ded13543d850f61542a1f88e14a","s":"0x496d318ad3947649c196a8fe140768607675696289f67ce8ae6fa7ba69039f29","to":"0xd9f7bd6033d34caf61143a460d7f79c4384aae97","transactionIndex":"0x8","type":"0x2","v":"0x1","value":"0x0","yParity":"0x1"},{"accessList":[],"blockHash":"0x9d63463c3b9af72f1569cbfb7a665a9d29e808dc28d96d2bf244d552a96fc857","blockNumber":"0x8d3b963","chainId":"0xa","from":"0x38ab43d5e326d058b815c37d71e47c9be5f248da","gas":"0x3d0900","gasPrice":"0x6d09","hash":"0x65ba2d5e3037360d7c8454b981fa9d54be54ca171b09517dfd5815722eb08a8e","input":"0x02000d00000001f400000f321014f2354f8e6383ab4e8e7eee044829799c4bcceb46da5cfade78966c70000100271000c80f325f388e121a1f34d947383d90b75000048103d69a4ff6cd32197d7a8bb058","maxFeePerGas":"0x1ef8e3","maxPriorityFeePerGas":"0x65af","nonce":"0x28b95c","r":"0xed11f31d31a23e62f939ae1e8f9169928894cda0084f0b4838fd80a9cf5e0e2c","s":"0x2924c844ee1d55d9a42c5a675719937215d6b652843b394b8d5f9d3622466f94","to":"0x56e63998921f8ff8ee9d0206606f3a2dfe3b6689","transactionIndex":"0x9","type":"0x2","v":"0x1","value":"0x0","yParity":"0x1"},{"accessList":[],"blockHash":"0x9d63463c3b9af72f1569cbfb7a665a9d29e808dc28d96d2bf244d552a96fc857","blockNumber":"0x8d3b963","chainId":"0xa","from":"0x6ebd5cd5f6958816c726d955d51799e2257f962e","gas":"0x3d0900","gasPrice":"0x6d09","hash":"0xd45b9e9577124c9cae2c04b574664d0a377c759981cb2a42cbee0ba266b40f1c","input":"0x02000d00000001f400000f321014f2354f8e6383ab4e8e7eee044829799c4bcceb46da5cfade78966c70000100271000c80f325f388e121a1f34d947383d90b75000048103d69a4ff6cd32197d7a8bb058","maxFeePerGas":"0x1ef8e3","maxPriorityFeePerGas":"0x65af","nonce":"0x273cee","r":"0xc3ab2e51310f07d8ab7bb9abce22c67d0357fe109096f542d373343b1e0c807f","s":"0x3f7cb06c4a6918393f3cd3a49f169b8131fcd22982670a20e4ef50213f5cd397","to":"0x56e63998921f8ff8ee9d0206606f3a2dfe3b6689","transactionIndex":"0xa","type":"0x2","v":"0x0","value":"0x0","yParity":"0x0"},{"accessList":[],"blockHash":"0x9d63463c3b9af72f1569cbfb7a665a9d29e808dc28d96d2bf244d552a96fc857","blockNumber":"0x8d3b963","chainId":"0xa","from":"0xcde377407d9b819efc0e185aa2d442194c2233e6","gas":"0x1e8480","gasPrice":"0x557a","hash":"0xe1c1de0986f6edbbf4a86839ef2c3f03c36a5dc9c907810a254d9d5e0476e9f7","input":"0xa126d6010000000000000000000000000000000000000000000000000000000008d3b966","maxFeePerGas":"0x11e1a300","maxPriorityFeePerGas":"0x4e20","nonce":"0x49efa0","r":"0xca00f6c344093cf33fa210b522f3c189d3cffe0101c1f22a5b4c1215dea2119b","s":"0x2e8d06f0ddef80fb41ec8af6dc2beb1409f74afa505b4bd76d8827a833f72a9c","to":"0x4aed348173bbf17dfaeb91598321904c9323d36e","transactionIndex":"0xb","type":"0x2","v":"0x0","value":"0x0","yParity":"0x0"},{"accessList":[],"blockHash":"0x9d63463c3b9af72f1569cbfb7a665a9d29e808dc28d96d2bf244d552a96fc857","blockNumber":"0x8d3b963","chainId":"0xa","from":"0xffd12b32d000617551681973911fd3ad49b89294","gas":"0x1e8480","gasPrice":"0x557a","hash":"0x547b2c464d8cc0cd10195ef18caeef9df786fe04616d34911d5193d1c5bd668e","input":"0xa126d6010000000000000000000000000000000000000000000000000000000008d3b966","maxFeePerGas":"0x11e1a300","maxPriorityFeePerGas":"0x4e20","nonce":"0x2af49","r":"0xc581b0bdd2e9858587747896eb7dcc5bf8fc63896356842c6a579651d9a40e8e","s":"0x5883107b678bb077deee3a6cb5936721c5b661808f3fccf3048ffafaf7c04b6a","to":"0x1c43229d1a6006ae61d7071f1c6a57d8846b0047","transactionIndex":"0xc","type":"0x2","v":"0x1","value":"0x0","yParity":"0x1"},{"accessList":[],"blockHash":"0x9d63463c3b9af72f1569cbfb7a665a9d29e808dc28d96d2bf244d552a96fc857","blockNumber":"0x8d3b963","chainId":"0xa","from":"0xb74dcd28032d9fec936c0efb7e352517caeb9fa6","gas":"0x3d0900","gasPrice":"0x764","hash":"0x5f215ea1967cddb664d7ccd78287ba260bef4d6a56c02a7ba68705378aac45e0","input":"0x000000000001f4000bb8000164000bb80001f4000139000bb80027100001900001900001f400019b000bb80001f400003400006400005a000064000b09000064","maxFeePerGas":"0x2faf08a","maxPriorityFeePerGas":"0xa","nonce":"0x5f856","r":"0xeea8eb00809125fa1f45fc6c7d30125d0aae8750c1af6d6bbf66f530d79e2bb4","s":"0x529a7bfbe15d7afa21638c1c098b574561791829ec580bb1577e13777a2eb66f","to":"0x32a56e03abee3b88a478ef5fddc8c1dd42f9990d","transactionIndex":"0xd","type":"0x2","v":"0x1","value":"0x0","yParity":"0x1"},{"accessList":[],"blockHash":"0x9d63463c3b9af72f1569cbfb7a665a9d29e808dc28d96d2bf244d552a96fc857","blockNumber":"0x8d3b963","chainId":"0xa","from":"0x0dc6b4a14b7082e5f17dbe6a22f6422977ac74f1","gas":"0x3d0900","gasPrice":"0x6d09","hash":"0xbf7589ba49ac4dbb56773db49f04b418274f4b81402535abca277b9451e4ea91","input":"0x02000d00000001f400000f321014f2354f8e6383ab4e8e7eee044829799c4bcceb46da5cfade78966c70000100271000c80f325f388e121a1f34d947383d90b75000048103d69a4ff6cd32197d7a8bb058","maxFeePerGas":"0x1ef8e3","maxPriorityFeePerGas":"0x65af","nonce":"0x26f046","r":"0x62700e8c4ec852c237cc2f0ad876b3a2d91ca2fd9c58267ba54b7023d586fe7f","s":"0x7cda98a2bd5692ddf49873a77f04d2660d5829f53fc55375cd82d90ef3d7dc14","to":"0x56e63998921f8ff8ee9d0206606f3a2dfe3b6689","transactionIndex":"0xe","type":"0x2","v":"0x1","value":"0x0","yParity":"0x1"},{"accessList":[],"blockHash":"0x9d63463c3b9af72f1569cbfb7a665a9d29e808dc28d96d2bf244d552a96fc857","blockNumber":"0x8d3b963","chainId":"0xa","from":"0x6afc898d79c209c41fa4409a436176ff82c7fcd4","gas":"0x3d0900","gasPrice":"0x764","hash":"0x6c4de78012235b120381e6c3e43d163f3479f50eea3b1f86c62019232a18a97c","input":"0x000000000001f4000bb8000164000bb80001f4000139000bb80027100001900001900001f400019b000bb80001f400003400006400005a000064000b09000064","maxFeePerGas":"0x2faf08a","maxPriorityFeePerGas":"0xa","nonce":"0x60077","r":"0x77d769d376d1cb4f007e0dcf2a432e311ef1c7556d7410b52c5a196ed79e3338","s":"0x3413336c96f7d2050c116396b1a91e30704701fecefcc00e46638170056bc89c","to":"0x32a56e03abee3b88a478ef5fddc8c1dd42f9990d","transactionIndex":"0xf","type":"0x2","v":"0x0","value":"0x0","yParity":"0x0"},{"blockHash":"0x9d63463c3b9af72f1569cbfb7a665a9d29e808dc28d96d2bf244d552a96fc857","blockNumber":"0x8d3b963","chainId":"0xa","from":"0x283a9550c29d1aa2273fcf1e44ae4dedfeb30fa5","gas":"0xd22a","gasPrice":"0x125852","hash":"0xe779d4153cd521fc58ff827f4d252148fa394a876120f6ef754853984557c6a2","input":"0x783a112b00000000000000000000000000000000000000000000000000000000001f9fa30000000000000000000000000000000000000000000000000000000000000001","nonce":"0x18a27","r":"0xd07bbe33fe0550b210f357c86ee7c2c7da374db9b0e8ac321e6828d2195506eb","s":"0x74acc6c17d3632c8faa142b53ee6172c8a82a19468be75225b9a9432104f2089","to":"0x00000000fcce7f938e7ae6d3c335bd6a1a7c593d","transactionIndex":"0x10","type":"0x0","v":"0x38","value":"0x5d41913b909b"},{"accessList":[],"blockHash":"0x9d63463c3b9af72f1569cbfb7a665a9d29e808dc28d96d2bf244d552a96fc857","blockNumber":"0x8d3b963","chainId":"0xa","from":"0xecb55e5ccfc128a1eca67e48dbe2f299e4366d0e","gas":"0xb71b00","gasPrice":"0x7935d","hash":"0xefd7cb8f3786bf9047e0613ea0c445c3e063a323e71e42478c92330725c88f21","input":"0x02000d01010001f4000a0f321014f2354f8e6383ab4eaf2165834e30f2cad6ebb7d6de1d6d67a564da1c010100019a00640f325f388e121a1f34d947382492fe2f84c486f1673f20954e0f8ed9b1dbbb4202000d00000001f400000f325f388e121a1f34d947385df7fc7a1e89483dc96feb46da5cfade78966c70000100271000c80f325f388e121a1f34d947383d90b75000048103d69a4ff6cd32197d7a8bb05802001a00010001f4000a0f325f388e121a1f34d947389f048a0515eebff071fbe97dd1083d20b9fb9c62000100019500c80f325f388e121a1f34d947382ed99d1bfd81789a65d1cdf5a0babcae7f90cc07","maxFeePerGas":"0x261f37","maxPriorityFeePerGas":"0x78c03","nonce":"0x279379","r":"0x2c2d074894e897650904ba6d17350bee9a8bed615678964ae9d41a4955657cfe","s":"0x621f03a7894933e7f760caf23c2549e6473d64b00cb187e09e2a24caebe2fb1","to":"0x56e63998921f8ff8ee9d0206606f3a2dfe3b6689","transactionIndex":"0x11","type":"0x2","v":"0x0","value":"0x0","yParity":"0x0"},{"accessList":[],"blockHash":"0x9d63463c3b9af72f1569cbfb7a665a9d29e808dc28d96d2bf244d552a96fc857","blockNumber":"0x8d3b963","chainId":"0xa","from":"0xba2e784abd115ac22333cdf9a0a505d039cff4d5","gas":"0xb71b00","gasPrice":"0x7935d","hash":"0xe51009987796626d1948671a4369ecf52ee913c32463643ee4fd0deecc61d0ec","input":"0x02000d01010001f4000a0f321014f2354f8e6383ab4eaf2165834e30f2cad6ebb7d6de1d6d67a564da1c010100019a00640f325f388e121a1f34d947382492fe2f84c486f1673f20954e0f8ed9b1dbbb4202000d00000001f400000f325f388e121a1f34d947385df7fc7a1e89483dc96feb46da5cfade78966c70000100271000c80f325f388e121a1f34d947383d90b75000048103d69a4ff6cd32197d7a8bb05802001a00010001f4000a0f325f388e121a1f34d947389f048a0515eebff071fbe97dd1083d20b9fb9c62000100019500c80f325f388e121a1f34d947382ed99d1bfd81789a65d1cdf5a0babcae7f90cc07","maxFeePerGas":"0x261f37","maxPriorityFeePerGas":"0x78c03","nonce":"0x270f5b","r":"0xffce7a7aec9194e7de18f6f8c64760c8a190da7f86e99b98d5c9244e866a7b93","s":"0x7435db4d3e1de4860d911cd51fb0f5480b597cfc6721ae9f692513fb08661308","to":"0x56e63998921f8ff8ee9d0206606f3a2dfe3b6689","transactionIndex":"0x12","type":"0x2","v":"0x0","value":"0x0","yParity":"0x0"},{"accessList":[],"blockHash":"0x9d63463c3b9af72f1569cbfb7a665a9d29e808dc28d96d2bf244d552a96fc857","blockNumber":"0x8d3b963","chainId":"0xa","from":"0x47fd87c7f3b3dacaf0f3ed24703a8e76903fd1a6","gas":"0xb71b00","gasPrice":"0x79320","hash":"0xc2c7222f750713ee9cc66949876a8b57439e93795a7b6a3ecf56e796fae66ab1","input":"0x02000d01010001f4000a0f321014f2354f8e6383ab4eaf2165834e30f2cad6ebb7d6de1d6d67a564da1c010100019a00640f325f388e121a1f34d947382492fe2f84c486f1673f20954e0f8ed9b1dbbb4202000d00000001f400000f325f388e121a1f34d947385df7fc7a1e89483dc96feb46da5cfade78966c70000100271000c80f325f388e121a1f34d947383d90b75000048103d69a4ff6cd32197d7a8bb05802001a00010001f4000a0f325f388e121a1f34d947389f048a0515eebff071fbe97dd1083d20b9fb9c62000100019500c80f325f388e121a1f34d947382ed99d1bfd81789a65d1cdf5a0babcae7f90cc07","maxFeePerGas":"0x261efa","maxPriorityFeePerGas":"0x78bc6","nonce":"0x26e6e3","r":"0x2318a05e03d523da27b75ae30edc4b676d3606a0ad956a1a15de7e7b74d0f305","s":"0x6a121b7e3c6f6f32e8f93335594e5c139dbb2e16dd2f005c524dbcdda42f7427","to":"0x56e63998921f8ff8ee9d0206606f3a2dfe3b6689","transactionIndex":"0x13","type":"0x2","v":"0x1","value":"0x0","yParity":"0x1"},{"accessList":[],"blockHash":"0x9d63463c3b9af72f1569cbfb7a665a9d29e808dc28d96d2bf244d552a96fc857","blockNumber":"0x8d3b963","chainId":"0xa","from":"0x44198866839df987d115e3bda452610db879f893","gas":"0xb71b00","gasPrice":"0x79320","hash":"0x8bc3bc939a13e18772612415a70dd9f484f254dbe1254ed3c77d493a3301c3eb","input":"0x02000d01010001f4000a0f321014f2354f8e6383ab4eaf2165834e30f2cad6ebb7d6de1d6d67a564da1c010100019a00640f325f388e121a1f34d947382492fe2f84c486f1673f20954e0f8ed9b1dbbb4202000d00000001f400000f325f388e121a1f34d947385df7fc7a1e89483dc96feb46da5cfade78966c70000100271000c80f325f388e121a1f34d947383d90b75000048103d69a4ff6cd32197d7a8bb05802001a00010001f4000a0f325f388e121a1f34d947389f048a0515eebff071fbe97dd1083d20b9fb9c62000100019500c80f325f388e121a1f34d947382ed99d1bfd81789a65d1cdf5a0babcae7f90cc07","maxFeePerGas":"0x261efa","maxPriorityFeePerGas":"0x78bc6","nonce":"0x26c59b","r":"0xd0959bee23a5f6e922234babc2a459578e55a1fd9584e030899a5915dec7127b","s":"0x4ce14d8b68d80f634ffda797c6c47fc5ed50dc8a9a225680f0a5c9b0bdc091a8","to":"0x56e63998921f8ff8ee9d0206606f3a2dfe3b6689","transactionIndex":"0x14","type":"0x2","v":"0x0","value":"0x0","yParity":"0x0"},{"accessList":[],"blockHash":"0x9d63463c3b9af72f1569cbfb7a665a9d29e808dc28d96d2bf244d552a96fc857","blockNumber":"0x8d3b963","chainId":"0xa","from":"0x2b9d5ee187892af23ddd328ce0774de81465800d","gas":"0x3d0900","gasPrice":"0x6d06","hash":"0x2a1e785f82567aa416574b68d090f2bf532a7e5c6bdf41be3332340cf77f14f8","input":"0x02000d00000001f400000f321014f2354f8e6383ab4e8e7eee044829799c4bcceb46da5cfade78966c70000100271000c80f325f388e121a1f34d947383d90b75000048103d69a4ff6cd32197d7a8bb058","maxFeePerGas":"0x1ef8e0","maxPriorityFeePerGas":"0x65ac","nonce":"0x26c3f9","r":"0xf4aa4f86541b53dd7246ff5436be5b0ca7c22010c0b9b4006371533d27a0fde9","s":"0xb99346b8a05ab43f23ad5cc152c1eef04ac456cd580340971c6c681249fcd65","to":"0x56e63998921f8ff8ee9d0206606f3a2dfe3b6689","transactionIndex":"0x15","type":"0x2","v":"0x1","value":"0x0","yParity":"0x1"},{"accessList":[],"blockHash":"0x9d63463c3b9af72f1569cbfb7a665a9d29e808dc28d96d2bf244d552a96fc857","blockNumber":"0x8d3b963","chainId":"0xa","from":"0xb1e8ff77642c76a8c30db6db31a45b6146db5ce5","gas":"0xb71b00","gasPrice":"0x79320","hash":"0xab0ca2c4027f22422544b50b7a6bcf6115326502b792eef65725c6b67b15d68c","input":"0x02000d01010001f4000a0f321014f2354f8e6383ab4eaf2165834e30f2cad6ebb7d6de1d6d67a564da1c010100019a00640f325f388e121a1f34d947382492fe2f84c486f1673f20954e0f8ed9b1dbbb4202000d00000001f400000f325f388e121a1f34d947385df7fc7a1e89483dc96feb46da5cfade78966c70000100271000c80f325f388e121a1f34d947383d90b75000048103d69a4ff6cd32197d7a8bb05802001a00010001f4000a0f325f388e121a1f34d947389f048a0515eebff071fbe97dd1083d20b9fb9c62000100019500c80f325f388e121a1f34d947382ed99d1bfd81789a65d1cdf5a0babcae7f90cc07","maxFeePerGas":"0x261efa","maxPriorityFeePerGas":"0x78bc6","nonce":"0x26c4c1","r":"0xb3d0983cd612a70af0fe9d09073ade057dd9e85ba7197a3ada45b2ec1ef8f136","s":"0x18ccf7cec1c6084f5592d16e59dbccee5cf354c22a2dd3669b3fa4288523c7d4","to":"0x56e63998921f8ff8ee9d0206606f3a2dfe3b6689","transactionIndex":"0x16","type":"0x2","v":"0x0","value":"0x0","yParity":"0x0"},{"accessList":[],"blockHash":"0x9d63463c3b9af72f1569cbfb7a665a9d29e808dc28d96d2bf244d552a96fc857","blockNumber":"0x8d3b963","chainId":"0xa","from":"0x9dd6b834f942d4a1785b09c8a3e6bad64968390b","gas":"0xe4e1c0","gasPrice":"0x18dfa","hash":"0x5d62a82050b766cb1cb0e05b3225e0ea723989e0f6fdbd2032a8704c6f401110","input":"0x424b4f820000000000000000000000000000000000000000000000000000000000000000","maxFeePerGas":"0x1d024","maxPriorityFeePerGas":"0x186a0","nonce":"0x16dc57","r":"0xfd44591155c701376b3b241317c5ce0ffda23e61879f800691ec9cf15512b232","s":"0x93bb1dbea5f2a755c15e91134482ef757e022e5cb7bdd0a878c71fd48c03d9f","to":"0xa97ead90a28859fe6af896271e0f4bf545bb25e1","transactionIndex":"0x17","type":"0x2","v":"0x1","value":"0x0","yParity":"0x1"},{"accessList":[],"blockHash":"0x9d63463c3b9af72f1569cbfb7a665a9d29e808dc28d96d2bf244d552a96fc857","blockNumber":"0x8d3b963","chainId":"0xa","from":"0x2220180896981b5babd37f46fba8ab8898f38288","gas":"0xe4e1c0","gasPrice":"0x18dfa","hash":"0x6e8857f1d2870f5050e0291ac9a0f02b2a8a7f7d1d6b6be931d43210369aee7e","input":"0x424b4f820000000000000000000000000000000000000000000000000000000000000000","maxFeePerGas":"0x1d024","maxPriorityFeePerGas":"0x186a0","nonce":"0x16d60a","r":"0x20fbf630461f388430c8cc201b1377951ecd9ae3e7fdcbae31da7800ba0e221b","s":"0x3662a1d12105da811d2741ef1b56b1d6aaf81d2861b242188a238ca8ff812c50","to":"0xa97ead90a28859fe6af896271e0f4bf545bb25e1","transactionIndex":"0x18","type":"0x2","v":"0x1","value":"0x0","yParity":"0x1"},{"accessList":[],"blockHash":"0x9d63463c3b9af72f1569cbfb7a665a9d29e808dc28d96d2bf244d552a96fc857","blockNumber":"0x8d3b963","chainId":"0xa","from":"0x2f3ad16f36acb4f2e5accc16a48236937f68645f","gas":"0xe4e1c0","gasPrice":"0x1060e","hash":"0x89c62b214527245fd1156bdd3088ab6d1b01c82a1ee27cebb74520e57f6867a4","input":"0x424b4f820000000000000000000000000000000000000000000000000000000000000000","maxFeePerGas":"0x14838","maxPriorityFeePerGas":"0xfeb4","nonce":"0x16cd23","r":"0x5bc7e79a318efd55c27fc6f293026c5126f61ef2d2ba3843a0f778a2a603037e","s":"0x31188a850fa02f0d687e8baeae6f33e1fae47337e6490a4a60def76f097c86d3","to":"0xa97ead90a28859fe6af896271e0f4bf545bb25e1","transactionIndex":"0x19","type":"0x2","v":"0x0","value":"0x0","yParity":"0x0"},{"accessList":[],"blockHash":"0x9d63463c3b9af72f1569cbfb7a665a9d29e808dc28d96d2bf244d552a96fc857","blockNumber":"0x8d3b963","chainId":"0xa","from":"0x45a07f120b36bfeb602a3880fc1629a879ba487b","gas":"0x3d0900","gasPrice":"0x6d06","hash":"0x61bdc45e1c79ac48b0f1a7d23f21708a718cadc5c9bd50e50ea93d1ff944369e","input":"0x02000d00000001f400000f321014f2354f8e6383ab4e8e7eee044829799c4bcceb46da5cfade78966c70000100271000c80f325f388e121a1f34d947383d90b75000048103d69a4ff6cd32197d7a8bb058","maxFeePerGas":"0x1ef8e0","maxPriorityFeePerGas":"0x65ac","nonce":"0x26c257","r":"0x6abb0ed14baf830d03bc34d565ae9c1a7ea836c7c55459b7b83f33c116600b08","s":"0x1880ab30de6a33e0e31e079625dbf168cdf06497da880cef4a926e8bd44113a7","to":"0x56e63998921f8ff8ee9d0206606f3a2dfe3b6689","transactionIndex":"0x1a","type":"0x2","v":"0x1","value":"0x0","yParity":"0x1"},{"accessList":[],"blockHash":"0x9d63463c3b9af72f1569cbfb7a665a9d29e808dc28d96d2bf244d552a96fc857","blockNumber":"0x8d3b963","chainId":"0xa","from":"0x1e454bbca0599909bfb969cba883bc64291e833d","gas":"0xe4e1c0","gasPrice":"0xa06","hash":"0xd7bea5acb9588052cdae0dadc945b280075975ac485e03b0ff22e37c91194fa6","input":"0x424b4f820000000000000000000000000000000000000000000000000000000000000000","maxFeePerGas":"0x4c30","maxPriorityFeePerGas":"0x2ac","nonce":"0x16cb1f","r":"0x9f1b9fd4695055b1bbb91555008878c8358140173d0295f648ef05082f9dc4ce","s":"0x67178a6e434d962760aa4727cd20d66b610aba7de529e008c1ae9984d095069c","to":"0xa97ead90a28859fe6af896271e0f4bf545bb25e1","transactionIndex":"0x1b","type":"0x2","v":"0x1","value":"0x0","yParity":"0x1"},{"blockHash":"0x9d63463c3b9af72f1569cbfb7a665a9d29e808dc28d96d2bf244d552a96fc857","blockNumber":"0x8d3b963","chainId":"0xa","from":"0xcdffb1b5f2dbe3635ca6b31f563153bbe2a4a152","gas":"0x4600b","gasPrice":"0xf81ac","hash":"0x196e52b1afc762fa0122abc078623b878991e648d8d1c479baaadabe76b4b011","input":"0xc7c7f5b30000000000000000000000000000000000000000000000000000000000000080000000000000000000000000000000000000000000000000000032344602c63e0000000000000000000000000000000000000000000000000000000000000000000000000000000000000000cdffb1b5f2dbe3635ca6b31f563153bbe2a4a152000000000000000000000000000000000000000000000000000000000000759e000000000000000000000000cdffb1b5f2dbe3635ca6b31f563153bbe2a4a1520000000000000000000000000000000000000000000000006f05b59d3b2000000000000000000000000000000000000000000000000000006f05b59d3b20000000000000000000000000000000000000000000000000000000000000000000e000000000000000000000000000000000000000000000000000000000000001200000000000000000000000000000000000000000000000000000000000000140000000000000000000000000000000000000000000000000000000000000001600030100110100000000000000000000000000030d400000000000000000000000000000000000000000000000000000000000000000000000000000000000000000000000000000000000000000000000000000000000000000000000000000","nonce":"0x16","r":"0x65d6fbed3486a94485d2bb9ac162f28ee31bb34dcf762648e172b6530a737b10","s":"0x9a2421ec477c7f67361c15163c8b851225bc6127ea33bd7c4c55b120a223334","to":"0x6985884c4392d348587b19cb9eaaf157f13271cd","transactionIndex":"0x1c","type":"0x0","v":"0x38","value":"0x32344602c63e"},{"accessList":[],"blockHash":"0x9d63463c3b9af72f1569cbfb7a665a9d29e808dc28d96d2bf244d552a96fc857","blockNumber":"0x8d3b963","chainId":"0xa","from":"0x722e0bee2c374256415a944d5bfac7b95827ec08","gas":"0xb71b00","gasPrice":"0x79320","hash":"0x3ef6675bf43493001c6578844079621a883fc0fd5a6fa1cc788f340b26ec8d18","input":"0x02000d01010001f4000a0f321014f2354f8e6383ab4eaf2165834e30f2cad6ebb7d6de1d6d67a564da1c010100019a00640f325f388e121a1f34d947382492fe2f84c486f1673f20954e0f8ed9b1dbbb4202000d00000001f400000f325f388e121a1f34d947385df7fc7a1e89483dc96feb46da5cfade78966c70000100271000c80f325f388e121a1f34d947383d90b75000048103d69a4ff6cd32197d7a8bb05802001a00010001f4000a0f325f388e121a1f34d947389f048a0515eebff071fbe97dd1083d20b9fb9c62000100019500c80f325f388e121a1f34d947382ed99d1bfd81789a65d1cdf5a0babcae7f90cc07","maxFeePerGas":"0x261efa","maxPriorityFeePerGas":"0x78bc6","nonce":"0x26ba44","r":"0xcea5e59919630313628b95d4d67ca84bc6fca2acf44a214353fea571c957e85","s":"0x4fda240f60e2409aac14e8a13ac8cd68c6e01d6c43635ef0410f10077f962314","to":"0x56e63998921f8ff8ee9d0206606f3a2dfe3b6689","transactionIndex":"0x1d","type":"0x2","v":"0x0","value":"0x0","yParity":"0x0"},{"accessList":[],"blockHash":"0x9d63463c3b9af72f1569cbfb7a665a9d29e808dc28d96d2bf244d552a96fc857","blockNumber":"0x8d3b963","chainId":"0xa","from":"0xb8044d0b716018483081658061d0c2eb2db40e62","gas":"0xe4e1c0","gasPrice":"0x7407","hash":"0x745dbf3f43bebc51aa4319ceb4ecde3eaf1c010240e7c6364837159faa332209","input":"0x424b4f820000000000000000000000000000000000000000000000000000000000000000","maxFeePerGas":"0xb631","maxPriorityFeePerGas":"0x6cad","nonce":"0x16d79f","r":"0xdfe682e6c177e8ec6e4418ea74c273d9b43de757d2a22bfc71b151a2394f1a6c","s":"0x155f13d0813e4f11a9b0c2e0fc11539fbaf4a471657b97f3a935b0b200c05788","to":"0xa97ead90a28859fe6af896271e0f4bf545bb25e1","transactionIndex":"0x1e","type":"0x2","v":"0x0","value":"0x0","yParity":"0x0"},{"accessList":[],"blockHash":"0x9d63463c3b9af72f1569cbfb7a665a9d29e808dc28d96d2bf244d552a96fc857","blockNumber":"0x8d3b963","chainId":"0xa","from":"0x5920142e65c83ad7afea61817dbb5cf80197aca5","gas":"0x3d0900","gasPrice":"0x6d06","hash":"0xfc04dd80be3c81cc150da1812930eb0f98e9d8484d2a31894a0363d8d3041ee4","input":"0x02000d00000001f400000f321014f2354f8e6383ab4e8e7eee044829799c4bcceb46da5cfade78966c70000100271000c80f325f388e121a1f34d947383d90b75000048103d69a4ff6cd32197d7a8bb058","maxFeePerGas":"0x1ef8e0","maxPriorityFeePerGas":"0x65ac","nonce":"0x26c06e","r":"0xd43ce579bb805e131543b65a3bf9df34e68667f022a7500c3fee948e1b494f21","s":"0x6911004c3754a0d5d40aacdf7522a219f10b7bbe3402b875e11eb3f8f1cab7e0","to":"0x56e63998921f8ff8ee9d0206606f3a2dfe3b6689","transactionIndex":"0x1f","type":"0x2","v":"0x0","value":"0x0","yParity":"0x0"},{"accessList":[],"blockHash":"0x9d63463c3b9af72f1569cbfb7a665a9d29e808dc28d96d2bf244d552a96fc857","blockNumber":"0x8d3b963","chainId":"0xa","from":"0xff936b80783b32ad3f2b4e610d04c9778c4669a0","gas":"0x11ef0","gasPrice":"0xb42","hash":"0x551bcf6f13abb8e955608f29159b9c312395134a2d48331483de6fca6ba8147d","input":"0xbce38bd70000000000000000000000000000000000000000000000000000000000000000000000000000000000000000000000000000000000000000000000000000004000000000000000000000000000000000000000000000000000000000000000010000000000000000000000000000000000000000000000000000000000000020000000000000000000000000fb4e4811c7a811e098a556bd79b64c20b479e43100000000000000000000000000000000000000000000000000000000000000400000000000000000000000000000000000000000000000000000000000000044f8a940b000000000000000000000000013d44451bab4d6f9bce0b835057aa88f91446bf8000000000000000000000000000000000000000000000000000000000000000000000000000000000000000000000000000000000000000000000000","maxFeePerGas":"0x59683db4","maxPriorityFeePerGas":"0x3e8","nonce":"0xefde","r":"0xb7c401859fced771603f3d272d38c109cdc6c2f6475d85b2c92a95d450b8aa30","s":"0x4c069ee4923561b36c6622de597b86dc394e20be9495d850c1c1eb434c3b42fb","to":"0xca11bde05977b3631167028862be2a173976ca11","transactionIndex":"0x20","type":"0x2","v":"0x0","value":"0x0","yParity":"0x0"},{"accessList":[],"blockHash":"0x9d63463c3b9af72f1569cbfb7a665a9d29e808dc28d96d2bf244d552a96fc857","blockNumber":"0x8d3b963","chainId":"0xa","from":"0xb4caec896699168f0a5cc82c9ec774597e87a8c8","gas":"0xb71b00","gasPrice":"0x79320","hash":"0xba1ae430afa38b0cd2de36b251156eaa22768e84009deeca6b9c11617efaf3ec","input":"0x02000d01010001f4000a0f321014f2354f8e6383ab4eaf2165834e30f2cad6ebb7d6de1d6d67a564da1c010100019a00640f325f388e121a1f34d947382492fe2f84c486f1673f20954e0f8ed9b1dbbb4202000d00000001f400000f325f388e121a1f34d947385df7fc7a1e89483dc96feb46da5cfade78966c70000100271000c80f325f388e121a1f34d947383d90b75000048103d69a4ff6cd32197d7a8bb05802001a00010001f4000a0f325f388e121a1f34d947389f048a0515eebff071fbe97dd1083d20b9fb9c62000100019500c80f325f388e121a1f34d947382ed99d1bfd81789a65d1cdf5a0babcae7f90cc07","maxFeePerGas":"0x261efa","maxPriorityFeePerGas":"0x78bc6","nonce":"0x26c2a5","r":"0xc35ac17ef4fea64de2d67e6537667bba8d1a78a2d0d3145a5605af3c0db6397c","s":"0x33b2943512bcf8a036575847fd51cbc4008a6f71a29488d56d17605c11deebb9","to":"0x56e63998921f8ff8ee9d0206606f3a2dfe3b6689","transactionIndex":"0x21","type":"0x2","v":"0x0","value":"0x0","yParity":"0x0"},{"accessList":[],"blockHash":"0x9d63463c3b9af72f1569cbfb7a665a9d29e808dc28d96d2bf244d552a96fc857","blockNumber":"0x8d3b963","chainId":"0xa","from":"0x2ac1dc050aab495ff26c2156d5e4e53f14bdf618","gas":"0x3d0900","gasPrice":"0x6d06","hash":"0xa9609157162dbc267fa1d1c573447f794580568aea6115f6bedea993ca34372a","input":"0x02000d00000001f400000f321014f2354f8e6383ab4e8e7eee044829799c4bcceb46da5cfade78966c70000100271000c80f325f388e121a1f34d947383d90b75000048103d69a4ff6cd32197d7a8bb058","maxFeePerGas":"0x1ef8e0","maxPriorityFeePerGas":"0x65ac","nonce":"0x26bf56","r":"0x6964359bf6b8992d14a4ba26e5eff1a3c5c77df76c6f25976d544e35177656e0","s":"0x4b23325adf0ccf06827703ebf658759ee24295c804bb51cddffb724a5c96c847","to":"0x56e63998921f8ff8ee9d0206606f3a2dfe3b6689","transactionIndex":"0x22","type":"0x2","v":"0x0","value":"0x0","yParity":"0x0"},{"accessList":[],"blockHash":"0x9d63463c3b9af72f1569cbfb7a665a9d29e808dc28d96d2bf244d552a96fc857","blockNumber":"0x8d3b963","chainId":"0xa","from":"0x2f014dc01426760bc963f1f0c4db201fa9dd66f1","gas":"0x11ef0","gasPrice":"0xb42","hash":"0xe9edf84cac37fc1bd1efa79c9710e6d80b7159bf26fbe8fea7aaef27544147c8","input":"0xbce38bd70000000000000000000000000000000000000000000000000000000000000000000000000000000000000000000000000000000000000000000000000000004000000000000000000000000000000000000000000000000000000000000000010000000000000000000000000000000000000000000000000000000000000020000000000000000000000000fb4e4811c7a811e098a556bd79b64c20b479e43100000000000000000000000000000000000000000000000000000000000000400000000000000000000000000000000000000000000000000000000000000044f8a940b000000000000000000000000013d44451bab4d6f9bce0b835057aa88f91446bf8000000000000000000000000000000000000000000000000000000000000000000000000000000000000000000000000000000000000000000000000","maxFeePerGas":"0x59683db4","maxPriorityFeePerGas":"0x3e8","nonce":"0x2128","r":"0xf48a7e49755c56b4db4e6aecac227ad68f6c695dcdc1d018b77e9472db00834f","s":"0x3b59b8b33bd3172befdf38b8f9f947ee21563488ad2f405ce445e3cf0c2f31b6","to":"0xca11bde05977b3631167028862be2a173976ca11","transactionIndex":"0x23","type":"0x2","v":"0x1","value":"0x0","yParity":"0x1"},{"accessList":[],"blockHash":"0x9d63463c3b9af72f1569cbfb7a665a9d29e808dc28d96d2bf244d552a96fc857","blockNumber":"0x8d3b963","chainId":"0xa","from":"0xd4ccc1e743733fc2f5df8ed637b85b2b3c06514c","gas":"0xb71b00","gasPrice":"0x79320","hash":"0x8c141507c91c142e2a461427157c2d0761a57d45158029d0e567c20c5943d847","input":"0x02000d01010001f4000a0f321014f2354f8e6383ab4eaf2165834e30f2cad6ebb7d6de1d6d67a564da1c010100019a00640f325f388e121a1f34d947382492fe2f84c486f1673f20954e0f8ed9b1dbbb4202000d00000001f400000f325f388e121a1f34d947385df7fc7a1e89483dc96feb46da5cfade78966c70000100271000c80f325f388e121a1f34d947383d90b75000048103d69a4ff6cd32197d7a8bb05802001a00010001f4000a0f325f388e121a1f34d947389f048a0515eebff071fbe97dd1083d20b9fb9c62000100019500c80f325f388e121a1f34d947382ed99d1bfd81789a65d1cdf5a0babcae7f90cc07","maxFeePerGas":"0x261efa","maxPriorityFeePerGas":"0x78bc6","nonce":"0x26c905","r":"0x9ae164d64d88954e2f22177621ea9cef5e466fd6466ecd4329c23236375541a1","s":"0x1bf539c3c8d177f03250bc724e3ebf356d4be8267234522d7cfcd83e37a6de7","to":"0x56e63998921f8ff8ee9d0206606f3a2dfe3b6689","transactionIndex":"0x24","type":"0x2","v":"0x0","value":"0x0","yParity":"0x0"},{"accessList":[],"blockHash":"0x9d63463c3b9af72f1569cbfb7a665a9d29e808dc28d96d2bf244d552a96fc857","blockNumber":"0x8d3b963","chainId":"0xa","from":"0xbff66ec13a01ccfee6cc6a5e90cf44439b688bee","gas":"0x3d0900","gasPrice":"0x6d06","hash":"0x632581f903e13b1f1aafe97a3631bd5bbf795444a4497d0a3086baa60ab2727c","input":"0x02000d00000001f400000f321014f2354f8e6383ab4e8e7eee044829799c4bcceb46da5cfade78966c70000100271000c80f325f388e121a1f34d947383d90b75000048103d69a4ff6cd32197d7a8bb058","maxFeePerGas":"0x1ef8e0","maxPriorityFeePerGas":"0x65ac","nonce":"0x26b8df","r":"0x32a701d71893693b20322d31890db869801cde68b0f3b91866e25993ff32601c","s":"0x45b5c638b17c15647705b7c774a8ad53dece576eb9a22a4fa5601b8d097cdb13","to":"0x56e63998921f8ff8ee9d0206606f3a2dfe3b6689","transactionIndex":"0x25","type":"0x2","v":"0x0","value":"0x0","yParity":"0x0"},{"accessList":[],"blockHash":"0x9d63463c3b9af72f1569cbfb7a665a9d29e808dc28d96d2bf244d552a96fc857","blockNumber":"0x8d3b963","chainId":"0xa","from":"0xa62fb05af6c35d9af70015c7f33ee558a9060036","gas":"0x33825a","gasPrice":"0x75f","hash":"0x03b7ac4fcf05c1defda5eb00b2d9a800fc902b36c29f2c4b9a6bb5a6b6ef7d8a","input":"0xfdb5a03e","maxFeePerGas":"0xf50f4","maxPriorityFeePerGas":"0x5","nonce":"0x242c97","r":"0xd9ff3e0f1b7454675292503ccf867834ddc5d72b92c0ee86c25e5cec4fb9182","s":"0x2e37be1059b8fc7d0d51dbf4923e05a849244dd93539b2b51af301ad2a412a6b","to":"0x3b749be6ca33f27e2837138ede69f8c6c53f9207","transactionIndex":"0x26","type":"0x2","v":"0x1","value":"0x0","yParity":"0x1"},{"accessList":[],"blockHash":"0x9d63463c3b9af72f1569cbfb7a665a9d29e808dc28d96d2bf244d552a96fc857","blockNumber":"0x8d3b963","chainId":"0xa","from":"0x763b5dca3ed88c9fec3393e2acea528a5bfc3f02","gas":"0x16e360","gasPrice":"0x75b","hash":"0x0b0dfc1f715c3c16874b52c03ecc7a73416a244d00fc4dfe76ff16b7d66c777e","input":"0x00000c9088d3b963","maxFeePerGas":"0x5f5e100","maxPriorityFeePerGas":"0x1","nonce":"0x129c4","r":"0x5aa763729e1e8718ae94a4e4bf8c7bf0d6f07e85174a9be57ce2801a8b0059e6","s":"0x29d14e611b4b84f3cf2e919993d60dd067248726a9574fcdcf10855fa6c28f57","to":"0xbbdd22eb1f0cb54c10a169c5e3b804d2fbc65201","transactionIndex":"0x27","type":"0x2","v":"0x0","value":"0x0","yParity":"0x0"},{"accessList":[],"blockHash":"0x9d63463c3b9af72f1569cbfb7a665a9d29e808dc28d96d2bf244d552a96fc857","blockNumber":"0x8d3b963","chainId":"0xa","from":"0x893150406fdbaf4834315edb24a9bf1136b5fe42","gas":"0x1e8480","gasPrice":"0x75b","hash":"0xf82738c2e3807c6f8ea0fcafbc3192f879efafe6a922439ae5bc57476221ae9c","input":"0x6a1f2d74000000000000000000000000000000000000000000000000000000000004890e00000000000000000000000000000000000000000000000000000000000000ac0000000000000000000000000000000000000000000000000000000000000000000000000000000000000000000000000000000000000000000000000000000000000000000000000000000000000000000000000000000000b3428d04e39af0000000000000000000000000000000000000000000000000000000000000000a","maxFeePerGas":"0x1dcd6501","maxPriorityFeePerGas":"0x1","nonce":"0x1bfb57","r":"0x7afe3eb211194177cdd0fdff11522bd7fbd75dc75bdffafc86945a57809998c","s":"0x4e0959debb1050adede4749e3f6e0216baa5c78bb81ad82f5675651b8ca3529a","to":"0x12904000757d295d27b4599b264a4d0acec46148","transactionIndex":"0x28","type":"0x2","v":"0x0","value":"0x0","yParity":"0x0"},{"accessList":[],"blockHash":"0x9d63463c3b9af72f1569cbfb7a665a9d29e808dc28d96d2bf244d552a96fc857","blockNumber":"0x8d3b963","chainId":"0xa","from":"0x9c6a4e0221dae3bfc6274de38368479486425c01","gas":"0x1e8480","gasPrice":"0x75b","hash":"0x662e5f2e2075bbd57964d8dee487ab6d3522be4781fe659945b8112a7bb37852","input":"0x6a1f2d74000000000000000000000000000000000000000000000000000000000003724300000000000000000000000000000000000000000000000000000000000000d20000000000000000000000000000000000000000000000000000000000000000000000000000000000000000000000000000000000000000000000000000000000000000000000000000000000000000000000000000000000061bb7a9505164000000000000000000000000000000000000000000000000000000000000000a","maxFeePerGas":"0x1dcd6501","maxPriorityFeePerGas":"0x1","nonce":"0x21bf7c","r":"0x602fdc2dc0f5626abf1f80466b5ca7ca17ac238ffa9fe53a2966c4244e2fe02c","s":"0x1e3c9defbb32c2e68ddbf4fdf5698aebd44d2c7eaccba3490989127ae6d1d861","to":"0x682756f7985896f1924c03cd9c55b41319c89c9d","transactionIndex":"0x29","type":"0x2","v":"0x1","value":"0x0","yParity":"0x1"},{"accessList":[],"blockHash":"0x9d63463c3b9af72f1569cbfb7a665a9d29e808dc28d96d2bf244d552a96fc857","blockNumber":"0x8d3b963","chainId":"0xa","from":"0xb845ba45be71e908cd71552f6c0fc4bf41e1a4ef","gas":"0x1e8480","gasPrice":"0x75b","hash":"0x16cd3de8c1cf265164d3b58cce34bcc567a3aaa3b26462c69333767affa6c162","input":"0x6a1f2d740000000000000000000000000000000000000000000000000000000000030fa40000000000000000000000000000000000000000000000000000000000000000000000000000000000000000000000000000000000000000000000000000000000000000000000000000000000000000000000000000000000000000000000000000000000000000000000000000000000000000000000000002c8b08053bca7000000000000000000000000000000000000000000000000000000000000000a","maxFeePerGas":"0x1dcd6501","maxPriorityFeePerGas":"0x1","nonce":"0x216e3f","r":"0x950e61964820d6902b34dba551cabbfe5f3a9d8d242e16991ed6bb99df4d6a85","s":"0x150de06d706b951b03b0b9e68833f535c850422d15e2fdf222e22e14eb435b32","to":"0x63f8d4000ba6fe867dcb581eaa20a1bc89dcc15e","transactionIndex":"0x2a","type":"0x2","v":"0x0","value":"0x0","yParity":"0x0"},{"accessList":[],"blockHash":"0x9d63463c3b9af72f1569cbfb7a665a9d29e808dc28d96d2bf244d552a96fc857","blockNumber":"0x8d3b963","chainId":"0xa","from":"0xffd12b32d000617551681973911fd3ad49b89294","gas":"0x27ac40","gasPrice":"0x75b","hash":"0x9aa206212667171b8fdee9547933412a5713d091ddc0735a4c8c1657fcd45066","input":"0x83730cc30000000000000000000000000000000000000000000000000000000008d3b963","maxFeePerGas":"0x5f5e100","maxPriorityFeePerGas":"0x1","nonce":"0x2af4a","r":"0xb5f2d18eb5916db863786781f8713f5f6e36661f6cc484d446c360c156023eda","s":"0xa87bdaa8505b4011cf09140ee121c23a6ab5617df117effeedbba73d24b5284","to":"0x1c43229d1a6006ae61d7071f1c6a57d8846b0047","transactionIndex":"0x2b","type":"0x2","v":"0x1","value":"0x0","yParity":"0x1"},{"accessList":[],"blockHash":"0x9d63463c3b9af72f1569cbfb7a665a9d29e808dc28d96d2bf244d552a96fc857","blockNumber":"0x8d3b963","chainId":"0xa","from":"0xdb49dc858fea0d474a2e4bf2164a224b672d8118","gas":"0x27ac40","gasPrice":"0x75b","hash":"0xde196a8da4bc709e60a84ab1accbdfec436c6b8c84c157e8aa590051d9d4da60","input":"0x83730cc30000000000000000000000000000000000000000000000000000000008d3b963","maxFeePerGas":"0x5f5e100","maxPriorityFeePerGas":"0x1","nonce":"0x2b399","r":"0xce6b20f03469bb38358533acc99976aa23244f15c510595fe427c7d77d23c43","s":"0x30263de58520f0c73932cf82cb3d0045b66ed757bf69bd1395985d791c468592","to":"0x896edf38f53c10a7ddb7d73ee82e2ce8f609b0bb","transactionIndex":"0x2c","type":"0x2","v":"0x0","value":"0x0","yParity":"0x0"},{"accessList":[],"blockHash":"0x9d63463c3b9af72f1569cbfb7a665a9d29e808dc28d96d2bf244d552a96fc857","blockNumber":"0x8d3b963","chainId":"0xa","from":"0x7eb63e28ca5541b35d1dd5a8000e2073ba2d8ec8","gas":"0x27ac40","gasPrice":"0x75b","hash":"0x3d0e2c2f5933cdb98f82aaac41a85f3704f93a9e84ec7b8cff0f740fa8acdb5e","input":"0x83730cc30000000000000000000000000000000000000000000000000000000008d3b963","maxFeePerGas":"0x5f5e100","maxPriorityFeePerGas":"0x1","nonce":"0x2f9b3a","r":"0xc5e4286a5d32b67686b191873bdb096f1514b25cebdd9d90a510d1ccf04b5fc6","s":"0x63cbbab5e927b3970766e8b284e8bffaeab4b2a20ae1099c5468eaf4c363b720","to":"0x2008e0c258a16040f3f451262e853c9f69828b98","transactionIndex":"0x2d","type":"0x2","v":"0x1","value":"0x0","yParity":"0x1"},{"accessList":[],"blockHash":"0x9d63463c3b9af72f1569cbfb7a665a9d29e808dc28d96d2bf244d552a96fc857","blockNumber":"0x8d3b963","chainId":"0xa","from":"0xcde377407d9b819efc0e185aa2d442194c2233e6","gas":"0x27ac40","gasPrice":"0x75b","hash":"0xd9a1f6f1fdfc1079773f6e8b609fd303ca35e73a4fa4534506cc75c0f78509ab","input":"0x83730cc30000000000000000000000000000000000000000000000000000000008d3b963","maxFeePerGas":"0x5f5e100","maxPriorityFeePerGas":"0x1","nonce":"0x49efa1","r":"0x30efd84b1e1d2933c11eb8bff80aeb2e28aec9bedf6df89398ca2ee300f3ccda","s":"0x408f4cf7230556afc3e0ae7824c9988ac7e91a919d55d9281b19132e3830ac6e","to":"0x4aed348173bbf17dfaeb91598321904c9323d36e","transactionIndex":"0x2e","type":"0x2","v":"0x0","value":"0x0","yParity":"0x0"},{"accessList":[],"blockHash":"0x9d63463c3b9af72f1569cbfb7a665a9d29e808dc28d96d2bf244d552a96fc857","blockNumber":"0x8d3b963","chainId":"0xa","from":"0x9e3ed65340a913b96ba7b86d5d5876dde623946e","gas":"0x27ac40","gasPrice":"0x75b","hash":"0x0f2398f7a3e369a92c0d4393573f48f7ada9896cf02ff8d17addf0a2f93017bd","input":"0x83730cc30000000000000000000000000000000000000000000000000000000008d3b963","maxFeePerGas":"0x5f5e100","maxPriorityFeePerGas":"0x1","nonce":"0x57e29e","r":"0x99e7190e0945eb539065563649ead3d4f61c285d0140caf4725ba40504276b0","s":"0x524716ac50dd83ee65ed8959986ff675f918a97508ed09858415ff4a07ac3b7c","to":"0xd9f7bd6033d34caf61143a460d7f79c4384aae97","transactionIndex":"0x2f","type":"0x2","v":"0x0","value":"0x0","yParity":"0x0"}],"transactionsRoot":"0x7f656e630c1b52b626e4291b9a4e976ecfd7bab766646a3e134b69a12f412494","uncles":[],"withdrawals":[],"withdrawalsRoot":"0x42d9c4e1c31645b89d3d30448a1e5c9e57ee6293011b344d46c9361f9198896b"},"id":
        0}

        '
    headers:
      CF-RAY:
      - 9d31861429a91d7e-ATL
      Cache-Control:
      - max-age=0, private, must-revalidate
      Connection:
      - keep-alive
      Content-Type:
      - application/json; charset=utf-8
      Date:
      - Tue, 24 Feb 2026 19:56:00 GMT
      Nel:
      - '{"report_to":"cf-nel","success_fraction":0.0,"max_age":604800}'
      Report-To:
      - '{"group":"cf-nel","max_age":604800,"endpoints":[{"url":"https://a.nel.cloudflare.com/report/v4?s=smYAnqO7mxKE2aRutujRuyW87FjyQdlUT76ywWGXfqevpq3ng5WaN%2BU%2FUQ%2BWsiELwCuZZs6WC4Bvf0RI2AgXa7RJ8qSgVvBwpEMP2qvwq6Gp888K"}]}'
      Server:
      - cloudflare
      Transfer-Encoding:
      - chunked
      access-control-allow-credentials:
      - 'true'
      access-control-allow-origin:
      - '*'
      access-control-expose-headers:
      - bypass-429-option,x-ratelimit-reset,x-ratelimit-limit,x-ratelimit-remaining,api-v2-temp-token
      alt-svc:
      - h3=":443"; ma=86400
      bypass-429-option:
      - no_bypass
      cf-cache-status:
      - DYNAMIC
      content-length:
      - '44330'
      strict-transport-security:
      - max-age=31536000; includeSubDomains
      x-ratelimit-limit:
      - '600'
      x-ratelimit-remaining:
      - '599'
      x-ratelimit-reset:
      - '59660'
      x-request-id:
      - a209f93e118646e984f95838fb45d105
    status:
      code: 200
      message: OK
- request:
    body: '{"id": 0, "jsonrpc": "2.0", "method": "eth_getTransactionReceipt", "params":
      ["0x50511c1bd6d67fcc38cfca49b3f129a3a9f941530046655b871d96c12b221206"]}'
    headers:
      Accept:
      - '*/*'
      Accept-Encoding:
      - gzip, deflate
      Connection:
      - keep-alive
      Content-Length:
      - '148'
      Content-Type:
      - application/json
      User-Agent:
      - rotki/1.41.4.dev762+ge38047a983
    method: POST
    uri: https://explorer.optimism.io/api/eth-rpc
  response:
    body:
      string: '{"jsonrpc":"2.0","result": {"blockHash":"0x9d63463c3b9af72f1569cbfb7a665a9d29e808dc28d96d2bf244d552a96fc857","blockNumber":"0x8d3b963","contractAddress":null,"cumulativeGasUsed":"0xb2d7c","effectiveGasPrice":"0xf4999","from":"0x0af640d56210545b52eb119a10ace8b463ca2614","gasUsed":"0x32522","logs":[{"address":"0xc0f8c29e3a9a7650a3f642e467d70087819926d6","blockHash":"0x9d63463c3b9af72f1569cbfb7a665a9d29e808dc28d96d2bf244d552a96fc857","blockNumber":"0x8d3b963","data":"0x00000000000000000000000000000000000000000000000000000000000000030000000000000000000000000000000000000000000000000000000008d3b963000000000000000000000000000000000000000000000000000000365290b025000000000000000000000000000000000000000000002cffd26fb5ff608b55b8","logIndex":"0x11","removed":false,"topics":["0xb0a2ded49817748754bcca0474b24011f01d4574dd5c40e14197ffa2e6540fef"],"transactionHash":"0x50511c1bd6d67fcc38cfca49b3f129a3a9f941530046655b871d96c12b221206","transactionIndex":"0x2"},{"address":"0x871f2f2ff935fd1ed867842ff2a7bfd051a5e527","blockHash":"0x9d63463c3b9af72f1569cbfb7a665a9d29e808dc28d96d2bf244d552a96fc857","blockNumber":"0x8d3b963","data":"0x000000000000000000000000000000000000000000000000279918a0d334eaaa","logIndex":"0x12","removed":false,"topics":["0xddf252ad1be2c89b69c2b068fc378daa952ba7f163c4a11628f55a4df523b3ef","0x000000000000000000000000c0f8c29e3a9a7650a3f642e467d70087819926d6","0x0000000000000000000000000af640d56210545b52eb119a10ace8b463ca2614"],"transactionHash":"0x50511c1bd6d67fcc38cfca49b3f129a3a9f941530046655b871d96c12b221206","transactionIndex":"0x2"},{"address":"0x4200000000000000000000000000000000000042","blockHash":"0x9d63463c3b9af72f1569cbfb7a665a9d29e808dc28d96d2bf244d552a96fc857","blockNumber":"0x8d3b963","data":"0x000000000000000000000000000000000000000000000000205146489b6b17f2","logIndex":"0x13","removed":false,"topics":["0xddf252ad1be2c89b69c2b068fc378daa952ba7f163c4a11628f55a4df523b3ef","0x000000000000000000000000f9010da2e667f666cc3d18282ba47e41aa1d456f","0x0000000000000000000000000af640d56210545b52eb119a10ace8b463ca2614"],"transactionHash":"0x50511c1bd6d67fcc38cfca49b3f129a3a9f941530046655b871d96c12b221206","transactionIndex":"0x2"},{"address":"0x4200000000000000000000000000000000000042","blockHash":"0x9d63463c3b9af72f1569cbfb7a665a9d29e808dc28d96d2bf244d552a96fc857","blockNumber":"0x8d3b963","data":"0x00000000000000000000000000000000000000000000fadd22ca5691406373a400000000000000000000000000000000000000000000fadd431b9cd9dbce8b96","logIndex":"0x14","removed":false,"topics":["0xdec2bacdd2f05b59de34da9b523dff8be42e5e38e818c82fdb0bae774387a724","0x0000000000000000000000007b0befc5b043148cd7bd5cfeeef7bc63d28edec0"],"transactionHash":"0x50511c1bd6d67fcc38cfca49b3f129a3a9f941530046655b871d96c12b221206","transactionIndex":"0x2"},{"address":"0xf9010da2e667f666cc3d18282ba47e41aa1d456f","blockHash":"0x9d63463c3b9af72f1569cbfb7a665a9d29e808dc28d96d2bf244d552a96fc857","blockNumber":"0x8d3b963","data":"0x000000000000000000000000000000000000000000000000205146489b6b17f2","logIndex":"0x15","removed":false,"topics":["0x924cd60a7c2792f23ac2090237adb3996092fac4be3644cfdc271064f53b5704","0x0000000000000000000000000af640d56210545b52eb119a10ace8b463ca2614"],"transactionHash":"0x50511c1bd6d67fcc38cfca49b3f129a3a9f941530046655b871d96c12b221206","transactionIndex":"0x2"},{"address":"0x18aa88bb25b8f15fdbe329f789dd000bf679753e","blockHash":"0x9d63463c3b9af72f1569cbfb7a665a9d29e808dc28d96d2bf244d552a96fc857","blockNumber":"0x8d3b963","data":"0x0000000000000000000000000000000000000000000000000000000005d99dfc","logIndex":"0x16","removed":false,"topics":["0xddf252ad1be2c89b69c2b068fc378daa952ba7f163c4a11628f55a4df523b3ef","0x000000000000000000000000c0f8c29e3a9a7650a3f642e467d70087819926d6","0x0000000000000000000000000af640d56210545b52eb119a10ace8b463ca2614"],"transactionHash":"0x50511c1bd6d67fcc38cfca49b3f129a3a9f941530046655b871d96c12b221206","transactionIndex":"0x2"},{"address":"0xc0f8c29e3a9a7650a3f642e467d70087819926d6","blockHash":"0x9d63463c3b9af72f1569cbfb7a665a9d29e808dc28d96d2bf244d552a96fc857","blockNumber":"0x8d3b963","data":"0x0000000000000000000000000000000000000000000000000000000005d99dfc","logIndex":"0x17","removed":false,"topics":["0xf279e6a1f5e320cca91135676d9cb6e44ca8a08c0b88342bcdb1144f6511b568","0x0000000000000000000000000af640d56210545b52eb119a10ace8b463ca2614","0x0000000000000000000000000000000000000000000000000000000000000003"],"transactionHash":"0x50511c1bd6d67fcc38cfca49b3f129a3a9f941530046655b871d96c12b221206","transactionIndex":"0x2"}],"logsBloom":"0x00400000000000002000000100004010000000000000000000000000000000200400000000000200010000000000000000000010020040002040000000000040000000000000000024000108000000000000000800004000000000010000000000000000000001000040000000000040000000000001000000000011000000000000000000000000000000000000000000000000000000000000000000000810040000002000000000000000000000000000000000802000000000000000400000000012400000000000200004004000008400000000000000000000000040000000040000000000000000000000000000000000000000000000000000000000","status":"0x1","to":"0xc0f8c29e3a9a7650a3f642e467d70087819926d6","transactionHash":"0x50511c1bd6d67fcc38cfca49b3f129a3a9f941530046655b871d96c12b221206","transactionIndex":"0x2","type":"0x2"},"id":
        0}

        '
    headers:
      CF-RAY:
      - 9d3186187f23c00b-ATL
      Cache-Control:
      - max-age=0, private, must-revalidate
      Connection:
      - keep-alive
      Content-Type:
      - application/json; charset=utf-8
      Date:
      - Tue, 24 Feb 2026 19:56:01 GMT
      Nel:
      - '{"report_to":"cf-nel","success_fraction":0.0,"max_age":604800}'
      Report-To:
      - '{"group":"cf-nel","max_age":604800,"endpoints":[{"url":"https://a.nel.cloudflare.com/report/v4?s=4ZGDXewYLVnV1JS8fDLFP7s%2FncZAzgbzf%2FIl9molUPnP1rypKMRFV2O1iVmY4kFcB3i%2BYgIvoMT43Y2%2BQ4pbniPZy3peKZxTULONVOIXD5kaGAaV"}]}'
      Server:
      - cloudflare
      Transfer-Encoding:
      - chunked
      access-control-allow-credentials:
      - 'true'
      access-control-allow-origin:
      - '*'
      access-control-expose-headers:
      - bypass-429-option,x-ratelimit-reset,x-ratelimit-limit,x-ratelimit-remaining,api-v2-temp-token
      alt-svc:
      - h3=":443"; ma=86400
      bypass-429-option:
      - no_bypass
      cf-cache-status:
      - DYNAMIC
      content-length:
      - '5236'
      strict-transport-security:
      - max-age=31536000; includeSubDomains
      x-ratelimit-limit:
      - '600'
      x-ratelimit-remaining:
      - '598'
      x-ratelimit-reset:
      - '58964'
      x-request-id:
      - aee490a85fd714f2943c657fb5ae6b11
    status:
      code: 200
      message: OK
- request:
    body: null
    headers:
      Accept:
      - '*/*'
      Accept-Encoding:
      - gzip, deflate
      Connection:
      - keep-alive
      User-Agent:
      - rotki/1.41.4.dev762+ge38047a983
    method: GET
    uri: https://explorer.optimism.io/api/v2/transactions/0x50511c1bd6d67fcc38cfca49b3f129a3a9f941530046655b871d96c12b221206
  response:
    body:
      string: '{"l1_gas_used":"1600","priority_fee":"206113793886","raw_input":"0x441a3e7000000000000000000000000000000000000000000000000000000000000000030000000000000000000000000000000000000000000000000000000005d99dfc","is_pending_update":false,"op_withdrawals":[],"result":"success","hash":"0x50511c1bd6d67fcc38cfca49b3f129a3a9f941530046655b871d96c12b221206","max_fee_per_gas":"1001881","revert_reason":null,"confirmation_duration":[0,2.0e3],"transaction_burnt_fee":"387906548","type":2,"token_transfers_overflow":false,"confirmations":88810,"position":2,"max_priority_fee_per_gas":"1001881","transaction_tag":null,"created_contract":null,"value":"0","l1_fee_scalar":"0","from":{"ens_domain_name":null,"hash":"0x0aF640D56210545B52eb119A10ace8b463CA2614","implementations":[],"is_contract":false,"is_scam":false,"is_verified":false,"metadata":null,"name":null,"private_tags":[],"proxy_type":null,"public_tags":[],"reputation":"ok","watchlist_names":[]},"gas_used":"206114","status":"ok","to":{"ens_domain_name":null,"hash":"0xc0f8C29e3a9A7650a3F642e467d70087819926d6","implementations":[],"is_contract":true,"is_scam":false,"is_verified":true,"metadata":{"tags":[{"meta":{},"name":"WOO","ordinal":0,"slug":"woo","tagType":"generic"},{"meta":{"tagIcon
        ":"https://blockscout-icons.s3.us-east-1.amazonaws.com/OLI_tag_logo.svg","textColor":"#C163D4","tooltipAttribution":"https://www.openlabelsinitiative.org?utm_source=blockscout","tooltipAttributionIcon":"https://blockscout-icons.s3.us-east-1.amazonaws.com/OLI_tag_logo.svg","tooltipDescription":"Provided
        by OLI"},"name":"MasterChefReward","ordinal":0,"slug":"masterchefreward","tagType":"name"}]},"name":"MasterChefReward","private_tags":[],"proxy_type":null,"public_tags":[],"reputation":"ok","watchlist_names":[]},"authorization_list":[],"l1_fee":"570577947","method":"withdraw","fee":{"type":"actual","value":"207072278381"},"actions":[],"gas_limit":"228798","gas_price":"1001881","decoded_input":{"method_call":"withdraw(uint256
        _pid, uint256 _amount)","method_id":"441a3e70","parameters":[{"name":"_pid","type":"uint256","value":"3"},{"name":"_amount","type":"uint256","value":"98147836"}]},"l1_gas_price":"39520493","token_transfers":[{"block_hash":"0x9d63463c3b9af72f1569cbfb7a665a9d29e808dc28d96d2bf244d552a96fc857","block_number":148093283,"from":{"ens_domain_name":null,"hash":"0xc0f8C29e3a9A7650a3F642e467d70087819926d6","implementations":[],"is_contract":true,"is_scam":false,"is_verified":true,"metadata":{"tags":[{"meta":{},"name":"WOO","ordinal":0,"slug":"woo","tagType":"generic"},{"meta":{"tagIcon
        ":"https://blockscout-icons.s3.us-east-1.amazonaws.com/OLI_tag_logo.svg","textColor":"#C163D4","tooltipAttribution":"https://www.openlabelsinitiative.org?utm_source=blockscout","tooltipAttributionIcon":"https://blockscout-icons.s3.us-east-1.amazonaws.com/OLI_tag_logo.svg","tooltipDescription":"Provided
        by OLI"},"name":"MasterChefReward","ordinal":0,"slug":"masterchefreward","tagType":"name"}]},"name":"MasterChefReward","private_tags":[],"proxy_type":null,"public_tags":[],"reputation":"ok","watchlist_names":[]},"log_index":18,"method":null,"timestamp":null,"to":{"ens_domain_name":null,"hash":"0x0aF640D56210545B52eb119A10ace8b463CA2614","implementations":[],"is_contract":false,"is_scam":false,"is_verified":false,"metadata":null,"name":null,"private_tags":[],"proxy_type":null,"public_tags":[],"reputation":"ok","watchlist_names":[]},"token":{"address_hash":"0x871f2F2ff935FD1eD867842FF2a7bfD051A5E527","circulating_market_cap":null,"decimals":"18","exchange_rate":null,"holders_count":"5081","icon_url":null,"name":"Wootrade
        Network","reputation":"ok","symbol":"WOO","total_supply":"2225633894758817867818435","type":"ERC-20","volume_24h":null},"token_type":"ERC-20","total":{"decimals":"18","value":"2853338917933214378"},"transaction_hash":"0x50511c1bd6d67fcc38cfca49b3f129a3a9f941530046655b871d96c12b221206","type":"token_transfer"},{"block_hash":"0x9d63463c3b9af72f1569cbfb7a665a9d29e808dc28d96d2bf244d552a96fc857","block_number":148093283,"from":{"ens_domain_name":null,"hash":"0xF9010da2E667F666CC3d18282BA47e41AA1D456f","implementations":[],"is_contract":true,"is_scam":false,"is_verified":false,"metadata":null,"name":null,"private_tags":[],"proxy_type":null,"public_tags":[],"reputation":"ok","watchlist_names":[]},"log_index":19,"method":null,"timestamp":null,"to":{"ens_domain_name":null,"hash":"0x0aF640D56210545B52eb119A10ace8b463CA2614","implementations":[],"is_contract":false,"is_scam":false,"is_verified":false,"metadata":null,"name":null,"private_tags":[],"proxy_type":null,"public_tags":[],"reputation":"ok","watchlist_names":[]},"token":{"address_hash":"0x4200000000000000000000000000000000000042","circulating_market_cap":"247940853.801741","decimals":"18","exchange_rate":"0.117071","holders_count":"1381283","icon_url":"https://assets.coingecko.com/coins/images/25244/small/Optimism.png?1696524385","name":"Optimism","reputation":"ok","symbol":"OP","total_supply":"4294963292498750113616177748","type":"ERC-20","volume_24h":"75746026.36558683"},"token_type":"ERC-20","total":{"decimals":"18","value":"2328719759986333682"},"transaction_hash":"0x50511c1bd6d67fcc38cfca49b3f129a3a9f941530046655b871d96c12b221206","type":"token_transfer"},{"block_hash":"0x9d63463c3b9af72f1569cbfb7a665a9d29e808dc28d96d2bf244d552a96fc857","block_number":148093283,"from":{"ens_domain_name":null,"hash":"0xc0f8C29e3a9A7650a3F642e467d70087819926d6","implementations":[],"is_contract":true,"is_scam":false,"is_verified":true,"metadata":{"tags":[{"meta":{},"name":"WOO","ordinal":0,"slug":"woo","tagType":"generic"},{"meta":{"tagIcon
        ":"https://blockscout-icons.s3.us-east-1.amazonaws.com/OLI_tag_logo.svg","textColor":"#C163D4","tooltipAttribution":"https://www.openlabelsinitiative.org?utm_source=blockscout","tooltipAttributionIcon":"https://blockscout-icons.s3.us-east-1.amazonaws.com/OLI_tag_logo.svg","tooltipDescription":"Provided
        by OLI"},"name":"MasterChefReward","ordinal":0,"slug":"masterchefreward","tagType":"name"}]},"name":"MasterChefReward","private_tags":[],"proxy_type":null,"public_tags":[],"reputation":"ok","watchlist_names":[]},"log_index":22,"method":null,"timestamp":null,"to":{"ens_domain_name":null,"hash":"0x0aF640D56210545B52eb119A10ace8b463CA2614","implementations":[],"is_contract":false,"is_scam":false,"is_verified":false,"metadata":null,"name":null,"private_tags":[],"proxy_type":null,"public_tags":[],"reputation":"ok","watchlist_names":[]},"token":{"address_hash":"0x18aa88bb25b8f15FDbE329f789dD000bf679753E","circulating_market_cap":null,"decimals":"18","exchange_rate":null,"holders_count":"61","icon_url":null,"name":"WOOFi
        Super Charger USD Coin","reputation":"ok","symbol":"weUSDC","total_supply":"359410358307","type":"ERC-20","volume_24h":null},"token_type":"ERC-20","total":{"decimals":"18","value":"98147836"},"transaction_hash":"0x50511c1bd6d67fcc38cfca49b3f129a3a9f941530046655b871d96c12b221206","type":"token_transfer"}],"base_fee_per_gas":"1882","timestamp":"2026-02-22T18:35:43.000000Z","nonce":633,"historic_exchange_rate":"1957.22","transaction_types":["contract_call","token_transfer"],"exchange_rate":"1853.7","block_number":148093283,"has_error_in_internal_transactions":false,"da_footprint_gas_scalar":"400"}'
    headers:
      CF-RAY:
      - 9d31861b4960673b-ATL
      Cache-Control:
      - max-age=0, private, must-revalidate
      Connection:
      - keep-alive
      Content-Type:
      - application/json; charset=utf-8
      Date:
      - Tue, 24 Feb 2026 19:56:01 GMT
      Nel:
      - '{"report_to":"cf-nel","success_fraction":0.0,"max_age":604800}'
      Report-To:
      - '{"group":"cf-nel","max_age":604800,"endpoints":[{"url":"https://a.nel.cloudflare.com/report/v4?s=sgu1kQN7BO74NWEvLvWc1lU4SfYPHXB7NMU6FZjoTlJYpYzUVLi3OxqY%2FoS7rtYTx5PGPtvQYPuFhBQ04Yu9RjXCD7xkdhixEIC9pojRx%2FJZhfvo"}]}'
      Server:
      - cloudflare
      Transfer-Encoding:
      - chunked
      access-control-allow-credentials:
      - 'true'
      access-control-allow-origin:
      - '*'
      access-control-expose-headers:
      - bypass-429-option,x-ratelimit-reset,x-ratelimit-limit,x-ratelimit-remaining,api-v2-temp-token
      alt-svc:
      - h3=":443"; ma=86400
      bypass-429-option:
      - temporary_token
      cf-cache-status:
      - DYNAMIC
      content-length:
      - '7222'
      strict-transport-security:
      - max-age=31536000; includeSubDomains
      x-ratelimit-limit:
      - '600'
      x-ratelimit-remaining:
      - '597'
      x-ratelimit-reset:
      - '58779'
      x-request-id:
      - d9380a9db6d6ce2e3d1a075660ff82b2
    status:
      code: 200
      message: OK
- request:
    body: null
    headers:
      Accept:
      - '*/*'
      Accept-Encoding:
      - gzip, deflate
      Connection:
      - keep-alive
      User-Agent:
      - rotki/1.41.4.dev762+ge38047a983
    method: GET
    uri: https://explorer.optimism.io/api?action=txlistinternal&module=account&sort=asc&txhash=0x50511c1bd6d67fcc38cfca49b3f129a3a9f941530046655b871d96c12b221206
  response:
    body:
      string: '{"message":"No internal transactions found","result":[],"status":"0"}'
    headers:
      CF-RAY:
      - 9d31861f3f8586ab-ATL
      Cache-Control:
      - max-age=0, private, must-revalidate
      Connection:
      - keep-alive
      Content-Type:
      - application/json; charset=utf-8
      Date:
      - Tue, 24 Feb 2026 19:56:02 GMT
      Nel:
      - '{"report_to":"cf-nel","success_fraction":0.0,"max_age":604800}'
      Report-To:
      - '{"group":"cf-nel","max_age":604800,"endpoints":[{"url":"https://a.nel.cloudflare.com/report/v4?s=A%2Bj1H%2BLdteeFLe7bNpzVf5Tp6QoXbnA%2BYJbGWHnMZry%2FH9sNlkOtZR2ds67eYytVCpA%2FKBAZVmLQzAtvDpqEwPY%2B%2BmROdbOXSwvl22nPagJBHcOE"}]}'
      Server:
      - cloudflare
      Transfer-Encoding:
      - chunked
      access-control-allow-credentials:
      - 'true'
      access-control-allow-origin:
      - '*'
      access-control-expose-headers:
      - bypass-429-option,x-ratelimit-reset,x-ratelimit-limit,x-ratelimit-remaining,api-v2-temp-token
      alt-svc:
      - h3=":443"; ma=86400
      bypass-429-option:
      - no_bypass
      cf-cache-status:
      - DYNAMIC
      content-length:
      - '69'
      strict-transport-security:
      - max-age=31536000; includeSubDomains
      x-ratelimit-limit:
      - '600'
      x-ratelimit-remaining:
      - '596'
      x-ratelimit-reset:
      - '57882'
      x-request-id:
      - 244d3860ea837c2022727dce83bdc91f
    status:
      code: 200
      message: OK
- request:
    body: '{"id": 0, "jsonrpc": "2.0", "method": "eth_call", "params": [{"to": "0x2DC0E2aa608532Da689e89e237dF582B783E552C",
      "data": "0xbce38bd7000000000000000000000000000000000000000000000000000000000000000000000000000000000000000000000000000000000000000000000000000000400000000000000000000000000000000000000000000000000000000000000003000000000000000000000000000000000000000000000000000000000000006000000000000000000000000000000000000000000000000000000000000000e0000000000000000000000000000000000000000000000000000000000000016000000000000000000000000018aa88bb25b8f15fdbe329f789dd000bf679753e00000000000000000000000000000000000000000000000000000000000000400000000000000000000000000000000000000000000000000000000000000004313ce5670000000000000000000000000000000000000000000000000000000000000000000000000000000018aa88bb25b8f15fdbe329f789dd000bf679753e0000000000000000000000000000000000000000000000000000000000000040000000000000000000000000000000000000000000000000000000000000000495d89b410000000000000000000000000000000000000000000000000000000000000000000000000000000018aa88bb25b8f15fdbe329f789dd000bf679753e0000000000000000000000000000000000000000000000000000000000000040000000000000000000000000000000000000000000000000000000000000000406fdde0300000000000000000000000000000000000000000000000000000000"},
      "latest"]}'
    headers:
      Accept:
      - '*/*'
      Accept-Encoding:
      - gzip, deflate
      Connection:
      - keep-alive
      Content-Length:
      - '1299'
      Content-Type:
      - application/json
      User-Agent:
      - rotki/1.41.4.dev762+ge38047a983
    method: POST
    uri: https://explorer.optimism.io/api/eth-rpc
  response:
    body:
      string: '{"jsonrpc":"2.0","result": "0x00000000000000000000000000000000000000000000000000000000000000200000000000000000000000000000000000000000000000000000000000000003000000000000000000000000000000000000000000000000000000000000006000000000000000000000000000000000000000000000000000000000000000e000000000000000000000000000000000000000000000000000000000000001a000000000000000000000000000000000000000000000000000000000000000010000000000000000000000000000000000000000000000000000000000000040000000000000000000000000000000000000000000000000000000000000002000000000000000000000000000000000000000000000000000000000000000120000000000000000000000000000000000000000000000000000000000000001000000000000000000000000000000000000000000000000000000000000004000000000000000000000000000000000000000000000000000000000000000600000000000000000000000000000000000000000000000000000000000000020000000000000000000000000000000000000000000000000000000000000000677655553444300000000000000000000000000000000000000000000000000000000000000000000000000000000000000000000000000000000000000000001000000000000000000000000000000000000000000000000000000000000004000000000000000000000000000000000000000000000000000000000000000600000000000000000000000000000000000000000000000000000000000000020000000000000000000000000000000000000000000000000000000000000001c574f4f466920537570657220436861726765722055534420436f696e00000000","id":
        0}

        '
    headers:
      CF-RAY:
      - 9d318623ea9bdd19-ATL
      Cache-Control:
      - max-age=0, private, must-revalidate
      Connection:
      - keep-alive
      Content-Type:
      - application/json; charset=utf-8
      Date:
      - Tue, 24 Feb 2026 19:56:02 GMT
      Nel:
      - '{"report_to":"cf-nel","success_fraction":0.0,"max_age":604800}'
      Report-To:
      - '{"group":"cf-nel","max_age":604800,"endpoints":[{"url":"https://a.nel.cloudflare.com/report/v4?s=cIPrp8xtZmNM5GgP5FY%2FOmgVyWufkn2Rs1VNBdg6pRqJeYeKSvov80s8xapV%2Bycriqm2gqACVgvDmmZdkuLwGiiHu%2F2fNX%2FV3QwguEnAJU0BTtMy"}]}'
      Server:
      - cloudflare
      Transfer-Encoding:
      - chunked
      access-control-allow-credentials:
      - 'true'
      access-control-allow-origin:
      - '*'
      access-control-expose-headers:
      - bypass-429-option,x-ratelimit-reset,x-ratelimit-limit,x-ratelimit-remaining,api-v2-temp-token
      alt-svc:
      - h3=":443"; ma=86400
      bypass-429-option:
      - no_bypass
      cf-cache-status:
      - DYNAMIC
      content-length:
      - '1385'
      strict-transport-security:
      - max-age=31536000; includeSubDomains
      x-ratelimit-limit:
      - '600'
      x-ratelimit-remaining:
      - '595'
      x-ratelimit-reset:
      - '57403'
      x-request-id:
      - 4476e5ef64aaa9efc247729d87d4f931
    status:
      code: 200
      message: OK
- request:
    body: '{"id": 0, "jsonrpc": "2.0", "method": "eth_call", "params": [{"to": "0xc0f8C29e3a9A7650a3F642e467d70087819926d6",
      "data": "0x1526fe270000000000000000000000000000000000000000000000000000000000000003"},
      "latest"]}'
    headers:
      Accept:
      - '*/*'
      Accept-Encoding:
      - gzip, deflate
      Connection:
      - keep-alive
      Content-Length:
      - '211'
      Content-Type:
      - application/json
      User-Agent:
      - rotki/1.41.4.dev762+ge38047a983
    method: POST
    uri: https://explorer.optimism.io/api/eth-rpc
  response:
    body:
      string: '{"jsonrpc":"2.0","result": "0x00000000000000000000000018aa88bb25b8f15fdbe329f789dd000bf679753e00000000000000000000000000000000000000000000000000000000000000640000000000000000000000000000000000000000000000000000000008d3b963000000000000000000000000000000000000000000002cffd26fb5ff608b55b8000000000000000000000000f9010da2e667f666cc3d18282ba47e41aa1d456f","id":
        0}

        '
    headers:
      CF-RAY:
      - 9d3186258be0b0e1-ATL
      Cache-Control:
      - max-age=0, private, must-revalidate
      Connection:
      - keep-alive
      Content-Type:
      - application/json; charset=utf-8
      Date:
      - Tue, 24 Feb 2026 19:56:03 GMT
      Nel:
      - '{"report_to":"cf-nel","success_fraction":0.0,"max_age":604800}'
      Report-To:
      - '{"group":"cf-nel","max_age":604800,"endpoints":[{"url":"https://a.nel.cloudflare.com/report/v4?s=x7gHO7hBC7VJe96khI9zC%2BNoxsIk6AP3VUAKABX9uwWI5hqDjNef%2BMljLnx3w706DJWN1CNByKTeExqhZ4PPeMsToi2ZXOuYAyNhZKu0%2BL8ZCxA4"}]}'
      Server:
      - cloudflare
      Transfer-Encoding:
      - chunked
      access-control-allow-credentials:
      - 'true'
      access-control-allow-origin:
      - '*'
      access-control-expose-headers:
      - bypass-429-option,x-ratelimit-reset,x-ratelimit-limit,x-ratelimit-remaining,api-v2-temp-token
      alt-svc:
      - h3=":443"; ma=86400
      bypass-429-option:
      - no_bypass
      cf-cache-status:
      - DYNAMIC
      content-length:
      - '361'
      strict-transport-security:
      - max-age=31536000; includeSubDomains
      x-ratelimit-limit:
      - '600'
      x-ratelimit-remaining:
      - '594'
      x-ratelimit-reset:
      - '56872'
      x-request-id:
      - 0bdd0610b79d2c08cd9b52ef87ed6121
    status:
      code: 200
      message: OK
version: 1
