interactions:
- request:
    body: '{"id": 0, "jsonrpc": "2.0", "method": "eth_getTransactionByHash", "params":
      ["0xd3c97377da03117ba7b7e245acd544d4626c09d0ca3399dea6fd8f5c755c627b"]}'
    headers:
      Accept:
      - '*/*'
      Accept-Encoding:
      - gzip, deflate
      Connection:
      - keep-alive
      Content-Length:
      - '147'
      Content-Type:
      - application/json
      User-Agent:
      - rotki/1.41.2.dev1008+g426721fd6f
    method: POST
    uri: https://explorer.optimism.io/api/eth-rpc
  response:
    body:
      string: '{"jsonrpc":"2.0","result": {"accessList":[],"blockHash":"0x114716ef4cc2bec6533a9467e0c64237734aca7ffd98dba5cd3a5019b00ab854","blockNumber":"0x7bdafaa","chainId":"0xa","from":"0x4c3fa36a3c10fd7a8cd3530a4a9ac6cb7aa341cc","gas":"0x24afe","gasPrice":"0xf442b","hash":"0xd3c97377da03117ba7b7e245acd544d4626c09d0ca3399dea6fd8f5c755c627b","input":"0x3d18b912","maxFeePerGas":"0xf442b","maxPriorityFeePerGas":"0xf442b","nonce":"0x30c","r":"0xa716a9f51eca86a7a99fd7dae32104125c22c07a3ee906b64e1897c626f8b919","s":"0x456d28c5ccbc9f6774332d60b1191004789fee272c8f0d86b4c03d030e7749bd","to":"0xdbf55813b8993aa987253f0e2d0203e87da76407","transactionIndex":"0xb","type":"0x2","v":"0x0","value":"0x0","yParity":"0x0"},"id":
        0}

        '
    headers:
      CF-RAY:
      - 9dbbc46138696d1d-AMS
      Cache-Control:
      - max-age=0, private, must-revalidate
      Connection:
      - keep-alive
      Content-Type:
      - application/json; charset=utf-8
      Date:
      - Fri, 13 Mar 2026 14:35:46 GMT
      Nel:
      - '{"report_to":"cf-nel","success_fraction":0.0,"max_age":604800}'
      Report-To:
      - '{"group":"cf-nel","max_age":604800,"endpoints":[{"url":"https://a.nel.cloudflare.com/report/v4?s=Igc1SuTtbEyduGMuhqqhz9OadnKDrQX7FMcDiCeYMJ5EONGLI3PhsnXdOOH8ZypCGrO0%2Fl30kPQOfEATs7qmXKntfBMfdMn01FZ9tz8CndTQQ7BJ4xgZWfPvTVqJJ78Q"}]}'
      Server:
      - cloudflare
      Transfer-Encoding:
      - chunked
      access-control-allow-credentials:
      - 'true'
      access-control-allow-origin:
      - '*'
      access-control-expose-headers:
      - bypass-429-option,x-ratelimit-reset,x-ratelimit-limit,x-ratelimit-remaining,api-v2-temp-token
      alt-svc:
      - h3=":443"; ma=86400
      bypass-429-option:
      - no_bypass
      cf-cache-status:
      - DYNAMIC
      content-length:
      - '711'
      strict-transport-security:
      - max-age=31536000; includeSubDomains
      x-ratelimit-limit:
      - '600'
      x-ratelimit-remaining:
      - '599'
      x-ratelimit-reset:
      - '13229'
      x-request-id:
      - a13d682c4541163ec2a53e88629a4738
    status:
      code: 200
      message: OK
- request:
    body: '{"id": 0, "jsonrpc": "2.0", "method": "eth_getBlockByNumber", "params":
      ["0x7bdafaa", true]}'
    headers:
      Accept:
      - '*/*'
      Accept-Encoding:
      - gzip, deflate
      Connection:
      - keep-alive
      Content-Length:
      - '92'
      Content-Type:
      - application/json
      User-Agent:
      - rotki/1.41.2.dev1008+g426721fd6f
    method: POST
    uri: https://explorer.optimism.io/api/eth-rpc
  response:
    body:
      string: '{"jsonrpc":"2.0","result": {"baseFeePerGas":"0x1ec","blobGasUsed":"0x0","difficulty":"0x0","excessBlobGas":"0x0","extraData":"0x","gasLimit":"0x3938700","gasUsed":"0x5d2115","hash":"0x114716ef4cc2bec6533a9467e0c64237734aca7ffd98dba5cd3a5019b00ab854","logsBloom":"0x020028000000040000000000000002000000022800004210000400400010200000000010020002020000001000040000004400000142210000000000002022c0000002040000004820000008000800000004140000800000000000002000000104014000021000408050000001008880000000020010080000000810000800000040000000000000000000080200802000000440002100000000000002200008160000028000000000100000080002000000000000400201000444002000006080001002000000000000004480020000009000000000000020000000000020000010040000c00000001000800900802000000800018000000400080000010200","miner":"0x4200000000000000000000000000000000000011","mixHash":"0x9ffd634de1abe0d4835a82a82dd3edd2a9709d2864d62a2621ede4111e6b3e91","nonce":"0x0000000000000000","number":"0x7bdafaa","parentBeaconBlockRoot":"0x885d15c38c754c3dcb1c7e0e30c525a3b99da9aea0258078543e19fe96a67e7c","parentHash":"0x5ac27a7f7723af9588b56292fa1780c25d44352bcb174abd3906a21b5c394e91","receiptsRoot":"0x1d47eb6f29225c55c760923a31016cd69558222545c2128a75bb53f17c8456a3","sha3Uncles":"0x1dcc4de8dec75d7aab85b567b6ccd41ad312451b948a7413f0a142fd40d49347","size":"0x1977","stateRoot":"0x10dc346dc3b7c3cffcc22f6549011b629b8bc0d67c029908298079880b1fa301","timestamp":"0x676f390d","transactions":[{"blockHash":"0x114716ef4cc2bec6533a9467e0c64237734aca7ffd98dba5cd3a5019b00ab854","blockNumber":"0x7bdafaa","depositReceiptVersion":"0x1","from":"0xdeaddeaddeaddeaddeaddeaddeaddeaddead0001","gas":"0xf4240","gasPrice":"0x0","hash":"0x038bb70fc9c6b1f98b3538fe90a413830ddddabf5b63c62d713ef50ddf9f1800","input":"0x440a5e200000146b000f79c5000000000000000000000000676f3883000000000148050000000000000000000000000000000000000000000000000000000000d1faa0410000000000000000000000000000000000000000000000000000000074f2742218749554859564e0f18ce1b80612946ba89fa8df099fff66f1d1000164c3ed130000000000000000000000006887246668a3b87f54deb3b94ba47a6f63f32985","mint":"0x0","nonce":"0x177ed34","r":"0x0","s":"0x0","sourceHash":"0x865b6bb0f342b75f256b6157db0ae9f9f3054c6b5deddddf9ea0d8458c8655cc","to":"0x4200000000000000000000000000000000000015","transactionIndex":"0x0","type":"0x7e","v":"0x0","value":"0x0","yParity":"0x0"},{"accessList":[],"blockHash":"0x114716ef4cc2bec6533a9467e0c64237734aca7ffd98dba5cd3a5019b00ab854","blockNumber":"0x7bdafaa","chainId":"0xa","from":"0xd799852a32ec4f6a024ece1f2704e527d736a85e","gas":"0x989680","gasPrice":"0x2193ac","hash":"0x006a27a3df8f91360d5605c064d98c914bcba8eec68243183d43518896e407c9","input":"0x0001","maxFeePerGas":"0x3938700","maxPriorityFeePerGas":"0x2191c0","nonce":"0x9472","r":"0x4e175977efcca2ff1856bc52f5517fa4fecc447a5b061f39d40cf7e855b0cce2","s":"0x7b058c7814c1eeaa402adfdc4a4eebbced3cf890cd1145745b74cd55962e7757","to":"0xcdcca22e3b1e0170532eea4b14e5fb3a73b45c8f","transactionIndex":"0x1","type":"0x2","v":"0x1","value":"0x0","yParity":"0x1"},{"blockHash":"0x114716ef4cc2bec6533a9467e0c64237734aca7ffd98dba5cd3a5019b00ab854","blockNumber":"0x7bdafaa","chainId":"0xa","from":"0x756dab6280de64f2c58a2c693a1528fcaf23ec5a","gas":"0xf4240","gasPrice":"0x1a5248","hash":"0x17bd3852b3c67e3a6ca45a56624c9a416c24fd4098529455095cea11770f421f","input":"0xa026383e0000000000000000000000001f32b1c2345538c0c6f582fcb022739c4a194ebb0000000000000000000000000b2c639c533813f4aa9d7837caf62653d097ff850000000000000000000000000000000000000000000000000000000000000064000000000000000000000000756dab6280de64f2c58a2c693a1528fcaf23ec5a00000000000000000000000000000000000000000000000000000000676f3b6200000000000000000000000000000000000000000000000002b4c77783338000000000000000000000000000000000000000000000000000000000002dc0223f0000000000000000000000000000000000000000000000000000000000000000","nonce":"0x62b99","r":"0x562a6b96115a067a75de22de6c771f6380dc27a713e88afe626dc326123cfa41","s":"0x11fd9f5f34e170c45076780d48667fd226a153bd922e2dd72f611714cf3e7ea","to":"0x0792a633f0c19c351081cf4b211f68f79bcc9676","transactionIndex":"0x2","type":"0x0","v":"0x37","value":"0x0"},{"blockHash":"0x114716ef4cc2bec6533a9467e0c64237734aca7ffd98dba5cd3a5019b00ab854","blockNumber":"0x7bdafaa","chainId":"0xa","from":"0x756dab6280de64f2c58a2c693a1528fcaf23ec5a","gas":"0xf4240","gasPrice":"0x1a5248","hash":"0xacb7c8d44e3063be209aab5918c7f7274141a9e1505fa9f8bbe9a0100ef79624","input":"0xa026383e0000000000000000000000000b2c639c533813f4aa9d7837caf62653d097ff850000000000000000000000001f32b1c2345538c0c6f582fcb022739c4a194ebb0000000000000000000000000000000000000000000000000000000000000064000000000000000000000000756dab6280de64f2c58a2c693a1528fcaf23ec5a00000000000000000000000000000000000000000000000000000000676f39880000000000000000000000000000000000000000000000000000000026be36800000000000000000000000000000000000000000000000000249eb0a7d425b6a0000000000000000000000000000000000000000000000000000000000000000","nonce":"0x62b9a","r":"0x5efb753ffbb0520b39075b3db601008a595210437238682508526b825542727b","s":"0x2b0a45865198888d4bc1bc5c5c50633f3b87c6e1a5d420eda13c3e764490c587","to":"0x0792a633f0c19c351081cf4b211f68f79bcc9676","transactionIndex":"0x3","type":"0x0","v":"0x37","value":"0x0"},{"blockHash":"0x114716ef4cc2bec6533a9467e0c64237734aca7ffd98dba5cd3a5019b00ab854","blockNumber":"0x7bdafaa","chainId":"0xa","from":"0x756dab6280de64f2c58a2c693a1528fcaf23ec5a","gas":"0xf4240","gasPrice":"0x1a5248","hash":"0x1239e092fa8cc8f4ff7cf0d470fd41ad810870c429d17c34cfabcde1a075a60d","input":"0xa026383e00000000000000000000000073cb180bf0521828d8849bc8cf2b920918e2303200000000000000000000000042000000000000000000000000000000000000060000000000000000000000000000000000000000000000000000000000000064000000000000000000000000756dab6280de64f2c58a2c693a1528fcaf23ec5a00000000000000000000000000000000000000000000000000000000676f399300000000000000000000000000000000000000000000000000000000077359400000000000000000000000000000000000000000000000000085c321102501de0000000000000000000000000000000000000000000000000000000000000000","nonce":"0x62b9b","r":"0x8386723bb1959fe52cc3964a699bd5a59a7dfef778005ec2e037bc4ba57a7556","s":"0x2ec6c29dd1cef298c877d9427383b75a8d88bfbd966938c312dba683191dddbf","to":"0x0792a633f0c19c351081cf4b211f68f79bcc9676","transactionIndex":"0x4","type":"0x0","v":"0x38","value":"0x0"},{"blockHash":"0x114716ef4cc2bec6533a9467e0c64237734aca7ffd98dba5cd3a5019b00ab854","blockNumber":"0x7bdafaa","chainId":"0xa","from":"0x756dab6280de64f2c58a2c693a1528fcaf23ec5a","gas":"0xf4240","gasPrice":"0x1a5248","hash":"0xe15d27c9304b2d01a1e39d8f5e389b07d9fcb75c2b99c1991281e1d498f3b807","input":"0xa026383e0000000000000000000000000b2c639c533813f4aa9d7837caf62653d097ff8500000000000000000000000042000000000000000000000000000000000000060000000000000000000000000000000000000000000000000000000000000064000000000000000000000000756dab6280de64f2c58a2c693a1528fcaf23ec5a00000000000000000000000000000000000000000000000000000000676f39e90000000000000000000000000000000000000000000000000000000020c85580000000000000000000000000000000000000000000000000024c704eb1ef013e0000000000000000000000000000000000000000000000000000000000000000","nonce":"0x62b9c","r":"0x8d309437b6774d3fc776f8126f10b751ae775d7ee52eeb9bbdc9d17995d6d10f","s":"0x7f620478b458b04d65b5e8dd1b192a15190fe973383e9aeec8be2d609150b032","to":"0x0792a633f0c19c351081cf4b211f68f79bcc9676","transactionIndex":"0x5","type":"0x0","v":"0x37","value":"0x0"},{"blockHash":"0x114716ef4cc2bec6533a9467e0c64237734aca7ffd98dba5cd3a5019b00ab854","blockNumber":"0x7bdafaa","chainId":"0xa","from":"0x756dab6280de64f2c58a2c693a1528fcaf23ec5a","gas":"0xf4240","gasPrice":"0x1a5248","hash":"0xbf9750ecbd0c36728a980c8ea65b9e2e6c63fe8a1990a92eeaa3170fe5675fd5","input":"0xa026383e0000000000000000000000000b2c639c533813f4aa9d7837caf62653d097ff850000000000000000000000001f32b1c2345538c0c6f582fcb022739c4a194ebb0000000000000000000000000000000000000000000000000000000000000064000000000000000000000000756dab6280de64f2c58a2c693a1528fcaf23ec5a00000000000000000000000000000000000000000000000000000000676f39ec000000000000000000000000000000000000000000000000000000002faf080000000000000000000000000000000000000000000000000002d0f7a5d449b12d0000000000000000000000000000000000000000000000000000000000000000","nonce":"0x62b9d","r":"0xfb8f8ffd9aa2aac20b72d583f98e86c485c92764de8328f26f5f68461715a59a","s":"0x2586b54f3d1db74c9dcd3efd2f44cf9ec9d26f56ddc14078f1fea7c4aeca1269","to":"0x0792a633f0c19c351081cf4b211f68f79bcc9676","transactionIndex":"0x6","type":"0x0","v":"0x37","value":"0x0"},{"blockHash":"0x114716ef4cc2bec6533a9467e0c64237734aca7ffd98dba5cd3a5019b00ab854","blockNumber":"0x7bdafaa","chainId":"0xa","from":"0x756dab6280de64f2c58a2c693a1528fcaf23ec5a","gas":"0xf4240","gasPrice":"0x1a5248","hash":"0x62d6e16b5ccb0bcc49fed098b48d5020dda3c6b6b01d8445855462c44f7ef1f9","input":"0xa026383e0000000000000000000000001f32b1c2345538c0c6f582fcb022739c4a194ebb0000000000000000000000000b2c639c533813f4aa9d7837caf62653d097ff850000000000000000000000000000000000000000000000000000000000000064000000000000000000000000756dab6280de64f2c58a2c693a1528fcaf23ec5a00000000000000000000000000000000000000000000000000000000676f3b5200000000000000000000000000000000000000000000000004c9afac0f8280000000000000000000000000000000000000000000000000000000000050f177ab0000000000000000000000000000000000000000000000000000000000000000","nonce":"0x62b9e","r":"0x61aa91b0d216de1876f9df06777d7d6bbffcf209e0cb5264f583c571287e585e","s":"0x66291356c31309bc76f882a326354058c8b60790e69798cb705ed45891a1fc37","to":"0x0792a633f0c19c351081cf4b211f68f79bcc9676","transactionIndex":"0x7","type":"0x0","v":"0x37","value":"0x0"},{"blockHash":"0x114716ef4cc2bec6533a9467e0c64237734aca7ffd98dba5cd3a5019b00ab854","blockNumber":"0x7bdafaa","chainId":"0xa","from":"0xe93685f3bba03016f02bd1828badd6195988d950","gas":"0x8a55a","gasPrice":"0x1251ce","hash":"0xf5d735543714ff8cc9c1a93f80a0dc3bf9ed6474fc3a1b21cda8ec5baf731749","input":"0xcfc325700000000000000000000000000000000000000000000000000000000000000020000000000000000000000000f1fcb4cbd57b67d683972a59b6a7b1e2e8bf27e600000000000000000000000000000000000000000000000000000000000075e80000000000000000000000005634c4a5fed09819e3c46d86a965dd9447d86e470000000000000000000000000000000000000000000000000000000000017b30bc18bebe02fa835c12a7d30c0a3138f3b0cc400d2307d7c4a6a84ac52f22472f0000000000000000000000000000000000000000000000000000000000000100000000000000000000000000000000000000000000000000000000000000020000000000000000000000000000000000000000000000000000000000000514c800000000000000000000000000000000000000000000000000000000000000cd0200000000000000000000000000000000000000000000000000001b48eb57e000000d000000000000000000000000bed9f8df9196d6a4e6f7a9d122993f5b8fb8e8fa00000000000027ab00000d0000000000000000000000003bcb90dd3870922beb26a9a53000548a86ea6aac0000000000003d1000000d000000000000000000000000dc74f4a873c605b8bb79792655b5d087405f06d4000000000000270b00000d00000000000000000000000003c07af5c8c04e9eb75e26f3b8d5aa26a80ec1dd000000000000292300000000000000000000000000000000000000000000000000000000000000000000000000000000000000000000000000000000","nonce":"0x9cb9c2","r":"0xf39844bcf05241da488a93564b6ef94bce28c5a5000db3c4e741a0fe09f1f3a5","s":"0x4814209684d1ce5c45cbdb9bf629e49207519b34d98a2c6ef9b7e7fe52395822","to":"0x2d2ea0697bdbede3f01553d2ae4b8d0c486b666e","transactionIndex":"0x8","type":"0x0","v":"0x37","value":"0x0"},{"accessList":[],"blockHash":"0x114716ef4cc2bec6533a9467e0c64237734aca7ffd98dba5cd3a5019b00ab854","blockNumber":"0x7bdafaa","chainId":"0xa","from":"0x26165f32607d3f8bee6cd5f0c58e94df77291af3","gas":"0x100801","gasPrice":"0xf442c","hash":"0x5fa1cc31edbbae14533a66135cc8ee6b0ee8756c4ae769ec206ea401226418c3","input":"0x14d530770000000000000000000000000000000000000000000000000000000000000040000000000000000000000000000000000000000000000000000000000000020035702c8348efb355f2190d2add52108b9cc369d0d30cd5fec48edb7bee765d7b000000000000000000000000000000000000000000000000000000000000014000000000000000000000000000000000000000000000000000000000000001800000000000000000000000000000000000000000000000000000000000000000000000000000000000000000000000000000000000000000000000000000000000000000000000000000000026165f32607d3f8bee6cd5f0c58e94df77291af300000000000000000000000000000000000000000000000006341021b6998000000000000000000000000000000000000000000000000000000000000000210500000000000000000000000000000000000000000000000000000000000000000000000000000000000000000000000000000000000000000000000000000000000000000000000000000000000000000000000000000000000000000000000a7374617267617465563200000000000000000000000000000000000000000000000000000000000000000000000000000000000000000000000000000000000f6a756d7065722e65786368616e67650000000000000000000000000000000000000000000000000000000000000000000000000000000000000000000000000d00000000000000000000000000000000000000000000000000000000000000a00000000000000000000000000000000000000000000000000000137f43f71715000000000000000000000000000000000000000000000000000000000000000000000000000000000000000026165f32607d3f8bee6cd5f0c58e94df77291af300000000000000000000000000000000000000000000000000000000000075e800000000000000000000000026165f32607d3f8bee6cd5f0c58e94df77291af300000000000000000000000000000000000000000000000006341021b6998000000000000000000000000000000000000000000000000000000000000000000000000000000000000000000000000000000000000000000000000000000000e000000000000000000000000000000000000000000000000000000000000001000000000000000000000000000000000000000000000000000000000000000120000000000000000000000000000000000000000000000000000000000000000000000000000000000000000000000000000000000000000000000000000000000000000000000000000000000000000000000000000000000000000000000000","maxFeePerGas":"0xf4434","maxPriorityFeePerGas":"0xf4240","nonce":"0x119","r":"0x1e1788df087ff72d8f771201fdc934c43c9752741c0eaa2cc4ba2e33909d4388","s":"0x23026286d184afd155ee13525901bbc013560d8a100a91c57534906c819ce92e","to":"0x1231deb6f5749ef6ce6943a275a1d3e7486f4eae","transactionIndex":"0x9","type":"0x2","v":"0x1","value":"0x63423a0fa909715","yParity":"0x1"},{"accessList":[],"blockHash":"0x114716ef4cc2bec6533a9467e0c64237734aca7ffd98dba5cd3a5019b00ab854","blockNumber":"0x7bdafaa","chainId":"0xa","from":"0x7d16c02989b3f55095f0c81bf8c9153f318d7ed8","gas":"0x989680","gasPrice":"0xf442c","hash":"0x5b1c1bfdd0bc99e30ea0ebed8f35a88e378d646072f0347259abea75eeb76f33","input":"0x0001","maxFeePerGas":"0x3938700","maxPriorityFeePerGas":"0xf4240","nonce":"0x267e","r":"0xd7c90ed9eb2486e563f826456f3bbd03220a13190874118db906737b93d9f524","s":"0x5012fdcdd95ecda1a49df6a6a5c13ffaef21b7bd14fc985aa70960fe48a569eb","to":"0xcdcca22e3b1e0170532eea4b14e5fb3a73b45c8f","transactionIndex":"0xa","type":"0x2","v":"0x0","value":"0x0","yParity":"0x0"},{"accessList":[],"blockHash":"0x114716ef4cc2bec6533a9467e0c64237734aca7ffd98dba5cd3a5019b00ab854","blockNumber":"0x7bdafaa","chainId":"0xa","from":"0x4c3fa36a3c10fd7a8cd3530a4a9ac6cb7aa341cc","gas":"0x24afe","gasPrice":"0xf442b","hash":"0xd3c97377da03117ba7b7e245acd544d4626c09d0ca3399dea6fd8f5c755c627b","input":"0x3d18b912","maxFeePerGas":"0xf442b","maxPriorityFeePerGas":"0xf442b","nonce":"0x30c","r":"0xa716a9f51eca86a7a99fd7dae32104125c22c07a3ee906b64e1897c626f8b919","s":"0x456d28c5ccbc9f6774332d60b1191004789fee272c8f0d86b4c03d030e7749bd","to":"0xdbf55813b8993aa987253f0e2d0203e87da76407","transactionIndex":"0xb","type":"0x2","v":"0x0","value":"0x0","yParity":"0x0"},{"blockHash":"0x114716ef4cc2bec6533a9467e0c64237734aca7ffd98dba5cd3a5019b00ab854","blockNumber":"0x7bdafaa","chainId":"0xa","from":"0x45e50fa650e9ca1b1b89699d6539649dbf48cbbe","gas":"0x5208","gasPrice":"0xf442b","hash":"0xa807a4796db6b073d01da94481ea1bcb6dbf4b9356f51aec38bc65f38d562be8","input":"0x","nonce":"0x1","r":"0xf5341257b04b104734472bf68fe99201ef6374a7ff86f71a912b5b1817c92c0c","s":"0x26b7a2f41198cfa9d1bc79ec95919669e745025ceef5efd44fc94dec8fbf8b64","to":"0x4b88555dc5128a18a8428985632d500c4f1b3966","transactionIndex":"0xc","type":"0x0","v":"0x38","value":"0x20497ce3b8000"},{"accessList":[],"blockHash":"0x114716ef4cc2bec6533a9467e0c64237734aca7ffd98dba5cd3a5019b00ab854","blockNumber":"0x7bdafaa","chainId":"0xa","from":"0x9b52f9db39d3933e3ad4000421d2946700b02001","gas":"0x10b75","gasPrice":"0x76df7","hash":"0x5514c619ff7b9dd41289810f79ae8ffe119c088d5867627ad43002fce97af51e","input":"0x646174613a2c7b22746172676574436861696e223a2265636c69707365222c2274617267657441646472657373223a224b594d50525a6e335a616b4d64614e47577a743551624c73756e3268626a4c665655796958413978446371227d","maxFeePerGas":"0x76ea1","maxPriorityFeePerGas":"0x76c0b","nonce":"0x93","r":"0x4499ce493eee90f31a3a64595439448cb0f64e62c75a398c08880e3507907d18","s":"0xe6960c8755754a616fee2f37d00753604cb6b16a14b4e98c88b3d331a03d9bf","to":"0xb50ac92d6d8748ac42721c25a3e2c84637385a6b","transactionIndex":"0xd","type":"0x2","v":"0x1","value":"0x9b9fc491e100","yParity":"0x1"},{"accessList":[],"blockHash":"0x114716ef4cc2bec6533a9467e0c64237734aca7ffd98dba5cd3a5019b00ab854","blockNumber":"0x7bdafaa","chainId":"0xa","from":"0xae0b5df2dfaacd6eb6c1c56cc710f529f31c6c44","gas":"0xe4e1c0","gasPrice":"0x1888d","hash":"0x15035c855ecb9a47ffa91d3e59b13256c8c405c1586db0fa898bcdcf275c8d90","input":"0x24f88863","maxFeePerGas":"0x18a77","maxPriorityFeePerGas":"0x186a1","nonce":"0x389905","r":"0x3b52692aa6c3d39be443d3e80c2f1bbd88ef035455395fdf08b5214e64f19fbc","s":"0x3e20b080a91ad68a281191e3bd2c10bfa77652ae08b14616134d0d46386ac7ff","to":"0xabf4daac18925530d1e4f99fd538d57b8bf1017c","transactionIndex":"0xe","type":"0x2","v":"0x1","value":"0x0","yParity":"0x1"},{"accessList":[],"blockHash":"0x114716ef4cc2bec6533a9467e0c64237734aca7ffd98dba5cd3a5019b00ab854","blockNumber":"0x7bdafaa","chainId":"0xa","from":"0xc96faba4ff9941a55754d7a4b02aeaf7d53f43b9","gas":"0xe4e1c0","gasPrice":"0x1888c","hash":"0x537c441d4c9592e7e372c126e4d58b5cc7812ecd2a1e5fad6a998a3fe123655b","input":"0x24f88863","maxFeePerGas":"0x18a76","maxPriorityFeePerGas":"0x186a0","nonce":"0x33ac7e","r":"0x64dfc36782f425b21d707255e6491b4ff2a7c06b487739f83eb86b8ed9a11b38","s":"0x49c325ec2bc15adcc9a4efec0af17859c876447e04d37210452b341e9ae19d0a","to":"0xabf4daac18925530d1e4f99fd538d57b8bf1017c","transactionIndex":"0xf","type":"0x2","v":"0x0","value":"0x0","yParity":"0x0"},{"accessList":[],"blockHash":"0x114716ef4cc2bec6533a9467e0c64237734aca7ffd98dba5cd3a5019b00ab854","blockNumber":"0x7bdafaa","chainId":"0xa","from":"0x669bee230facc9240e2ef81c2e566c3ebadd7c71","gas":"0xe4e1c0","gasPrice":"0x1888c","hash":"0xe23490128d3aa8087b81e19862769298f2e10f38a13bee6f11dc62ef35205a12","input":"0x24f88863","maxFeePerGas":"0x18a76","maxPriorityFeePerGas":"0x186a0","nonce":"0x191b0d","r":"0x6852a58e4edc30bdbd22b0d30f11138c63c3899be0b161e334bf9d9fd12aa836","s":"0x29a7f5dbe6f3de9dbb3091d272d03063f38658d68400910f0be5fd6509ac69d8","to":"0xabf4daac18925530d1e4f99fd538d57b8bf1017c","transactionIndex":"0x10","type":"0x2","v":"0x0","value":"0x0","yParity":"0x0"},{"accessList":[],"blockHash":"0x114716ef4cc2bec6533a9467e0c64237734aca7ffd98dba5cd3a5019b00ab854","blockNumber":"0x7bdafaa","chainId":"0xa","from":"0x74e27bd4fdb82f36d843d049dee5fd2d5f03335f","gas":"0xe4e1c0","gasPrice":"0x1888c","hash":"0xd5e3d5149e73a690f4c3a58c95772b63c9940feb776bd222bf59f64ddc958639","input":"0x24f88863","maxFeePerGas":"0x18a76","maxPriorityFeePerGas":"0x186a0","nonce":"0x1171da","r":"0x7881d942269ea3cbfd67c93b9f0a3081369e78374d8a47e6efcc0a850175e58b","s":"0x76023f9efa941377ae8fbcada486b29fea4b39c91577d506db7eee14525cdf5f","to":"0xabf4daac18925530d1e4f99fd538d57b8bf1017c","transactionIndex":"0x11","type":"0x2","v":"0x0","value":"0x0","yParity":"0x0"},{"accessList":[],"blockHash":"0x114716ef4cc2bec6533a9467e0c64237734aca7ffd98dba5cd3a5019b00ab854","blockNumber":"0x7bdafaa","chainId":"0xa","from":"0xad35090a0cd64efcc2175cea4035efaebf60d6ce","gas":"0x989680","gasPrice":"0x1888c","hash":"0x15149dad9cace2604e97da7d1001d167c8d6ad74a1f16b4c8fbb6715b4096b6a","input":"0x0001","maxFeePerGas":"0x3938700","maxPriorityFeePerGas":"0x186a0","nonce":"0x2672","r":"0x108e595adce80adcab3d051b84f28153ae3a9d5f1520104595180c271711abc","s":"0x61430875d75a817782abfa9d5f66d24f71e03e2799d9aa4e81216fa0e3d06b27","to":"0xcdcca22e3b1e0170532eea4b14e5fb3a73b45c8f","transactionIndex":"0x12","type":"0x2","v":"0x1","value":"0x0","yParity":"0x1"},{"accessList":[],"blockHash":"0x114716ef4cc2bec6533a9467e0c64237734aca7ffd98dba5cd3a5019b00ab854","blockNumber":"0x7bdafaa","chainId":"0xa","from":"0x051865462dd9e0842b736a3fb46c4c19c01c0021","gas":"0x4c4b40","gasPrice":"0x21e","hash":"0x901ddde8c345fa8f504a065d2f198c7a193001e9d84bad437eb74d70f9ca1533","input":"0xac9650d8000000000000000000000000000000000000000000000000000000000000002000000000000000000000000000000000000000000000000000000000000000010000000000000000000000000000000000000000000000000000000000000020000000000000000000000000000000000000000000000000000000000000002442966c6800000000000000000000000000000000000000000000000000000000000cbd6100000000000000000000000000000000000000000000000000000000","maxFeePerGas":"0x9ce","maxPriorityFeePerGas":"0x32","nonce":"0x510f","r":"0x4299b8d8bf372156947e6b46ca26a84c2da86bb83f133df88dbfe4060d305fcd","s":"0x2e3756cee7ffe88e4d3b4fab91e964eb6afefe6ee502755979d5947320e3344f","to":"0x416b433906b1b72fa758e166e239c43d68dc6f29","transactionIndex":"0x13","type":"0x2","v":"0x0","value":"0x0","yParity":"0x0"},{"accessList":[],"blockHash":"0x114716ef4cc2bec6533a9467e0c64237734aca7ffd98dba5cd3a5019b00ab854","blockNumber":"0x7bdafaa","chainId":"0xa","from":"0x678fa1d680beb37d345412fb60b381c429276faf","gas":"0xe4e1c0","gasPrice":"0x1ed","hash":"0x7bd33918362b74fa9a39c8d72cd02596992774398651c36841b320b9d23f53db","input":"0x24f88863","maxFeePerGas":"0x3d7","maxPriorityFeePerGas":"0x1","nonce":"0x21060e","r":"0x3c039c62acd1f016e6930cebb2478e726f9cc549cecdeaa8bdd88eebdc7ccf04","s":"0x74d0a20aab0fb36026db94ad260ed2c36738376133f8f31ab85c17f0410241e1","to":"0xabf4daac18925530d1e4f99fd538d57b8bf1017c","transactionIndex":"0x14","type":"0x2","v":"0x1","value":"0x0","yParity":"0x1"}],"transactionsRoot":"0xaf57f1f3a4983276ec4bbdaea6ac48700dd33210180711f6fa0f64b83befd0b1","uncles":[],"withdrawals":[],"withdrawalsRoot":"0x56e81f171bcc55a6ff8345e692c0f86e5b48e01b996cadc001622fb5e363b421"},"id":
        0}

        '
    headers:
      CF-RAY:
      - 9dbbc461d8bbb987-AMS
      Cache-Control:
      - max-age=0, private, must-revalidate
      Connection:
      - keep-alive
      Content-Type:
      - application/json; charset=utf-8
      Date:
      - Fri, 13 Mar 2026 14:35:46 GMT
      Nel:
      - '{"report_to":"cf-nel","success_fraction":0.0,"max_age":604800}'
      Report-To:
      - '{"group":"cf-nel","max_age":604800,"endpoints":[{"url":"https://a.nel.cloudflare.com/report/v4?s=k6nwGoZ2mUOgCcx9pLdu8DHS%2BoY0w3iz8yU9iglycNVQH7V2zzGC%2BoiqcyZH2E5Jhs9su6eUcKa9qtB5NhNObGexAWJGn6xXBcLPW1OWl0IVstLdchJWn90ps4chu1Yr"}]}'
      Server:
      - cloudflare
      Transfer-Encoding:
      - chunked
      access-control-allow-credentials:
      - 'true'
      access-control-allow-origin:
      - '*'
      access-control-expose-headers:
      - bypass-429-option,x-ratelimit-reset,x-ratelimit-limit,x-ratelimit-remaining,api-v2-temp-token
      alt-svc:
      - h3=":443"; ma=86400
      bypass-429-option:
      - no_bypass
      cf-cache-status:
      - DYNAMIC
      content-length:
      - '22177'
      strict-transport-security:
      - max-age=31536000; includeSubDomains
      x-ratelimit-limit:
      - '600'
      x-ratelimit-remaining:
      - '598'
      x-ratelimit-reset:
      - '13096'
      x-request-id:
      - cd3f1fae4fe2159aa59ecb828074a74c
    status:
      code: 200
      message: OK
- request:
    body: '{"id": 0, "jsonrpc": "2.0", "method": "eth_getTransactionReceipt", "params":
      ["0xd3c97377da03117ba7b7e245acd544d4626c09d0ca3399dea6fd8f5c755c627b"]}'
    headers:
      Accept:
      - '*/*'
      Accept-Encoding:
      - gzip, deflate
      Connection:
      - keep-alive
      Content-Length:
      - '148'
      Content-Type:
      - application/json
      User-Agent:
      - rotki/1.41.2.dev1008+g426721fd6f
    method: POST
    uri: https://explorer.optimism.io/api/eth-rpc
  response:
    body:
      string: '{"jsonrpc":"2.0","result": {"blockHash":"0x114716ef4cc2bec6533a9467e0c64237734aca7ffd98dba5cd3a5019b00ab854","blockNumber":"0x7bdafaa","contractAddress":null,"cumulativeGasUsed":"0x2b6d87","effectiveGasPrice":"0xf442b","from":"0x4c3fa36a3c10fd7a8cd3530a4a9ac6cb7aa341cc","gasUsed":"0x1f601","logs":[{"address":"0x4200000000000000000000000000000000000042","blockHash":"0x114716ef4cc2bec6533a9467e0c64237734aca7ffd98dba5cd3a5019b00ab854","blockNumber":"0x7bdafaa","data":"0x00000000000000000000000000000000000000000000000006adf5d98ea31aba","logIndex":"0x1b","removed":false,"topics":["0xddf252ad1be2c89b69c2b068fc378daa952ba7f163c4a11628f55a4df523b3ef","0x000000000000000000000000dbf55813b8993aa987253f0e2d0203e87da76407","0x0000000000000000000000004c3fa36a3c10fd7a8cd3530a4a9ac6cb7aa341cc"],"transactionHash":"0xd3c97377da03117ba7b7e245acd544d4626c09d0ca3399dea6fd8f5c755c627b","transactionIndex":"0xb"},{"address":"0x4200000000000000000000000000000000000042","blockHash":"0x114716ef4cc2bec6533a9467e0c64237734aca7ffd98dba5cd3a5019b00ab854","blockNumber":"0x7bdafaa","data":"0x00000000000000000000000000000000000000000000d76fd8a42a5b5704e52c00000000000000000000000000000000000000000000d76fdf522034e5a7ffe6","logIndex":"0x1c","removed":false,"topics":["0xdec2bacdd2f05b59de34da9b523dff8be42e5e38e818c82fdb0bae774387a724","0x00000000000000000000000075536cf4f01c2bfa528f5c74ddc1232db3af3ee5"],"transactionHash":"0xd3c97377da03117ba7b7e245acd544d4626c09d0ca3399dea6fd8f5c755c627b","transactionIndex":"0xb"},{"address":"0xdbf55813b8993aa987253f0e2d0203e87da76407","blockHash":"0x114716ef4cc2bec6533a9467e0c64237734aca7ffd98dba5cd3a5019b00ab854","blockNumber":"0x7bdafaa","data":"0x00000000000000000000000000000000000000000000000006adf5d98ea31aba","logIndex":"0x1d","removed":false,"topics":["0x540798df468d7b23d11f156fdb954cb19ad414d150722a7b6d55ba369dea792e","0x0000000000000000000000004c3fa36a3c10fd7a8cd3530a4a9ac6cb7aa341cc","0x0000000000000000000000004200000000000000000000000000000000000042"],"transactionHash":"0xd3c97377da03117ba7b7e245acd544d4626c09d0ca3399dea6fd8f5c755c627b","transactionIndex":"0xb"}],"logsBloom":"0x000000000000000000000000000000000000000000000200000000000000000000000000000002000000000000000000000000000040000000000000000000c0000000000000000020000008000000000000040000000000000000000000000000000000000000000040000001008080000000000000000000000810000000000000000000000000000000000000000000000000000000000000000000000000040000000000000000000000000002000000000000000201000000000000002080000002000000000000004400000000008000000000000000000000000000000000000000000000001000000100000000000000000000000000000000000200","status":"0x1","to":"0xdbf55813b8993aa987253f0e2d0203e87da76407","transactionHash":"0xd3c97377da03117ba7b7e245acd544d4626c09d0ca3399dea6fd8f5c755c627b","transactionIndex":"0xb","type":"0x2"},"id":
        0}

        '
    headers:
      CF-RAY:
      - 9dbbc4635ea4b994-AMS
      Cache-Control:
      - max-age=0, private, must-revalidate
      Connection:
      - keep-alive
      Content-Type:
      - application/json; charset=utf-8
      Date:
      - Fri, 13 Mar 2026 14:35:47 GMT
      Nel:
      - '{"report_to":"cf-nel","success_fraction":0.0,"max_age":604800}'
      Report-To:
      - '{"group":"cf-nel","max_age":604800,"endpoints":[{"url":"https://a.nel.cloudflare.com/report/v4?s=sy%2BljLQPhTwzIWIGpSkEuK%2FcHgGcDjruwxRXwuMqox2qI7MEj0RoBvxy9%2Bmj4JW61TAvcWSiKGjAMzXTHul1ijP3i0zWZxI3XQ4KkSATMMTUjyWDY2ug1yWPAkXAZFL8"}]}'
      Server:
      - cloudflare
      Transfer-Encoding:
      - chunked
      access-control-allow-credentials:
      - 'true'
      access-control-allow-origin:
      - '*'
      access-control-expose-headers:
      - bypass-429-option,x-ratelimit-reset,x-ratelimit-limit,x-ratelimit-remaining,api-v2-temp-token
      alt-svc:
      - h3=":443"; ma=86400
      bypass-429-option:
      - no_bypass
      cf-cache-status:
      - DYNAMIC
      content-length:
      - '2836'
      strict-transport-security:
      - max-age=31536000; includeSubDomains
      x-ratelimit-limit:
      - '600'
      x-ratelimit-remaining:
      - '597'
      x-ratelimit-reset:
      - '12888'
      x-request-id:
      - 80cf93a65193f75291b751fddac9205a
    status:
      code: 200
      message: OK
- request:
    body: null
    headers:
      Accept:
      - '*/*'
      Accept-Encoding:
      - gzip, deflate
      Connection:
      - keep-alive
      User-Agent:
      - rotki/1.41.2.dev1008+g426721fd6f
    method: GET
    uri: https://explorer.optimism.io/api/v2/transactions/0xd3c97377da03117ba7b7e245acd544d4626c09d0ca3399dea6fd8f5c755c627b
  response:
    body:
      string: '{"l1_gas_used":"1600","priority_fee":"128512871487","raw_input":"0x3d18b912","is_pending_update":false,"op_withdrawals":[],"result":"success","hash":"0xd3c97377da03117ba7b7e245acd544d4626c09d0ca3399dea6fd8f5c755c627b","max_fee_per_gas":"1000491","revert_reason":null,"confirmation_duration":[0,2.0e3],"transaction_burnt_fee":"63228396","type":2,"token_transfers_overflow":false,"confirmations":19035095,"position":11,"max_priority_fee_per_gas":"1000491","transaction_tag":null,"created_contract":null,"value":"0","l1_fee_scalar":"0","from":{"ens_domain_name":null,"hash":"0x4C3fa36a3C10FD7a8Cd3530a4a9aC6cb7AA341cC","implementations":[{"address_hash":"0x63c0c19a282a1B52b07dD5a65b58948A07DAE32B","name":"EIP7702StatelessDeleGator"}],"is_contract":true,"is_scam":false,"is_verified":true,"metadata":null,"name":null,"private_tags":[],"proxy_type":"eip7702","public_tags":[],"reputation":"ok","watchlist_names":[]},"gas_used":"128513","status":"ok","to":{"ens_domain_name":null,"hash":"0xdBf55813B8993AA987253f0e2d0203E87Da76407","implementations":[{"address_hash":"0x6E65f5Fb396F7F2F88dC1A191d0C6D7769463069","name":"BeefyRewardPool"}],"is_contract":true,"is_scam":false,"is_verified":true,"metadata":null,"name":"BeaconProxy","private_tags":[],"proxy_type":"eip1967_beacon","public_tags":[],"reputation":"ok","watchlist_names":[]},"authorization_list":[],"l1_fee":"228455715742","method":"getReward","fee":{"type":"actual","value":"357031815625"},"actions":[],"gas_limit":"150270","gas_price":"1000491","decoded_input":{"method_call":"getReward()","method_id":"3d18b912","parameters":[]},"l1_gas_price":"3522863169","token_transfers":[{"block_hash":"0x114716ef4cc2bec6533a9467e0c64237734aca7ffd98dba5cd3a5019b00ab854","block_number":129871786,"from":{"ens_domain_name":null,"hash":"0xdBf55813B8993AA987253f0e2d0203E87Da76407","implementations":[{"address_hash":"0x6E65f5Fb396F7F2F88dC1A191d0C6D7769463069","name":"BeefyRewardPool"}],"is_contract":true,"is_scam":false,"is_verified":true,"metadata":null,"name":"BeaconProxy","private_tags":[],"proxy_type":"eip1967_beacon","public_tags":[],"reputation":"ok","watchlist_names":[]},"log_index":27,"method":null,"timestamp":null,"to":{"ens_domain_name":null,"hash":"0x4C3fa36a3C10FD7a8Cd3530a4a9aC6cb7AA341cC","implementations":[{"address_hash":"0x63c0c19a282a1B52b07dD5a65b58948A07DAE32B","name":"EIP7702StatelessDeleGator"}],"is_contract":true,"is_scam":false,"is_verified":true,"metadata":null,"name":null,"private_tags":[],"proxy_type":"eip7702","public_tags":[],"reputation":"ok","watchlist_names":[]},"token":{"address_hash":"0x4200000000000000000000000000000000000042","circulating_market_cap":"267643815.83383796","decimals":"18","exchange_rate":"0.12624","holders_count":"1378279","icon_url":"https://assets.coingecko.com/coins/images/25244/small/Optimism.png?1696524385","name":"Optimism","reputation":"ok","symbol":"OP","total_supply":"4294963292498750113616177748","type":"ERC-20","volume_24h":"67548210.8659252"},"token_type":"ERC-20","total":{"decimals":"18","value":"481311049948273338"},"transaction_hash":"0xd3c97377da03117ba7b7e245acd544d4626c09d0ca3399dea6fd8f5c755c627b","type":"token_transfer"}],"base_fee_per_gas":"492","timestamp":"2024-12-27T23:32:29.000000Z","nonce":780,"historic_exchange_rate":"3328.67","transaction_types":["contract_call","token_transfer"],"exchange_rate":"2201.09","block_number":129871786,"has_error_in_internal_transactions":false}'
    headers:
      CF-RAY:
      - 9dbbc4640d8a1823-AMS
      Cache-Control:
      - max-age=0, private, must-revalidate
      Connection:
      - keep-alive
      Content-Type:
      - application/json; charset=utf-8
      Date:
      - Fri, 13 Mar 2026 14:35:47 GMT
      Nel:
      - '{"report_to":"cf-nel","success_fraction":0.0,"max_age":604800}'
      Report-To:
      - '{"group":"cf-nel","max_age":604800,"endpoints":[{"url":"https://a.nel.cloudflare.com/report/v4?s=MsKuig9ccUcP38%2BD4r%2BZ1R8qNQkcr84QhP8qg6n3NUiRT5jrlrLJvAYLbpJyMzok9LM9rUyg66VxMI5taMdNG%2Be1cBe9e8Qg%2F%2F7DPo4snkJjvQt79wJpbdkdfER8HMfS"}]}'
      Server:
      - cloudflare
      Transfer-Encoding:
      - chunked
      access-control-allow-credentials:
      - 'true'
      access-control-allow-origin:
      - '*'
      access-control-expose-headers:
      - bypass-429-option,x-ratelimit-reset,x-ratelimit-limit,x-ratelimit-remaining,api-v2-temp-token
      alt-svc:
      - h3=":443"; ma=86400
      bypass-429-option:
      - temporary_token
      cf-cache-status:
      - DYNAMIC
      content-length:
      - '3426'
      strict-transport-security:
      - max-age=31536000; includeSubDomains
      x-ratelimit-limit:
      - '600'
      x-ratelimit-remaining:
      - '596'
      x-ratelimit-reset:
      - '12754'
      x-request-id:
      - 0434bd7304bcfb252fbcb721c4f2219d
    status:
      code: 200
      message: OK
- request:
    body: null
    headers:
      Accept:
      - '*/*'
      Accept-Encoding:
      - gzip, deflate
      Connection:
      - keep-alive
      User-Agent:
      - rotki/1.41.2.dev1008+g426721fd6f
    method: GET
    uri: https://explorer.optimism.io/api?action=txlistinternal&module=account&sort=asc&txhash=0xd3c97377da03117ba7b7e245acd544d4626c09d0ca3399dea6fd8f5c755c627b
  response:
    body:
      string: '{"message":"No internal transactions found","result":[],"status":"0"}'
    headers:
      CF-RAY:
      - 9dbbc467ce37583d-AMS
      Cache-Control:
      - max-age=0, private, must-revalidate
      Connection:
      - keep-alive
      Content-Type:
      - application/json; charset=utf-8
      Date:
      - Fri, 13 Mar 2026 14:35:48 GMT
      Nel:
      - '{"report_to":"cf-nel","success_fraction":0.0,"max_age":604800}'
      Report-To:
      - '{"group":"cf-nel","max_age":604800,"endpoints":[{"url":"https://a.nel.cloudflare.com/report/v4?s=CUF%2BsHraA9X1mAs%2FQKvm1fKi7w6XS6p8d0Dyg9RT00upZqyLANFes%2FucQFePE4%2FXaf8erbnH9m00o24IqVwject54QDXd6Ni5aCcPGD2IOuV9O%2BWEuA5%2BCgVuFyo9dFG"}]}'
      Server:
      - cloudflare
      Transfer-Encoding:
      - chunked
      access-control-allow-credentials:
      - 'true'
      access-control-allow-origin:
      - '*'
      access-control-expose-headers:
      - bypass-429-option,x-ratelimit-reset,x-ratelimit-limit,x-ratelimit-remaining,api-v2-temp-token
      alt-svc:
      - h3=":443"; ma=86400
      bypass-429-option:
      - no_bypass
      cf-cache-status:
      - DYNAMIC
      content-length:
      - '69'
      strict-transport-security:
      - max-age=31536000; includeSubDomains
      x-ratelimit-limit:
      - '600'
      x-ratelimit-remaining:
      - '595'
      x-ratelimit-reset:
      - '12185'
      x-request-id:
      - fe114ae2ae822c761c3295a4a57a1b7d
    status:
      code: 200
      message: OK
version: 1
