interactions:
- request:
    body: '{"id": 0, "jsonrpc": "2.0", "method": "eth_getTransactionByHash", "params":
      ["0x5df999d8c261a6ecd3abb967dc0fdf27bcf727ece0dca0dac7036f2c9d3b5e18"]}'
    headers:
      Accept:
      - '*/*'
      Accept-Encoding:
      - gzip, deflate
      Connection:
      - keep-alive
      Content-Length:
      - '147'
      Content-Type:
      - application/json
      User-Agent:
      - rotki/1.41.2.dev1008+g426721fd6f
    method: POST
    uri: https://api.blockscout.com/10/json-rpc
  response:
    body:
      string: '{"jsonrpc":"2.0","result": {"accessList":[],"blockHash":"0xfb0b415430726cae6f1453a3af5dc3a151334871e0a8bf8461842aea2550909e","blockNumber":"0x7aeca6a","chainId":"0xa","from":"0x02df3cba3fe1cfbb297a2a91d8aa8cec62848696","gas":"0x33dfd","gasPrice":"0xf4437","hash":"0x5df999d8c261a6ecd3abb967dc0fdf27bcf727ece0dca0dac7036f2c9d3b5e18","input":"0xa694fc3a0000000000000000000000000000000000000000000000000043cf586b4532ea","maxFeePerGas":"0xf4498","maxPriorityFeePerGas":"0xf4240","nonce":"0x26f","r":"0xe4aa4d5c62a8aab78daacdfde02cb43c921c1d2641ae03bd54e68406639f5d52","s":"0x263ffc20652bd36cf67d1fa437c4d87969897c9e136e31b1139c0cac1bd019c","to":"0xdbf55813b8993aa987253f0e2d0203e87da76407","transactionIndex":"0x6","type":"0x2","v":"0x0","value":"0x0","yParity":"0x0"},"id":
        0}

        '
    headers:
      CF-RAY:
      - 9db5c4bd7ac74464-AMS
      Cache-Control:
      - max-age=0, private, must-revalidate
      Connection:
      - keep-alive
      Content-Type:
      - application/json; charset=utf-8
      Date:
      - Thu, 12 Mar 2026 21:07:27 GMT
      Nel:
      - '{"report_to":"cf-nel","success_fraction":0.0,"max_age":604800}'
      Report-To:
      - '{"group":"cf-nel","max_age":604800,"endpoints":[{"url":"https://a.nel.cloudflare.com/report/v4?s=cVMXgmzVRSkQOxUSEhct5tKrUlGEVW1BKHPgPJKfKZ5UpYQWaXfGVD%2BnrwuF6x2oIuMIfAEvPuYu%2BcqApEE1FleZBXQcIsYTYzYr4v%2B06oomUSPxUrCkgwqffQLPcB4V"}]}'
      Server:
      - cloudflare
      Transfer-Encoding:
      - chunked
      access-control-allow-credentials:
      - 'true'
      access-control-allow-origin:
      - '*'
      access-control-expose-headers:
      - bypass-429-option,x-ratelimit-reset,x-ratelimit-limit,x-ratelimit-remaining,api-v2-temp-token
      alt-svc:
      - h3=":443"; ma=86400
      bypass-429-option:
      - no_bypass
      cf-cache-status:
      - DYNAMIC
      content-length:
      - '774'
      strict-transport-security:
      - max-age=31536000; includeSubDomains
      x-ratelimit-limit:
      - '600'
      x-ratelimit-remaining:
      - '599'
      x-ratelimit-reset:
      - '33008'
      x-request-id:
      - abe3b088b91748b97e913219c69c2e12
    status:
      code: 200
      message: OK
- request:
    body: '{"id": 0, "jsonrpc": "2.0", "method": "eth_getBlockByNumber", "params":
      ["0x7aeca6a", true]}'
    headers:
      Accept:
      - '*/*'
      Accept-Encoding:
      - gzip, deflate
      Connection:
      - keep-alive
      Content-Length:
      - '92'
      Content-Type:
      - application/json
      User-Agent:
      - rotki/1.41.2.dev1008+g426721fd6f
    method: POST
    uri: https://api.blockscout.com/10/json-rpc
  response:
    body:
      string: '{"jsonrpc":"2.0","result": {"baseFeePerGas":"0x1f7","blobGasUsed":"0x0","difficulty":"0x0","excessBlobGas":"0x0","extraData":"0x","gasLimit":"0x3938700","gasUsed":"0x49e32a","hash":"0xfb0b415430726cae6f1453a3af5dc3a151334871e0a8bf8461842aea2550909e","logsBloom":"0x02808800000000000881000082200000000040100a08000008080000000800004000100010000000000048000010000000810000000a00020200004000220000004000002010800000000009002200000000060801000000001c080c000000004444000002000000000800000010080420000000000400001000881000010001000000000000001000010000002000800000a4c0280000220008140000040000020000001040020000080804008080040000400000a000090003100000100020d0001002400408010000008000000040004000000020010000002406000020001010880800040000000000000200180000000100040008400000000002000240","miner":"0x4200000000000000000000000000000000000011","mixHash":"0xe0574aa7e257fbd60c5bda5e638c105666f25c3d3b9b2a20638bbc05d9da75a3","nonce":"0x0000000000000000","number":"0x7aeca6a","parentBeaconBlockRoot":"0xf5d74f987bd0cafdd13ac44b3f0735e9af8c2176e1c39f6f3e872f0f8ff41588","parentHash":"0xd2de7a41a97af935b3ec67422339738222c0bf8ae408f50f7e27b593edef00f2","receiptsRoot":"0x57f5fa0d66fb436c2757d50885ee015f7cb2f19d7c32f38d6301b5b7c8fd7702","sha3Uncles":"0x1dcc4de8dec75d7aab85b567b6ccd41ad312451b948a7413f0a142fd40d49347","size":"0x1cba","stateRoot":"0x46b338cfdc74274417324c377f1ed0223791ab95304000762382ff856627a2fe","timestamp":"0x67516e8d","transactions":[{"blockHash":"0xfb0b415430726cae6f1453a3af5dc3a151334871e0a8bf8461842aea2550909e","blockNumber":"0x7aeca6a","depositReceiptVersion":"0x1","from":"0xdeaddeaddeaddeaddeaddeaddeaddeaddead0001","gas":"0xf4240","gasPrice":"0x0","hash":"0xb98b03bddcee62667b0830c75abed0ce945240fc8a0692c795ac7790cb86e987","input":"0x440a5e200000146b000f79c500000000000000000000000067516df30000000001458d0d000000000000000000000000000000000000000000000000000000039c17bdd900000000000000000000000000000000000000000000000000000001f3e2b33d710947a850fe0f3ddb92491dd8281934ed0f4f9855d85bab7c8d74675156a4bc0000000000000000000000006887246668a3b87f54deb3b94ba47a6f63f32985","mint":"0x0","nonce":"0x16907f4","r":"0x0","s":"0x0","sourceHash":"0xd239710317672214d3e31b27dcd8d1e8167289c4efab7dff15da547b697e603e","to":"0x4200000000000000000000000000000000000015","transactionIndex":"0x0","type":"0x7e","v":"0x0","value":"0x0","yParity":"0x0"},{"accessList":[],"blockHash":"0xfb0b415430726cae6f1453a3af5dc3a151334871e0a8bf8461842aea2550909e","blockNumber":"0x7aeca6a","chainId":"0xa","from":"0xef1ec136931ab5728b0783fd87d109c9d15d31f1","gas":"0x1bf83","gasPrice":"0x8f0d377","hash":"0x1cf862351edda98d0bad9a6dde222d80d3290831593f08f95558953df90355b7","input":"0x2e378115000000000000000000000000000000000000000000000000000000000000004000000000000000000000000000000000000000000000000000000000000021050000000000000000000000000b20a6140118be0235db1bcb0dfa96d5d656ca510000000000000000000000000b20a6140118be0235db1bcb0dfa96d5d656ca510000000000000000000000000000000000000000000000000000000000000000000000000000000000000000833589fcd6edb6e08f4c7c32d4f71b54bda029130000000000000000000000000b2c639c533813f4aa9d7837caf62653d097ff85000000000000000000000000000000000000000000000000000000003b9aca00000000000000000000000000000000000000000000000000000000003b985143000000000000000000000000000000000000000000000000000000000000210500000000000000000000000000000000000000000000000000000000002761b9000000000000000000000000000000000000000000000000000000006751c2df000000000000000000000000000000000000000000000000000000000000000000000000000000000000000000000000000000000000000000000000000001800000000000000000000000000000000000000000000000000000000000000000","maxFeePerGas":"0x596830f7","maxPriorityFeePerGas":"0x8f0d180","nonce":"0xf0c6","r":"0x4be1c173c06127a8a073a8616d65ced2b91bcb729f1179c3fd60a52bba9853ff","s":"0x4800f38723277a581c1601512e722c252a4d9162e58a914edca37eb795ec4516","to":"0x6f26bf09b1c792e3228e5467807a900a503c0281","transactionIndex":"0x1","type":"0x2","v":"0x1","value":"0x0","yParity":"0x1"},{"accessList":[],"blockHash":"0xfb0b415430726cae6f1453a3af5dc3a151334871e0a8bf8461842aea2550909e","blockNumber":"0x7aeca6a","chainId":"0xa","from":"0x669bee230facc9240e2ef81c2e566c3ebadd7c71","gas":"0xe4e1c0","gasPrice":"0x17c6f4","hash":"0x57441b2c9109c38ab5411d555363d4de7b72721630c28654cbcfa41b4e1b48d0","input":"0x24f88863","maxFeePerGas":"0x17c8eb","maxPriorityFeePerGas":"0x17c4fd","nonce":"0xf9737","r":"0x2f94aeafd51a94d8803a68ab5785e16761bc4311012745dfcb8b90a0951f3434","s":"0x2aca65c27d07a733f6119eccf4a16d06d1ca88ab3b2e3819571afa45125e3ce7","to":"0xabf4daac18925530d1e4f99fd538d57b8bf1017c","transactionIndex":"0x2","type":"0x2","v":"0x1","value":"0x0","yParity":"0x1"},{"accessList":[],"blockHash":"0xfb0b415430726cae6f1453a3af5dc3a151334871e0a8bf8461842aea2550909e","blockNumber":"0x7aeca6a","chainId":"0xa","from":"0x3c9779d3ec32ed4985a3e634c44d38c517564f5b","gas":"0x4c4b40","gasPrice":"0x149f40","hash":"0x0884afa5e1207bf18a35c73c8b16204facd792f01228300ea61b30a86560269d","input":"0x0001","maxFeePerGas":"0x3938700","maxPriorityFeePerGas":"0x149d49","nonce":"0x1d3890","r":"0xbcfac2358387237a718e32cb16f1338c49bbdd6ae9c7aa76269394f79e04b8a0","s":"0x2acdeaf99659f70ec10f46a70534d62e224cfb7bceda33ff1d497b1566f0ba3d","to":"0xd3dc079ac6f98275bbbcd0aff11cbaadb4d8f2ac","transactionIndex":"0x3","type":"0x2","v":"0x1","value":"0x0","yParity":"0x1"},{"blockHash":"0xfb0b415430726cae6f1453a3af5dc3a151334871e0a8bf8461842aea2550909e","blockNumber":"0x7aeca6a","chainId":"0xa","from":"0xb8ff877ed78ba520ece21b1de7843a8a57ca47cb","gas":"0x6662a","gasPrice":"0x1251db","hash":"0x2f15983af7acf07d282b2de00b932d8f4739f264bd8acf33929a4e8782a32119","input":"0xb143044b000000000000000000000000000000000000000000000000000000000000002000000000000000000000000000000000000000000000000000000000000000010000000000000000000000000000000000000000000000000000000000000020000000000000000000000000000000000000000000000000000000000000006f0000000000000000000000003c4962ff6258dcfcafd23a814237b7d6eb71206300000000000000000000000000000000000000000000000000000000000000a0000000000000000000000000000000000000000000000000000000006751c2e900000000000000000000000000000000000000000000000000000000000001c000000000000000000000000000000000000000000000000000000000000000e40223536e00000000000000000000000000000000000000000000000000000000000000609a0f58ddc160e1801445acfd9131c960fc73b83949edb70aa0a78186c04b9667000000000000000000000000000000000000000000000000000000000000000a0000000000000000000000000000000000000000000000000000000000000051010000000000011e7e000075e80000000000000000000000005634c4a5fed09819e3c46d86a965dd9447d86e470000759f000000000000000000000000f1fcb4cbd57b67d683972a59b6a7b1e2e8bf27e6000000000000000000000000000000000000000000000000000000000000000000000000000000000000000000000000000000000000000000000000000000000000000000000000000041a0b9a0c884a4e93b6f3b5e214593c6b267277d4ff4130d0bf2b89a01b056dcb35d21d27d16faddd1524287f2de89879e12383727c0087e800569b76f264f3acc1c00000000000000000000000000000000000000000000000000000000000000","nonce":"0x4f4b06","r":"0x24c1acb9a79a4169f85a6fba163c9a35bff64c08c2ccf4d55d34f1d85740fff0","s":"0x364ecbce22446bd5f822ecf09b44d16b7a4a6839b653f831576e0bdb9a66fd04","to":"0xa7b5189bca84cd304d8553977c7c614329750d99","transactionIndex":"0x4","type":"0x0","v":"0x38","value":"0x0"},{"accessList":[],"blockHash":"0xfb0b415430726cae6f1453a3af5dc3a151334871e0a8bf8461842aea2550909e","blockNumber":"0x7aeca6a","chainId":"0xa","from":"0xb834ed914228b68b0e1f3e4f1e168ed2b580a35c","gas":"0x7a120","gasPrice":"0x118e72","hash":"0xfc60e5d9e4a903d1d3bb6ca4300aa847c1d463a15129400e481fc083640cf8dc","input":"0xc9807539000000000000000000000000000000000000000000000000000000000000008000000000000000000000000000000000000000000000000000000000000002600000000000000000000000000000000000000000000000000000000000000300010001000000000000000000000000000000000000000000000000000000000000000000000000000000000000000000000000000000000000000000000001c0000000000000000000000091d05409b72cbd199caf8ca6bbee6f30000132e90102010500080306070904000000000000000000000000000000000000000000000000000000000000000000000000000000000000000000000000000000000060000000000000000000000000000000000000000000000000000000000000000a000000000000000000000000000000000000000000000000000000000b756dca000000000000000000000000000000000000000000000000000000000b75a3b8000000000000000000000000000000000000000000000000000000000b75af70000000000000000000000000000000000000000000000000000000000b75b757000000000000000000000000000000000000000000000000000000000b75b757000000000000000000000000000000000000000000000000000000000b75f598000000000000000000000000000000000000000000000000000000000b760700000000000000000000000000000000000000000000000000000000000b7633c8000000000000000000000000000000000000000000000000000000000b7643e0000000000000000000000000000000000000000000000000000000000b77da8400000000000000000000000000000000000000000000000000000000000000047e1228dbdd516e7f6362c6b9744d773ba5098bec060a18efa968c1853f246cc5f75ff2aff68cc710992da2feb652aaf30d6549eae18e03878daf3b65f6b84147a7c1ff9384951e242f064cfde19135df74156d6234d62fa3abf3d41c7c4c8121032443e40afd1288904ac2cea1d387670fd56b6ef0bd6c86f9c67aee6df14c6d00000000000000000000000000000000000000000000000000000000000000044474dafc10bc21d28eb192876291c3e0ffb260a989eb848383aea2172ef9d7553268b23af23afafc3567068e237e87ef8de2b90a0cba9c8e661be1b7ec90af9b3d6d978186a7dbe919b0668aba43d947c4156ead4d2fd2b4075f104f3e6a5628521d2eb2a6b4eb4e88caf24c196990fe09755b2cbfab3f57e647aeb8325f34a9","maxFeePerGas":"0x118fa0","maxPriorityFeePerGas":"0x118c7b","nonce":"0xd95d1","r":"0x3a3c94b3cbc2912ae6a0ff35900c5727041feee8a0c6621a2174324e7aeb0cc9","s":"0x42251df6b7b4e1ca18dbb058dd8e10ce129868677cb703cc4374e9d6f3dc3e29","to":"0x384547665c7bf2bb7927e67a8a321e9a0c91fe59","transactionIndex":"0x5","type":"0x2","v":"0x1","value":"0x0","yParity":"0x1"},{"accessList":[],"blockHash":"0xfb0b415430726cae6f1453a3af5dc3a151334871e0a8bf8461842aea2550909e","blockNumber":"0x7aeca6a","chainId":"0xa","from":"0x02df3cba3fe1cfbb297a2a91d8aa8cec62848696","gas":"0x33dfd","gasPrice":"0xf4437","hash":"0x5df999d8c261a6ecd3abb967dc0fdf27bcf727ece0dca0dac7036f2c9d3b5e18","input":"0xa694fc3a0000000000000000000000000000000000000000000000000043cf586b4532ea","maxFeePerGas":"0xf4498","maxPriorityFeePerGas":"0xf4240","nonce":"0x26f","r":"0xe4aa4d5c62a8aab78daacdfde02cb43c921c1d2641ae03bd54e68406639f5d52","s":"0x263ffc20652bd36cf67d1fa437c4d87969897c9e136e31b1139c0cac1bd019c","to":"0xdbf55813b8993aa987253f0e2d0203e87da76407","transactionIndex":"0x6","type":"0x2","v":"0x0","value":"0x0","yParity":"0x0"},{"accessList":[],"blockHash":"0xfb0b415430726cae6f1453a3af5dc3a151334871e0a8bf8461842aea2550909e","blockNumber":"0x7aeca6a","chainId":"0xa","from":"0x97020c9ec66e0f59231918b1d2f167a66026aff2","gas":"0x157a3a","gasPrice":"0xf4437","hash":"0xcd4f209fed12ffb0b81c446b8ac8a51f0f6940b8f357fc5a470f71bee85c0633","input":"0x12aa3caf000000000000000000000000b63aae6c353636d66df13b89ba4425cfe13d10ba00000000000000000000000042000000000000000000000000000000000000420000000000000000000000000b2c639c533813f4aa9d7837caf62653d097ff85000000000000000000000000b63aae6c353636d66df13b89ba4425cfe13d10ba00000000000000000000000097020c9ec66e0f59231918b1d2f167a66026aff2000000000000000000000000000000000000000000000000899f3645e828325d000000000000000000000000000000000000000000000000000000000185384e000000000000000000000000000000000000000000000000000000000000000400000000000000000000000000000000000000000000000000000000000001400000000000000000000000000000000000000000000000000000000000000160000000000000000000000000000000000000000000000000000000000000000000000000000000000000000000000000000000000000000000000000000005d20000000000000000000000000000000000000000000000000000000005b400a0c9e75c48000000000000000006040000000000000000000000000000000000000000000000000005860002b300a007e5c0d200000000000000000000000000000000000000000000028f00019f0001505126a132dab612db5cb9fc9ac426a0cc215a3423f9c942000000000000000000000000000000000000420004f41766d8000000000000000000000000000000000000000000000000000000000000000000000000000000000000000000000000000000000000000000000000009a284900000000000000000000000000000000000000000000000000000000000000a0000000000000000000000000b63aae6c353636d66df13b89ba4425cfe13d10ba00000000000000000000000000000000000000000000000000000000675805f4000000000000000000000000000000000000000000000000000000000000000100000000000000000000000042000000000000000000000000000000000000420000000000000000000000007f5c764cbc14f9669b88837ca1490cca17c31607000000000000000000000000000000000000000000000000000000000000000002a00000000000000000000000000000000000000000000000000000000000002690ee63c1e500a7bb0d95c6ba0ed0aca70c503b34bc7108589a477f5c764cbc14f9669b88837ca1490cca17c3160751204c4af8dbc524681930a27b2f1af5bcc8062e6fb768f180fcce6836688e9084f035309e29bf0a209500447dc2038200000000000000000000000068f180fcce6836688e9084f035309e29bf0a20950000000000000000000000000b2c639c533813f4aa9d7837caf62653d097ff85000000000000000000000000000000000000000000000000000000000000000100000000000000000000000000000000000000000000000000000000009a38100000000000000000000000001111111254eeb25477b68fb85ed929f73a96058200000000000000000000000042f527f50f16a103b6ccab48bccca214500c102100a007e5c0d20000000000000000000000000000000000000000000002af0001bf0001705126a062ae8a9c5e11aaa026fc2670b0d65ccc8b285842000000000000000000000000000000000000420004cac88ea90000000000000000000000000000000000000000000000000000000000000000000000000000000000000000000000000000000000000000000b9b4ccca8741f00000000000000000000000000000000000000000000000000000000000000a0000000000000000000000000b63aae6c353636d66df13b89ba4425cfe13d10ba00000000000000000000000000000000000000000000000000000000675805f4000000000000000000000000000000000000000000000000000000000000000100000000000000000000000042000000000000000000000000000000000000420000000000000000000000001f32b1c2345538c0c6f582fcb022739c4a194ebb0000000000000000000000000000000000000000000000000000000000000000000000000000000000000000f1046053aa5682b4f9a81b5481394da16be5ff5a02a00000000000000000000000000000000000000000000000000000000000e74fa1ee63c1e501766854992bd5363ebeeff0113f5a5795796befab1f32b1c2345538c0c6f582fcb022739c4a194ebb51302b6b093a6c2aba51e078540ad89ed76a0c6716fa7f5c764cbc14f9669b88837ca1490cca17c31607004475d39ecb0000000000000000000000001111111254eeb25477b68fb85ed929f73a96058200000000000000000000000000000000000000000000000000000000000000000000000000000000000000000000000000000000000000000000000000000000000000000000000000000000fffd8963efd1fc6a506488495d951d5263988d250000000000000000000000000000000000000000000000000000000000e74d3000000000000000000000000000000000000000000000000000000000675805f40000000000000000000000000000f012a792","maxFeePerGas":"0xf4498","maxPriorityFeePerGas":"0xf4240","nonce":"0x1224","r":"0xfbdaf2c21d871676460c0ad82bb6cb29f8476e99752bdcf0f24a188ff9474b51","s":"0x857cd81e8fe39137c3955c51a7a235e89d442e53948f2c14329582b274571","to":"0x1111111254eeb25477b68fb85ed929f73a960582","transactionIndex":"0x7","type":"0x2","v":"0x1","value":"0x0","yParity":"0x1"},{"accessList":[],"blockHash":"0xfb0b415430726cae6f1453a3af5dc3a151334871e0a8bf8461842aea2550909e","blockNumber":"0x7aeca6a","chainId":"0xa","from":"0x6a7cee019512800c410920d052157021763a7576","gas":"0x39675","gasPrice":"0xf4436","hash":"0x3bae98d1cf4d50fd90a7492348e4fbd954baff4db6ebf11780335cb0e6cdb70f","input":"0x126928c4000000000000000000000000000000000000000000000000000000000000007e000000000000000000000000000000000000000000000000000000000000006000000000000000000000000000000000000000000000000000000000000000a000000000000000000000000000000000000000000000000000000000000000146a7cee019512800c410920d052157021763a7576000000000000000000000000000000000000000000000000000000000000000000000000000000000000005600020000000000000000000000000000000000000000000000000000000000030d40000000000000000000000000000000000000000000000000000000000000833f6a7cee019512800c410920d052157021763a757600000000000000000000","maxFeePerGas":"0xf4436","maxPriorityFeePerGas":"0xf4240","nonce":"0x4","r":"0x19b2715f46649ce56dc3a5f9896a06577ca08040827ca399b4bc099e4954484a","s":"0x5e1c241cd01861ee08bb7d977099b0137c0810081da37dbf574f6f9da7d0e722","to":"0xd7ba4057f43a7c4d4a34634b2a3151a60bf78f0d","transactionIndex":"0x8","type":"0x2","v":"0x1","value":"0xf5fb45f18e4","yParity":"0x1"},{"accessList":[],"blockHash":"0xfb0b415430726cae6f1453a3af5dc3a151334871e0a8bf8461842aea2550909e","blockNumber":"0x7aeca6a","chainId":"0xa","from":"0xc5350008251506ed430a11961aba0a2c73254529","gas":"0x122df0","gasPrice":"0xb93d7","hash":"0x9698fc49fb50d7570c6c228736bc30dfc179347010cc9a4f7fdff8be7f2cf06d","input":"0xb52c05fe00000000000000000000000000000000000000000000000a021d1202c480f00000000000000000000000000000000000000000000000000000000000677658a7","maxFeePerGas":"0xb9487","maxPriorityFeePerGas":"0xb91e0","nonce":"0xa","r":"0x131d7c9b05dc59e53c4d5340b7459ef2920f521025466dc0f94c33cf29ea78c2","s":"0x7d7a2882c229711932bcf7cca4552f1137ac02895ec03da52c91b5cc8e2f69a8","to":"0x521b4c065bbdbe3e20b3727340730936912dfa46","transactionIndex":"0x9","type":"0x2","v":"0x1","value":"0x0","yParity":"0x1"},{"accessList":[],"blockHash":"0xfb0b415430726cae6f1453a3af5dc3a151334871e0a8bf8461842aea2550909e","blockNumber":"0x7aeca6a","chainId":"0xa","from":"0xc96909cd052f6000ffaf3e9ff17f9c2047cfd1b8","gas":"0x4c4b40","gasPrice":"0x9cd8e","hash":"0x399ca140fbd0f041fe5928e617f7ccb05d76410479aea21efa8f1b36db637ef8","input":"0x0001","maxFeePerGas":"0x3938700","maxPriorityFeePerGas":"0x9cb97","nonce":"0x272a0f","r":"0x935fc0d7cff0719aceec0df77ae915644d6ad19b41b976be438ab6dc250ee319","s":"0x2792e333beacb33d2a68c1271a084ee0f488f5aacf50fd716e359781c452e76e","to":"0xd3dc079ac6f98275bbbcd0aff11cbaadb4d8f2ac","transactionIndex":"0xa","type":"0x2","v":"0x1","value":"0x0","yParity":"0x1"},{"accessList":[],"blockHash":"0xfb0b415430726cae6f1453a3af5dc3a151334871e0a8bf8461842aea2550909e","blockNumber":"0x7aeca6a","chainId":"0xa","from":"0xacd03d601e5bb1b275bb94076ff46ed9d753435a","gas":"0x19828","gasPrice":"0x188ca","hash":"0x7cae0032614add7813f63147111ee3ccaae5927fdbbd81f9fbe4d2bcaee6e44b","input":"0xa9059cbb000000000000000000000000187d2366d243ca93864cdb15842a3b1e5e79efcb000000000000000000000000000000000000000000000000000000005076c910","maxFeePerGas":"0x5f6a518","maxPriorityFeePerGas":"0x186d3","nonce":"0x48fa7c","r":"0xcfd0f3e6ced050965a21213343d0461a24a0f9fb73601472e706c08fd9a03416","s":"0x197f1d2c62d582036bf69613dd0051ad8fd41865e8467fe5eb35375a8ecae362","to":"0x94b008aa00579c1307b0ef2c499ad98a8ce58e58","transactionIndex":"0xb","type":"0x2","v":"0x1","value":"0x0","yParity":"0x1"},{"accessList":[],"blockHash":"0xfb0b415430726cae6f1453a3af5dc3a151334871e0a8bf8461842aea2550909e","blockNumber":"0x7aeca6a","chainId":"0xa","from":"0xacd03d601e5bb1b275bb94076ff46ed9d753435a","gas":"0x19828","gasPrice":"0x188ca","hash":"0x0f8150ffd5b640a8c51b31507fb48b56f594752c2fc29d790b964d0d0ff46969","input":"0xa9059cbb0000000000000000000000005c1d178559adc683dedb62d2bc5bb8fe2f2a3e2700000000000000000000000000000000000000000000000000000000021d2e7d","maxFeePerGas":"0x5f6a57c","maxPriorityFeePerGas":"0x186d3","nonce":"0x48fa7d","r":"0xdb93ea03e40e93b4106e339ff046ac88ca9000f4d039857e170a76615d51a16","s":"0x4d6590124e860debbf85b14c792859908b57d327fdbed07fd391d0194e57d481","to":"0x94b008aa00579c1307b0ef2c499ad98a8ce58e58","transactionIndex":"0xc","type":"0x2","v":"0x1","value":"0x0","yParity":"0x1"},{"accessList":[],"blockHash":"0xfb0b415430726cae6f1453a3af5dc3a151334871e0a8bf8461842aea2550909e","blockNumber":"0x7aeca6a","chainId":"0xa","from":"0xcb26bcd85f48076c5ead5031f80c669014434179","gas":"0x4c4b40","gasPrice":"0x18897","hash":"0x1baa58807450fee85eb4e9441b7bbdfb0b77a869df40fdea2a4a64608b4b958c","input":"0x0001","maxFeePerGas":"0x3938700","maxPriorityFeePerGas":"0x186a0","nonce":"0xd6a93","r":"0x4f74bf7069a67aa8252c5c5dbd367cbb2f24d3e0ce2dc73d7d8795587bf931be","s":"0x5f9b81087da780807762b0a32915b1f5305abe1917182083a43c4e9803cee13f","to":"0xd3dc079ac6f98275bbbcd0aff11cbaadb4d8f2ac","transactionIndex":"0xd","type":"0x2","v":"0x1","value":"0x0","yParity":"0x1"},{"accessList":[],"blockHash":"0xfb0b415430726cae6f1453a3af5dc3a151334871e0a8bf8461842aea2550909e","blockNumber":"0x7aeca6a","chainId":"0xa","from":"0xc96faba4ff9941a55754d7a4b02aeaf7d53f43b9","gas":"0xe4e1c0","gasPrice":"0x18897","hash":"0x81bcdfcda454a45609fd0892cc88f04453ec07deed3d7e9779bf60671a36831d","input":"0x24f88863","maxFeePerGas":"0x18a8e","maxPriorityFeePerGas":"0x186a0","nonce":"0x283022","r":"0x207e833a52e61c37b360403a991c2c11298f97d817b63633f1ed65d36b99d390","s":"0x6e6098e6655e54759e9b970cf1b8e3b3dca6ff1db4d149a68a1be5b86acff0c9","to":"0xabf4daac18925530d1e4f99fd538d57b8bf1017c","transactionIndex":"0xe","type":"0x2","v":"0x1","value":"0x0","yParity":"0x1"},{"accessList":[],"blockHash":"0xfb0b415430726cae6f1453a3af5dc3a151334871e0a8bf8461842aea2550909e","blockNumber":"0x7aeca6a","chainId":"0xa","from":"0x040c943cf8b26e135a673368e3f6a2ff891380ee","gas":"0x4ea6a","gasPrice":"0x18897","hash":"0xc006c4bbbdc7c071d39ad490793b84ecaf19391dad781a414f6d9f6e4f312394","input":"0x9c8f9f230000000000000000000000000000000000000000000000000000000000000000","maxFeePerGas":"0x18e78","maxPriorityFeePerGas":"0x186a0","nonce":"0x15","r":"0x8c62c4e9cbd49fde1dc321a4ee7520be608bcb03e20f6ab3a46ee0c40da891a3","s":"0x5fcf06c628b735798c9ca2d3fa6e069d2d98d6d16165b0675e48a1a4ca4e982d","to":"0x5717b32b19f68f853da556e9c658979328f07a24","transactionIndex":"0xf","type":"0x2","v":"0x1","value":"0x0","yParity":"0x1"},{"accessList":[],"blockHash":"0xfb0b415430726cae6f1453a3af5dc3a151334871e0a8bf8461842aea2550909e","blockNumber":"0x7aeca6a","chainId":"0xa","from":"0xabe58b50367fb4cea7d19c41c228abed381ed2ef","gas":"0x4c4b40","gasPrice":"0x18896","hash":"0xd0c4121749c2849c79292e085ffa1490b569958a0702427bc0e41d961542352b","input":"0x0001","maxFeePerGas":"0x3938700","maxPriorityFeePerGas":"0x1869f","nonce":"0xd3952","r":"0x76419641c2a3ed7830a6b1e82d48bcc9bddef3966db2349cfdfb35526c476d5f","s":"0x6b88c5148eca8649bbcdd23f7c6ae885a75adfab8849f039f759656e8e37c41b","to":"0xd3dc079ac6f98275bbbcd0aff11cbaadb4d8f2ac","transactionIndex":"0x10","type":"0x2","v":"0x0","value":"0x0","yParity":"0x0"},{"accessList":[],"blockHash":"0xfb0b415430726cae6f1453a3af5dc3a151334871e0a8bf8461842aea2550909e","blockNumber":"0x7aeca6a","chainId":"0xa","from":"0xae0b5df2dfaacd6eb6c1c56cc710f529f31c6c44","gas":"0xe4e1c0","gasPrice":"0x18896","hash":"0x302178b834dddd660942f7508b43c62dddfb6b64f691341106dce3f4038e0a11","input":"0x24f88863","maxFeePerGas":"0x18a8d","maxPriorityFeePerGas":"0x1869f","nonce":"0x2c2e3d","r":"0x554e219f2de0e51b49bcc08e487647a26a7ad57975eaebc5568896dd866ce393","s":"0x17e26da8064ae9e007d7c6ee2c736418775503dcefffa964301ee77261dacbd","to":"0xabf4daac18925530d1e4f99fd538d57b8bf1017c","transactionIndex":"0x11","type":"0x2","v":"0x1","value":"0x0","yParity":"0x1"}],"transactionsRoot":"0xe1d7241db6a61b0b23e2e1bb6b3bfdd96d7171a1ed73d810dcff8ddbe41a6377","uncles":[],"withdrawals":[],"withdrawalsRoot":"0x56e81f171bcc55a6ff8345e692c0f86e5b48e01b996cadc001622fb5e363b421"},"id":
        0}

        '
    headers:
      CF-RAY:
      - 9db5c4be6ffdfeb8-AMS
      Cache-Control:
      - max-age=0, private, must-revalidate
      Connection:
      - keep-alive
      Content-Type:
      - application/json; charset=utf-8
      Date:
      - Thu, 12 Mar 2026 21:07:27 GMT
      Nel:
      - '{"report_to":"cf-nel","success_fraction":0.0,"max_age":604800}'
      Report-To:
      - '{"group":"cf-nel","max_age":604800,"endpoints":[{"url":"https://a.nel.cloudflare.com/report/v4?s=CVjtk3j5IDtnviikrD3P9N4078Kym4gjDwW8PIlVg6bdt4f2zIu5JLOBsqlzu8qVO%2FvlegrKwmCAUo0DTlTsvpVN9CQRnpQLGaL65Ytffwrhgm2ew6Yv3FfQIHjhxggW"}]}'
      Server:
      - cloudflare
      Transfer-Encoding:
      - chunked
      access-control-allow-credentials:
      - 'true'
      access-control-allow-origin:
      - '*'
      access-control-expose-headers:
      - bypass-429-option,x-ratelimit-reset,x-ratelimit-limit,x-ratelimit-remaining,api-v2-temp-token
      alt-svc:
      - h3=":443"; ma=86400
      bypass-429-option:
      - no_bypass
      cf-cache-status:
      - DYNAMIC
      content-length:
      - '23031'
      strict-transport-security:
      - max-age=31536000; includeSubDomains
      x-ratelimit-limit:
      - '600'
      x-ratelimit-remaining:
      - '598'
      x-ratelimit-reset:
      - '32854'
      x-request-id:
      - 97b4a90e2a06b2c6eaa1d7a5ce890eb9
    status:
      code: 200
      message: OK
- request:
    body: '{"id": 0, "jsonrpc": "2.0", "method": "eth_getTransactionReceipt", "params":
      ["0x5df999d8c261a6ecd3abb967dc0fdf27bcf727ece0dca0dac7036f2c9d3b5e18"]}'
    headers:
      Accept:
      - '*/*'
      Accept-Encoding:
      - gzip, deflate
      Connection:
      - keep-alive
      Content-Length:
      - '148'
      Content-Type:
      - application/json
      User-Agent:
      - rotki/1.41.2.dev1008+g426721fd6f
    method: POST
    uri: https://api.blockscout.com/10/json-rpc
  response:
    body:
      string: '{"jsonrpc":"2.0","result": {"blockHash":"0xfb0b415430726cae6f1453a3af5dc3a151334871e0a8bf8461842aea2550909e","blockNumber":"0x7aeca6a","contractAddress":null,"cumulativeGasUsed":"0x13f863","effectiveGasPrice":"0xf4437","from":"0x02df3cba3fe1cfbb297a2a91d8aa8cec62848696","gasUsed":"0x1f8ff","logs":[{"address":"0xdbf55813b8993aa987253f0e2d0203e87da76407","blockHash":"0xfb0b415430726cae6f1453a3af5dc3a151334871e0a8bf8461842aea2550909e","blockNumber":"0x7aeca6a","data":"0x0000000000000000000000000000000000000000000000000043cf586b4532ea","logIndex":"0x4","removed":false,"topics":["0xddf252ad1be2c89b69c2b068fc378daa952ba7f163c4a11628f55a4df523b3ef","0x0000000000000000000000000000000000000000000000000000000000000000","0x00000000000000000000000002df3cba3fe1cfbb297a2a91d8aa8cec62848696"],"transactionHash":"0x5df999d8c261a6ecd3abb967dc0fdf27bcf727ece0dca0dac7036f2c9d3b5e18","transactionIndex":"0x6"},{"address":"0xdafdad30d21deb0235f549c2e2d5e39486d088d0","blockHash":"0xfb0b415430726cae6f1453a3af5dc3a151334871e0a8bf8461842aea2550909e","blockNumber":"0x7aeca6a","data":"0x0000000000000000000000000000000000000000000000000000000000000000","logIndex":"0x5","removed":false,"topics":["0x8c5be1e5ebec7d5bd14f71427d1e84f3dd0314c0f7b2291e5b200ac8c7c3b925","0x00000000000000000000000002df3cba3fe1cfbb297a2a91d8aa8cec62848696","0x000000000000000000000000dbf55813b8993aa987253f0e2d0203e87da76407"],"transactionHash":"0x5df999d8c261a6ecd3abb967dc0fdf27bcf727ece0dca0dac7036f2c9d3b5e18","transactionIndex":"0x6"},{"address":"0xdafdad30d21deb0235f549c2e2d5e39486d088d0","blockHash":"0xfb0b415430726cae6f1453a3af5dc3a151334871e0a8bf8461842aea2550909e","blockNumber":"0x7aeca6a","data":"0x0000000000000000000000000000000000000000000000000043cf586b4532ea","logIndex":"0x6","removed":false,"topics":["0xddf252ad1be2c89b69c2b068fc378daa952ba7f163c4a11628f55a4df523b3ef","0x00000000000000000000000002df3cba3fe1cfbb297a2a91d8aa8cec62848696","0x000000000000000000000000dbf55813b8993aa987253f0e2d0203e87da76407"],"transactionHash":"0x5df999d8c261a6ecd3abb967dc0fdf27bcf727ece0dca0dac7036f2c9d3b5e18","transactionIndex":"0x6"},{"address":"0xdbf55813b8993aa987253f0e2d0203e87da76407","blockHash":"0xfb0b415430726cae6f1453a3af5dc3a151334871e0a8bf8461842aea2550909e","blockNumber":"0x7aeca6a","data":"0x0000000000000000000000000000000000000000000000000043cf586b4532ea","logIndex":"0x7","removed":false,"topics":["0x9e71bc8eea02a63969f509818f2dafb9254532904319f9dbda79b67bd34a5f3d","0x00000000000000000000000002df3cba3fe1cfbb297a2a91d8aa8cec62848696"],"transactionHash":"0x5df999d8c261a6ecd3abb967dc0fdf27bcf727ece0dca0dac7036f2c9d3b5e18","transactionIndex":"0x6"}],"logsBloom":"0x00000800000000000000000000000000000000100800000000000000000000000000000000000000000000000000000000800000000000000000000000200000000000000000000000000008000000000000040800000000000000000000000040000000020000000008000000000800000000000000000000000810000000000000000000000000000000000000000000000000000000000000000000000000020000000040000000000000000000000000000000000001000000000000002080000002000400000000000000000000000000000000000000000000000020000010000000000000000000000000000000000000000000000000000000000200","status":"0x1","to":"0xdbf55813b8993aa987253f0e2d0203e87da76407","transactionHash":"0x5df999d8c261a6ecd3abb967dc0fdf27bcf727ece0dca0dac7036f2c9d3b5e18","transactionIndex":"0x6","type":"0x2"},"id":
        0}

        '
    headers:
      CF-RAY:
      - 9db5c4bfeb4d3ec4-AMS
      Cache-Control:
      - max-age=0, private, must-revalidate
      Connection:
      - keep-alive
      Content-Type:
      - application/json; charset=utf-8
      Date:
      - Thu, 12 Mar 2026 21:07:27 GMT
      Nel:
      - '{"report_to":"cf-nel","success_fraction":0.0,"max_age":604800}'
      Report-To:
      - '{"group":"cf-nel","max_age":604800,"endpoints":[{"url":"https://a.nel.cloudflare.com/report/v4?s=x75Yk3d6hRi4XjV%2Bs%2F9xWyz2r9MuMx6wFKGR%2FxrokhEliwmgPVsyFM30TOPclztOT%2FqK5AsDtw%2FeKaHMcvUM0JHz3p%2BG8I5eezLsuPrjmIgFXhWeswKXO56qiLvOlhz7"}]}'
      Server:
      - cloudflare
      Transfer-Encoding:
      - chunked
      access-control-allow-credentials:
      - 'true'
      access-control-allow-origin:
      - '*'
      access-control-expose-headers:
      - bypass-429-option,x-ratelimit-reset,x-ratelimit-limit,x-ratelimit-remaining,api-v2-temp-token
      alt-svc:
      - h3=":443"; ma=86400
      bypass-429-option:
      - no_bypass
      cf-cache-status:
      - DYNAMIC
      content-length:
      - '3372'
      strict-transport-security:
      - max-age=31536000; includeSubDomains
      x-ratelimit-limit:
      - '600'
      x-ratelimit-remaining:
      - '597'
      x-ratelimit-reset:
      - '32627'
      x-request-id:
      - daf2763832b511b01929540238db8754
    status:
      code: 200
      message: OK
- request:
    body: null
    headers:
      Accept:
      - '*/*'
      Accept-Encoding:
      - gzip, deflate
      Connection:
      - keep-alive
      User-Agent:
      - rotki/1.41.2.dev1008+g426721fd6f
    method: GET
    uri: https://api.blockscout.com/10/api/v2/transactions/0x5df999d8c261a6ecd3abb967dc0fdf27bcf727ece0dca0dac7036f2c9d3b5e18
  response:
    body:
      string: '{"l1_gas_used":"1600","priority_fee":"129279000000","raw_input":"0xa694fc3a0000000000000000000000000000000000000000000000000043cf586b4532ea","is_pending_update":false,"op_withdrawals":[],"result":"success","hash":"0x5df999d8c261a6ecd3abb967dc0fdf27bcf727ece0dca0dac7036f2c9d3b5e18","max_fee_per_gas":"1000600","revert_reason":null,"confirmation_duration":[0,2.0e3],"transaction_burnt_fee":"65027337","type":2,"token_transfers_overflow":false,"confirmations":19979842,"position":6,"max_priority_fee_per_gas":"1000000","transaction_tag":null,"created_contract":null,"value":"0","l1_fee_scalar":"0","from":{"ens_domain_name":null,"hash":"0x02DF3cBA3fE1cFBb297a2A91d8AA8CEC62848696","implementations":[],"is_contract":false,"is_scam":false,"is_verified":false,"metadata":null,"name":null,"private_tags":[],"proxy_type":null,"public_tags":[],"reputation":"ok","watchlist_names":[]},"gas_used":"129279","status":"ok","to":{"ens_domain_name":null,"hash":"0xdBf55813B8993AA987253f0e2d0203E87Da76407","implementations":[{"address_hash":"0x6E65f5Fb396F7F2F88dC1A191d0C6D7769463069","name":"BeefyRewardPool"}],"is_contract":true,"is_scam":false,"is_verified":true,"metadata":null,"name":"BeaconProxy","private_tags":[],"proxy_type":"eip1967_beacon","public_tags":[],"reputation":"ok","watchlist_names":[]},"authorization_list":[],"l1_fee":"980249353097","method":"stake","fee":{"type":"actual","value":"1109593380434"},"actions":[],"gas_limit":"212477","gas_price":"1000503","decoded_input":{"method_call":"stake(uint256
        _amount)","method_id":"a694fc3a","parameters":[{"name":"_amount","type":"uint256","value":"19086802103382762"}]},"l1_gas_price":"15503703513","token_transfers":[{"block_hash":"0xfb0b415430726cae6f1453a3af5dc3a151334871e0a8bf8461842aea2550909e","block_number":128895594,"from":{"ens_domain_name":null,"hash":"0x0000000000000000000000000000000000000000","implementations":[],"is_contract":false,"is_scam":false,"is_verified":false,"metadata":{"tags":[{"meta":{},"name":"Null:
        0x000...000","ordinal":10,"slug":"null-0x000000","tagType":"name"},{"meta":{},"name":"Metamask
        User","ordinal":0,"slug":"metamask-user","tagType":"generic"},{"meta":{},"name":"Imtoken
        User","ordinal":0,"slug":"imtoken-user","tagType":"generic"},{"meta":{},"name":"Miner","ordinal":0,"slug":"miner","tagType":"generic"},{"meta":{},"name":"Burn","ordinal":0,"slug":"burn","tagType":"generic"},{"meta":{"alertStatus":"info","data":"This
        address is commonly used by projects to burn tokens (reducing total supply)
        or mint tokens (increasing total supply)."},"name":"note_0","ordinal":0,"slug":"note0","tagType":"note"},{"meta":{},"name":"Null","ordinal":0,"slug":"null","tagType":"protocol"}]},"name":null,"private_tags":[],"proxy_type":null,"public_tags":[],"reputation":"ok","watchlist_names":[]},"log_index":4,"method":null,"timestamp":null,"to":{"ens_domain_name":null,"hash":"0x02DF3cBA3fE1cFBb297a2A91d8AA8CEC62848696","implementations":[],"is_contract":false,"is_scam":false,"is_verified":false,"metadata":null,"name":null,"private_tags":[],"proxy_type":null,"public_tags":[],"reputation":"ok","watchlist_names":[]},"token":{"address_hash":"0xdBf55813B8993AA987253f0e2d0203E87Da76407","circulating_market_cap":null,"decimals":"18","exchange_rate":null,"holders_count":"22","icon_url":null,"name":"Reward
        Moo Compound Optimism WETH","reputation":"ok","symbol":"rmooCompoundOptimismWETH","total_supply":"54614478760310891554","type":"ERC-20","volume_24h":null},"token_type":"ERC-20","total":{"decimals":"18","value":"19086802103382762"},"transaction_hash":"0x5df999d8c261a6ecd3abb967dc0fdf27bcf727ece0dca0dac7036f2c9d3b5e18","type":"token_minting"},{"block_hash":"0xfb0b415430726cae6f1453a3af5dc3a151334871e0a8bf8461842aea2550909e","block_number":128895594,"from":{"ens_domain_name":null,"hash":"0x02DF3cBA3fE1cFBb297a2A91d8AA8CEC62848696","implementations":[],"is_contract":false,"is_scam":false,"is_verified":false,"metadata":null,"name":null,"private_tags":[],"proxy_type":null,"public_tags":[],"reputation":"ok","watchlist_names":[]},"log_index":6,"method":null,"timestamp":null,"to":{"ens_domain_name":null,"hash":"0xdBf55813B8993AA987253f0e2d0203E87Da76407","implementations":[{"address_hash":"0x6E65f5Fb396F7F2F88dC1A191d0C6D7769463069","name":"BeefyRewardPool"}],"is_contract":true,"is_scam":false,"is_verified":true,"metadata":null,"name":"BeaconProxy","private_tags":[],"proxy_type":"eip1967_beacon","public_tags":[],"reputation":"ok","watchlist_names":[]},"token":{"address_hash":"0xdAFdaD30D21DEB0235F549C2E2D5e39486D088D0","circulating_market_cap":null,"decimals":"18","exchange_rate":null,"holders_count":"295","icon_url":null,"name":"Moo
        Compound Optimism WETH","reputation":"ok","symbol":"mooCompoundOptimismWETH","total_supply":"235464354501016262444","type":"ERC-20","volume_24h":null},"token_type":"ERC-20","total":{"decimals":"18","value":"19086802103382762"},"transaction_hash":"0x5df999d8c261a6ecd3abb967dc0fdf27bcf727ece0dca0dac7036f2c9d3b5e18","type":"token_transfer"}],"base_fee_per_gas":"503","timestamp":"2024-12-05T09:12:45.000000Z","nonce":623,"historic_exchange_rate":"3789.23","transaction_types":["contract_call","token_transfer"],"exchange_rate":"2065.43","block_number":128895594,"has_error_in_internal_transactions":false}'
    headers:
      CF-RAY:
      - 9db5c4c0bc9d2443-AMS
      Cache-Control:
      - max-age=0, private, must-revalidate
      Connection:
      - keep-alive
      Content-Type:
      - application/json; charset=utf-8
      Date:
      - Thu, 12 Mar 2026 21:07:27 GMT
      Nel:
      - '{"report_to":"cf-nel","success_fraction":0.0,"max_age":604800}'
      Report-To:
      - '{"group":"cf-nel","max_age":604800,"endpoints":[{"url":"https://a.nel.cloudflare.com/report/v4?s=rGlwJ79u4QFr9UMLTwP0iLlIHjWn3PBit71Kd3lhkPGyPciWT7w1Y1CWMiq6rWzx%2FxrIXZyA7jnS5CEBmDFigpzZQQJ23ewtIJO%2BRCr08OKEg3efo1f2mJb5MDJI%2BdFg"}]}'
      Server:
      - cloudflare
      Transfer-Encoding:
      - chunked
      access-control-allow-credentials:
      - 'true'
      access-control-allow-origin:
      - '*'
      access-control-expose-headers:
      - bypass-429-option,x-ratelimit-reset,x-ratelimit-limit,x-ratelimit-remaining,api-v2-temp-token
      alt-svc:
      - h3=":443"; ma=86400
      bypass-429-option:
      - temporary_token
      cf-cache-status:
      - DYNAMIC
      content-length:
      - '5242'
      strict-transport-security:
      - max-age=31536000; includeSubDomains
      x-ratelimit-limit:
      - '600'
      x-ratelimit-remaining:
      - '596'
      x-ratelimit-reset:
      - '32513'
      x-request-id:
      - 58f8c0e31e2426803e8254faf94ef0df
    status:
      code: 200
      message: OK
- request:
    body: null
    headers:
      Accept:
      - '*/*'
      Accept-Encoding:
      - gzip, deflate
      Connection:
      - keep-alive
      User-Agent:
      - rotki/1.41.2.dev1008+g426721fd6f
    method: GET
    uri: https://api.blockscout.com/10/api?action=txlistinternal&module=account&sort=asc&txhash=0x5df999d8c261a6ecd3abb967dc0fdf27bcf727ece0dca0dac7036f2c9d3b5e18
  response:
    body:
      string: '{"message":"No internal transactions found","result":[],"status":"0"}'
    headers:
      CF-RAY:
      - 9db5c4c40d2b0e68-AMS
      Cache-Control:
      - max-age=0, private, must-revalidate
      Connection:
      - keep-alive
      Content-Type:
      - application/json; charset=utf-8
      Date:
      - Thu, 12 Mar 2026 21:07:28 GMT
      Nel:
      - '{"report_to":"cf-nel","success_fraction":0.0,"max_age":604800}'
      Report-To:
      - '{"group":"cf-nel","max_age":604800,"endpoints":[{"url":"https://a.nel.cloudflare.com/report/v4?s=oWx9DWBWcjj44gpx6bxkrRWabYcv6tabU07epj9Yewa3r9EFxH9VjJ0Skpqm%2FxEEdySslH9QmsKSBeogtmy3%2FsCaYWMJI8GmP7h4wi9wQUcqqia%2F2sS36F%2FyqburB8zA"}]}'
      Server:
      - cloudflare
      Transfer-Encoding:
      - chunked
      access-control-allow-credentials:
      - 'true'
      access-control-allow-origin:
      - '*'
      access-control-expose-headers:
      - bypass-429-option,x-ratelimit-reset,x-ratelimit-limit,x-ratelimit-remaining,api-v2-temp-token
      alt-svc:
      - h3=":443"; ma=86400
      bypass-429-option:
      - no_bypass
      cf-cache-status:
      - DYNAMIC
      content-length:
      - '69'
      strict-transport-security:
      - max-age=31536000; includeSubDomains
      x-ratelimit-limit:
      - '600'
      x-ratelimit-remaining:
      - '595'
      x-ratelimit-reset:
      - '31983'
      x-request-id:
      - 1602d901ad4b19289b6e54c2436eae09
    status:
      code: 200
      message: OK
version: 1
