interactions:
- request:
    body: '{"id": 0, "jsonrpc": "2.0", "method": "eth_getTransactionByHash", "params":
      ["0x21838ade02a845e3cb03b45971e794eaa0cffbc6056d375f394c2e314832757f"]}'
    headers:
      Accept:
      - '*/*'
      Accept-Encoding:
      - gzip, deflate
      Connection:
      - keep-alive
      Content-Length:
      - '147'
      Content-Type:
      - application/json
      User-Agent:
      - rotki/0.1.dev19339+g87f84bf.d20260226
    method: POST
    uri: https://api.blockscout.com/8453/json-rpc
  response:
    body:
      string: '{"jsonrpc":"2.0","result": {"accessList":[],"blockHash":"0x5fa902aa8344c5756ea7541566ef5bac563d384e61a8926fe8844c5b36aa71b3","blockNumber":"0xf3fe05","chainId":"0x2105","from":"0x398cef46d335408a3679d900a8711b30593ae0c8","gas":"0xf99e","gasPrice":"0x5b0d7b","hash":"0x21838ade02a845e3cb03b45971e794eaa0cffbc6056d375f394c2e314832757f","input":"0x3ccfd60b","maxFeePerGas":"0x5b0d7b","maxPriorityFeePerGas":"0x5b0d7b","nonce":"0x24","r":"0xc175019fb47100a07afcbc4627a9aaa3969bbdee8af0df11da360acb2ed2b0bc","s":"0x3fccbdbccdf257fedd950d7cc67782e45a753dc7aaa4b64fd389c649e512524a","to":"0xe61acb121a2b538df495a85c4e50dd8581de4ed0","transactionIndex":"0x31","type":"0x2","v":"0x1","value":"0x0","yParity":"0x1"},"id":
        0}

        '
    headers:
      CF-RAY:
      - 9d7a8f0999938614-AMS
      Cache-Control:
      - max-age=0, private, must-revalidate
      Connection:
      - keep-alive
      Content-Type:
      - application/json; charset=utf-8
      Date:
      - Thu, 05 Mar 2026 16:39:47 GMT
      Nel:
      - '{"report_to":"cf-nel","success_fraction":0.0,"max_age":604800}'
      Report-To:
      - '{"group":"cf-nel","max_age":604800,"endpoints":[{"url":"https://a.nel.cloudflare.com/report/v4?s=wozz2Fa0FtSP2e3YFY1up4EdunVd21dTIWxv%2Ff%2FzopiNhGAgay5%2F3jS%2B5%2FGrHl%2FREKriuDa4GdX2XpqkJFuGBXJG0A1zOv%2BXfj5SXo%2BtO92%2F%2BTGVdgWnt7VsM77CzQ%3D%3D"}]}'
      Server:
      - cloudflare
      Transfer-Encoding:
      - chunked
      access-control-allow-credentials:
      - 'true'
      access-control-allow-origin:
      - '*'
      access-control-expose-headers:
      - bypass-429-option,x-ratelimit-reset,x-ratelimit-limit,x-ratelimit-remaining,api-v2-temp-token
      alt-svc:
      - h3=":443"; ma=86400
      bypass-429-option:
      - no_bypass
      cf-cache-status:
      - DYNAMIC
      content-length:
      - '715'
      strict-transport-security:
      - max-age=31536000; includeSubDomains
      x-ratelimit-limit:
      - '600'
      x-ratelimit-remaining:
      - '599'
      x-ratelimit-reset:
      - '12531'
      x-request-id:
      - db1e2e7e25405263385c4ebb6d1c5cc9
    status:
      code: 200
      message: OK
- request:
    body: '{"id": 0, "jsonrpc": "2.0", "method": "eth_getBlockByNumber", "params":
      ["0xf3fe05", true]}'
    headers:
      Accept:
      - '*/*'
      Accept-Encoding:
      - gzip, deflate
      Connection:
      - keep-alive
      Content-Length:
      - '91'
      Content-Type:
      - application/json
      User-Agent:
      - rotki/0.1.dev19339+g87f84bf.d20260226
    method: POST
    uri: https://api.blockscout.com/8453/json-rpc
  response:
    body:
      string: '{"jsonrpc":"2.0","result": {"baseFeePerGas":"0x4bfa8e","blobGasUsed":"0x0","difficulty":"0x0","excessBlobGas":"0x0","extraData":"0x","gasLimit":"0x5cfbb60","gasUsed":"0xd5fd67","hash":"0x5fa902aa8344c5756ea7541566ef5bac563d384e61a8926fe8844c5b36aa71b3","logsBloom":"0x406d844320853f8dc00261148918642335030a010401d1182a759030202010d002ad0248112000000240005010ac3e8029209000a4807163a067459004ac08a526905018c26c085c05056208810a0c310a84e92019680d002012664084a099241685402896105b0c1161af3169802f07090b00554010042000f0249448481f049621081290e90151b120a19015050c500e042313412020ab20432852208411984b901a13c028e8a427a985c22b40078002108508a40c28081908800a082041481510905b854141c40400a788c200a2002a00804600944218c221c0428058299594d24a2903801460448c0014312404040100b400440402448008422020e51608","miner":"0x4200000000000000000000000000000000000011","mixHash":"0xdbb4adb6773fee033cbcdb87fcfb253dd8d70f78abb3ec0b9044968c49dbb62f","nonce":"0x0000000000000000","number":"0xf3fe05","parentBeaconBlockRoot":"0x26502261ead4dd957eeb279772853b9e9b7ec79a2b0960f5fa1a89d7ee90abcf","parentHash":"0x5ea055875e63d2c3b93cc476001dd2d7149243671ad169fed1972aea8fada889","receiptsRoot":"0x867aba6931a4859479ea0eec09e7e2fa7ff481667a0ba7a2ac86ff69b1d7d2a6","sha3Uncles":"0x1dcc4de8dec75d7aab85b567b6ccd41ad312451b948a7413f0a142fd40d49347","size":"0x11476","stateRoot":"0x054a21c02845802e2721832ea4bac9fdbbfa93dd1a0e2034c0b0246ae228b1cc","timestamp":"0x667258ed","transactions":[{"blockHash":"0x5fa902aa8344c5756ea7541566ef5bac563d384e61a8926fe8844c5b36aa71b3","blockNumber":"0xf3fe05","depositReceiptVersion":"0x1","from":"0xdeaddeaddeaddeaddeaddeaddeaddeaddead0001","gas":"0xf4240","gasPrice":"0x0","hash":"0x3fd6832cfba652521edf5261375e35fa9ccddab0c555ae05245b69bae9c961f9","input":"0x440a5e200000044d000a118b000000000000000400000000667258370000000001330e8c00000000000000000000000000000000000000000000000000000001069b66ad000000000000000000000000000000000000000000000000000000000000000146e1b3c966141fd6c5527dd7293af1a8b3cd94804818245e21ee97f2c6fdedda0000000000000000000000005050f69a9786f081509234f1a7f4684b5e5b76c9","mint":"0x0","nonce":"0xf3fe05","r":"0x0","s":"0x0","sourceHash":"0x548dc0b911f05e21def63d26946400c962bd2eae681270c10c79a4232b2a36c0","to":"0x4200000000000000000000000000000000000015","transactionIndex":"0x0","type":"0x7e","v":"0x0","value":"0x0","yParity":"0x0"},{"accessList":[{"address":"0x4200000000000000000000000000000000000006","storageKeys":["0x160424a288820f814234f98d69409b8d0bdd46b81a8d0f5ad8dac5a2936f4a0c"]}],"blockHash":"0x5fa902aa8344c5756ea7541566ef5bac563d384e61a8926fe8844c5b36aa71b3","blockNumber":"0xf3fe05","chainId":"0x2105","from":"0x7beca9348b79e545d5f0b8fd178dced98b4d45b2","gas":"0x2b8de","gasPrice":"0x5afd0ae8","hash":"0x5beae2d2467861bb36d15c9fdb3496ac3c3e22871516b733725f36ea220b46e5","input":"0x000000021e61c8f528899000000006cbce8d732cfd915a01000100000118b3fd39246312c9000000b211a9ddff3a10806c8fdb92dbc4c34596a23f84000000377feeed4820b3b28d1ab429509e7a0789824fca01001e","nonce":"0x94550","r":"0xcf1eccdc7f47ef26a3b6e602cfc23c1c17fc0ec042fec3f5ee23c53bb1f5f6f7","s":"0x3abddace991e68443efa4aa6cb2cd65fc705821a2448069e7944b94d71e048e","to":"0xd6302399b746cd6b42a6585cfbefe13fc9ae17a9","transactionIndex":"0x1","type":"0x1","v":"0x1","value":"0xaa39","yParity":"0x1"},{"accessList":[],"blockHash":"0x5fa902aa8344c5756ea7541566ef5bac563d384e61a8926fe8844c5b36aa71b3","blockNumber":"0xf3fe05","chainId":"0x2105","from":"0x08aecc0422ea5106af0f830659654178b31b1d7d","gas":"0x3898f","gasPrice":"0x37ee4508","hash":"0x0e9959696609a4c1aaf3c32a84b3e9c372e7c02f03e0d33eafb3c7f3f2674fbe","input":"0x000000010000000000000006cbce8d732cfd90f600000000001932622ed66511239a69789a26f5433671751c3276a065f57e5a02d2817973004200000000000000000000000000000000000006377feeed4820b3b28d1ab429509e7a0789824fcab211a9ddff3a10806c8fdb92dbc4c34596a23f840100000000000000000221674599fe37620000000000002547d831c5186d6da453","maxFeePerGas":"0x37ee4508","maxPriorityFeePerGas":"0x37ee4508","nonce":"0x119d3","r":"0xa9395374de0fd02ec095242f8cde87da5cfaf0c6430ba829c4df4ef548643e9","s":"0x4e0653d551f00ceccc08022f0658cc19bd6c70abd609ecb8252418abe786f8cf","to":"0xd0f4f191b59afbd2594068cd34971f6f59d4b4e3","transactionIndex":"0x2","type":"0x2","v":"0x1","value":"0x1","yParity":"0x1"},{"blockHash":"0x5fa902aa8344c5756ea7541566ef5bac563d384e61a8926fe8844c5b36aa71b3","blockNumber":"0xf3fe05","chainId":"0x2105","from":"0x4390bb890a3e87dbd62cc9a5738ac1ecbeafaca7","gas":"0x2bd36","gasPrice":"0x22bb0595","hash":"0xeef255b48172617fe41950ca942d34b89134f9715281d8a539934f2d2fb5ed59","input":"0x0022800000b211a9ddff3a10806c8fdb92dbc4c34596a23f8402012c377feeed4820b3b28d1ab429509e7a0789824fca021efa9acbe9a2e008776d3a288b62ff7a9997420b0429fd8ea193bb06c83bbf6532920e","nonce":"0x7b2ca","r":"0xa0ed6b9833194d58e03777103255acde6a0b83b3cbc2585291f85b1af713646","s":"0xcd52252cd985a254cd265e80ebbdc2b516c91f6a2e32e1324e0169c0a5888ed","to":"0x8aa5f6554f1a6da46f1151fc635494a698304431","transactionIndex":"0x3","type":"0x0","v":"0x422d","value":"0x0"},{"accessList":[],"blockHash":"0x5fa902aa8344c5756ea7541566ef5bac563d384e61a8926fe8844c5b36aa71b3","blockNumber":"0xf3fe05","chainId":"0x2105","from":"0x9931e0f907262977a56c083de1f61c5b164095dd","gas":"0x41498","gasPrice":"0x641db8e","hash":"0xca06f7fff21d8283a55c2be042acd88b7160466d456027800ab4956ec861826d","input":"0xf019b93600000000000000000000000000000000000000000000000000000000000000030000000000000000000000003fc91a3afd70395cd496c647d5a6cc9d4b2b7fad0000000000000000000000000000000000000000000170cbf0711077e475b4c600000000000000000000000000000000000000000000000000000000000000000000000000000000000000000000000000000000000000000000000000000000000000000000000000000000000000000000000000000000000000000000000000000000000000000000000000000000000000000000000000000000000001200000000000000000000000000000000000000000000000000000000000000180000000000000000000000000000000000000000000000000000000000000000a0000000000000000000000000000000000000000000000000000000000000002000000000000000000000000e652e7448b3beb0e952c9d9493f8899edae058d30000000000000000000000004200000000000000000000000000000000000006000000000000000000000000000000000000000000000000000000000000002be652e7448b3beb0e952c9d9493f8899edae058d30027104200000000000000000000000000000000000006000000000000000000000000000000000000000000","maxFeePerGas":"0x67e8fd3","maxPriorityFeePerGas":"0x5f5e100","nonce":"0x93c","r":"0xb055cffb08bfd38ea1f7180f9d700c28e2e5c7097c5f2a0d549daf4618a33f2f","s":"0x341908b47bdb560debf93b92c78942e932aaa4cd10f6e58c9056ec377c588c2d","to":"0x5e6bb47d89fea09cf5a75ea7e3fa2e804798eb55","transactionIndex":"0x4","type":"0x2","v":"0x1","value":"0x0","yParity":"0x1"},{"accessList":[],"blockHash":"0x5fa902aa8344c5756ea7541566ef5bac563d384e61a8926fe8844c5b36aa71b3","blockNumber":"0xf3fe05","chainId":"0x2105","from":"0x192320f2de02d4570ae47d221c3970535e9ccd24","gas":"0x30d40","gasPrice":"0x390152e","hash":"0x2133430675e326056082201d3e731f1fa70601dcb629e084f1aa84333b99d027","input":"0x7ff36ab50000000000000000000000000000000000000000000007ecc438e3ab62c651f20000000000000000000000000000000000000000000000000000000000000080000000000000000000000000192320f2de02d4570ae47d221c3970535e9ccd240000000000000000000000000000000000000000000000000000000066725d98000000000000000000000000000000000000000000000000000000000000000200000000000000000000000042000000000000000000000000000000000000060000000000000000000000007a8a5012022bccbf3ea4b03cd2bb5583d915fb1a","maxFeePerGas":"0x390152e","maxPriorityFeePerGas":"0x390152e","nonce":"0x67","r":"0x2846c8b8ad99c0d6bd3211cbdbdcf3bf417141ee568798ea8b06a52097242364","s":"0x3a3ceccfd2157839d869517f1e81ef0a1e8af869be6569425478a5c107964a73","to":"0x4752ba5dbc23f44d87826276bf6fd6b1c372ad24","transactionIndex":"0x5","type":"0x2","v":"0x1","value":"0x7278d42b4ed000","yParity":"0x1"},{"accessList":[],"blockHash":"0x5fa902aa8344c5756ea7541566ef5bac563d384e61a8926fe8844c5b36aa71b3","blockNumber":"0xf3fe05","chainId":"0x2105","from":"0xa923b19bbc3881de3bc9bf410749e5bc7cb23ed6","gas":"0x2e630","gasPrice":"0xd576b7","hash":"0xf9acadab2b9ea7a44db57e9479436c305978d551fed32184b0f7e41d4929a8c2","input":"0xb6f9de9500000000000000000000000000000000000000000000000000000000000000000000000000000000000000000000000000000000000000000000000000000080000000000000000000000000a923b19bbc3881de3bc9bf410749e5bc7cb23ed60000000000000000000000000000000000000000000000000000000066725d9b00000000000000000000000000000000000000000000000000000000000000020000000000000000000000004200000000000000000000000000000000000006000000000000000000000000cde172dc5ffc46d228838446c57c1227e0b82049","maxFeePerGas":"0xd576b7","maxPriorityFeePerGas":"0xd576b7","nonce":"0x0","r":"0x974650e3e91f7d96e13e6110002a1954cbd20424735bd254f587cefc56e2ad22","s":"0x6bc5c718fa77707ad4db0e0044926bde26e09de74055d1707632f276df0f8863","to":"0x4752ba5dbc23f44d87826276bf6fd6b1c372ad24","transactionIndex":"0x6","type":"0x2","v":"0x0","value":"0xaae600","yParity":"0x0"},{"accessList":[],"blockHash":"0x5fa902aa8344c5756ea7541566ef5bac563d384e61a8926fe8844c5b36aa71b3","blockNumber":"0xf3fe05","chainId":"0x2105","from":"0x9c71226863d3db3a7de3402e3743fea8026dc9e0","gas":"0x2dc6c0","gasPrice":"0xd06ac9","hash":"0xdba190edb23a688ee2ce8f06d7c016806f078b9fc2ca47bbd70429a110808cb3","input":"0x0000000b000000000000000000000000000000000000000000000000000000000000002000000000000000000000000000000000000000000000000000000000000002764ed4e862860bed51a9570b96d89af5e1b0efefed00c9034c3e7f58003e6ae0c8438e7c8f4598d5acaa0376431a0c757cf5450c3fed304d9bb6bb2a601bac0a532f27101965dd16442e59d40670faf5ebb142e4004e829f8a5213c42535ab84aa40bd4adcce9cba020b76bf0abd20f1e0155ce40a62615a90a709a6c3d8035939f76146b071f0c82a647b22a5d75a076626160080e4e78a810be03124e627a4f8df82901203ed1801901822d65bc455f33d677fe31f10f4c3c213e7970347b464edb8dc9bc67b5cd4c9310bb87b773845bd0098433581b5420bc67fc5fd2b5f9dd3e7ca43140b016d6c60303d09886c30e789bed4bd36e86ee342b603698dc45e4f10966f6d1d98e3bfd7071d8144c2330076fc8dbf2022ee75612cb74ec80caf6b3ccffb2301075e82a2557d30fba2f8226f2f110145000ccbea03768be13e1680b5ebe0024c42c896e3db59ec0149006d6391b9bd02eefa00fa711fb1cb828a6471d283010ea13439f0818bd0598c002d9337374a78d5fe47039a26f5433671751c3276a065f57e5a02d281797300377feeed4820b3b28d1ab429509e7a0789824fca01d82403772cb858219cfb58bfab46ba7a3107347403bc45647ea894030a4e9801ec03479739fa2485f000ebec4772aba30d82bc64bbb99187b4ca29928e2e0b16905890a1d02b6f824387419319bf4188b961b001340c070260520ae477b88caa085a33531897145b005063d14add4f65320db953d76f9b058707c7d51a017ff70016a1de228a6b038405c0414d796167729f037480527815ccae421400da01e052b120cc4255e900228d69c0bcde48eeb61e3ea734570ca9b4df687d01dcdc74044a0ee999b84654cc0c9410bb54489a170300000000000000000000","maxFeePerGas":"0x118ddad","maxPriorityFeePerGas":"0x84703b","nonce":"0x246e11","r":"0xc504c2ada169fb46d91d97d564c651d344be8f82075813b85df1fb35bac7058f","s":"0x5a0e5a87023b2376ce23f6fbfe5bf6b6c5c72236fda0dc2f72ae188d076a1654","to":"0xce4cf0d5da97b7f4de1ba76609f2a1330411e7c0","transactionIndex":"0x7","type":"0x2","v":"0x1","value":"0x0","yParity":"0x1"},{"accessList":[],"blockHash":"0x5fa902aa8344c5756ea7541566ef5bac563d384e61a8926fe8844c5b36aa71b3","blockNumber":"0xf3fe05","chainId":"0x2105","from":"0xd39d00cb8436d472b1adbdae66a9703b7df438d1","gas":"0x4a62f8","gasPrice":"0xc57ab2","hash":"0x4499d45b75da8584a5f82ac1d3aa91a02c257b857d8eb096e647489492c4a212","input":"0x098b833589fcd6edb6e08f4c7c32d4f71b54bda029132710012562cdac0d6c6c59727a65f871236188350531885c4326f2b4cb800910b228ed3d0834cf79d697127bbb00e5270f098b0578d8a44db98b23bf096a382e016e29a5ce0ffe271000250387cadde19468283af8d610474ecbd19ed285f69826f2cc28456d4ff980cee3457ca809a257e52cd9cdb026ac098b0c41f1fc9022feb69af6dc666abfe73c9ffda7ce271000250339a72b1292aaed73b9b5633e14f88fe9a89f400b26f2780229080256c9c5af1630a3c165d5725131e61026acffff","maxFeePerGas":"0x1117540","maxPriorityFeePerGas":"0x798024","nonce":"0x348847","r":"0x567b0ca9752e01e9fc13d7ad1ec336650e3af1fa83b0f5cd1f8dd543ce4e96ac","s":"0x6e2847d7129b5be2bd4eb9104211c6be624809fa6c92973b81923cc0e9ae023a","to":"0x36db5034032fd240a1b3cde369772049c8dcfb91","transactionIndex":"0x8","type":"0x2","v":"0x0","value":"0x0","yParity":"0x0"},{"accessList":[],"blockHash":"0x5fa902aa8344c5756ea7541566ef5bac563d384e61a8926fe8844c5b36aa71b3","blockNumber":"0xf3fe05","chainId":"0x2105","from":"0xab70f38159dd4011c7c5322e7703ec44961d9585","gas":"0x493e0","gasPrice":"0x6d744e","hash":"0x19821acbbf8c3a005bd392e093efb3c3d68a0a82b2c51bf14b325c190fdc3992","input":"0x24856bc30000000000000000000000000000000000000000000000000000000000000040000000000000000000000000000000000000000000000000000000000000008000000000000000000000000000000000000000000000000000000000000000020b080000000000000000000000000000000000000000000000000000000000000000000000000000000000000000000000000000000000000000000000000002000000000000000000000000000000000000000000000000000000000000004000000000000000000000000000000000000000000000000000000000000000a000000000000000000000000000000000000000000000000000000000000000400000000000000000000000000000000000000000000000000000000000000002000000000000000000000000000000000000000000000000006a94d74f4300000000000000000000000000000000000000000000000000000000000000000100000000000000000000000000ab70f38159dd4011c7c5322e7703ec44961d9585000000000000000000000000000000000000000000000000006a94d74f4300000000000000000000000000000000000000000000000bc79b4017eaea48ff54f300000000000000000000000000000000000000000000000000000000000000a00000000000000000000000000000000000000000000000000000000000000000000000000000000000000000000000000000000000000000000000000000000200000000000000000000000042000000000000000000000000000000000000060000000000000000000000002dda06391e749168360aac60ab8bc6454263342a","maxFeePerGas":"0x6d744e","maxPriorityFeePerGas":"0x6d744e","nonce":"0xc77","r":"0x56ac7478ec36669f8ef1a28f7496576902328ca2939e0cc1e78ee283af611e17","s":"0x5ade33f5f03168921bc2993e4619012b2cd19c4a12b41b042cebe54261ec83da","to":"0x3fc91a3afd70395cd496c647d5a6cc9d4b2b7fad","transactionIndex":"0x9","type":"0x2","v":"0x1","value":"0x6a94d74f430000","yParity":"0x1"},{"accessList":[],"blockHash":"0x5fa902aa8344c5756ea7541566ef5bac563d384e61a8926fe8844c5b36aa71b3","blockNumber":"0xf3fe05","chainId":"0x2105","from":"0x4c2e9c86aa5f83a0546f77ab694bfffc56544d86","gas":"0x493e0","gasPrice":"0x6d744e","hash":"0x1a2bc8ab3abff6d3d765340deaa7202be7b11d11db1e5e5ed9e6b6f30e5fcc02","input":"0x24856bc30000000000000000000000000000000000000000000000000000000000000040000000000000000000000000000000000000000000000000000000000000008000000000000000000000000000000000000000000000000000000000000000020b080000000000000000000000000000000000000000000000000000000000000000000000000000000000000000000000000000000000000000000000000002000000000000000000000000000000000000000000000000000000000000004000000000000000000000000000000000000000000000000000000000000000a000000000000000000000000000000000000000000000000000000000000000400000000000000000000000000000000000000000000000000000000000000002000000000000000000000000000000000000000000000000000f0bb5c69fb00000000000000000000000000000000000000000000000000000000000000001000000000000000000000000004c2e9c86aa5f83a0546f77ab694bfffc56544d86000000000000000000000000000000000000000000000000000f0bb5c69fb0000000000000000000000000000000000000000000000daf932ddbf3788f97f90900000000000000000000000000000000000000000000000000000000000000a00000000000000000000000000000000000000000000000000000000000000000000000000000000000000000000000000000000000000000000000000000000200000000000000000000000042000000000000000000000000000000000000060000000000000000000000007093479aff8e6461758eb92dbb6391fc662d14cb","maxFeePerGas":"0x6d744e","maxPriorityFeePerGas":"0x6d744e","nonce":"0x1741","r":"0x952a07becd0c1f22f89fa65bbfedd210d4aba69ef032ec4bd1f8887e7c7261a9","s":"0x6a99514c5af85b2ffae7d07f2c4e4bf7c1984f66dc92197ab728ac246309b5f4","to":"0x3fc91a3afd70395cd496c647d5a6cc9d4b2b7fad","transactionIndex":"0xa","type":"0x2","v":"0x1","value":"0xf0bb5c69fb000","yParity":"0x1"},{"accessList":[],"blockHash":"0x5fa902aa8344c5756ea7541566ef5bac563d384e61a8926fe8844c5b36aa71b3","blockNumber":"0xf3fe05","chainId":"0x2105","from":"0xf607f6ff3107a439585a1365586fea9d9409b631","gas":"0x21c0c","gasPrice":"0x6d58a8","hash":"0x13b5a9c0d536b9fa90407322b07b4053358ff3b98588693cdcbe982757cbb142","input":"0x521da65d0000000000000000000000004752ba5dbc23f44d87826276bf6fd6b1c372ad2400000000000000000000000021a4b6d156f7e76dbaf08c941685f67a9c7a0a3e000000000000000000000000000000000000000000000000000000000000001e0000000000000000000000004200000000000000000000000000000000000006000000000000000000000000b9fc48fe7c85a228d13f0765500ea4b6b66ec9e200000000000000000000000000000000000000000000000001eff575daa500000000000000000000000000000000000000000000000175632c76e5ec6f0edd230000000000000000000000000000000000000000000000000000000000000001","maxFeePerGas":"0x6d58a8","maxPriorityFeePerGas":"0x6d58a8","nonce":"0x1d2","r":"0xc2ba9ffcad3fbedbb6bebc445bfec090b6b3f84578f1b98ae9086d71e492789b","s":"0x61f13aeda5da770710a66a3d3ce6b0bb524159c45303019e5e16e085a2a0c2b2","to":"0xa3a30b335acddd1ba7ffa594f2321228350f137c","transactionIndex":"0xb","type":"0x2","v":"0x0","value":"0x0","yParity":"0x0"},{"blockHash":"0x5fa902aa8344c5756ea7541566ef5bac563d384e61a8926fe8844c5b36aa71b3","blockNumber":"0xf3fe05","chainId":"0x2105","from":"0xb12dd5aa0dc4dc3c1b4e45f3fc9bd2026108f350","gas":"0xfde8","gasPrice":"0x6acfc0","hash":"0xe3615ba7c97a9b3087db2555fd6286ef51e94ffa956a77c3bcf608d801220ea3","input":"0xa9059cbb000000000000000000000000a99dedfa04edf76fd52da02016d472a14f59b27e000000000000000000000000000000000000000000000000000000000000011c","nonce":"0x2","r":"0x197e8dc7704ae2c278927d956ca259a907b3472a505f6195978ae578f6d74a9e","s":"0x2f1924e6ef200d1226b2ba64cc14b893d631ee0b772ad346885324b2e2513600","to":"0x833589fcd6edb6e08f4c7c32d4f71b54bda02913","transactionIndex":"0xc","type":"0x0","v":"0x422d","value":"0x0"},{"blockHash":"0x5fa902aa8344c5756ea7541566ef5bac563d384e61a8926fe8844c5b36aa71b3","blockNumber":"0xf3fe05","chainId":"0x2105","from":"0x49fd88a43853e0aef16454862d0d09ef26f25083","gas":"0xfde8","gasPrice":"0x6acfc0","hash":"0x902f500283bf31c0ed1d63cb1db9f1ff83b700ffed543a06aafd6e04473bff2b","input":"0xa9059cbb0000000000000000000000007caf92141d717f42c9cf423e8b4de6fbbecbfaef0000000000000000000000000000000000000000000000000000000000000031","nonce":"0x0","r":"0x317d66c324abb60b68e3bae54775bc5babb0a16b59b8997a708ff86c32839fb9","s":"0x30da4e02f76f504b2dbe06f6d0a547f512da6c17f3b9895d9c05cf2a7455a315","to":"0x833589fcd6edb6e08f4c7c32d4f71b54bda02913","transactionIndex":"0xd","type":"0x0","v":"0x422d","value":"0x0"},{"blockHash":"0x5fa902aa8344c5756ea7541566ef5bac563d384e61a8926fe8844c5b36aa71b3","blockNumber":"0xf3fe05","chainId":"0x2105","from":"0x7caf2541851c77ca74eed921cc79cd0faecbfaef","gas":"0xfde8","gasPrice":"0x6acfc0","hash":"0xa2566c40ab526c29f8f6ed21e429bede3bc91f6770363c77e8aabe0de3db609f","input":"0xa9059cbb00000000000000000000000049fdbafccd417be2b4efc50608013a392cf2508300000000000000000000000000000000000000000000000000000000000001ef","nonce":"0x0","r":"0x5fac05fbc438df6ed9eee3817d9ad86b72a1c4f721c1aad86e659087e7d4589e","s":"0x15ac849e50cbb9aaa1b627c02934618c72f62249385d1df86ea82beb93dc59fc","to":"0x833589fcd6edb6e08f4c7c32d4f71b54bda02913","transactionIndex":"0xe","type":"0x0","v":"0x422d","value":"0x0"},{"blockHash":"0x5fa902aa8344c5756ea7541566ef5bac563d384e61a8926fe8844c5b36aa71b3","blockNumber":"0xf3fe05","chainId":"0x2105","from":"0x681621342942f5f49da6aa382014d8a7b0ebad21","gas":"0xfde8","gasPrice":"0x6acfc0","hash":"0xe211bfb7b144ca54e765778fcd6d9b5df173415a2821bc9dcce8b42f6d18880e","input":"0xa9059cbb0000000000000000000000003e06616516695793fd73c4fa6f8ca5618d46b7c20000000000000000000000000000000000000000000000000000000000000258","nonce":"0x0","r":"0x4f91b499635fab493e24719cb477feda13ee856d718ea818546bf460ffe0a9c3","s":"0x17aa09d460fd4c3e21d7155b1669bcc285d41d3fcc9fe80b0bfaac0e838e3a33","to":"0x833589fcd6edb6e08f4c7c32d4f71b54bda02913","transactionIndex":"0xf","type":"0x0","v":"0x422e","value":"0x0"},{"blockHash":"0x5fa902aa8344c5756ea7541566ef5bac563d384e61a8926fe8844c5b36aa71b3","blockNumber":"0xf3fe05","chainId":"0x2105","from":"0x77f89f22d03cd6c8c06df6f74975a902e61ca4c7","gas":"0xfde8","gasPrice":"0x6acfc0","hash":"0xaea4ca691cea3a03b5558a74f59df5f804eea872a0e3c919b4d2c2814100e5da","input":"0xa9059cbb0000000000000000000000001985ea6e9c68e1c272d8209f3b478ac2fdb25c87000000000000000000000000000000000000000000000000000000000000017b","nonce":"0x0","r":"0xb64dbc4a5c3f1d75e22e5ccb73289ab801b3fde393edd0e14b520eb6f52b6952","s":"0x14a498afed5f3496bd771a15b335004a868c312d1e17d56ce410f4de215a22b4","to":"0x833589fcd6edb6e08f4c7c32d4f71b54bda02913","transactionIndex":"0x10","type":"0x0","v":"0x422e","value":"0x0"},{"blockHash":"0x5fa902aa8344c5756ea7541566ef5bac563d384e61a8926fe8844c5b36aa71b3","blockNumber":"0xf3fe05","chainId":"0x2105","from":"0x886431aee6486d68863d2963f3e7bc8683990210","gas":"0x4aeb6","gasPrice":"0x68e4ca","hash":"0x5170cb4e32b36ce052df6c8c9e2f04b2a7bf86b3fa38f4cea028932209721a4b","input":"0xc13414ad00000000000000000000000059d9356e565ab3a36dd77763fc0d87feaf85508c000000000000000000000000b97ef9ef8734c71904d8002f8b6bc66dd9c48a6e000000000000000000000000000000000000000000000000000000000000006a0000000000000000000000000000000000000000000000000000000000000004000000000000000000000000000000000000000000000000000000000000000500000000000000000000000000000000000000000000000000038d7ea4c68000000000000000000000000000b20094dfede30abee3a8d549bba828b6fd771106","nonce":"0x4a0","r":"0x45412d57e869e49d344568c5e16338e4722063fc2f8606fe489828e52acb12d","s":"0x3c8f4b38d19abc28dd7f2cb04d503c8ad864e139b67a9646a212e3636225808f","to":"0xb6a80efaab1d5cc7fc337b9924ef218547f6e9b8","transactionIndex":"0x11","type":"0x0","v":"0x422e","value":"0x0"},{"blockHash":"0x5fa902aa8344c5756ea7541566ef5bac563d384e61a8926fe8844c5b36aa71b3","blockNumber":"0xf3fe05","chainId":"0x2105","from":"0xff31ef28c8d65fbd36a098e5d7f5b4bd6a9c3cf1","gas":"0x7b0c","gasPrice":"0x663be0","hash":"0xd92848f6780e0510c670acc58c9cc3347fa1931dcb73324a14caae963f8a3e11","input":"0x","nonce":"0x88","r":"0x9514bceb79a59ed431bcd0a7c0bcd8139199cb479742e2722e83c4d437947b10","s":"0x5a8d06a5d40249d75b2595274b3083442559310d352b030e8455ceec82ce4f77","to":"0xff31ef28c8d65fbd36a098e5d7f5b4bd6a9c3cf1","transactionIndex":"0x12","type":"0x0","v":"0x422d","value":"0xaa87bee538000"},{"blockHash":"0x5fa902aa8344c5756ea7541566ef5bac563d384e61a8926fe8844c5b36aa71b3","blockNumber":"0xf3fe05","chainId":"0x2105","from":"0x2df1e9568bd1ffe44edcbe0ea138f70bbf2f0c0f","gas":"0x7f912","gasPrice":"0x663be0","hash":"0x779022d8be6a7f2ac267933e653b3f3b1a9de3cef6e2300cbddac211498a5c4d","input":"0x07ed2379000000000000000000000000e37e799d5077682fa0a244d46e5649f71457bd09000000000000000000000000833589fcd6edb6e08f4c7c32d4f71b54bda02913000000000000000000000000eeeeeeeeeeeeeeeeeeeeeeeeeeeeeeeeeeeeeeee000000000000000000000000e37e799d5077682fa0a244d46e5649f71457bd090000000000000000000000002df1e9568bd1ffe44edcbe0ea138f70bbf2f0c0f0000000000000000000000000000000000000000000000000000000005f5e1000000000000000000000000000000000000000000000000000063829cb8a091dd0000000000000000000000000000000000000000000000000000000000000000000000000000000000000000000000000000000000000000000000000000012000000000000000000000000000000000000000000000000000000000000004fa0000000000000000000000000000000000000004dc0004c20004ac00046200a007e5c0d200000000000000000000000000000000000000000000000000043e000130512001538aa697ce8cc8252c70c41452dae86ce22a3e833589fcd6edb6e08f4c7c32d4f71b54bda0291300a4a5dcbcdf000000000000000000000000833589fcd6edb6e08f4c7c32d4f71b54bda02913000000000000000000000000d9aaec86b65d86f6a7b5b1b0c42ffa531710b6ca000000000000000000000000bb8b2da5db110ad625270061e81987ce342677c3000000000000000000000000e37e799d5077682fa0a244d46e5649f71457bd09ffffffffffffffffffffffffffffffffffffffffffffffffffffffffffffffff00000000000000000000000000000000000000000000000000000000000000000000000000000000000000000000000000000000000000000000000000000000000000000000000000000000000000000000000000000000000000000000000000a0c9e75c480000000000000000230f0000000000000000000000000000000000000000000000000002e000015000a007e5c0d200000000000000000000000000000000000000000000000000012c0000f051104611c4ec9b41ae820d64808a2a5e9d816b74c3f2d9aaec86b65d86f6a7b5b1b0c42ffa531710b6ca004475d39ecb000000000000000000000000e37e799d5077682fa0a244d46e5649f71457bd0900000000000000000000000000000000000000000000000000000000000000000000000000000000000000000000000000000000000000000000000000000000000000000000000000000000fffd8963efd1fc6a506488495d951d5263988d25000000000000000000000000000000000000000000000000001d95499d5c9e0c000000000000000000000000000000000000000000000000000000006678f02c4101420000000000000000000000000000000000000600042e1a7d4d000000000000000000000000000000000000000000000000000000000000000000a007e5c0d200000000000000000000000000000000000000000000000000016c000130512001538aa697ce8cc8252c70c41452dae86ce22a3ed9aaec86b65d86f6a7b5b1b0c42ffa531710b6ca00a4a5dcbcdf000000000000000000000000d9aaec86b65d86f6a7b5b1b0c42ffa531710b6ca000000000000000000000000420000000000000000000000000000000000000600000000000000000000000006e6736ca9e922766279a22b75a600fe8b8473b6000000000000000000000000e37e799d5077682fa0a244d46e5649f71457bd09ffffffffffffffffffffffffffffffffffffffffffffffffffffffffffffffff0000000000000000000000000000000000000000000000000000000000000000000000000000000000000000000000000000000000000000000000000000000000000000000000000000000000000000000000000000000000000000000000004101420000000000000000000000000000000000000600042e1a7d4d000000000000000000000000000000000000000000000000000000000000000000a0f2fa6b66eeeeeeeeeeeeeeeeeeeeeeeeeeeeeeeeeeeeeeee00000000000000000000000000000000000000000000000000639c1cbffcb9fd00000000000000000004f9fb5df63ef9c061111111125421ca6dc452d289314280a0f8842a6500206b4be0b9111111125421ca6dc452d289314280a0f8842a650000000000002a6f45f2","nonce":"0x4","r":"0x40424193b1d75d8c996d7c63f2463da90f06f7782f87b1472bfdadc0c0a79cfc","s":"0x79323755e6b56ef831e76ac8259401a5ae560d93053125ec418ab8fbbf5e0608","to":"0x111111125421ca6dc452d289314280a0f8842a65","transactionIndex":"0x13","type":"0x0","v":"0x422d","value":"0x0"},{"blockHash":"0x5fa902aa8344c5756ea7541566ef5bac563d384e61a8926fe8844c5b36aa71b3","blockNumber":"0xf3fe05","chainId":"0x2105","from":"0xb3a1581b786d724d34377d2a90c6f239887d1908","gas":"0x5f32e","gasPrice":"0x64b540","hash":"0x7602a648fb416e166c05305452db265cc550e2a712443dd1f9038be2097d0bac","input":"0xd123b4d80000000000000000000000000000000000000000000000000000000000000040000000000000000000000000000000000000000000000000000000000000046000000000000000000000000000000000c13b2edb5ad44867ab1f0c103661bec5a85b800b0bc0379db6112dd227f8af6c28ac848d256ba20209c58b43f13a0a16000000000000000000000000000000000000000000000000000044364c5bb000000000000000000000000000b3a1581b786d724d34377d2a90c6f239887d19080000000000000000000000000000000000000000000000000000000000000200000000000000000000000000000000000000000000000000000000000000024000000000000000000000000000000000000000000000000000000000000002a000000000000000000000000000000000000000000000000000000000000002c000000000000000000000000000000000000000000000000000000000000004000000000000000000000000004ed4e862860bed51a9570b96d89af5e1b0efefed000000000000000000000000000000000000000000000000000000000000210500000000000000000000000000000000000000000000000ee86442fcd06c00000000000000000000000000000000000000000000000000000000000000000000000000000000000000000000000000000000000000000000000000000000000000000000000000000000000000000000000000000000000000000000000000000000000000000000000000005e2b297016d41055876ff1078100c548adc3a498000000000000000000000000000000000000000000000000000000000000000c52616262792057616c6c657400000000000000000000000000000000000000000000000000000000000000000000000000000000000000000000000000000035697066733a2f2f516d61507a5369417343596945714e76343455326f764e61416b37704878316755507346437a4234424d6f7533650000000000000000000000000000000000000000000000000000000000000000000000000000000000000000000000000000000000000000000000000000000000000000000000000000010000000000000000000000000000000000000000000000000000000000000020000000000000000000000000000000000000000000000000000000000000004000000000000000000000000000000000000000000000000000000000000000c00000000000000000000000000000000000000000000000000000000000000042307865636661373939336135613339366264353238613362303236643733646262626230323064393466613765613739306163356139343138393064643237386439000000000000000000000000000000000000000000000000000000000000000000000000000000000000000000000000000000000000000000000000000965766d3a383134353700000000000000000000000000000000000000000000000000000000000000000000000000000000000000000000000000000000000000000000000000000000000000000000000000000000000000000000000000004117d51df4b7b81869ec29a76acf7f44211775d8d1b874e70852b96d5fbde296b729e963c69ae469c69cc9990c725b13c0feea236013c2772c2bbeb8b8e88e24dd1c00000000000000000000000000000000000000000000000000000000000000","nonce":"0x2c5","r":"0x30a9320657e210430de09a242448c2977bf94249adb4100387d6a525b5a68c61","s":"0x70a78176ecf210a5eb9a06b27a1dd6b28a03d30c02db442882285e252e15e46a","to":"0x1195cf65f83b3a5768f3c496d3a05ad6412c64b7","transactionIndex":"0x14","type":"0x0","v":"0x422d","value":"0x44364c5bb000"},{"blockHash":"0x5fa902aa8344c5756ea7541566ef5bac563d384e61a8926fe8844c5b36aa71b3","blockNumber":"0xf3fe05","chainId":"0x2105","from":"0x5d1887c23d5c17350cdcfd17a52e02495f3de2cf","gas":"0x5dcc6","gasPrice":"0x645343","hash":"0xfdc6aa4e804e3df7ad90a8d4f1895d786966c159cf1d4ed72152815851395644","input":"0x000000000000000000000000000000000000000000000000000000000000000020000000000000000000000000000000000000000000000000016bcc41e900000000000000000000000000000000000000000000000000000000000000000000000000000000000000000000000000000000000000000000000000000000000000000000000000000000000000420000000000000000000000000000000000000600000000000000000000000000000000000000000000000000000000000000a000000000000000000000000000000000000000000000000000000000000000020000000000000000000000000000000000000000000000000000000000000040000000000000000000000000000000000000000000000000000000000000010000000000000000000000000000000000000000000000000000000000000000000000000000000000000000004752ba5dbc23f44d87826276bf6fd6b1c372ad240000000000000000000000000000000000000000000000000000000000000060000000000000000000000000000000000000000000000000000000000000000200000000000000000000000042000000000000000000000000000000000000060000000000000000000000009a26f5433671751c3276a065f57e5a02d2817973000000000000000000000000000000000000000000000000000000000000000a000000000000000000000000b211a9ddff3a10806c8fdb92dbc4c34596a23f84000000000000000000000000000000000000000000000000000000000000006000000000000000000000000000000000000000000000000000000000000000020000000000000000000000009a26f5433671751c3276a065f57e5a02d28179730000000000000000000000004200000000000000000000000000000000000006","nonce":"0xfc56","r":"0xe3425e11dcb57279375834d10ecd30370f5d75b4b93deb350c212baaba08de65","s":"0x569ef066aa1f2c4028f5fcc252c06f43800b73cbd378b096723eb235d877e3f1","to":"0x85f66c49dd72d90b33d88059512a46f5a49ece4a","transactionIndex":"0x15","type":"0x0","v":"0x422d","value":"0x0"},{"accessList":[],"blockHash":"0x5fa902aa8344c5756ea7541566ef5bac563d384e61a8926fe8844c5b36aa71b3","blockNumber":"0xf3fe05","chainId":"0x2105","from":"0x695db547f01f421ed95e5c70218950a58104d77c","gas":"0x493e0","gasPrice":"0x643bef","hash":"0x070346df7f0168b46916491d3b1a2c1631e6d1fe3082b5eab042f75649196c71","input":"0x4a0ecd94000000000000000000000000198ef79f1f515f02dfe9e3115ed9fc07183f02fc000000000000000000000000000000000000000000000000000000000000006000000000000000000000000000000000000000000000000000000000000000a0000000000000000000000000000000000000000000000000000000000000000100000000000000000000000000000000000000000000000000000000000000000000000000000000000000000000000000000000000000000000000000000001000000000000000000000000000000000000000000000000000000000000002000000000000000000000000000000000000000000000000000000000000001e424856bc30000000000000000000000000000000000000000000000000000000000000040000000000000000000000000000000000000000000000000000000000000008000000000000000000000000000000000000000000000000000000000000000010000000000000000000000000000000000000000000000000000000000000000000000000000000000000000000000000000000000000000000000000000000100000000000000000000000000000000000000000000000000000000000000200000000000000000000000000000000000000000000000000000000000000100000000000000000000000000695db547f01f421ed95e5c70218950a58104d77c00000000000000000000000000000000000000000000000005e974be32510000000000000000000000000000000000000000000000000000000000000000000000000000000000000000000000000000000000000000000000000000000000a00000000000000000000000000000000000000000000000000000000000000001000000000000000000000000000000000000000000000000000000000000002b42000000000000000000000000000000000000060001f48c6828da22e63823d49a723838f9bbce34d7bdb000000000000000000000000000000000000000000000000000000000000000000000000000000000000000000000000000","maxFeePerGas":"0x643bef","maxPriorityFeePerGas":"0x643bef","nonce":"0x1d","r":"0x4946d2d4ae64dcbddb0599e14544ea286461bda2932c0de46e1bc17f1cf161e3","s":"0xaed596bafab1b31805a3e563b18dfc159a22a9df5e7301e51b54dcee8827ba9","to":"0x8395ebde40fd67ed1478fe618f2e5cd962fc60dd","transactionIndex":"0x16","type":"0x2","v":"0x0","value":"0x0","yParity":"0x0"},{"blockHash":"0x5fa902aa8344c5756ea7541566ef5bac563d384e61a8926fe8844c5b36aa71b3","blockNumber":"0xf3fe05","chainId":"0x2105","from":"0xbab0e2b20f1e4ea0e18bfe6c65b0bf829a7f16e7","gas":"0x493e0","gasPrice":"0x643bef","hash":"0xa198b7bd88f2e5201644a059cc938e0e28848a02dfd4f8854040978f156f258a","input":"0x4a04a1c9000000000000000000000000000000000000000000000000000000000000002000000000000000000000000067e57632881d4a7daba32da827aa5f1696379fb300000000000000000000000000000000000000000000000000000000000000000000000000000000000000000000000000000000000000000000000000000000000000000000000000000000bab0e2b20f1e4ea0e18bfe6c65b0bf829a7f16e70000000000000000000000000000000000000000000000000000000000000001000000000000000000000000000000000000000000000000000000000000000000000000000000000000000000000000000000000000000000000000ffffffff000000000000000000000000000000000000000000000000000000000000020000000000000000000000000000000000000000000000000000000000000000000000000000000000000000000000000000000000000000000000000000000000000000000000000000000000000000000000000000000000000000000000000000000000000000000000000000000000000000000000000000000000000000000000000000000000000000000000000000000000000000000000000000000220000000000000000000000000ffe7bf3304a677f4cbfbc05eb809d8c87d8370d7000000000000000000000000000000000000000000000000000000000000026000000000000000000000000000000000000000000000000000000000000000000000000000000000000000000000000000000000000000000000000000000000000000000000000000000000000000000000000000000000000000000000001400000000000000000000000000000000000000000000000000000000000000000000000000000000000000000000000000000000000000000000000000000000","nonce":"0x124","r":"0xd57348ed20433b8245ec028de47c3c4847a0f488c766a5f08e1a7a9f13087a46","s":"0x3f643a515cab8dddb11af431789c19cb7c8ea5fbb4f82610e7b75e087b9581c9","to":"0x000000000001a36777f9930aaeff623771b13e70","transactionIndex":"0x17","type":"0x0","v":"0x422d","value":"0x2c2ad68fd9000"},{"blockHash":"0x5fa902aa8344c5756ea7541566ef5bac563d384e61a8926fe8844c5b36aa71b3","blockNumber":"0xf3fe05","chainId":"0x2105","from":"0x00051d55999c7cd91b17af7276cbecd647dbc000","gas":"0x36bec","gasPrice":"0x643bef","hash":"0x1fbd35defe76a3d659802d2c4c5a4accc50c616f9ede5199a3c6da45eeeb616e","input":"0x64778c1f000000000000000000000000000000000000000000000000000515482d0dcdb53332340000000000000000000000000000000000000000000000000000000000000000000000000000000000000000000000000000000000000000000004a0c2000000000000000000000000eeeeeeeeeeeeeeeeeeeeeeeeeeeeeeeeeeeeeeee000000000000000000000000d3fffdea31cc728737ed7580d3a1b03cf3ce3d18","nonce":"0x14f52","r":"0xbb112f74457427782773c2d1e720070ebac3965986bd81d5e64e4dd4bf9f9fc7","s":"0x175f9cb3358bfbd3af13b20b79cc56fb326fd113e599f6548dbde8292b236d24","to":"0x0fa205c0446cd9eedcc7538c9e24bc55ad08207f","transactionIndex":"0x18","type":"0x0","v":"0x422d","value":"0x515482d0dcdb5"},{"accessList":[],"blockHash":"0x5fa902aa8344c5756ea7541566ef5bac563d384e61a8926fe8844c5b36aa71b3","blockNumber":"0xf3fe05","chainId":"0x2105","from":"0x809fca3aabc5c28f00822b3993558a36e86916d8","gas":"0xb3b03","gasPrice":"0x6392e0","hash":"0xb7fdf1d583d441df4b50a26009c69fcbe4feee0d7f1d9ddaf1a9de1f5983f25c","input":"0x4630a0d85003e22406b4995417f22c2b809773f71156ebe2423eea9ace70b6d3391f9af900000000000000000000000000000000000000000000000000000000000000c00000000000000000000000000000000000000000000000000000000000000100000000000000000000000000809fca3aabc5c28f00822b3993558a36e86916d8000000000000000000000000000000000000000000000000000000e7aa9f1e0000000000000000000000000000000000000000000000000000000000000001600000000000000000000000000000000000000000000000000000000000000008706f636b65746669000000000000000000000000000000000000000000000000000000000000000000000000000000000000000000000000000000000000002a307830303030303030303030303030303030303030303030303030303030303030303030303030303030000000000000000000000000000000000000000000000000000000000000000000000000000000000000000000000000000000000002000000000000000000000000000000000000000000000000000000000000004000000000000000000000000000000000000000000000000000000000000001c00000000000000000000000000a6d96e7f4d7b96cfe42185df61e64d255c12dff0000000000000000000000000a6d96e7f4d7b96cfe42185df61e64d255c12dff00000000000000000000000000000000000000000000000000000000000000000000000000000000000000000000000000000000000000000000000000000000000000000000000000000000000000000000000000000000000000e8d4a5100000000000000000000000000000000000000000000000000000000000000000e000000000000000000000000000000000000000000000000000000000000000010000000000000000000000000000000000000000000000000000000000000064e0cbc5f200000000000000000000000000000000000000000000000000000000fd51da80000000000000000000000000000000000000000000000000000000002cb41780000000000000000000000000ec3b509f1b8cc2b7d62bcbe715f8375e68c31919000000000000000000000000000000000000000000000000000000000000000000000000000000005215e9fd223bc909083fbdb2860213873046e45d0000000000000000000000005215e9fd223bc909083fbdb2860213873046e45d00000000000000000000000000000000000000000000000000000000000000000000000000000000000000004200000000000000000000000000000000000006000000000000000000000000000000000000000000000000000000e7aa9f1e0000000000000000000000000000000000000000000000000000000000000000e000000000000000000000000000000000000000000000000000000000000000000000000000000000000000000000000000000000000000000000000000000004d0e30db000000000000000000000000000000000000000000000000000000000","maxFeePerGas":"0x6392e0","maxPriorityFeePerGas":"0x6392e0","nonce":"0x24","r":"0xa89535b6985d1cc8737d266e9772423cb51af21a51a6cf885096d5037ce5a2ee","s":"0x48ffa4cdaf8b4aaf6e8324a4b6ab4aaaba9f3934d15c4f0568d8b683bce64d89","to":"0x1231deb6f5749ef6ce6943a275a1d3e7486f4eae","transactionIndex":"0x19","type":"0x2","v":"0x0","value":"0xe8d4a51000","yParity":"0x0"},{"blockHash":"0x5fa902aa8344c5756ea7541566ef5bac563d384e61a8926fe8844c5b36aa71b3","blockNumber":"0xf3fe05","chainId":"0x2105","from":"0xfacfd009f5bdc04deaac9e5da05901b28ea8f9c9","gas":"0x7a120","gasPrice":"0x5fad93","hash":"0xa0914d87e0f290248a1ad77e4302e9fb6ecd0448d8699e84a64e2dbe640bf988","input":"0x2c495b850000000000000000000000000000000000000000000000000000000000000060000000000000000000000000000000000000000000000000000000000000016000000000000000000000000000000000000000000000000000000000000001e0000000000000000000000000000000000000000000000000000000000000000000000000000000000000000000000000000000000000161066e959d87f1f8000000000000000000000000000000000000000000000000000003ec941a2ca920400000000000000000000000000000000000000000000000000000000000000a0000000000000000000000000000000000000000000000000000000006673aa6a00000000000000000000000000000000000000000000000000000000000000020000000000000000000000004200000000000000000000000000000000000006000000000000000000000000fadb26be94c1f959f900bf88cd396b3e803481d600000000000000000000000000000000000000000000000000000000000000000000000000000000000000000000000000000000000000000000000000000000000000000000000000000000000000000000000000000000000000000000006000000000000000000000000000000000000000000000000000000000000000000000000000000000000000000000000000000000000000000000000000000001000000000000000000000000000000000000000000000000000000000000004000000000000000000000000000000000000000000000000000000000000000800000000000000000000000000000000000000000000000000000000000000040000000000000000000000000000000000000000000000000000000000000006000000000000000000000000000000000000000000000000000000000000000000000000000000000000000000000000000000000000000000000000000000000","nonce":"0x9d0","r":"0x5aaf28bb9bdc04cce1aa15c2eec51a0998ef134228de592a79a4e30ede8eb9f9","s":"0x790bbca3bf1e549822b247c9026b51f8610e50508b7f54515071e83fc3377d0b","to":"0xb90df81b147c7b507677826a4365919b414452fd","transactionIndex":"0x1a","type":"0x0","v":"0x422e","value":"0x0"},{"accessList":[],"blockHash":"0x5fa902aa8344c5756ea7541566ef5bac563d384e61a8926fe8844c5b36aa71b3","blockNumber":"0xf3fe05","chainId":"0x2105","from":"0xbd54313120586ba6b42eeedda5e43fcb357917fd","gas":"0x8eac","gasPrice":"0x5fac4a","hash":"0xf990478228e085e53be3a8d9dcc8e7854f87cd8919dd110b1e71a4ad9f227b69","input":"0x729ad39e000000000000000000000000000000000000000000000000000000000000002000000000000000000000000000000000000000000000000000000000000000050000000000000000000000005f72d5787197d8299b7f70d2ef1b65193a87012f0000000000000000000000005ace9906a5d553f2433fef39a44353481ee3baa1000000000000000000000000b685c5de027db7397bf3e6eb3c757c2e969efc41000000000000000000000000688a498d2276230fbdd25461a1b6db9a10b8fd7900000000000000000000000039146a83a79f3bc96044b6b398a0e05d6f85a246","maxFeePerGas":"0x5fac4a","maxPriorityFeePerGas":"0x5fac4a","nonce":"0x2ff2a","r":"0x81c315a30b3234457f73f7707f70b9d7168c02d2f3310377e570da3eb47d445b","s":"0x27478b8b98a8dcfef220a0640076876e032552d428c5ddd57bf9eac5b185dc12","to":"0x2401b434128cb42a518c65229288cc46da3e1bdc","transactionIndex":"0x1b","type":"0x2","v":"0x1","value":"0x0","yParity":"0x1"},{"blockHash":"0x5fa902aa8344c5756ea7541566ef5bac563d384e61a8926fe8844c5b36aa71b3","blockNumber":"0xf3fe05","chainId":"0x2105","from":"0x0216de0aff9ed847375a76cfcde5a83bd8ea99c2","gas":"0x619d1","gasPrice":"0x5f898e","hash":"0xd0d156ac09a6958f23f532ed1d2241509bf8924a9864f9e2477b49c2eca5576a","input":"0x0ddd588d0000000000000000000000008909dc15e40173ff4699343b6eb8132c65e18ec6000000000000000000000000039ac6fbcebf02b54259bc690e13540693d9eb8d00000000000000000000000000000000000000000000000000162654094b0d7d00000000000000000000000000000000000000000000003e83965c30c4f60000000000000000000000000000000000000000000000000000000000000000010000000000000000000000000000000000000000000000000000000000000000000000000000000000000000000000000000000000000000000000000000000000000000000000000000000000000000000000000000000000000000000000000100000000000000000000000000000000000000000000000000000000000000020000000000000000000000004200000000000000000000000000000000000006000000000000000000000000ed899bfdb28c8ad65307fa40f4acab113ae2e14c","nonce":"0x92ff","r":"0x4907cb29e3efc3e78619446e12a8ca464121cf8cf4ab8ceea416eb7d00569d95","s":"0x49ae3b3d8e115ec15af07d1740e28e49d889cfaffa66dd80a89c2d8b682c3916","to":"0xe2a52596556936604ece0574eb70f229ad7057b0","transactionIndex":"0x1c","type":"0x0","v":"0x422d","value":"0x0"},{"accessList":[],"blockHash":"0x5fa902aa8344c5756ea7541566ef5bac563d384e61a8926fe8844c5b36aa71b3","blockNumber":"0xf3fe05","chainId":"0x2105","from":"0xc4163681c352d832c32f930e205ccb63b1dc08be","gas":"0x7a1200","gasPrice":"0x5de077","hash":"0x14bf6dc070cd53286b63ce267df0aaf1839c3325a9d8f85ccc9ceceb604deb7c","input":"0xb1dc65a4000186ace6989e8659b562ee78f176bb7314d15342435fe347eab12509950a4b00000000000000000000000000000000000000000000000000000000000a3e02cd9ee3bd987608a3d290a849f56ac715fdef6b8b23abaf3a17a462cc1a08299200000000000000000000000000000000000000000000000000000000000000e000000000000000000000000000000000000000000000000000000000000002600000000000000000000000000000000000000000000000000000000000000340010100000101000000000000000000000000000000000000000000000000000000000000000000000000000000000000000000000000000000000000000001600000000000000000000000000000000000000000000000000000000000000020000000000000000000000000000000000000000000000000000000000000008000000000000000000000000000000000000000000000000000000000000000000000000000000000000000000000000000000000000000000000000000000000000000000000000000000000000000000000000000000000000000000000000000000000000000000000000000000000000000000000000000000000000000400000000000000000000000000000000000000000000000000000000000000060000000000000000000000000000000000000000000000000000000000000000000000000000000000000000000000000000000000000000000000000000000010000000000000000000000000000000000000000000000003d386b8a9e880632000000000000000000000000000446c2152d0000000000000000005bff391d310000000000000000000000000000000000000000000000000000000000000006cc7306a67b76942ba3d246dc84f79c9f6d99fab8efdb54fc1f284c29a2c1bd0862c8df843641d7be5ebc85909b5e0c52d2b9ffdf9e74fdef971e39bc5640aad98a75487e117d9d8e6af65a35d4831de77a60eeed89c3cd3108f8a14ccf1f44300c7c13c0e4a6b37ccba650b1d0802b47c60f2ef2e654ef15b642ca09b822b11ec9db98390837b3fce3e1542c3f60ce1478583859998fcf76da931cf5d36ececd6ee14f99725bc9b0a9fa25a7ede243214ca90ae42411187127fdb23726b9733300000000000000000000000000000000000000000000000000000000000000065976c6f863e5e4e9bd7c3a07a8e6109e4164cacafd1da27c34de2f7f985808a706f51a24ab9ad8c2dbcf639a5bd17c1d767f2be9ac61bb9f503aaea2d5be3d66569902b01e9c113607ffa36d26a703fc18f25ec79ee37e71238a57843b23ca9b2097adda34b6a9c103b850a1fd02c54124ce93fa3f7a3f35fd7ce7596dd26dd305ccd89c8125c22f1f0f76e0fe996b8388f22bc1dffbe6febb3e2f13dc6b573b0e126dcfcc846c3eaec66a378805aff180845e44b7078d908e282a4aa2b73e8c","maxFeePerGas":"0x5de077","maxPriorityFeePerGas":"0x120380","nonce":"0xb48d","r":"0xdf03517a18fdb7e27dc09a081d748590fb3f6781109613e3940f946ab7a95ca1","s":"0x14ddeaed8bd3cee97d00b4f73221f942fc77c729605f18c01d04b2544bf52f20","to":"0x52b5b4f3cc50e38f736f23897f192430e131ccb8","transactionIndex":"0x1d","type":"0x2","v":"0x1","value":"0x0","yParity":"0x1"},{"blockHash":"0x5fa902aa8344c5756ea7541566ef5bac563d384e61a8926fe8844c5b36aa71b3","blockNumber":"0xf3fe05","chainId":"0x2105","from":"0x79e4ca7bb8a46544a65604dd6cb0c0fc5ba8d7f7","gas":"0x5208","gasPrice":"0x5db7b3","hash":"0xc3f085af3afebcf6ae6521d38ba22d88eaa208211097a58e999c2d72fe6ffb1b","input":"0x","nonce":"0x0","r":"0x6ad6ed351af97fa9940e64ad088f1341a7b8e96b023581b980d48e263950e133","s":"0x5ac1836053a88cf7e5cfc22b690613785cbbf0844fabcb6b526b2b46955de80","to":"0xaff9f71f4bab240faed761eec8dd6e0771fb133c","transactionIndex":"0x1e","type":"0x0","v":"0x422e","value":"0xf8a71ef6b72"},{"blockHash":"0x5fa902aa8344c5756ea7541566ef5bac563d384e61a8926fe8844c5b36aa71b3","blockNumber":"0xf3fe05","chainId":"0x2105","from":"0x2ec4c8ebf7be5d8d37073919d18c21ef71f93e97","gas":"0x1c34d2","gasPrice":"0x5c95dd","hash":"0xbae800ef90405ccad8d2bea8a0bc2cd1a3d445b0b0ad8b0045bc4c5731d47e46","input":"0x627dd56a0e0220e836f1034c0000000070d002377feeed4820b3b28d1ab429509e7a0789824fca07800000002ee010b211a9ddff3a10806c8fdb92dbc4c34596a23f8420c2bab6f0a2c6789f76203df67963b9be1584597e000220b000804400005dc0cc0632de1ebc55a09a26f5433671751c3276a065f57e5a02d2817973","nonce":"0x762","r":"0xf4ddd8bb7966bc3b5ecb4dd7cdedcfa106225cf0c96e3d21389a41c72ed7fd27","s":"0x4517a4653883e4f6a91e860ff6bda62a6668141f8126b7596e87c3a3f583b91b","to":"0xf1fc8c6190256f076aaf4f3a5f65642e166fcd03","transactionIndex":"0x1f","type":"0x0","v":"0x422d","value":"0x0"},{"accessList":[],"blockHash":"0x5fa902aa8344c5756ea7541566ef5bac563d384e61a8926fe8844c5b36aa71b3","blockNumber":"0xf3fe05","chainId":"0x2105","from":"0x6f20da5eef09249b7f661b6c4b0816c67bd817d0","gas":"0xdd0d","gasPrice":"0x5b3cce","hash":"0xcc7619551776b6dcb52734fc7fdd4738e969e3fda735a9f6ab3fe07ea742defb","input":"0x095ea7b3000000000000000000000000bce954fbbe0c57e826e95b5aa03da9ecdbc990daffffffffffffffffffffffffffffffffffffffffffffffffffffffffffffffff","maxFeePerGas":"0xd8a567","maxPriorityFeePerGas":"0xf4240","nonce":"0xe","r":"0x9427ff478e4ef436f8fd021437596b06c8707ee45f2cbca64fc3dff3e29820f","s":"0x41286aa0886f4c1dbbf5a7ff51c765655362a2c4009a4cdeea97899718c3f535","to":"0x833589fcd6edb6e08f4c7c32d4f71b54bda02913","transactionIndex":"0x20","type":"0x2","v":"0x0","value":"0x0","yParity":"0x0"},{"accessList":[],"blockHash":"0x5fa902aa8344c5756ea7541566ef5bac563d384e61a8926fe8844c5b36aa71b3","blockNumber":"0xf3fe05","chainId":"0x2105","from":"0x7156fd463b8ccaae468e2df1bcc2327754a62e02","gas":"0x3656d","gasPrice":"0x5b3cce","hash":"0x909c6c3a7fd21831099e38c7ee877a2aa29f83bbc06ec75dfe98c10aa9d53098","input":"0x932099f70000000000000000000000000000000000000000000000000000000000716ac400000000000000000000000000000000000000000000000000000000000000800000000000000000000000007156fd463b8ccaae468e2df1bcc2327754a62e020000000000000000000000000000000000000000000000000000000066819b1d00000000000000000000000000000000000000000000000000000000000000020000000000000000000000004200000000000000000000000000000000000006000000000000000000000000833589fcd6edb6e08f4c7c32d4f71b54bda02913","maxFeePerGas":"0xd8cb63","maxPriorityFeePerGas":"0xf4240","nonce":"0x6","r":"0xeb9e6adb40e722ead789fb192f027dd8bd92fa55cea65bfc29687f67abc3f26b","s":"0xfdb23bdaf5c50e6122eb420ba0d3c13b8c16264280030356d37f232a0e88e3f","to":"0xbce954fbbe0c57e826e95b5aa03da9ecdbc990da","transactionIndex":"0x21","type":"0x2","v":"0x1","value":"0x79a5193d1bfff","yParity":"0x1"},{"accessList":[],"blockHash":"0x5fa902aa8344c5756ea7541566ef5bac563d384e61a8926fe8844c5b36aa71b3","blockNumber":"0xf3fe05","chainId":"0x2105","from":"0x8e7dedd9b1a7fd101a08b1c95f3c602fe0d4b486","gas":"0x1adb0","gasPrice":"0x5b3cce","hash":"0x36ba49db49c08fe36de15dbc2f71de64a5c7ad4dd00a0fd15440bd1c574636bb","input":"0xa9059cbb0000000000000000000000007a8ba143f8866242782e5b3a5ad1410bb672220600000000000000000000000000000000000000000000024da47538ed0136c000","maxFeePerGas":"0x6d26da","maxPriorityFeePerGas":"0xf4240","nonce":"0x15c","r":"0xf17675105d559c7b52dd89e6130b71c298095b870f1cfff8d04d7acf4d910e6d","s":"0x43935b78c2cc85e5d32793cf671e6cc3bc5f3c5af641f47a7b190cbc7ee6df75","to":"0x4ed4e862860bed51a9570b96d89af5e1b0efefed","transactionIndex":"0x22","type":"0x2","v":"0x1","value":"0x0","yParity":"0x1"},{"accessList":[],"blockHash":"0x5fa902aa8344c5756ea7541566ef5bac563d384e61a8926fe8844c5b36aa71b3","blockNumber":"0xf3fe05","chainId":"0x2105","from":"0x3fb560b3433fbedf21edd928c344fb25fa7ed1ec","gas":"0x26922","gasPrice":"0x5b3cce","hash":"0x2e5d0436c2f4077acc80cc2026924d9ffdcca2ae2d3bf9d1dcc50069f9caca45","input":"0x7ff36ab5000000000000000000000000000000000000000000000000000000000000000000000000000000000000000000000000000000000000000000000000000000800000000000000000000000003fb560b3433fbedf21edd928c344fb25fa7ed1ec000000000000000000000000000000000000000000000000000000006672e58a00000000000000000000000000000000000000000000000000000000000000020000000000000000000000004200000000000000000000000000000000000006000000000000000000000000362994a6ac7b6a5ca7b1579fca123f1d576e10bc","maxFeePerGas":"0xa6fc2e","maxPriorityFeePerGas":"0xf4240","nonce":"0x3a0d","r":"0x79d9c2beae9bbcac626783d6d4fe9803a87c94ed0d6619a1819b3ae543657999","s":"0x122d6190769f19268d6bfe275ba7236d3b29a2ce3ee8171e04ada80f0b70b06c","to":"0x4752ba5dbc23f44d87826276bf6fd6b1c372ad24","transactionIndex":"0x23","type":"0x2","v":"0x1","value":"0xf3fd5af815b968","yParity":"0x1"},{"accessList":[],"blockHash":"0x5fa902aa8344c5756ea7541566ef5bac563d384e61a8926fe8844c5b36aa71b3","blockNumber":"0xf3fe05","chainId":"0x2105","from":"0x8f2efebfe8d63a96739d771a8e6e672582ff5387","gas":"0xc05f3","gasPrice":"0x5b3cce","hash":"0x49cba2e5006fb0be635537c41f13740aa414694073d8da539fd8415192df1a95","input":"0x415565b0000000000000000000000000eeeeeeeeeeeeeeeeeeeeeeeeeeeeeeeeeeeeeeee00000000000000000000000018a8bd1fe17a1bb9ffb39ecd83e9489cfd17a02200000000000000000000000000000000000000000000000000215f0eb14558c5000000000000000000000000000000000000000000000053cb5c7dc9f0c9181a00000000000000000000000000000000000000000000000000000000000000a0000000000000000000000000000000000000000000000000000000000000000600000000000000000000000000000000000000000000000000000000000000c00000000000000000000000000000000000000000000000000000000000000160000000000000000000000000000000000000000000000000000000000000054000000000000000000000000000000000000000000000000000000000000009200000000000000000000000000000000000000000000000000000000000000a200000000000000000000000000000000000000000000000000000000000000b20000000000000000000000000000000000000000000000000000000000000000500000000000000000000000000000000000000000000000000000000000000400000000000000000000000000000000000000000000000000000000000000040000000000000000000000000eeeeeeeeeeeeeeeeeeeeeeeeeeeeeeeeeeeeeeee00000000000000000000000000000000000000000000000000215f0eb14558c500000000000000000000000000000000000000000000000000000000000000080000000000000000000000000000000000000000000000000000000000000040000000000000000000000000000000000000000000000000000000000000038000000000000000000000000000000000000000000000000000000000000000200000000000000000000000000000000000000000000000000000000000000000000000000000000000000000420000000000000000000000000000000000000600000000000000000000000050c5725949a6f0c72e6c4a641f24049a917db0cb000000000000000000000000000000000000000000000000000000000000014000000000000000000000000000000000000000000000000000000000000003400000000000000000000000000000000000000000000000000000000000000340000000000000000000000000000000000000000000000000000000000000030000000000000000000000000000000000000000000000000000215f0eb14558c5000000000000000000000000000000000000000000000000000000000000000000000000000000000000000000000000000000000000000000000000000003400000000000000000000000000000000000000000000000000000000000000001000000000000000000000000000000000000000000000000000000000000002000000000000000000000000000000012556e697377617056330000000000000000000000000000000000000000000000000000000000000000215f0eb14558c50000000000000000000000000000000000000000000000000000000000000000000000000000000000000000000000000000000000000000000000000000008000000000000000000000000000000000000000000000000000000000000000e00000000000000000000000002626664c2603336e57b271c5c0b26f421741e4810000000000000000000000000000000000000000000000000000000000000060000000000000000000000000000000000000000000000000000000000000000200000000000000000000000000000000000000000000000000000000000000424200000000000000000000000000000000000006000064833589fcd6edb6e08f4c7c32d4f71b54bda0291300006450c5725949a6f0c72e6c4a641f24049a917db0cb0000000000000000000000000000000000000000000000000000000000000000000000000000000000000000000000000000000000000000000000000001000000000000000000000000000000000000000000000000000000000000000000000000000000000000000000000000000000000000000000000000000000000000000000000000000000000000000000000000000000000000000000000008000000000000000000000000000000000000000000000000000000000000004000000000000000000000000000000000000000000000000000000000000003800000000000000000000000000000000000000000000000000000000000000020000000000000000000000000000000000000000000000000000000000000000000000000000000000000000050c5725949a6f0c72e6c4a641f24049a917db0cb00000000000000000000000018a8bd1fe17a1bb9ffb39ecd83e9489cfd17a0220000000000000000000000000000000000000000000000000000000000000140000000000000000000000000000000000000000000000000000000000000034000000000000000000000000000000000000000000000000000000000000003400000000000000000000000000000000000000000000000000000000000000300ffffffffffffffffffffffffffffffffffffffffffffffffffffffffffffffff000000000000000000000000000000000000000000000000000000000000000000000000000000000000000000000000000000000000000000000000000003400000000000000000000000000000000000000000000000000000000000000001000000000000000000000000000000000000000000000000000000000000002000000000000000000000000000000012556e6973776170563300000000000000ffffffffffffffffffffffffffffffffffffffffffffffffffffffffffffffff000000000000000000000000000000000000000000000054b9f36486d0c73070000000000000000000000000000000000000000000000000000000000000008000000000000000000000000000000000000000000000000000000000000000e00000000000000000000000002626664c2603336e57b271c5c0b26f421741e48100000000000000000000000000000000000000000000000000000000000000600000000000000000000000000000000000000000000000000000000000000002000000000000000000000000000000000000000000000000000000000000004250c5725949a6f0c72e6c4a641f24049a917db0cb0001f4420000000000000000000000000000000000000600271018a8bd1fe17a1bb9ffb39ecd83e9489cfd17a0220000000000000000000000000000000000000000000000000000000000000000000000000000000000000000000000000000000000000000000000000001000000000000000000000000000000000000000000000000000000000000000000000000000000000000000000000000000000000000000000000000000000000000000000000000000000000000000000000000000000000000000000000003000000000000000000000000000000000000000000000000000000000000004000000000000000000000000000000000000000000000000000000000000000a00000000000000000000000000000000000000000000000000000000000000020000000000000000000000000000000000000000000000000000000000000000100000000000000000000000018a8bd1fe17a1bb9ffb39ecd83e9489cfd17a022000000000000000000000000000000000000000000000000d8e646201172a1c3000000000000000000000000382ffce2287252f930e1c8dc9328dac5bf282ba10000000000000000000000000000000000000000000000000000000000000003000000000000000000000000000000000000000000000000000000000000004000000000000000000000000000000000000000000000000000000000000000a00000000000000000000000000000000000000000000000000000000000000020000000000000000000000000000000000000000000000000000000000000000100000000000000000000000018a8bd1fe17a1bb9ffb39ecd83e9489cfd17a02200000000000000000000000000000000000000000000000015b0a09cce8b7693000000000000000000000000ad01c20d5886137e056775af56915de824c8fce50000000000000000000000000000000000000000000000000000000000000002000000000000000000000000000000000000000000000000000000000000004000000000000000000000000000000000000000000000000000000000000001000000000000000000000000000000000000000000000000000000000000000020000000000000000000000000000000000000000000000000000000000000004000000000000000000000000000000000000000000000000000000000000000c00000000000000000000000000000000000000000000000000000000000000003000000000000000000000000420000000000000000000000000000000000000600000000000000000000000050c5725949a6f0c72e6c4a641f24049a917db0cb000000000000000000000000eeeeeeeeeeeeeeeeeeeeeeeeeeeeeeeeeeeeeeee0000000000000000000000000000000000000000000000000000000000000000869584cd000000000000000000000000382ffce2287252f930e1c8dc9328dac5bf282ba1000000000000000000000000000000000000000004b93e53908a6bbd1394d51c","maxFeePerGas":"0x5c7ac6","maxPriorityFeePerGas":"0xf4240","nonce":"0x4","r":"0x278bc4cf7e0fdfe19588d7b95b72d8f50ed96f6c7447402ba40c2875e3a5f214","s":"0x1dd5f6d4bc50d086c468d8cedb9e96bd5bde2bfd62a2d9b8c421a96bfde92c52","to":"0xdef1c0ded9bec7f1a1670819833240f027b25eff","transactionIndex":"0x24","type":"0x2","v":"0x0","value":"0x215f0eb14558c5","yParity":"0x0"},{"accessList":[],"blockHash":"0x5fa902aa8344c5756ea7541566ef5bac563d384e61a8926fe8844c5b36aa71b3","blockNumber":"0xf3fe05","chainId":"0x2105","from":"0xc30c08754684011b92b9619235cec108bb75e0d2","gas":"0x321b3","gasPrice":"0x5b3cce","hash":"0x79f360faf34b82da0b104117443fde4c5f246f055cd97c689fb2c900da63113c","input":"0x932099f700000000000000000000000000000000000000000000000000000000006f4c0e0000000000000000000000000000000000000000000000000000000000000080000000000000000000000000c30c08754684011b92b9619235cec108bb75e0d20000000000000000000000000000000000000000000000000000000066819b2100000000000000000000000000000000000000000000000000000000000000020000000000000000000000004200000000000000000000000000000000000006000000000000000000000000833589fcd6edb6e08f4c7c32d4f71b54bda02913","maxFeePerGas":"0xd8cb63","maxPriorityFeePerGas":"0xf4240","nonce":"0x6","r":"0xf9c8cef9330061f7f8dda6262b8b835de5d7321a1cb8883069a88272441974ff","s":"0x11d71cdaefb727e03f84effa76c07486af703c0ec46eeda74fcd07fc8767308b","to":"0xbce954fbbe0c57e826e95b5aa03da9ecdbc990da","transactionIndex":"0x25","type":"0x2","v":"0x1","value":"0x775f05a073fff","yParity":"0x1"},{"accessList":[],"blockHash":"0x5fa902aa8344c5756ea7541566ef5bac563d384e61a8926fe8844c5b36aa71b3","blockNumber":"0xf3fe05","chainId":"0x2105","from":"0x26c59ea48eadf1678143c010ecc5eef07c236ebf","gas":"0xcf01","gasPrice":"0x5b3cce","hash":"0x6106072e13994b3ec9ea1ca519cf8b0293c202fdc15735c2f3f422f3d35ff9f1","input":"0x1e26fd330000000000000000000000000000000000000000000000000000000000000001","maxFeePerGas":"0xa6fc2e","maxPriorityFeePerGas":"0xf4240","nonce":"0x30","r":"0x679b5d530e189c1ad86f644e533fd99c4bf12effb7afbd7fcdc21ec867a58ff6","s":"0x5ef9ea76157834366565257cfb315011a6388400e12ea54b85635050ed9d0074","to":"0x23e22a23e7739dd2e1700b15d8a117d006a85486","transactionIndex":"0x26","type":"0x2","v":"0x1","value":"0x0","yParity":"0x1"},{"accessList":[],"blockHash":"0x5fa902aa8344c5756ea7541566ef5bac563d384e61a8926fe8844c5b36aa71b3","blockNumber":"0xf3fe05","chainId":"0x2105","from":"0xe6209f6ca37bf081091384ab407b65d393fb715e","gas":"0x26922","gasPrice":"0x5b3cce","hash":"0x16ff3e61744e6bdeafdd85f4c6ab4eedd7f573750d0508b20e165efd977b8d05","input":"0x7ff36ab500000000000000000000000000000000000000000000000000000000000000000000000000000000000000000000000000000000000000000000000000000080000000000000000000000000e6209f6ca37bf081091384ab407b65d393fb715e000000000000000000000000000000000000000000000000000000006672e58300000000000000000000000000000000000000000000000000000000000000020000000000000000000000004200000000000000000000000000000000000006000000000000000000000000362994a6ac7b6a5ca7b1579fca123f1d576e10bc","maxFeePerGas":"0xa6fc2e","maxPriorityFeePerGas":"0xf4240","nonce":"0x394b","r":"0xd27ff9fd02a003e00dc74df29124a48bb218b115291b093e7106cf86b7db2fc1","s":"0x7de56f166acb6c3f2347c6c39e013ddeeaeca813d8f2b4c5a49583aa23097fcb","to":"0x4752ba5dbc23f44d87826276bf6fd6b1c372ad24","transactionIndex":"0x27","type":"0x2","v":"0x0","value":"0xdc66bf6c7d1165","yParity":"0x0"},{"accessList":[],"blockHash":"0x5fa902aa8344c5756ea7541566ef5bac563d384e61a8926fe8844c5b36aa71b3","blockNumber":"0xf3fe05","chainId":"0x2105","from":"0xa48101fdf8cb11c2d1fab672977a046be025c2db","gas":"0xcd44","gasPrice":"0x5b3cce","hash":"0xd9b87b1cc36df2d1f6d08cfec62e7667d7024c3959d3d215d207ca6da37f135f","input":"0x095ea7b30000000000000000000000001111111254eeb25477b68fb85ed929f73a9605820000000000000000000000000000000000000000000000000000000685511fd3","maxFeePerGas":"0x5c918c","maxPriorityFeePerGas":"0xf4240","nonce":"0xaa","r":"0x6994004ad620d2097e51cfb67839c7a3712ab47c985df8aed4d4386b874ed860","s":"0x5917990de10bd2934c7ed6a8192407e882fd74bf22bc80fe62b11a61a6b0433f","to":"0x76734b57dfe834f102fb61e1ebf844adf8dd931e","transactionIndex":"0x28","type":"0x2","v":"0x0","value":"0x0","yParity":"0x0"},{"accessList":[],"blockHash":"0x5fa902aa8344c5756ea7541566ef5bac563d384e61a8926fe8844c5b36aa71b3","blockNumber":"0xf3fe05","chainId":"0x2105","from":"0xb362da89aadfccfc164e9b7256dad4929c1f1084","gas":"0x7a120","gasPrice":"0x5b3cce","hash":"0xa3b3766f9219550c43624b6cae75d9391f33ad5c6097d96f9bfd9d2e0232e545","input":"0x7ff36ab500000000000000000000000000000000000000000000000000000000000000010000000000000000000000000000000000000000000000000000000000000080000000000000000000000000b362da89aadfccfc164e9b7256dad4929c1f1084000000000000000000000000000000000000000000000000000000007735940000000000000000000000000000000000000000000000000000000000000000020000000000000000000000004200000000000000000000000000000000000006000000000000000000000000ac1c30bbbe057c2d5d47bac60b9ae2e2cbefd70a","maxFeePerGas":"0xa6fc2e","maxPriorityFeePerGas":"0xf4240","nonce":"0x0","r":"0x40ec743d006e3faa935a1ebe75dd4ef701edcaa2efb0494a69ea4c7c3b99c569","s":"0x3bfc18303da7329db7e2ff2d2ed8ff8e31324f34d4a661a2e648f4d452606419","to":"0x4752ba5dbc23f44d87826276bf6fd6b1c372ad24","transactionIndex":"0x29","type":"0x2","v":"0x1","value":"0x39d592b2012e1f","yParity":"0x1"},{"accessList":[],"blockHash":"0x5fa902aa8344c5756ea7541566ef5bac563d384e61a8926fe8844c5b36aa71b3","blockNumber":"0xf3fe05","chainId":"0x2105","from":"0x9d560c43870beaec4b64cc9fd2a38d6b528f75b0","gas":"0x26922","gasPrice":"0x5b3cce","hash":"0x71d5aa42aade32c389d36bc94ac3374f9dbf8076da6b0619c51abfd402c2a5f0","input":"0x7ff36ab5000000000000000000000000000000000000000000000000000000000000000000000000000000000000000000000000000000000000000000000000000000800000000000000000000000009d560c43870beaec4b64cc9fd2a38d6b528f75b0000000000000000000000000000000000000000000000000000000006672e58b00000000000000000000000000000000000000000000000000000000000000020000000000000000000000004200000000000000000000000000000000000006000000000000000000000000362994a6ac7b6a5ca7b1579fca123f1d576e10bc","maxFeePerGas":"0xa6fc2e","maxPriorityFeePerGas":"0xf4240","nonce":"0x3aab","r":"0xc7c0d41d6174b092bb889e98a6b9f523d3452a833a055d78fcec886497b820dd","s":"0x225f25a73966fcdf75b41ee29fb73434d48b81a419a34c54eb02edf46d48bf5e","to":"0x4752ba5dbc23f44d87826276bf6fd6b1c372ad24","transactionIndex":"0x2a","type":"0x2","v":"0x0","value":"0xf71db6dffa2cda","yParity":"0x0"},{"accessList":[],"blockHash":"0x5fa902aa8344c5756ea7541566ef5bac563d384e61a8926fe8844c5b36aa71b3","blockNumber":"0xf3fe05","chainId":"0x2105","from":"0x6b0ee1f7292b036cff0871ee92304a9581f2d91a","gas":"0xb997","gasPrice":"0x5b3cce","hash":"0xc0352d29fc0df4f3e7700827fccfe22dfcb771f5398dc9a3425e335b1a131ad1","input":"0x095ea7b3000000000000000000000000000000000022d473030f116ddee9f6b43ac78ba3ffffffffffffffffffffffffffffffffffffffffffffffffffffffffffffffff","maxFeePerGas":"0xa72a42","maxPriorityFeePerGas":"0xf4240","nonce":"0x77b","r":"0x4631c3e9d547acdbb7ab682406b8522105b11e422e136e356c1a953118f0989a","s":"0x6e262a2da437de72f67da1e7467398cd26206d2a693b444e694b9a01b155cc3","to":"0x2dda06391e749168360aac60ab8bc6454263342a","transactionIndex":"0x2b","type":"0x2","v":"0x0","value":"0x0","yParity":"0x0"},{"accessList":[],"blockHash":"0x5fa902aa8344c5756ea7541566ef5bac563d384e61a8926fe8844c5b36aa71b3","blockNumber":"0xf3fe05","chainId":"0x2105","from":"0xecb8d8eb7523ce9d4bd8316f0f180c4ddbd10794","gas":"0x65fe","gasPrice":"0x5b3cce","hash":"0xc6bc4fae9482efb3af28b834e6cec03834b41d09892e0d593923e889facbae97","input":"0x7ab7c65d0000000000000000000000000000000000000000000000000000000000000060000000000000000000000000000000000000000000000000000000000000008000000000000000000000000000000000000000000000000000000000000000a0000000000000000000000000000000000000000000000000000000000000000000000000000000000000000000000000000000000000000000000000000000000000000000000000000000000000000000000000000000000000000000000000","maxFeePerGas":"0x6a670e","maxPriorityFeePerGas":"0xf4240","nonce":"0x169ab","r":"0xc7a45e07b3b097ec7d6c21835c55466d8f26e5d8e79b5846166b06590174908d","s":"0x41cd2d2ed98050aaa24bbe3886c4fd3271b610a007b659265992b2b518c78eca","to":"0x14559863b6e695a8aa4b7e68541d240ac1bbeb2f","transactionIndex":"0x2c","type":"0x2","v":"0x0","value":"0x0","yParity":"0x0"},{"blockHash":"0x5fa902aa8344c5756ea7541566ef5bac563d384e61a8926fe8844c5b36aa71b3","blockNumber":"0xf3fe05","chainId":"0x2105","from":"0xd37de18233202c5ace4f9733694e28f30fc7457f","gas":"0x88b8","gasPrice":"0x5b3641","hash":"0x89c2d71d19d6c93f3ad29df4c4a86df3d7416236f837be492cafb3d453754374","input":"0x","nonce":"0x1","r":"0x5bc60f2618071a20fd9f8cc0d7359222c522d08daf943f6c5032d635e60b9d36","s":"0x6c28c0dd351d278327ebd6909485a9416a1bc5360e2ee0f9d95d7b7ce9c65ded","to":"0xc33aa572475133b11e8275b5f75facc19d5a1d68","transactionIndex":"0x2d","type":"0x0","v":"0x422e","value":"0x5fb89bc541e5a"},{"blockHash":"0x5fa902aa8344c5756ea7541566ef5bac563d384e61a8926fe8844c5b36aa71b3","blockNumber":"0xf3fe05","chainId":"0x2105","from":"0xcedc19b114965a893a490acb6afb7e6f3ca11089","gas":"0x72b8","gasPrice":"0x5b1f37","hash":"0x69a0edb744421c039c02b478734c514b14d386d3ce7837bec9bf7860a88a522e","input":"0xe56461ad0000000000000000000000000000000000000000000000000000000000000144000000000000000000000000cedc19b114965a893a490acb6afb7e6f3ca11089","nonce":"0xb","r":"0x60c4b3235a129c08cb778050239ff48359a9b9cc7d0fb22cffb2e0a7c3fe3b8d","s":"0x6e47d805e80781c52653e8988a7a08b6dcfa27a75a8524dcff331ed1ee710ba6","to":"0xe8c5b8488feafb5df316be73ede3bdc26571a773","transactionIndex":"0x2e","type":"0x0","v":"0x422e","value":"0x274b319ca9158"},{"blockHash":"0x5fa902aa8344c5756ea7541566ef5bac563d384e61a8926fe8844c5b36aa71b3","blockNumber":"0xf3fe05","chainId":"0x2105","from":"0xe84f39d70b0f2c5fada69008a3803bce12286227","gas":"0x5b8d80","gasPrice":"0x5b1dfe","hash":"0x01e74fca0f193e3f70bb3f6dd127f02bd646fe586adc602cc556042de3775f32","input":"0x","nonce":"0x2340","r":"0x48253743d0940ef4b3fbf27030353acc8033c6690da5e1b63138cea59879ce99","s":"0x7910b3dcb6e6f5eeef3afc3ef806463261b103b6aa7d4bd93bf94eae0b5e8a57","to":"0x0c8f3bfed57a273b9436ccfe763710f2c95bc64c","transactionIndex":"0x2f","type":"0x0","v":"0x422d","value":"0x2738d24e52000"},{"accessList":[],"blockHash":"0x5fa902aa8344c5756ea7541566ef5bac563d384e61a8926fe8844c5b36aa71b3","blockNumber":"0xf3fe05","chainId":"0x2105","from":"0xebbac437195764a1685dec15ac9e54e217951ae2","gas":"0x7a120","gasPrice":"0x5b1dfe","hash":"0x91df12b4d1195ee1af0cd7a96ee531ba6bb86bf1470f8009e0e543c5b1da0288","input":"0xb6f9de9500000000000000000000000000000000000000000000000000000000000000000000000000000000000000000000000000000000000000000000000000000080000000000000000000000000ebbac437195764a1685dec15ac9e54e217951ae20000000000000000000000000000000000000000000000000000000066725b4000000000000000000000000000000000000000000000000000000000000000020000000000000000000000004200000000000000000000000000000000000006000000000000000000000000192bd0c9db4d37944c92002327b52925430531c7","maxFeePerGas":"0x5b1dfe","maxPriorityFeePerGas":"0x5b1dfe","nonce":"0x15","r":"0x962a4105e6a6fc3be146033ea5899c9027aad28b5288bd394435129075fab728","s":"0x6ca50af43e4ec3a0524fce722ff233bc2a2513528ac2b6c45b307acc06aa1176","to":"0x4752ba5dbc23f44d87826276bf6fd6b1c372ad24","transactionIndex":"0x30","type":"0x2","v":"0x1","value":"0x6a3a9e82800","yParity":"0x1"},{"accessList":[],"blockHash":"0x5fa902aa8344c5756ea7541566ef5bac563d384e61a8926fe8844c5b36aa71b3","blockNumber":"0xf3fe05","chainId":"0x2105","from":"0x398cef46d335408a3679d900a8711b30593ae0c8","gas":"0xf99e","gasPrice":"0x5b0d7b","hash":"0x21838ade02a845e3cb03b45971e794eaa0cffbc6056d375f394c2e314832757f","input":"0x3ccfd60b","maxFeePerGas":"0x5b0d7b","maxPriorityFeePerGas":"0x5b0d7b","nonce":"0x24","r":"0xc175019fb47100a07afcbc4627a9aaa3969bbdee8af0df11da360acb2ed2b0bc","s":"0x3fccbdbccdf257fedd950d7cc67782e45a753dc7aaa4b64fd389c649e512524a","to":"0xe61acb121a2b538df495a85c4e50dd8581de4ed0","transactionIndex":"0x31","type":"0x2","v":"0x1","value":"0x0","yParity":"0x1"},{"accessList":[],"blockHash":"0x5fa902aa8344c5756ea7541566ef5bac563d384e61a8926fe8844c5b36aa71b3","blockNumber":"0xf3fe05","chainId":"0x2105","from":"0x24a87c8fcd57a666dcd3266216a0d4354f625d28","gas":"0x70903","gasPrice":"0x5a936b","hash":"0x05ec7f82094195f5fc6fe68df7cbfd0a0192904772aa630c36824b3bfd3b847d","input":"0x2db897d0000000000000000000000000000000000000000000000000000000000000002000000000000000000000000000bfddfdb386a71e2fb1d1763e3d1f0f1fe8af64000000000000000000000000000000000000000000000000d2a0fc29a32c00000000000000000000000000000000000000000000000000000000000000bb1e9300000000000000000000000000000000000000000000000000000000000001000000000000000000000000000000000000000000000000000000000000000001000000000000000000000000000000000000000000000000000000000000000a000000000000000000000000168e4c3ac8d89b00958b6be6400b066f0347ddc9000000000000000000000000000000000000000000000000000000000000016000000000000000000000000000000000000000000000000000000000000000020000000000000000000000000c41f1fc9022feb69af6dc666abfe73c9ffda7ce000000000000000000000000833589fcd6edb6e08f4c7c32d4f71b54bda029130000000000000000000000000000000000000000000000000000000000000724b80c2f09000000000000000000000000000000000000000000000000000000000001905b0000000000000000000000000c41f1fc9022feb69af6dc666abfe73c9ffda7ce000000000000000000000000833589fcd6edb6e08f4c7c32d4f71b54bda02913000000000000000000000000000000000000000000000000d2a0fc29a32c0000000000000000000000000000000000000000000000000000000000000097693500000000000000000000000000000000000000000000000000000000667266da0000000000000000000000000000000000000000000000000000000000000120000000000000000000000000000000000000000000000000000000000000016000000000000000000000000000000000000000000000000000000000000007000000000000000000000000000000000000000000000000000000000000000001000000000000000000000000000000000000000000000000d2a0fc29a32c0000000000000000000000000000000000000000000000000000000000000000000100000000000000000000000000000000000000000000000000000000000000200000000000000000000000000000000000000000000000000000000000000002000000000000000000000000000000000000000000000000000000000000004000000000000000000000000000000000000000000000000000000000000002c000000000000000000000000000000000000000000000000000000000000000a000000000000000000000000000000000000000000000000000000000000000e0000000000000000000000000000000000000000000000000000000000000012000000000000000000000000000000000000000000000000000000000000001600000000000000000000000000c41f1fc9022feb69af6dc666abfe73c9ffda7ce000000000000000000000000000000000000000000000000000000000000000100000000000000000000000056e6983d59bf472ced0e63966a14d94a3a291589000000000000000000000000000000000000000000000000000000000000000100000000000000000000000056e6983d59bf472ced0e63966a14d94a3a2915890000000000000000000000000000000000000000000000000000000000000001000000000000000000002710780229080256c9c5af1630a3c165d5725131e6100000000000000000000000000000000000000000000000000000000000000001000000000000000000000000000000000000000000000000000000000000002000000000000000000000000000000000000000000000000000000000000000c00000000000000000000000000000000000000000000000000000000000000000000000000000000000000000000000000000000000000000000000000000004000000000000000000000000000000000000000000000000000000000000000600000000000000000000000000c41f1fc9022feb69af6dc666abfe73c9ffda7ce0000000000000000000000004200000000000000000000000000000000000006000000000000000000000000000000000000000000000000000000000000271000000000000000000000000000000000000000000000000000000000000000a000000000000000000000000000000000000000000000000000000000000000e0000000000000000000000000000000000000000000000000000000000000012000000000000000000000000000000000000000000000000000000000000001600000000000000000000000004200000000000000000000000000000000000006000000000000000000000000000000000000000000000000000000000000000100000000000000000000000056e6983d59bf472ced0e63966a14d94a3a291589000000000000000000000000000000000000000000000000000000000000000100000000000000000000000056e6983d59bf472ced0e63966a14d94a3a2915890000000000000000000000000000000000000000000000000000000000000001000000000000000000002710b4cb800910b228ed3d0834cf79d697127bbb00e50000000000000000000000000000000000000000000000000000000000000001000000000000000000000000000000000000000000000000000000000000002000000000000000000000000000000000000000000000000000000000000000c00000000000000000000000000000000000000000000000000000000000000000000000000000000000000000000000000000000000000000000000000000004000000000000000000000000000000000000000000000000000000000000000600000000000000000000000004200000000000000000000000000000000000006000000000000000000000000833589fcd6edb6e08f4c7c32d4f71b54bda029130000000000000000000000000000000000000000000000000000000000000064000000000000000000000000000000000000000000000000000000000000000000000000000000000000000000000000000000000000000000000000","maxFeePerGas":"0x5a936b","maxPriorityFeePerGas":"0x5a936b","nonce":"0x14b","r":"0x3faf29e9ae22806473b167addf46f9b2ed432bd4cb319cdd0d3432f6423db415","s":"0x71d7121cd73589e7a7c29043124d7758c7904f715153a1993fa85a10e64bb15a","to":"0x6fd481970744f9bc0044a81859fd92431a2dd67d","transactionIndex":"0x32","type":"0x2","v":"0x0","value":"0x0","yParity":"0x0"},{"accessList":[],"blockHash":"0x5fa902aa8344c5756ea7541566ef5bac563d384e61a8926fe8844c5b36aa71b3","blockNumber":"0xf3fe05","chainId":"0x2105","from":"0x6903a1fa4efb0428532c03cfc48c044696730cb2","gas":"0x9087f","gasPrice":"0x58cf53","hash":"0xfcc7dac4c5c51446ed71b69cf8f190188d91c648ca66a26a027c76c7f5bfd198","input":"0xd123b4d800000000000000000000000000000000000000000000000000000000000000400000000000000000000000000000000000000000000000000000000000000340000000000000000000000000000000002ff98747bd284a6f8546a845518fd82cf7f754b6858ffa24cf8c4444e0812de859707bea674247c2a5bc743ffb065549000000000000000000000000000000000000000000000000000044364c5bb0000000000000000000000000006903a1fa4efb0428532c03cfc48c044696730cb20000000000000000000000000000000000000000000000000000000000000200000000000000000000000000000000000000000000000000000000000000024000000000000000000000000000000000000000000000000000000000000002a000000000000000000000000000000000000000000000000000000000000002c000000000000000000000000000000000000000000000000000000000000002e00000000000000000000000000000000000000000000000000000000000000000000000000000000000000000000000000000000000000000000000000000000000000000000000000000000000000000000000000000000000000000000000000000000000000000000000000000000000000000000000000000000000000000000000000000000000000000000000000000000000000000000000000000000300000000000000000000000000000000000000000000000000000000000000000000000000000000000000000000000000000000000000000000000000000000000000000000000000000000000000000000000000000000000000000000000a4f4b582057616c6c6574000000000000000000000000000000000000000000000000000000000000000000000000000000000000000000000000000000000035697066733a2f2f516d573654756d4d336259784c657272665852755556464d316d5441574a3873624a4e42613950347166774e6a3300000000000000000000000000000000000000000000000000000000000000000000000000000000000000000000000000000000000000000000000000000000000000000000000000000000000000000000000000000000000000000000000000000000000000000000000000000000000000000000000000000000000000000000000000000000000041a19b93747a0b412b22bb17939d0321759e728f0d8574e2c66a134928125a3f6a484f044bb5d1e1edeb59315819d51114ae9438d4db4be76dd2eab4fce33101c91b00000000000000000000000000000000000000000000000000000000000000","maxFeePerGas":"0x731591","maxPriorityFeePerGas":"0xcd4c5","nonce":"0xeb","r":"0xe04e471f9cd68f43be15acb5412dc36d942795889d1b0c1114415735b97c484f","s":"0x564c5e70a8d772635b133f296ade86eceaaaad9a1e877be2953a56d2d8f4a363","to":"0x1195cf65f83b3a5768f3c496d3a05ad6412c64b7","transactionIndex":"0x33","type":"0x2","v":"0x0","value":"0x44364c5bb000","yParity":"0x0"},{"accessList":[],"blockHash":"0x5fa902aa8344c5756ea7541566ef5bac563d384e61a8926fe8844c5b36aa71b3","blockNumber":"0xf3fe05","chainId":"0x2105","from":"0xd7a23f3f45e09110a563758963aca34ef63373c3","gas":"0xc65d40","gasPrice":"0x58375e","hash":"0x6f2af2fd63e812d7bccec0e0f7b758236bdbeb6b95feda98951abf7dd364c7ff","input":"0x13b14bbc000000000000000000000000000000000000000000000000000000000000000000000000000000000000000018543f5c383da4e5f0ab565350cf965a73cae5d0000000000000000000000000000000000000000000000000000000000000006000000000000000000000000000000000000000000000000000000000000000780000000000000000000000000000000000000000000000000000000000000f00000000000000000000000000000000000000000000000000000000000000102000000000000000000000000000000000000000000000000000000000000011400000000000000000000000000000000000000000000000000000000000001260000000000000000000000000000000000000000000000000000000000000138000000000000000000000000000000000000000000000000000000000000014a000000000000000000000000000000000000000000000000000000000000015c000000000000000000000000000000000000000000000000000000000000016e0000000000000000000000000000000000000000000000000000000000000180000000000000000000000000000000000000000000000000000000000000019200000000000000000000000000000000000000000000000000000000000001a400000000000000000000000000000000000000000000000000000000000001b600000000000000000000000000000000000000000000000000000000000001c800000000000000000000000000000000000000000000000000000000000001da00000000000000000000000000000000000000000000000000000000000001ec00000000000000000000000000000000000000000000000000000000000001fe00000000000000000000000000000000000000000000000000000000000002100000000000000000000000000000000000000000000000000000000000000222000000000000000000000000000000000000000000000000000000000000023400000000000000000000000000000000000000000000000000000000000002440000000000000000000000000000000000000000000000000000000000000254000000000000000000000000000000000000000000000000000000000000026400000000000000000000000000000000000000000000000000000000000002740000000000000000000000000000000000000000000000000000000000000284000000000000000000000000000000000000000000000000000000000000029400000000000000000000000000000000000000000000000000000000000002a400000000000000000000000000000000000000000000000000000000000002b400000000000000000000000000000000000000000000000000000000000002c400000000000000000000000000000000000000000000000000000000000002d400000000000000000000000000000000000000000000000000000000000002e400000000000000000000000000000000000000000000000000000000000002f4000000000000000000000000000000000000000000000000000000000000030400000000000000000000000000000000000000000000000000000000000003140000000000000000000000000000000000000000000000000000000000000324000000000000000000000000000000000000000000000000000000000000033400000000000000000000000000000000000000000000000000000000000003440000000000000000000000000000000000000000000000000000000000000354000000000000000000000000000000000000000000000000000000000000036400000000000000000000000000000000000000000000000000000000000003740000000000000000000000000000000000000000000000000000000000000384000000000000000000000000000000000000000000000000000000000000039400000000000000000000000000000000000000000000000000000000000003a400000000000000000000000000000000000000000000000000000000000003b400000000000000000000000000000000000000000000000000000000000003c400000000000000000000000000000000000000000000000000000000000003d400000000000000000000000000000000000000000000000000000000000003e400000000000000000000000000000000000000000000000000000000000003f4000000000000000000000000000000000000000000000000000000000000040400000000000000000000000000000000000000000000000000000000000004140000000000000000000000000000000000000000000000000000000000000424000000000000000000000000000000000000000000000000000000000000043400000000000000000000000000000000000000000000000000000000000004440000000000000000000000000000000000000000000000000000000000000454000000000000000000000000000000000000000000000000000000000000046400000000000000000000000000000000000000000000000000000000000004740000000000000000000000000000000000000000000000000000000000000484000000000000000000000000000000000000000000000000000000000000049400000000000000000000000000000000000000000000000000000000000004a400000000000000000000000000000000000000000000000000000000000004b400000000000000000000000000000000000000000000000000000000000004c400000000000000000000000000000000000000000000000000000000000004d400000000000000000000000000000000000000000000000000000000000004e400000000000000000000000000000000000000000000000000000000000004f4000000000000000000000000000000000000000000000000000000000000050400000000000000000000000000000000000000000000000000000000000005140000000000000000000000000000000000000000000000000000000000000524000000000000000000000000000000000000000000000000000000000000053400000000000000000000000000000000000000000000000000000000000005440000000000000000000000000000000000000000000000000000000000000554000000000000000000000000000000000000000000000000000000000000056400000000000000000000000000000000000000000000000000000000000005740000000000000000000000000000000000000000000000000000000000000584000000000000000000000000000000000000000000000000000000000000059400000000000000000000000000000000000000000000000000000000000005a400000000000000000000000000000000000000000000000000000000000005b400000000000000000000000000000000000000000000000000000000000005c400000000000000000000000000000000000000000000000000000000000005d400000000000000000000000000000000000000000000000000000000000005e400000000000000000000000000000000000000000000000000000000000005f4000000000000000000000000000000000000000000000000000000000000060400000000000000000000000000000000000000000000000000000000000006140000000000000000000000000000000000000000000000000000000000000624000000000000000000000000000000000000000000000000000000000000063400000000000000000000000000000000000000000000000000000000000006440000000000000000000000000000000000000000000000000000000000000654000000000000000000000000000000000000000000000000000000000000066400000000000000000000000000000000000000000000000000000000000006740000000000000000000000000000000000000000000000000000000000000684000000000000000000000000000000000000000000000000000000000000069400000000000000000000000000000000000000000000000000000000000006a400000000000000000000000000000000000000000000000000000000000006b400000000000000000000000000000000000000000000000000000000000006c400000000000000000000000000000000000000000000000000000000000006d400000000000000000000000000000000000000000000000000000000000006e400000000000000000000000000000000000000000000000000000000000006f4000000000000000000000000000000000000000000000000000000000000070400000000000000000000000000000000000000000000000000000000000007140000000000000000000000000000000000000000000000000000000000000724000000000000000000000000000000000000000000000000000000000000073400000000000000000000000000000000000000000000000000000000000007440000000000000000000000000000000000000000000000000000000000000754000000000000000000000000000000000000000000000000000000000000076400000000000000000000000000000000000000000000000000000000000007740000000000000000000000000000000000000000000000000000000000000784000000000000000000000000000000000000000000000000000000000000079400000000000000000000000000000000000000000000000000000000000007a400000000000000000000000000000000000000000000000000000000000007b400000000000000000000000000000000000000000000000000000000000007c400000000000000000000000000000000000000000000000000000000000007d400000000000000000000000000000000000000000000000000000000000007e400000000000000000000000000000000000000000000000000000000000007f40000000000000000000000000000000000000000000000000000000000000804000000000000000000000000000000000000000000000000000000000000081400000000000000000000000000000000000000000000000000000000000008240000000000000000000000000000000000000000000000000000000000000834000000000000000000000000000000000000000000000000000000000000084400000000000000000000000000000000000000000000000000000000000008540000000000000000000000000000000000000000000000000000000000000864000000000000000000000000000000000000000000000000000000000000087400000000000000000000000000000000000000000000000000000000000008840000000000000000000000000d85fc95c21ae448221a4aec49743caf65a3bf96e000000000000000000000000000000000000000000000000000000000000004000000000000000000000000000000000000000000000000000000000000000a221f515c1000000000000000000000000000000000000000000000000000000000000000000000000000000000000000000000000000000000000000000000000000000000000000000000000005403004d69971ccd4a636c403a3c1b00c85e99bb9b560600019000006402000c1a09d5d0445047da3ab4994262b22404288a3b0000640000010200b4cb800910b228ed3d0834cf79d697127bbb00e500006400000100000000000000000000000000000000000000000000000000000000000000000000000000000000000018543f5c383da4e5f0ab565350cf965a73cae5d0000000000000000000000000000000000000000000000000000000000000004000000000000000000000000000000000000000000000000000000000000000a221f515c100000000000000000000000000000000000000000000000000000000000000000000000000000000000000000000000000000000000000000000000000000000000000000000000000540300b4cb800910b228ed3d0834cf79d697127bbb00e5000064000001020029715d8d279cab143a12ff515b40a2b35d7bad370027100000c80200c9034c3e7f58003e6ae0c8438e7c8f4598d5acaa000bb800003c00000000000000000000000000000000000000000000000000000000000000000000000000000000000018543f5c383da4e5f0ab565350cf965a73cae5d0000000000000000000000000000000000000000000000000000000000000004000000000000000000000000000000000000000000000000000000000000000a221f515c100000000000000000000000000000000000000000000000000000000000000000000000000000000000000000000000000000000000000000000000000000000000000000000000000540300b4cb800910b228ed3d0834cf79d697127bbb00e50000640000010300f6062550e8711dd6a38ca87299b14dcd6d45d7830000230000010200e58b73ff901325b8b2056b29712c50237242f5200001f400000a00000000000000000000000000000000000000000000000000000000000000000000000000000000000018543f5c383da4e5f0ab565350cf965a73cae5d0000000000000000000000000000000000000000000000000000000000000004000000000000000000000000000000000000000000000000000000000000000a221f515c10000000000000000000000000000000000000000000000000000000000000000000000000000000000000000000000000000000000000000000000000000000000000000000000000054030072ab388e2e2f6facef59e3c3fa2c4e29011c2d380000640000010300f6062550e8711dd6a38ca87299b14dcd6d45d7830000230000010200b78daa6d74fe0e23e5c95446cfadbadc63205cfc0001f400000a00000000000000000000000000000000000000000000000000000000000000000000000000000000000018543f5c383da4e5f0ab565350cf965a73cae5d0000000000000000000000000000000000000000000000000000000000000004000000000000000000000000000000000000000000000000000000000000000a221f515c10000000000000000000000000000000000000000000000000000000000000000000000000000000000000000000000000000000000000000000000000000000000000000000000000054010088a43bbdf9d098eec7bceda4e2494615dfd9bb9c0000000000000300f6062550e8711dd6a38ca87299b14dcd6d45d78300002300000102004c36388be6f416a29c8d8eee81c771ce6be14b180001f400000a00000000000000000000000000000000000000000000000000000000000000000000000000000000000018543f5c383da4e5f0ab565350cf965a73cae5d0000000000000000000000000000000000000000000000000000000000000004000000000000000000000000000000000000000000000000000000000000000a221f515c100000000000000000000000000000000000000000000000000000000000000000000000000000000000000000000000000000000000000000000000000000000000000000000000000540300d0b53d9277642d899df5c87a3966a349a798f2240001f400000a0300f6062550e8711dd6a38ca87299b14dcd6d45d78300002300000102004c36388be6f416a29c8d8eee81c771ce6be14b180001f400000a00000000000000000000000000000000000000000000000000000000000000000000000000000000000018543f5c383da4e5f0ab565350cf965a73cae5d0000000000000000000000000000000000000000000000000000000000000004000000000000000000000000000000000000000000000000000000000000000a221f515c100000000000000000000000000000000000000000000000000000000000000000000000000000000000000000000000000000000000000000000000000000000000000000000000000540300b4cb800910b228ed3d0834cf79d697127bbb00e50000640000010300f6062550e8711dd6a38ca87299b14dcd6d45d7830000230000010200f6c0a374a483101e04ef5f7ac9bd15d9142bac9500006400000100000000000000000000000000000000000000000000000000000000000000000000000000000000000018543f5c383da4e5f0ab565350cf965a73cae5d0000000000000000000000000000000000000000000000000000000000000004000000000000000000000000000000000000000000000000000000000000000a221f515c10000000000000000000000000000000000000000000000000000000000000000000000000000000000000000000000000000000000000000000000000000000000000000000000000054030072ab388e2e2f6facef59e3c3fa2c4e29011c2d380000640000010300f6062550e8711dd6a38ca87299b14dcd6d45d7830000230000010200f6c0a374a483101e04ef5f7ac9bd15d9142bac9500006400000100000000000000000000000000000000000000000000000000000000000000000000000000000000000018543f5c383da4e5f0ab565350cf965a73cae5d0000000000000000000000000000000000000000000000000000000000000004000000000000000000000000000000000000000000000000000000000000000a221f515c10000000000000000000000000000000000000000000000000000000000000000000000000000000000000000000000000000000000000000000000000000000000000000000000000054030072ab388e2e2f6facef59e3c3fa2c4e29011c2d38000064000001030006959273e9a65433de71f5a452d529544e07ddd00000640000010200b78daa6d74fe0e23e5c95446cfadbadc63205cfc0001f400000a00000000000000000000000000000000000000000000000000000000000000000000000000000000000018543f5c383da4e5f0ab565350cf965a73cae5d0000000000000000000000000000000000000000000000000000000000000004000000000000000000000000000000000000000000000000000000000000000a221f515c10000000000000000000000000000000000000000000000000000000000000000000000000000000000000000000000000000000000000000000000000000000000000000000000000054010088a43bbdf9d098eec7bceda4e2494615dfd9bb9c000000000000030006959273e9a65433de71f5a452d529544e07ddd000006400000102004c36388be6f416a29c8d8eee81c771ce6be14b180001f400000a00000000000000000000000000000000000000000000000000000000000000000000000000000000000018543f5c383da4e5f0ab565350cf965a73cae5d0000000000000000000000000000000000000000000000000000000000000004000000000000000000000000000000000000000000000000000000000000000a221f515c1000000000000000000000000000000000000000000000000000000000000000000000000000000000000000000000000000000000000000000000000000000000000000000000000005403005aa4ad647580bfe86258d300bc9852f4434e2c61000bb800003c0200fc131b9981fb053c2cab7373daf70def1436c4bb0027100000c80200b4cb800910b228ed3d0834cf79d697127bbb00e500006400000100000000000000000000000000000000000000000000000000000000000000000000000000000000000018543f5c383da4e5f0ab565350cf965a73cae5d0000000000000000000000000000000000000000000000000000000000000004000000000000000000000000000000000000000000000000000000000000000a221f515c100000000000000000000000000000000000000000000000000000000000000000000000000000000000000000000000000000000000000000000000000000000000000000000000000540100b08a99ab559e5456907278727a3b0d968c0a313b000000000000020043ae5406ebe54c2383ba34021c65ef94b9ad5f220027100000c80200b4cb800910b228ed3d0834cf79d697127bbb00e500006400000100000000000000000000000000000000000000000000000000000000000000000000000000000000000018543f5c383da4e5f0ab565350cf965a73cae5d0000000000000000000000000000000000000000000000000000000000000004000000000000000000000000000000000000000000000000000000000000000a221f515c1000000000000000000000000000000000000000000000000000000000000000000000000000000000000000000000000000000000000000000000000000000000000000000000000005403003d5d143381916280ff91407febeb52f2b60f33cf000bb800003c000043bbb129b56a998732767725a183b7a566843dba0000000000000000404e927b203375779a6abd52a2049ce0adf6609b00000000000000000000000000000000000000000000000000000000000000000000000000000000000000000000000018543f5c383da4e5f0ab565350cf965a73cae5d0000000000000000000000000000000000000000000000000000000000000004000000000000000000000000000000000000000000000000000000000000000a221f515c1000000000000000000000000000000000000000000000000000000000000000000000000000000000000000000000000000000000000000000000000000000000000000000000000005403003d5d143381916280ff91407febeb52f2b60f33cf000bb800003c000090359da9715411b828769ab9343fa2732f726e190000000000000000caedc2561356b6a01a94e3c0438011459e91fbb900000000000000000000000000000000000000000000000000000000000000000000000000000000000000000000000018543f5c383da4e5f0ab565350cf965a73cae5d0000000000000000000000000000000000000000000000000000000000000004000000000000000000000000000000000000000000000000000000000000000a221f515c1000000000000000000000000000000000000000000000000000000000000000000000000000000000000000000000000000000000000000000000000000000000000000000000000005403003d5d143381916280ff91407febeb52f2b60f33cf000bb800003c00006cdcb1c4a4d1c3c6d054b27ac5b77e89eafb971d0000000000000200b4cb800910b228ed3d0834cf79d697127bbb00e500006400000100000000000000000000000000000000000000000000000000000000000000000000000000000000000018543f5c383da4e5f0ab565350cf965a73cae5d0000000000000000000000000000000000000000000000000000000000000004000000000000000000000000000000000000000000000000000000000000000a221f515c1000000000000000000000000000000000000000000000000000000000000000000000000000000000000000000000000000000000000000000000000000000000000000000000000005403003d5d143381916280ff91407febeb52f2b60f33cf000bb800003c00006cdcb1c4a4d1c3c6d054b27ac5b77e89eafb971d0000000000000200d0b53d9277642d899df5c87a3966a349a798f2240001f400000a000000000000000000000000000000000000000000000000000000000000000000000000000000000000d85fc95c21ae448221a4aec49743caf65a3bf96e000000000000000000000000000000000000000000000000000000000000004000000000000000000000000000000000000000000000000000000000000000a221f515c1000000000000000000000000000000000000000000000000000000000000000000000000000000000000000000000000000000000000000000000000000000000000000000000000005403004e829f8a5213c42535ab84aa40bd4adcce9cba020009c40000c8010043bbb129b56a998732767725a183b7a566843dba00000000000002003d5d143381916280ff91407febeb52f2b60f33cf000bb800003c000000000000000000000000000000000000000000000000000000000000000000000000000000000000d85fc95c21ae448221a4aec49743caf65a3bf96e000000000000000000000000000000000000000000000000000000000000004000000000000000000000000000000000000000000000000000000000000000a221f515c1000000000000000000000000000000000000000000000000000000000000000000000000000000000000000000000000000000000000000000000000000000000000000000000000005402008d8e0c850a4eed586879a10a1765459993ec3bec0027100000c803009be60b89d29613da9e5163a9f4ed9cc3738d59dc0017700000c80200b4cb800910b228ed3d0834cf79d697127bbb00e5000064000001000000000000000000000000000000000000000000000000000000000000000000000000000000000000d85fc95c21ae448221a4aec49743caf65a3bf96e0000000000000000000000000000000000000000000000000000000000000040000000000000000000000000000000000000000000000000000000000000008621f515c1000000000000000000000000000000000000000000000000000000000000000000000000000000000000000000000000000000000000000000000000000000000000000000000000003803004e829f8a5213c42535ab84aa40bd4adcce9cba020009c40000c80000404e927b203375779a6abd52a2049ce0adf6609b0000000000000000000000000000000000000000000000000000000000000000000000000000000000000000d85fc95c21ae448221a4aec49743caf65a3bf96e0000000000000000000000000000000000000000000000000000000000000040000000000000000000000000000000000000000000000000000000000000008621f515c1000000000000000000000000000000000000000000000000000000000000000000000000000000000000000000000000000000000000000000000000000000000000000000000000003803004e829f8a5213c42535ab84aa40bd4adcce9cba020009c40000c80200ba3f945812a83471d709bce9c3ca699a19fb46f70027100000c80000000000000000000000000000000000000000000000000000000000000000000000000000d85fc95c21ae448221a4aec49743caf65a3bf96e0000000000000000000000000000000000000000000000000000000000000040000000000000000000000000000000000000000000000000000000000000008621f515c1000000000000000000000000000000000000000000000000000000000000000000000000000000000000000000000000000000000000000000000000000000000000000000000000003803004e829f8a5213c42535ab84aa40bd4adcce9cba020009c40000c80200c4876eb31624a51888a2916f2d365b881ba9a8a30027100000c80000000000000000000000000000000000000000000000000000000000000000000000000000d85fc95c21ae448221a4aec49743caf65a3bf96e0000000000000000000000000000000000000000000000000000000000000040000000000000000000000000000000000000000000000000000000000000008621f515c1000000000000000000000000000000000000000000000000000000000000000000000000000000000000000000000000000000000000000000000000000000000000000000000000003803004e829f8a5213c42535ab84aa40bd4adcce9cba020009c40000c8020076bf0abd20f1e0155ce40a62615a90a709a6c3d8000bb800003c0000000000000000000000000000000000000000000000000000000000000000000000000000d85fc95c21ae448221a4aec49743caf65a3bf96e0000000000000000000000000000000000000000000000000000000000000040000000000000000000000000000000000000000000000000000000000000008621f515c1000000000000000000000000000000000000000000000000000000000000000000000000000000000000000000000000000000000000000000000000000000000000000000000000003803004e829f8a5213c42535ab84aa40bd4adcce9cba020009c40000c8000078b9a3e9b16391df3a379ea0c5b9c1aef4b55ab7000000000000000000000000000000000000000000000000000000000000000000000000000000000000000018543f5c383da4e5f0ab565350cf965a73cae5d00000000000000000000000000000000000000000000000000000000000000040000000000000000000000000000000000000000000000000000000000000008621f515c100000000000000000000000000000000000000000000000000000000000000000000000000000000000000000000000000000000000000000000000000000000000000000000000000380100404e927b203375779a6abd52a2049ce0adf6609b0000000000000200ba3f945812a83471d709bce9c3ca699a19fb46f70027100000c8000000000000000000000000000000000000000000000000000000000000000000000000000018543f5c383da4e5f0ab565350cf965a73cae5d00000000000000000000000000000000000000000000000000000000000000040000000000000000000000000000000000000000000000000000000000000008621f515c100000000000000000000000000000000000000000000000000000000000000000000000000000000000000000000000000000000000000000000000000000000000000000000000000380100404e927b203375779a6abd52a2049ce0adf6609b0000000000000200c4876eb31624a51888a2916f2d365b881ba9a8a30027100000c8000000000000000000000000000000000000000000000000000000000000000000000000000018543f5c383da4e5f0ab565350cf965a73cae5d00000000000000000000000000000000000000000000000000000000000000040000000000000000000000000000000000000000000000000000000000000008621f515c100000000000000000000000000000000000000000000000000000000000000000000000000000000000000000000000000000000000000000000000000000000000000000000000000380100404e927b203375779a6abd52a2049ce0adf6609b000000000000020076bf0abd20f1e0155ce40a62615a90a709a6c3d8000bb800003c000000000000000000000000000000000000000000000000000000000000000000000000000018543f5c383da4e5f0ab565350cf965a73cae5d00000000000000000000000000000000000000000000000000000000000000040000000000000000000000000000000000000000000000000000000000000008621f515c100000000000000000000000000000000000000000000000000000000000000000000000000000000000000000000000000000000000000000000000000000000000000000000000000380100404e927b203375779a6abd52a2049ce0adf6609b000000000000000078b9a3e9b16391df3a379ea0c5b9c1aef4b55ab7000000000000000000000000000000000000000000000000000000000000000000000000000000000000000018543f5c383da4e5f0ab565350cf965a73cae5d00000000000000000000000000000000000000000000000000000000000000040000000000000000000000000000000000000000000000000000000000000008621f515c100000000000000000000000000000000000000000000000000000000000000000000000000000000000000000000000000000000000000000000000000000000000000000000000000380300ba3f945812a83471d709bce9c3ca699a19fb46f70027100000c80200c4876eb31624a51888a2916f2d365b881ba9a8a30027100000c8000000000000000000000000000000000000000000000000000000000000000000000000000018543f5c383da4e5f0ab565350cf965a73cae5d00000000000000000000000000000000000000000000000000000000000000040000000000000000000000000000000000000000000000000000000000000008621f515c100000000000000000000000000000000000000000000000000000000000000000000000000000000000000000000000000000000000000000000000000000000000000000000000000380300ba3f945812a83471d709bce9c3ca699a19fb46f70027100000c8020076bf0abd20f1e0155ce40a62615a90a709a6c3d8000bb800003c000000000000000000000000000000000000000000000000000000000000000000000000000018543f5c383da4e5f0ab565350cf965a73cae5d00000000000000000000000000000000000000000000000000000000000000040000000000000000000000000000000000000000000000000000000000000008621f515c100000000000000000000000000000000000000000000000000000000000000000000000000000000000000000000000000000000000000000000000000000000000000000000000000380300ba3f945812a83471d709bce9c3ca699a19fb46f70027100000c8000078b9a3e9b16391df3a379ea0c5b9c1aef4b55ab7000000000000000000000000000000000000000000000000000000000000000000000000000000000000000018543f5c383da4e5f0ab565350cf965a73cae5d00000000000000000000000000000000000000000000000000000000000000040000000000000000000000000000000000000000000000000000000000000008621f515c100000000000000000000000000000000000000000000000000000000000000000000000000000000000000000000000000000000000000000000000000000000000000000000000000380300c4876eb31624a51888a2916f2d365b881ba9a8a30027100000c8020076bf0abd20f1e0155ce40a62615a90a709a6c3d8000bb800003c000000000000000000000000000000000000000000000000000000000000000000000000000018543f5c383da4e5f0ab565350cf965a73cae5d00000000000000000000000000000000000000000000000000000000000000040000000000000000000000000000000000000000000000000000000000000008621f515c100000000000000000000000000000000000000000000000000000000000000000000000000000000000000000000000000000000000000000000000000000000000000000000000000380300c4876eb31624a51888a2916f2d365b881ba9a8a30027100000c8000078b9a3e9b16391df3a379ea0c5b9c1aef4b55ab7000000000000000000000000000000000000000000000000000000000000000000000000000000000000000018543f5c383da4e5f0ab565350cf965a73cae5d00000000000000000000000000000000000000000000000000000000000000040000000000000000000000000000000000000000000000000000000000000008621f515c10000000000000000000000000000000000000000000000000000000000000000000000000000000000000000000000000000000000000000000000000000000000000000000000000038030076bf0abd20f1e0155ce40a62615a90a709a6c3d8000bb800003c000078b9a3e9b16391df3a379ea0c5b9c1aef4b55ab7000000000000000000000000000000000000000000000000000000000000000000000000000000000000000018543f5c383da4e5f0ab565350cf965a73cae5d00000000000000000000000000000000000000000000000000000000000000040000000000000000000000000000000000000000000000000000000000000008621f515c100000000000000000000000000000000000000000000000000000000000000000000000000000000000000000000000000000000000000000000000000000000000000000000000000380200f713942f9ced88851900759aaaffec779223ec54000bb800003c010008dd061b98dff7dae49a100df1f9a4d8e35d1e80000000000000000000000000000000000000000000000000000000000000000000000000000000000000000018543f5c383da4e5f0ab565350cf965a73cae5d00000000000000000000000000000000000000000000000000000000000000040000000000000000000000000000000000000000000000000000000000000008621f515c100000000000000000000000000000000000000000000000000000000000000000000000000000000000000000000000000000000000000000000000000000000000000000000000000380200f713942f9ced88851900759aaaffec779223ec54000bb800003c030042290b0dbce8445b1017f92337a59d715fcb9e760027100000c8000000000000000000000000000000000000000000000000000000000000000000000000000018543f5c383da4e5f0ab565350cf965a73cae5d00000000000000000000000000000000000000000000000000000000000000040000000000000000000000000000000000000000000000000000000000000008621f515c10000000000000000000000000000000000000000000000000000000000000000000000000000000000000000000000000000000000000000000000000000000000000000000000000038000008dd061b98dff7dae49a100df1f9a4d8e35d1e80000000000000030042290b0dbce8445b1017f92337a59d715fcb9e760027100000c8000000000000000000000000000000000000000000000000000000000000000000000000000018543f5c383da4e5f0ab565350cf965a73cae5d00000000000000000000000000000000000000000000000000000000000000040000000000000000000000000000000000000000000000000000000000000008621f515c10000000000000000000000000000000000000000000000000000000000000000000000000000000000000000000000000000000000000000000000000000000000000000000000000038010076fc8dbf2022ee75612cb74ec80caf6b3ccffb230000000000000200075e82a2557d30fba2f8226f2f110145000ccbea0027100000c80000000000000000000000000000000000000000000000000000000000000000000000000000d85fc95c21ae448221a4aec49743caf65a3bf96e0000000000000000000000000000000000000000000000000000000000000040000000000000000000000000000000000000000000000000000000000000008621f515c100000000000000000000000000000000000000000000000000000000000000000000000000000000000000000000000000000000000000000000000000000000000000000000000000380300b211a9ddff3a10806c8fdb92dbc4c34596a23f840017700000c80000377feeed4820b3b28d1ab429509e7a0789824fca0000000000000000000000000000000000000000000000000000000000000000000000000000000000000000d85fc95c21ae448221a4aec49743caf65a3bf96e0000000000000000000000000000000000000000000000000000000000000040000000000000000000000000000000000000000000000000000000000000008621f515c100000000000000000000000000000000000000000000000000000000000000000000000000000000000000000000000000000000000000000000000000000000000000000000000000380300b211a9ddff3a10806c8fdb92dbc4c34596a23f840017700000c80200d82403772cb858219cfb58bfab46ba7a310734740027100000c8000000000000000000000000000000000000000000000000000000000000000000000000000018543f5c383da4e5f0ab565350cf965a73cae5d00000000000000000000000000000000000000000000000000000000000000040000000000000000000000000000000000000000000000000000000000000008621f515c100000000000000000000000000000000000000000000000000000000000000000000000000000000000000000000000000000000000000000000000000000000000000000000000000380100377feeed4820b3b28d1ab429509e7a0789824fca0000000000000200d82403772cb858219cfb58bfab46ba7a310734740027100000c8000000000000000000000000000000000000000000000000000000000000000000000000000018543f5c383da4e5f0ab565350cf965a73cae5d00000000000000000000000000000000000000000000000000000000000000040000000000000000000000000000000000000000000000000000000000000008621f515c100000000000000000000000000000000000000000000000000000000000000000000000000000000000000000000000000000000000000000000000000000000000000000000000000380000ff5375bd65056dbe6119256fc3be2eb0ffa8a8400000000000000300cc4fab1466f0acf4c837216096a55924057252e40027100000c8000000000000000000000000000000000000000000000000000000000000000000000000000018543f5c383da4e5f0ab565350cf965a73cae5d00000000000000000000000000000000000000000000000000000000000000040000000000000000000000000000000000000000000000000000000000000008621f515c100000000000000000000000000000000000000000000000000000000000000000000000000000000000000000000000000000000000000000000000000000000000000000000000000380100538abdb009877e6ba296e026f108961ec933562d00000000000002001057b2af47aa7757bc5d8611a6ac25417f6ad3d00027100000c80000000000000000000000000000000000000000000000000000000000000000000000000000d85fc95c21ae448221a4aec49743caf65a3bf96e0000000000000000000000000000000000000000000000000000000000000040000000000000000000000000000000000000000000000000000000000000008621f515c10000000000000000000000000000000000000000000000000000000000000000000000000000000000000000000000000000000000000000000000000000000000000000000000000038030074e4c08bb50619b70550733d32b7e60424e9628e0009c40000c802005aa4ad647580bfe86258d300bc9852f4434e2c61000bb800003c0000000000000000000000000000000000000000000000000000000000000000000000000000d85fc95c21ae448221a4aec49743caf65a3bf96e0000000000000000000000000000000000000000000000000000000000000040000000000000000000000000000000000000000000000000000000000000008621f515c10000000000000000000000000000000000000000000000000000000000000000000000000000000000000000000000000000000000000000000000000000000000000000000000000038030074e4c08bb50619b70550733d32b7e60424e9628e0009c40000c802004b0aaf3ebb163dd45f663b38b6d93f6093ebc2d30027100000c8000000000000000000000000000000000000000000000000000000000000000000000000000018543f5c383da4e5f0ab565350cf965a73cae5d00000000000000000000000000000000000000000000000000000000000000040000000000000000000000000000000000000000000000000000000000000008621f515c1000000000000000000000000000000000000000000000000000000000000000000000000000000000000000000000000000000000000000000000000000000000000000000000000003803005aa4ad647580bfe86258d300bc9852f4434e2c61000bb800003c02004b0aaf3ebb163dd45f663b38b6d93f6093ebc2d30027100000c8000000000000000000000000000000000000000000000000000000000000000000000000000018543f5c383da4e5f0ab565350cf965a73cae5d00000000000000000000000000000000000000000000000000000000000000040000000000000000000000000000000000000000000000000000000000000008621f515c100000000000000000000000000000000000000000000000000000000000000000000000000000000000000000000000000000000000000000000000000000000000000000000000000380100a926342d7f9324a1dbde8f5ab77c92706f289b5d00000000000002000c04155b948497dda17b81faa62609485b08a7a20027100000c8000000000000000000000000000000000000000000000000000000000000000000000000000018543f5c383da4e5f0ab565350cf965a73cae5d00000000000000000000000000000000000000000000000000000000000000040000000000000000000000000000000000000000000000000000000000000008621f515c100000000000000000000000000000000000000000000000000000000000000000000000000000000000000000000000000000000000000000000000000000000000000000000000000380200780229080256c9c5af1630a3c165d5725131e6100027100000c8010039a72b1292aaed73b9b5633e14f88fe9a89f400b000000000000000000000000000000000000000000000000000000000000000000000000000000000000000018543f5c383da4e5f0ab565350cf965a73cae5d00000000000000000000000000000000000000000000000000000000000000040000000000000000000000000000000000000000000000000000000000000008621f515c10000000000000000000000000000000000000000000000000000000000000000000000000000000000000000000000000000000000000000000000000000000000000000000000000038010093eff1f9142f3a00b284876ad37e0cdd87c67477000000000000020020ebc01e2a259cad6610d2bdef10b1079fad5b500027100000c8000000000000000000000000000000000000000000000000000000000000000000000000000018543f5c383da4e5f0ab565350cf965a73cae5d00000000000000000000000000000000000000000000000000000000000000040000000000000000000000000000000000000000000000000000000000000008621f515c10000000000000000000000000000000000000000000000000000000000000000000000000000000000000000000000000000000000000000000000000000000000000000000000000038000053f64cde28dd3caef17e701593b4ad7a95f0f61c00000000000003008d8e0c850a4eed586879a10a1765459993ec3bec0027100000c80000000000000000000000000000000000000000000000000000000000000000000000000000d85fc95c21ae448221a4aec49743caf65a3bf96e0000000000000000000000000000000000000000000000000000000000000040000000000000000000000000000000000000000000000000000000000000008621f515c100000000000000000000000000000000000000000000000000000000000000000000000000000000000000000000000000000000000000000000000000000000000000000000000000380300c9034c3e7f58003e6ae0c8438e7c8f4598d5acaa000bb800003c0200afb62448929664bfccb0aae22f232520e765ba880009c40000c80000000000000000000000000000000000000000000000000000000000000000000000000000d85fc95c21ae448221a4aec49743caf65a3bf96e0000000000000000000000000000000000000000000000000000000000000040000000000000000000000000000000000000000000000000000000000000008621f515c1000000000000000000000000000000000000000000000000000000000000000000000000000000000000000000000000000000000000000000000000000000000000000000000000003801002c4909355b0c036840819484c3a882a95659abf30000000000000200afb62448929664bfccb0aae22f232520e765ba880009c40000c80000000000000000000000000000000000000000000000000000000000000000000000000000d85fc95c21ae448221a4aec49743caf65a3bf96e0000000000000000000000000000000000000000000000000000000000000040000000000000000000000000000000000000000000000000000000000000008621f515c10000000000000000000000000000000000000000000000000000000000000000000000000000000000000000000000000000000000000000000000000000000000000000000000000038010076431a0c757cf5450c3fed304d9bb6bb2a601bac0000000000000200afb62448929664bfccb0aae22f232520e765ba880009c40000c8000000000000000000000000000000000000000000000000000000000000000000000000000018543f5c383da4e5f0ab565350cf965a73cae5d00000000000000000000000000000000000000000000000000000000000000040000000000000000000000000000000000000000000000000000000000000008621f515c100000000000000000000000000000000000000000000000000000000000000000000000000000000000000000000000000000000000000000000000000000000000000000000000000380300c9034c3e7f58003e6ae0c8438e7c8f4598d5acaa000bb800003c00002c4909355b0c036840819484c3a882a95659abf3000000000000000000000000000000000000000000000000000000000000000000000000000000000000000018543f5c383da4e5f0ab565350cf965a73cae5d00000000000000000000000000000000000000000000000000000000000000040000000000000000000000000000000000000000000000000000000000000008621f515c100000000000000000000000000000000000000000000000000000000000000000000000000000000000000000000000000000000000000000000000000000000000000000000000000380300c9034c3e7f58003e6ae0c8438e7c8f4598d5acaa000bb800003c000076431a0c757cf5450c3fed304d9bb6bb2a601bac000000000000000000000000000000000000000000000000000000000000000000000000000000000000000018543f5c383da4e5f0ab565350cf965a73cae5d00000000000000000000000000000000000000000000000000000000000000040000000000000000000000000000000000000000000000000000000000000008621f515c1000000000000000000000000000000000000000000000000000000000000000000000000000000000000000000000000000000000000000000000000000000000000000000000000003801002c4909355b0c036840819484c3a882a95659abf3000000000000000076431a0c757cf5450c3fed304d9bb6bb2a601bac000000000000000000000000000000000000000000000000000000000000000000000000000000000000000018543f5c383da4e5f0ab565350cf965a73cae5d00000000000000000000000000000000000000000000000000000000000000040000000000000000000000000000000000000000000000000000000000000008621f515c100000000000000000000000000000000000000000000000000000000000000000000000000000000000000000000000000000000000000000000000000000000000000000000000000380100fffed65c9fdaf0818867e8b6d841fdb0631bc22300000000000002006e668dcafaaab8e9dc9b8255fe125622230fb9a60027100000c8000000000000000000000000000000000000000000000000000000000000000000000000000018543f5c383da4e5f0ab565350cf965a73cae5d00000000000000000000000000000000000000000000000000000000000000040000000000000000000000000000000000000000000000000000000000000008621f515c100000000000000000000000000000000000000000000000000000000000000000000000000000000000000000000000000000000000000000000000000000000000000000000000000380100b08a99ab559e5456907278727a3b0d968c0a313b00000000000002007ec18abf80e865c6799069df91073335935c41850027100000c80000000000000000000000000000000000000000000000000000000000000000000000000000d85fc95c21ae448221a4aec49743caf65a3bf96e0000000000000000000000000000000000000000000000000000000000000040000000000000000000000000000000000000000000000000000000000000008621f515c100000000000000000000000000000000000000000000000000000000000000000000000000000000000000000000000000000000000000000000000000000000000000000000000000380300ebec4772aba30d82bc64bbb99187b4ca29928e2e001f400000c8000016905890a1d02b6f824387419319bf4188b961b00000000000000000000000000000000000000000000000000000000000000000000000000000000000000000d85fc95c21ae448221a4aec49743caf65a3bf96e0000000000000000000000000000000000000000000000000000000000000040000000000000000000000000000000000000000000000000000000000000008621f515c100000000000000000000000000000000000000000000000000000000000000000000000000000000000000000000000000000000000000000000000000000000000000000000000000380300ebec4772aba30d82bc64bbb99187b4ca29928e2e001f400000c8020059f008543f267c2f92c1f6d9e2bb214cacc62479000bb800003c0000000000000000000000000000000000000000000000000000000000000000000000000000d85fc95c21ae448221a4aec49743caf65a3bf96e0000000000000000000000000000000000000000000000000000000000000040000000000000000000000000000000000000000000000000000000000000008621f515c100000000000000000000000000000000000000000000000000000000000000000000000000000000000000000000000000000000000000000000000000000000000000000000000000380300ebec4772aba30d82bc64bbb99187b4ca29928e2e001f400000c802005fd708486fb7f598c82d96b0377cbae11a433ed40027100000c8000000000000000000000000000000000000000000000000000000000000000000000000000018543f5c383da4e5f0ab565350cf965a73cae5d00000000000000000000000000000000000000000000000000000000000000040000000000000000000000000000000000000000000000000000000000000008621f515c10000000000000000000000000000000000000000000000000000000000000000000000000000000000000000000000000000000000000000000000000000000000000000000000000038010016905890a1d02b6f824387419319bf4188b961b0000000000000020059f008543f267c2f92c1f6d9e2bb214cacc62479000bb800003c000000000000000000000000000000000000000000000000000000000000000000000000000018543f5c383da4e5f0ab565350cf965a73cae5d00000000000000000000000000000000000000000000000000000000000000040000000000000000000000000000000000000000000000000000000000000008621f515c10000000000000000000000000000000000000000000000000000000000000000000000000000000000000000000000000000000000000000000000000000000000000000000000000038010016905890a1d02b6f824387419319bf4188b961b000000000000002005fd708486fb7f598c82d96b0377cbae11a433ed40027100000c8000000000000000000000000000000000000000000000000000000000000000000000000000018543f5c383da4e5f0ab565350cf965a73cae5d00000000000000000000000000000000000000000000000000000000000000040000000000000000000000000000000000000000000000000000000000000008621f515c10000000000000000000000000000000000000000000000000000000000000000000000000000000000000000000000000000000000000000000000000000000000000000000000000038030059f008543f267c2f92c1f6d9e2bb214cacc62479000bb800003c02005fd708486fb7f598c82d96b0377cbae11a433ed40027100000c80000000000000000000000000000000000000000000000000000000000000000000000000000d85fc95c21ae448221a4aec49743caf65a3bf96e0000000000000000000000000000000000000000000000000000000000000040000000000000000000000000000000000000000000000000000000000000008621f515c100000000000000000000000000000000000000000000000000000000000000000000000000000000000000000000000000000000000000000000000000000000000000000000000000380300e782b72a1157b7bea1a9452835cce214962ad43b001f400000c800006d6391b9bd02eefa00fa711fb1cb828a6471d2830000000000000000000000000000000000000000000000000000000000000000000000000000000000000000d85fc95c21ae448221a4aec49743caf65a3bf96e0000000000000000000000000000000000000000000000000000000000000040000000000000000000000000000000000000000000000000000000000000008621f515c100000000000000000000000000000000000000000000000000000000000000000000000000000000000000000000000000000000000000000000000000000000000000000000000000380300e782b72a1157b7bea1a9452835cce214962ad43b001f400000c802000ea13439f0818bd0598c002d9337374a78d5fe470027100000c8000000000000000000000000000000000000000000000000000000000000000000000000000018543f5c383da4e5f0ab565350cf965a73cae5d00000000000000000000000000000000000000000000000000000000000000040000000000000000000000000000000000000000000000000000000000000008621f515c1000000000000000000000000000000000000000000000000000000000000000000000000000000000000000000000000000000000000000000000000000000000000000000000000003801006d6391b9bd02eefa00fa711fb1cb828a6471d28300000000000002000ea13439f0818bd0598c002d9337374a78d5fe470027100000c8000000000000000000000000000000000000000000000000000000000000000000000000000018543f5c383da4e5f0ab565350cf965a73cae5d00000000000000000000000000000000000000000000000000000000000000040000000000000000000000000000000000000000000000000000000000000008621f515c100000000000000000000000000000000000000000000000000000000000000000000000000000000000000000000000000000000000000000000000000000000000000000000000000380100a5c7015c81d2280032b031406048c75696ba77d50000000000000200e9ed60539a8ea7a4da04ebfa524e631b1fd485250027100000c80000000000000000000000000000000000000000000000000000000000000000000000000000d85fc95c21ae448221a4aec49743caf65a3bf96e0000000000000000000000000000000000000000000000000000000000000040000000000000000000000000000000000000000000000000000000000000008621f515c10000000000000000000000000000000000000000000000000000000000000000000000000000000000000000000000000000000000000000000000000000000000000000000000000038030012ccdd646241412f2a5d44a6994aa29086dedc61001f400000c80200cb4aaa0b65c143b67021549de5dee6f0c84219660027100000c8000000000000000000000000000000000000000000000000000000000000000000000000000018543f5c383da4e5f0ab565350cf965a73cae5d00000000000000000000000000000000000000000000000000000000000000040000000000000000000000000000000000000000000000000000000000000008621f515c100000000000000000000000000000000000000000000000000000000000000000000000000000000000000000000000000000000000000000000000000000000000000000000000000380100d22586e6f068718fb92b7eecfc0a2c918e7b9a700000000000000200cc0f2ee832bd3ce479e80eb6ef984e9cd02583410027100000c80000000000000000000000000000000000000000000000000000000000000000000000000000d85fc95c21ae448221a4aec49743caf65a3bf96e0000000000000000000000000000000000000000000000000000000000000040000000000000000000000000000000000000000000000000000000000000008621f515c1000000000000000000000000000000000000000000000000000000000000000000000000000000000000000000000000000000000000000000000000000000000000000000000000003803003d5d143381916280ff91407febeb52f2b60f33cf000bb800003c020082321f3beb69f503380d6b233857d5c43562e2d00017700000c8000000000000000000000000000000000000000000000000000000000000000000000000000018543f5c383da4e5f0ab565350cf965a73cae5d00000000000000000000000000000000000000000000000000000000000000040000000000000000000000000000000000000000000000000000000000000008621f515c100000000000000000000000000000000000000000000000000000000000000000000000000000000000000000000000000000000000000000000000000000000000000000000000000380000f65bb528ced09008603509c3fda43e1ccfddf9350000000000000300e745a591970e0fa981204cf525e170a2b9e4fb930027100000c80000000000000000000000000000000000000000000000000000000000000000000000000000d85fc95c21ae448221a4aec49743caf65a3bf96e0000000000000000000000000000000000000000000000000000000000000040000000000000000000000000000000000000000000000000000000000000008621f515c1000000000000000000000000000000000000000000000000000000000000000000000000000000000000000000000000000000000000000000000000000000000000000000000000003803002b5fd674f93e329d54371dba980a67f3ff3bc119001f400000c80200beaab7dbfa682636fb855ac19ea583eb064788520027100000c8000000000000000000000000000000000000000000000000000000000000000000000000000018543f5c383da4e5f0ab565350cf965a73cae5d00000000000000000000000000000000000000000000000000000000000000040000000000000000000000000000000000000000000000000000000000000008621f515c1000000000000000000000000000000000000000000000000000000000000000000000000000000000000000000000000000000000000000000000000000000000000000000000000003801001ede63579ccdbb6fd051c9886048103dd8f342c60000000000000000caedc2561356b6a01a94e3c0438011459e91fbb9000000000000000000000000000000000000000000000000000000000000000000000000000000000000000018543f5c383da4e5f0ab565350cf965a73cae5d00000000000000000000000000000000000000000000000000000000000000040000000000000000000000000000000000000000000000000000000000000008621f515c10000000000000000000000000000000000000000000000000000000000000000000000000000000000000000000000000000000000000000000000000000000000000000000000000038010068187f6d1b5fb20b03b994978e9664b57099ba3c000000000000020066b75032801b93b61b5b16200bac0b77bddf21610027100000c8000000000000000000000000000000000000000000000000000000000000000000000000000018543f5c383da4e5f0ab565350cf965a73cae5d00000000000000000000000000000000000000000000000000000000000000040000000000000000000000000000000000000000000000000000000000000008621f515c100000000000000000000000000000000000000000000000000000000000000000000000000000000000000000000000000000000000000000000000000000000000000000000000000380100fe83058f06869da5d70a1355dca64c873480ab1d0000000000000200e36596c7e186eb7fbb2f355b4ad18f29aa7bf2820027100000c8000000000000000000000000000000000000000000000000000000000000000000000000000018543f5c383da4e5f0ab565350cf965a73cae5d00000000000000000000000000000000000000000000000000000000000000040000000000000000000000000000000000000000000000000000000000000008621f515c1000000000000000000000000000000000000000000000000000000000000000000000000000000000000000000000000000000000000000000000000000000000000000000000000003802000197b7c77f8ecb9857f110e59bdfb401471ddd950001f400000a0300a575dcdc023db26479379375731a05e8f580409e000bb800003c000000000000000000000000000000000000000000000000000000000000000000000000000018543f5c383da4e5f0ab565350cf965a73cae5d00000000000000000000000000000000000000000000000000000000000000040000000000000000000000000000000000000000000000000000000000000008621f515c1000000000000000000000000000000000000000000000000000000000000000000000000000000000000000000000000000000000000000000000000000000000000000000000000003800008d3c2c3a0408d5ea34d70dbec370fa519d5c215400000000000003000a947f6b550a52268f9509d28477104edf8b8af80027100000c80000000000000000000000000000000000000000000000000000000000000000000000000000d85fc95c21ae448221a4aec49743caf65a3bf96e0000000000000000000000000000000000000000000000000000000000000040000000000000000000000000000000000000000000000000000000000000008621f515c100000000000000000000000000000000000000000000000000000000000000000000000000000000000000000000000000000000000000000000000000000000000000000000000000380300ade9bcd4b968ee26bed102dd43a55f6a8c2416df0027100000c80200088c39ee29fc30df8adc394e9f7dea33e3a26507001f400000c8000000000000000000000000000000000000000000000000000000000000000000000000000018543f5c383da4e5f0ab565350cf965a73cae5d00000000000000000000000000000000000000000000000000000000000000040000000000000000000000000000000000000000000000000000000000000008621f515c100000000000000000000000000000000000000000000000000000000000000000000000000000000000000000000000000000000000000000000000000000000000000000000000000380300680199a4ac35862039396d1cf3e4cc80cd1d3b680027100000c800003c64b80e4c6fcdbcca513c237ca582964f6bb9f20000000000000000000000000000000000000000000000000000000000000000000000000000000000000000d85fc95c21ae448221a4aec49743caf65a3bf96e0000000000000000000000000000000000000000000000000000000000000040000000000000000000000000000000000000000000000000000000000000008621f515c100000000000000000000000000000000000000000000000000000000000000000000000000000000000000000000000000000000000000000000000000000000000000000000000000380300ad04be2b6613586f83049d5953611baa239713400009c40000c8020058342c302dd4df0531f60dd3c0eabb0c95ac08cb000bb800003c0000000000000000000000000000000000000000000000000000000000000000000000000000d85fc95c21ae448221a4aec49743caf65a3bf96e0000000000000000000000000000000000000000000000000000000000000040000000000000000000000000000000000000000000000000000000000000008621f515c100000000000000000000000000000000000000000000000000000000000000000000000000000000000000000000000000000000000000000000000000000000000000000000000000380300fd7abc461df4e496a25898cab0c6ea88cdd94cf90009c40000c80200ee6f3c5f418d1097c50c4698d535edb33bd72931000bb800003c0000000000000000000000000000000000000000000000000000000000000000000000000000d85fc95c21ae448221a4aec49743caf65a3bf96e0000000000000000000000000000000000000000000000000000000000000040000000000000000000000000000000000000000000000000000000000000008621f515c100000000000000000000000000000000000000000000000000000000000000000000000000000000000000000000000000000000000000000000000000000000000000000000000000380300fd7abc461df4e496a25898cab0c6ea88cdd94cf90009c40000c802008055e6de251e414e8393b20adab096afb3cf83990027100000c8000000000000000000000000000000000000000000000000000000000000000000000000000018543f5c383da4e5f0ab565350cf965a73cae5d00000000000000000000000000000000000000000000000000000000000000040000000000000000000000000000000000000000000000000000000000000008621f515c100000000000000000000000000000000000000000000000000000000000000000000000000000000000000000000000000000000000000000000000000000000000000000000000000380300ee6f3c5f418d1097c50c4698d535edb33bd72931000bb800003c02008055e6de251e414e8393b20adab096afb3cf83990027100000c80000000000000000000000000000000000000000000000000000000000000000000000000000d85fc95c21ae448221a4aec49743caf65a3bf96e0000000000000000000000000000000000000000000000000000000000000040000000000000000000000000000000000000000000000000000000000000008621f515c100000000000000000000000000000000000000000000000000000000000000000000000000000000000000000000000000000000000000000000000000000000000000000000000000380300b2cc224c1c9fee385f8ad6a55b4d94e92359dc590001900000640000cdac0d6c6c59727a65f871236188350531885c430000000000000000000000000000000000000000000000000000000000000000000000000000000000000000d85fc95c21ae448221a4aec49743caf65a3bf96e0000000000000000000000000000000000000000000000000000000000000040000000000000000000000000000000000000000000000000000000000000008621f515c100000000000000000000000000000000000000000000000000000000000000000000000000000000000000000000000000000000000000000000000000000000000000000000000000380300b2cc224c1c9fee385f8ad6a55b4d94e92359dc590001900000640200b775272e537cc670c65dc852908ad47015244eaf0001f400000a0000000000000000000000000000000000000000000000000000000000000000000000000000d85fc95c21ae448221a4aec49743caf65a3bf96e0000000000000000000000000000000000000000000000000000000000000040000000000000000000000000000000000000000000000000000000000000008621f515c100000000000000000000000000000000000000000000000000000000000000000000000000000000000000000000000000000000000000000000000000000000000000000000000000380300b2cc224c1c9fee385f8ad6a55b4d94e92359dc590001900000640200d0b53d9277642d899df5c87a3966a349a798f2240001f400000a0000000000000000000000000000000000000000000000000000000000000000000000000000d85fc95c21ae448221a4aec49743caf65a3bf96e0000000000000000000000000000000000000000000000000000000000000040000000000000000000000000000000000000000000000000000000000000008621f515c100000000000000000000000000000000000000000000000000000000000000000000000000000000000000000000000000000000000000000000000000000000000000000000000000380300b2cc224c1c9fee385f8ad6a55b4d94e92359dc590001900000640200b4cb800910b228ed3d0834cf79d697127bbb00e50000640000010000000000000000000000000000000000000000000000000000000000000000000000000000d85fc95c21ae448221a4aec49743caf65a3bf96e0000000000000000000000000000000000000000000000000000000000000040000000000000000000000000000000000000000000000000000000000000008621f515c100000000000000000000000000000000000000000000000000000000000000000000000000000000000000000000000000000000000000000000000000000000000000000000000000380300b2cc224c1c9fee385f8ad6a55b4d94e92359dc59000190000064020072ab388e2e2f6facef59e3c3fa2c4e29011c2d380000640000010000000000000000000000000000000000000000000000000000000000000000000000000000d85fc95c21ae448221a4aec49743caf65a3bf96e0000000000000000000000000000000000000000000000000000000000000040000000000000000000000000000000000000000000000000000000000000008621f515c100000000000000000000000000000000000000000000000000000000000000000000000000000000000000000000000000000000000000000000000000000000000000000000000000380300b2cc224c1c9fee385f8ad6a55b4d94e92359dc59000190000064000088a43bbdf9d098eec7bceda4e2494615dfd9bb9c000000000000000000000000000000000000000000000000000000000000000000000000000000000000000018543f5c383da4e5f0ab565350cf965a73cae5d00000000000000000000000000000000000000000000000000000000000000040000000000000000000000000000000000000000000000000000000000000008621f515c100000000000000000000000000000000000000000000000000000000000000000000000000000000000000000000000000000000000000000000000000000000000000000000000000380100cdac0d6c6c59727a65f871236188350531885c430000000000000200b775272e537cc670c65dc852908ad47015244eaf0001f400000a000000000000000000000000000000000000000000000000000000000000000000000000000018543f5c383da4e5f0ab565350cf965a73cae5d00000000000000000000000000000000000000000000000000000000000000040000000000000000000000000000000000000000000000000000000000000008621f515c100000000000000000000000000000000000000000000000000000000000000000000000000000000000000000000000000000000000000000000000000000000000000000000000000380100cdac0d6c6c59727a65f871236188350531885c430000000000000200d0b53d9277642d899df5c87a3966a349a798f2240001f400000a000000000000000000000000000000000000000000000000000000000000000000000000000018543f5c383da4e5f0ab565350cf965a73cae5d00000000000000000000000000000000000000000000000000000000000000040000000000000000000000000000000000000000000000000000000000000008621f515c100000000000000000000000000000000000000000000000000000000000000000000000000000000000000000000000000000000000000000000000000000000000000000000000000380100cdac0d6c6c59727a65f871236188350531885c430000000000000200b4cb800910b228ed3d0834cf79d697127bbb00e5000064000001000000000000000000000000000000000000000000000000000000000000000000000000000018543f5c383da4e5f0ab565350cf965a73cae5d00000000000000000000000000000000000000000000000000000000000000040000000000000000000000000000000000000000000000000000000000000008621f515c100000000000000000000000000000000000000000000000000000000000000000000000000000000000000000000000000000000000000000000000000000000000000000000000000380100cdac0d6c6c59727a65f871236188350531885c43000000000000020072ab388e2e2f6facef59e3c3fa2c4e29011c2d38000064000001000000000000000000000000000000000000000000000000000000000000000000000000000018543f5c383da4e5f0ab565350cf965a73cae5d00000000000000000000000000000000000000000000000000000000000000040000000000000000000000000000000000000000000000000000000000000008621f515c100000000000000000000000000000000000000000000000000000000000000000000000000000000000000000000000000000000000000000000000000000000000000000000000000380100cdac0d6c6c59727a65f871236188350531885c43000000000000000088a43bbdf9d098eec7bceda4e2494615dfd9bb9c000000000000000000000000000000000000000000000000000000000000000000000000000000000000000018543f5c383da4e5f0ab565350cf965a73cae5d00000000000000000000000000000000000000000000000000000000000000040000000000000000000000000000000000000000000000000000000000000008621f515c100000000000000000000000000000000000000000000000000000000000000000000000000000000000000000000000000000000000000000000000000000000000000000000000000380300b775272e537cc670c65dc852908ad47015244eaf0001f400000a0200d0b53d9277642d899df5c87a3966a349a798f2240001f400000a000000000000000000000000000000000000000000000000000000000000000000000000000018543f5c383da4e5f0ab565350cf965a73cae5d00000000000000000000000000000000000000000000000000000000000000040000000000000000000000000000000000000000000000000000000000000008621f515c100000000000000000000000000000000000000000000000000000000000000000000000000000000000000000000000000000000000000000000000000000000000000000000000000380300b775272e537cc670c65dc852908ad47015244eaf0001f400000a0200b4cb800910b228ed3d0834cf79d697127bbb00e5000064000001000000000000000000000000000000000000000000000000000000000000000000000000000018543f5c383da4e5f0ab565350cf965a73cae5d00000000000000000000000000000000000000000000000000000000000000040000000000000000000000000000000000000000000000000000000000000008621f515c100000000000000000000000000000000000000000000000000000000000000000000000000000000000000000000000000000000000000000000000000000000000000000000000000380300b775272e537cc670c65dc852908ad47015244eaf0001f400000a020072ab388e2e2f6facef59e3c3fa2c4e29011c2d38000064000001000000000000000000000000000000000000000000000000000000000000000000000000000018543f5c383da4e5f0ab565350cf965a73cae5d00000000000000000000000000000000000000000000000000000000000000040000000000000000000000000000000000000000000000000000000000000008621f515c100000000000000000000000000000000000000000000000000000000000000000000000000000000000000000000000000000000000000000000000000000000000000000000000000380300b775272e537cc670c65dc852908ad47015244eaf0001f400000a000088a43bbdf9d098eec7bceda4e2494615dfd9bb9c000000000000000000000000000000000000000000000000000000000000000000000000000000000000000018543f5c383da4e5f0ab565350cf965a73cae5d00000000000000000000000000000000000000000000000000000000000000040000000000000000000000000000000000000000000000000000000000000008621f515c100000000000000000000000000000000000000000000000000000000000000000000000000000000000000000000000000000000000000000000000000000000000000000000000000380300d0b53d9277642d899df5c87a3966a349a798f2240001f400000a0200b4cb800910b228ed3d0834cf79d697127bbb00e5000064000001000000000000000000000000000000000000000000000000000000000000000000000000000018543f5c383da4e5f0ab565350cf965a73cae5d00000000000000000000000000000000000000000000000000000000000000040000000000000000000000000000000000000000000000000000000000000008621f515c100000000000000000000000000000000000000000000000000000000000000000000000000000000000000000000000000000000000000000000000000000000000000000000000000380300d0b53d9277642d899df5c87a3966a349a798f2240001f400000a020072ab388e2e2f6facef59e3c3fa2c4e29011c2d38000064000001000000000000000000000000000000000000000000000000000000000000000000000000000018543f5c383da4e5f0ab565350cf965a73cae5d00000000000000000000000000000000000000000000000000000000000000040000000000000000000000000000000000000000000000000000000000000008621f515c100000000000000000000000000000000000000000000000000000000000000000000000000000000000000000000000000000000000000000000000000000000000000000000000000380300d0b53d9277642d899df5c87a3966a349a798f2240001f400000a000088a43bbdf9d098eec7bceda4e2494615dfd9bb9c000000000000000000000000000000000000000000000000000000000000000000000000000000000000000018543f5c383da4e5f0ab565350cf965a73cae5d00000000000000000000000000000000000000000000000000000000000000040000000000000000000000000000000000000000000000000000000000000008621f515c100000000000000000000000000000000000000000000000000000000000000000000000000000000000000000000000000000000000000000000000000000000000000000000000000380300b4cb800910b228ed3d0834cf79d697127bbb00e5000064000001020072ab388e2e2f6facef59e3c3fa2c4e29011c2d38000064000001000000000000000000000000000000000000000000000000000000000000000000000000000018543f5c383da4e5f0ab565350cf965a73cae5d00000000000000000000000000000000000000000000000000000000000000040000000000000000000000000000000000000000000000000000000000000008621f515c100000000000000000000000000000000000000000000000000000000000000000000000000000000000000000000000000000000000000000000000000000000000000000000000000380300b4cb800910b228ed3d0834cf79d697127bbb00e5000064000001000088a43bbdf9d098eec7bceda4e2494615dfd9bb9c000000000000000000000000000000000000000000000000000000000000000000000000000000000000000018543f5c383da4e5f0ab565350cf965a73cae5d00000000000000000000000000000000000000000000000000000000000000040000000000000000000000000000000000000000000000000000000000000008621f515c10000000000000000000000000000000000000000000000000000000000000000000000000000000000000000000000000000000000000000000000000000000000000000000000000038030072ab388e2e2f6facef59e3c3fa2c4e29011c2d38000064000001000088a43bbdf9d098eec7bceda4e2494615dfd9bb9c000000000000000000000000000000000000000000000000000000000000000000000000000000000000000018543f5c383da4e5f0ab565350cf965a73cae5d00000000000000000000000000000000000000000000000000000000000000040000000000000000000000000000000000000000000000000000000000000008621f515c100000000000000000000000000000000000000000000000000000000000000000000000000000000000000000000000000000000000000000000000000000000000000000000000000380300e58b73ff901325b8b2056b29712c50237242f5200001f400000a02004c36388be6f416a29c8d8eee81c771ce6be14b180001f400000a000000000000000000000000000000000000000000000000000000000000000000000000000018543f5c383da4e5f0ab565350cf965a73cae5d00000000000000000000000000000000000000000000000000000000000000040000000000000000000000000000000000000000000000000000000000000008621f515c100000000000000000000000000000000000000000000000000000000000000000000000000000000000000000000000000000000000000000000000000000000000000000000000000380300e58b73ff901325b8b2056b29712c50237242f5200001f400000a0200f6c0a374a483101e04ef5f7ac9bd15d9142bac95000064000001000000000000000000000000000000000000000000000000000000000000000000000000000018543f5c383da4e5f0ab565350cf965a73cae5d00000000000000000000000000000000000000000000000000000000000000040000000000000000000000000000000000000000000000000000000000000008621f515c100000000000000000000000000000000000000000000000000000000000000000000000000000000000000000000000000000000000000000000000000000000000000000000000000380300e58b73ff901325b8b2056b29712c50237242f5200001f400000a0200b78daa6d74fe0e23e5c95446cfadbadc63205cfc0001f400000a000000000000000000000000000000000000000000000000000000000000000000000000000018543f5c383da4e5f0ab565350cf965a73cae5d00000000000000000000000000000000000000000000000000000000000000040000000000000000000000000000000000000000000000000000000000000008621f515c100000000000000000000000000000000000000000000000000000000000000000000000000000000000000000000000000000000000000000000000000000000000000000000000000380300e58b73ff901325b8b2056b29712c50237242f5200001f400000a020022ca6d83ab887a535ae1c6011cc36ea9d1255c310001f400000a000000000000000000000000000000000000000000000000000000000000000000000000000018543f5c383da4e5f0ab565350cf965a73cae5d00000000000000000000000000000000000000000000000000000000000000040000000000000000000000000000000000000000000000000000000000000008621f515c100000000000000000000000000000000000000000000000000000000000000000000000000000000000000000000000000000000000000000000000000000000000000000000000000380300e58b73ff901325b8b2056b29712c50237242f5200001f400000a0000b4885bc63399bf5518b994c1d0c153334ee579d0000000000000000000000000000000000000000000000000000000000000000000000000000000000000000018543f5c383da4e5f0ab565350cf965a73cae5d00000000000000000000000000000000000000000000000000000000000000040000000000000000000000000000000000000000000000000000000000000008621f515c1000000000000000000000000000000000000000000000000000000000000000000000000000000000000000000000000000000000000000000000000000000000000000000000000003803004c36388be6f416a29c8d8eee81c771ce6be14b180001f400000a0200f6c0a374a483101e04ef5f7ac9bd15d9142bac95000064000001000000000000000000000000000000000000000000000000000000000000000000000000000018543f5c383da4e5f0ab565350cf965a73cae5d00000000000000000000000000000000000000000000000000000000000000040000000000000000000000000000000000000000000000000000000000000008621f515c1000000000000000000000000000000000000000000000000000000000000000000000000000000000000000000000000000000000000000000000000000000000000000000000000003803004c36388be6f416a29c8d8eee81c771ce6be14b180001f400000a0200b78daa6d74fe0e23e5c95446cfadbadc63205cfc0001f400000a000000000000000000000000000000000000000000000000000000000000000000000000000018543f5c383da4e5f0ab565350cf965a73cae5d00000000000000000000000000000000000000000000000000000000000000040000000000000000000000000000000000000000000000000000000000000008621f515c1000000000000000000000000000000000000000000000000000000000000000000000000000000000000000000000000000000000000000000000000000000000000000000000000003803004c36388be6f416a29c8d8eee81c771ce6be14b180001f400000a020022ca6d83ab887a535ae1c6011cc36ea9d1255c310001f400000a000000000000000000000000000000000000000000000000000000000000000000000000000018543f5c383da4e5f0ab565350cf965a73cae5d00000000000000000000000000000000000000000000000000000000000000040000000000000000000000000000000000000000000000000000000000000008621f515c1000000000000000000000000000000000000000000000000000000000000000000000000000000000000000000000000000000000000000000000000000000000000000000000000003803004c36388be6f416a29c8d8eee81c771ce6be14b180001f400000a0000b4885bc63399bf5518b994c1d0c153334ee579d0000000000000000000000000000000000000000000000000000000000000000000000000000000000000000018543f5c383da4e5f0ab565350cf965a73cae5d00000000000000000000000000000000000000000000000000000000000000040000000000000000000000000000000000000000000000000000000000000008621f515c100000000000000000000000000000000000000000000000000000000000000000000000000000000000000000000000000000000000000000000000000000000000000000000000000380300f6c0a374a483101e04ef5f7ac9bd15d9142bac950000640000010200b78daa6d74fe0e23e5c95446cfadbadc63205cfc0001f400000a000000000000000000000000000000000000000000000000000000000000000000000000000018543f5c383da4e5f0ab565350cf965a73cae5d00000000000000000000000000000000000000000000000000000000000000040000000000000000000000000000000000000000000000000000000000000008621f515c100000000000000000000000000000000000000000000000000000000000000000000000000000000000000000000000000000000000000000000000000000000000000000000000000380300f6c0a374a483101e04ef5f7ac9bd15d9142bac95000064000001020022ca6d83ab887a535ae1c6011cc36ea9d1255c310001f400000a000000000000000000000000000000000000000000000000000000000000000000000000000018543f5c383da4e5f0ab565350cf965a73cae5d00000000000000000000000000000000000000000000000000000000000000040000000000000000000000000000000000000000000000000000000000000008621f515c100000000000000000000000000000000000000000000000000000000000000000000000000000000000000000000000000000000000000000000000000000000000000000000000000380300f6c0a374a483101e04ef5f7ac9bd15d9142bac950000640000010000b4885bc63399bf5518b994c1d0c153334ee579d0000000000000000000000000000000000000000000000000000000000000000000000000000000000000000018543f5c383da4e5f0ab565350cf965a73cae5d00000000000000000000000000000000000000000000000000000000000000040000000000000000000000000000000000000000000000000000000000000008621f515c100000000000000000000000000000000000000000000000000000000000000000000000000000000000000000000000000000000000000000000000000000000000000000000000000380300b78daa6d74fe0e23e5c95446cfadbadc63205cfc0001f400000a020022ca6d83ab887a535ae1c6011cc36ea9d1255c310001f400000a000000000000000000000000000000000000000000000000000000000000000000000000000018543f5c383da4e5f0ab565350cf965a73cae5d00000000000000000000000000000000000000000000000000000000000000040000000000000000000000000000000000000000000000000000000000000008621f515c100000000000000000000000000000000000000000000000000000000000000000000000000000000000000000000000000000000000000000000000000000000000000000000000000380300b78daa6d74fe0e23e5c95446cfadbadc63205cfc0001f400000a0000b4885bc63399bf5518b994c1d0c153334ee579d0000000000000000000000000000000000000000000000000000000000000000000000000000000000000000018543f5c383da4e5f0ab565350cf965a73cae5d00000000000000000000000000000000000000000000000000000000000000040000000000000000000000000000000000000000000000000000000000000008621f515c10000000000000000000000000000000000000000000000000000000000000000000000000000000000000000000000000000000000000000000000000000000000000000000000000038030022ca6d83ab887a535ae1c6011cc36ea9d1255c310001f400000a0000b4885bc63399bf5518b994c1d0c153334ee579d00000000000000000000000000000000000000000000000000000000000000000000000000000000000000000d85fc95c21ae448221a4aec49743caf65a3bf96e0000000000000000000000000000000000000000000000000000000000000040000000000000000000000000000000000000000000000000000000000000008621f515c1000000000000000000000000000000000000000000000000000000000000000000000000000000000000000000000000000000000000000000000000000000000000000000000000003803000a7021c9843c2fb3b98c02ed7f93354774286109001f400000c80200d95bae63641d822dc591bd4aca7a64e53eac76f90027100000c80000000000000000000000000000000000000000000000000000","maxFeePerGas":"0x1e1941f7","maxPriorityFeePerGas":"0xc3cd0","nonce":"0x760c1","r":"0xd30124ba8644cf0d49c53a5d4bf7be46e0e00671a214fb543e15414e25ceb81a","s":"0x3a16e7165e2086ffff45bd4c3b378ba5342601e7aabe20246c8a030c63fce1e7","to":"0x39688b80e9902e0cd7d1246f789e4dee9b77a1c0","transactionIndex":"0x34","type":"0x2","v":"0x1","value":"0x0","yParity":"0x1"},{"accessList":[],"blockHash":"0x5fa902aa8344c5756ea7541566ef5bac563d384e61a8926fe8844c5b36aa71b3","blockNumber":"0xf3fe05","chainId":"0x2105","from":"0x75bdca1e35c0013f06d86dd6bf468cb8fa395a0c","gas":"0xca8f","gasPrice":"0x56d001","hash":"0x6b31d332d15d35e0cbb5b11c5682eb47b31dd014ad9125e4cf06c7e08434ea74","input":"0x095ea7b3000000000000000000000000000000000022d473030f116ddee9f6b43ac78ba3ffffffffffffffffffffffffffffffffffffffffffffffffffffffffffffffff","maxFeePerGas":"0xee19db","maxPriorityFeePerGas":"0xad573","nonce":"0x7","r":"0xf0b29496a6fdbacf03f640ed40d2e28e72f133c232d56fd54f4f1800ff73c330","s":"0x7b0aeed2abb527733136c6266bf9d444dd9d575ec88e6d44e013730cb5a6be62","to":"0xd9aaec86b65d86f6a7b5b1b0c42ffa531710b6ca","transactionIndex":"0x35","type":"0x2","v":"0x0","value":"0x0","yParity":"0x0"},{"accessList":[],"blockHash":"0x5fa902aa8344c5756ea7541566ef5bac563d384e61a8926fe8844c5b36aa71b3","blockNumber":"0xf3fe05","chainId":"0x2105","from":"0xa626f6dfeaf15a061362fbba4ed82d6441e7a004","gas":"0x167e7","gasPrice":"0x56d001","hash":"0x1784d3c6b346cf81b3c7c4cfddec906c30e3a87445db1512a8f6b4e920dffccb","input":"0x3581f5bb00000000000000000000000067028d958de5e45ed07424c4ae9c0f8037c702e000000000000000000000000000000000000000000005a684a58ad729e1cf4be50000000000000000000000000000000000000000000000000039df5d7bfb72e800000000000000000000000000000000000000000000000000000000000000800000000000000000000000000000000000000000000000000000000000000041537a12bd67cb8d4265e2ddb6a7cf8861a5fb7a51792964dc308211586434e4e447132d504452acf261c5ed68d835f0d45f62c7f90eaa0fe6bc976827cfe62b101b00000000000000000000000000000000000000000000000000000000000000","maxFeePerGas":"0xee19db","maxPriorityFeePerGas":"0xad573","nonce":"0x41c","r":"0xe31182837ac11d7a73beb83f9d2fdbb0c8811d0623659b55ffe673066b74f90b","s":"0x421409a6392dbfdd519854e65e3ca6a425803e5d5fdcf29f4620c489aa62a647","to":"0x3ccc78545f675a188b7521f7f4b4791995752635","transactionIndex":"0x36","type":"0x2","v":"0x1","value":"0x0","yParity":"0x1"},{"accessList":[],"blockHash":"0x5fa902aa8344c5756ea7541566ef5bac563d384e61a8926fe8844c5b36aa71b3","blockNumber":"0xf3fe05","chainId":"0x2105","from":"0xee3fa5ab6a53588909dde506d73b33e78e271350","gas":"0xc0ea","gasPrice":"0x56d001","hash":"0xf192ced9bafc21dc57045c1d40448a2c29340716c55d6a101e42f096293875b9","input":"0x095ea7b30000000000000000000000004f09bab2f0e15e2a078a227fe1537665f55b8360000000000000000000000000000000000000000000000000000000052a00bbe0","maxFeePerGas":"0xee19db","maxPriorityFeePerGas":"0xad573","nonce":"0x98","r":"0xa5893b0f8e6758b8fd2bc92f7f18752f10e6cfd870a36be46600466bac7c5edd","s":"0x1fa07b44fe80d516faf72d54833f376721950b1aa8ee86f690e007d549af93d6","to":"0x6cdcb1c4a4d1c3c6d054b27ac5b77e89eafb971d","transactionIndex":"0x37","type":"0x2","v":"0x0","value":"0x0","yParity":"0x0"},{"accessList":[],"blockHash":"0x5fa902aa8344c5756ea7541566ef5bac563d384e61a8926fe8844c5b36aa71b3","blockNumber":"0xf3fe05","chainId":"0x2105","from":"0x9737e90be024d325e7380851376491201fcdff11","gas":"0x738a","gasPrice":"0x56d001","hash":"0x5ccb5760b06d157b79e10076db8b07431d51ee4ae0136cd6af280e8b4823dfa8","input":"0x095ea7b3000000000000000000000000cf77a3ba9a5ca399b7c97c74d54e5b1beb874e43000000000000000000000000000000000000000000000000024996a9aec5ddbf","maxFeePerGas":"0xee19db","maxPriorityFeePerGas":"0xad573","nonce":"0x39","r":"0xae051c1693318679b87d60a049e9489c9c42b37e269f614986c2ec2b4999b2a0","s":"0x3aeb4f4bd98ccdce07e25c8c26d7e2440d6bfe3f78d84bc4ce5f0531c19b33b","to":"0x940181a94a35a4569e4529a3cdfb74e38fd98631","transactionIndex":"0x38","type":"0x2","v":"0x1","value":"0x0","yParity":"0x1"},{"accessList":[],"blockHash":"0x5fa902aa8344c5756ea7541566ef5bac563d384e61a8926fe8844c5b36aa71b3","blockNumber":"0xf3fe05","chainId":"0x2105","from":"0x129c931bdfac5c55b279b9cdbf09b7259b3eeff9","gas":"0x3f61b","gasPrice":"0x56d001","hash":"0x90509500cdf9d473abe8d03ca8981bc5c00cec3b66ef612cd98670dd096a59db","input":"0xdcbb8e41000000000000000000000000000000000000000000000000000000000000a4ec000000000000000000000000129c931bdfac5c55b279b9cdbf09b7259b3eeff90000000000000000000000000000000000000000000000000000000000a7e094","maxFeePerGas":"0xed1c5e","maxPriorityFeePerGas":"0xad573","nonce":"0xe","r":"0x8f4b566ec6b45e15c5e15774dff231f89efc86e22d52aebbf06ad603dc51e992","s":"0x77491dc1b673ea8ba8ac524a63d3bf03a757daa11e48906a679eb7f3e289e52a","to":"0xc24b421b5608157ddc9a8dc8c6024cb852931f33","transactionIndex":"0x39","type":"0x2","v":"0x1","value":"0x96e48177ddb9","yParity":"0x1"},{"accessList":[],"blockHash":"0x5fa902aa8344c5756ea7541566ef5bac563d384e61a8926fe8844c5b36aa71b3","blockNumber":"0xf3fe05","chainId":"0x2105","from":"0xd39d00cb8436d472b1adbdae66a9703b7df438d1","gas":"0x4a62f8","gasPrice":"0x511ba1","hash":"0xc13b376dd97d8da80ddceec48604523e57e9235a866b34ac25e6ae6ffc5f82e0","input":"0x098b833589fcd6edb6e08f4c7c32d4f71b54bda029132710012562cdac0d6c6c59727a65f871236188350531885c4326f2b4cb800910b228ed3d0834cf79d697127bbb00e5270f098b0578d8a44db98b23bf096a382e016e29a5ce0ffe271000250387cadde19468283af8d610474ecbd19ed285f69826f2cc28456d4ff980cee3457ca809a257e52cd9cdb026ac098b0c41f1fc9022feb69af6dc666abfe73c9ffda7ce271000250339a72b1292aaed73b9b5633e14f88fe9a89f400b26f2780229080256c9c5af1630a3c165d5725131e61026ac098b1791b55e734df69b4906a4178a83dbe63c4f84212710002503dcea286d38f5ff4953f30522cf90605fa831156726f2321b27aaa004ca9ecb6a7c06d79e5e0eaf1a152826ac05995de1175ddc02e47d44831b54a1badf833e44809a2710012546124d65ccfa1a0c0ca9d591140067dd6e8a08425f26f2e6ac90ec95bf7c310d179d1fd995cec7f0dacd0426f2098bac1bd2486aaf3b5c0fc3fd868558b082a531b2b4271001254bcefb04d884c9414140286b01754126b61df6b24726f75aa4ad647580bfe86258d300bc9852f4434e2c6126f2098b3b1228c3ede7e0898d57054cd9b8f812d24315c127100025035811b4c18ea9a7a9f08821c37c60710059c7232126f25273ae3127b3c05685b3133cf587aa6655f2c2f526ac098bbc45647ea894030a4e9801ec03479739fa2485f0271001250316905890a1d02b6f824387419319bf4188b961b026f25fd708486fb7f598c82d96b0377cbae11a433ed426ac098b340c070260520ae477b88caa085a33531897145b27100025035063d14add4f65320db953d76f9b058707c7d51a26f27ff70016a1de228a6b038405c0414d796167729f26ac098b21eceaf3bf88ef0797e3927d855ca5bb569a47fc2710002508a79e45668972e13cdb6c9ed1debfc5b0d04cb0bd26f7b14e941d34d61ae251ccc08ac15b8455ae9f60a526ac098b7480527815ccae421400da01e052b120cc4255e92710012503228d69c0bcde48eeb61e3ea734570ca9b4df687d26f2dcdc74044a0ee999b84654cc0c9410bb54489a1726ac098b72499bddb67f4ca150e1f522ca82c87bc9fb18c82710012503176567c44342edda7aae629f7cecab246f22f69a26f20c4fb0609256fa36a0e7a74844762772067fe4e926ac098b833589fcd6edb6e08f4c7c32d4f71b54bda0291327100126ed88a43bbdf9d098eec7bceda4e2494615dfd9bb9c26f2d0b53d9277642d899df5c87a3966a349a798f224270b098b4ed4e862860bed51a9570b96d89af5e1b0efefed27100126d42c4909355b0c036840819484c3a882a95659abf326f2c9034c3e7f58003e6ae0c8438e7c8f4598d5acaa26f2098b2e1d332893dc16124194e598a29866d2d5e8786b2710002503d33805985642fa9338e1fa150ca811406f96f0de26f2710bb26a5ff62a1920daa52a97ee3641bb66ba5926acffff","maxFeePerGas":"0x9d162f","maxPriorityFeePerGas":"0x52113","nonce":"0x348848","r":"0x55592260b34a95d0a9dd7c9e196b093a77b6e010f3395724d21a1d310df1bd5d","s":"0x40edab4877be7954f4587e1edf50f436142b40a257efaaf176909f3f527ab3a9","to":"0x36db5034032fd240a1b3cde369772049c8dcfb91","transactionIndex":"0x3a","type":"0x2","v":"0x0","value":"0x0","yParity":"0x0"},{"accessList":[],"blockHash":"0x5fa902aa8344c5756ea7541566ef5bac563d384e61a8926fe8844c5b36aa71b3","blockNumber":"0xf3fe05","chainId":"0x2105","from":"0x217efb82073abe4c3838a0312271cadb11228649","gas":"0xf4d9","gasPrice":"0x4fa808","hash":"0x756aac730ae0d0eea82b3f3c862316325f6e6b1e8e7594c3544f31a1a7c6e983","input":"0xa4333d9100000000000000000000000000000000000000000000000000000000000095de3c6c220041bcbd2ca7e2adb739e92bc5b5bac829a2a02e1ea3f45ae723642dcd","maxFeePerGas":"0x4fa808","maxPriorityFeePerGas":"0xf4240","nonce":"0x3dd7","r":"0xcdc7e1d3b5ddc98536ad62c40ac661d6a10a27f3a6b0690f9eb7c4b32f83556f","s":"0x1d2b3c0f0af0f0ba180e674373a3079f5123a9fb087c9fb1553a070270b133e7","to":"0x0e22b5f3e11944578b37ed04f5312dfc246f443c","transactionIndex":"0x3b","type":"0x2","v":"0x0","value":"0x0","yParity":"0x0"},{"accessList":[],"blockHash":"0x5fa902aa8344c5756ea7541566ef5bac563d384e61a8926fe8844c5b36aa71b3","blockNumber":"0xf3fe05","chainId":"0x2105","from":"0xe873c70540001737a978a6ebc9a593df5129a6a8","gas":"0x2dc6c0","gasPrice":"0x4f80a7","hash":"0x649d26446c8fa08e474a3de3b91b90dcd4f277f3def2ebe017236752f8c7c72f","input":"0x0000000b000000000000000000000000000000000000000000000000000000000000002000000000000000000000000000000000000000000000000000000000000002764ed4e862860bed51a9570b96d89af5e1b0efefed00c9034c3e7f58003e6ae0c8438e7c8f4598d5acaa0376431a0c757cf5450c3fed304d9bb6bb2a601bac0a532f27101965dd16442e59d40670faf5ebb142e4004e829f8a5213c42535ab84aa40bd4adcce9cba020b76bf0abd20f1e0155ce40a62615a90a709a6c3d8035939f76146b071f0c82a647b22a5d75a076626160080e4e78a810be03124e627a4f8df82901203ed1801901822d65bc455f33d677fe31f10f4c3c213e7970347b464edb8dc9bc67b5cd4c9310bb87b773845bd0098433581b5420bc67fc5fd2b5f9dd3e7ca43140b016d6c60303d09886c30e789bed4bd36e86ee342b603698dc45e4f10966f6d1d98e3bfd7071d8144c2330076fc8dbf2022ee75612cb74ec80caf6b3ccffb2301075e82a2557d30fba2f8226f2f110145000ccbea03768be13e1680b5ebe0024c42c896e3db59ec0149006d6391b9bd02eefa00fa711fb1cb828a6471d283010ea13439f0818bd0598c002d9337374a78d5fe47039a26f5433671751c3276a065f57e5a02d281797300377feeed4820b3b28d1ab429509e7a0789824fca01d82403772cb858219cfb58bfab46ba7a3107347403bc45647ea894030a4e9801ec03479739fa2485f000ebec4772aba30d82bc64bbb99187b4ca29928e2e0b16905890a1d02b6f824387419319bf4188b961b001340c070260520ae477b88caa085a33531897145b005063d14add4f65320db953d76f9b058707c7d51a017ff70016a1de228a6b038405c0414d796167729f037480527815ccae421400da01e052b120cc4255e900228d69c0bcde48eeb61e3ea734570ca9b4df687d01dcdc74044a0ee999b84654cc0c9410bb54489a170300000000000000000000","maxFeePerGas":"0x9a31e1","maxPriorityFeePerGas":"0x38619","nonce":"0x189ea1","r":"0x6be89dccf2fc6301218a16f30c82d04da573cfa6655ec6258b71cb5510b096a3","s":"0xc8c1174b6d50c5077ec939c0cbf0944ff50a989050a2a457e91c70a29c24b03","to":"0xce4cf0d5da97b7f4de1ba76609f2a1330411e7c0","transactionIndex":"0x3c","type":"0x2","v":"0x1","value":"0x0","yParity":"0x1"},{"blockHash":"0x5fa902aa8344c5756ea7541566ef5bac563d384e61a8926fe8844c5b36aa71b3","blockNumber":"0xf3fe05","chainId":"0x2105","from":"0x84032c3a46e6d14eb7249f6ec90e28a5a3948c4b","gas":"0x3567e0","gasPrice":"0x4d78e2","hash":"0xe331e92d28d773cecc5d9af41aa5ed981fd6995e9eb482b1ca5ea9f8232de0fe","input":"0x010001b16d2257643fdbb32d12b9d73fab784eb4f1bee40202000000000000000000000000000000000000000000000000059a93a4ae8c8a3d000000000000000000000000000000000000000000000000000000000055e512db0100057c327d692b72f60b28aecedbcc1ba784712fe7b2020200000000000000000000000000000000000000000000000006e3874aab3a39a20000000000000000000000000000000000000000000000276e16514d0b3e3a25d5010007c2dced7ce908652d3b55d55555dce96b6cdcb191020200000000000000000000000000000000000000000050461e4e9e260e969582dd00000000000000000000000000000000000000000000000000224032d730cef18b0100097f670f78b17dec44d5ef68a48740b6f8849cc2e6150200000000000000000000000000000000000000000003bbbb0bc60d1d66393d6a01000000000000000000000000000000000000000000000036349bbd682996802e00000ce902ef54e437967c8b37d30e80ff887955c90db6020200000000000000000000000000000000000000000000000000000000fcd64a4101000000000000000000000000000000000000000000000000107c9a07ba78882f00000ef65bb528ced09008603509c3fda43e1ccfddf9350202000000000000000000000000000000000000000007d602503bc1880ec5c5433f000000000000000000000000000000000000000000000000052c18943adc1fd1050100103f413fccaea59b8053d605aea7ae847c02ed5d9502020000000000000000000000000000000000000000000d0b953dcbac4c7c66f315010000000000000000000000000000000000000000000000053c6a426df53d4ebb0000136d33206adb1462992c642ba5dd4f4e16beb4d047030200000000000000000000000000000000000009110dd2552f077522bec7de5e3200000000000000000000000000000000000000091f0b116dc492213018f56be04f010014bc7f4ccdb99abea6f2bd188f2eab0eabdc1be361020200000000000000000000000000000000000000000059cc01f0839e3487c564500100000000000000000000000000000000000000000000000045798689b64f49cf00001688a43bbdf9d098eec7bceda4e2494615dfd9bb9c020200000000000000000000000000000000000000000000001a8631fc6649cc0f63000000000000000000000000000000000000000000000000000000019678efdb880100183f66eb6fb8a60bc51d531a0e3adb7e1f620fa4490302000000000000000000000000000000000000000005e30e969c7801264a857ebb01000000000000000000000000000000000000000005da07389704e434dcd50ca000001ac5c5f65927a4011864fcb261d7499267e101118f03020000000000000000000000000000000000000000000109d6e76c8c043cc3be930100000000000000000000000000000000000000000001048c9c85651540fb87ba00001bda679706ff21114ac9fac5198bff24543f357a160302000000000000000000000000000000000000001a854ae5e506bd954f6ccdf6b8010000000000000000000000000000000000000019bba4cf89bff9ec518b73394900001e7d88f6973aeb9580ccaf2e3ce20bbf904224b936150200000000000000000000000000000000000000000000a0bea991405f2d7128410100000000000000000000000000000000000000000000000013495ae5650be6d40000211d3d7e2d236b546247c5717d18f581c28f34792d030200000000000000000000000000000000000000000000022007388287987573f101000000000000000000000000000000000000000000000214b0a235297335a607000023fe83058f06869da5d70a1355dca64c873480ab1d0202000000000000000000000000000000000000005598e4d0e68ecbae6678c2ce7e01000000000000000000000000000000000000000000000001f2c5692c94dde13b000025ff5375bd65056dbe6119256fc3be2eb0ffa8a84002020000000000000000000000000000000000000000000d8ebd794139282d7c3e730000000000000000000000000000000000000000000000000520d8d64276fc73d2010027d81f73cf309e4671bcd30df9a5a8a4d4977c8cdb0202000000000000000000000000000000000000000000000a5d6bca0bea78913a940100000000000000000000000000000000000000000000000055f53a21ecb8cf180000292f8818d1b0f3e3e295440c1c0cddf40aaa21fa87020200000000000000000000000000000000000000000000000000000001116616ff0100000000000000000000000000000000000000000000000011d4fc2e0a26232900002b263ea0a3cf3845fc52a30c6e81dbd985b7290fbf0302000000000000000000000000000000000000000000023797da06634d857f31320100000000000000000000000000000000000000000002251537a8921370c3ce97000000b2cc224c1c9fee385f8ad6a55b4d94e92359dc59210200000000000000000000000000000000000000000003e9b3ea2fd96f7eacba6e0000000000000000000000000000000000000000000003ec6c3f91a02a10041c7a01002fab067c01c7f5734da168c699ae9d23a4512c9fdb0202000000000000000000000000000000000000000000000000d4713d925f127006000000000000000000000000000000000000000000000000000000000cb8ae449f01003158342c302dd4df0531f60dd3c0eabb0c95ac08cb030200000000000000000000000000000000000041efd8858ec32f5c5929883cc65000000000000000000000000000000000000000424d120439b0c5091df9498d5675010033d291022402c42b3252cb93aa003d7a7c6f9cec4f02020000000000000000000000000000000000000000000000001cdf3b2cdb4d015d01000000000000000000000000000000000000000000026260be38c43f6fe14fdb000035b34380ba6a17b022782c7fc91e319c10c168fb98020200000000000000000000000000000000000000000000000024da2f5f5778b8ed00000000000000000000000000000000000000000000000dc76bbb7bc685b3d65d010037300f27416574d6a5fc071c5894eb91876ff6be9c0202000000000000000000000000000000000000000000004bd110ec1fefcaf47a9b0100000000000000000000000000000000000000000000000005c2bc8db7dddeac000039f2de7d73e8e56822afdf19fd08d999c78abd933b03020000000000000000000000000000000000000000181cb4188b0c3f520104b1b3010000000000000000000000000000000000000000177d9f3803a74c86f69b886000003c8eb9437532fac8d6a7870f3f887b7978d20355fc03020000000000000000000000000000000000008f092c336b12ba215b40d8176df9010000000000000000000000000000000000008d2e3f785a46991d11e74f83e17500003e16905890a1d02b6f824387419319bf4188b961b002020000000000000000000000000000000000000000000a51a7781e39c3ad5542330100000000000000000000000000000000000000000000000bcdd946c025d38a7c0000405b83bdbfa201d8f2437cadb64793cc852a5d97a702020000000000000000000000000000000000000000000000001a738d0c266bb6d80000000000000000000000000000000000000000000000004683e610c5bef69ab6010041152375ed731bd67717fe3a12f62a9a2a27f464000202000000000000000000000000000000000000000000007fdcb4147f0405fe7357010000000000000000000000000000000000000000000000001654785ba95ffb22000042ab57cacea9cd5cc1fb21d026ecde71e0d4f33861030200000000000000000000000000000000000000000178defc271ad67db0b5fa9a0100000000000000000000000000000000000000000171562fbe986ce8ad267c18000045a6385c73961dd9c58db2ef0c4eb98ce4b60651e8150200000000000000000000000000000000000000000000003640ec1b9611b57aab0000000000000000000000000000000000000000000000002e69154985616438c80100474704f9cf735b58ea442e387acca6717311597322150200000000000000000000000000000000000000000000185f7db5705e17c1566400000000000000000000000000000000000000000000000060afe83ec6d6a5467f010048b4cb800910b228ed3d0834cf79d697127bbb00e5030200000000000000000000000000000000000000000003e9da6487075603ea10e40000000000000000000000000000000000000000000003ea7458baa24bcbe5d6b401004a4cc2fefb2635c86b1bae1b58e0f60fb43e95e264150200000000000000000000000000000000000000000000000000000024a3b9c493010000000000000000000000000000000000000000000bd10ffeaf8c8a14b3c60e00004bbb261929f33b69c201c8855bafdc341e1f0dda2302020000000000000000000000000000000000000000002d32f99836d30b9644425000000000000000000000000000000000000000000000000001c472d6bf7aff8f9c01","nonce":"0x1a1de","r":"0x584dfcd8146ab81c251d0ed8eb618c9fb181ff7120c65ee0a0c49156b918022a","s":"0x18ec882411f520f977b868a0c81851979f73b7ced1b0becb3d6a1f11aad47242","to":"0xd32aea507fac657b60773723c5933dc39225a46c","transactionIndex":"0x3d","type":"0x0","v":"0x422e","value":"0x0"}],"transactionsRoot":"0xa24c0676ba06a7b81681d07d6cb4bdb80093e589b449284b40c1a13ac058ca00","uncles":[],"withdrawals":[],"withdrawalsRoot":"0x56e81f171bcc55a6ff8345e692c0f86e5b48e01b996cadc001622fb5e363b421"},"id":
        0}

        '
    headers:
      CF-RAY:
      - 9d7a8f0accf3299d-AMS
      Cache-Control:
      - max-age=0, private, must-revalidate
      Connection:
      - keep-alive
      Content-Type:
      - application/json; charset=utf-8
      Date:
      - Thu, 05 Mar 2026 16:39:47 GMT
      Nel:
      - '{"report_to":"cf-nel","success_fraction":0.0,"max_age":604800}'
      Report-To:
      - '{"group":"cf-nel","max_age":604800,"endpoints":[{"url":"https://a.nel.cloudflare.com/report/v4?s=b65yINiurykPN5QbekbZLwSHewVU5Nm7miQeZBqhbkz2NLWIXKeQ0%2Fz0Lr9Jg5SxCVVT8nKafuxGsU7JtkuTV3zyU7a77pbH5%2FwSzi27jwQ%2FPpFbONaXPfco%2FaxpUQ%3D%3D"}]}'
      Server:
      - cloudflare
      Transfer-Encoding:
      - chunked
      access-control-allow-credentials:
      - 'true'
      access-control-allow-origin:
      - '*'
      access-control-expose-headers:
      - bypass-429-option,x-ratelimit-reset,x-ratelimit-limit,x-ratelimit-remaining,api-v2-temp-token
      alt-svc:
      - h3=":443"; ma=86400
      bypass-429-option:
      - no_bypass
      cf-cache-status:
      - DYNAMIC
      content-length:
      - '167776'
      strict-transport-security:
      - max-age=31536000; includeSubDomains
      x-ratelimit-limit:
      - '600'
      x-ratelimit-remaining:
      - '598'
      x-ratelimit-reset:
      - '12341'
      x-request-id:
      - 5e5f11faf7b68b6e54dfd956873ffe60
    status:
      code: 200
      message: OK
- request:
    body: '{"id": 0, "jsonrpc": "2.0", "method": "eth_getTransactionReceipt", "params":
      ["0x21838ade02a845e3cb03b45971e794eaa0cffbc6056d375f394c2e314832757f"]}'
    headers:
      Accept:
      - '*/*'
      Accept-Encoding:
      - gzip, deflate
      Connection:
      - keep-alive
      Content-Length:
      - '148'
      Content-Type:
      - application/json
      User-Agent:
      - rotki/0.1.dev19339+g87f84bf.d20260226
    method: POST
    uri: https://api.blockscout.com/8453/json-rpc
  response:
    body:
      string: '{"jsonrpc":"2.0","result": {"blockHash":"0x5fa902aa8344c5756ea7541566ef5bac563d384e61a8926fe8844c5b36aa71b3","blockNumber":"0xf3fe05","contractAddress":null,"cumulativeGasUsed":"0x5d6796","effectiveGasPrice":"0x5b0d7b","from":"0x398cef46d335408a3679d900a8711b30593ae0c8","gasUsed":"0xd1ab","logs":[{"address":"0x4200000000000000000000000000000000000006","blockHash":"0x5fa902aa8344c5756ea7541566ef5bac563d384e61a8926fe8844c5b36aa71b3","blockNumber":"0xf3fe05","data":"0x0000000000000000000000000000000000000000000000000a5ee1b4df7ebddb","logIndex":"0x95","removed":false,"topics":["0x7fcf532c15f0a6db0bd6d0e038bea71d30d808c7d98cb3bf7268a95bf5081b65","0x000000000000000000000000e61acb121a2b538df495a85c4e50dd8581de4ed0"],"transactionHash":"0x21838ade02a845e3cb03b45971e794eaa0cffbc6056d375f394c2e314832757f","transactionIndex":"0x31"},{"address":"0xe61acb121a2b538df495a85c4e50dd8581de4ed0","blockHash":"0x5fa902aa8344c5756ea7541566ef5bac563d384e61a8926fe8844c5b36aa71b3","blockNumber":"0xf3fe05","data":"0x0000000000000000000000000000000000000000000000000a5ee1b4df7ebddb","logIndex":"0x96","removed":false,"topics":["0x884edad9ce6fa2440d8a54cc123490eb96d2768479d49ff9c7366125a9424364","0x000000000000000000000000398cef46d335408a3679d900a8711b30593ae0c8"],"transactionHash":"0x21838ade02a845e3cb03b45971e794eaa0cffbc6056d375f394c2e314832757f","transactionIndex":"0x31"}],"logsBloom":"0x00000000200000000000000000000000000000000000000000140000000000000000000000000000000000100000000000000000000000010000000000000000000000000000000000000000000000000000800000400000000000000000000000000000000000000000000040000000000000000000040000800000000004001000000000000000000000000000000000000000002000000000000000000000000000000000000000000000000000000000000000000000000080000000000000000000000000000000000000000000000000000000000002000002000000000002000000000000000000000000000000000000000000040000000000000000","status":"0x1","to":"0xe61acb121a2b538df495a85c4e50dd8581de4ed0","transactionHash":"0x21838ade02a845e3cb03b45971e794eaa0cffbc6056d375f394c2e314832757f","transactionIndex":"0x31","type":"0x2"},"id":
        0}

        '
    headers:
      CF-RAY:
      - 9d7a8f0c8d570b70-AMS
      Cache-Control:
      - max-age=0, private, must-revalidate
      Connection:
      - keep-alive
      Content-Type:
      - application/json; charset=utf-8
      Date:
      - Thu, 05 Mar 2026 16:39:48 GMT
      Nel:
      - '{"report_to":"cf-nel","success_fraction":0.0,"max_age":604800}'
      Report-To:
      - '{"group":"cf-nel","max_age":604800,"endpoints":[{"url":"https://a.nel.cloudflare.com/report/v4?s=6zrH3bw0l11JtKv5COOzQ%2BS4vmDMM75p22z4IdbgZ6bhz0KIYZO8XF208kQer4K2xAc1Kwqpq42ZKSeQM9I%2B9mgSsmPn4LP7C3WkHP7Ln1nTqLcjOKeqsAV0ueubRw%3D%3D"}]}'
      Server:
      - cloudflare
      Transfer-Encoding:
      - chunked
      access-control-allow-credentials:
      - 'true'
      access-control-allow-origin:
      - '*'
      access-control-expose-headers:
      - bypass-429-option,x-ratelimit-reset,x-ratelimit-limit,x-ratelimit-remaining,api-v2-temp-token
      alt-svc:
      - h3=":443"; ma=86400
      bypass-429-option:
      - no_bypass
      cf-cache-status:
      - DYNAMIC
      content-length:
      - '2099'
      strict-transport-security:
      - max-age=31536000; includeSubDomains
      x-ratelimit-limit:
      - '600'
      x-ratelimit-remaining:
      - '597'
      x-ratelimit-reset:
      - '12026'
      x-request-id:
      - 17e0c7eec4d49e4546765f7c74aa12b4
    status:
      code: 200
      message: OK
- request:
    body: null
    headers:
      Accept:
      - '*/*'
      Accept-Encoding:
      - gzip, deflate
      Connection:
      - keep-alive
      User-Agent:
      - rotki/0.1.dev19339+g87f84bf.d20260226
    method: GET
    uri: https://api.blockscout.com/8453/api/v2/transactions/0x21838ade02a845e3cb03b45971e794eaa0cffbc6056d375f394c2e314832757f
  response:
    body:
      string: '{"l1_gas_used":"1796","priority_fee":"53024727375","raw_input":"0x3ccfd60b","is_pending_update":false,"op_withdrawals":[],"result":"success","hash":"0x21838ade02a845e3cb03b45971e794eaa0cffbc6056d375f394c2e314832757f","max_fee_per_gas":"5967227","revert_reason":null,"confirmation_duration":[0,2.0e3],"transaction_burnt_fee":"267266181850","type":2,"token_transfers_overflow":false,"confirmations":26972446,"position":49,"max_priority_fee_per_gas":"5967227","transaction_tag":null,"created_contract":null,"value":"0","l1_fee_scalar":"0","from":{"ens_domain_name":null,"hash":"0x398CEf46D335408a3679D900A8711b30593ae0C8","implementations":[],"is_contract":false,"is_scam":false,"is_verified":false,"metadata":null,"name":null,"private_tags":[],"proxy_type":null,"public_tags":[],"reputation":"ok","watchlist_names":[]},"gas_used":"53675","status":"ok","to":{"ens_domain_name":null,"hash":"0xe61Acb121a2B538dF495A85C4E50dD8581de4ed0","implementations":[],"is_contract":true,"is_scam":false,"is_verified":true,"metadata":null,"name":"WooWithdrawManagerV2","private_tags":[],"proxy_type":null,"public_tags":[],"reputation":"ok","watchlist_names":[]},"authorization_list":[],"l1_fee":"8712040946","method":"withdraw","fee":{"type":"actual","value":"329002950171"},"actions":[],"gas_limit":"63902","gas_price":"5967227","decoded_input":{"method_call":"withdraw()","method_id":"3ccfd60b","parameters":[]},"l1_gas_price":"4405814957","token_transfers":[{"block_hash":"0x5fa902aa8344c5756ea7541566ef5bac563d384e61a8926fe8844c5b36aa71b3","block_number":15990277,"from":{"ens_domain_name":null,"hash":"0xe61Acb121a2B538dF495A85C4E50dD8581de4ed0","implementations":[],"is_contract":true,"is_scam":false,"is_verified":true,"metadata":null,"name":"WooWithdrawManagerV2","private_tags":[],"proxy_type":null,"public_tags":[],"reputation":"ok","watchlist_names":[]},"log_index":149,"method":null,"timestamp":null,"to":{"ens_domain_name":null,"hash":"0x0000000000000000000000000000000000000000","implementations":[],"is_contract":false,"is_scam":false,"is_verified":false,"metadata":{"tags":[{"meta":{},"name":"Null:
        0x000...000","ordinal":10,"slug":"null-0x000000","tagType":"name"},{"meta":{},"name":"Metamask
        User","ordinal":0,"slug":"metamask-user","tagType":"generic"},{"meta":{},"name":"Imtoken
        User","ordinal":0,"slug":"imtoken-user","tagType":"generic"},{"meta":{},"name":"Miner","ordinal":0,"slug":"miner","tagType":"generic"},{"meta":{},"name":"Burn","ordinal":0,"slug":"burn","tagType":"generic"},{"meta":{"tagIcon
        ":"https://blockscout-icons.s3.us-east-1.amazonaws.com/OLI_tag_logo.svg","textColor":"#C163D4","tooltipAttribution":"https://www.openlabelsinitiative.org?utm_source=blockscout","tooltipAttributionIcon":"https://blockscout-icons.s3.us-east-1.amazonaws.com/OLI_tag_logo.svg","tooltipDescription":"Provided
        by OLI"},"name":"Burn","ordinal":0,"slug":"burn","tagType":"name"},{"meta":{"alertStatus":"info","data":"This
        address is commonly used by projects to burn tokens (reducing total supply)
        or mint tokens (increasing total supply)."},"name":"note_0","ordinal":0,"slug":"note0","tagType":"note"},{"meta":{},"name":"Null","ordinal":0,"slug":"null","tagType":"protocol"}]},"name":null,"private_tags":[],"proxy_type":null,"public_tags":[],"reputation":"ok","watchlist_names":[]},"token":{"address_hash":"0x4200000000000000000000000000000000000006","circulating_market_cap":"521450488.75934297","decimals":"18","exchange_rate":"2073.65","holders_count":"4538544","icon_url":"https://assets.coingecko.com/coins/images/39810/small/weth.png?1724139790","name":"L2
        Standard Bridged WETH (Base)","reputation":"ok","symbol":"WETH","total_supply":"246200541761908591501714","type":"ERC-20","volume_24h":"639331053.6930901"},"token_type":"ERC-20","total":{"decimals":"18","value":"747282755150069211"},"transaction_hash":"0x21838ade02a845e3cb03b45971e794eaa0cffbc6056d375f394c2e314832757f","type":"token_burning"}],"base_fee_per_gas":"4979342","timestamp":"2024-06-19T04:05:01.000000Z","nonce":36,"historic_exchange_rate":"3474.74","transaction_types":["contract_call","token_transfer"],"exchange_rate":"2074.08","block_number":15990277,"has_error_in_internal_transactions":false}'
    headers:
      CF-RAY:
      - 9d7a8f0deef99701-AMS
      Cache-Control:
      - max-age=0, private, must-revalidate
      Connection:
      - keep-alive
      Content-Type:
      - application/json; charset=utf-8
      Date:
      - Thu, 05 Mar 2026 16:39:49 GMT
      Nel:
      - '{"report_to":"cf-nel","success_fraction":0.0,"max_age":604800}'
      Report-To:
      - '{"group":"cf-nel","max_age":604800,"endpoints":[{"url":"https://a.nel.cloudflare.com/report/v4?s=9ryABjXqR8Gc0NIc7ZGvwjBf%2F7piZkx1RYL8gfNcQFnT9c0reEOWAoY4WaV24ZbnAIkutFEU74%2Bv3dxzis%2FoEh6puJ%2F3PpDrLjz3Be4BMzkNGMiAtRYxdxa3fw%2FdDA%3D%3D"}]}'
      Server:
      - cloudflare
      Transfer-Encoding:
      - chunked
      access-control-allow-credentials:
      - 'true'
      access-control-allow-origin:
      - '*'
      access-control-expose-headers:
      - bypass-429-option,x-ratelimit-reset,x-ratelimit-limit,x-ratelimit-remaining,api-v2-temp-token
      alt-svc:
      - h3=":443"; ma=86400
      bypass-429-option:
      - temporary_token
      cf-cache-status:
      - DYNAMIC
      content-length:
      - '4174'
      strict-transport-security:
      - max-age=31536000; includeSubDomains
      x-ratelimit-limit:
      - '600'
      x-ratelimit-remaining:
      - '596'
      x-ratelimit-reset:
      - '11834'
      x-request-id:
      - 896ba3fd0e4046d4934c05fa6322c3a7
    status:
      code: 200
      message: OK
- request:
    body: null
    headers:
      Accept:
      - '*/*'
      Accept-Encoding:
      - gzip, deflate
      Connection:
      - keep-alive
      User-Agent:
      - rotki/0.1.dev19339+g87f84bf.d20260226
    method: GET
    uri: https://api.blockscout.com/8453/api?action=txlistinternal&module=account&sort=asc&txhash=0x21838ade02a845e3cb03b45971e794eaa0cffbc6056d375f394c2e314832757f
  response:
    body:
      string: '{"message":"OK","result":[{"blockNumber":"15990277","callType":"call","contractAddress":"","errCode":"","from":"0x4200000000000000000000000000000000000006","gas":"2300","gasUsed":"55","index":"2","input":"0x","isError":"0","timeStamp":"1718769901","to":"0xe61acb121a2b538df495a85c4e50dd8581de4ed0","transactionHash":"0x21838ade02a845e3cb03b45971e794eaa0cffbc6056d375f394c2e314832757f","type":"call","value":"747282755150069211"},{"blockNumber":"15990277","callType":"call","contractAddress":"","errCode":"","from":"0xe61acb121a2b538df495a85c4e50dd8581de4ed0","gas":"4256","gasUsed":"0","index":"3","input":"0x","isError":"0","timeStamp":"1718769901","to":"0x398cef46d335408a3679d900a8711b30593ae0c8","transactionHash":"0x21838ade02a845e3cb03b45971e794eaa0cffbc6056d375f394c2e314832757f","type":"call","value":"747282755150069211"}],"status":"1"}'
    headers:
      CF-RAY:
      - 9d7a8f16fe183c32-AMS
      Cache-Control:
      - max-age=0, private, must-revalidate
      Connection:
      - keep-alive
      Content-Type:
      - application/json; charset=utf-8
      Date:
      - Thu, 05 Mar 2026 16:39:50 GMT
      Nel:
      - '{"report_to":"cf-nel","success_fraction":0.0,"max_age":604800}'
      Report-To:
      - '{"group":"cf-nel","max_age":604800,"endpoints":[{"url":"https://a.nel.cloudflare.com/report/v4?s=UySYnn0RNWxM1RVvPO%2B3WpVsDhmgor9OLps9%2F0snm8ql8J1gNG4FYkpiFwMKaT0udcMfiU%2FCnt03Z7HmPUKcUUipkBZAmNokV9bMxLJqmWewyiCWCyYTFFxFtlRRXg%3D%3D"}]}'
      Server:
      - cloudflare
      Transfer-Encoding:
      - chunked
      access-control-allow-credentials:
      - 'true'
      access-control-allow-origin:
      - '*'
      access-control-expose-headers:
      - bypass-429-option,x-ratelimit-reset,x-ratelimit-limit,x-ratelimit-remaining,api-v2-temp-token
      alt-svc:
      - h3=":443"; ma=86400
      bypass-429-option:
      - no_bypass
      cf-cache-status:
      - DYNAMIC
      content-length:
      - '845'
      strict-transport-security:
      - max-age=31536000; includeSubDomains
      x-ratelimit-limit:
      - '600'
      x-ratelimit-remaining:
      - '595'
      x-ratelimit-reset:
      - '10398'
      x-request-id:
      - 28fa26d16833fe5b40cfcdf5736513d3
    status:
      code: 200
      message: OK
version: 1
