interactions:
- request:
    body: '{"id": 0, "jsonrpc": "2.0", "method": "eth_getTransactionByHash", "params":
      ["0x05b30df1b010f6d8e800dc4389c1210f56fc63a510d8a8021ba6674874500c03"]}'
    headers:
      Accept:
      - '*/*'
      Accept-Encoding:
      - gzip, deflate
      Connection:
      - keep-alive
      Content-Length:
      - '147'
      Content-Type:
      - application/json
      User-Agent:
      - rotki/1.41.2.dev927+ge84fe3f5bf.d20260221
    method: POST
    uri: https://explorer.optimism.io/api/eth-rpc
  response:
    body:
      string: '{"jsonrpc":"2.0","result": {"accessList":[],"blockHash":"0x3f98e892beecefb0ec72486dfa7c0ab582fa8a8d4e2926d60ee20997c3f1d644","blockNumber":"0x6f6a20c","chainId":"0xa","from":"0x36bde71c97b33cc4729cf772ae268934f7ab70b2","gas":"0x77d2e","gasPrice":"0x0","hash":"0x05b30df1b010f6d8e800dc4389c1210f56fc63a510d8a8021ba6674874500c03","input":"0xd764ad0b0001000000000000000000000000000000000000000000000000000000017c4400000000000000000000000099c9fc46f92e8a1c0dec1b1747d010903e884be10000000000000000000000004200000000000000000000000000000000000010000000000000000000000000000000000000000000000000002386f26fc100000000000000000000000000000000000000000000000000000000000000030d4000000000000000000000000000000000000000000000000000000000000000c000000000000000000000000000000000000000000000000000000000000000a41635f5fd000000000000000000000000654a855e48f6943966788b81dc739117c5bff6a1000000000000000000000000654a855e48f6943966788b81dc739117c5bff6a1000000000000000000000000000000000000000000000000002386f26fc100000000000000000000000000000000000000000000000000000000000000000080000000000000000000000000000000000000000000000000000000000000000000000000000000000000000000000000000000000000000000000000","nonce":"0x6ed50","r":"0x0","s":"0x0","to":"0x4200000000000000000000000000000000000007","transactionIndex":"0x1","type":"0x7e","v":"0x0","value":"0x2386f26fc10000","yParity":"0x0"},"id":
        0}

        '
    headers:
      CF-RAY:
      - 9d51a9f22846ea4b-AMS
      Cache-Control:
      - max-age=0, private, must-revalidate
      Connection:
      - keep-alive
      Content-Type:
      - application/json; charset=utf-8
      Date:
      - Sat, 28 Feb 2026 17:32:53 GMT
      Nel:
      - '{"report_to":"cf-nel","success_fraction":0.0,"max_age":604800}'
      Report-To:
      - '{"group":"cf-nel","max_age":604800,"endpoints":[{"url":"https://a.nel.cloudflare.com/report/v4?s=PgoMZ1Iccj74n17c8Kq4JpOBpIQQvLqH7dbk7tMrpS2AXxYtS1x7qktUBToCr5jxpWkecMMqd2Pi3rD2Tkr684bGASHlzW1OXxd1aXVlRxdr%2BTEoO50ATFhw4%2FF5TcQE"}]}'
      Server:
      - cloudflare
      Transfer-Encoding:
      - chunked
      access-control-allow-credentials:
      - 'true'
      access-control-allow-origin:
      - '*'
      access-control-expose-headers:
      - bypass-429-option,x-ratelimit-reset,x-ratelimit-limit,x-ratelimit-remaining,api-v2-temp-token
      alt-svc:
      - h3=":443"; ma=86400
      bypass-429-option:
      - no_bypass
      cf-cache-status:
      - DYNAMIC
      content-length:
      - '1371'
      strict-transport-security:
      - max-age=31536000; includeSubDomains
      x-ratelimit-limit:
      - '600'
      x-ratelimit-remaining:
      - '599'
      x-ratelimit-reset:
      - '6521'
      x-request-id:
      - 712d5f45efa1a748e218c850def6c39f
    status:
      code: 200
      message: OK
- request:
    body: '{"id": 0, "jsonrpc": "2.0", "method": "eth_getBlockByNumber", "params":
      ["0x6f6a20c", true]}'
    headers:
      Accept:
      - '*/*'
      Accept-Encoding:
      - gzip, deflate
      Connection:
      - keep-alive
      Content-Length:
      - '92'
      Content-Type:
      - application/json
      User-Agent:
      - rotki/1.41.2.dev927+ge84fe3f5bf.d20260221
    method: POST
    uri: https://explorer.optimism.io/api/eth-rpc
  response:
    body:
      string: '{"jsonrpc":"2.0","result": {"baseFeePerGas":"0x5e29f2","difficulty":"0x0","extraData":"0x","gasLimit":"0x1c9c380","gasUsed":"0x17b2ac1","hash":"0x3f98e892beecefb0ec72486dfa7c0ab582fa8a8d4e2926d60ee20997c3f1d644","logsBloom":"0x4008dd22702e88490c9081d42d3d120448584510061c90341d860c0256b70819cf036e0d60bea1a1a8020c1cc5aaa7018862a968b168a1a02c2e764a97630a6931411c60790420a81155a70aac02240226f902c60425650cd44e03844302010942a2550de23584441001ba9cee566964c583589e3250031319a56dda484fda490222d031822c5831546d0e8c3fd18128e5f738cccab910606bb80ec90a0a812c02c8425a090c554d9c806204e388bc74100973330a0880102e87ac798015843163c36db64a040d4930159d2f808036ba234c4a30b4c5074c19740b5a4855a119f073003bb045e020c842a03517b26d0804198140d88de1910882d898591d2260","miner":"0x4200000000000000000000000000000000000011","mixHash":"0x1a55280706f1779d51969744bc0fe9ebe283270bf680d318055a0f8516404f0e","nonce":"0x0000000000000000","number":"0x6f6a20c","parentHash":"0x8c158ecfc569604f12d50eacef4d85e45c2cbd7469390bf5328894d374a83e64","receiptsRoot":"0x96e414d76911daf6aecf6957251da5d359b7eb50a314fa8b6f59741f8ae06af7","sha3Uncles":"0x1dcc4de8dec75d7aab85b567b6ccd41ad312451b948a7413f0a142fd40d49347","size":"0xad83","stateRoot":"0x43591eee71cd0a804e617eb6c56004a4734f6464e2961eaabc0c71756c6498cc","timestamp":"0x65e11dd1","transactions":[{"blockHash":"0x3f98e892beecefb0ec72486dfa7c0ab582fa8a8d4e2926d60ee20997c3f1d644","blockNumber":"0x6f6a20c","depositReceiptVersion":"0x1","from":"0xdeaddeaddeaddeaddeaddeaddeaddeaddead0001","gas":"0xf4240","gasPrice":"0x0","hash":"0x338341828426ae58414b73523a98428fcf45a05e1e33814f0641767171efeb41","input":"0x015d8eb90000000000000000000000000000000000000000000000000000000001270ddd0000000000000000000000000000000000000000000000000000000065e11d7f0000000000000000000000000000000000000000000000000000000e2169e0f3809fd46c2edfef3e202c5b94d5409145aaf79fffdd52181e31a9f1a079edcfd700000000000000000000000000000000000000000000000000000000000000000000000000000000000000006887246668a3b87f54deb3b94ba47a6f63f3298500000000000000000000000000000000000000000000000000000000000000bc00000000000000000000000000000000000000000000000000000000000a6fe0","mint":"0x0","nonce":"0xb0df94","r":"0x0","s":"0x0","sourceHash":"0xe1785d7ff541dd5fb96c341d3edfcef65511c9b9fb70c7347f6401f557a28f70","to":"0x4200000000000000000000000000000000000015","transactionIndex":"0x0","type":"0x7e","v":"0x0","value":"0x0","yParity":"0x0"},{"blockHash":"0x3f98e892beecefb0ec72486dfa7c0ab582fa8a8d4e2926d60ee20997c3f1d644","blockNumber":"0x6f6a20c","depositReceiptVersion":"0x1","from":"0x36bde71c97b33cc4729cf772ae268934f7ab70b2","gas":"0x77d2e","gasPrice":"0x0","hash":"0x05b30df1b010f6d8e800dc4389c1210f56fc63a510d8a8021ba6674874500c03","input":"0xd764ad0b0001000000000000000000000000000000000000000000000000000000017c4400000000000000000000000099c9fc46f92e8a1c0dec1b1747d010903e884be10000000000000000000000004200000000000000000000000000000000000010000000000000000000000000000000000000000000000000002386f26fc100000000000000000000000000000000000000000000000000000000000000030d4000000000000000000000000000000000000000000000000000000000000000c000000000000000000000000000000000000000000000000000000000000000a41635f5fd000000000000000000000000654a855e48f6943966788b81dc739117c5bff6a1000000000000000000000000654a855e48f6943966788b81dc739117c5bff6a1000000000000000000000000000000000000000000000000002386f26fc100000000000000000000000000000000000000000000000000000000000000000080000000000000000000000000000000000000000000000000000000000000000000000000000000000000000000000000000000000000000000000000","mint":"0x2386f26fc10000","nonce":"0x6ed50","r":"0x0","s":"0x0","sourceHash":"0x197720801dc7f9e20552fa74f4bc2da51ea581749d5a364dbb7444d07203ea22","to":"0x4200000000000000000000000000000000000007","transactionIndex":"0x1","type":"0x7e","v":"0x0","value":"0x2386f26fc10000","yParity":"0x0"},{"blockHash":"0x3f98e892beecefb0ec72486dfa7c0ab582fa8a8d4e2926d60ee20997c3f1d644","blockNumber":"0x6f6a20c","chainId":"0xa","from":"0x1bd43cc0eaacaa07571fd33bc28b83898d7f8b0a","gas":"0xc350","gasPrice":"0x12a05f200","hash":"0x14e370c8d9dd544482e540df925e1d50cf1a697f141cb598f315c72bd4afaf05","input":"0x","nonce":"0x0","r":"0x9e95dbb5de9c7a9eef558e9af29acf72564439f485bb3fe0e7a866b4fcc886e","s":"0x6dd4228ce71a660eb08ad33b5cfea79f570be51b7c63d61f9624f3faa5672842","to":"0xdf90c9b995a3b10a5b8570a47101e6c6a29eb945","transactionIndex":"0x2","type":"0x0","v":"0x38","value":"0x2a3e75df484a000"},{"accessList":[],"blockHash":"0x3f98e892beecefb0ec72486dfa7c0ab582fa8a8d4e2926d60ee20997c3f1d644","blockNumber":"0x6f6a20c","chainId":"0xa","from":"0x58da9e11a9dcbb54076b98fe73a1943d24de999d","gas":"0x45763","gasPrice":"0x654f8681","hash":"0x2693ff101298ea938382d8f6b8d00cb02eec925471a28cbb0828ee9d77619503","input":"0x35c9113300000b00000000000e7bc55eacac4a80000000002c583e77e245fe0000010000","maxFeePerGas":"0x654f8681","maxPriorityFeePerGas":"0x654f8681","nonce":"0x26c7","r":"0x9927852cdf94a7587afcfe5b431a86d0cb33ece028b944376fd1a1cb3403a25","s":"0x5830b2917250da54a67735617b445dd410573fd1183ecb037ec65c35ac45efb4","to":"0x6fbba99edd2dd9f9de4a6d7b7511752a32470322","transactionIndex":"0x3","type":"0x2","v":"0x0","value":"0x0","yParity":"0x0"},{"accessList":[],"blockHash":"0x3f98e892beecefb0ec72486dfa7c0ab582fa8a8d4e2926d60ee20997c3f1d644","blockNumber":"0x6f6a20c","chainId":"0xa","from":"0x34065ece4df3102337ac3239b00e6e247b013284","gas":"0x45763","gasPrice":"0x654f8681","hash":"0x554c77aea2c8aba98caa8bd93feffcf389c636a96100d1895773b7a8232c6bdc","input":"0x35c9113300000b00000000000e7bc55eacac4a80000000002c583e77e245fe0000010000","maxFeePerGas":"0x654f8681","maxPriorityFeePerGas":"0x654f8681","nonce":"0x26af","r":"0x978d5afb084ca1901e846d9afc834a9937fe165055d4a773b4ce4f775c024159","s":"0x2c1d9a4480d982c2a8b8a3b26d87f77d8bc653e59baf5386228169b81a77e7dc","to":"0x6fbba99edd2dd9f9de4a6d7b7511752a32470322","transactionIndex":"0x4","type":"0x2","v":"0x1","value":"0x0","yParity":"0x1"},{"accessList":[],"blockHash":"0x3f98e892beecefb0ec72486dfa7c0ab582fa8a8d4e2926d60ee20997c3f1d644","blockNumber":"0x6f6a20c","chainId":"0xa","from":"0x66e0c7ef7c51d22616ec96f87cedf27a72c7f3fd","gas":"0x45763","gasPrice":"0x654f8681","hash":"0x96e695a55f30001017de5e12148d45e74617cd7398d421cd4ef08590979b2f64","input":"0x35c9113300000b00000000000e7bc55eacac4a80000000002c583e77e245fe0000010000","maxFeePerGas":"0x654f8681","maxPriorityFeePerGas":"0x654f8681","nonce":"0x26b7","r":"0x563632369a8957639e59d2a5a96fffe7e86ffad431f19ef74fa2e337103c53fe","s":"0x388d1b881336d32dcd53f20ff61c0ad483f572a531f00404a2fe0b5b35a35ee0","to":"0x6fbba99edd2dd9f9de4a6d7b7511752a32470322","transactionIndex":"0x5","type":"0x2","v":"0x1","value":"0x0","yParity":"0x1"},{"accessList":[],"blockHash":"0x3f98e892beecefb0ec72486dfa7c0ab582fa8a8d4e2926d60ee20997c3f1d644","blockNumber":"0x6f6a20c","chainId":"0xa","from":"0xea840761b81a524320a31020a2da1f5d74728432","gas":"0x45763","gasPrice":"0x654f8681","hash":"0x3e3cc7feea7b25ca23962a4c4f33142a1716800ee161dbc698a83b70b9f58652","input":"0x35c9113300000b00000000000e7bc55eacac4a80000000002c583e77e245fe0000010000","maxFeePerGas":"0x654f8681","maxPriorityFeePerGas":"0x654f8681","nonce":"0x26a5","r":"0x19c8d3c968e95f581c49ca00495aeee78de1e2c635438977a51b512eeaec191c","s":"0x7295f839bb777a3362d9a092fe0830a3f465514ca66164f6d7f6ab66783c1541","to":"0x6fbba99edd2dd9f9de4a6d7b7511752a32470322","transactionIndex":"0x6","type":"0x2","v":"0x0","value":"0x0","yParity":"0x0"},{"accessList":[],"blockHash":"0x3f98e892beecefb0ec72486dfa7c0ab582fa8a8d4e2926d60ee20997c3f1d644","blockNumber":"0x6f6a20c","chainId":"0xa","from":"0x5c230bfdbc7ea79eef00fccd1607422ffd00fadd","gas":"0x4465c","gasPrice":"0x61db3d5f","hash":"0xd4b2a372241b0692a29823185318f2d6e91d2a691c48804bbd1baa7d9bd7de3f","input":"0x35c9113300000b00000000000df7440cda140a00000000002ac2a2217b8dbc0000010000","maxFeePerGas":"0x61db3d5f","maxPriorityFeePerGas":"0x61db3d5f","nonce":"0x269f","r":"0x182e621b95c623923a70531e4b465e2a7de75cfc37dccb6eff0505a2ea6c9a20","s":"0x79b1e709300f59b8724b192d6df5ddb3d3399a41040731d038320e50da6e1502","to":"0x6fbba99edd2dd9f9de4a6d7b7511752a32470322","transactionIndex":"0x7","type":"0x2","v":"0x0","value":"0x0","yParity":"0x0"},{"blockHash":"0x3f98e892beecefb0ec72486dfa7c0ab582fa8a8d4e2926d60ee20997c3f1d644","blockNumber":"0x6f6a20c","chainId":"0xa","from":"0xa626bd40a8c88f59a4cf9b1821a7bd71fad96285","gas":"0x46cb6","gasPrice":"0x6543570","hash":"0xa29f5e4501288cf5fee2d61631e80b10cca39a667bcb4f66c0b81863bb46436e","input":"0xa6886da9000000000000000000000000000000000000000000000000000000000000002000000000000000000000000042000000000000000000000000000000000000060000000000000000000000001f32b1c2345538c0c6f582fcb022739c4a194ebb000000000000000000000000e592427a0aece92de3edee1f18e0157c05861564000000000000000000000000000000000000000000000002fb474098f67c00000000000000000000000000000000000000000000000000029409ed2785040b2a000000000000000000000000000000000000000000000002942bba252bfcdfff01000000000000000000000000000000000000000000000000000000000040000000000000000000000000000000000000000000000000000000000065e1722800000000000000000000000000000000000000000000000000000000000000000000000000000000000000000000000000000000000000000000000000000000000000000000000000000000000000000000000000000000000000000000000000000000000000000000000000000000000000000000000000000000000001c00000000000000000000000000000000000000000000000000000000000000220ec890c742b604c2983d55e3b86844fa600000000000000000000000000000000000000000000000000000000000000000000000000000000000000000000002b42000000000000000000000000000000000000060000641f32b1c2345538c0c6f582fcb022739c4a194ebb0000000000000000000000000000000000000000000000000000000000000000000000000000000000000000000000000000000000","nonce":"0xb2c","r":"0xaa522cb89c4a411af6fdf782e5d946baff286e837f01f69d837a1f9b0f93f45b","s":"0x31975c6e222f5dd4cfd00e779b0c8f0cce77366dbdc372bed034b91285571eb6","to":"0xdef171fe48cf0115b1d80b88dc8eab59176fee57","transactionIndex":"0x8","type":"0x0","v":"0x37","value":"0x0"},{"accessList":[],"blockHash":"0x3f98e892beecefb0ec72486dfa7c0ab582fa8a8d4e2926d60ee20997c3f1d644","blockNumber":"0x6f6a20c","chainId":"0xa","from":"0x7b4e218f57b4843c532fedf4b3c287eabe770b9b","gas":"0xa13b","gasPrice":"0x6540af2","hash":"0x8432671bbc9516cb6cd03c3308bb75eb0e428157f1615cf7576610fd23577d4e","input":"0xa9059cbb000000000000000000000000253dd57300904225762960755b7662e6ae06492d00000000000000000000000000000000000000000000000053444835ec580000","maxFeePerGas":"0x66d3666","maxPriorityFeePerGas":"0x5f5e100","nonce":"0x0","r":"0x4c2bd959e598c1f57326b86e21734aae35d5ecfe38462e5d520a78ac61fe5672","s":"0x4fe8a6253fbffcfec42694fc004e0eea3982011eb764bf396ffa41a71bfc87f5","to":"0xdc6ff44d5d932cbd77b52e5612ba0529dc6226f1","transactionIndex":"0x9","type":"0x2","v":"0x0","value":"0x0","yParity":"0x0"},{"accessList":[],"blockHash":"0x3f98e892beecefb0ec72486dfa7c0ab582fa8a8d4e2926d60ee20997c3f1d644","blockNumber":"0x6f6a20c","chainId":"0xa","from":"0xd7fa193bc4c56c107c7519383669d744247ba2d3","gas":"0xa13b","gasPrice":"0x6540af2","hash":"0x408cab7318b64aef9d8f1514db00ab41898a61a2951c435ef4632565f1aec509","input":"0xa9059cbb000000000000000000000000253dd57300904225762960755b7662e6ae06492d00000000000000000000000000000000000000000000000053444835ec580000","maxFeePerGas":"0x66d3666","maxPriorityFeePerGas":"0x5f5e100","nonce":"0x4","r":"0x4fa156a1af6fbeebdcd3e0206e1984e7272747adfeaf3d64e7110a050d84de93","s":"0x4b95bcb5fda8d7f0e03c5f9a26711b935bfee4e9cd0e5b27e1292e5859f808f8","to":"0xdc6ff44d5d932cbd77b52e5612ba0529dc6226f1","transactionIndex":"0xa","type":"0x2","v":"0x0","value":"0x0","yParity":"0x0"},{"blockHash":"0x3f98e892beecefb0ec72486dfa7c0ab582fa8a8d4e2926d60ee20997c3f1d644","blockNumber":"0x6f6a20c","chainId":"0xa","from":"0xa5dab3c7a3821f6440a10d634e766bfd2750e54e","gas":"0x5208","gasPrice":"0x55d4a80","hash":"0xcdc5fa7b527caa5d1030944fdffa3f9c682e1209ecafb131109c9f62c245d463","input":"0x","nonce":"0x39a1","r":"0x813808e0c6df5275aa44a1083e1914bd993fe2f0379927f3c40d62cf24c26c9b","s":"0x67095b81f1f2771b6ccf6ac7766b3ee12e558c5aba4880c517016fc3f85e7301","to":"0xf8d37bcefb1b918fc54e73ae0a50dda0cb700634","transactionIndex":"0xb","type":"0x0","v":"0x37","value":"0x2c4608297987"},{"accessList":[],"blockHash":"0x3f98e892beecefb0ec72486dfa7c0ab582fa8a8d4e2926d60ee20997c3f1d644","blockNumber":"0x6f6a20c","chainId":"0xa","from":"0xd2301aedf58a6ef7c069de1edef76ece00b7d503","gas":"0x13880","gasPrice":"0x4b22878","hash":"0x40d1525f0c7b484bf46514553fe6b90b48e8801820f869915867be5798e2fa45","input":"0xa9059cbb000000000000000000000000c71d73b89d98cc9555c8da1be78c3cd976d215e80000000000000000000000000000000000000000000000008ac7230489e80000","maxFeePerGas":"0x2e0d2586","maxPriorityFeePerGas":"0x453fe86","nonce":"0x16a4ed","r":"0xe14aa55c1a3bcc8fc6c177c877ed16785fdf89c8b7f1d281d43ce6c5a6b2dfb9","s":"0x758a2a20bdb06b5fc379e5ea842154d1b11d7bb95420e6ea1a79cd019c4e710f","to":"0xdc6ff44d5d932cbd77b52e5612ba0529dc6226f1","transactionIndex":"0xc","type":"0x2","v":"0x0","value":"0x0","yParity":"0x0"},{"accessList":[],"blockHash":"0x3f98e892beecefb0ec72486dfa7c0ab582fa8a8d4e2926d60ee20997c3f1d644","blockNumber":"0x6f6a20c","chainId":"0xa","from":"0x3fe8df3c590204c5afefae853e293bf1c33be769","gas":"0x1b7740","gasPrice":"0x1f8efd8","hash":"0xbcc57973a2fa99d0914c567c2ee73f5d2cab5e8102aadf1c6994e01ff9f1d18a","input":"0x3baf749100000000000000000000000000000000000000000000000000000000000000200000000000000000000000000000000000000000000000000000000000000050000beb640a66f219000beb640a66f219000beb14f5d3f8000c65e11de2000000000000000003bf22000000010000000000000039edf2c4f7fcb20376fb4f9af90000048c27395000ffc8a30943fd336000000000000000000000000000000000","maxFeePerGas":"0x3139a1f","maxPriorityFeePerGas":"0x19ac5e6","nonce":"0x93be","r":"0x5d74ad14cc1e23b9fbbd0690a6080fefb55b75f2cb2b2bb65b7bad0969fa6ebd","s":"0xb4e04399205e4b76f69d730e1dc3bec14363517433bf3c5c8e043ffdaf6fba3","to":"0xef4e57501e1bc4e72523dca9f64b83b651c51079","transactionIndex":"0xd","type":"0x2","v":"0x0","value":"0x0","yParity":"0x0"},{"accessList":[],"blockHash":"0x3f98e892beecefb0ec72486dfa7c0ab582fa8a8d4e2926d60ee20997c3f1d644","blockNumber":"0x6f6a20c","chainId":"0xa","from":"0x2827e0a180cca0706dbdd96f3ea260008d22f30c","gas":"0x98bf71","gasPrice":"0x154773c","hash":"0xfd0d2e9d5504256f6e5498f09a0c947c21caa2597ae1bd56c54fba95d0c6a89e","input":"0x82ad56cb0000000000000000000000000000000000000000000000000000000000000020000000000000000000000000000000000000000000000000000000000000000a000000000000000000000000000000000000000000000000000000000000014000000000000000000000000000000000000000000000000000000000000007a00000000000000000000000000000000000000000000000000000000000000be00000000000000000000000000000000000000000000000000000000000000fc000000000000000000000000000000000000000000000000000000000000014e00000000000000000000000000000000000000000000000000000000000001a000000000000000000000000000000000000000000000000000000000000001f20000000000000000000000000000000000000000000000000000000000000244000000000000000000000000000000000000000000000000000000000000029600000000000000000000000000000000000000000000000000000000000002e80000000000000000000000000a0375658570f8459ddd8c753e288f5a25b4520e10000000000000000000000000000000000000000000000000000000000000001000000000000000000000000000000000000000000000000000000000000006000000000000000000000000000000000000000000000000000000000000005c11d2a09e89121e989ee7c2871c7d6cbf2969d4b5ed4270096daa6d07249b511a3b4abdac1fe4361af87575d3836e1f7393f81d48b96085194c880d524b135b4ca3bac0ec2d8da1226323f8137476ba6750490a6fab42d11df9b5862d83e761e0231e770f0486d4d32589ec2082f0caddd14ece999966fd023098703562306cce5ecd07314063de04f7eed1b4d765c015f8962bf0dbd26210d535e529c2047da1cd8c385ad4567b7f5852add9011e804acbcea8465422643b8fbff7f977204fe1ef7b6f16b38e0f678c19c08ede1dcfb04a970d0503169e26621db21d2fd73635f473cfab3240cd45e172aa16220c8b2a3ea9cedefc52099b97bfddde514b7d629378d226c4218e0212213fc288c00dc103940600780d133aa4f21a1f457845bd1cc62df0993d4ee47d0304d2355fe1125a04b49268dd8553b06c5841d3e2119f219d1cff4752d58c7ff2e6f2ff623c6f35d0ad7196daa648551ab974e7d4934cfebe6b0334c2788c473393ebd01d03554011c8958128cc2be287e56ecae159c1c8fc806b43ce4579191b0cd7db8d9c9ef58572c621792c9cc034324f6c72dd9694186c1252162dfe1619f6d57691af8043eb4a415cc8248bb9bd5a13f1804d03bf3fdd69f65a04376125ad5fe453b1b3692b0d6dbc15064842cda9658bf7dce579492f3db7a797a7ce76a38ed9625ebfeb565271cf8c353cff279d9828926fd3c45fd36a77b5ce7db69bd0f91322ba7cc9ddfb3061052176fd33623503b1e59e48369f9348134fa0ba126294c4c698061f37c3a05c24d1a7a99df0637c1ef420ef618162c00b8f97408044b4254ad69533a008b935eac8fa41954bb5b68534279c11a59a274c8b25a7f0545ae19ac94f5de3d875d153cd661e4977ae0efe1ebc40f4643330d0da33450f2e2482a43d31522853ffa43ca2d7686e51de1b1f4fcdd1eacbf760bc8dd03bb1c2aea67ab89508a05a191b10c2f9c9cfde5f738af12e95bb6b8b32e838ca1a1156a7864dae5c9364894075bd76d87fb97a3cd0388f06512b6d48917f7e329d6b35c4682ed5e8481e0a1e79a7f6b7c5021a3c63cc5465c65fe586f021e4cf2d772c08e1c050035b29f41db03efb6312072fcddfb829dc0c0b6e7be204a1733289326a05cf4b78c17d7c4a70ef3cb3d139649c94ed679867badb6d065323c5a04393d251d95e782231fff5b67e1ff57273b72da5844c871b1ea2356b1246b878b9bc985156c7694e117f4a8a082af34d1b96a05b201daa13dcf6254e55183c53d5955463e92819945256bafb478bc258c185ba3a03474ecadef0455d38f0c8fe6a4f52579b70737f9908ca86e5adf2db01fac538d265362f9611ede88f4062c0ecf585dacddc1cb41c673e5ec91e314c41c9eb5532fb9b2fe9de7cc27f1266a0b0b28d690f17cd491cd21711fa0854e8224b724ba2e084ee55ff4f4c703a13e777550cf70d3242e72c028926f6fc9baac1d0661567325d71cbf88faf1b14e3b36eeff379fe59ce76c9a84eb50f6c157913425d75a98c040279de888da75b93abafa0eaf2f0d4439618a7dcaac3ccfd1b620c177f6abe3774c931ae5250738e8cf126d7f7303e8dfd9424ac53d8a929e2f89603bb110b1bae0ef54d13e182c64e14957cb4e0172c3b8f9871fd883e8b3831aa24c11a5f86515a37869f25bbdf489783c1f5a2a1f73e60bb4f03699b3dbbd163cbcb5e0dd4ecea08f5bdbf8d4df918107537806136b57f7dc3ffcc3d6f6f0b3acce292205d6fc8d15db56c78c9aa3c150f6f10adacbd760e4747586c15ff903023b254d9f7b5e86d98ac40038f0450811b144cf10e3a751a74a9a88c1e31d8fe4250108265ad41122e13aa90d203eeac7cf6a14efdd855ed1d374eb4670013589cbfcaf8f7b87477f4a4c7b30f6cad3deb22360c9cd6037c49e4d0b6ac5fb8fc8c79c46b952c34422ae56b487f5aceca5f161eb076d92ce07564c46bf83614c63e853eecc9a9e02c52402b613ac74a01a502b314bf1e787af19f7681a90a87c0dabe4b2e4a0182c68256640875c6e44fd28e4d2ad2176ca59bd61e6ff594142a152dc0634046300000000000000000000000000000000000000000000000000000000000000000000000000000000000000a0375658570f8459ddd8c753e288f5a25b4520e10000000000000000000000000000000000000000000000000000000000000001000000000000000000000000000000000000000000000000000000000000006000000000000000000000000000000000000000000000000000000000000003a51d2a09e89121e989ee7c2871c7d6cbf2969d4b5ed4270096daa6d07249b511a3b49a2702f1edb9c92c551fad73b909d63d647b91c022679a501720a3757b00d1f1ac05a52d432c0f133b6de724324bc4e946642d22481a03cc33e471a8b670f9dd3511a95751d50c131eb568b6bfe1ec3bb14f0e4bb8ecf016c50f08cf2f853bd3d855c24e58af5938694e680dc5a4d564cc53123a22c81b9fee3c41d740dc5428d81126a8fe41e9460261d8fcc4ace7081fb1ecc73726dfd8c90ac834dd3ab6e93ed24a1b4e1c224c13867e1fb52b9979031ea70a9274d99fc793014aff9f022b084daa8de6944c7a05930158d128d2426b3d315bd572a978d6755fcdd9662fc4b6f950bd3cd94d313827a642226a13b06b60d5e454bfe2fa9ccfa915304cd05c6eb7093086d17480087b7287f46ae3edd17ec77afb2d91cfa235427ea1f0b5d70a7514146c76a3cf08f1a7abe51c98b143ec011e1ba6d1bfa223d4f0423eb4b031eaeeb3e420227630b2d81d698fbdbc4eefc85a225ea51a95660d97b88298c11ec3c949a9415372fd7572d8445b2a1c6e90fe7fb7852381b3cd8881171f83d619d789094cc46cd66da1587498c6cfd22b586e0f450e80c5989ee0ec5f4834ed6031702f02e5faca9f9e565a425727a7cb3463b27972c98ba8ae18beb78285a3b69d7c8e0d252a523377239a454810bb93f173dc9fc4e0a4d1e8ac42058dc9b15e894a71fd1ecc8f058da2de958d96f526480a44fc0f0c2aaa4af93c1da2472b39192a9c1417e73e49a8e153b007b8bd65f1464286f1574c77196ba677ab1aedfe979ba6f1f3edcfd4a8c2c703c79be7215d9ca81167db4f8ab4e1a5d9b0533fa1caac00b282b7ed44897035f74de20f55c3719dd298816d071eeaac1dc8177dce33266719fa18072c942bb2636747ce90af38189ad3fb3cd95df0b8d0a3d5d991e7302ec23c743f971bab0d7f092c952bd9ef2049176f7825453d5fbad75662f2047478458628e85c076df653eb8b05187f9108f19462b26e75bf8834ffb401785a49861ffcc128fc12e5622f37adad94ee956fcb25122405afb4860ab63cc8582a640018752fafc375ba7af745fab60b1741d467e8f5586b13da86b64297d1427c7c96377619993791f4100305b4e15943ddc852f2b33aece89f69e70131883240ba933b65e76fd7cda71865bdec133d8fd640bbbcde41081ed975c5ec21b5390e3c6c23a37999cab337658cfc90a0f6c946d7caa667156da2458ed0014af0c08b811850acebb3b5d7b39dfcd35fb70a20a91cb982e5f412cf4249657a45c2b40bda6d00000000000000000000000000000000000000000000000000000000000000000000000000000007f8757ee74f1623e7e96e32c13e5f8edef94f1400000000000000000000000000000000000000000000000000000000000000010000000000000000000000000000000000000000000000000000000000000060000000000000000000000000000000000000000000000000000000000000035c2a09e89121e989ee7c2871c7d6cbf2969d4b5ed4270096daa6d07249b511a3b400000000000000000000000000000000000000000000000000000000659540f80488d043d8ff9c5b5511c9dc6a5e54408f1cfdca06bad51bb6026e2d644ed9a19a1dbc71cf5f6821466aee1e04b1e176a87b25f135703f04b4817f4b890960c0a88646cc1c9d0ac3c5ddf6d2ab64b864a71375c91d2bb132b5f20c8dd0230bc2da579e1a9d41decad27384a2658bb4652c73d64d1246ee3a7edd819cdf445e81368c1a57dedad787d4ddafe2ff65d6683d3e1f9b5f86decd557ad7f0730d8291cd1803c017f02fc9b2e210f94c221bc6e9936d637337533fd95b9f73dd2d8d9e0589ba0c2bec5cd4603082a0d65934d00821f204e5a518a5bd965618d5fa44dcb38a117c0f329ecc4d08739918282d5ff302113500000000000000000000000000000000000000000000000000000000658427080488d043d8ff9c5b5511c9dc6a5e54408f1cfdca1f9d5bb12b996854eebd4d2a5fb78fedf34d89c8136abeab93666cbe78df019e001635a767a3ae7d2cd6a90c8965b099b325265a629da74f6b0074d000467da91f31976a55435d878d49054925b504c82d04a332c330166ae3c1142daefd71742e17a069b3083808b19d8bdb19bff71e54dcb986b994240bd5f6b9b40ed04c475eb81ab4807d7f92de9db3407b8154667d4b2baa88c761d507a400c02dcd9e081c75ed5dbe082bb131767160de1a52ad89826392a03d1c14dbed2f94fadbfecbc18ca312eef6399758ff799fc9da90ba6ad84d2a100f6518da1dff4f3ebad49200000000000000000000000000000000000000000000000000000000655b97e20488d043d8ff9c5b5511c9dc6a5e54408f1cfdca27d1c599671f78cde347dddd477794a3612cf98b912eba2fb34adc38df12d4f70021c087a8c88f3332b43719e517a946bdf3195f6168b4e3fd5efd7d0fa0131597f23d4e3cd2502a73f0c7f082dab9117c71c8ccf7af4ece97336d59811872540154e00ce45a180dd19c2722643f24b2c14c3aa7d197c216a1f62aa52a76aab2557d1f361c442ac71f96ebcf4242a4d1af333e6d2d9d53db71f9df067f5e2f966676dd7f5fd9327b4781ed11db89ddbe0016e3c8b8e6b1cf00eb556187a4dfa06c1c251e7df6c4499e057c8b9f243084aca45cf5edab7ad5da386fd08c10d905000000000000000000000000000000002800f6eb0d1c000000819e0000008ac70c00b97b000000000000000000000000000000000000000000000000000000000000000100000000000000000000000000000000000000000000000000000000000000600000000000000000000000000000000000000000000000000000000000000492a2ada460a305ea7f077ba1a269f4046b47fc6c6c003e7886cc22b966b3d59944ad965c420acd3ed2ca00000000b46a1ff8058765a611959754bd054d7a0f91c2d5126b8fd4aad170646f236c5a91ab019da896dc692e3f85208e63106eee203061e0617d510a51a2f06f71553e5b22a251c3fd05bf288b68c711b80de43121515ea7af16c56153448e004dc8cde9f539dfd45c3f348b292e02abbfa5a387000000001bc16d674ec80000d8ed6ecb414cfbbe8666be94c133deeae913d26beda56036396e82b3f997f9ae63c4c1c642a225b85c18861a812cfd1cd5064c7dd800788323499e19dc5255142abd6cab92cc1bdf2e1e59b5acccf7b7b350fd6200e6e48fc642407dca22ad7f009314d437f051dd6b0000000029a21e1e3c5a015104729e107e8b0c09962a0d65f56e0762139b7c3f9e9db9f48fd3d89c42b740ac66ba722c42654cc7f1530e07fa3076a6b06e614e3a39955594bd97121ca76948b4662f6ec45354a831fb2f82a4b6483431392b83000f3b25f8046c618dda12bf171fc98118b5669e790000000098a7d83f8bb15fa522c77ba0d5faa5d1029121bd18a1f7270dbe7e48401917a99c3c2d5e5aee63278396f30c8e95896041a74233bfa1d1b30ce15291be7ec543796b35450e52112ba278638af01316224bb7c07b00eaf7b19ce5a21301a7418e485fc9fe89476c48017092f12048b9ab2f00000000000001569bfb68ea2b7b28b0044739f4bb99e6fcd20f82c9d34c77c5538c8a95cfb172a88e2baa6a594b65dee21d377ac06f02ae92c90b23e8500f1f14463214c1c3383e6d1a7de99ab8ecab1baee05477bf6162e8a0ae6ef2d204c9009bdfca814b52009706c28cc51707532e3cffe92a00000000083019dfc17b0000649670f8d751119c42011972b3e3c7c63111447867c2aa85ba9de18735268ba7f8fae624fa9475bf12801dd5282ad51366062e351e652b7d110cf18224e8ee67e8ee251032f8e6b25695e6b6d445ad7cd370808f000ed78ae2a0800d6395cf9e311659323bf2822c560000000053444835ec580000167a6dcc4ef2870907ae277c663a15ff526aaaf67c794abec21a7efe4679c82fc3464e2a958761611e27fe62421c5669bfe4f79dd08a32375bbeb8d04fdf82b37085bea767b8e1665c82d43add81ddeb8c1c47c0000ed78ae2a0800d6395cf9e311659323bf2822c56000000006f05b59d3b200000818f7edcc8c21a9efb07589665c2470fcb7aed8e46ab42ba0812075296962951c1c3bacd821be6e104ed2663d50b94cd2aa398a7fabb1a9e42d52047c0d581439c9361272c7460c441f542549dcf81d905b526ba001338838665fd802f05b4a8dd4969c9a9573943100000000029a2241af62c00000ec581e03c28d8b2a4382f54565486d45a6be752d8f1572f1090584e82d82034d698fa46c6ec96abf028475a8263a5f44e4675046e092880293911bd172da2cbd491e8172b65e7ba5486ae5e968bd5f604711537007b834c3d1f5dd11b3f8efebe5f74a514150df822000000008ac788749e8209b11bb0cdb5e67d86dfec6529d9f417f3f9a3dcd0a682b0363f6ccbdc6d4d2f0b9e3ec7a9a905e6fc5b45472a2bbd6402c7b32b8da62ed21f4e03988b990b4e4dd700000000000000000000000000000000000000000000000000002800f6eb0d1c000000819e0000008ac70c00b97b0000000000000000000000000000000000000000000000000000000000000001000000000000000000000000000000000000000000000000000000000000006000000000000000000000000000000000000000000000000000000000000004929a09405844364e52c41b7b6dfe02e112cee040f100dbe9f6cf202a27a6dee43e2d98a476372c2860bf00000000b47ce043fab9d55ef8b4200c3c5f5fe61dd028c77a5a94e1daa3f66250ba2eba55d2a0faf341e0e471297c2a76e547d92adaa23c34b74ecec62808148bf00ab72d9a51ccb4be4e3bbdb09502d12155dccc9b3ecdf1d08f037b48318800fdceba70f4542b01c98b103ccaae7768c2ca0db1000000002970cd04e6bd2ea4b10f351014d7893cce4cfce4c2db9899caddc797580b92aaa98641aa3c081fe4dc9ae39eea79a82da8beda712c365c81419d5269dda86ce3cd4c75ca965b63cc422d9e84e8e4067a382f5c8ef38022e7ef50df550014dbfd014496a14f3cd43016ec8a131969a146f200000000c249fdd3277800007af95f24c355abed3fba21f34e5eabe4684319a56d4aa21ef076c900e12d0f321b92c83f3740b4963dffa6fba309d04f4ba6b6c9260f74b494ea05dc6ccebfdcfccbf8da679e10130fab4c01a2c0acb27d5f080d00c41cea2fb420f1e569f6c3f24f5bbe38c1ab03ee0000000270801d946c9400002e5aea20384e5d275a9a0ddc1eae292cd0a8e2d40d4d924ff8463d2c9c28a5d9c339d188b2f0e7b8f24e074ddb810c45cd93f53abcec0d8cc44e1009dd7fa3fa3841007110d5ac8e62b04556f95415c30ec00c1e000ed78ae2a0800d6395cf9e311659323bf2822c560000000029a2241af62c00006cebdc93bbfebb773496955c669dabfb1dd308d6e51dfb21c7d2f9626144ad3560d4f781f8cc6a3408e0e8dc1a672c6c0d8320736c5c4b01a38d56994f431fb5ad535d83411e963d6585c81e812e9984eb2a751800616d5caa1b7ddcc53cf61f7c698f5bf760f2afbb00000001236efcbcbb340000e8108cbcc67c650de4d92459741ff66e47161a6a4ce70043b4276fee1b0f0e9624c7e51c9161f122bbe4213d504f8affd296aabf4eafebbe731ec030ef2291446dbe0cf148fbe0220e096bdabdbdf67d2598676400563ea81e83d7e029731fdf15d462d5d908a651ec0000000029a2241af62c0000f682418632efe0f4022fc940d1b173d8532ee24bfcb841e0dc0f765249ad95fad7fa44ab08eda9e6bb04d93e095850ce7677927c9a5e68e2b2ef6ffed0155b7f97fb0cec67e4070a0175f6445a745c7989c6b73b00f229ae92b352ce277ea799808f8f433cd8cd5b30000000001285ffd2c584aafaf95ad4cdb97eefb58964615224287a1cd67f9a600f307bcf18ed9c589df3876f1e7bca188f8b34ed2f41faf8ffa0f9f3b669a08e463619b19103027bd82194a2d5586ef3e691babfa503e24585a5f315b0e03f1100d4d07b923c03db008ddd86511f1e5fd7cccc74da0000000029a2241af62c000019d3b00f585771520dbafd23e6c63110a85d66ee6bc1ec915b2436dd6b2bce00e8ee44fd14576ce30b6003d6fe60e2a35a9844d1901a0c13c27babf1d05d7c510c73cd0dcbd99205cc5281dd1f4fd6dd6b5b3a2200aa11abda5e3d54c4fe90b872955cfc6514a5796e00000000003400967d56ca8428e76336b2282996af88a23aa5e66d779639a63d691b6edecad7dcad6069c32fc4e92ce468dbc2e9e2130a6a1118f2e7fe7cdac547a19ba7a80b1ab344167d3400000000000000000000000000000000000000000000000000002800f6eb0d1c000000819e0000008ac70c00b97b00000000000000000000000000000000000000000000000000000000000000010000000000000000000000000000000000000000000000000000000000000060000000000000000000000000000000000000000000000000000000000000049276caf3858f850e20796488d039e2623779953a01000863b8497df542934b8224102f0632350d696b010000000029a2241af62c00008d3ca51337d69a6d02e915e30303aa2eceeecb5937157eac0dd7c2619cbb024ac22eb9f09a1c2d749f7d8e6f2b7ab448bbf5b87d0ae447b5cf3c76c844c756642cca9e9a8376e2200787dbdaf294865c2254bf0400dc8a1186d5e68337e89bc451a8478d531995d7c0000000006f05b59d3b20000027c812009a26f55b0baa9f8d8827d7e11267b0f02c85febe447c307ed76a445d9996f7a91d7318fe9d1a9b85d2d6a5704627d35f24221d733ac49079674aecd519e7d49feaa6c165bfdafc6bf4d9cb284c0aff25006aaeb7a1a8dfb07884a41ecc836752001d6c87dc000000000000796479e378994983339f137368948e28c175758907fc7668cc05b778f74cd3c819caf1b00f564e724171d54549505740648db2a33841bd6bf4f20f6c3a137cb9704adc23f8352c9c5172ac5fc76799969ce3212d8f4ae9ef6c69000ed78ae2a0800d6395cf9e311659323bf2822c560000000029a2241af62c00003721488345045c14955cd2c513f66ac57ebe96a3dc669bf1b4e1f39ce2199000ce8bc7e589f4cf62901adfd5681cc1ff84f4a5edc9a3404314eacd1c2cc638fdd4b8eaf7d670aff3c019bb1b86e4da540df0c93c0005adae60e8fe0ac4e4d501606f8aa9a33ce4690e0000000053444835ec5800004ffaed7dfc84495132f9ce28aa6dab67bb4d90a1a9cdfe6f0b3979cb431e1174ab08d3fa25bcb908bec231f6318437fcd78ff8c46e3fc8ca2c60c317b4d645843216c2f35cce0d10fe9cd9143625cbc51a826f3d00be6b1fef99a86274b05d692a506cb323bba2e7e80000000000db1353f883a344467844662f65d687605e299481ff91f925cc799d99c4d71a578ee6e4527cdd94091d83f1e7147e44038123dedc9496e19ee15819b8140e216f02668d1071648c63928012d8a8398028cf6efe449494d3c63c5e0c000ed78ae2a0800d6395cf9e311659323bf2822c560000000029a2241af62c0000002b999c4d9397e95eead08dd62e1631b1d5463ae25980472f14cf1ff9a5d370205a49a73e25b585814c3cf4b55787cb0601a53372f7a0aa77cfbabc7d370a330fc2e3379a3c0ce69a963d485fed3e2f875d351e000ed78ae2a0800d6395cf9e311659323bf2822c560000000029a2241af62c00002b0abcf1ce1400387c0f4f7814e406ff59d5058b0f5508908797bbf4b8646db01258f814f8533a67e2ca95a9c9bcabdbadbfafba9f973b135c37b21df175f9eba8fd891aa4616f963a23dad99ffa117be28084b5001a60b92faac4d06b81b9d63ae776458b974b28d20000000029a21e1e3c5a0151b76b5be6182876b8302fa76c30a53d83a0d2c229e98f0d39596644ac213a130a5670e2c83edc55ff05fa593e9661e7bd9788f545bddd787949645cedac2d76f1d3ad92d66ad2d925751b707ed4e84454c4356c7b000ed78ae2a0800d6395cf9e311659323bf2822c56000000008ac7230489e8000065b6239f4996cfec15726ef1eaadb599487301d95bb9a4ae9e920eabef82946a2107395a6049d28a08c175d23048446a3b57f672959ed00d686f842d22624ed300000000000000000000000000000000000000000000000000002800f6eb0d1c000000819e0000008ac70c00b97b000000000000000000000000000000000000000000000000000000000000000100000000000000000000000000000000000000000000000000000000000000600000000000000000000000000000000000000000000000000000000000000492491d023bd114c8e6caa6833df9ed2c48ba6f2e3400f97659da84419c3003cb79a46a8e79c575801af60000000029a2241af62c0000d54b881d52c65ddb4ee244c2adddcd8a98372135722393c91edb5beec525835efcc9b74f3688d99c5085808a5b08422d2866da4a0f2c3a0c8620d79315b78d59afea22a4db5184951e7806c8c946ae17fa287a1e000ed78ae2a0800d6395cf9e311659323bf2822c560000000029a2241af62c00002f10394ed24de748dfdedf04ec5c142034a4bdb3edfc464f3ac2f332cbd61e65755a5e9ceeb55efd2925061e8ec829a2cba197cface9e3ebf8bbd830380167d2fa2e28e64e463be7ea18e63b4c5b28adbd05cc4e000ed78ae2a0800d6395cf9e311659323bf2822c560000000029a2241af62c0000e9ff7faa63f9f21e66d6002ebc9c3d2dceb6de7983f7f862505c5d7f05593780452f618f7415a6f668ca767df56ff7ac120726807a88c4323abb8eb6752a4194844b052a2d11eb20ed676b94cb6624023d441e8300783dbdca8a6bfb6bb575d3d01f733b165ef00da60000000029a07550019585cab24565b90197df9c7dde551fd02e4dc58824d042a39439799a2b76072f1c5749e7019726cae17ff63cd1ab96539571202ba34c40fbd6cd4c89c8e3284fd67f67a3cfedf296a3f136ec527f869d4ec7d6ce2ee45300f82e9354e41a7e4947f76db64e03792df17553ca0000000029a2241af62c00007c351035a4364d5cba7bb4ebca481051b7e560731d2dfab97d503f528fc4426f9023291a81e1d1c57a49242463ca726d10566bc2c40939b4a63dd05140aff092c029a8c33c591f27be5541afe2c56bcac5f00690000240fc563520989d0a863db1c660f7e932860c5c0000000029a2241af62c00000e72d393d924b99bb17dd27fc1ed5f8f1c82289d52129b3001d86cdbf4b5a091dd47bbb382d68ef93b3b8919ad98fb2c2f8fad35368b94309e0b329733b7e033c6fa1de7a69b9234c557cc7603e9dc33f63a7e58000ed78ae2a0800d6395cf9e311659323bf2822c5600000000b469471f801400006435bf982723f2b1e7efaba5d4fe0a18aa55a73e5c3482e5e0ceb094cb517440907fb6764f5cec0451ccbc53822fd5e49fe9f37398c9aa3a31e86ee84e287dbfce513e8545a2dd4bbc1e92548e6f2853e9d4894e00746ddeca411b8c5b12bf4ea883ae9e83b6cd5be80000000001340891a3fb48882704c1f22eb791d2ace09d9c719d4f27863d8d69a65c38cfd739cf68e444ddbb2841b444bfadefb96200c761114cd1d60cfce60e399d7412a739e3ebcf981b8d9e143db8db1e37e0814b897f887afabf5bd7375b0050b247f91aabc5cdf0893b32e1772619e1bb8f870000000029a2241af62c000036d88e5872b56ccb9a80ee2b33240a6342f5f739a3baf0f9ed717b774bb3d01226585407a65114288c6dfc4b1a9ec55a7bd9d3843e8c29266c6626199bb3485e86897123bd32ea46a6b1e06b99ecfe09c96c1ace000ed78ae2a0800d6395cf9e311659323bf2822c560000000029a2241af62c000012f2296803fb461a4443e29035faf83691be27c9df86b662a840bd01b1be321c449a1fa2ba6741b36671aec10dfec616b838e6a124acca750579a437d035b0be00000000000000000000000000000000000000000000000000002800f6eb0d1c000000819e0000008ac70c00b97b000000000000000000000000000000000000000000000000000000000000000100000000000000000000000000000000000000000000000000000000000000600000000000000000000000000000000000000000000000000000000000000492a6b7b83333b73f8f9f3f1d86a8fc3a1010556117004971e9e09820ec0cf02743af93590ecc8b71428b00000000390ec7cd280b51bd5609e587ee79724369544bba66557faf34b61f06a6cec46541122ad0a17529d22ef9a662f1f782310f47d1d78bbd9de03c7c591e726dfaf6aec7ad3da3fa7600ebe0cbeacde1c6bd28426328c04f992df1feef6800b1d2253b36139d70f856661bb2b469e7f20e426d0000000000016c2d6daa69caa59cb6c0a6757767a48669d1ac354dcd9b91329526ddba807adc0e0a22ef5d9489a78ed98c76f30bc593917eb39bd7c9c1f2ddc7abbaa12c775ca8a051d17cfb5e2c927164d35b00fdf97644e48e236d7666ac5e00a93cbc38f586faf0ff89b5d06159adab11caeec6000000004563918244f400000f4397ec8eb7d6d84726b8390a4ea83e8b4f82c9c1d1e0d92fdd1f62e2f2f9c96f161f738c9beeb3c0c9a40a4e851cb367980eddbd76caab3213d7c864dd051a66451e822cf57d0e6e6c03ea012c6e1ea8d9c7f0008101ced0f63b21d8744421ddbbbc8335046a47f000000000b3c6083f4d0a195c157ffad97248145b785a9275f86782a77b5d9c08f0e5ba24386f5d1a4363b9d0b6df8dff7eedde84e4b634c796f08c2b3927ea07e2c543119bd3552bf50699cdaf2598aa1435927dcc46b5b103087b53e2c026c4005a2e39e07b9518565248c59be0dd429fa8e2df0e000000008ac70f0f73d6af0de59ca630c607c90ce59c49d06c7ab396d7e0a9adcd90646c6bb3a76a505431e841b49af9e3051d849e838034e1eadc93f6148b95dd9916d34f275c37b28bb7681be60b5cdd983431b70357224ab86d6a1a2370b5000ed78ae2a0800d6395cf9e311659323bf2822c560000000029a2241af62c000090dabc5c476abee44fb306c554580dea3e2d57c7df78519fddfa81cacad66f5275602f66b3d49b056039b489dd0ae117a2129bc40340f1ab71eb808252f74aa9b0602dbffb6c7ba09e962d9e2024690278685083000ed78ae2a0800d6395cf9e311659323bf2822c560000000029a2241af62c00009725415a6575426ee8818fb87647f1c5c83936dc42d601cc5e53c8d1c6d2dfbdcb0750f3384b289c86e5a9473eb61536ba44fd5d95e09c3c2d50e7c8218e97603c2552a23f1e4acff001011cc61ada249b568c3a00e4dd75a2bf779fefe6acaf27a0c1ead729590eed0000000029a2241af62c00004bb7ef1dbc81b5d64e173faa09ccb971c7ddce8c87f5f8d595b868cb24b6da99425e361dc491c98a9f05e5fbd05e18dec42e39821215c87d575458363e46f6687fd82b5ab93bb87aa131561eb02c85ddb341b51a004f03dcb65d5fe81578043db58e9dc5dc3c69032d000000006f05b59d3b200000546dfdad0717845492ab7f7e02450fd4243920d6087844062bec96df051e425d7bdb5f99d7cfcdef4f7ba3d66a29c0311b63e11b89264703fcd29e7eacc3a78f39d2774499579f08789b2ae54816be5893b943730035dcfe592dd1f96a8a408e579075869987549756000000002954869e9ac7544e61fd43c5d97089110fe3497e59c0dd05d07036e6761a32550074c53915eee81d662308d89d7dba4a854baf5674bad61e6b1b2303d70516259dbbcda2eb1ce54200000000000000000000000000000000000000000000000000002800f6eb0d1c000000819e0000008ac70c00b97b000000000000000000000000000000000000000000000000000000000000000100000000000000000000000000000000000000000000000000000000000000600000000000000000000000000000000000000000000000000000000000000492c091603fdd3d1151621323d58705df318a906c1e00bac7757e9bae87f4a0439770d665837771ec7574000000007442c1f3a25798e9dad412d3c6530a28006ce1909c43b6c163956b2dbc1dc4f56ee309f0d7bad19a161358c12fec14a42bd7b3c2fcd0a28091e189809d719341be20518a5507179b879178e763b6271bfe3bb60e0bd81c6f772126d000b3ffe3a15f7c4b320065e81f5e11bcee4f37ed4b0000000001e14d639038a1542af9de376c4501c9ed9e86a11939216b8c26522b7795c4860ed896de7c5fdd6e922b4624555d94e9c9b2b2a47741e11f4f31ace4698c61edf4efbd265c283348be8d48b8d1718a7b0fd4269a6aed13206614780200fcb95e45e1e0618c02fd43b21f1c8e8944ecf5360000000053444835ec58000017373e2b53dbd71fdaf998c6a224e970718563210ce54aee46126939483d5e9abb4543e7ab2ec53a273ed2f3f542dde9e05209508d0d24979a4ee2909188194c91c3eb2a21e789dbcfbabbbbd47fb89e690a14ec00b77d80408a7cd45419d426c329c92a55030ac8f90000000029a2db5a76760cdc6bcdf515d383a6731babf2201ca4bb18dac37af130e15de01f23a84c0f49fd02ec26179375e72e5774458b714935bb4809fb4e077fc83166dc4010527ffe761d4a4c3c9c038319f02a3b24bd0732aeabb481e41500ed11f65334bb071ad35e86fba1e7f8be38dfa14900000000b469a692dadc0b022d4834e9aad8d42f9f1448f93e3b0f506b3cf10d578c69d343f545be88a0c8a8a4dc8a66d2448d945cfe23acb20fe958d62e89d4c58fd2f2bca46848c6b3257022fa995cb94df389fbd1365dea78aacc49ff8bfe00d2a509511b278e6ced3eeaa464d138adc3d196f6000000007ce66c50e28400003c39c0ce5f43cdda29f72d51d33e99453c1fd434e6a038991a62165d0de990993324a7fced4935ad3aa939b08e9029ace621c7843b86506a391e9fc22da71da2ddbe1edf0990b8726d32c5aae8597b7ce91030fa004e95de6ad5f50f6c064925754cb9b277d7d2a0ba0000000061237f828785e40dc5011c6a01dfab2d692714407e4f90bade3cec1a5c273154bf632d2bf8a6e32d050a962630831fbbdc07bcc1408f915f23d40ec8b8431535c9d9461ab149bc54ade4812df0ac4f80241b193c2c07ae81c0670af2000ed78ae2a0800d6395cf9e311659323bf2822c56000000003782dace9d90000010441be089bcb68946acdaf486c5e9c3cd01f77c7ca85856db9d3ea3feee15df3b60bf2f61a38c42d9fed98d8f49c9bfa65813977e28b3bc0713befaf82fddd2bfa171014873af03f07ee4fecf901ff6148525f1006ec25ef5b60e6cccd2589695edc8e83fe258df6f0000000029a2241af62c00001615d9513242c2f5fd19f0661e8092ca0a9d5d58ce120b52974aa7d225c175428a6db426babd7944c773a5219fb4d01d74f32e5c37ef89f5c018ae54870edb7c50224897e54bb8b26f5865d4f5df648e28f348d600ce7af565036837e0a7dfab85378897fb411909fe00000000013e302ad722942da129501818f14cebfbfefa18ff4173635810e338189c5fa7bcafaa14ec728cdc36eafab6cedfb586f2573996940a5d4f94f4474c7a46053f92c6d68bbdbb111b00000000000000000000000000000000000000000000000000002800f6eb0d1c000000819e0000008ac70c00b97b000000000000000000000000000000000000000000000000000000000000000100000000000000000000000000000000000000000000000000000000000000600000000000000000000000000000000000000000000000000000000000000492bfb6a509492fc23d13e0cf6075d017022885fba400769b208432997c40132942cc4da817f103e0ec95000000007b9d4d50858946965494a1cbf8a1e8ccf7a887876fb1e7bcd388a0b476437b390f6197cd8c8503b8f02138231748c1762768d2707238548847fd6d25784b3b72b1c45ee2782bcfa1e2fb947c6ba254259399023ddd3959c2a7c6262d018942bf24d5e3bde3408601a2903870db4b9d691c000000000039c03aff991b7a4fba48c691c8e1982b5f757ed96b79fe9609824b058e9b523de841b66cdf79a703b6dd05726d55d701fcb9174224cf5e0b2c0d1e535e666e702d6c1a40f022d9a463b5a928793b183717194ea534c1099ebadf94001bdf2e40232f46943ae42ee59745cf08d16969fe0000000000025ef9d558c535834be00f25e8685c09bec9cab5f68d170c808a38204d118dad258d3fa471150d6f692e48443d1f76a445a4aa542b44546c88557b2ccc7fc89fbae2551ccfadf32e1f90da601060d6b7244d47f1d4bf9f7ce733a600d21103ba8070569f10490383c1be0badf395e4d70000000044004c09e76a0000961ad3ea3c6c2c6acc9c1aff879f923c19a02db15c53756603800ab9660b1fa9a122e3b8388a4663f80d0faf46883502299b53c8064e8fa5b64ef9e7b47a11701a3acea33b800c0d94ed029e002b3ddf566d7f0600a45ae9b3ff80653850981db8ac4a8970cffa53ce00000000000079a9e3378608575bdef0044957e48981c18b235eadda3897ef3b4424f9ab3762a90dd53afe380bb245c4bc9ae9a166010b8776e854ab1e979511c52289883aeaf1eed98a8873672811f8b6aa77f0977621730370c8a37d4c63ef0078e5408d4cb91413faa3b51e9c8e2b9f68a3064a0000000029a21e1e3c5a01511cb2c00eae154ab45a1f05a03330a05c235f40fc98e7181ce09c9367c631866659aeefe4257ba58c012bf8151ce90887ffc8b2c6c5716e82fec9d155dabb53f35ad78d3ec717f38ac9377313650a129afacf00f00079354fb7b92989cf7952297c439d7809fba8391a0000000029a2241af62c00007531ce50e07de05dd2a66008c2516bb224bb469939e9ff3fc829046c699a2b7a79b54f99cda22b63e3f749d76272eb5aeab7a3398e2f3ae54b0442e9d32d6ea6c714c03c25f9a97d099d8a1412929ee6b02ac3ff0061009f768feaa237c7f8f0565b3dca8f3f59d5720000000029a8bfc1eb136a8d1368cce67299dea26525e6e7b57e1a39c6ba99a041ede9e59beb767bb8eb04837665cb0232550d15d4ca6a4ea6dd989c5f763051b01f8822e16c48bec504836810ef29c16e55291adff5fb2e54e65340996678e700e0d384baf60a944b1af5445cf7989eb0e30987480000000029a2241af62c0000831a12765bd250bb5c48c93d8c6aa3e72b48813403f9b40dcd02a0aabb4326d550448e3dff0b0ae6c2a00903dce044df37ea71e5076b677009ab978891b5c181e764a3a42c93d14f375c567ff4bc398f7e9c402b000ed78ae2a0800d6395cf9e311659323bf2822c560000000029a2241af62c00005683d9fde15d84626395b19761e28f5ca374c9c9c3ddcdca18ca775a2e90f3a7725f0553db8cad27ffa1af18a95310985764e3a2fdd5ad3324ef0071362957500000000000000000000000000000","maxFeePerGas":"0x1b020dc","maxPriorityFeePerGas":"0xf64d4a","nonce":"0x51213","r":"0x6c0cef54789612803e7f6f6c9307119b1586ce041f78e4cadcc0c21cacdf7bee","s":"0x1b3d38c8f5ee34b46fecee23a5c4929fe14837717035346aae0181e72b3f2d1b","to":"0x087000a300de7200382b55d40045000000e5d60e","transactionIndex":"0xe","type":"0x2","v":"0x0","value":"0x0","yParity":"0x0"},{"accessList":[],"blockHash":"0x3f98e892beecefb0ec72486dfa7c0ab582fa8a8d4e2926d60ee20997c3f1d644","blockNumber":"0x6f6a20c","chainId":"0xa","from":"0x2827e0a180cca0706dbdd96f3ea260008d22f30c","gas":"0x1dfcc6","gasPrice":"0x8e267d1","hash":"0xba6b17b2e01684d1ce7e54479a16ebd9f2053f420bfe7425c150c9a2bc5bc891","input":"0x82ad56cb0000000000000000000000000000000000000000000000000000000000000020000000000000000000000000000000000000000000000000000000000000000300000000000000000000000000000000000000000000000000000000000000600000000000000000000000000000000000000000000000000000000000000340000000000000000000000000000000000000000000000000000000000000086000000000000000000000000007f8757ee74f1623e7e96e32c13e5f8edef94f140000000000000000000000000000000000000000000000000000000000000001000000000000000000000000000000000000000000000000000000000000006000000000000000000000000000000000000000000000000000000000000002482a09e89121e989ee7c2871c7d6cbf2969d4b5ed4270096daa6d07249b511a3b400000000000000000000000000000000000000000000000000000000654ab9ba0488d043d8ff9c5b5511c9dc6a5e54408f1cfdca0845883f8262070d1d65ddd163e2f92defd41c4b0987e4b9cb3b80a25d7278084226b1f58e0c01828d6ac1d867de16b93460da7f00eefbefd388a826f5329db7252a9b043a2f7e6dcbf7d62f2bcb4d3e06212bc04495bf87a1735626c11551d3248ae25d96a8dd6f3cc4b84d7ea7e0965e827a3db3239525c67baac59be815e72089ecf520d974f1153f2ce716a720792198adf9ab3aa8a066a9be858936f68620f2a881698d8dbf80d821c2f819e7e3e9dbe792c08860d1810962adf7c75024eb1d44e7e5ce540ba071e7416423ecf75ce9da4f3e96f53e8b837d560495df0c0000000000000000000000000000000000000000000000000000000064ef3c2a0488d043d8ff9c5b5511c9dc6a5e54408f1cfdca112f367b0924af44565c4b0b50c8be9a031c0ab20bceef9a8db0deb803504a6633635153b08c81238cf563a22b8f68eaf333aa6d27d87f76e1cb4acc7b501b9533fbf94340ed2654c00230fdefc84aa8bda63433999d514167a6ff4b003a5a7c1b541e84973290b731f3140c1ace1603a973ec79b1efeb4e1e3f923256e9d7f21e6fe77dc62f815f4119fcdc4c5f0148e147bb9ddd95bbbbfa06cac4070ce127e72764551906a5dd2d87f9710a8a69a28f3c0a0dd24e178f367e93d7a92b20cd51ca49c70afde255dfa1e755922b3884dca726a460d2aad72892735668e00e920000000000000000000000000000000000000000000000000000000000000000000000002800f6eb0d1c000000819e0000008ac70c00b97b000000000000000000000000000000000000000000000000000000000000000100000000000000000000000000000000000000000000000000000000000000600000000000000000000000000000000000000000000000000000000000000492c1ac6324293cc1fd6d85d9188514d1dccdd9563e000ed78ae2a0800d6395cf9e311659323bf2822c560000000029a2241af62c0000e8be426f3ef553f7979b0a5b8acda8c5e5d476e2c5947efd01f11450dfc34d10db8982cff61c1a055ee41d03e2c9eaf298b6004f02ad0d823d5f3e3a609fbee2450faadfa1c85d0c4b466c7f767f763314fb000d000ed78ae2a0800d6395cf9e311659323bf2822c560000000098a7d9b8314c0000d30e28b0e7054c49a3251c34f0ee51c60be017cce9b261360fc4edee5fa53f6f36499f6525e0f4d30dcc4754e80ea7c075aa754f7f6ee0d2be69f4799122581631377f674f112fad9da25c1f7616961ba9c8d66d00116d38bda3f98536918e9ff36186c986a2bc25440000000053444835ec58000070943dc220ab61411c61b80a727ddcc19bb7b2cb8749fc33bf2c052f096671c43e597b43d9c56eda9848ff8d558c6e71ccbeeb16c47b6a3f1b420e63d5a6ae78f930f67f3d5bcdbf75b8ef376ad16abab4ae7b31008fd74271938a96caf26ab89b9ec1e1743da33ad80000000029a1e17d6f3fef9428feec355f95590ee2e47c4550197ca64c6de42c5613ae60a3d8764b0b0a8e6e5c21af6dfca17ab46ad9b0ea9253a4fc3130da7d2118b64e83d96d111ec2a01bc6707a8efc698d8d45a52c25825afffe1d2a746d00455029478fd73df7722f3782bc00b107f049e48b000000008ac7230489e8000006298b16776a60476613268f83ddc66b75a91deb9c4f1c738be8bd13691e81d443a2e2f7c4fd82ea77dd3a79e1e2f7d3d4833ce0e9b53ca5e96d698e9d938b791aa88a18730c1db1aa34aae21b2407d45562ebac00c1532bd19cccd22ef1211e644a456806e6d7e1a10000000029a1e17d6f3fef948e011adaf5388e7da705bde54cb16ab1f38b777dea37cce35fea504992a7604177cf194ee7c45e5fd2f6e5dbf8fb6bda550355c4ebbd07b24296a95ba49aec0d7abaaff0fff61a643899d578b41a6e09a7c563640088789dba2bebb97a95e5c9a5a5bd2790b05002e70000000029a1e17d6f3fef94dee33ed82e5d28752f11fb1405acdc2cd2025455d90b47fe966da8bbaaae742c289d3c4c41ce341ec572129b856f54780038f9856af80019e16d026866adbda18b715b3f027d1f22f2a1607284adeca4478eefa300a69bb43b13b8ad913d17d3363fffa4e1a82ec0b20000000030927f74c9de000029448b3fd95d1d15f1bca95674de0ad5a6118ddb125290f3c15af086f56c48ef9236236cb0a49639164ea8d97fd665e47bed2dc28f26b30b0e827e0edfae6f48d6ec5b0dd6c7a369d11150ba9460e30d76f54764008e79712e28f894e318d383ae6a4e9172443dcce8000000002a9cba1d4e4c22c4ef7793bfd0366a33679b62596a872b34c276b0c5cefba799727fd2765aff15e6b5f9d7f1bc2426bcac5663b601d14ed028a468106f939de0108d12b7ca73664b14ced61e4f4132b7b5c099a4ed6eaad1c3b55226001ff1cc88685444cdfea8500bdfc33707231306be0000000029a1e17d6f3fef94727e243e179ca01b4b11a05683f0f73ab2d8f9709082e5d4bd0e6dfd5711ecf26f518cffd78bf9c88220176f1bc49c6b396cb0356e22fbcd07af43623fc49a0f0000000000000000000000000000000000000000000000000000000000561d8419c30093009fe70082e10a00007b00000000000000000000000000000000000000000000000000000000000000010000000000000000000000000000000000000000000000000000000000000060000000000000000000000000000000000000000000000000000000000000014d0e9a5dbcb9f8a69dc1b6f925887a38b90867a96a6c6f310100000000000000000000002534000000000000000000591058872d43e7b79ea3f42ef65a0307cb2188931246024a89cbc08587becc7de1c1c2b3ed775f2b0fe675b15f381601ecf6b614a0fd41570cc3672c9e0b10d579b7f7cee6e0fd549bf8c6844250394e60585cc231ffa0010100000000000000000005f7d800000000000000000e4849aba375307cb997cce5907eedb0f7247e0a2eeee3d59178eec083204e1e201fd2c5a7fbb75d1bfce27cd4fa938f8be55c934ab164caa570b34a548bace341489b9690e7d8a18b287d97c06cb6ab7ed5820e881b87ca0008000000007cec0ebd703f74fd000000000000000003c3296d89cc47599a0da9f494d44137da2b9830d555f7de9afccc370fb066dd456e3dfc0f82103783d1815f08b4795114d3d0aa1b362ecc3612e6d5a8d0dfdc3a41d37000000000000000000000000000000000000000","maxFeePerGas":"0x9432875","maxPriorityFeePerGas":"0x8843ddf","nonce":"0x51214","r":"0x52918a2d9800cb769a08016f2f6fb25f6662f89a7190bde662ac72f3db44195f","s":"0x55015a71064356539e7c5cc552145190501c842cf086ec2e81a5c360b69bff6c","to":"0x087000a300de7200382b55d40045000000e5d60e","transactionIndex":"0xf","type":"0x2","v":"0x0","value":"0x0","yParity":"0x0"},{"accessList":[],"blockHash":"0x3f98e892beecefb0ec72486dfa7c0ab582fa8a8d4e2926d60ee20997c3f1d644","blockNumber":"0x6f6a20c","chainId":"0xa","from":"0x2827e0a180cca0706dbdd96f3ea260008d22f30c","gas":"0xa629d3","gasPrice":"0x3691575","hash":"0xcdd60857a47e778667da493a3d4459b1a7316d5290326e0ee373552ea191a536","input":"0x82ad56cb00000000000000000000000000000000000000000000000000000000000000200000000000000000000000000000000000000000000000000000000000000009000000000000000000000000000000000000000000000000000000000000012000000000000000000000000000000000000000000000000000000000000009800000000000000000000000000000000000000000000000000000000000000fe0000000000000000000000000000000000000000000000000000000000000150000000000000000000000000000000000000000000000000000000000000017400000000000000000000000000000000000000000000000000000000000001c60000000000000000000000000000000000000000000000000000000000000218000000000000000000000000000000000000000000000000000000000000026a00000000000000000000000000000000000000000000000000000000000002bc0000000000000000000000000a0375658570f8459ddd8c753e288f5a25b4520e10000000000000000000000000000000000000000000000000000000000000001000000000000000000000000000000000000000000000000000000000000006000000000000000000000000000000000000000000000000000000000000007dd1d2a09e89121e989ee7c2871c7d6cbf2969d4b5ed4270096daa6d07249b511a3b46fe2af840ab05bee08e2a97b47e17f3d122c8c7a134f508a6c35decb739693830907cf861e1f53a5bd305f485be83ea23eff48703c910f23a9479814072ec177e192541d831faa60000bf440082de0521096644c333b0b74396758afc49f18fbf472f70db8174ccdd8339f479cde7406914c29eb1672dd70c09cd70870ee1f1226436fc6670536c532efb93d830b5d218978afc8441dd761d1fe8fdd26293ea76e4f405741840f2afc4447a2f18ff9ada3d2c9c7581be869017f0e92c8ea3287cbbc655182a6c9220081d6aafb3d423c6424606d79232b707d2ba90f10ac243580e02ced2b8dc0ad38ea625bbf3d6be51edf7265971b479f773e79767e89fd255b927b375e8ee9f676ed07bc190986f76f806c1a73128744f2a4c3e6b78ed744c20f4c53771ec4ff1050aff2bd3d0a6a9170f06165c8ec257308b2252626e22bbac3c47f003c0f912395c1ab81ba1e5070e88c710d5419d461ac83e5fb11bc0f3cd66ba3e230e30f4c714e868a06fec1557a841be9efa948f2df63482864775cc7c4b0c62a47d2a5c8c5a43e2b8090b4c742b69e389dbbe215ce93cc1a7acba3950aa1f331336c1076acb22064cb7b17570f1732d32b37ebf9dfef9cbfca6086b1dcb8d528b12a118c3ef24e5ce329945398df42ea4d02509b9ecdae046b936ab7e27c5c6649e76b4d490036bece6f3194da12cc0b550818c404a88b083543ec42cd8d023cb940a706c16b21a4545e4275f8193d8d83143bc5f7a0cef03bf5ec194f1472f8f8638ccd49573a5a51a0151f209a026c1dd8688ceaf986d81499b4c3087eea5d58cc41c87218042329dd0e470083a398959f690e863cfa1fa2491190c4dca430c2fe7bd4f7d79a8880b7d0a7080c0b6571d9036d8b94d637e686865c0fd959537de0f8f40802444ab545f82cd057c453aed24528d19efd589426ac47a649ede4485eb9a772a9ac82f1831d019a8ff05fa3bbc2174dc6a6fa4e3d73d520fae34472463a19111219c5c64bbef27b886d24c9832d69ae1aa71b9fc18485ffcdd91948730c043abcf9e8263b4f57a9665070b4fab353b8b65dc5ddaf1de296261a04f709da087a8415a96dcb4c8ab3d371bcbaafc8b8209d0c2c35afd7e0ae8c9a20440b002a6c4e718f4826489bfc81c09531018c11069b3b01a710110f11827c127128e4cc6355a45219fe99b138f62f7456b1d90cbf34039151c1876fc31eb70d1c808aef91303aa67bfc19216225645fff65191f2d7f93be6cbc97f7f42eed308fa9a51729ac1b3888b967e5840f2882fbaead1c0ba25155fe293cdd65bc4c29435842e1462604500e3c49289a18fc56a65ec020620b1212ac8b3660ed0fc5eb6b673d7ad8d179a947eba1bc5b33219349e048387b67539f75c93a005917defebf1196706554bf704080088afd9ac136a0e164233eb2436d94e2692d5784e9c207e63c2c22a7f1b4e2c72b741c9aad33e20cc22e0cd8d054b45d721b64596bbefa95a9b9b7acc97c25b1e02d02d8ce39601c1d6480beeeb6343a06212f2fe575a5214dc923853609903f35ded04460ddbc9a045d45079ed86d5f938876ec4c2e9465f445aa4eae3ae1389f4703a46b45ce61601eea23d12cf4e48ca19a3ca383e037b8cbec74d35b21ddfa5e9440dbe5d92510a30a58b6f4f81c99f7c6e249b94f2f0fcb37e86d08b886a6681231857fb1288f3de134452be69f8a649eba40bb45a0370e06e9170707d2e4cd6ca4eeaa248658dfd01c2413f77f500e6c32d7331c3219b85c88aea1b603278e7aa8adc56f9a90ac2d957282228ea50881affc07f69ce8be36c00920709c4c3a03f2f8e6d57bcb65353991329f28c932098f0758027b17a1413af781ee25375626ad60d29d70b3719d43bce9cb830eb1c56eb3d5dd2a9328d1be1ac62021eee2983a1aeb7232a6b633df26afb40e9d018fae18056d248cfb462f4d7114fd4f99dea2fba166a435d68b5ac30f5fecf015b433f931b374a0f92dcd9c1988b09633ca119706ad405e04db971275a0624eea5dff2bdfa5517f3cae0c7dd2665d4b7f7b0c3e2f05fe74e3071aa0d6bfa0bcbecfc3f2677eb03ecf034df85406f23bb8b4da5d4e3417241f6a23e8c4db0239e1ad36ebf05694a66e9d32c831afb4aec2b95e9da60487c29c073241832a71467a0ced801a14cad1f277a8e52b913e51e1becdfe2763b6d3021e931bbc856d92528d804f7d82378f7cf648067ff26cbdc0e01eee4dcc9932b727582289d9f9cb49c76292ac7ac8f8c8d80359076a959a9dd3659ae00b176c3237f5581c0e9c87e6ccf0ee8c864e872d7256c315af9410a67d39b8ae97cd2d774fe0e5af798ed60286546f1fd69a6c0c9b5483f60476d6e13317adf7daf61a4f38b2d7b82c6885610173d771f2cbc947b4ffb234d2764b8281ee4e3b64e30838618cfd34dd8dc6e61f9151ad490d242614384aa79d36fcce66dd6607deccbc7cc19ff49cf2b9d4d12b70be7be34ba726cb80d30ba75d22bf368c891ae3f8916c07eb33b0683f15879c536861c1338ae9f4047d8acc7151bfb3e54ec44e162e685d19c01cf993e267cdec8fba031dd45501da080f6393153adac0a6dcf49b8fb104859254b10fe42a70f40b6f4d25e9ab1de5e5a4bbad4fa97ff936380f6618d7da71efc09bb04d196fbe6d70b2db073c42a34cc5693ee1115d9232e3fdb328d9975422017e473d1bec5e84dcac773ea85ec6c4dd5cd61672524c575bed4f6d8538abf15df064a4f1b421ad6556a65eaf7e6c9701e30453be78215e8d7ccceee43be6cc000000000000000000000000000000a0375658570f8459ddd8c753e288f5a25b4520e10000000000000000000000000000000000000000000000000000000000000001000000000000000000000000000000000000000000000000000000000000006000000000000000000000000000000000000000000000000000000000000005c11d2a09e89121e989ee7c2871c7d6cbf2969d4b5ed4270096daa6d07249b511a3b402fccba5cc1c89a95772034a214f91620e55719b1637f642e6efb59330b54934e67d606a501a9f46a3280019ad1faf6541b4cd81490a54e5f656f1237ec9dec3cd106161e00e307c7523dc15a31144d97508f5f44ecc0ef511e79268c8f549a6e2f9157926a0abcde464fa16679a13dc3292cb202730b4da9c4298bebadac0f7a5b9ae445b7b67486031295fd00b204066aa24e4228a7611dc47502bea62ab4d0bde06d57113f95f90da721a6ac007a5789771c9a7ce1833b1998096a9ca597f3ccdec85e31acd1a0277753879f94f39052770f449f826fe4d4f57729ce194e824418e2f09ceb5fd2546e7317c1e22b4446c2c060b343f45f5c3177a0b1396b71c235100b9488e4c8893577d60f3eabc2411615ba5d0a2caac5cd6b0c588d0d3ef065130c70ab41714b347c913bb101ea73550be6442a3d139cc675ea12a9b7d1c8bc890707c00a413280ed39ab7b1f10f48e1a7ce3a409f9b98a504425ae13ea916b7c7e029612d45281c1a3e039a05f6daff3bfe5d873d2f440d402d456711c9ded0e9e78ce4184c1437097f803f4b67f346e877347eaba1f886c43f51e685564c1f2f97d77488e1b2f7d75449c80d653c49df169fae9e98e738b87973bca55cdddda7f02e3a193b299d1d082d6f477298a18feff8ad1b076139a1206aaf3689aa637285a40219ef91ec667d780c8efa1b4fbb01e26b46d6e52eb60953bb4af2dc82fb5dc7aefc99af063b05a02fbf93323b8cbc82ba78861c6226448f08cfb315a441064ad511e71c3df6261bca2b135f8c9cc677df8d3494e09113f0165779504457fb73dcbc8d6f306889a2e318275a146772de1bfd0f414d53a3e56ddcdba99c234c8be5c26c351d44bb43c60b005e866adc980f67cf34ea74602f74a7fdc6d6c542edbd6212aac35c8707eca806bd2fb4573f4988c022ef413036ca3b2a16e797c9583ba963b77cabb7114c3f415d667fa0a55f5ca49be8a9e7b75e62944610e0abc8d216d3107e368efacd192f828b5cf6eec26a0bbeff02c6a390198fc5435a2c52c7ec839b3107da892f706246de2d2f33ad7eaaf960ea52a3d996b293704748bdf4d9e321e462d979ce130fa6a936a42a8dc0ac21cde79f5c71e888c6b8a752dc7a9832109d25c2109f4d9db4deed5129a7276b1df1c4d80df7a5bcb007440ddb43c64decdad9cf33e64aa30cef89f379a83351b115a17ab8e4e8dd1fde4a2832a71a75e6f21665e74aa7f917eedf82c263ebf4edfd528c2560d31bf789e8ac3b764ee3e441f248173c21586f55c48be6d30421e9d5808c0bd36e60ee4feeb5f3d6b8ad96e1437d1858a353a7a36cbcb0332b0a81d92819e8446c9822a0065d9c4cf178499c8663a7f1bfbd15f4060b132c9e1e42528fceb5236ef7f6750a91d005a0f371d1fe5468d0331cff7927e04114da0bde528ca9881bad6205c7d55670bb374f559588947e750fac78b69c0f757ef81eee744347e92d19beb480555d5efc1dd2ced33e8dae4b2210204aeb20750c05c260dc9205f670f5c304f39dcd4c595b891808480fb9c25ede1aee1c3e5ce52ddfad042d9e93763f00a9a2fe84a411b853742aa660c6cadba6deaba1fcb383077370b2d4acb6217a20475458c80f515f7794596d80b0041eb2fc9b9920f0a7bbcf79131ef4a0e8590679a0bf4dec39b18052b30329fb7a20b856884f2d434bb42da688c34b01a5b38025d9bb3383e8865a59ec7410ed9ded2069d825409e6f755fca5ae4a50a6b347e13ded03ba2cfec967680c03e2563567611ac966cb2a455a02708b828b6091c24e487dd661655fd091b8a3d8692f3be6e7103050ac55cbe89e9fbbdc9ad8fe22d65886801b925e3e979eb3fcfbf48c9346bc922bf00ec32e8e58ef8c127ba91af7653fee9ae183ee33e2a32923a86621d24f694f322483372fdef2a34370f88282f2b6992f979524c9a9a7e94266d0988f2a0484632a6bd421d06973f4986034ddf7a75d180450ecc5b41c4d2bf2e3ad65c5833e6859807a99bf4b2b1abae28000000000000000000000000000000000000000000000000000000000000000000000000000000000000002800f6eb0d1c000000819e0000008ac70c00b97b000000000000000000000000000000000000000000000000000000000000000100000000000000000000000000000000000000000000000000000000000000600000000000000000000000000000000000000000000000000000000000000492f2c2a06db836aee94bbf5d9aa41191b9e59483970074ca567752a7b53d45094219933431d1edbb5b770000000005a3e82ab0a9e3fb44b0486e0e5b746ea16d6f603629609a93d3376b5faa1ce373364be747e557be0d0444ca54e93e2d2afe0bd766c48f04caaf9ead6f5446ae1f32f7ab4019e4101ebdf7d0e853681f1d26298880d9098b5a9ee98c02b77a403814de76ac742009b686c4ec97291cbe1f00000000000000000228ac60d1806e378f9beb9b58788927d949e47309a1e2e305507f07bed3d0b57fdf598f84d973e73fd5e73ca4cf08edf60fd3549b353223d7dad04ce525ef5bef5987d670282087b7c5b97a81d0d267eff1149e391fc923000ed78ae2a0800d6395cf9e311659323bf2822c56000000008ac7230489e80000286c8dad01359dfcced8d147ed58728d4caf74ec861a4e77c893761fcd6a4acb901a29d0791e8c43cfbb60df872974c171aecb6f56f7e6573376e481b7d96ab679a1ae76568899c3d7d446b860730550b28cffeb003c3f9bdf5ddab0d1b5169af29438f3834519fcd40000000029a2241af62c0000b57fd0d187dc027edd47674c32c16edb05ea7bc7e7cac1036b168caf2a524a304f5e4aa2c1394f09910ab9fa11221e9a75ce5ced003b41594ada2ac60647835b2ba55174cf05510f5185a99422d4fce63aee48b800c16af66a9a2b11eecc2e2c1ed08dcf0edcc6729d0000000029a2241af62c00001e744299fd6f24f338f056236ad61f202aa8694604c51cffe8920775d4d26ebffb22f0637a590e15fba7f69ec8f01c4f88dcd5b7bcf8f6529f94d546ffe64ddb549733beeb60f7f7b453f3f06b8dbfcb2d73ce41000ed78ae2a0800d6395cf9e311659323bf2822c5600000000de0b6b3a76400000ebcd6172e904bc3a1e09441cf6f674a582fc0762191c3a346c192caeddae0a96605ab856493db6f3d1c687dd7ac9ed7341e39ec273cc84b6214768644f56ecf9d141f063b386af1e7f498dcc204bca8c23e10915005c83eaec84346f245cb65af9f4018e8d9e954123000000004f38e542f23884ab3d8c423a5cf0af72d34949f808e826f7a7f39a4b46e40e231d0b2f837dfc0f98df65a485bddf7d4ed7d65d7982cb36ea9481a3f4afaf4d4c7892fbd9de46dbaa7b92cd275f2efe9061aa4cf08461198c3ca469b5004df6fef247a12a19a0fbd22c942938763b70f1aa00000000b469471f80140000e001ee5f2e2cd2dda0b6f1884e19a3906ff5a147c9c76ed194fb17d30ec5622eb762bf5053cc75369db6ee4d523ad6dd06e63df9f444f2b70fbd06d4edabdb6e43b9ad3235912d37b0da5fc7ae159bf7f6fdba93008abfcb72311e436ded06a9758a93850dddeb0480000000000de0b6b3a764000050aefbacf4fce905d9707914a12c2e0f7bb4ec2ca0f445618301f3511e0fe2ba1ea486ec2027b8e75aa771984f02d28a538e123892725e2185d723fac824ca4bbe3428a2353c1b196ef714bac99c8810263cd24a00924a4b7ec10b3efe272c88b727449da1391e81cd000000003ae1fe8cc7f92903b6ce8458ce7dbd2f7650c764ba229742c4032a55561d1851f2ab73d06966cb10491dd45e8593900c60c3d0fbcfaaf0bef0704dee933e0d842a01cb6ccf45f5b90000000000000000000000000000000000000000000000000000000000561d8419c30093009fe70082e10a00007b0000000000000000000000000000000000000000000000000000000000000001000000000000000000000000000000000000000000000000000000000000006000000000000000000000000000000000000000000000000000000000000001bb0e9a5d94efa38feae30e491d7bc652a73e2baa3ea4d4b6010e0000000000000000000148610000000000000000031215dfbd4afc331fdda0c0c24c1698d6fc7edf6be6726ed4b37decb78e94ffafbdcbf590bae2df5e92c29b9c6d4248ecb9020b0cbf6d808a89494aa75cc44fc4aed39c50b468e8874edf08f41acdfd7d84465d8125396d021b0000000000000000000698680000000000c59bd575e367f43165493a1671a24d27e0ef6c8350033a89dc8f1a498ed106d7a4c5310975dd877994c5bce04e5c4c921667731355475a073dcb29ce32598c29b2025b655a6ef2f4a12e0c32ed097ae715c8166df9bf6d7baea49f041c000000000015f79cf62141c900000000000000000138baa7d7d51e9dd59d3191aa8c7c22afa3c87e141d225e5ff54bf03cea0c57e541838605895c69b3a9fb33c6ac7b9fb69deb5fca80287bafb9983883823a10d55f7544620316f49c7c33ae613ac8a95237b8868bf11f13022100000000000000000094651900000000115e3242dc7ca2fead525e45111e5796040328c06a49de187fe8face57c6e5c6d805051d03f00f34d06e4f3f2a50bccf59aaead2aa008c227dce0422b977e5a3e37147f925a323ca00000000000000000000000000000000002800f6eb0d1c000000819e0000008ac70c00b97b00000000000000000000000000000000000000000000000000000000000000010000000000000000000000000000000000000000000000000000000000000060000000000000000000000000000000000000000000000000000000000000049226e2fefb9280ac9ff2eb346c72cf620007c9d0b000ff9b74d29d6998195f038a75b296e7404cdc4ac7000000000de0b6b3a76400003b1caded59dabb94c72677ee02df528e25b27d2f3d74cac024513fca37e216358d979d0b20d71937fc6ed3b7d4b08da0325c0abb9735f633ea47d6914efe6190b1024e159a23a30075dc1b4e01c511f2c3ba5acc00ebcef203e43801b67f7c207203ddf169d2f181960000000029a1e17d6f3fef94bf061212e0f615864f5723e0c17950e1467b46faff4a42d8a6ac76d72788efb226fc38e0bc4867a2bf438ab61d0a91d6060606c2989f456049b171ee6d2a2ff681400817f9c16efbeac9a2657ed93b7ddfc09bdc00500a7ab0b87173499d15bbfaa92a21877f79e6360000000029a1e17d6f3fef94a9d6f8b747a192e08a21befec755ac3b1cc2958147347c6f6235af920a32bb2b008be13d5c8fac7bca7591c9c9f8c149057e9769109533c0adc55953f346cad30807b5b34964fb1632328edaa87159a23cba90f7000ed78ae2a0800d6395cf9e311659323bf2822c56000000008ac7230489e80000e23aef53bf51cdf6ad5a55cfa804688731c0a121b55f8a3a0c841a7f1e4461044b588575af31c84faefffc189aa3ab81f1c79b5b87ee2dcfa4247cf7afc9b5c9713c0de6a1b8c97e041cb557fa647143937eda0b00bdcff4e9e55a73fd29dd9d8bd44682531be2f7140000000029a21e1e3c5a01510e3e0251f0594a982b4f81f8e5e068fc17d84ca72d1cb6b3d6722520b64196029286c374f3b93aaffda93efe00a89f5e2c846b5b6d4023c6a6c7dcc30fc226f104022265bc1322348b04ceb978fd7e36a9e42abd006c19e1695739e33325b33b2db516915f3b4ab5aa0000000029a31e3e210a15c39e61c2088cf5222142e3a309c4344524aa7dfde76abaff90ea82c8999b66edebdd52fec8a19e58d24a44339e69eb06ab883406541817a933cabb61d1037c7559f1e9d429b71aba21542facc9b43cf8c04ddcdecc00c55899027e21746cfdc5e72d265a11b93a1f06a6000000001bc16d674ec80000c67a44fdb813dd1763f846cac6932ddfb2e8466b9d08fadbe126d6191f8905d1560de83bcdffd1455afd2d9f8424f4559e8b0866e4d1ed4a7d56b7b639c554ddf5ae98691cdcc0a745f41ce6f1200c23ed543e5c00bcd3c017189164719b7a5dd77dbbc936e4e0ae750000000029a21e1e3c5a0151db61b55a41641989c53c716066a40d725a34639c93054154aff4f46a32127931f0dde1f400623c97fb2365f0c0d74a1931c50bfb4beb23e8fcb65ae9683c96a5db8a7565ecc9a24469a9f0c9379a6f8e0ad0c4920030453b09db79401b521da1c26d8cd4981959beb20000000029a2241af62c0000dee01f090b5845421781b192ef3fb3eeec2f7941d5b1b5de07785e97e21a8b82f495a3b9be687f278d26d359b17f8b08d122b054f2ed5909f08efc555d9ea517cfe65c37f31e6647c71dc0f1e7549d36fb56e14000fdb6be5994173c8c5949e8b47364f14567856867000000008a6247816915fdec1ec46fcbead054cecee569d2ebbd2b251607feda3b68c57a809538fb68c74af4127f8331a18b7b5002f78575fffbd9c60ac7f7026058f5f9446a95a31d2c7a0800000000000000000000000000000000000000000000000000002800f6eb0d1c000000819e0000008ac70c00b97b00000000000000000000000000000000000000000000000000000000000000010000000000000000000000000000000000000000000000000000000000000060000000000000000000000000000000000000000000000000000000000000049276febfa421091de65a9f0b4b3844df71d37452ab00776d0dc028658347fc8595544f12dc6c0105184e0000000029a2241af62c000048cc06dc4f4d2733489b9e2f9c9c79adb62d262c01174d4cfae031f984f9f4a6b74e1a96ad9431ffd891ca31dbc7e93ff3251233881cf3a49ddb1b5ec5ff5f122269ecaa8d49a89069f0215e360a47f60a077432000ed78ae2a0800d6395cf9e311659323bf2822c560000000029a2241af62c0000083735290c957121365e2d62d8c1856b669440e1c3dd61d66d7e8d5d135118fe78033df4b5fd81baef609bba1cdd5137931e26ee9dff513e6115871c458bf57507f5e598162b55f27a0f5667d95f8aa5c64bb423009e4e83131f8aba1b7a6cd3dd748339cbd1578b4a0000000029a08a47118b09ab84f5af0bf5a6ea899591e16684acdde1ad7a4f8e9e3fa09a4aa5fa6813fb32a68a8372a4b852eba7f9c811afa2cedab0637ddae45a6e80fc340dfa36a3084c769793da4832ff9d550b6387e340fc345ce2936d2b0256887d8562d211084557e8b6c8de9b57409cddf50000000000000000014fb18017396952b32a5b9d29e765bcb56ae54a4a6c92d4acda2307ed4781fd0b2541e8f47322dd7c04b178e025286f4b496f27ce67835e830178cc047889dd6251340a5eb4345f4e2677d33bd71c275460ad28d43de034003fe898b49cf0216e425f53193b726d815b3e1e1a000000006f23fef0a11c01dfc15eadfe306b9b6940dca670b71c4ebe657dee2502f56ee0f8f6cf0c13aa91a3637e3b223a76212be6a3e03971591435ebd017228057bdb89cda7217ae0355d94503f7ef2fbd9c4cdfcb198f9cc6daa83fcfcdf40024168d19ec8703a39376f23e0aa83160080ad14600000000de0b510cebd225d16947a7a7cf860208af4eb2ca62bcf536fd3b02ed131da160f313e8bb02330f462617115a146051ec7bc1d80cbe130af9c5bf68471272e7018b2d06e86150ac6054bce2868597ebc897ed96479c2991604a30434b000ed78ae2a0800d6395cf9e311659323bf2822c56000000008ac7230489e80000ed0be23c33b2f780d2b21d4aba829235f5ff5455941b3399644b7049a250ece0c0b695b20ff9f29abb74c5b9fdfae60bbe9b533cda80ab04d18b967216984b6e3186d6349feb589220dda8bbbfa913ed6d6147eb0021f21a5f3bab073c99ae56f47f3eca70b980543c000000005344b5a1a35f5d45329ff460f1ba2a9ce1dfe02d4f187fa39da2062c21662e628d85111e0eee4440f2055eb91448c69acaca9e8234446499fbf66a87c683740f72e3c38c2556b7d4ebd1663af3797bb7ae8cb7a4d74bb69d257c183b00cb05e88d9fb7e251b7285386218c4612ba5b65b0000000008ac7230489e800006af8e8aec04f6782506ec404311e9963bf75971f930ca112331c40a17734120f9fbcc2fbc1ada2251442ebbe53afd187a59022c4a8e5d432e685862f29896085624814818d984b01326cede811aa6223939dc63000c825b7320d2d8ceda1e038c6a7de150fb83c00df00000000299772daf5b3927853a105fc208a9020ee631211dbb4c5ed466f1ad98f841b4f03d2ad590cb6bd3c5e31c5df8c30548da452cf0bd64432fa1946169c6423f0b3ed50c6283246902400000000000000000000000000000000000000000000000000002800f6eb0d1c000000819e0000008ac70c00b97b00000000000000000000000000000000000000000000000000000000000000010000000000000000000000000000000000000000000000000000000000000060000000000000000000000000000000000000000000000000000000000000049203ad68c55c83536cad1949a57207f61c5cf77c4200c9822d2b285f5a151b8fd49e0f17852f167512b40000000053453d708d417cdb86681692e3b3aea2706b5d39f624eccb67a1b378581c8a321f94cb4dcd076ea7f0e3f0841bdd70ef71a75c6ae9c6e8c40557db7c3831c09600a36ad8b189d73197f47d583e2d730f7e4c94ffc6cd63465b376ba2009387356a632ae1ff90040d10f24f3fb2c3f07e69000000008a218fbcee89ede2e0385ba2518bb0f22c8fed54cdc66f8feb774d3a7b7e63921e89dc0fb7176f9580804db5f4366bc35544ca72082e3d52a514f374fe4e4ad8540b57e232a0bc36f614b88f2f56823c9822d97732dad1b2fdbb7c0c00a37c9cf99225b0e828d534349134a3b8880567ef0000000053444835ec580000e0b745d707b07e4e0a0adf2440df4e222011df6578d7233fb40e2cb75a46d45c8e615b19a7359904735a4518f9df2b319d79231ccaa37da381c70b4544ba29ee612bc271d7264613452333723b78664f0304da2c000ed78ae2a0800d6395cf9e311659323bf2822c560000000029a2241af62c00009216e85e538ffa2fc734c9947f818e6b7948b7a0bd6266a3d2aa1310870be21eb659efff231ef6c2dbe41ad38f79663473cc5beb479d7ee830d673eb60a53a279a9f5005c065a8fa16573e67ac62543581df97b20024eac2321dee81223023cdbbccf247efa2b0b7430000000000097bd985c56bebed917cdad948142d595d1b8631c4e9fd198a14ce9b0a1a5a8266bd3ee7498ded962eb710ca48a5179c9e9abb3f751f7ed0900175e57dbf2812ae84830f85f230176ff5caeac9ca532d2ca89a341972fb28ea05810049c54299a59d3c1ff2e3b355817a7fff27eb34030000000029a1e17d6f3fef94d0f03d8bda3242facb591262ab8c3762ec38086ac5b0190eef7b938c747fb8808d3fd3721cbc937cd5a76249963669228b0eb4112888390bf1eb4064d6cfce7cf38a4f588ea924d5d6650ca8357839fd608996cd0256887d8562d211084557e8b6c8de9b57409cddf50000000000000000014c2f10499a013c36d85fc4f6af29a2f699139650c3c74cc0651fb5cbee03da9e85df6f9af21a37051926b54e7b3dc15a7a226f9dffa6cbd139753d3ba1b023a235ad9e5ccf8f50cb55479e59929593e38d7bab987af70f006207266d599608320db5d428cedf54297cfa98cf00000000490c2b02a997f48b4127611a706ca594d20febeb40a1ff1d6abf5e36ef246ec52bb56d15c0fccf85eeca8ba5e9b4435921f1e7fddde81459ee4d017d8b2eaa30d659fe6e09d91b58734e95a0a8ffe5d2d6b226c9735df8d552e3b4f2000ed78ae2a0800d6395cf9e311659323bf2822c56000000005cfb2e807b1e00006c8a7656cfd8eb249a90c88f05afe538f3cbb6928bf870429cd4f917240ba81ccdb42c9a53368737848e083d53a0ae9ab264a760ba8fab2559f4c26f14712194f190ef82c743a1c4a20f1d50c234f4a075266231009927e90679177ada45e56250c3fac3b53017cd4b00000000b4b4af55bbaece99cd0befe95aebf5f3f7c8082cc5b424f91ec43e3d5fc9e849576db804e4e90279ae81aba14e8818e797e53af2a9d884c0f77086c923582a7b8dcccd1481cee50900000000000000000000000000000000000000000000000000002800f6eb0d1c000000819e0000008ac70c00b97b000000000000000000000000000000000000000000000000000000000000000100000000000000000000000000000000000000000000000000000000000000600000000000000000000000000000000000000000000000000000000000000492bcafc362a3510da10eb912077059fa624081f65c000ed78ae2a0800d6395cf9e311659323bf2822c560000000029a2241af62c0000f4a9169cc7a2ca0905a89fa31cc87a1643b3c5b5d41e6f07f137df15c1d5366fc780207c77f60b331b93cf5796303e02e2779f37ffa98158b3ce33cc118011024ef2d1863a175394415c9be6c962028cfcf9d382000ed78ae2a0800d6395cf9e311659323bf2822c560000000029a2241af62c0000428e1d038fafe1c02f23b11352ef18732e6033f3dc0bb3b9f5fdf675bf059b12a547576381aecc4d00cd08a782a058656a9d43b96237eb57f5daa448289d515751a2f0f473c4b2ebb2ddf123ae1d34306736898a00a1ba52798a30b755222f8010d497930a1fc7c8ac000000006f05b59d3b2000001e50505c16bce79159527d5751f823e064bf003168cceaf1951274246d4894522a16fc4453213f2a040edc1a3760ba7dec4c33956b78d75a99375ace041dbd312678e0d620feedc404c9353bc9ad75c1c2b3339b008460b4cd20c345bebfc9f916512bbfa0f22511ee0000000029a1e17d6f3fef94fd2062de06aa4d4385cc5c6ca2aa147cabd3f4b71b9dc981f6fdf3b28e6233ab903f8857b0905cb765ab6280551649cfa74d5a82947977ab23bae74a12919e6491f77b9df8b8a30bf25d2bc21f6987f4a5c95dee00f59f6879bccfa17d48c70e093c5b10cddc23f81d0000000028a07591ebce36e8f6fa5aa02dc9bf86263ac26c785ae1194232c039e82e7a650d931d12a37bee5c2d3aba474cc292d0f05afbac281e5ed765c934f7b4a278df3a079f8bc170b8d74d5d34aff68011e9a6603ac8f0bccba0328b0dab000ed78ae2a0800d6395cf9e311659323bf2822c560000000029a2241af62c0000ef40c96679f8e59fa9d0b968b8979cf5fea33a20e9e5f0577befe24bba26868f7afe228081de448a4a6e2882db9434c8d6eb514b49e4de88685f8311a7c6bdd250ba697a15d8205366fa2c2137a6ae994636f872009355d6aa3edf18ea51345416b529178b330b50190000000029a2241af62c0000d5fded490ad7e5fa3caeb69f97221a85fcd1b2124cee6b9e8e422a8efec4c98d0788dddbb7abe2779a78a057154f744a5c54fdacfd3bd6b263d9e7093c2e3e1e13d15055f8a2f446761775ef9e46b32ada4f221200f36d381318e3a03fceec8a6cc5a81db46a9cb2600000000029a9abc49e3c0c889ec00146a0cf4953868da8fb4ff8e1a067d680f7d76a77b28b291fc207b8195d267784a16d73c9f13b7f9e62cf8a13535d127701c3c6fad898d1d3c4fe2a69868cdfa55fe14eefc815e227ba06521303db43d762000ed78ae2a0800d6395cf9e311659323bf2822c560000000029a2241af62c0000bd9c8290dbdec88cbe75ddabda605840926835837615dd0106404d44e3b0fd352d300919f8ba5f4be84fd9fba59063244d2aaa77ffc15376384b7b7e9a889f7d2bdf07188e083911f538f128c4968788de5a479f00b133104647f763f7c54eaca6e2df53ebb52852a00000000029a2241af62c0000a292ed704c4165436d41f0013fe62687442110e9e087a13a756f1aaf5b2762da55d9fc11500b88d14820726ccaf576a4049111ab88017e9f4ebd7907d8282be700000000000000000000000000000000000000000000000000002800f6eb0d1c000000819e0000008ac70c00b97b0000000000000000000000000000000000000000000000000000000000000001000000000000000000000000000000000000000000000000000000000000006000000000000000000000000000000000000000000000000000000000000004927843df67bab397e66870acf0d79f3fffe3886f6a0038f7ce29d3b5054e5426f31d48a7a76eb04793070000000029a2241af62c0000c1548fc661d5915dd7c3c2268063f6a1353b99b2c1c62128619685991873d11e0be2ce2d0f2c063ac2fb0e7c059aa6afcbe0328a553cdf3a4a07d1ce83abd35f34865cd630ca79da20714642599ceffc9327ea25000ed78ae2a0800d6395cf9e311659323bf2822c56000000003782dace9d900000d7425780382675a2be401b4c7408ba96a8e1835ad5b0b3e357f06e6e83d6b962fec7ed67ed087390d517138d988178f60acfbf3ba7d619dc66b522551a29ffd6518d5b17c40496a86bb58ca21450f947af6f55a2000ed78ae2a0800d6395cf9e311659323bf2822c560000000029a2241af62c0000a344767c24a7d5ba2fcf82d40de441d4d661ef7d8d0bf223b85b29d9f54ff2d713832a223faa99a927bbeb9ef669066278efbf0431ea4d5c8a9d342793e4de2ba3736f97f87c6ccd0440b4bc8a86a253953c08ca0085235ab0828e39e9c78d4e560f8f91ac0d7709b80000000029accb2ae273477550a108724d3a3fedf3f7c46258b1bfac7bc5f62b8ef76771a365c5978635f9b6682b2f76239fff85cf2ef3ca6a1b4821b386fd5e3789e54cb3d13e6f59273f80726c1cd36046400381eeb7de4cb8e37e77293d2d00dce38d46cce412f7492beea69187bde56055430c0000000029a2241af62c00003d4954558b09171f6224bf77915d3ec209d82cea704a1c10aa5bbb17c318b0fafad69c047e13bd1351178f628e13cd5aa759fc4e9a26c25f8971f94043435877c9a04b4bd86339096906691ce980e4b859483599000ed78ae2a0800d6395cf9e311659323bf2822c56000000004563918244f40000dd1b2a30e0b2536353d2980f6d7fc76f42a0863e0f3fb7aef08784af177c83202a5ba6100d740073a846376d6693cb87be9393407c58bb3a8c10375c6c048b41822f54d33f90a22859d8ccf2780920cd4da2bddb00028cf0141553c32cfb2a8f3cbbf5ea2eb0ba19b80000000029a2241af62c0000559dcb169aa644b8c9696821ce5b24de4926d3ddde3bc48319d900a83619538441f8ab21671098523372dc06da770bcf8f5d837d65eee0d9f86b144cf9b9ba3225e4724686ceb6b876b395aa1b19a03a7c1b743a008bf6d3605af7ed7b8acf26fedf9a3986cc4155d70000000029a2241af62c000026e27bd4272add54193799d83ebf6d57f19b88f552ceb3b6e260ecb893c9ee98cddab1ca5e93333368d1621d609e9616f5ed6cd32f55cb494f36b11c7ad0fbcd35af1297f9e317262b48b3e5960bbd7520bad05600181e7062630555a2cabe30a24f57934350e7302b00000001d7d843dc3b4800002d9363daae98fd5c9bc20a5025b2f04e4321c195f8ae866d21b48c08de60f3912e3fd58839477abf066185f2489b116de7e7a85cbfabf7d98769055899a451b1d166c2b72cccc45f2902d8985f90b271a314adcc009cc1e5eba47c34460a4b4347b7011468f6447fb100000000b4780f0190ab9f50f454f2c102c6eed3aa0484c2043a01722fff3506a49478b6224ec8560b5a44e93ee61699093af5279f25ad559e712451f16cb5c6561936c14f26e45b4bd3d0d90000000000000000000000000000","maxFeePerGas":"0x3c6c983","maxPriorityFeePerGas":"0x30aeb83","nonce":"0x51215","r":"0x3090a6189d7da19d37be0529b89fda0c5c28e5036f96d48d2b85f86d35620e4b","s":"0x1bfdf4354205609ef9f996e3534dfddc7871642678259ec6f064ca2484424f2d","to":"0x087000a300de7200382b55d40045000000e5d60e","transactionIndex":"0x10","type":"0x2","v":"0x0","value":"0x0","yParity":"0x0"},{"accessList":[],"blockHash":"0x3f98e892beecefb0ec72486dfa7c0ab582fa8a8d4e2926d60ee20997c3f1d644","blockNumber":"0x6f6a20c","chainId":"0xa","from":"0x2827e0a180cca0706dbdd96f3ea260008d22f30c","gas":"0x2c49bc","gasPrice":"0x36e4f34","hash":"0x737c8e540794f6435ca85d8354f67dd881bc381cbcdb482ba7314c4b72b3fe87","input":"0x82ad56cb0000000000000000000000000000000000000000000000000000000000000020000000000000000000000000000000000000000000000000000000000000000500000000000000000000000000000000000000000000000000000000000000a0000000000000000000000000000000000000000000000000000000000000038000000000000000000000000000000000000000000000000000000000000005c00000000000000000000000000000000000000000000000000000000000000ae0000000000000000000000000000000000000000000000000000000000000100000000000000000000000000007f8757ee74f1623e7e96e32c13e5f8edef94f140000000000000000000000000000000000000000000000000000000000000001000000000000000000000000000000000000000000000000000000000000006000000000000000000000000000000000000000000000000000000000000002482a09e89121e989ee7c2871c7d6cbf2969d4b5ed4270096daa6d07249b511a3b40000000000000000000000000000000000000000000000000000000064dbb8a80488d043d8ff9c5b5511c9dc6a5e54408f1cfdca14f0d87b711b4448e14429a14b171a0832160ba4b72942cccf508b7d935c0fd13bc72d6179a52fdaf1f877bb691c51a168a189b22236a637fbfd9f02110d9017238f9f93a4d5909d7b44c493d7a63bb70a494cb0c9d1f2645a74e7674760090b01d4de2e3b9c4f0abe19ae3fefbc16b8e4c58ee47c715c5f1ff5a210a442c66a401700f04f0aebe469a656d7da7f3f37ae4209297dbe3dbba6bdb6f17bcbc00c68353f7dd97113ea29e4918fc008b41167340c802ba19577ecfcc830b62c533f170a1f606f84242750693ffec35960254617fb16669352ec6923376b2cf9670b0000000000000000000000000000000000000000000000000000000065d9529777ab1aedfe979ba6f1f3edcfd4a8c2c703c79be7128df69882ebd702e835f94e8dc683a7d9ff537ebeebf159000172df5bda05b22e249030856bcc5c65ed304ab0e66a9c577168cfcadcff51ab0c49e6ffc4cbcbb08c644aff4d049b83d5caa34834fde1b605de10f5c7186abcdfaa844b93b68c2500ec142e6d9049c8e7c1c5ec5aeafa425644f70a40f4b39f0e3f73ea63644c167403f3832762fe48707d8f2e9e2cbfe0a78addbff784971abef3d470545acb28016e8d95f7ec1914b32195f200b9e1e13226fc365a219666e26b1f14f7f3b84ba8ccccdccc0e3894dbb4183001dcc91301de3fd4bdc56cf82e351a8153304d000000000000000000000000000000000000000000000000000000000000000000000000000000561d8419c30093009fe70082e10a00007b0000000000000000000000000000000000000000000000000000000000000001000000000000000000000000000000000000000000000000000000000000006000000000000000000000000000000000000000000000000000000000000001bb0e9a5eb862cb7791281f36c0e71ecfbcb25dd7fff43e690001000000008ac70f0f73d6af0d0000000000000000042dfd294e2aac0b34d58eeb1365058060a0179f716e481035aab556f156a40326387d3b95c521954267cfbd868346a543372b1893ee777b8766a02b2ab866b67d5b663026a775f7bf4d2e0611f48d1d0ac8becdeb4a0317000c0000000045902f63d82f511b0000000000000000022a1973a0bf8beebfb6ad1f7cbad81465016516cff568c6458d7c039add5c60662fe23ec3b3eff6b957f2ab90e7c11a416e1952d3b07d50944d7949963bb7d70a69205743f4006c9fbc96d55dd94164e581bcbac9e98ead02170000000000000000017d7840000000002ef00effcea270647e546cd0888f498729c70c95876be74633e50258b2b1d6127918c4415e9af1add7953fa2530e96973dc0ce693b1f9b8b15ba1a739e8710e77aa5ba6a5674ae56f197e600140668734ca1ab780a0068f029330d9a021800000000000000000998c29b000000012e4a4254d8391a51ffb0ffc725163c583e0da3527eabd309cea4229787c7efde40704ae14a4a02181026e1006ee09f0cd8c7d4ea4448cc6ff64a64f9a71676a70d49901550a0e3f600000000000000000000000000000000002800f6eb0d1c000000819e0000008ac70c00b97b00000000000000000000000000000000000000000000000000000000000000010000000000000000000000000000000000000000000000000000000000000060000000000000000000000000000000000000000000000000000000000000049287b91e9737ade9212c70ed2fa87ea2ebd639abe50060bc141b36f604cccc9155a37fe404157ce797370000000029a2241af62c0000483aae4711343486620ebd0539067b5629a815ebca160ee9c52d862f13017be648ba2d44e87ccce8e12b507864f82eead2b89475ee6f4349fb1292426e56e7041a00af550c5dc0a1302f0331578c296faaaa442500d6cf98c3d6c5e71e031a20a46ff9c6a0a1da0c770000000029a1e17d6f3fef94194a117c66a1e20688e3b900e697798e527526521979d9fdca11de7a84057cd3947721272378a1da292ea775586276198f856421795548090601689c3041daba51bba8903d5d842bc4c27d3aafaa69457d97358a0066560ec6a6961bb9ef78ef4d687e707fec9aeabc0000000029a1e17d6f3fef94c966aaccc32b0f9617449474b7934988f1a69baa893548b6314748e94783a1199dc7d1204ecbd9af36613945ab9101a9a19e50ddb63d5db51a8c89b7742c3fed6fc692755e0ae5b276c337d63bb02c4d4fb51fc9005eeaf71a8f3965d9fc1d0f4b04f27ee3be0b1dff0000000029a2241af62c0000d6f5cb12c20686accfb23c54644265125727270a0c3d9abad85245fadc01d80975b940176eed36892717d4cf786ac471bb5da9da5055042d334bd2b88d8a0cee052ddee3b8b0340de90601877c31904b058a98dd000ed78ae2a0800d6395cf9e311659323bf2822c56000000008ac7230489e8000024ae8e45a46cb9c39eaf33177a64430ba768fa1baa7b1e37503978a500b274690e0c396edfe1492c60a93a2d7ed5b143024bfed10bcbc6720f7968e8832d1afbee841f8f2d63f28ace62b5c30308550a6c301fda02cc495c3364ebb39b730c6a529e5855bfdad36c3900000000000000000510ff4025fc66f11575f36721417354d4e1fc72783f86363b89b74cf08cd75e33ae1f6bb857b126b6439cd2523e3da8909af884102939facae0dc7c805bba3e0ea355834a0050149ed9a2a42f7aec8749f33214cc17b99e00e3e61fd0a6ce6dcc7a47c23cb6cfe802a1c1b2110000000029a1e17d6f3fef94de3ab991312176b130fff7a3aeb4906a6d746e1ea321af4fb85e202f9beab78fc421ed3d66471653a5ff71497e222b8c28afd936b94c335096aa0da93491f6606269da971fe212ec0b687d4104b16dbfd323694e0053ec9d3879443354b085cc4a3cdbd78380cc546800000000299772daf5b3927852666d130e0121716ad63dc6441a9810d90d54347bd2a23e0d0af1b3e81590ef69193e3ddd623fac5660ede927c41aae776ec5dfac656834885df10fce20e1dfb92c59a5368bb647fd3e988ea1fa568c12f2636f00679ec0d51159681be736f771ee03295c45f49f720000000029a1f7f553e7a0883d69804cd79cb8ec0797599dc8cca1c3eb00ee45c42b7acd18d4214582d2d1bfbf2ad753c58c34a8fb9655743ce96deed39426df937ee0d4c33b91ceea94cf240deb43dfdcd7a2cbb08ac6cefe6bfbc0d1eccd880046cb05778ea5083a2995a1366cd61e971dd403950000000000062a1a308d1fbf19aa2dd81e4e2cab31df3dcc4f1be75885ea04559488ffb951cbea2542a1c07d0c8f42d551cbf59e70bccd92c6e8d6d66d1ec5b46419e2304873a36ebd22a6de00000000000000000000000000000000000000000000000000002800f6eb0d1c000000819e0000008ac70c00b97b00000000000000000000000000000000000000000000000000000000000000010000000000000000000000000000000000000000000000000000000000000060000000000000000000000000000000000000000000000000000000000000049217f756bc03cd1d00f0d5250bd56b5c2f62280a2b02b4c231e1118301db16540ce6ebcb995b71eb92c7000000000000000003bbae380af937e42f205c60381d7a85984546ac70424b08d9b123c7b36b64c50d26d95fbf1ccd2624d613efb1da6a72b44f203c78da584b503f9767e815521d027ab2126829c279e01e267578e3012f6f292e1606d9fe2f00e5e1df39144bf0c676a4b55f44f93c80b680c63b0000000000071ce3245410f0050f1ff6b84e41fe4ca48b0e2fe4613e5e016b39119f7a106c4c300bd8eb2c5e4f32d35c32d3673766af3b6a3b0323a2f1b7f34e4bac129dc4c53c68042d77a66173963f533eae78f4250ba6f3bfe9191d53d8bb00995468a4052b3acc25abfea2a2f0b9c3a9aeff220000000029a1e17d6f3fef9406ed11dc60af7ccf077765ba9013e7a9132b4ce9ed4832730f0ffc4423807dcdd524f12c968390c66831311c15be915c5ff1f5e554bf042ef73a52ec9ac89f9a8b4587db260466655487270e9eddffcbb33c7b91008737358ebf7d46a50c6e0b31d160e809de6caf69000000000004be516c2597d557b15fc109411072f884371b23a6d50f646a08ca95c223e5cc6a33d838690015383e03bac7476cbba9453fe1d25311f783367aac355f6a88ff5b5ed075eb89dbaede96ecca90f847595afd0d16f8f5009c7f2691007e22c53f4e024085dbdcca037591411be8bd2ea0000000007840d982a721d105fab5a9e2816d2dc8b5fde226ec85c48b9e26ae39a9903d3cf0aef776c9e33e21f4d828b5cf6616990a9e06454fd14b4971eaba91b4d30a298bd0fc7b262b888d5757ba57d4578973d87b6afa7e0bdbf6b9d900c4000d6cd67dba59f92dcb23c9d309345325d8d6b94800000000000ae806f36fd5b4db48ecdcc866dc189432629e22c0d344f6165e058c854b66bdcf2ade8db12e2928219f1fc4cddc46921d87dde3c001cc3c7517c072c7f73c07d5fccda5a2c3ff9aacb37ebe9587d19835a92ce973c1fec61fadd200dbc3a6743a1b8e1c48302a609ee835b30b413dd40000000029a21e1e3c5a0151526a9cf83f65f43173377823ad9c40748d040d33b67b67379d5078c12367306ba75758c79f9ac2dd769a874d43cf82127db45e564a8d9b34d787edb860727d32ca043ace91514af2d07ae22c7e2fd6066e2851f9007e127e9b6c8ebd8110b46e0632dcbd80dc777055000000000006a37eaa709857fd7817ca9e9a82eb96b3ebfb25f0103513ffdf1530d180cdd0b48ba870bf3292a73997ba7099ba99da72380cb06954a0ff1891a229dc30ae03f3e7823477f8f310309d74018425b8bd48fb1c7b76359917ec6c1c00234e91f8cca5173ae17865a54d321a28a598484c0000000029a21e1e3c5a015185e39e326fd402bfb7da25ca7943569c9590576dfd5823c508204d29b9b0366543c747e7f732a9b7ee7f99ad01fd1f4608e702b2ac649b969519c13111c51498660f959ea48ba2881bcbf0a12bacc7be4beadca8000ed78ae2a0800d6395cf9e311659323bf2822c560000000029a2241af62c00003b97da5775a420b2437371c5bfef77c0ef3abc00122ee350d98b71f09f0dfacdb270a950baeae022f0708fcc9335532dadd5ed39884ab3338340ae9bf7a139b00000000000000000000000000000000000000000000000000000000000561d8419c30093009fe70082e10a00007b00000000000000000000000000000000000000000000000000000000000000010000000000000000000000000000000000000000000000000000000000000060000000000000000000000000000000000000000000000000000000000000014d0e9a5d4ff270e99fce0f7047cf443089f288ed4af3596e000c0000000029a4d890874cc232000000000000000001411f22aebfcc75f365cccdfcfd8bb950effb6784ed3b265abaf916c622682d42f64ce09e131037e650e5ddfe6bb7a780c712f8cd3d43a3cb28e78c00ca7c15ef91a0afb5f587ea2e3a9929524471849e42367063bfdddb00120000000029a29eb846a0be6d000000000000000001410e1d1117b3aa210e80ac6511eb3f8d62f25f76eead3eee7d25e25beba1d6a38d6ee8c823840b10da5e404033050fb27c0af48a31bd671ee23ba4c1eddef312d19e4b3a14d16708a31928c29c3e35a1f58c6e6905cf0f02150000000000000000009896800000000012c66cabc63588f23fd77e1be528453c77ff578174a72519f0d3d0f122da0e41a5737a59de4595050b10d6941c3ab105268977f83347a88130ff0dbb33a6940400d30354e5b3cd9f00000000000000000000000000000000000000","maxFeePerGas":"0x3ceaf7e","maxPriorityFeePerGas":"0x3102542","nonce":"0x51216","r":"0x8bfe963e8aff984a245440c2641594cee72baa89d786369ac0e147460afca3cd","s":"0x39172745f2437b84d8be2f31618302133591506130c5a3904e44a7ccc4e46ab2","to":"0x087000a300de7200382b55d40045000000e5d60e","transactionIndex":"0x11","type":"0x2","v":"0x1","value":"0x0","yParity":"0x1"},{"accessList":[],"blockHash":"0x3f98e892beecefb0ec72486dfa7c0ab582fa8a8d4e2926d60ee20997c3f1d644","blockNumber":"0x6f6a20c","chainId":"0xa","from":"0x2827e0a180cca0706dbdd96f3ea260008d22f30c","gas":"0x1609f9","gasPrice":"0xbd0996","hash":"0xa646e3f5341375c249cb1e78c29c0efe2afdf29df8f1dc35bc430cad264cec63","input":"0x82ad56cb00000000000000000000000000000000000000000000000000000000000000200000000000000000000000000000000000000000000000000000000000000003000000000000000000000000000000000000000000000000000000000000006000000000000000000000000000000000000000000000000000000000000005800000000000000000000000000000000000000000000000000000000000000aa00000000000000000000000002800f6eb0d1c000000819e0000008ac70c00b97b000000000000000000000000000000000000000000000000000000000000000100000000000000000000000000000000000000000000000000000000000000600000000000000000000000000000000000000000000000000000000000000492b4c7f10d6e6e58b36beb2d8c859d4125864be36c000ed78ae2a0800d6395cf9e311659323bf2822c56000000002b4c777833380000fa1f89a20c4ba6b9a64df92db0b361c7e072afcaf2b60d7ddaaad25c6edb2cdbc9bc9fc02c56e59c7887aa99cab69eb323fe66545e8737e941bfc2cc06a8a64ed90a52a27cc9831d1ea2e2383ca90f95cf119f7b000ed78ae2a0800d6395cf9e311659323bf2822c560000000029a2241af62c00002106e90e9d1254b5596db69962edb3f2a41747520478644bf8e799e7687f8c1152746b1b5d6ada2415b0d4805588eb8944fcfafd3e60fbe7e2eef8b89d27c3720aa993c819e673450e5c80ddd398bd9e5a16406a002e376868e5f3b25f925e6f1a627826cd70726a550000000029a2241af62c00005e04d05ab970dea8c3b3dd510a69937f70df8a85bb471dbfa47d137cc901910b33b8695fc8f45332baba516f2fa339ed37b432cfb227f22cb99876a4916414d0f8fc187b36e2b54c3e02f5afdeb5d35a7d520de700ce6cd3f9b36a0eb8f7c33ef115db25c0c3c00e20000000008ac7230489e800007f30549c08fe0960cb282e2439b9b405daad2418128e104e628b7cf7c90cec9d9b23ca549416fc0909b2f3e45ab2069e1dd1e87b819f63c8f6cee7e12bfcd6813fb42b9f2e6a2335e1f01209a1e817e3cb35f59e000ed78ae2a0800d6395cf9e311659323bf2822c56000000003782dace9d900000c216122d06da19544e2d14aa4633c2314f4c133e30b5befb64170604408976c89b8a34bd5ea4b9e28e1f56a98a05c0aeeefffbe96389f597e84f95c911a58c9143a1b61575f534803f04f54f029c889979eb601b00943dac1897816593dc1f5842c8a8e45cea10029d000000004563227bb96a8f4cda4876469b2028dc590027bbd5a143b78b8d185e09785f9375a6d44ed11b1d9308ac90b11cf3631140e7f9a57d56a3dda021f223f54e42235887ddf3afb06978c82e07b12047b85ecf0f8fd750890430d29df150003fd8e0372ce5ce745e2ff5fb8da1ac9d7ac0622e0000000028c02aaacc4bb3f85c742e7bcfa73e27e01dfc2cebbfb31d07661616f21ff8a2ed26e692b71d1fcd3192c0b3c5b7db7dcfa693231bcf5a001d6e26c238931db04e01c196b78877c1dc9752b694b848192b77f02d93065042f7e4b2f8000fe7afc0b64f464de078b31804602757ef3598f3000000007f2e0e0580eccafa037191ab4c32beca76a211b532b2c91dfe824561ebe7ad35f7d7af11b1359ae3936c5ad29b3d4cbc734f7a1230d933b9f06cedb4399a41aba67f71d01d9b87e3acfd65ce912214a77bba3fad27e215381b1ec7b0007eda2fdd88fd2ffc13ac35091785c4710174751a0000000029296fcc7f8e483ea8d61e6f9ac7c6970644fd04f88bdbc34760cd15b0cc6ced5bef73dab227bbb4e7158539724457f8c2c7d36dc59cd16d8792dbeda2014a325f2c2b0e1080b77c19d225b6ad76c6b17f77065d13380290cf565c7d00abb2ceac2d812aba6767c84ebd3e7b2dc75458790000000029a2241af62c000001d49305cf4cf7144bd9487cc86d40bfabf87209436bc7935eba67618c99a44f5b8be0d417fd040ba4698572bf85df69e2c17677960fd74bf60dc6f09902165600000000000000000000000000000000000000000000000000002800f6eb0d1c000000819e0000008ac70c00b97b0000000000000000000000000000000000000000000000000000000000000001000000000000000000000000000000000000000000000000000000000000006000000000000000000000000000000000000000000000000000000000000004928ae05209fa463d1071b4ef15cfc40d77802e0b7200a63d7c876929365661f86862b687bcb52311520000000000b46a856b43866927b36d6bdb9dfb490f1eb5b72c7258f155998d8a90147e83838b00d2a54071d069cc36554634b1e1732be155165b8cc8162e61cb33d74399e352717939ef42550b00d7cdcae3fbf5cf9f710b8a691c2d2d28a30f4d00e6476b5a2b8002cc039ce768413fe2158257d7d40000000029a1a4b911aea6ad6d647e47c7f8c39b6901db3eeed9f6f45c5467b6026230d6654c19c6ec94d4fb915da6b177de55ff6a8bf44a68cdf0403e73a3ef14b7c9670e2b7bb532508808af9ce7135cd2446058668e712152d16e04d47ca3000ed78ae2a0800d6395cf9e311659323bf2822c560000000029a2241af62c0000aa389af1320c657256227f924e3e625f005c196005daad4d197eaebd9d747b882830d3dfec18ba46c7482b2a02b98b9b1edd77084d014c4a2be88ab45a5129f63141a1d0cc1de232eff86b2b7f197cdc9bedc865000ed78ae2a0800d6395cf9e311659323bf2822c560000000029a2241af62c0000c1e95ceef78d0eae586ddf2365e0939b101f41044b2efb227f38d9a9fcf0b377585605266c082247ebcef4f27e85be7dac7a2ae7c45eb22fcdf853001a41f88b6d34eeddcd90a9b5c99c2812328a28009e06af2d00e3917524a434164210e07e84244fb4abd8f57b90000000000000796479e378991bc985064a1618be1f2399f6683e14e8dde840f65acea71b0033f7e2a6acdba1b8b712baf09c4e56c1e31003e47e7c61a5bfbf37780fa31ee6d615420310f98bcb9f53c2052bc904d7b28103d2b8280629a988c900c4fb29401f82c669ad98a10236d90356da4fc45600000000267060d8975fcc64afc8a536be7ef25735273cca629e8f5822f1c4988c87872439eddd68f5633bf11d4be99ecae046bb86243d1a58dba5040b6d53877be09c2cf3a6b5db5fd4575278f0f62315d881cec0eac5e672c439af9e02770600e4c795fa15c22c0f63517099b32992375cc0858c00000000096682f1ccc48a006395c93682d7c5eddf6e7b6f09614ab67560d11c442052ce737c1eea4d9f5847e2cddde844902cdb04fdd92f8f7478a2ddd38c1c4959398f20c0935772426aa46ceb68ce1fcbf2371e21d0daef085cbd9061940b0038d0bcc19a49e2fb7497e1d191def3e3d2707960000000000de0b6b3a7640000c5448dc0a0bc549685d257aa5affd745996b20a06994b26ecb04e8b5e85bf749fc0d9bb11746b3408a3eb1b35418a5906713aa51237f00c9af4f40f2f76b38f4bab8984a4f995e1dc0e73b4d03f61fefbeb46dfd004cb9f0b50acd60cea4dbfe2b583883337f31a11600000001158e460913d00000199642cc27f9fea5e88d811d298493a107d4423569b5932f482ad79daaab62381a8338ec6949d33391df8ca5b5ad539af5b65abf6e7c7745d046ba6c766fe67a26731866f19d661fa973ad717a82382f5be4e68c000ed78ae2a0800d6395cf9e311659323bf2822c560000000029a2241af62c000097c7433fc886f11618aaf6cfd83cd5c7ec76dab883b5618ca77d2e77750efaec352a13e339577dbd848a3353e8b9b198259a5834ac040c164307c466d2f7bd940000000000000000000000000000000000000000000000000000000000561d8419c30093009fe70082e10a00007b00000000000000000000000000000000000000000000000000000000000000010000000000000000000000000000000000000000000000000000000000000060000000000000000000000000000000000000000000000000000000000000014d0e9a61d6827d14f4b27939b1f5076cdc4433fe97b2b085020000000000000000002bbbd8ed000000056191e2e512f13e116e0a5213bc9e421db3ffeb936241c4480d4d615e238f06ae15ac15884f1b61413ba580e618735290f547e28e733ab9adac6e76e9a20f092becb5f9ac5f218300e09e9104943f9c244d03aaae9c41d70aa520aa5400070000000029a41d49d5dcc470000000000000000001411bbf794ee1851356692209ffae2b9ff44b6a0166d7b1659c7761f2bca21ba18239cc9ce91b324abb9d348ebd1b0e84405b605ff3231d1f5b44105e1edd4bc6b0336146c0fcbdcc48f5bc9269e515941c168694f33734020c0000000000000000005a83d8000000000b23297a490d1cd283ed035ad6e1ca709f3e2a155b7b21a96b88239804723741ed93159bcb25b3beafe5d6ef9f1e1281383c15f3c0c2308058269d506a2bb34db99859debe9dcb4500000000000000000000000000000000000000","maxFeePerGas":"0x11866b0","maxPriorityFeePerGas":"0x5edfa4","nonce":"0x51217","r":"0xcbcab61d4ab4d2d9f65cdd45e92e964c9aabb57ec6bc948d3c8e241e17804960","s":"0x169084e2d3a43ed5417f093c382f36f80b982d33f7c44291ef82ed303a685a6d","to":"0x087000a300de7200382b55d40045000000e5d60e","transactionIndex":"0x12","type":"0x2","v":"0x0","value":"0x0","yParity":"0x0"},{"accessList":[],"blockHash":"0x3f98e892beecefb0ec72486dfa7c0ab582fa8a8d4e2926d60ee20997c3f1d644","blockNumber":"0x6f6a20c","chainId":"0xa","from":"0x2827e0a180cca0706dbdd96f3ea260008d22f30c","gas":"0x43f048","gasPrice":"0xbd0996","hash":"0xff441e6465b9d72115b9d7a23193e22bfbf6fcc05beb9fc2f3d0c6438aef377c","input":"0x82ad56cb000000000000000000000000000000000000000000000000000000000000002000000000000000000000000000000000000000000000000000000000000000030000000000000000000000000000000000000000000000000000000000000060000000000000000000000000000000000000000000000000000000000000082000000000000000000000000000000000000000000000000000000000000009e0000000000000000000000000a0375658570f8459ddd8c753e288f5a25b4520e10000000000000000000000000000000000000000000000000000000000000001000000000000000000000000000000000000000000000000000000000000006000000000000000000000000000000000000000000000000000000000000007291d2a09e89121e989ee7c2871c7d6cbf2969d4b5ed4270096daa6d07249b511a3b494be64ed29004ee333e971123d3119227bbf4278218db86a146f458e641d79b27b4274cee0caaa4fb7b5be559a035fc8c3955bec087226da4da9873a90151ac4f5c986315ad3bea350e6cd04d8145dcc447db9db795c3a3b8ce620f9905f50b53081b9535908f3fe1ff3ee55bc4cba0668faf07f196e204f294690cd73dc3636a599b3be8d8192a46aa2d6e4de9f5228bf78eb1e2f5eb38ce544cddd84f2d31f0f7937c5f8206120e8c2442bf824969b5528727301b5f85553bfa4385d8b0f297c1488beb4a08af518da836ed4562e2445c03b1f62f536fbbc0d56edabc2b83a2b88a40fdb14b71d26b862185a1e262c292f0fd16cabe119fc97efda6779da3f7e21347ac8aacbca81ddd1a76bcd60f683735de2f869f2d83ce452f9a0bf78738506f1f215060ef905a5d5cefc84f60cef917ffca0d666d41f26b75d5a6d87f53322b1a27ad598802888da7e374309fb45bf787dc98d38d5696a33a8512fe4cb8c137dc140f6aa71d763e63dfc691aa160de106b0d12c8091746b9511efd150dbc97cab5783f6f0692c99bebaeba4f1b9fd33b725e105bee93cd833909029f21f4308eea76db8142e3589f14b001b2cec37c4f425226cf6fa1cc1e2d453c7e22c09ccc10238b0d331ca968dfb448f7275bfd42e97f7b2ce57b6501b50ad6ac4a62684f425295e9de52705c8da00dd9c3d811e844235229098894e7e5389ccc3e271b59ca84a66adc785a5bb91a55de91335c560c498b7f2733108de7a484f64411345d9946d5039ec765ee7670e238700e11b2736aac35950567b8cff061693d12422c65b02eae9845f60a6b2a5fdb2f450928ae645008b5e4806a51badafa927269ef78729ad113052a2af62dbee0ce5f9f943f0e831e101f3c87a7aa78a9c74984cea24bac430607f7865bb99fc1ed1b11a34304ca9ebd73a68cf5687ec54434a2f1c81d6f22095ba93095bb568d0f014694d8c360d112b6f37fb009ad35b8c6b4c2b154a7d74dd1c0164bb86185b77e4d3c75edab9b24e12c236eb2940dc2d5fc2c881d23596acb4aec1a96575020d7cf01bbe2066a2a8705e975cbc0186438790c26360f20880711d4437af27c8a60073ac99a09809eb0b02c7aec5d264d711cb21044e429874de417fe0170be1ee29279fa1de95c60298af0b8a7345ad5a965de830343bab8589991c7af3ce99e9e9465909f4fd6f0ca83435c766d9a44e32d1fab4df9eeb41436e1df540c03da98c593b2945d14b0144479627b72d765894b03c5afe9cf6d9a8e0c756988093dbb06e441667ae5c924dd875627a4b0c7551f80817ad0cbc24beb514539a1b08a2ae8f614e3bd1d7f0f7d219b82e34f4fb7f9fc90c80b6e3174d62317a6af7162e3824c8fca6d89f846cba66db27faeda8e07c0ab4e7e5b39e8e9bc8c06625f81fd829b450a9c2d141d0f6e52d15d8e5c5b2b62be13c4bccfebcd177b549b0f4fd7838f506649d8842c67d357375ef49ea8bbe5601c2ed8601e0bbec15db069c25cbe638802b400cd9ac59bd8c1c722840c8dd733e9908358fcc322530b63eb45f0211554be0c92f69398db1fa676785b57f470ad02f54a8026a37c051350df206af7ee96e3f7c4bdca55c81d2eec8ebb3833ee7b2e36039c450c92c69c7eaa14f78af9b12057b060332ccb522c5820a5ae410b8b1b8dafa48bae5e770642c23d34fc87998678a8644a9fcea92ad22cde03ffe82377d64d3bfbae853b20b9d3b18e2a0dc3a1cbe198c599a68090492a8045ce57e82ec1f84f0e4a583a8374c8a2499f7e67bd13dc36aedc715a1ca5702a1c2ed1b496310447d491bf6b3481b857c11c54011a63d0a18789629b6f0c8ee806d198da967280246eede2628de5ad2c586a72406795b81aaee33f8dfe8237b5bc220187f0818a70986d8035e0b8f73ef5150127696284b7b15dd78baef015fc07263e6ece8c073f46804ffb9d0bd2b29cb71ab86726d14eb3f052146ef2e0103ecc7762b6208330da631b39eb25cb17d9555ac5a5ca2411f6de5f35a85a98e5dba9d1e608d6251e2d439ea85d96af52428b33f918456a205cab10b4d307752cb9ee2fb7da3223d4408f701107b0dbe9ed9a58a30dbc28c5862716577c392ab3e518b35231d91c3936311793ce065d9a57c2dd5b8f118e5cf55152774e44490d5c8c43c3749c76c4b6c4beeee423371ba668c28c1369c143fddc6f535a6a087ee91ee09ac1a4025cbcf6f69ae9d1852ebaf87783307b0ee75156c85e6a66e5d4b4b40b4f7aef93c9b89fd033d41887fd2a7da5197c08ef16484ebabd8848f397e9090e328114eeb52d57f97acdc29df14d09f7c42f88c33e60e5c822b583b75c5979f1b63a4969c5528449103de6abcb1860cd2143c98346e15ae74f6fdb8650462d3a3ee08cb89fa3cd68cbf0b5f70776c63011bdf9c982f4cfb393f71044c3de9d960785605fcc1b67db077173cc339b8898e141b086e9d3361210232abc944e5a42890a1387ad3a3b4037c575661745a3c777d491e280da945cd25dce92cb8d85e7ad86b48eec000000000000000000000000000000000000000000000000000000000000000000000007f8757ee74f1623e7e96e32c13e5f8edef94f140000000000000000000000000000000000000000000000000000000000000001000000000000000000000000000000000000000000000000000000000000006000000000000000000000000000000000000000000000000000000000000001342a09e89121e989ee7c2871c7d6cbf2969d4b5ed4270096daa6d07249b511a3b4000000000000000000000000000000000000000000000000000000006539c8b9f5b68d42cff40feaed8592865f4e82c4c07eeb7710ce643441cfcedd44f024815aa525c218d323d0f7795b0c44022b849abfe87815d63c6eac2742993f5b92d19c4a35e5ffba4d6a7fa6c5a377796a7688e098453f5c6064eb136d96f6906a322ebdfed4e087357cdd71636eebf2b2ff413e84b40ebb3485bcbe98ae5a3fc89e8e94d410a70cd351d1de5d4d22cdb463674c0d4d187be16d33211c570429c4dbc71610301ace62f46c3d178df69a073bdb22f3504d0c73ae77236e5a55b11bd343a026dd192dc0f931c6dd79142a699a7c13983011ad24e42bded3a9c605ebf8336289e96a7dc8e4a28a9b6ce1b112a5158c177c000000000000000000000000000000000000000000000000000000561d8419c30093009fe70082e10a00007b0000000000000000000000000000000000000000000000000000000000000001000000000000000000000000000000000000000000000000000000000000006000000000000000000000000000000000000000000000000000000000000000710e9a6234eb2d0284a2da0984ea0befc75b4055c50be9cd000f0000000029a0086e40bcd51000000000000000000140fc7acdbed4e74375b6caeaf5dd97b99387e301c96e1bd59100e523f9b2d4575ab88c95d9aad90dcb6b2bf1fdf06921ab50c376dc922b416c9a9725cad5a54fcdab99000000000000000000000000000000","maxFeePerGas":"0x11866b0","maxPriorityFeePerGas":"0x5edfa4","nonce":"0x51218","r":"0x194b7908b3d27af70af92900bb5d22e009115cc0fab4ef8399249f891b6a22ab","s":"0x1e10e88eb0ba20e87041f23eabdecd753cd2b2a6cdd553e46eed60c8a99491d","to":"0x087000a300de7200382b55d40045000000e5d60e","transactionIndex":"0x13","type":"0x2","v":"0x0","value":"0x0","yParity":"0x0"},{"accessList":[],"blockHash":"0x3f98e892beecefb0ec72486dfa7c0ab582fa8a8d4e2926d60ee20997c3f1d644","blockNumber":"0x6f6a20c","chainId":"0xa","from":"0xca746ef1616aa27a7b84278c7f1459703b6d5214","gas":"0x2f4d60","gasPrice":"0x83216a","hash":"0xeb2ec522e594561ef1a8fedb9bcac84e19daf7b8e236b2f826a81e74a5ecf519","input":"0xcac88ea90000000000000000000000000000000000000000000000000000000076b907ec0000000000000000000000000000000000000000000005b25be65f2bcbd3d0b000000000000000000000000000000000000000000000000000000000000000a0000000000000000000000000ca746ef1616aa27a7b84278c7f1459703b6d52140000000000000000000000000000000000000000000000000000000065e124cb00000000000000000000000000000000000000000000000000000000000000010000000000000000000000007f5c764cbc14f9669b88837ca1490cca17c316070000000000000000000000009560e827af36c94d2ac33a39bce1fe78631088db0000000000000000000000000000000000000000000000000000000000000000000000000000000000000000f1046053aa5682b4f9a81b5481394da16be5ff5a","maxFeePerGas":"0x83216a","maxPriorityFeePerGas":"0x83216a","nonce":"0x2fa","r":"0x67bfe9bddfe37df906d4cebdbeab50ab04f58f8304d5da590219589b9828ade1","s":"0x71e9ed4b1f6599701de5dff46cd6fa429f9c375f3295ada05704ccf5b422c99c","to":"0xa062ae8a9c5e11aaa026fc2670b0d65ccc8b2858","transactionIndex":"0x14","type":"0x2","v":"0x0","value":"0x0","yParity":"0x0"}],"transactionsRoot":"0x12eeb463024876afdcfc094a70c9f610e34903f65f8b689d7def42dac1efef03","uncles":[],"withdrawals":[],"withdrawalsRoot":"0x56e81f171bcc55a6ff8345e692c0f86e5b48e01b996cadc001622fb5e363b421"},"id":
        0}

        '
    headers:
      CF-RAY:
      - 9d51a9f2e99a91f2-AMS
      Cache-Control:
      - max-age=0, private, must-revalidate
      Connection:
      - keep-alive
      Content-Type:
      - application/json; charset=utf-8
      Date:
      - Sat, 28 Feb 2026 17:32:53 GMT
      Nel:
      - '{"report_to":"cf-nel","success_fraction":0.0,"max_age":604800}'
      Report-To:
      - '{"group":"cf-nel","max_age":604800,"endpoints":[{"url":"https://a.nel.cloudflare.com/report/v4?s=RwjM07PLCuJ8MgGhSI8Ld6sc0K%2BXyZyDubrl8JuLmsz%2BkBI617H4SxIi8O2y00LUufM%2Ba4GCdZf2a5P%2FvfCk0VKSxcLb79l853lzoveNHzMISiNbgriFtJ35zlBHqowQ"}]}'
      Server:
      - cloudflare
      Transfer-Encoding:
      - chunked
      access-control-allow-credentials:
      - 'true'
      access-control-allow-origin:
      - '*'
      access-control-expose-headers:
      - bypass-429-option,x-ratelimit-reset,x-ratelimit-limit,x-ratelimit-remaining,api-v2-temp-token
      alt-svc:
      - h3=":443"; ma=86400
      bypass-429-option:
      - no_bypass
      cf-cache-status:
      - DYNAMIC
      content-length:
      - '98233'
      strict-transport-security:
      - max-age=31536000; includeSubDomains
      x-ratelimit-limit:
      - '600'
      x-ratelimit-remaining:
      - '598'
      x-ratelimit-reset:
      - '6377'
      x-request-id:
      - b4f0570264ea3e4977bc48f32cada54d
    status:
      code: 200
      message: OK
- request:
    body: '{"id": 0, "jsonrpc": "2.0", "method": "eth_getTransactionReceipt", "params":
      ["0x05b30df1b010f6d8e800dc4389c1210f56fc63a510d8a8021ba6674874500c03"]}'
    headers:
      Accept:
      - '*/*'
      Accept-Encoding:
      - gzip, deflate
      Connection:
      - keep-alive
      Content-Length:
      - '148'
      Content-Type:
      - application/json
      User-Agent:
      - rotki/1.41.2.dev927+ge84fe3f5bf.d20260221
    method: POST
    uri: https://explorer.optimism.io/api/eth-rpc
  response:
    body:
      string: '{"jsonrpc":"2.0","result": {"blockHash":"0x3f98e892beecefb0ec72486dfa7c0ab582fa8a8d4e2926d60ee20997c3f1d644","blockNumber":"0x6f6a20c","contractAddress":null,"cumulativeGasUsed":"0x28f1f","effectiveGasPrice":"0x0","from":"0x36bde71c97b33cc4729cf772ae268934f7ab70b2","gasUsed":"0x1c9da","logs":[{"address":"0x4200000000000000000000000000000000000010","blockHash":"0x3f98e892beecefb0ec72486dfa7c0ab582fa8a8d4e2926d60ee20997c3f1d644","blockNumber":"0x6f6a20c","data":"0x000000000000000000000000654a855e48f6943966788b81dc739117c5bff6a1000000000000000000000000000000000000000000000000002386f26fc1000000000000000000000000000000000000000000000000000000000000000000600000000000000000000000000000000000000000000000000000000000000000","logIndex":"0x0","removed":false,"topics":["0xb0444523268717a02698be47d0803aa7468c00acbed2f8bd93a0459cde61dd89","0x0000000000000000000000000000000000000000000000000000000000000000","0x000000000000000000000000deaddeaddeaddeaddeaddeaddeaddeaddead0000","0x000000000000000000000000654a855e48f6943966788b81dc739117c5bff6a1"],"transactionHash":"0x05b30df1b010f6d8e800dc4389c1210f56fc63a510d8a8021ba6674874500c03","transactionIndex":"0x1"},{"address":"0x4200000000000000000000000000000000000010","blockHash":"0x3f98e892beecefb0ec72486dfa7c0ab582fa8a8d4e2926d60ee20997c3f1d644","blockNumber":"0x6f6a20c","data":"0x000000000000000000000000000000000000000000000000002386f26fc1000000000000000000000000000000000000000000000000000000000000000000400000000000000000000000000000000000000000000000000000000000000000","logIndex":"0x1","removed":false,"topics":["0x31b2166ff604fc5672ea5df08a78081d2bc6d746cadce880747f3643d819e83d","0x000000000000000000000000654a855e48f6943966788b81dc739117c5bff6a1","0x000000000000000000000000654a855e48f6943966788b81dc739117c5bff6a1"],"transactionHash":"0x05b30df1b010f6d8e800dc4389c1210f56fc63a510d8a8021ba6674874500c03","transactionIndex":"0x1"},{"address":"0x4200000000000000000000000000000000000007","blockHash":"0x3f98e892beecefb0ec72486dfa7c0ab582fa8a8d4e2926d60ee20997c3f1d644","blockNumber":"0x6f6a20c","data":"0x","logIndex":"0x2","removed":false,"topics":["0x4641df4a962071e12719d8c8c8e5ac7fc4d97b927346a3d7a335b1f7517e133c","0x30e0e9f59695f700008c1a8bb0ea764c3291af5d9549a8874f84a415a41bce81"],"transactionHash":"0x05b30df1b010f6d8e800dc4389c1210f56fc63a510d8a8021ba6674874500c03","transactionIndex":"0x1"}],"logsBloom":"0x00000000000000000000000000000000000000000000000000000000001000000000000000000080000000000000200000000000000000000000000000000200000000000004000000000000000000000000000000000000000000000000000100000000020000400000000000020800000000000000000000000008000000000000000000004000400000000000000001800000000000000000000000000000000800000000000000000000000000000000200000000000000000000000000000000000000000000000000100000000000002100004000008000000000021001000000000000000800000000000000000000000000000000000000008000000","status":"0x1","to":"0x4200000000000000000000000000000000000007","transactionHash":"0x05b30df1b010f6d8e800dc4389c1210f56fc63a510d8a8021ba6674874500c03","transactionIndex":"0x1","type":"0x7e"},"id":
        0}

        '
    headers:
      CF-RAY:
      - 9d51a9f47c54fe97-AMS
      Cache-Control:
      - max-age=0, private, must-revalidate
      Connection:
      - keep-alive
      Content-Type:
      - application/json; charset=utf-8
      Date:
      - Sat, 28 Feb 2026 17:32:53 GMT
      Nel:
      - '{"report_to":"cf-nel","success_fraction":0.0,"max_age":604800}'
      Report-To:
      - '{"group":"cf-nel","max_age":604800,"endpoints":[{"url":"https://a.nel.cloudflare.com/report/v4?s=%2BlEjkA5oN6IOvnb2SwB1gK4heoWRSw%2FKRViEErjAnuBEbj9JLvj8LnkEQH9MqxxalDVVCptmdYEjuhm1yNPCAiej1xk%2BbeKvilE%2B7ZklWuiNRBjHkavdHo2nvn986Y7H"}]}'
      Server:
      - cloudflare
      Transfer-Encoding:
      - chunked
      access-control-allow-credentials:
      - 'true'
      access-control-allow-origin:
      - '*'
      access-control-expose-headers:
      - bypass-429-option,x-ratelimit-reset,x-ratelimit-limit,x-ratelimit-remaining,api-v2-temp-token
      alt-svc:
      - h3=":443"; ma=86400
      bypass-429-option:
      - no_bypass
      cf-cache-status:
      - DYNAMIC
      content-length:
      - '3090'
      strict-transport-security:
      - max-age=31536000; includeSubDomains
      x-ratelimit-limit:
      - '600'
      x-ratelimit-remaining:
      - '597'
      x-ratelimit-reset:
      - '6122'
      x-request-id:
      - 86a33f6fe739986ca6b335e1e9106b49
    status:
      code: 200
      message: OK
- request:
    body: null
    headers:
      Accept:
      - '*/*'
      Accept-Encoding:
      - gzip, deflate
      Connection:
      - keep-alive
      User-Agent:
      - rotki/1.41.2.dev927+ge84fe3f5bf.d20260221
    method: GET
    uri: https://explorer.optimism.io/api/v2/transactions/0x05b30df1b010f6d8e800dc4389c1210f56fc63a510d8a8021ba6674874500c03
  response:
    body:
      string: '{"priority_fee":null,"raw_input":"0xd764ad0b0001000000000000000000000000000000000000000000000000000000017c4400000000000000000000000099c9fc46f92e8a1c0dec1b1747d010903e884be10000000000000000000000004200000000000000000000000000000000000010000000000000000000000000000000000000000000000000002386f26fc100000000000000000000000000000000000000000000000000000000000000030d4000000000000000000000000000000000000000000000000000000000000000c000000000000000000000000000000000000000000000000000000000000000a41635f5fd000000000000000000000000654a855e48f6943966788b81dc739117c5bff6a1000000000000000000000000654a855e48f6943966788b81dc739117c5bff6a1000000000000000000000000000000000000000000000000002386f26fc100000000000000000000000000000000000000000000000000000000000000000080000000000000000000000000000000000000000000000000000000000000000000000000000000000000000000000000000000000000000000000000","is_pending_update":false,"op_withdrawals":[],"result":"success","hash":"0x05b30df1b010f6d8e800dc4389c1210f56fc63a510d8a8021ba6674874500c03","max_fee_per_gas":null,"revert_reason":null,"confirmation_duration":[0,2.0e3],"transaction_burnt_fee":null,"type":126,"token_transfers_overflow":false,"confirmations":31523951,"position":1,"max_priority_fee_per_gas":null,"transaction_tag":null,"created_contract":null,"value":"10000000000000000","from":{"ens_domain_name":null,"hash":"0x36BDE71C97B33Cc4729cf772aE268934f7AB70B2","implementations":[],"is_contract":false,"is_scam":false,"is_verified":false,"metadata":{"tags":[{"meta":{"tooltipUrl":"https://www.optimism.io/"},"name":"Optimism:
        Aliased L1 Cross-Domain Messenger","ordinal":10,"slug":"optimism-aliased-l1-crossdomain-messenger","tagType":"name"},{"meta":{},"name":"Contract
        Deployer","ordinal":0,"slug":"contract-deployer","tagType":"generic"},{"meta":{},"name":"Optimism","ordinal":0,"slug":"optimism","tagType":"protocol"}]},"name":null,"private_tags":[],"proxy_type":null,"public_tags":[],"reputation":"ok","watchlist_names":[]},"gas_used":"117210","status":"ok","to":{"ens_domain_name":null,"hash":"0x4200000000000000000000000000000000000007","implementations":[{"address_hash":"0xC0d3c0d3c0D3c0D3C0d3C0D3C0D3c0d3c0d30007","name":"L2CrossDomainMessenger"}],"is_contract":true,"is_scam":false,"is_verified":true,"metadata":{"tags":[{"meta":{"projectName":"Optimism","tagIcon
        ":"https://blockscout-icons.s3.us-east-1.amazonaws.com/OLI_tag_logo.svg","tagUrl":"https://app.klerosscout.eth.limo/#/?registry=Single_Tags&itemdetails=0x5f193b5044d48ffbc8892f506f1388bba902420c30c6a562c453716af75346b2@0x66260c69d03837016d88c9877e61e08ef74c59f2","textColor":"#C163D4","tooltipAttribution":"https://www.openlabelsinitiative.org?utm_source=blockscout","tooltipAttributionIcon":"https://blockscout-icons.s3.us-east-1.amazonaws.com/OLI_tag_logo.svg","tooltipDescription":"Optimism''s
        official L2 Cross Domain Messenger Proxy contract","tooltipUrl":"https://www.optimism.io/"},"name":"Predeploys:
        L2CrossDomainMessenger","ordinal":1000,"slug":"predeploys-l2crossdomainmessenger","tagType":"name"},{"meta":{},"name":"Optimism","ordinal":0,"slug":"optimism","tagType":"protocol"}]},"name":"Proxy","private_tags":[],"proxy_type":"eip1967","public_tags":[],"reputation":"ok","watchlist_names":[]},"authorization_list":[],"method":"relayMessage","fee":{"type":"actual","value":"0"},"actions":[],"gas_limit":"490798","gas_price":"0","decoded_input":{"method_call":"relayMessage(uint256
        _nonce, address _sender, address _target, uint256 _value, uint256 _minGasLimit,
        bytes _message)","method_id":"d764ad0b","parameters":[{"name":"_nonce","type":"uint256","value":"1766847064778384329583297500742918515827483896875618958121606201292717124"},{"name":"_sender","type":"address","value":"0x99C9fc46f92E8a1c0deC1b1747d010903E884bE1"},{"name":"_target","type":"address","value":"0x4200000000000000000000000000000000000010"},{"name":"_value","type":"uint256","value":"10000000000000000"},{"name":"_minGasLimit","type":"uint256","value":"200000"},{"name":"_message","type":"bytes","value":"0x1635f5fd000000000000000000000000654a855e48f6943966788b81dc739117c5bff6a1000000000000000000000000654a855e48f6943966788b81dc739117c5bff6a1000000000000000000000000000000000000000000000000002386f26fc1000000000000000000000000000000000000000000000000000000000000000000800000000000000000000000000000000000000000000000000000000000000000"}]},"token_transfers":[],"base_fee_per_gas":"6171122","timestamp":"2024-03-01T00:14:09.000000Z","nonce":453968,"historic_exchange_rate":"3435.9","transaction_types":["coin_transfer","contract_call"],"exchange_rate":"1897.97","block_number":116826636,"has_error_in_internal_transactions":false}'
    headers:
      CF-RAY:
      - 9d51a9f5ab6b1c88-AMS
      Cache-Control:
      - max-age=0, private, must-revalidate
      Connection:
      - keep-alive
      Content-Type:
      - application/json; charset=utf-8
      Date:
      - Sat, 28 Feb 2026 17:32:54 GMT
      Nel:
      - '{"report_to":"cf-nel","success_fraction":0.0,"max_age":604800}'
      Report-To:
      - '{"group":"cf-nel","max_age":604800,"endpoints":[{"url":"https://a.nel.cloudflare.com/report/v4?s=2Amto%2F5zFMfKj2wD%2Ff6C5aOxJvwfEzGQ1Nh4XnQe6foGIwRi%2FwocNOoMeK7NemBtZsAyrJLx85N%2BK4pL2yBL7cxlQNtQHct5ODEnjoNZbp%2BSh3evLzf0YTP9pAzcCtqF"}]}'
      Server:
      - cloudflare
      Transfer-Encoding:
      - chunked
      access-control-allow-credentials:
      - 'true'
      access-control-allow-origin:
      - '*'
      access-control-expose-headers:
      - bypass-429-option,x-ratelimit-reset,x-ratelimit-limit,x-ratelimit-remaining,api-v2-temp-token
      alt-svc:
      - h3=":443"; ma=86400
      bypass-429-option:
      - temporary_token
      cf-cache-status:
      - DYNAMIC
      content-length:
      - '4622'
      strict-transport-security:
      - max-age=31536000; includeSubDomains
      x-ratelimit-limit:
      - '600'
      x-ratelimit-remaining:
      - '596'
      x-ratelimit-reset:
      - '5926'
      x-request-id:
      - 2b5bd88107c518c4dafec64082512731
    status:
      code: 200
      message: OK
- request:
    body: null
    headers:
      Accept:
      - '*/*'
      Accept-Encoding:
      - gzip, deflate
      Connection:
      - keep-alive
      User-Agent:
      - rotki/1.41.2.dev927+ge84fe3f5bf.d20260221
    method: GET
    uri: https://explorer.optimism.io/api?action=txlistinternal&module=account&sort=asc&txhash=0x05b30df1b010f6d8e800dc4389c1210f56fc63a510d8a8021ba6674874500c03
  response:
    body:
      string: '{"message":"OK","result":[{"blockNumber":"116826636","callType":"delegatecall","contractAddress":"","errCode":"","from":"0x4200000000000000000000000000000000000007","gas":"454802","gasUsed":"91198","index":"1","input":"0xd764ad0b","isError":"0","timeStamp":"1709252049","to":"0xc0d3c0d3c0d3c0d3c0d3c0d3c0d3c0d3c0d30007","transactionHash":"0x05b30df1b010f6d8e800dc4389c1210f56fc63a510d8a8021ba6674874500c03","type":"call","value":"10000000000000000"},{"blockNumber":"116826636","callType":"call","contractAddress":"","errCode":"","from":"0x4200000000000000000000000000000000000007","gas":"404954","gasUsed":"47804","index":"2","input":"0x1635f5fd","isError":"0","timeStamp":"1709252049","to":"0x4200000000000000000000000000000000000010","transactionHash":"0x05b30df1b010f6d8e800dc4389c1210f56fc63a510d8a8021ba6674874500c03","type":"call","value":"10000000000000000"},{"blockNumber":"116826636","callType":"delegatecall","contractAddress":"","errCode":"","from":"0x4200000000000000000000000000000000000010","gas":"393756","gasUsed":"42821","index":"3","input":"0x1635f5fd","isError":"0","timeStamp":"1709252049","to":"0xc0d3c0d3c0d3c0d3c0d3c0d3c0d3c0d3c0d30010","transactionHash":"0x05b30df1b010f6d8e800dc4389c1210f56fc63a510d8a8021ba6674874500c03","type":"call","value":"10000000000000000"},{"blockNumber":"116826636","callType":"call","contractAddress":"","errCode":"","from":"0x4200000000000000000000000000000000000010","gas":"345557","gasUsed":"0","index":"6","input":"0x","isError":"0","timeStamp":"1709252049","to":"0x654a855e48f6943966788b81dc739117c5bff6a1","transactionHash":"0x05b30df1b010f6d8e800dc4389c1210f56fc63a510d8a8021ba6674874500c03","type":"call","value":"10000000000000000"}],"status":"1"}'
    headers:
      CF-RAY:
      - 9d51a9f93a7688ce-AMS
      Cache-Control:
      - max-age=0, private, must-revalidate
      Connection:
      - keep-alive
      Content-Type:
      - application/json; charset=utf-8
      Date:
      - Sat, 28 Feb 2026 17:32:54 GMT
      Nel:
      - '{"report_to":"cf-nel","success_fraction":0.0,"max_age":604800}'
      Report-To:
      - '{"group":"cf-nel","max_age":604800,"endpoints":[{"url":"https://a.nel.cloudflare.com/report/v4?s=G0TNON6LYFUlXT9LJ2LAoIFh2FYO9OPApnjgj9y2%2Fz3Lmjd3lzfunVA9a1aWRJo88VBscHKVs5Kan%2F%2B%2BpCnyvcg0MpEN4hnjjhkfj5tvhNH0Q29dPb7VgR2KdBbTUXWD"}]}'
      Server:
      - cloudflare
      Transfer-Encoding:
      - chunked
      access-control-allow-credentials:
      - 'true'
      access-control-allow-origin:
      - '*'
      access-control-expose-headers:
      - bypass-429-option,x-ratelimit-reset,x-ratelimit-limit,x-ratelimit-remaining,api-v2-temp-token
      alt-svc:
      - h3=":443"; ma=86400
      bypass-429-option:
      - no_bypass
      cf-cache-status:
      - DYNAMIC
      content-length:
      - '1708'
      strict-transport-security:
      - max-age=31536000; includeSubDomains
      x-ratelimit-limit:
      - '600'
      x-ratelimit-remaining:
      - '595'
      x-ratelimit-reset:
      - '5396'
      x-request-id:
      - 9370cae08d5822daee7f10bc8f1039bb
    status:
      code: 200
      message: OK
version: 1
