interactions:
- request:
    body: '{"id": 0, "jsonrpc": "2.0", "method": "eth_getTransactionByHash", "params":
      ["0xa8f93c81d857cf6e0b52a60263473f8bec210a6fca9c46b49d5cb90736307e95"]}'
    headers:
      Accept:
      - '*/*'
      Accept-Encoding:
      - gzip, deflate
      Connection:
      - keep-alive
      Content-Length:
      - '147'
      Content-Type:
      - application/json
      User-Agent:
      - rotki/1.41.4.dev762+ge38047a983
    method: POST
    uri: https://explorer.optimism.io/api/eth-rpc
  response:
    body:
      string: '{"jsonrpc":"2.0","result": {"accessList":[],"blockHash":"0x744cf1f1a8d0a567e4d18425f5bf84ef6c1e988dfe78cb707424e182df7a2102","blockNumber":"0x8c700db","chainId":"0xa","from":"0xe0de8649f1902a8d2394fa79ca38aa20b716ba0f","gas":"0x64a31","gasPrice":"0x8da","hash":"0xa8f93c81d857cf6e0b52a60263473f8bec210a6fca9c46b49d5cb90736307e95","input":"0xa694fc3a0000000000000000000000000000000000000000000000552e1bf7e4b03aae40","maxFeePerGas":"0xafc","maxPriorityFeePerGas":"0x1","nonce":"0x51","r":"0xf5f00fff3ac789d5ca8c3dfd5a5c8f968fb4e3e817337f82b13086d2368b9f88","s":"0xa94f63eed33679cf965a5d6e49c044138a1d3a99fa95605dbd4d7d29474a656","to":"0xba91ffd8a2b9f68231eca6af51623b3433a89b13","transactionIndex":"0x1f","type":"0x2","v":"0x1","value":"0x9d185b56c492","yParity":"0x1"},"id":
        0}

        '
    headers:
      CF-RAY:
      - 9d3a61d88ce02d72-ATL
      Cache-Control:
      - max-age=0, private, must-revalidate
      Connection:
      - keep-alive
      Content-Type:
      - application/json; charset=utf-8
      Date:
      - Wed, 25 Feb 2026 21:44:08 GMT
      Nel:
      - '{"report_to":"cf-nel","success_fraction":0.0,"max_age":604800}'
      Report-To:
      - '{"group":"cf-nel","max_age":604800,"endpoints":[{"url":"https://a.nel.cloudflare.com/report/v4?s=ZfHcVGpYmiM7V59LqrKUSOHpuiBmmLcWFpefC8serZEa4GiRcSgrtIAKk0YEl8DDVU7s6tqo4adefgROA%2Fz94dr4Ioao%2FnMXNb3qPaJh84gZuvBy"}]}'
      Server:
      - cloudflare
      Transfer-Encoding:
      - chunked
      access-control-allow-credentials:
      - 'true'
      access-control-allow-origin:
      - '*'
      access-control-expose-headers:
      - bypass-429-option,x-ratelimit-reset,x-ratelimit-limit,x-ratelimit-remaining,api-v2-temp-token
      alt-svc:
      - h3=":443"; ma=86400
      bypass-429-option:
      - no_bypass
      cf-cache-status:
      - DYNAMIC
      content-length:
      - '777'
      strict-transport-security:
      - max-age=31536000; includeSubDomains
      x-ratelimit-limit:
      - '600'
      x-ratelimit-remaining:
      - '599'
      x-ratelimit-reset:
      - '51912'
      x-request-id:
      - 3dec25cdd7f855e2f04245b0e3cbdc4d
    status:
      code: 200
      message: OK
- request:
    body: '{"id": 0, "jsonrpc": "2.0", "method": "eth_getBlockByNumber", "params":
      ["0x8c700db", true]}'
    headers:
      Accept:
      - '*/*'
      Accept-Encoding:
      - gzip, deflate
      Connection:
      - keep-alive
      Content-Length:
      - '92'
      Content-Type:
      - application/json
      User-Agent:
      - rotki/1.41.4.dev762+ge38047a983
    method: POST
    uri: https://explorer.optimism.io/api/eth-rpc
  response:
    body:
      string: '{"jsonrpc":"2.0","result": {"baseFeePerGas":"0x8d9","blobGasUsed":"0x2bb060","difficulty":"0x0","excessBlobGas":"0x0","extraData":"0x01000000fa000000020000000000000000","gasLimit":"0x2625a00","gasUsed":"0x14fc122","hash":"0x744cf1f1a8d0a567e4d18425f5bf84ef6c1e988dfe78cb707424e182df7a2102","logsBloom":"0x607a3201959421010080118292a0406035406898500002418844401044cb0960050801003141080003608031a71071048056826c26193a2906414a404a23025100400087800ba08e240114a8b02812310cc0002a80404030080a0000a20860093084434862dc0008e288500501a2581884a94040c80c260808008c330c1b1098006800030880250178238202d80f10023800d1103821204a000280500a101a31c24000024c120680804003240800109020011014a988c10800870350805260c6c321184a00229d4123430a8418430085988b01860389075c8001141c180024005014880902b484026c400048001ab1229288010c158208a0a4000807001368e0","miner":"0x4200000000000000000000000000000000000011","mixHash":"0x29e6f03db42a4f5ce73a8c5c79f49ca943aa2bb40b605c42cb2c7504a29fc883","nonce":"0x0000000000000000","number":"0x8c700db","parentBeaconBlockRoot":"0x8204c6e29e921161b69c6fdd1791832059b249e8b42fd937bc444ce480b99729","parentHash":"0x436777b3f0ec156ac88ac916bbed71120ecf2430b03385bfddddab3bd2264b85","receiptsRoot":"0x0e9b613a890f2a663771d89e2d62ded9b6c53aa9f347c81ddb906af14c41f848","requestsHash":"0xe3b0c44298fc1c149afbf4c8996fb92427ae41e4649b934ca495991b7852b855","sha3Uncles":"0x1dcc4de8dec75d7aab85b567b6ccd41ad312451b948a7413f0a142fd40d49347","size":"0x42bb","stateRoot":"0x25c859bdec61ce527f3d88549a823530ad7592616b07440e44e87a55cd35a3e1","timestamp":"0x6981db6f","transactions":[{"blockHash":"0x744cf1f1a8d0a567e4d18425f5bf84ef6c1e988dfe78cb707424e182df7a2102","blockNumber":"0x8c700db","depositReceiptVersion":"0x1","from":"0xdeaddeaddeaddeaddeaddeaddeaddeaddead0001","gas":"0xf4240","gasPrice":"0x0","hash":"0xa60d3b0a9e40ff1df2f404769bb7b6053c0507f9f11de6b8d290adae75597a22","input":"0x3db6be2b0000146b000f79c50000000000000003000000006981db23000000000173f2cf0000000000000000000000000000000000000000000000000000000006f9e1f900000000000000000000000000000000000000000000000000000000005fb6dea27240770e5ff31178df2e29abb86d31bf0229e2c7d9652097617a5b9ab7180b0000000000000000000000006887246668a3b87f54deb3b94ba47a6f63f329850000000000000000000000000190","mint":"0x0","nonce":"0x2813e67","r":"0x0","s":"0x0","sourceHash":"0x0f1d94d1a6e1d9ba13f017ee9a49d61214c7ef082d0b01377dfedb768ceeb735","to":"0x4200000000000000000000000000000000000015","transactionIndex":"0x0","type":"0x7e","v":"0x0","value":"0x0","yParity":"0x0"},{"accessList":[],"blockHash":"0x744cf1f1a8d0a567e4d18425f5bf84ef6c1e988dfe78cb707424e182df7a2102","blockNumber":"0x8c700db","chainId":"0xa","from":"0xa4026a97d3bf3caed9489cfac61ac8863d2ddb83","gas":"0x90f40","gasPrice":"0x3d11d9","hash":"0xf82e11d032e990aec02183662099e23633af8cf49e51e952d53eb3a7fb77fbcd","input":"0x4b2b20e7000000000000000000000000000000000000000000000000000000000000009200000000000000000000000000000000000000000000000000000000000000a00000000000000000000000000000000000000000000000000000000000011fb800000000000000000000000000000000000000000000000000000000000000e00000000000000000000000000000000000000000000000000000000000000160000000000000000000000000000000000000000000000000000000000000001460c5681bd1db4e50735c4ca3386005a4ba4937c0000000000000000000000000000000000000000000000000000000000000000000000000000000000000004af848941f32b1c2345538c0c6f582fcb022739c4a194ebb946382d6ccd780758c5e8a6123c33ee8f4472f96ef94f8bb47f8b8dad2158d487d916358528337af676087373af04c05f6ae80000000000000000000000000000000000000000000000000000000000000000000000000000000000000000000000000000000000002000000000000000000000000000000000000000000000000000000000000004000000000000000000000000000000000000000000000000000000000000000c0000000000000000000000000000000000000000000000000000000000000004158e51ba3be982c9f027d0aa6c2af35ea4b1e312e68f79f9d021a3a2bda0f50f8551112b3da4d56a642e2cc639f617c7b358536bb1b5d22b747eb12fda76fb580010000000000000000000000000000000000000000000000000000000000000000000000000000000000000000000000000000000000000000000000000000417c41475dc45c1267a91693827dd8872bfaa7f212938d4987557106511e2850696e232841bfae6a50417feceef74578c1a987ef7617b1cae31f566590a64e44740000000000000000000000000000000000000000000000000000000000000000","maxFeePerGas":"0x3d2c58","maxPriorityFeePerGas":"0x3d0900","nonce":"0x13a7","r":"0x5a92dc58ce4a6a3b839ae303396471c815ca66d25cfe72caf79327b0d39d84ff","s":"0x88525fe6d2ae0621d8ae62c59fac49beec510af49bf3ec626964ad53f2c7353","to":"0x348be44f63a458be9c1b13d6fd8e99048f297bc3","transactionIndex":"0x1","type":"0x2","v":"0x1","value":"0x0","yParity":"0x1"},{"accessList":[],"blockHash":"0x744cf1f1a8d0a567e4d18425f5bf84ef6c1e988dfe78cb707424e182df7a2102","blockNumber":"0x8c700db","chainId":"0xa","from":"0x893150406fdbaf4834315edb24a9bf1136b5fe42","gas":"0x1e8480","gasPrice":"0x1916d","hash":"0xd43452b430058983b6edb5776886d9c496b24f9b4e1791f200e06cbc9837fc92","input":"0x00000001","maxFeePerGas":"0x3b9c5294","maxPriorityFeePerGas":"0x18894","nonce":"0x8fb01","r":"0x588c74a098847be65aee4cfd777b9e95a0f852703cc59162914f6a928a1acd89","s":"0x3398d7144f2af2aba3f9cb926e6ee3c76617ca8d1e8211bb78ecfc921bce1070","to":"0x12904000757d295d27b4599b264a4d0acec46148","transactionIndex":"0x2","type":"0x2","v":"0x1","value":"0x0","yParity":"0x1"},{"accessList":[],"blockHash":"0x744cf1f1a8d0a567e4d18425f5bf84ef6c1e988dfe78cb707424e182df7a2102","blockNumber":"0x8c700db","chainId":"0xa","from":"0x8887cdbb8e525443143378ebb3ba612ffadd3ece","gas":"0x1e8480","gasPrice":"0x1916d","hash":"0xe60fee6e1d68181b24f0561b52fa9216a05b85acfc18284a49313aa6ac7346e3","input":"0x00000001","maxFeePerGas":"0x3b9c5294","maxPriorityFeePerGas":"0x18894","nonce":"0x41469","r":"0xc4d475d63287e8013640523b395d3640171b5fda1945c69bf543880d1e0b60be","s":"0x7b8300ec2a4b005f0956cc9006ac1608beec31ce6743961e200256bd05eb064d","to":"0x494f6475e1162e6b3423088a222d63af2c24eb1b","transactionIndex":"0x3","type":"0x2","v":"0x1","value":"0x0","yParity":"0x1"},{"accessList":[],"blockHash":"0x744cf1f1a8d0a567e4d18425f5bf84ef6c1e988dfe78cb707424e182df7a2102","blockNumber":"0x8c700db","chainId":"0xa","from":"0x9c6a4e0221dae3bfc6274de38368479486425c01","gas":"0x1e8480","gasPrice":"0x1916d","hash":"0xcea21b7128d7e139e48c20f969e667b80ab2f369890824651e6ba897ba78bf4c","input":"0x00000001","maxFeePerGas":"0x3b9c5294","maxPriorityFeePerGas":"0x18894","nonce":"0x94171","r":"0xf095226c3240fbc82ef8a31a617beb9fd11aed484284f992d94b64b942025bc0","s":"0x10a2800ffbe6de9a5abff47edd33aded43e78861638152c3c5b82dd3436c989e","to":"0x682756f7985896f1924c03cd9c55b41319c89c9d","transactionIndex":"0x4","type":"0x2","v":"0x0","value":"0x0","yParity":"0x0"},{"accessList":[],"blockHash":"0x744cf1f1a8d0a567e4d18425f5bf84ef6c1e988dfe78cb707424e182df7a2102","blockNumber":"0x8c700db","chainId":"0xa","from":"0x9e3ed65340a913b96ba7b86d5d5876dde623946e","gas":"0x2dc6c0","gasPrice":"0xcc29","hash":"0x1095980116852df01516e245031299c8d656f66335a146789c89cee6fcd2a09d","input":"0xa126d6010000000000000000000000000000000000000000000000000000000008c700de","maxFeePerGas":"0xd4fc","maxPriorityFeePerGas":"0xc350","nonce":"0x400438","r":"0xbc27460b8fcb77bb83ed533230d6d12217816930d05c12dd79c64b3512b35045","s":"0x1e4557a3ade8229413bbab660d57cacf0b50cd3e833ddc9e42704364ddb78ea0","to":"0xd9f7bd6033d34caf61143a460d7f79c4384aae97","transactionIndex":"0x5","type":"0x2","v":"0x0","value":"0x0","yParity":"0x0"},{"accessList":[],"blockHash":"0x744cf1f1a8d0a567e4d18425f5bf84ef6c1e988dfe78cb707424e182df7a2102","blockNumber":"0x8c700db","chainId":"0xa","from":"0xcde377407d9b819efc0e185aa2d442194c2233e6","gas":"0x1e8480","gasPrice":"0x56f9","hash":"0x732cbd9b57c47382556c00319d6b3299962fafb6de53935b0947f8774fbb3826","input":"0xa126d6010000000000000000000000000000000000000000000000000000000008c700de","maxFeePerGas":"0x5fcc","maxPriorityFeePerGas":"0x4e20","nonce":"0x339483","r":"0x22dca544d689d4ed1647117ff51a5c3dc908fcd519a89f44c5f78ed2a5986e9c","s":"0x423178070632e0c9d97f0e425f5512e17dea0c158dabf5a74dd0ea191e704f61","to":"0x4aed348173bbf17dfaeb91598321904c9323d36e","transactionIndex":"0x6","type":"0x2","v":"0x0","value":"0x0","yParity":"0x0"},{"accessList":[],"blockHash":"0x744cf1f1a8d0a567e4d18425f5bf84ef6c1e988dfe78cb707424e182df7a2102","blockNumber":"0x8c700db","chainId":"0xa","from":"0x5e9cc770b8feb8800c156b009063cb4939e30caf","gas":"0x1e8480","gasPrice":"0x56f9","hash":"0x9cdf296e493c3f5244231d882524363c3b558663c50a5443054989e25c83e595","input":"0xa126d6010000000000000000000000000000000000000000000000000000000008c700de","maxFeePerGas":"0x5fcc","maxPriorityFeePerGas":"0x4e20","nonce":"0x3ea685","r":"0xa897d3734a2bcd09a205c15dc5b12f1c2f2f3dad76c0698fd671ad2f0dcbee4e","s":"0x6276761423aabce19aaa398c516c679e6a60d7fb272cdec247db444a045b98dc","to":"0x991ea644546ef0043afab651bd7daa01737d914e","transactionIndex":"0x7","type":"0x2","v":"0x0","value":"0x0","yParity":"0x0"},{"accessList":[],"blockHash":"0x744cf1f1a8d0a567e4d18425f5bf84ef6c1e988dfe78cb707424e182df7a2102","blockNumber":"0x8c700db","chainId":"0xa","from":"0x7eb63e28ca5541b35d1dd5a8000e2073ba2d8ec8","gas":"0x1e8480","gasPrice":"0x56f9","hash":"0x200b2925fd24b990fd9f61c0715408bc4cec2097f08d33a65f02d1aaae5e15c3","input":"0xa126d6010000000000000000000000000000000000000000000000000000000008c700de","maxFeePerGas":"0x5fcc","maxPriorityFeePerGas":"0x4e20","nonce":"0x18aa36","r":"0x7036e789c29777c52d76dddaaec573b0a341d61e6654a8ad9e7c8e703ea5a13","s":"0x7297105bea71cf94cbba18115c8f266339fd4acd964442e5f464b587b86ab297","to":"0x2008e0c258a16040f3f451262e853c9f69828b98","transactionIndex":"0x8","type":"0x2","v":"0x0","value":"0x0","yParity":"0x0"},{"accessList":[],"blockHash":"0x744cf1f1a8d0a567e4d18425f5bf84ef6c1e988dfe78cb707424e182df7a2102","blockNumber":"0x8c700db","chainId":"0xa","from":"0x9c6a4e0221dae3bfc6274de38368479486425c01","gas":"0x1e8480","gasPrice":"0x8da","hash":"0xd18571d44af62b24179b538b239b72ef4a5d5d93bcc0831e5832e6517335c5c1","input":"0x166eaaab0000000000000000000000000000000000000000000000000000000008c700db00000000000000000000000000000000000129c6ef7dc7f76b59145b65fe971f","maxFeePerGas":"0x3b9aca01","maxPriorityFeePerGas":"0x1","nonce":"0x94172","r":"0xb45ffb559cc23006cefc3b5117f8d15661a3df663708e2dfa943e2347705e5bb","s":"0x248583471ae2e351d3ab3d94520869c2a08cf4285e3bd29c357a327be21a34a6","to":"0x682756f7985896f1924c03cd9c55b41319c89c9d","transactionIndex":"0x9","type":"0x2","v":"0x1","value":"0x0","yParity":"0x1"},{"accessList":[],"blockHash":"0x744cf1f1a8d0a567e4d18425f5bf84ef6c1e988dfe78cb707424e182df7a2102","blockNumber":"0x8c700db","chainId":"0xa","from":"0x893150406fdbaf4834315edb24a9bf1136b5fe42","gas":"0x1e8480","gasPrice":"0x8da","hash":"0x9cb5569a2b2b1bc2d7218bda8d7f4aab0bf9f5d67a47a771036407c8ddff6041","input":"0x166eaaab0000000000000000000000000000000000000000000000000000000008c700db00000000000000000000000000000000001ff2deadf11015917cc0011060e053","maxFeePerGas":"0x3b9aca01","maxPriorityFeePerGas":"0x1","nonce":"0x8fb02","r":"0x8f3848fd630019497dd1b0d57e4fa5b1900c91168d45164f24c0a2d8ffb3615a","s":"0x1162106a6e76ebd99b61a4731a197182774daa88f2a21ea381434dbb57ab1fbf","to":"0x12904000757d295d27b4599b264a4d0acec46148","transactionIndex":"0xa","type":"0x2","v":"0x0","value":"0x0","yParity":"0x0"},{"blockHash":"0x744cf1f1a8d0a567e4d18425f5bf84ef6c1e988dfe78cb707424e182df7a2102","blockNumber":"0x8c700db","chainId":"0xa","from":"0x30ba8e793839c48fa8a97682529a2fc44a777777","gas":"0x22c877","gasPrice":"0xd92","hash":"0xf2c3494ce2b8a32e458e0da8ed7009980054a340467ff2d997b55a17db7aee19","input":"0x02ffcd1b860cdcb7cba45f81ad1dace8dc639b0c9bc364ff982426f200000114cf333ca017628b6749fc76fc10cbba9c222729d87eebbf929700000000001e000167bf0100000000","nonce":"0x362d9","r":"0x6153e5e1357f17a88cc8d7ecbcc302e93f237fa1df3add5fb212e12688628aff","s":"0x3f34910f672835750fef34d493e95aa76d05eeffee191b3b18b440e962a6277d","to":"0x2f4942c15196a050f83001b781f345b00d345ff7","transactionIndex":"0xb","type":"0x0","v":"0x38","value":"0x0"},{"blockHash":"0x744cf1f1a8d0a567e4d18425f5bf84ef6c1e988dfe78cb707424e182df7a2102","blockNumber":"0x8c700db","chainId":"0xa","from":"0xc7da6f59170d72fe333174f117e618b237999999","gas":"0x23b7ac","gasPrice":"0xaef","hash":"0x1664e2894cf10e294e71e71fc935d3eeaa0a87c16fa3f69bd56b7e0496062946","input":"0x0386ffd0dc0dd85041fc5c912b2145f2baf4d58ded86db12f8e226f700000114e1c2fe301704224bfb3dbc1a01184855bd596d92da0153490d00000000001e000000000168c0047d8533027bc9547142c99cea0925f4e5d200000000011e0003096e0100000000","nonce":"0x4e827","r":"0x6bcf072779ae048324f837dd6d76f9df09b57ad17265e515c72f584eb25f4a8b","s":"0x3400900a0162cdcd40538681d98defba810e7cb0c7f3efecffc7f01d97296a16","to":"0x2f4942c15196a050f83001b781f345b00d345ff7","transactionIndex":"0xc","type":"0x0","v":"0x37","value":"0x0"},{"blockHash":"0x744cf1f1a8d0a567e4d18425f5bf84ef6c1e988dfe78cb707424e182df7a2102","blockNumber":"0x8c700db","chainId":"0xa","from":"0x0540c3d64c00a046e81576b930b5d29173333333","gas":"0x22276f","gasPrice":"0xa51","hash":"0x6c02409ad949fe0d9eaf4ad496f6e75afb74e92093c957a45a0acc9b64bcd426","input":"0x03992972bf0c91a1de30e92042ab380acd669e29261cf30e5e8626f700000114dc62cdac1605fb68093ab31d14727d9c77c04e66346866c63300000000001e000000000130fa8daf196747e1fa23e601598e09b7314b848c00000000011e0003096d0100000000","nonce":"0x4c71b","r":"0x498a7498eeaea582cd7e61c88d615a98d846ec87b3f3eeb5c88a9398b9cb12c5","s":"0x6f394d0e2fbf2d7847712f510144555ecd197828fc5d8551b3313d75c83309bc","to":"0x2f4942c15196a050f83001b781f345b00d345ff7","transactionIndex":"0xd","type":"0x0","v":"0x37","value":"0x0"},{"accessList":[],"blockHash":"0x744cf1f1a8d0a567e4d18425f5bf84ef6c1e988dfe78cb707424e182df7a2102","blockNumber":"0x8c700db","chainId":"0xa","from":"0x9bf35a4d0d46a4d54f0503df2e661b5daec416c3","gas":"0x161ae","gasPrice":"0x8da","hash":"0x7c626934b5765758b747709c963a5d6ead2fbe2f5f61dd2e718ef63a6195ad33","input":"0x095ea7b3000000000000000000000000ccc88a9d1b4ed6b0eaba998850414b24f1c315beffffffffffffffffffffffffffffffffffffffffffffffffffffffffffffffff","maxFeePerGas":"0xc350","maxPriorityFeePerGas":"0x1","nonce":"0x4","r":"0xf456b29efddde5a3cf1e7527dd121ba48b38f14b09c57ec7baa56bb093cd7c4f","s":"0x3026ab0bd0b91b0d3600e3e2f8dfc05ae1f25df67ce3db6d32adc404b5cbd016","to":"0x0b2c639c533813f4aa9d7837caf62653d097ff85","transactionIndex":"0xe","type":"0x2","v":"0x0","value":"0x0","yParity":"0x0"},{"accessList":[],"blockHash":"0x744cf1f1a8d0a567e4d18425f5bf84ef6c1e988dfe78cb707424e182df7a2102","blockNumber":"0x8c700db","chainId":"0xa","from":"0x4337042d8a539c80c92d84e141271db09f9bec68","gas":"0x67c42","gasPrice":"0x15f7ec","hash":"0x45effbadee892ad80f0fb8aff4e03af4c39dd118ab024971b516c2a87487ff12","input":"0x765e827f00000000000000000000000000000000000000000000000000000000000000400000000000000000000000004337042d8a539c80c92d84e141271db09f9bec6800000000000000000000000000000000000000000000000000000000000000010000000000000000000000000000000000000000000000000000000000000020000000000000000000000000a5fb51054f425d4dda198a45a0ba94f0d3c24af30000000000000000000000000000000000000000000000000000000000000007000000000000000000000000000000000000000000000000000000000000012000000000000000000000000000000000000000000000000000000000000001400000000000000000000000000000a3520000000000000000000000000003d6cd000000000000000000000000000000000000000000000000000000000001204d0000000000000000000000000016e36000000000000000000000000000262e7600000000000000000000000000000000000000000000000000000000000008400000000000000000000000000000000000000000000000000000000000000900000000000000000000000000000000000000000000000000000000000000000000000000000000000000000000000000000000000000000000000000000006c4e9ae5c53010000000000000000000000000000000000000000000000000000000000000000000000000000000000000000000000000000000000000000000000000000400000000000000000000000000000000000000000000000000000000000000660000000000000000000000000000000000000000000000000000000000000002000000000000000000000000000000000000000000000000000000000000000030000000000000000000000000000000000000000000000000000000000000060000000000000000000000000000000000000000000000000000000000000014000000000000000000000000000000000000000000000000000000000000005a000000000000000000000000094b008aa00579c1307b0ef2c499ad98a8ce58e58000000000000000000000000000000000000000000000000000000000000000000000000000000000000000000000000000000000000000000000000000000600000000000000000000000000000000000000000000000000000000000000044a9059cbb000000000000000000000000f70853810b8fc6869068dc8f7f94c439c9a2cdca0000000000000000000000000000000000000000000000000000000000002c05000000000000000000000000000000000000000000000000000000000000000000000000000000006733eb2e75b1625f1fe5f18ad2cb2babda510d190000000000000000000000000000000000000000000000000000000000000000000000000000000000000000000000000000000000000000000000000000006000000000000000000000000000000000000000000000000000000000000003c40c307f7600000000000000000000000000000000000000000000000000000000000344eb000000000000000000000000a5fb51054f425d4dda198a45a0ba94f0d3c24af300000000000000000000000094b008aa00579c1307b0ef2c499ad98a8ce58e580000000000000000000000000b2c639c533813f4aa9d7837caf62653d097ff8500000000000000000000000000000000000000000000000000000000012f003f00000000000000000000000000000000000000000000000000000000012d4ed2000000000000000000000000000000000000000000000000000000006981e97600000000000000000000000000000000000000000000000000000000000001000000000000000000000000000000000000000000000000000000000000000001000000000000000000000000000000000000000000000000000000000000002000000000000000000000000000000000000000000000000000000000000000a000000000000000000000000000000000000000000000000000000000000000e00000000000000000000000000000000000000000000000000000000000000120000000000000000000000000000000000000000000000000000000000000016000000000000000000000000094b008aa00579c1307b0ef2c499ad98a8ce58e58000000000000000000000000000000000000000000000000000000000000000100000000000000000000000045b0a206a0ee358d929ceee782d63b2d7e748540000000000000000000000000000000000000000000000000000000000000000100000000000000000000000045b0a206a0ee358d929ceee782d63b2d7e7485400000000000000000000000000000000000000000000000000000000000000001800000000000000000012710000000000000000000000000000000000000000000000000000000000000000000000000000000000000000000000000000000010000000000000000000000000000000000000000000000000000000000000020000000000000000000000000000000000000000000000000000000000000008000000000000000000000000094b008aa00579c1307b0ef2c499ad98a8ce58e580000000000000000000000000b2c639c533813f4aa9d7837caf62653d097ff850000000000000000000000000000000000000000000000000000000000000014000000000000000000000000000000000000000000000000000000000000000177777777111180000000000000000000000000000000000000000000012ed26f777777771111000000000064fa00a9ed787f3793db668bff3e6e6e7db0f92a1b00000000000000000000000000000000000000000000000000000000000000000000000000000000a5fb51054f425d4dda198a45a0ba94f0d3c24af3000000000000000000000000000000000000000000000000000000000000000000000000000000000000000000000000000000000000000000000000000000600000000000000000000000000000000000000000000000000000000000000000000000000000000000000000000000000000000000000000000000000000000000000000000000000000000000000000000000000000000000000082777777777777aec03fd955926dbf81597e66834c0000000000000000000000000000b578000000000000000000000000000000010100006981ddc40000000000001b35c0d56d734a7bd3fe919d7110baaf8a7ee0d1d4676632ea996eafc7390f806215494319c88122542ace9ca395dd4ae776de5274939ae5d7bd5b23bd63cd291b0000000000000000000000000000000000000000000000000000000000000000000000000000000000000000000000000000000000000000000000000041cf6c42ffd56e9ed365cc29e280d9445f2b53a8eca683334f8611b99cb774a53e6c443828c87ecdf960103b6ef01282083159a15f1409830c59534245aef74bcb1c00000000000000000000000000000000000000000000000000000000000000","maxFeePerGas":"0x15f7ec","maxPriorityFeePerGas":"0x15f7ec","nonce":"0x3a39","r":"0xc5e3e172f47e2d767721b4eaff138d3e2bc29f0eac19dcedc8019b5ec067cdf1","s":"0x456b12fdf6bd4bb15422c0fbfa0ea8d12fb1bfc5287ac8fd5804cb03a0366748","to":"0x0000000071727de22e5e9d8baf0edac6f37da032","transactionIndex":"0xf","type":"0x2","v":"0x0","value":"0x0","yParity":"0x0"},{"accessList":[],"blockHash":"0x744cf1f1a8d0a567e4d18425f5bf84ef6c1e988dfe78cb707424e182df7a2102","blockNumber":"0x8c700db","chainId":"0xa","from":"0x84ad63f59a540de6198c697206822fad0ce3b889","gas":"0x55f0","gasPrice":"0xf4b19","hash":"0x285ff45732b69fdcab997fc2ff0f5f2f8ee118e3cd573cd16b2995673a841ec0","input":"0x","maxFeePerGas":"0x1e8d56","maxPriorityFeePerGas":"0xf4240","nonce":"0x13","r":"0xc2b5767c4f77b75db50006f2a2869364aa0cdf4ce59a3c80d3f620bcb095c9f3","s":"0x2df1c898a7a52180e4947e3120e6e7f93abdf618fb3f54e3fe0f29fb59d58467","to":"0x0200d4d4cbe9ba4ed322e9e5b8229fbedead0000","transactionIndex":"0x10","type":"0x2","v":"0x1","value":"0xa19f8467a21","yParity":"0x1"},{"accessList":[],"blockHash":"0x744cf1f1a8d0a567e4d18425f5bf84ef6c1e988dfe78cb707424e182df7a2102","blockNumber":"0x8c700db","chainId":"0xa","from":"0x795a2865837cf2117c1b1cb8bc4635b558c3ea9f","gas":"0xb71b00","gasPrice":"0x18f79","hash":"0xf517bbaae88e11aeaea131c640ecfb829e5426559b99fbe96768cacc4cdc9666","input":"0x0000000000006981dbaa1c8bc1eace20e429dfca1655e3e1ee6be29a07b015c17772f4458a221991749e950660e55f2cb9baad71f451d29288d8e8d58a3c5e5f7bfbe39fc19ef7d1d4f9410d020003478946bcd4a5a22b316470f5486fafb928c0ba2500023b00006403096e0002c1738d90e2e26c35784a0d3e3d8a9f795074bca4000bb800003c00000001030003478946bcd4a5a22b316470f5486fafb928c0ba2500023b00006403096e00022e2d190ad4e0d7be9569baebd4d33298379b05020001f400000a000000010285149247691df622eaf1a8bd0cafd40bc45154a90001f400000a0000000003000339ed27d101aa4b7ce1cb4293b877954b8b5e14e5000bd60000c801ce2a0101a0a215de234276cac1b844fd58901351a50fec8a0023280000000000000003478946bcd4a5a22b316470f5486fafb928c0ba2500023b00006403096e01030003319c0dd36284ac24a6b2bee73929f699b9f48c380001f9000064fbf28f0102adab76dd2dca7ae080a796f0ce86170e482afb4a000bb800003c0000000002c1738d90e2e26c35784a0d3e3d8a9f795074bca4000bb800003c0000000103000273b14a78a0d396c521f954532d43fd5ffe385216000bb800003c0000000103cf50dea65ee80ebddaa61005a960ef5a5c995a990001f9000064fefbf70002c1738d90e2e26c35784a0d3e3d8a9f795074bca4000bb800003c000000010300034dc22588ade05c40338a9d95a6da9dcee68bcd600001f90000c80167be0101e9581d0f1a628b038fc8b2a7f5a7d904f0e2f937002710000000000000010339ed27d101aa4b7ce1cb4293b877954b8b5e14e5000bd60000c801ce2a00030003478946bcd4a5a22b316470f5486fafb928c0ba2500023b00006403096e0001a0a215de234276cac1b844fd58901351a50fec8a002328000000000000010339ed27d101aa4b7ce1cb4293b877954b8b5e14e5000bd60000c801ce2a00020003478946bcd4a5a22b316470f5486fafb928c0ba2500023b00006403096e00021fb3cf6e48f1e7b10213e7b6d87d4c073c7fdb7b0001f400000a00000001020003319c0dd36284ac24a6b2bee73929f699b9f48c380001f9000064fbf28f010285c31ffa3706d1cce9d525a00f1c7d4a2911754c0001f400000a000000000300046459d26482d93057c4a6f91ab5a3f1e0a058558a6da1692c94b04cad4052b0f0000bb800003c0000000102827f0a2a4376bc26729f398b865f424dc84568410001f400000a0000000002c858a329bf053be78d6239c4a4343b8fbd21472b0001f400000a000000000300031d72b49f81832ef8155d8dedfce9cd122367e3b30001f9000064012df90102bf16ef186e715668aa29cef57e2fd7f9d48adfe6000064000001000000000285149247691df622eaf1a8bd0cafd40bc45154a90001f400000a000000000200021fb3cf6e48f1e7b10213e7b6d87d4c073c7fdb7b0001f400000a0000000002ff202313e26974cfc4ab0121c485ba54303a2e4100012c00000a000000010200021fb3cf6e48f1e7b10213e7b6d87d4c073c7fdb7b0001f400000a0000000003478946bcd4a5a22b316470f5486fafb928c0ba2500023b00006403096e01","maxFeePerGas":"0x3938700","maxPriorityFeePerGas":"0x186a0","nonce":"0x17ac2","r":"0xae24f027ca90fe837f6afd852068e21369424224e7e92723c50207a2470e1dc","s":"0x1e9035569964f2ee99cb357d925466132067ff287fe7e6f2e39e6e2a2ec9040e","to":"0x355463adfd60892ee5aefb92ba2e86d8cd554a30","transactionIndex":"0x11","type":"0x2","v":"0x0","value":"0x0","yParity":"0x0"},{"accessList":[],"blockHash":"0x744cf1f1a8d0a567e4d18425f5bf84ef6c1e988dfe78cb707424e182df7a2102","blockNumber":"0x8c700db","chainId":"0xa","from":"0x43370402cbeba6ab53fbc8a52894537024a39269","gas":"0x67c42","gasPrice":"0x15fa74","hash":"0xed1219e8221b6b2b4d77a3848b1490f4a34ac85b45ef620183398f5d63537813","input":"0x765e827f000000000000000000000000000000000000000000000000000000000000004000000000000000000000000043370402cbeba6ab53fbc8a52894537024a39269000000000000000000000000000000000000000000000000000000000000000100000000000000000000000000000000000000000000000000000000000000200000000000000000000000004cd3833e9d1d1aa16b7697071610713c020849c40000000000000000000000000000000000000000000000000000000000000007000000000000000000000000000000000000000000000000000000000000012000000000000000000000000000000000000000000000000000000000000001400000000000000000000000000000a3520000000000000000000000000003d6cd00000000000000000000000000000000000000000000000000000000000120ef0000000000000000000000000016e36000000000000000000000000000262e7600000000000000000000000000000000000000000000000000000000000008400000000000000000000000000000000000000000000000000000000000000900000000000000000000000000000000000000000000000000000000000000000000000000000000000000000000000000000000000000000000000000000006c4e9ae5c53010000000000000000000000000000000000000000000000000000000000000000000000000000000000000000000000000000000000000000000000000000400000000000000000000000000000000000000000000000000000000000000660000000000000000000000000000000000000000000000000000000000000002000000000000000000000000000000000000000000000000000000000000000030000000000000000000000000000000000000000000000000000000000000060000000000000000000000000000000000000000000000000000000000000014000000000000000000000000000000000000000000000000000000000000005a000000000000000000000000094b008aa00579c1307b0ef2c499ad98a8ce58e58000000000000000000000000000000000000000000000000000000000000000000000000000000000000000000000000000000000000000000000000000000600000000000000000000000000000000000000000000000000000000000000044a9059cbb000000000000000000000000f70853810b8fc6869068dc8f7f94c439c9a2cdca0000000000000000000000000000000000000000000000000000000000002c23000000000000000000000000000000000000000000000000000000000000000000000000000000006733eb2e75b1625f1fe5f18ad2cb2babda510d190000000000000000000000000000000000000000000000000000000000000000000000000000000000000000000000000000000000000000000000000000006000000000000000000000000000000000000000000000000000000000000003c40c307f7600000000000000000000000000000000000000000000000000000000000344eb0000000000000000000000004cd3833e9d1d1aa16b7697071610713c020849c400000000000000000000000094b008aa00579c1307b0ef2c499ad98a8ce58e580000000000000000000000000b2c639c533813f4aa9d7837caf62653d097ff8500000000000000000000000000000000000000000000000000000000012feb4800000000000000000000000000000000000000000000000000000000012e388a000000000000000000000000000000000000000000000000000000006981e97700000000000000000000000000000000000000000000000000000000000001000000000000000000000000000000000000000000000000000000000000000001000000000000000000000000000000000000000000000000000000000000002000000000000000000000000000000000000000000000000000000000000000a000000000000000000000000000000000000000000000000000000000000000e00000000000000000000000000000000000000000000000000000000000000120000000000000000000000000000000000000000000000000000000000000016000000000000000000000000094b008aa00579c1307b0ef2c499ad98a8ce58e58000000000000000000000000000000000000000000000000000000000000000100000000000000000000000045b0a206a0ee358d929ceee782d63b2d7e748540000000000000000000000000000000000000000000000000000000000000000100000000000000000000000045b0a206a0ee358d929ceee782d63b2d7e7485400000000000000000000000000000000000000000000000000000000000000001800000000000000000012710000000000000000000000000000000000000000000000000000000000000000000000000000000000000000000000000000000010000000000000000000000000000000000000000000000000000000000000020000000000000000000000000000000000000000000000000000000000000008000000000000000000000000094b008aa00579c1307b0ef2c499ad98a8ce58e580000000000000000000000000b2c639c533813f4aa9d7837caf62653d097ff850000000000000000000000000000000000000000000000000000000000000014000000000000000000000000000000000000000000000000000000000000000177777777111180000000000000000000000000000000000000000000012fbd54777777771111000000000064fa00a9ed787f3793db668bff3e6e6e7db0f92a1b000000000000000000000000000000000000000000000000000000000000000000000000000000004cd3833e9d1d1aa16b7697071610713c020849c4000000000000000000000000000000000000000000000000000000000000000000000000000000000000000000000000000000000000000000000000000000600000000000000000000000000000000000000000000000000000000000000000000000000000000000000000000000000000000000000000000000000000000000000000000000000000000000000000000000000000000000000082777777777777aec03fd955926dbf81597e66834c0000000000000000000000000000b578000000000000000000000000000000010100006981ddc5000000000000c6098f74d28a054c05bd270b81bf3b2328fe0d6a7aa8d23e5e460ea1f845ce9942ed65a95a3340cb37d8fcaa45332f9169dfc82e417c7810878760072e557cf61b00000000000000000000000000000000000000000000000000000000000000000000000000000000000000000000000000000000000000000000000000414b3bbae4ae40ab9c1a8619df96536c6c691b4e4c9cc82a8be7deb8169e1b3ca410fbf21df53de9d4928a99151d4bb3d6611cf26f058b6fd9dabdfd0b53ce1b441b00000000000000000000000000000000000000000000000000000000000000","maxFeePerGas":"0x15fa74","maxPriorityFeePerGas":"0x15fa74","nonce":"0x3991","r":"0x68c46f38d4697f3cc345fd10de701e0a20792016f9f757c0a618673123a48abc","s":"0x631631532f00bf73434f02591d283a4835623032c8b0b2054c5a701c928c9fa8","to":"0x0000000071727de22e5e9d8baf0edac6f37da032","transactionIndex":"0x12","type":"0x2","v":"0x0","value":"0x0","yParity":"0x0"},{"accessList":[],"blockHash":"0x744cf1f1a8d0a567e4d18425f5bf84ef6c1e988dfe78cb707424e182df7a2102","blockNumber":"0x8c700db","chainId":"0xa","from":"0x7ef630cd463c5970517e41065b32bee9f963f01f","gas":"0xe4e1c0","gasPrice":"0x18f79","hash":"0x81e239c8eae5184548334bbc0353d88f7c348689b8bc74a07867abc744b9d197","input":"0x424b4f820000000000000000000000000000000000000000000000000000000000000000","maxFeePerGas":"0x1df10","maxPriorityFeePerGas":"0x186a0","nonce":"0x13c17c","r":"0x5ec571719d2e7747f03be08119a1537948fcc0d34fc5712d65d0a50fbad0092b","s":"0x7c1662963507427c6870c3d9adb18ff29ae632bc366aac484d08a34cdec62242","to":"0x61beb1c2b4ea5334d3ee4b088550509ac1b1da13","transactionIndex":"0x13","type":"0x2","v":"0x1","value":"0x0","yParity":"0x1"},{"accessList":[],"blockHash":"0x744cf1f1a8d0a567e4d18425f5bf84ef6c1e988dfe78cb707424e182df7a2102","blockNumber":"0x8c700db","chainId":"0xa","from":"0xc02fe543548d1685cae137d91388d0725d2b26ee","gas":"0xe4e1c0","gasPrice":"0x18f79","hash":"0x6d766569da459a788141e55affbe2abbc79b58fa9e351342ac7a488455bb50a6","input":"0x424b4f820000000000000000000000000000000000000000000000000000000000000000","maxFeePerGas":"0x1df10","maxPriorityFeePerGas":"0x186a0","nonce":"0x13b3f1","r":"0x946051e632a6b9c2779aed5f59371b95235e0feeaba7dbcd7a23b543cb973d45","s":"0x1cbe3388e364140961b1d0454f01d9da20720a4d85c0b282590e631da6042367","to":"0x61beb1c2b4ea5334d3ee4b088550509ac1b1da13","transactionIndex":"0x14","type":"0x2","v":"0x0","value":"0x0","yParity":"0x0"},{"accessList":[],"blockHash":"0x744cf1f1a8d0a567e4d18425f5bf84ef6c1e988dfe78cb707424e182df7a2102","blockNumber":"0x8c700db","chainId":"0xa","from":"0x293bf98a93e8d947b478a8f1fcada655d557177a","gas":"0xe4e1c0","gasPrice":"0x18f79","hash":"0xcd1d6b775a47f1eaa92f7e3667fbd0e0d0786abb494fdf7b5a4dd0e26cd34647","input":"0x424b4f820000000000000000000000000000000000000000000000000000000000000000","maxFeePerGas":"0x1df10","maxPriorityFeePerGas":"0x186a0","nonce":"0x13bde1","r":"0xef4c7b4d01f32b6c90c050f10216d4ab5f03bef3645d93ff179361734cb86f52","s":"0x6b102be33f97f4a4b3b769987d63d783462001f1d313845c349c0b58446957b","to":"0x61beb1c2b4ea5334d3ee4b088550509ac1b1da13","transactionIndex":"0x15","type":"0x2","v":"0x1","value":"0x0","yParity":"0x1"},{"accessList":[],"blockHash":"0x744cf1f1a8d0a567e4d18425f5bf84ef6c1e988dfe78cb707424e182df7a2102","blockNumber":"0x8c700db","chainId":"0xa","from":"0x0366cfd13e6a0d2704ff04c998bb1897941ecc00","gas":"0xb71b00","gasPrice":"0x18f79","hash":"0xb07474cfb09d3b5684452686f3fda8ad52e805af3897b4e6c983e9715ce28b44","input":"0x0000000000006981dbaa1c17b2a4474916a8b3129e9dcb6a14a1567e4a32c963eb2bac8de454cd9af5ca4e5557cf7f438735bd5debe5eae61cb5a2f4368cabf860d6ade164d040ddd38d4c12020003478946bcd4a5a22b316470f5486fafb928c0ba2500023b00006403096e0002c1738d90e2e26c35784a0d3e3d8a9f795074bca4000bb800003c00000001030003478946bcd4a5a22b316470f5486fafb928c0ba2500023b00006403096e00022e2d190ad4e0d7be9569baebd4d33298379b05020001f400000a000000010285149247691df622eaf1a8bd0cafd40bc45154a90001f400000a0000000003000339ed27d101aa4b7ce1cb4293b877954b8b5e14e5000bd60000c801ce2a0101a0a215de234276cac1b844fd58901351a50fec8a0023280000000000000003478946bcd4a5a22b316470f5486fafb928c0ba2500023b00006403096e01030003319c0dd36284ac24a6b2bee73929f699b9f48c380001f9000064fbf28f0102adab76dd2dca7ae080a796f0ce86170e482afb4a000bb800003c0000000002c1738d90e2e26c35784a0d3e3d8a9f795074bca4000bb800003c0000000103000273b14a78a0d396c521f954532d43fd5ffe385216000bb800003c0000000103cf50dea65ee80ebddaa61005a960ef5a5c995a990001f9000064fefbf70002c1738d90e2e26c35784a0d3e3d8a9f795074bca4000bb800003c00000001030003478946bcd4a5a22b316470f5486fafb928c0ba2500023b00006403096e000384ce89b4f6f67e523a81a82f9f2f14d84b726f6b00005b0000010000050102c858a329bf053be78d6239c4a4343b8fbd21472b0001f400000a00000000030003478946bcd4a5a22b316470f5486fafb928c0ba2500023b00006403096e0002b533c12fb4e7b53b5524eab9b47d93ff6c7a456f000bb800003c000000010268f5c0a2de713a54991e01858fd27a3832401849000bb800003c00000000030003319c0dd36284ac24a6b2bee73929f699b9f48c380001f9000064fbf28f0103cf50dea65ee80ebddaa61005a960ef5a5c995a990001f9000064fefbf70003478946bcd4a5a22b316470f5486fafb928c0ba2500023b00006403096e010200021fb3cf6e48f1e7b10213e7b6d87d4c073c7fdb7b0001f400000a0000000003478946bcd4a5a22b316470f5486fafb928c0ba2500023b00006403096e01020102adab76dd2dca7ae080a796f0ce86170e482afb4a000bb800003c0000000102def705a1864bcba65e4e275bffd58de21b5d44a00027100000c8000000000300034dc22588ade05c40338a9d95a6da9dcee68bcd600001f90000c80167be0101e9581d0f1a628b038fc8b2a7f5a7d904f0e2f937002710000000000000010339ed27d101aa4b7ce1cb4293b877954b8b5e14e5000bd60000c801ce2a00030003478946bcd4a5a22b316470f5486fafb928c0ba2500023b00006403096e0001a0a215de234276cac1b844fd58901351a50fec8a002328000000000000010339ed27d101aa4b7ce1cb4293b877954b8b5e14e5000bd60000c801ce2a00020003478946bcd4a5a22b316470f5486fafb928c0ba2500023b00006403096e00021fb3cf6e48f1e7b10213e7b6d87d4c073c7fdb7b0001f400000a00000001020003319c0dd36284ac24a6b2bee73929f699b9f48c380001f9000064fbf28f010285c31ffa3706d1cce9d525a00f1c7d4a2911754c0001f400000a000000000300046459d26482d93057c4a6f91ab5a3f1e0a058558a6da1692c94b04cad4052b0f0000bb800003c0000000102827f0a2a4376bc26729f398b865f424dc84568410001f400000a0000000002c858a329bf053be78d6239c4a4343b8fbd21472b0001f400000a000000000300031d72b49f81832ef8155d8dedfce9cd122367e3b30001f9000064012df90102bf16ef186e715668aa29cef57e2fd7f9d48adfe6000064000001000000000285149247691df622eaf1a8bd0cafd40bc45154a90001f400000a000000000200021fb3cf6e48f1e7b10213e7b6d87d4c073c7fdb7b0001f400000a0000000002ff202313e26974cfc4ab0121c485ba54303a2e4100012c00000a00000001040003a9f987869bfe56d3a2ece2e79df55684d0bbcd8b0001f90000640309630003f7f575f2c0f6c99fa9efe1bde9e11fa10be4fef9000065000001fffff90103ee1bac98527a9fdd57fccf967817215b083ce1f00001f900006403017c01022b959ccb3c8fc1ed7769004742c197e28251027e00003200000100000001","maxFeePerGas":"0x3938700","maxPriorityFeePerGas":"0x186a0","nonce":"0x908e3","r":"0x2626f5c44ed04a3d14c1d0c192ff67783c84ab44f7a2565d23dc54b3126f41f6","s":"0x3883aca550d0008c227b9b8b03819413289783917932ff69cf2e72d4cb45ece9","to":"0x355463adfd60892ee5aefb92ba2e86d8cd554a30","transactionIndex":"0x16","type":"0x2","v":"0x0","value":"0x0","yParity":"0x0"},{"accessList":[],"blockHash":"0x744cf1f1a8d0a567e4d18425f5bf84ef6c1e988dfe78cb707424e182df7a2102","blockNumber":"0x8c700db","chainId":"0xa","from":"0x2f3ad16f36acb4f2e5accc16a48236937f68645f","gas":"0xe4e1c0","gasPrice":"0xa3e","hash":"0xc99fa25a26042ca6128dd0593dfd5caa94b36dd3efc5d32a5bd61100a9ba6f46","input":"0x424b4f820000000000000000000000000000000000000000000000000000000000000000","maxFeePerGas":"0x59d5","maxPriorityFeePerGas":"0x165","nonce":"0x13ac15","r":"0x737c5c697a9af157a0193d4244fe2d64e849b97bc72892a1809ded78f73240bd","s":"0x356a79f80b8f5631b4ce13874695cb0c26b0fff6681654db409661f354efeb43","to":"0x61beb1c2b4ea5334d3ee4b088550509ac1b1da13","transactionIndex":"0x17","type":"0x2","v":"0x0","value":"0x0","yParity":"0x0"},{"accessList":[],"blockHash":"0x744cf1f1a8d0a567e4d18425f5bf84ef6c1e988dfe78cb707424e182df7a2102","blockNumber":"0x8c700db","chainId":"0xa","from":"0x1f9652dc6152cc8b14e05b35280eb4b81d01f12b","gas":"0xe4e1c0","gasPrice":"0x8da","hash":"0x5c780458239e9a627670a37562c290c032c4f48a3441ebd2ca8b4b8f2a3572ec","input":"0x424b4f820000000000000000000000000000000000000000000000000000000000000000","maxFeePerGas":"0x5871","maxPriorityFeePerGas":"0x1","nonce":"0x13c557","r":"0xa0972de8200a9da54d05a37a22ceffe16e8dc9bcecde39c33e25f081e474c877","s":"0x773e823c47b25fa331fff72de52f0f1c9b1bd5f08987db2fe8a79ed1b87c6556","to":"0x61beb1c2b4ea5334d3ee4b088550509ac1b1da13","transactionIndex":"0x18","type":"0x2","v":"0x1","value":"0x0","yParity":"0x1"},{"accessList":[],"blockHash":"0x744cf1f1a8d0a567e4d18425f5bf84ef6c1e988dfe78cb707424e182df7a2102","blockNumber":"0x8c700db","chainId":"0xa","from":"0x42085305a3057f3fdcd91e90b352f0a459c69005","gas":"0x1312d0","gasPrice":"0x8da","hash":"0xae4c38093738994995abde76b3d757c3989e5c3dfa09143e33c7be3d4e6dbed0","input":"0xb5007d1f0000000000000000000000004200000000000000000000000000000000000006000000000000000000000000420000000000000000000000000000000000004200000000000000000000000000000000000000000000000000000000000000c800000000000000000000000000000000000000000000000000000000000168f000000000000000000000000000000000000000000000000000000000000d89a00000000000000000000000000000000000000000000000041f5efe554484a09a0000000000000000000000000000000000000000000000000000000000000000000000000000000000000000000000000000000000000003ea9a3e6a9ab1322c000000000000000000000000000000000000000000000000000000000000000000000000000000000000000042085305a3057f3fdcd91e90b352f0a459c69005ffffffffffffffffffffffffffffffffffffffffffffffffffffffffffffffff0000000000000000000000000000000000000000000000000000000000000000","maxFeePerGas":"0x11ad","maxPriorityFeePerGas":"0x1","nonce":"0x421e","r":"0x136ee1637ee6dd8872243b067b93d59db70c108051951a9b17352d4461749b90","s":"0xae619da59e9d59c0dfce3a25fefaad310515bb7237bd84445a936557e26a7cd","to":"0x416b433906b1b72fa758e166e239c43d68dc6f29","transactionIndex":"0x19","type":"0x2","v":"0x0","value":"0x0","yParity":"0x0"},{"accessList":[],"blockHash":"0x744cf1f1a8d0a567e4d18425f5bf84ef6c1e988dfe78cb707424e182df7a2102","blockNumber":"0x8c700db","chainId":"0xa","from":"0xf9158b5d4e5a7cde48f4edd3b487d5db74bb6ea7","gas":"0x5208","gasPrice":"0xf4b19","hash":"0x3d8dbfd528f4d212c38c9549414d8ba7f365383e374f57774f9d42a4585e5c62","input":"0x","maxFeePerGas":"0xf4cdc","maxPriorityFeePerGas":"0xf4240","nonce":"0xe","r":"0x798aad2b48e59e897c65c49f8841dee946936407efadca79f2c1fd668370958d","s":"0x634e3eec038342b5aa93925ec85ab649380946d6cc211383bd757fc7d79b12f4","to":"0xdf284270c7098d36a1637c4fc711abc9209f3e34","transactionIndex":"0x1a","type":"0x2","v":"0x1","value":"0x3ea699ab042","yParity":"0x1"},{"accessList":[],"blockHash":"0x744cf1f1a8d0a567e4d18425f5bf84ef6c1e988dfe78cb707424e182df7a2102","blockNumber":"0x8c700db","chainId":"0xa","from":"0x2220180896981b5babd37f46fba8ab8898f38288","gas":"0xe4e1c0","gasPrice":"0x1716b","hash":"0x59cbb1ff31d2524ff7c82a057e89df955c0fdcb8aad8481656bff99fc49dc8d3","input":"0x424b4f820000000000000000000000000000000000000000000000000000000000000000","maxFeePerGas":"0x1c102","maxPriorityFeePerGas":"0x16892","nonce":"0x13b66b","r":"0xad71e3f7a4728ba113000a7f304142475ed71500d6117436e3c80f99312b2639","s":"0xec35a4cd6afe07e6e86bc14b9082066b40308461a255952c35e6f9bb559c866","to":"0x61beb1c2b4ea5334d3ee4b088550509ac1b1da13","transactionIndex":"0x1b","type":"0x2","v":"0x1","value":"0x0","yParity":"0x1"},{"accessList":[],"blockHash":"0x744cf1f1a8d0a567e4d18425f5bf84ef6c1e988dfe78cb707424e182df7a2102","blockNumber":"0x8c700db","chainId":"0xa","from":"0xb010f024bd7bfb85813ee9d5f61f86f26763e990","gas":"0x7a120","gasPrice":"0x207d","hash":"0xbc9bcc1a2e4640aef302b22dbee0e19b704d2de111d5bbc4689e237fe5f1f4e0","input":"0x51905636000000000000000000000000b010f024bd7bfb85813ee9d5f61f86f26763e990000000000000000000000000000000000000000000000000000000000000006600000000000000000000000000000000000000000000000000000000000000e0000000000000000000000000000000000000000000093c91ce2d43f648f00000000000000000000000000000b010f024bd7bfb85813ee9d5f61f86f26763e990000000000000000000000000000000000000000000000000000000000000000000000000000000000000000000000000000000000000000000000000000001200000000000000000000000000000000000000000000000000000000000000020000000000000000000000000b010f024bd7bfb85813ee9d5f61f86f26763e9900000000000000000000000000000000000000000000000000000000000000000","maxFeePerGas":"0x2d7a","maxPriorityFeePerGas":"0x17a4","nonce":"0x10","r":"0xac757b072ef8b25772bb5e6d1ee837d736a3cb73c6aca00035aef7ec0cd69a3b","s":"0x5c9bbe5d521d1a7fbf9d332a3b4614cce2726f5fa8a089aba8c76e1defdcb685","to":"0x2f0adbff4e8a78a5b744f5fba368b2548dc9a79a","transactionIndex":"0x1c","type":"0x2","v":"0x0","value":"0x8577c8dc38b2","yParity":"0x0"},{"accessList":[],"blockHash":"0x744cf1f1a8d0a567e4d18425f5bf84ef6c1e988dfe78cb707424e182df7a2102","blockNumber":"0x8c700db","chainId":"0xa","from":"0x59b6151bc81071e4aa5c52967fb3f0205097b2c0","gas":"0xf6950","gasPrice":"0x959","hash":"0x8856c28f506d38103d1432ce88444e7fd040dbaf69aa3c1afa1ed9ee2872c990","input":"0xfdb5a03e","maxFeePerGas":"0xe05","maxPriorityFeePerGas":"0x80","nonce":"0x2a60c0","r":"0xb2d30c7a39bef8da71f971314d7b673f604b7b03d9fd5e8cda7ea0efdb2b8f8e","s":"0x4c7a14a5534ef7afe9cd71444db9da6188a7d5250b47a3725bf334690c4ff718","to":"0x4111a6c15c1d227ed9c1b5de2732ab3115bc1c2d","transactionIndex":"0x1d","type":"0x2","v":"0x1","value":"0x0","yParity":"0x1"},{"accessList":[],"blockHash":"0x744cf1f1a8d0a567e4d18425f5bf84ef6c1e988dfe78cb707424e182df7a2102","blockNumber":"0x8c700db","chainId":"0xa","from":"0x1e454bbca0599909bfb969cba883bc64291e833d","gas":"0xe4e1c0","gasPrice":"0x8da","hash":"0x470ac6d460fd7cd55151c50d8d32e9a4e598bbc0680130e5d2676d66fe57024f","input":"0x424b4f820000000000000000000000000000000000000000000000000000000000000000","maxFeePerGas":"0x5871","maxPriorityFeePerGas":"0x1","nonce":"0x13b288","r":"0xdc66b865bfe50a38961f536c672b1a06e9210e049d541a3278d1711d226728ea","s":"0x213822d3aa3dee22f8dabec95c4bf1a0a231f640c5260edb410f4764d19ec632","to":"0x61beb1c2b4ea5334d3ee4b088550509ac1b1da13","transactionIndex":"0x1e","type":"0x2","v":"0x1","value":"0x0","yParity":"0x1"},{"accessList":[],"blockHash":"0x744cf1f1a8d0a567e4d18425f5bf84ef6c1e988dfe78cb707424e182df7a2102","blockNumber":"0x8c700db","chainId":"0xa","from":"0xe0de8649f1902a8d2394fa79ca38aa20b716ba0f","gas":"0x64a31","gasPrice":"0x8da","hash":"0xa8f93c81d857cf6e0b52a60263473f8bec210a6fca9c46b49d5cb90736307e95","input":"0xa694fc3a0000000000000000000000000000000000000000000000552e1bf7e4b03aae40","maxFeePerGas":"0xafc","maxPriorityFeePerGas":"0x1","nonce":"0x51","r":"0xf5f00fff3ac789d5ca8c3dfd5a5c8f968fb4e3e817337f82b13086d2368b9f88","s":"0xa94f63eed33679cf965a5d6e49c044138a1d3a99fa95605dbd4d7d29474a656","to":"0xba91ffd8a2b9f68231eca6af51623b3433a89b13","transactionIndex":"0x1f","type":"0x2","v":"0x1","value":"0x9d185b56c492","yParity":"0x1"},{"blockHash":"0x744cf1f1a8d0a567e4d18425f5bf84ef6c1e988dfe78cb707424e182df7a2102","blockNumber":"0x8c700db","chainId":"0xa","from":"0xc477d71e6c504eaa7e40a2d539e2665c082330b0","gas":"0xd22a","gasPrice":"0x125a1c","hash":"0xe2d5407cf1b030685e4779ad48ba9b8bd128b9733a96faf76003cd997e6432c6","input":"0x783a112b00000000000000000000000000000000000000000000000000000000001056250000000000000000000000000000000000000000000000000000000000000001","nonce":"0x11d05","r":"0xd64d69aba8982898d942ea8aac441c4868cf3b93ab2251913a285f97aa365a6e","s":"0x39fb51a71d54be41f635436a83234d5ea01362ed1fc376f69f8566f96c01997c","to":"0x00000000fcce7f938e7ae6d3c335bd6a1a7c593d","transactionIndex":"0x20","type":"0x0","v":"0x37","value":"0x4d59e9418a29"},{"accessList":[],"blockHash":"0x744cf1f1a8d0a567e4d18425f5bf84ef6c1e988dfe78cb707424e182df7a2102","blockNumber":"0x8c700db","chainId":"0xa","from":"0x6980fac1abcb06218c5361af5120d0973faa56c2","gas":"0xe4e1c0","gasPrice":"0x18f79","hash":"0x03839a988d539cd65729ad62fc5698e70e267a72ad9d42547752011b1f69d9df","input":"0x424b4f820000000000000000000000000000000000000000000000000000000000000000","maxFeePerGas":"0x1df10","maxPriorityFeePerGas":"0x186a0","nonce":"0x13cf1d","r":"0x976fab29f28255fe34a6dbf2e6b9185708f224fead25b7b58996a590c3a77ff4","s":"0x71977a58f27c908597a48f2cf4a5fe29a49d2eaf568508d2413d824b1e32475b","to":"0x61beb1c2b4ea5334d3ee4b088550509ac1b1da13","transactionIndex":"0x21","type":"0x2","v":"0x1","value":"0x0","yParity":"0x1"},{"accessList":[],"blockHash":"0x744cf1f1a8d0a567e4d18425f5bf84ef6c1e988dfe78cb707424e182df7a2102","blockNumber":"0x8c700db","chainId":"0xa","from":"0x8fb6b5fb4abb7243a4ae4545d2740bf61ee030e5","gas":"0x189110","gasPrice":"0x916","hash":"0x6976202d6dc0c3d26c1f1a75082cda8ffdc1f1d3375d215d5530dd3c58541561","input":"0xfdb5a03e","maxFeePerGas":"0xda1","maxPriorityFeePerGas":"0x3d","nonce":"0x6f10d0","r":"0xb2cd31901415b08c9a5dbcbb41e62eb3821dbdb8dc1481a0d43a35a5126aa2a0","s":"0x239e99bacbd99040ecac2062be64fc45ad86c924be9f82ba9a1ef55d0d5b7534","to":"0x80942a0066f72efff5900cf80c235dd32549b75d","transactionIndex":"0x22","type":"0x2","v":"0x0","value":"0x0","yParity":"0x0"},{"accessList":[],"blockHash":"0x744cf1f1a8d0a567e4d18425f5bf84ef6c1e988dfe78cb707424e182df7a2102","blockNumber":"0x8c700db","chainId":"0xa","from":"0x5e9cc770b8feb8800c156b009063cb4939e30caf","gas":"0x27ac40","gasPrice":"0x8da","hash":"0x2c43fc8fdffcbed1f8272a7558fb5f43f36319cb1f1ce65b14df8565cea291d1","input":"0x83730cc30000000000000000000000000000000000000000000000000000000008c700db","maxFeePerGas":"0x11b1","maxPriorityFeePerGas":"0x1","nonce":"0x3ea686","r":"0x2b2c7114354466103fcffe4873d8351962fcb377f584d5596268aa7961f13d48","s":"0x58de594564224a74ac68644bb5287c5aa377283ebf7c7771be9067801a2ff527","to":"0x991ea644546ef0043afab651bd7daa01737d914e","transactionIndex":"0x23","type":"0x2","v":"0x1","value":"0x0","yParity":"0x1"},{"accessList":[],"blockHash":"0x744cf1f1a8d0a567e4d18425f5bf84ef6c1e988dfe78cb707424e182df7a2102","blockNumber":"0x8c700db","chainId":"0xa","from":"0x9e3ed65340a913b96ba7b86d5d5876dde623946e","gas":"0x27ac40","gasPrice":"0x8da","hash":"0xc1188ae0bb37d4c2112a40756abb9c48726def3e490a0c0791fd3fd46cc0fa2f","input":"0x83730cc30000000000000000000000000000000000000000000000000000000008c700db","maxFeePerGas":"0x11b1","maxPriorityFeePerGas":"0x1","nonce":"0x400439","r":"0xeceae0490d09d5d575d19c3f4f2b77e5195b0ca046c60073d4e5377eca2050f","s":"0xc074bfbe95edcd75892d64e022579163f8e57dfe33b400cd3b2e8447dedcd35","to":"0xd9f7bd6033d34caf61143a460d7f79c4384aae97","transactionIndex":"0x24","type":"0x2","v":"0x1","value":"0x0","yParity":"0x1"},{"accessList":[],"blockHash":"0x744cf1f1a8d0a567e4d18425f5bf84ef6c1e988dfe78cb707424e182df7a2102","blockNumber":"0x8c700db","chainId":"0xa","from":"0xcde377407d9b819efc0e185aa2d442194c2233e6","gas":"0x27ac40","gasPrice":"0x8da","hash":"0xbbee48bf03ed0f3c36e43874f6c5ad69bead7249a8d8431e84b3ed26440cc81f","input":"0x83730cc30000000000000000000000000000000000000000000000000000000008c700db","maxFeePerGas":"0x11b1","maxPriorityFeePerGas":"0x1","nonce":"0x339484","r":"0xce7918a545a74fb7534a4d002763b91da46cede2bcaec4fb6f20660791bca87f","s":"0x19251738e0ddc6f23f8745139810d5eed35b84671e1b51ef08c804ce08a9ee05","to":"0x4aed348173bbf17dfaeb91598321904c9323d36e","transactionIndex":"0x25","type":"0x2","v":"0x0","value":"0x0","yParity":"0x0"},{"accessList":[],"blockHash":"0x744cf1f1a8d0a567e4d18425f5bf84ef6c1e988dfe78cb707424e182df7a2102","blockNumber":"0x8c700db","chainId":"0xa","from":"0x7eb63e28ca5541b35d1dd5a8000e2073ba2d8ec8","gas":"0x27ac40","gasPrice":"0x8da","hash":"0xe3f3fdec23a5dc3e9877337463176105ea1c3985122472a8ebf8eea952559d5d","input":"0x83730cc30000000000000000000000000000000000000000000000000000000008c700db","maxFeePerGas":"0x11b1","maxPriorityFeePerGas":"0x1","nonce":"0x18aa37","r":"0x11c1dff23daac7842ae33dc70b29ab8324bf942603fa2b960708ce64d84fd2f8","s":"0x4386435de911f000675956a46a1285bc06e59f962c13634727f953e463c40e55","to":"0x2008e0c258a16040f3f451262e853c9f69828b98","transactionIndex":"0x26","type":"0x2","v":"0x0","value":"0x0","yParity":"0x0"},{"accessList":[],"blockHash":"0x744cf1f1a8d0a567e4d18425f5bf84ef6c1e988dfe78cb707424e182df7a2102","blockNumber":"0x8c700db","chainId":"0xa","from":"0xb8044d0b716018483081658061d0c2eb2db40e62","gas":"0xe4e1c0","gasPrice":"0x8da","hash":"0x9d34602d66827bf8e326f4c0cd0f03d25f170232b3cea433ccf0752a4b50d378","input":"0x424b4f820000000000000000000000000000000000000000000000000000000000000000","maxFeePerGas":"0x5871","maxPriorityFeePerGas":"0x1","nonce":"0x13be5b","r":"0x6d51def5641022517b7d182264161b10464d8b825eac0e318e6bd5aeb81e90ee","s":"0x572398b5d5dfa448e5c8b6e996e6b7824cf52a610b328f5e0988496d09bf968b","to":"0x61beb1c2b4ea5334d3ee4b088550509ac1b1da13","transactionIndex":"0x27","type":"0x2","v":"0x0","value":"0x0","yParity":"0x0"},{"accessList":[],"blockHash":"0x744cf1f1a8d0a567e4d18425f5bf84ef6c1e988dfe78cb707424e182df7a2102","blockNumber":"0x8c700db","chainId":"0xa","from":"0xb845ba45be71e908cd71552f6c0fc4bf41e1a4ef","gas":"0x1e8480","gasPrice":"0x8da","hash":"0x54dacd944301630773ff08716d7588d84ae7920893033224b10f8c0f7683f2d1","input":"0x6a1f2d74000000000000000000000000000000000000000000000000000000000003096e00000000000000000000000000000000000000000000000000000000000000000000000000000000000000000000000000000000000000000000000000001f4000000000000000000000000000000000000000000000000000000000000000000000000000000000000000000000000000000000000000000002e3749472dae6000000000000000000000000000000000000000000000000000000000000000a","maxFeePerGas":"0x3b9aca01","maxPriorityFeePerGas":"0x1","nonce":"0x8caa6","r":"0x608696e57e74b0e205cce130f58a23a24b5412e7b2e5bda408f7e56392f8c8e4","s":"0x87d31ec1de8cccc851bd5ca6838d4a72530d5d33fd3afe02cd6b4695611a52e","to":"0x63f8d4000ba6fe867dcb581eaa20a1bc89dcc15e","transactionIndex":"0x28","type":"0x2","v":"0x0","value":"0x0","yParity":"0x0"},{"accessList":[],"blockHash":"0x744cf1f1a8d0a567e4d18425f5bf84ef6c1e988dfe78cb707424e182df7a2102","blockNumber":"0x8c700db","chainId":"0xa","from":"0x8887cdbb8e525443143378ebb3ba612ffadd3ece","gas":"0x1e8480","gasPrice":"0x8da","hash":"0x86166dbb3a6e0f651746fa9030eb9cc27fb9d8aadc8b58c14ed54619e389da94","input":"0x6a1f2d740000000000000000000000000000000000000000000000000000000000016fce0000000000000000000000000000000000000000000000000000000000001c5300000000000000000000000000000000000000000000000000000000000000000000000000000000000000000000000000000000000000000000000000001f400000000000000000000000000000000000000000000000095363f35f3c9c7eae000000000000000000000000000000000000000000000000000000000000000a","maxFeePerGas":"0x3b9aca01","maxPriorityFeePerGas":"0x1","nonce":"0x4146a","r":"0xc8640c4b855e2597fea7b2be573a265cf9d99bd7d2b380f9b04d936a1fbaf178","s":"0x8606f002b676cf060b44500e31bfbd9e1686ebf4356467d48d37561cf7dd02e","to":"0x494f6475e1162e6b3423088a222d63af2c24eb1b","transactionIndex":"0x29","type":"0x2","v":"0x1","value":"0x0","yParity":"0x1"},{"accessList":[],"blockHash":"0x744cf1f1a8d0a567e4d18425f5bf84ef6c1e988dfe78cb707424e182df7a2102","blockNumber":"0x8c700db","chainId":"0xa","from":"0x9c6a4e0221dae3bfc6274de38368479486425c01","gas":"0x1e8480","gasPrice":"0x8da","hash":"0x151980bb483e3a3deb4db4515d18e056f0d6bcb83b3d231caf456495fd051c42","input":"0x6a1f2d740000000000000000000000000000000000000000000000000000000000036e4900000000000000000000000000000000000000000000000000000000000000620000000000000000000000000000000000000000000000000000000000000000000000000000000000000000000000000000000000000000000000000000000000000000000000000000000000000000000000000000000000052726e0a79071000000000000000000000000000000000000000000000000000000000000000a","maxFeePerGas":"0x3b9aca01","maxPriorityFeePerGas":"0x1","nonce":"0x94173","r":"0x8ff4ad1e10dff713bb115f15741a8e984b5cd81a84d2fa7a93e273d9684ca102","s":"0x4ff519785e121df7c41f6feefc603c6101380779a72deaaecac5852591799bd5","to":"0x682756f7985896f1924c03cd9c55b41319c89c9d","transactionIndex":"0x2a","type":"0x2","v":"0x1","value":"0x0","yParity":"0x1"},{"accessList":[],"blockHash":"0x744cf1f1a8d0a567e4d18425f5bf84ef6c1e988dfe78cb707424e182df7a2102","blockNumber":"0x8c700db","chainId":"0xa","from":"0x893150406fdbaf4834315edb24a9bf1136b5fe42","gas":"0x1e8480","gasPrice":"0x8da","hash":"0xc1d99b6a2cfab91be699cee9194a1b1f191409bffc08479e055a0e814987762c","input":"0x6a1f2d74000000000000000000000000000000000000000000000000000000000004712000000000000000000000000000000000000000000000000000000000000000c400000000000000000000000000000000000000000000000000000000000000000000000000000000000000000000000000000000000000000000000000001f4000000000000000000000000000000000000000000000000000d68bb9f77b660b000000000000000000000000000000000000000000000000000000000000000a","maxFeePerGas":"0x3b9aca01","maxPriorityFeePerGas":"0x1","nonce":"0x8fb03","r":"0xfb8c2f8a26055cb04df8d89a56b2907c55e1f5c76515984e8a1e6f2841d4c115","s":"0x6f7b8e643a419c531465a43bf985f81d318541cd6390fad9d08c13b478ef0199","to":"0x12904000757d295d27b4599b264a4d0acec46148","transactionIndex":"0x2b","type":"0x2","v":"0x1","value":"0x0","yParity":"0x1"}],"transactionsRoot":"0xc90dd17d82a594fb291eec3f03c964f8626cdda54b8fb80316fe93b07361e94d","uncles":[],"withdrawals":[],"withdrawalsRoot":"0x7e3f6ea2d57ca332334d59e15427147af5852d464c11b1b1a006dc0753132964"},"id":
        0}

        '
    headers:
      CF-RAY:
      - 9d3a61db68c9bfe8-ATL
      Cache-Control:
      - max-age=0, private, must-revalidate
      Connection:
      - keep-alive
      Content-Type:
      - application/json; charset=utf-8
      Date:
      - Wed, 25 Feb 2026 21:44:08 GMT
      Nel:
      - '{"report_to":"cf-nel","success_fraction":0.0,"max_age":604800}'
      Report-To:
      - '{"group":"cf-nel","max_age":604800,"endpoints":[{"url":"https://a.nel.cloudflare.com/report/v4?s=RQny%2FA4oj7ryEbJJu%2FPE%2FYxAsCvIRYdcMvocZLfhQ5uqC5DU%2F5HbqRi7vCwnY4sirz6WIONsr3F9UHrRTHdzPVa8glIBqP0Xhv4yFSovtINsrpBf"}]}'
      Server:
      - cloudflare
      Transfer-Encoding:
      - chunked
      access-control-allow-credentials:
      - 'true'
      access-control-allow-origin:
      - '*'
      access-control-expose-headers:
      - bypass-429-option,x-ratelimit-reset,x-ratelimit-limit,x-ratelimit-remaining,api-v2-temp-token
      alt-svc:
      - h3=":443"; ma=86400
      bypass-429-option:
      - no_bypass
      cf-cache-status:
      - DYNAMIC
      content-length:
      - '53838'
      strict-transport-security:
      - max-age=31536000; includeSubDomains
      x-ratelimit-limit:
      - '600'
      x-ratelimit-remaining:
      - '598'
      x-ratelimit-reset:
      - '51724'
      x-request-id:
      - d660f6af16b654408f300d5173327e6d
    status:
      code: 200
      message: OK
- request:
    body: '{"id": 0, "jsonrpc": "2.0", "method": "eth_getTransactionReceipt", "params":
      ["0xa8f93c81d857cf6e0b52a60263473f8bec210a6fca9c46b49d5cb90736307e95"]}'
    headers:
      Accept:
      - '*/*'
      Accept-Encoding:
      - gzip, deflate
      Connection:
      - keep-alive
      Content-Length:
      - '148'
      Content-Type:
      - application/json
      User-Agent:
      - rotki/1.41.4.dev762+ge38047a983
    method: POST
    uri: https://explorer.optimism.io/api/eth-rpc
  response:
    body:
      string: '{"jsonrpc":"2.0","result": {"blockHash":"0x744cf1f1a8d0a567e4d18425f5bf84ef6c1e988dfe78cb707424e182df7a2102","blockNumber":"0x8c700db","contractAddress":null,"cumulativeGasUsed":"0xd5242a","effectiveGasPrice":"0x8da","from":"0xe0de8649f1902a8d2394fa79ca38aa20b716ba0f","gasUsed":"0x3ef15","logs":[{"address":"0x871f2f2ff935fd1ed867842ff2a7bfd051a5e527","blockHash":"0x744cf1f1a8d0a567e4d18425f5bf84ef6c1e988dfe78cb707424e182df7a2102","blockNumber":"0x8c700db","data":"0x0000000000000000000000000000000000000000000000552e1bf7e4b03aae40","logIndex":"0xe8","removed":false,"topics":["0xddf252ad1be2c89b69c2b068fc378daa952ba7f163c4a11628f55a4df523b3ef","0x000000000000000000000000e0de8649f1902a8d2394fa79ca38aa20b716ba0f","0x000000000000000000000000ba91ffd8a2b9f68231eca6af51623b3433a89b13"],"transactionHash":"0xa8f93c81d857cf6e0b52a60263473f8bec210a6fca9c46b49d5cb90736307e95","transactionIndex":"0x1f"},{"address":"0x871f2f2ff935fd1ed867842ff2a7bfd051a5e527","blockHash":"0x744cf1f1a8d0a567e4d18425f5bf84ef6c1e988dfe78cb707424e182df7a2102","blockNumber":"0x8c700db","data":"0x0000000000000000000000000000000000000000000000000000000000000000","logIndex":"0xe9","removed":false,"topics":["0x8c5be1e5ebec7d5bd14f71427d1e84f3dd0314c0f7b2291e5b200ac8c7c3b925","0x000000000000000000000000e0de8649f1902a8d2394fa79ca38aa20b716ba0f","0x000000000000000000000000ba91ffd8a2b9f68231eca6af51623b3433a89b13"],"transactionHash":"0xa8f93c81d857cf6e0b52a60263473f8bec210a6fca9c46b49d5cb90736307e95","transactionIndex":"0x1f"},{"address":"0xba91ffd8a2b9f68231eca6af51623b3433a89b13","blockHash":"0x744cf1f1a8d0a567e4d18425f5bf84ef6c1e988dfe78cb707424e182df7a2102","blockNumber":"0x8c700db","data":"0x0000000000000000000000000000000000000000000000552e1bf7e4b03aae40","logIndex":"0xea","removed":false,"topics":["0xe84e4ac7439e00dd9d22373dcded55a056057d7cd106d09774e4a36ab33b7131","0x000000000000000000000000e0de8649f1902a8d2394fa79ca38aa20b716ba0f"],"transactionHash":"0xa8f93c81d857cf6e0b52a60263473f8bec210a6fca9c46b49d5cb90736307e95","transactionIndex":"0x1f"},{"address":"0x81e792e5a9003cc1c8bf5569a00f34b65d75b017","blockHash":"0x744cf1f1a8d0a567e4d18425f5bf84ef6c1e988dfe78cb707424e182df7a2102","blockNumber":"0x8c700db","data":"0x00000000000000000000000000000000000000000000000000008aafd6aac3cb","logIndex":"0xeb","removed":false,"topics":["0xdf21c415b78ed2552cc9971249e32a053abce6087a0ae0fbf3f78db5174a3493"],"transactionHash":"0xa8f93c81d857cf6e0b52a60263473f8bec210a6fca9c46b49d5cb90736307e95","transactionIndex":"0x1f"},{"address":"0x4d73adb72bc3dd368966edd0f0b2148401a178e2","blockHash":"0x744cf1f1a8d0a567e4d18425f5bf84ef6c1e988dfe78cb707424e182df7a2102","blockNumber":"0x8c700db","data":"0x000000000000000000000000000000000000000000000000000000000000004000000000000000000000000000000000000000000000000000000000000000020000000000000000000000000000000000000000000000000000000000000056000200000000000000000000000000000000000000000000000000000000000927c00000000000000000000000000000000000000000000000000000000000000000000000000000000000000000000000000000000000000000000000000000","logIndex":"0xec","removed":false,"topics":["0xb0c632f55f1e1b3b2c3d82f41ee4716bb4c00f0f5d84cdafc141581bb8757a4f"],"transactionHash":"0xa8f93c81d857cf6e0b52a60263473f8bec210a6fca9c46b49d5cb90736307e95","transactionIndex":"0x1f"},{"address":"0xd56e4eab23cb81f43168f9f45211eb027b9ac7cc","blockHash":"0x744cf1f1a8d0a567e4d18425f5bf84ef6c1e988dfe78cb707424e182df7a2102","blockNumber":"0x8c700db","data":"0x000000000000000000000000000000000000000000000000000004207c5e4c00","logIndex":"0xed","removed":false,"topics":["0x87e46b0a6199bc734632187269a103c05714ee0adae5b28f30723955724f37ef"],"transactionHash":"0xa8f93c81d857cf6e0b52a60263473f8bec210a6fca9c46b49d5cb90736307e95","transactionIndex":"0x1f"},{"address":"0x4d73adb72bc3dd368966edd0f0b2148401a178e2","blockHash":"0x744cf1f1a8d0a567e4d18425f5bf84ef6c1e988dfe78cb707424e182df7a2102","blockNumber":"0x8c700db","data":"0x000000000000000000000000000000000000000000000000000000000000002000000000000000000000000000000000000000000000000000000000000000940000000000000e69006fba91ffd8a2b9f68231eca6af51623b3433a89b13006e93e63fc2146d596afe4583d03cfe496ffcad5a04000000000000000000000000e0de8649f1902a8d2394fa79ca38aa20b716ba0f00000000000000000000000000000000000000000000000000000000000000010000000000000000000000000000000000000000000000552e1bf7e4b03aae40000000000000000000000000","logIndex":"0xee","removed":false,"topics":["0xe9bded5f24a4168e4f3bf44e00298c993b22376aad8c58c7dda9718a54cbea82"],"transactionHash":"0xa8f93c81d857cf6e0b52a60263473f8bec210a6fca9c46b49d5cb90736307e95","transactionIndex":"0x1f"}],"logsBloom":"0x00400000000000000000000000000000000040000000000088400000000800200000000000000000000000000010000000000000000000000000400000220000004000020000000000000008000000000000000000000000000000000000000000040000000000000000000000000000000000400000000008000011000100000008000000000000000000000000000000000000280000020000000000000000020000000000020000000004000000000000000000000000000000000010000080001002000008000000008000000000000000000000000000000004000000001010800000000000400000000000100000000000000000000000000100000020","status":"0x1","to":"0xba91ffd8a2b9f68231eca6af51623b3433a89b13","transactionHash":"0xa8f93c81d857cf6e0b52a60263473f8bec210a6fca9c46b49d5cb90736307e95","transactionIndex":"0x1f","type":"0x2"},"id":
        0}

        '
    headers:
      CF-RAY:
      - 9d3a61de5d327790-ATL
      Cache-Control:
      - max-age=0, private, must-revalidate
      Connection:
      - keep-alive
      Content-Type:
      - application/json; charset=utf-8
      Date:
      - Wed, 25 Feb 2026 21:44:09 GMT
      Nel:
      - '{"report_to":"cf-nel","success_fraction":0.0,"max_age":604800}'
      Report-To:
      - '{"group":"cf-nel","max_age":604800,"endpoints":[{"url":"https://a.nel.cloudflare.com/report/v4?s=f79Bf5%2B4eQshifKkqcvas1RuTV25gdsrvqot4pm0TpJPpZIuaeyabGY5ulVSpn3bj1MlVt8Eg5pcW1cQXykR6U4EvzgJzlT4gPZvnMhjLpgJ0IZG"}]}'
      Server:
      - cloudflare
      Transfer-Encoding:
      - chunked
      access-control-allow-credentials:
      - 'true'
      access-control-allow-origin:
      - '*'
      access-control-expose-headers:
      - bypass-429-option,x-ratelimit-reset,x-ratelimit-limit,x-ratelimit-remaining,api-v2-temp-token
      alt-svc:
      - h3=":443"; ma=86400
      bypass-429-option:
      - no_bypass
      cf-cache-status:
      - DYNAMIC
      content-length:
      - '5346'
      strict-transport-security:
      - max-age=31536000; includeSubDomains
      x-ratelimit-limit:
      - '600'
      x-ratelimit-remaining:
      - '597'
      x-ratelimit-reset:
      - '50977'
      x-request-id:
      - 5ee042ba6a23d91d84117afed7526458
    status:
      code: 200
      message: OK
- request:
    body: null
    headers:
      Accept:
      - '*/*'
      Accept-Encoding:
      - gzip, deflate
      Connection:
      - keep-alive
      User-Agent:
      - rotki/1.41.4.dev762+ge38047a983
    method: GET
    uri: https://explorer.optimism.io/api/v2/transactions/0xa8f93c81d857cf6e0b52a60263473f8bec210a6fca9c46b49d5cb90736307e95
  response:
    body:
      string: '{"l1_gas_used":"1600","priority_fee":"257813","raw_input":"0xa694fc3a0000000000000000000000000000000000000000000000552e1bf7e4b03aae40","is_pending_update":false,"op_withdrawals":[],"result":"success","hash":"0xa8f93c81d857cf6e0b52a60263473f8bec210a6fca9c46b49d5cb90736307e95","max_fee_per_gas":"2812","revert_reason":null,"confirmation_duration":[0,2.0e3],"transaction_burnt_fee":"583946445","type":2,"token_transfers_overflow":false,"confirmations":968914,"position":31,"max_priority_fee_per_gas":"1","transaction_tag":null,"created_contract":null,"value":"172727937189010","l1_fee_scalar":"0","from":{"ens_domain_name":null,"hash":"0xE0de8649F1902a8d2394fA79cA38Aa20b716bA0f","implementations":[],"is_contract":false,"is_scam":false,"is_verified":false,"metadata":null,"name":null,"private_tags":[],"proxy_type":null,"public_tags":[],"reputation":"ok","watchlist_names":[]},"gas_used":"257813","status":"ok","to":{"ens_domain_name":null,"hash":"0xba91ffD8a2B9F68231eCA6aF51623B3433A89b13","implementations":[],"is_contract":true,"is_scam":false,"is_verified":true,"metadata":{"tags":[{"meta":{},"name":"WOO","ordinal":0,"slug":"woo","tagType":"generic"}]},"name":"WooStakingProxy","private_tags":[],"proxy_type":null,"public_tags":[],"reputation":"ok","watchlist_names":[]},"authorization_list":[],"l1_fee":"1615014494","method":"stake","fee":{"type":"actual","value":"2199218752"},"actions":[],"gas_limit":"412209","gas_price":"2266","decoded_input":{"method_call":"stake(uint256
        _amount)","method_id":"a694fc3a","parameters":[{"name":"_amount","type":"uint256","value":"1571295767977009000000"}]},"l1_gas_price":"117039609","token_transfers":[{"block_hash":"0x744cf1f1a8d0a567e4d18425f5bf84ef6c1e988dfe78cb707424e182df7a2102","block_number":147259611,"from":{"ens_domain_name":null,"hash":"0xE0de8649F1902a8d2394fA79cA38Aa20b716bA0f","implementations":[],"is_contract":false,"is_scam":false,"is_verified":false,"metadata":null,"name":null,"private_tags":[],"proxy_type":null,"public_tags":[],"reputation":"ok","watchlist_names":[]},"log_index":232,"method":null,"timestamp":null,"to":{"ens_domain_name":null,"hash":"0xba91ffD8a2B9F68231eCA6aF51623B3433A89b13","implementations":[],"is_contract":true,"is_scam":false,"is_verified":true,"metadata":{"tags":[{"meta":{},"name":"WOO","ordinal":0,"slug":"woo","tagType":"generic"}]},"name":"WooStakingProxy","private_tags":[],"proxy_type":null,"public_tags":[],"reputation":"ok","watchlist_names":[]},"token":{"address_hash":"0x871f2F2ff935FD1eD867842FF2a7bfD051A5E527","circulating_market_cap":null,"decimals":"18","exchange_rate":null,"holders_count":"5076","icon_url":null,"name":"Wootrade
        Network","reputation":"ok","symbol":"WOO","total_supply":"2225633894758817867818435","type":"ERC-20","volume_24h":null},"token_type":"ERC-20","total":{"decimals":"18","value":"1571295767977009000000"},"transaction_hash":"0xa8f93c81d857cf6e0b52a60263473f8bec210a6fca9c46b49d5cb90736307e95","type":"token_transfer"}],"base_fee_per_gas":"2265","timestamp":"2026-02-03T11:26:39.000000Z","nonce":81,"historic_exchange_rate":"2231.09","transaction_types":["coin_transfer","contract_call","token_transfer"],"exchange_rate":"2089.72","block_number":147259611,"has_error_in_internal_transactions":false,"da_footprint_gas_scalar":"400"}'
    headers:
      CF-RAY:
      - 9d3a61e16febc020-ATL
      Cache-Control:
      - max-age=0, private, must-revalidate
      Connection:
      - keep-alive
      Content-Type:
      - application/json; charset=utf-8
      Date:
      - Wed, 25 Feb 2026 21:44:10 GMT
      Nel:
      - '{"report_to":"cf-nel","success_fraction":0.0,"max_age":604800}'
      Report-To:
      - '{"group":"cf-nel","max_age":604800,"endpoints":[{"url":"https://a.nel.cloudflare.com/report/v4?s=1iytPZG1Vkh37eItUtss00JSIe9pvrJkM9HJxLz6Aq50mD0vT6FgQqWwLOMzvyq3IQKKOxACLZKf7qEJqIwmU%2FZNXREwgAGNKWLQGX%2BarEQKoptd"}]}'
      Server:
      - cloudflare
      Transfer-Encoding:
      - chunked
      access-control-allow-credentials:
      - 'true'
      access-control-allow-origin:
      - '*'
      access-control-expose-headers:
      - bypass-429-option,x-ratelimit-reset,x-ratelimit-limit,x-ratelimit-remaining,api-v2-temp-token
      alt-svc:
      - h3=":443"; ma=86400
      bypass-429-option:
      - temporary_token
      cf-cache-status:
      - DYNAMIC
      content-length:
      - '3267'
      strict-transport-security:
      - max-age=31536000; includeSubDomains
      x-ratelimit-limit:
      - '600'
      x-ratelimit-remaining:
      - '596'
      x-ratelimit-reset:
      - '50762'
      x-request-id:
      - 627dc7a6f79bbeec4cebb15d0b8e55cc
    status:
      code: 200
      message: OK
- request:
    body: null
    headers:
      Accept:
      - '*/*'
      Accept-Encoding:
      - gzip, deflate
      Connection:
      - keep-alive
      User-Agent:
      - rotki/1.41.4.dev762+ge38047a983
    method: GET
    uri: https://explorer.optimism.io/api?action=txlistinternal&module=account&sort=asc&txhash=0xa8f93c81d857cf6e0b52a60263473f8bec210a6fca9c46b49d5cb90736307e95
  response:
    body:
      string: '{"message":"OK","result":[{"blockNumber":"147259611","callType":"call","contractAddress":"","errCode":"","from":"0xba91ffd8a2b9f68231eca6af51623b3433a89b13","gas":"308273","gasUsed":"168916","index":"2","input":"0xc5803100","isError":"0","timeStamp":"1770117999","to":"0x3c2269811836af69497e5f486a85d7316753cf62","transactionHash":"0xa8f93c81d857cf6e0b52a60263473f8bec210a6fca9c46b49d5cb90736307e95","type":"call","value":"172727937189010"},{"blockNumber":"147259611","callType":"call","contractAddress":"","errCode":"","from":"0x3c2269811836af69497e5f486a85d7316753cf62","gas":"278146","gasUsed":"142882","index":"3","input":"0x4d3a0f7c","isError":"0","timeStamp":"1770117999","to":"0x4d73adb72bc3dd368966edd0f0b2148401a178e2","transactionHash":"0xa8f93c81d857cf6e0b52a60263473f8bec210a6fca9c46b49d5cb90736307e95","type":"call","value":"172727937189010"},{"blockNumber":"147259611","callType":"call","contractAddress":"","errCode":"","from":"0x4d73adb72bc3dd368966edd0f0b2148401a178e2","gas":"137225","gasUsed":"0","index":"15","input":"0x","isError":"0","timeStamp":"1770117999","to":"0xe0de8649f1902a8d2394fa79ca38aa20b716ba0f","transactionHash":"0xa8f93c81d857cf6e0b52a60263473f8bec210a6fca9c46b49d5cb90736307e95","type":"call","value":"15702539744455"}],"status":"1"}'
    headers:
      CF-RAY:
      - 9d3a61e7aed32d72-ATL
      Cache-Control:
      - max-age=0, private, must-revalidate
      Connection:
      - keep-alive
      Content-Type:
      - application/json; charset=utf-8
      Date:
      - Wed, 25 Feb 2026 21:44:10 GMT
      Nel:
      - '{"report_to":"cf-nel","success_fraction":0.0,"max_age":604800}'
      Report-To:
      - '{"group":"cf-nel","max_age":604800,"endpoints":[{"url":"https://a.nel.cloudflare.com/report/v4?s=KBjMlDckAIu2kEJUQzcw%2FoYDU7Ue%2FjllFKmatz90hsmqMHzBEBjF2evqV8qoc9n9ObTVV1Giw1IWcHEJiKMY2ZgX%2F8UdMK41w2LVtCh4Tr1MnjXT"}]}'
      Server:
      - cloudflare
      Transfer-Encoding:
      - chunked
      access-control-allow-credentials:
      - 'true'
      access-control-allow-origin:
      - '*'
      access-control-expose-headers:
      - bypass-429-option,x-ratelimit-reset,x-ratelimit-limit,x-ratelimit-remaining,api-v2-temp-token
      alt-svc:
      - h3=":443"; ma=86400
      bypass-429-option:
      - no_bypass
      cf-cache-status:
      - DYNAMIC
      content-length:
      - '1272'
      strict-transport-security:
      - max-age=31536000; includeSubDomains
      x-ratelimit-limit:
      - '600'
      x-ratelimit-remaining:
      - '595'
      x-ratelimit-reset:
      - '49765'
      x-request-id:
      - 42a7edfae63a74a5d7085ddfcee1bb1a
    status:
      code: 200
      message: OK
- request:
    body: '{"id": 0, "jsonrpc": "2.0", "method": "eth_call", "params": [{"to": "0x2DC0E2aa608532Da689e89e237dF582B783E552C",
      "data": "0x252dba42000000000000000000000000000000000000000000000000000000000000002000000000000000000000000000000000000000000000000000000000000000010000000000000000000000000000000000000000000000000000000000000020000000000000000000000000ba91ffd8a2b9f68231eca6af51623b3433a89b130000000000000000000000000000000000000000000000000000000000000040000000000000000000000000000000000000000000000000000000000000002427e235e3000000000000000000000000e0de8649f1902a8d2394fa79ca38aa20b716ba0f00000000000000000000000000000000000000000000000000000000"},
      "latest"]}'
    headers:
      Accept:
      - '*/*'
      Accept-Encoding:
      - gzip, deflate
      Connection:
      - keep-alive
      Content-Length:
      - '659'
      Content-Type:
      - application/json
      User-Agent:
      - rotki/1.41.4.dev762+ge38047a983
    method: POST
    uri: https://explorer.optimism.io/api/eth-rpc
  response:
    body:
      string: '{"jsonrpc":"2.0","result": "0x0000000000000000000000000000000000000000000000000000000008d5c9b800000000000000000000000000000000000000000000000000000000000000400000000000000000000000000000000000000000000000000000000000000001000000000000000000000000000000000000000000000000000000000000002000000000000000000000000000000000000000000000000000000000000000200000000000000000000000000000000000000000000000552e1bf7e4b03aae40","id":
        0}

        '
    headers:
      CF-RAY:
      - 9d3a61eaa8f720d3-ATL
      Cache-Control:
      - max-age=0, private, must-revalidate
      Connection:
      - keep-alive
      Content-Type:
      - application/json; charset=utf-8
      Date:
      - Wed, 25 Feb 2026 21:44:10 GMT
      Nel:
      - '{"report_to":"cf-nel","success_fraction":0.0,"max_age":604800}'
      Report-To:
      - '{"group":"cf-nel","max_age":604800,"endpoints":[{"url":"https://a.nel.cloudflare.com/report/v4?s=l5wfd6INVyvvN%2BxHA%2FNMPTsq69P3S%2Br9rA5EoKkaMOpUBRy6HKy3Ouwo8pI5kPuEKxrJOREYAUvMDCZAlgKxphiSbEhmzYVpoO%2F6atJornoAZKI8"}]}'
      Server:
      - cloudflare
      Transfer-Encoding:
      - chunked
      access-control-allow-credentials:
      - 'true'
      access-control-allow-origin:
      - '*'
      access-control-expose-headers:
      - bypass-429-option,x-ratelimit-reset,x-ratelimit-limit,x-ratelimit-remaining,api-v2-temp-token
      alt-svc:
      - h3=":443"; ma=86400
      bypass-429-option:
      - no_bypass
      cf-cache-status:
      - DYNAMIC
      content-length:
      - '425'
      strict-transport-security:
      - max-age=31536000; includeSubDomains
      x-ratelimit-limit:
      - '600'
      x-ratelimit-remaining:
      - '594'
      x-ratelimit-reset:
      - '49281'
      x-request-id:
      - 0feca2f07ce399381cebc3912092b43f
    status:
      code: 200
      message: OK
- request:
    body: null
    headers:
      Accept:
      - '*/*'
      Accept-Encoding:
      - gzip, deflate
      Connection:
      - keep-alive
      User-Agent:
      - rotki/1.41.4.dev762+ge38047a983
    method: GET
    uri: https://api.coingecko.com/api/v3/simple/price/?ids=woo-network&vs_currencies=eur
  response:
    body:
      string: '{"woo-network":{"eur":0.01506868}}'
    headers:
      Age:
      - '36'
      CF-RAY:
      - 9d3a61ec2d0d6735-ATL
      Cache-Control:
      - max-age=30, public, must-revalidate, s-maxage=60
      Connection:
      - keep-alive
      Content-Type:
      - application/json; charset=utf-8
      Date:
      - Wed, 25 Feb 2026 21:44:10 GMT
      Server:
      - cloudflare
      Transfer-Encoding:
      - chunked
      access-control-allow-headers:
      - Origin, X-Requested-With, Content-Type, Accept, Authorization
      access-control-allow-methods:
      - POST, PUT, DELETE, GET, OPTIONS
      access-control-allow-origin:
      - '*'
      access-control-expose-headers:
      - link, per-page, total
      access-control-request-method:
      - '*'
      alt-svc:
      - h3=":443"; ma=86400
      alternate-protocol:
      - 443:npn-spdy/2
      cf-cache-status:
      - HIT
      content-length:
      - '34'
      content-security-policy-report-only:
      - script-src https://accounts.google.com/gsi/client; frame-src https://accounts.google.com/gsi/;
        connect-src https://accounts.google.com/gsi/;
      etag:
      - W/"7490a3275982052512b714a731ef2ff0"
      referrer-policy:
      - strict-origin-when-cross-origin
      strict-transport-security:
      - max-age=15724800; includeSubdomains
      vary:
      - Accept-Encoding, Origin
      x-content-type-options:
      - nosniff
      x-download-options:
      - noopen
      x-frame-options:
      - SAMEORIGIN
      x-permitted-cross-domain-policies:
      - none
      x-request-id:
      - b8043176-b05d-444d-aa3e-e7a70242dabb
      x-runtime:
      - '0.007501'
      x-xss-protection:
      - '0'
    status:
      code: 200
      message: OK
version: 1
