interactions:
- request:
    body: '{"id": 0, "jsonrpc": "2.0", "method": "eth_getTransactionByHash", "params":
      ["0xab954bb018e2f6f24ce6bc487c03919ba3f86d593723ed05958a15d6175b182a"]}'
    headers:
      Accept:
      - '*/*'
      Accept-Encoding:
      - gzip, deflate
      Connection:
      - keep-alive
      Content-Length:
      - '147'
      Content-Type:
      - application/json
      User-Agent:
      - rotki/1.42.2.dev319+g24edfbb02d
    method: POST
    uri: https://api.blockscout.com/10/json-rpc
  response:
    body:
      string: '{"jsonrpc":"2.0","result": {"accessList":[],"blockHash":"0xeb9af86de15e97dca2e6323e8e3c4e0cdb4fac0614b0a9b5f18ad3f5a1dc3136","blockNumber":"0x8fbd195","chainId":"0xa","from":"0x6eb78c56f639b3d161456e9f893c8e8ad9d754f0","gas":"0x1c44d","gasPrice":"0x10ca57","hash":"0xab954bb018e2f6f24ce6bc487c03919ba3f86d593723ed05958a15d6175b182a","input":"0xb5f01335000000000000000000000000528cdc92eab044e1e39fe43b9514bfdab4412b980000000000000000000000000000000000000000000001e7e4171bf4d3a0000000000000000000000000000000000000000000000000000000000000000000a0000000000000000000000000000000000000000000000000000000000000012000000000000000000000000000000000000000000000000000000000000001a000000000000000000000000000000000000000000000000000000000000000030000000000000000000000009531c059098e3d194ff87febb587ab07b30b130600000000000000000000000026ebb88694380efa235c71ca7268357599267c2b000000000000000000000000cbe8b0804c1461f7d2ed445c611f218430461b7d00000000000000000000000000000000000000000000000000000000000000030000000000000000000000000000000000000000000000a2a15d09519be000000000000000000000000000000000000000000000000000a2a15d09519be000000000000000000000000000000000000000000000000000a2a15d09519be0000000000000000000000000000000000000000000000000000000000000000000030000000000000000000000000000000000000000000000000000000000000060000000000000000000000000000000000000000000000000000000000000008000000000000000000000000000000000000000000000000000000000000000a0000000000000000000000000000000000000000000000000000000000000000000000000000000000000000000000000000000000000000000000000000000000000000000000000000000000000000000000000000000000000000000000000","maxFeePerGas":"0x10cbce","maxPriorityFeePerGas":"0x10c8e0","nonce":"0x41","r":"0xff0dcd03b88426ad24451352ca0cb0558a5b781f78261f97c8c0f4ed9dda98a3","s":"0x1a441aee7a29bcda00707433e5480c067ca6eae045bd46f3f5f5f9e16752750d","to":"0x8d685a56c51cf54685d3db0ea50748d3a2c2e0dc","transactionIndex":"0x1","type":"0x2","v":"0x1","value":"0x0","yParity":"0x1"},"id":
        0}

        '
    headers:
      CF-RAY:
      - 9f1f00733d6a0b5a-AMS
      Cache-Control:
      - max-age=0, private, must-revalidate
      Connection:
      - keep-alive
      Content-Type:
      - application/json; charset=utf-8
      Date:
      - Sat, 25 Apr 2026 17:17:32 GMT
      Nel:
      - '{"report_to":"cf-nel","success_fraction":0.0,"max_age":604800}'
      Report-To:
      - '{"group":"cf-nel","max_age":604800,"endpoints":[{"url":"https://a.nel.cloudflare.com/report/v4?s=o5KPkciKpOp7F7TakJLTulL5cCTs0zD%2B69n1hYcA6AdjB0JpmIHzh5Y14elYpONcaOGxs%2FJPsVdmjxmOiEz6jaQTuFpeKsX8bT%2BTp0OKZJnhvGBbbKn2FudFtU2SHs6dHAryywRT6TGfIxuG14u0QQ%3D%3D"}]}'
      Server:
      - cloudflare
      alt-svc:
      - h3=":443"; ma=86400
      cf-cache-status:
      - DYNAMIC
      content-length:
      - '1993'
      strict-transport-security:
      - max-age=31536000; includeSubDomains
      vary:
      - accept-encoding
      x-credits-remaining:
      - '99980'
      x-ratelimit-limit:
      - '5'
      x-ratelimit-remaining:
      - '4'
      x-ratelimit-reset:
      - '916'
      x-request-id:
      - 9e20c3eac4f5acf79bcf2db11c17dc28
    status:
      code: 200
      message: OK
- request:
    body: '{"id": 0, "jsonrpc": "2.0", "method": "eth_getBlockByNumber", "params":
      ["0x8fbd195", true]}'
    headers:
      Accept:
      - '*/*'
      Accept-Encoding:
      - gzip, deflate
      Connection:
      - keep-alive
      Content-Length:
      - '92'
      Content-Type:
      - application/json
      User-Agent:
      - rotki/1.42.2.dev319+g24edfbb02d
    method: POST
    uri: https://api.blockscout.com/10/json-rpc
  response:
    body:
      string: '{"jsonrpc":"2.0","result": {"baseFeePerGas":"0x177","blobGasUsed":"0x201f70","difficulty":"0x0","excessBlobGas":"0x0","extraData":"0x01000000fa000000020000000000000000","gasLimit":"0x2625a00","gasUsed":"0xba6348","hash":"0xeb9af86de15e97dca2e6323e8e3c4e0cdb4fac0614b0a9b5f18ad3f5a1dc3136","logsBloom":"0x52012a010000204001851002220806000d0060a8402901100004441066cb0900a308100130000010000400100482304040640800c088414206800a404034024920000000005080426000601900081120000000028004081008840000208001011100600822550100a08401950902180000804100280402042100c410080000000884002088281401b8308000d00c14204800844008a100802004800402010030024040004c40010100080010802010002110840000c1000c1823014000410080020008220084021300000bc400022080b88000210282008e1000a0040000e40004340a0a00841002200000020000002000800040001848000c004800000a0880","miner":"0x4200000000000000000000000000000000000011","mixHash":"0x1ac2ca5e46dde2f04e8380e6e4a04f9aee20136716c08f1b3d9d6d68a334be5e","nonce":"0x0000000000000000","number":"0x8fbd195","parentBeaconBlockRoot":"0xaeedab34d28922a0503c39dd2b3f69732c87fc0401735d8f9f443c59da3460eb","parentHash":"0x286360e0c5a03b35ecd26a9c27b0294ca8cc14170f29a646fd5877269037b83c","receiptsRoot":"0x6184dea337320ece0ab9b63f45e52f41d44c1cb13b073dbbd963b00c40e03bc8","requestsHash":"0xe3b0c44298fc1c149afbf4c8996fb92427ae41e4649b934ca495991b7852b855","sha3Uncles":"0x1dcc4de8dec75d7aab85b567b6ccd41ad312451b948a7413f0a142fd40d49347","size":"0x2b8b","stateRoot":"0xdd1e1ca7ee2c228a5f7aec9e541722b5f75201602cdcd8c8b1b20c407fae4241","timestamp":"0x69eb7ce3","transactions":[{"blockHash":"0xeb9af86de15e97dca2e6323e8e3c4e0cdb4fac0614b0a9b5f18ad3f5a1dc3136","blockNumber":"0x8fbd195","depositReceiptVersion":"0x1","from":"0xdeaddeaddeaddeaddeaddeaddeaddeaddead0001","gas":"0xf4240","gasPrice":"0x0","hash":"0xcd1eb8db560257614088dbae73a6368f7e4eb375a9d27d32e1123219e1df6511","input":"0x3db6be2b0000146b000f79c500000000000000040000000069eb7c9300000000017cb67a0000000000000000000000000000000000000000000000000000000048631bde0000000000000000000000000000000000000000000000000000000003db39f4d68e2c8168eedf23d377b13b126c4edeb9cb61107bab7ed09873834b23200b190000000000000000000000006887246668a3b87f54deb3b94ba47a6f63f329850000000000000000000000000190","mint":"0x0","nonce":"0x2b60f21","r":"0x0","s":"0x0","sourceHash":"0x3f76bc3e33c4f511a2e3e95abdbb4ca9d10454eb107baee8869be45669bd11e7","to":"0x4200000000000000000000000000000000000015","transactionIndex":"0x0","type":"0x7e","v":"0x0","value":"0x0","yParity":"0x0"},{"accessList":[],"blockHash":"0xeb9af86de15e97dca2e6323e8e3c4e0cdb4fac0614b0a9b5f18ad3f5a1dc3136","blockNumber":"0x8fbd195","chainId":"0xa","from":"0x6eb78c56f639b3d161456e9f893c8e8ad9d754f0","gas":"0x1c44d","gasPrice":"0x10ca57","hash":"0xab954bb018e2f6f24ce6bc487c03919ba3f86d593723ed05958a15d6175b182a","input":"0xb5f01335000000000000000000000000528cdc92eab044e1e39fe43b9514bfdab4412b980000000000000000000000000000000000000000000001e7e4171bf4d3a0000000000000000000000000000000000000000000000000000000000000000000a0000000000000000000000000000000000000000000000000000000000000012000000000000000000000000000000000000000000000000000000000000001a000000000000000000000000000000000000000000000000000000000000000030000000000000000000000009531c059098e3d194ff87febb587ab07b30b130600000000000000000000000026ebb88694380efa235c71ca7268357599267c2b000000000000000000000000cbe8b0804c1461f7d2ed445c611f218430461b7d00000000000000000000000000000000000000000000000000000000000000030000000000000000000000000000000000000000000000a2a15d09519be000000000000000000000000000000000000000000000000000a2a15d09519be000000000000000000000000000000000000000000000000000a2a15d09519be0000000000000000000000000000000000000000000000000000000000000000000030000000000000000000000000000000000000000000000000000000000000060000000000000000000000000000000000000000000000000000000000000008000000000000000000000000000000000000000000000000000000000000000a0000000000000000000000000000000000000000000000000000000000000000000000000000000000000000000000000000000000000000000000000000000000000000000000000000000000000000000000000000000000000000000000000","maxFeePerGas":"0x10cbce","maxPriorityFeePerGas":"0x10c8e0","nonce":"0x41","r":"0xff0dcd03b88426ad24451352ca0cb0558a5b781f78261f97c8c0f4ed9dda98a3","s":"0x1a441aee7a29bcda00707433e5480c067ca6eae045bd46f3f5f5f9e16752750d","to":"0x8d685a56c51cf54685d3db0ea50748d3a2c2e0dc","transactionIndex":"0x1","type":"0x2","v":"0x1","value":"0x0","yParity":"0x1"},{"accessList":[],"blockHash":"0xeb9af86de15e97dca2e6323e8e3c4e0cdb4fac0614b0a9b5f18ad3f5a1dc3136","blockNumber":"0x8fbd195","chainId":"0xa","from":"0xf203f66df719c80a51980140df3a7d2784261651","gas":"0x16d77","gasPrice":"0xf43b7","hash":"0xb279166cb46c8802bf67f79783235fa49229d254fb833ad08bb5233b060b7479","input":"0x13cd3b5300000000000000000000000068f180fcce6836688e9084f035309e29bf0a2095000000000000000000000000000000000000000000000000000000000000000c9f3c2e876bb32014ebf711b78294a5c11a865d8b0aa2c1722b5ced8feea75e290000000000000000000000000000000000000000000000000000000069eb7e0a0000000000000000000000007348f1f99f1d13ac89a23ba82dae1579dca083d900000000000000000000000016511973924c014a74b0d6478c4456efa3fe90d70000000000000000000000000000000000000000000000000000000069eb7a8600000000000000000000000000000000000000000000000000000000000001000000000000000000000000000000000000000000000000000000000000000041023d9fed6ddc2375bcc1d7c4caec1e21cdc4ed798600511a6974198e774733fc5c4ae208cc965fde7c865a416aacde31f1688fbc11458ca61910b054cb09ba4e1c00000000000000000000000000000000000000000000000000000000000000","maxFeePerGas":"0x125142","maxPriorityFeePerGas":"0xf4240","nonce":"0x11a6","r":"0x16ba5fa87de6e3e46aae1795fe30990bb193e8a6734c30388884c287997e01d","s":"0x245da283428a2be0e883e4ad78cf9b7b1b96e32dc67a870ff540086e92d6513f","to":"0x402085c248eea27d92e8b30b2c58ed07f9e20001","transactionIndex":"0x2","type":"0x2","v":"0x0","value":"0x0","yParity":"0x0"},{"accessList":[],"blockHash":"0xeb9af86de15e97dca2e6323e8e3c4e0cdb4fac0614b0a9b5f18ad3f5a1dc3136","blockNumber":"0x8fbd195","chainId":"0xa","from":"0xba06767793a74ba0917415472d9fb07cdd680b18","gas":"0x16e360","gasPrice":"0x18817","hash":"0xd3f8014d5bbd9c0251f0ccf584330f719c20ddfcf8705672421fa95075cf5bf3","input":"0x00000000","maxFeePerGas":"0x2fc7720","maxPriorityFeePerGas":"0x186a0","nonce":"0x1f4b59","r":"0x61610403c0ef8331e20819cd52f78bcb546e2abdf06f8c16ae1db96a3e810898","s":"0x3ab5e8a488e7a2292146dfa380816256d014a3e235e33d3658c81c45853788ea","to":"0x1e04602a8ba9cd99ae30781e0d1933f68fa6398c","transactionIndex":"0x3","type":"0x2","v":"0x0","value":"0x0","yParity":"0x0"},{"accessList":[],"blockHash":"0xeb9af86de15e97dca2e6323e8e3c4e0cdb4fac0614b0a9b5f18ad3f5a1dc3136","blockNumber":"0x8fbd195","chainId":"0xa","from":"0x9e3ed65340a913b96ba7b86d5d5876dde623946e","gas":"0x2dc6c0","gasPrice":"0xc4c7","hash":"0xf7f7160546061c73fca1ce1be269ca569609b4407043af11303bd0b9f104586a","input":"0xa126d6010000000000000000000000000000000000000000000000000000000008fbd198","maxFeePerGas":"0x11e1a300","maxPriorityFeePerGas":"0xc350","nonce":"0xa6c01e","r":"0x6740df4a902a9a2ea44952eacd9250199b39178e7779b1bd2903e9659c080e52","s":"0x76b20a839c1d44ebe6c062fc7d70c7a9734dcaeb1186f26580f7c2eb92b48937","to":"0xd9f7bd6033d34caf61143a460d7f79c4384aae97","transactionIndex":"0x4","type":"0x2","v":"0x0","value":"0x0","yParity":"0x0"},{"accessList":[],"blockHash":"0xeb9af86de15e97dca2e6323e8e3c4e0cdb4fac0614b0a9b5f18ad3f5a1dc3136","blockNumber":"0x8fbd195","chainId":"0xa","from":"0xffd12b32d000617551681973911fd3ad49b89294","gas":"0x2dc6c0","gasPrice":"0x4f97","hash":"0x4660c0667a39c3f54e1536f35b4cbd8e9e194a3c6cf43e1198df050cd8a0d115","input":"0xa126d6010000000000000000000000000000000000000000000000000000000008fbd198","maxFeePerGas":"0x11e1a300","maxPriorityFeePerGas":"0x4e20","nonce":"0x90199","r":"0x151394553472182bdb1d6b7dc656c0d21c5472b7e25a0433d65e7d1513f8506f","s":"0x544dfd417b8a187c7ba542361d3432f86ba88985b96b0e8dafb76bc9c643a962","to":"0x1c43229d1a6006ae61d7071f1c6a57d8846b0047","transactionIndex":"0x5","type":"0x2","v":"0x0","value":"0x0","yParity":"0x0"},{"accessList":[],"blockHash":"0xeb9af86de15e97dca2e6323e8e3c4e0cdb4fac0614b0a9b5f18ad3f5a1dc3136","blockNumber":"0x8fbd195","chainId":"0xa","from":"0xcde377407d9b819efc0e185aa2d442194c2233e6","gas":"0x1e8480","gasPrice":"0x4f97","hash":"0xbdcee9ae030e1a94806304e49adc5276413a171a2ebd7772538a7d6aa2459435","input":"0xa126d6010000000000000000000000000000000000000000000000000000000008fbd198","maxFeePerGas":"0x11e1a300","maxPriorityFeePerGas":"0x4e20","nonce":"0x98d1c1","r":"0xc1ce3ca924745b35ae6c1b47d2728245c5fcbe9a9ab0c71989614165f69ab61f","s":"0x3a928393d83589108494cec21913d67af505c51e69434ed4adbb760c317dc340","to":"0x4aed348173bbf17dfaeb91598321904c9323d36e","transactionIndex":"0x6","type":"0x2","v":"0x1","value":"0x0","yParity":"0x1"},{"accessList":[],"blockHash":"0xeb9af86de15e97dca2e6323e8e3c4e0cdb4fac0614b0a9b5f18ad3f5a1dc3136","blockNumber":"0x8fbd195","chainId":"0xa","from":"0xbb8545a02736494f934314a9aa55cf421fff1aed","gas":"0x7a120","gasPrice":"0x55f","hash":"0xce1239964474736cc382522c6100b47f9a04d74134f008d61397850091b2457e","input":"0x4e6669ed4150584554480000000000000000000000000000000000000000000000000000","maxFeePerGas":"0x59682f01","maxPriorityFeePerGas":"0x3e8","nonce":"0x289a32","r":"0x15b18b9e0b70c3ccb446d6762f824bad38d9449e555d722953e051f28622f180","s":"0x4beed3628722ba2ed7f7283088994419e0a4ab6f55182399054a75f72694bf5b","to":"0xf4f18205d8d46638489865e42c0a71a3d4f9fc22","transactionIndex":"0x7","type":"0x2","v":"0x0","value":"0x0","yParity":"0x0"},{"accessList":[],"blockHash":"0xeb9af86de15e97dca2e6323e8e3c4e0cdb4fac0614b0a9b5f18ad3f5a1dc3136","blockNumber":"0x8fbd195","chainId":"0xa","from":"0xa7d1f7ea97e93b282aa9d3ed153f68adf9fbbbf9","gas":"0x1e8480","gasPrice":"0x3128bf","hash":"0xa90e3936e20fab9eec75cd1f974d014399abd1e692f8f55679f83d08dd4bfd5b","input":"0x000000000000000000000000000000000000000000000000000000000000000000000000","maxFeePerGas":"0x1dcd6500","maxPriorityFeePerGas":"0x312748","nonce":"0x835b4","r":"0x494120cb602a4ceb913d6a3aa3bafbd7321d182d651bd677ce2250fe3fd4848a","s":"0x279695d14efbdef0f984652e6f86a23655cc593ef733afa098fcd8382220c233","to":"0x17adbb47735c68b75e405abceaba52a7f6522e17","transactionIndex":"0x8","type":"0x2","v":"0x1","value":"0x0","yParity":"0x1"},{"accessList":[],"blockHash":"0xeb9af86de15e97dca2e6323e8e3c4e0cdb4fac0614b0a9b5f18ad3f5a1dc3136","blockNumber":"0x8fbd195","chainId":"0xa","from":"0x9462aa57fa74981c375ac4a2a2a8411039953d76","gas":"0x1e8480","gasPrice":"0x10ca57","hash":"0x7444be5f17f88982c979a3bbebdd203e345a23518b3833bb92a78d7db13a94e2","input":"0x00000000000000000000000000000000000000000000000000000000000000000000000c","maxFeePerGas":"0x1dcd6500","maxPriorityFeePerGas":"0x10c8e0","nonce":"0x44294","r":"0xa72209bc642ed64be40bbd62c38b35847e4a653a0f0b057e6b59ab779df1c1c3","s":"0x4ed1e2966601701ceb04b7bf4e713122b80be49504a812eb4d803835c35fb7dd","to":"0x17adbb47735c68b75e405abceaba52a7f6522e17","transactionIndex":"0x9","type":"0x2","v":"0x1","value":"0x0","yParity":"0x1"},{"accessList":[],"blockHash":"0xeb9af86de15e97dca2e6323e8e3c4e0cdb4fac0614b0a9b5f18ad3f5a1dc3136","blockNumber":"0x8fbd195","chainId":"0xa","from":"0x8d0902ec607dffd647de8cacf416d45209c66ddd","gas":"0x1e8480","gasPrice":"0x10ca57","hash":"0x9ca13cba98931fcddf6e94e5b16f2da48066cea4ef3257520e21cd9c943c8e47","input":"0x000000000000000000000000000000000000000000000000000000000000000000000006","maxFeePerGas":"0x1dcd6500","maxPriorityFeePerGas":"0x10c8e0","nonce":"0x10e055","r":"0xe3ce7c645c3b7b4443d8f5586259eb5fa6fbd05300c695ef553a6aa9a8d27f26","s":"0x30369facd55030f7c7160aa3686b7f1bdbfb31905910745cf1f00173cde79c19","to":"0x17adbb47735c68b75e405abceaba52a7f6522e17","transactionIndex":"0xa","type":"0x2","v":"0x1","value":"0x0","yParity":"0x1"},{"accessList":[],"blockHash":"0xeb9af86de15e97dca2e6323e8e3c4e0cdb4fac0614b0a9b5f18ad3f5a1dc3136","blockNumber":"0x8fbd195","chainId":"0xa","from":"0x103f6012e3e1d3bac7345d86b44f116a7418f1f2","gas":"0x1e8480","gasPrice":"0x10ca57","hash":"0x5ac8682442378d48fc6e7166f4bb25b73c99134e1441695310948cda9c905db5","input":"0x000000000000000000000000000000000000000000000000000000000000000000000008","maxFeePerGas":"0x1dcd6500","maxPriorityFeePerGas":"0x10c8e0","nonce":"0x14468f","r":"0xf06e3eab39791f96cc066bf954ad03d94405988982b0afd30e5cfb2da434d417","s":"0x2633f314abfe06538dda90b111707928d50f7270a84a41046029023fae5269dd","to":"0x17adbb47735c68b75e405abceaba52a7f6522e17","transactionIndex":"0xb","type":"0x2","v":"0x0","value":"0x0","yParity":"0x0"},{"accessList":[],"blockHash":"0xeb9af86de15e97dca2e6323e8e3c4e0cdb4fac0614b0a9b5f18ad3f5a1dc3136","blockNumber":"0x8fbd195","chainId":"0xa","from":"0x413d886850f846f0e6e86b9181f0f0376341fa00","gas":"0x5208","gasPrice":"0x18817","hash":"0xed1511f60d4e9b48ea4c62871d53c6f5edee6378d2e3d50c691f10427e60ef19","input":"0x","maxFeePerGas":"0x18b05","maxPriorityFeePerGas":"0x186a0","nonce":"0xa","r":"0xcd6a0f252b1e995f66dd5ad52de2ff2258397ea79820062982f3004b9d7e37d2","s":"0x7288e73854588beec9f94666a06cd48a6d04b715b4c0019dfcf9a726f83db51f","to":"0x7846f52d9db822a5251acd85fa5fc8e014efb7d0","transactionIndex":"0xc","type":"0x2","v":"0x0","value":"0x5af3107a4000","yParity":"0x0"},{"accessList":[],"blockHash":"0xeb9af86de15e97dca2e6323e8e3c4e0cdb4fac0614b0a9b5f18ad3f5a1dc3136","blockNumber":"0x8fbd195","chainId":"0xa","from":"0x9a0dcb0917ff1ca0085c26fd7e89d7dff668e295","gas":"0x16e360","gasPrice":"0x182","hash":"0x221ac2e0716e6585eadcf8b3e942000905173ddc1ce67ed1007bde4d8e1bde06","input":"0x00000000","maxFeePerGas":"0x2faf08b","maxPriorityFeePerGas":"0xb","nonce":"0x1f27be","r":"0x4a2f79df3b549babe0c06f67975422c04fd12fdf91dec8db602bb6da742f3cc1","s":"0x3580d4cc276b09b74eb3ca1a0e77c7d710655886fc22c8f7130eb2390c4b62f6","to":"0x1e04602a8ba9cd99ae30781e0d1933f68fa6398c","transactionIndex":"0xd","type":"0x2","v":"0x0","value":"0x0","yParity":"0x0"},{"accessList":[],"blockHash":"0xeb9af86de15e97dca2e6323e8e3c4e0cdb4fac0614b0a9b5f18ad3f5a1dc3136","blockNumber":"0x8fbd195","chainId":"0xa","from":"0xdc45db93c3fc37272f40812bba9c4bad91344b46","gas":"0x150ca8","gasPrice":"0x4c4cb7","hash":"0x691de6101438e6ce32891d8c72fd6fc0a9204efbf4ab4b2b9979a836b2f09837","input":"0x4e309099000000000000000000000000873726b37dca794ce45b10438ac5ebf80fb0886d7ccc9d9531336703a691c337f3122af6b739fc396cc67659e3904879fc841bfb000000000000000000000000000000000000000000000000000000000000000100000000000000000000000000000000000000000000000000000000000000c00000000000000000000000000000000000000000000000000000000000000100000000000000000000000000000000000000000000000000000000000000014000000000000000000000000000000000000000000000000000000000000000010000000000000000000000000b2c639c533813f4aa9d7837caf62653d097ff850000000000000000000000000000000000000000000000000000000000000001000000000000000000000000000000000000000000000000000000000028bdb0000000000000000000000000000000000000000000000000000000000000000200000000000000000000000000000000000000000000000000000000000000400000000000000000000000000000000000000000000000000000000000000100000000000000000000000000873726b37dca794ce45b10438ac5ebf80fb0886d00000000000000000000000000000000000000000000000000000000000000400000000000000000000000000000000000000000000000000000000000000001000000000000000000000000420000000000000000000000000000000000000600000000000000000000000000000000000000000000000000000000000138e40000000000000000000000000000000000000000000000000000000000000000000000000000000000000000873726b37dca794ce45b10438ac5ebf80fb0886d00000000000000000000000000000000000000000000000000000000000000400000000000000000000000000000000000000000000000000000000000000000","maxFeePerGas":"0x98a814","maxPriorityFeePerGas":"0x4c4b40","nonce":"0x7109b","r":"0x703bf4f7bc0fb1a9f26d48403046ee59c0e9841295aa17ae77ccf181fcf4a8e5","s":"0x7e62d7faae27cb1d91c989e0b2c400b20c098cb4921aeec5f1f21a52087cf158","to":"0x7ca0b75e67e33c0014325b739a8d019c4fe445f0","transactionIndex":"0xe","type":"0x2","v":"0x0","value":"0x0","yParity":"0x0"},{"accessList":[],"blockHash":"0xeb9af86de15e97dca2e6323e8e3c4e0cdb4fac0614b0a9b5f18ad3f5a1dc3136","blockNumber":"0x8fbd195","chainId":"0xa","from":"0x9c1cf6d65aa9b3367054c8178f5faf3a21a0c83a","gas":"0x16e360","gasPrice":"0x182","hash":"0x494e09ad2c02fdfdc36787cec3feea0a54b32205112209005a02937bed1b69b3","input":"0x00000000","maxFeePerGas":"0x2faf08b","maxPriorityFeePerGas":"0xb","nonce":"0x1f3aa6","r":"0xae3cf25801eb8717add2ebb442f57146462481a7a30b0642ebb83d77f54f61a7","s":"0x6b5fbc381845f715a4f77c5d013a7f31c1c3e293e675a6bfab91485268e182c","to":"0x1e04602a8ba9cd99ae30781e0d1933f68fa6398c","transactionIndex":"0xf","type":"0x2","v":"0x1","value":"0x0","yParity":"0x1"},{"accessList":[],"blockHash":"0xeb9af86de15e97dca2e6323e8e3c4e0cdb4fac0614b0a9b5f18ad3f5a1dc3136","blockNumber":"0x8fbd195","chainId":"0xa","from":"0xf203f66df719c80a51980140df3a7d2784261651","gas":"0x16d77","gasPrice":"0xf43b7","hash":"0xaa9c4fb195d1d52a78a3c0ac78403c23d2ff92099dec1232b97c290192a62b3f","input":"0x13cd3b5300000000000000000000000068f180fcce6836688e9084f035309e29bf0a2095000000000000000000000000000000000000000000000000000000000000000c18c5b3028f13692deb8b389fc57b0c5749492941a9e71041e2d025c02cc13b9d0000000000000000000000000000000000000000000000000000000069eb7e0d0000000000000000000000007348f1f99f1d13ac89a23ba82dae1579dca083d900000000000000000000000016511973924c014a74b0d6478c4456efa3fe90d70000000000000000000000000000000000000000000000000000000069eb7a8900000000000000000000000000000000000000000000000000000000000001000000000000000000000000000000000000000000000000000000000000000041d1678495a6208a2a3fd93a470e895f5d0936e464b12c732964202a3c4865dcdd44db08ee929d8a915614fc489ed20c4d5ac5a23b79b27c4ddf841fcc001f2ff31b00000000000000000000000000000000000000000000000000000000000000","maxFeePerGas":"0x125142","maxPriorityFeePerGas":"0xf4240","nonce":"0x11a7","r":"0xb07a309659376a6e057be4af48d37c754b42333082b4840049a4b94ffdd2e5db","s":"0x5a9a9997aba0b0b58b79169dcf6bba88086cc943318bccbb6147f5944c371d0c","to":"0x402085c248eea27d92e8b30b2c58ed07f9e20001","transactionIndex":"0x10","type":"0x2","v":"0x0","value":"0x0","yParity":"0x0"},{"accessList":[],"blockHash":"0xeb9af86de15e97dca2e6323e8e3c4e0cdb4fac0614b0a9b5f18ad3f5a1dc3136","blockNumber":"0x8fbd195","chainId":"0xa","from":"0xa77a789e4017ba3e0dad1de9d17b51cd41025535","gas":"0xb71b00","gasPrice":"0x18817","hash":"0x8565810da10ae0377a38792ac07e7d7c2ae872ca7465c39bab1679da1f4ff969","input":"0x00000000000069eb7d1d1c3c368134318ceeb9c5a8c2e5c231ea36231c4c2fb58ab4479f9a4e342d7a4e513fcaacaec82ff58bf54d96042747d0826b11084c5a351c937eeba5a54a7b2a4b11020002c858a329bf053be78d6239c4a4343b8fbd21472b0001f400000a0000000102dd0c6bae8ad5998c358b823df15a2a4181da1b80000bb800003c000000000201002ee4db658906e04a10874dd8f11bfd32e4439038000bb800000000000001023f60fca6c50ae3bcd95ae150b4c57f0ba5c3f2ad000bb800003c000000000300020392b358ce4547601befa962680bede836606ae2000bb800003c0000000103f25bbc18a607bbe218c87ba1ff0e673d9b53dd58000bd60000c804661500021fb3cf6e48f1e7b10213e7b6d87d4c073c7fdb7b0001f400000a00000001020003478946bcd4a5a22b316470f5486fafb928c0ba2500023b0000640308d30002c1738d90e2e26c35784a0d3e3d8a9f795074bca4000bb800003c00000001030002c1738d90e2e26c35784a0d3e3d8a9f795074bca4000bb800003c000000000384ce89b4f6f67e523a81a82f9f2f14d84b726f6b00005b000001fffffb0102c858a329bf053be78d6239c4a4343b8fbd21472b0001f400000a000000000200021fb3cf6e48f1e7b10213e7b6d87d4c073c7fdb7b0001f400000a0000000003478946bcd4a5a22b316470f5486fafb928c0ba2500023b0000640308d3010300011eaa860dca29a5124f665f7d80affed92e877681000bb80000000000000102b04502430c5cecd2063cdc74bb59f33cb346b8c20027100000c80000000002c1738d90e2e26c35784a0d3e3d8a9f795074bca4000bb800003c000000010300020392b358ce4547601befa962680bede836606ae2000bb800003c0000000101894d6ea97767ebecefe01c9410f6bd67935aa952000a8c0000000000000003478946bcd4a5a22b316470f5486fafb928c0ba2500023b0000640308d301020001985612ff2c9409174fedcff23d4f4761af124f880001f40000000000000102aefc1edaede6adadcdf3bb344577d45a80b195820001f400000a000000000300034dc22588ade05c40338a9d95a6da9dcee68bcd600001f90000c80180cf0101e9581d0f1a628b038fc8b2a7f5a7d904f0e2f937002710000000000000010339ed27d101aa4b7ce1cb4293b877954b8b5e14e5000bd60000c801cf3600030003478946bcd4a5a22b316470f5486fafb928c0ba2500023b0000640308d30001a0a215de234276cac1b844fd58901351a50fec8a002328000000000000010339ed27d101aa4b7ce1cb4293b877954b8b5e14e5000bd60000c801cf3600020003478946bcd4a5a22b316470f5486fafb928c0ba2500023b0000640308d300021fb3cf6e48f1e7b10213e7b6d87d4c073c7fdb7b0001f400000a000000010301021fb3cf6e48f1e7b10213e7b6d87d4c073c7fdb7b0001f400000a00000001010493bf8b6dbb159ce2db2e0e8403e753abd1235b000bb800000000000001022ab22ac86b25bd448a4d9dc041bd2384655299c4000064000001000000000300021fb3cf6e48f1e7b10213e7b6d87d4c073c7fdb7b0001f400000a00000000026a78e8cb7e084aaac8ce00f078413f54a4081cad0001f400000a000000010285c31ffa3706d1cce9d525a00f1c7d4a2911754c0001f400000a0000000003000339ed27d101aa4b7ce1cb4293b877954b8b5e14e5000bd60000c801cf3601037cfc2da3ba598ef4de692905fedca32565ab836e000c130000c804d7fd0003478946bcd4a5a22b316470f5486fafb928c0ba2500023b0000640308d3010200016da98bde0068d10ddd11b468b197ea97d96f96bc0001f40000000000000003bf30ff33cf9c6b0c48702ff17891293b002dfea40000650000010008070102000204f6c85a1b00f6d9b75f91fd23835974cc07e65c0000640000010000000004d4e7f2e5ef82c45b85656d26210acdd9bd7de34424a483891adf3efe39313c5700006400000100000000","maxFeePerGas":"0x3938700","maxPriorityFeePerGas":"0x186a0","nonce":"0x2c63d","r":"0xdc5a484fe820e317e4f8d7c52c9c55ee9af9cdd70f4b93546252e5d4a334796d","s":"0x7ab828355946ca0af409cee36de7e4b43f146fac6b19a93bcecd688b91d02764","to":"0x355463adfd60892ee5aefb92ba2e86d8cd554a30","transactionIndex":"0x11","type":"0x2","v":"0x0","value":"0x0","yParity":"0x0"},{"accessList":[],"blockHash":"0xeb9af86de15e97dca2e6323e8e3c4e0cdb4fac0614b0a9b5f18ad3f5a1dc3136","blockNumber":"0x8fbd195","chainId":"0xa","from":"0xea427e8f242d8e104c6f9b8d65aafe88ca14b8f3","gas":"0xb6a0","gasPrice":"0x18817","hash":"0x7aba534d77a5447a85784b8b5b7f40ce5b1e14a937f4a555a6972e7bf5c64ec6","input":"0x095ea7b3000000000000000000000000dc3df64448fa5d6f005cd3f0f3fce7afe7682b0e0000000000000000000000000000000000000000000000000000000021825fdc","maxFeePerGas":"0x18b05","maxPriorityFeePerGas":"0x186a0","nonce":"0x1db","r":"0xb937c938b26be2014e4817cb50d46e3699f86469d326d8a44c499c03616c606a","s":"0x2d64cd60779764f67885b3666fac399d2ff2776fa4c06c56b8872365c0e1c732","to":"0x94b008aa00579c1307b0ef2c499ad98a8ce58e58","transactionIndex":"0x12","type":"0x2","v":"0x1","value":"0x0","yParity":"0x1"},{"accessList":[],"blockHash":"0xeb9af86de15e97dca2e6323e8e3c4e0cdb4fac0614b0a9b5f18ad3f5a1dc3136","blockNumber":"0x8fbd195","chainId":"0xa","from":"0x0ce027ba8270385a4809584f3d646a4ed1be61d1","gas":"0x16e360","gasPrice":"0x182","hash":"0xe602b5da71d7b5cd6521e9b2276c46f0c474f23f93b22d9242ed38755ca9a053","input":"0x00000000","maxFeePerGas":"0x2faf08b","maxPriorityFeePerGas":"0xb","nonce":"0x1f2e0b","r":"0x9a7940998f44f66fafd036f598f59cfb44bcfe2d24f6d419e8c975f29f1d33ea","s":"0x54dcea1555e7020694e580256d284a660b11fa0447a27ed05fc80d1aee0e8e5","to":"0x1e04602a8ba9cd99ae30781e0d1933f68fa6398c","transactionIndex":"0x13","type":"0x2","v":"0x1","value":"0x0","yParity":"0x1"},{"accessList":[],"blockHash":"0xeb9af86de15e97dca2e6323e8e3c4e0cdb4fac0614b0a9b5f18ad3f5a1dc3136","blockNumber":"0x8fbd195","chainId":"0xa","from":"0x8780693726948c15757589e89fb3ed56c7a33e8f","gas":"0x16e360","gasPrice":"0x182","hash":"0x0c4f910f16f199a292b11695df476e21424f8e5be828b45111396cbbcf718615","input":"0x00000000","maxFeePerGas":"0x2faf08b","maxPriorityFeePerGas":"0xb","nonce":"0x1e96e9","r":"0xd35870f267530ba0fffb2c78c4fc3005b8bae335b1a2fb73917ec6ace83125a5","s":"0x7a5f7c412c25fd1389ea4b079200e4a4aaa9171b56b7d7b67595da6e342d45cb","to":"0x1e04602a8ba9cd99ae30781e0d1933f68fa6398c","transactionIndex":"0x14","type":"0x2","v":"0x1","value":"0x0","yParity":"0x1"},{"accessList":[],"blockHash":"0xeb9af86de15e97dca2e6323e8e3c4e0cdb4fac0614b0a9b5f18ad3f5a1dc3136","blockNumber":"0x8fbd195","chainId":"0xa","from":"0xb3536ff8b80c3fc22011e1692be8f656eed0bcc3","gas":"0xb71b00","gasPrice":"0x18817","hash":"0x19bbfafc637a1de5b2e4448e02e55e4a6359be6ca98537e05dc68a77c5ca3abc","input":"0x00000000000069eb7d1e1b4f2923f7ecaebcc0da644fc7c526b59a98a32c27a6a122b63434d602de20ee7c6e35ab8a7d1e0a3058a49e7c5ba65a89a0700f1d8a33514a650c665d6ef8d6490d020002c858a329bf053be78d6239c4a4343b8fbd21472b0001f400000a0000000102dd0c6bae8ad5998c358b823df15a2a4181da1b80000bb800003c000000000201002ee4db658906e04a10874dd8f11bfd32e4439038000bb800000000000001023f60fca6c50ae3bcd95ae150b4c57f0ba5c3f2ad000bb800003c000000000300020392b358ce4547601befa962680bede836606ae2000bb800003c0000000103f25bbc18a607bbe218c87ba1ff0e673d9b53dd58000bd60000c804661500021fb3cf6e48f1e7b10213e7b6d87d4c073c7fdb7b0001f400000a00000001020003478946bcd4a5a22b316470f5486fafb928c0ba2500023b0000640308d30002c1738d90e2e26c35784a0d3e3d8a9f795074bca4000bb800003c00000001030002c1738d90e2e26c35784a0d3e3d8a9f795074bca4000bb800003c000000000384ce89b4f6f67e523a81a82f9f2f14d84b726f6b00005b000001fffffb0102c858a329bf053be78d6239c4a4343b8fbd21472b0001f400000a000000000300034dc22588ade05c40338a9d95a6da9dcee68bcd600001f90000c80180cf0101e9581d0f1a628b038fc8b2a7f5a7d904f0e2f937002710000000000000010339ed27d101aa4b7ce1cb4293b877954b8b5e14e5000bd60000c801cf3600030003478946bcd4a5a22b316470f5486fafb928c0ba2500023b0000640308d30001a0a215de234276cac1b844fd58901351a50fec8a002328000000000000010339ed27d101aa4b7ce1cb4293b877954b8b5e14e5000bd60000c801cf3600020003478946bcd4a5a22b316470f5486fafb928c0ba2500023b0000640308d300021fb3cf6e48f1e7b10213e7b6d87d4c073c7fdb7b0001f400000a000000010200021fb3cf6e48f1e7b10213e7b6d87d4c073c7fdb7b0001f400000a0000000003478946bcd4a5a22b316470f5486fafb928c0ba2500023b0000640308d3010301021fb3cf6e48f1e7b10213e7b6d87d4c073c7fdb7b0001f400000a00000001010493bf8b6dbb159ce2db2e0e8403e753abd1235b000bb800000000000001022ab22ac86b25bd448a4d9dc041bd2384655299c4000064000001000000000300021fb3cf6e48f1e7b10213e7b6d87d4c073c7fdb7b0001f400000a00000000026a78e8cb7e084aaac8ce00f078413f54a4081cad0001f400000a000000010285c31ffa3706d1cce9d525a00f1c7d4a2911754c0001f400000a0000000003000339ed27d101aa4b7ce1cb4293b877954b8b5e14e5000bd60000c801cf3601037cfc2da3ba598ef4de692905fedca32565ab836e000c130000c804d7fd0003478946bcd4a5a22b316470f5486fafb928c0ba2500023b0000640308d3010200016da98bde0068d10ddd11b468b197ea97d96f96bc0001f40000000000000003bf30ff33cf9c6b0c48702ff17891293b002dfea400006500000100080701","maxFeePerGas":"0x3938700","maxPriorityFeePerGas":"0x186a0","nonce":"0xa8e0","r":"0x681f3a1719b781b1c60a132eed590a40d7feefbceb0660220f265cedf9bb92e5","s":"0x307e6473409980a0662fa748ba44845fd401c63d7d5b7fc832571051c6257c5b","to":"0x355463adfd60892ee5aefb92ba2e86d8cd554a30","transactionIndex":"0x15","type":"0x2","v":"0x1","value":"0x0","yParity":"0x1"},{"accessList":[],"blockHash":"0xeb9af86de15e97dca2e6323e8e3c4e0cdb4fac0614b0a9b5f18ad3f5a1dc3136","blockNumber":"0x8fbd195","chainId":"0xa","from":"0xf203f66df719c80a51980140df3a7d2784261651","gas":"0x16d83","gasPrice":"0xf43b7","hash":"0x36c18a2948043b483996106fd804ba1eb06a5f080d9a16efbee91f8a9954dfd5","input":"0x13cd3b5300000000000000000000000068f180fcce6836688e9084f035309e29bf0a2095000000000000000000000000000000000000000000000000000000000000000c98281ad2d5088c306a4f213e5bc847ff3fa5d20a56a463e0ed6d038c3a3d6e680000000000000000000000000000000000000000000000000000000069eb7e0d0000000000000000000000007348f1f99f1d13ac89a23ba82dae1579dca083d900000000000000000000000016511973924c014a74b0d6478c4456efa3fe90d70000000000000000000000000000000000000000000000000000000069eb7a89000000000000000000000000000000000000000000000000000000000000010000000000000000000000000000000000000000000000000000000000000000416cd739d228661f1659e1ec996406f7b267da3b27730be0892ca620e4dd4901493dd3114207eba83cca547c190b61687c2d8747482bf4a9049eab8174c1236a531c00000000000000000000000000000000000000000000000000000000000000","maxFeePerGas":"0x125142","maxPriorityFeePerGas":"0xf4240","nonce":"0x11a8","r":"0x2326fa51937ba900d9e3bac05cb11e654dc1b018a38eeb4cab3e819b1c03c65a","s":"0x3fc227eac7c6e08965c660843cb3d78c36eea51bd9e5cd2fb54b2e37dfcb5cb4","to":"0x402085c248eea27d92e8b30b2c58ed07f9e20001","transactionIndex":"0x16","type":"0x2","v":"0x0","value":"0x0","yParity":"0x0"},{"accessList":[],"blockHash":"0xeb9af86de15e97dca2e6323e8e3c4e0cdb4fac0614b0a9b5f18ad3f5a1dc3136","blockNumber":"0x8fbd195","chainId":"0xa","from":"0x151f6f5b1c25b741c3663472959d8ba6b16556a6","gas":"0x16e360","gasPrice":"0x182","hash":"0xb6de2a844296646d69c8428112373a85f09c74837a965da8b115235f93b65b64","input":"0x00000000","maxFeePerGas":"0x2faf08b","maxPriorityFeePerGas":"0xb","nonce":"0x1f07e5","r":"0x2eaa459bcd65ce98cecac11770921dfb788a1e8632dd78553d9e3f6f5bdb049a","s":"0x4ea09c878c595b61843167823c2b65d1e15dbf909c98b30a8411d9b54310691d","to":"0x1e04602a8ba9cd99ae30781e0d1933f68fa6398c","transactionIndex":"0x17","type":"0x2","v":"0x0","value":"0x0","yParity":"0x0"},{"accessList":[],"blockHash":"0xeb9af86de15e97dca2e6323e8e3c4e0cdb4fac0614b0a9b5f18ad3f5a1dc3136","blockNumber":"0x8fbd195","chainId":"0xa","from":"0x226cd32e106512a5cc417a57da74745c21597723","gas":"0x16e360","gasPrice":"0x182","hash":"0xcd7db44c59016346d3ba9f176e61fdd5a9c93c8827251b70013b80aeee835ac2","input":"0x00000000","maxFeePerGas":"0x2faf08b","maxPriorityFeePerGas":"0xb","nonce":"0x1f3445","r":"0xca6fc65bec022d3b7e46dd227fe3d001a727bae5a6d8e5d2344c536e9ac3ab68","s":"0x6e10e881bc2f12218101f3330efa8601cd3967d6db309240e764e74cf8ec9f0c","to":"0x1e04602a8ba9cd99ae30781e0d1933f68fa6398c","transactionIndex":"0x18","type":"0x2","v":"0x1","value":"0x0","yParity":"0x1"},{"accessList":[],"blockHash":"0xeb9af86de15e97dca2e6323e8e3c4e0cdb4fac0614b0a9b5f18ad3f5a1dc3136","blockNumber":"0x8fbd195","chainId":"0xa","from":"0xbdccb78e31a28e84235491e8a2d7cecaa41fa849","gas":"0x7a120","gasPrice":"0x55f","hash":"0x87c986e30d4614a4f1f23898d7b0cecb2e2f09ceca14465941ffc380d07091bf","input":"0x4e6669ed4150584554480000000000000000000000000000000000000000000000000000","maxFeePerGas":"0x59682f01","maxPriorityFeePerGas":"0x3e8","nonce":"0x2ab151","r":"0x1a526255eb31120a2090fa6ff78d910021f8423c8054e236602a65eb942dac38","s":"0x22e8f71f0a9b65d27b478cee2e3af3af7e447fb4306b84003992308c400df4f0","to":"0xf4f18205d8d46638489865e42c0a71a3d4f9fc22","transactionIndex":"0x19","type":"0x2","v":"0x0","value":"0x0","yParity":"0x0"},{"accessList":[],"blockHash":"0xeb9af86de15e97dca2e6323e8e3c4e0cdb4fac0614b0a9b5f18ad3f5a1dc3136","blockNumber":"0x8fbd195","chainId":"0xa","from":"0x257c2555c85488b10995d0239abcb7d8c2a345b9","gas":"0x16e360","gasPrice":"0x182","hash":"0xc21d8269519df7b2a4da6e8d5cc79d39210a7fe40b83a6925b1b7ef34b9376aa","input":"0x00000000","maxFeePerGas":"0x2faf08b","maxPriorityFeePerGas":"0xb","nonce":"0x1ed744","r":"0xfc0f339847920d70164edecd274fa5352dd1fdc891837f17b85ee42e74490af","s":"0x19e6004cf3234329c39d423a0f5401412b09bf3d2e8f241436fed48d8fd657e8","to":"0x1e04602a8ba9cd99ae30781e0d1933f68fa6398c","transactionIndex":"0x1a","type":"0x2","v":"0x1","value":"0x0","yParity":"0x1"},{"accessList":[],"blockHash":"0xeb9af86de15e97dca2e6323e8e3c4e0cdb4fac0614b0a9b5f18ad3f5a1dc3136","blockNumber":"0x8fbd195","chainId":"0xa","from":"0x20c47312cf87584500c410bff4723f8ce3b8aa2d","gas":"0xe4e1c0","gasPrice":"0x179","hash":"0x31669ff5102b6559f7dbe76dedb574b1e76d12b86f06530e868fff17542d9ed3","input":"0x0d390afd00000000000000000000000000000000000000000000000000000000000000200000000000000000000000000000000000000000000000000000000000000004000000000000000000000000000000000000000000000000000000000000000000000000000000000000000000000000000000000000000000000000000308d3000000000000000000000000000000000000000000000000000000000000000a000000000000000000000000000000000000000000000000000000000000022e000000000000000000000000000000000000000000000000000000000000270600000000000000000000000000000000000000000000000000000002af8484c50000000000000000000000000000000000000000000000008fec42bc6d660168000000000000000000000000000000000000000000000000000000000000000600000000000000000000000000000000000000000000000000000000000300ca000000000000000000000000000000000000000000000000000000000000000a0000000000000000000000000000000000000000000000000000000000000b4a0000000000000000000000000000000000000000000000000000000000000fa00000000000000000000000000000000000000000000000000000000074dd33150000000000000000000000000000000000000000000000000118e31bdf0502620000000000000000000000000000000000000000000000000000000000000008000000000000000000000000000000000000000000000000000000000003a165000000000000000000000000000000000000000000000000000000000000000a00000000000000000000000000000000000000000000000000000000000005510000000000000000000000000000000000000000000000000000000000001f40000000000000000000000000000000000000000000000000000000002a7cb6090000000000000000000000000000000000000000000000016749bb357715e78c000000000000000000000000000000000000000000000000000000000000000c0000000000000000000000000000000000000000000000000000000000000807000000000000000000000000000000000000000000000000000000000000000a0000000000000000000000000000000000000000000000000000000000000ede0000000000000000000000000000000000000000000000000000000000000fa000000000000000000000000000000000000000000000000000459004103514a5000000000000000000000000000000000000000000000000071ce7cd6ff6e9bc","maxFeePerGas":"0x1dcd6502","maxPriorityFeePerGas":"0x2","nonce":"0x496b0","r":"0x5283c5eac528e189bf922db850953147866309b6961ab981b3a08ad6f48a7323","s":"0x2b1dea2faec38b393afe3b68c9b5c91221b08f75a65ce304ec3ac7f678601285","to":"0x17adbb47735c68b75e405abceaba52a7f6522e17","transactionIndex":"0x1b","type":"0x2","v":"0x0","value":"0x0","yParity":"0x0"},{"accessList":[],"blockHash":"0xeb9af86de15e97dca2e6323e8e3c4e0cdb4fac0614b0a9b5f18ad3f5a1dc3136","blockNumber":"0x8fbd195","chainId":"0xa","from":"0xa83a922a933da0d06cc87d60e54c6a44ddcdfaf9","gas":"0x16e360","gasPrice":"0x178","hash":"0x2fdd6ec4b281f8c996c6f51ec9e08635c31c99f27fa00d843f66a30def4f398b","input":"0xcbce98b00000000000000000000000000000000000000000000000000000000000000064000000000000000000000000000000000000000000000000000000000003089000000000000000000000000000000000000000000000000000000000000308f40000000000000000000000000000000000000000000000000000000069eb7cfa","maxFeePerGas":"0x233","maxPriorityFeePerGas":"0x1","nonce":"0x8bc99","r":"0x9ff5b5d3f4aa820128db99364fa2400139a43122f73e39516061f15509d33335","s":"0x6761929e3da1153d2d59fb193d0aeb0b381e1310b07e9838ba0037d9011178b1","to":"0xc26ae9339be07ce072b96003fa959517c4af37e9","transactionIndex":"0x1c","type":"0x2","v":"0x1","value":"0x0","yParity":"0x1"},{"accessList":[],"blockHash":"0xeb9af86de15e97dca2e6323e8e3c4e0cdb4fac0614b0a9b5f18ad3f5a1dc3136","blockNumber":"0x8fbd195","chainId":"0xa","from":"0x9e3ed65340a913b96ba7b86d5d5876dde623946e","gas":"0x27ac40","gasPrice":"0x178","hash":"0x29741a3204c0eebffaa412ff5941c30f7cec1b45968aeb5181941e585ecb8383","input":"0x83730cc30000000000000000000000000000000000000000000000000000000008fbd195","maxFeePerGas":"0x5f5e100","maxPriorityFeePerGas":"0x1","nonce":"0xa6c01f","r":"0xe14d168fbceffc4b33fc07c28db46c242d1eb5ba6bec95a39979a36f27a6b499","s":"0x64033e757d18626dee95ff5553f4e15ff68991f4dfbca11bfb7a0afd62d8eafd","to":"0xd9f7bd6033d34caf61143a460d7f79c4384aae97","transactionIndex":"0x1d","type":"0x2","v":"0x1","value":"0x0","yParity":"0x1"},{"accessList":[],"blockHash":"0xeb9af86de15e97dca2e6323e8e3c4e0cdb4fac0614b0a9b5f18ad3f5a1dc3136","blockNumber":"0x8fbd195","chainId":"0xa","from":"0xcde377407d9b819efc0e185aa2d442194c2233e6","gas":"0x27ac40","gasPrice":"0x178","hash":"0x50020a92487937ce12e458786b328c9c6ef8da727d7d35589f3577e96e496280","input":"0x83730cc30000000000000000000000000000000000000000000000000000000008fbd195","maxFeePerGas":"0x5f5e100","maxPriorityFeePerGas":"0x1","nonce":"0x98d1c2","r":"0x2a188487e2698a751bdc01e6b20f73601bf9bcc33d85f4dff66243868218042c","s":"0x72707b9dd7adbafd081c55f318e667b296b7676ab5a6d14767eacb6a90d4227e","to":"0x4aed348173bbf17dfaeb91598321904c9323d36e","transactionIndex":"0x1e","type":"0x2","v":"0x0","value":"0x0","yParity":"0x0"},{"accessList":[],"blockHash":"0xeb9af86de15e97dca2e6323e8e3c4e0cdb4fac0614b0a9b5f18ad3f5a1dc3136","blockNumber":"0x8fbd195","chainId":"0xa","from":"0xffd12b32d000617551681973911fd3ad49b89294","gas":"0x27ac40","gasPrice":"0x178","hash":"0xe727cc0ae1f50e73203b3fbdbb3a8579d8018bb8dced688600830ffe0880ddd6","input":"0x83730cc30000000000000000000000000000000000000000000000000000000008fbd195","maxFeePerGas":"0x5f5e100","maxPriorityFeePerGas":"0x1","nonce":"0x9019a","r":"0x32c3130d1ec29cf3ec5c3f04ac3815286f2a9ec61a1cc7a194dbd8ad30d52db4","s":"0x6a788ace1b5ac0e1f44160b93011ee47d4cf1482288d0a3640ff9f3e33f575fe","to":"0x1c43229d1a6006ae61d7071f1c6a57d8846b0047","transactionIndex":"0x1f","type":"0x2","v":"0x1","value":"0x0","yParity":"0x1"}],"transactionsRoot":"0x4bbc8df019edd5e82e033d62eee0f82fed6286b22c3467c44795964c77b6f31e","uncles":[],"withdrawals":[],"withdrawalsRoot":"0x719522ed54cb522b5c21a8bc6250f92cd2a644813aaead3ffa707618ff98b14c"},"id":
        0}

        '
    headers:
      CF-RAY:
      - 9f1f00748d730b7c-AMS
      Cache-Control:
      - max-age=0, private, must-revalidate
      Connection:
      - keep-alive
      Content-Type:
      - application/json; charset=utf-8
      Date:
      - Sat, 25 Apr 2026 17:17:32 GMT
      Nel:
      - '{"report_to":"cf-nel","success_fraction":0.0,"max_age":604800}'
      Report-To:
      - '{"group":"cf-nel","max_age":604800,"endpoints":[{"url":"https://a.nel.cloudflare.com/report/v4?s=y%2BLVv3eZ9Yr93UXp%2BCeFjriqP%2BQK7zKNPjZZTdNSt6f3cfuI3qNKHC1XQh8cdGKfHdHzfrHv3%2BNFe1Gw%2FyGFrnGy4mbnW0quqtjuMymLRuk4LTb6JQCKVMvX%2FNrPiAyRrYCht4I25xuE7sq%2BhEfgtQ%3D%3D"}]}'
      Server:
      - cloudflare
      alt-svc:
      - h3=":443"; ma=86400
      cf-cache-status:
      - DYNAMIC
      content-length:
      - '36930'
      strict-transport-security:
      - max-age=31536000; includeSubDomains
      vary:
      - accept-encoding
      x-credits-remaining:
      - '99960'
      x-ratelimit-limit:
      - '5'
      x-ratelimit-remaining:
      - '3'
      x-ratelimit-reset:
      - '737'
      x-request-id:
      - 040f3b1400dfacf2348cbe2570bf9ae0
    status:
      code: 200
      message: OK
- request:
    body: '{"id": 0, "jsonrpc": "2.0", "method": "eth_getTransactionReceipt", "params":
      ["0xab954bb018e2f6f24ce6bc487c03919ba3f86d593723ed05958a15d6175b182a"]}'
    headers:
      Accept:
      - '*/*'
      Accept-Encoding:
      - gzip, deflate
      Connection:
      - keep-alive
      Content-Length:
      - '148'
      Content-Type:
      - application/json
      User-Agent:
      - rotki/1.42.2.dev319+g24edfbb02d
    method: POST
    uri: https://api.blockscout.com/10/json-rpc
  response:
    body:
      string: '{"jsonrpc":"2.0","result": {"blockHash":"0xeb9af86de15e97dca2e6323e8e3c4e0cdb4fac0614b0a9b5f18ad3f5a1dc3136","blockNumber":"0x8fbd195","contractAddress":null,"cumulativeGasUsed":"0x24b32","effectiveGasPrice":"0x10ca57","from":"0x6eb78c56f639b3d161456e9f893c8e8ad9d754f0","gasUsed":"0x19690","logs":[{"address":"0x528cdc92eab044e1e39fe43b9514bfdab4412b98","blockHash":"0xeb9af86de15e97dca2e6323e8e3c4e0cdb4fac0614b0a9b5f18ad3f5a1dc3136","blockNumber":"0x8fbd195","data":"0x0000000000000000000000000000000000000000000000a2a15d09519be00000","logIndex":"0x0","removed":false,"topics":["0xddf252ad1be2c89b69c2b068fc378daa952ba7f163c4a11628f55a4df523b3ef","0x0000000000000000000000006eb78c56f639b3d161456e9f893c8e8ad9d754f0","0x0000000000000000000000009531c059098e3d194ff87febb587ab07b30b1306"],"transactionHash":"0xab954bb018e2f6f24ce6bc487c03919ba3f86d593723ed05958a15d6175b182a","transactionIndex":"0x1"},{"address":"0x528cdc92eab044e1e39fe43b9514bfdab4412b98","blockHash":"0xeb9af86de15e97dca2e6323e8e3c4e0cdb4fac0614b0a9b5f18ad3f5a1dc3136","blockNumber":"0x8fbd195","data":"0x00000000000000000000000000000000000000000000014542ba12a337c00000","logIndex":"0x1","removed":false,"topics":["0x8c5be1e5ebec7d5bd14f71427d1e84f3dd0314c0f7b2291e5b200ac8c7c3b925","0x0000000000000000000000006eb78c56f639b3d161456e9f893c8e8ad9d754f0","0x0000000000000000000000008d685a56c51cf54685d3db0ea50748d3a2c2e0dc"],"transactionHash":"0xab954bb018e2f6f24ce6bc487c03919ba3f86d593723ed05958a15d6175b182a","transactionIndex":"0x1"},{"address":"0x8d685a56c51cf54685d3db0ea50748d3a2c2e0dc","blockHash":"0xeb9af86de15e97dca2e6323e8e3c4e0cdb4fac0614b0a9b5f18ad3f5a1dc3136","blockNumber":"0x8fbd195","data":"0x0000000000000000000000000000000000000000000000a2a15d09519be0000000000000000000000000000000000000000000000000000000000000000000400000000000000000000000000000000000000000000000000000000000000000","logIndex":"0x2","removed":false,"topics":["0x428e1190dfef997f3ac8da6afa80e330fc785bafb1febed9109598bfeee45ec0","0x0000000000000000000000009531c059098e3d194ff87febb587ab07b30b1306","0x000000000000000000000000528cdc92eab044e1e39fe43b9514bfdab4412b98"],"transactionHash":"0xab954bb018e2f6f24ce6bc487c03919ba3f86d593723ed05958a15d6175b182a","transactionIndex":"0x1"},{"address":"0x528cdc92eab044e1e39fe43b9514bfdab4412b98","blockHash":"0xeb9af86de15e97dca2e6323e8e3c4e0cdb4fac0614b0a9b5f18ad3f5a1dc3136","blockNumber":"0x8fbd195","data":"0x0000000000000000000000000000000000000000000000a2a15d09519be00000","logIndex":"0x3","removed":false,"topics":["0xddf252ad1be2c89b69c2b068fc378daa952ba7f163c4a11628f55a4df523b3ef","0x0000000000000000000000006eb78c56f639b3d161456e9f893c8e8ad9d754f0","0x00000000000000000000000026ebb88694380efa235c71ca7268357599267c2b"],"transactionHash":"0xab954bb018e2f6f24ce6bc487c03919ba3f86d593723ed05958a15d6175b182a","transactionIndex":"0x1"},{"address":"0x528cdc92eab044e1e39fe43b9514bfdab4412b98","blockHash":"0xeb9af86de15e97dca2e6323e8e3c4e0cdb4fac0614b0a9b5f18ad3f5a1dc3136","blockNumber":"0x8fbd195","data":"0x0000000000000000000000000000000000000000000000a2a15d09519be00000","logIndex":"0x4","removed":false,"topics":["0x8c5be1e5ebec7d5bd14f71427d1e84f3dd0314c0f7b2291e5b200ac8c7c3b925","0x0000000000000000000000006eb78c56f639b3d161456e9f893c8e8ad9d754f0","0x0000000000000000000000008d685a56c51cf54685d3db0ea50748d3a2c2e0dc"],"transactionHash":"0xab954bb018e2f6f24ce6bc487c03919ba3f86d593723ed05958a15d6175b182a","transactionIndex":"0x1"},{"address":"0x8d685a56c51cf54685d3db0ea50748d3a2c2e0dc","blockHash":"0xeb9af86de15e97dca2e6323e8e3c4e0cdb4fac0614b0a9b5f18ad3f5a1dc3136","blockNumber":"0x8fbd195","data":"0x0000000000000000000000000000000000000000000000a2a15d09519be0000000000000000000000000000000000000000000000000000000000000000000400000000000000000000000000000000000000000000000000000000000000000","logIndex":"0x5","removed":false,"topics":["0x428e1190dfef997f3ac8da6afa80e330fc785bafb1febed9109598bfeee45ec0","0x00000000000000000000000026ebb88694380efa235c71ca7268357599267c2b","0x000000000000000000000000528cdc92eab044e1e39fe43b9514bfdab4412b98"],"transactionHash":"0xab954bb018e2f6f24ce6bc487c03919ba3f86d593723ed05958a15d6175b182a","transactionIndex":"0x1"},{"address":"0x528cdc92eab044e1e39fe43b9514bfdab4412b98","blockHash":"0xeb9af86de15e97dca2e6323e8e3c4e0cdb4fac0614b0a9b5f18ad3f5a1dc3136","blockNumber":"0x8fbd195","data":"0x0000000000000000000000000000000000000000000000a2a15d09519be00000","logIndex":"0x6","removed":false,"topics":["0xddf252ad1be2c89b69c2b068fc378daa952ba7f163c4a11628f55a4df523b3ef","0x0000000000000000000000006eb78c56f639b3d161456e9f893c8e8ad9d754f0","0x000000000000000000000000cbe8b0804c1461f7d2ed445c611f218430461b7d"],"transactionHash":"0xab954bb018e2f6f24ce6bc487c03919ba3f86d593723ed05958a15d6175b182a","transactionIndex":"0x1"},{"address":"0x528cdc92eab044e1e39fe43b9514bfdab4412b98","blockHash":"0xeb9af86de15e97dca2e6323e8e3c4e0cdb4fac0614b0a9b5f18ad3f5a1dc3136","blockNumber":"0x8fbd195","data":"0x0000000000000000000000000000000000000000000000000000000000000000","logIndex":"0x7","removed":false,"topics":["0x8c5be1e5ebec7d5bd14f71427d1e84f3dd0314c0f7b2291e5b200ac8c7c3b925","0x0000000000000000000000006eb78c56f639b3d161456e9f893c8e8ad9d754f0","0x0000000000000000000000008d685a56c51cf54685d3db0ea50748d3a2c2e0dc"],"transactionHash":"0xab954bb018e2f6f24ce6bc487c03919ba3f86d593723ed05958a15d6175b182a","transactionIndex":"0x1"},{"address":"0x8d685a56c51cf54685d3db0ea50748d3a2c2e0dc","blockHash":"0xeb9af86de15e97dca2e6323e8e3c4e0cdb4fac0614b0a9b5f18ad3f5a1dc3136","blockNumber":"0x8fbd195","data":"0x0000000000000000000000000000000000000000000000a2a15d09519be0000000000000000000000000000000000000000000000000000000000000000000400000000000000000000000000000000000000000000000000000000000000000","logIndex":"0x8","removed":false,"topics":["0x428e1190dfef997f3ac8da6afa80e330fc785bafb1febed9109598bfeee45ec0","0x000000000000000000000000cbe8b0804c1461f7d2ed445c611f218430461b7d","0x000000000000000000000000528cdc92eab044e1e39fe43b9514bfdab4412b98"],"transactionHash":"0xab954bb018e2f6f24ce6bc487c03919ba3f86d593723ed05958a15d6175b182a","transactionIndex":"0x1"}],"logsBloom":"0x0000000000002000000000000000000000000000000000000000000000000000000000000000000000000000000000000000000000000000000000000020000020000000001000000000001800000100000000000000000000000000008000000000200000000100000000000000000000004000200000000000001000000000080000000000000020000000000000000000000000000000000000000000000002000000000000000000001000000000010000000000000010200000000000000000002200800202000000c400000000000000200000008000000000000000000010020000000000000000000000000000000000000000000000400000000000","status":"0x1","to":"0x8d685a56c51cf54685d3db0ea50748d3a2c2e0dc","transactionHash":"0xab954bb018e2f6f24ce6bc487c03919ba3f86d593723ed05958a15d6175b182a","transactionIndex":"0x1","type":"0x2"},"id":
        0}

        '
    headers:
      CF-RAY:
      - 9f1f00799cdbfb95-AMS
      Cache-Control:
      - max-age=0, private, must-revalidate
      Connection:
      - keep-alive
      Content-Type:
      - application/json; charset=utf-8
      Date:
      - Sat, 25 Apr 2026 17:17:33 GMT
      Nel:
      - '{"report_to":"cf-nel","success_fraction":0.0,"max_age":604800}'
      Report-To:
      - '{"group":"cf-nel","max_age":604800,"endpoints":[{"url":"https://a.nel.cloudflare.com/report/v4?s=oud1KY8VVuWfWEbFv%2FtVrE2vXcDYZ1mnrb9bGOleFUXjmjWUCkSGhsctNVSGxrVZoJYe%2B7e3TMSkPQgjjOnePG5p%2B20yPMJGVB5EkEOEd03gEiNLUcNHaRA3O81WQHovlszgEAXyVMOwRRlNN6BWYw%3D%3D"}]}'
      Server:
      - cloudflare
      alt-svc:
      - h3=":443"; ma=86400
      cf-cache-status:
      - DYNAMIC
      content-length:
      - '6840'
      strict-transport-security:
      - max-age=31536000; includeSubDomains
      vary:
      - accept-encoding
      x-credits-remaining:
      - '99940'
      x-ratelimit-limit:
      - '5'
      x-ratelimit-remaining:
      - '4'
      x-ratelimit-reset:
      - '908'
      x-request-id:
      - 154aa3b724016fe929c7c9a00ac48323
    status:
      code: 200
      message: OK
- request:
    body: null
    headers:
      Accept:
      - '*/*'
      Accept-Encoding:
      - gzip, deflate
      Connection:
      - keep-alive
      User-Agent:
      - rotki/1.42.2.dev319+g24edfbb02d
    method: GET
    uri: https://api.blockscout.com/10/api/v2/transactions/0xab954bb018e2f6f24ce6bc487c03919ba3f86d593723ed05958a15d6175b182a
  response:
    body:
      string: '{"l1_gas_used":"3588","priority_fee":"114488000000","raw_input":"0xb5f01335000000000000000000000000528cdc92eab044e1e39fe43b9514bfdab4412b980000000000000000000000000000000000000000000001e7e4171bf4d3a0000000000000000000000000000000000000000000000000000000000000000000a0000000000000000000000000000000000000000000000000000000000000012000000000000000000000000000000000000000000000000000000000000001a000000000000000000000000000000000000000000000000000000000000000030000000000000000000000009531c059098e3d194ff87febb587ab07b30b130600000000000000000000000026ebb88694380efa235c71ca7268357599267c2b000000000000000000000000cbe8b0804c1461f7d2ed445c611f218430461b7d00000000000000000000000000000000000000000000000000000000000000030000000000000000000000000000000000000000000000a2a15d09519be000000000000000000000000000000000000000000000000000a2a15d09519be000000000000000000000000000000000000000000000000000a2a15d09519be0000000000000000000000000000000000000000000000000000000000000000000030000000000000000000000000000000000000000000000000000000000000060000000000000000000000000000000000000000000000000000000000000008000000000000000000000000000000000000000000000000000000000000000a0000000000000000000000000000000000000000000000000000000000000000000000000000000000000000000000000000000000000000000000000000000000000000000000000000000000000000000000000000000000000000000000000","is_pending_update":false,"op_withdrawals":[],"result":"success","hash":"0xab954bb018e2f6f24ce6bc487c03919ba3f86d593723ed05958a15d6175b182a","max_fee_per_gas":"1100750","revert_reason":null,"confirmation_duration":[0,2.0e3],"transaction_burnt_fee":"39030000","type":2,"token_transfers_overflow":false,"confirmations":48407,"position":1,"max_priority_fee_per_gas":"1100000","transaction_tag":null,"created_contract":null,"value":"0","l1_fee_scalar":"0","from":{"ens_domain_name":"anamarijab.eth","hash":"0x6eb78c56F639b3d161456e9f893c8e8aD9d754F0","implementations":[],"is_contract":false,"is_scam":false,"is_verified":false,"metadata":null,"name":null,"private_tags":[],"proxy_type":null,"public_tags":[],"reputation":"ok","watchlist_names":[]},"gas_used":"104080","status":"ok","to":{"ens_domain_name":null,"hash":"0x8D685A56C51Cf54685d3dB0Ea50748D3A2c2e0dC","implementations":[{"address_hash":"0x7488cA8fcCB031631272156eA4d2e7575C3cf58b","name":null}],"is_contract":true,"is_scam":false,"is_verified":false,"metadata":null,"name":null,"private_tags":[],"proxy_type":"eip1967","public_tags":[],"reputation":"ok","watchlist_names":[]},"authorization_list":[],"l1_fee":"37492716831","method":"donateManyERC20","fee":{"type":"actual","value":"152019746831"},"actions":[],"gas_limit":"115789","gas_price":"1100375","decoded_input":{"method_call":"donateManyERC20(address
        tokenAddress, uint256 totalAmount, address[] recipientAddresses, uint256[]
        amounts, bytes[] data)","method_id":"b5f01335","parameters":[{"name":"tokenAddress","type":"address","value":"0x528CDc92eAB044E1E39FE43B9514bfdAB4412B98"},{"name":"totalAmount","type":"uint256","value":"9000000000000000000000"},{"name":"recipientAddresses","type":"address[]","value":["0x9531C059098e3d194fF87FebB587aB07B30B1306","0x26EBb88694380EfA235c71ca7268357599267c2B","0xCbe8B0804C1461f7D2eD445C611F218430461b7D"]},{"name":"amounts","type":"uint256[]","value":["3000000000000000000000","3000000000000000000000","3000000000000000000000"]},{"name":"data","type":"bytes[]","value":["0x","0x","0x"]}]},"l1_gas_price":"1214454750","token_transfers":[{"block_hash":"0xeb9af86de15e97dca2e6323e8e3c4e0cdb4fac0614b0a9b5f18ad3f5a1dc3136","block_number":150720917,"from":{"ens_domain_name":"anamarijab.eth","hash":"0x6eb78c56F639b3d161456e9f893c8e8aD9d754F0","implementations":[],"is_contract":false,"is_scam":false,"is_verified":false,"metadata":null,"name":null,"private_tags":[],"proxy_type":null,"public_tags":[],"reputation":"ok","watchlist_names":[]},"log_index":0,"method":null,"timestamp":null,"to":{"ens_domain_name":"rotki.eth","hash":"0x9531C059098e3d194fF87FebB587aB07B30B1306","implementations":[],"is_contract":false,"is_scam":false,"is_verified":false,"metadata":{"tags":[{"meta":{"tagUrl":"https://explorer.gitcoin.co/#/round/42161/862/7"},"name":"Gitcoin
        Grantee","ordinal":0,"slug":"gitcoin-grantee","tagType":"generic"}]},"name":null,"private_tags":[],"proxy_type":null,"public_tags":[],"reputation":"ok","watchlist_names":[]},"token":{"address_hash":"0x528CDc92eAB044E1E39FE43B9514bfdAB4412B98","circulating_market_cap":"265035.76004289027","decimals":"18","exchange_rate":"0.00069106","holders_count":"1199","icon_url":"https://assets.coingecko.com/coins/images/21792/small/GIVToken_200x200.png?1722577147","name":"Giveth","reputation":"ok","symbol":"GIV","total_supply":"220143717560320516624118796","type":"ERC-20","volume_24h":"5388.637815274653"},"token_type":"ERC-20","total":{"decimals":"18","value":"3000000000000000000000"},"transaction_hash":"0xab954bb018e2f6f24ce6bc487c03919ba3f86d593723ed05958a15d6175b182a","type":"token_transfer"},{"block_hash":"0xeb9af86de15e97dca2e6323e8e3c4e0cdb4fac0614b0a9b5f18ad3f5a1dc3136","block_number":150720917,"from":{"ens_domain_name":"anamarijab.eth","hash":"0x6eb78c56F639b3d161456e9f893c8e8aD9d754F0","implementations":[],"is_contract":false,"is_scam":false,"is_verified":false,"metadata":null,"name":null,"private_tags":[],"proxy_type":null,"public_tags":[],"reputation":"ok","watchlist_names":[]},"log_index":3,"method":null,"timestamp":null,"to":{"ens_domain_name":null,"hash":"0x26EBb88694380EfA235c71ca7268357599267c2B","implementations":[{"address_hash":"0x29fcB43b46531BcA003ddC8FCB67FFE91900C762","name":"SafeL2"}],"is_contract":true,"is_scam":false,"is_verified":true,"metadata":null,"name":"SafeProxy","private_tags":[],"proxy_type":"master_copy","public_tags":[],"reputation":"ok","watchlist_names":[]},"token":{"address_hash":"0x528CDc92eAB044E1E39FE43B9514bfdAB4412B98","circulating_market_cap":"265035.76004289027","decimals":"18","exchange_rate":"0.00069106","holders_count":"1199","icon_url":"https://assets.coingecko.com/coins/images/21792/small/GIVToken_200x200.png?1722577147","name":"Giveth","reputation":"ok","symbol":"GIV","total_supply":"220143717560320516624118796","type":"ERC-20","volume_24h":"5388.637815274653"},"token_type":"ERC-20","total":{"decimals":"18","value":"3000000000000000000000"},"transaction_hash":"0xab954bb018e2f6f24ce6bc487c03919ba3f86d593723ed05958a15d6175b182a","type":"token_transfer"},{"block_hash":"0xeb9af86de15e97dca2e6323e8e3c4e0cdb4fac0614b0a9b5f18ad3f5a1dc3136","block_number":150720917,"from":{"ens_domain_name":"anamarijab.eth","hash":"0x6eb78c56F639b3d161456e9f893c8e8aD9d754F0","implementations":[],"is_contract":false,"is_scam":false,"is_verified":false,"metadata":null,"name":null,"private_tags":[],"proxy_type":null,"public_tags":[],"reputation":"ok","watchlist_names":[]},"log_index":6,"method":null,"timestamp":null,"to":{"ens_domain_name":null,"hash":"0xCbe8B0804C1461f7D2eD445C611F218430461b7D","implementations":[],"is_contract":false,"is_scam":false,"is_verified":false,"metadata":null,"name":null,"private_tags":[],"proxy_type":null,"public_tags":[],"reputation":"ok","watchlist_names":[]},"token":{"address_hash":"0x528CDc92eAB044E1E39FE43B9514bfdAB4412B98","circulating_market_cap":"265035.76004289027","decimals":"18","exchange_rate":"0.00069106","holders_count":"1199","icon_url":"https://assets.coingecko.com/coins/images/21792/small/GIVToken_200x200.png?1722577147","name":"Giveth","reputation":"ok","symbol":"GIV","total_supply":"220143717560320516624118796","type":"ERC-20","volume_24h":"5388.637815274653"},"token_type":"ERC-20","total":{"decimals":"18","value":"3000000000000000000000"},"transaction_hash":"0xab954bb018e2f6f24ce6bc487c03919ba3f86d593723ed05958a15d6175b182a","type":"token_transfer"}],"base_fee_per_gas":"375","timestamp":"2026-04-24T14:23:31.000000Z","nonce":65,"historic_exchange_rate":"2315.87","transaction_types":["contract_call","token_transfer"],"exchange_rate":"2309.23","block_number":150720917,"has_error_in_internal_transactions":false,"da_footprint_gas_scalar":"400"}'
    headers:
      CF-RAY:
      - 9f1f007b88a9fea0-AMS
      Cache-Control:
      - max-age=0, private, must-revalidate
      Connection:
      - keep-alive
      Content-Type:
      - application/json; charset=utf-8
      Date:
      - Sat, 25 Apr 2026 17:17:35 GMT
      Nel:
      - '{"report_to":"cf-nel","success_fraction":0.0,"max_age":604800}'
      Report-To:
      - '{"group":"cf-nel","max_age":604800,"endpoints":[{"url":"https://a.nel.cloudflare.com/report/v4?s=kct1r6N4CZNySykJ8yQtIK0RKkZRhMOcG3RcXPUnuFEH%2FFoR8MB0U2oJgVdRwtUfj4YVHD0HGLcMDtTUlpkcX6HLFoVQ4cG%2BZSNj4sHIGdoquDhwQhJ3jXAWs%2F5seCEeQQh%2Fiy9r9v7%2BC05ZDwUcNA%3D%3D"}]}'
      Server:
      - cloudflare
      alt-svc:
      - h3=":443"; ma=86400
      cf-cache-status:
      - DYNAMIC
      content-length:
      - '8038'
      strict-transport-security:
      - max-age=31536000; includeSubDomains
      vary:
      - accept-encoding
      x-credits-remaining:
      - '99920'
      x-ratelimit-limit:
      - '5'
      x-ratelimit-remaining:
      - '3'
      x-ratelimit-reset:
      - '596'
      x-request-id:
      - af7fe9179dd7fa14300884ece70927ba
    status:
      code: 200
      message: OK
- request:
    body: null
    headers:
      Accept:
      - '*/*'
      Accept-Encoding:
      - gzip, deflate
      Connection:
      - keep-alive
      User-Agent:
      - rotki/1.42.2.dev319+g24edfbb02d
    method: GET
    uri: https://api.blockscout.com/10/api?action=txlistinternal&module=account&sort=asc&txhash=0xab954bb018e2f6f24ce6bc487c03919ba3f86d593723ed05958a15d6175b182a
  response:
    body:
      string: '{"message":"No internal transactions found","result":[],"status":"0"}'
    headers:
      CF-RAY:
      - 9f1f008a4a0df5b0-AMS
      Cache-Control:
      - max-age=0, private, must-revalidate
      Connection:
      - keep-alive
      Content-Type:
      - application/json; charset=utf-8
      Date:
      - Sat, 25 Apr 2026 17:17:35 GMT
      Nel:
      - '{"report_to":"cf-nel","success_fraction":0.0,"max_age":604800}'
      Report-To:
      - '{"group":"cf-nel","max_age":604800,"endpoints":[{"url":"https://a.nel.cloudflare.com/report/v4?s=bhZQTWplUDwhZArtJmV8%2B0juQZgyqxUZHABH9kpKsnUlU4lw%2FCx9%2FSwjxy8H%2FT1prBQtzflfI03RZpXHrEa36Sn0Qxz2M2I93iVbndwpDQSZxwikD0lJcBpOUGC%2BpcSvN7ZNSG0X3Y6aZ8KiDGgTRg%3D%3D"}]}'
      Server:
      - cloudflare
      alt-svc:
      - h3=":443"; ma=86400
      cf-cache-status:
      - DYNAMIC
      content-length:
      - '69'
      strict-transport-security:
      - max-age=31536000; includeSubDomains
      vary:
      - accept-encoding
      x-credits-remaining:
      - '99900'
      x-ratelimit-limit:
      - '5'
      x-ratelimit-remaining:
      - '4'
      x-ratelimit-reset:
      - '261'
      x-request-id:
      - d6e8a9e678315389e2020cd80234ac60
    status:
      code: 200
      message: OK
version: 1
