interactions:
- request:
    body: '{"jsonrpc": "2.0", "method": "web3_clientVersion", "params": [], "id":
      0}'
    headers:
      Accept:
      - '*/*'
      Accept-Encoding:
      - gzip, deflate
      Connection:
      - keep-alive
      Content-Length:
      - '73'
      Content-Type:
      - application/json
      User-Agent:
      - web3.py/7.14.0/web3.providers.rpc.rpc.HTTPProvider
    method: POST
    uri: https://mainnet.optimism.io/
  response:
    body:
      string: '{"jsonrpc":"2.0","result":"reth/v1.9.3-27a8c0f/x86_64-unknown-linux-gnu/base/v0.2.1","id":0}

        '
    headers:
      Alt-Svc:
      - h3=":443"; ma=2592000,h3-29=":443"; ma=2592000
      Content-Length:
      - '93'
      Content-Type:
      - application/json
      Date:
      - Wed, 10 Dec 2025 14:29:56 GMT
      Set-Cookie:
      - lb1=3d5a7df2f7437523; Path=/
      Vary:
      - Origin
      Via:
      - 1.1 google
      X-Proxyd-Cache-Status:
      - MISS
    status:
      code: 200
      message: OK
- request:
    body: '{"jsonrpc": "2.0", "method": "net_version", "params": [], "id": 1}'
    headers:
      Accept:
      - '*/*'
      Accept-Encoding:
      - gzip, deflate
      Connection:
      - keep-alive
      Content-Length:
      - '66'
      Content-Type:
      - application/json
      Cookie:
      - lb1=3d5a7df2f7437523
      User-Agent:
      - web3.py/7.14.0/web3.providers.rpc.rpc.HTTPProvider
    method: POST
    uri: https://mainnet.optimism.io/
  response:
    body:
      string: '{"jsonrpc":"2.0","result":"10","id":1}

        '
    headers:
      Alt-Svc:
      - h3=":443"; ma=2592000,h3-29=":443"; ma=2592000
      Content-Length:
      - '39'
      Content-Type:
      - application/json
      Date:
      - Wed, 10 Dec 2025 14:29:56 GMT
      Vary:
      - Origin
      Via:
      - 1.1 google
      X-Proxyd-Cache-Status:
      - HIT
    status:
      code: 200
      message: OK
- request:
    body: '{"jsonrpc": "2.0", "method": "eth_blockNumber", "params": [], "id": 2}'
    headers:
      Accept:
      - '*/*'
      Accept-Encoding:
      - gzip, deflate
      Connection:
      - keep-alive
      Content-Length:
      - '70'
      Content-Type:
      - application/json
      Cookie:
      - lb1=3d5a7df2f7437523
      User-Agent:
      - web3.py/7.14.0/web3.providers.rpc.rpc.HTTPProvider
    method: POST
    uri: https://mainnet.optimism.io/
  response:
    body:
      string: '{"jsonrpc":"2.0","result":"0x8a2d515","id":2}

        '
    headers:
      Alt-Svc:
      - h3=":443"; ma=2592000,h3-29=":443"; ma=2592000
      Content-Length:
      - '46'
      Content-Type:
      - application/json
      Date:
      - Wed, 10 Dec 2025 14:29:56 GMT
      Vary:
      - Origin
      Via:
      - 1.1 google
      X-Proxyd-Cache-Status:
      - MISS
    status:
      code: 200
      message: OK
- request:
    body: '{"jsonrpc": "2.0", "method": "eth_getBalance", "params": ["0x76a05Df20bFEF5EcE3eB16afF9cb10134199A921",
      "0x12110"], "id": 3}'
    headers:
      Accept:
      - '*/*'
      Accept-Encoding:
      - gzip, deflate
      Connection:
      - keep-alive
      Content-Length:
      - '124'
      Content-Type:
      - application/json
      Cookie:
      - lb1=3d5a7df2f7437523
      User-Agent:
      - web3.py/7.14.0/web3.providers.rpc.rpc.HTTPProvider
    method: POST
    uri: https://mainnet.optimism.io/
  response:
    body:
      string: '{"jsonrpc":"2.0","result":"0xb1a2bc2ec50000","id":3}

        '
    headers:
      Alt-Svc:
      - h3=":443"; ma=2592000,h3-29=":443"; ma=2592000
      Content-Length:
      - '53'
      Content-Type:
      - application/json
      Date:
      - Wed, 10 Dec 2025 14:29:56 GMT
      Vary:
      - Origin
      Via:
      - 1.1 google
      X-Proxyd-Cache-Status:
      - MISS
    status:
      code: 200
      message: OK
- request:
    body: '{"jsonrpc": "2.0", "method": "eth_getTransactionByHash", "params": ["0x5e77a04531c7c107af1882d76cbff9486d0a9aa53701c30888509d4f5f2b003a"],
      "id": 4}'
    headers:
      Accept:
      - '*/*'
      Accept-Encoding:
      - gzip, deflate
      Connection:
      - keep-alive
      Content-Length:
      - '147'
      Content-Type:
      - application/json
      Cookie:
      - lb1=3d5a7df2f7437523
      User-Agent:
      - web3.py/7.14.0/web3.providers.rpc.rpc.HTTPProvider
    method: POST
    uri: https://mainnet.optimism.io/
  response:
    body:
      string: '{"jsonrpc":"2.0","result":{"blockHash":"0xbee7192e575af30420cae0c7776304ac196077ee72b048970549e4f08e875453","blockNumber":"0x1","from":"0x70b17c0fe982ab4a7ac17a4c25485643151a1f2d","gas":"0x7a120","gasPrice":"0x1","hash":"0x5e77a04531c7c107af1882d76cbff9486d0a9aa53701c30888509d4f5f2b003a","index":"0x0","input":"0x202ee0ed000000000000000000000000000000000000000000000000000000000001421800000000000000000000000000000000000000000000000000000000d0e3ebf0","l1BlockNumber":"0xcf7a45","l1Timestamp":"0x618d8837","l1TxOrigin":null,"nonce":"0x28972","queueIndex":null,"queueOrigin":"sequencer","r":"0xc878d22e771004beb73e7a4268fd4f447735812b94b217f6807412efcec90d61","rawTransaction":"0xf8a883028972018307a120948ce8c13d816fe6daf12d6fd9e4952e1fc88850af80b844202ee0ed000000000000000000000000000000000000000000000000000000000001421800000000000000000000000000000000000000000000000000000000d0e3ebf038a0c878d22e771004beb73e7a4268fd4f447735812b94b217f6807412efcec90d61a03588018735fb361c49e5de54b266b8b157c1ba3d6ee08e3bcbdee7cd725c16e8","s":"0x3588018735fb361c49e5de54b266b8b157c1ba3d6ee08e3bcbdee7cd725c16e8","to":"0x8ce8c13d816fe6daf12d6fd9e4952e1fc88850af","transactionIndex":"0x0","v":"0x38","value":"0x0"},"id":4}

        '
    headers:
      Alt-Svc:
      - h3=":443"; ma=2592000,h3-29=":443"; ma=2592000
      Content-Length:
      - '1203'
      Content-Type:
      - application/json
      Date:
      - Wed, 10 Dec 2025 14:29:57 GMT
      Vary:
      - Origin
      Via:
      - 1.1 google
      X-Proxyd-Cache-Status:
      - MISS
    status:
      code: 200
      message: OK
- request:
    body: '{"jsonrpc": "2.0", "method": "eth_getTransactionByHash", "params": ["0x7157b063a1da86a45ed3d6a022fb48d74f1ab2d76db39179a785e93bf86be675"],
      "id": 5}'
    headers:
      Accept:
      - '*/*'
      Accept-Encoding:
      - gzip, deflate
      Connection:
      - keep-alive
      Content-Length:
      - '147'
      Content-Type:
      - application/json
      Cookie:
      - lb1=3d5a7df2f7437523
      User-Agent:
      - web3.py/7.14.0/web3.providers.rpc.rpc.HTTPProvider
    method: POST
    uri: https://mainnet.optimism.io/
  response:
    body:
      string: '{"jsonrpc":"2.0","result":{"accessList":[],"blockHash":"0x12de2bd101d505a334d8855d307602b380b71b6fc432541e37408e7c7360c7fe","blockNumber":"0x7001e20","chainId":"0xa","from":"0x17fea6550d0c9d56b257af6235e80b02b43f1e21","gas":"0x559ab","gasPrice":"0x1c48ca4","hash":"0x7157b063a1da86a45ed3d6a022fb48d74f1ab2d76db39179a785e93bf86be675","input":"0x6a7612020000000000000000000000001828bff08bd244f7990eddcd9b19cc654b33cdb40000000000000000000000000000000000000000000000000000000000000000000000000000000000000000000000000000000000000000000000000000014000000000000000000000000000000000000000000000000000000000000000000000000000000000000000000000000000000000000000000000000000000000000000000000000000000000000000000000000000000000000000000000000000000000000000000000000000000000000000000000000000000000000000000000000000000000000000000000000000000000000000000000000000000000000000000000000000000000000000000000000000000000000000000000000000000000000000000000000000000000000000000000000000000000000001a0000000000000000000000000000000000000000000000000000000000000002411bcc81e000000000000000000000000000000000000000000000c192ce0ba710b908db400000000000000000000000000000000000000000000000000000000000000000000000000000000000000000000000000000000000000000000008200000000000000000000000017fea6550d0c9d56b257af6235e80b02b43f1e210000000000000000000000000000000000000000000000000000000000000000013ab2ad8295be4c3ad2fb31f28a272440b9847bd4e9ece44451cb553356dd498808fbdd6b87d61d614d0be73469b379a3eadfd4c4de175e6e5aaf1e667ff6d5a61c000000000000000000000000000000000000000000000000000000000000","maxFeePerGas":"0x5f5e100","maxPriorityFeePerGas":"0x186a0","nonce":"0x2","r":"0xa127354f6c4a0a75ec956fc48d1ab468705356ad871aadc011da5d60bbe45220","s":"0x36a6df457f4046996b2b251abc801876bcf0129d625f9727bb2141ed7783f320","to":"0x0bebd2fca9854f657329324aa7dc90f656395189","transactionIndex":"0x11","type":"0x2","v":"0x1","value":"0x0","yParity":"0x1"},"id":5}

        '
    headers:
      Alt-Svc:
      - h3=":443"; ma=2592000,h3-29=":443"; ma=2592000
      Content-Length:
      - '1928'
      Content-Type:
      - application/json
      Date:
      - Wed, 10 Dec 2025 14:29:57 GMT
      Vary:
      - Origin
      Via:
      - 1.1 google
      X-Proxyd-Cache-Status:
      - MISS
    status:
      code: 200
      message: OK
- request:
    body: '{"jsonrpc": "2.0", "method": "eth_getBlockByNumber", "params": ["0x7001e20",
      false], "id": 6}'
    headers:
      Accept:
      - '*/*'
      Accept-Encoding:
      - gzip, deflate
      Connection:
      - keep-alive
      Content-Length:
      - '93'
      Content-Type:
      - application/json
      Cookie:
      - lb1=3d5a7df2f7437523
      User-Agent:
      - web3.py/7.14.0/web3.providers.rpc.rpc.HTTPProvider
    method: POST
    uri: https://mainnet.optimism.io/
  response:
    body:
      string: '{"jsonrpc":"2.0","result":{"baseFeePerGas":"0x1c30604","blobGasUsed":"0x0","difficulty":"0x0","excessBlobGas":"0x0","extraData":"0x","gasLimit":"0x1c9c380","gasUsed":"0x427d5e","hash":"0x12de2bd101d505a334d8855d307602b380b71b6fc432541e37408e7c7360c7fe","logsBloom":"0x82c0b02040000004440150808008c0000000440800001008090c1200040880000108110810000200900200100092081000050060a00220122400244200640041224105083008c008230001090020200806a004004104101108000c3080004000b2040020460c001000c45000220c0903200000422c0800c002062410890912000780100808002000010000000600080001244481a8e400032013205c130250040630041014110600010080141082840000462040202400800001000104100005c040122308000c001541088a0872800820e000000420048000000004005020401210a0082001000202080014000014000040002104802a400000000008011800","miner":"0x4200000000000000000000000000000000000011","mixHash":"0x640ddc08b2eea544f3d370876a347187822dacb4bad5fc9c1d3c550dd7c1bf5c","nonce":"0x0000000000000000","number":"0x7001e20","parentBeaconBlockRoot":"0xc9cbf587a95c8c5d88ecbf726dafbfbfce5632bc600f576bdaa14ba4f21909cf","parentHash":"0xbf72d7a125fee07969c7cea7f65817c58445b57a70d9f37240512d0a2bec2614","receiptsRoot":"0xa47f127289894686a85469b2bf4c2ff26cd3bf847f1d2b0766ea6e79eae5aa2b","sha3Uncles":"0x1dcc4de8dec75d7aab85b567b6ccd41ad312451b948a7413f0a142fd40d49347","size":"0x2634","stateRoot":"0x3f3dfccd4c578cca989f15fd2d910916a0f32bdecec974868fce832788e6f1b7","timestamp":"0x65f415f9","transactions":["0x4c12519c89dc358ca07cd55531c8541c8e26e1cd7378fab5f3d3865a138eee29","0xdc7cb15f0f6e267520adb94b05fe2fcb5344d26540f11fa818262d77d3af1705","0xdee66b176fc164fddb947561d5414d40360ba8bc79168da500095929b1bc4209","0xe3d2d0fae4fccb41a9729a805dc0d5eed4622e352a8481709f00c77f88d362ce","0x58e0052dcd63bd279d9ea4d9f19e5b0d9c5a155f9a76798db87b96212c3769dd","0xe603faf8030e9a388a112993c17c94ac752eef8b80b61ab1bc83f05c66753d17","0x15a30032b086b2372e807e06a16984f9199172cff7afd3e31f659df494c250d6","0xf7190626754d7679c4a801cb7645e1432a120aa5779a2f5e47a96917095b0ab2","0x9aaf3900def375f91e35abce5c03853837a20d2af3d31deb3cab48e7a44e3fba","0x127e029da3a46df88fa0a209eb093e1843f6721a556fd1aaca2b7e5ba0a32a5b","0x27e9edc49085fef6fa3b483ca5b1411e6dfaf33af6524bf9b4c08fae301b271d","0x5ab868ea1175f1923737a5a3fb28e755bc9966c55a0ae1099b3be33c6f94058c","0xbc384d755af4eebbcc24d3628c7e639492777b17e14ba5611435c1a389270727","0x3412823b0fd02c13b60229d1b627054e43c698d23f19dda9d39697640a795575","0xa116b5dfb342b72e582a5fd34d2aeaebc6c94cf62cd4488233d004a44dba55c0","0x088c23b665e032be3d1a399e6ecd5257c80061e9e5acf3a65d8fe8155ce34a46","0xfd7bb12d36cbb533a14b7812d6c255668675dafed29c742d4c071444af8e5bfb","0x7157b063a1da86a45ed3d6a022fb48d74f1ab2d76db39179a785e93bf86be675"],"transactionsRoot":"0x05cc9cea08f855391a4627b2ab76036e65e933988e9f8cff181f891aadb7673c","uncles":[],"withdrawals":[],"withdrawalsRoot":"0x56e81f171bcc55a6ff8345e692c0f86e5b48e01b996cadc001622fb5e363b421"},"id":6}

        '
    headers:
      Alt-Svc:
      - h3=":443"; ma=2592000,h3-29=":443"; ma=2592000
      Content-Type:
      - application/json
      Date:
      - Wed, 10 Dec 2025 14:29:57 GMT
      Transfer-Encoding:
      - chunked
      Vary:
      - Origin
      Via:
      - 1.1 google
      X-Proxyd-Cache-Status:
      - MISS
    status:
      code: 200
      message: OK
- request:
    body: '{"jsonrpc": "2.0", "method": "eth_getTransactionReceipt", "params": ["0x7157b063a1da86a45ed3d6a022fb48d74f1ab2d76db39179a785e93bf86be675"],
      "id": 7}'
    headers:
      Accept:
      - '*/*'
      Accept-Encoding:
      - gzip, deflate
      Connection:
      - keep-alive
      Content-Length:
      - '148'
      Content-Type:
      - application/json
      Cookie:
      - lb1=3d5a7df2f7437523
      User-Agent:
      - web3.py/7.14.0/web3.providers.rpc.rpc.HTTPProvider
    method: POST
    uri: https://mainnet.optimism.io/
  response:
    body:
      string: '{"jsonrpc":"2.0","result":{"blockHash":"0x12de2bd101d505a334d8855d307602b380b71b6fc432541e37408e7c7360c7fe","blockNumber":"0x7001e20","contractAddress":null,"cumulativeGasUsed":"0x427d5e","effectiveGasPrice":"0x1c48ca4","from":"0x17fea6550d0c9d56b257af6235e80b02b43f1e21","gasUsed":"0x5268b","l1BaseFeeScalar":"0x558","l1BlobBaseFee":"0x1","l1BlobBaseFeeScalar":"0xc5fc5","l1Fee":"0x77e0a6c7f9","l1GasPrice":"0xf23d0f936","l1GasUsed":"0x169c","logs":[{"address":"0x0bebd2fca9854f657329324aa7dc90f656395189","blockHash":"0x12de2bd101d505a334d8855d307602b380b71b6fc432541e37408e7c7360c7fe","blockNumber":"0x7001e20","blockTimestamp":"0x65f415f9","data":"0x0000000000000000000000001828bff08bd244f7990eddcd9b19cc654b33cdb40000000000000000000000000000000000000000000000000000000000000000000000000000000000000000000000000000000000000000000000000000016000000000000000000000000000000000000000000000000000000000000000000000000000000000000000000000000000000000000000000000000000000000000000000000000000000000000000000000000000000000000000000000000000000000000000000000000000000000000000000000000000000000000000000000000000000000000000000000000000000000000000000000000000000000000000000000000000000000000000000000000000000000000000000000000000000000000000000000000000000000000000000000000000000000000001c00000000000000000000000000000000000000000000000000000000000000280000000000000000000000000000000000000000000000000000000000000002411bcc81e000000000000000000000000000000000000000000000c192ce0ba710b908db400000000000000000000000000000000000000000000000000000000000000000000000000000000000000000000000000000000000000000000008200000000000000000000000017fea6550d0c9d56b257af6235e80b02b43f1e210000000000000000000000000000000000000000000000000000000000000000013ab2ad8295be4c3ad2fb31f28a272440b9847bd4e9ece44451cb553356dd498808fbdd6b87d61d614d0be73469b379a3eadfd4c4de175e6e5aaf1e667ff6d5a61c0000000000000000000000000000000000000000000000000000000000000000000000000000000000000000000000000000000000000000000000000060000000000000000000000000000000000000000000000000000000000000000700000000000000000000000017fea6550d0c9d56b257af6235e80b02b43f1e210000000000000000000000000000000000000000000000000000000000000002","logIndex":"0x40","removed":false,"topics":["0x66753cd2356569ee081232e3be8909b950e0a76c1f8460c3a5e3c2be32b11bed"],"transactionHash":"0x7157b063a1da86a45ed3d6a022fb48d74f1ab2d76db39179a785e93bf86be675","transactionIndex":"0x11"},{"address":"0x1828bff08bd244f7990eddcd9b19cc654b33cdb4","blockHash":"0x12de2bd101d505a334d8855d307602b380b71b6fc432541e37408e7c7360c7fe","blockNumber":"0x7001e20","blockTimestamp":"0x65f415f9","data":"0x000000000000000000000000000000000000000000000c192ce0ba710b908db40000000000000000000000000000000000000000000000000000000000000060000000000000000000000000000000000000000000000000000000000000008000000000000000000000000000000000000000000000000000000000000000000000000000000000000000000000000000000000000000000000000000000000","logIndex":"0x41","removed":false,"topics":["0xa78a9be3a7b862d26933ad85fb11d80ef66b8f972d7cbba06621d583943a4098","0x0000000000000000000000000bebd2fca9854f657329324aa7dc90f656395189","0x0000000000000000000000000bebd2fca9854f657329324aa7dc90f656395189"],"transactionHash":"0x7157b063a1da86a45ed3d6a022fb48d74f1ab2d76db39179a785e93bf86be675","transactionIndex":"0x11"},{"address":"0x1828bff08bd244f7990eddcd9b19cc654b33cdb4","blockHash":"0x12de2bd101d505a334d8855d307602b380b71b6fc432541e37408e7c7360c7fe","blockNumber":"0x7001e20","blockTimestamp":"0x65f415f9","data":"0x000000000000000000000000000000000000000000000c192ce0ba710b908db4","logIndex":"0x42","removed":false,"topics":["0xddf252ad1be2c89b69c2b068fc378daa952ba7f163c4a11628f55a4df523b3ef","0x0000000000000000000000000bebd2fca9854f657329324aa7dc90f656395189","0x0000000000000000000000000000000000000000000000000000000000000000"],"transactionHash":"0x7157b063a1da86a45ed3d6a022fb48d74f1ab2d76db39179a785e93bf86be675","transactionIndex":"0x11"},{"address":"0x4200000000000000000000000000000000000042","blockHash":"0x12de2bd101d505a334d8855d307602b380b71b6fc432541e37408e7c7360c7fe","blockNumber":"0x7001e20","blockTimestamp":"0x65f415f9","data":"0x000000000000000000000000000000000000000000000c192ce0ba710b908db4","logIndex":"0x43","removed":false,"topics":["0xddf252ad1be2c89b69c2b068fc378daa952ba7f163c4a11628f55a4df523b3ef","0x0000000000000000000000001828bff08bd244f7990eddcd9b19cc654b33cdb4","0x0000000000000000000000000bebd2fca9854f657329324aa7dc90f656395189"],"transactionHash":"0x7157b063a1da86a45ed3d6a022fb48d74f1ab2d76db39179a785e93bf86be675","transactionIndex":"0x11"},{"address":"0x4200000000000000000000000000000000000042","blockHash":"0x12de2bd101d505a334d8855d307602b380b71b6fc432541e37408e7c7360c7fe","blockNumber":"0x7001e20","blockTimestamp":"0x65f415f9","data":"0x00000000000000000000000000000000000000000001c41ff0ee493224f5889e00000000000000000000000000000000000000000001d0391dcf03a330861652","logIndex":"0x44","removed":false,"topics":["0xdec2bacdd2f05b59de34da9b523dff8be42e5e38e818c82fdb0bae774387a724","0x0000000000000000000000002b888954421b424c5d3d9ce9bb67c9bd47537d12"],"transactionHash":"0x7157b063a1da86a45ed3d6a022fb48d74f1ab2d76db39179a785e93bf86be675","transactionIndex":"0x11"},{"address":"0x1828bff08bd244f7990eddcd9b19cc654b33cdb4","blockHash":"0x12de2bd101d505a334d8855d307602b380b71b6fc432541e37408e7c7360c7fe","blockNumber":"0x7001e20","blockTimestamp":"0x65f415f9","data":"0x000000000000000000000000000000000000000000000c192ce0ba710b908db4","logIndex":"0x45","removed":false,"topics":["0x3bc27981aebbb57f9247dc00fde9d6cd91e4b230083fec3238fedbcba1f9ab3d","0x0000000000000000000000000bebd2fca9854f657329324aa7dc90f656395189"],"transactionHash":"0x7157b063a1da86a45ed3d6a022fb48d74f1ab2d76db39179a785e93bf86be675","transactionIndex":"0x11"},{"address":"0x0bebd2fca9854f657329324aa7dc90f656395189","blockHash":"0x12de2bd101d505a334d8855d307602b380b71b6fc432541e37408e7c7360c7fe","blockNumber":"0x7001e20","blockTimestamp":"0x65f415f9","data":"0xafbf20785cb6f9140e91ed5ae0eaeee225451da44f369a971aec4e0f6f0e24f00000000000000000000000000000000000000000000000000000000000000000","logIndex":"0x46","removed":false,"topics":["0x442e715f626346e8c54381002da614f62bee8d27386535b2521ec8540898556e"],"transactionHash":"0x7157b063a1da86a45ed3d6a022fb48d74f1ab2d76db39179a785e93bf86be675","transactionIndex":"0x11"}],"logsBloom":"0x00400000400000000400000000000000000000000000000000000000040080000000000000000200000200000002000000000000000000000000000200000040020000000000000022000008000000000000040000000000000000000000000000000000020000000040000000000800000000000400000000000410000000000300000000000000000000000000000000000000000000000011000000000000040000000400000000000000000004000000000000040000000000000000000000000002000000000040000800020000208000000000000000000000000020400000000000000000020000000000000000000000000000000000000000001000","status":"0x1","to":"0x0bebd2fca9854f657329324aa7dc90f656395189","transactionHash":"0x7157b063a1da86a45ed3d6a022fb48d74f1ab2d76db39179a785e93bf86be675","transactionIndex":"0x11","type":"0x2"},"id":7}

        '
    headers:
      Alt-Svc:
      - h3=":443"; ma=2592000,h3-29=":443"; ma=2592000
      Content-Type:
      - application/json
      Date:
      - Wed, 10 Dec 2025 14:29:57 GMT
      Transfer-Encoding:
      - chunked
      Vary:
      - Origin
      Via:
      - 1.1 google
      X-Proxyd-Cache-Status:
      - MISS
    status:
      code: 200
      message: OK
- request:
    body: null
    headers:
      Accept:
      - '*/*'
      Accept-Encoding:
      - gzip, deflate
      Connection:
      - keep-alive
      User-Agent:
      - rotki/1.41.2.dev146+g82343db5d.d20251209
    method: GET
    uri: https://explorer.optimism.io/api?action=txlistinternal&module=account&sort=asc&txhash=0x7157b063a1da86a45ed3d6a022fb48d74f1ab2d76db39179a785e93bf86be675
  response:
    body:
      string: '{"message":"No internal transactions found","result":[],"status":"0"}'
    headers:
      CF-RAY:
      - 9abd6fff4fdedffe-ATL
      Cache-Control:
      - max-age=0, private, must-revalidate
      Connection:
      - keep-alive
      Content-Type:
      - application/json; charset=utf-8
      Date:
      - Wed, 10 Dec 2025 14:29:58 GMT
      Nel:
      - '{"report_to":"cf-nel","success_fraction":0.0,"max_age":604800}'
      Report-To:
      - '{"group":"cf-nel","max_age":604800,"endpoints":[{"url":"https://a.nel.cloudflare.com/report/v4?s=aa6gs5rlZKyd3M46wt63jxt9s4lB6lC7CN%2BzyC7sTe%2F9pPQuhRkk8aOyDfCIAihoAnduaySr3w%2B2tDOyySB%2BTw6ytVqMSW17K7EPhD0E5o%2Fd1KIz"}]}'
      Server:
      - cloudflare
      Transfer-Encoding:
      - chunked
      access-control-allow-credentials:
      - 'true'
      access-control-allow-origin:
      - '*'
      access-control-expose-headers:
      - bypass-429-option,x-ratelimit-reset,x-ratelimit-limit,x-ratelimit-remaining,api-v2-temp-token
      alt-svc:
      - h3=":443"; ma=86400
      bypass-429-option:
      - no_bypass
      cf-cache-status:
      - DYNAMIC
      content-length:
      - '69'
      strict-transport-security:
      - max-age=31536000; includeSubDomains
      x-ratelimit-limit:
      - '600'
      x-ratelimit-remaining:
      - '599'
      x-ratelimit-reset:
      - '1406'
      x-request-id:
      - ed608440ff4da0ba2b02e696541f611f
    status:
      code: 200
      message: OK
- request:
    body: '{"jsonrpc": "2.0", "method": "eth_call", "params": [{"to": "0x2DC0E2aa608532Da689e89e237dF582B783E552C",
      "data": "0xbce38bd7000000000000000000000000000000000000000000000000000000000000000000000000000000000000000000000000000000000000000000000000000000400000000000000000000000000000000000000000000000000000000000000003000000000000000000000000000000000000000000000000000000000000006000000000000000000000000000000000000000000000000000000000000000e000000000000000000000000000000000000000000000000000000000000001600000000000000000000000001828bff08bd244f7990eddcd9b19cc654b33cdb400000000000000000000000000000000000000000000000000000000000000400000000000000000000000000000000000000000000000000000000000000004313ce567000000000000000000000000000000000000000000000000000000000000000000000000000000001828bff08bd244f7990eddcd9b19cc654b33cdb40000000000000000000000000000000000000000000000000000000000000040000000000000000000000000000000000000000000000000000000000000000495d89b41000000000000000000000000000000000000000000000000000000000000000000000000000000001828bff08bd244f7990eddcd9b19cc654b33cdb40000000000000000000000000000000000000000000000000000000000000040000000000000000000000000000000000000000000000000000000000000000406fdde0300000000000000000000000000000000000000000000000000000000"},
      "latest"], "id": 8}'
    headers:
      Accept:
      - '*/*'
      Accept-Encoding:
      - gzip, deflate
      Connection:
      - keep-alive
      Content-Length:
      - '1299'
      Content-Type:
      - application/json
      Cookie:
      - lb1=3d5a7df2f7437523
      User-Agent:
      - web3.py/7.14.0/web3.providers.rpc.rpc.HTTPProvider
    method: POST
    uri: https://mainnet.optimism.io/
  response:
    body:
      string: '{"jsonrpc":"2.0","result":"0x00000000000000000000000000000000000000000000000000000000000000200000000000000000000000000000000000000000000000000000000000000003000000000000000000000000000000000000000000000000000000000000006000000000000000000000000000000000000000000000000000000000000000e000000000000000000000000000000000000000000000000000000000000001a00000000000000000000000000000000000000000000000000000000000000001000000000000000000000000000000000000000000000000000000000000004000000000000000000000000000000000000000000000000000000000000000200000000000000000000000000000000000000000000000000000000000000012000000000000000000000000000000000000000000000000000000000000000100000000000000000000000000000000000000000000000000000000000000400000000000000000000000000000000000000000000000000000000000000060000000000000000000000000000000000000000000000000000000000000002000000000000000000000000000000000000000000000000000000000000000034f507800000000000000000000000000000000000000000000000000000000000000000000000000000000000000000000000000000000000000000000000001000000000000000000000000000000000000000000000000000000000000004000000000000000000000000000000000000000000000000000000000000000600000000000000000000000000000000000000000000000000000000000000020000000000000000000000000000000000000000000000000000000000000000e5375706572204f7074696d69736d000000000000000000000000000000000000","id":8}

        '
    headers:
      Alt-Svc:
      - h3=":443"; ma=2592000,h3-29=":443"; ma=2592000
      Content-Length:
      - '1383'
      Content-Type:
      - application/json
      Date:
      - Wed, 10 Dec 2025 14:29:59 GMT
      Vary:
      - Origin
      Via:
      - 1.1 google
      X-Proxyd-Cache-Status:
      - MISS
    status:
      code: 200
      message: OK
version: 1
