interactions:
- request:
    body: '{"id": 0, "jsonrpc": "2.0", "method": "eth_getTransactionByHash", "params":
      ["0xed7e13e4941bba33edbbd70c4f48c734629fd67fe4eac43ce1bed3ef8f3da7df"]}'
    headers:
      Accept:
      - '*/*'
      Accept-Encoding:
      - gzip, deflate
      Connection:
      - keep-alive
      Content-Length:
      - '147'
      Content-Type:
      - application/json
      User-Agent:
      - rotki/1.41.2.dev199+g0b4b699f8.d20251218
    method: POST
    uri: https://explorer.optimism.io/api/eth-rpc
  response:
    body:
      string: '{"jsonrpc":"2.0","result": {"accessList":[],"blockHash":"0x35e662c20828eef0d34c37b214c1a2590337dc36f7cc2fa00c7be915096792f6","blockNumber":"0x68ce0e9","chainId":"0xa","from":"0x78c13393aee675dd7ed07ce992210750d1f5db88","gas":"0x27c20","gasPrice":"0x4af161e","hash":"0xed7e13e4941bba33edbbd70c4f48c734629fd67fe4eac43ce1bed3ef8f3da7df","input":"0xb6b55f2500000000000000000000000000000000000000000000000000991419b46f364b","maxFeePerGas":"0xce3c5fb","maxPriorityFeePerGas":"0x9097e","nonce":"0x17","r":"0xd07bd8a068a0c3736295ca21be91de6508cdedbb46a45a7b1cbd474f80a82fff","s":"0x3f07e4a576705f8168f4bebc8bafbc2230fe3d27d44ba232eeb0321ac311e21f","to":"0xcc53cd0a8ec812d46f0e2c7cc5aadd869b6f0292","transactionIndex":"0x8","type":"0x2","v":"0x1","value":"0x0","yParity":"0x1"},"id":
        0}

        '
    headers:
      CF-RAY:
      - 9b28c2316eeee590-ATL
      Cache-Control:
      - max-age=0, private, must-revalidate
      Connection:
      - keep-alive
      Content-Type:
      - application/json; charset=utf-8
      Date:
      - Tue, 23 Dec 2025 15:05:41 GMT
      Nel:
      - '{"report_to":"cf-nel","success_fraction":0.0,"max_age":604800}'
      Report-To:
      - '{"group":"cf-nel","max_age":604800,"endpoints":[{"url":"https://a.nel.cloudflare.com/report/v4?s=%2BLMzeUXc5CRU3qg5xQUOAc08sTSl6dre7WllSLW3JRpBgB0sMbBuXkzjuQJ79qME%2BxCfKhS55em6JL0qPTcmrLHj3NHItxhjz69SMJkyB5y21Uzj"}]}'
      Server:
      - cloudflare
      access-control-allow-credentials:
      - 'true'
      access-control-allow-origin:
      - '*'
      access-control-expose-headers:
      - bypass-429-option,x-ratelimit-reset,x-ratelimit-limit,x-ratelimit-remaining,api-v2-temp-token
      alt-svc:
      - h3=":443"; ma=86400
      bypass-429-option:
      - no_bypass
      cf-cache-status:
      - DYNAMIC
      content-length:
      - '778'
      strict-transport-security:
      - max-age=31536000; includeSubDomains
      x-ratelimit-limit:
      - '600'
      x-ratelimit-remaining:
      - '598'
      x-ratelimit-reset:
      - '18321'
      x-request-id:
      - 56a28fae33e78b2034cf33abea493131
    status:
      code: 200
      message: OK
- request:
    body: '{"id": 0, "jsonrpc": "2.0", "method": "eth_getBlockByNumber", "params":
      ["0x68ce0e9", true]}'
    headers:
      Accept:
      - '*/*'
      Accept-Encoding:
      - gzip, deflate
      Connection:
      - keep-alive
      Content-Length:
      - '92'
      Content-Type:
      - application/json
      User-Agent:
      - rotki/1.41.2.dev199+g0b4b699f8.d20251218
    method: POST
    uri: https://explorer.optimism.io/api/eth-rpc
  response:
    body:
      string: '{"jsonrpc":"2.0","result": {"baseFeePerGas":"0x4a60ca0","difficulty":"0x0","extraData":"0x","gasLimit":"0x1c9c380","gasUsed":"0x1230ec","hash":"0x35e662c20828eef0d34c37b214c1a2590337dc36f7cc2fa00c7be915096792f6","logsBloom":"0x040041000c000000000000800200000000000000040000000004001000000020000080000820020100000091009012000800084000200200000008404020004000000026080823082040008c0000000080848000000100080004200080000000004000800a002000004011800202080108000004000000028200009008000004048200400100000000048004000000000000000102a14000308a00002800000006800180000004002000004400000022000000010049000400800200000800000000000200000000000100200000000000a09004000110000000000000002000201081080000000000100280428000002000200040d008404000800001010020","miner":"0x4200000000000000000000000000000000000011","mixHash":"0xb18bb441b8c973df60fc013ffa1b18fe9dcaf35aff48ed3ab949320f43b8f726","nonce":"0x0000000000000000","number":"0x68ce0e9","parentHash":"0x1fc779d44f4e0b6e05850d2231085120807a06babc4d396cdac1444e37b51392","receiptsRoot":"0x5dcf25102f517926679efbf039e0d1c3ad7edc5e21710dec35ec990533267be2","sha3Uncles":"0x1dcc4de8dec75d7aab85b567b6ccd41ad312451b948a7413f0a142fd40d49347","size":"0x114c","stateRoot":"0xd477f3aa514bdbd5a5e1a291bf7c92f431004c7e5daa37b173796fac900e5842","timestamp":"0x650d9b8b","transactions":[{"blockHash":"0x35e662c20828eef0d34c37b214c1a2590337dc36f7cc2fa00c7be915096792f6","blockNumber":"0x68ce0e9","from":"0xdeaddeaddeaddeaddeaddeaddeaddeaddead0001","gas":"0xf4240","gasPrice":"0x0","hash":"0xbd84df3aef820df11b7b49d721e263549cf86c47f8c814f93b1da646882e7d3f","input":"0x015d8eb900000000000000000000000000000000000000000000000000000000011595a300000000000000000000000000000000000000000000000000000000650d9b3f000000000000000000000000000000000000000000000000000000027c134dba4229dcc7659872f3189178e9a4611eca8c301c42d1438a4bf866222c39250b6a00000000000000000000000000000000000000000000000000000000000000040000000000000000000000006887246668a3b87f54deb3b94ba47a6f63f3298500000000000000000000000000000000000000000000000000000000000000bc00000000000000000000000000000000000000000000000000000000000a6fe0","mint":"0x0","nonce":"0x471e71","r":"0x0","s":"0x0","sourceHash":"0xa166c36747026c57918187c3c2029bec57dc9c96f1765b5f70f17505061fbdc4","to":"0x4200000000000000000000000000000000000015","transactionIndex":"0x0","type":"0x7e","v":"0x0","value":"0x0","yParity":"0x0"},{"blockHash":"0x35e662c20828eef0d34c37b214c1a2590337dc36f7cc2fa00c7be915096792f6","blockNumber":"0x68ce0e9","chainId":"0xa","from":"0x5bdf85216ec1e38d6458c870992a69e38e03f7ef","gas":"0x186a0","gasPrice":"0x77359400","hash":"0x77b3070c0748b320cf061756c80aff0ebe0994d1266c74010c150013c6bc3d5d","input":"0xa9059cbb000000000000000000000000166b0e967bf17571fc2df38064a36ed6871d611800000000000000000000000000000000000000000000000000000000772651c0","nonce":"0x1728b","r":"0x58690c9ba2f90519fb458b09e161179d27849dd3473bc5b4b99af8b56f2e928b","s":"0x4efa84297a3802617323e7826410dd9765580ba994213bb823c64cf0b3833c29","to":"0x94b008aa00579c1307b0ef2c499ad98a8ce58e58","transactionIndex":"0x1","type":"0x0","v":"0x37","value":"0x0"},{"accessList":[],"blockHash":"0x35e662c20828eef0d34c37b214c1a2590337dc36f7cc2fa00c7be915096792f6","blockNumber":"0x68ce0e9","chainId":"0xa","from":"0x023c34fb3ed5880c865cf918774ca12440dcb8be","gas":"0x22fe1","gasPrice":"0x5e0e3ba0","hash":"0x0613a5f48ada3f81c922412c863a5a74e7d999b102aaa6c21e3a66c74c8233cf","input":"0x63437956000000000000000000000000301bd265f0b3c16a58cbdb886ad87842e3a1c0a400000000000000000000000000000000000000000000000000000000000000400000000000000000000000000000000000000000000000000000000000000001000000000000000000000000000000000000000000000000000000000000002000000bb78590b1ddb6a4a06145bf008e8e708a81f9fb53e6000000000000033b8604a511aeeee9694ea7da4f2c10f48ef95b7ee04b2f9fdb351c517f42559c47000000000000000000000000a989d213dd33fe2a3fa93f502054c4e1df9a72200000000000000000000000000000000000000000000000000000000000000080000000000000000000000000000000000000000000000000000000000000004106c49de6b9fb4b69a9956e7bd9fa7f3f374e755a472a91d5a9914151e1953b392a9a98801d6ab9b81df31d8ba48fd708dfe5af9375830fdd66df89b1804626e61c00000000000000000000000000000000000000000000000000000000000000","maxFeePerGas":"0x6208a34e","maxPriorityFeePerGas":"0x59682f00","nonce":"0x1a5","r":"0xb980c9a30e08209d0d6ac6aea94a477a88235c12ada0a662671ef7245461ccdb","s":"0x6dbd483dc5600632a9a51a6d91c97f82d70274b98c922404de940cded63c7bc6","to":"0x2b351e9f1a1970115f5859107af33f1be386fb7b","transactionIndex":"0x2","type":"0x2","v":"0x0","value":"0x0","yParity":"0x0"},{"accessList":[],"blockHash":"0x35e662c20828eef0d34c37b214c1a2590337dc36f7cc2fa00c7be915096792f6","blockNumber":"0x68ce0e9","chainId":"0xa","from":"0xa214aed7cf1982d5e342fd93711a49153623f953","gas":"0x1daba","gasPrice":"0x5e0e3ba0","hash":"0xf59a79977336c65e6457817ee6e66d5cfa40a4aa15ec0db74ede86edf227a07b","input":"0xbe843116000000000000000000000000a989d213dd33fe2a3fa93f502054c4e1df9a722000000000000000000000000000000000000000000000000000000000000000400000000000000000000000000000000000000000000000000000000000000001000000000000000000000000000000000000000000000000000000000000002000000bb78590b1ddb6a4a06145bf008e8e708a81f9fb53e6000000000000033a00000000000000000000000000000000000000000000000000000000000000008059900bc9a774964658d4034c09b1e43e0135a7fb61e0d15ae6208174cefeb200000000000000000000000000000000000000000000000000000000000000800000000000000000000000000000000000000000000000000000000000000041989dfe680d9ae4613f45cf970e5a5c2e9d8a006999c58acec93f04cda7e7018561aa56ae6ba26980db9659479347ea2b11cc257ad93347caf8f47e1741013abf1b00000000000000000000000000000000000000000000000000000000000000","maxFeePerGas":"0x6208a34e","maxPriorityFeePerGas":"0x59682f00","nonce":"0x1a4","r":"0xc7ad3334c1dd913e9f54072bd9b0828ef661c86db01ee9f1f83c3a66f90bf669","s":"0x7ed7c94660f2b00a527bc2904dd04caa0643f483a96262e77ef27ef7585b3b61","to":"0x2b351e9f1a1970115f5859107af33f1be386fb7b","transactionIndex":"0x3","type":"0x2","v":"0x0","value":"0x0","yParity":"0x0"},{"blockHash":"0x35e662c20828eef0d34c37b214c1a2590337dc36f7cc2fa00c7be915096792f6","blockNumber":"0x68ce0e9","chainId":"0xa","from":"0x03b1763805126b2595d9a6995f3be438575702e6","gas":"0x5208","gasPrice":"0xd5fd4ae","hash":"0x704badbbb95eba8e07c662d7f6280f0e4629f98b92b224331e11dab671982c52","input":"0x","nonce":"0x1","r":"0x799f6aa4902d585a0278a14424682dbdbc96a6fda304062d287207eeefa04833","s":"0x71a049375646e4a149d41803d42467299e2948157519e1eb8191f29095a76bf0","to":"0x03b1763805126b2595d9a6995f3be438575702e6","transactionIndex":"0x4","type":"0x0","v":"0x37","value":"0x0"},{"blockHash":"0x35e662c20828eef0d34c37b214c1a2590337dc36f7cc2fa00c7be915096792f6","blockNumber":"0x68ce0e9","chainId":"0xa","from":"0xe93685f3bba03016f02bd1828badd6195988d950","gas":"0x120c9a","gasPrice":"0xc542095","hash":"0x807b021f7f97d83a1b57954bb12843c77d79af1f1bb2c59d0dac2c37688288bb","input":"0x252f7b01000000000000000000000000000000000000000000000000000000000000006a000000000000000000000000701a95707a0290ac8b90b3719e8ee5b2103608830000000000000000000000000000000000000000000000000000000000043238f22fa8f8fd85d68a174bc68851fefc31c525288dfc7313766a5ae2f40463c893f22fa8f8fd85d68a174bc68851fefc31c525288dfc7313766a5ae2f40463c89300000000000000000000000000000000000000000000000000000000000000c000000000000000000000000000000000000000000000000000000000000002740000000000000000000000004d73adb72bc3dd368966edd0f0b2148401a178e2000000000004ec16006a9d1b1669c73b033dfe47ae5a0164ab96df25b944006f701a95707a0290ac8b90b3719e8ee5b210360883000000000000000000000000000000000000000000000000000000000000000100000000000000000000000000000000000000000000000000000000000000010000000000000000000000000000000000000000000000000000000000000001000000000000000000000000000000000000000000000000000000000000000000000000000000000000000000000000000000000000000000000000000000000000000000000000000000000000000000000000000000000000045a83387f8900000000000000000000000000000000000000000000000000000000b436a81c00000000000000000000000000000000000000000000000000000000000162860000000000000000000000000000000000000000000000000000000000000000000000000000000000000000000000000000000000000000000000000000000000000000000000000000000000000000000000000000000000000000001a500300000000000000000000000000000000000000000000000000000000b4525aa500000000000000000000000000000000000000000000000000000000000001c0000000000000000000000000000000000000000000000000000000000000020000000000000000000000000000000000000000000000000000000000000000146dd90db7b93caca86496642a44d4b25be646f0600000000000000000000000000000000000000000000000000000000000000000000000000000000000000000000000000000000000000000","nonce":"0x57f665","r":"0xb76b8587c33b8727d70f630d4adc87280a55e2445db6bd8ed1c68a39704311bb","s":"0x69008358f5ef78734681c9f55958dd4684efa7769eed91d971488a152b44c2e1","to":"0x81e792e5a9003cc1c8bf5569a00f34b65d75b017","transactionIndex":"0x5","type":"0x0","v":"0x38","value":"0x0"},{"accessList":[],"blockHash":"0x35e662c20828eef0d34c37b214c1a2590337dc36f7cc2fa00c7be915096792f6","blockNumber":"0x68ce0e9","chainId":"0xa","from":"0x051d68e5d15734626817b635060c25d65bff0415","gas":"0xaf42","gasPrice":"0xa9beda0","hash":"0x81c1ddcfdfa2432d0414a6b3f698fc768732caea517d9f2d532a532e46a9d41a","input":"0xd0e30db0","maxFeePerGas":"0xacda6fd","maxPriorityFeePerGas":"0x5f5e100","nonce":"0xd","r":"0x18f78791849d911435560c95306bbb43e69e0b7319538dc0b5d4a9b7e946ce99","s":"0x63e3ae5406f88f6b656938a17075fc95a3ad7de9e3e22553104207b98fada4a6","to":"0x4200000000000000000000000000000000000006","transactionIndex":"0x6","type":"0x2","v":"0x1","value":"0x4749084530f60","yParity":"0x1"},{"accessList":[],"blockHash":"0x35e662c20828eef0d34c37b214c1a2590337dc36f7cc2fa00c7be915096792f6","blockNumber":"0x68ce0e9","chainId":"0xa","from":"0xc65aa07a7134b08a558cbc29aba93cebdfb02a33","gas":"0x39c34","gasPrice":"0x4af161e","hash":"0xb622e811a8399258cb51e8caaed7586e9e24470aada53434bfc4322ac367e5a9","input":"0xb6c22d6b0000000000000000000000000000000000000000000000000000000000000080ea24e719d1166caeef31d0e94983fca5887a0a7e5bb548b1ab25021111b222c700000000000000000000000000000000000000000000000000000000000000e00000000000000000000000000000000000000000000000000000000000000000000000000000000000000000000000000000000000000000000000000000002463663430616238652d666137312d343265382d396562332d3536363563633438346638370000000000000000000000000000000000000000000000000000000000000000000000000000000000000000000000000000000000000000000000418e912fa2647e802dce71dc62f6d50cb12af0b67ebe0afa70fcf18ed641f633ba5fb5de1c1c69f3e2a1e96adcb4009783c5c1c102b9064a8f132b5344a320cd2f1c00000000000000000000000000000000000000000000000000000000000000","maxFeePerGas":"0xce3c5fb","maxPriorityFeePerGas":"0x9097e","nonce":"0x82f","r":"0x26d3a3931cc10dee52601bf0319617c7adec78dfdda6fb1cb8e98e59fa8c2986","s":"0x77696141a5dd96f64e3691c2b2d7a4a628354515579f03b6aaa0d12cfee612df","to":"0x52629961f71c1c2564c5aa22372cb1b9fa9eba3e","transactionIndex":"0x7","type":"0x2","v":"0x0","value":"0x44364c5bb000","yParity":"0x0"},{"accessList":[],"blockHash":"0x35e662c20828eef0d34c37b214c1a2590337dc36f7cc2fa00c7be915096792f6","blockNumber":"0x68ce0e9","chainId":"0xa","from":"0x78c13393aee675dd7ed07ce992210750d1f5db88","gas":"0x27c20","gasPrice":"0x4af161e","hash":"0xed7e13e4941bba33edbbd70c4f48c734629fd67fe4eac43ce1bed3ef8f3da7df","input":"0xb6b55f2500000000000000000000000000000000000000000000000000991419b46f364b","maxFeePerGas":"0xce3c5fb","maxPriorityFeePerGas":"0x9097e","nonce":"0x17","r":"0xd07bd8a068a0c3736295ca21be91de6508cdedbb46a45a7b1cbd474f80a82fff","s":"0x3f07e4a576705f8168f4bebc8bafbc2230fe3d27d44ba232eeb0321ac311e21f","to":"0xcc53cd0a8ec812d46f0e2c7cc5aadd869b6f0292","transactionIndex":"0x8","type":"0x2","v":"0x1","value":"0x0","yParity":"0x1"},{"accessList":[],"blockHash":"0x35e662c20828eef0d34c37b214c1a2590337dc36f7cc2fa00c7be915096792f6","blockNumber":"0x68ce0e9","chainId":"0xa","from":"0x5c32614b9d4237a06606e6969073c2d8644d1a79","gas":"0x1dcc7","gasPrice":"0x4af161e","hash":"0x2eb0ce562ea0174a050d1f6f9ff38a20e434895e2a843789dce9ba6f9f9b2c4a","input":"0xe2bbb158000000000000000000000000000000000000000000000000000000000000000000000000000000000000000000000000000000000000000000000000000f4240","maxFeePerGas":"0xc8e0c98","maxPriorityFeePerGas":"0x9097e","nonce":"0x32a","r":"0xdc8679a5487dd2c572be4ef5b3f4bc73ec7d6b1dec0c87f0d1d3721ae7af2455","s":"0x48bae8477ecf5505a1f1f8561542e252491a75045efd84ed9dee8758031e882b","to":"0x4dea9e918c6289a52cd469cac652727b7b412cd2","transactionIndex":"0x9","type":"0x2","v":"0x0","value":"0x0","yParity":"0x0"},{"accessList":[],"blockHash":"0x35e662c20828eef0d34c37b214c1a2590337dc36f7cc2fa00c7be915096792f6","blockNumber":"0x68ce0e9","chainId":"0xa","from":"0x19ddbbd343ff4c732fc138ca4a7b88ae64d37a27","gas":"0xc0e2","gasPrice":"0x4af161e","hash":"0x5a2110c2b72e24f7a36029a09b4d4d0ba5869c546bf997438899721d8671dd98","input":"0x095ea7b3000000000000000000000000a062ae8a9c5e11aaa026fc2670b0d65ccc8b28580000000000000000000000000000000000000000000000000000096eddd92831","maxFeePerGas":"0xc8e0c98","maxPriorityFeePerGas":"0x9097e","nonce":"0x68","r":"0x4e2f0f285647fa0346f6a93d6c666890f9d51842de4393e39b964f8f12114ed2","s":"0x4f5b75c4d27b1a63c97e1242ee4b10f01ece01a364bdfd329a91bbde258d024d","to":"0x6d5ba400640226e24b50214d2bbb3d4db8e6e15a","transactionIndex":"0xa","type":"0x2","v":"0x0","value":"0x0","yParity":"0x0"},{"accessList":[],"blockHash":"0x35e662c20828eef0d34c37b214c1a2590337dc36f7cc2fa00c7be915096792f6","blockNumber":"0x68ce0e9","chainId":"0xa","from":"0x8c66ac5284fec2676a2c79acc2c27e2a3df143d7","gas":"0xcf4b","gasPrice":"0x4af161e","hash":"0x0d2b543ec3e400ffd40370999810c1e0dade74203fde07f3f5d7d065889faab7","input":"0x095ea7b30000000000000000000000002c5dd041c8babe0c4aaa9617e334cb9f23df1673000000000000000000000000000000000000000000000000000000000ee6b280","maxFeePerGas":"0xce3c5fb","maxPriorityFeePerGas":"0x9097e","nonce":"0x33b","r":"0x4340721a3121df1e827599591632ca97c0d7d5a619fe269b930aede4383b051c","s":"0x4124281785ee1ebcd889d9513c3debf57fb415a9bf53d33a19c0d3d67b04753c","to":"0x7f5c764cbc14f9669b88837ca1490cca17c31607","transactionIndex":"0xb","type":"0x2","v":"0x1","value":"0x0","yParity":"0x1"}],"transactionsRoot":"0x1c004f69b338add74889beb72ad57aed0f4fa8b2c47e058cdec1c38c66847217","uncles":[]},"id":
        0}

        '
    headers:
      CF-RAY:
      - 9b28c2349f8bb03f-ATL
      Cache-Control:
      - max-age=0, private, must-revalidate
      Connection:
      - keep-alive
      Content-Type:
      - application/json; charset=utf-8
      Date:
      - Tue, 23 Dec 2025 15:05:42 GMT
      Nel:
      - '{"report_to":"cf-nel","success_fraction":0.0,"max_age":604800}'
      Report-To:
      - '{"group":"cf-nel","max_age":604800,"endpoints":[{"url":"https://a.nel.cloudflare.com/report/v4?s=6kMU92mmu7sVfsZn1l8ZlVBokaCdXpCLPUcT3ebyCOVk8BqZgukbaNCVmzOze6ijNz2lEVPO0nhuD8EQqrJTrrGfn9foO3pVrxi1rpo9HbaDr01h"}]}'
      Server:
      - cloudflare
      access-control-allow-credentials:
      - 'true'
      access-control-allow-origin:
      - '*'
      access-control-expose-headers:
      - bypass-429-option,x-ratelimit-reset,x-ratelimit-limit,x-ratelimit-remaining,api-v2-temp-token
      alt-svc:
      - h3=":443"; ma=86400
      bypass-429-option:
      - no_bypass
      cf-cache-status:
      - DYNAMIC
      content-length:
      - '14250'
      strict-transport-security:
      - max-age=31536000; includeSubDomains
      x-ratelimit-limit:
      - '600'
      x-ratelimit-remaining:
      - '597'
      x-ratelimit-reset:
      - '18081'
      x-request-id:
      - c8d2ccff433e25bbe08d8ec93fe07125
    status:
      code: 200
      message: OK
- request:
    body: '{"id": 0, "jsonrpc": "2.0", "method": "eth_getTransactionReceipt", "params":
      ["0xed7e13e4941bba33edbbd70c4f48c734629fd67fe4eac43ce1bed3ef8f3da7df"]}'
    headers:
      Accept:
      - '*/*'
      Accept-Encoding:
      - gzip, deflate
      Connection:
      - keep-alive
      Content-Length:
      - '148'
      Content-Type:
      - application/json
      User-Agent:
      - rotki/1.41.2.dev199+g0b4b699f8.d20251218
    method: POST
    uri: https://explorer.optimism.io/api/eth-rpc
  response:
    body:
      string: '{"jsonrpc":"2.0","result": {"blockHash":"0x35e662c20828eef0d34c37b214c1a2590337dc36f7cc2fa00c7be915096792f6","blockNumber":"0x68ce0e9","contractAddress":null,"cumulativeGasUsed":"0xec55c","effectiveGasPrice":"0x4af161e","from":"0x78c13393aee675dd7ed07ce992210750d1f5db88","gasUsed":"0x268b8","logs":[{"address":"0xd25711edfbf747efce181442cc1d8f5f8fc8a0d3","blockHash":"0x35e662c20828eef0d34c37b214c1a2590337dc36f7cc2fa00c7be915096792f6","blockNumber":"0x68ce0e9","data":"0x0000000000000000000000000000000000000000000000000000acb43741b88b","logIndex":"0xe","removed":false,"topics":["0x8c5be1e5ebec7d5bd14f71427d1e84f3dd0314c0f7b2291e5b200ac8c7c3b925","0x00000000000000000000000078c13393aee675dd7ed07ce992210750d1f5db88","0x000000000000000000000000cc53cd0a8ec812d46f0e2c7cc5aadd869b6f0292"],"transactionHash":"0xed7e13e4941bba33edbbd70c4f48c734629fd67fe4eac43ce1bed3ef8f3da7df","transactionIndex":"0x8"},{"address":"0xd25711edfbf747efce181442cc1d8f5f8fc8a0d3","blockHash":"0x35e662c20828eef0d34c37b214c1a2590337dc36f7cc2fa00c7be915096792f6","blockNumber":"0x68ce0e9","data":"0x00000000000000000000000000000000000000000000000000991419b46f364b","logIndex":"0xf","removed":false,"topics":["0xddf252ad1be2c89b69c2b068fc378daa952ba7f163c4a11628f55a4df523b3ef","0x00000000000000000000000078c13393aee675dd7ed07ce992210750d1f5db88","0x000000000000000000000000cc53cd0a8ec812d46f0e2c7cc5aadd869b6f0292"],"transactionHash":"0xed7e13e4941bba33edbbd70c4f48c734629fd67fe4eac43ce1bed3ef8f3da7df","transactionIndex":"0x8"},{"address":"0xcc53cd0a8ec812d46f0e2c7cc5aadd869b6f0292","blockHash":"0x35e662c20828eef0d34c37b214c1a2590337dc36f7cc2fa00c7be915096792f6","blockNumber":"0x68ce0e9","data":"0x00000000000000000000000000000000000000000000000000991419b46f364b","logIndex":"0x10","removed":false,"topics":["0x5548c837ab068cf56a2c2479df0882a4922fd203edb7517321831d95078c5f62","0x00000000000000000000000078c13393aee675dd7ed07ce992210750d1f5db88","0x00000000000000000000000078c13393aee675dd7ed07ce992210750d1f5db88"],"transactionHash":"0xed7e13e4941bba33edbbd70c4f48c734629fd67fe4eac43ce1bed3ef8f3da7df","transactionIndex":"0x8"}],"logsBloom":"0x00000000000000000000008000000000000000000000000000000000000000000000800000000000000000810000000000000000000002000000000040200000000000200008000000000008000000000000000000000008000000000000000000000000080000000000000000000000000000040000000000000010000000040080000000000000000000000000000000000000000000000000000020000000020000000000000000000000000000000000000000000000000000000000000000000002000000000000000000000000000000000000000000000000000000002010000000000000000000000000000000000000000000000000000000000000","status":"0x1","to":"0xcc53cd0a8ec812d46f0e2c7cc5aadd869b6f0292","transactionHash":"0xed7e13e4941bba33edbbd70c4f48c734629fd67fe4eac43ce1bed3ef8f3da7df","transactionIndex":"0x8","type":"0x2"},"id":
        0}

        '
    headers:
      CF-RAY:
      - 9b28c23789a753bb-ATL
      Cache-Control:
      - max-age=0, private, must-revalidate
      Connection:
      - keep-alive
      Content-Type:
      - application/json; charset=utf-8
      Date:
      - Tue, 23 Dec 2025 15:05:42 GMT
      Nel:
      - '{"report_to":"cf-nel","success_fraction":0.0,"max_age":604800}'
      Report-To:
      - '{"group":"cf-nel","max_age":604800,"endpoints":[{"url":"https://a.nel.cloudflare.com/report/v4?s=GoUF%2Bvz0V%2B7TGJc4ig3K4Ox3KT52aLlXxZxLbmeFPxuW15EbMO0nMzuxHN0GhvQhCG8%2B9yVd3Rgdo276qv0Rp9ir1swbueceY4oKu4Gi0roHb%2FS8"}]}'
      Server:
      - cloudflare
      access-control-allow-credentials:
      - 'true'
      access-control-allow-origin:
      - '*'
      access-control-expose-headers:
      - bypass-429-option,x-ratelimit-reset,x-ratelimit-limit,x-ratelimit-remaining,api-v2-temp-token
      alt-svc:
      - h3=":443"; ma=86400
      bypass-429-option:
      - no_bypass
      cf-cache-status:
      - DYNAMIC
      content-length:
      - '2840'
      strict-transport-security:
      - max-age=31536000; includeSubDomains
      x-ratelimit-limit:
      - '600'
      x-ratelimit-remaining:
      - '596'
      x-ratelimit-reset:
      - '17621'
      x-request-id:
      - 6b972a970170e1fab586f891f0db40b3
    status:
      code: 200
      message: OK
- request:
    body: null
    headers:
      Accept:
      - '*/*'
      Accept-Encoding:
      - gzip, deflate
      Connection:
      - keep-alive
      User-Agent:
      - rotki/1.41.2.dev199+g0b4b699f8.d20251218
    method: GET
    uri: https://explorer.optimism.io/api?action=txlistinternal&module=account&sort=asc&txhash=0xed7e13e4941bba33edbbd70c4f48c734629fd67fe4eac43ce1bed3ef8f3da7df
  response:
    body:
      string: '{"message":"No internal transactions found","result":[],"status":"0"}'
    headers:
      CF-RAY:
      - 9b28c2393f80bd03-ATL
      Cache-Control:
      - max-age=0, private, must-revalidate
      Connection:
      - keep-alive
      Content-Type:
      - application/json; charset=utf-8
      Date:
      - Tue, 23 Dec 2025 15:05:43 GMT
      Nel:
      - '{"report_to":"cf-nel","success_fraction":0.0,"max_age":604800}'
      Report-To:
      - '{"group":"cf-nel","max_age":604800,"endpoints":[{"url":"https://a.nel.cloudflare.com/report/v4?s=76dz3t28cRiRTGIaZOaEspr31DuFUdoJhLT6CRtmTQl5NhjbVmXlz1ssXrB44Tpvv%2B7MB2%2BT8oEfq%2FJ%2BPLPhcxwral0lpgV5v%2FUVZu8YN2z1iPBn"}]}'
      Server:
      - cloudflare
      access-control-allow-credentials:
      - 'true'
      access-control-allow-origin:
      - '*'
      access-control-expose-headers:
      - bypass-429-option,x-ratelimit-reset,x-ratelimit-limit,x-ratelimit-remaining,api-v2-temp-token
      alt-svc:
      - h3=":443"; ma=86400
      bypass-429-option:
      - no_bypass
      cf-cache-status:
      - DYNAMIC
      content-length:
      - '69'
      strict-transport-security:
      - max-age=31536000; includeSubDomains
      x-ratelimit-limit:
      - '600'
      x-ratelimit-remaining:
      - '595'
      x-ratelimit-reset:
      - '17068'
      x-request-id:
      - fe83bc242da2a8b7e22918d0340db30f
    status:
      code: 200
      message: OK
- request:
    body: '{"id": 0, "jsonrpc": "2.0", "method": "eth_call", "params": ["0x2DC0E2aa608532Da689e89e237dF582B783E552C",
      "0xbce38bd7000000000000000000000000000000000000000000000000000000000000000000000000000000000000000000000000000000000000000000000000000000400000000000000000000000000000000000000000000000000000000000000003000000000000000000000000000000000000000000000000000000000000006000000000000000000000000000000000000000000000000000000000000000e00000000000000000000000000000000000000000000000000000000000000160000000000000000000000000d25711edfbf747efce181442cc1d8f5f8fc8a0d300000000000000000000000000000000000000000000000000000000000000400000000000000000000000000000000000000000000000000000000000000004313ce56700000000000000000000000000000000000000000000000000000000000000000000000000000000d25711edfbf747efce181442cc1d8f5f8fc8a0d30000000000000000000000000000000000000000000000000000000000000040000000000000000000000000000000000000000000000000000000000000000495d89b4100000000000000000000000000000000000000000000000000000000000000000000000000000000d25711edfbf747efce181442cc1d8f5f8fc8a0d30000000000000000000000000000000000000000000000000000000000000040000000000000000000000000000000000000000000000000000000000000000406fdde0300000000000000000000000000000000000000000000000000000000"]}'
    headers:
      Accept:
      - '*/*'
      Accept-Encoding:
      - gzip, deflate
      Connection:
      - keep-alive
      Content-Length:
      - '1273'
      Content-Type:
      - application/json
      User-Agent:
      - rotki/1.41.2.dev199+g0b4b699f8.d20251218
    method: POST
    uri: https://explorer.optimism.io/api/eth-rpc
  response:
    body:
      string: '{"jsonrpc":"2.0","error": "Missed `to` address","id": 0}

        '
    headers:
      CF-RAY:
      - 9b28c23eab76b241-ATL
      Cache-Control:
      - max-age=0, private, must-revalidate
      Connection:
      - keep-alive
      Content-Type:
      - application/json; charset=utf-8
      Date:
      - Tue, 23 Dec 2025 15:05:43 GMT
      Nel:
      - '{"report_to":"cf-nel","success_fraction":0.0,"max_age":604800}'
      Report-To:
      - '{"group":"cf-nel","max_age":604800,"endpoints":[{"url":"https://a.nel.cloudflare.com/report/v4?s=36HdShB%2FeSzkmkVXfVMcNLXx1DG94R8fU7hQnv9Gz3rZH00A%2Fel0muIOI9LXNPI7hOhN30wuxZvUvh%2F4br5SIdgwJQ6yOV2xrIoSAWgC69HAXiEQ"}]}'
      Server:
      - cloudflare
      access-control-allow-credentials:
      - 'true'
      access-control-allow-origin:
      - '*'
      access-control-expose-headers:
      - bypass-429-option,x-ratelimit-reset,x-ratelimit-limit,x-ratelimit-remaining,api-v2-temp-token
      alt-svc:
      - h3=":443"; ma=86400
      bypass-429-option:
      - no_bypass
      cf-cache-status:
      - DYNAMIC
      content-length:
      - '57'
      strict-transport-security:
      - max-age=31536000; includeSubDomains
      x-ratelimit-limit:
      - '600'
      x-ratelimit-remaining:
      - '594'
      x-ratelimit-reset:
      - '16222'
      x-request-id:
      - adb75d0de7f114000bc909c948d300c8
    status:
      code: 200
      message: OK
- request:
    body: null
    headers:
      Accept:
      - '*/*'
      Accept-Encoding:
      - gzip, deflate
      Connection:
      - keep-alive
      User-Agent:
      - rotki/1.41.2.dev199+g0b4b699f8.d20251218
    method: GET
    uri: https://api.etherscan.io/v2/api?action=eth_call&chainid=10&data=0xbce38bd7000000000000000000000000000000000000000000000000000000000000000000000000000000000000000000000000000000000000000000000000000000400000000000000000000000000000000000000000000000000000000000000003000000000000000000000000000000000000000000000000000000000000006000000000000000000000000000000000000000000000000000000000000000e00000000000000000000000000000000000000000000000000000000000000160000000000000000000000000d25711edfbf747efce181442cc1d8f5f8fc8a0d300000000000000000000000000000000000000000000000000000000000000400000000000000000000000000000000000000000000000000000000000000004313ce56700000000000000000000000000000000000000000000000000000000000000000000000000000000d25711edfbf747efce181442cc1d8f5f8fc8a0d30000000000000000000000000000000000000000000000000000000000000040000000000000000000000000000000000000000000000000000000000000000495d89b4100000000000000000000000000000000000000000000000000000000000000000000000000000000d25711edfbf747efce181442cc1d8f5f8fc8a0d30000000000000000000000000000000000000000000000000000000000000040000000000000000000000000000000000000000000000000000000000000000406fdde0300000000000000000000000000000000000000000000000000000000&module=proxy&to=0x2DC0E2aa608532Da689e89e237dF582B783E552C
  response:
    body:
      string: '{"status":"0","message":"NOTOK","result":"Free API access is not supported
        for this chain. Please upgrade your api plan for full chain coverage. https://etherscan.io/apis"}'
    headers:
      Access-Control-Allow-Headers:
      - Content-Type
      Access-Control-Allow-Methods:
      - GET, POST, OPTIONS
      Access-Control-Allow-Origin:
      - '*'
      Cache-Control:
      - private
      Connection:
      - keep-alive
      Content-Type:
      - application/json; charset=utf-8
      Date:
      - Tue, 23 Dec 2025 15:05:44 GMT
      Server:
      - nginx
      Vary:
      - Accept-Encoding
      X-Frame-Options:
      - SAMEORIGIN
      X-Nginx-Id:
      - '4'
      content-length:
      - '172'
      svid:
      - op1
    status:
      code: 200
      message: OK
- request:
    body: null
    headers:
      Accept:
      - '*/*'
      Accept-Encoding:
      - gzip, deflate
      Connection:
      - keep-alive
      User-Agent:
      - rotki/1.41.2.dev199+g0b4b699f8.d20251218
    method: GET
    uri: https://api.routescan.io/v2/network/mainnet/evm/10/etherscan/api?action=eth_call&data=0xbce38bd7000000000000000000000000000000000000000000000000000000000000000000000000000000000000000000000000000000000000000000000000000000400000000000000000000000000000000000000000000000000000000000000003000000000000000000000000000000000000000000000000000000000000006000000000000000000000000000000000000000000000000000000000000000e00000000000000000000000000000000000000000000000000000000000000160000000000000000000000000d25711edfbf747efce181442cc1d8f5f8fc8a0d300000000000000000000000000000000000000000000000000000000000000400000000000000000000000000000000000000000000000000000000000000004313ce56700000000000000000000000000000000000000000000000000000000000000000000000000000000d25711edfbf747efce181442cc1d8f5f8fc8a0d30000000000000000000000000000000000000000000000000000000000000040000000000000000000000000000000000000000000000000000000000000000495d89b4100000000000000000000000000000000000000000000000000000000000000000000000000000000d25711edfbf747efce181442cc1d8f5f8fc8a0d30000000000000000000000000000000000000000000000000000000000000040000000000000000000000000000000000000000000000000000000000000000406fdde0300000000000000000000000000000000000000000000000000000000&module=proxy&to=0x2DC0E2aa608532Da689e89e237dF582B783E552C
  response:
    body:
      string: '{"jsonrpc":"2.0","id":1,"result":"0x00000000000000000000000000000000000000000000000000000000000000200000000000000000000000000000000000000000000000000000000000000003000000000000000000000000000000000000000000000000000000000000006000000000000000000000000000000000000000000000000000000000000000e000000000000000000000000000000000000000000000000000000000000001a000000000000000000000000000000000000000000000000000000000000000010000000000000000000000000000000000000000000000000000000000000040000000000000000000000000000000000000000000000000000000000000002000000000000000000000000000000000000000000000000000000000000000120000000000000000000000000000000000000000000000000000000000000001000000000000000000000000000000000000000000000000000000000000004000000000000000000000000000000000000000000000000000000000000000600000000000000000000000000000000000000000000000000000000000000020000000000000000000000000000000000000000000000000000000000000000e76414d4d56322d574554482f4f5000000000000000000000000000000000000000000000000000000000000000000000000000000000000000000000000000010000000000000000000000000000000000000000000000000000000000000040000000000000000000000000000000000000000000000000000000000000006000000000000000000000000000000000000000000000000000000000000000200000000000000000000000000000000000000000000000000000000000000018566f6c6174696c65563220414d4d202d20574554482f4f500000000000000000"}'
    headers:
      Alt-Svc:
      - h3=":443"; ma=86400
      Connection:
      - keep-alive
      Content-Type:
      - application/json; charset=utf-8
      Date:
      - Tue, 23 Dec 2025 15:05:44 GMT
      Vary:
      - accept-encoding
      Via:
      - 1.1 d09af64167b97726fedaa78bbda3f20a.cloudfront.net (CloudFront)
      X-Amz-Cf-Id:
      - YOKctsJpExRHjS-LIE9d7ljYsMr2KySPzr0Hd7cbjklenb80pSmxhQ==
      X-Amz-Cf-Pop:
      - ORD58-P10
      X-Cache:
      - Miss from cloudfront
      access-control-allow-origin:
      - '*'
      content-length:
      - '1382'
      x-ratelimit-rpd-limit:
      - '100000'
      x-ratelimit-rpd-remaining:
      - '99927'
      x-ratelimit-rpd-reset:
      - '2077'
      x-ratelimit-rpm-limit:
      - '300'
      x-ratelimit-rpm-remaining:
      - '299'
      x-ratelimit-rpm-reset:
      - '60'
    status:
      code: 200
      message: OK
- request:
    body: '{"id": 0, "jsonrpc": "2.0", "method": "eth_call", "params": ["0x54eCF3f6f61F63fdFE7c27Ee8A86e54899600C92",
      "0xee1806d20000000000000000000000000000000000000000000000000000000000000020000000000000000000000000000000000000000000000000000000000000000100000000000000000000000078c13393aee675dd7ed07ce992210750d1f5db88"]}'
    headers:
      Accept:
      - '*/*'
      Accept-Encoding:
      - gzip, deflate
      Connection:
      - keep-alive
      Content-Length:
      - '313'
      Content-Type:
      - application/json
      User-Agent:
      - rotki/1.41.2.dev199+g0b4b699f8.d20251218
    method: POST
    uri: https://explorer.optimism.io/api/eth-rpc
  response:
    body:
      string: '{"jsonrpc":"2.0","error": "Missed `to` address","id": 0}

        '
    headers:
      CF-RAY:
      - 9b28c244ff1df41d-ATL
      Cache-Control:
      - max-age=0, private, must-revalidate
      Connection:
      - keep-alive
      Content-Type:
      - application/json; charset=utf-8
      Date:
      - Tue, 23 Dec 2025 15:05:44 GMT
      Nel:
      - '{"report_to":"cf-nel","success_fraction":0.0,"max_age":604800}'
      Report-To:
      - '{"group":"cf-nel","max_age":604800,"endpoints":[{"url":"https://a.nel.cloudflare.com/report/v4?s=tXgdprvSbxNMnZRtbYxsUSjmtpvZ8FcagLsk5b%2BUMdPSCWLUisGl%2FGjwrWoBbI%2BUDmM9JKjHEc%2FGs5osmgxjnmETrhxLvjctVjDEqEL8CpKYMg%3D%3D"}]}'
      Server:
      - cloudflare
      access-control-allow-credentials:
      - 'true'
      access-control-allow-origin:
      - '*'
      access-control-expose-headers:
      - bypass-429-option,x-ratelimit-reset,x-ratelimit-limit,x-ratelimit-remaining,api-v2-temp-token
      alt-svc:
      - h3=":443"; ma=86400
      bypass-429-option:
      - no_bypass
      cf-cache-status:
      - DYNAMIC
      content-length:
      - '57'
      strict-transport-security:
      - max-age=31536000; includeSubDomains
      x-ratelimit-limit:
      - '600'
      x-ratelimit-remaining:
      - '592'
      x-ratelimit-reset:
      - '15191'
      x-request-id:
      - ef735f69c50041c55decb3dca7312283
    status:
      code: 200
      message: OK
- request:
    body: null
    headers:
      Accept:
      - '*/*'
      Accept-Encoding:
      - gzip, deflate
      Connection:
      - keep-alive
      User-Agent:
      - rotki/1.41.2.dev199+g0b4b699f8.d20251218
    method: GET
    uri: https://api.routescan.io/v2/network/mainnet/evm/10/etherscan/api?action=eth_call&data=0xee1806d20000000000000000000000000000000000000000000000000000000000000020000000000000000000000000000000000000000000000000000000000000000100000000000000000000000078c13393aee675dd7ed07ce992210750d1f5db88&module=proxy&to=0x54eCF3f6f61F63fdFE7c27Ee8A86e54899600C92
  response:
    body:
      string: '{"jsonrpc":"2.0","id":1,"result":"0x0000000000000000000000000000000000000000000000000000000000000020000000000000000000000000000000000000000000000000000000000000000100000000000000000000000000000000000000000000000000000494880a6d99"}'
    headers:
      Alt-Svc:
      - h3=":443"; ma=86400
      Connection:
      - keep-alive
      Content-Length:
      - '230'
      Content-Type:
      - application/json; charset=utf-8
      Date:
      - Tue, 23 Dec 2025 15:05:45 GMT
      Via:
      - 1.1 6eb1ef8dae64848e6a3aaafe9f5944b6.cloudfront.net (CloudFront)
      X-Amz-Cf-Id:
      - eoT4jV-sEP-TdmJlILF2FEUp3-LdwKyv4AxVI-pvg-rK6Ydg6dmWbw==
      X-Amz-Cf-Pop:
      - ORD58-P10
      X-Cache:
      - Miss from cloudfront
      access-control-allow-origin:
      - '*'
      x-ratelimit-rpd-limit:
      - '100000'
      x-ratelimit-rpd-remaining:
      - '99926'
      x-ratelimit-rpd-reset:
      - '2076'
      x-ratelimit-rpm-limit:
      - '300'
      x-ratelimit-rpm-remaining:
      - '298'
      x-ratelimit-rpm-reset:
      - '60'
    status:
      code: 200
      message: OK
- request:
    body: '{"id": 0, "jsonrpc": "2.0", "method": "eth_call", "params": ["0x2DC0E2aa608532Da689e89e237dF582B783E552C",
      "0x252dba4200000000000000000000000000000000000000000000000000000000000000200000000000000000000000000000000000000000000000000000000000000001000000000000000000000000000000000000000000000000000000000000002000000000000000000000000054ecf3f6f61f63fdfe7c27ee8a86e54899600c9200000000000000000000000000000000000000000000000000000000000000400000000000000000000000000000000000000000000000000000000000000084b0d861b800000000000000000000000078c13393aee675dd7ed07ce992210750d1f5db8800000000000000000000000000000000000000000000000000000000000000400000000000000000000000000000000000000000000000000000000000000001000000000000000000000000d25711edfbf747efce181442cc1d8f5f8fc8a0d300000000000000000000000000000000000000000000000000000000"]}'
    headers:
      Accept:
      - '*/*'
      Accept-Encoding:
      - gzip, deflate
      Connection:
      - keep-alive
      Content-Length:
      - '825'
      Content-Type:
      - application/json
      User-Agent:
      - rotki/1.41.2.dev199+g0b4b699f8.d20251218
    method: POST
    uri: https://explorer.optimism.io/api/eth-rpc
  response:
    body:
      string: '{"jsonrpc":"2.0","error": "Missed `to` address","id": 0}

        '
    headers:
      CF-RAY:
      - 9b28c24a2cbb5f9b-ATL
      Cache-Control:
      - max-age=0, private, must-revalidate
      Connection:
      - keep-alive
      Content-Type:
      - application/json; charset=utf-8
      Date:
      - Tue, 23 Dec 2025 15:05:45 GMT
      Nel:
      - '{"report_to":"cf-nel","success_fraction":0.0,"max_age":604800}'
      Report-To:
      - '{"group":"cf-nel","max_age":604800,"endpoints":[{"url":"https://a.nel.cloudflare.com/report/v4?s=sYrP5DgqJzUyH3z425bbtNZreIinFSZY9XAoI4HX7T0hSTnYo2nb0og3DcMHHPwgrjZ5WlnRzvuhHHCAaeF3qfTuC7l7OvwOph9LZlDMJrhq%2Ff7g"}]}'
      Server:
      - cloudflare
      access-control-allow-credentials:
      - 'true'
      access-control-allow-origin:
      - '*'
      access-control-expose-headers:
      - bypass-429-option,x-ratelimit-reset,x-ratelimit-limit,x-ratelimit-remaining,api-v2-temp-token
      alt-svc:
      - h3=":443"; ma=86400
      bypass-429-option:
      - no_bypass
      cf-cache-status:
      - DYNAMIC
      content-length:
      - '57'
      strict-transport-security:
      - max-age=31536000; includeSubDomains
      x-ratelimit-limit:
      - '600'
      x-ratelimit-remaining:
      - '591'
      x-ratelimit-reset:
      - '14647'
      x-request-id:
      - fa6009f61858c41f53dc85cd003d1631
    status:
      code: 200
      message: OK
- request:
    body: null
    headers:
      Accept:
      - '*/*'
      Accept-Encoding:
      - gzip, deflate
      Connection:
      - keep-alive
      User-Agent:
      - rotki/1.41.2.dev199+g0b4b699f8.d20251218
    method: GET
    uri: https://api.routescan.io/v2/network/mainnet/evm/10/etherscan/api?action=eth_call&data=0x252dba4200000000000000000000000000000000000000000000000000000000000000200000000000000000000000000000000000000000000000000000000000000001000000000000000000000000000000000000000000000000000000000000002000000000000000000000000054ecf3f6f61f63fdfe7c27ee8a86e54899600c9200000000000000000000000000000000000000000000000000000000000000400000000000000000000000000000000000000000000000000000000000000084b0d861b800000000000000000000000078c13393aee675dd7ed07ce992210750d1f5db8800000000000000000000000000000000000000000000000000000000000000400000000000000000000000000000000000000000000000000000000000000001000000000000000000000000d25711edfbf747efce181442cc1d8f5f8fc8a0d300000000000000000000000000000000000000000000000000000000&module=proxy&to=0x2DC0E2aa608532Da689e89e237dF582B783E552C
  response:
    body:
      string: '{"jsonrpc":"2.0","id":1,"result":"0x0000000000000000000000000000000000000000000000000000000008ab6b07000000000000000000000000000000000000000000000000000000000000004000000000000000000000000000000000000000000000000000000000000000010000000000000000000000000000000000000000000000000000000000000020000000000000000000000000000000000000000000000000000000000000006000000000000000000000000000000000000000000000000000000000000000200000000000000000000000000000000000000000000000000000000000000001000000000000000000000000000000000000000000000000009991b40b2aa53a"}'
    headers:
      Alt-Svc:
      - h3=":443"; ma=86400
      Connection:
      - keep-alive
      Content-Length:
      - '550'
      Content-Type:
      - application/json; charset=utf-8
      Date:
      - Tue, 23 Dec 2025 15:05:45 GMT
      Via:
      - 1.1 d09af64167b97726fedaa78bbda3f20a.cloudfront.net (CloudFront)
      X-Amz-Cf-Id:
      - ZbRlJtarbcl8yAhFrXxJMJshFLYJH48MaL2BEcfWRg5kR6VYbMMuEQ==
      X-Amz-Cf-Pop:
      - ORD58-P10
      X-Cache:
      - Miss from cloudfront
      access-control-allow-origin:
      - '*'
      x-ratelimit-rpd-limit:
      - '100000'
      x-ratelimit-rpd-remaining:
      - '99925'
      x-ratelimit-rpd-reset:
      - '2075'
      x-ratelimit-rpm-limit:
      - '300'
      x-ratelimit-rpm-remaining:
      - '297'
      x-ratelimit-rpm-reset:
      - '59'
    status:
      code: 200
      message: OK
- request:
    body: '{"id": 0, "jsonrpc": "2.0", "method": "eth_call", "params": ["0x54eCF3f6f61F63fdFE7c27Ee8A86e54899600C92",
      "0xb0d861b800000000000000000000000078c13393aee675dd7ed07ce992210750d1f5db8800000000000000000000000000000000000000000000000000000000000000400000000000000000000000000000000000000000000000000000000000000001000000000000000000000000cc53cd0a8ec812d46f0e2c7cc5aadd869b6f0292"]}'
    headers:
      Accept:
      - '*/*'
      Accept-Encoding:
      - gzip, deflate
      Connection:
      - keep-alive
      Content-Length:
      - '377'
      Content-Type:
      - application/json
      User-Agent:
      - rotki/1.41.2.dev199+g0b4b699f8.d20251218
    method: POST
    uri: https://explorer.optimism.io/api/eth-rpc
  response:
    body:
      string: '{"jsonrpc":"2.0","error": "Missed `to` address","id": 0}

        '
    headers:
      CF-RAY:
      - 9b28c24efe2712db-ATL
      Cache-Control:
      - max-age=0, private, must-revalidate
      Connection:
      - keep-alive
      Content-Type:
      - application/json; charset=utf-8
      Date:
      - Tue, 23 Dec 2025 15:05:46 GMT
      Nel:
      - '{"report_to":"cf-nel","success_fraction":0.0,"max_age":604800}'
      Report-To:
      - '{"group":"cf-nel","max_age":604800,"endpoints":[{"url":"https://a.nel.cloudflare.com/report/v4?s=d7fC%2BqJMHMfx3GR7bxx%2Frr6sp80R1pOryKurixy6asVTdagGz3KlRCgbYYrULPPtFQ9fj3aLhky32VeveyzPEKGg4O6dQka%2F6QskOnPI8AuJdQ%3D%3D"}]}'
      Server:
      - cloudflare
      access-control-allow-credentials:
      - 'true'
      access-control-allow-origin:
      - '*'
      access-control-expose-headers:
      - bypass-429-option,x-ratelimit-reset,x-ratelimit-limit,x-ratelimit-remaining,api-v2-temp-token
      alt-svc:
      - h3=":443"; ma=86400
      bypass-429-option:
      - no_bypass
      cf-cache-status:
      - DYNAMIC
      content-length:
      - '57'
      strict-transport-security:
      - max-age=31536000; includeSubDomains
      x-ratelimit-limit:
      - '600'
      x-ratelimit-remaining:
      - '590'
      x-ratelimit-reset:
      - '13870'
      x-request-id:
      - 5378deadf108bfb0ac8b36b1604d08ea
    status:
      code: 200
      message: OK
- request:
    body: null
    headers:
      Accept:
      - '*/*'
      Accept-Encoding:
      - gzip, deflate
      Connection:
      - keep-alive
      User-Agent:
      - rotki/1.41.2.dev199+g0b4b699f8.d20251218
    method: GET
    uri: https://api.routescan.io/v2/network/mainnet/evm/10/etherscan/api?action=eth_call&data=0xb0d861b800000000000000000000000078c13393aee675dd7ed07ce992210750d1f5db8800000000000000000000000000000000000000000000000000000000000000400000000000000000000000000000000000000000000000000000000000000001000000000000000000000000cc53cd0a8ec812d46f0e2c7cc5aadd869b6f0292&module=proxy&to=0x54eCF3f6f61F63fdFE7c27Ee8A86e54899600C92
  response:
    body:
      string: '{"jsonrpc":"2.0","id":1,"result":"0x0000000000000000000000000000000000000000000000000000000000000020000000000000000000000000000000000000000000000000000000000000000100000000000000000000000000000000000000000000000000991419b46f364b"}'
    headers:
      Alt-Svc:
      - h3=":443"; ma=86400
      Connection:
      - keep-alive
      Content-Length:
      - '230'
      Content-Type:
      - application/json; charset=utf-8
      Date:
      - Tue, 23 Dec 2025 15:05:46 GMT
      Via:
      - 1.1 6eb1ef8dae64848e6a3aaafe9f5944b6.cloudfront.net (CloudFront)
      X-Amz-Cf-Id:
      - 9mdScr2x72YixaaOXUnIk1g2NdBJyIYWkPStcumu42ySCAvlYNEtCw==
      X-Amz-Cf-Pop:
      - ORD58-P10
      X-Cache:
      - Miss from cloudfront
      access-control-allow-origin:
      - '*'
      x-ratelimit-rpd-limit:
      - '100000'
      x-ratelimit-rpd-remaining:
      - '99924'
      x-ratelimit-rpd-reset:
      - '2075'
      x-ratelimit-rpm-limit:
      - '300'
      x-ratelimit-rpm-remaining:
      - '296'
      x-ratelimit-rpm-reset:
      - '58'
    status:
      code: 200
      message: OK
- request:
    body: null
    headers:
      Accept:
      - '*/*'
      Accept-Encoding:
      - gzip, deflate
      Connection:
      - keep-alive
      User-Agent:
      - rotki/1.41.2.dev199+g0b4b699f8.d20251218
    method: GET
    uri: https://explorer.optimism.io/api/v2/transactions/0xed7e13e4941bba33edbbd70c4f48c734629fd67fe4eac43ce1bed3ef8f3da7df
  response:
    body:
      string: '{"l1_gas_used":"2208","priority_fee":"93505061520","raw_input":"0xb6b55f2500000000000000000000000000000000000000000000000000991419b46f364b","is_pending_update":false,"op_withdrawals":[],"result":"success","hash":"0xed7e13e4941bba33edbbd70c4f48c734629fd67fe4eac43ce1bed3ef8f3da7df","max_fee_per_gas":"216253947","revert_reason":null,"confirmation_duration":[0,2.0e3],"transaction_burnt_fee":"12313230447360","type":2,"token_transfers_overflow":false,"confirmations":36162752,"position":8,"max_priority_fee_per_gas":"592254","transaction_tag":null,"created_contract":null,"value":"0","l1_fee_scalar":"0.684","from":{"ens_domain_name":null,"hash":"0x78C13393Aee675DD7ED07ce992210750D1F5dB88","implementations":[],"is_contract":false,"is_scam":false,"is_verified":false,"metadata":null,"name":null,"private_tags":[],"proxy_type":null,"public_tags":[],"reputation":"ok","watchlist_names":[]},"gas_used":"157880","status":"ok","to":{"ens_domain_name":null,"hash":"0xCC53CD0a8EC812D46F0E2c7CC5AADd869b6F0292","implementations":[],"is_contract":true,"is_scam":false,"is_verified":true,"metadata":{"tags":[{"meta":{"bgColor":"linear-gradient(to
        right,rgba(96, 165, 250, 0.2),rgba(168, 85, 247, 0.2),rgba(236, 72, 153, 0.2));","tooltipDescription":"Provided
        by OLI"},"name":"Gauge","ordinal":0,"slug":"gauge","tagType":"name"}]},"name":"Gauge","private_tags":[],"proxy_type":null,"public_tags":[],"reputation":"ok","watchlist_names":[]},"authorization_list":[],"l1_fee":"16116980099832","method":"deposit","fee":{"type":"actual","value":"28523715608712"},"actions":[],"gas_limit":"162848","gas_price":"78583326","decoded_input":{"method_call":"deposit(uint256
        _amount)","method_id":"b6b55f25","parameters":[{"name":"_amount","type":"uint256","value":"43087772070655563"}]},"l1_gas_price":"10671574458","token_transfers":[{"block_hash":"0x35e662c20828eef0d34c37b214c1a2590337dc36f7cc2fa00c7be915096792f6","block_number":109895913,"from":{"ens_domain_name":null,"hash":"0x78C13393Aee675DD7ED07ce992210750D1F5dB88","implementations":[],"is_contract":false,"is_scam":false,"is_verified":false,"metadata":null,"name":null,"private_tags":[],"proxy_type":null,"public_tags":[],"reputation":"ok","watchlist_names":[]},"log_index":15,"method":null,"timestamp":null,"to":{"ens_domain_name":null,"hash":"0xCC53CD0a8EC812D46F0E2c7CC5AADd869b6F0292","implementations":[],"is_contract":true,"is_scam":false,"is_verified":true,"metadata":{"tags":[{"meta":{"bgColor":"linear-gradient(to
        right,rgba(96, 165, 250, 0.2),rgba(168, 85, 247, 0.2),rgba(236, 72, 153, 0.2));","tooltipDescription":"Provided
        by OLI"},"name":"Gauge","ordinal":0,"slug":"gauge","tagType":"name"}]},"name":"Gauge","private_tags":[],"proxy_type":null,"public_tags":[],"reputation":"ok","watchlist_names":[]},"token":{"address_hash":"0xd25711EdfBf747efCE181442Cc1D8F5F8fc8a0D3","circulating_market_cap":null,"decimals":"18","exchange_rate":null,"holders_count":"423","icon_url":null,"name":"VolatileV2
        AMM - WETH/OP","reputation":"ok","symbol":"vAMMV2-WETH/OP","total_supply":"10600358348651683315140","type":"ERC-20","volume_24h":null},"token_type":"ERC-20","total":{"decimals":"18","value":"43087772070655563"},"transaction_hash":"0xed7e13e4941bba33edbbd70c4f48c734629fd67fe4eac43ce1bed3ef8f3da7df","type":"token_transfer"}],"base_fee_per_gas":"77991072","timestamp":"2023-09-22T13:50:03.000000Z","nonce":23,"historic_exchange_rate":"1585.5","transaction_types":["contract_call","token_transfer"],"exchange_rate":"3271.68","block_number":109895913,"has_error_in_internal_transactions":false}'
    headers:
      CF-RAY:
      - 9b9c83258ed4cba1-ATL
      Cache-Control:
      - max-age=0, private, must-revalidate
      Connection:
      - keep-alive
      Content-Type:
      - application/json; charset=utf-8
      Date:
      - Tue, 06 Jan 2026 16:15:07 GMT
      Nel:
      - '{"report_to":"cf-nel","success_fraction":0.0,"max_age":604800}'
      Report-To:
      - '{"group":"cf-nel","max_age":604800,"endpoints":[{"url":"https://a.nel.cloudflare.com/report/v4?s=JnvFOWdLatqFEzvDs0bsT%2BwJcaTPM9Q%2BeFBDsEyzbpI50%2BcOLXr6MaaQ7QvAv6VzlPCalWDZU2tUT5uCxrlh3Q9dS%2FK%2F9Md2lUH9WcwApkDUOmXR"}]}'
      Server:
      - cloudflare
      Transfer-Encoding:
      - chunked
      access-control-allow-credentials:
      - 'true'
      access-control-allow-origin:
      - '*'
      access-control-expose-headers:
      - bypass-429-option,x-ratelimit-reset,x-ratelimit-limit,x-ratelimit-remaining,api-v2-temp-token
      alt-svc:
      - h3=":443"; ma=86400
      bypass-429-option:
      - temporary_token
      cf-cache-status:
      - DYNAMIC
      content-length:
      - '3536'
      strict-transport-security:
      - max-age=31536000; includeSubDomains
      x-ratelimit-limit:
      - '600'
      x-ratelimit-remaining:
      - '599'
      x-ratelimit-reset:
      - '52799'
      x-request-id:
      - 3a753c181f69b0f3f262d23cf4de0c43
    status:
      code: 200
      message: OK
version: 1
