interactions:
- request:
    body: '{"id": 0, "jsonrpc": "2.0", "method": "eth_getTransactionByHash", "params":
      ["0xdc3f8c5bc84bf3e2e57e408d6605fc441d2d5773398c902ba8d8a48f624d1e18"]}'
    headers:
      Accept:
      - '*/*'
      Accept-Encoding:
      - gzip, deflate
      Connection:
      - keep-alive
      Content-Length:
      - '147'
      Content-Type:
      - application/json
      User-Agent:
      - rotki/1.41.2.dev927+ge84fe3f5bf.d20260221
    method: POST
    uri: https://explorer.optimism.io/api/eth-rpc
  response:
    body:
      string: '{"jsonrpc":"2.0","result": {"accessList":[],"blockHash":"0xffc8ff9a0dc535519bf8706504d7d8ca7e053b83a27c3179a4f8d67b11417df0","blockNumber":"0x71bcd87","chainId":"0xa","from":"0xa1eca898ad4a4909c527c78b559ffdad005e761d","gas":"0x24fb6","gasPrice":"0x3a51c53","hash":"0xdc3f8c5bc84bf3e2e57e408d6605fc441d2d5773398c902ba8d8a48f624d1e18","input":"0xd0e30db0","maxFeePerGas":"0xaebc2f2","maxPriorityFeePerGas":"0xe362b","nonce":"0x16","r":"0x7ed7e57e669519426b23696996b445825f645ad3f6096c59514826ade8907f65","s":"0x56b65ac7e3341f9833bd11f6539ccf8c3eda12507439e246df8948f8aca888aa","to":"0xdeafc27ac8f977e6973d671e43cbfd2573021d9e","transactionIndex":"0x47","type":"0x2","v":"0x0","value":"0x8e1bc9bf040000","yParity":"0x0"},"id":
        0}

        '
    headers:
      CF-RAY:
      - 9d6b899e4ebd6628-AMS
      Cache-Control:
      - max-age=0, private, must-revalidate
      Connection:
      - keep-alive
      Content-Type:
      - application/json; charset=utf-8
      Date:
      - Tue, 03 Mar 2026 20:54:39 GMT
      Nel:
      - '{"report_to":"cf-nel","success_fraction":0.0,"max_age":604800}'
      Report-To:
      - '{"group":"cf-nel","max_age":604800,"endpoints":[{"url":"https://a.nel.cloudflare.com/report/v4?s=TwpBM5OkUCCSFhQlNCGuKo4n1rLurIvisN2JhRNJFz%2BedlQCjxkpOpbRwfeHbvzzr274PVOzC4vNA4XwdAYXmVwgEeJWqQ1ixQlVBTPC7EEfacWzSULJNasV%2F%2BAp5Atu"}]}'
      Server:
      - cloudflare
      Transfer-Encoding:
      - chunked
      access-control-allow-credentials:
      - 'true'
      access-control-allow-origin:
      - '*'
      access-control-expose-headers:
      - bypass-429-option,x-ratelimit-reset,x-ratelimit-limit,x-ratelimit-remaining,api-v2-temp-token
      alt-svc:
      - h3=":443"; ma=86400
      bypass-429-option:
      - no_bypass
      cf-cache-status:
      - DYNAMIC
      content-length:
      - '728'
      strict-transport-security:
      - max-age=31536000; includeSubDomains
      x-ratelimit-limit:
      - '600'
      x-ratelimit-remaining:
      - '599'
      x-ratelimit-reset:
      - '20868'
      x-request-id:
      - 3dd7caef6496f4ed48146aef8df66344
    status:
      code: 200
      message: OK
- request:
    body: '{"id": 0, "jsonrpc": "2.0", "method": "eth_getBlockByNumber", "params":
      ["0x71bcd87", true]}'
    headers:
      Accept:
      - '*/*'
      Accept-Encoding:
      - gzip, deflate
      Connection:
      - keep-alive
      Content-Length:
      - '92'
      Content-Type:
      - application/json
      User-Agent:
      - rotki/1.41.2.dev927+ge84fe3f5bf.d20260221
    method: POST
    uri: https://explorer.optimism.io/api/eth-rpc
  response:
    body:
      string: '{"jsonrpc":"2.0","result": {"baseFeePerGas":"0x396e628","blobGasUsed":"0x0","difficulty":"0x0","excessBlobGas":"0x0","extraData":"0x","gasLimit":"0x1c9c380","gasUsed":"0xacdeaa","hash":"0xffc8ff9a0dc535519bf8706504d7d8ca7e053b83a27c3179a4f8d67b11417df0","logsBloom":"0x640aa9c45a0a188c0e0120b00a0890005181540d0c523d01b886008024091501545148d0450048d1920e8430811c4c4548042044a00580a2b91a5440296a6e2709c071981d8004000404c43c60c9210288a50041014f8c26034413fdbcab0000050c412056c0206300c01041b0133a41178cd62322115218020a839a68510100081309a06016477a00c82210002180408001880bbff15e56100640a63fc800082ac10346a00b43a0ee0050442904048289206014a1590845a20044c927137c08c211913714204aa7140810d240004269200c0a50110082440459900f3a81700a1030a7981210a080014411c4c6f8b289b920060040532948808040088c014297","miner":"0x4200000000000000000000000000000000000011","mixHash":"0xf9b2ddba341590061966d06952ff0ea732d9fafa27f5f3c518a29704ee7feee0","nonce":"0x0000000000000000","number":"0x71bcd87","parentBeaconBlockRoot":"0x07670b9f46d76fecf6d478b9329f3b8c27ab6b06e39b31f3a0dc32cf580485f6","parentHash":"0xd27623724402e3d38fc834ca2a62b32a03aa3780d878e9195073e8b8f78995ca","receiptsRoot":"0x9b35e2e27e9e324ac6169f258ea0ccb5124f870b5329819abdfdb551956640a7","sha3Uncles":"0x1dcc4de8dec75d7aab85b567b6ccd41ad312451b948a7413f0a142fd40d49347","size":"0x6147","stateRoot":"0x43a23837fa132b3ca22cebdd84078466e430cff2899063e0dcce03eee0229b80","timestamp":"0x662b74c7","transactions":[{"blockHash":"0xffc8ff9a0dc535519bf8706504d7d8ca7e053b83a27c3179a4f8d67b11417df0","blockNumber":"0x71bcd87","depositReceiptVersion":"0x1","from":"0xdeaddeaddeaddeaddeaddeaddeaddeaddead0001","gas":"0xf4240","gasPrice":"0x0","hash":"0xc7caf98f10cd6fefa9f88a530ced51a09039799a9f17c57353220e3ec124cd33","input":"0x440a5e2000000558000c5fc5000000000000000500000000662b747700000000012d302000000000000000000000000000000000000000000000000000000001fc3841ec00000000000000000000000000000000000000000000000000000000000000015b3e2463b657ab519f7ec17815de7c8c545a3132d5a216585ac0f7667061dc860000000000000000000000006887246668a3b87f54deb3b94ba47a6f63f32985","mint":"0x0","nonce":"0xd60b10","r":"0x0","s":"0x0","sourceHash":"0xb8b2cdb00bde8080bc042975f081a3e160f161147604f5f60c5f369417121db0","to":"0x4200000000000000000000000000000000000015","transactionIndex":"0x0","type":"0x7e","v":"0x0","value":"0x0","yParity":"0x0"},{"accessList":[],"blockHash":"0xffc8ff9a0dc535519bf8706504d7d8ca7e053b83a27c3179a4f8d67b11417df0","blockNumber":"0x71bcd87","chainId":"0xa","from":"0x9a1a25f7afeafd4b15cb4f6faf59864c91bbed29","gas":"0xe4e1c0","gasPrice":"0x1405298e","hash":"0x4c398f028df46a71c850fdfe8632af502b68be677f5c7533687bbcb6603e9458","input":"0x080104e39efeb2a502a3bddf1c913d787834628b3adbc203504e41550100000003b801000000040d006fcbd93a33d5df5d8e16c75cf809361cc0aab26fd0b5f38d3318cfa6455170c116f3d4722023b05c82ac62306fef3f221c63fb5ee0672185b024a4654d49ee2b0102e8e15430203d11222188c19f40ef9450980e0aa1ba9cc90552292736d931e1b04c295b33a5fdf5250efc51b1bd187185e41438a82417d548dee2963c294c7ddf0103c65d3896612048d5d0d87d67aeaa9b8f1cb524ab876a880de37a9c22b5f461a867100728464e024a9eb611c5eba816fd4b5f6ee9ac14b754815bd9dfd216f377000473980cde0adfa393754b0769861029dc6d031ed3f0325db7d70ba649958003144d8113c0e7c32eb7c33b0206321c990f54c909c411aa45211c59a9e83d3211660006eb2bf2a3cce6ef62c3dccc0848c15b2ece35fd674c9ddb184891c4555aa65cb8138d23700bfa4bb421450a3a88c355a1bcba20b9bc3db7d4581606438258deca01072115655ceaf907b8af692a62240e9abe1e801650d7ed5d6bcd4e7a058cb752064047ba0ccae33a6f26b44205e21b5211d5266b9e630891e1dd43651017dc283100085dea7fa677124088d54b693a9497f3f22d68e1ce491ec1ba482eb2d4094e15ca01c9d43c80fc69b507ccd9a8da2aa9fa894e0f8a7ece39e6d273dd2700592f0f010a6a27b538d7383efa1d26d8da05518e5b9417323a87f8d5c0a0fe2e9a84bc45a70eb73a59257a29e94426f84ff777baa750c75267dc911eeec81eafb46b6989dd000b35c41aa8ce430768bbfb4b3f84e67a033ea13a5633f3af5c4be6b393d58e9c0f5d665a899d2cf83caef8123678953278144ec63c5b662f9d29815cf0ff1bad15010c1146809128dbb98925d5b4d91d2ba048494f3dd532e44bc4e6cb42a31631f4d14641ab372854af2ee1cf787f4e7f45fe6d15b9ea0f61a4d49587dc85fe6c1d84000d1ecadc9a88f5f4e565a78926642db3ac227191745b17603683cad0a5b9e2315569e6234a9afd84ef062d221c9f053b2045d66299efaf3173162ee08ea3cd06c000108b5ac562e2aa00362659727b90d5d86df272473089d4ef97739355e741d8debf13958d2a10f70f01283822d9f77d9af6514bd401a85a690a429c2113c8d2f1fd00125ab2541b4eed4f0c02897f7630a8912a013bf33835f95992dcee001dc4cc4b340b0fc2df6912c1be07263c7eb2aaf49beb0a48e31821730e953c9f40043870c500662b74c300000000001ae101faedac5851e32b9b23b5f9411a8c2bac4aae3ed4dd7b811dd1a72ea4aa7100000000032723630141555756000000000008311ad300002710a3be98e8669d92b69ceccccb3423dfa06bf606ba01005500e62df6c8b4a85fe1a67db44dc12de5db330f7ac66b72dc658afedf0f4a415b43000005deb0777f6000000000ae7689d5fffffff800000000662b74c300000000662b74c2000005dbf1bef3c000000000acec11000a171ce4f9630221302e7d35724a363a449b92b63b3e8a74616f140fdfddca4345a9d9deabf31378a44d4082265e95f80a5433158297837f38edb99152a90e72ea185c1d6c09e895091f6e3daeb06cfff8f2d3a8cc4706df7f8f9d63df176149e25e16341c65c75c1d8059377c5a48e6d8c4b09e5363cd471c6d6e40e7868cf9dac847b6ced5032ac3465d21286a0326c7d889b7d7bc3d6956fa583ffe49621b525175ed0824cee4cad05cefedfeed84502b3cdf62354dd16920a623d954a6594443201fe3f5d98d05","maxFeePerGas":"0x1405298e","maxPriorityFeePerGas":"0x122b9cd1","nonce":"0x19eb5","r":"0x53e15788fe031ce918293615644137794c863aa7224ab981c31ce3177e6ceafd","s":"0x377ae7973563fd5798d6956db79f9d1fda32094548129dceb94dd93c6df59caf","to":"0x87cdbbcb50feeef407b083659ab74b0547788c59","transactionIndex":"0x1","type":"0x2","v":"0x0","value":"0x1","yParity":"0x0"},{"accessList":[],"blockHash":"0xffc8ff9a0dc535519bf8706504d7d8ca7e053b83a27c3179a4f8d67b11417df0","blockNumber":"0x71bcd87","chainId":"0xa","from":"0x5efd3bc0f7a82a37f6a6e5e2355f3b0d62fcfda1","gas":"0xdbbc","gasPrice":"0x11e1a300","hash":"0xeb3fe5be235d4583eb2c8620bd615691f04226810a55f423d8e56b3923d77823","input":"0x095ea7b30000000000000000000000000bca65bf4b4c8803d2f0b49353ed57caaf3d66dc00000000000000000000000000000000000000000000000000000000130e18f8","maxFeePerGas":"0x11e1a300","maxPriorityFeePerGas":"0x11e1a300","nonce":"0x15","r":"0x5d4221c1b7e9bf7891ae88c5c687062bd12fe5653ceaaaa154649df39d00dc4f","s":"0x4efe536efebdc6ac5f936baab167145c424337589674a9e50a4028a6666ff73b","to":"0x0b2c639c533813f4aa9d7837caf62653d097ff85","transactionIndex":"0x2","type":"0x2","v":"0x0","value":"0x0","yParity":"0x0"},{"accessList":[],"blockHash":"0xffc8ff9a0dc535519bf8706504d7d8ca7e053b83a27c3179a4f8d67b11417df0","blockNumber":"0x71bcd87","chainId":"0xa","from":"0x45adff4ddbb129d20b0690e24b43ec0653961ca3","gas":"0xe4e1c0","gasPrice":"0x7a13fdd","hash":"0x3fc6909178134b1c384e8d0839863ceff96127484264e4f117a3c2e22f1fcbf3","input":"0xdfa723cc0000000000000000000000009efeb2a502a3bddf1c913d787834628b3adbc20300000000000000000000000000000000000000000000000000000000000000400000000000000000000000000000000000000000000000000000000000000001000000000000000000000000000000000000000000000000000000000000002000000000000000000000000000000000000000000000000000000000000004e3504e41550100000003b801000000040d006fcbd93a33d5df5d8e16c75cf809361cc0aab26fd0b5f38d3318cfa6455170c116f3d4722023b05c82ac62306fef3f221c63fb5ee0672185b024a4654d49ee2b0102e8e15430203d11222188c19f40ef9450980e0aa1ba9cc90552292736d931e1b04c295b33a5fdf5250efc51b1bd187185e41438a82417d548dee2963c294c7ddf0103c65d3896612048d5d0d87d67aeaa9b8f1cb524ab876a880de37a9c22b5f461a867100728464e024a9eb611c5eba816fd4b5f6ee9ac14b754815bd9dfd216f377000473980cde0adfa393754b0769861029dc6d031ed3f0325db7d70ba649958003144d8113c0e7c32eb7c33b0206321c990f54c909c411aa45211c59a9e83d3211660006eb2bf2a3cce6ef62c3dccc0848c15b2ece35fd674c9ddb184891c4555aa65cb8138d23700bfa4bb421450a3a88c355a1bcba20b9bc3db7d4581606438258deca01072115655ceaf907b8af692a62240e9abe1e801650d7ed5d6bcd4e7a058cb752064047ba0ccae33a6f26b44205e21b5211d5266b9e630891e1dd43651017dc283100085dea7fa677124088d54b693a9497f3f22d68e1ce491ec1ba482eb2d4094e15ca01c9d43c80fc69b507ccd9a8da2aa9fa894e0f8a7ece39e6d273dd2700592f0f010a6a27b538d7383efa1d26d8da05518e5b9417323a87f8d5c0a0fe2e9a84bc45a70eb73a59257a29e94426f84ff777baa750c75267dc911eeec81eafb46b6989dd000b35c41aa8ce430768bbfb4b3f84e67a033ea13a5633f3af5c4be6b393d58e9c0f5d665a899d2cf83caef8123678953278144ec63c5b662f9d29815cf0ff1bad15010c1146809128dbb98925d5b4d91d2ba048494f3dd532e44bc4e6cb42a31631f4d14641ab372854af2ee1cf787f4e7f45fe6d15b9ea0f61a4d49587dc85fe6c1d84000d1ecadc9a88f5f4e565a78926642db3ac227191745b17603683cad0a5b9e2315569e6234a9afd84ef062d221c9f053b2045d66299efaf3173162ee08ea3cd06c000108b5ac562e2aa00362659727b90d5d86df272473089d4ef97739355e741d8debf13958d2a10f70f01283822d9f77d9af6514bd401a85a690a429c2113c8d2f1fd00125ab2541b4eed4f0c02897f7630a8912a013bf33835f95992dcee001dc4cc4b340b0fc2df6912c1be07263c7eb2aaf49beb0a48e31821730e953c9f40043870c500662b74c300000000001ae101faedac5851e32b9b23b5f9411a8c2bac4aae3ed4dd7b811dd1a72ea4aa7100000000032723630141555756000000000008311ad300002710a3be98e8669d92b69ceccccb3423dfa06bf606ba01005500e62df6c8b4a85fe1a67db44dc12de5db330f7ac66b72dc658afedf0f4a415b43000005deb0777f6000000000ae7689d5fffffff800000000662b74c300000000662b74c2000005dbf1bef3c000000000acec11000a171ce4f9630221302e7d35724a363a449b92b63b3e8a74616f140fdfddca4345a9d9deabf31378a44d4082265e95f80a5433158297837f38edb99152a90e72ea185c1d6c09e895091f6e3daeb06cfff8f2d3a8cc4706df7f8f9d63df176149e25e16341c65c75c1d8059377c5a48e6d8c4b09e5363cd471c6d6e40e7868cf9dac847b6ced5032ac3465d21286a0326c7d889b7d7bc3d6956fa583ffe49621b525175ed0824cee4cad05cefedfeed84502b3cdf62354dd16920a623d954a6594443201fe3f5d98d050000000000000000000000000000000000000000000000000000000000","maxFeePerGas":"0x7b33c79","maxPriorityFeePerGas":"0x40a59b5","nonce":"0x6182","r":"0x62ac809c3f00e1e65d96ae595e4fca831485179c6df922c82d78fe0924ee0ba9","s":"0x3903a5f4692c55d0585998b4664533db937d11f870638ec2b492f18e91bea0aa","to":"0x59b007e9ea8f89b069c43f8f45834d30853e3699","transactionIndex":"0x3","type":"0x2","v":"0x1","value":"0x1","yParity":"0x1"},{"accessList":[],"blockHash":"0xffc8ff9a0dc535519bf8706504d7d8ca7e053b83a27c3179a4f8d67b11417df0","blockNumber":"0x71bcd87","chainId":"0xa","from":"0xbe9faa107032e158cbfdbd6458c387b42cc477e5","gas":"0x989680","gasPrice":"0x78fe1d0","hash":"0x9b873e7b85071b5cd585653c02d291f1410b74a0bf23e09db0e2e49bcabdf470","input":"0xdfa723cc0000000000000000000000009efeb2a502a3bddf1c913d787834628b3adbc20300000000000000000000000000000000000000000000000000000000000000400000000000000000000000000000000000000000000000000000000000000001000000000000000000000000000000000000000000000000000000000000002000000000000000000000000000000000000000000000000000000000000004e3504e41550100000003b801000000040d006fcbd93a33d5df5d8e16c75cf809361cc0aab26fd0b5f38d3318cfa6455170c116f3d4722023b05c82ac62306fef3f221c63fb5ee0672185b024a4654d49ee2b0101e6e3ff9cdce6a770e3ce1774a124cf40b705fc2cd48a1a757af75cf3ba43a6e9166e3f6b756801b2fdffba8507f7f7f9befa2d745bf6a7f8dfbe2e979fe838f40102e8e15430203d11222188c19f40ef9450980e0aa1ba9cc90552292736d931e1b04c295b33a5fdf5250efc51b1bd187185e41438a82417d548dee2963c294c7ddf0103c65d3896612048d5d0d87d67aeaa9b8f1cb524ab876a880de37a9c22b5f461a867100728464e024a9eb611c5eba816fd4b5f6ee9ac14b754815bd9dfd216f377000473980cde0adfa393754b0769861029dc6d031ed3f0325db7d70ba649958003144d8113c0e7c32eb7c33b0206321c990f54c909c411aa45211c59a9e83d3211660006eb2bf2a3cce6ef62c3dccc0848c15b2ece35fd674c9ddb184891c4555aa65cb8138d23700bfa4bb421450a3a88c355a1bcba20b9bc3db7d4581606438258deca01072115655ceaf907b8af692a62240e9abe1e801650d7ed5d6bcd4e7a058cb752064047ba0ccae33a6f26b44205e21b5211d5266b9e630891e1dd43651017dc283100085dea7fa677124088d54b693a9497f3f22d68e1ce491ec1ba482eb2d4094e15ca01c9d43c80fc69b507ccd9a8da2aa9fa894e0f8a7ece39e6d273dd2700592f0f010a6a27b538d7383efa1d26d8da05518e5b9417323a87f8d5c0a0fe2e9a84bc45a70eb73a59257a29e94426f84ff777baa750c75267dc911eeec81eafb46b6989dd000c1146809128dbb98925d5b4d91d2ba048494f3dd532e44bc4e6cb42a31631f4d14641ab372854af2ee1cf787f4e7f45fe6d15b9ea0f61a4d49587dc85fe6c1d84000d1ecadc9a88f5f4e565a78926642db3ac227191745b17603683cad0a5b9e2315569e6234a9afd84ef062d221c9f053b2045d66299efaf3173162ee08ea3cd06c000108b5ac562e2aa00362659727b90d5d86df272473089d4ef97739355e741d8debf13958d2a10f70f01283822d9f77d9af6514bd401a85a690a429c2113c8d2f1fd00125ab2541b4eed4f0c02897f7630a8912a013bf33835f95992dcee001dc4cc4b340b0fc2df6912c1be07263c7eb2aaf49beb0a48e31821730e953c9f40043870c500662b74c300000000001ae101faedac5851e32b9b23b5f9411a8c2bac4aae3ed4dd7b811dd1a72ea4aa7100000000032723630141555756000000000008311ad300002710a3be98e8669d92b69ceccccb3423dfa06bf606ba01005500e62df6c8b4a85fe1a67db44dc12de5db330f7ac66b72dc658afedf0f4a415b43000005deb0777f6000000000ae7689d5fffffff800000000662b74c300000000662b74c2000005dbf1bef3c000000000acec11000a171ce4f9630221302e7d35724a363a449b92b63b3e8a74616f140fdfddca4345a9d9deabf31378a44d4082265e95f80a5433158297837f38edb99152a90e72ea185c1d6c09e895091f6e3daeb06cfff8f2d3a8cc4706df7f8f9d63df176149e25e16341c65c75c1d8059377c5a48e6d8c4b09e5363cd471c6d6e40e7868cf9dac847b6ced5032ac3465d21286a0326c7d889b7d7bc3d6956fa583ffe49621b525175ed0824cee4cad05cefedfeed84502b3cdf62354dd16920a623d954a6594443201fe3f5d98d050000000000000000000000000000000000000000000000000000000000","maxFeePerGas":"0x8f0d180","maxPriorityFeePerGas":"0x3f8fba8","nonce":"0x4ad5","r":"0x2c6881daaf5f444472b94c20e125cbb0c0e2566cb647c6ba0e06e0350ad6dee1","s":"0x63b33f2db7922a8053355172d31c520ad38a947923325597ffbf2654d6482912","to":"0x59b007e9ea8f89b069c43f8f45834d30853e3699","transactionIndex":"0x4","type":"0x2","v":"0x0","value":"0x1","yParity":"0x0"},{"blockHash":"0xffc8ff9a0dc535519bf8706504d7d8ca7e053b83a27c3179a4f8d67b11417df0","blockNumber":"0x71bcd87","chainId":"0xa","from":"0x95ff47fb0b736e88cc0c185a843dab02458454a3","gas":"0xa227","gasPrice":"0x46c4fe0","hash":"0x46696a7122d698f0af9c4b232579a890afe54e5b5dee6dbdf7edf41522f67594","input":"0x","nonce":"0x2e","r":"0xf5cdedd30cada25f192cc5f6f171b694508b1636d780d4852938a196d6ee3f86","s":"0x22223c3507cf07d8d1325c58756d58f79faf29c07f5b45e7da14df7d0f0a78a","to":"0xc26d08239a5134ddb92855fb57739ce0218b4cae","transactionIndex":"0x5","type":"0x0","v":"0x37","value":"0x38d7ea4c68000"},{"blockHash":"0xffc8ff9a0dc535519bf8706504d7d8ca7e053b83a27c3179a4f8d67b11417df0","blockNumber":"0x71bcd87","chainId":"0xa","from":"0x21c3de23d98caddc406e3d31b25e807addf33633","gas":"0x1bf946","gasPrice":"0x4643505","hash":"0x571b5fad081f827c7bbcd4a5576343836e9764553a30a17f7b6925991d1a294e","input":"0xb143044b000000000000000000000000000000000000000000000000000000000000002000000000000000000000000000000000000000000000000000000000000000010000000000000000000000000000000000000000000000000000000000000020000000000000000000000000000000000000000000000000000000000000006f0000000000000000000000004d73adb72bc3dd368966edd0f0b2148401a178e200000000000000000000000000000000000000000000000000000000000000a000000000000000000000000000000000000000000000000000000000662bc92100000000000000000000000000000000000000000000000000000000000001600000000000000000000000000000000000000000000000000000000000000084704316e5000000000000000000000000000000000000000000000000000000000000006e660ec1e90391682c04bbbd6538b1b1ed4ba235bf89b801b9d8dfcef0e19b063e0000000000000000000000000000000000000000000000000000000000000014660ec1e90391682c04bbbd6538b1b1ed4ba235bf89b801b9d8dfcef0e19b063e000000000000000000000000000000000000000000000000000000000000000000000000000000000000000000000000000000000000000000000082057cb0a37a802c77de5c699368f3ddcb7759ba8879280594516fe2c9d7ea2c056d4ec6f6235852f3f3217938158dbd9d73b8cdc3a61a2f828369d646a46497931b29b04105fe3a5173739f7c9730b8d203b5c3536ad933f4fb26d8297db978c7be19bdb5cf3d92881d8cceb5961b60c914cd88437ed10c074e2beae6a382c3d6c71c000000000000000000000000000000000000000000000000000000000000","nonce":"0x26c57c","r":"0x221c82752d9b904c431298fe85472f5165d6726a0b2c82ad06882a35f452cb77","s":"0x25dc010ba2e28109a8d2ef3eacc59de38d9567dd101fefb2f5df9604aed864d8","to":"0xd56e4eab23cb81f43168f9f45211eb027b9ac7cc","transactionIndex":"0x6","type":"0x0","v":"0x38","value":"0x0"},{"blockHash":"0xffc8ff9a0dc535519bf8706504d7d8ca7e053b83a27c3179a4f8d67b11417df0","blockNumber":"0x71bcd87","chainId":"0xa","from":"0xe93685f3bba03016f02bd1828badd6195988d950","gas":"0x120c9a","gasPrice":"0x4643505","hash":"0x2b8489a9999ea0002b559401b5dad3b0c72156e43ea18efa20ea9ed39422f360","input":"0x252f7b0100000000000000000000000000000000000000000000000000000000000000b8000000000000000000000000701a95707a0290ac8b90b3719e8ee5b2103608830000000000000000000000000000000000000000000000000000000000043238d418d71c10968719c1b5dabddfeaf4c1d14cce4b8f0d81cb4eeb2f13e51dc8e9d418d71c10968719c1b5dabddfeaf4c1d14cce4b8f0d81cb4eeb2f13e51dc8e900000000000000000000000000000000000000000000000000000000000000c0000000000000000000000000000000000000000000000000000000000000027400000000000000000000000038de71124f7a447a01d67945a51edce9ff491251000000000008561e00b8af54be5b6eec24d6bfacf1cce4eaf680a8239398006f701a95707a0290ac8b90b3719e8ee5b210360883000000000000000000000000000000000000000000000000000000000000000100000000000000000000000000000000000000000000000000000000000000010000000000000000000000000000000000000000000000000000000000000001000000000000000000000000000000000000000000000000000000000000000000000000000000000000000000000000000000000000000000000000000000000000000000000000000000000000000000000000000000000000004f23717919000000000000000000000000000000000000000000000000000000009117cb390000000000000000000000000000000000000000000000000000000000011d6f000000000000000000000000000000000000000000000000000000000000000000000000000000000000000000000000000000000000000000000000000000000000000000000000000000000000000000000000000000000000000000152f4600000000000000000000000000000000000000000000000000000000912e17ee00000000000000000000000000000000000000000000000000000000000001c0000000000000000000000000000000000000000000000000000000000000020000000000000000000000000000000000000000000000000000000000000000140bae40324a62b0f4ac823c8c0d1fb861562137250000000000000000000000000000000000000000000000000000000000000000000000000000000000000000000000000000000000000000","nonce":"0x832ab7","r":"0x28458ba32f87c6cdbedfd3ae2708e8f05f208eb02644c86ca6c4c21c6a6b4bd1","s":"0x139659a14d56cd426c5cfa89193c157023d79261abba68a6a89354035f91ae13","to":"0x81e792e5a9003cc1c8bf5569a00f34b65d75b017","transactionIndex":"0x7","type":"0x0","v":"0x37","value":"0x0"},{"blockHash":"0xffc8ff9a0dc535519bf8706504d7d8ca7e053b83a27c3179a4f8d67b11417df0","blockNumber":"0x71bcd87","chainId":"0xa","from":"0xe93685f3bba03016f02bd1828badd6195988d950","gas":"0x120c9a","gasPrice":"0x4643505","hash":"0xb3f6dbdea7577fed78e2cc0f614455343758ca86c319d02cdb425deb43e545fc","input":"0x252f7b0100000000000000000000000000000000000000000000000000000000000000b8000000000000000000000000701a95707a0290ac8b90b3719e8ee5b2103608830000000000000000000000000000000000000000000000000000000000043238afc37077ef38065dfdf9fca9adc661ed875be33b3c0a76f60b534b4b7dce4179afc37077ef38065dfdf9fca9adc661ed875be33b3c0a76f60b534b4b7dce417900000000000000000000000000000000000000000000000000000000000000c0000000000000000000000000000000000000000000000000000000000000027400000000000000000000000038de71124f7a447a01d67945a51edce9ff491251000000000008561f00b8af54be5b6eec24d6bfacf1cce4eaf680a8239398006f701a95707a0290ac8b90b3719e8ee5b2103608830000000000000000000000000000000000000000000000000000000000000001000000000000000000000000000000000000000000000000000000000000000d000000000000000000000000000000000000000000000000000000000000000d0000000000000000000000000000000000000000000000000000000000000000000000000000000000000000000000000000000000000000040ba9eb29f8490a00000000000000000000000000000000000000000000002225426b2aaffcd50f00000000000000000000000000000000000000000000000016db5bf5cd17000000000000000000000000000000000000000000000000000000002cf725a340000000000000000000000000000000000000000000000000000000000000000000000000000000000000000000000000000000000000000000000000000000000000000000000000000000000000000000000000000000000000035657cb1dc00000000000000000000000000000000000000000000000000016dedf44bdd8000000000000000000000000000000000000000000000000000000000000000001c00000000000000000000000000000000000000000000000000000000000000200000000000000000000000000000000000000000000000000000000000000001474c612e1cfae721991f61d577b3ea7364cd447c30000000000000000000000000000000000000000000000000000000000000000000000000000000000000000000000000000000000000000","nonce":"0x832ab8","r":"0xc9fde406c915da979a4ae3b197c9aae5eee7b22ad4cd8219bf186e74fc4efb18","s":"0x4ced4081f7fd976bab7ec327b72d71d1563a44b02a8fcf6f27e49f8fe4aff1b3","to":"0x81e792e5a9003cc1c8bf5569a00f34b65d75b017","transactionIndex":"0x8","type":"0x0","v":"0x38","value":"0x0"},{"blockHash":"0xffc8ff9a0dc535519bf8706504d7d8ca7e053b83a27c3179a4f8d67b11417df0","blockNumber":"0x71bcd87","chainId":"0xa","from":"0xe93685f3bba03016f02bd1828badd6195988d950","gas":"0x120c9a","gasPrice":"0x4643505","hash":"0x92267fd237bfc8816cf02e6ec146f559b7a3c00ca7c3a384533c72ab11642ba6","input":"0x252f7b0100000000000000000000000000000000000000000000000000000000000000b8000000000000000000000000701a95707a0290ac8b90b3719e8ee5b210360883000000000000000000000000000000000000000000000000000000000004323843d507e23610a2cbda4bc4367913e162c91adce2a69b628e24aeb3640b5b0b5443d507e23610a2cbda4bc4367913e162c91adce2a69b628e24aeb3640b5b0b5400000000000000000000000000000000000000000000000000000000000000c0000000000000000000000000000000000000000000000000000000000000027400000000000000000000000038de71124f7a447a01d67945a51edce9ff491251000000000008562000b8af54be5b6eec24d6bfacf1cce4eaf680a8239398006f701a95707a0290ac8b90b3719e8ee5b2103608830000000000000000000000000000000000000000000000000000000000000001000000000000000000000000000000000000000000000000000000000000000d000000000000000000000000000000000000000000000000000000000000000d0000000000000000000000000000000000000000000000000000000000000000000000000000000000000000000000000000000000000000000000000000000000000000000000000000000000000000000000000000002225426b2aaffcd50f0000000000000000000000000000000000000000000000000f951435021bb80000000000000000000000000000000000000000000000000000001ea78e8d5a00000000000000000000000000000000000000000000000000000000000000000000000000000000000000000000000000000000000000000000000000000000000000000000000000000000000000000000000000000000000002466f947dae000000000000000000000000000000000000000000000000000f97794c2526c00000000000000000000000000000000000000000000000000000000000000001c00000000000000000000000000000000000000000000000000000000000000200000000000000000000000000000000000000000000000000000000000000001495877380e6f67437bd2cf8d6491460e2e5f02e1d0000000000000000000000000000000000000000000000000000000000000000000000000000000000000000000000000000000000000000","nonce":"0x832ab9","r":"0xddd02fd640c399f3f782cf22256d3f8a3dbe05d5af879df6a72761d829edd468","s":"0x5ec543fd7c28694206a7f5d95f1482ee194fb3e6cf2e95e0c31a4be46b5903b4","to":"0x81e792e5a9003cc1c8bf5569a00f34b65d75b017","transactionIndex":"0x9","type":"0x0","v":"0x38","value":"0x0"},{"accessList":[],"blockHash":"0xffc8ff9a0dc535519bf8706504d7d8ca7e053b83a27c3179a4f8d67b11417df0","blockNumber":"0x71bcd87","chainId":"0xa","from":"0x943e514df78d02f4f66f50e2a92f52e8f23b5447","gas":"0xa158","gasPrice":"0x45d4368","hash":"0x4e302cef9dcd488b83bcc54c46b8fdf86a43b52039c5a241dcaf3f062f61816c","input":"0xa9059cbb000000000000000000000000253dd57300904225762960755b7662e6ae06492d000000000000000000000000000000000000000000000000255b963c74717650","maxFeePerGas":"0x54370d9","maxPriorityFeePerGas":"0xc65d40","nonce":"0x13","r":"0x3d236ba0b3c34dedfa0eb18293a1058013dbf997300e86e953cd6d66590d084e","s":"0x63e2035ae301902fca21b4d5799c70956d9a4a8c8c7a5d9ffd76750b14c68daf","to":"0xdc6ff44d5d932cbd77b52e5612ba0529dc6226f1","transactionIndex":"0xa","type":"0x2","v":"0x1","value":"0x0","yParity":"0x1"},{"accessList":[],"blockHash":"0xffc8ff9a0dc535519bf8706504d7d8ca7e053b83a27c3179a4f8d67b11417df0","blockNumber":"0x71bcd87","chainId":"0xa","from":"0xacd03d601e5bb1b275bb94076ff46ed9d753435a","gas":"0x5208","gasPrice":"0x3e33168","hash":"0x4f68b6593b1b2562c131f48f29b91ad7e9c3ead8caf864398db60a6317f4848f","input":"0x","maxFeePerGas":"0x12a05f200","maxPriorityFeePerGas":"0x4c4b40","nonce":"0x24e5ec","r":"0x73172d522d8c3dd5791808b4c0abf5fa98da65ad8f5026d40e5b5f230f93debd","s":"0x30ff6eb7097ab84491de839479aa64508c756c595d1a324f09ad9f5137fe2628","to":"0x9381e461dd9a64d951e194f9ee5d92dae3532fc7","transactionIndex":"0xb","type":"0x2","v":"0x1","value":"0x3092642bde862000","yParity":"0x1"},{"accessList":[],"blockHash":"0xffc8ff9a0dc535519bf8706504d7d8ca7e053b83a27c3179a4f8d67b11417df0","blockNumber":"0x71bcd87","chainId":"0xa","from":"0xacd03d601e5bb1b275bb94076ff46ed9d753435a","gas":"0x5208","gasPrice":"0x3e33168","hash":"0xbaa9be4c84f252102238f4627200eebf19850bb593d208d5cae5327259704e35","input":"0x","maxFeePerGas":"0x12a05f200","maxPriorityFeePerGas":"0x4c4b40","nonce":"0x24e5ed","r":"0x9e3f2a5f3bf7c0349fef338d6d0e7f1620e8250266409991aeb442f0db64d90d","s":"0x8842bc9a643f2d5edd78a5619fe93fc60156bfead65059c190fb516d38cd0f2","to":"0x267826200d4da4a85776dce387054505ca00e198","transactionIndex":"0xc","type":"0x2","v":"0x0","value":"0x1634b6b13ea7800","yParity":"0x0"},{"blockHash":"0xffc8ff9a0dc535519bf8706504d7d8ca7e053b83a27c3179a4f8d67b11417df0","blockNumber":"0x71bcd87","chainId":"0xa","from":"0xcad97616f91872c02ba3553db315db4015cbe850","gas":"0x2e636","gasPrice":"0x3d7bae7","hash":"0x7a5fd8c7cfdb92558a986cfc9550b72983052619c8f56a4779fde400ac17142e","input":"0x2e3781150000000000000000000000000000000000000000000000000000000000000040000000000000000000000000000000000000000000000000000000000000e70800000000000000000000000033e96e8a15223786dcefefd9e311ff82522a884f00000000000000000000000033e96e8a15223786dcefefd9e311ff82522a884f0000000000000000000000000000000000000000000000000000000000000000000000000000000000000000176211869ca2b568f2a7d4ee941e073a821ee1ff0000000000000000000000007f5c764cbc14f9669b88837ca1490cca17c3160700000000000000000000000000000000000000000000000000000000122be055000000000000000000000000000000000000000000000000000000001229f7cd000000000000000000000000000000000000000000000000000000000000e70800000000000000000000000000000000000000000000000000000000000f921900000000000000000000000000000000000000000000000000000000ffffffff000000000000000000000000000000000000000000000000000000000000000000000000000000000000000000000000000000000000000000000000000001800000000000000000000000000000000000000000000000000000000000000000","nonce":"0x2cd3","r":"0x303cdf4a6b0b5e368c0eea87ca66c22aba6c795efcf7373e857dea59c461f230","s":"0x333da752c68f03b635af84586f0b6174d16e4002463c56fbb7434f96fee40e12","to":"0x6f26bf09b1c792e3228e5467807a900a503c0281","transactionIndex":"0xd","type":"0x0","v":"0x38","value":"0x0"},{"accessList":[],"blockHash":"0xffc8ff9a0dc535519bf8706504d7d8ca7e053b83a27c3179a4f8d67b11417df0","blockNumber":"0x71bcd87","chainId":"0xa","from":"0x20763804823b9ce82e09c5f6723f388801f8c28e","gas":"0x2b18e","gasPrice":"0x3b62c21","hash":"0xcf8ab43e706011d75c6c0e2cb7e2603fad3ffd04511469d3ab96eb0f80105f7c","input":"0xa9059cbb0000000000000000000000003837afc879dfb98dd01e61573d15804f3e1b66e200000000000000000000000000000000000000000000000000000000beee7cb9","maxFeePerGas":"0x4ff7ceb","maxPriorityFeePerGas":"0x1f45f9","nonce":"0x2","r":"0x8db531141b60b184b3dc0f5815eff38f27c14c8d1ff54f694fa24b49f35abb2d","s":"0x4592b339b3b051d38394eb8bd4c73d80976ed7754b40d9f11f66fb3da27aeb85","to":"0x7f5c764cbc14f9669b88837ca1490cca17c31607","transactionIndex":"0xe","type":"0x2","v":"0x0","value":"0x0","yParity":"0x0"},{"blockHash":"0xffc8ff9a0dc535519bf8706504d7d8ca7e053b83a27c3179a4f8d67b11417df0","blockNumber":"0x71bcd87","chainId":"0xa","from":"0x7bc3c62991e4dd68e15392eb8158f7b91a037732","gas":"0x5208","gasPrice":"0x3aa6c1d","hash":"0x283932f3056b42425533b7ce7c371eb212fbd392c32f31307a9ff215cd1cf336","input":"0x","nonce":"0x0","r":"0xa8bf315108ca410f172d932a192494c42842231201ef661a821cc48f3e05819b","s":"0x3c2c733c68af0f76340c4a38c14ea845a939266c11998d7c32d714a01862442e","to":"0x13c16d343cfeb5beec212f76a23113995eb1f87f","transactionIndex":"0xf","type":"0x0","v":"0x37","value":"0x46214d869e850"},{"blockHash":"0xffc8ff9a0dc535519bf8706504d7d8ca7e053b83a27c3179a4f8d67b11417df0","blockNumber":"0x71bcd87","chainId":"0xa","from":"0xfb32f70aa6ac87b9879ce1abcbefdfa12459f893","gas":"0x5208","gasPrice":"0x3aa6c1d","hash":"0x81530ace668f95735f23c3601f3ccbcd4fb4f71160f067256cef4b809a021cc2","input":"0x","nonce":"0x0","r":"0x26f84366f2cc62de49e0e63829fc9ed6c7033b37a30c928527e3599d3c6d714e","s":"0x3ec0cc1b79930a05fa1a15d3fca640cfdaed8deccbbd59b5b0f75cd7bb20b13c","to":"0xc61d6d40464ee984cfa404617b63cfd50b3d8ca8","transactionIndex":"0x10","type":"0x0","v":"0x38","value":"0x467f8cba7b20f"},{"blockHash":"0xffc8ff9a0dc535519bf8706504d7d8ca7e053b83a27c3179a4f8d67b11417df0","blockNumber":"0x71bcd87","chainId":"0xa","from":"0x85d4e5116c592fd4aa6ea2feb568d745d1b01f5b","gas":"0x5208","gasPrice":"0x3aa6c1d","hash":"0x5b2b412a5852d1571ccf3ea023e5f85ec4ed37ab1f44682dad67c4d5e6a6273e","input":"0x","nonce":"0x0","r":"0x27b4cd54f218dd797848db521f979495f0b34c443364a895d30178d498c5e8eb","s":"0x23e7db094b833e380b404220df9a2be107188ecad7ebaabaf53fbc5005d9f07d","to":"0x2987155c2a7d0b984b47e2b7aa4a6bc419dee0cc","transactionIndex":"0x11","type":"0x0","v":"0x38","value":"0x462144b1fe4e0"},{"blockHash":"0xffc8ff9a0dc535519bf8706504d7d8ca7e053b83a27c3179a4f8d67b11417df0","blockNumber":"0x71bcd87","chainId":"0xa","from":"0xdf631c471803f683a906d314bb07fcffa3fdbef0","gas":"0x5208","gasPrice":"0x3aa6c1d","hash":"0x8c343c67e19ff2436e7d22283ace3e5b1736248641d959f202825173b69a828f","input":"0x","nonce":"0x0","r":"0xd2cec8eee9367a630e0d5c20f3f71f9b182ab70037e7fa8435b8de59482c653d","s":"0x7fbff99807a471796a09ebb823cdce7dd7adb9dccc5a8301fd201959022bcbc3","to":"0xb9bf68b7762935d7c98b7d0a8cd791217688a924","transactionIndex":"0x12","type":"0x0","v":"0x37","value":"0x46214d869e850"},{"blockHash":"0xffc8ff9a0dc535519bf8706504d7d8ca7e053b83a27c3179a4f8d67b11417df0","blockNumber":"0x71bcd87","chainId":"0xa","from":"0x9d97df002293c25c5753ef48058de468954d2763","gas":"0x5208","gasPrice":"0x3aa6c1d","hash":"0x8fb3e04eac73778bd3494d40b33a5fedabcf5f097f9935257eaec69bbf3bcd70","input":"0x","nonce":"0x0","r":"0x2b5c658a351e2dd1ac48b40c985d83700e92b6804e83db1e5ab89c06d4163b30","s":"0x2edc98a96e99e9866f63f2a70bba3d49a0b6e8c380300465043a4c7887962c12","to":"0x645a3097fa90d1a8b03f3b089560f07626014092","transactionIndex":"0x13","type":"0x0","v":"0x37","value":"0x46214d869e850"},{"blockHash":"0xffc8ff9a0dc535519bf8706504d7d8ca7e053b83a27c3179a4f8d67b11417df0","blockNumber":"0x71bcd87","chainId":"0xa","from":"0x3f40b9961181e2f1e04011302c6312878e67f447","gas":"0x5208","gasPrice":"0x3aa6c1d","hash":"0x9b653ccb30b99bf6bb41877eac702858ae9bb75c5291b7ebd4e435c4fc313d91","input":"0x","nonce":"0x0","r":"0x6cafa26dfb06dd9dbf9c6daaa58be7004124a805a96420502307711b32e170ff","s":"0xfaa5b2c4a8f7f91b01dfe95ff32b9b312914ca1212276b83f8d1e217e00a96b","to":"0x2e4d765bd35b3586a54925f4efc634639f2ffa3c","transactionIndex":"0x14","type":"0x0","v":"0x37","value":"0x46214d869e850"},{"blockHash":"0xffc8ff9a0dc535519bf8706504d7d8ca7e053b83a27c3179a4f8d67b11417df0","blockNumber":"0x71bcd87","chainId":"0xa","from":"0x752b02c8740f900ba732318b99bb10a035241d34","gas":"0x5208","gasPrice":"0x3aa6c1d","hash":"0x3f8e8f0f8dbb016a9e156d7b7707b786654ebf96116d81f6f60f8b4c3ba89050","input":"0x","nonce":"0x0","r":"0xdc6e943ca4b1938eb00e8dc4a466e8b6710ab27665bb448a263a0aca7052f9b1","s":"0x5d4eda6a3e9cfa76735563acf331dd0fb4ea80a28139f774a5b35994f115c9d3","to":"0x2b35c99b69d1d906989a042a81327d775f0a2bf5","transactionIndex":"0x15","type":"0x0","v":"0x37","value":"0x46214d869e850"},{"blockHash":"0xffc8ff9a0dc535519bf8706504d7d8ca7e053b83a27c3179a4f8d67b11417df0","blockNumber":"0x71bcd87","chainId":"0xa","from":"0xe8a80a6789376594a3f792b36c47dcb2fb93a1e4","gas":"0x5208","gasPrice":"0x3aa6c1d","hash":"0x50fb91bd3012869649f20d29d370a4fb77059edd3f3f180570830399447eb32a","input":"0x","nonce":"0x0","r":"0x91e1651bbedb52d55de23a67eef825b5d620e807e76467a07075f52aed9b9497","s":"0x47994c14bb3ec7247bda50b44feebdec0d05ab564daed45fb050df19825e76f5","to":"0x6df1ec08f1c51d5c16c9bbb950c0afe60578c375","transactionIndex":"0x16","type":"0x0","v":"0x37","value":"0x4621310e9d840"},{"blockHash":"0xffc8ff9a0dc535519bf8706504d7d8ca7e053b83a27c3179a4f8d67b11417df0","blockNumber":"0x71bcd87","chainId":"0xa","from":"0xc01c442441e00cebdd2d88992eedbbc8a79e03b5","gas":"0x5208","gasPrice":"0x3aa6c1d","hash":"0x8e3b19e1a5f3c57e05f778550e947fc876aaa8b996ccf86ba7c57d6f8db526bf","input":"0x","nonce":"0x0","r":"0x2badfe9b799d8dc44d85dab2be1df0513dcbe379b18d166c067d6addd69f9a0e","s":"0x76123375170a8df62824d980b8c0f51e799b909aaf74e63e6b7eba971429c5e","to":"0x4444fbafe859e61683149a1c3f0a12b7496c3101","transactionIndex":"0x17","type":"0x0","v":"0x38","value":"0x46214d869e850"},{"blockHash":"0xffc8ff9a0dc535519bf8706504d7d8ca7e053b83a27c3179a4f8d67b11417df0","blockNumber":"0x71bcd87","chainId":"0xa","from":"0xea33d49114575f8b25af151359ec173fb385e59c","gas":"0x5208","gasPrice":"0x3aa6c1d","hash":"0x7f6c7b917d4b67392a5f491db27d16b3df9d596cd2b5855923121f6a656a9302","input":"0x","nonce":"0x0","r":"0x7606ef077c0246949edf9188acbfcc4f20a36baeee415592b42904299adb5e16","s":"0x3c1d0c22ca0ec02800d7c0b5f72eb81203728a9a1657aaa4d74307e75b47ef75","to":"0x1b1decbaefdf4235c0218a0b83772a5dfc686e72","transactionIndex":"0x18","type":"0x0","v":"0x38","value":"0x462144b1fe4e0"},{"blockHash":"0xffc8ff9a0dc535519bf8706504d7d8ca7e053b83a27c3179a4f8d67b11417df0","blockNumber":"0x71bcd87","chainId":"0xa","from":"0x67544f80f429dabede49098e19415d533537a406","gas":"0x5208","gasPrice":"0x3aa6c1d","hash":"0x9f14d771b6e9d9f9d07d66a922659c80770ad1f93c93428919f5de7c3a874d83","input":"0x","nonce":"0x0","r":"0x45fb6f4f29fc229003d2330d44f6ea3827f9c29c94caf1587ba267de3df790f9","s":"0x647da77fa73325eb2701ee20f2532a72924571a6959a4a265b247c97e2e00ba2","to":"0x7e05821f6a4fc4fe1314fccafb92b486fd4012bb","transactionIndex":"0x19","type":"0x0","v":"0x38","value":"0x46216755d7018"},{"blockHash":"0xffc8ff9a0dc535519bf8706504d7d8ca7e053b83a27c3179a4f8d67b11417df0","blockNumber":"0x71bcd87","chainId":"0xa","from":"0x4c0378ca8d25b48782b247c8253428459e3b2707","gas":"0x5208","gasPrice":"0x3aa6c1d","hash":"0xe4f23fb11c1200533f8d2af107c61dcae97022016d5c884448f93f071bf888b9","input":"0x","nonce":"0x0","r":"0xcb412974d1ce561158a7093361ad3027789f23bd5918e352b8a92992cb22a25d","s":"0x272ad1e10458446916487b3136cc0c2bb07dbdba51fd581420322dc08228d669","to":"0x3cdd2ee6806334c155f00be5a0a25433e87bea17","transactionIndex":"0x1a","type":"0x0","v":"0x38","value":"0x46215e8136ca8"},{"blockHash":"0xffc8ff9a0dc535519bf8706504d7d8ca7e053b83a27c3179a4f8d67b11417df0","blockNumber":"0x71bcd87","chainId":"0xa","from":"0x943b00ba25c17f00fab69ecda9c85eb7b2cd33f2","gas":"0x5208","gasPrice":"0x3aa6c1d","hash":"0x13f9bb02ed3d4d35300230633fd77bb3cc94937eafa9518ee5667cc2bc87842a","input":"0x","nonce":"0x0","r":"0xaee92499afdc7aaa403c5b4c0e7cc73c86f5be5b552016edeaea309e501adeb6","s":"0x7f81008ed1e5089538db01d5e30e25d17a44df7266fbd27421ceb9e0d0a74d83","to":"0x6b942cbcfa964bf947cd977112c8974cccbffabf","transactionIndex":"0x1b","type":"0x0","v":"0x38","value":"0x462144b1fe4e0"},{"blockHash":"0xffc8ff9a0dc535519bf8706504d7d8ca7e053b83a27c3179a4f8d67b11417df0","blockNumber":"0x71bcd87","chainId":"0xa","from":"0x8c044dfcd5ce9cd3e2a70ade0a4c8f83b371c68e","gas":"0x5208","gasPrice":"0x3aa6c1d","hash":"0x9d190945f8d455493801ed5a4bcd6eaa16f38eaae8a6aaa9d9e987c9412bd35a","input":"0x","nonce":"0x0","r":"0x36aad22fcc311a0a71ed7e51655edbf5098502e9fd07b5f94927ef7058459327","s":"0x4fad69b372fb085a0582a6551284ead580ab6db5b4ce666d848e781e046d7342","to":"0x3943f73662d53d22fdb49123f72eed6b6c1a2b45","transactionIndex":"0x1c","type":"0x0","v":"0x37","value":"0x456417ebe14e0"},{"blockHash":"0xffc8ff9a0dc535519bf8706504d7d8ca7e053b83a27c3179a4f8d67b11417df0","blockNumber":"0x71bcd87","chainId":"0xa","from":"0x3bfac8810c2913ccc978f3738696b3b0ecc40f97","gas":"0x5208","gasPrice":"0x3aa6c1d","hash":"0xbfce2db7229edd779d6ae1b43863afbcb3fb2d67a05ac9e015a411221f313644","input":"0x","nonce":"0x0","r":"0x5d4859a9bb62cfd7db9217ae3aacb98252ab2c47e1064e21989088752f81b911","s":"0xfeb2d7e6faa1cde9ac7b592c1aae577519565010107597eb46d38f97d6766fd","to":"0xcd7e203d7ee1a1c4c789f1d574a1ecbc437b8eac","transactionIndex":"0x1d","type":"0x0","v":"0x37","value":"0x46214d869e850"},{"blockHash":"0xffc8ff9a0dc535519bf8706504d7d8ca7e053b83a27c3179a4f8d67b11417df0","blockNumber":"0x71bcd87","chainId":"0xa","from":"0x84728daabb758e97e5806ede44c85c8d1c17b1a2","gas":"0x5208","gasPrice":"0x3aa6c1d","hash":"0xc2286ccd2035ee3548dad050765e8e3500114768f43bcc608f833a20534f2c5c","input":"0x","nonce":"0x0","r":"0x48ee1d218138fd6b2185a96b37233d21411b85d39025ee49043e28128ea85907","s":"0xe0de79b1eca6809b6926e6d83343a38701ea76ebbf731f293ff35c8ee0f718c","to":"0x3a457545cfdebc506d9dbac1622f99617c15cbf6","transactionIndex":"0x1e","type":"0x0","v":"0x38","value":"0x8ee3f5699e5d0"},{"blockHash":"0xffc8ff9a0dc535519bf8706504d7d8ca7e053b83a27c3179a4f8d67b11417df0","blockNumber":"0x71bcd87","chainId":"0xa","from":"0x1089f2228730a14618589cb0b6e98b00a44fcd2f","gas":"0x5208","gasPrice":"0x3aa6c1d","hash":"0xa625519dbe26f79029d83c593ce1b72a1f9a571b40a4cbd25acfc4587cc2af07","input":"0x","nonce":"0x0","r":"0xacf0ee0455cdb01b8985297a8e6130f9364c22ce7d3d3f22b0cb452bf5af3b2a","s":"0x229f35f10a9896931a02485839665f3f8d0634cde55801a4fa87717949607c4c","to":"0xdf23c2ecaec1ce47d8068232d57711f8d4fa993d","transactionIndex":"0x1f","type":"0x0","v":"0x38","value":"0x462144b1fe4e0"},{"blockHash":"0xffc8ff9a0dc535519bf8706504d7d8ca7e053b83a27c3179a4f8d67b11417df0","blockNumber":"0x71bcd87","chainId":"0xa","from":"0xb91c670b45922ab5621349737a42b8994e0c89c9","gas":"0x5208","gasPrice":"0x3aa6c1d","hash":"0x09bc882f3ca1948170964baf6495084d6a2c91d179744cfe9233124c032457b5","input":"0x","nonce":"0x0","r":"0x76021ec937b118f9a83273595732a2343a479aac3a66784226381c9c1b77ef1","s":"0x38a8e217820165edd5b5b0f9d646d54ca7654c82769e7ed0e3dc37feefe78b5","to":"0x08a9d7e2dc8a2200ec2ef5b1d7d4cf8ad59971e1","transactionIndex":"0x20","type":"0x0","v":"0x37","value":"0x46214d869e850"},{"blockHash":"0xffc8ff9a0dc535519bf8706504d7d8ca7e053b83a27c3179a4f8d67b11417df0","blockNumber":"0x71bcd87","chainId":"0xa","from":"0x8b32fa1b8e7bada455ae3018f957d3cd7776c559","gas":"0x5208","gasPrice":"0x3aa6c1d","hash":"0xa8eb3b0cc7c37f925aa46f5fca2a2aa9810def230d71ff9b514a03977ee208c8","input":"0x","nonce":"0x0","r":"0x129e8e42a451214d49cd61e590b4fe0ca3be58c2df683e3edf2add589ee82c51","s":"0x37cc3d8144a073d2388e7b6bd11185fe1d5435077fc2fcffa0c65df74c02fa79","to":"0x52497a65f8a3d18c5afb8dbc6914a75541aa10ac","transactionIndex":"0x21","type":"0x0","v":"0x37","value":"0x462144b1fe4e0"},{"blockHash":"0xffc8ff9a0dc535519bf8706504d7d8ca7e053b83a27c3179a4f8d67b11417df0","blockNumber":"0x71bcd87","chainId":"0xa","from":"0x12979ba893460df6edc38f6fa2f9dd9bc97d81da","gas":"0x5208","gasPrice":"0x3aa6c1d","hash":"0x9beeac4c845b66c900adf2bf0b813692e8cd01e80228c2fcccd263fe0ac3f94a","input":"0x","nonce":"0x0","r":"0x8f06f9ca21fab7612b86ad697dffff32f21896ce9385351e7c6ebe6d21bf4663","s":"0x7686a1a2d459556547dbc79f706a7131562329c329b85efd710728a0f9ee1e1d","to":"0x3796ab3491cdca690d0951c6be9e56eb1a704519","transactionIndex":"0x22","type":"0x0","v":"0x37","value":"0x46214d869e850"},{"blockHash":"0xffc8ff9a0dc535519bf8706504d7d8ca7e053b83a27c3179a4f8d67b11417df0","blockNumber":"0x71bcd87","chainId":"0xa","from":"0x775f1637462032ccb997e611ae42813ccbdb7c02","gas":"0x5208","gasPrice":"0x3aa6c1d","hash":"0xeb04dfd2cb31e9de662998d510b06b6aacfae0456c658c3209edf225ce288910","input":"0x","nonce":"0x0","r":"0xa45efd9868f1acd94c25c91ac240c67f7682ecfd223b21dd7b2f44b1cca40044","s":"0xffc9106d080e4862a1b356dc53bb4493c6052be96866d3b978db898e810605b","to":"0x833ab9eb0fed30827d561a383f1659ff31b7a4ab","transactionIndex":"0x23","type":"0x0","v":"0x38","value":"0x46214d869e850"},{"blockHash":"0xffc8ff9a0dc535519bf8706504d7d8ca7e053b83a27c3179a4f8d67b11417df0","blockNumber":"0x71bcd87","chainId":"0xa","from":"0x36cac96524045c51a24c6342250ed7324e6f7cd0","gas":"0x5208","gasPrice":"0x3aa6c1d","hash":"0x6f43d00231e61e45d86e8ed7544ea0ca7977dac9f58ed7c0f7bbbcfe1b51a81c","input":"0x","nonce":"0x0","r":"0x97c0fe8458da05ef88f4c85bed88f22dbde3e044144bcf7cdfe86ef36858e9cd","s":"0x3eb038aa36175b1d395c1bc85cedbf0abdb5af85f05340b69b8913a53724e68d","to":"0x638df444235a296b1489a298cc064c60d38d1fe6","transactionIndex":"0x24","type":"0x0","v":"0x38","value":"0x4621310e9d840"},{"blockHash":"0xffc8ff9a0dc535519bf8706504d7d8ca7e053b83a27c3179a4f8d67b11417df0","blockNumber":"0x71bcd87","chainId":"0xa","from":"0xbbc227e96f7edc939afc7645981751a21d38bf65","gas":"0x5208","gasPrice":"0x3aa6c1d","hash":"0x20e358ab7d0718701371cf7724328b951a88de84424a0b65cdb91e57cb5740bb","input":"0x","nonce":"0x0","r":"0x90edebcf744578ea678c51ce4f74fa8bf3026cf827061425316cf83c2a4b3a53","s":"0x7f616534c6b854f6d921fb84e3d6c1f528153f9040e9085326390e151bdf9e4","to":"0xf6933cf1a65f4e6e55cfece9c36ed80496c8c455","transactionIndex":"0x25","type":"0x0","v":"0x38","value":"0x46214d869e850"},{"blockHash":"0xffc8ff9a0dc535519bf8706504d7d8ca7e053b83a27c3179a4f8d67b11417df0","blockNumber":"0x71bcd87","chainId":"0xa","from":"0xb3e6c61b0f20add78688ec89000151319de9f591","gas":"0x5208","gasPrice":"0x3aa6c1d","hash":"0x19ec971f235b802f761047aabfe0e4c06542f9a6fd3f85cf2d3f799e16f4213b","input":"0x","nonce":"0x0","r":"0x10b7bc8fe72de6c1078f9cde9bf9542472fbd2cfa1597d78d592ae2419d6d44a","s":"0xd50cf9b3f663b29762fd7cc5d3f658f2bbe044bf954951a583660dfb2164231","to":"0xcf576fe82ef40c7268d9f57cb1e0646360805965","transactionIndex":"0x26","type":"0x0","v":"0x38","value":"0x46216755d7018"},{"blockHash":"0xffc8ff9a0dc535519bf8706504d7d8ca7e053b83a27c3179a4f8d67b11417df0","blockNumber":"0x71bcd87","chainId":"0xa","from":"0x5718f9d8067282f6e468dfd0371fe56be32bfd7f","gas":"0x5208","gasPrice":"0x3aa6c1d","hash":"0xeb0143580fb5fd5406344aa56d94b2e48ec9937a6526347dcd7d9293d213477c","input":"0x","nonce":"0x0","r":"0xc54b40d72cf72b7c5006e2c5bffa403fdff60a2c427bd183c8807fca8ff70516","s":"0x24ae50977c1536a5ad3ce09c0cb492a590eece387707e4110b75c5a8bc819da7","to":"0xce1a2c5a24f45fa3a3502cbe2b3cde35911240d8","transactionIndex":"0x27","type":"0x0","v":"0x37","value":"0x46215e8136ca8"},{"blockHash":"0xffc8ff9a0dc535519bf8706504d7d8ca7e053b83a27c3179a4f8d67b11417df0","blockNumber":"0x71bcd87","chainId":"0xa","from":"0xcbeb1fc64690b43acf613edd0eb78539e7feee36","gas":"0x5208","gasPrice":"0x3aa6c1d","hash":"0x382c1cf0ba9926a9d70707f7650e117fdb6023af96855a245739b6e93e6997b5","input":"0x","nonce":"0x0","r":"0xc4717f5d9e604714de7e78657a882ed044a6e2a0e8feed46358c4aa0d0da0280","s":"0x4605b02fd0a9e6076285e9df8ef0e2960761ab66497948ea0cde29dc9e40d90","to":"0x649f2507867444217a185c8a10b274ee079b2b72","transactionIndex":"0x28","type":"0x0","v":"0x38","value":"0x462144b1fe4e0"},{"blockHash":"0xffc8ff9a0dc535519bf8706504d7d8ca7e053b83a27c3179a4f8d67b11417df0","blockNumber":"0x71bcd87","chainId":"0xa","from":"0xe1d9be6c61feecb818ae1f4610e21a8ab7be8811","gas":"0x5208","gasPrice":"0x3aa6c1d","hash":"0xcd060ab9ebec0d4282a933a7c3f5af5bbcf8272f790f54e15f171ced341ae609","input":"0x","nonce":"0x0","r":"0x98c32045d13b34e50852b6bc157e6b3dda58e708e9c33503a336389ce792bdbe","s":"0x2d6baba71c1564b09c3ad5dc5a3b8dd25171acba6e85cf2c71dadaf94a0c63e6","to":"0xa63df35ca2ae11835f6eca1eaf41dff8efd236c8","transactionIndex":"0x29","type":"0x0","v":"0x38","value":"0x46216be33d890"},{"blockHash":"0xffc8ff9a0dc535519bf8706504d7d8ca7e053b83a27c3179a4f8d67b11417df0","blockNumber":"0x71bcd87","chainId":"0xa","from":"0x7334e0f6a96f57546535e28ff647fabc0fcd48fe","gas":"0x5208","gasPrice":"0x3aa6c1d","hash":"0xa097cd8fe68ff09d809c4d01112f91d030e7056690e619e45e4a03f175d21ae0","input":"0x","nonce":"0x0","r":"0x459b9bdc445043ac46f3b04092a011d112721674693440b7e75f230ba214292a","s":"0x63a67a0f0bb4247b687af66ed895f310d50acbdc81977bac54a03b1b8c63bab7","to":"0x3463c8a08640b36cd6b940405f169343c2dd4452","transactionIndex":"0x2a","type":"0x0","v":"0x38","value":"0x462144b1fe4e0"},{"blockHash":"0xffc8ff9a0dc535519bf8706504d7d8ca7e053b83a27c3179a4f8d67b11417df0","blockNumber":"0x71bcd87","chainId":"0xa","from":"0x2c74411cbe96e00953ed9fca033d8224536db02b","gas":"0x5208","gasPrice":"0x3aa6c1d","hash":"0x258eea85e9900dd5f89e28175a3eb5f29d6534214e7c0022c001545050d55010","input":"0x","nonce":"0x0","r":"0xa1019ed47d76e40f4881a72d7ceddcba1bafe8742942ff488176fe92ec19698","s":"0xad1d3bbeb9bd062661f07948cfc2e433f947f6c9ef700e74cbc6a50d5caedac","to":"0xcbda49e55da17d43d29683858c73b6a2f523f31c","transactionIndex":"0x2b","type":"0x0","v":"0x38","value":"0x46214d869e850"},{"blockHash":"0xffc8ff9a0dc535519bf8706504d7d8ca7e053b83a27c3179a4f8d67b11417df0","blockNumber":"0x71bcd87","chainId":"0xa","from":"0x85a440e9f32ae5ae5557e6334d20c9a035471df4","gas":"0x5208","gasPrice":"0x3aa6c1d","hash":"0x4745b1eb659c1f8ea19d8a2e78b6d404cbf2e27753bc158a472e44369dd97c4f","input":"0x","nonce":"0x0","r":"0xa46fe71a13c3a0e1e1fc46ef4430bb07af19da165544d10eb5cf9d18fb94ae5c","s":"0x6cb19dd15aab3f441d04630ed6788f797c2cd68bd31ee26571480259e3217af9","to":"0x09fe49e8ba6a96b4e46f5c477cae926a32774e74","transactionIndex":"0x2c","type":"0x0","v":"0x38","value":"0x46214d869e850"},{"blockHash":"0xffc8ff9a0dc535519bf8706504d7d8ca7e053b83a27c3179a4f8d67b11417df0","blockNumber":"0x71bcd87","chainId":"0xa","from":"0xa1ff6ca68fc40496c3445ae9388a3458342a6229","gas":"0x5208","gasPrice":"0x3aa6c1d","hash":"0xe9b7e913f06858270f2caf6c8dc0dbf8543b9d75697f29a28cb80cb219f007b5","input":"0x","nonce":"0x0","r":"0xcbb38cec73838db918c6e5b251ec41ef9f25230cd77b25f963aca9a46a9af715","s":"0x5054845af15d4de326aae0367edc06461388a306221360fbd18ecae4060b9a1","to":"0xc2536c1a26346de356da9c6d274d1c3e30aed3f5","transactionIndex":"0x2d","type":"0x0","v":"0x38","value":"0x46214d869e850"},{"blockHash":"0xffc8ff9a0dc535519bf8706504d7d8ca7e053b83a27c3179a4f8d67b11417df0","blockNumber":"0x71bcd87","chainId":"0xa","from":"0x2402d1c7120d1dc0d134fb838d5e4ebf5cb32b33","gas":"0x5208","gasPrice":"0x3aa6c1d","hash":"0x908eb4d0abecee1665597164a0d46de2ecfbbcd510f45de29a4f4bde7376c6d2","input":"0x","nonce":"0x0","r":"0x31fbba7b570c63d0080cbcd052a15f02046c2a42f3030dde661beb312ac2b43a","s":"0x47f5ec1923165728354e0f2a9a090f2a0a3e16ff0ab546fe8172f71ddc54ff87","to":"0x43bd3d3bf7f66fa23116ec63417618f66293273e","transactionIndex":"0x2e","type":"0x0","v":"0x38","value":"0x46214d869e850"},{"blockHash":"0xffc8ff9a0dc535519bf8706504d7d8ca7e053b83a27c3179a4f8d67b11417df0","blockNumber":"0x71bcd87","chainId":"0xa","from":"0x96b0e6436f829245456fed2de3e0e6e5ba66cd0e","gas":"0x5208","gasPrice":"0x3aa6c1d","hash":"0x9781f16daf2197c6a84c3fa246761481a6e2948b9c21d5af3d7065ff01c3b296","input":"0x","nonce":"0x0","r":"0x763eaab608fdcfcd413ff0486836a903392b493a70fbb711c3c96997f9be021","s":"0x4d9704734038afdaa41e453efacaab9b17fb3199de36f5e73fae415aa2108863","to":"0x5ccfc0d54163a9c825e37b341fd9e057889b8395","transactionIndex":"0x2f","type":"0x0","v":"0x37","value":"0x8ee3c11b9e850"},{"blockHash":"0xffc8ff9a0dc535519bf8706504d7d8ca7e053b83a27c3179a4f8d67b11417df0","blockNumber":"0x71bcd87","chainId":"0xa","from":"0xd02b3e4f02ae10570e1b124217b7526d49fa7d5a","gas":"0x5208","gasPrice":"0x3aa6c1d","hash":"0x0fa76c6965610447be842efb8332de9b1124f1ae0f3779ea93e341f9cd893009","input":"0x","nonce":"0x0","r":"0xe9401c19cfdfaa20b29a100954a90ba666f898d05c0f8de717a713dc3d5968f","s":"0x77e27229ce4412b771bc3b565e155f0fc4cb929eec133871f90307a6fe1e1f63","to":"0x4c9cb66fb5addf89cccabcbb2130783cf03b2abf","transactionIndex":"0x30","type":"0x0","v":"0x38","value":"0x46214d869e850"},{"blockHash":"0xffc8ff9a0dc535519bf8706504d7d8ca7e053b83a27c3179a4f8d67b11417df0","blockNumber":"0x71bcd87","chainId":"0xa","from":"0xc86cb745d37c72a36d07f18577e9ad528149de68","gas":"0x5208","gasPrice":"0x3aa6c1d","hash":"0x6e47383fb2b49bdb2918641543fc0de2c8f94c0f3aa5a2f674f550131df02ab8","input":"0x","nonce":"0x0","r":"0x4862a75e6936f74fcbc2655b3c202f193ed658d60935e1502052a7a2a5b7019e","s":"0x4186ad201c2b01e7bdd7d460db90a03e8fa6cd9d29b95aa5bce01091f18f5781","to":"0xe75b189f7032b5d5b84d94a4d45e50fe0960bdd2","transactionIndex":"0x31","type":"0x0","v":"0x37","value":"0x46215e8136ca8"},{"blockHash":"0xffc8ff9a0dc535519bf8706504d7d8ca7e053b83a27c3179a4f8d67b11417df0","blockNumber":"0x71bcd87","chainId":"0xa","from":"0x8bf5b32f1d0015ccdc3af4e8a53c046da190c2cb","gas":"0x5208","gasPrice":"0x3aa6c1d","hash":"0x473c6eea83978d0784c99573c27fa32b48e90b409b4fca7b9251c2568f0366d4","input":"0x","nonce":"0x0","r":"0x6c37bf7e55a996958ea84b389ab7a6d31e0f948250d57c99b13ca53cfacf7fd","s":"0x7b63780de85f406c0a34847e0743507e9ca62f1dec81b04c9be7294fae6e18fa","to":"0xa5be233e4130d60b44b359a369db6cd70a37cbd6","transactionIndex":"0x32","type":"0x0","v":"0x37","value":"0x462144b1fe4e0"},{"blockHash":"0xffc8ff9a0dc535519bf8706504d7d8ca7e053b83a27c3179a4f8d67b11417df0","blockNumber":"0x71bcd87","chainId":"0xa","from":"0xbd01f708ac5c1f9dedf6c1f932fc65dc4c19694c","gas":"0x5208","gasPrice":"0x3aa6c1d","hash":"0xfd841caa58c93b0f0e297b2ffbcb618811bb676f89374f2f5454154e0051d7d2","input":"0x","nonce":"0x0","r":"0x340b673ec024f3f4cc70099d82547a85b7602fa293a4ed5d4e541ad99049fb0e","s":"0xee7aa5ed8cb225e2f4b07ca93b5f011870e117481dcc9d17076d068351f6187","to":"0x1764dbd1ead0c8d969f44321b46377749d220409","transactionIndex":"0x33","type":"0x0","v":"0x37","value":"0x462144b1fe4e0"},{"blockHash":"0xffc8ff9a0dc535519bf8706504d7d8ca7e053b83a27c3179a4f8d67b11417df0","blockNumber":"0x71bcd87","chainId":"0xa","from":"0xe3594246b810d73991f2fb7d6320983c8c0eeb60","gas":"0x5208","gasPrice":"0x3aa6c1d","hash":"0x76b19590a4a58a6dfe7fe00d2317d32cb55eeff6551692416f52706f414a5594","input":"0x","nonce":"0x0","r":"0xf4f6caa2791747c9875b962d3da99a19125b6c418bb09cce367c09d12b9ca298","s":"0x2bf9ab7a3e112a13fcf1e47c36513ddb9ecb7b420678ed4dd3c16944649091f6","to":"0x911b98dcbdb84c17072c950f29c8a5071709bbf7","transactionIndex":"0x34","type":"0x0","v":"0x38","value":"0x461aeb650dc58"},{"blockHash":"0xffc8ff9a0dc535519bf8706504d7d8ca7e053b83a27c3179a4f8d67b11417df0","blockNumber":"0x71bcd87","chainId":"0xa","from":"0x82054bc32a01083a2a5e132fea16512ee87a5ced","gas":"0x5208","gasPrice":"0x3aa6c1d","hash":"0x1847d86cc3a1d1df960c2f8df975418debdd02c692917056c48fd6c7d4003d29","input":"0x","nonce":"0x0","r":"0x54c7ed46dd915f132b667e01539c49b845678180bcdf065abc57fc24b2163a93","s":"0x1ce8afe155a1eacae76a4847b5fb0d499cf4caf6003d019180cc76524d4d273c","to":"0x604f13b7fa6dcdfbdd5be5e30f18926f11dbe102","transactionIndex":"0x35","type":"0x0","v":"0x38","value":"0x46216be33d890"},{"blockHash":"0xffc8ff9a0dc535519bf8706504d7d8ca7e053b83a27c3179a4f8d67b11417df0","blockNumber":"0x71bcd87","chainId":"0xa","from":"0x7eacac1c2ba3edec53004ce6472ea198166bc050","gas":"0x5208","gasPrice":"0x3aa6c1d","hash":"0x1903903f7f3950fd159541a311fdbeca5303fb14f860c55e9238f4d99fc0983c","input":"0x","nonce":"0x0","r":"0xfe8d58881324c07aee97478257f2db4acde2ccddb8d22bec14aed11d1b1f0a25","s":"0x2a17d854f42e4adcd78c9bf5067dfa8fe92abc6225bd8ef9e3d448a309450c9","to":"0x2aaf75327c4e6b9c0c9806aae9f01b6d5ccb1ced","transactionIndex":"0x36","type":"0x0","v":"0x38","value":"0x46216b0d1c270"},{"blockHash":"0xffc8ff9a0dc535519bf8706504d7d8ca7e053b83a27c3179a4f8d67b11417df0","blockNumber":"0x71bcd87","chainId":"0xa","from":"0x9a0859d4e59614b74555a931ecb6e9af0dbb662d","gas":"0x5208","gasPrice":"0x3aa6c1d","hash":"0xd7604743f169d4d9e7e980fc4bc1b97bc1ef34442da0e567dda342ef10847b35","input":"0x","nonce":"0x0","r":"0xe64710a5011fcedd7b0298e1322737e0a15f75d83918375a8f8ee21c86efb194","s":"0x7493e4bbf6607d61f457dfb2070c38139af2d401c26c883d8d605b278779c841","to":"0xeae7bf452ce655341c5eb8a237f4ff7bdd914959","transactionIndex":"0x37","type":"0x0","v":"0x38","value":"0x46212839fd4d0"},{"blockHash":"0xffc8ff9a0dc535519bf8706504d7d8ca7e053b83a27c3179a4f8d67b11417df0","blockNumber":"0x71bcd87","chainId":"0xa","from":"0x63999fbe68107ed1590fb1f9e067f9864fdab267","gas":"0x5208","gasPrice":"0x3aa6c1d","hash":"0xfadbaff5713919aedbd8eae9769ce9f39ecad8ec5550a3b605a3984c8881aea5","input":"0x","nonce":"0x0","r":"0x9052c2176ce73a40e4b1e3dadf28c63c08cd2a08f93b904808e788fe4788166c","s":"0x37d9ed952258e975970520922ce39d688f4bff37b9dbcd64e186279e220d3755","to":"0x5bcdaa4bc9bb76dfb4c248902268438b4b3af90c","transactionIndex":"0x38","type":"0x0","v":"0x37","value":"0x462144b1fe4e0"},{"blockHash":"0xffc8ff9a0dc535519bf8706504d7d8ca7e053b83a27c3179a4f8d67b11417df0","blockNumber":"0x71bcd87","chainId":"0xa","from":"0x0a006c5aaeeadefe57b5b3627b1ff9e3efe4a3b7","gas":"0x5208","gasPrice":"0x3aa6c1d","hash":"0x891a1c4f90dd261426b69c6a50bb6d84fe74b61937405363189e182fbbefaa5f","input":"0x","nonce":"0x0","r":"0xfaf73e058d87afc578f8f6c5081eb8f7c325198688c3247d2117f37397202cb1","s":"0x125e1ee76ed1eb465b68ae92e99a911d9511bb46cc7c208ba00a87bf1ed1e846","to":"0xc2a9798026e6f0c6acd08fe0d4bf279060b7238b","transactionIndex":"0x39","type":"0x0","v":"0x37","value":"0x46214d869e850"},{"blockHash":"0xffc8ff9a0dc535519bf8706504d7d8ca7e053b83a27c3179a4f8d67b11417df0","blockNumber":"0x71bcd87","chainId":"0xa","from":"0x8da985e5dd3e47ec104b0724cdffbd5b4e92b9cc","gas":"0x5208","gasPrice":"0x3aa6c1d","hash":"0x41e5fe48d1e66322f82f63f7e567d540d361e39e26a0c6467c8ff39036221574","input":"0x","nonce":"0x0","r":"0x1dbfe6b32978b75a2445c06108e59afa28f9bd7ad37b13e9ffa39fbd63298d57","s":"0x639a0e96c965bcb209c5ad12351c23a1f94982d61401633521de54d9945b7bd6","to":"0x3ff3a9a4239397465ca87222ea6417c8aa20f1a4","transactionIndex":"0x3a","type":"0x0","v":"0x37","value":"0x46216755d7018"},{"blockHash":"0xffc8ff9a0dc535519bf8706504d7d8ca7e053b83a27c3179a4f8d67b11417df0","blockNumber":"0x71bcd87","chainId":"0xa","from":"0xfbb57f7f623c4efc8655f0b66ca8534a07d8cfd7","gas":"0x5208","gasPrice":"0x3aa6c1d","hash":"0x3e47990bfe9428c19ceec76df30d9531d12c197ee175e7c211a637e35f0635b8","input":"0x","nonce":"0x0","r":"0x1c204109bf741f7e79de3a129957c1a2787c50ce4696d5f5da67e54eb42cf14","s":"0x5a0e71621bfd9cc4a624c727b42ab5de68b837bda0568861692f654710788a2","to":"0xfb0b40d95b2bd90cbfe64dc2c4ebb0a609e00dea","transactionIndex":"0x3b","type":"0x0","v":"0x37","value":"0x46214d869e850"},{"blockHash":"0xffc8ff9a0dc535519bf8706504d7d8ca7e053b83a27c3179a4f8d67b11417df0","blockNumber":"0x71bcd87","chainId":"0xa","from":"0xddc9fa510527642dc87370d82bbf34bd63e375b8","gas":"0x5208","gasPrice":"0x3aa6c1d","hash":"0x9fa605645aa0f1f678733f397e357fdd1d0771b2ee64f09f8bf911d05da4f02c","input":"0x","nonce":"0x0","r":"0xa6de0c71af169c170340f20f583556d8db6caf2feb34325b54978dc0d6af9ef4","s":"0x4bb7b298784640ec842275b8184a9429396b614fbb8b9c845cab2206283e9aa5","to":"0x3a1ea81b7d1640cd44e74ad70db3fe7c2492170e","transactionIndex":"0x3c","type":"0x0","v":"0x37","value":"0x46214d869e850"},{"blockHash":"0xffc8ff9a0dc535519bf8706504d7d8ca7e053b83a27c3179a4f8d67b11417df0","blockNumber":"0x71bcd87","chainId":"0xa","from":"0xf5d2158dc8c31a885278d9faecd66e20fa33ec02","gas":"0x5208","gasPrice":"0x3aa6c1d","hash":"0x925610d829571f508a1d91a6079c4c764a01a3790f456e32913a7dbdf8606f33","input":"0x","nonce":"0x0","r":"0x6358ccafb2778e9fba98335c2a833940406bc696dc990d4e21e1648696721f21","s":"0x1e17d354bf20f46418266ca3256b0b7d40cda56ea9f06dc2c1608d22b4d34e6d","to":"0x5bc75d5814ba66093c26ab2fcadd3767787a870f","transactionIndex":"0x3d","type":"0x0","v":"0x37","value":"0x46200121b26f0"},{"blockHash":"0xffc8ff9a0dc535519bf8706504d7d8ca7e053b83a27c3179a4f8d67b11417df0","blockNumber":"0x71bcd87","chainId":"0xa","from":"0x91dfbd17a7cfe25976572aed84e1b681e2c7b80b","gas":"0x5208","gasPrice":"0x3aa6c1d","hash":"0x391fc790bea7da6b3eeae8dd063e42896eaeb379a719c9556e1a1665acb90956","input":"0x","nonce":"0x0","r":"0x2b0c4aecda491776d4352ca59f5d9a0fb92da55cd7eb824677b9500eff20fc6","s":"0x1d0b9303ed6548e6decade19d85d120ef4c8fec93a49747aa7ddc337b680f4bc","to":"0x04e25e9cadaaedeea2d3ef98463d560a13e2dbad","transactionIndex":"0x3e","type":"0x0","v":"0x38","value":"0x46214d869e850"},{"blockHash":"0xffc8ff9a0dc535519bf8706504d7d8ca7e053b83a27c3179a4f8d67b11417df0","blockNumber":"0x71bcd87","chainId":"0xa","from":"0xb5a38ae108e8d680a62a6d4d2e3d88944848488c","gas":"0x5208","gasPrice":"0x3aa6c1d","hash":"0x348746633d0443920c0d13a6f1c5a03f31b305e8840c2deb1a5d7b26328f3e5c","input":"0x","nonce":"0x0","r":"0x243454d6268a47af7eecc2a37a3a0a5c3c133ff08da0fc70256f7248fc5d9f4f","s":"0x4a6dece288665fb3966a5617c99f0dcbc0e35bbd4486e0afbe7bcf701c22f473","to":"0x0b42499b89f8c769b587434393b7bdaba3d71962","transactionIndex":"0x3f","type":"0x0","v":"0x38","value":"0x46214d869e850"},{"accessList":[],"blockHash":"0xffc8ff9a0dc535519bf8706504d7d8ca7e053b83a27c3179a4f8d67b11417df0","blockNumber":"0x71bcd87","chainId":"0xa","from":"0x6809501ef4df4a4c78024bd50ba4bef3d5af17a9","gas":"0x73cc5","gasPrice":"0x3a92d1a","hash":"0x9bf834f9c60fe36c1f2209146336102f9d4bad74e4fb84248f6c79e225c66628","input":"0x82ad56cb00000000000000000000000000000000000000000000000000000000000000200000000000000000000000000000000000000000000000000000000000000008000000000000000000000000000000000000000000000000000000000000010000000000000000000000000000000000000000000000000000000000000003e000000000000000000000000000000000000000000000000000000000000006c000000000000000000000000000000000000000000000000000000000000009a00000000000000000000000000000000000000000000000000000000000000c800000000000000000000000000000000000000000000000000000000000000f6000000000000000000000000000000000000000000000000000000000000012400000000000000000000000000000000000000000000000000000000000001520000000000000000000000000b767516da3a7504877498e5d627d8e0bf93cad210000000000000000000000000000000000000000000000000000000000000001000000000000000000000000000000000000000000000000000000000000006000000000000000000000000000000000000000000000000000000000000002446a7612020000000000000000000000007f5c764cbc14f9669b88837ca1490cca17c316070000000000000000000000000000000000000000000000000000000000000000000000000000000000000000000000000000000000000000000000000000014000000000000000000000000000000000000000000000000000000000000000000000000000000000000000000000000000000000000000000000000000000000000000000000000000000000000000000000000000000000000000000000000000000000000000000000000000000000000000000000000000000000000000000000000000000000000000000000000000000000000000000000000000000000000000000000000000000000000000000000000000000000000000000000000000000000000000000000000000000000000000000000000000000000000001c00000000000000000000000000000000000000000000000000000000000000044a9059cbb000000000000000000000000864d67b021ca5ca5d71fb3aff1cc951f2d268ecb0000000000000000000000000000000000000000000000000000000000d8b0ef0000000000000000000000000000000000000000000000000000000000000000000000000000000000000000000000000000000000000000000000415831956085cd56b93f2f368c432728b40cc6d21a0aad5e987464f1ac3cad77a175bccdc6c9dc6e570a7f0b2e68a04718da21a4447662e7ce2ed58f3750ca8bf81b000000000000000000000000000000000000000000000000000000000000000000000000000000000000000000000000000000000000000000000000000000000000000000000085b8e34d4e0f563f1b025c32dd48a6fa89044c260000000000000000000000000000000000000000000000000000000000000001000000000000000000000000000000000000000000000000000000000000006000000000000000000000000000000000000000000000000000000000000002446a761202000000000000000000000000dc6ff44d5d932cbd77b52e5612ba0529dc6226f10000000000000000000000000000000000000000000000000000000000000000000000000000000000000000000000000000000000000000000000000000014000000000000000000000000000000000000000000000000000000000000000000000000000000000000000000000000000000000000000000000000000000000000000000000000000000000000000000000000000000000000000000000000000000000000000000000000000000000000000000000000000000000000000000000000000000000000000000000000000000000000000000000000000000000000000000000000000000000000000000000000000000000000000000000000000000000000000000000000000000000000000000000000000000000000001c00000000000000000000000000000000000000000000000000000000000000044a9059cbb000000000000000000000000d35713a78a860247fec4bd16e100b464f04ad71900000000000000000000000000000000000000000000000029a2241af62c00000000000000000000000000000000000000000000000000000000000000000000000000000000000000000000000000000000000000000000000000412360784dc477e23b372ebe2f1e52ed15474ee9ce84b46e9466d3aa716b301c5643e5ad9860fd60c94b732c479a141788a148afcec127136c23676075fab882de1c000000000000000000000000000000000000000000000000000000000000000000000000000000000000000000000000000000000000000000000000000000000000000000000042279f0ff273f0ce9dd3e115b0a2e48734c4d3ee0000000000000000000000000000000000000000000000000000000000000001000000000000000000000000000000000000000000000000000000000000006000000000000000000000000000000000000000000000000000000000000002446a761202000000000000000000000000dc6ff44d5d932cbd77b52e5612ba0529dc6226f10000000000000000000000000000000000000000000000000000000000000000000000000000000000000000000000000000000000000000000000000000014000000000000000000000000000000000000000000000000000000000000000000000000000000000000000000000000000000000000000000000000000000000000000000000000000000000000000000000000000000000000000000000000000000000000000000000000000000000000000000000000000000000000000000000000000000000000000000000000000000000000000000000000000000000000000000000000000000000000000000000000000000000000000000000000000000000000000000000000000000000000000000000000000000000000001c00000000000000000000000000000000000000000000000000000000000000044a9059cbb0000000000000000000000009d0248eeb5579c429e68c72812426ae9ab484ae900000000000000000000000000000000000000000000000029a2241af62c0000000000000000000000000000000000000000000000000000000000000000000000000000000000000000000000000000000000000000000000000041fb64e18dc74b03e8c1f51b4dc9f6f484450a612b7de7feed26478d05e7781f5c6156d7fc5148893214be276cff5cb3b5d4105ba31e29ad860fcdd9360dcdaebb1c00000000000000000000000000000000000000000000000000000000000000000000000000000000000000000000000000000000000000000000000000000000000000000000009a8eb643ccf08a8b88765b6172ef9c88675dc39a0000000000000000000000000000000000000000000000000000000000000001000000000000000000000000000000000000000000000000000000000000006000000000000000000000000000000000000000000000000000000000000002446a761202000000000000000000000000dc6ff44d5d932cbd77b52e5612ba0529dc6226f10000000000000000000000000000000000000000000000000000000000000000000000000000000000000000000000000000000000000000000000000000014000000000000000000000000000000000000000000000000000000000000000000000000000000000000000000000000000000000000000000000000000000000000000000000000000000000000000000000000000000000000000000000000000000000000000000000000000000000000000000000000000000000000000000000000000000000000000000000000000000000000000000000000000000000000000000000000000000000000000000000000000000000000000000000000000000000000000000000000000000000000000000000000000000000000001c00000000000000000000000000000000000000000000000000000000000000044a9059cbb000000000000000000000000a324d1feb9e1f4180527a3f38760fbb9070b9d2d0000000000000000000000000000000000000000000000000002246ce0ccb000000000000000000000000000000000000000000000000000000000000000000000000000000000000000000000000000000000000000000000000041941a2dc67b1240ae3216bd05790516dd6d943702aa068c6c6120cbeec8c65bc27fd06a6915b9609111e64a255c042b16d5a92a51a3d3d9f953bbcbdd2e73d8261c00000000000000000000000000000000000000000000000000000000000000000000000000000000000000000000000000000000000000000000000000000000000000000000002f5bcc290796f1506c2e247095464df955eab8360000000000000000000000000000000000000000000000000000000000000001000000000000000000000000000000000000000000000000000000000000006000000000000000000000000000000000000000000000000000000000000002446a761202000000000000000000000000dc6ff44d5d932cbd77b52e5612ba0529dc6226f10000000000000000000000000000000000000000000000000000000000000000000000000000000000000000000000000000000000000000000000000000014000000000000000000000000000000000000000000000000000000000000000000000000000000000000000000000000000000000000000000000000000000000000000000000000000000000000000000000000000000000000000000000000000000000000000000000000000000000000000000000000000000000000000000000000000000000000000000000000000000000000000000000000000000000000000000000000000000000000000000000000000000000000000000000000000000000000000000000000000000000000000000000000000000000000001c00000000000000000000000000000000000000000000000000000000000000044a9059cbb0000000000000000000000007f55390f7a2e80e361d6fa60d9eff4e26dd26d2e00000000000000000000000000000000000000000000000029a2241af62c0000000000000000000000000000000000000000000000000000000000000000000000000000000000000000000000000000000000000000000000000041634b3f214c689f24e452bfbcb85b1eed1bdfb57b79f2c74c124b4392726e99456d9da1e98c63b9355fbc4f078903b800b382a9044bebda4d63086a7a0e0491e51b000000000000000000000000000000000000000000000000000000000000000000000000000000000000000000000000000000000000000000000000000000000000000000000053714525a93034cb4a2dfd07ace965ea390d48c80000000000000000000000000000000000000000000000000000000000000001000000000000000000000000000000000000000000000000000000000000006000000000000000000000000000000000000000000000000000000000000002446a761202000000000000000000000000dc6ff44d5d932cbd77b52e5612ba0529dc6226f10000000000000000000000000000000000000000000000000000000000000000000000000000000000000000000000000000000000000000000000000000014000000000000000000000000000000000000000000000000000000000000000000000000000000000000000000000000000000000000000000000000000000000000000000000000000000000000000000000000000000000000000000000000000000000000000000000000000000000000000000000000000000000000000000000000000000000000000000000000000000000000000000000000000000000000000000000000000000000000000000000000000000000000000000000000000000000000000000000000000000000000000000000000000000000000001c00000000000000000000000000000000000000000000000000000000000000044a9059cbb00000000000000000000000099db10273b591d4751d4bc8609e4bbb4dcc5c57200000000000000000000000000000000000000000000000000034cebaaff1000000000000000000000000000000000000000000000000000000000000000000000000000000000000000000000000000000000000000000000000041520d63cfc6fc0377c83e0cc444d65ead48f4880bf987d26232e5649df4b201c7102bd28426250b71913f7a456c7a9d00354849216f4b79b413be90499bd884361c0000000000000000000000000000000000000000000000000000000000000000000000000000000000000000000000000000000000000000000000000000000000000000000000e24b0b505eed8b31077b84c743eecd3713b490f90000000000000000000000000000000000000000000000000000000000000001000000000000000000000000000000000000000000000000000000000000006000000000000000000000000000000000000000000000000000000000000002446a761202000000000000000000000000dc6ff44d5d932cbd77b52e5612ba0529dc6226f10000000000000000000000000000000000000000000000000000000000000000000000000000000000000000000000000000000000000000000000000000014000000000000000000000000000000000000000000000000000000000000000000000000000000000000000000000000000000000000000000000000000000000000000000000000000000000000000000000000000000000000000000000000000000000000000000000000000000000000000000000000000000000000000000000000000000000000000000000000000000000000000000000000000000000000000000000000000000000000000000000000000000000000000000000000000000000000000000000000000000000000000000000000000000000000001c00000000000000000000000000000000000000000000000000000000000000044a9059cbb000000000000000000000000d477bb65afd44946ef6e4cce192a6ba20f9d8c860000000000000000000000000000000000000000000000005346604c989aa4c8000000000000000000000000000000000000000000000000000000000000000000000000000000000000000000000000000000000000000000000041933e7f277ab0b8e3ea31d5057cd44f0da7c5f50e01bae99d0722b38d89c208cb75c18c186a5f93032f44706c894c8076f21d9db969436972b61224971a2a0bee1b0000000000000000000000000000000000000000000000000000000000000000000000000000000000000000000000000000000000000000000000000000000000000000000000b1f46ab2baaad71ae255289087c9915d7dd603190000000000000000000000000000000000000000000000000000000000000001000000000000000000000000000000000000000000000000000000000000006000000000000000000000000000000000000000000000000000000000000002446a761202000000000000000000000000dc6ff44d5d932cbd77b52e5612ba0529dc6226f10000000000000000000000000000000000000000000000000000000000000000000000000000000000000000000000000000000000000000000000000000014000000000000000000000000000000000000000000000000000000000000000000000000000000000000000000000000000000000000000000000000000000000000000000000000000000000000000000000000000000000000000000000000000000000000000000000000000000000000000000000000000000000000000000000000000000000000000000000000000000000000000000000000000000000000000000000000000000000000000000000000000000000000000000000000000000000000000000000000000000000000000000000000000000000000001c00000000000000000000000000000000000000000000000000000000000000044a9059cbb0000000000000000000000000ed78ae2a0800d6395cf9e311659323bf2822c5600000000000000000000000000000000000000000000000029a2241af62c0000000000000000000000000000000000000000000000000000000000000000000000000000000000000000000000000000000000000000000000000041d79443a6bc1131a52335cb757cbd14c8d64724af3c05ebb46f309469d16de2873d1ed4d715e56789c2460f2012dc1e71a88f4f680f9fb0ecd4826d30bef92a541c0000000000000000000000000000000000000000000000000000000000000000000000000000000000000000000000000000000000000000000000","maxFeePerGas":"0x7463ad2","maxPriorityFeePerGas":"0x1246f2","nonce":"0xcb878","r":"0xfcc9fe4a7a688427eb8fff5002e0bb72e382c09ecfc327918816dcf0e402e563","s":"0x52cf27509002e51f59dd2d047237c9569da799c5d518dfe22e31b9ed34c4653a","to":"0x087000a300de7200382b55d40045000000e5d60e","transactionIndex":"0x40","type":"0x2","v":"0x1","value":"0x0","yParity":"0x1"},{"blockHash":"0xffc8ff9a0dc535519bf8706504d7d8ca7e053b83a27c3179a4f8d67b11417df0","blockNumber":"0x71bcd87","chainId":"0xa","from":"0xa2b8d8719a8201cdb6228cfef0b927426ed0cd1d","gas":"0x5208","gasPrice":"0x3a8e2c4","hash":"0x355d8c325872f46c78f19517886a47a10e739dea407759cf801e476d7a6763aa","input":"0x","nonce":"0x0","r":"0x6c669e7b75e3ad0633ec068a6715794d7ad4e6d267a6e471d04a97879c4db296","s":"0x7eef1bb80319f1be9b6cf2af15b39540ec415a354bf476cf0a363df36d6b80a","to":"0xd22c1c4fb92757815d798b152074a52d1da6c574","transactionIndex":"0x41","type":"0x0","v":"0x37","value":"0x46216528a4ea8"},{"accessList":[],"blockHash":"0xffc8ff9a0dc535519bf8706504d7d8ca7e053b83a27c3179a4f8d67b11417df0","blockNumber":"0x71bcd87","chainId":"0xa","from":"0xc05b634b16413c6c3f457ada6fd6fc2b6658a97c","gas":"0x754f48","gasPrice":"0x3a51c53","hash":"0xfce7d32c11b464d7295f4ac0a1cb78367a3a88c432d125c391adad769ae284ba","input":"0xf5878b9b00000000000000000000000000000000000000000000000000000000000199df000000000000000000000000c05b634b16413c6c3f457ada6fd6fc2b6658a97c","maxFeePerGas":"0xaebc2f2","maxPriorityFeePerGas":"0xe362b","nonce":"0x1aa","r":"0x3bc387c7feab6a77c8773e4b7b7d780f5724732b957a589aae66a23a244b849","s":"0x313979931258b026c3fe779218845c02dddee74d150341180c489d3836570ac","to":"0xaf18644083151cf57f914cccc23c42a1892c218e","transactionIndex":"0x42","type":"0x2","v":"0x0","value":"0x0","yParity":"0x0"},{"accessList":[],"blockHash":"0xffc8ff9a0dc535519bf8706504d7d8ca7e053b83a27c3179a4f8d67b11417df0","blockNumber":"0x71bcd87","chainId":"0xa","from":"0x7e0cd31d1ca996f705cd26351ab90c101d2f8cc2","gas":"0xb7c0","gasPrice":"0x3a51c53","hash":"0x48bea5c5bc9a1131e26f7541b728ee66276e8bcee3ea84102bb96cf770b6107e","input":"0x095ea7b3000000000000000000000000000000000022d473030f116ddee9f6b43ac78ba3ffffffffffffffffffffffffffffffffffffffffffffffffffffffffffffffff","maxFeePerGas":"0xaebc2f2","maxPriorityFeePerGas":"0xe362b","nonce":"0x0","r":"0xfa37fb7c383f585bf2c434c073275ed642efbf7fb89bed08423b5521af876b6f","s":"0x4875732dcf4fed97363b0b053f61d81c4a15bc11bb90a99ff064ec037162f407","to":"0x94b008aa00579c1307b0ef2c499ad98a8ce58e58","transactionIndex":"0x43","type":"0x2","v":"0x0","value":"0x0","yParity":"0x0"},{"accessList":[],"blockHash":"0xffc8ff9a0dc535519bf8706504d7d8ca7e053b83a27c3179a4f8d67b11417df0","blockNumber":"0x71bcd87","chainId":"0xa","from":"0x668dbf4c4b84fd747565f270e8698bbd6526ebe1","gas":"0x77efb","gasPrice":"0x3a51c53","hash":"0xdaa336a6c2733eb52518a916162039886399439b91dbe07a8da3c422cdf56a62","input":"0x1114cd2a000000000000000000000000000000000000000000000000000000000000006e000000000000000000000000668dbf4c4b84fd747565f270e8698bbd6526ebe100000000000000000000000000000000000000000000000000000000000000a00000000000000000000000000000000000000000000000000063e81df1a25c000000000000000000000000000000000000000000000000000063683c83a044800000000000000000000000000000000000000000000000000000000000000014668dbf4c4b84fd747565f270e8698bbd6526ebe1000000000000000000000000","maxFeePerGas":"0xaeff315","maxPriorityFeePerGas":"0xe362b","nonce":"0x0","r":"0x2042bdb8c13df8c5cb3af9e8a182bd0023d896f12a28a12be6b0b5a90b3143f3","s":"0x35b308f824f648d0f7ba932124dd557e8728e8dc131d0342ec79133bf7ed703f","to":"0xb49c4e680174e331cb0a7ff3ab58afc9738d5f8b","transactionIndex":"0x44","type":"0x2","v":"0x1","value":"0x644866ad17b547","yParity":"0x1"},{"accessList":[],"blockHash":"0xffc8ff9a0dc535519bf8706504d7d8ca7e053b83a27c3179a4f8d67b11417df0","blockNumber":"0x71bcd87","chainId":"0xa","from":"0x2e78aebf9c3e6f1e8dcc91206927c1bf95b5e370","gas":"0x18c4b4","gasPrice":"0x3a51c53","hash":"0xc305328a0fa71b2a993ef05230d65b7c683c55e31d26027e7ea4ba777048d09a","input":"0xbe1eace700000000000000000000000000000000000000000000000000000000000000400000000000000000000000000000000000000000000000000000000000000200345fa439a54ebb7bca500b178bf44a6684feb240fef543e2120ce4d454038bbc0000000000000000000000000000000000000000000000000000000000000140000000000000000000000000000000000000000000000000000000000000018000000000000000000000000000000000000000000000000000000000000000000000000000000000000000007f5c764cbc14f9669b88837ca1490cca17c316070000000000000000000000002e78aebf9c3e6f1e8dcc91206927c1bf95b5e37000000000000000000000000000000000000000000000000000000000498d5880000000000000000000000000000000000000000000000000000000000000a4b10000000000000000000000000000000000000000000000000000000000000000000000000000000000000000000000000000000000000000000000000000000000000000000000000000000000000000000000000000000000000000000000087374617267617465000000000000000000000000000000000000000000000000000000000000000000000000000000000000000000000000000000000000000f6a756d7065722e65786368616e676500000000000000000000000000000000000000000000000000000000000000000000000000000000000000000000000001000000000000000000000000000000000000000000000000000000000000000100000000000000000000000000000000000000000000000000000000491daef4000000000000000000000000000000000000000000000000000000000000000000000000000000000000000000000000000000000000000000006048bb7559470000000000000000000000002e78aebf9c3e6f1e8dcc91206927c1bf95b5e3700000000000000000000000000000000000000000000000000000000000000100000000000000000000000000000000000000000000000000000000000000014000000000000000000000000000000000000000000000000000000000000000142e78aebf9c3e6f1e8dcc91206927c1bf95b5e3700000000000000000000000000000000000000000000000000000000000000000000000000000000000000000","maxFeePerGas":"0xaeff315","maxPriorityFeePerGas":"0xe362b","nonce":"0x3c","r":"0xf973a7df6f572036b1a986c1180e10558bbebd4e44c4667746adcd3035fb7909","s":"0x29f81730f49a6fd7ae5e6cd849e1dded6bb3082c6eb2cc8575373f83009e5ea9","to":"0x1231deb6f5749ef6ce6943a275a1d3e7486f4eae","transactionIndex":"0x45","type":"0x2","v":"0x1","value":"0x6048bb755947","yParity":"0x1"},{"accessList":[],"blockHash":"0xffc8ff9a0dc535519bf8706504d7d8ca7e053b83a27c3179a4f8d67b11417df0","blockNumber":"0x71bcd87","chainId":"0xa","from":"0xc94f84202ee4735851b1735806eb2cd98c1792c6","gas":"0xa477c","gasPrice":"0x3a51c53","hash":"0x350a9783ab3b978cb19e0813e08700a025906f03f96eed75980ac94f6ceb85e8","input":"0x1fd8010c000000000000000000000000000000000000000000000000000000000000004000000000000000000000000000000000000000000000000000000000000002000a75681182745ee1ec710e78289cff4ec1bf4bc5419e5c278973962783423ca20000000000000000000000000000000000000000000000000000000000000140000000000000000000000000000000000000000000000000000000000000018000000000000000000000000000000000000000000000000000000000000000000000000000000000000000000000000000000000000000000000000000000000000000000000000000000000c94f84202ee4735851b1735806eb2cd98c1792c6000000000000000000000000000000000000000000000000188217a4b1570000000000000000000000000000000000000000000000000000000000000000a4b10000000000000000000000000000000000000000000000000000000000000000000000000000000000000000000000000000000000000000000000000000000000000000000000000000000000000000000000000000000000000000000000066163726f73730000000000000000000000000000000000000000000000000000000000000000000000000000000000000000000000000000000000000000000f6a756d7065722e65786368616e67650000000000000000000000000000000000000000000000000000000000000000000000000000000000000136bfbfacedef00000000000000000000000000000000000000000000000000000000662b73b70000000000000000000000000000000000000000000000000000000000000080ffffffffffffffffffffffffffffffffffffffffffffffffffffffffffffffff0000000000000000000000000000000000000000000000000000000000000000d00dfeeddeadbeef8932eb23bad9bddb5cf81426f78279a53c6c3b71","maxFeePerGas":"0xaebc2f2","maxPriorityFeePerGas":"0xe362b","nonce":"0x0","r":"0x7c015940a0e9c2dcc7119730cf4f1f953b630527d70db81c93fcfa0a21125e28","s":"0x33993238ffeb2a1daab869434ea4c3b6132e2c4e412dd7b7cc6b01fdb4b75e88","to":"0x1231deb6f5749ef6ce6943a275a1d3e7486f4eae","transactionIndex":"0x46","type":"0x2","v":"0x1","value":"0x188217a4b1570000","yParity":"0x1"},{"accessList":[],"blockHash":"0xffc8ff9a0dc535519bf8706504d7d8ca7e053b83a27c3179a4f8d67b11417df0","blockNumber":"0x71bcd87","chainId":"0xa","from":"0xa1eca898ad4a4909c527c78b559ffdad005e761d","gas":"0x24fb6","gasPrice":"0x3a51c53","hash":"0xdc3f8c5bc84bf3e2e57e408d6605fc441d2d5773398c902ba8d8a48f624d1e18","input":"0xd0e30db0","maxFeePerGas":"0xaebc2f2","maxPriorityFeePerGas":"0xe362b","nonce":"0x16","r":"0x7ed7e57e669519426b23696996b445825f645ad3f6096c59514826ade8907f65","s":"0x56b65ac7e3341f9833bd11f6539ccf8c3eda12507439e246df8948f8aca888aa","to":"0xdeafc27ac8f977e6973d671e43cbfd2573021d9e","transactionIndex":"0x47","type":"0x2","v":"0x0","value":"0x8e1bc9bf040000","yParity":"0x0"}],"transactionsRoot":"0x0c0324ef1094da4b8dc72870f1d2b968458174c4b3ab0a1b29fd576971a3e7a5","uncles":[],"withdrawals":[],"withdrawalsRoot":"0x56e81f171bcc55a6ff8345e692c0f86e5b48e01b996cadc001622fb5e363b421"},"id":
        0}

        '
    headers:
      CF-RAY:
      - 9d6b899f2ef70b30-AMS
      Cache-Control:
      - max-age=0, private, must-revalidate
      Connection:
      - keep-alive
      Content-Type:
      - application/json; charset=utf-8
      Date:
      - Tue, 03 Mar 2026 20:54:39 GMT
      Nel:
      - '{"report_to":"cf-nel","success_fraction":0.0,"max_age":604800}'
      Report-To:
      - '{"group":"cf-nel","max_age":604800,"endpoints":[{"url":"https://a.nel.cloudflare.com/report/v4?s=19BW7aXu%2B%2B6man6No75bm6WPDb9UWyXY0mM9hDxi3pIKtUpWBq8EiUteH8A0QaSHbSm0hUpIzYytXHlf5%2FwQHtubYdpdRLBgZHuAjccGc6KtrMSyijUD9CLzbTSIgvq8"}]}'
      Server:
      - cloudflare
      Transfer-Encoding:
      - chunked
      access-control-allow-credentials:
      - 'true'
      access-control-allow-origin:
      - '*'
      access-control-expose-headers:
      - bypass-429-option,x-ratelimit-reset,x-ratelimit-limit,x-ratelimit-remaining,api-v2-temp-token
      alt-svc:
      - h3=":443"; ma=86400
      bypass-429-option:
      - no_bypass
      cf-cache-status:
      - DYNAMIC
      content-length:
      - '78221'
      strict-transport-security:
      - max-age=31536000; includeSubDomains
      x-ratelimit-limit:
      - '600'
      x-ratelimit-remaining:
      - '598'
      x-ratelimit-reset:
      - '20731'
      x-request-id:
      - 4fa5f891f8fd27e193143b40fd4b7a6b
    status:
      code: 200
      message: OK
- request:
    body: '{"id": 0, "jsonrpc": "2.0", "method": "eth_getTransactionReceipt", "params":
      ["0xdc3f8c5bc84bf3e2e57e408d6605fc441d2d5773398c902ba8d8a48f624d1e18"]}'
    headers:
      Accept:
      - '*/*'
      Accept-Encoding:
      - gzip, deflate
      Connection:
      - keep-alive
      Content-Length:
      - '148'
      Content-Type:
      - application/json
      User-Agent:
      - rotki/1.41.2.dev927+ge84fe3f5bf.d20260221
    method: POST
    uri: https://explorer.optimism.io/api/eth-rpc
  response:
    body:
      string: '{"jsonrpc":"2.0","result": {"blockHash":"0xffc8ff9a0dc535519bf8706504d7d8ca7e053b83a27c3179a4f8d67b11417df0","blockNumber":"0x71bcd87","contractAddress":null,"cumulativeGasUsed":"0xacdeaa","effectiveGasPrice":"0x3a51c53","from":"0xa1eca898ad4a4909c527c78b559ffdad005e761d","gasUsed":"0x1c72d","logs":[{"address":"0x4200000000000000000000000000000000000006","blockHash":"0xffc8ff9a0dc535519bf8706504d7d8ca7e053b83a27c3179a4f8d67b11417df0","blockNumber":"0x71bcd87","data":"0x000000000000000000000000000000000000000000000000008e1bc9bf040000","logIndex":"0x1c1","removed":false,"topics":["0xe1fffcc4923d04b559f4d29a8bfc6cda04eb5b0d3c460751c2402c5c5cc9109c","0x000000000000000000000000deafc27ac8f977e6973d671e43cbfd2573021d9e"],"transactionHash":"0xdc3f8c5bc84bf3e2e57e408d6605fc441d2d5773398c902ba8d8a48f624d1e18","transactionIndex":"0x47"},{"address":"0x5b977577eb8a480f63e11fc615d6753adb8652ae","blockHash":"0xffc8ff9a0dc535519bf8706504d7d8ca7e053b83a27c3179a4f8d67b11417df0","blockNumber":"0x71bcd87","data":"0x000000000000000000000000000000000000000000000000008b6bcab2fe5fbd","logIndex":"0x1c2","removed":false,"topics":["0xddf252ad1be2c89b69c2b068fc378daa952ba7f163c4a11628f55a4df523b3ef","0x0000000000000000000000000000000000000000000000000000000000000000","0x000000000000000000000000a1eca898ad4a4909c527c78b559ffdad005e761d"],"transactionHash":"0xdc3f8c5bc84bf3e2e57e408d6605fc441d2d5773398c902ba8d8a48f624d1e18","transactionIndex":"0x47"},{"address":"0x4200000000000000000000000000000000000006","blockHash":"0xffc8ff9a0dc535519bf8706504d7d8ca7e053b83a27c3179a4f8d67b11417df0","blockNumber":"0x71bcd87","data":"0x000000000000000000000000000000000000000000000000008e1bc9bf040000","logIndex":"0x1c3","removed":false,"topics":["0xddf252ad1be2c89b69c2b068fc378daa952ba7f163c4a11628f55a4df523b3ef","0x000000000000000000000000deafc27ac8f977e6973d671e43cbfd2573021d9e","0x0000000000000000000000005b977577eb8a480f63e11fc615d6753adb8652ae"],"transactionHash":"0xdc3f8c5bc84bf3e2e57e408d6605fc441d2d5773398c902ba8d8a48f624d1e18","transactionIndex":"0x47"},{"address":"0x5b977577eb8a480f63e11fc615d6753adb8652ae","blockHash":"0xffc8ff9a0dc535519bf8706504d7d8ca7e053b83a27c3179a4f8d67b11417df0","blockNumber":"0x71bcd87","data":"0x000000000000000000000000000000000000000000000000008b6bcab2fe5fbd000000000000000000000000000000000000000000000000008e1bc9bf040000","logIndex":"0x1c4","removed":false,"topics":["0x90890809c654f11d6e72a28fa60149770a0d11ec6c92319d6ceb2bb0a4ea1a15","0x000000000000000000000000a1eca898ad4a4909c527c78b559ffdad005e761d"],"transactionHash":"0xdc3f8c5bc84bf3e2e57e408d6605fc441d2d5773398c902ba8d8a48f624d1e18","transactionIndex":"0x47"}],"logsBloom":"0x00020000000008000000000000000000400000000400000000040000000000000000000000000000000000100000000008002000000000000000000000000000000000000000000000000008000000000000000000000000000000008000000000000000020000000000000000000a00000040000000000000000010000000000000000000000000000000000000000000000001002000000000000000000000000000000000000000000000000000800000000000000000000000000000000000000002000000000000000000000040000002000000000400000000000020000000000000000000000000000000000080000000400000400000000000000080","status":"0x1","to":"0xdeafc27ac8f977e6973d671e43cbfd2573021d9e","transactionHash":"0xdc3f8c5bc84bf3e2e57e408d6605fc441d2d5773398c902ba8d8a48f624d1e18","transactionIndex":"0x47","type":"0x2"},"id":
        0}

        '
    headers:
      CF-RAY:
      - 9d6b89a3eef9a4bf-AMS
      Cache-Control:
      - max-age=0, private, must-revalidate
      Connection:
      - keep-alive
      Content-Type:
      - application/json; charset=utf-8
      Date:
      - Tue, 03 Mar 2026 20:54:40 GMT
      Nel:
      - '{"report_to":"cf-nel","success_fraction":0.0,"max_age":604800}'
      Report-To:
      - '{"group":"cf-nel","max_age":604800,"endpoints":[{"url":"https://a.nel.cloudflare.com/report/v4?s=hCT9D%2BQCRcAH%2Bx4evfQnzHuJ%2BeYuCbRuHl8nIpxle%2BmWk1kK%2FAEA0kcOq99nNNTcfQCm0fwVZFDGQfA%2F%2BHPVd5IAvggOgMfM%2BYxZiplcyKjcLYfFS2KIebdR1aqE23AZ"}]}'
      Server:
      - cloudflare
      Transfer-Encoding:
      - chunked
      access-control-allow-credentials:
      - 'true'
      access-control-allow-origin:
      - '*'
      access-control-expose-headers:
      - bypass-429-option,x-ratelimit-reset,x-ratelimit-limit,x-ratelimit-remaining,api-v2-temp-token
      alt-svc:
      - h3=":443"; ma=86400
      bypass-429-option:
      - no_bypass
      cf-cache-status:
      - DYNAMIC
      content-length:
      - '3382'
      strict-transport-security:
      - max-age=31536000; includeSubDomains
      x-ratelimit-limit:
      - '600'
      x-ratelimit-remaining:
      - '597'
      x-ratelimit-reset:
      - '19970'
      x-request-id:
      - 0d178042cd1972e692c0a95f263cd64b
    status:
      code: 200
      message: OK
- request:
    body: null
    headers:
      Accept:
      - '*/*'
      Accept-Encoding:
      - gzip, deflate
      Connection:
      - keep-alive
      User-Agent:
      - rotki/1.41.2.dev927+ge84fe3f5bf.d20260221
    method: GET
    uri: https://explorer.optimism.io/api/v2/transactions/0xdc3f8c5bc84bf3e2e57e408d6605fc441d2d5773398c902ba8d8a48f624d1e18
  response:
    body:
      string: '{"l1_gas_used":"1896","priority_fee":"108528005775","raw_input":"0xd0e30db0","is_pending_update":false,"op_withdrawals":[],"result":"success","hash":"0xdc3f8c5bc84bf3e2e57e408d6605fc441d2d5773398c902ba8d8a48f624d1e18","max_fee_per_gas":"183223026","revert_reason":null,"confirmation_duration":[0,2.0e3],"transaction_burnt_fee":"7017248296200","type":2,"token_transfers_overflow":false,"confirmations":29223653,"position":71,"max_priority_fee_per_gas":"931371","transaction_tag":null,"created_contract":null,"value":"40000000000000000","l1_fee_scalar":"0","from":{"ens_domain_name":null,"hash":"0xa1ecA898ad4A4909c527c78B559fFDad005e761d","implementations":[],"is_contract":true,"is_scam":false,"is_verified":false,"metadata":null,"name":null,"private_tags":[],"proxy_type":null,"public_tags":[],"reputation":"ok","watchlist_names":[]},"gas_used":"116525","status":"ok","to":{"ens_domain_name":null,"hash":"0xDeAFc27aC8f977E6973d671E43cBfd2573021d9e","implementations":[],"is_contract":true,"is_scam":false,"is_verified":true,"metadata":null,"name":"Vyper_contract","private_tags":[],"proxy_type":null,"public_tags":[],"reputation":"ok","watchlist_names":[]},"authorization_list":[],"l1_fee":"22115454620","method":"deposit","fee":{"type":"actual","value":"7147891756595"},"actions":[],"gas_limit":"151478","gas_price":"61152339","decoded_input":{"method_call":"deposit()","method_id":"d0e30db0","parameters":[]},"l1_gas_price":"8526512620","token_transfers":[{"block_hash":"0xffc8ff9a0dc535519bf8706504d7d8ca7e053b83a27c3179a4f8d67b11417df0","block_number":119262599,"from":{"ens_domain_name":null,"hash":"0x0000000000000000000000000000000000000000","implementations":[],"is_contract":false,"is_scam":false,"is_verified":false,"metadata":{"tags":[{"meta":{},"name":"Null:
        0x000...000","ordinal":10,"slug":"null-0x000000","tagType":"name"},{"meta":{},"name":"Metamask
        User","ordinal":0,"slug":"metamask-user","tagType":"generic"},{"meta":{},"name":"Imtoken
        User","ordinal":0,"slug":"imtoken-user","tagType":"generic"},{"meta":{},"name":"Miner","ordinal":0,"slug":"miner","tagType":"generic"},{"meta":{},"name":"Burn","ordinal":0,"slug":"burn","tagType":"generic"},{"meta":{"alertStatus":"info","data":"This
        address is commonly used by projects to burn tokens (reducing total supply)
        or mint tokens (increasing total supply)."},"name":"note_0","ordinal":0,"slug":"note0","tagType":"note"},{"meta":{},"name":"Null","ordinal":0,"slug":"null","tagType":"protocol"}]},"name":null,"private_tags":[],"proxy_type":null,"public_tags":[],"reputation":"ok","watchlist_names":[]},"log_index":449,"method":null,"timestamp":null,"to":{"ens_domain_name":null,"hash":"0xDeAFc27aC8f977E6973d671E43cBfd2573021d9e","implementations":[],"is_contract":true,"is_scam":false,"is_verified":true,"metadata":null,"name":"Vyper_contract","private_tags":[],"proxy_type":null,"public_tags":[],"reputation":"ok","watchlist_names":[]},"token":{"address_hash":"0x4200000000000000000000000000000000000006","circulating_market_cap":"39443448.72013867","decimals":"18","exchange_rate":"1988.56","holders_count":"300495","icon_url":"https://assets.coingecko.com/coins/images/39715/small/WETH.PNG?1723731805","name":"L2
        Standard Bridged WETH (Optimism)","reputation":"ok","symbol":"WETH","total_supply":"19953055717376092325417","type":"ERC-20","volume_24h":"15728344.223114293"},"token_type":"ERC-20","total":{"decimals":"18","value":"40000000000000000"},"transaction_hash":"0xdc3f8c5bc84bf3e2e57e408d6605fc441d2d5773398c902ba8d8a48f624d1e18","type":"token_minting"},{"block_hash":"0xffc8ff9a0dc535519bf8706504d7d8ca7e053b83a27c3179a4f8d67b11417df0","block_number":119262599,"from":{"ens_domain_name":null,"hash":"0x0000000000000000000000000000000000000000","implementations":[],"is_contract":false,"is_scam":false,"is_verified":false,"metadata":{"tags":[{"meta":{},"name":"Null:
        0x000...000","ordinal":10,"slug":"null-0x000000","tagType":"name"},{"meta":{},"name":"Metamask
        User","ordinal":0,"slug":"metamask-user","tagType":"generic"},{"meta":{},"name":"Imtoken
        User","ordinal":0,"slug":"imtoken-user","tagType":"generic"},{"meta":{},"name":"Miner","ordinal":0,"slug":"miner","tagType":"generic"},{"meta":{},"name":"Burn","ordinal":0,"slug":"burn","tagType":"generic"},{"meta":{"alertStatus":"info","data":"This
        address is commonly used by projects to burn tokens (reducing total supply)
        or mint tokens (increasing total supply)."},"name":"note_0","ordinal":0,"slug":"note0","tagType":"note"},{"meta":{},"name":"Null","ordinal":0,"slug":"null","tagType":"protocol"}]},"name":null,"private_tags":[],"proxy_type":null,"public_tags":[],"reputation":"ok","watchlist_names":[]},"log_index":450,"method":null,"timestamp":null,"to":{"ens_domain_name":null,"hash":"0xa1ecA898ad4A4909c527c78B559fFDad005e761d","implementations":[],"is_contract":true,"is_scam":false,"is_verified":false,"metadata":null,"name":null,"private_tags":[],"proxy_type":null,"public_tags":[],"reputation":"ok","watchlist_names":[]},"token":{"address_hash":"0x5B977577Eb8a480f63e11FC615D6753adB8652Ae","circulating_market_cap":null,"decimals":"18","exchange_rate":null,"holders_count":"5092","icon_url":null,"name":"WETH
        yVault","reputation":"ok","symbol":"yvWETH","total_supply":"78617799485302498526","type":"ERC-20","volume_24h":null},"token_type":"ERC-20","total":{"decimals":"18","value":"39243540093362109"},"transaction_hash":"0xdc3f8c5bc84bf3e2e57e408d6605fc441d2d5773398c902ba8d8a48f624d1e18","type":"token_minting"},{"block_hash":"0xffc8ff9a0dc535519bf8706504d7d8ca7e053b83a27c3179a4f8d67b11417df0","block_number":119262599,"from":{"ens_domain_name":null,"hash":"0xDeAFc27aC8f977E6973d671E43cBfd2573021d9e","implementations":[],"is_contract":true,"is_scam":false,"is_verified":true,"metadata":null,"name":"Vyper_contract","private_tags":[],"proxy_type":null,"public_tags":[],"reputation":"ok","watchlist_names":[]},"log_index":451,"method":null,"timestamp":null,"to":{"ens_domain_name":null,"hash":"0x5B977577Eb8a480f63e11FC615D6753adB8652Ae","implementations":[{"address_hash":"0x3f8d557fD1e9043d4577Af6A230579E4AC1c4CC7","name":null}],"is_contract":true,"is_scam":false,"is_verified":false,"metadata":{"tags":[{"meta":{"tagIcon
        ":"https://blockscout-icons.s3.us-east-1.amazonaws.com/OLI_tag_logo.svg","textColor":"#C163D4","tooltipAttribution":"https://www.openlabelsinitiative.org?utm_source=blockscout","tooltipAttributionIcon":"https://blockscout-icons.s3.us-east-1.amazonaws.com/OLI_tag_logo.svg","tooltipDescription":"Provided
        by OLI"},"name":"Yearn","ordinal":0,"slug":"yearn","tagType":"name"}]},"name":"WETH
        yVault","private_tags":[],"proxy_type":"eip1167","public_tags":[],"reputation":"ok","watchlist_names":[]},"token":{"address_hash":"0x4200000000000000000000000000000000000006","circulating_market_cap":"39443448.72013867","decimals":"18","exchange_rate":"1988.56","holders_count":"300495","icon_url":"https://assets.coingecko.com/coins/images/39715/small/WETH.PNG?1723731805","name":"L2
        Standard Bridged WETH (Optimism)","reputation":"ok","symbol":"WETH","total_supply":"19953055717376092325417","type":"ERC-20","volume_24h":"15728344.223114293"},"token_type":"ERC-20","total":{"decimals":"18","value":"40000000000000000"},"transaction_hash":"0xdc3f8c5bc84bf3e2e57e408d6605fc441d2d5773398c902ba8d8a48f624d1e18","type":"token_transfer"}],"base_fee_per_gas":"60220968","timestamp":"2024-04-26T09:32:55.000000Z","nonce":22,"historic_exchange_rate":"3156.57","transaction_types":["coin_transfer","contract_call","token_transfer"],"exchange_rate":"1984.59","block_number":119262599,"has_error_in_internal_transactions":false}'
    headers:
      CF-RAY:
      - 9d6b89a4e8556661-AMS
      Cache-Control:
      - max-age=0, private, must-revalidate
      Connection:
      - keep-alive
      Content-Type:
      - application/json; charset=utf-8
      Date:
      - Tue, 03 Mar 2026 20:54:40 GMT
      Nel:
      - '{"report_to":"cf-nel","success_fraction":0.0,"max_age":604800}'
      Report-To:
      - '{"group":"cf-nel","max_age":604800,"endpoints":[{"url":"https://a.nel.cloudflare.com/report/v4?s=sNaYd35t%2BQcpgVj7dJyVhSHVIedXpuVAs4xU4pF32%2BPwd0P6q5xTmc0BWrAg8x04HUdRHo6feZvQVF5jxUbrU58Y0ASKKR6lOcd49OPOlUTnR%2Fd0Q2D6NXIxJ%2FN8sw0u"}]}'
      Server:
      - cloudflare
      Transfer-Encoding:
      - chunked
      access-control-allow-credentials:
      - 'true'
      access-control-allow-origin:
      - '*'
      access-control-expose-headers:
      - bypass-429-option,x-ratelimit-reset,x-ratelimit-limit,x-ratelimit-remaining,api-v2-temp-token
      alt-svc:
      - h3=":443"; ma=86400
      bypass-429-option:
      - temporary_token
      cf-cache-status:
      - DYNAMIC
      content-length:
      - '7576'
      strict-transport-security:
      - max-age=31536000; includeSubDomains
      x-ratelimit-limit:
      - '600'
      x-ratelimit-remaining:
      - '596'
      x-ratelimit-reset:
      - '19843'
      x-request-id:
      - a357fdecfaa3d6b5678a408356cc933d
    status:
      code: 200
      message: OK
- request:
    body: null
    headers:
      Accept:
      - '*/*'
      Accept-Encoding:
      - gzip, deflate
      Connection:
      - keep-alive
      User-Agent:
      - rotki/1.41.2.dev927+ge84fe3f5bf.d20260221
    method: GET
    uri: https://explorer.optimism.io/api?action=txlistinternal&module=account&sort=asc&txhash=0xdc3f8c5bc84bf3e2e57e408d6605fc441d2d5773398c902ba8d8a48f624d1e18
  response:
    body:
      string: '{"message":"OK","result":[{"blockNumber":"119262599","callType":"call","contractAddress":"","errCode":"","from":"0xdeafc27ac8f977e6973d671e43cbfd2573021d9e","gas":"118946","gasUsed":"23802","index":"1","input":"0xd0e30db0","isError":"0","timeStamp":"1714123975","to":"0x4200000000000000000000000000000000000006","transactionHash":"0xdc3f8c5bc84bf3e2e57e408d6605fc441d2d5773398c902ba8d8a48f624d1e18","type":"call","value":"40000000000000000"}],"status":"1"}'
    headers:
      CF-RAY:
      - 9d6b89a82f529b4e-AMS
      Cache-Control:
      - max-age=0, private, must-revalidate
      Connection:
      - keep-alive
      Content-Type:
      - application/json; charset=utf-8
      Date:
      - Tue, 03 Mar 2026 20:54:41 GMT
      Nel:
      - '{"report_to":"cf-nel","success_fraction":0.0,"max_age":604800}'
      Report-To:
      - '{"group":"cf-nel","max_age":604800,"endpoints":[{"url":"https://a.nel.cloudflare.com/report/v4?s=lcykeNPeoa80BO0PU9AD%2B8lxJJg7%2B7pAt0w6grYr1fj6ejklInGDLyXEfKXh2S2HwQpA3K6a3jDHW7C9O3tzq1JTBafFNK6XKhPCEB808CLwvf%2BsNEEqEwCYBbNJUjGk"}]}'
      Server:
      - cloudflare
      Transfer-Encoding:
      - chunked
      access-control-allow-credentials:
      - 'true'
      access-control-allow-origin:
      - '*'
      access-control-expose-headers:
      - bypass-429-option,x-ratelimit-reset,x-ratelimit-limit,x-ratelimit-remaining,api-v2-temp-token
      alt-svc:
      - h3=":443"; ma=86400
      bypass-429-option:
      - no_bypass
      cf-cache-status:
      - DYNAMIC
      content-length:
      - '456'
      strict-transport-security:
      - max-age=31536000; includeSubDomains
      x-ratelimit-limit:
      - '600'
      x-ratelimit-remaining:
      - '595'
      x-ratelimit-reset:
      - '19293'
      x-request-id:
      - 01154898342b6f8b3a7d57e8c94fefa0
    status:
      code: 200
      message: OK
version: 1
