interactions:
- request:
    body: '{"jsonrpc": "2.0", "method": "web3_clientVersion", "params": [], "id":
      0}'
    headers:
      Accept:
      - '*/*'
      Accept-Encoding:
      - gzip, deflate
      Connection:
      - keep-alive
      Content-Length:
      - '73'
      Content-Type:
      - application/json
      User-Agent:
      - web3.py/7.14.0/web3.providers.rpc.rpc.HTTPProvider
    method: POST
    uri: https://mainnet.optimism.io/
  response:
    body:
      string: '{"jsonrpc":"2.0","result":"reth/v1.11.0-564ffa5/x86_64-unknown-linux-gnu","id":0}

        '
    headers:
      Alt-Svc:
      - h3=":443"; ma=2592000,h3-29=":443"; ma=2592000
      Content-Length:
      - '82'
      Content-Type:
      - application/json
      Date:
      - Tue, 03 Mar 2026 22:41:14 GMT
      Set-Cookie:
      - lb1=3d5a7df2f7437523; Path=/
      Vary:
      - Origin
      Via:
      - 1.1 google
      X-Proxyd-Cache-Status:
      - MISS
    status:
      code: 200
      message: OK
- request:
    body: '{"jsonrpc": "2.0", "method": "net_version", "params": [], "id": 1}'
    headers:
      Accept:
      - '*/*'
      Accept-Encoding:
      - gzip, deflate
      Connection:
      - keep-alive
      Content-Length:
      - '66'
      Content-Type:
      - application/json
      Cookie:
      - lb1=3d5a7df2f7437523
      User-Agent:
      - web3.py/7.14.0/web3.providers.rpc.rpc.HTTPProvider
    method: POST
    uri: https://mainnet.optimism.io/
  response:
    body:
      string: '{"jsonrpc":"2.0","result":"10","id":1}

        '
    headers:
      Alt-Svc:
      - h3=":443"; ma=2592000,h3-29=":443"; ma=2592000
      Content-Length:
      - '39'
      Content-Type:
      - application/json
      Date:
      - Tue, 03 Mar 2026 22:41:14 GMT
      Vary:
      - Origin
      Via:
      - 1.1 google
      X-Proxyd-Cache-Status:
      - HIT
    status:
      code: 200
      message: OK
- request:
    body: '{"jsonrpc": "2.0", "method": "eth_blockNumber", "params": [], "id": 2}'
    headers:
      Accept:
      - '*/*'
      Accept-Encoding:
      - gzip, deflate
      Connection:
      - keep-alive
      Content-Length:
      - '70'
      Content-Type:
      - application/json
      Cookie:
      - lb1=3d5a7df2f7437523
      User-Agent:
      - web3.py/7.14.0/web3.providers.rpc.rpc.HTTPProvider
    method: POST
    uri: https://mainnet.optimism.io/
  response:
    body:
      string: '{"jsonrpc":"2.0","result":"0x8d9c4e8","id":2}

        '
    headers:
      Alt-Svc:
      - h3=":443"; ma=2592000,h3-29=":443"; ma=2592000
      Content-Length:
      - '46'
      Content-Type:
      - application/json
      Date:
      - Tue, 03 Mar 2026 22:41:14 GMT
      Vary:
      - Origin
      Via:
      - 1.1 google
      X-Proxyd-Cache-Status:
      - MISS
    status:
      code: 200
      message: OK
- request:
    body: '{"jsonrpc": "2.0", "method": "eth_getBalance", "params": ["0x76a05Df20bFEF5EcE3eB16afF9cb10134199A921",
      "0x12110"], "id": 3}'
    headers:
      Accept:
      - '*/*'
      Accept-Encoding:
      - gzip, deflate
      Connection:
      - keep-alive
      Content-Length:
      - '124'
      Content-Type:
      - application/json
      Cookie:
      - lb1=3d5a7df2f7437523
      User-Agent:
      - web3.py/7.14.0/web3.providers.rpc.rpc.HTTPProvider
    method: POST
    uri: https://mainnet.optimism.io/
  response:
    body:
      string: '{"jsonrpc":"2.0","result":"0xb1a2bc2ec50000","id":3}

        '
    headers:
      Alt-Svc:
      - h3=":443"; ma=2592000,h3-29=":443"; ma=2592000
      Content-Length:
      - '53'
      Content-Type:
      - application/json
      Date:
      - Tue, 03 Mar 2026 22:41:15 GMT
      Vary:
      - Origin
      Via:
      - 1.1 google
      X-Proxyd-Cache-Status:
      - MISS
    status:
      code: 200
      message: OK
- request:
    body: '{"jsonrpc": "2.0", "method": "eth_getTransactionByHash", "params": ["0x5e77a04531c7c107af1882d76cbff9486d0a9aa53701c30888509d4f5f2b003a"],
      "id": 4}'
    headers:
      Accept:
      - '*/*'
      Accept-Encoding:
      - gzip, deflate
      Connection:
      - keep-alive
      Content-Length:
      - '147'
      Content-Type:
      - application/json
      Cookie:
      - lb1=3d5a7df2f7437523
      User-Agent:
      - web3.py/7.14.0/web3.providers.rpc.rpc.HTTPProvider
    method: POST
    uri: https://mainnet.optimism.io/
  response:
    body:
      string: '{"jsonrpc":"2.0","result":{"blockHash":"0xbee7192e575af30420cae0c7776304ac196077ee72b048970549e4f08e875453","blockNumber":"0x1","from":"0x70b17c0fe982ab4a7ac17a4c25485643151a1f2d","gas":"0x7a120","gasPrice":"0x1","hash":"0x5e77a04531c7c107af1882d76cbff9486d0a9aa53701c30888509d4f5f2b003a","index":"0x0","input":"0x202ee0ed000000000000000000000000000000000000000000000000000000000001421800000000000000000000000000000000000000000000000000000000d0e3ebf0","l1BlockNumber":"0xcf7a45","l1Timestamp":"0x618d8837","l1TxOrigin":null,"nonce":"0x28972","queueIndex":null,"queueOrigin":"sequencer","r":"0xc878d22e771004beb73e7a4268fd4f447735812b94b217f6807412efcec90d61","rawTransaction":"0xf8a883028972018307a120948ce8c13d816fe6daf12d6fd9e4952e1fc88850af80b844202ee0ed000000000000000000000000000000000000000000000000000000000001421800000000000000000000000000000000000000000000000000000000d0e3ebf038a0c878d22e771004beb73e7a4268fd4f447735812b94b217f6807412efcec90d61a03588018735fb361c49e5de54b266b8b157c1ba3d6ee08e3bcbdee7cd725c16e8","s":"0x3588018735fb361c49e5de54b266b8b157c1ba3d6ee08e3bcbdee7cd725c16e8","to":"0x8ce8c13d816fe6daf12d6fd9e4952e1fc88850af","transactionIndex":"0x0","v":"0x38","value":"0x0"},"id":4}

        '
    headers:
      Alt-Svc:
      - h3=":443"; ma=2592000,h3-29=":443"; ma=2592000
      Content-Length:
      - '1203'
      Content-Type:
      - application/json
      Date:
      - Tue, 03 Mar 2026 22:41:15 GMT
      Vary:
      - Origin
      Via:
      - 1.1 google
      X-Proxyd-Cache-Status:
      - MISS
    status:
      code: 200
      message: OK
- request:
    body: '{"jsonrpc": "2.0", "method": "eth_getTransactionByHash", "params": ["0xd5a67db8551f49294f8cfaa11b8d5cd5ab72f344ae0e3916df37849fc6761ea2"],
      "id": 5}'
    headers:
      Accept:
      - '*/*'
      Accept-Encoding:
      - gzip, deflate
      Connection:
      - keep-alive
      Content-Length:
      - '147'
      Content-Type:
      - application/json
      Cookie:
      - lb1=3d5a7df2f7437523
      User-Agent:
      - web3.py/7.14.0/web3.providers.rpc.rpc.HTTPProvider
    method: POST
    uri: https://mainnet.optimism.io/
  response:
    body:
      string: '{"jsonrpc":"2.0","result":{"accessList":[],"blockHash":"0x0667b719ce23e82ae4612dbf78b124f56edad5c9e6e43e4d6667fd80c9579d3a","blockNumber":"0x7a2080e","chainId":"0xa","from":"0x14f55785385eee92e3a1baaf71c77eb490441981","gas":"0x2c6b6","gasPrice":"0xf4895","hash":"0xd5a67db8551f49294f8cfaa11b8d5cd5ab72f344ae0e3916df37849fc6761ea2","input":"0xe9fad8ee","maxFeePerGas":"0xf4895","maxPriorityFeePerGas":"0xf4240","nonce":"0x13","r":"0xa7c187d3f9a0a90686a3d35dfab41563f6110eca75ef4c9be120971bbb89ebe6","s":"0xe2eb7d718616138d1db5d3b9aec1fd93921e399e7a0f3ae83d58e75c110339a","to":"0xe35fec3895dcecc7d2a91e8ae4ff3c0d43ebffe0","transactionIndex":"0x5","type":"0x2","v":"0x0","value":"0x0","yParity":"0x0"},"id":5}

        '
    headers:
      Alt-Svc:
      - h3=":443"; ma=2592000,h3-29=":443"; ma=2592000
      Content-Length:
      - '707'
      Content-Type:
      - application/json
      Date:
      - Tue, 03 Mar 2026 22:41:15 GMT
      Vary:
      - Origin
      Via:
      - 1.1 google
      X-Proxyd-Cache-Status:
      - MISS
    status:
      code: 200
      message: OK
- request:
    body: '{"jsonrpc": "2.0", "method": "eth_getBlockByNumber", "params": ["0x7a2080e",
      false], "id": 6}'
    headers:
      Accept:
      - '*/*'
      Accept-Encoding:
      - gzip, deflate
      Connection:
      - keep-alive
      Content-Length:
      - '93'
      Content-Type:
      - application/json
      Cookie:
      - lb1=3d5a7df2f7437523
      User-Agent:
      - web3.py/7.14.0/web3.providers.rpc.rpc.HTTPProvider
    method: POST
    uri: https://mainnet.optimism.io/
  response:
    body:
      string: '{"jsonrpc":"2.0","result":{"baseFeePerGas":"0x65d","blobGasUsed":"0x0","difficulty":"0x0","excessBlobGas":"0x0","extraData":"0x","gasLimit":"0x3938700","gasUsed":"0x5650a7","hash":"0x0667b719ce23e82ae4612dbf78b124f56edad5c9e6e43e4d6667fd80c9579d3a","logsBloom":"0x9040000240000c0000404000000004000000000080040000048400000c000010000000000101000200008010400200000200200802080000110100000020404000100000000000000100000841400000000100000800080400080000800400000064100c020000001000400020001a0000000124004000000000801000400060020000010002010000010010080002000200010180200840000020080000000002000010008008000000400101000c0001800080000000400420080000000000400400024082000000200006804000002000020000000000010004000200a0000010008000020000000040010000200004000004800080400000808000008000","miner":"0x4200000000000000000000000000000000000011","mixHash":"0x0e904748a993279867919d683900a0e96382850b3e9f9f2163130f98322ddee6","nonce":"0x0000000000000000","number":"0x7a2080e","parentBeaconBlockRoot":"0xa2805a56a6c7cd69519f67223efcf90f9cd98a3c3030b8888fd59e7cb7e129f9","parentHash":"0xd7849f9f490f3f01165b83ace907464d2bfd12e37e34d3631cd9f26546dfadd4","receiptsRoot":"0xf07c6828b56a920b3a8ce6e7f3604cbdd9bbb1c68da813be82ad9404b793fa2d","sha3Uncles":"0x1dcc4de8dec75d7aab85b567b6ccd41ad312451b948a7413f0a142fd40d49347","size":"0x2b5d","stateRoot":"0xd018736492f76c8f17f421e8f4400b1990fb94af008c762b26c92651b3f9b5cc","timestamp":"0x6737e9d5","transactions":["0x441a2fee379879cf64153ba0fc3af3a9dba00d83c30a3e3a5a8d8169a95b1676","0x9d7b939dcfcf949cb21e5751fae7e4a948dc31a76000586699d6d1329881bcfd","0xc7e88016e6e138fd69356ff1f41423fe18a36119cc25bb93190d6fc220bab9c1","0xec549919d457085d2cca5f6de4e90f79c7913efdcae28b7d9ffc6687ed0a82b5","0xa6daa3d5753a02e14cc6f93b4ccce7234bc02ae2fe9126ecc5be648f4d4f8070","0xd5a67db8551f49294f8cfaa11b8d5cd5ab72f344ae0e3916df37849fc6761ea2","0x7e92547e24533a408e242f78f94dcf55870c1b60f2372eaf880721b2ad7d34a0","0xcd1b1d20f271b0bef192f9d255781b489fe2bb4f8d67f8c8b0b1d57ba00e69a2","0x403879e293b39b0d1637397eac52b8e1d6ae1e73b2cf9f687492cecbc637cb51","0x480617e8196be8de4d45377dbd53bbb5f21faceb3d52ae330e25179392e42ac3","0x1e097be53ea9c7188e9fcc7affb6eed5cc7bc16630ff38804b272aaaad6e989b","0xdce8c994613027fbc7d781512d0e8ebf8ede03ec1d4c1bf48e204ca56867f1b7","0x03f97dc0cb327e670827fc869ac950e72d549379f5f3b69aff8ee78574b58e1f","0x136c8999987c0430f557e6be5cad076a61df6307c5e9adc0f1b87bfad4c6095c","0x3fc8c5fc9f704ae588eb064cf5dd3b59e4a5a2f86f2ccfddc71c60c6705f721b","0x6c20ddaf67ec77f91d4deb0c2873870c99332c13fcc5d62c497b897d297b28f6"],"transactionsRoot":"0xdc052aa14cc9f3a145f9d99a1d146f561570a8305fbce06bfdfbf360e461ed32","uncles":[],"withdrawals":[],"withdrawalsRoot":"0x56e81f171bcc55a6ff8345e692c0f86e5b48e01b996cadc001622fb5e363b421"},"id":6}

        '
    headers:
      Alt-Svc:
      - h3=":443"; ma=2592000,h3-29=":443"; ma=2592000
      Content-Type:
      - application/json
      Date:
      - Tue, 03 Mar 2026 22:41:15 GMT
      Transfer-Encoding:
      - chunked
      Vary:
      - Origin
      Via:
      - 1.1 google
      X-Proxyd-Cache-Status:
      - MISS
    status:
      code: 200
      message: OK
- request:
    body: '{"jsonrpc": "2.0", "method": "eth_getTransactionReceipt", "params": ["0xd5a67db8551f49294f8cfaa11b8d5cd5ab72f344ae0e3916df37849fc6761ea2"],
      "id": 7}'
    headers:
      Accept:
      - '*/*'
      Accept-Encoding:
      - gzip, deflate
      Connection:
      - keep-alive
      Content-Length:
      - '148'
      Content-Type:
      - application/json
      Cookie:
      - lb1=3d5a7df2f7437523
      User-Agent:
      - web3.py/7.14.0/web3.providers.rpc.rpc.HTTPProvider
    method: POST
    uri: https://mainnet.optimism.io/
  response:
    body:
      string: '{"jsonrpc":"2.0","result":{"blockHash":"0x0667b719ce23e82ae4612dbf78b124f56edad5c9e6e43e4d6667fd80c9579d3a","blockNumber":"0x7a2080e","contractAddress":null,"cumulativeGasUsed":"0x1251e4","effectiveGasPrice":"0xf4895","from":"0x14f55785385eee92e3a1baaf71c77eb490441981","gasUsed":"0x1d452","l1BaseFeeScalar":"0x146b","l1BlobBaseFee":"0x167ba504","l1BlobBaseFeeScalar":"0xf79c5","l1Fee":"0x2779338dac","l1GasPrice":"0x3a7a3f013","l1GasUsed":"0x640","logs":[{"address":"0x5b977577eb8a480f63e11fc615d6753adb8652ae","blockHash":"0x0667b719ce23e82ae4612dbf78b124f56edad5c9e6e43e4d6667fd80c9579d3a","blockNumber":"0x7a2080e","blockTimestamp":"0x6737e9d5","data":"0x0000000000000000000000000000000000000000000000000034db473312a8c1","logIndex":"0x2","removed":false,"topics":["0xddf252ad1be2c89b69c2b068fc378daa952ba7f163c4a11628f55a4df523b3ef","0x000000000000000000000000e35fec3895dcecc7d2a91e8ae4ff3c0d43ebffe0","0x00000000000000000000000014f55785385eee92e3a1baaf71c77eb490441981"],"transactionHash":"0xd5a67db8551f49294f8cfaa11b8d5cd5ab72f344ae0e3916df37849fc6761ea2","transactionIndex":"0x5"},{"address":"0xe35fec3895dcecc7d2a91e8ae4ff3c0d43ebffe0","blockHash":"0x0667b719ce23e82ae4612dbf78b124f56edad5c9e6e43e4d6667fd80c9579d3a","blockNumber":"0x7a2080e","blockTimestamp":"0x6737e9d5","data":"0x0000000000000000000000000000000000000000000000000034db473312a8c1","logIndex":"0x3","removed":false,"topics":["0x7084f5476618d8e60b11ef0d7d3f06914655adb8793e28ff7f018d4c76d505d5","0x00000000000000000000000014f55785385eee92e3a1baaf71c77eb490441981"],"transactionHash":"0xd5a67db8551f49294f8cfaa11b8d5cd5ab72f344ae0e3916df37849fc6761ea2","transactionIndex":"0x5"},{"address":"0x7d2382b1f8af621229d33464340541db362b4907","blockHash":"0x0667b719ce23e82ae4612dbf78b124f56edad5c9e6e43e4d6667fd80c9579d3a","blockNumber":"0x7a2080e","blockTimestamp":"0x6737e9d5","data":"0x0000000000000000000000000000000000000000000000000320d9b00e61e06b","logIndex":"0x4","removed":false,"topics":["0xddf252ad1be2c89b69c2b068fc378daa952ba7f163c4a11628f55a4df523b3ef","0x000000000000000000000000e35fec3895dcecc7d2a91e8ae4ff3c0d43ebffe0","0x00000000000000000000000014f55785385eee92e3a1baaf71c77eb490441981"],"transactionHash":"0xd5a67db8551f49294f8cfaa11b8d5cd5ab72f344ae0e3916df37849fc6761ea2","transactionIndex":"0x5"},{"address":"0xe35fec3895dcecc7d2a91e8ae4ff3c0d43ebffe0","blockHash":"0x0667b719ce23e82ae4612dbf78b124f56edad5c9e6e43e4d6667fd80c9579d3a","blockNumber":"0x7a2080e","blockTimestamp":"0x6737e9d5","data":"0x0000000000000000000000000000000000000000000000000320d9b00e61e06b","logIndex":"0x5","removed":false,"topics":["0xe2403640ba68fed3a2f88b7557551d1993f84b99bb10ff833f0cf8db0c5e0486","0x00000000000000000000000014f55785385eee92e3a1baaf71c77eb490441981"],"transactionHash":"0xd5a67db8551f49294f8cfaa11b8d5cd5ab72f344ae0e3916df37849fc6761ea2","transactionIndex":"0x5"}],"logsBloom":"0x80000000000008000000000000000000000000008000000000000000000000000000000000000000000000000002000000002008000800000000000000000040000000000000000000000008000000000000000000000004000000000000000000041000000000000000000000000000000000000000000000000010000000000000000100000000000100000800000000000000000008000000000000000000000000000000000000000000000000000000000000000000000000000000000000040002000200000000000000400000000002000000000000000400000080000000000000000000000000000000000000000000000000000000000000000000","status":"0x1","to":"0xe35fec3895dcecc7d2a91e8ae4ff3c0d43ebffe0","transactionHash":"0xd5a67db8551f49294f8cfaa11b8d5cd5ab72f344ae0e3916df37849fc6761ea2","transactionIndex":"0x5","type":"0x2"},"id":7}

        '
    headers:
      Alt-Svc:
      - h3=":443"; ma=2592000,h3-29=":443"; ma=2592000
      Content-Type:
      - application/json
      Date:
      - Tue, 03 Mar 2026 22:41:15 GMT
      Transfer-Encoding:
      - chunked
      Vary:
      - Origin
      Via:
      - 1.1 google
      X-Proxyd-Cache-Status:
      - MISS
    status:
      code: 200
      message: OK
- request:
    body: null
    headers:
      Accept:
      - '*/*'
      Accept-Encoding:
      - gzip, deflate
      Connection:
      - keep-alive
      User-Agent:
      - rotki/1.41.2.dev927+ge84fe3f5bf.d20260221
    method: GET
    uri: https://api.blockscout.com/10/api?action=txlistinternal&module=account&sort=asc&txhash=0xd5a67db8551f49294f8cfaa11b8d5cd5ab72f344ae0e3916df37849fc6761ea2
  response:
    body:
      string: '{"message":"No internal transactions found","result":[],"status":"0"}'
    headers:
      CF-RAY:
      - 9d6c25c8b8c3d595-AMS
      Cache-Control:
      - max-age=0, private, must-revalidate
      Connection:
      - keep-alive
      Content-Type:
      - application/json; charset=utf-8
      Date:
      - Tue, 03 Mar 2026 22:41:15 GMT
      Nel:
      - '{"report_to":"cf-nel","success_fraction":0.0,"max_age":604800}'
      Report-To:
      - '{"group":"cf-nel","max_age":604800,"endpoints":[{"url":"https://a.nel.cloudflare.com/report/v4?s=IpqaIy6N9chrXdNStrNfI7GWpBvyQamOX3Q9MRiukBysj%2BbnnCTL%2BRcx8aY0vTUJiCHemBZ9HCGeRLl79aMbvDI9dB%2Fx5Z0Xn4ZnRjXln62%2Bxr65oG6H3QTBiIlLY382"}]}'
      Server:
      - cloudflare
      Transfer-Encoding:
      - chunked
      access-control-allow-credentials:
      - 'true'
      access-control-allow-origin:
      - '*'
      access-control-expose-headers:
      - bypass-429-option,x-ratelimit-reset,x-ratelimit-limit,x-ratelimit-remaining,api-v2-temp-token
      alt-svc:
      - h3=":443"; ma=86400
      bypass-429-option:
      - no_bypass
      cf-cache-status:
      - DYNAMIC
      content-length:
      - '69'
      strict-transport-security:
      - max-age=31536000; includeSubDomains
      x-ratelimit-limit:
      - '600'
      x-ratelimit-remaining:
      - '599'
      x-ratelimit-reset:
      - '44356'
      x-request-id:
      - 6b85e20a843ddc31a951c811b78df9ea
    status:
      code: 200
      message: OK
version: 1
