interactions:
- request:
    body: '{"jsonrpc": "2.0", "method": "web3_clientVersion", "params": [], "id":
      0}'
    headers:
      Accept:
      - '*/*'
      Accept-Encoding:
      - gzip, deflate
      Connection:
      - keep-alive
      Content-Length:
      - '73'
      Content-Type:
      - application/json
      User-Agent:
      - web3.py/7.14.0/web3.providers.rpc.rpc.HTTPProvider
    method: POST
    uri: https://mainnet.optimism.io/
  response:
    body:
      string: '{"jsonrpc":"2.0","result":"reth/v1.11.0-564ffa5/x86_64-unknown-linux-gnu","id":0}

        '
    headers:
      Alt-Svc:
      - h3=":443"; ma=2592000,h3-29=":443"; ma=2592000
      Content-Length:
      - '82'
      Content-Type:
      - application/json
      Date:
      - Tue, 03 Mar 2026 22:41:55 GMT
      Set-Cookie:
      - lb1=3d5a7df2f7437523; Path=/
      Vary:
      - Origin
      Via:
      - 1.1 google
      X-Proxyd-Cache-Status:
      - MISS
    status:
      code: 200
      message: OK
- request:
    body: '{"jsonrpc": "2.0", "method": "net_version", "params": [], "id": 1}'
    headers:
      Accept:
      - '*/*'
      Accept-Encoding:
      - gzip, deflate
      Connection:
      - keep-alive
      Content-Length:
      - '66'
      Content-Type:
      - application/json
      Cookie:
      - lb1=3d5a7df2f7437523
      User-Agent:
      - web3.py/7.14.0/web3.providers.rpc.rpc.HTTPProvider
    method: POST
    uri: https://mainnet.optimism.io/
  response:
    body:
      string: '{"jsonrpc":"2.0","result":"10","id":1}

        '
    headers:
      Alt-Svc:
      - h3=":443"; ma=2592000,h3-29=":443"; ma=2592000
      Content-Length:
      - '39'
      Content-Type:
      - application/json
      Date:
      - Tue, 03 Mar 2026 22:41:55 GMT
      Vary:
      - Origin
      Via:
      - 1.1 google
      X-Proxyd-Cache-Status:
      - HIT
    status:
      code: 200
      message: OK
- request:
    body: '{"jsonrpc": "2.0", "method": "eth_blockNumber", "params": [], "id": 2}'
    headers:
      Accept:
      - '*/*'
      Accept-Encoding:
      - gzip, deflate
      Connection:
      - keep-alive
      Content-Length:
      - '70'
      Content-Type:
      - application/json
      Cookie:
      - lb1=3d5a7df2f7437523
      User-Agent:
      - web3.py/7.14.0/web3.providers.rpc.rpc.HTTPProvider
    method: POST
    uri: https://mainnet.optimism.io/
  response:
    body:
      string: '{"jsonrpc":"2.0","result":"0x8d9c4fd","id":2}

        '
    headers:
      Alt-Svc:
      - h3=":443"; ma=2592000,h3-29=":443"; ma=2592000
      Content-Length:
      - '46'
      Content-Type:
      - application/json
      Date:
      - Tue, 03 Mar 2026 22:41:55 GMT
      Vary:
      - Origin
      Via:
      - 1.1 google
      X-Proxyd-Cache-Status:
      - MISS
    status:
      code: 200
      message: OK
- request:
    body: '{"jsonrpc": "2.0", "method": "eth_getBalance", "params": ["0x76a05Df20bFEF5EcE3eB16afF9cb10134199A921",
      "0x12110"], "id": 3}'
    headers:
      Accept:
      - '*/*'
      Accept-Encoding:
      - gzip, deflate
      Connection:
      - keep-alive
      Content-Length:
      - '124'
      Content-Type:
      - application/json
      Cookie:
      - lb1=3d5a7df2f7437523
      User-Agent:
      - web3.py/7.14.0/web3.providers.rpc.rpc.HTTPProvider
    method: POST
    uri: https://mainnet.optimism.io/
  response:
    body:
      string: '{"jsonrpc":"2.0","result":"0xb1a2bc2ec50000","id":3}

        '
    headers:
      Alt-Svc:
      - h3=":443"; ma=2592000,h3-29=":443"; ma=2592000
      Content-Length:
      - '53'
      Content-Type:
      - application/json
      Date:
      - Tue, 03 Mar 2026 22:41:55 GMT
      Vary:
      - Origin
      Via:
      - 1.1 google
      X-Proxyd-Cache-Status:
      - MISS
    status:
      code: 200
      message: OK
- request:
    body: '{"jsonrpc": "2.0", "method": "eth_getTransactionByHash", "params": ["0x5e77a04531c7c107af1882d76cbff9486d0a9aa53701c30888509d4f5f2b003a"],
      "id": 4}'
    headers:
      Accept:
      - '*/*'
      Accept-Encoding:
      - gzip, deflate
      Connection:
      - keep-alive
      Content-Length:
      - '147'
      Content-Type:
      - application/json
      Cookie:
      - lb1=3d5a7df2f7437523
      User-Agent:
      - web3.py/7.14.0/web3.providers.rpc.rpc.HTTPProvider
    method: POST
    uri: https://mainnet.optimism.io/
  response:
    body:
      string: '{"jsonrpc":"2.0","result":{"blockHash":"0xbee7192e575af30420cae0c7776304ac196077ee72b048970549e4f08e875453","blockNumber":"0x1","from":"0x70b17c0fe982ab4a7ac17a4c25485643151a1f2d","gas":"0x7a120","gasPrice":"0x1","hash":"0x5e77a04531c7c107af1882d76cbff9486d0a9aa53701c30888509d4f5f2b003a","index":"0x0","input":"0x202ee0ed000000000000000000000000000000000000000000000000000000000001421800000000000000000000000000000000000000000000000000000000d0e3ebf0","l1BlockNumber":"0xcf7a45","l1Timestamp":"0x618d8837","l1TxOrigin":null,"nonce":"0x28972","queueIndex":null,"queueOrigin":"sequencer","r":"0xc878d22e771004beb73e7a4268fd4f447735812b94b217f6807412efcec90d61","rawTransaction":"0xf8a883028972018307a120948ce8c13d816fe6daf12d6fd9e4952e1fc88850af80b844202ee0ed000000000000000000000000000000000000000000000000000000000001421800000000000000000000000000000000000000000000000000000000d0e3ebf038a0c878d22e771004beb73e7a4268fd4f447735812b94b217f6807412efcec90d61a03588018735fb361c49e5de54b266b8b157c1ba3d6ee08e3bcbdee7cd725c16e8","s":"0x3588018735fb361c49e5de54b266b8b157c1ba3d6ee08e3bcbdee7cd725c16e8","to":"0x8ce8c13d816fe6daf12d6fd9e4952e1fc88850af","transactionIndex":"0x0","v":"0x38","value":"0x0"},"id":4}

        '
    headers:
      Alt-Svc:
      - h3=":443"; ma=2592000,h3-29=":443"; ma=2592000
      Content-Length:
      - '1203'
      Content-Type:
      - application/json
      Date:
      - Tue, 03 Mar 2026 22:41:55 GMT
      Vary:
      - Origin
      Via:
      - 1.1 google
      X-Proxyd-Cache-Status:
      - MISS
    status:
      code: 200
      message: OK
- request:
    body: '{"jsonrpc": "2.0", "method": "eth_getTransactionByHash", "params": ["0x92ff46d7594279adb12eb87d1ed69c78f204927eb16912f67260a112eb133e5e"],
      "id": 5}'
    headers:
      Accept:
      - '*/*'
      Accept-Encoding:
      - gzip, deflate
      Connection:
      - keep-alive
      Content-Length:
      - '147'
      Content-Type:
      - application/json
      Cookie:
      - lb1=3d5a7df2f7437523
      User-Agent:
      - web3.py/7.14.0/web3.providers.rpc.rpc.HTTPProvider
    method: POST
    uri: https://mainnet.optimism.io/
  response:
    body:
      string: '{"jsonrpc":"2.0","result":{"accessList":[],"blockHash":"0xfe5982dbbaf3f39ed1611ae8e4fd5ccea89acaee99fc15f3c8165aa7f2573aa4","blockNumber":"0x78ddfa9","chainId":"0xa","from":"0x178e89a81c694259f15d350e05469f3e674ea853","gas":"0x2e71b","gasPrice":"0x111d03","hash":"0x92ff46d7594279adb12eb87d1ed69c78f204927eb16912f67260a112eb133e5e","input":"0x2e1a7d4d00000000000000000000000000000000000000000000000001458f124939a1e5","maxFeePerGas":"0x1126ab","maxPriorityFeePerGas":"0xf4240","nonce":"0x1e","r":"0xd7bb78bfaa88b49b1b2854c1b5ba549fec5dd9a0db3d8743562ead30e2c94f56","s":"0x78328a698f5160ac509147decc43c966befce365ffb2619e6570da567395036d","to":"0x7d2382b1f8af621229d33464340541db362b4907","transactionIndex":"0x4","type":"0x2","v":"0x1","value":"0x0","yParity":"0x1"},"id":5}

        '
    headers:
      Alt-Svc:
      - h3=":443"; ma=2592000,h3-29=":443"; ma=2592000
      Content-Length:
      - '774'
      Content-Type:
      - application/json
      Date:
      - Tue, 03 Mar 2026 22:41:56 GMT
      Vary:
      - Origin
      Via:
      - 1.1 google
      X-Proxyd-Cache-Status:
      - MISS
    status:
      code: 200
      message: OK
- request:
    body: '{"jsonrpc": "2.0", "method": "eth_getBlockByNumber", "params": ["0x78ddfa9",
      false], "id": 6}'
    headers:
      Accept:
      - '*/*'
      Accept-Encoding:
      - gzip, deflate
      Connection:
      - keep-alive
      Content-Length:
      - '93'
      Content-Type:
      - application/json
      Cookie:
      - lb1=3d5a7df2f7437523
      User-Agent:
      - web3.py/7.14.0/web3.providers.rpc.rpc.HTTPProvider
    method: POST
    uri: https://mainnet.optimism.io/
  response:
    body:
      string: '{"jsonrpc":"2.0","result":{"baseFeePerGas":"0x1dac3","blobGasUsed":"0x0","difficulty":"0x0","excessBlobGas":"0x0","extraData":"0x","gasLimit":"0x1c9c380","gasUsed":"0x2dd858","hash":"0xfe5982dbbaf3f39ed1611ae8e4fd5ccea89acaee99fc15f3c8165aa7f2573aa4","logsBloom":"0x401030825046000160200081000040001000000808002000890c00204480131015480000200012000a0000104080310022408068910026000008004048240058801000002009208820400108808020011080840000400004440000140800000510080000060440001040d0100000080101000002000a84000102001288481008802004051000e08162000200100000004104100080200000000100045a840950860000000400200080080002815044a0000c00000041480000800000000200844004100308040000a0004006004200000880000280800b080005804a020122000318240920a100841800004000000100400000424480080800022404000100cc","miner":"0x4200000000000000000000000000000000000011","mixHash":"0xd004862f5a9878b33870e318ba13bce8b23f2b9f6e38cd09b627aeb74c6d13eb","nonce":"0x0000000000000000","number":"0x78ddfa9","parentBeaconBlockRoot":"0x5371ab7194b618dfa8f2a12c8748d48d68388104dd116e4a3c26d6af80b6a196","parentHash":"0x902630b5ad957c0fefaf6cc37bbd755be30e845e838602ee1b11f4013a438132","receiptsRoot":"0x5c92c470ff49fc68093a0722e6f69af12505113e4537e64bf56cd2095c1f25e6","sha3Uncles":"0x1dcc4de8dec75d7aab85b567b6ccd41ad312451b948a7413f0a142fd40d49347","size":"0x2ac0","stateRoot":"0x9359bf5d4d33d58cb1efda213eb4a31d14602f207935ca2e93f5c082c88903f6","timestamp":"0x670f990b","transactions":["0x1c9533f3f3c2aed1e26d155a586d90228b5cf1e947922414a277673903f79ae6","0xaef98bd9853fc5f4f198c09dcc6fc31055ca25b720e7003da73f44d7c32bc2d9","0xd37bc8187b93914f044e7e18f128a434f2f71c126e096d681473cd21dcd09ff3","0xc1c9f2887351073db60c511a958fdd2808ae8cdfc4a457d1eeff059d2c4d9c26","0x92ff46d7594279adb12eb87d1ed69c78f204927eb16912f67260a112eb133e5e","0x24ae6040178fe89521ba4cf74abf9fa9bd9ff239a3d7248fdb3110f9b76c11c5","0x9f228892cb30696df0ffab6f17bd1baf07c0041de16ff9e7123633df5b4e4dda","0xf1c1a7e008b909b937a0108886c70c5a74608146f12e5e5b9c807fbaa4bab33b","0x9909f56bee1659a0ab9752aa3642b3573ffe69c01bc23fc3856a4f4072c1eacf","0x81d4c4f4edb0285de5b573a55efbe37d633c7d13d80464448db6010e122455a4","0xad2b83826777f2a71dded34a19c4d387c3cba8bdc4faa937c831f3bef09546fb","0x41c0e3dfef92ac1ca565b6dbf61af7cc5a0fadeea780d1e1da331c42905bdd4c","0xb588ff2722a5ae3c8dd34ac05ef5cba457f037469858148827f3ad4bd6854dc8","0x77cfb05bc4029852d3a96d44acf0c73dbc2a7284674a438fa1a4a632e6e9a14e"],"transactionsRoot":"0x0efac0f5fabce95b5fd9bf528e5ef1f85a9496987d3610f75ec4808fda071d5a","uncles":[],"withdrawals":[],"withdrawalsRoot":"0x56e81f171bcc55a6ff8345e692c0f86e5b48e01b996cadc001622fb5e363b421"},"id":6}

        '
    headers:
      Alt-Svc:
      - h3=":443"; ma=2592000,h3-29=":443"; ma=2592000
      Content-Type:
      - application/json
      Date:
      - Tue, 03 Mar 2026 22:41:56 GMT
      Transfer-Encoding:
      - chunked
      Vary:
      - Origin
      Via:
      - 1.1 google
      X-Proxyd-Cache-Status:
      - MISS
    status:
      code: 200
      message: OK
- request:
    body: '{"jsonrpc": "2.0", "method": "eth_getTransactionReceipt", "params": ["0x92ff46d7594279adb12eb87d1ed69c78f204927eb16912f67260a112eb133e5e"],
      "id": 7}'
    headers:
      Accept:
      - '*/*'
      Accept-Encoding:
      - gzip, deflate
      Connection:
      - keep-alive
      Content-Length:
      - '148'
      Content-Type:
      - application/json
      Cookie:
      - lb1=3d5a7df2f7437523
      User-Agent:
      - web3.py/7.14.0/web3.providers.rpc.rpc.HTTPProvider
    method: POST
    uri: https://mainnet.optimism.io/
  response:
    body:
      string: '{"jsonrpc":"2.0","result":{"blockHash":"0xfe5982dbbaf3f39ed1611ae8e4fd5ccea89acaee99fc15f3c8165aa7f2573aa4","blockNumber":"0x78ddfa9","contractAddress":null,"cumulativeGasUsed":"0xb0904","effectiveGasPrice":"0x111d03","from":"0x178e89a81c694259f15d350e05469f3e674ea853","gasUsed":"0x1dfbb","l1BaseFeeScalar":"0x146b","l1BlobBaseFee":"0x1","l1BlobBaseFeeScalar":"0xf79c5","l1Fee":"0x16b6caf4f8","l1GasPrice":"0x2b748826e","l1GasUsed":"0x640","logs":[{"address":"0x7d2382b1f8af621229d33464340541db362b4907","blockHash":"0xfe5982dbbaf3f39ed1611ae8e4fd5ccea89acaee99fc15f3c8165aa7f2573aa4","blockNumber":"0x78ddfa9","blockTimestamp":"0x670f990b","data":"0x00000000000000000000000000000000000000000000000001458f124939a1e5","logIndex":"0x10","removed":false,"topics":["0xddf252ad1be2c89b69c2b068fc378daa952ba7f163c4a11628f55a4df523b3ef","0x000000000000000000000000178e89a81c694259f15d350e05469f3e674ea853","0x0000000000000000000000000000000000000000000000000000000000000000"],"transactionHash":"0x92ff46d7594279adb12eb87d1ed69c78f204927eb16912f67260a112eb133e5e","transactionIndex":"0x4"},{"address":"0x4200000000000000000000000000000000000042","blockHash":"0xfe5982dbbaf3f39ed1611ae8e4fd5ccea89acaee99fc15f3c8165aa7f2573aa4","blockNumber":"0x78ddfa9","blockTimestamp":"0x670f990b","data":"0x000000000000000000000000000000000000000000000000014c4d9356096535","logIndex":"0x11","removed":false,"topics":["0xddf252ad1be2c89b69c2b068fc378daa952ba7f163c4a11628f55a4df523b3ef","0x0000000000000000000000007d2382b1f8af621229d33464340541db362b4907","0x000000000000000000000000178e89a81c694259f15d350e05469f3e674ea853"],"transactionHash":"0x92ff46d7594279adb12eb87d1ed69c78f204927eb16912f67260a112eb133e5e","transactionIndex":"0x4"},{"address":"0x4200000000000000000000000000000000000042","blockHash":"0xfe5982dbbaf3f39ed1611ae8e4fd5ccea89acaee99fc15f3c8165aa7f2573aa4","blockNumber":"0x78ddfa9","blockTimestamp":"0x670f990b","data":"0x00000000000000000000000000000000000000000001ee8f9fde0ce4ba3e446400000000000000000000000000000000000000000001ee8fa12a5a781047a999","logIndex":"0x12","removed":false,"topics":["0xdec2bacdd2f05b59de34da9b523dff8be42e5e38e818c82fdb0bae774387a724","0x000000000000000000000000a6e8772af29b29b9202a073f8e36f447689beef6"],"transactionHash":"0x92ff46d7594279adb12eb87d1ed69c78f204927eb16912f67260a112eb133e5e","transactionIndex":"0x4"},{"address":"0x7d2382b1f8af621229d33464340541db362b4907","blockHash":"0xfe5982dbbaf3f39ed1611ae8e4fd5ccea89acaee99fc15f3c8165aa7f2573aa4","blockNumber":"0x78ddfa9","blockTimestamp":"0x670f990b","data":"0x00000000000000000000000000000000000000000000000001458f124939a1e5000000000000000000000000000000000000000000000000014c4d9356096535","logIndex":"0x13","removed":false,"topics":["0xf279e6a1f5e320cca91135676d9cb6e44ca8a08c0b88342bcdb1144f6511b568","0x000000000000000000000000178e89a81c694259f15d350e05469f3e674ea853"],"transactionHash":"0x92ff46d7594279adb12eb87d1ed69c78f204927eb16912f67260a112eb133e5e","transactionIndex":"0x4"}],"logsBloom":"0x00000000000000000000000000000000000000000000000000000000000000001000000000000200000000000000000000000008000000000000000000000050000000000001000020000008000000000000000000000000000000000000000000000000020000000040400000000800000000000000000000000010000000000000000000000000000000000000000000000000000000000000000000000810040000000000000000000002000000000000000000000800000000000000000000040002000000000000000000000000008000000000000000000008000020000000040020000000000000000000000040000000000000000000000000000000","status":"0x1","to":"0x7d2382b1f8af621229d33464340541db362b4907","transactionHash":"0x92ff46d7594279adb12eb87d1ed69c78f204927eb16912f67260a112eb133e5e","transactionIndex":"0x4","type":"0x2"},"id":7}

        '
    headers:
      Alt-Svc:
      - h3=":443"; ma=2592000,h3-29=":443"; ma=2592000
      Content-Type:
      - application/json
      Date:
      - Tue, 03 Mar 2026 22:41:56 GMT
      Transfer-Encoding:
      - chunked
      Vary:
      - Origin
      Via:
      - 1.1 google
      X-Proxyd-Cache-Status:
      - MISS
    status:
      code: 200
      message: OK
- request:
    body: null
    headers:
      Accept:
      - '*/*'
      Accept-Encoding:
      - gzip, deflate
      Connection:
      - keep-alive
      User-Agent:
      - rotki/1.41.2.dev927+ge84fe3f5bf.d20260221
    method: GET
    uri: https://explorer.optimism.io/api?action=txlistinternal&module=account&sort=asc&txhash=0x92ff46d7594279adb12eb87d1ed69c78f204927eb16912f67260a112eb133e5e
  response:
    body:
      string: '{"message":"No internal transactions found","result":[],"status":"0"}'
    headers:
      CF-RAY:
      - 9d6c26c74f184f72-AMS
      Cache-Control:
      - max-age=0, private, must-revalidate
      Connection:
      - keep-alive
      Content-Type:
      - application/json; charset=utf-8
      Date:
      - Tue, 03 Mar 2026 22:41:56 GMT
      Nel:
      - '{"report_to":"cf-nel","success_fraction":0.0,"max_age":604800}'
      Report-To:
      - '{"group":"cf-nel","max_age":604800,"endpoints":[{"url":"https://a.nel.cloudflare.com/report/v4?s=zmQYoFvqFiWOzKURxu20zzvOIdQamkrSW3ONl5H7UgxUidvASQCu%2BQWFPPpKfn4PMiSNKhaqccNe2NOyTkmy52iLdIgiZ8zfR5gO0NJ4FN32oP%2BLOx%2B7EzjI5wfbz9nx"}]}'
      Server:
      - cloudflare
      Transfer-Encoding:
      - chunked
      access-control-allow-credentials:
      - 'true'
      access-control-allow-origin:
      - '*'
      access-control-expose-headers:
      - bypass-429-option,x-ratelimit-reset,x-ratelimit-limit,x-ratelimit-remaining,api-v2-temp-token
      alt-svc:
      - h3=":443"; ma=86400
      bypass-429-option:
      - no_bypass
      cf-cache-status:
      - DYNAMIC
      content-length:
      - '69'
      strict-transport-security:
      - max-age=31536000; includeSubDomains
      x-ratelimit-limit:
      - '600'
      x-ratelimit-remaining:
      - '598'
      x-ratelimit-reset:
      - '3594'
      x-request-id:
      - 3e9dc91b115511ac4c884596f92380d3
    status:
      code: 200
      message: OK
version: 1
