interactions:
- request:
    body: '{"jsonrpc": "2.0", "method": "web3_clientVersion", "params": [], "id":
      0}'
    headers:
      Accept:
      - '*/*'
      Accept-Encoding:
      - gzip, deflate
      Connection:
      - keep-alive
      Content-Length:
      - '73'
      Content-Type:
      - application/json
      User-Agent:
      - web3.py/7.14.0/web3.providers.rpc.rpc.HTTPProvider
    method: POST
    uri: https://mainnet.optimism.io/
  response:
    body:
      string: '{"jsonrpc":"2.0","result":"reth/v1.11.0-564ffa5/x86_64-unknown-linux-gnu","id":0}

        '
    headers:
      Alt-Svc:
      - h3=":443"; ma=2592000,h3-29=":443"; ma=2592000
      Content-Length:
      - '82'
      Content-Type:
      - application/json
      Date:
      - Tue, 03 Mar 2026 22:42:24 GMT
      Set-Cookie:
      - lb1=3d5a7df2f7437523; Path=/
      Vary:
      - Origin
      Via:
      - 1.1 google
      X-Proxyd-Cache-Status:
      - MISS
    status:
      code: 200
      message: OK
- request:
    body: '{"jsonrpc": "2.0", "method": "net_version", "params": [], "id": 1}'
    headers:
      Accept:
      - '*/*'
      Accept-Encoding:
      - gzip, deflate
      Connection:
      - keep-alive
      Content-Length:
      - '66'
      Content-Type:
      - application/json
      Cookie:
      - lb1=3d5a7df2f7437523
      User-Agent:
      - web3.py/7.14.0/web3.providers.rpc.rpc.HTTPProvider
    method: POST
    uri: https://mainnet.optimism.io/
  response:
    body:
      string: '{"jsonrpc":"2.0","result":"10","id":1}

        '
    headers:
      Alt-Svc:
      - h3=":443"; ma=2592000,h3-29=":443"; ma=2592000
      Content-Length:
      - '39'
      Content-Type:
      - application/json
      Date:
      - Tue, 03 Mar 2026 22:42:24 GMT
      Vary:
      - Origin
      Via:
      - 1.1 google
      X-Proxyd-Cache-Status:
      - HIT
    status:
      code: 200
      message: OK
- request:
    body: '{"jsonrpc": "2.0", "method": "eth_blockNumber", "params": [], "id": 2}'
    headers:
      Accept:
      - '*/*'
      Accept-Encoding:
      - gzip, deflate
      Connection:
      - keep-alive
      Content-Length:
      - '70'
      Content-Type:
      - application/json
      Cookie:
      - lb1=3d5a7df2f7437523
      User-Agent:
      - web3.py/7.14.0/web3.providers.rpc.rpc.HTTPProvider
    method: POST
    uri: https://mainnet.optimism.io/
  response:
    body:
      string: '{"jsonrpc":"2.0","result":"0x8d9c50b","id":2}

        '
    headers:
      Alt-Svc:
      - h3=":443"; ma=2592000,h3-29=":443"; ma=2592000
      Content-Length:
      - '46'
      Content-Type:
      - application/json
      Date:
      - Tue, 03 Mar 2026 22:42:24 GMT
      Vary:
      - Origin
      Via:
      - 1.1 google
      X-Proxyd-Cache-Status:
      - MISS
    status:
      code: 200
      message: OK
- request:
    body: '{"jsonrpc": "2.0", "method": "eth_getBalance", "params": ["0x76a05Df20bFEF5EcE3eB16afF9cb10134199A921",
      "0x12110"], "id": 3}'
    headers:
      Accept:
      - '*/*'
      Accept-Encoding:
      - gzip, deflate
      Connection:
      - keep-alive
      Content-Length:
      - '124'
      Content-Type:
      - application/json
      Cookie:
      - lb1=3d5a7df2f7437523
      User-Agent:
      - web3.py/7.14.0/web3.providers.rpc.rpc.HTTPProvider
    method: POST
    uri: https://mainnet.optimism.io/
  response:
    body:
      string: '{"jsonrpc":"2.0","result":"0xb1a2bc2ec50000","id":3}

        '
    headers:
      Alt-Svc:
      - h3=":443"; ma=2592000,h3-29=":443"; ma=2592000
      Content-Length:
      - '53'
      Content-Type:
      - application/json
      Date:
      - Tue, 03 Mar 2026 22:42:24 GMT
      Vary:
      - Origin
      Via:
      - 1.1 google
      X-Proxyd-Cache-Status:
      - MISS
    status:
      code: 200
      message: OK
- request:
    body: '{"jsonrpc": "2.0", "method": "eth_getTransactionByHash", "params": ["0x5e77a04531c7c107af1882d76cbff9486d0a9aa53701c30888509d4f5f2b003a"],
      "id": 4}'
    headers:
      Accept:
      - '*/*'
      Accept-Encoding:
      - gzip, deflate
      Connection:
      - keep-alive
      Content-Length:
      - '147'
      Content-Type:
      - application/json
      Cookie:
      - lb1=3d5a7df2f7437523
      User-Agent:
      - web3.py/7.14.0/web3.providers.rpc.rpc.HTTPProvider
    method: POST
    uri: https://mainnet.optimism.io/
  response:
    body:
      string: '{"jsonrpc":"2.0","result":{"blockHash":"0xbee7192e575af30420cae0c7776304ac196077ee72b048970549e4f08e875453","blockNumber":"0x1","from":"0x70b17c0fe982ab4a7ac17a4c25485643151a1f2d","gas":"0x7a120","gasPrice":"0x1","hash":"0x5e77a04531c7c107af1882d76cbff9486d0a9aa53701c30888509d4f5f2b003a","index":"0x0","input":"0x202ee0ed000000000000000000000000000000000000000000000000000000000001421800000000000000000000000000000000000000000000000000000000d0e3ebf0","l1BlockNumber":"0xcf7a45","l1Timestamp":"0x618d8837","l1TxOrigin":null,"nonce":"0x28972","queueIndex":null,"queueOrigin":"sequencer","r":"0xc878d22e771004beb73e7a4268fd4f447735812b94b217f6807412efcec90d61","rawTransaction":"0xf8a883028972018307a120948ce8c13d816fe6daf12d6fd9e4952e1fc88850af80b844202ee0ed000000000000000000000000000000000000000000000000000000000001421800000000000000000000000000000000000000000000000000000000d0e3ebf038a0c878d22e771004beb73e7a4268fd4f447735812b94b217f6807412efcec90d61a03588018735fb361c49e5de54b266b8b157c1ba3d6ee08e3bcbdee7cd725c16e8","s":"0x3588018735fb361c49e5de54b266b8b157c1ba3d6ee08e3bcbdee7cd725c16e8","to":"0x8ce8c13d816fe6daf12d6fd9e4952e1fc88850af","transactionIndex":"0x0","v":"0x38","value":"0x0"},"id":4}

        '
    headers:
      Alt-Svc:
      - h3=":443"; ma=2592000,h3-29=":443"; ma=2592000
      Content-Length:
      - '1203'
      Content-Type:
      - application/json
      Date:
      - Tue, 03 Mar 2026 22:42:24 GMT
      Vary:
      - Origin
      Via:
      - 1.1 google
      X-Proxyd-Cache-Status:
      - MISS
    status:
      code: 200
      message: OK
- request:
    body: '{"jsonrpc": "2.0", "method": "eth_getTransactionByHash", "params": ["0x62afbede75870d3eab885fdab63596f2a8b318b04000b3458030dfb6bae4695b"],
      "id": 5}'
    headers:
      Accept:
      - '*/*'
      Accept-Encoding:
      - gzip, deflate
      Connection:
      - keep-alive
      Content-Length:
      - '147'
      Content-Type:
      - application/json
      Cookie:
      - lb1=3d5a7df2f7437523
      User-Agent:
      - web3.py/7.14.0/web3.providers.rpc.rpc.HTTPProvider
    method: POST
    uri: https://mainnet.optimism.io/
  response:
    body:
      string: '{"jsonrpc":"2.0","result":{"accessList":[],"blockHash":"0xc36ed0110f1d2a7c502072d098fd5b311426b06e73bc18c4d496e3264c49b8a2","blockNumber":"0x749ed45","chainId":"0xa","from":"0x8d72a9bebbd5160fbd61e57bcca7810b9f2d1d86","gas":"0x83460","gasPrice":"0x3a1d47e","hash":"0x62afbede75870d3eab885fdab63596f2a8b318b04000b3458030dfb6bae4695b","input":"0x2e1a7d4d000000000000000000000000000000000000000000000001150b12f7d689b411","maxFeePerGas":"0xac68292","maxPriorityFeePerGas":"0xa3df8","nonce":"0xa1","r":"0x8718a147911423c34eeecae077c657c630bffda10ff8a980988363e9c563926e","s":"0x3abf666aadd094b1e23d01abe4a79f19699983ace28e33c5c1f9963b39350c8a","to":"0xdeafc27ac8f977e6973d671e43cbfd2573021d9e","transactionIndex":"0xc","type":"0x2","v":"0x1","value":"0x0","yParity":"0x1"},"id":5}

        '
    headers:
      Alt-Svc:
      - h3=":443"; ma=2592000,h3-29=":443"; ma=2592000
      Content-Length:
      - '776'
      Content-Type:
      - application/json
      Date:
      - Tue, 03 Mar 2026 22:42:24 GMT
      Vary:
      - Origin
      Via:
      - 1.1 google
      X-Proxyd-Cache-Status:
      - MISS
    status:
      code: 200
      message: OK
- request:
    body: '{"jsonrpc": "2.0", "method": "eth_getBlockByNumber", "params": ["0x749ed45",
      false], "id": 6}'
    headers:
      Accept:
      - '*/*'
      Accept-Encoding:
      - gzip, deflate
      Connection:
      - keep-alive
      Content-Length:
      - '93'
      Content-Type:
      - application/json
      Cookie:
      - lb1=3d5a7df2f7437523
      User-Agent:
      - web3.py/7.14.0/web3.providers.rpc.rpc.HTTPProvider
    method: POST
    uri: https://mainnet.optimism.io/
  response:
    body:
      string: '{"jsonrpc":"2.0","result":{"baseFeePerGas":"0x3979686","blobGasUsed":"0x0","difficulty":"0x0","excessBlobGas":"0x0","extraData":"0x","gasLimit":"0x1c9c380","gasUsed":"0x4cb866","hash":"0xc36ed0110f1d2a7c502072d098fd5b311426b06e73bc18c4d496e3264c49b8a2","logsBloom":"0x1aee601a290039a28019808a082120908e888848200250320204001040620120a5005129200248410280005224a39c1400a7204060037432a031205012ecc9c400004b002220c028207a180927691401188d0c414141a209804882d1a1a4509190121a0f0e4c4030d8880b01e080089c4400710a020a16881000011582481c03a200820008d008320128030817035aa4020054a110ed4500240460840e0099980a20611618804862c02080200804aa70ea1404616420200280e41008462c0100f3261422400005814281282d0904897500e4820ab2d057460421812f00142006141a5429cad105080210400416005d119350342080b14b5085396400300524c0","miner":"0x4200000000000000000000000000000000000011","mixHash":"0x90b4c35cf0e4d76f6e45d3cd5b54f082d05ec57b8797db62618d34b191ce00db","nonce":"0x0000000000000000","number":"0x749ed45","parentBeaconBlockRoot":"0xe00a3b8ca3163fc49cc8d0ab01aef89f60a394cd12c8692ca627178a73ac0541","parentHash":"0x98cbf597b0a9e3c5ed1c1a6b1586dc983bb287684af4bd412b0f6ffa8d4ebb3a","receiptsRoot":"0x8a3382cb7f274be347b480b4b1a900c82fd1ca9e08d486e2490079eccc1bd858","sha3Uncles":"0x1dcc4de8dec75d7aab85b567b6ccd41ad312451b948a7413f0a142fd40d49347","size":"0x2f3b","stateRoot":"0x59925f0088aaffc78a674fddad149eed004d0dcd43e9652e3ae683f245681d3b","timestamp":"0x6687b443","transactions":["0xdde31d4daeb3c395a7139f70fb547bd8aff9d44a894409c8528a0a5e19209ba1","0x72dbeaece2b0b34b274ef9613e2cf480294d39389331c83e58d88f1971bb6343","0xc1267d8338aebfe630df708b92c1783d12bf2c9f5e9df5cb1171d3bf30661bd9","0xe83f0e73f063e04a1cf60615b8f9dda3e5989ce0f9087d50f646563f2d6458b8","0x11ae97da5f5344fd81804e0a0b1dfd7aa836da66206c3c6fb5bb584df6f9f05e","0xab4e0f122afd4a3b97a881638c02d4f0d112b88c555d995286f145caec8dec0f","0x641c8d7e6d48e4f24cdc90133a171ab4f7f1918bbde687120c766ffc2e76f312","0x3e9059c7a5ebbc3a3af23223cf471008bc547e280fc680cd84717eb89ae78897","0x7760f8133231d6a19daa99e5698b023d4ca54150549512dd863c6026d226a525","0x0dc91426266fa52479d781ee41772f7e92eaa92ef8335079c9da2b49774a1253","0x5b552878bbfd8cfd18f3f3a4686e54dde4900330d1e720828345a46bfb70933d","0x489a737bd3f28547315271c20a7d03963a650d9c10d33ce00f5c8230c25c316c","0x62afbede75870d3eab885fdab63596f2a8b318b04000b3458030dfb6bae4695b","0x9bdbde29c939bc7fe5e9993fe06e74b7ea2dc1ce51f52bfaa1461353c081c4b3","0x9105cf9407436920bde802ca4783fbd4ded549bf9b06f3bea086d9e763b8c04a","0x0dc6a8f95da6de3cc4b0644cc868b74f901f2798c2b7a559aa0cd48c6010ef31"],"transactionsRoot":"0x8eddcf5cb9d480be28f7080177dd3f31aba3e515d977abdf374391daa89361f5","uncles":[],"withdrawals":[],"withdrawalsRoot":"0x56e81f171bcc55a6ff8345e692c0f86e5b48e01b996cadc001622fb5e363b421"},"id":6}

        '
    headers:
      Alt-Svc:
      - h3=":443"; ma=2592000,h3-29=":443"; ma=2592000
      Content-Type:
      - application/json
      Date:
      - Tue, 03 Mar 2026 22:42:24 GMT
      Transfer-Encoding:
      - chunked
      Vary:
      - Origin
      Via:
      - 1.1 google
      X-Proxyd-Cache-Status:
      - MISS
    status:
      code: 200
      message: OK
- request:
    body: '{"jsonrpc": "2.0", "method": "eth_getTransactionReceipt", "params": ["0x62afbede75870d3eab885fdab63596f2a8b318b04000b3458030dfb6bae4695b"],
      "id": 7}'
    headers:
      Accept:
      - '*/*'
      Accept-Encoding:
      - gzip, deflate
      Connection:
      - keep-alive
      Content-Length:
      - '148'
      Content-Type:
      - application/json
      Cookie:
      - lb1=3d5a7df2f7437523
      User-Agent:
      - web3.py/7.14.0/web3.providers.rpc.rpc.HTTPProvider
    method: POST
    uri: https://mainnet.optimism.io/
  response:
    body:
      string: '{"jsonrpc":"2.0","result":{"blockHash":"0xc36ed0110f1d2a7c502072d098fd5b311426b06e73bc18c4d496e3264c49b8a2","blockNumber":"0x749ed45","contractAddress":null,"cumulativeGasUsed":"0x4594cc","effectiveGasPrice":"0x3a1d47e","from":"0x8d72a9bebbd5160fbd61e57bcca7810b9f2d1d86","gasUsed":"0x6857c","l1BaseFeeScalar":"0x558","l1BlobBaseFee":"0x1","l1BlobBaseFeeScalar":"0xc5fc5","l1Fee":"0x6212dcd04","l1GasPrice":"0x22cd35641","l1GasUsed":"0x80c","logs":[{"address":"0x5b977577eb8a480f63e11fc615d6753adb8652ae","blockHash":"0xc36ed0110f1d2a7c502072d098fd5b311426b06e73bc18c4d496e3264c49b8a2","blockNumber":"0x749ed45","blockTimestamp":"0x6687b443","data":"0x0000000000000000000000000000000000000000000000000000000000000000","logIndex":"0x57","removed":false,"topics":["0x8c5be1e5ebec7d5bd14f71427d1e84f3dd0314c0f7b2291e5b200ac8c7c3b925","0x0000000000000000000000008d72a9bebbd5160fbd61e57bcca7810b9f2d1d86","0x000000000000000000000000deafc27ac8f977e6973d671e43cbfd2573021d9e"],"transactionHash":"0x62afbede75870d3eab885fdab63596f2a8b318b04000b3458030dfb6bae4695b","transactionIndex":"0xc"},{"address":"0x5b977577eb8a480f63e11fc615d6753adb8652ae","blockHash":"0xc36ed0110f1d2a7c502072d098fd5b311426b06e73bc18c4d496e3264c49b8a2","blockNumber":"0x749ed45","blockTimestamp":"0x6687b443","data":"0x000000000000000000000000000000000000000000000001150b12f7d689b411","logIndex":"0x58","removed":false,"topics":["0xddf252ad1be2c89b69c2b068fc378daa952ba7f163c4a11628f55a4df523b3ef","0x0000000000000000000000008d72a9bebbd5160fbd61e57bcca7810b9f2d1d86","0x000000000000000000000000deafc27ac8f977e6973d671e43cbfd2573021d9e"],"transactionHash":"0x62afbede75870d3eab885fdab63596f2a8b318b04000b3458030dfb6bae4695b","transactionIndex":"0xc"},{"address":"0x794a61358d6845594f94dc1db02a252b5b4814ad","blockHash":"0xc36ed0110f1d2a7c502072d098fd5b311426b06e73bc18c4d496e3264c49b8a2","blockNumber":"0x749ed45","blockTimestamp":"0x6687b443","data":"0x0000000000000000000000000000000000000000000d1bc51899e57299f776580000000000000000000000000000000000000000004c21881119c4f65aae8cd20000000000000000000000000000000000000000001390091da32522b78905750000000000000000000000000000000000000000035010f4057710aab210c5cc00000000000000000000000000000000000000000370b5da2c51d2f96b1d4d84","logIndex":"0x59","removed":false,"topics":["0x804c9b842b2748a22bb64b345453a3de7ca54a6ca45ce00d415894979e22897a","0x0000000000000000000000004200000000000000000000000000000000000006"],"transactionHash":"0x62afbede75870d3eab885fdab63596f2a8b318b04000b3458030dfb6bae4695b","transactionIndex":"0xc"},{"address":"0xe50fa9b3c56ffb159cb0fca61f5c9d750e8128c8","blockHash":"0xc36ed0110f1d2a7c502072d098fd5b311426b06e73bc18c4d496e3264c49b8a2","blockNumber":"0x749ed45","blockTimestamp":"0x6687b443","data":"0x00000000000000000000000000000000000000000000000118eaa81e2ce093f4","logIndex":"0x5a","removed":false,"topics":["0xddf252ad1be2c89b69c2b068fc378daa952ba7f163c4a11628f55a4df523b3ef","0x0000000000000000000000002e003a06c5b0244f2eaded5bdf9052398d23cbe4","0x0000000000000000000000000000000000000000000000000000000000000000"],"transactionHash":"0x62afbede75870d3eab885fdab63596f2a8b318b04000b3458030dfb6bae4695b","transactionIndex":"0xc"},{"address":"0xe50fa9b3c56ffb159cb0fca61f5c9d750e8128c8","blockHash":"0xc36ed0110f1d2a7c502072d098fd5b311426b06e73bc18c4d496e3264c49b8a2","blockNumber":"0x749ed45","blockTimestamp":"0x6687b443","data":"0x00000000000000000000000000000000000000000000000118eaa81e2ce093f400000000000000000000000000000000000000000000000000521fd4bd30fd0c0000000000000000000000000000000000000000035010f4057710aab210c5cc","logIndex":"0x5b","removed":false,"topics":["0x4cf25bc1d991c17529c25213d3cc0cda295eeaad5f13f361969b12ea48015f90","0x0000000000000000000000002e003a06c5b0244f2eaded5bdf9052398d23cbe4","0x0000000000000000000000002e003a06c5b0244f2eaded5bdf9052398d23cbe4"],"transactionHash":"0x62afbede75870d3eab885fdab63596f2a8b318b04000b3458030dfb6bae4695b","transactionIndex":"0xc"},{"address":"0x4200000000000000000000000000000000000006","blockHash":"0xc36ed0110f1d2a7c502072d098fd5b311426b06e73bc18c4d496e3264c49b8a2","blockNumber":"0x749ed45","blockTimestamp":"0x6687b443","data":"0x000000000000000000000000000000000000000000000001193cc7f2ea119100","logIndex":"0x5c","removed":false,"topics":["0xddf252ad1be2c89b69c2b068fc378daa952ba7f163c4a11628f55a4df523b3ef","0x000000000000000000000000e50fa9b3c56ffb159cb0fca61f5c9d750e8128c8","0x0000000000000000000000002e003a06c5b0244f2eaded5bdf9052398d23cbe4"],"transactionHash":"0x62afbede75870d3eab885fdab63596f2a8b318b04000b3458030dfb6bae4695b","transactionIndex":"0xc"},{"address":"0x794a61358d6845594f94dc1db02a252b5b4814ad","blockHash":"0xc36ed0110f1d2a7c502072d098fd5b311426b06e73bc18c4d496e3264c49b8a2","blockNumber":"0x749ed45","blockTimestamp":"0x6687b443","data":"0x000000000000000000000000000000000000000000000001193cc7f2ea119100","logIndex":"0x5d","removed":false,"topics":["0x3115d1449a7b732c986cba18244e897a450f61e1bb8d589cd2e69e6c8924f9f7","0x0000000000000000000000004200000000000000000000000000000000000006","0x0000000000000000000000002e003a06c5b0244f2eaded5bdf9052398d23cbe4","0x0000000000000000000000002e003a06c5b0244f2eaded5bdf9052398d23cbe4"],"transactionHash":"0x62afbede75870d3eab885fdab63596f2a8b318b04000b3458030dfb6bae4695b","transactionIndex":"0xc"},{"address":"0x4200000000000000000000000000000000000006","blockHash":"0xc36ed0110f1d2a7c502072d098fd5b311426b06e73bc18c4d496e3264c49b8a2","blockNumber":"0x749ed45","blockTimestamp":"0x6687b443","data":"0x000000000000000000000000000000000000000000000001193cc7f2ea119100","logIndex":"0x5e","removed":false,"topics":["0xddf252ad1be2c89b69c2b068fc378daa952ba7f163c4a11628f55a4df523b3ef","0x0000000000000000000000002e003a06c5b0244f2eaded5bdf9052398d23cbe4","0x000000000000000000000000f8ad69d578bd58c7d3ff643a22355f0bfd5ca12a"],"transactionHash":"0x62afbede75870d3eab885fdab63596f2a8b318b04000b3458030dfb6bae4695b","transactionIndex":"0xc"},{"address":"0x4200000000000000000000000000000000000006","blockHash":"0xc36ed0110f1d2a7c502072d098fd5b311426b06e73bc18c4d496e3264c49b8a2","blockNumber":"0x749ed45","blockTimestamp":"0x6687b443","data":"0x000000000000000000000000000000000000000000000001193cc7f2ea119100","logIndex":"0x5f","removed":false,"topics":["0xddf252ad1be2c89b69c2b068fc378daa952ba7f163c4a11628f55a4df523b3ef","0x000000000000000000000000f8ad69d578bd58c7d3ff643a22355f0bfd5ca12a","0x0000000000000000000000005b977577eb8a480f63e11fc615d6753adb8652ae"],"transactionHash":"0x62afbede75870d3eab885fdab63596f2a8b318b04000b3458030dfb6bae4695b","transactionIndex":"0xc"},{"address":"0x5b977577eb8a480f63e11fc615d6753adb8652ae","blockHash":"0xc36ed0110f1d2a7c502072d098fd5b311426b06e73bc18c4d496e3264c49b8a2","blockNumber":"0x749ed45","blockTimestamp":"0x6687b443","data":"0x00000000000000000000000000000000000000000000000d840372728b82e4ce0000000000000000000000000000000000000000000000000000000000000000","logIndex":"0x60","removed":false,"topics":["0x06c03dc1e1399953729e53ec7181b6e753942e20fafe5b55917f5c34559ae69c","0x000000000000000000000000f8ad69d578bd58c7d3ff643a22355f0bfd5ca12a"],"transactionHash":"0x62afbede75870d3eab885fdab63596f2a8b318b04000b3458030dfb6bae4695b","transactionIndex":"0xc"},{"address":"0x5b977577eb8a480f63e11fc615d6753adb8652ae","blockHash":"0xc36ed0110f1d2a7c502072d098fd5b311426b06e73bc18c4d496e3264c49b8a2","blockNumber":"0x749ed45","blockTimestamp":"0x6687b443","data":"0x000000000000000000000000000000000000000000000001150b12f7d689b411","logIndex":"0x61","removed":false,"topics":["0xddf252ad1be2c89b69c2b068fc378daa952ba7f163c4a11628f55a4df523b3ef","0x000000000000000000000000deafc27ac8f977e6973d671e43cbfd2573021d9e","0x0000000000000000000000000000000000000000000000000000000000000000"],"transactionHash":"0x62afbede75870d3eab885fdab63596f2a8b318b04000b3458030dfb6bae4695b","transactionIndex":"0xc"},{"address":"0x4200000000000000000000000000000000000006","blockHash":"0xc36ed0110f1d2a7c502072d098fd5b311426b06e73bc18c4d496e3264c49b8a2","blockNumber":"0x749ed45","blockTimestamp":"0x6687b443","data":"0x000000000000000000000000000000000000000000000001193cc7f2ea119100","logIndex":"0x62","removed":false,"topics":["0xddf252ad1be2c89b69c2b068fc378daa952ba7f163c4a11628f55a4df523b3ef","0x0000000000000000000000005b977577eb8a480f63e11fc615d6753adb8652ae","0x000000000000000000000000deafc27ac8f977e6973d671e43cbfd2573021d9e"],"transactionHash":"0x62afbede75870d3eab885fdab63596f2a8b318b04000b3458030dfb6bae4695b","transactionIndex":"0xc"},{"address":"0x5b977577eb8a480f63e11fc615d6753adb8652ae","blockHash":"0xc36ed0110f1d2a7c502072d098fd5b311426b06e73bc18c4d496e3264c49b8a2","blockNumber":"0x749ed45","blockTimestamp":"0x6687b443","data":"0x000000000000000000000000000000000000000000000001150b12f7d689b411000000000000000000000000000000000000000000000001193cc7f2ea119100","logIndex":"0x63","removed":false,"topics":["0xf279e6a1f5e320cca91135676d9cb6e44ca8a08c0b88342bcdb1144f6511b568","0x000000000000000000000000deafc27ac8f977e6973d671e43cbfd2573021d9e"],"transactionHash":"0x62afbede75870d3eab885fdab63596f2a8b318b04000b3458030dfb6bae4695b","transactionIndex":"0xc"},{"address":"0x4200000000000000000000000000000000000006","blockHash":"0xc36ed0110f1d2a7c502072d098fd5b311426b06e73bc18c4d496e3264c49b8a2","blockNumber":"0x749ed45","blockTimestamp":"0x6687b443","data":"0x000000000000000000000000000000000000000000000001193cc7f2ea119100","logIndex":"0x64","removed":false,"topics":["0x7fcf532c15f0a6db0bd6d0e038bea71d30d808c7d98cb3bf7268a95bf5081b65","0x000000000000000000000000deafc27ac8f977e6973d671e43cbfd2573021d9e"],"transactionHash":"0x62afbede75870d3eab885fdab63596f2a8b318b04000b3458030dfb6bae4695b","transactionIndex":"0xc"}],"logsBloom":"0x100a0000000008000000000200000000008000000000000002040000000000000000000000000000000000500000000000012000000204000020000000200000000000000000000000001008000000000000040000400001000800000000000000000000020000000000000000000800000050000000060000000014000000000000000008000000000001000000020000001000002000000000200002000810020000000080000000000000000000000000000000000002000000000000010000000022000004000000002000000041000002000000000400000002000020040010040000400000000000000000000080000000000000000000000000000080","status":"0x1","to":"0xdeafc27ac8f977e6973d671e43cbfd2573021d9e","transactionHash":"0x62afbede75870d3eab885fdab63596f2a8b318b04000b3458030dfb6bae4695b","transactionIndex":"0xc","type":"0x2"},"id":7}

        '
    headers:
      Alt-Svc:
      - h3=":443"; ma=2592000,h3-29=":443"; ma=2592000
      Content-Type:
      - application/json
      Date:
      - Tue, 03 Mar 2026 22:42:25 GMT
      Transfer-Encoding:
      - chunked
      Vary:
      - Origin
      Via:
      - 1.1 google
      X-Proxyd-Cache-Status:
      - MISS
    status:
      code: 200
      message: OK
- request:
    body: null
    headers:
      Accept:
      - '*/*'
      Accept-Encoding:
      - gzip, deflate
      Connection:
      - keep-alive
      User-Agent:
      - rotki/1.41.2.dev927+ge84fe3f5bf.d20260221
    method: GET
    uri: https://explorer.optimism.io/api?action=txlistinternal&module=account&sort=asc&txhash=0x62afbede75870d3eab885fdab63596f2a8b318b04000b3458030dfb6bae4695b
  response:
    body:
      string: '{"message":"OK","result":[{"blockNumber":"122285381","callType":"call","contractAddress":"","errCode":"","from":"0x4200000000000000000000000000000000000006","gas":"2300","gasUsed":"150","index":"77","input":"0x","isError":"0","timeStamp":"1720169539","to":"0xdeafc27ac8f977e6973d671e43cbfd2573021d9e","transactionHash":"0x62afbede75870d3eab885fdab63596f2a8b318b04000b3458030dfb6bae4695b","type":"call","value":"20265292269383422208"},{"blockNumber":"122285381","callType":"call","contractAddress":"","errCode":"","from":"0xdeafc27ac8f977e6973d671e43cbfd2573021d9e","gas":"2300","gasUsed":"0","index":"78","input":"0x","isError":"0","timeStamp":"1720169539","to":"0x8d72a9bebbd5160fbd61e57bcca7810b9f2d1d86","transactionHash":"0x62afbede75870d3eab885fdab63596f2a8b318b04000b3458030dfb6bae4695b","type":"call","value":"20265292269383422208"}],"status":"1"}'
    headers:
      CF-RAY:
      - 9d6c277b3a8ab8be-AMS
      Cache-Control:
      - max-age=0, private, must-revalidate
      Connection:
      - keep-alive
      Content-Type:
      - application/json; charset=utf-8
      Date:
      - Tue, 03 Mar 2026 22:42:25 GMT
      Nel:
      - '{"report_to":"cf-nel","success_fraction":0.0,"max_age":604800}'
      Report-To:
      - '{"group":"cf-nel","max_age":604800,"endpoints":[{"url":"https://a.nel.cloudflare.com/report/v4?s=AJvcdYwjAP6Tr%2FBjbqt9NPqJCYbuA0h33mtjpHyP6s%2F7xu6eY3jhp7Rrc4Iol0DUpmOLq3kq2KZhiB4VV72JWdgRvQiVgH1dVcCkEVXO9wUiZTFipXvokxtPuh5WGesd"}]}'
      Server:
      - cloudflare
      Transfer-Encoding:
      - chunked
      access-control-allow-credentials:
      - 'true'
      access-control-allow-origin:
      - '*'
      access-control-expose-headers:
      - bypass-429-option,x-ratelimit-reset,x-ratelimit-limit,x-ratelimit-remaining,api-v2-temp-token
      alt-svc:
      - h3=":443"; ma=86400
      bypass-429-option:
      - no_bypass
      cf-cache-status:
      - DYNAMIC
      content-length:
      - '854'
      strict-transport-security:
      - max-age=31536000; includeSubDomains
      x-ratelimit-limit:
      - '600'
      x-ratelimit-remaining:
      - '599'
      x-ratelimit-reset:
      - '34802'
      x-request-id:
      - 7b396f16f8e8563a6035cfd47bf519b7
    status:
      code: 200
      message: OK
version: 1
