interactions:
- request:
    body: '{"id": 0, "jsonrpc": "2.0", "method": "eth_getTransactionByHash", "params":
      ["0xae3b94eee8fe5bdbb99787536f379bd6e8496ebaf238819f7ea30465d3e32195"]}'
    headers:
      Accept:
      - '*/*'
      Accept-Encoding:
      - gzip, deflate
      Connection:
      - keep-alive
      Content-Length:
      - '147'
      Content-Type:
      - application/json
      User-Agent:
      - rotki/1.41.2.dev927+ge84fe3f5bf.d20260221
    method: POST
    uri: https://explorer.optimism.io/api/eth-rpc
  response:
    body:
      string: '{"jsonrpc":"2.0","result": {"accessList":[],"blockHash":"0x0f1d3c157d6b2f281a63664f304b10422e11f09b4dcdec10e5e32078ce35e6ee","blockNumber":"0x736aae7","chainId":"0xa","from":"0x158e02e4a130afd22426bc3cca06dd346f4f54ea","gas":"0x23693","gasPrice":"0x3ae97f4","hash":"0xae3b94eee8fe5bdbb99787536f379bd6e8496ebaf238819f7ea30465d3e32195","input":"0xa694fc3a0000000000000000000000000000000000000000000000000011a6204a970e99","maxFeePerGas":"0x7382756","maxPriorityFeePerGas":"0xf4240","nonce":"0x8c","r":"0x8c6cdd14e68ae34cfb44322dca328cbe17333e4992e3812c44d0f056e6be9470","s":"0x741214d90d3250d65cd7a779728a1a42c83d21a5364d217b9cf3ac02262039ce","to":"0xe35fec3895dcecc7d2a91e8ae4ff3c0d43ebffe0","transactionIndex":"0xc","type":"0x2","v":"0x0","value":"0x0","yParity":"0x0"},"id":
        0}

        '
    headers:
      CF-RAY:
      - 9d6b8fed7e00b8d0-AMS
      Cache-Control:
      - max-age=0, private, must-revalidate
      Connection:
      - keep-alive
      Content-Type:
      - application/json; charset=utf-8
      Date:
      - Tue, 03 Mar 2026 20:58:57 GMT
      Nel:
      - '{"report_to":"cf-nel","success_fraction":0.0,"max_age":604800}'
      Report-To:
      - '{"group":"cf-nel","max_age":604800,"endpoints":[{"url":"https://a.nel.cloudflare.com/report/v4?s=xLR%2FWOmZM7Ul7ueA9lsqaC8uD%2B4CRpQUUCXL4Ag2vueSPLBFkKkMgENVxYDlTFiYFK2d97IL3cBsE8%2BI%2FLS9JXjVIymKo9R%2FOPTKyxSFcsmFQ3jNlQkHJbRycvsbG2W2"}]}'
      Server:
      - cloudflare
      Transfer-Encoding:
      - chunked
      access-control-allow-credentials:
      - 'true'
      access-control-allow-origin:
      - '*'
      access-control-expose-headers:
      - bypass-429-option,x-ratelimit-reset,x-ratelimit-limit,x-ratelimit-remaining,api-v2-temp-token
      alt-svc:
      - h3=":443"; ma=86400
      bypass-429-option:
      - no_bypass
      cf-cache-status:
      - DYNAMIC
      content-length:
      - '778'
      strict-transport-security:
      - max-age=31536000; includeSubDomains
      x-ratelimit-limit:
      - '600'
      x-ratelimit-remaining:
      - '589'
      x-ratelimit-reset:
      - '2444'
      x-request-id:
      - aa829698d5f4da1614cf6e81ba2de491
    status:
      code: 200
      message: OK
- request:
    body: '{"id": 0, "jsonrpc": "2.0", "method": "eth_getBlockByNumber", "params":
      ["0x736aae7", true]}'
    headers:
      Accept:
      - '*/*'
      Accept-Encoding:
      - gzip, deflate
      Connection:
      - keep-alive
      Content-Length:
      - '92'
      Content-Type:
      - application/json
      User-Agent:
      - rotki/1.41.2.dev927+ge84fe3f5bf.d20260221
    method: POST
    uri: https://explorer.optimism.io/api/eth-rpc
  response:
    body:
      string: '{"jsonrpc":"2.0","result": {"baseFeePerGas":"0x39f55b4","blobGasUsed":"0x0","difficulty":"0x0","excessBlobGas":"0x0","extraData":"0x","gasLimit":"0x1c9c380","gasUsed":"0x1e8f72","hash":"0x0f1d3c157d6b2f281a63664f304b10422e11f09b4dcdec10e5e32078ce35e6ee","logsBloom":"0x048228005002080c00c002806292404100090848a82040010004010465402004910c100820100010d00000182012300000002062000880224a2000a000602088200001000400c2201002802c0004940010260802006800140080020420200202e60e800192008000004800402001290014221008004c04241000083460004c018c18000000000d0000000100a01480000200c0a080a018600000001c228044181202300a04000002200402240800040020002040880101082002015605000080c0001002008804a9004000020050000008840202808420010000040684002000183888000c0404002500804320000000c20000a0000842080000000100030000","miner":"0x4200000000000000000000000000000000000011","mixHash":"0x1d45b3c635638db610daf6ca49b6dede88e443971db17fddcc29273b3bc1694a","nonce":"0x0000000000000000","number":"0x736aae7","parentBeaconBlockRoot":"0x5fa0bcb744c6aca3e67348d41b3c9309a81b93b21c5dee7ade5c87cb4a5b3116","parentHash":"0x6b32893c154b333db1fc8661f3419e611e4e776c9f65700b27322d5ab01fad6b","receiptsRoot":"0x6c01d62e9cd79d46dbfb082886a852f8c4dbf8c3c42487a35c54962720a5b94b","sha3Uncles":"0x1dcc4de8dec75d7aab85b567b6ccd41ad312451b948a7413f0a142fd40d49347","size":"0x3eca","stateRoot":"0x37f9e40ce484a480fbb9bcfe98b3ed62ac0c8aa972720e240509f9bebb073687","timestamp":"0x66612f87","transactions":[{"blockHash":"0x0f1d3c157d6b2f281a63664f304b10422e11f09b4dcdec10e5e32078ce35e6ee","blockNumber":"0x736aae7","depositReceiptVersion":"0x1","from":"0xdeaddeaddeaddeaddeaddeaddeaddeaddead0001","gas":"0xf4240","gasPrice":"0x0","hash":"0x15d6ab1aba594e9aac3df08c0377480fa9588c8901bf7e189dba4adf27c75794","input":"0x440a5e2000000558000c5fc500000000000000020000000066612eff000000000131a2c6000000000000000000000000000000000000000000000000000000027422b3230000000000000000000000000000000000000000000000000000000000000001f5095f4b62b0ed1cd9ecccb7ae1c206878dcf78f6848e48ff0344f750f99a1370000000000000000000000006887246668a3b87f54deb3b94ba47a6f63f32985","mint":"0x0","nonce":"0xf0e870","r":"0x0","s":"0x0","sourceHash":"0x2d6771c5fce60dcdb1cb370ff4831b0c7b4a29a1d57687d65b9a846e396132e7","to":"0x4200000000000000000000000000000000000015","transactionIndex":"0x0","type":"0x7e","v":"0x0","value":"0x0","yParity":"0x0"},{"accessList":[],"blockHash":"0x0f1d3c157d6b2f281a63664f304b10422e11f09b4dcdec10e5e32078ce35e6ee","blockNumber":"0x736aae7","chainId":"0xa","from":"0xcba6a2397b322cf1389f6d1adc05f75f36b20116","gas":"0x249f0","gasPrice":"0x99536b4","hash":"0xd120cc8c4bb55b4706f93a98cc737f3a16364030aa24add5a8d2b68c863ef90e","input":"0x","maxFeePerGas":"0x17d78400","maxPriorityFeePerGas":"0x5f5e100","nonce":"0x17ab0c","r":"0x6223818a6a0c01d4d80e9ea1e709595370c085bcbb9b80ad501c9be5e99168de","s":"0x7f3a242f11a91ef309fa679abcbc1181efcfaba5d709349efd582f410a16ed0f","to":"0x81a0ab3c1b7952ab03bb5b52e4ee6565ec9cb1ee","transactionIndex":"0x1","type":"0x2","v":"0x1","value":"0x3205af7670000","yParity":"0x1"},{"accessList":[],"blockHash":"0x0f1d3c157d6b2f281a63664f304b10422e11f09b4dcdec10e5e32078ce35e6ee","blockNumber":"0x736aae7","chainId":"0xa","from":"0x2d2cc0eb095e43204e0c087e07dbf95909650939","gas":"0x249f0","gasPrice":"0x99536b4","hash":"0x497f27744c508d3d50786bcc5221e4ef3bd44a0111c1834682ffecddf80b41a2","input":"0x","maxFeePerGas":"0xbdfd63e00","maxPriorityFeePerGas":"0x5f5e100","nonce":"0x20414e","r":"0x6b2b7b43ec2bd6e5795ca1ac34bb99ebb50290505cf1416c477d68e4508f9507","s":"0x6df6b5ee701395daaa53deccba40d8fc00070c7ac0b6f54c8ae925cab4c1c9d4","to":"0x4966f73354ef7f6b44e0d408f3046930e7166e6e","transactionIndex":"0x2","type":"0x2","v":"0x0","value":"0x1fd5129130000","yParity":"0x0"},{"accessList":[],"blockHash":"0x0f1d3c157d6b2f281a63664f304b10422e11f09b4dcdec10e5e32078ce35e6ee","blockNumber":"0x736aae7","chainId":"0xa","from":"0xcba6a2397b322cf1389f6d1adc05f75f36b20116","gas":"0x249f0","gasPrice":"0x99536b4","hash":"0x13aed3d44e18d11457146ad614dfd09252f7eb7c78401b5aba2aa0589cc613b8","input":"0x","maxFeePerGas":"0x17d78400","maxPriorityFeePerGas":"0x5f5e100","nonce":"0x17ab0d","r":"0x478ba562015b15a23d427b9affc75308abf0ca81a4ed410603228c0933b4fb97","s":"0x696d06dfc7da282b9cc613f9782e7a50ec1f9a8de55f3a355a6f777425a0694a","to":"0xffd00675e7a6783cf20a1ff74069f125ab11e86b","transactionIndex":"0x3","type":"0x2","v":"0x1","value":"0x3205af7670000","yParity":"0x1"},{"accessList":[],"blockHash":"0x0f1d3c157d6b2f281a63664f304b10422e11f09b4dcdec10e5e32078ce35e6ee","blockNumber":"0x736aae7","chainId":"0xa","from":"0x2d2cc0eb095e43204e0c087e07dbf95909650939","gas":"0x249f0","gasPrice":"0x99536b4","hash":"0x8e8858e916cd879877716b1fa470338759abc67447aabd9ea3ecd8750885a5d2","input":"0x","maxFeePerGas":"0xbdfd63e00","maxPriorityFeePerGas":"0x5f5e100","nonce":"0x20414f","r":"0x25421fc668a1af8aaa69388aba8f099852183c5e3af4c809c717c7abb17d69f3","s":"0x7e66dbc800956b219e35e2dddfdfaf0801460a953221e9e264af3b94ce849699","to":"0x9eb7a32cdb84f89986ac08a6540791216087ac11","transactionIndex":"0x4","type":"0x2","v":"0x1","value":"0x3087b297a1c000","yParity":"0x1"},{"accessList":[],"blockHash":"0x0f1d3c157d6b2f281a63664f304b10422e11f09b4dcdec10e5e32078ce35e6ee","blockNumber":"0x736aae7","chainId":"0xa","from":"0xcba6a2397b322cf1389f6d1adc05f75f36b20116","gas":"0x249f0","gasPrice":"0x99536b4","hash":"0xf642bd8aaae92c37a0e957ec240cf7abaeba0cf07a0374edbbbec0e113a31981","input":"0x","maxFeePerGas":"0x17d78400","maxPriorityFeePerGas":"0x5f5e100","nonce":"0x17ab0e","r":"0xbdff4ebf36aa9f3d516a7dfd1b3bb36c10b8062549d50c7c449a07d7303dca0f","s":"0x610866d136d265fe3b95ccb5a7c1df9467753738bda921bfc55d908e2f5f7b5a","to":"0xda32475ced31f7e789a3cca825cbd4e91ddf3658","transactionIndex":"0x5","type":"0x2","v":"0x1","value":"0x3205af7670000","yParity":"0x1"},{"accessList":[],"blockHash":"0x0f1d3c157d6b2f281a63664f304b10422e11f09b4dcdec10e5e32078ce35e6ee","blockNumber":"0x736aae7","chainId":"0xa","from":"0xcba6a2397b322cf1389f6d1adc05f75f36b20116","gas":"0x249f0","gasPrice":"0x99536b4","hash":"0x5d1d492e866a5343b646b378996b6f61cbf9d3b56932df0e0c1f8be771614257","input":"0x","maxFeePerGas":"0x17d78400","maxPriorityFeePerGas":"0x5f5e100","nonce":"0x17ab0f","r":"0xc3341fefba88dfb34559bd5a266841c7864c1991146626c8d7a47414e8300fd6","s":"0x2c2a876c1537ab54a8c7cb7e0255522267b4b16a61245efc6e2edc9818cbb52c","to":"0x08365ed666eb93c4b33c1a174c5185a436fa9f82","transactionIndex":"0x6","type":"0x2","v":"0x0","value":"0x3205af7670000","yParity":"0x0"},{"accessList":[],"blockHash":"0x0f1d3c157d6b2f281a63664f304b10422e11f09b4dcdec10e5e32078ce35e6ee","blockNumber":"0x736aae7","chainId":"0xa","from":"0xcba6a2397b322cf1389f6d1adc05f75f36b20116","gas":"0x249f0","gasPrice":"0x99536b4","hash":"0xfd675421a0999c9f921cf79a9a487e968cc5478dc0b499f7851f9f125c5cc73d","input":"0x","maxFeePerGas":"0x17d78400","maxPriorityFeePerGas":"0x5f5e100","nonce":"0x17ab10","r":"0x7f4a93aff8852dcc101e93d9d62a0ddb84f45dbe347e7d24aa127eac6418d700","s":"0x716677dde82c215a7ad64f6ad0ceb5010d342beef10b15074523a09491942065","to":"0xddc7da580e9cf8922ce6486771313808034a9896","transactionIndex":"0x7","type":"0x2","v":"0x0","value":"0x3205af7670000","yParity":"0x0"},{"accessList":[],"blockHash":"0x0f1d3c157d6b2f281a63664f304b10422e11f09b4dcdec10e5e32078ce35e6ee","blockNumber":"0x736aae7","chainId":"0xa","from":"0xcba6a2397b322cf1389f6d1adc05f75f36b20116","gas":"0x249f0","gasPrice":"0x99536b4","hash":"0x1803e2d4e42d193f418e2031c8d2a452445ec28aebe2573ad78aa4da47a84fda","input":"0x","maxFeePerGas":"0x17d78400","maxPriorityFeePerGas":"0x5f5e100","nonce":"0x17ab11","r":"0xa3df43cf54b490c63e35044d7d4083a05de8ab0ed8b0c8ebd20e8135a8315909","s":"0x24187acb86dfb6bdec0f82891924b489de4bbbfa007d560ab72d51c85396a495","to":"0xe8deea0dac7f5627edfa9ed7c2e187226897b415","transactionIndex":"0x8","type":"0x2","v":"0x1","value":"0x3205af7670000","yParity":"0x1"},{"accessList":[],"blockHash":"0x0f1d3c157d6b2f281a63664f304b10422e11f09b4dcdec10e5e32078ce35e6ee","blockNumber":"0x736aae7","chainId":"0xa","from":"0xcba6a2397b322cf1389f6d1adc05f75f36b20116","gas":"0x249f0","gasPrice":"0x99536b4","hash":"0x5bb18941178fbd7bca7cd06827f3fe6708e84233f3098ae9ec5b07b17b2b827a","input":"0x","maxFeePerGas":"0x17d78400","maxPriorityFeePerGas":"0x5f5e100","nonce":"0x17ab12","r":"0x9dcf8e78ea7646d026d7dc7a68eef6293357b08b975fb839cfef7c6c350c2b62","s":"0x13668e82d3013cee75c6f8ed8b9ece720c1e3f6e269d38c8397f4d5d3b8d907a","to":"0xba512dea783436a532fe58a7ede0ce2c0a62be00","transactionIndex":"0x9","type":"0x2","v":"0x1","value":"0x3205af7670000","yParity":"0x1"},{"blockHash":"0x0f1d3c157d6b2f281a63664f304b10422e11f09b4dcdec10e5e32078ce35e6ee","blockNumber":"0x736aae7","chainId":"0xa","from":"0x21c3de23d98caddc406e3d31b25e807addf33633","gas":"0x1bf946","gasPrice":"0x45d8b8e","hash":"0xfcc5bfe216f8218113460eba2ba3a443edac95a7ac9440fea198100ef83b6d4c","input":"0xb143044b000000000000000000000000000000000000000000000000000000000000002000000000000000000000000000000000000000000000000000000000000000010000000000000000000000000000000000000000000000000000000000000020000000000000000000000000000000000000000000000000000000000000006f0000000000000000000000004d73adb72bc3dd368966edd0f0b2148401a178e200000000000000000000000000000000000000000000000000000000000000a000000000000000000000000000000000000000000000000000000000666183e100000000000000000000000000000000000000000000000000000000000001600000000000000000000000000000000000000000000000000000000000000084704316e50000000000000000000000000000000000000000000000000000000000000070bf09988de2d3f5dcf42fba98c4c37c8222cd5a50e9880b8eec22f0e5153a61fd0000000000000000000000000000000000000000000000000000000000000005bf09988de2d3f5dcf42fba98c4c37c8222cd5a50e9880b8eec22f0e5153a61fd000000000000000000000000000000000000000000000000000000000000000000000000000000000000000000000000000000000000000000000082953311bb2658d479df9ce2e11e25673add5680bd8183eea4c935175f435aaf2a7d24e933493c107af1394cb752375aad4f3c179c752794a306442701acd5a3651bd6ca8e8ad2df14533166d5b02bac4072c3678a466df6be6312beda13bf9e06607d25b806b01a4be9c5ed9d95183818f666119ea8c83f4db6641404408e82c29d1b000000000000000000000000000000000000000000000000000000000000","nonce":"0x2d3246","r":"0x86df9f860f42bc360fdbeb7e6bcf8467c6785e0de4f29505beae65c13b0ab523","s":"0x2a1aa1c8f01bc8a52b915824bdee0261ec51e8ae8ec4e88a16207fe8a1ecbd1c","to":"0xd56e4eab23cb81f43168f9f45211eb027b9ac7cc","transactionIndex":"0xa","type":"0x0","v":"0x37","value":"0x0"},{"accessList":[],"blockHash":"0x0f1d3c157d6b2f281a63664f304b10422e11f09b4dcdec10e5e32078ce35e6ee","blockNumber":"0x736aae7","chainId":"0xa","from":"0x8ccc95646059a639470627f73c7e471b0ee1a6f4","gas":"0x7a1200","gasPrice":"0x40f396d","hash":"0xd3a893026f8f8b302c970e64fcdbeca284070908b861f3a02da416ad5404a3bd","input":"0xb1dc65a40001cc80e588de14e30f262975c1c65d9408ec7b34e157f43bd4bac65030b750000000000000000000000000000000000000000000000000000000000057080144e36e81f8d23812c4663789d79b10d37e0b1f527791aaf48c5f642bda4efe9300000000000000000000000000000000000000000000000000000000000000e00000000000000000000000000000000000000000000000000000000000000de00000000000000000000000000000000000000000000000000000000000000ec001010000000100000000000000000000000000000000000000000000000000000000000000000000000000000000000000000000000000000000000000000ce00000000000000000000000000000000000000000000000000000000000000020000000000000000000000000000000000000000000000000000000000000008000000000000000000000000000000000000000000000000000000000000009c00000000000000000000000000000000000000000000000000000000000000ca0000000000000000000000000000000000000000000000000000000000000000000000000000000000000000000000000000000000000000000000000000000010000000000000000000000000000000000000000000000000000000000000020000000000000000000000000000000000000000000000000dda641cfe44aff82000000000000000000000000e1c14b9f065dead2e89ee35382f8bd42bdb87a04000000000000000000000000e1c14b9f065dead2e89ee35382f8bd42bdb87a0400000000000000000000000000000000000000000000000000000000000045f2000000000000000000000000000000000000000000000000000000000005573000000000000000000000000000000000000000000000000000000000000000000000000000000000000000000000000000000000000000000000000000003f720000000000000000000000004200000000000000000000000000000000000006000000000000000000000000000000000000000000000000000086bd526f195d00000000000000000000000000000000000000000000000000000000000001a000000000000000000000000000000000000000000000000000000000000008000000000000000000000000000000000000000000000000000000000000000860c3e4bcc79fa0c532a7c39d9c49172e69d9db18978cc6ca0156886dde083d625100000000000000000000000000000000000000000000000000000000000006400000000000000000000000000000000000000000000000000000000000000020000000000000000000000000ea143346bd8eca087d33ee68c104ee7e36928b65000000000000000000000000000000000000000000000000000000000000000000000000000000000000000000000000000000000000000000038b54bb2d77f800000000000000000000000000000000000000000000000000000000000000800000000000000000000000000000000000000000000000000000000000000004000000000000000000000000000000000000000000000000000000000000008000000000000000000000000000000000000000000000000000000000000001e0000000000000000000000000000000000000000000000000000000000000032000000000000000000000000000000000000000000000000000000000000004a000000000000000000000000000000000000000000000000000000000000000000000000000000000000000000b2c639c533813f4aa9d7837caf62653d097ff85000000000000000000000000000000000000000000000000000000000000000000000000000000000000000000000000000000000000000000000000000000a00000000000000000000000000000000000000000000000000000000000000140000000000000000000000000000000000000000000000000000000000000006423b872dd000000000000000000000000e1c14b9f065dead2e89ee35382f8bd42bdb87a040000000000000000000000006d7bd5c0c207cba1377f58048aa5f8c5cd93361300000000000000000000000000000000000000000000000000000000003aef6100000000000000000000000000000000000000000000000000000000000000000000000000000000000000000000000000000000000000000000000000000000000000000000000000000000000000000000000000000000000000000000000000000000000000000b2c639c533813f4aa9d7837caf62653d097ff85000000000000000000000000000000000000000000000000000000000000000000000000000000000000000000000000000000000000000000000000000000a000000000000000000000000000000000000000000000000000000000000001200000000000000000000000000000000000000000000000000000000000000044095ea7b3000000000000000000000000111111125421ca6dc452d289314280a0f8842a6500000000000000000000000000000000000000000000000000000000003aef610000000000000000000000000000000000000000000000000000000000000000000000000000000000000000000000000000000000000000000000000000000000000000000000000000000000000000000000000000000000000000000000000000000000000000111111125421ca6dc452d289314280a0f8842a65000000000000000000000000000000000000000000000000000000000000000000000000000000000000000000000000000000000000000000000000000000a00000000000000000000000000000000000000000000000000000000000000160000000000000000000000000000000000000000000000000000000000000008883800a8e0000000000000000000000000b2c639c533813f4aa9d7837caf62653d097ff8500000000000000000000000000000000000000000000000000000000003aef6100000000000000000000000000000000000000000000000000037db89487aaa63880000000000000000000001fb3cf6e48f1e7b10213e7b6d87d4c073c7fdb7b66e0bbe300000000000000000000000000000000000000000000000000000000000000000000000000000000000000000000000000000000000000000000000000000000000000000000000000000000000000000000000000000002000000000000000000000000ea143346bd8eca087d33ee68c104ee7e36928b65000000000000000000000000000000000000000000000000000000000000000000000000000000000000000000000000000000000000000000000000000000a000000000000000000000000000000000000000000000000000000000000000c0000000000000000000000000000000000000000000000000000000000000000000000000000000000000000000000000000000000000000000000000000000000000000000000000000000000000000000000000000000000000000000000001000000000000000000000000833589fcd6edb6e08f4c7c32d4f71b54bda0291300000000000000000000000000000000000000000000000000000000003aef61000000000000000000000000000000000000000000000000000000000000000100000000000000000000000000000000000000000000000000000000000000200000000000000000000000000000000000000000000000000000000000000040000000000000000000000000000000000000000000000000000000000002c38700000000000000000000000000000000000000000000000000000000000000060000000000000000000000000000000000000000000000000000000000000001000000000000000000000000000000000000000000000000000000000000002000000000000000000000000000000000000000000000000000000000000000010000000000000000000000000000000000000000000000000000000000000020000000000000000000000000000000000000000000000000000000000000024000000000000000000000000000000000000000000000000000000000000000200000000000000000000000000000000000000000000000000000000000000040000000000000000000000000000000000000000000000000000000000000016000000000000000000000000000000000000000000000000000000000000000f8000000000000000600000002000000000002c3870000000000000000000000001682ae6375c4e4a97e4b583bc394c861a46d89620000000000000000000000002b4069517957735be00cee0fadae88a26365528f00000000000000000000000004336603557feb138b36075156e92f9e551dfc5d00000000000000000000000000000000833589fcd6edb6e08f4c7c32d4f71b54bda02913000000000000000000000000e1c14b9f065dead2e89ee35382f8bd42bdb87a0400000000000000000000000000000000000000000000000000000000003aef6100000000000000000000000055a5786ca51c31623f3efb8bbfcc8df9a4c61ba90000000000000000000000000000000000000000000000000000000000000000000000000000008200794a47a31b54a5042548013f08cd702d27ecd8bac4afc89843ea7fb792034876cfd1783fe89a073a50dbc63893e91c708113a53f552d437137d1d3aa1611691bbfb9c26f1f62d54d7b835c1b46cb6e3b0a073e9bf1eb8bab21729c9f2777dac748d580d67d52fb0c18c91ec68f0bd1eeef414b074e37e480cb742b335535aa3b1b00000000000000000000000000000000000000000000000000000000000000000000000000000000000000000000000000000000000000000000000000000000000000000000000000000000000000000000000000000000000000000006feeac1d06e0bb20003b92d1fd1239046beffbb2d73567698a4a43b8f88e1ad05169d9cc5dfdb975fab44012b4a3a0c48bfe775ba6b9188d44b60f074b117d43e54afa43cf41f64a6ad38f698a73c4ee1bc26a65077963384362326a804d726db7d91bcf35968c34c0f160e03d46c5c1042f453ae33c5509e2c3f8d7fcfc9207375e8c1485a2beaa0b1f678fe20e5566db2deb4e8a89678ecb24b7b70d5d52de5be628965eb16b1bdb66f6599bba87cd064e353898760ddb7b63ccab7ec274975000000000000000000000000000000000000000000000000000000000000000626888717b65ab4368cf1e61e645fe0a072077b32a52b456c345613e2af80f38c475b923ea582dcbfc315a1832cfb6021fe5305d984d23a180474876b12437bca25a02b4c7f506940d6600e1a9e8ba817d6d5fb40eecfc281684e233f6e4431ee57b11e6a854bbb009e9a3d70d5dd42dd811ad342107d29972173fa08d665b41441c5505dc3a6bd805114e7f2b8ea559d908e8899bbd1461274475bd20584b54d03ffba26a2acd171a37d1e3b7e21cad2cc9bd6a2d07effc9140039c9eb40214f","maxFeePerGas":"0x40f396d","maxPriorityFeePerGas":"0x7b320c","nonce":"0x8870","r":"0x2c59d2677fa208a6f0baaad091bacccaa42b2050df4908d23b573cca1be771","s":"0x24373087874ff80d55e4c6c0cd6ad9c50d9509484b8905c544cb312b47c0d3c3","to":"0xbae6560eca9b77cb047158c783e36f7735c86037","transactionIndex":"0xb","type":"0x2","v":"0x1","value":"0x0","yParity":"0x1"},{"accessList":[],"blockHash":"0x0f1d3c157d6b2f281a63664f304b10422e11f09b4dcdec10e5e32078ce35e6ee","blockNumber":"0x736aae7","chainId":"0xa","from":"0x158e02e4a130afd22426bc3cca06dd346f4f54ea","gas":"0x23693","gasPrice":"0x3ae97f4","hash":"0xae3b94eee8fe5bdbb99787536f379bd6e8496ebaf238819f7ea30465d3e32195","input":"0xa694fc3a0000000000000000000000000000000000000000000000000011a6204a970e99","maxFeePerGas":"0x7382756","maxPriorityFeePerGas":"0xf4240","nonce":"0x8c","r":"0x8c6cdd14e68ae34cfb44322dca328cbe17333e4992e3812c44d0f056e6be9470","s":"0x741214d90d3250d65cd7a779728a1a42c83d21a5364d217b9cf3ac02262039ce","to":"0xe35fec3895dcecc7d2a91e8ae4ff3c0d43ebffe0","transactionIndex":"0xc","type":"0x2","v":"0x0","value":"0x0","yParity":"0x0"},{"blockHash":"0x0f1d3c157d6b2f281a63664f304b10422e11f09b4dcdec10e5e32078ce35e6ee","blockNumber":"0x736aae7","chainId":"0xa","from":"0x4812e79a6fe7477037e8181582c5392bd5976352","gas":"0x1113ee","gasPrice":"0x3ad5158","hash":"0xc5e91f1579bfc1be1f9beea45c16776e6f5ddd895ba97d900258d797fd8bd3b9","input":"0x4630a0d8ecda648d913a074f29078c7f41370bf40f9b457bc4f4cd8f9c43405b601a92b100000000000000000000000000000000000000000000000000000000000000c000000000000000000000000000000000000000000000000000000000000001000000000000000000000000004812e79a6fe7477037e8181582c5392bd5976352000000000000000000000000000000000000000000000000005e4aa9b03ccc580000000000000000000000000000000000000000000000000000000000000160000000000000000000000000000000000000000000000000000000000000000f6a756d7065722e65786368616e67650000000000000000000000000000000000000000000000000000000000000000000000000000000000000000000000002a3078303030303030303030303030303030303030303030303030303030303030303030303030303030300000000000000000000000000000000000000000000000000000000000000000000000000000000000000000000000000000000000010000000000000000000000000000000000000000000000000000000000000020000000000000000000000000ca423977156bb05b13a2ba3b76bc5419e2fe9680000000000000000000000000ca423977156bb05b13a2ba3b76bc5419e2fe96800000000000000000000000007f5c764cbc14f9669b88837ca1490cca17c316070000000000000000000000000000000000000000000000000000000000000000000000000000000000000000000000000000000000000000000000000625e5ae00000000000000000000000000000000000000000000000000000000000000e0000000000000000000000000000000000000000000000000000000000000000100000000000000000000000000000000000000000000000000000000000000ab83bd37f900020000040625e5ae075ec3f670cd2f240147ae00010cb9612fb90da03c3bba8f79ee02f9f7fbacc521000000011231deb6f5749ef6ce6943a275a1d3e7486f4eae59725ade03010203001101000102020600000001ff000000000000000000000000000000007f5c764cbc14f9669b88837ca1490cca17c316074200000000000000000000000000000000000006000000000000000000000000000000000000000000000000000000000000000000000000000000000000000000","nonce":"0xc","r":"0xac33a961e5d9890667b571c2b997d7b706a4fb0d5afa04df785cfe03502d7fa9","s":"0x2da628e4b855a0fdd130c581431d44994ef2fc8a9ea383d6e5163e1953a8e15e","to":"0x1231deb6f5749ef6ce6943a275a1d3e7486f4eae","transactionIndex":"0xd","type":"0x0","v":"0x37","value":"0x0"},{"accessList":[],"blockHash":"0x0f1d3c157d6b2f281a63664f304b10422e11f09b4dcdec10e5e32078ce35e6ee","blockNumber":"0x736aae7","chainId":"0xa","from":"0x6809501ef4df4a4c78024bd50ba4bef3d5af17a9","gas":"0x8f99b","gasPrice":"0x3ac7229","hash":"0xbcd49e37d65a5741d8234afd97b43be17669bdc444c4a8da69e7ebabfb8117b3","input":"0x82ad56cb0000000000000000000000000000000000000000000000000000000000000020000000000000000000000000000000000000000000000000000000000000000a00000000000000000000000000000000000000000000000000000000000001400000000000000000000000000000000000000000000000000000000000000420000000000000000000000000000000000000000000000000000000000000070000000000000000000000000000000000000000000000000000000000000009e00000000000000000000000000000000000000000000000000000000000000cc00000000000000000000000000000000000000000000000000000000000000fa00000000000000000000000000000000000000000000000000000000000001280000000000000000000000000000000000000000000000000000000000000156000000000000000000000000000000000000000000000000000000000000018400000000000000000000000000000000000000000000000000000000000001b20000000000000000000000000044487e55560d5855db9bec7a5faa9084777db1e0000000000000000000000000000000000000000000000000000000000000001000000000000000000000000000000000000000000000000000000000000006000000000000000000000000000000000000000000000000000000000000002446a761202000000000000000000000000dc6ff44d5d932cbd77b52e5612ba0529dc6226f10000000000000000000000000000000000000000000000000000000000000000000000000000000000000000000000000000000000000000000000000000014000000000000000000000000000000000000000000000000000000000000000000000000000000000000000000000000000000000000000000000000000000000000000000000000000000000000000000000000000000000000000000000000000000000000000000000000000000000000000000000000000000000000000000000000000000000000000000000000000000000000000000000000000000000000000000000000000000000000000000000000000000000000000000000000000000000000000000000000000000000000000000000000000000000000001c00000000000000000000000000000000000000000000000000000000000000044a9059cbb000000000000000000000000c0885104a4a4f87c452cbef1ebf50fc4d366254c00000000000000000000000000000000000000000000000029a2241af62c00000000000000000000000000000000000000000000000000000000000000000000000000000000000000000000000000000000000000000000000000419a598ed53104b7d66c636dbf366f58f7abd6822fabf25df5f5d7fb7bfe57a7691ce763b9a0e736837aba20c135aedb91bdbf35345448dea56de2dad40a5cb6fc1c0000000000000000000000000000000000000000000000000000000000000000000000000000000000000000000000000000000000000000000000000000000000000000000000f73147b3c10b61e047f20a87502fa18e044b9fe20000000000000000000000000000000000000000000000000000000000000001000000000000000000000000000000000000000000000000000000000000006000000000000000000000000000000000000000000000000000000000000002446a7612020000000000000000000000007f5c764cbc14f9669b88837ca1490cca17c316070000000000000000000000000000000000000000000000000000000000000000000000000000000000000000000000000000000000000000000000000000014000000000000000000000000000000000000000000000000000000000000000000000000000000000000000000000000000000000000000000000000000000000000000000000000000000000000000000000000000000000000000000000000000000000000000000000000000000000000000000000000000000000000000000000000000000000000000000000000000000000000000000000000000000000000000000000000000000000000000000000000000000000000000000000000000000000000000000000000000000000000000000000000000000000000001c00000000000000000000000000000000000000000000000000000000000000044a9059cbb000000000000000000000000ef8e0cffe68287703d44cd2d981221820b15132a0000000000000000000000000000000000000000000000000000000003b175ac00000000000000000000000000000000000000000000000000000000000000000000000000000000000000000000000000000000000000000000004153521dffbd60591e59fd7efeeee013e78dfe6091b7ecc975286ec10f3945fd4671fbedf84e3fcb7124ac7d67815165a7ce079f4721671d6af5a9a8b79763d7711b00000000000000000000000000000000000000000000000000000000000000000000000000000000000000000000000000000000000000000000000000000000000000000000006a0d7c63a243ad05d63bdc296277de11635265f00000000000000000000000000000000000000000000000000000000000000001000000000000000000000000000000000000000000000000000000000000006000000000000000000000000000000000000000000000000000000000000002446a761202000000000000000000000000dc6ff44d5d932cbd77b52e5612ba0529dc6226f10000000000000000000000000000000000000000000000000000000000000000000000000000000000000000000000000000000000000000000000000000014000000000000000000000000000000000000000000000000000000000000000000000000000000000000000000000000000000000000000000000000000000000000000000000000000000000000000000000000000000000000000000000000000000000000000000000000000000000000000000000000000000000000000000000000000000000000000000000000000000000000000000000000000000000000000000000000000000000000000000000000000000000000000000000000000000000000000000000000000000000000000000000000000000000000001c00000000000000000000000000000000000000000000000000000000000000044a9059cbb0000000000000000000000001bb835e5dc60ee76bb57bd70407a9a92ecf406830000000000000000000000000000000000000000000000002997a48c68dc500000000000000000000000000000000000000000000000000000000000000000000000000000000000000000000000000000000000000000000000004123fc5706b7a2e9d7e70c63fad884c25c9dd1422a0ab421581d8c643f563d53c47f8d1d209805acf73feac099278f1270f2e5e4d1e1cd7cd2450841797333fc7f1b00000000000000000000000000000000000000000000000000000000000000000000000000000000000000000000000000000000000000000000000000000000000000000000006b5cd33667bec4e2c779c75a887be07d4f1a31780000000000000000000000000000000000000000000000000000000000000001000000000000000000000000000000000000000000000000000000000000006000000000000000000000000000000000000000000000000000000000000002446a761202000000000000000000000000dc6ff44d5d932cbd77b52e5612ba0529dc6226f10000000000000000000000000000000000000000000000000000000000000000000000000000000000000000000000000000000000000000000000000000014000000000000000000000000000000000000000000000000000000000000000000000000000000000000000000000000000000000000000000000000000000000000000000000000000000000000000000000000000000000000000000000000000000000000000000000000000000000000000000000000000000000000000000000000000000000000000000000000000000000000000000000000000000000000000000000000000000000000000000000000000000000000000000000000000000000000000000000000000000000000000000000000000000000000001c00000000000000000000000000000000000000000000000000000000000000044a9059cbb000000000000000000000000455afb65c54b360c9a714ed145675f481da288dd0000000000000000000000000000000000000000000000002af0ef3f7f39c00000000000000000000000000000000000000000000000000000000000000000000000000000000000000000000000000000000000000000000000004168947f81b98d34acaa2149b65d6fd74249d9ef9f17189892f661adaa728b620a3df1c5b2933467c269601aeeda027c3d990199a4dc75ac609bd1628fe678809f1b0000000000000000000000000000000000000000000000000000000000000000000000000000000000000000000000000000000000000000000000000000000000000000000000f67d05efa474755eda7c76cd8b0bc06ffd7994540000000000000000000000000000000000000000000000000000000000000001000000000000000000000000000000000000000000000000000000000000006000000000000000000000000000000000000000000000000000000000000002446a761202000000000000000000000000dc6ff44d5d932cbd77b52e5612ba0529dc6226f10000000000000000000000000000000000000000000000000000000000000000000000000000000000000000000000000000000000000000000000000000014000000000000000000000000000000000000000000000000000000000000000000000000000000000000000000000000000000000000000000000000000000000000000000000000000000000000000000000000000000000000000000000000000000000000000000000000000000000000000000000000000000000000000000000000000000000000000000000000000000000000000000000000000000000000000000000000000000000000000000000000000000000000000000000000000000000000000000000000000000000000000000000000000000000000001c00000000000000000000000000000000000000000000000000000000000000044a9059cbb0000000000000000000000009016ef9455b34e44c69bc53657ef35e2a83bb58800000000000000000000000000000000000000000000000029a4fc9c4ea31000000000000000000000000000000000000000000000000000000000000000000000000000000000000000000000000000000000000000000000000041bce13336bdebc161940b31e855e4e46a7dedf4a184cc049987312899b9781d06403deeee6e6b209b05a448b0dacd902b6f918aa43c25609030c42294733f1a3c1c0000000000000000000000000000000000000000000000000000000000000000000000000000000000000000000000000000000000000000000000000000000000000000000000b09349ce208e8f893f1bcc8045fa28a840da5de30000000000000000000000000000000000000000000000000000000000000001000000000000000000000000000000000000000000000000000000000000006000000000000000000000000000000000000000000000000000000000000002446a761202000000000000000000000000dc6ff44d5d932cbd77b52e5612ba0529dc6226f10000000000000000000000000000000000000000000000000000000000000000000000000000000000000000000000000000000000000000000000000000014000000000000000000000000000000000000000000000000000000000000000000000000000000000000000000000000000000000000000000000000000000000000000000000000000000000000000000000000000000000000000000000000000000000000000000000000000000000000000000000000000000000000000000000000000000000000000000000000000000000000000000000000000000000000000000000000000000000000000000000000000000000000000000000000000000000000000000000000000000000000000000000000000000000000001c00000000000000000000000000000000000000000000000000000000000000044a9059cbb000000000000000000000000635d5bbf389c218b0d07a960c677c9a62f715bc600000000000000000000000000000000000000000000000029a2241af62c0000000000000000000000000000000000000000000000000000000000000000000000000000000000000000000000000000000000000000000000000041a45cc84b71334e5002fdc82e3ad774e32b870826fc3401cdf83be5366235ae417d6753a079bf6c149ff977f746e0ca2591e9abbf5a8e5c671cecf92a9d5b06c01c0000000000000000000000000000000000000000000000000000000000000000000000000000000000000000000000000000000000000000000000000000000000000000000000070edfebc7bb84b415c497157d69dd8177ba49ad0000000000000000000000000000000000000000000000000000000000000001000000000000000000000000000000000000000000000000000000000000006000000000000000000000000000000000000000000000000000000000000002446a761202000000000000000000000000dc6ff44d5d932cbd77b52e5612ba0529dc6226f10000000000000000000000000000000000000000000000000000000000000000000000000000000000000000000000000000000000000000000000000000014000000000000000000000000000000000000000000000000000000000000000000000000000000000000000000000000000000000000000000000000000000000000000000000000000000000000000000000000000000000000000000000000000000000000000000000000000000000000000000000000000000000000000000000000000000000000000000000000000000000000000000000000000000000000000000000000000000000000000000000000000000000000000000000000000000000000000000000000000000000000000000000000000000000000001c00000000000000000000000000000000000000000000000000000000000000044a9059cbb00000000000000000000000006680b4aa529e80e7ff3bef35512fa9ab5c0f67300000000000000000000000000000000000000000000000029a1d06e8ada40000000000000000000000000000000000000000000000000000000000000000000000000000000000000000000000000000000000000000000000000415b44aefaaf278e5d5791452bbd76688998edf8fd40b900e8d4360e5483e23a2538d28b4130a67c682e65112bb013f8f4249c8d1fc525c65c6450ee71163d0aa01b0000000000000000000000000000000000000000000000000000000000000000000000000000000000000000000000000000000000000000000000000000000000000000000000b89baace9a3012c404327695cec263715cc1c0250000000000000000000000000000000000000000000000000000000000000001000000000000000000000000000000000000000000000000000000000000006000000000000000000000000000000000000000000000000000000000000002446a7612020000000000000000000000007f5c764cbc14f9669b88837ca1490cca17c316070000000000000000000000000000000000000000000000000000000000000000000000000000000000000000000000000000000000000000000000000000014000000000000000000000000000000000000000000000000000000000000000000000000000000000000000000000000000000000000000000000000000000000000000000000000000000000000000000000000000000000000000000000000000000000000000000000000000000000000000000000000000000000000000000000000000000000000000000000000000000000000000000000000000000000000000000000000000000000000000000000000000000000000000000000000000000000000000000000000000000000000000000000000000000000000001c00000000000000000000000000000000000000000000000000000000000000044a9059cbb0000000000000000000000002733681ce6c1b23acd86d3473538db777b0773ce0000000000000000000000000000000000000000000000000000000001ccd643000000000000000000000000000000000000000000000000000000000000000000000000000000000000000000000000000000000000000000000041dc2228241a8cfc310dabcaca10844aaf9b804852871df67a187a0d217cea32e14c90ae207ddf34232fc8afa17d44df7623034984d83d8c54ea1c9e023f300ed91b00000000000000000000000000000000000000000000000000000000000000000000000000000000000000000000000000000000000000000000000000000000000000000000007e3e537cf8ba472e46da10e7c7182405d78d24f50000000000000000000000000000000000000000000000000000000000000001000000000000000000000000000000000000000000000000000000000000006000000000000000000000000000000000000000000000000000000000000002446a7612020000000000000000000000007f5c764cbc14f9669b88837ca1490cca17c316070000000000000000000000000000000000000000000000000000000000000000000000000000000000000000000000000000000000000000000000000000014000000000000000000000000000000000000000000000000000000000000000000000000000000000000000000000000000000000000000000000000000000000000000000000000000000000000000000000000000000000000000000000000000000000000000000000000000000000000000000000000000000000000000000000000000000000000000000000000000000000000000000000000000000000000000000000000000000000000000000000000000000000000000000000000000000000000000000000000000000000000000000000000000000000000001c00000000000000000000000000000000000000000000000000000000000000044a9059cbb00000000000000000000000028ab71e0d732a7ab0eafd4735797ea93135dee130000000000000000000000000000000000000000000000000000000002e66095000000000000000000000000000000000000000000000000000000000000000000000000000000000000000000000000000000000000000000000041d1fa9e3308db7c38f5625bf55da8507828af689b64a14cc4571ca80b2e23e4647e86aa4cd3d6d2d9943cad7b229c13cd7a0de7bd1b5e9fb713678f8b293877f71b0000000000000000000000000000000000000000000000000000000000000000000000000000000000000000000000000000000000000000000000000000000000000000000000933c162e5389874e9ad691bfb324d1d21bcfa2800000000000000000000000000000000000000000000000000000000000000001000000000000000000000000000000000000000000000000000000000000006000000000000000000000000000000000000000000000000000000000000002446a761202000000000000000000000000dc6ff44d5d932cbd77b52e5612ba0529dc6226f10000000000000000000000000000000000000000000000000000000000000000000000000000000000000000000000000000000000000000000000000000014000000000000000000000000000000000000000000000000000000000000000000000000000000000000000000000000000000000000000000000000000000000000000000000000000000000000000000000000000000000000000000000000000000000000000000000000000000000000000000000000000000000000000000000000000000000000000000000000000000000000000000000000000000000000000000000000000000000000000000000000000000000000000000000000000000000000000000000000000000000000000000000000000000000000001c00000000000000000000000000000000000000000000000000000000000000044a9059cbb00000000000000000000000024f573d698b83e619dcaa99211f7ec905208bd34000000000000000000000000000000000000000000000000299e9b28789ed000000000000000000000000000000000000000000000000000000000000000000000000000000000000000000000000000000000000000000000000041a7faf82d9c671b621d405a132dd50ef2ba78b44a03213eadf93edadcd93bbdc308ca73b3c36e3027d04423ef1dbc5536f170f70a3f3e48a7a62b942b8359e87f1b0000000000000000000000000000000000000000000000000000000000000000000000000000000000000000000000000000000000000000000000","maxFeePerGas":"0x73105f1","maxPriorityFeePerGas":"0xd1c75","nonce":"0x128399","r":"0x8e8d2170b4b92107fe3ea2f0bfae0361434fd5a053c24df2f5fe73d4fbce8bf4","s":"0x64cd714af1ca2af734e5aeec79b70c164b914f6fac0060299bf76a35a4bb7efa","to":"0x087000a300de7200382b55d40045000000e5d60e","transactionIndex":"0xe","type":"0x2","v":"0x1","value":"0x0","yParity":"0x1"},{"accessList":[],"blockHash":"0x0f1d3c157d6b2f281a63664f304b10422e11f09b4dcdec10e5e32078ce35e6ee","blockNumber":"0x736aae7","chainId":"0xa","from":"0x275a0e3934075b3660fa0a7501c837e0fa4f2e1a","gas":"0x68ed4","gasPrice":"0x3aba9e1","hash":"0x2c58241214e28ce758900dbfc7508f65e01e5591df4bbd21b79442fa7d6c00f5","input":"0x2e1a7d4d000000000000000000000000000000000000000000000000000000000000ab60","maxFeePerGas":"0xaf19bda","maxPriorityFeePerGas":"0xc542d","nonce":"0x3f6","r":"0x66900bb8e5c4c7c18346d641ee7141fd18b2e930ff36178124558b4ee795d4f5","s":"0x1a8960a2eecf6581ca642605f9cd7738825399a71ca4b78189d7f44d2c7cd075","to":"0xb2afdbf04c68989212de04f9347ea9bc649ae18b","transactionIndex":"0xf","type":"0x2","v":"0x0","value":"0x0","yParity":"0x0"},{"accessList":[],"blockHash":"0x0f1d3c157d6b2f281a63664f304b10422e11f09b4dcdec10e5e32078ce35e6ee","blockNumber":"0x736aae7","chainId":"0xa","from":"0x5e809a85aa182a9921edd10a4163745bb3e36284","gas":"0x7b0c","gasPrice":"0x3ab28ff","hash":"0x2c3993832fab3e29f036dc26b1fd0b4bef7e83c3e0f1bee791a2e9d3b18f3713","input":"0x","maxFeePerGas":"0x45e14f3","maxPriorityFeePerGas":"0xbd34b","nonce":"0x18128","r":"0x7144a7417f924812c532d8f26d41e146302117cfe11187284054d815ac98c540","s":"0x2edcbfe0cdb8a570e93507abc258b927f924972f786bfef35347ed3bcc199ba8","to":"0x2631cc8a788e82abaf673239dcaab5c78ac5ceea","transactionIndex":"0x10","type":"0x2","v":"0x0","value":"0x11c37938fe9a300","yParity":"0x0"}],"transactionsRoot":"0xaa28fbcc00e30ba9df7dd4a25d0c6f9da48c1a2235a8c6e94222734998148c42","uncles":[],"withdrawals":[],"withdrawalsRoot":"0x56e81f171bcc55a6ff8345e692c0f86e5b48e01b996cadc001622fb5e363b421"},"id":
        0}

        '
    headers:
      CF-RAY:
      - 9d6b8fee687cd8cc-AMS
      Cache-Control:
      - max-age=0, private, must-revalidate
      Connection:
      - keep-alive
      Content-Type:
      - application/json; charset=utf-8
      Date:
      - Tue, 03 Mar 2026 20:58:57 GMT
      Nel:
      - '{"report_to":"cf-nel","success_fraction":0.0,"max_age":604800}'
      Report-To:
      - '{"group":"cf-nel","max_age":604800,"endpoints":[{"url":"https://a.nel.cloudflare.com/report/v4?s=kxW6dqNNMzThi4AGlwjz2GQFobfCoysclAqY79dc4nH1NSKmHGqc1eUIv1dnMJcmGthB2qTxdXQdYXN1Dm2cgzFPmMIzbqHwwiYwHkrlCQ4wRv4oZCqncfDlmM5MPJIx"}]}'
      Server:
      - cloudflare
      Transfer-Encoding:
      - chunked
      access-control-allow-credentials:
      - 'true'
      access-control-allow-origin:
      - '*'
      access-control-expose-headers:
      - bypass-429-option,x-ratelimit-reset,x-ratelimit-limit,x-ratelimit-remaining,api-v2-temp-token
      alt-svc:
      - h3=":443"; ma=86400
      bypass-429-option:
      - no_bypass
      cf-cache-status:
      - DYNAMIC
      content-length:
      - '39976'
      strict-transport-security:
      - max-age=31536000; includeSubDomains
      x-ratelimit-limit:
      - '600'
      x-ratelimit-remaining:
      - '588'
      x-ratelimit-reset:
      - '2294'
      x-request-id:
      - bf08a1a0a39b17cce8727332b7ec49da
    status:
      code: 200
      message: OK
- request:
    body: '{"id": 0, "jsonrpc": "2.0", "method": "eth_getTransactionReceipt", "params":
      ["0xae3b94eee8fe5bdbb99787536f379bd6e8496ebaf238819f7ea30465d3e32195"]}'
    headers:
      Accept:
      - '*/*'
      Accept-Encoding:
      - gzip, deflate
      Connection:
      - keep-alive
      Content-Length:
      - '148'
      Content-Type:
      - application/json
      User-Agent:
      - rotki/1.41.2.dev927+ge84fe3f5bf.d20260221
    method: POST
    uri: https://explorer.optimism.io/api/eth-rpc
  response:
    body:
      string: '{"jsonrpc":"2.0","result": {"blockHash":"0x0f1d3c157d6b2f281a63664f304b10422e11f09b4dcdec10e5e32078ce35e6ee","blockNumber":"0x736aae7","contractAddress":null,"cumulativeGasUsed":"0xbdc3a","effectiveGasPrice":"0x3ae97f4","from":"0x158e02e4a130afd22426bc3cca06dd346f4f54ea","gasUsed":"0x1da02","logs":[{"address":"0x5b977577eb8a480f63e11fc615d6753adb8652ae","blockHash":"0x0f1d3c157d6b2f281a63664f304b10422e11f09b4dcdec10e5e32078ce35e6ee","blockNumber":"0x736aae7","data":"0x0000000000000000000000000000000000000000000000000000000000000000","logIndex":"0xc","removed":false,"topics":["0x8c5be1e5ebec7d5bd14f71427d1e84f3dd0314c0f7b2291e5b200ac8c7c3b925","0x000000000000000000000000158e02e4a130afd22426bc3cca06dd346f4f54ea","0x000000000000000000000000e35fec3895dcecc7d2a91e8ae4ff3c0d43ebffe0"],"transactionHash":"0xae3b94eee8fe5bdbb99787536f379bd6e8496ebaf238819f7ea30465d3e32195","transactionIndex":"0xc"},{"address":"0x5b977577eb8a480f63e11fc615d6753adb8652ae","blockHash":"0x0f1d3c157d6b2f281a63664f304b10422e11f09b4dcdec10e5e32078ce35e6ee","blockNumber":"0x736aae7","data":"0x0000000000000000000000000000000000000000000000000011a6204a970e99","logIndex":"0xd","removed":false,"topics":["0xddf252ad1be2c89b69c2b068fc378daa952ba7f163c4a11628f55a4df523b3ef","0x000000000000000000000000158e02e4a130afd22426bc3cca06dd346f4f54ea","0x000000000000000000000000e35fec3895dcecc7d2a91e8ae4ff3c0d43ebffe0"],"transactionHash":"0xae3b94eee8fe5bdbb99787536f379bd6e8496ebaf238819f7ea30465d3e32195","transactionIndex":"0xc"},{"address":"0xe35fec3895dcecc7d2a91e8ae4ff3c0d43ebffe0","blockHash":"0x0f1d3c157d6b2f281a63664f304b10422e11f09b4dcdec10e5e32078ce35e6ee","blockNumber":"0x736aae7","data":"0x0000000000000000000000000000000000000000000000000011a6204a970e99","logIndex":"0xe","removed":false,"topics":["0x9e71bc8eea02a63969f509818f2dafb9254532904319f9dbda79b67bd34a5f3d","0x000000000000000000000000158e02e4a130afd22426bc3cca06dd346f4f54ea"],"transactionHash":"0xae3b94eee8fe5bdbb99787536f379bd6e8496ebaf238819f7ea30465d3e32195","transactionIndex":"0xc"}],"logsBloom":"0x00000000000008000000000000000000000000000800000000000000000000000000000000000000000000000002000000002000000800000000000000200000000000000000000000000008000000000000000000000000000000000000000040040000000000000008000000000000100000000000000000000010400000000000000000000000000000000000000000000000000008000000000000000000020000000000000000000000000000000000000000000000000000000000000000000002000000000000000000400000000002000004000000000400000000000010000000000000000000000000000000000000000000000000000000000000","status":"0x1","to":"0xe35fec3895dcecc7d2a91e8ae4ff3c0d43ebffe0","transactionHash":"0xae3b94eee8fe5bdbb99787536f379bd6e8496ebaf238819f7ea30465d3e32195","transactionIndex":"0xc","type":"0x2"},"id":
        0}

        '
    headers:
      CF-RAY:
      - 9d6b8fefffda662a-AMS
      Cache-Control:
      - max-age=0, private, must-revalidate
      Connection:
      - keep-alive
      Content-Type:
      - application/json; charset=utf-8
      Date:
      - Tue, 03 Mar 2026 20:58:57 GMT
      Nel:
      - '{"report_to":"cf-nel","success_fraction":0.0,"max_age":604800}'
      Report-To:
      - '{"group":"cf-nel","max_age":604800,"endpoints":[{"url":"https://a.nel.cloudflare.com/report/v4?s=ITHLe3oQVxeNAW%2BqrnyR0xwXOiXhEgVeorZlJYgO4deVSQGEmp07Mrt0c8Cx71vXGH3TsByjbP7R0hukzA6TeMS366WWeO%2BfZAK1tajsJXngD9TbIZA6GlRDJxwiIzFn"}]}'
      Server:
      - cloudflare
      Transfer-Encoding:
      - chunked
      access-control-allow-credentials:
      - 'true'
      access-control-allow-origin:
      - '*'
      access-control-expose-headers:
      - bypass-429-option,x-ratelimit-reset,x-ratelimit-limit,x-ratelimit-remaining,api-v2-temp-token
      alt-svc:
      - h3=":443"; ma=86400
      bypass-429-option:
      - no_bypass
      cf-cache-status:
      - DYNAMIC
      content-length:
      - '2770'
      strict-transport-security:
      - max-age=31536000; includeSubDomains
      x-ratelimit-limit:
      - '600'
      x-ratelimit-remaining:
      - '587'
      x-ratelimit-reset:
      - '2048'
      x-request-id:
      - 479738930a2eb664fb1cc4a354e27deb
    status:
      code: 200
      message: OK
- request:
    body: null
    headers:
      Accept:
      - '*/*'
      Accept-Encoding:
      - gzip, deflate
      Connection:
      - keep-alive
      User-Agent:
      - rotki/1.41.2.dev927+ge84fe3f5bf.d20260221
    method: GET
    uri: https://explorer.optimism.io/api/v2/transactions/0xae3b94eee8fe5bdbb99787536f379bd6e8496ebaf238819f7ea30465d3e32195
  response:
    body:
      string: '{"l1_gas_used":"2036","priority_fee":"121346000000","raw_input":"0xa694fc3a0000000000000000000000000000000000000000000000000011a6204a970e99","is_pending_update":false,"op_withdrawals":[],"result":"success","hash":"0xae3b94eee8fe5bdbb99787536f379bd6e8496ebaf238819f7ea30465d3e32195","max_fee_per_gas":"121120598","revert_reason":null,"confirmation_duration":[0,2.0e3],"transaction_burnt_fee":"7374658990952","type":2,"token_transfers_overflow":false,"confirmations":27463174,"position":12,"max_priority_fee_per_gas":"1000000","transaction_tag":null,"created_contract":null,"value":"0","l1_fee_scalar":"0","from":{"ens_domain_name":"devblixt.eth","hash":"0x158e02e4A130AFD22426bc3cCA06dD346f4f54Ea","implementations":[],"is_contract":false,"is_scam":false,"is_verified":false,"metadata":null,"name":null,"private_tags":[],"proxy_type":null,"public_tags":[],"reputation":"ok","watchlist_names":[]},"gas_used":"121346","status":"ok","to":{"ens_domain_name":null,"hash":"0xE35Fec3895Dcecc7d2a91e8ae4fF3c0d43ebfFE0","implementations":[],"is_contract":true,"is_scam":false,"is_verified":true,"metadata":null,"name":"StakingRewards","private_tags":[],"proxy_type":null,"public_tags":[],"reputation":"ok","watchlist_names":[]},"authorization_list":[],"l1_fee":"29351962178","method":"stake","fee":{"type":"actual","value":"7525356953130"},"actions":[],"gas_limit":"145043","gas_price":"61773812","decoded_input":{"method_call":"stake(uint256
        amount)","method_id":"a694fc3a","parameters":[{"name":"amount","type":"uint256","value":"4967732224659097"}]},"l1_gas_price":"10538365731","token_transfers":[{"block_hash":"0x0f1d3c157d6b2f281a63664f304b10422e11f09b4dcdec10e5e32078ce35e6ee","block_number":121023207,"from":{"ens_domain_name":"devblixt.eth","hash":"0x158e02e4A130AFD22426bc3cCA06dD346f4f54Ea","implementations":[],"is_contract":false,"is_scam":false,"is_verified":false,"metadata":null,"name":null,"private_tags":[],"proxy_type":null,"public_tags":[],"reputation":"ok","watchlist_names":[]},"log_index":13,"method":null,"timestamp":null,"to":{"ens_domain_name":null,"hash":"0xE35Fec3895Dcecc7d2a91e8ae4fF3c0d43ebfFE0","implementations":[],"is_contract":true,"is_scam":false,"is_verified":true,"metadata":null,"name":"StakingRewards","private_tags":[],"proxy_type":null,"public_tags":[],"reputation":"ok","watchlist_names":[]},"token":{"address_hash":"0x5B977577Eb8a480f63e11FC615D6753adB8652Ae","circulating_market_cap":null,"decimals":"18","exchange_rate":null,"holders_count":"5092","icon_url":null,"name":"WETH
        yVault","reputation":"ok","symbol":"yvWETH","total_supply":"78617799485302498526","type":"ERC-20","volume_24h":null},"token_type":"ERC-20","total":{"decimals":"18","value":"4967732224659097"},"transaction_hash":"0xae3b94eee8fe5bdbb99787536f379bd6e8496ebaf238819f7ea30465d3e32195","type":"token_transfer"}],"base_fee_per_gas":"60773812","timestamp":"2024-06-06T03:39:51.000000Z","nonce":140,"historic_exchange_rate":"3859.07","transaction_types":["contract_call","token_transfer"],"exchange_rate":"1973.57","block_number":121023207,"has_error_in_internal_transactions":false}'
    headers:
      CF-RAY:
      - 9d6b8ff0cc17fff1-AMS
      Cache-Control:
      - max-age=0, private, must-revalidate
      Connection:
      - keep-alive
      Content-Type:
      - application/json; charset=utf-8
      Date:
      - Tue, 03 Mar 2026 20:58:58 GMT
      Nel:
      - '{"report_to":"cf-nel","success_fraction":0.0,"max_age":604800}'
      Report-To:
      - '{"group":"cf-nel","max_age":604800,"endpoints":[{"url":"https://a.nel.cloudflare.com/report/v4?s=UCKJGwB8xYXGduOH0Maxnl%2BKAFLzjc5ZBfMzi6aGPinMobfMXhy4Up8Zpi8CqLmko3Cq7TSQoYII8Ws8YpjxQPoPus8q8IIn5StqI85Bgzosz2l6I%2FKBpuuSfC7LBTFm"}]}'
      Server:
      - cloudflare
      Transfer-Encoding:
      - chunked
      access-control-allow-credentials:
      - 'true'
      access-control-allow-origin:
      - '*'
      access-control-expose-headers:
      - bypass-429-option,x-ratelimit-reset,x-ratelimit-limit,x-ratelimit-remaining,api-v2-temp-token
      alt-svc:
      - h3=":443"; ma=86400
      bypass-429-option:
      - temporary_token
      cf-cache-status:
      - DYNAMIC
      content-length:
      - '3087'
      strict-transport-security:
      - max-age=31536000; includeSubDomains
      x-ratelimit-limit:
      - '600'
      x-ratelimit-remaining:
      - '586'
      x-ratelimit-reset:
      - '1947'
      x-request-id:
      - e1ac3248e82279a389b6f936271c64dc
    status:
      code: 200
      message: OK
- request:
    body: null
    headers:
      Accept:
      - '*/*'
      Accept-Encoding:
      - gzip, deflate
      Connection:
      - keep-alive
      User-Agent:
      - rotki/1.41.2.dev927+ge84fe3f5bf.d20260221
    method: GET
    uri: https://explorer.optimism.io/api?action=txlistinternal&module=account&sort=asc&txhash=0xae3b94eee8fe5bdbb99787536f379bd6e8496ebaf238819f7ea30465d3e32195
  response:
    body:
      string: '{"message":"No internal transactions found","result":[],"status":"0"}'
    headers:
      CF-RAY:
      - 9d6b8ff4fcb088e9-AMS
      Cache-Control:
      - max-age=0, private, must-revalidate
      Connection:
      - keep-alive
      Content-Type:
      - application/json; charset=utf-8
      Date:
      - Tue, 03 Mar 2026 20:58:59 GMT
      Nel:
      - '{"report_to":"cf-nel","success_fraction":0.0,"max_age":604800}'
      Report-To:
      - '{"group":"cf-nel","max_age":604800,"endpoints":[{"url":"https://a.nel.cloudflare.com/report/v4?s=g9xajcMmcfnGHZul11EqZUHFjCT7h7nxSsJDehTwW%2BLAJhQBbD9cY40pBqfU64x51gD8P%2FDo6sx8LuM4T36WBr2pI%2BaYpD7BhBOmuDdIUZ1rZYTV5OKQbQiJtPV0s8NC"}]}'
      Server:
      - cloudflare
      Transfer-Encoding:
      - chunked
      access-control-allow-credentials:
      - 'true'
      access-control-allow-origin:
      - '*'
      access-control-expose-headers:
      - bypass-429-option,x-ratelimit-reset,x-ratelimit-limit,x-ratelimit-remaining,api-v2-temp-token
      alt-svc:
      - h3=":443"; ma=86400
      bypass-429-option:
      - no_bypass
      cf-cache-status:
      - DYNAMIC
      content-length:
      - '69'
      strict-transport-security:
      - max-age=31536000; includeSubDomains
      x-ratelimit-limit:
      - '600'
      x-ratelimit-remaining:
      - '585'
      x-ratelimit-reset:
      - '1250'
      x-request-id:
      - 595647a4ac671236a93563b4e314f68c
    status:
      code: 200
      message: OK
version: 1
